{
	"contracts/Gym_Contact.sol": {
		"gym": {
			"abi": [
				{
					"inputs": [],
					"stateMutability": "nonpayable",
					"type": "constructor"
				},
				{
					"anonymous": false,
					"inputs": [
						{
							"indexed": false,
							"internalType": "string",
							"name": "name",
							"type": "string"
						},
						{
							"indexed": false,
							"internalType": "uint256",
							"name": "value",
							"type": "uint256"
						}
					],
					"name": "ClassCreated",
					"type": "event"
				},
				{
					"inputs": [],
					"name": "ADMIN",
					"outputs": [
						{
							"internalType": "address",
							"name": "",
							"type": "address"
						}
					],
					"stateMutability": "view",
					"type": "function"
				},
				{
					"inputs": [
						{
							"internalType": "string",
							"name": "_name",
							"type": "string"
						},
						{
							"internalType": "uint256",
							"name": "_value",
							"type": "uint256"
						}
					],
					"name": "createClass",
					"outputs": [],
					"stateMutability": "nonpayable",
					"type": "function"
				},
				{
					"inputs": [
						{
							"internalType": "address",
							"name": "",
							"type": "address"
						}
					],
					"name": "users",
					"outputs": [
						{
							"internalType": "uint256",
							"name": "",
							"type": "uint256"
						}
					],
					"stateMutability": "view",
					"type": "function"
				}
			],
			"devdoc": {
				"kind": "dev",
				"methods": {},
				"version": 1
			},
			"evm": {
				"assembly": "    /* \"contracts/Gym_Contact.sol\":70:708  contract gym {\r... */\n  mstore(0x40, 0xa0)\n    /* \"contracts/Gym_Contact.sol\":312:363  constructor() {\r... */\n  callvalue\n  dup1\n  iszero\n  tag_1\n  jumpi\n  0x00\n  dup1\n  revert\ntag_1:\n  pop\n    /* \"contracts/Gym_Contact.sol\":345:355  msg.sender */\n  caller\n    /* \"contracts/Gym_Contact.sol\":337:355  ADMIN = msg.sender */\n  0xffffffffffffffffffffffffffffffffffffffff\n  and\n  0x80\n  dup2\n  0xffffffffffffffffffffffffffffffffffffffff\n  and\n  0x60\n  shl\n  dup2\n  mstore\n  pop\n  pop\n    /* \"contracts/Gym_Contact.sol\":70:708  contract gym {\r... */\n  shr(0x60, mload(0x80))\n  codecopy(0x00, dataOffset(sub_0), dataSize(sub_0))\n  0x00\n  assignImmutable(\"0x5c4c6aa067b6f8e6cb38e6ab843832a94d1712d661a04d73c517d6a1931a9e5d\")\n  return(0x00, dataSize(sub_0))\nstop\n\nsub_0: assembly {\n        /* \"contracts/Gym_Contact.sol\":70:708  contract gym {\r... */\n      mstore(0x40, 0x80)\n      callvalue\n      dup1\n      iszero\n      tag_1\n      jumpi\n      0x00\n      dup1\n      revert\n    tag_1:\n      pop\n      jumpi(tag_2, lt(calldatasize, 0x04))\n      shr(0xe0, calldataload(0x00))\n      dup1\n      0x2a0acc6a\n      eq\n      tag_3\n      jumpi\n      dup1\n      0x4852a212\n      eq\n      tag_4\n      jumpi\n      dup1\n      0xa87430ba\n      eq\n      tag_5\n      jumpi\n    tag_2:\n      0x00\n      dup1\n      revert\n        /* \"contracts/Gym_Contact.sol\":273:303  address immutable public ADMIN */\n    tag_3:\n      tag_6\n      tag_7\n      jump\t// in\n    tag_6:\n      mload(0x40)\n      tag_8\n      swap2\n      swap1\n      tag_9\n      jump\t// in\n    tag_8:\n      mload(0x40)\n      dup1\n      swap2\n      sub\n      swap1\n      return\n        /* \"contracts/Gym_Contact.sol\":462:705  function createClass(string memory _name, uint _value) public {\r... */\n    tag_4:\n      tag_10\n      0x04\n      dup1\n      calldatasize\n      sub\n      dup2\n      add\n      swap1\n      tag_11\n      swap2\n      swap1\n      tag_12\n      jump\t// in\n    tag_11:\n      tag_13\n      jump\t// in\n    tag_10:\n      stop\n        /* \"contracts/Gym_Contact.sol\":387:424  mapping(address => uint) public users */\n    tag_5:\n      tag_14\n      0x04\n      dup1\n      calldatasize\n      sub\n      dup2\n      add\n      swap1\n      tag_15\n      swap2\n      swap1\n      tag_16\n      jump\t// in\n    tag_15:\n      tag_17\n      jump\t// in\n    tag_14:\n      mload(0x40)\n      tag_18\n      swap2\n      swap1\n      tag_19\n      jump\t// in\n    tag_18:\n      mload(0x40)\n      dup1\n      swap2\n      sub\n      swap1\n      return\n        /* \"contracts/Gym_Contact.sol\":273:303  address immutable public ADMIN */\n    tag_7:\n      immutable(\"0x5c4c6aa067b6f8e6cb38e6ab843832a94d1712d661a04d73c517d6a1931a9e5d\")\n      dup2\n      jump\t// out\n        /* \"contracts/Gym_Contact.sol\":462:705  function createClass(string memory _name, uint _value) public {\r... */\n    tag_13:\n        /* \"contracts/Gym_Contact.sol\":552:562  msg.sender */\n      caller\n        /* \"contracts/Gym_Contact.sol\":543:562  ADMIN == msg.sender */\n      0xffffffffffffffffffffffffffffffffffffffff\n      and\n        /* \"contracts/Gym_Contact.sol\":543:548  ADMIN */\n      immutable(\"0x5c4c6aa067b6f8e6cb38e6ab843832a94d1712d661a04d73c517d6a1931a9e5d\")\n        /* \"contracts/Gym_Contact.sol\":543:562  ADMIN == msg.sender */\n      0xffffffffffffffffffffffffffffffffffffffff\n      and\n      eq\n        /* \"contracts/Gym_Contact.sol\":535:615  require(ADMIN == msg.sender, \"Solo el Administrador del Gym puede crear clases\") */\n      tag_21\n      jumpi\n      mload(0x40)\n      0x08c379a000000000000000000000000000000000000000000000000000000000\n      dup2\n      mstore\n      0x04\n      add\n      tag_22\n      swap1\n      tag_23\n      jump\t// in\n    tag_22:\n      mload(0x40)\n      dup1\n      swap2\n      sub\n      swap1\n      revert\n    tag_21:\n        /* \"contracts/Gym_Contact.sol\":631:658  ClassCreated(_name, _value) */\n      0x14d49e3ea4f348b7f368906dfe1a63055c7822d622a61672a35a55ae97a768f9\n        /* \"contracts/Gym_Contact.sol\":644:649  _name */\n      dup3\n        /* \"contracts/Gym_Contact.sol\":651:657  _value */\n      dup3\n        /* \"contracts/Gym_Contact.sol\":631:658  ClassCreated(_name, _value) */\n      mload(0x40)\n      tag_24\n      swap3\n      swap2\n      swap1\n      tag_25\n      jump\t// in\n    tag_24:\n      mload(0x40)\n      dup1\n      swap2\n      sub\n      swap1\n      log1\n        /* \"contracts/Gym_Contact.sol\":462:705  function createClass(string memory _name, uint _value) public {\r... */\n      pop\n      pop\n      jump\t// out\n        /* \"contracts/Gym_Contact.sol\":387:424  mapping(address => uint) public users */\n    tag_17:\n      mstore(0x20, 0x00)\n      dup1\n      0x00\n      mstore\n      keccak256(0x00, 0x40)\n      0x00\n      swap2\n      pop\n      swap1\n      pop\n      sload\n      dup2\n      jump\t// out\n        /* \"#utility.yul\":7:419   */\n    tag_27:\n        /* \"#utility.yul\":85:90   */\n      0x00\n        /* \"#utility.yul\":110:176   */\n      tag_29\n        /* \"#utility.yul\":126:175   */\n      tag_30\n        /* \"#utility.yul\":168:174   */\n      dup5\n        /* \"#utility.yul\":126:175   */\n      tag_31\n      jump\t// in\n    tag_30:\n        /* \"#utility.yul\":110:176   */\n      tag_32\n      jump\t// in\n    tag_29:\n        /* \"#utility.yul\":101:176   */\n      swap1\n      pop\n        /* \"#utility.yul\":199:205   */\n      dup3\n        /* \"#utility.yul\":192:197   */\n      dup2\n        /* \"#utility.yul\":185:206   */\n      mstore\n        /* \"#utility.yul\":237:241   */\n      0x20\n        /* \"#utility.yul\":230:235   */\n      dup2\n        /* \"#utility.yul\":226:242   */\n      add\n        /* \"#utility.yul\":275:278   */\n      dup5\n        /* \"#utility.yul\":266:272   */\n      dup5\n        /* \"#utility.yul\":261:264   */\n      dup5\n        /* \"#utility.yul\":257:273   */\n      add\n        /* \"#utility.yul\":254:279   */\n      gt\n        /* \"#utility.yul\":251:363   */\n      iszero\n      tag_33\n      jumpi\n        /* \"#utility.yul\":282:361   */\n      tag_34\n      tag_35\n      jump\t// in\n    tag_34:\n        /* \"#utility.yul\":251:363   */\n    tag_33:\n        /* \"#utility.yul\":372:413   */\n      tag_36\n        /* \"#utility.yul\":406:412   */\n      dup5\n        /* \"#utility.yul\":401:404   */\n      dup3\n        /* \"#utility.yul\":396:399   */\n      dup6\n        /* \"#utility.yul\":372:413   */\n      tag_37\n      jump\t// in\n    tag_36:\n        /* \"#utility.yul\":91:419   */\n      pop\n        /* \"#utility.yul\":7:419   */\n      swap4\n      swap3\n      pop\n      pop\n      pop\n      jump\t// out\n        /* \"#utility.yul\":425:564   */\n    tag_38:\n        /* \"#utility.yul\":471:476   */\n      0x00\n        /* \"#utility.yul\":509:515   */\n      dup2\n        /* \"#utility.yul\":496:516   */\n      calldataload\n        /* \"#utility.yul\":487:516   */\n      swap1\n      pop\n        /* \"#utility.yul\":525:558   */\n      tag_40\n        /* \"#utility.yul\":552:557   */\n      dup2\n        /* \"#utility.yul\":525:558   */\n      tag_41\n      jump\t// in\n    tag_40:\n        /* \"#utility.yul\":425:564   */\n      swap3\n      swap2\n      pop\n      pop\n      jump\t// out\n        /* \"#utility.yul\":584:924   */\n    tag_42:\n        /* \"#utility.yul\":640:645   */\n      0x00\n        /* \"#utility.yul\":689:692   */\n      dup3\n        /* \"#utility.yul\":682:686   */\n      0x1f\n        /* \"#utility.yul\":674:680   */\n      dup4\n        /* \"#utility.yul\":670:687   */\n      add\n        /* \"#utility.yul\":666:693   */\n      slt\n        /* \"#utility.yul\":656:778   */\n      tag_44\n      jumpi\n        /* \"#utility.yul\":697:776   */\n      tag_45\n      tag_46\n      jump\t// in\n    tag_45:\n        /* \"#utility.yul\":656:778   */\n    tag_44:\n        /* \"#utility.yul\":814:820   */\n      dup2\n        /* \"#utility.yul\":801:821   */\n      calldataload\n        /* \"#utility.yul\":839:918   */\n      tag_47\n        /* \"#utility.yul\":914:917   */\n      dup5\n        /* \"#utility.yul\":906:912   */\n      dup3\n        /* \"#utility.yul\":899:903   */\n      0x20\n        /* \"#utility.yul\":891:897   */\n      dup7\n        /* \"#utility.yul\":887:904   */\n      add\n        /* \"#utility.yul\":839:918   */\n      tag_27\n      jump\t// in\n    tag_47:\n        /* \"#utility.yul\":830:918   */\n      swap2\n      pop\n        /* \"#utility.yul\":646:924   */\n      pop\n        /* \"#utility.yul\":584:924   */\n      swap3\n      swap2\n      pop\n      pop\n      jump\t// out\n        /* \"#utility.yul\":930:1069   */\n    tag_48:\n        /* \"#utility.yul\":976:981   */\n      0x00\n        /* \"#utility.yul\":1014:1020   */\n      dup2\n        /* \"#utility.yul\":1001:1021   */\n      calldataload\n        /* \"#utility.yul\":992:1021   */\n      swap1\n      pop\n        /* \"#utility.yul\":1030:1063   */\n      tag_50\n        /* \"#utility.yul\":1057:1062   */\n      dup2\n        /* \"#utility.yul\":1030:1063   */\n      tag_51\n      jump\t// in\n    tag_50:\n        /* \"#utility.yul\":930:1069   */\n      swap3\n      swap2\n      pop\n      pop\n      jump\t// out\n        /* \"#utility.yul\":1075:1404   */\n    tag_16:\n        /* \"#utility.yul\":1134:1140   */\n      0x00\n        /* \"#utility.yul\":1183:1185   */\n      0x20\n        /* \"#utility.yul\":1171:1180   */\n      dup3\n        /* \"#utility.yul\":1162:1169   */\n      dup5\n        /* \"#utility.yul\":1158:1181   */\n      sub\n        /* \"#utility.yul\":1154:1186   */\n      slt\n        /* \"#utility.yul\":1151:1270   */\n      iszero\n      tag_53\n      jumpi\n        /* \"#utility.yul\":1189:1268   */\n      tag_54\n      tag_55\n      jump\t// in\n    tag_54:\n        /* \"#utility.yul\":1151:1270   */\n    tag_53:\n        /* \"#utility.yul\":1309:1310   */\n      0x00\n        /* \"#utility.yul\":1334:1387   */\n      tag_56\n        /* \"#utility.yul\":1379:1386   */\n      dup5\n        /* \"#utility.yul\":1370:1376   */\n      dup3\n        /* \"#utility.yul\":1359:1368   */\n      dup6\n        /* \"#utility.yul\":1355:1377   */\n      add\n        /* \"#utility.yul\":1334:1387   */\n      tag_38\n      jump\t// in\n    tag_56:\n        /* \"#utility.yul\":1324:1387   */\n      swap2\n      pop\n        /* \"#utility.yul\":1280:1397   */\n      pop\n        /* \"#utility.yul\":1075:1404   */\n      swap3\n      swap2\n      pop\n      pop\n      jump\t// out\n        /* \"#utility.yul\":1410:2064   */\n    tag_12:\n        /* \"#utility.yul\":1488:1494   */\n      0x00\n        /* \"#utility.yul\":1496:1502   */\n      dup1\n        /* \"#utility.yul\":1545:1547   */\n      0x40\n        /* \"#utility.yul\":1533:1542   */\n      dup4\n        /* \"#utility.yul\":1524:1531   */\n      dup6\n        /* \"#utility.yul\":1520:1543   */\n      sub\n        /* \"#utility.yul\":1516:1548   */\n      slt\n        /* \"#utility.yul\":1513:1632   */\n      iszero\n      tag_58\n      jumpi\n        /* \"#utility.yul\":1551:1630   */\n      tag_59\n      tag_55\n      jump\t// in\n    tag_59:\n        /* \"#utility.yul\":1513:1632   */\n    tag_58:\n        /* \"#utility.yul\":1699:1700   */\n      0x00\n        /* \"#utility.yul\":1688:1697   */\n      dup4\n        /* \"#utility.yul\":1684:1701   */\n      add\n        /* \"#utility.yul\":1671:1702   */\n      calldataload\n        /* \"#utility.yul\":1729:1747   */\n      0xffffffffffffffff\n        /* \"#utility.yul\":1721:1727   */\n      dup2\n        /* \"#utility.yul\":1718:1748   */\n      gt\n        /* \"#utility.yul\":1715:1832   */\n      iszero\n      tag_60\n      jumpi\n        /* \"#utility.yul\":1751:1830   */\n      tag_61\n      tag_62\n      jump\t// in\n    tag_61:\n        /* \"#utility.yul\":1715:1832   */\n    tag_60:\n        /* \"#utility.yul\":1856:1919   */\n      tag_63\n        /* \"#utility.yul\":1911:1918   */\n      dup6\n        /* \"#utility.yul\":1902:1908   */\n      dup3\n        /* \"#utility.yul\":1891:1900   */\n      dup7\n        /* \"#utility.yul\":1887:1909   */\n      add\n        /* \"#utility.yul\":1856:1919   */\n      tag_42\n      jump\t// in\n    tag_63:\n        /* \"#utility.yul\":1846:1919   */\n      swap3\n      pop\n        /* \"#utility.yul\":1642:1929   */\n      pop\n        /* \"#utility.yul\":1968:1970   */\n      0x20\n        /* \"#utility.yul\":1994:2047   */\n      tag_64\n        /* \"#utility.yul\":2039:2046   */\n      dup6\n        /* \"#utility.yul\":2030:2036   */\n      dup3\n        /* \"#utility.yul\":2019:2028   */\n      dup7\n        /* \"#utility.yul\":2015:2037   */\n      add\n        /* \"#utility.yul\":1994:2047   */\n      tag_48\n      jump\t// in\n    tag_64:\n        /* \"#utility.yul\":1984:2047   */\n      swap2\n      pop\n        /* \"#utility.yul\":1939:2057   */\n      pop\n        /* \"#utility.yul\":1410:2064   */\n      swap3\n      pop\n      swap3\n      swap1\n      pop\n      jump\t// out\n        /* \"#utility.yul\":2070:2188   */\n    tag_65:\n        /* \"#utility.yul\":2157:2181   */\n      tag_67\n        /* \"#utility.yul\":2175:2180   */\n      dup2\n        /* \"#utility.yul\":2157:2181   */\n      tag_68\n      jump\t// in\n    tag_67:\n        /* \"#utility.yul\":2152:2155   */\n      dup3\n        /* \"#utility.yul\":2145:2182   */\n      mstore\n        /* \"#utility.yul\":2070:2188   */\n      pop\n      pop\n      jump\t// out\n        /* \"#utility.yul\":2194:2558   */\n    tag_69:\n        /* \"#utility.yul\":2282:2285   */\n      0x00\n        /* \"#utility.yul\":2310:2349   */\n      tag_71\n        /* \"#utility.yul\":2343:2348   */\n      dup3\n        /* \"#utility.yul\":2310:2349   */\n      tag_72\n      jump\t// in\n    tag_71:\n        /* \"#utility.yul\":2365:2436   */\n      tag_73\n        /* \"#utility.yul\":2429:2435   */\n      dup2\n        /* \"#utility.yul\":2424:2427   */\n      dup6\n        /* \"#utility.yul\":2365:2436   */\n      tag_74\n      jump\t// in\n    tag_73:\n        /* \"#utility.yul\":2358:2436   */\n      swap4\n      pop\n        /* \"#utility.yul\":2445:2497   */\n      tag_75\n        /* \"#utility.yul\":2490:2496   */\n      dup2\n        /* \"#utility.yul\":2485:2488   */\n      dup6\n        /* \"#utility.yul\":2478:2482   */\n      0x20\n        /* \"#utility.yul\":2471:2476   */\n      dup7\n        /* \"#utility.yul\":2467:2483   */\n      add\n        /* \"#utility.yul\":2445:2497   */\n      tag_76\n      jump\t// in\n    tag_75:\n        /* \"#utility.yul\":2522:2551   */\n      tag_77\n        /* \"#utility.yul\":2544:2550   */\n      dup2\n        /* \"#utility.yul\":2522:2551   */\n      tag_78\n      jump\t// in\n    tag_77:\n        /* \"#utility.yul\":2517:2520   */\n      dup5\n        /* \"#utility.yul\":2513:2552   */\n      add\n        /* \"#utility.yul\":2506:2552   */\n      swap2\n      pop\n        /* \"#utility.yul\":2286:2558   */\n      pop\n        /* \"#utility.yul\":2194:2558   */\n      swap3\n      swap2\n      pop\n      pop\n      jump\t// out\n        /* \"#utility.yul\":2564:2930   */\n    tag_79:\n        /* \"#utility.yul\":2706:2709   */\n      0x00\n        /* \"#utility.yul\":2727:2794   */\n      tag_81\n        /* \"#utility.yul\":2791:2793   */\n      0x30\n        /* \"#utility.yul\":2786:2789   */\n      dup4\n        /* \"#utility.yul\":2727:2794   */\n      tag_74\n      jump\t// in\n    tag_81:\n        /* \"#utility.yul\":2720:2794   */\n      swap2\n      pop\n        /* \"#utility.yul\":2803:2896   */\n      tag_82\n        /* \"#utility.yul\":2892:2895   */\n      dup3\n        /* \"#utility.yul\":2803:2896   */\n      tag_83\n      jump\t// in\n    tag_82:\n        /* \"#utility.yul\":2921:2923   */\n      0x40\n        /* \"#utility.yul\":2916:2919   */\n      dup3\n        /* \"#utility.yul\":2912:2924   */\n      add\n        /* \"#utility.yul\":2905:2924   */\n      swap1\n      pop\n        /* \"#utility.yul\":2564:2930   */\n      swap2\n      swap1\n      pop\n      jump\t// out\n        /* \"#utility.yul\":2936:3054   */\n    tag_84:\n        /* \"#utility.yul\":3023:3047   */\n      tag_86\n        /* \"#utility.yul\":3041:3046   */\n      dup2\n        /* \"#utility.yul\":3023:3047   */\n      tag_87\n      jump\t// in\n    tag_86:\n        /* \"#utility.yul\":3018:3021   */\n      dup3\n        /* \"#utility.yul\":3011:3048   */\n      mstore\n        /* \"#utility.yul\":2936:3054   */\n      pop\n      pop\n      jump\t// out\n        /* \"#utility.yul\":3060:3282   */\n    tag_9:\n        /* \"#utility.yul\":3153:3157   */\n      0x00\n        /* \"#utility.yul\":3191:3193   */\n      0x20\n        /* \"#utility.yul\":3180:3189   */\n      dup3\n        /* \"#utility.yul\":3176:3194   */\n      add\n        /* \"#utility.yul\":3168:3194   */\n      swap1\n      pop\n        /* \"#utility.yul\":3204:3275   */\n      tag_89\n        /* \"#utility.yul\":3272:3273   */\n      0x00\n        /* \"#utility.yul\":3261:3270   */\n      dup4\n        /* \"#utility.yul\":3257:3274   */\n      add\n        /* \"#utility.yul\":3248:3254   */\n      dup5\n        /* \"#utility.yul\":3204:3275   */\n      tag_65\n      jump\t// in\n    tag_89:\n        /* \"#utility.yul\":3060:3282   */\n      swap3\n      swap2\n      pop\n      pop\n      jump\t// out\n        /* \"#utility.yul\":3288:3711   */\n    tag_25:\n        /* \"#utility.yul\":3429:3433   */\n      0x00\n        /* \"#utility.yul\":3467:3469   */\n      0x40\n        /* \"#utility.yul\":3456:3465   */\n      dup3\n        /* \"#utility.yul\":3452:3470   */\n      add\n        /* \"#utility.yul\":3444:3470   */\n      swap1\n      pop\n        /* \"#utility.yul\":3516:3525   */\n      dup2\n        /* \"#utility.yul\":3510:3514   */\n      dup2\n        /* \"#utility.yul\":3506:3526   */\n      sub\n        /* \"#utility.yul\":3502:3503   */\n      0x00\n        /* \"#utility.yul\":3491:3500   */\n      dup4\n        /* \"#utility.yul\":3487:3504   */\n      add\n        /* \"#utility.yul\":3480:3527   */\n      mstore\n        /* \"#utility.yul\":3544:3622   */\n      tag_91\n        /* \"#utility.yul\":3617:3621   */\n      dup2\n        /* \"#utility.yul\":3608:3614   */\n      dup6\n        /* \"#utility.yul\":3544:3622   */\n      tag_69\n      jump\t// in\n    tag_91:\n        /* \"#utility.yul\":3536:3622   */\n      swap1\n      pop\n        /* \"#utility.yul\":3632:3704   */\n      tag_92\n        /* \"#utility.yul\":3700:3702   */\n      0x20\n        /* \"#utility.yul\":3689:3698   */\n      dup4\n        /* \"#utility.yul\":3685:3703   */\n      add\n        /* \"#utility.yul\":3676:3682   */\n      dup5\n        /* \"#utility.yul\":3632:3704   */\n      tag_84\n      jump\t// in\n    tag_92:\n        /* \"#utility.yul\":3288:3711   */\n      swap4\n      swap3\n      pop\n      pop\n      pop\n      jump\t// out\n        /* \"#utility.yul\":3717:4136   */\n    tag_23:\n        /* \"#utility.yul\":3883:3887   */\n      0x00\n        /* \"#utility.yul\":3921:3923   */\n      0x20\n        /* \"#utility.yul\":3910:3919   */\n      dup3\n        /* \"#utility.yul\":3906:3924   */\n      add\n        /* \"#utility.yul\":3898:3924   */\n      swap1\n      pop\n        /* \"#utility.yul\":3970:3979   */\n      dup2\n        /* \"#utility.yul\":3964:3968   */\n      dup2\n        /* \"#utility.yul\":3960:3980   */\n      sub\n        /* \"#utility.yul\":3956:3957   */\n      0x00\n        /* \"#utility.yul\":3945:3954   */\n      dup4\n        /* \"#utility.yul\":3941:3958   */\n      add\n        /* \"#utility.yul\":3934:3981   */\n      mstore\n        /* \"#utility.yul\":3998:4129   */\n      tag_94\n        /* \"#utility.yul\":4124:4128   */\n      dup2\n        /* \"#utility.yul\":3998:4129   */\n      tag_79\n      jump\t// in\n    tag_94:\n        /* \"#utility.yul\":3990:4129   */\n      swap1\n      pop\n        /* \"#utility.yul\":3717:4136   */\n      swap2\n      swap1\n      pop\n      jump\t// out\n        /* \"#utility.yul\":4142:4364   */\n    tag_19:\n        /* \"#utility.yul\":4235:4239   */\n      0x00\n        /* \"#utility.yul\":4273:4275   */\n      0x20\n        /* \"#utility.yul\":4262:4271   */\n      dup3\n        /* \"#utility.yul\":4258:4276   */\n      add\n        /* \"#utility.yul\":4250:4276   */\n      swap1\n      pop\n        /* \"#utility.yul\":4286:4357   */\n      tag_96\n        /* \"#utility.yul\":4354:4355   */\n      0x00\n        /* \"#utility.yul\":4343:4352   */\n      dup4\n        /* \"#utility.yul\":4339:4356   */\n      add\n        /* \"#utility.yul\":4330:4336   */\n      dup5\n        /* \"#utility.yul\":4286:4357   */\n      tag_84\n      jump\t// in\n    tag_96:\n        /* \"#utility.yul\":4142:4364   */\n      swap3\n      swap2\n      pop\n      pop\n      jump\t// out\n        /* \"#utility.yul\":4370:4499   */\n    tag_32:\n        /* \"#utility.yul\":4404:4410   */\n      0x00\n        /* \"#utility.yul\":4431:4451   */\n      tag_98\n      tag_99\n      jump\t// in\n    tag_98:\n        /* \"#utility.yul\":4421:4451   */\n      swap1\n      pop\n        /* \"#utility.yul\":4460:4493   */\n      tag_100\n        /* \"#utility.yul\":4488:4492   */\n      dup3\n        /* \"#utility.yul\":4480:4486   */\n      dup3\n        /* \"#utility.yul\":4460:4493   */\n      tag_101\n      jump\t// in\n    tag_100:\n        /* \"#utility.yul\":4370:4499   */\n      swap2\n      swap1\n      pop\n      jump\t// out\n        /* \"#utility.yul\":4505:4580   */\n    tag_99:\n        /* \"#utility.yul\":4538:4544   */\n      0x00\n        /* \"#utility.yul\":4571:4573   */\n      0x40\n        /* \"#utility.yul\":4565:4574   */\n      mload\n        /* \"#utility.yul\":4555:4574   */\n      swap1\n      pop\n        /* \"#utility.yul\":4505:4580   */\n      swap1\n      jump\t// out\n        /* \"#utility.yul\":4586:4894   */\n    tag_31:\n        /* \"#utility.yul\":4648:4652   */\n      0x00\n        /* \"#utility.yul\":4738:4756   */\n      0xffffffffffffffff\n        /* \"#utility.yul\":4730:4736   */\n      dup3\n        /* \"#utility.yul\":4727:4757   */\n      gt\n        /* \"#utility.yul\":4724:4780   */\n      iszero\n      tag_104\n      jumpi\n        /* \"#utility.yul\":4760:4778   */\n      tag_105\n      tag_106\n      jump\t// in\n    tag_105:\n        /* \"#utility.yul\":4724:4780   */\n    tag_104:\n        /* \"#utility.yul\":4798:4827   */\n      tag_107\n        /* \"#utility.yul\":4820:4826   */\n      dup3\n        /* \"#utility.yul\":4798:4827   */\n      tag_78\n      jump\t// in\n    tag_107:\n        /* \"#utility.yul\":4790:4827   */\n      swap1\n      pop\n        /* \"#utility.yul\":4882:4886   */\n      0x20\n        /* \"#utility.yul\":4876:4880   */\n      dup2\n        /* \"#utility.yul\":4872:4887   */\n      add\n        /* \"#utility.yul\":4864:4887   */\n      swap1\n      pop\n        /* \"#utility.yul\":4586:4894   */\n      swap2\n      swap1\n      pop\n      jump\t// out\n        /* \"#utility.yul\":4900:4999   */\n    tag_72:\n        /* \"#utility.yul\":4952:4958   */\n      0x00\n        /* \"#utility.yul\":4986:4991   */\n      dup2\n        /* \"#utility.yul\":4980:4992   */\n      mload\n        /* \"#utility.yul\":4970:4992   */\n      swap1\n      pop\n        /* \"#utility.yul\":4900:4999   */\n      swap2\n      swap1\n      pop\n      jump\t// out\n        /* \"#utility.yul\":5005:5174   */\n    tag_74:\n        /* \"#utility.yul\":5089:5100   */\n      0x00\n        /* \"#utility.yul\":5123:5129   */\n      dup3\n        /* \"#utility.yul\":5118:5121   */\n      dup3\n        /* \"#utility.yul\":5111:5130   */\n      mstore\n        /* \"#utility.yul\":5163:5167   */\n      0x20\n        /* \"#utility.yul\":5158:5161   */\n      dup3\n        /* \"#utility.yul\":5154:5168   */\n      add\n        /* \"#utility.yul\":5139:5168   */\n      swap1\n      pop\n        /* \"#utility.yul\":5005:5174   */\n      swap3\n      swap2\n      pop\n      pop\n      jump\t// out\n        /* \"#utility.yul\":5180:5276   */\n    tag_68:\n        /* \"#utility.yul\":5217:5224   */\n      0x00\n        /* \"#utility.yul\":5246:5270   */\n      tag_111\n        /* \"#utility.yul\":5264:5269   */\n      dup3\n        /* \"#utility.yul\":5246:5270   */\n      tag_112\n      jump\t// in\n    tag_111:\n        /* \"#utility.yul\":5235:5270   */\n      swap1\n      pop\n        /* \"#utility.yul\":5180:5276   */\n      swap2\n      swap1\n      pop\n      jump\t// out\n        /* \"#utility.yul\":5282:5408   */\n    tag_112:\n        /* \"#utility.yul\":5319:5326   */\n      0x00\n        /* \"#utility.yul\":5359:5401   */\n      0xffffffffffffffffffffffffffffffffffffffff\n        /* \"#utility.yul\":5352:5357   */\n      dup3\n        /* \"#utility.yul\":5348:5402   */\n      and\n        /* \"#utility.yul\":5337:5402   */\n      swap1\n      pop\n        /* \"#utility.yul\":5282:5408   */\n      swap2\n      swap1\n      pop\n      jump\t// out\n        /* \"#utility.yul\":5414:5491   */\n    tag_87:\n        /* \"#utility.yul\":5451:5458   */\n      0x00\n        /* \"#utility.yul\":5480:5485   */\n      dup2\n        /* \"#utility.yul\":5469:5485   */\n      swap1\n      pop\n        /* \"#utility.yul\":5414:5491   */\n      swap2\n      swap1\n      pop\n      jump\t// out\n        /* \"#utility.yul\":5497:5651   */\n    tag_37:\n        /* \"#utility.yul\":5581:5587   */\n      dup3\n        /* \"#utility.yul\":5576:5579   */\n      dup2\n        /* \"#utility.yul\":5571:5574   */\n      dup4\n        /* \"#utility.yul\":5558:5588   */\n      calldatacopy\n        /* \"#utility.yul\":5643:5644   */\n      0x00\n        /* \"#utility.yul\":5634:5640   */\n      dup4\n        /* \"#utility.yul\":5629:5632   */\n      dup4\n        /* \"#utility.yul\":5625:5641   */\n      add\n        /* \"#utility.yul\":5618:5645   */\n      mstore\n        /* \"#utility.yul\":5497:5651   */\n      pop\n      pop\n      pop\n      jump\t// out\n        /* \"#utility.yul\":5657:5964   */\n    tag_76:\n        /* \"#utility.yul\":5725:5726   */\n      0x00\n        /* \"#utility.yul\":5735:5848   */\n    tag_117:\n        /* \"#utility.yul\":5749:5755   */\n      dup4\n        /* \"#utility.yul\":5746:5747   */\n      dup2\n        /* \"#utility.yul\":5743:5756   */\n      lt\n        /* \"#utility.yul\":5735:5848   */\n      iszero\n      tag_119\n      jumpi\n        /* \"#utility.yul\":5834:5835   */\n      dup1\n        /* \"#utility.yul\":5829:5832   */\n      dup3\n        /* \"#utility.yul\":5825:5836   */\n      add\n        /* \"#utility.yul\":5819:5837   */\n      mload\n        /* \"#utility.yul\":5815:5816   */\n      dup2\n        /* \"#utility.yul\":5810:5813   */\n      dup5\n        /* \"#utility.yul\":5806:5817   */\n      add\n        /* \"#utility.yul\":5799:5838   */\n      mstore\n        /* \"#utility.yul\":5771:5773   */\n      0x20\n        /* \"#utility.yul\":5768:5769   */\n      dup2\n        /* \"#utility.yul\":5764:5774   */\n      add\n        /* \"#utility.yul\":5759:5774   */\n      swap1\n      pop\n        /* \"#utility.yul\":5735:5848   */\n      jump(tag_117)\n    tag_119:\n        /* \"#utility.yul\":5866:5872   */\n      dup4\n        /* \"#utility.yul\":5863:5864   */\n      dup2\n        /* \"#utility.yul\":5860:5873   */\n      gt\n        /* \"#utility.yul\":5857:5958   */\n      iszero\n      tag_120\n      jumpi\n        /* \"#utility.yul\":5946:5947   */\n      0x00\n        /* \"#utility.yul\":5937:5943   */\n      dup5\n        /* \"#utility.yul\":5932:5935   */\n      dup5\n        /* \"#utility.yul\":5928:5944   */\n      add\n        /* \"#utility.yul\":5921:5948   */\n      mstore\n        /* \"#utility.yul\":5857:5958   */\n    tag_120:\n        /* \"#utility.yul\":5706:5964   */\n      pop\n        /* \"#utility.yul\":5657:5964   */\n      pop\n      pop\n      pop\n      jump\t// out\n        /* \"#utility.yul\":5970:6251   */\n    tag_101:\n        /* \"#utility.yul\":6053:6080   */\n      tag_122\n        /* \"#utility.yul\":6075:6079   */\n      dup3\n        /* \"#utility.yul\":6053:6080   */\n      tag_78\n      jump\t// in\n    tag_122:\n        /* \"#utility.yul\":6045:6051   */\n      dup2\n        /* \"#utility.yul\":6041:6081   */\n      add\n        /* \"#utility.yul\":6183:6189   */\n      dup2\n        /* \"#utility.yul\":6171:6181   */\n      dup2\n        /* \"#utility.yul\":6168:6190   */\n      lt\n        /* \"#utility.yul\":6147:6165   */\n      0xffffffffffffffff\n        /* \"#utility.yul\":6135:6145   */\n      dup3\n        /* \"#utility.yul\":6132:6166   */\n      gt\n        /* \"#utility.yul\":6129:6191   */\n      or\n        /* \"#utility.yul\":6126:6214   */\n      iszero\n      tag_123\n      jumpi\n        /* \"#utility.yul\":6194:6212   */\n      tag_124\n      tag_106\n      jump\t// in\n    tag_124:\n        /* \"#utility.yul\":6126:6214   */\n    tag_123:\n        /* \"#utility.yul\":6234:6244   */\n      dup1\n        /* \"#utility.yul\":6230:6232   */\n      0x40\n        /* \"#utility.yul\":6223:6245   */\n      mstore\n        /* \"#utility.yul\":6013:6251   */\n      pop\n        /* \"#utility.yul\":5970:6251   */\n      pop\n      pop\n      jump\t// out\n        /* \"#utility.yul\":6257:6437   */\n    tag_106:\n        /* \"#utility.yul\":6305:6382   */\n      0x4e487b7100000000000000000000000000000000000000000000000000000000\n        /* \"#utility.yul\":6302:6303   */\n      0x00\n        /* \"#utility.yul\":6295:6383   */\n      mstore\n        /* \"#utility.yul\":6402:6406   */\n      0x41\n        /* \"#utility.yul\":6399:6400   */\n      0x04\n        /* \"#utility.yul\":6392:6407   */\n      mstore\n        /* \"#utility.yul\":6426:6430   */\n      0x24\n        /* \"#utility.yul\":6423:6424   */\n      0x00\n        /* \"#utility.yul\":6416:6431   */\n      revert\n        /* \"#utility.yul\":6443:6560   */\n    tag_46:\n        /* \"#utility.yul\":6552:6553   */\n      0x00\n        /* \"#utility.yul\":6549:6550   */\n      dup1\n        /* \"#utility.yul\":6542:6554   */\n      revert\n        /* \"#utility.yul\":6566:6683   */\n    tag_35:\n        /* \"#utility.yul\":6675:6676   */\n      0x00\n        /* \"#utility.yul\":6672:6673   */\n      dup1\n        /* \"#utility.yul\":6665:6677   */\n      revert\n        /* \"#utility.yul\":6689:6806   */\n    tag_62:\n        /* \"#utility.yul\":6798:6799   */\n      0x00\n        /* \"#utility.yul\":6795:6796   */\n      dup1\n        /* \"#utility.yul\":6788:6800   */\n      revert\n        /* \"#utility.yul\":6812:6929   */\n    tag_55:\n        /* \"#utility.yul\":6921:6922   */\n      0x00\n        /* \"#utility.yul\":6918:6919   */\n      dup1\n        /* \"#utility.yul\":6911:6923   */\n      revert\n        /* \"#utility.yul\":6935:7037   */\n    tag_78:\n        /* \"#utility.yul\":6976:6982   */\n      0x00\n        /* \"#utility.yul\":7027:7029   */\n      0x1f\n        /* \"#utility.yul\":7023:7030   */\n      not\n        /* \"#utility.yul\":7018:7020   */\n      0x1f\n        /* \"#utility.yul\":7011:7016   */\n      dup4\n        /* \"#utility.yul\":7007:7021   */\n      add\n        /* \"#utility.yul\":7003:7031   */\n      and\n        /* \"#utility.yul\":6993:7031   */\n      swap1\n      pop\n        /* \"#utility.yul\":6935:7037   */\n      swap2\n      swap1\n      pop\n      jump\t// out\n        /* \"#utility.yul\":7043:7278   */\n    tag_83:\n        /* \"#utility.yul\":7183:7217   */\n      0x536f6c6f20656c2041646d696e6973747261646f722064656c2047796d207075\n        /* \"#utility.yul\":7179:7180   */\n      0x00\n        /* \"#utility.yul\":7171:7177   */\n      dup3\n        /* \"#utility.yul\":7167:7181   */\n      add\n        /* \"#utility.yul\":7160:7218   */\n      mstore\n        /* \"#utility.yul\":7252:7270   */\n      0x65646520637265617220636c6173657300000000000000000000000000000000\n        /* \"#utility.yul\":7247:7249   */\n      0x20\n        /* \"#utility.yul\":7239:7245   */\n      dup3\n        /* \"#utility.yul\":7235:7250   */\n      add\n        /* \"#utility.yul\":7228:7271   */\n      mstore\n        /* \"#utility.yul\":7043:7278   */\n      pop\n      jump\t// out\n        /* \"#utility.yul\":7284:7406   */\n    tag_41:\n        /* \"#utility.yul\":7357:7381   */\n      tag_133\n        /* \"#utility.yul\":7375:7380   */\n      dup2\n        /* \"#utility.yul\":7357:7381   */\n      tag_68\n      jump\t// in\n    tag_133:\n        /* \"#utility.yul\":7350:7355   */\n      dup2\n        /* \"#utility.yul\":7347:7382   */\n      eq\n        /* \"#utility.yul\":7337:7400   */\n      tag_134\n      jumpi\n        /* \"#utility.yul\":7396:7397   */\n      0x00\n        /* \"#utility.yul\":7393:7394   */\n      dup1\n        /* \"#utility.yul\":7386:7398   */\n      revert\n        /* \"#utility.yul\":7337:7400   */\n    tag_134:\n        /* \"#utility.yul\":7284:7406   */\n      pop\n      jump\t// out\n        /* \"#utility.yul\":7412:7534   */\n    tag_51:\n        /* \"#utility.yul\":7485:7509   */\n      tag_136\n        /* \"#utility.yul\":7503:7508   */\n      dup2\n        /* \"#utility.yul\":7485:7509   */\n      tag_87\n      jump\t// in\n    tag_136:\n        /* \"#utility.yul\":7478:7483   */\n      dup2\n        /* \"#utility.yul\":7475:7510   */\n      eq\n        /* \"#utility.yul\":7465:7528   */\n      tag_137\n      jumpi\n        /* \"#utility.yul\":7524:7525   */\n      0x00\n        /* \"#utility.yul\":7521:7522   */\n      dup1\n        /* \"#utility.yul\":7514:7526   */\n      revert\n        /* \"#utility.yul\":7465:7528   */\n    tag_137:\n        /* \"#utility.yul\":7412:7534   */\n      pop\n      jump\t// out\n\n    auxdata: 0xa2646970667358221220529924e8e212d4750e868e7aad7894e90f615ffde4c347153c9c1135c890e30664736f6c63430008070033\n}\n",
				"bytecode": {
					"linkReferences": {},
					"object": "60a060405234801561001057600080fd5b503373ffffffffffffffffffffffffffffffffffffffff1660808173ffffffffffffffffffffffffffffffffffffffff1660601b8152505060805160601c61060261006b6000396000818160b2015260ed01526106026000f3fe608060405234801561001057600080fd5b50600436106100415760003560e01c80632a0acc6a146100465780634852a21214610064578063a87430ba14610080575b600080fd5b61004e6100b0565b60405161005b9190610354565b60405180910390f35b61007e6004803603810190610079919061027e565b6100d4565b005b61009a60048036038101906100959190610251565b61019f565b6040516100a791906103bf565b60405180910390f35b7f000000000000000000000000000000000000000000000000000000000000000081565b3373ffffffffffffffffffffffffffffffffffffffff167f000000000000000000000000000000000000000000000000000000000000000073ffffffffffffffffffffffffffffffffffffffff1614610162576040517f08c379a00000000000000000000000000000000000000000000000000000000081526004016101599061039f565b60405180910390fd5b7f14d49e3ea4f348b7f368906dfe1a63055c7822d622a61672a35a55ae97a768f9828260405161019392919061036f565b60405180910390a15050565b60006020528060005260406000206000915090505481565b60006101ca6101c5846103ff565b6103da565b9050828152602081018484840111156101e6576101e561052f565b5b6101f1848285610488565b509392505050565b6000813590506102088161059e565b92915050565b600082601f8301126102235761022261052a565b5b81356102338482602086016101b7565b91505092915050565b60008135905061024b816105b5565b92915050565b60006020828403121561026757610266610539565b5b6000610275848285016101f9565b91505092915050565b6000806040838503121561029557610294610539565b5b600083013567ffffffffffffffff8111156102b3576102b2610534565b5b6102bf8582860161020e565b92505060206102d08582860161023c565b9150509250929050565b6102e38161044c565b82525050565b60006102f482610430565b6102fe818561043b565b935061030e818560208601610497565b6103178161053e565b840191505092915050565b600061032f60308361043b565b915061033a8261054f565b604082019050919050565b61034e8161047e565b82525050565b600060208201905061036960008301846102da565b92915050565b6000604082019050818103600083015261038981856102e9565b90506103986020830184610345565b9392505050565b600060208201905081810360008301526103b881610322565b9050919050565b60006020820190506103d46000830184610345565b92915050565b60006103e46103f5565b90506103f082826104ca565b919050565b6000604051905090565b600067ffffffffffffffff82111561041a576104196104fb565b5b6104238261053e565b9050602081019050919050565b600081519050919050565b600082825260208201905092915050565b60006104578261045e565b9050919050565b600073ffffffffffffffffffffffffffffffffffffffff82169050919050565b6000819050919050565b82818337600083830152505050565b60005b838110156104b557808201518184015260208101905061049a565b838111156104c4576000848401525b50505050565b6104d38261053e565b810181811067ffffffffffffffff821117156104f2576104f16104fb565b5b80604052505050565b7f4e487b7100000000000000000000000000000000000000000000000000000000600052604160045260246000fd5b600080fd5b600080fd5b600080fd5b600080fd5b6000601f19601f8301169050919050565b7f536f6c6f20656c2041646d696e6973747261646f722064656c2047796d20707560008201527f65646520637265617220636c6173657300000000000000000000000000000000602082015250565b6105a78161044c565b81146105b257600080fd5b50565b6105be8161047e565b81146105c957600080fd5b5056fea2646970667358221220529924e8e212d4750e868e7aad7894e90f615ffde4c347153c9c1135c890e30664736f6c63430008070033",
					"opcodes": "PUSH1 0xA0 PUSH1 0x40 MSTORE CALLVALUE DUP1 ISZERO PUSH2 0x10 JUMPI PUSH1 0x0 DUP1 REVERT JUMPDEST POP CALLER PUSH20 0xFFFFFFFFFFFFFFFFFFFFFFFFFFFFFFFFFFFFFFFF AND PUSH1 0x80 DUP2 PUSH20 0xFFFFFFFFFFFFFFFFFFFFFFFFFFFFFFFFFFFFFFFF AND PUSH1 0x60 SHL DUP2 MSTORE POP POP PUSH1 0x80 MLOAD PUSH1 0x60 SHR PUSH2 0x602 PUSH2 0x6B PUSH1 0x0 CODECOPY PUSH1 0x0 DUP2 DUP2 PUSH1 0xB2 ADD MSTORE PUSH1 0xED ADD MSTORE PUSH2 0x602 PUSH1 0x0 RETURN INVALID PUSH1 0x80 PUSH1 0x40 MSTORE CALLVALUE DUP1 ISZERO PUSH2 0x10 JUMPI PUSH1 0x0 DUP1 REVERT JUMPDEST POP PUSH1 0x4 CALLDATASIZE LT PUSH2 0x41 JUMPI PUSH1 0x0 CALLDATALOAD PUSH1 0xE0 SHR DUP1 PUSH4 0x2A0ACC6A EQ PUSH2 0x46 JUMPI DUP1 PUSH4 0x4852A212 EQ PUSH2 0x64 JUMPI DUP1 PUSH4 0xA87430BA EQ PUSH2 0x80 JUMPI JUMPDEST PUSH1 0x0 DUP1 REVERT JUMPDEST PUSH2 0x4E PUSH2 0xB0 JUMP JUMPDEST PUSH1 0x40 MLOAD PUSH2 0x5B SWAP2 SWAP1 PUSH2 0x354 JUMP JUMPDEST PUSH1 0x40 MLOAD DUP1 SWAP2 SUB SWAP1 RETURN JUMPDEST PUSH2 0x7E PUSH1 0x4 DUP1 CALLDATASIZE SUB DUP2 ADD SWAP1 PUSH2 0x79 SWAP2 SWAP1 PUSH2 0x27E JUMP JUMPDEST PUSH2 0xD4 JUMP JUMPDEST STOP JUMPDEST PUSH2 0x9A PUSH1 0x4 DUP1 CALLDATASIZE SUB DUP2 ADD SWAP1 PUSH2 0x95 SWAP2 SWAP1 PUSH2 0x251 JUMP JUMPDEST PUSH2 0x19F JUMP JUMPDEST PUSH1 0x40 MLOAD PUSH2 0xA7 SWAP2 SWAP1 PUSH2 0x3BF JUMP JUMPDEST PUSH1 0x40 MLOAD DUP1 SWAP2 SUB SWAP1 RETURN JUMPDEST PUSH32 0x0 DUP2 JUMP JUMPDEST CALLER PUSH20 0xFFFFFFFFFFFFFFFFFFFFFFFFFFFFFFFFFFFFFFFF AND PUSH32 0x0 PUSH20 0xFFFFFFFFFFFFFFFFFFFFFFFFFFFFFFFFFFFFFFFF AND EQ PUSH2 0x162 JUMPI PUSH1 0x40 MLOAD PUSH32 0x8C379A000000000000000000000000000000000000000000000000000000000 DUP2 MSTORE PUSH1 0x4 ADD PUSH2 0x159 SWAP1 PUSH2 0x39F JUMP JUMPDEST PUSH1 0x40 MLOAD DUP1 SWAP2 SUB SWAP1 REVERT JUMPDEST PUSH32 0x14D49E3EA4F348B7F368906DFE1A63055C7822D622A61672A35A55AE97A768F9 DUP3 DUP3 PUSH1 0x40 MLOAD PUSH2 0x193 SWAP3 SWAP2 SWAP1 PUSH2 0x36F JUMP JUMPDEST PUSH1 0x40 MLOAD DUP1 SWAP2 SUB SWAP1 LOG1 POP POP JUMP JUMPDEST PUSH1 0x0 PUSH1 0x20 MSTORE DUP1 PUSH1 0x0 MSTORE PUSH1 0x40 PUSH1 0x0 KECCAK256 PUSH1 0x0 SWAP2 POP SWAP1 POP SLOAD DUP2 JUMP JUMPDEST PUSH1 0x0 PUSH2 0x1CA PUSH2 0x1C5 DUP5 PUSH2 0x3FF JUMP JUMPDEST PUSH2 0x3DA JUMP JUMPDEST SWAP1 POP DUP3 DUP2 MSTORE PUSH1 0x20 DUP2 ADD DUP5 DUP5 DUP5 ADD GT ISZERO PUSH2 0x1E6 JUMPI PUSH2 0x1E5 PUSH2 0x52F JUMP JUMPDEST JUMPDEST PUSH2 0x1F1 DUP5 DUP3 DUP6 PUSH2 0x488 JUMP JUMPDEST POP SWAP4 SWAP3 POP POP POP JUMP JUMPDEST PUSH1 0x0 DUP2 CALLDATALOAD SWAP1 POP PUSH2 0x208 DUP2 PUSH2 0x59E JUMP JUMPDEST SWAP3 SWAP2 POP POP JUMP JUMPDEST PUSH1 0x0 DUP3 PUSH1 0x1F DUP4 ADD SLT PUSH2 0x223 JUMPI PUSH2 0x222 PUSH2 0x52A JUMP JUMPDEST JUMPDEST DUP2 CALLDATALOAD PUSH2 0x233 DUP5 DUP3 PUSH1 0x20 DUP7 ADD PUSH2 0x1B7 JUMP JUMPDEST SWAP2 POP POP SWAP3 SWAP2 POP POP JUMP JUMPDEST PUSH1 0x0 DUP2 CALLDATALOAD SWAP1 POP PUSH2 0x24B DUP2 PUSH2 0x5B5 JUMP JUMPDEST SWAP3 SWAP2 POP POP JUMP JUMPDEST PUSH1 0x0 PUSH1 0x20 DUP3 DUP5 SUB SLT ISZERO PUSH2 0x267 JUMPI PUSH2 0x266 PUSH2 0x539 JUMP JUMPDEST JUMPDEST PUSH1 0x0 PUSH2 0x275 DUP5 DUP3 DUP6 ADD PUSH2 0x1F9 JUMP JUMPDEST SWAP2 POP POP SWAP3 SWAP2 POP POP JUMP JUMPDEST PUSH1 0x0 DUP1 PUSH1 0x40 DUP4 DUP6 SUB SLT ISZERO PUSH2 0x295 JUMPI PUSH2 0x294 PUSH2 0x539 JUMP JUMPDEST JUMPDEST PUSH1 0x0 DUP4 ADD CALLDATALOAD PUSH8 0xFFFFFFFFFFFFFFFF DUP2 GT ISZERO PUSH2 0x2B3 JUMPI PUSH2 0x2B2 PUSH2 0x534 JUMP JUMPDEST JUMPDEST PUSH2 0x2BF DUP6 DUP3 DUP7 ADD PUSH2 0x20E JUMP JUMPDEST SWAP3 POP POP PUSH1 0x20 PUSH2 0x2D0 DUP6 DUP3 DUP7 ADD PUSH2 0x23C JUMP JUMPDEST SWAP2 POP POP SWAP3 POP SWAP3 SWAP1 POP JUMP JUMPDEST PUSH2 0x2E3 DUP2 PUSH2 0x44C JUMP JUMPDEST DUP3 MSTORE POP POP JUMP JUMPDEST PUSH1 0x0 PUSH2 0x2F4 DUP3 PUSH2 0x430 JUMP JUMPDEST PUSH2 0x2FE DUP2 DUP6 PUSH2 0x43B JUMP JUMPDEST SWAP4 POP PUSH2 0x30E DUP2 DUP6 PUSH1 0x20 DUP7 ADD PUSH2 0x497 JUMP JUMPDEST PUSH2 0x317 DUP2 PUSH2 0x53E JUMP JUMPDEST DUP5 ADD SWAP2 POP POP SWAP3 SWAP2 POP POP JUMP JUMPDEST PUSH1 0x0 PUSH2 0x32F PUSH1 0x30 DUP4 PUSH2 0x43B JUMP JUMPDEST SWAP2 POP PUSH2 0x33A DUP3 PUSH2 0x54F JUMP JUMPDEST PUSH1 0x40 DUP3 ADD SWAP1 POP SWAP2 SWAP1 POP JUMP JUMPDEST PUSH2 0x34E DUP2 PUSH2 0x47E JUMP JUMPDEST DUP3 MSTORE POP POP JUMP JUMPDEST PUSH1 0x0 PUSH1 0x20 DUP3 ADD SWAP1 POP PUSH2 0x369 PUSH1 0x0 DUP4 ADD DUP5 PUSH2 0x2DA JUMP JUMPDEST SWAP3 SWAP2 POP POP JUMP JUMPDEST PUSH1 0x0 PUSH1 0x40 DUP3 ADD SWAP1 POP DUP2 DUP2 SUB PUSH1 0x0 DUP4 ADD MSTORE PUSH2 0x389 DUP2 DUP6 PUSH2 0x2E9 JUMP JUMPDEST SWAP1 POP PUSH2 0x398 PUSH1 0x20 DUP4 ADD DUP5 PUSH2 0x345 JUMP JUMPDEST SWAP4 SWAP3 POP POP POP JUMP JUMPDEST PUSH1 0x0 PUSH1 0x20 DUP3 ADD SWAP1 POP DUP2 DUP2 SUB PUSH1 0x0 DUP4 ADD MSTORE PUSH2 0x3B8 DUP2 PUSH2 0x322 JUMP JUMPDEST SWAP1 POP SWAP2 SWAP1 POP JUMP JUMPDEST PUSH1 0x0 PUSH1 0x20 DUP3 ADD SWAP1 POP PUSH2 0x3D4 PUSH1 0x0 DUP4 ADD DUP5 PUSH2 0x345 JUMP JUMPDEST SWAP3 SWAP2 POP POP JUMP JUMPDEST PUSH1 0x0 PUSH2 0x3E4 PUSH2 0x3F5 JUMP JUMPDEST SWAP1 POP PUSH2 0x3F0 DUP3 DUP3 PUSH2 0x4CA JUMP JUMPDEST SWAP2 SWAP1 POP JUMP JUMPDEST PUSH1 0x0 PUSH1 0x40 MLOAD SWAP1 POP SWAP1 JUMP JUMPDEST PUSH1 0x0 PUSH8 0xFFFFFFFFFFFFFFFF DUP3 GT ISZERO PUSH2 0x41A JUMPI PUSH2 0x419 PUSH2 0x4FB JUMP JUMPDEST JUMPDEST PUSH2 0x423 DUP3 PUSH2 0x53E JUMP JUMPDEST SWAP1 POP PUSH1 0x20 DUP2 ADD SWAP1 POP SWAP2 SWAP1 POP JUMP JUMPDEST PUSH1 0x0 DUP2 MLOAD SWAP1 POP SWAP2 SWAP1 POP JUMP JUMPDEST PUSH1 0x0 DUP3 DUP3 MSTORE PUSH1 0x20 DUP3 ADD SWAP1 POP SWAP3 SWAP2 POP POP JUMP JUMPDEST PUSH1 0x0 PUSH2 0x457 DUP3 PUSH2 0x45E JUMP JUMPDEST SWAP1 POP SWAP2 SWAP1 POP JUMP JUMPDEST PUSH1 0x0 PUSH20 0xFFFFFFFFFFFFFFFFFFFFFFFFFFFFFFFFFFFFFFFF DUP3 AND SWAP1 POP SWAP2 SWAP1 POP JUMP JUMPDEST PUSH1 0x0 DUP2 SWAP1 POP SWAP2 SWAP1 POP JUMP JUMPDEST DUP3 DUP2 DUP4 CALLDATACOPY PUSH1 0x0 DUP4 DUP4 ADD MSTORE POP POP POP JUMP JUMPDEST PUSH1 0x0 JUMPDEST DUP4 DUP2 LT ISZERO PUSH2 0x4B5 JUMPI DUP1 DUP3 ADD MLOAD DUP2 DUP5 ADD MSTORE PUSH1 0x20 DUP2 ADD SWAP1 POP PUSH2 0x49A JUMP JUMPDEST DUP4 DUP2 GT ISZERO PUSH2 0x4C4 JUMPI PUSH1 0x0 DUP5 DUP5 ADD MSTORE JUMPDEST POP POP POP POP JUMP JUMPDEST PUSH2 0x4D3 DUP3 PUSH2 0x53E JUMP JUMPDEST DUP2 ADD DUP2 DUP2 LT PUSH8 0xFFFFFFFFFFFFFFFF DUP3 GT OR ISZERO PUSH2 0x4F2 JUMPI PUSH2 0x4F1 PUSH2 0x4FB JUMP JUMPDEST JUMPDEST DUP1 PUSH1 0x40 MSTORE POP POP POP JUMP JUMPDEST PUSH32 0x4E487B7100000000000000000000000000000000000000000000000000000000 PUSH1 0x0 MSTORE PUSH1 0x41 PUSH1 0x4 MSTORE PUSH1 0x24 PUSH1 0x0 REVERT JUMPDEST PUSH1 0x0 DUP1 REVERT JUMPDEST PUSH1 0x0 DUP1 REVERT JUMPDEST PUSH1 0x0 DUP1 REVERT JUMPDEST PUSH1 0x0 DUP1 REVERT JUMPDEST PUSH1 0x0 PUSH1 0x1F NOT PUSH1 0x1F DUP4 ADD AND SWAP1 POP SWAP2 SWAP1 POP JUMP JUMPDEST PUSH32 0x536F6C6F20656C2041646D696E6973747261646F722064656C2047796D207075 PUSH1 0x0 DUP3 ADD MSTORE PUSH32 0x65646520637265617220636C6173657300000000000000000000000000000000 PUSH1 0x20 DUP3 ADD MSTORE POP JUMP JUMPDEST PUSH2 0x5A7 DUP2 PUSH2 0x44C JUMP JUMPDEST DUP2 EQ PUSH2 0x5B2 JUMPI PUSH1 0x0 DUP1 REVERT JUMPDEST POP JUMP JUMPDEST PUSH2 0x5BE DUP2 PUSH2 0x47E JUMP JUMPDEST DUP2 EQ PUSH2 0x5C9 JUMPI PUSH1 0x0 DUP1 REVERT JUMPDEST POP JUMP INVALID LOG2 PUSH5 0x6970667358 0x22 SLT KECCAK256 MSTORE SWAP10 0x24 0xE8 0xE2 SLT 0xD4 PUSH22 0xE868E7AAD7894E90F615FFDE4C347153C9C1135C890 0xE3 MOD PUSH5 0x736F6C6343 STOP ADDMOD SMOD STOP CALLER "
				},
				"gasEstimates": {
					"creation": {
						"codeDepositCost": "307600",
						"executionCost": "infinite",
						"totalCost": "infinite"
					},
					"external": {
						"ADMIN()": "infinite",
						"createClass(string,uint256)": "infinite",
						"users(address)": "2836"
					}
				},
				"methodIdentifiers": {
					"ADMIN()": "2a0acc6a",
					"createClass(string,uint256)": "4852a212",
					"users(address)": "a87430ba"
				}
			},
			"storageLayout": {
				"storage": [
					{
						"astId": 27,
						"contract": "contracts/Gym_Contact.sol:gym",
						"label": "users",
						"offset": 0,
						"slot": "0",
						"type": "t_mapping(t_address,t_uint256)"
					}
				],
				"types": {
					"t_address": {
						"encoding": "inplace",
						"label": "address",
						"numberOfBytes": "20"
					},
					"t_mapping(t_address,t_uint256)": {
						"encoding": "mapping",
						"key": "t_address",
						"label": "mapping(address => uint256)",
						"numberOfBytes": "32",
						"value": "t_uint256"
					},
					"t_uint256": {
						"encoding": "inplace",
						"label": "uint256",
						"numberOfBytes": "32"
					}
				}
			},
			"userdoc": {
				"kind": "user",
				"methods": {},
				"version": 1
			}
		}
	}
}