{
	"contracts/Gym_Contact.sol": {
		"gym": {
			"abi": [
				{
					"inputs": [],
					"stateMutability": "nonpayable",
					"type": "constructor"
				},
				{
					"anonymous": false,
					"inputs": [
						{
							"indexed": false,
							"internalType": "string",
							"name": "name",
							"type": "string"
						},
						{
							"indexed": false,
							"internalType": "uint256",
							"name": "value",
							"type": "uint256"
						}
					],
					"name": "ClassCreated",
					"type": "event"
				},
				{
					"anonymous": false,
					"inputs": [
						{
							"indexed": false,
							"internalType": "address",
							"name": "user",
							"type": "address"
						},
						{
							"indexed": false,
							"internalType": "uint256",
							"name": "credits",
							"type": "uint256"
						}
					],
					"name": "Register",
					"type": "event"
				},
				{
					"inputs": [],
					"name": "ADMIN",
					"outputs": [
						{
							"internalType": "address",
							"name": "",
							"type": "address"
						}
					],
					"stateMutability": "view",
					"type": "function"
				},
				{
					"inputs": [
						{
							"internalType": "uint256",
							"name": "",
							"type": "uint256"
						}
					],
					"name": "class",
					"outputs": [
						{
							"internalType": "string",
							"name": "name",
							"type": "string"
						},
						{
							"internalType": "uint256",
							"name": "value",
							"type": "uint256"
						}
					],
					"stateMutability": "view",
					"type": "function"
				},
				{
					"inputs": [
						{
							"internalType": "string",
							"name": "_name",
							"type": "string"
						},
						{
							"internalType": "uint256",
							"name": "_value",
							"type": "uint256"
						}
					],
					"name": "createClass",
					"outputs": [],
					"stateMutability": "nonpayable",
					"type": "function"
				},
				{
					"inputs": [],
					"name": "getBalance",
					"outputs": [
						{
							"internalType": "address",
							"name": "",
							"type": "address"
						},
						{
							"internalType": "uint256",
							"name": "",
							"type": "uint256"
						}
					],
					"stateMutability": "view",
					"type": "function"
				},
				{
					"inputs": [
						{
							"internalType": "uint256",
							"name": "_index",
							"type": "uint256"
						}
					],
					"name": "getClass",
					"outputs": [
						{
							"internalType": "string",
							"name": "name",
							"type": "string"
						},
						{
							"internalType": "uint256",
							"name": "value",
							"type": "uint256"
						}
					],
					"stateMutability": "view",
					"type": "function"
				},
				{
					"inputs": [
						{
							"internalType": "address",
							"name": "_address",
							"type": "address"
						},
						{
							"internalType": "uint256",
							"name": "_credits",
							"type": "uint256"
						}
					],
					"name": "register",
					"outputs": [],
					"stateMutability": "nonpayable",
					"type": "function"
				},
				{
					"inputs": [
						{
							"internalType": "uint256",
							"name": "_index",
							"type": "uint256"
						}
					],
					"name": "removeClass",
					"outputs": [],
					"stateMutability": "nonpayable",
					"type": "function"
				},
				{
					"inputs": [
						{
							"internalType": "uint256",
							"name": "_index",
							"type": "uint256"
						},
						{
							"internalType": "string",
							"name": "_name",
							"type": "string"
						},
						{
							"internalType": "uint256",
							"name": "_value",
							"type": "uint256"
						}
					],
					"name": "updateClass",
					"outputs": [],
					"stateMutability": "nonpayable",
					"type": "function"
				},
				{
					"inputs": [
						{
							"internalType": "address",
							"name": "",
							"type": "address"
						}
					],
					"name": "users",
					"outputs": [
						{
							"internalType": "uint256",
							"name": "",
							"type": "uint256"
						}
					],
					"stateMutability": "view",
					"type": "function"
				}
			],
			"devdoc": {
				"kind": "dev",
				"methods": {},
				"version": 1
			},
			"evm": {
				"assembly": "    /* \"contracts/Gym_Contact.sol\":70:2184  contract gym {\r... */\n  mstore(0x40, 0xa0)\n    /* \"contracts/Gym_Contact.sol\":431:482  constructor() {\r... */\n  callvalue\n  dup1\n  iszero\n  tag_1\n  jumpi\n  0x00\n  dup1\n  revert\ntag_1:\n  pop\n    /* \"contracts/Gym_Contact.sol\":464:474  msg.sender */\n  caller\n    /* \"contracts/Gym_Contact.sol\":456:474  ADMIN = msg.sender */\n  0xffffffffffffffffffffffffffffffffffffffff\n  and\n  0x80\n  dup2\n  0xffffffffffffffffffffffffffffffffffffffff\n  and\n  0x60\n  shl\n  dup2\n  mstore\n  pop\n  pop\n    /* \"contracts/Gym_Contact.sol\":70:2184  contract gym {\r... */\n  shr(0x60, mload(0x80))\n  codecopy(0x00, dataOffset(sub_0), dataSize(sub_0))\n  0x00\n  assignImmutable(\"0x731dc163f73d31d8c68f9917ce4ff967753939f70432973c04fd2c2a48148607\")\n  return(0x00, dataSize(sub_0))\nstop\n\nsub_0: assembly {\n        /* \"contracts/Gym_Contact.sol\":70:2184  contract gym {\r... */\n      mstore(0x40, 0x80)\n      callvalue\n      dup1\n      iszero\n      tag_1\n      jumpi\n      0x00\n      dup1\n      revert\n    tag_1:\n      pop\n      jumpi(tag_2, lt(calldatasize, 0x04))\n      shr(0xe0, calldataload(0x00))\n      dup1\n      0x4852a212\n      gt\n      tag_12\n      jumpi\n      dup1\n      0x4852a212\n      eq\n      tag_7\n      jumpi\n      dup1\n      0x512d62df\n      eq\n      tag_8\n      jumpi\n      dup1\n      0x6d705ebb\n      eq\n      tag_9\n      jumpi\n      dup1\n      0x72c30f45\n      eq\n      tag_10\n      jumpi\n      dup1\n      0xa87430ba\n      eq\n      tag_11\n      jumpi\n      jump(tag_2)\n    tag_12:\n      dup1\n      0x12065fe0\n      eq\n      tag_3\n      jumpi\n      dup1\n      0x1e8be099\n      eq\n      tag_4\n      jumpi\n      dup1\n      0x2a0acc6a\n      eq\n      tag_5\n      jumpi\n      dup1\n      0x3613a9f4\n      eq\n      tag_6\n      jumpi\n    tag_2:\n      0x00\n      dup1\n      revert\n        /* \"contracts/Gym_Contact.sol\":1877:1990  function getBalance() public view returns(address, uint){\r... */\n    tag_3:\n      tag_13\n      tag_14\n      jump\t// in\n    tag_13:\n      mload(0x40)\n      tag_15\n      swap3\n      swap2\n      swap1\n      tag_16\n      jump\t// in\n    tag_15:\n      mload(0x40)\n      dup1\n      swap2\n      sub\n      swap1\n      return\n        /* \"contracts/Gym_Contact.sol\":1073:1357  function updateClass(uint _index, string memory _name, uint _value) public {\r... */\n    tag_4:\n      tag_17\n      0x04\n      dup1\n      calldatasize\n      sub\n      dup2\n      add\n      swap1\n      tag_18\n      swap2\n      swap1\n      tag_19\n      jump\t// in\n    tag_18:\n      tag_20\n      jump\t// in\n    tag_17:\n      stop\n        /* \"contracts/Gym_Contact.sol\":392:422  address immutable public ADMIN */\n    tag_5:\n      tag_21\n      tag_22\n      jump\t// in\n    tag_21:\n      mload(0x40)\n      tag_23\n      swap2\n      swap1\n      tag_24\n      jump\t// in\n    tag_23:\n      mload(0x40)\n      dup1\n      swap2\n      sub\n      swap1\n      return\n        /* \"contracts/Gym_Contact.sol\":758:778  Class[] public class */\n    tag_6:\n      tag_25\n      0x04\n      dup1\n      calldatasize\n      sub\n      dup2\n      add\n      swap1\n      tag_26\n      swap2\n      swap1\n      tag_27\n      jump\t// in\n    tag_26:\n      tag_28\n      jump\t// in\n    tag_25:\n      mload(0x40)\n      tag_29\n      swap3\n      swap2\n      swap1\n      tag_30\n      jump\t// in\n    tag_29:\n      mload(0x40)\n      dup1\n      swap2\n      sub\n      swap1\n      return\n        /* \"contracts/Gym_Contact.sol\":818:1065  function createClass(string memory _name, uint _value) public {\r... */\n    tag_7:\n      tag_31\n      0x04\n      dup1\n      calldatasize\n      sub\n      dup2\n      add\n      swap1\n      tag_32\n      swap2\n      swap1\n      tag_33\n      jump\t// in\n    tag_32:\n      tag_34\n      jump\t// in\n    tag_31:\n      stop\n        /* \"contracts/Gym_Contact.sol\":1998:2179  function getClass(uint _index) public view returns (string memory name, uint value) {\r... */\n    tag_8:\n      tag_35\n      0x04\n      dup1\n      calldatasize\n      sub\n      dup2\n      add\n      swap1\n      tag_36\n      swap2\n      swap1\n      tag_27\n      jump\t// in\n    tag_36:\n      tag_37\n      jump\t// in\n    tag_35:\n      mload(0x40)\n      tag_38\n      swap3\n      swap2\n      swap1\n      tag_30\n      jump\t// in\n    tag_38:\n      mload(0x40)\n      dup1\n      swap2\n      sub\n      swap1\n      return\n        /* \"contracts/Gym_Contact.sol\":1483:1869  function register(address _address, uint _credits) public {\r... */\n    tag_9:\n      tag_39\n      0x04\n      dup1\n      calldatasize\n      sub\n      dup2\n      add\n      swap1\n      tag_40\n      swap2\n      swap1\n      tag_41\n      jump\t// in\n    tag_40:\n      tag_42\n      jump\t// in\n    tag_39:\n      stop\n        /* \"contracts/Gym_Contact.sol\":1365:1445  function removeClass(uint _index) public {\r... */\n    tag_10:\n      tag_43\n      0x04\n      dup1\n      calldatasize\n      sub\n      dup2\n      add\n      swap1\n      tag_44\n      swap2\n      swap1\n      tag_27\n      jump\t// in\n    tag_44:\n      tag_45\n      jump\t// in\n    tag_43:\n      stop\n        /* \"contracts/Gym_Contact.sol\":506:543  mapping(address => uint) public users */\n    tag_11:\n      tag_46\n      0x04\n      dup1\n      calldatasize\n      sub\n      dup2\n      add\n      swap1\n      tag_47\n      swap2\n      swap1\n      tag_48\n      jump\t// in\n    tag_47:\n      tag_49\n      jump\t// in\n    tag_46:\n      mload(0x40)\n      tag_50\n      swap2\n      swap1\n      tag_51\n      jump\t// in\n    tag_50:\n      mload(0x40)\n      dup1\n      swap2\n      sub\n      swap1\n      return\n        /* \"contracts/Gym_Contact.sol\":1877:1990  function getBalance() public view returns(address, uint){\r... */\n    tag_14:\n        /* \"contracts/Gym_Contact.sol\":1919:1926  address */\n      0x00\n        /* \"contracts/Gym_Contact.sol\":1928:1932  uint */\n      dup1\n        /* \"contracts/Gym_Contact.sol\":1952:1962  msg.sender */\n      caller\n        /* \"contracts/Gym_Contact.sol\":1964:1969  users */\n      0x00\n        /* \"contracts/Gym_Contact.sol\":1964:1981  users[msg.sender] */\n      dup1\n        /* \"contracts/Gym_Contact.sol\":1970:1980  msg.sender */\n      caller\n        /* \"contracts/Gym_Contact.sol\":1964:1981  users[msg.sender] */\n      0xffffffffffffffffffffffffffffffffffffffff\n      and\n      0xffffffffffffffffffffffffffffffffffffffff\n      and\n      dup2\n      mstore\n      0x20\n      add\n      swap1\n      dup2\n      mstore\n      0x20\n      add\n      0x00\n      keccak256\n      sload\n        /* \"contracts/Gym_Contact.sol\":1944:1982  return (msg.sender, users[msg.sender]) */\n      swap2\n      pop\n      swap2\n      pop\n        /* \"contracts/Gym_Contact.sol\":1877:1990  function getBalance() public view returns(address, uint){\r... */\n      swap1\n      swap2\n      jump\t// out\n        /* \"contracts/Gym_Contact.sol\":1073:1357  function updateClass(uint _index, string memory _name, uint _value) public {\r... */\n    tag_20:\n        /* \"contracts/Gym_Contact.sol\":1176:1186  msg.sender */\n      caller\n        /* \"contracts/Gym_Contact.sol\":1167:1186  ADMIN == msg.sender */\n      0xffffffffffffffffffffffffffffffffffffffff\n      and\n        /* \"contracts/Gym_Contact.sol\":1167:1172  ADMIN */\n      immutable(\"0x731dc163f73d31d8c68f9917ce4ff967753939f70432973c04fd2c2a48148607\")\n        /* \"contracts/Gym_Contact.sol\":1167:1186  ADMIN == msg.sender */\n      0xffffffffffffffffffffffffffffffffffffffff\n      and\n      eq\n        /* \"contracts/Gym_Contact.sol\":1159:1243  require(ADMIN == msg.sender, \"Solo el Administrador del Gym puede modificar clases\") */\n      tag_54\n      jumpi\n      mload(0x40)\n      0x08c379a000000000000000000000000000000000000000000000000000000000\n      dup2\n      mstore\n      0x04\n      add\n      tag_55\n      swap1\n      tag_56\n      jump\t// in\n    tag_55:\n      mload(0x40)\n      dup1\n      swap2\n      sub\n      swap1\n      revert\n    tag_54:\n        /* \"contracts/Gym_Contact.sol\":1254:1273  Class storage clase */\n      0x00\n        /* \"contracts/Gym_Contact.sol\":1276:1281  class */\n      0x01\n        /* \"contracts/Gym_Contact.sol\":1282:1288  _index */\n      dup5\n        /* \"contracts/Gym_Contact.sol\":1276:1289  class[_index] */\n      dup2\n      sload\n      dup2\n      lt\n      tag_57\n      jumpi\n      tag_58\n      tag_59\n      jump\t// in\n    tag_58:\n    tag_57:\n      swap1\n      0x00\n      mstore\n      keccak256(0x00, 0x20)\n      swap1\n      0x02\n      mul\n      add\n        /* \"contracts/Gym_Contact.sol\":1254:1289  Class storage clase = class[_index] */\n      swap1\n      pop\n        /* \"contracts/Gym_Contact.sol\":1313:1318  _name */\n      dup3\n        /* \"contracts/Gym_Contact.sol\":1300:1305  clase */\n      dup2\n        /* \"contracts/Gym_Contact.sol\":1300:1310  clase.name */\n      0x00\n      add\n        /* \"contracts/Gym_Contact.sol\":1300:1318  clase.name = _name */\n      swap1\n      dup1\n      mload\n      swap1\n      0x20\n      add\n      swap1\n      tag_61\n      swap3\n      swap2\n      swap1\n      tag_62\n      jump\t// in\n    tag_61:\n      pop\n        /* \"contracts/Gym_Contact.sol\":1343:1349  _value */\n      dup2\n        /* \"contracts/Gym_Contact.sol\":1329:1334  clase */\n      dup2\n        /* \"contracts/Gym_Contact.sol\":1329:1340  clase.value */\n      0x01\n      add\n        /* \"contracts/Gym_Contact.sol\":1329:1349  clase.value = _value */\n      dup2\n      swap1\n      sstore\n      pop\n        /* \"contracts/Gym_Contact.sol\":1148:1357  {\r... */\n      pop\n        /* \"contracts/Gym_Contact.sol\":1073:1357  function updateClass(uint _index, string memory _name, uint _value) public {\r... */\n      pop\n      pop\n      pop\n      jump\t// out\n        /* \"contracts/Gym_Contact.sol\":392:422  address immutable public ADMIN */\n    tag_22:\n      immutable(\"0x731dc163f73d31d8c68f9917ce4ff967753939f70432973c04fd2c2a48148607\")\n      dup2\n      jump\t// out\n        /* \"contracts/Gym_Contact.sol\":758:778  Class[] public class */\n    tag_28:\n      0x01\n      dup2\n      dup2\n      sload\n      dup2\n      lt\n      tag_63\n      jumpi\n      0x00\n      dup1\n      revert\n    tag_63:\n      swap1\n      0x00\n      mstore\n      keccak256(0x00, 0x20)\n      swap1\n      0x02\n      mul\n      add\n      0x00\n      swap2\n      pop\n      swap1\n      pop\n      dup1\n      0x00\n      add\n      dup1\n      sload\n      tag_65\n      swap1\n      tag_66\n      jump\t// in\n    tag_65:\n      dup1\n      0x1f\n      add\n      0x20\n      dup1\n      swap2\n      div\n      mul\n      0x20\n      add\n      mload(0x40)\n      swap1\n      dup2\n      add\n      0x40\n      mstore\n      dup1\n      swap3\n      swap2\n      swap1\n      dup2\n      dup2\n      mstore\n      0x20\n      add\n      dup3\n      dup1\n      sload\n      tag_67\n      swap1\n      tag_66\n      jump\t// in\n    tag_67:\n      dup1\n      iszero\n      tag_68\n      jumpi\n      dup1\n      0x1f\n      lt\n      tag_69\n      jumpi\n      0x0100\n      dup1\n      dup4\n      sload\n      div\n      mul\n      dup4\n      mstore\n      swap2\n      0x20\n      add\n      swap2\n      jump(tag_68)\n    tag_69:\n      dup3\n      add\n      swap2\n      swap1\n      0x00\n      mstore\n      keccak256(0x00, 0x20)\n      swap1\n    tag_70:\n      dup2\n      sload\n      dup2\n      mstore\n      swap1\n      0x01\n      add\n      swap1\n      0x20\n      add\n      dup1\n      dup4\n      gt\n      tag_70\n      jumpi\n      dup3\n      swap1\n      sub\n      0x1f\n      and\n      dup3\n      add\n      swap2\n    tag_68:\n      pop\n      pop\n      pop\n      pop\n      pop\n      swap1\n      dup1\n      0x01\n      add\n      sload\n      swap1\n      pop\n      dup3\n      jump\t// out\n        /* \"contracts/Gym_Contact.sol\":818:1065  function createClass(string memory _name, uint _value) public {\r... */\n    tag_34:\n        /* \"contracts/Gym_Contact.sol\":908:918  msg.sender */\n      caller\n        /* \"contracts/Gym_Contact.sol\":899:918  ADMIN == msg.sender */\n      0xffffffffffffffffffffffffffffffffffffffff\n      and\n        /* \"contracts/Gym_Contact.sol\":899:904  ADMIN */\n      immutable(\"0x731dc163f73d31d8c68f9917ce4ff967753939f70432973c04fd2c2a48148607\")\n        /* \"contracts/Gym_Contact.sol\":899:918  ADMIN == msg.sender */\n      0xffffffffffffffffffffffffffffffffffffffff\n      and\n      eq\n        /* \"contracts/Gym_Contact.sol\":891:971  require(ADMIN == msg.sender, \"Solo el Administrador del Gym puede crear clases\") */\n      tag_72\n      jumpi\n      mload(0x40)\n      0x08c379a000000000000000000000000000000000000000000000000000000000\n      dup2\n      mstore\n      0x04\n      add\n      tag_73\n      swap1\n      tag_74\n      jump\t// in\n    tag_73:\n      mload(0x40)\n      dup1\n      swap2\n      sub\n      swap1\n      revert\n    tag_72:\n        /* \"contracts/Gym_Contact.sol\":982:987  class */\n      0x01\n        /* \"contracts/Gym_Contact.sol\":993:1013  Class(_name, _value) */\n      mload(0x40)\n      dup1\n      0x40\n      add\n      0x40\n      mstore\n      dup1\n        /* \"contracts/Gym_Contact.sol\":999:1004  _name */\n      dup5\n        /* \"contracts/Gym_Contact.sol\":993:1013  Class(_name, _value) */\n      dup2\n      mstore\n      0x20\n      add\n        /* \"contracts/Gym_Contact.sol\":1006:1012  _value */\n      dup4\n        /* \"contracts/Gym_Contact.sol\":993:1013  Class(_name, _value) */\n      dup2\n      mstore\n      pop\n        /* \"contracts/Gym_Contact.sol\":982:1014  class.push(Class(_name, _value)) */\n      swap1\n      dup1\n      0x01\n      dup2\n      sload\n      add\n      dup1\n      dup3\n      sstore\n      dup1\n      swap2\n      pop\n      pop\n      0x01\n      swap1\n      sub\n      swap1\n      0x00\n      mstore\n      keccak256(0x00, 0x20)\n      swap1\n      0x02\n      mul\n      add\n      0x00\n      swap1\n      swap2\n      swap1\n      swap2\n      swap1\n      swap2\n      pop\n      0x00\n      dup3\n      add\n      mload\n      dup2\n      0x00\n      add\n      swap1\n      dup1\n      mload\n      swap1\n      0x20\n      add\n      swap1\n      tag_76\n      swap3\n      swap2\n      swap1\n      tag_62\n      jump\t// in\n    tag_76:\n      pop\n      0x20\n      dup3\n      add\n      mload\n      dup2\n      0x01\n      add\n      sstore\n      pop\n      pop\n        /* \"contracts/Gym_Contact.sol\":1030:1057  ClassCreated(_name, _value) */\n      0x14d49e3ea4f348b7f368906dfe1a63055c7822d622a61672a35a55ae97a768f9\n        /* \"contracts/Gym_Contact.sol\":1043:1048  _name */\n      dup3\n        /* \"contracts/Gym_Contact.sol\":1050:1056  _value */\n      dup3\n        /* \"contracts/Gym_Contact.sol\":1030:1057  ClassCreated(_name, _value) */\n      mload(0x40)\n      tag_77\n      swap3\n      swap2\n      swap1\n      tag_30\n      jump\t// in\n    tag_77:\n      mload(0x40)\n      dup1\n      swap2\n      sub\n      swap1\n      log1\n        /* \"contracts/Gym_Contact.sol\":818:1065  function createClass(string memory _name, uint _value) public {\r... */\n      pop\n      pop\n      jump\t// out\n        /* \"contracts/Gym_Contact.sol\":1998:2179  function getClass(uint _index) public view returns (string memory name, uint value) {\r... */\n    tag_37:\n        /* \"contracts/Gym_Contact.sol\":2050:2068  string memory name */\n      0x60\n        /* \"contracts/Gym_Contact.sol\":2070:2080  uint value */\n      0x00\n        /* \"contracts/Gym_Contact.sol\":2093:2112  Class storage clase */\n      dup1\n        /* \"contracts/Gym_Contact.sol\":2115:2120  class */\n      0x01\n        /* \"contracts/Gym_Contact.sol\":2121:2127  _index */\n      dup5\n        /* \"contracts/Gym_Contact.sol\":2115:2128  class[_index] */\n      dup2\n      sload\n      dup2\n      lt\n      tag_79\n      jumpi\n      tag_80\n      tag_59\n      jump\t// in\n    tag_80:\n    tag_79:\n      swap1\n      0x00\n      mstore\n      keccak256(0x00, 0x20)\n      swap1\n      0x02\n      mul\n      add\n        /* \"contracts/Gym_Contact.sol\":2093:2128  Class storage clase = class[_index] */\n      swap1\n      pop\n        /* \"contracts/Gym_Contact.sol\":2147:2152  clase */\n      dup1\n        /* \"contracts/Gym_Contact.sol\":2147:2157  clase.name */\n      0x00\n      add\n        /* \"contracts/Gym_Contact.sol\":2159:2164  clase */\n      dup2\n        /* \"contracts/Gym_Contact.sol\":2159:2170  clase.value */\n      0x01\n      add\n      sload\n        /* \"contracts/Gym_Contact.sol\":2139:2171  return (clase.name, clase.value) */\n      dup2\n      dup1\n      sload\n      tag_82\n      swap1\n      tag_66\n      jump\t// in\n    tag_82:\n      dup1\n      0x1f\n      add\n      0x20\n      dup1\n      swap2\n      div\n      mul\n      0x20\n      add\n      mload(0x40)\n      swap1\n      dup2\n      add\n      0x40\n      mstore\n      dup1\n      swap3\n      swap2\n      swap1\n      dup2\n      dup2\n      mstore\n      0x20\n      add\n      dup3\n      dup1\n      sload\n      tag_83\n      swap1\n      tag_66\n      jump\t// in\n    tag_83:\n      dup1\n      iszero\n      tag_84\n      jumpi\n      dup1\n      0x1f\n      lt\n      tag_85\n      jumpi\n      0x0100\n      dup1\n      dup4\n      sload\n      div\n      mul\n      dup4\n      mstore\n      swap2\n      0x20\n      add\n      swap2\n      jump(tag_84)\n    tag_85:\n      dup3\n      add\n      swap2\n      swap1\n      0x00\n      mstore\n      keccak256(0x00, 0x20)\n      swap1\n    tag_86:\n      dup2\n      sload\n      dup2\n      mstore\n      swap1\n      0x01\n      add\n      swap1\n      0x20\n      add\n      dup1\n      dup4\n      gt\n      tag_86\n      jumpi\n      dup3\n      swap1\n      sub\n      0x1f\n      and\n      dup3\n      add\n      swap2\n    tag_84:\n      pop\n      pop\n      pop\n      pop\n      pop\n      swap2\n      pop\n      swap3\n      pop\n      swap3\n      pop\n      pop\n        /* \"contracts/Gym_Contact.sol\":1998:2179  function getClass(uint _index) public view returns (string memory name, uint value) {\r... */\n      swap2\n      pop\n      swap2\n      jump\t// out\n        /* \"contracts/Gym_Contact.sol\":1483:1869  function register(address _address, uint _credits) public {\r... */\n    tag_42:\n        /* \"contracts/Gym_Contact.sol\":1684:1685  0 */\n      0x00\n        /* \"contracts/Gym_Contact.sol\":1663:1668  users */\n      dup1\n        /* \"contracts/Gym_Contact.sol\":1663:1680  users[msg.sender] */\n      0x00\n        /* \"contracts/Gym_Contact.sol\":1669:1679  msg.sender */\n      caller\n        /* \"contracts/Gym_Contact.sol\":1663:1680  users[msg.sender] */\n      0xffffffffffffffffffffffffffffffffffffffff\n      and\n      0xffffffffffffffffffffffffffffffffffffffff\n      and\n      dup2\n      mstore\n      0x20\n      add\n      swap1\n      dup2\n      mstore\n      0x20\n      add\n      0x00\n      keccak256\n      sload\n        /* \"contracts/Gym_Contact.sol\":1663:1685  users[msg.sender] == 0 */\n      eq\n        /* \"contracts/Gym_Contact.sol\":1655:1727  require(users[msg.sender] == 0, \"Ya te encuentras registrado en el gym\") */\n      tag_88\n      jumpi\n      mload(0x40)\n      0x08c379a000000000000000000000000000000000000000000000000000000000\n      dup2\n      mstore\n      0x04\n      add\n      tag_89\n      swap1\n      tag_90\n      jump\t// in\n    tag_89:\n      mload(0x40)\n      dup1\n      swap2\n      sub\n      swap1\n      revert\n    tag_88:\n        /* \"contracts/Gym_Contact.sol\":1758:1766  _credits */\n      dup1\n        /* \"contracts/Gym_Contact.sol\":1738:1743  users */\n      0x00\n        /* \"contracts/Gym_Contact.sol\":1738:1755  users[msg.sender] */\n      dup1\n        /* \"contracts/Gym_Contact.sol\":1744:1754  msg.sender */\n      caller\n        /* \"contracts/Gym_Contact.sol\":1738:1755  users[msg.sender] */\n      0xffffffffffffffffffffffffffffffffffffffff\n      and\n      0xffffffffffffffffffffffffffffffffffffffff\n      and\n      dup2\n      mstore\n      0x20\n      add\n      swap1\n      dup2\n      mstore\n      0x20\n      add\n      0x00\n      keccak256\n        /* \"contracts/Gym_Contact.sol\":1738:1766  users[msg.sender] = _credits */\n      dup2\n      swap1\n      sstore\n      pop\n        /* \"contracts/Gym_Contact.sol\":1782:1810  Register(_address, _credits) */\n      0x7dc6ab80cc84c043b7b8d4fcafc802187470087f7ea7fccd2e17aecd0256a1\n        /* \"contracts/Gym_Contact.sol\":1791:1799  _address */\n      dup3\n        /* \"contracts/Gym_Contact.sol\":1801:1809  _credits */\n      dup3\n        /* \"contracts/Gym_Contact.sol\":1782:1810  Register(_address, _credits) */\n      mload(0x40)\n      tag_91\n      swap3\n      swap2\n      swap1\n      tag_16\n      jump\t// in\n    tag_91:\n      mload(0x40)\n      dup1\n      swap2\n      sub\n      swap1\n      log1\n        /* \"contracts/Gym_Contact.sol\":1483:1869  function register(address _address, uint _credits) public {\r... */\n      pop\n      pop\n      jump\t// out\n        /* \"contracts/Gym_Contact.sol\":1365:1445  function removeClass(uint _index) public {\r... */\n    tag_45:\n        /* \"contracts/Gym_Contact.sol\":1424:1429  class */\n      0x01\n        /* \"contracts/Gym_Contact.sol\":1430:1436  _index */\n      dup2\n        /* \"contracts/Gym_Contact.sol\":1424:1437  class[_index] */\n      dup2\n      sload\n      dup2\n      lt\n      tag_93\n      jumpi\n      tag_94\n      tag_59\n      jump\t// in\n    tag_94:\n    tag_93:\n      swap1\n      0x00\n      mstore\n      keccak256(0x00, 0x20)\n      swap1\n      0x02\n      mul\n      add\n      0x00\n        /* \"contracts/Gym_Contact.sol\":1417:1437  delete class[_index] */\n      dup1\n      dup3\n      add\n      0x00\n      tag_96\n      swap2\n      swap1\n      tag_97\n      jump\t// in\n    tag_96:\n      0x01\n      dup3\n      add\n      0x00\n      swap1\n      sstore\n      pop\n      pop\n        /* \"contracts/Gym_Contact.sol\":1365:1445  function removeClass(uint _index) public {\r... */\n      pop\n      jump\t// out\n        /* \"contracts/Gym_Contact.sol\":506:543  mapping(address => uint) public users */\n    tag_49:\n      mstore(0x20, 0x00)\n      dup1\n      0x00\n      mstore\n      keccak256(0x00, 0x40)\n      0x00\n      swap2\n      pop\n      swap1\n      pop\n      sload\n      dup2\n      jump\t// out\n    tag_62:\n      dup3\n      dup1\n      sload\n      tag_98\n      swap1\n      tag_66\n      jump\t// in\n    tag_98:\n      swap1\n      0x00\n      mstore\n      keccak256(0x00, 0x20)\n      swap1\n      0x1f\n      add\n      0x20\n      swap1\n      div\n      dup2\n      add\n      swap3\n      dup3\n      tag_100\n      jumpi\n      0x00\n      dup6\n      sstore\n      jump(tag_99)\n    tag_100:\n      dup3\n      0x1f\n      lt\n      tag_101\n      jumpi\n      dup1\n      mload\n      not(0xff)\n      and\n      dup4\n      dup1\n      add\n      or\n      dup6\n      sstore\n      jump(tag_99)\n    tag_101:\n      dup3\n      dup1\n      add\n      0x01\n      add\n      dup6\n      sstore\n      dup3\n      iszero\n      tag_99\n      jumpi\n      swap2\n      dup3\n      add\n    tag_102:\n      dup3\n      dup2\n      gt\n      iszero\n      tag_103\n      jumpi\n      dup3\n      mload\n      dup3\n      sstore\n      swap2\n      0x20\n      add\n      swap2\n      swap1\n      0x01\n      add\n      swap1\n      jump(tag_102)\n    tag_103:\n    tag_99:\n      pop\n      swap1\n      pop\n      tag_104\n      swap2\n      swap1\n      tag_105\n      jump\t// in\n    tag_104:\n      pop\n      swap1\n      jump\t// out\n    tag_97:\n      pop\n      dup1\n      sload\n      tag_106\n      swap1\n      tag_66\n      jump\t// in\n    tag_106:\n      0x00\n      dup3\n      sstore\n      dup1\n      0x1f\n      lt\n      tag_108\n      jumpi\n      pop\n      jump(tag_107)\n    tag_108:\n      0x1f\n      add\n      0x20\n      swap1\n      div\n      swap1\n      0x00\n      mstore\n      keccak256(0x00, 0x20)\n      swap1\n      dup2\n      add\n      swap1\n      tag_109\n      swap2\n      swap1\n      tag_105\n      jump\t// in\n    tag_109:\n    tag_107:\n      pop\n      jump\t// out\n    tag_105:\n    tag_110:\n      dup1\n      dup3\n      gt\n      iszero\n      tag_111\n      jumpi\n      0x00\n      dup2\n      0x00\n      swap1\n      sstore\n      pop\n      0x01\n      add\n      jump(tag_110)\n    tag_111:\n      pop\n      swap1\n      jump\t// out\n        /* \"#utility.yul\":7:419   */\n    tag_113:\n        /* \"#utility.yul\":85:90   */\n      0x00\n        /* \"#utility.yul\":110:176   */\n      tag_115\n        /* \"#utility.yul\":126:175   */\n      tag_116\n        /* \"#utility.yul\":168:174   */\n      dup5\n        /* \"#utility.yul\":126:175   */\n      tag_117\n      jump\t// in\n    tag_116:\n        /* \"#utility.yul\":110:176   */\n      tag_118\n      jump\t// in\n    tag_115:\n        /* \"#utility.yul\":101:176   */\n      swap1\n      pop\n        /* \"#utility.yul\":199:205   */\n      dup3\n        /* \"#utility.yul\":192:197   */\n      dup2\n        /* \"#utility.yul\":185:206   */\n      mstore\n        /* \"#utility.yul\":237:241   */\n      0x20\n        /* \"#utility.yul\":230:235   */\n      dup2\n        /* \"#utility.yul\":226:242   */\n      add\n        /* \"#utility.yul\":275:278   */\n      dup5\n        /* \"#utility.yul\":266:272   */\n      dup5\n        /* \"#utility.yul\":261:264   */\n      dup5\n        /* \"#utility.yul\":257:273   */\n      add\n        /* \"#utility.yul\":254:279   */\n      gt\n        /* \"#utility.yul\":251:363   */\n      iszero\n      tag_119\n      jumpi\n        /* \"#utility.yul\":282:361   */\n      tag_120\n      tag_121\n      jump\t// in\n    tag_120:\n        /* \"#utility.yul\":251:363   */\n    tag_119:\n        /* \"#utility.yul\":372:413   */\n      tag_122\n        /* \"#utility.yul\":406:412   */\n      dup5\n        /* \"#utility.yul\":401:404   */\n      dup3\n        /* \"#utility.yul\":396:399   */\n      dup6\n        /* \"#utility.yul\":372:413   */\n      tag_123\n      jump\t// in\n    tag_122:\n        /* \"#utility.yul\":91:419   */\n      pop\n        /* \"#utility.yul\":7:419   */\n      swap4\n      swap3\n      pop\n      pop\n      pop\n      jump\t// out\n        /* \"#utility.yul\":425:564   */\n    tag_124:\n        /* \"#utility.yul\":471:476   */\n      0x00\n        /* \"#utility.yul\":509:515   */\n      dup2\n        /* \"#utility.yul\":496:516   */\n      calldataload\n        /* \"#utility.yul\":487:516   */\n      swap1\n      pop\n        /* \"#utility.yul\":525:558   */\n      tag_126\n        /* \"#utility.yul\":552:557   */\n      dup2\n        /* \"#utility.yul\":525:558   */\n      tag_127\n      jump\t// in\n    tag_126:\n        /* \"#utility.yul\":425:564   */\n      swap3\n      swap2\n      pop\n      pop\n      jump\t// out\n        /* \"#utility.yul\":584:924   */\n    tag_128:\n        /* \"#utility.yul\":640:645   */\n      0x00\n        /* \"#utility.yul\":689:692   */\n      dup3\n        /* \"#utility.yul\":682:686   */\n      0x1f\n        /* \"#utility.yul\":674:680   */\n      dup4\n        /* \"#utility.yul\":670:687   */\n      add\n        /* \"#utility.yul\":666:693   */\n      slt\n        /* \"#utility.yul\":656:778   */\n      tag_130\n      jumpi\n        /* \"#utility.yul\":697:776   */\n      tag_131\n      tag_132\n      jump\t// in\n    tag_131:\n        /* \"#utility.yul\":656:778   */\n    tag_130:\n        /* \"#utility.yul\":814:820   */\n      dup2\n        /* \"#utility.yul\":801:821   */\n      calldataload\n        /* \"#utility.yul\":839:918   */\n      tag_133\n        /* \"#utility.yul\":914:917   */\n      dup5\n        /* \"#utility.yul\":906:912   */\n      dup3\n        /* \"#utility.yul\":899:903   */\n      0x20\n        /* \"#utility.yul\":891:897   */\n      dup7\n        /* \"#utility.yul\":887:904   */\n      add\n        /* \"#utility.yul\":839:918   */\n      tag_113\n      jump\t// in\n    tag_133:\n        /* \"#utility.yul\":830:918   */\n      swap2\n      pop\n        /* \"#utility.yul\":646:924   */\n      pop\n        /* \"#utility.yul\":584:924   */\n      swap3\n      swap2\n      pop\n      pop\n      jump\t// out\n        /* \"#utility.yul\":930:1069   */\n    tag_134:\n        /* \"#utility.yul\":976:981   */\n      0x00\n        /* \"#utility.yul\":1014:1020   */\n      dup2\n        /* \"#utility.yul\":1001:1021   */\n      calldataload\n        /* \"#utility.yul\":992:1021   */\n      swap1\n      pop\n        /* \"#utility.yul\":1030:1063   */\n      tag_136\n        /* \"#utility.yul\":1057:1062   */\n      dup2\n        /* \"#utility.yul\":1030:1063   */\n      tag_137\n      jump\t// in\n    tag_136:\n        /* \"#utility.yul\":930:1069   */\n      swap3\n      swap2\n      pop\n      pop\n      jump\t// out\n        /* \"#utility.yul\":1075:1404   */\n    tag_48:\n        /* \"#utility.yul\":1134:1140   */\n      0x00\n        /* \"#utility.yul\":1183:1185   */\n      0x20\n        /* \"#utility.yul\":1171:1180   */\n      dup3\n        /* \"#utility.yul\":1162:1169   */\n      dup5\n        /* \"#utility.yul\":1158:1181   */\n      sub\n        /* \"#utility.yul\":1154:1186   */\n      slt\n        /* \"#utility.yul\":1151:1270   */\n      iszero\n      tag_139\n      jumpi\n        /* \"#utility.yul\":1189:1268   */\n      tag_140\n      tag_141\n      jump\t// in\n    tag_140:\n        /* \"#utility.yul\":1151:1270   */\n    tag_139:\n        /* \"#utility.yul\":1309:1310   */\n      0x00\n        /* \"#utility.yul\":1334:1387   */\n      tag_142\n        /* \"#utility.yul\":1379:1386   */\n      dup5\n        /* \"#utility.yul\":1370:1376   */\n      dup3\n        /* \"#utility.yul\":1359:1368   */\n      dup6\n        /* \"#utility.yul\":1355:1377   */\n      add\n        /* \"#utility.yul\":1334:1387   */\n      tag_124\n      jump\t// in\n    tag_142:\n        /* \"#utility.yul\":1324:1387   */\n      swap2\n      pop\n        /* \"#utility.yul\":1280:1397   */\n      pop\n        /* \"#utility.yul\":1075:1404   */\n      swap3\n      swap2\n      pop\n      pop\n      jump\t// out\n        /* \"#utility.yul\":1410:1884   */\n    tag_41:\n        /* \"#utility.yul\":1478:1484   */\n      0x00\n        /* \"#utility.yul\":1486:1492   */\n      dup1\n        /* \"#utility.yul\":1535:1537   */\n      0x40\n        /* \"#utility.yul\":1523:1532   */\n      dup4\n        /* \"#utility.yul\":1514:1521   */\n      dup6\n        /* \"#utility.yul\":1510:1533   */\n      sub\n        /* \"#utility.yul\":1506:1538   */\n      slt\n        /* \"#utility.yul\":1503:1622   */\n      iszero\n      tag_144\n      jumpi\n        /* \"#utility.yul\":1541:1620   */\n      tag_145\n      tag_141\n      jump\t// in\n    tag_145:\n        /* \"#utility.yul\":1503:1622   */\n    tag_144:\n        /* \"#utility.yul\":1661:1662   */\n      0x00\n        /* \"#utility.yul\":1686:1739   */\n      tag_146\n        /* \"#utility.yul\":1731:1738   */\n      dup6\n        /* \"#utility.yul\":1722:1728   */\n      dup3\n        /* \"#utility.yul\":1711:1720   */\n      dup7\n        /* \"#utility.yul\":1707:1729   */\n      add\n        /* \"#utility.yul\":1686:1739   */\n      tag_124\n      jump\t// in\n    tag_146:\n        /* \"#utility.yul\":1676:1739   */\n      swap3\n      pop\n        /* \"#utility.yul\":1632:1749   */\n      pop\n        /* \"#utility.yul\":1788:1790   */\n      0x20\n        /* \"#utility.yul\":1814:1867   */\n      tag_147\n        /* \"#utility.yul\":1859:1866   */\n      dup6\n        /* \"#utility.yul\":1850:1856   */\n      dup3\n        /* \"#utility.yul\":1839:1848   */\n      dup7\n        /* \"#utility.yul\":1835:1857   */\n      add\n        /* \"#utility.yul\":1814:1867   */\n      tag_134\n      jump\t// in\n    tag_147:\n        /* \"#utility.yul\":1804:1867   */\n      swap2\n      pop\n        /* \"#utility.yul\":1759:1877   */\n      pop\n        /* \"#utility.yul\":1410:1884   */\n      swap3\n      pop\n      swap3\n      swap1\n      pop\n      jump\t// out\n        /* \"#utility.yul\":1890:2544   */\n    tag_33:\n        /* \"#utility.yul\":1968:1974   */\n      0x00\n        /* \"#utility.yul\":1976:1982   */\n      dup1\n        /* \"#utility.yul\":2025:2027   */\n      0x40\n        /* \"#utility.yul\":2013:2022   */\n      dup4\n        /* \"#utility.yul\":2004:2011   */\n      dup6\n        /* \"#utility.yul\":2000:2023   */\n      sub\n        /* \"#utility.yul\":1996:2028   */\n      slt\n        /* \"#utility.yul\":1993:2112   */\n      iszero\n      tag_149\n      jumpi\n        /* \"#utility.yul\":2031:2110   */\n      tag_150\n      tag_141\n      jump\t// in\n    tag_150:\n        /* \"#utility.yul\":1993:2112   */\n    tag_149:\n        /* \"#utility.yul\":2179:2180   */\n      0x00\n        /* \"#utility.yul\":2168:2177   */\n      dup4\n        /* \"#utility.yul\":2164:2181   */\n      add\n        /* \"#utility.yul\":2151:2182   */\n      calldataload\n        /* \"#utility.yul\":2209:2227   */\n      0xffffffffffffffff\n        /* \"#utility.yul\":2201:2207   */\n      dup2\n        /* \"#utility.yul\":2198:2228   */\n      gt\n        /* \"#utility.yul\":2195:2312   */\n      iszero\n      tag_151\n      jumpi\n        /* \"#utility.yul\":2231:2310   */\n      tag_152\n      tag_153\n      jump\t// in\n    tag_152:\n        /* \"#utility.yul\":2195:2312   */\n    tag_151:\n        /* \"#utility.yul\":2336:2399   */\n      tag_154\n        /* \"#utility.yul\":2391:2398   */\n      dup6\n        /* \"#utility.yul\":2382:2388   */\n      dup3\n        /* \"#utility.yul\":2371:2380   */\n      dup7\n        /* \"#utility.yul\":2367:2389   */\n      add\n        /* \"#utility.yul\":2336:2399   */\n      tag_128\n      jump\t// in\n    tag_154:\n        /* \"#utility.yul\":2326:2399   */\n      swap3\n      pop\n        /* \"#utility.yul\":2122:2409   */\n      pop\n        /* \"#utility.yul\":2448:2450   */\n      0x20\n        /* \"#utility.yul\":2474:2527   */\n      tag_155\n        /* \"#utility.yul\":2519:2526   */\n      dup6\n        /* \"#utility.yul\":2510:2516   */\n      dup3\n        /* \"#utility.yul\":2499:2508   */\n      dup7\n        /* \"#utility.yul\":2495:2517   */\n      add\n        /* \"#utility.yul\":2474:2527   */\n      tag_134\n      jump\t// in\n    tag_155:\n        /* \"#utility.yul\":2464:2527   */\n      swap2\n      pop\n        /* \"#utility.yul\":2419:2537   */\n      pop\n        /* \"#utility.yul\":1890:2544   */\n      swap3\n      pop\n      swap3\n      swap1\n      pop\n      jump\t// out\n        /* \"#utility.yul\":2550:2879   */\n    tag_27:\n        /* \"#utility.yul\":2609:2615   */\n      0x00\n        /* \"#utility.yul\":2658:2660   */\n      0x20\n        /* \"#utility.yul\":2646:2655   */\n      dup3\n        /* \"#utility.yul\":2637:2644   */\n      dup5\n        /* \"#utility.yul\":2633:2656   */\n      sub\n        /* \"#utility.yul\":2629:2661   */\n      slt\n        /* \"#utility.yul\":2626:2745   */\n      iszero\n      tag_157\n      jumpi\n        /* \"#utility.yul\":2664:2743   */\n      tag_158\n      tag_141\n      jump\t// in\n    tag_158:\n        /* \"#utility.yul\":2626:2745   */\n    tag_157:\n        /* \"#utility.yul\":2784:2785   */\n      0x00\n        /* \"#utility.yul\":2809:2862   */\n      tag_159\n        /* \"#utility.yul\":2854:2861   */\n      dup5\n        /* \"#utility.yul\":2845:2851   */\n      dup3\n        /* \"#utility.yul\":2834:2843   */\n      dup6\n        /* \"#utility.yul\":2830:2852   */\n      add\n        /* \"#utility.yul\":2809:2862   */\n      tag_134\n      jump\t// in\n    tag_159:\n        /* \"#utility.yul\":2799:2862   */\n      swap2\n      pop\n        /* \"#utility.yul\":2755:2872   */\n      pop\n        /* \"#utility.yul\":2550:2879   */\n      swap3\n      swap2\n      pop\n      pop\n      jump\t// out\n        /* \"#utility.yul\":2885:3684   */\n    tag_19:\n        /* \"#utility.yul\":2972:2978   */\n      0x00\n        /* \"#utility.yul\":2980:2986   */\n      dup1\n        /* \"#utility.yul\":2988:2994   */\n      0x00\n        /* \"#utility.yul\":3037:3039   */\n      0x60\n        /* \"#utility.yul\":3025:3034   */\n      dup5\n        /* \"#utility.yul\":3016:3023   */\n      dup7\n        /* \"#utility.yul\":3012:3035   */\n      sub\n        /* \"#utility.yul\":3008:3040   */\n      slt\n        /* \"#utility.yul\":3005:3124   */\n      iszero\n      tag_161\n      jumpi\n        /* \"#utility.yul\":3043:3122   */\n      tag_162\n      tag_141\n      jump\t// in\n    tag_162:\n        /* \"#utility.yul\":3005:3124   */\n    tag_161:\n        /* \"#utility.yul\":3163:3164   */\n      0x00\n        /* \"#utility.yul\":3188:3241   */\n      tag_163\n        /* \"#utility.yul\":3233:3240   */\n      dup7\n        /* \"#utility.yul\":3224:3230   */\n      dup3\n        /* \"#utility.yul\":3213:3222   */\n      dup8\n        /* \"#utility.yul\":3209:3231   */\n      add\n        /* \"#utility.yul\":3188:3241   */\n      tag_134\n      jump\t// in\n    tag_163:\n        /* \"#utility.yul\":3178:3241   */\n      swap4\n      pop\n        /* \"#utility.yul\":3134:3251   */\n      pop\n        /* \"#utility.yul\":3318:3320   */\n      0x20\n        /* \"#utility.yul\":3307:3316   */\n      dup5\n        /* \"#utility.yul\":3303:3321   */\n      add\n        /* \"#utility.yul\":3290:3322   */\n      calldataload\n        /* \"#utility.yul\":3349:3367   */\n      0xffffffffffffffff\n        /* \"#utility.yul\":3341:3347   */\n      dup2\n        /* \"#utility.yul\":3338:3368   */\n      gt\n        /* \"#utility.yul\":3335:3452   */\n      iszero\n      tag_164\n      jumpi\n        /* \"#utility.yul\":3371:3450   */\n      tag_165\n      tag_153\n      jump\t// in\n    tag_165:\n        /* \"#utility.yul\":3335:3452   */\n    tag_164:\n        /* \"#utility.yul\":3476:3539   */\n      tag_166\n        /* \"#utility.yul\":3531:3538   */\n      dup7\n        /* \"#utility.yul\":3522:3528   */\n      dup3\n        /* \"#utility.yul\":3511:3520   */\n      dup8\n        /* \"#utility.yul\":3507:3529   */\n      add\n        /* \"#utility.yul\":3476:3539   */\n      tag_128\n      jump\t// in\n    tag_166:\n        /* \"#utility.yul\":3466:3539   */\n      swap3\n      pop\n        /* \"#utility.yul\":3261:3549   */\n      pop\n        /* \"#utility.yul\":3588:3590   */\n      0x40\n        /* \"#utility.yul\":3614:3667   */\n      tag_167\n        /* \"#utility.yul\":3659:3666   */\n      dup7\n        /* \"#utility.yul\":3650:3656   */\n      dup3\n        /* \"#utility.yul\":3639:3648   */\n      dup8\n        /* \"#utility.yul\":3635:3657   */\n      add\n        /* \"#utility.yul\":3614:3667   */\n      tag_134\n      jump\t// in\n    tag_167:\n        /* \"#utility.yul\":3604:3667   */\n      swap2\n      pop\n        /* \"#utility.yul\":3559:3677   */\n      pop\n        /* \"#utility.yul\":2885:3684   */\n      swap3\n      pop\n      swap3\n      pop\n      swap3\n      jump\t// out\n        /* \"#utility.yul\":3690:3808   */\n    tag_168:\n        /* \"#utility.yul\":3777:3801   */\n      tag_170\n        /* \"#utility.yul\":3795:3800   */\n      dup2\n        /* \"#utility.yul\":3777:3801   */\n      tag_171\n      jump\t// in\n    tag_170:\n        /* \"#utility.yul\":3772:3775   */\n      dup3\n        /* \"#utility.yul\":3765:3802   */\n      mstore\n        /* \"#utility.yul\":3690:3808   */\n      pop\n      pop\n      jump\t// out\n        /* \"#utility.yul\":3814:4178   */\n    tag_172:\n        /* \"#utility.yul\":3902:3905   */\n      0x00\n        /* \"#utility.yul\":3930:3969   */\n      tag_174\n        /* \"#utility.yul\":3963:3968   */\n      dup3\n        /* \"#utility.yul\":3930:3969   */\n      tag_175\n      jump\t// in\n    tag_174:\n        /* \"#utility.yul\":3985:4056   */\n      tag_176\n        /* \"#utility.yul\":4049:4055   */\n      dup2\n        /* \"#utility.yul\":4044:4047   */\n      dup6\n        /* \"#utility.yul\":3985:4056   */\n      tag_177\n      jump\t// in\n    tag_176:\n        /* \"#utility.yul\":3978:4056   */\n      swap4\n      pop\n        /* \"#utility.yul\":4065:4117   */\n      tag_178\n        /* \"#utility.yul\":4110:4116   */\n      dup2\n        /* \"#utility.yul\":4105:4108   */\n      dup6\n        /* \"#utility.yul\":4098:4102   */\n      0x20\n        /* \"#utility.yul\":4091:4096   */\n      dup7\n        /* \"#utility.yul\":4087:4103   */\n      add\n        /* \"#utility.yul\":4065:4117   */\n      tag_179\n      jump\t// in\n    tag_178:\n        /* \"#utility.yul\":4142:4171   */\n      tag_180\n        /* \"#utility.yul\":4164:4170   */\n      dup2\n        /* \"#utility.yul\":4142:4171   */\n      tag_181\n      jump\t// in\n    tag_180:\n        /* \"#utility.yul\":4137:4140   */\n      dup5\n        /* \"#utility.yul\":4133:4172   */\n      add\n        /* \"#utility.yul\":4126:4172   */\n      swap2\n      pop\n        /* \"#utility.yul\":3906:4178   */\n      pop\n        /* \"#utility.yul\":3814:4178   */\n      swap3\n      swap2\n      pop\n      pop\n      jump\t// out\n        /* \"#utility.yul\":4184:4550   */\n    tag_182:\n        /* \"#utility.yul\":4326:4329   */\n      0x00\n        /* \"#utility.yul\":4347:4414   */\n      tag_184\n        /* \"#utility.yul\":4411:4413   */\n      0x34\n        /* \"#utility.yul\":4406:4409   */\n      dup4\n        /* \"#utility.yul\":4347:4414   */\n      tag_177\n      jump\t// in\n    tag_184:\n        /* \"#utility.yul\":4340:4414   */\n      swap2\n      pop\n        /* \"#utility.yul\":4423:4516   */\n      tag_185\n        /* \"#utility.yul\":4512:4515   */\n      dup3\n        /* \"#utility.yul\":4423:4516   */\n      tag_186\n      jump\t// in\n    tag_185:\n        /* \"#utility.yul\":4541:4543   */\n      0x40\n        /* \"#utility.yul\":4536:4539   */\n      dup3\n        /* \"#utility.yul\":4532:4544   */\n      add\n        /* \"#utility.yul\":4525:4544   */\n      swap1\n      pop\n        /* \"#utility.yul\":4184:4550   */\n      swap2\n      swap1\n      pop\n      jump\t// out\n        /* \"#utility.yul\":4556:4922   */\n    tag_187:\n        /* \"#utility.yul\":4698:4701   */\n      0x00\n        /* \"#utility.yul\":4719:4786   */\n      tag_189\n        /* \"#utility.yul\":4783:4785   */\n      0x25\n        /* \"#utility.yul\":4778:4781   */\n      dup4\n        /* \"#utility.yul\":4719:4786   */\n      tag_177\n      jump\t// in\n    tag_189:\n        /* \"#utility.yul\":4712:4786   */\n      swap2\n      pop\n        /* \"#utility.yul\":4795:4888   */\n      tag_190\n        /* \"#utility.yul\":4884:4887   */\n      dup3\n        /* \"#utility.yul\":4795:4888   */\n      tag_191\n      jump\t// in\n    tag_190:\n        /* \"#utility.yul\":4913:4915   */\n      0x40\n        /* \"#utility.yul\":4908:4911   */\n      dup3\n        /* \"#utility.yul\":4904:4916   */\n      add\n        /* \"#utility.yul\":4897:4916   */\n      swap1\n      pop\n        /* \"#utility.yul\":4556:4922   */\n      swap2\n      swap1\n      pop\n      jump\t// out\n        /* \"#utility.yul\":4928:5294   */\n    tag_192:\n        /* \"#utility.yul\":5070:5073   */\n      0x00\n        /* \"#utility.yul\":5091:5158   */\n      tag_194\n        /* \"#utility.yul\":5155:5157   */\n      0x30\n        /* \"#utility.yul\":5150:5153   */\n      dup4\n        /* \"#utility.yul\":5091:5158   */\n      tag_177\n      jump\t// in\n    tag_194:\n        /* \"#utility.yul\":5084:5158   */\n      swap2\n      pop\n        /* \"#utility.yul\":5167:5260   */\n      tag_195\n        /* \"#utility.yul\":5256:5259   */\n      dup3\n        /* \"#utility.yul\":5167:5260   */\n      tag_196\n      jump\t// in\n    tag_195:\n        /* \"#utility.yul\":5285:5287   */\n      0x40\n        /* \"#utility.yul\":5280:5283   */\n      dup3\n        /* \"#utility.yul\":5276:5288   */\n      add\n        /* \"#utility.yul\":5269:5288   */\n      swap1\n      pop\n        /* \"#utility.yul\":4928:5294   */\n      swap2\n      swap1\n      pop\n      jump\t// out\n        /* \"#utility.yul\":5300:5418   */\n    tag_197:\n        /* \"#utility.yul\":5387:5411   */\n      tag_199\n        /* \"#utility.yul\":5405:5410   */\n      dup2\n        /* \"#utility.yul\":5387:5411   */\n      tag_200\n      jump\t// in\n    tag_199:\n        /* \"#utility.yul\":5382:5385   */\n      dup3\n        /* \"#utility.yul\":5375:5412   */\n      mstore\n        /* \"#utility.yul\":5300:5418   */\n      pop\n      pop\n      jump\t// out\n        /* \"#utility.yul\":5424:5646   */\n    tag_24:\n        /* \"#utility.yul\":5517:5521   */\n      0x00\n        /* \"#utility.yul\":5555:5557   */\n      0x20\n        /* \"#utility.yul\":5544:5553   */\n      dup3\n        /* \"#utility.yul\":5540:5558   */\n      add\n        /* \"#utility.yul\":5532:5558   */\n      swap1\n      pop\n        /* \"#utility.yul\":5568:5639   */\n      tag_202\n        /* \"#utility.yul\":5636:5637   */\n      0x00\n        /* \"#utility.yul\":5625:5634   */\n      dup4\n        /* \"#utility.yul\":5621:5638   */\n      add\n        /* \"#utility.yul\":5612:5618   */\n      dup5\n        /* \"#utility.yul\":5568:5639   */\n      tag_168\n      jump\t// in\n    tag_202:\n        /* \"#utility.yul\":5424:5646   */\n      swap3\n      swap2\n      pop\n      pop\n      jump\t// out\n        /* \"#utility.yul\":5652:5984   */\n    tag_16:\n        /* \"#utility.yul\":5773:5777   */\n      0x00\n        /* \"#utility.yul\":5811:5813   */\n      0x40\n        /* \"#utility.yul\":5800:5809   */\n      dup3\n        /* \"#utility.yul\":5796:5814   */\n      add\n        /* \"#utility.yul\":5788:5814   */\n      swap1\n      pop\n        /* \"#utility.yul\":5824:5895   */\n      tag_204\n        /* \"#utility.yul\":5892:5893   */\n      0x00\n        /* \"#utility.yul\":5881:5890   */\n      dup4\n        /* \"#utility.yul\":5877:5894   */\n      add\n        /* \"#utility.yul\":5868:5874   */\n      dup6\n        /* \"#utility.yul\":5824:5895   */\n      tag_168\n      jump\t// in\n    tag_204:\n        /* \"#utility.yul\":5905:5977   */\n      tag_205\n        /* \"#utility.yul\":5973:5975   */\n      0x20\n        /* \"#utility.yul\":5962:5971   */\n      dup4\n        /* \"#utility.yul\":5958:5976   */\n      add\n        /* \"#utility.yul\":5949:5955   */\n      dup5\n        /* \"#utility.yul\":5905:5977   */\n      tag_197\n      jump\t// in\n    tag_205:\n        /* \"#utility.yul\":5652:5984   */\n      swap4\n      swap3\n      pop\n      pop\n      pop\n      jump\t// out\n        /* \"#utility.yul\":5990:6413   */\n    tag_30:\n        /* \"#utility.yul\":6131:6135   */\n      0x00\n        /* \"#utility.yul\":6169:6171   */\n      0x40\n        /* \"#utility.yul\":6158:6167   */\n      dup3\n        /* \"#utility.yul\":6154:6172   */\n      add\n        /* \"#utility.yul\":6146:6172   */\n      swap1\n      pop\n        /* \"#utility.yul\":6218:6227   */\n      dup2\n        /* \"#utility.yul\":6212:6216   */\n      dup2\n        /* \"#utility.yul\":6208:6228   */\n      sub\n        /* \"#utility.yul\":6204:6205   */\n      0x00\n        /* \"#utility.yul\":6193:6202   */\n      dup4\n        /* \"#utility.yul\":6189:6206   */\n      add\n        /* \"#utility.yul\":6182:6229   */\n      mstore\n        /* \"#utility.yul\":6246:6324   */\n      tag_207\n        /* \"#utility.yul\":6319:6323   */\n      dup2\n        /* \"#utility.yul\":6310:6316   */\n      dup6\n        /* \"#utility.yul\":6246:6324   */\n      tag_172\n      jump\t// in\n    tag_207:\n        /* \"#utility.yul\":6238:6324   */\n      swap1\n      pop\n        /* \"#utility.yul\":6334:6406   */\n      tag_208\n        /* \"#utility.yul\":6402:6404   */\n      0x20\n        /* \"#utility.yul\":6391:6400   */\n      dup4\n        /* \"#utility.yul\":6387:6405   */\n      add\n        /* \"#utility.yul\":6378:6384   */\n      dup5\n        /* \"#utility.yul\":6334:6406   */\n      tag_197\n      jump\t// in\n    tag_208:\n        /* \"#utility.yul\":5990:6413   */\n      swap4\n      swap3\n      pop\n      pop\n      pop\n      jump\t// out\n        /* \"#utility.yul\":6419:6838   */\n    tag_56:\n        /* \"#utility.yul\":6585:6589   */\n      0x00\n        /* \"#utility.yul\":6623:6625   */\n      0x20\n        /* \"#utility.yul\":6612:6621   */\n      dup3\n        /* \"#utility.yul\":6608:6626   */\n      add\n        /* \"#utility.yul\":6600:6626   */\n      swap1\n      pop\n        /* \"#utility.yul\":6672:6681   */\n      dup2\n        /* \"#utility.yul\":6666:6670   */\n      dup2\n        /* \"#utility.yul\":6662:6682   */\n      sub\n        /* \"#utility.yul\":6658:6659   */\n      0x00\n        /* \"#utility.yul\":6647:6656   */\n      dup4\n        /* \"#utility.yul\":6643:6660   */\n      add\n        /* \"#utility.yul\":6636:6683   */\n      mstore\n        /* \"#utility.yul\":6700:6831   */\n      tag_210\n        /* \"#utility.yul\":6826:6830   */\n      dup2\n        /* \"#utility.yul\":6700:6831   */\n      tag_182\n      jump\t// in\n    tag_210:\n        /* \"#utility.yul\":6692:6831   */\n      swap1\n      pop\n        /* \"#utility.yul\":6419:6838   */\n      swap2\n      swap1\n      pop\n      jump\t// out\n        /* \"#utility.yul\":6844:7263   */\n    tag_90:\n        /* \"#utility.yul\":7010:7014   */\n      0x00\n        /* \"#utility.yul\":7048:7050   */\n      0x20\n        /* \"#utility.yul\":7037:7046   */\n      dup3\n        /* \"#utility.yul\":7033:7051   */\n      add\n        /* \"#utility.yul\":7025:7051   */\n      swap1\n      pop\n        /* \"#utility.yul\":7097:7106   */\n      dup2\n        /* \"#utility.yul\":7091:7095   */\n      dup2\n        /* \"#utility.yul\":7087:7107   */\n      sub\n        /* \"#utility.yul\":7083:7084   */\n      0x00\n        /* \"#utility.yul\":7072:7081   */\n      dup4\n        /* \"#utility.yul\":7068:7085   */\n      add\n        /* \"#utility.yul\":7061:7108   */\n      mstore\n        /* \"#utility.yul\":7125:7256   */\n      tag_212\n        /* \"#utility.yul\":7251:7255   */\n      dup2\n        /* \"#utility.yul\":7125:7256   */\n      tag_187\n      jump\t// in\n    tag_212:\n        /* \"#utility.yul\":7117:7256   */\n      swap1\n      pop\n        /* \"#utility.yul\":6844:7263   */\n      swap2\n      swap1\n      pop\n      jump\t// out\n        /* \"#utility.yul\":7269:7688   */\n    tag_74:\n        /* \"#utility.yul\":7435:7439   */\n      0x00\n        /* \"#utility.yul\":7473:7475   */\n      0x20\n        /* \"#utility.yul\":7462:7471   */\n      dup3\n        /* \"#utility.yul\":7458:7476   */\n      add\n        /* \"#utility.yul\":7450:7476   */\n      swap1\n      pop\n        /* \"#utility.yul\":7522:7531   */\n      dup2\n        /* \"#utility.yul\":7516:7520   */\n      dup2\n        /* \"#utility.yul\":7512:7532   */\n      sub\n        /* \"#utility.yul\":7508:7509   */\n      0x00\n        /* \"#utility.yul\":7497:7506   */\n      dup4\n        /* \"#utility.yul\":7493:7510   */\n      add\n        /* \"#utility.yul\":7486:7533   */\n      mstore\n        /* \"#utility.yul\":7550:7681   */\n      tag_214\n        /* \"#utility.yul\":7676:7680   */\n      dup2\n        /* \"#utility.yul\":7550:7681   */\n      tag_192\n      jump\t// in\n    tag_214:\n        /* \"#utility.yul\":7542:7681   */\n      swap1\n      pop\n        /* \"#utility.yul\":7269:7688   */\n      swap2\n      swap1\n      pop\n      jump\t// out\n        /* \"#utility.yul\":7694:7916   */\n    tag_51:\n        /* \"#utility.yul\":7787:7791   */\n      0x00\n        /* \"#utility.yul\":7825:7827   */\n      0x20\n        /* \"#utility.yul\":7814:7823   */\n      dup3\n        /* \"#utility.yul\":7810:7828   */\n      add\n        /* \"#utility.yul\":7802:7828   */\n      swap1\n      pop\n        /* \"#utility.yul\":7838:7909   */\n      tag_216\n        /* \"#utility.yul\":7906:7907   */\n      0x00\n        /* \"#utility.yul\":7895:7904   */\n      dup4\n        /* \"#utility.yul\":7891:7908   */\n      add\n        /* \"#utility.yul\":7882:7888   */\n      dup5\n        /* \"#utility.yul\":7838:7909   */\n      tag_197\n      jump\t// in\n    tag_216:\n        /* \"#utility.yul\":7694:7916   */\n      swap3\n      swap2\n      pop\n      pop\n      jump\t// out\n        /* \"#utility.yul\":7922:8051   */\n    tag_118:\n        /* \"#utility.yul\":7956:7962   */\n      0x00\n        /* \"#utility.yul\":7983:8003   */\n      tag_218\n      tag_219\n      jump\t// in\n    tag_218:\n        /* \"#utility.yul\":7973:8003   */\n      swap1\n      pop\n        /* \"#utility.yul\":8012:8045   */\n      tag_220\n        /* \"#utility.yul\":8040:8044   */\n      dup3\n        /* \"#utility.yul\":8032:8038   */\n      dup3\n        /* \"#utility.yul\":8012:8045   */\n      tag_221\n      jump\t// in\n    tag_220:\n        /* \"#utility.yul\":7922:8051   */\n      swap2\n      swap1\n      pop\n      jump\t// out\n        /* \"#utility.yul\":8057:8132   */\n    tag_219:\n        /* \"#utility.yul\":8090:8096   */\n      0x00\n        /* \"#utility.yul\":8123:8125   */\n      0x40\n        /* \"#utility.yul\":8117:8126   */\n      mload\n        /* \"#utility.yul\":8107:8126   */\n      swap1\n      pop\n        /* \"#utility.yul\":8057:8132   */\n      swap1\n      jump\t// out\n        /* \"#utility.yul\":8138:8446   */\n    tag_117:\n        /* \"#utility.yul\":8200:8204   */\n      0x00\n        /* \"#utility.yul\":8290:8308   */\n      0xffffffffffffffff\n        /* \"#utility.yul\":8282:8288   */\n      dup3\n        /* \"#utility.yul\":8279:8309   */\n      gt\n        /* \"#utility.yul\":8276:8332   */\n      iszero\n      tag_224\n      jumpi\n        /* \"#utility.yul\":8312:8330   */\n      tag_225\n      tag_226\n      jump\t// in\n    tag_225:\n        /* \"#utility.yul\":8276:8332   */\n    tag_224:\n        /* \"#utility.yul\":8350:8379   */\n      tag_227\n        /* \"#utility.yul\":8372:8378   */\n      dup3\n        /* \"#utility.yul\":8350:8379   */\n      tag_181\n      jump\t// in\n    tag_227:\n        /* \"#utility.yul\":8342:8379   */\n      swap1\n      pop\n        /* \"#utility.yul\":8434:8438   */\n      0x20\n        /* \"#utility.yul\":8428:8432   */\n      dup2\n        /* \"#utility.yul\":8424:8439   */\n      add\n        /* \"#utility.yul\":8416:8439   */\n      swap1\n      pop\n        /* \"#utility.yul\":8138:8446   */\n      swap2\n      swap1\n      pop\n      jump\t// out\n        /* \"#utility.yul\":8452:8551   */\n    tag_175:\n        /* \"#utility.yul\":8504:8510   */\n      0x00\n        /* \"#utility.yul\":8538:8543   */\n      dup2\n        /* \"#utility.yul\":8532:8544   */\n      mload\n        /* \"#utility.yul\":8522:8544   */\n      swap1\n      pop\n        /* \"#utility.yul\":8452:8551   */\n      swap2\n      swap1\n      pop\n      jump\t// out\n        /* \"#utility.yul\":8557:8726   */\n    tag_177:\n        /* \"#utility.yul\":8641:8652   */\n      0x00\n        /* \"#utility.yul\":8675:8681   */\n      dup3\n        /* \"#utility.yul\":8670:8673   */\n      dup3\n        /* \"#utility.yul\":8663:8682   */\n      mstore\n        /* \"#utility.yul\":8715:8719   */\n      0x20\n        /* \"#utility.yul\":8710:8713   */\n      dup3\n        /* \"#utility.yul\":8706:8720   */\n      add\n        /* \"#utility.yul\":8691:8720   */\n      swap1\n      pop\n        /* \"#utility.yul\":8557:8726   */\n      swap3\n      swap2\n      pop\n      pop\n      jump\t// out\n        /* \"#utility.yul\":8732:8828   */\n    tag_171:\n        /* \"#utility.yul\":8769:8776   */\n      0x00\n        /* \"#utility.yul\":8798:8822   */\n      tag_231\n        /* \"#utility.yul\":8816:8821   */\n      dup3\n        /* \"#utility.yul\":8798:8822   */\n      tag_232\n      jump\t// in\n    tag_231:\n        /* \"#utility.yul\":8787:8822   */\n      swap1\n      pop\n        /* \"#utility.yul\":8732:8828   */\n      swap2\n      swap1\n      pop\n      jump\t// out\n        /* \"#utility.yul\":8834:8960   */\n    tag_232:\n        /* \"#utility.yul\":8871:8878   */\n      0x00\n        /* \"#utility.yul\":8911:8953   */\n      0xffffffffffffffffffffffffffffffffffffffff\n        /* \"#utility.yul\":8904:8909   */\n      dup3\n        /* \"#utility.yul\":8900:8954   */\n      and\n        /* \"#utility.yul\":8889:8954   */\n      swap1\n      pop\n        /* \"#utility.yul\":8834:8960   */\n      swap2\n      swap1\n      pop\n      jump\t// out\n        /* \"#utility.yul\":8966:9043   */\n    tag_200:\n        /* \"#utility.yul\":9003:9010   */\n      0x00\n        /* \"#utility.yul\":9032:9037   */\n      dup2\n        /* \"#utility.yul\":9021:9037   */\n      swap1\n      pop\n        /* \"#utility.yul\":8966:9043   */\n      swap2\n      swap1\n      pop\n      jump\t// out\n        /* \"#utility.yul\":9049:9203   */\n    tag_123:\n        /* \"#utility.yul\":9133:9139   */\n      dup3\n        /* \"#utility.yul\":9128:9131   */\n      dup2\n        /* \"#utility.yul\":9123:9126   */\n      dup4\n        /* \"#utility.yul\":9110:9140   */\n      calldatacopy\n        /* \"#utility.yul\":9195:9196   */\n      0x00\n        /* \"#utility.yul\":9186:9192   */\n      dup4\n        /* \"#utility.yul\":9181:9184   */\n      dup4\n        /* \"#utility.yul\":9177:9193   */\n      add\n        /* \"#utility.yul\":9170:9197   */\n      mstore\n        /* \"#utility.yul\":9049:9203   */\n      pop\n      pop\n      pop\n      jump\t// out\n        /* \"#utility.yul\":9209:9516   */\n    tag_179:\n        /* \"#utility.yul\":9277:9278   */\n      0x00\n        /* \"#utility.yul\":9287:9400   */\n    tag_237:\n        /* \"#utility.yul\":9301:9307   */\n      dup4\n        /* \"#utility.yul\":9298:9299   */\n      dup2\n        /* \"#utility.yul\":9295:9308   */\n      lt\n        /* \"#utility.yul\":9287:9400   */\n      iszero\n      tag_239\n      jumpi\n        /* \"#utility.yul\":9386:9387   */\n      dup1\n        /* \"#utility.yul\":9381:9384   */\n      dup3\n        /* \"#utility.yul\":9377:9388   */\n      add\n        /* \"#utility.yul\":9371:9389   */\n      mload\n        /* \"#utility.yul\":9367:9368   */\n      dup2\n        /* \"#utility.yul\":9362:9365   */\n      dup5\n        /* \"#utility.yul\":9358:9369   */\n      add\n        /* \"#utility.yul\":9351:9390   */\n      mstore\n        /* \"#utility.yul\":9323:9325   */\n      0x20\n        /* \"#utility.yul\":9320:9321   */\n      dup2\n        /* \"#utility.yul\":9316:9326   */\n      add\n        /* \"#utility.yul\":9311:9326   */\n      swap1\n      pop\n        /* \"#utility.yul\":9287:9400   */\n      jump(tag_237)\n    tag_239:\n        /* \"#utility.yul\":9418:9424   */\n      dup4\n        /* \"#utility.yul\":9415:9416   */\n      dup2\n        /* \"#utility.yul\":9412:9425   */\n      gt\n        /* \"#utility.yul\":9409:9510   */\n      iszero\n      tag_240\n      jumpi\n        /* \"#utility.yul\":9498:9499   */\n      0x00\n        /* \"#utility.yul\":9489:9495   */\n      dup5\n        /* \"#utility.yul\":9484:9487   */\n      dup5\n        /* \"#utility.yul\":9480:9496   */\n      add\n        /* \"#utility.yul\":9473:9500   */\n      mstore\n        /* \"#utility.yul\":9409:9510   */\n    tag_240:\n        /* \"#utility.yul\":9258:9516   */\n      pop\n        /* \"#utility.yul\":9209:9516   */\n      pop\n      pop\n      pop\n      jump\t// out\n        /* \"#utility.yul\":9522:9842   */\n    tag_66:\n        /* \"#utility.yul\":9566:9572   */\n      0x00\n        /* \"#utility.yul\":9603:9604   */\n      0x02\n        /* \"#utility.yul\":9597:9601   */\n      dup3\n        /* \"#utility.yul\":9593:9605   */\n      div\n        /* \"#utility.yul\":9583:9605   */\n      swap1\n      pop\n        /* \"#utility.yul\":9650:9651   */\n      0x01\n        /* \"#utility.yul\":9644:9648   */\n      dup3\n        /* \"#utility.yul\":9640:9652   */\n      and\n        /* \"#utility.yul\":9671:9689   */\n      dup1\n        /* \"#utility.yul\":9661:9742   */\n      tag_242\n      jumpi\n        /* \"#utility.yul\":9727:9731   */\n      0x7f\n        /* \"#utility.yul\":9719:9725   */\n      dup3\n        /* \"#utility.yul\":9715:9732   */\n      and\n        /* \"#utility.yul\":9705:9732   */\n      swap2\n      pop\n        /* \"#utility.yul\":9661:9742   */\n    tag_242:\n        /* \"#utility.yul\":9789:9791   */\n      0x20\n        /* \"#utility.yul\":9781:9787   */\n      dup3\n        /* \"#utility.yul\":9778:9792   */\n      lt\n        /* \"#utility.yul\":9758:9776   */\n      dup2\n        /* \"#utility.yul\":9755:9793   */\n      eq\n        /* \"#utility.yul\":9752:9836   */\n      iszero\n      tag_243\n      jumpi\n        /* \"#utility.yul\":9808:9826   */\n      tag_244\n      tag_245\n      jump\t// in\n    tag_244:\n        /* \"#utility.yul\":9752:9836   */\n    tag_243:\n        /* \"#utility.yul\":9573:9842   */\n      pop\n        /* \"#utility.yul\":9522:9842   */\n      swap2\n      swap1\n      pop\n      jump\t// out\n        /* \"#utility.yul\":9848:10129   */\n    tag_221:\n        /* \"#utility.yul\":9931:9958   */\n      tag_247\n        /* \"#utility.yul\":9953:9957   */\n      dup3\n        /* \"#utility.yul\":9931:9958   */\n      tag_181\n      jump\t// in\n    tag_247:\n        /* \"#utility.yul\":9923:9929   */\n      dup2\n        /* \"#utility.yul\":9919:9959   */\n      add\n        /* \"#utility.yul\":10061:10067   */\n      dup2\n        /* \"#utility.yul\":10049:10059   */\n      dup2\n        /* \"#utility.yul\":10046:10068   */\n      lt\n        /* \"#utility.yul\":10025:10043   */\n      0xffffffffffffffff\n        /* \"#utility.yul\":10013:10023   */\n      dup3\n        /* \"#utility.yul\":10010:10044   */\n      gt\n        /* \"#utility.yul\":10007:10069   */\n      or\n        /* \"#utility.yul\":10004:10092   */\n      iszero\n      tag_248\n      jumpi\n        /* \"#utility.yul\":10072:10090   */\n      tag_249\n      tag_226\n      jump\t// in\n    tag_249:\n        /* \"#utility.yul\":10004:10092   */\n    tag_248:\n        /* \"#utility.yul\":10112:10122   */\n      dup1\n        /* \"#utility.yul\":10108:10110   */\n      0x40\n        /* \"#utility.yul\":10101:10123   */\n      mstore\n        /* \"#utility.yul\":9891:10129   */\n      pop\n        /* \"#utility.yul\":9848:10129   */\n      pop\n      pop\n      jump\t// out\n        /* \"#utility.yul\":10135:10315   */\n    tag_245:\n        /* \"#utility.yul\":10183:10260   */\n      0x4e487b7100000000000000000000000000000000000000000000000000000000\n        /* \"#utility.yul\":10180:10181   */\n      0x00\n        /* \"#utility.yul\":10173:10261   */\n      mstore\n        /* \"#utility.yul\":10280:10284   */\n      0x22\n        /* \"#utility.yul\":10277:10278   */\n      0x04\n        /* \"#utility.yul\":10270:10285   */\n      mstore\n        /* \"#utility.yul\":10304:10308   */\n      0x24\n        /* \"#utility.yul\":10301:10302   */\n      0x00\n        /* \"#utility.yul\":10294:10309   */\n      revert\n        /* \"#utility.yul\":10321:10501   */\n    tag_59:\n        /* \"#utility.yul\":10369:10446   */\n      0x4e487b7100000000000000000000000000000000000000000000000000000000\n        /* \"#utility.yul\":10366:10367   */\n      0x00\n        /* \"#utility.yul\":10359:10447   */\n      mstore\n        /* \"#utility.yul\":10466:10470   */\n      0x32\n        /* \"#utility.yul\":10463:10464   */\n      0x04\n        /* \"#utility.yul\":10456:10471   */\n      mstore\n        /* \"#utility.yul\":10490:10494   */\n      0x24\n        /* \"#utility.yul\":10487:10488   */\n      0x00\n        /* \"#utility.yul\":10480:10495   */\n      revert\n        /* \"#utility.yul\":10507:10687   */\n    tag_226:\n        /* \"#utility.yul\":10555:10632   */\n      0x4e487b7100000000000000000000000000000000000000000000000000000000\n        /* \"#utility.yul\":10552:10553   */\n      0x00\n        /* \"#utility.yul\":10545:10633   */\n      mstore\n        /* \"#utility.yul\":10652:10656   */\n      0x41\n        /* \"#utility.yul\":10649:10650   */\n      0x04\n        /* \"#utility.yul\":10642:10657   */\n      mstore\n        /* \"#utility.yul\":10676:10680   */\n      0x24\n        /* \"#utility.yul\":10673:10674   */\n      0x00\n        /* \"#utility.yul\":10666:10681   */\n      revert\n        /* \"#utility.yul\":10693:10810   */\n    tag_132:\n        /* \"#utility.yul\":10802:10803   */\n      0x00\n        /* \"#utility.yul\":10799:10800   */\n      dup1\n        /* \"#utility.yul\":10792:10804   */\n      revert\n        /* \"#utility.yul\":10816:10933   */\n    tag_121:\n        /* \"#utility.yul\":10925:10926   */\n      0x00\n        /* \"#utility.yul\":10922:10923   */\n      dup1\n        /* \"#utility.yul\":10915:10927   */\n      revert\n        /* \"#utility.yul\":10939:11056   */\n    tag_153:\n        /* \"#utility.yul\":11048:11049   */\n      0x00\n        /* \"#utility.yul\":11045:11046   */\n      dup1\n        /* \"#utility.yul\":11038:11050   */\n      revert\n        /* \"#utility.yul\":11062:11179   */\n    tag_141:\n        /* \"#utility.yul\":11171:11172   */\n      0x00\n        /* \"#utility.yul\":11168:11169   */\n      dup1\n        /* \"#utility.yul\":11161:11173   */\n      revert\n        /* \"#utility.yul\":11185:11287   */\n    tag_181:\n        /* \"#utility.yul\":11226:11232   */\n      0x00\n        /* \"#utility.yul\":11277:11279   */\n      0x1f\n        /* \"#utility.yul\":11273:11280   */\n      not\n        /* \"#utility.yul\":11268:11270   */\n      0x1f\n        /* \"#utility.yul\":11261:11266   */\n      dup4\n        /* \"#utility.yul\":11257:11271   */\n      add\n        /* \"#utility.yul\":11253:11281   */\n      and\n        /* \"#utility.yul\":11243:11281   */\n      swap1\n      pop\n        /* \"#utility.yul\":11185:11287   */\n      swap2\n      swap1\n      pop\n      jump\t// out\n        /* \"#utility.yul\":11293:11532   */\n    tag_186:\n        /* \"#utility.yul\":11433:11467   */\n      0x536f6c6f20656c2041646d696e6973747261646f722064656c2047796d207075\n        /* \"#utility.yul\":11429:11430   */\n      0x00\n        /* \"#utility.yul\":11421:11427   */\n      dup3\n        /* \"#utility.yul\":11417:11431   */\n      add\n        /* \"#utility.yul\":11410:11468   */\n      mstore\n        /* \"#utility.yul\":11502:11524   */\n      0x656465206d6f6469666963617220636c61736573000000000000000000000000\n        /* \"#utility.yul\":11497:11499   */\n      0x20\n        /* \"#utility.yul\":11489:11495   */\n      dup3\n        /* \"#utility.yul\":11485:11500   */\n      add\n        /* \"#utility.yul\":11478:11525   */\n      mstore\n        /* \"#utility.yul\":11293:11532   */\n      pop\n      jump\t// out\n        /* \"#utility.yul\":11538:11762   */\n    tag_191:\n        /* \"#utility.yul\":11678:11712   */\n      0x596120746520656e6375656e74726173207265676973747261646f20656e2065\n        /* \"#utility.yul\":11674:11675   */\n      0x00\n        /* \"#utility.yul\":11666:11672   */\n      dup3\n        /* \"#utility.yul\":11662:11676   */\n      add\n        /* \"#utility.yul\":11655:11713   */\n      mstore\n        /* \"#utility.yul\":11747:11754   */\n      0x6c2067796d000000000000000000000000000000000000000000000000000000\n        /* \"#utility.yul\":11742:11744   */\n      0x20\n        /* \"#utility.yul\":11734:11740   */\n      dup3\n        /* \"#utility.yul\":11730:11745   */\n      add\n        /* \"#utility.yul\":11723:11755   */\n      mstore\n        /* \"#utility.yul\":11538:11762   */\n      pop\n      jump\t// out\n        /* \"#utility.yul\":11768:12003   */\n    tag_196:\n        /* \"#utility.yul\":11908:11942   */\n      0x536f6c6f20656c2041646d696e6973747261646f722064656c2047796d207075\n        /* \"#utility.yul\":11904:11905   */\n      0x00\n        /* \"#utility.yul\":11896:11902   */\n      dup3\n        /* \"#utility.yul\":11892:11906   */\n      add\n        /* \"#utility.yul\":11885:11943   */\n      mstore\n        /* \"#utility.yul\":11977:11995   */\n      0x65646520637265617220636c6173657300000000000000000000000000000000\n        /* \"#utility.yul\":11972:11974   */\n      0x20\n        /* \"#utility.yul\":11964:11970   */\n      dup3\n        /* \"#utility.yul\":11960:11975   */\n      add\n        /* \"#utility.yul\":11953:11996   */\n      mstore\n        /* \"#utility.yul\":11768:12003   */\n      pop\n      jump\t// out\n        /* \"#utility.yul\":12009:12131   */\n    tag_127:\n        /* \"#utility.yul\":12082:12106   */\n      tag_262\n        /* \"#utility.yul\":12100:12105   */\n      dup2\n        /* \"#utility.yul\":12082:12106   */\n      tag_171\n      jump\t// in\n    tag_262:\n        /* \"#utility.yul\":12075:12080   */\n      dup2\n        /* \"#utility.yul\":12072:12107   */\n      eq\n        /* \"#utility.yul\":12062:12125   */\n      tag_263\n      jumpi\n        /* \"#utility.yul\":12121:12122   */\n      0x00\n        /* \"#utility.yul\":12118:12119   */\n      dup1\n        /* \"#utility.yul\":12111:12123   */\n      revert\n        /* \"#utility.yul\":12062:12125   */\n    tag_263:\n        /* \"#utility.yul\":12009:12131   */\n      pop\n      jump\t// out\n        /* \"#utility.yul\":12137:12259   */\n    tag_137:\n        /* \"#utility.yul\":12210:12234   */\n      tag_265\n        /* \"#utility.yul\":12228:12233   */\n      dup2\n        /* \"#utility.yul\":12210:12234   */\n      tag_200\n      jump\t// in\n    tag_265:\n        /* \"#utility.yul\":12203:12208   */\n      dup2\n        /* \"#utility.yul\":12200:12235   */\n      eq\n        /* \"#utility.yul\":12190:12253   */\n      tag_266\n      jumpi\n        /* \"#utility.yul\":12249:12250   */\n      0x00\n        /* \"#utility.yul\":12246:12247   */\n      dup1\n        /* \"#utility.yul\":12239:12251   */\n      revert\n        /* \"#utility.yul\":12190:12253   */\n    tag_266:\n        /* \"#utility.yul\":12137:12259   */\n      pop\n      jump\t// out\n\n    auxdata: 0xa2646970667358221220aa6a67a0ece18b77b887c25614ed770c8fee3fb08d461532764d2cc8b568da4a64736f6c63430008070033\n}\n",
				"bytecode": {
					"linkReferences": {},
					"object": "60a060405234801561001057600080fd5b503373ffffffffffffffffffffffffffffffffffffffff1660808173ffffffffffffffffffffffffffffffffffffffff1660601b8152505060805160601c610f196100746000396000818161023b0152818161030001526103f70152610f196000f3fe608060405234801561001057600080fd5b50600436106100935760003560e01c80634852a212116100665780634852a21214610122578063512d62df1461013e5780636d705ebb1461016f57806372c30f451461018b578063a87430ba146101a757610093565b806312065fe0146100985780631e8be099146100b75780632a0acc6a146100d35780633613a9f4146100f1575b600080fd5b6100a06101d7565b6040516100ae929190610aef565b60405180910390f35b6100d160048036038101906100cc91906109a5565b610222565b005b6100db6102fe565b6040516100e89190610ad4565b60405180910390f35b61010b60048036038101906101069190610978565b610322565b604051610119929190610b18565b60405180910390f35b61013c6004803603810190610137919061091c565b6103de565b005b61015860048036038101906101539190610978565b610512565b604051610166929190610b18565b60405180910390f35b610189600480360381019061018491906108dc565b6105da565b005b6101a560048036038101906101a09190610978565b6106da565b005b6101c160048036038101906101bc91906108af565b61071a565b6040516101ce9190610ba8565b60405180910390f35b600080336000803373ffffffffffffffffffffffffffffffffffffffff1673ffffffffffffffffffffffffffffffffffffffff16815260200190815260200160002054915091509091565b3373ffffffffffffffffffffffffffffffffffffffff167f000000000000000000000000000000000000000000000000000000000000000073ffffffffffffffffffffffffffffffffffffffff16146102b0576040517f08c379a00000000000000000000000000000000000000000000000000000000081526004016102a790610b48565b60405180910390fd5b6000600184815481106102c6576102c5610d45565b5b90600052602060002090600202019050828160000190805190602001906102ee929190610732565b5081816001018190555050505050565b7f000000000000000000000000000000000000000000000000000000000000000081565b6001818154811061033257600080fd5b906000526020600020906002020160009150905080600001805461035590610cb3565b80601f016020809104026020016040519081016040528092919081815260200182805461038190610cb3565b80156103ce5780601f106103a3576101008083540402835291602001916103ce565b820191906000526020600020905b8154815290600101906020018083116103b157829003601f168201915b5050505050908060010154905082565b3373ffffffffffffffffffffffffffffffffffffffff167f000000000000000000000000000000000000000000000000000000000000000073ffffffffffffffffffffffffffffffffffffffff161461046c576040517f08c379a000000000000000000000000000000000000000000000000000000000815260040161046390610b88565b60405180910390fd5b6001604051806040016040528084815260200183815250908060018154018082558091505060019003906000526020600020906002020160009091909190915060008201518160000190805190602001906104c8929190610732565b506020820151816001015550507f14d49e3ea4f348b7f368906dfe1a63055c7822d622a61672a35a55ae97a768f98282604051610506929190610b18565b60405180910390a15050565b60606000806001848154811061052b5761052a610d45565b5b9060005260206000209060020201905080600001816001015481805461055090610cb3565b80601f016020809104026020016040519081016040528092919081815260200182805461057c90610cb3565b80156105c95780601f1061059e576101008083540402835291602001916105c9565b820191906000526020600020905b8154815290600101906020018083116105ac57829003601f168201915b505050505091509250925050915091565b60008060003373ffffffffffffffffffffffffffffffffffffffff1673ffffffffffffffffffffffffffffffffffffffff168152602001908152602001600020541461065b576040517f08c379a000000000000000000000000000000000000000000000000000000000815260040161065290610b68565b60405180910390fd5b806000803373ffffffffffffffffffffffffffffffffffffffff1673ffffffffffffffffffffffffffffffffffffffff168152602001908152602001600020819055507e7dc6ab80cc84c043b7b8d4fcafc802187470087f7ea7fccd2e17aecd0256a182826040516106ce929190610aef565b60405180910390a15050565b600181815481106106ee576106ed610d45565b5b90600052602060002090600202016000808201600061070d91906107b8565b6001820160009055505050565b60006020528060005260406000206000915090505481565b82805461073e90610cb3565b90600052602060002090601f01602090048101928261076057600085556107a7565b82601f1061077957805160ff19168380011785556107a7565b828001600101855582156107a7579182015b828111156107a657825182559160200191906001019061078b565b5b5090506107b491906107f8565b5090565b5080546107c490610cb3565b6000825580601f106107d657506107f5565b601f0160209004906000526020600020908101906107f491906107f8565b5b50565b5b808211156108115760008160009055506001016107f9565b5090565b600061082861082384610be8565b610bc3565b90508281526020810184848401111561084457610843610da8565b5b61084f848285610c71565b509392505050565b60008135905061086681610eb5565b92915050565b600082601f83011261088157610880610da3565b5b8135610891848260208601610815565b91505092915050565b6000813590506108a981610ecc565b92915050565b6000602082840312156108c5576108c4610db2565b5b60006108d384828501610857565b91505092915050565b600080604083850312156108f3576108f2610db2565b5b600061090185828601610857565b92505060206109128582860161089a565b9150509250929050565b6000806040838503121561093357610932610db2565b5b600083013567ffffffffffffffff81111561095157610950610dad565b5b61095d8582860161086c565b925050602061096e8582860161089a565b9150509250929050565b60006020828403121561098e5761098d610db2565b5b600061099c8482850161089a565b91505092915050565b6000806000606084860312156109be576109bd610db2565b5b60006109cc8682870161089a565b935050602084013567ffffffffffffffff8111156109ed576109ec610dad565b5b6109f98682870161086c565b9250506040610a0a8682870161089a565b9150509250925092565b610a1d81610c35565b82525050565b6000610a2e82610c19565b610a388185610c24565b9350610a48818560208601610c80565b610a5181610db7565b840191505092915050565b6000610a69603483610c24565b9150610a7482610dc8565b604082019050919050565b6000610a8c602583610c24565b9150610a9782610e17565b604082019050919050565b6000610aaf603083610c24565b9150610aba82610e66565b604082019050919050565b610ace81610c67565b82525050565b6000602082019050610ae96000830184610a14565b92915050565b6000604082019050610b046000830185610a14565b610b116020830184610ac5565b9392505050565b60006040820190508181036000830152610b328185610a23565b9050610b416020830184610ac5565b9392505050565b60006020820190508181036000830152610b6181610a5c565b9050919050565b60006020820190508181036000830152610b8181610a7f565b9050919050565b60006020820190508181036000830152610ba181610aa2565b9050919050565b6000602082019050610bbd6000830184610ac5565b92915050565b6000610bcd610bde565b9050610bd98282610ce5565b919050565b6000604051905090565b600067ffffffffffffffff821115610c0357610c02610d74565b5b610c0c82610db7565b9050602081019050919050565b600081519050919050565b600082825260208201905092915050565b6000610c4082610c47565b9050919050565b600073ffffffffffffffffffffffffffffffffffffffff82169050919050565b6000819050919050565b82818337600083830152505050565b60005b83811015610c9e578082015181840152602081019050610c83565b83811115610cad576000848401525b50505050565b60006002820490506001821680610ccb57607f821691505b60208210811415610cdf57610cde610d16565b5b50919050565b610cee82610db7565b810181811067ffffffffffffffff82111715610d0d57610d0c610d74565b5b80604052505050565b7f4e487b7100000000000000000000000000000000000000000000000000000000600052602260045260246000fd5b7f4e487b7100000000000000000000000000000000000000000000000000000000600052603260045260246000fd5b7f4e487b7100000000000000000000000000000000000000000000000000000000600052604160045260246000fd5b600080fd5b600080fd5b600080fd5b600080fd5b6000601f19601f8301169050919050565b7f536f6c6f20656c2041646d696e6973747261646f722064656c2047796d20707560008201527f656465206d6f6469666963617220636c61736573000000000000000000000000602082015250565b7f596120746520656e6375656e74726173207265676973747261646f20656e206560008201527f6c2067796d000000000000000000000000000000000000000000000000000000602082015250565b7f536f6c6f20656c2041646d696e6973747261646f722064656c2047796d20707560008201527f65646520637265617220636c6173657300000000000000000000000000000000602082015250565b610ebe81610c35565b8114610ec957600080fd5b50565b610ed581610c67565b8114610ee057600080fd5b5056fea2646970667358221220aa6a67a0ece18b77b887c25614ed770c8fee3fb08d461532764d2cc8b568da4a64736f6c63430008070033",
					"opcodes": "PUSH1 0xA0 PUSH1 0x40 MSTORE CALLVALUE DUP1 ISZERO PUSH2 0x10 JUMPI PUSH1 0x0 DUP1 REVERT JUMPDEST POP CALLER PUSH20 0xFFFFFFFFFFFFFFFFFFFFFFFFFFFFFFFFFFFFFFFF AND PUSH1 0x80 DUP2 PUSH20 0xFFFFFFFFFFFFFFFFFFFFFFFFFFFFFFFFFFFFFFFF AND PUSH1 0x60 SHL DUP2 MSTORE POP POP PUSH1 0x80 MLOAD PUSH1 0x60 SHR PUSH2 0xF19 PUSH2 0x74 PUSH1 0x0 CODECOPY PUSH1 0x0 DUP2 DUP2 PUSH2 0x23B ADD MSTORE DUP2 DUP2 PUSH2 0x300 ADD MSTORE PUSH2 0x3F7 ADD MSTORE PUSH2 0xF19 PUSH1 0x0 RETURN INVALID PUSH1 0x80 PUSH1 0x40 MSTORE CALLVALUE DUP1 ISZERO PUSH2 0x10 JUMPI PUSH1 0x0 DUP1 REVERT JUMPDEST POP PUSH1 0x4 CALLDATASIZE LT PUSH2 0x93 JUMPI PUSH1 0x0 CALLDATALOAD PUSH1 0xE0 SHR DUP1 PUSH4 0x4852A212 GT PUSH2 0x66 JUMPI DUP1 PUSH4 0x4852A212 EQ PUSH2 0x122 JUMPI DUP1 PUSH4 0x512D62DF EQ PUSH2 0x13E JUMPI DUP1 PUSH4 0x6D705EBB EQ PUSH2 0x16F JUMPI DUP1 PUSH4 0x72C30F45 EQ PUSH2 0x18B JUMPI DUP1 PUSH4 0xA87430BA EQ PUSH2 0x1A7 JUMPI PUSH2 0x93 JUMP JUMPDEST DUP1 PUSH4 0x12065FE0 EQ PUSH2 0x98 JUMPI DUP1 PUSH4 0x1E8BE099 EQ PUSH2 0xB7 JUMPI DUP1 PUSH4 0x2A0ACC6A EQ PUSH2 0xD3 JUMPI DUP1 PUSH4 0x3613A9F4 EQ PUSH2 0xF1 JUMPI JUMPDEST PUSH1 0x0 DUP1 REVERT JUMPDEST PUSH2 0xA0 PUSH2 0x1D7 JUMP JUMPDEST PUSH1 0x40 MLOAD PUSH2 0xAE SWAP3 SWAP2 SWAP1 PUSH2 0xAEF JUMP JUMPDEST PUSH1 0x40 MLOAD DUP1 SWAP2 SUB SWAP1 RETURN JUMPDEST PUSH2 0xD1 PUSH1 0x4 DUP1 CALLDATASIZE SUB DUP2 ADD SWAP1 PUSH2 0xCC SWAP2 SWAP1 PUSH2 0x9A5 JUMP JUMPDEST PUSH2 0x222 JUMP JUMPDEST STOP JUMPDEST PUSH2 0xDB PUSH2 0x2FE JUMP JUMPDEST PUSH1 0x40 MLOAD PUSH2 0xE8 SWAP2 SWAP1 PUSH2 0xAD4 JUMP JUMPDEST PUSH1 0x40 MLOAD DUP1 SWAP2 SUB SWAP1 RETURN JUMPDEST PUSH2 0x10B PUSH1 0x4 DUP1 CALLDATASIZE SUB DUP2 ADD SWAP1 PUSH2 0x106 SWAP2 SWAP1 PUSH2 0x978 JUMP JUMPDEST PUSH2 0x322 JUMP JUMPDEST PUSH1 0x40 MLOAD PUSH2 0x119 SWAP3 SWAP2 SWAP1 PUSH2 0xB18 JUMP JUMPDEST PUSH1 0x40 MLOAD DUP1 SWAP2 SUB SWAP1 RETURN JUMPDEST PUSH2 0x13C PUSH1 0x4 DUP1 CALLDATASIZE SUB DUP2 ADD SWAP1 PUSH2 0x137 SWAP2 SWAP1 PUSH2 0x91C JUMP JUMPDEST PUSH2 0x3DE JUMP JUMPDEST STOP JUMPDEST PUSH2 0x158 PUSH1 0x4 DUP1 CALLDATASIZE SUB DUP2 ADD SWAP1 PUSH2 0x153 SWAP2 SWAP1 PUSH2 0x978 JUMP JUMPDEST PUSH2 0x512 JUMP JUMPDEST PUSH1 0x40 MLOAD PUSH2 0x166 SWAP3 SWAP2 SWAP1 PUSH2 0xB18 JUMP JUMPDEST PUSH1 0x40 MLOAD DUP1 SWAP2 SUB SWAP1 RETURN JUMPDEST PUSH2 0x189 PUSH1 0x4 DUP1 CALLDATASIZE SUB DUP2 ADD SWAP1 PUSH2 0x184 SWAP2 SWAP1 PUSH2 0x8DC JUMP JUMPDEST PUSH2 0x5DA JUMP JUMPDEST STOP JUMPDEST PUSH2 0x1A5 PUSH1 0x4 DUP1 CALLDATASIZE SUB DUP2 ADD SWAP1 PUSH2 0x1A0 SWAP2 SWAP1 PUSH2 0x978 JUMP JUMPDEST PUSH2 0x6DA JUMP JUMPDEST STOP JUMPDEST PUSH2 0x1C1 PUSH1 0x4 DUP1 CALLDATASIZE SUB DUP2 ADD SWAP1 PUSH2 0x1BC SWAP2 SWAP1 PUSH2 0x8AF JUMP JUMPDEST PUSH2 0x71A JUMP JUMPDEST PUSH1 0x40 MLOAD PUSH2 0x1CE SWAP2 SWAP1 PUSH2 0xBA8 JUMP JUMPDEST PUSH1 0x40 MLOAD DUP1 SWAP2 SUB SWAP1 RETURN JUMPDEST PUSH1 0x0 DUP1 CALLER PUSH1 0x0 DUP1 CALLER PUSH20 0xFFFFFFFFFFFFFFFFFFFFFFFFFFFFFFFFFFFFFFFF AND PUSH20 0xFFFFFFFFFFFFFFFFFFFFFFFFFFFFFFFFFFFFFFFF AND DUP2 MSTORE PUSH1 0x20 ADD SWAP1 DUP2 MSTORE PUSH1 0x20 ADD PUSH1 0x0 KECCAK256 SLOAD SWAP2 POP SWAP2 POP SWAP1 SWAP2 JUMP JUMPDEST CALLER PUSH20 0xFFFFFFFFFFFFFFFFFFFFFFFFFFFFFFFFFFFFFFFF AND PUSH32 0x0 PUSH20 0xFFFFFFFFFFFFFFFFFFFFFFFFFFFFFFFFFFFFFFFF AND EQ PUSH2 0x2B0 JUMPI PUSH1 0x40 MLOAD PUSH32 0x8C379A000000000000000000000000000000000000000000000000000000000 DUP2 MSTORE PUSH1 0x4 ADD PUSH2 0x2A7 SWAP1 PUSH2 0xB48 JUMP JUMPDEST PUSH1 0x40 MLOAD DUP1 SWAP2 SUB SWAP1 REVERT JUMPDEST PUSH1 0x0 PUSH1 0x1 DUP5 DUP2 SLOAD DUP2 LT PUSH2 0x2C6 JUMPI PUSH2 0x2C5 PUSH2 0xD45 JUMP JUMPDEST JUMPDEST SWAP1 PUSH1 0x0 MSTORE PUSH1 0x20 PUSH1 0x0 KECCAK256 SWAP1 PUSH1 0x2 MUL ADD SWAP1 POP DUP3 DUP2 PUSH1 0x0 ADD SWAP1 DUP1 MLOAD SWAP1 PUSH1 0x20 ADD SWAP1 PUSH2 0x2EE SWAP3 SWAP2 SWAP1 PUSH2 0x732 JUMP JUMPDEST POP DUP2 DUP2 PUSH1 0x1 ADD DUP2 SWAP1 SSTORE POP POP POP POP POP JUMP JUMPDEST PUSH32 0x0 DUP2 JUMP JUMPDEST PUSH1 0x1 DUP2 DUP2 SLOAD DUP2 LT PUSH2 0x332 JUMPI PUSH1 0x0 DUP1 REVERT JUMPDEST SWAP1 PUSH1 0x0 MSTORE PUSH1 0x20 PUSH1 0x0 KECCAK256 SWAP1 PUSH1 0x2 MUL ADD PUSH1 0x0 SWAP2 POP SWAP1 POP DUP1 PUSH1 0x0 ADD DUP1 SLOAD PUSH2 0x355 SWAP1 PUSH2 0xCB3 JUMP JUMPDEST DUP1 PUSH1 0x1F ADD PUSH1 0x20 DUP1 SWAP2 DIV MUL PUSH1 0x20 ADD PUSH1 0x40 MLOAD SWAP1 DUP2 ADD PUSH1 0x40 MSTORE DUP1 SWAP3 SWAP2 SWAP1 DUP2 DUP2 MSTORE PUSH1 0x20 ADD DUP3 DUP1 SLOAD PUSH2 0x381 SWAP1 PUSH2 0xCB3 JUMP JUMPDEST DUP1 ISZERO PUSH2 0x3CE JUMPI DUP1 PUSH1 0x1F LT PUSH2 0x3A3 JUMPI PUSH2 0x100 DUP1 DUP4 SLOAD DIV MUL DUP4 MSTORE SWAP2 PUSH1 0x20 ADD SWAP2 PUSH2 0x3CE JUMP JUMPDEST DUP3 ADD SWAP2 SWAP1 PUSH1 0x0 MSTORE PUSH1 0x20 PUSH1 0x0 KECCAK256 SWAP1 JUMPDEST DUP2 SLOAD DUP2 MSTORE SWAP1 PUSH1 0x1 ADD SWAP1 PUSH1 0x20 ADD DUP1 DUP4 GT PUSH2 0x3B1 JUMPI DUP3 SWAP1 SUB PUSH1 0x1F AND DUP3 ADD SWAP2 JUMPDEST POP POP POP POP POP SWAP1 DUP1 PUSH1 0x1 ADD SLOAD SWAP1 POP DUP3 JUMP JUMPDEST CALLER PUSH20 0xFFFFFFFFFFFFFFFFFFFFFFFFFFFFFFFFFFFFFFFF AND PUSH32 0x0 PUSH20 0xFFFFFFFFFFFFFFFFFFFFFFFFFFFFFFFFFFFFFFFF AND EQ PUSH2 0x46C JUMPI PUSH1 0x40 MLOAD PUSH32 0x8C379A000000000000000000000000000000000000000000000000000000000 DUP2 MSTORE PUSH1 0x4 ADD PUSH2 0x463 SWAP1 PUSH2 0xB88 JUMP JUMPDEST PUSH1 0x40 MLOAD DUP1 SWAP2 SUB SWAP1 REVERT JUMPDEST PUSH1 0x1 PUSH1 0x40 MLOAD DUP1 PUSH1 0x40 ADD PUSH1 0x40 MSTORE DUP1 DUP5 DUP2 MSTORE PUSH1 0x20 ADD DUP4 DUP2 MSTORE POP SWAP1 DUP1 PUSH1 0x1 DUP2 SLOAD ADD DUP1 DUP3 SSTORE DUP1 SWAP2 POP POP PUSH1 0x1 SWAP1 SUB SWAP1 PUSH1 0x0 MSTORE PUSH1 0x20 PUSH1 0x0 KECCAK256 SWAP1 PUSH1 0x2 MUL ADD PUSH1 0x0 SWAP1 SWAP2 SWAP1 SWAP2 SWAP1 SWAP2 POP PUSH1 0x0 DUP3 ADD MLOAD DUP2 PUSH1 0x0 ADD SWAP1 DUP1 MLOAD SWAP1 PUSH1 0x20 ADD SWAP1 PUSH2 0x4C8 SWAP3 SWAP2 SWAP1 PUSH2 0x732 JUMP JUMPDEST POP PUSH1 0x20 DUP3 ADD MLOAD DUP2 PUSH1 0x1 ADD SSTORE POP POP PUSH32 0x14D49E3EA4F348B7F368906DFE1A63055C7822D622A61672A35A55AE97A768F9 DUP3 DUP3 PUSH1 0x40 MLOAD PUSH2 0x506 SWAP3 SWAP2 SWAP1 PUSH2 0xB18 JUMP JUMPDEST PUSH1 0x40 MLOAD DUP1 SWAP2 SUB SWAP1 LOG1 POP POP JUMP JUMPDEST PUSH1 0x60 PUSH1 0x0 DUP1 PUSH1 0x1 DUP5 DUP2 SLOAD DUP2 LT PUSH2 0x52B JUMPI PUSH2 0x52A PUSH2 0xD45 JUMP JUMPDEST JUMPDEST SWAP1 PUSH1 0x0 MSTORE PUSH1 0x20 PUSH1 0x0 KECCAK256 SWAP1 PUSH1 0x2 MUL ADD SWAP1 POP DUP1 PUSH1 0x0 ADD DUP2 PUSH1 0x1 ADD SLOAD DUP2 DUP1 SLOAD PUSH2 0x550 SWAP1 PUSH2 0xCB3 JUMP JUMPDEST DUP1 PUSH1 0x1F ADD PUSH1 0x20 DUP1 SWAP2 DIV MUL PUSH1 0x20 ADD PUSH1 0x40 MLOAD SWAP1 DUP2 ADD PUSH1 0x40 MSTORE DUP1 SWAP3 SWAP2 SWAP1 DUP2 DUP2 MSTORE PUSH1 0x20 ADD DUP3 DUP1 SLOAD PUSH2 0x57C SWAP1 PUSH2 0xCB3 JUMP JUMPDEST DUP1 ISZERO PUSH2 0x5C9 JUMPI DUP1 PUSH1 0x1F LT PUSH2 0x59E JUMPI PUSH2 0x100 DUP1 DUP4 SLOAD DIV MUL DUP4 MSTORE SWAP2 PUSH1 0x20 ADD SWAP2 PUSH2 0x5C9 JUMP JUMPDEST DUP3 ADD SWAP2 SWAP1 PUSH1 0x0 MSTORE PUSH1 0x20 PUSH1 0x0 KECCAK256 SWAP1 JUMPDEST DUP2 SLOAD DUP2 MSTORE SWAP1 PUSH1 0x1 ADD SWAP1 PUSH1 0x20 ADD DUP1 DUP4 GT PUSH2 0x5AC JUMPI DUP3 SWAP1 SUB PUSH1 0x1F AND DUP3 ADD SWAP2 JUMPDEST POP POP POP POP POP SWAP2 POP SWAP3 POP SWAP3 POP POP SWAP2 POP SWAP2 JUMP JUMPDEST PUSH1 0x0 DUP1 PUSH1 0x0 CALLER PUSH20 0xFFFFFFFFFFFFFFFFFFFFFFFFFFFFFFFFFFFFFFFF AND PUSH20 0xFFFFFFFFFFFFFFFFFFFFFFFFFFFFFFFFFFFFFFFF AND DUP2 MSTORE PUSH1 0x20 ADD SWAP1 DUP2 MSTORE PUSH1 0x20 ADD PUSH1 0x0 KECCAK256 SLOAD EQ PUSH2 0x65B JUMPI PUSH1 0x40 MLOAD PUSH32 0x8C379A000000000000000000000000000000000000000000000000000000000 DUP2 MSTORE PUSH1 0x4 ADD PUSH2 0x652 SWAP1 PUSH2 0xB68 JUMP JUMPDEST PUSH1 0x40 MLOAD DUP1 SWAP2 SUB SWAP1 REVERT JUMPDEST DUP1 PUSH1 0x0 DUP1 CALLER PUSH20 0xFFFFFFFFFFFFFFFFFFFFFFFFFFFFFFFFFFFFFFFF AND PUSH20 0xFFFFFFFFFFFFFFFFFFFFFFFFFFFFFFFFFFFFFFFF AND DUP2 MSTORE PUSH1 0x20 ADD SWAP1 DUP2 MSTORE PUSH1 0x20 ADD PUSH1 0x0 KECCAK256 DUP2 SWAP1 SSTORE POP PUSH31 0x7DC6AB80CC84C043B7B8D4FCAFC802187470087F7EA7FCCD2E17AECD0256A1 DUP3 DUP3 PUSH1 0x40 MLOAD PUSH2 0x6CE SWAP3 SWAP2 SWAP1 PUSH2 0xAEF JUMP JUMPDEST PUSH1 0x40 MLOAD DUP1 SWAP2 SUB SWAP1 LOG1 POP POP JUMP JUMPDEST PUSH1 0x1 DUP2 DUP2 SLOAD DUP2 LT PUSH2 0x6EE JUMPI PUSH2 0x6ED PUSH2 0xD45 JUMP JUMPDEST JUMPDEST SWAP1 PUSH1 0x0 MSTORE PUSH1 0x20 PUSH1 0x0 KECCAK256 SWAP1 PUSH1 0x2 MUL ADD PUSH1 0x0 DUP1 DUP3 ADD PUSH1 0x0 PUSH2 0x70D SWAP2 SWAP1 PUSH2 0x7B8 JUMP JUMPDEST PUSH1 0x1 DUP3 ADD PUSH1 0x0 SWAP1 SSTORE POP POP POP JUMP JUMPDEST PUSH1 0x0 PUSH1 0x20 MSTORE DUP1 PUSH1 0x0 MSTORE PUSH1 0x40 PUSH1 0x0 KECCAK256 PUSH1 0x0 SWAP2 POP SWAP1 POP SLOAD DUP2 JUMP JUMPDEST DUP3 DUP1 SLOAD PUSH2 0x73E SWAP1 PUSH2 0xCB3 JUMP JUMPDEST SWAP1 PUSH1 0x0 MSTORE PUSH1 0x20 PUSH1 0x0 KECCAK256 SWAP1 PUSH1 0x1F ADD PUSH1 0x20 SWAP1 DIV DUP2 ADD SWAP3 DUP3 PUSH2 0x760 JUMPI PUSH1 0x0 DUP6 SSTORE PUSH2 0x7A7 JUMP JUMPDEST DUP3 PUSH1 0x1F LT PUSH2 0x779 JUMPI DUP1 MLOAD PUSH1 0xFF NOT AND DUP4 DUP1 ADD OR DUP6 SSTORE PUSH2 0x7A7 JUMP JUMPDEST DUP3 DUP1 ADD PUSH1 0x1 ADD DUP6 SSTORE DUP3 ISZERO PUSH2 0x7A7 JUMPI SWAP2 DUP3 ADD JUMPDEST DUP3 DUP2 GT ISZERO PUSH2 0x7A6 JUMPI DUP3 MLOAD DUP3 SSTORE SWAP2 PUSH1 0x20 ADD SWAP2 SWAP1 PUSH1 0x1 ADD SWAP1 PUSH2 0x78B JUMP JUMPDEST JUMPDEST POP SWAP1 POP PUSH2 0x7B4 SWAP2 SWAP1 PUSH2 0x7F8 JUMP JUMPDEST POP SWAP1 JUMP JUMPDEST POP DUP1 SLOAD PUSH2 0x7C4 SWAP1 PUSH2 0xCB3 JUMP JUMPDEST PUSH1 0x0 DUP3 SSTORE DUP1 PUSH1 0x1F LT PUSH2 0x7D6 JUMPI POP PUSH2 0x7F5 JUMP JUMPDEST PUSH1 0x1F ADD PUSH1 0x20 SWAP1 DIV SWAP1 PUSH1 0x0 MSTORE PUSH1 0x20 PUSH1 0x0 KECCAK256 SWAP1 DUP2 ADD SWAP1 PUSH2 0x7F4 SWAP2 SWAP1 PUSH2 0x7F8 JUMP JUMPDEST JUMPDEST POP JUMP JUMPDEST JUMPDEST DUP1 DUP3 GT ISZERO PUSH2 0x811 JUMPI PUSH1 0x0 DUP2 PUSH1 0x0 SWAP1 SSTORE POP PUSH1 0x1 ADD PUSH2 0x7F9 JUMP JUMPDEST POP SWAP1 JUMP JUMPDEST PUSH1 0x0 PUSH2 0x828 PUSH2 0x823 DUP5 PUSH2 0xBE8 JUMP JUMPDEST PUSH2 0xBC3 JUMP JUMPDEST SWAP1 POP DUP3 DUP2 MSTORE PUSH1 0x20 DUP2 ADD DUP5 DUP5 DUP5 ADD GT ISZERO PUSH2 0x844 JUMPI PUSH2 0x843 PUSH2 0xDA8 JUMP JUMPDEST JUMPDEST PUSH2 0x84F DUP5 DUP3 DUP6 PUSH2 0xC71 JUMP JUMPDEST POP SWAP4 SWAP3 POP POP POP JUMP JUMPDEST PUSH1 0x0 DUP2 CALLDATALOAD SWAP1 POP PUSH2 0x866 DUP2 PUSH2 0xEB5 JUMP JUMPDEST SWAP3 SWAP2 POP POP JUMP JUMPDEST PUSH1 0x0 DUP3 PUSH1 0x1F DUP4 ADD SLT PUSH2 0x881 JUMPI PUSH2 0x880 PUSH2 0xDA3 JUMP JUMPDEST JUMPDEST DUP2 CALLDATALOAD PUSH2 0x891 DUP5 DUP3 PUSH1 0x20 DUP7 ADD PUSH2 0x815 JUMP JUMPDEST SWAP2 POP POP SWAP3 SWAP2 POP POP JUMP JUMPDEST PUSH1 0x0 DUP2 CALLDATALOAD SWAP1 POP PUSH2 0x8A9 DUP2 PUSH2 0xECC JUMP JUMPDEST SWAP3 SWAP2 POP POP JUMP JUMPDEST PUSH1 0x0 PUSH1 0x20 DUP3 DUP5 SUB SLT ISZERO PUSH2 0x8C5 JUMPI PUSH2 0x8C4 PUSH2 0xDB2 JUMP JUMPDEST JUMPDEST PUSH1 0x0 PUSH2 0x8D3 DUP5 DUP3 DUP6 ADD PUSH2 0x857 JUMP JUMPDEST SWAP2 POP POP SWAP3 SWAP2 POP POP JUMP JUMPDEST PUSH1 0x0 DUP1 PUSH1 0x40 DUP4 DUP6 SUB SLT ISZERO PUSH2 0x8F3 JUMPI PUSH2 0x8F2 PUSH2 0xDB2 JUMP JUMPDEST JUMPDEST PUSH1 0x0 PUSH2 0x901 DUP6 DUP3 DUP7 ADD PUSH2 0x857 JUMP JUMPDEST SWAP3 POP POP PUSH1 0x20 PUSH2 0x912 DUP6 DUP3 DUP7 ADD PUSH2 0x89A JUMP JUMPDEST SWAP2 POP POP SWAP3 POP SWAP3 SWAP1 POP JUMP JUMPDEST PUSH1 0x0 DUP1 PUSH1 0x40 DUP4 DUP6 SUB SLT ISZERO PUSH2 0x933 JUMPI PUSH2 0x932 PUSH2 0xDB2 JUMP JUMPDEST JUMPDEST PUSH1 0x0 DUP4 ADD CALLDATALOAD PUSH8 0xFFFFFFFFFFFFFFFF DUP2 GT ISZERO PUSH2 0x951 JUMPI PUSH2 0x950 PUSH2 0xDAD JUMP JUMPDEST JUMPDEST PUSH2 0x95D DUP6 DUP3 DUP7 ADD PUSH2 0x86C JUMP JUMPDEST SWAP3 POP POP PUSH1 0x20 PUSH2 0x96E DUP6 DUP3 DUP7 ADD PUSH2 0x89A JUMP JUMPDEST SWAP2 POP POP SWAP3 POP SWAP3 SWAP1 POP JUMP JUMPDEST PUSH1 0x0 PUSH1 0x20 DUP3 DUP5 SUB SLT ISZERO PUSH2 0x98E JUMPI PUSH2 0x98D PUSH2 0xDB2 JUMP JUMPDEST JUMPDEST PUSH1 0x0 PUSH2 0x99C DUP5 DUP3 DUP6 ADD PUSH2 0x89A JUMP JUMPDEST SWAP2 POP POP SWAP3 SWAP2 POP POP JUMP JUMPDEST PUSH1 0x0 DUP1 PUSH1 0x0 PUSH1 0x60 DUP5 DUP7 SUB SLT ISZERO PUSH2 0x9BE JUMPI PUSH2 0x9BD PUSH2 0xDB2 JUMP JUMPDEST JUMPDEST PUSH1 0x0 PUSH2 0x9CC DUP7 DUP3 DUP8 ADD PUSH2 0x89A JUMP JUMPDEST SWAP4 POP POP PUSH1 0x20 DUP5 ADD CALLDATALOAD PUSH8 0xFFFFFFFFFFFFFFFF DUP2 GT ISZERO PUSH2 0x9ED JUMPI PUSH2 0x9EC PUSH2 0xDAD JUMP JUMPDEST JUMPDEST PUSH2 0x9F9 DUP7 DUP3 DUP8 ADD PUSH2 0x86C JUMP JUMPDEST SWAP3 POP POP PUSH1 0x40 PUSH2 0xA0A DUP7 DUP3 DUP8 ADD PUSH2 0x89A JUMP JUMPDEST SWAP2 POP POP SWAP3 POP SWAP3 POP SWAP3 JUMP JUMPDEST PUSH2 0xA1D DUP2 PUSH2 0xC35 JUMP JUMPDEST DUP3 MSTORE POP POP JUMP JUMPDEST PUSH1 0x0 PUSH2 0xA2E DUP3 PUSH2 0xC19 JUMP JUMPDEST PUSH2 0xA38 DUP2 DUP6 PUSH2 0xC24 JUMP JUMPDEST SWAP4 POP PUSH2 0xA48 DUP2 DUP6 PUSH1 0x20 DUP7 ADD PUSH2 0xC80 JUMP JUMPDEST PUSH2 0xA51 DUP2 PUSH2 0xDB7 JUMP JUMPDEST DUP5 ADD SWAP2 POP POP SWAP3 SWAP2 POP POP JUMP JUMPDEST PUSH1 0x0 PUSH2 0xA69 PUSH1 0x34 DUP4 PUSH2 0xC24 JUMP JUMPDEST SWAP2 POP PUSH2 0xA74 DUP3 PUSH2 0xDC8 JUMP JUMPDEST PUSH1 0x40 DUP3 ADD SWAP1 POP SWAP2 SWAP1 POP JUMP JUMPDEST PUSH1 0x0 PUSH2 0xA8C PUSH1 0x25 DUP4 PUSH2 0xC24 JUMP JUMPDEST SWAP2 POP PUSH2 0xA97 DUP3 PUSH2 0xE17 JUMP JUMPDEST PUSH1 0x40 DUP3 ADD SWAP1 POP SWAP2 SWAP1 POP JUMP JUMPDEST PUSH1 0x0 PUSH2 0xAAF PUSH1 0x30 DUP4 PUSH2 0xC24 JUMP JUMPDEST SWAP2 POP PUSH2 0xABA DUP3 PUSH2 0xE66 JUMP JUMPDEST PUSH1 0x40 DUP3 ADD SWAP1 POP SWAP2 SWAP1 POP JUMP JUMPDEST PUSH2 0xACE DUP2 PUSH2 0xC67 JUMP JUMPDEST DUP3 MSTORE POP POP JUMP JUMPDEST PUSH1 0x0 PUSH1 0x20 DUP3 ADD SWAP1 POP PUSH2 0xAE9 PUSH1 0x0 DUP4 ADD DUP5 PUSH2 0xA14 JUMP JUMPDEST SWAP3 SWAP2 POP POP JUMP JUMPDEST PUSH1 0x0 PUSH1 0x40 DUP3 ADD SWAP1 POP PUSH2 0xB04 PUSH1 0x0 DUP4 ADD DUP6 PUSH2 0xA14 JUMP JUMPDEST PUSH2 0xB11 PUSH1 0x20 DUP4 ADD DUP5 PUSH2 0xAC5 JUMP JUMPDEST SWAP4 SWAP3 POP POP POP JUMP JUMPDEST PUSH1 0x0 PUSH1 0x40 DUP3 ADD SWAP1 POP DUP2 DUP2 SUB PUSH1 0x0 DUP4 ADD MSTORE PUSH2 0xB32 DUP2 DUP6 PUSH2 0xA23 JUMP JUMPDEST SWAP1 POP PUSH2 0xB41 PUSH1 0x20 DUP4 ADD DUP5 PUSH2 0xAC5 JUMP JUMPDEST SWAP4 SWAP3 POP POP POP JUMP JUMPDEST PUSH1 0x0 PUSH1 0x20 DUP3 ADD SWAP1 POP DUP2 DUP2 SUB PUSH1 0x0 DUP4 ADD MSTORE PUSH2 0xB61 DUP2 PUSH2 0xA5C JUMP JUMPDEST SWAP1 POP SWAP2 SWAP1 POP JUMP JUMPDEST PUSH1 0x0 PUSH1 0x20 DUP3 ADD SWAP1 POP DUP2 DUP2 SUB PUSH1 0x0 DUP4 ADD MSTORE PUSH2 0xB81 DUP2 PUSH2 0xA7F JUMP JUMPDEST SWAP1 POP SWAP2 SWAP1 POP JUMP JUMPDEST PUSH1 0x0 PUSH1 0x20 DUP3 ADD SWAP1 POP DUP2 DUP2 SUB PUSH1 0x0 DUP4 ADD MSTORE PUSH2 0xBA1 DUP2 PUSH2 0xAA2 JUMP JUMPDEST SWAP1 POP SWAP2 SWAP1 POP JUMP JUMPDEST PUSH1 0x0 PUSH1 0x20 DUP3 ADD SWAP1 POP PUSH2 0xBBD PUSH1 0x0 DUP4 ADD DUP5 PUSH2 0xAC5 JUMP JUMPDEST SWAP3 SWAP2 POP POP JUMP JUMPDEST PUSH1 0x0 PUSH2 0xBCD PUSH2 0xBDE JUMP JUMPDEST SWAP1 POP PUSH2 0xBD9 DUP3 DUP3 PUSH2 0xCE5 JUMP JUMPDEST SWAP2 SWAP1 POP JUMP JUMPDEST PUSH1 0x0 PUSH1 0x40 MLOAD SWAP1 POP SWAP1 JUMP JUMPDEST PUSH1 0x0 PUSH8 0xFFFFFFFFFFFFFFFF DUP3 GT ISZERO PUSH2 0xC03 JUMPI PUSH2 0xC02 PUSH2 0xD74 JUMP JUMPDEST JUMPDEST PUSH2 0xC0C DUP3 PUSH2 0xDB7 JUMP JUMPDEST SWAP1 POP PUSH1 0x20 DUP2 ADD SWAP1 POP SWAP2 SWAP1 POP JUMP JUMPDEST PUSH1 0x0 DUP2 MLOAD SWAP1 POP SWAP2 SWAP1 POP JUMP JUMPDEST PUSH1 0x0 DUP3 DUP3 MSTORE PUSH1 0x20 DUP3 ADD SWAP1 POP SWAP3 SWAP2 POP POP JUMP JUMPDEST PUSH1 0x0 PUSH2 0xC40 DUP3 PUSH2 0xC47 JUMP JUMPDEST SWAP1 POP SWAP2 SWAP1 POP JUMP JUMPDEST PUSH1 0x0 PUSH20 0xFFFFFFFFFFFFFFFFFFFFFFFFFFFFFFFFFFFFFFFF DUP3 AND SWAP1 POP SWAP2 SWAP1 POP JUMP JUMPDEST PUSH1 0x0 DUP2 SWAP1 POP SWAP2 SWAP1 POP JUMP JUMPDEST DUP3 DUP2 DUP4 CALLDATACOPY PUSH1 0x0 DUP4 DUP4 ADD MSTORE POP POP POP JUMP JUMPDEST PUSH1 0x0 JUMPDEST DUP4 DUP2 LT ISZERO PUSH2 0xC9E JUMPI DUP1 DUP3 ADD MLOAD DUP2 DUP5 ADD MSTORE PUSH1 0x20 DUP2 ADD SWAP1 POP PUSH2 0xC83 JUMP JUMPDEST DUP4 DUP2 GT ISZERO PUSH2 0xCAD JUMPI PUSH1 0x0 DUP5 DUP5 ADD MSTORE JUMPDEST POP POP POP POP JUMP JUMPDEST PUSH1 0x0 PUSH1 0x2 DUP3 DIV SWAP1 POP PUSH1 0x1 DUP3 AND DUP1 PUSH2 0xCCB JUMPI PUSH1 0x7F DUP3 AND SWAP2 POP JUMPDEST PUSH1 0x20 DUP3 LT DUP2 EQ ISZERO PUSH2 0xCDF JUMPI PUSH2 0xCDE PUSH2 0xD16 JUMP JUMPDEST JUMPDEST POP SWAP2 SWAP1 POP JUMP JUMPDEST PUSH2 0xCEE DUP3 PUSH2 0xDB7 JUMP JUMPDEST DUP2 ADD DUP2 DUP2 LT PUSH8 0xFFFFFFFFFFFFFFFF DUP3 GT OR ISZERO PUSH2 0xD0D JUMPI PUSH2 0xD0C PUSH2 0xD74 JUMP JUMPDEST JUMPDEST DUP1 PUSH1 0x40 MSTORE POP POP POP JUMP JUMPDEST PUSH32 0x4E487B7100000000000000000000000000000000000000000000000000000000 PUSH1 0x0 MSTORE PUSH1 0x22 PUSH1 0x4 MSTORE PUSH1 0x24 PUSH1 0x0 REVERT JUMPDEST PUSH32 0x4E487B7100000000000000000000000000000000000000000000000000000000 PUSH1 0x0 MSTORE PUSH1 0x32 PUSH1 0x4 MSTORE PUSH1 0x24 PUSH1 0x0 REVERT JUMPDEST PUSH32 0x4E487B7100000000000000000000000000000000000000000000000000000000 PUSH1 0x0 MSTORE PUSH1 0x41 PUSH1 0x4 MSTORE PUSH1 0x24 PUSH1 0x0 REVERT JUMPDEST PUSH1 0x0 DUP1 REVERT JUMPDEST PUSH1 0x0 DUP1 REVERT JUMPDEST PUSH1 0x0 DUP1 REVERT JUMPDEST PUSH1 0x0 DUP1 REVERT JUMPDEST PUSH1 0x0 PUSH1 0x1F NOT PUSH1 0x1F DUP4 ADD AND SWAP1 POP SWAP2 SWAP1 POP JUMP JUMPDEST PUSH32 0x536F6C6F20656C2041646D696E6973747261646F722064656C2047796D207075 PUSH1 0x0 DUP3 ADD MSTORE PUSH32 0x656465206D6F6469666963617220636C61736573000000000000000000000000 PUSH1 0x20 DUP3 ADD MSTORE POP JUMP JUMPDEST PUSH32 0x596120746520656E6375656E74726173207265676973747261646F20656E2065 PUSH1 0x0 DUP3 ADD MSTORE PUSH32 0x6C2067796D000000000000000000000000000000000000000000000000000000 PUSH1 0x20 DUP3 ADD MSTORE POP JUMP JUMPDEST PUSH32 0x536F6C6F20656C2041646D696E6973747261646F722064656C2047796D207075 PUSH1 0x0 DUP3 ADD MSTORE PUSH32 0x65646520637265617220636C6173657300000000000000000000000000000000 PUSH1 0x20 DUP3 ADD MSTORE POP JUMP JUMPDEST PUSH2 0xEBE DUP2 PUSH2 0xC35 JUMP JUMPDEST DUP2 EQ PUSH2 0xEC9 JUMPI PUSH1 0x0 DUP1 REVERT JUMPDEST POP JUMP JUMPDEST PUSH2 0xED5 DUP2 PUSH2 0xC67 JUMP JUMPDEST DUP2 EQ PUSH2 0xEE0 JUMPI PUSH1 0x0 DUP1 REVERT JUMPDEST POP JUMP INVALID LOG2 PUSH5 0x6970667358 0x22 SLT KECCAK256 0xAA PUSH11 0x67A0ECE18B77B887C25614 0xED PUSH24 0xC8FEE3FB08D461532764D2CC8B568DA4A64736F6C634300 ADDMOD SMOD STOP CALLER "
				},
				"gasEstimates": {
					"creation": {
						"codeDepositCost": "773000",
						"executionCost": "infinite",
						"totalCost": "infinite"
					},
					"external": {
						"ADMIN()": "infinite",
						"class(uint256)": "infinite",
						"createClass(string,uint256)": "infinite",
						"getBalance()": "2689",
						"getClass(uint256)": "infinite",
						"register(address,uint256)": "infinite",
						"removeClass(uint256)": "infinite",
						"updateClass(uint256,string,uint256)": "infinite",
						"users(address)": "2902"
					}
				},
				"methodIdentifiers": {
					"ADMIN()": "2a0acc6a",
					"class(uint256)": "3613a9f4",
					"createClass(string,uint256)": "4852a212",
					"getBalance()": "12065fe0",
					"getClass(uint256)": "512d62df",
					"register(address,uint256)": "6d705ebb",
					"removeClass(uint256)": "72c30f45",
					"updateClass(uint256,string,uint256)": "1e8be099",
					"users(address)": "a87430ba"
				}
			},
			"storageLayout": {
				"storage": [
					{
						"astId": 33,
						"contract": "contracts/Gym_Contact.sol:gym",
						"label": "users",
						"offset": 0,
						"slot": "0",
						"type": "t_mapping(t_address,t_uint256)"
					},
					{
						"astId": 37,
						"contract": "contracts/Gym_Contact.sol:gym",
						"label": "class",
						"offset": 0,
						"slot": "1",
						"type": "t_array(t_struct(Class)6_storage)dyn_storage"
					}
				],
				"types": {
					"t_address": {
						"encoding": "inplace",
						"label": "address",
						"numberOfBytes": "20"
					},
					"t_array(t_struct(Class)6_storage)dyn_storage": {
						"base": "t_struct(Class)6_storage",
						"encoding": "dynamic_array",
						"label": "struct gym.Class[]",
						"numberOfBytes": "32"
					},
					"t_mapping(t_address,t_uint256)": {
						"encoding": "mapping",
						"key": "t_address",
						"label": "mapping(address => uint256)",
						"numberOfBytes": "32",
						"value": "t_uint256"
					},
					"t_string_storage": {
						"encoding": "bytes",
						"label": "string",
						"numberOfBytes": "32"
					},
					"t_struct(Class)6_storage": {
						"encoding": "inplace",
						"label": "struct gym.Class",
						"members": [
							{
								"astId": 3,
								"contract": "contracts/Gym_Contact.sol:gym",
								"label": "name",
								"offset": 0,
								"slot": "0",
								"type": "t_string_storage"
							},
							{
								"astId": 5,
								"contract": "contracts/Gym_Contact.sol:gym",
								"label": "value",
								"offset": 0,
								"slot": "1",
								"type": "t_uint256"
							}
						],
						"numberOfBytes": "64"
					},
					"t_uint256": {
						"encoding": "inplace",
						"label": "uint256",
						"numberOfBytes": "32"
					}
				}
			},
			"userdoc": {
				"kind": "user",
				"methods": {},
				"version": 1
			}
		}
	}
}