{
	"contracts/Gym_Contact.sol": {
		"gym": {
			"abi": [
				{
					"inputs": [],
					"stateMutability": "nonpayable",
					"type": "constructor"
				},
				{
					"anonymous": false,
					"inputs": [
						{
							"indexed": false,
							"internalType": "uint256",
							"name": "id",
							"type": "uint256"
						},
						{
							"indexed": false,
							"internalType": "string",
							"name": "name",
							"type": "string"
						},
						{
							"indexed": false,
							"internalType": "uint256",
							"name": "value",
							"type": "uint256"
						}
					],
					"name": "ClassCreated",
					"type": "event"
				},
				{
					"anonymous": false,
					"inputs": [
						{
							"indexed": false,
							"internalType": "address",
							"name": "user",
							"type": "address"
						},
						{
							"indexed": false,
							"internalType": "uint256",
							"name": "credits",
							"type": "uint256"
						}
					],
					"name": "Register",
					"type": "event"
				},
				{
					"inputs": [],
					"name": "ADMIN",
					"outputs": [
						{
							"internalType": "address",
							"name": "",
							"type": "address"
						}
					],
					"stateMutability": "view",
					"type": "function"
				},
				{
					"inputs": [
						{
							"internalType": "address",
							"name": "",
							"type": "address"
						},
						{
							"internalType": "uint256",
							"name": "",
							"type": "uint256"
						}
					],
					"name": "clases",
					"outputs": [
						{
							"internalType": "uint256",
							"name": "id",
							"type": "uint256"
						},
						{
							"internalType": "string",
							"name": "name",
							"type": "string"
						},
						{
							"internalType": "uint256",
							"name": "value",
							"type": "uint256"
						}
					],
					"stateMutability": "view",
					"type": "function"
				},
				{
					"inputs": [],
					"name": "class",
					"outputs": [
						{
							"internalType": "uint256",
							"name": "id",
							"type": "uint256"
						},
						{
							"internalType": "string",
							"name": "name",
							"type": "string"
						},
						{
							"internalType": "uint256",
							"name": "value",
							"type": "uint256"
						}
					],
					"stateMutability": "view",
					"type": "function"
				},
				{
					"inputs": [
						{
							"internalType": "address",
							"name": "",
							"type": "address"
						}
					],
					"name": "classCount",
					"outputs": [
						{
							"internalType": "uint256",
							"name": "",
							"type": "uint256"
						}
					],
					"stateMutability": "view",
					"type": "function"
				},
				{
					"inputs": [
						{
							"internalType": "string",
							"name": "_name",
							"type": "string"
						},
						{
							"internalType": "uint256",
							"name": "_value",
							"type": "uint256"
						}
					],
					"name": "createClass",
					"outputs": [],
					"stateMutability": "nonpayable",
					"type": "function"
				},
				{
					"inputs": [],
					"name": "getBalance",
					"outputs": [
						{
							"internalType": "address",
							"name": "",
							"type": "address"
						},
						{
							"internalType": "uint256",
							"name": "",
							"type": "uint256"
						}
					],
					"stateMutability": "view",
					"type": "function"
				},
				{
					"inputs": [
						{
							"internalType": "address",
							"name": "_address",
							"type": "address"
						},
						{
							"internalType": "uint256",
							"name": "_credits",
							"type": "uint256"
						}
					],
					"name": "register",
					"outputs": [],
					"stateMutability": "nonpayable",
					"type": "function"
				},
				{
					"inputs": [
						{
							"internalType": "address",
							"name": "",
							"type": "address"
						}
					],
					"name": "users",
					"outputs": [
						{
							"internalType": "uint256",
							"name": "",
							"type": "uint256"
						}
					],
					"stateMutability": "view",
					"type": "function"
				}
			],
			"devdoc": {
				"kind": "dev",
				"methods": {},
				"version": 1
			},
			"evm": {
				"assembly": "    /* \"contracts/Gym_Contact.sol\":70:1933  contract gym {\r... */\n  mstore(0x40, 0xa0)\n    /* \"contracts/Gym_Contact.sol\":425:476  constructor() {\r... */\n  callvalue\n  dup1\n  iszero\n  tag_1\n  jumpi\n  0x00\n  dup1\n  revert\ntag_1:\n  pop\n    /* \"contracts/Gym_Contact.sol\":458:468  msg.sender */\n  caller\n    /* \"contracts/Gym_Contact.sol\":450:468  ADMIN = msg.sender */\n  0xffffffffffffffffffffffffffffffffffffffff\n  and\n  0x80\n  dup2\n  0xffffffffffffffffffffffffffffffffffffffff\n  and\n  0x60\n  shl\n  dup2\n  mstore\n  pop\n  pop\n    /* \"contracts/Gym_Contact.sol\":70:1933  contract gym {\r... */\n  shr(0x60, mload(0x80))\n  codecopy(0x00, dataOffset(sub_0), dataSize(sub_0))\n  0x00\n  assignImmutable(\"0x6585423cb6456b1d4957f6454d2f004f0c4f58d53a00082412d5c2ef4b1b31fd\")\n  return(0x00, dataSize(sub_0))\nstop\n\nsub_0: assembly {\n        /* \"contracts/Gym_Contact.sol\":70:1933  contract gym {\r... */\n      mstore(0x40, 0x80)\n      callvalue\n      dup1\n      iszero\n      tag_1\n      jumpi\n      0x00\n      dup1\n      revert\n    tag_1:\n      pop\n      jumpi(tag_2, lt(calldatasize, 0x04))\n      shr(0xe0, calldataload(0x00))\n      dup1\n      0x78dea39d\n      gt\n      tag_11\n      jumpi\n      dup1\n      0x78dea39d\n      eq\n      tag_7\n      jumpi\n      dup1\n      0xa87430ba\n      eq\n      tag_8\n      jumpi\n      dup1\n      0xbff852fa\n      eq\n      tag_9\n      jumpi\n      dup1\n      0xf3bcaf59\n      eq\n      tag_10\n      jumpi\n      jump(tag_2)\n    tag_11:\n      dup1\n      0x12065fe0\n      eq\n      tag_3\n      jumpi\n      dup1\n      0x2a0acc6a\n      eq\n      tag_4\n      jumpi\n      dup1\n      0x4852a212\n      eq\n      tag_5\n      jumpi\n      dup1\n      0x6d705ebb\n      eq\n      tag_6\n      jumpi\n    tag_2:\n      0x00\n      dup1\n      revert\n        /* \"contracts/Gym_Contact.sol\":1592:1705  function getBalance() public view returns(address, uint){\r... */\n    tag_3:\n      tag_12\n      tag_13\n      jump\t// in\n    tag_12:\n      mload(0x40)\n      tag_14\n      swap3\n      swap2\n      swap1\n      tag_15\n      jump\t// in\n    tag_14:\n      mload(0x40)\n      dup1\n      swap2\n      sub\n      swap1\n      return\n        /* \"contracts/Gym_Contact.sol\":386:416  address immutable public ADMIN */\n    tag_4:\n      tag_16\n      tag_17\n      jump\t// in\n    tag_16:\n      mload(0x40)\n      tag_18\n      swap2\n      swap1\n      tag_19\n      jump\t// in\n    tag_18:\n      mload(0x40)\n      dup1\n      swap2\n      sub\n      swap1\n      return\n        /* \"contracts/Gym_Contact.sol\":804:1160  function createClass(string memory _name, uint _value) public {\r... */\n    tag_5:\n      tag_20\n      0x04\n      dup1\n      calldatasize\n      sub\n      dup2\n      add\n      swap1\n      tag_21\n      swap2\n      swap1\n      tag_22\n      jump\t// in\n    tag_21:\n      tag_23\n      jump\t// in\n    tag_20:\n      stop\n        /* \"contracts/Gym_Contact.sol\":1198:1584  function register(address _address, uint _credits) public {\r... */\n    tag_6:\n      tag_24\n      0x04\n      dup1\n      calldatasize\n      sub\n      dup2\n      add\n      swap1\n      tag_25\n      swap2\n      swap1\n      tag_26\n      jump\t// in\n    tag_25:\n      tag_27\n      jump\t// in\n    tag_24:\n      stop\n        /* \"contracts/Gym_Contact.sol\":697:739  mapping(address => uint) public classCount */\n    tag_7:\n      tag_28\n      0x04\n      dup1\n      calldatasize\n      sub\n      dup2\n      add\n      swap1\n      tag_29\n      swap2\n      swap1\n      tag_30\n      jump\t// in\n    tag_29:\n      tag_31\n      jump\t// in\n    tag_28:\n      mload(0x40)\n      tag_32\n      swap2\n      swap1\n      tag_33\n      jump\t// in\n    tag_32:\n      mload(0x40)\n      dup1\n      swap2\n      sub\n      swap1\n      return\n        /* \"contracts/Gym_Contact.sol\":500:537  mapping(address => uint) public users */\n    tag_8:\n      tag_34\n      0x04\n      dup1\n      calldatasize\n      sub\n      dup2\n      add\n      swap1\n      tag_35\n      swap2\n      swap1\n      tag_30\n      jump\t// in\n    tag_35:\n      tag_36\n      jump\t// in\n    tag_34:\n      mload(0x40)\n      tag_37\n      swap2\n      swap1\n      tag_33\n      jump\t// in\n    tag_37:\n      mload(0x40)\n      dup1\n      swap2\n      sub\n      swap1\n      return\n        /* \"contracts/Gym_Contact.sol\":746:764  Class public class */\n    tag_9:\n      tag_38\n      tag_39\n      jump\t// in\n    tag_38:\n      mload(0x40)\n      tag_40\n      swap4\n      swap3\n      swap2\n      swap1\n      tag_41\n      jump\t// in\n    tag_40:\n      mload(0x40)\n      dup1\n      swap2\n      sub\n      swap1\n      return\n        /* \"contracts/Gym_Contact.sol\":591:646  mapping(address =>mapping(uint => Class)) public clases */\n    tag_10:\n      tag_42\n      0x04\n      dup1\n      calldatasize\n      sub\n      dup2\n      add\n      swap1\n      tag_43\n      swap2\n      swap1\n      tag_26\n      jump\t// in\n    tag_43:\n      tag_44\n      jump\t// in\n    tag_42:\n      mload(0x40)\n      tag_45\n      swap4\n      swap3\n      swap2\n      swap1\n      tag_41\n      jump\t// in\n    tag_45:\n      mload(0x40)\n      dup1\n      swap2\n      sub\n      swap1\n      return\n        /* \"contracts/Gym_Contact.sol\":1592:1705  function getBalance() public view returns(address, uint){\r... */\n    tag_13:\n        /* \"contracts/Gym_Contact.sol\":1634:1641  address */\n      0x00\n        /* \"contracts/Gym_Contact.sol\":1643:1647  uint */\n      dup1\n        /* \"contracts/Gym_Contact.sol\":1667:1677  msg.sender */\n      caller\n        /* \"contracts/Gym_Contact.sol\":1679:1684  users */\n      0x00\n        /* \"contracts/Gym_Contact.sol\":1679:1696  users[msg.sender] */\n      dup1\n        /* \"contracts/Gym_Contact.sol\":1685:1695  msg.sender */\n      caller\n        /* \"contracts/Gym_Contact.sol\":1679:1696  users[msg.sender] */\n      0xffffffffffffffffffffffffffffffffffffffff\n      and\n      0xffffffffffffffffffffffffffffffffffffffff\n      and\n      dup2\n      mstore\n      0x20\n      add\n      swap1\n      dup2\n      mstore\n      0x20\n      add\n      0x00\n      keccak256\n      sload\n        /* \"contracts/Gym_Contact.sol\":1659:1697  return (msg.sender, users[msg.sender]) */\n      swap2\n      pop\n      swap2\n      pop\n        /* \"contracts/Gym_Contact.sol\":1592:1705  function getBalance() public view returns(address, uint){\r... */\n      swap1\n      swap2\n      jump\t// out\n        /* \"contracts/Gym_Contact.sol\":386:416  address immutable public ADMIN */\n    tag_17:\n      immutable(\"0x6585423cb6456b1d4957f6454d2f004f0c4f58d53a00082412d5c2ef4b1b31fd\")\n      dup2\n      jump\t// out\n        /* \"contracts/Gym_Contact.sol\":804:1160  function createClass(string memory _name, uint _value) public {\r... */\n    tag_23:\n        /* \"contracts/Gym_Contact.sol\":894:904  msg.sender */\n      caller\n        /* \"contracts/Gym_Contact.sol\":885:904  ADMIN == msg.sender */\n      0xffffffffffffffffffffffffffffffffffffffff\n      and\n        /* \"contracts/Gym_Contact.sol\":885:890  ADMIN */\n      immutable(\"0x6585423cb6456b1d4957f6454d2f004f0c4f58d53a00082412d5c2ef4b1b31fd\")\n        /* \"contracts/Gym_Contact.sol\":885:904  ADMIN == msg.sender */\n      0xffffffffffffffffffffffffffffffffffffffff\n      and\n      eq\n        /* \"contracts/Gym_Contact.sol\":877:957  require(ADMIN == msg.sender, \"Solo el Administrador del Gym puede crear clases\") */\n      tag_48\n      jumpi\n      mload(0x40)\n      0x08c379a000000000000000000000000000000000000000000000000000000000\n      dup2\n      mstore\n      0x04\n      add\n      tag_49\n      swap1\n      tag_50\n      jump\t// in\n    tag_49:\n      mload(0x40)\n      dup1\n      swap2\n      sub\n      swap1\n      revert\n    tag_48:\n        /* \"contracts/Gym_Contact.sol\":968:980  uint counter */\n      0x00\n        /* \"contracts/Gym_Contact.sol\":983:993  classCount */\n      0x02\n        /* \"contracts/Gym_Contact.sol\":983:1000  classCount[ADMIN] */\n      0x00\n        /* \"contracts/Gym_Contact.sol\":994:999  ADMIN */\n      immutable(\"0x6585423cb6456b1d4957f6454d2f004f0c4f58d53a00082412d5c2ef4b1b31fd\")\n        /* \"contracts/Gym_Contact.sol\":983:1000  classCount[ADMIN] */\n      0xffffffffffffffffffffffffffffffffffffffff\n      and\n      0xffffffffffffffffffffffffffffffffffffffff\n      and\n      dup2\n      mstore\n      0x20\n      add\n      swap1\n      dup2\n      mstore\n      0x20\n      add\n      0x00\n      keccak256\n      sload\n        /* \"contracts/Gym_Contact.sol\":968:1000  uint counter = classCount[ADMIN] */\n      swap1\n      pop\n        /* \"contracts/Gym_Contact.sol\":1036:1065  Class(counter, _name, _value) */\n      mload(0x40)\n      dup1\n      0x60\n      add\n      0x40\n      mstore\n      dup1\n        /* \"contracts/Gym_Contact.sol\":1042:1049  counter */\n      dup3\n        /* \"contracts/Gym_Contact.sol\":1036:1065  Class(counter, _name, _value) */\n      dup2\n      mstore\n      0x20\n      add\n        /* \"contracts/Gym_Contact.sol\":1051:1056  _name */\n      dup5\n        /* \"contracts/Gym_Contact.sol\":1036:1065  Class(counter, _name, _value) */\n      dup2\n      mstore\n      0x20\n      add\n        /* \"contracts/Gym_Contact.sol\":1058:1064  _value */\n      dup4\n        /* \"contracts/Gym_Contact.sol\":1036:1065  Class(counter, _name, _value) */\n      dup2\n      mstore\n      pop\n        /* \"contracts/Gym_Contact.sol\":1011:1017  clases */\n      0x01\n        /* \"contracts/Gym_Contact.sol\":1011:1024  clases[ADMIN] */\n      0x00\n        /* \"contracts/Gym_Contact.sol\":1018:1023  ADMIN */\n      immutable(\"0x6585423cb6456b1d4957f6454d2f004f0c4f58d53a00082412d5c2ef4b1b31fd\")\n        /* \"contracts/Gym_Contact.sol\":1011:1024  clases[ADMIN] */\n      0xffffffffffffffffffffffffffffffffffffffff\n      and\n      0xffffffffffffffffffffffffffffffffffffffff\n      and\n      dup2\n      mstore\n      0x20\n      add\n      swap1\n      dup2\n      mstore\n      0x20\n      add\n      0x00\n      keccak256\n        /* \"contracts/Gym_Contact.sol\":1011:1033  clases[ADMIN][counter] */\n      0x00\n        /* \"contracts/Gym_Contact.sol\":1025:1032  counter */\n      dup4\n        /* \"contracts/Gym_Contact.sol\":1011:1033  clases[ADMIN][counter] */\n      dup2\n      mstore\n      0x20\n      add\n      swap1\n      dup2\n      mstore\n      0x20\n      add\n      0x00\n      keccak256\n        /* \"contracts/Gym_Contact.sol\":1011:1065  clases[ADMIN][counter] = Class(counter, _name, _value) */\n      0x00\n      dup3\n      add\n      mload\n      dup2\n      0x00\n      add\n      sstore\n      0x20\n      dup3\n      add\n      mload\n      dup2\n      0x01\n      add\n      swap1\n      dup1\n      mload\n      swap1\n      0x20\n      add\n      swap1\n      tag_51\n      swap3\n      swap2\n      swap1\n      tag_52\n      jump\t// in\n    tag_51:\n      pop\n      0x40\n      dup3\n      add\n      mload\n      dup2\n      0x02\n      add\n      sstore\n      swap1\n      pop\n      pop\n        /* \"contracts/Gym_Contact.sol\":1081:1117  ClassCreated(counter, _name, _value) */\n      0x7e4cf851366c6fd2ca0ede101f0cf37bbc5080a6bb4fd545d9f5408650f1c1dd\n        /* \"contracts/Gym_Contact.sol\":1094:1101  counter */\n      dup2\n        /* \"contracts/Gym_Contact.sol\":1103:1108  _name */\n      dup5\n        /* \"contracts/Gym_Contact.sol\":1110:1116  _value */\n      dup5\n        /* \"contracts/Gym_Contact.sol\":1081:1117  ClassCreated(counter, _name, _value) */\n      mload(0x40)\n      tag_53\n      swap4\n      swap3\n      swap2\n      swap1\n      tag_41\n      jump\t// in\n    tag_53:\n      mload(0x40)\n      dup1\n      swap2\n      sub\n      swap1\n      log1\n        /* \"contracts/Gym_Contact.sol\":1128:1138  classCount */\n      0x02\n        /* \"contracts/Gym_Contact.sol\":1128:1150  classCount[msg.sender] */\n      0x00\n        /* \"contracts/Gym_Contact.sol\":1139:1149  msg.sender */\n      caller\n        /* \"contracts/Gym_Contact.sol\":1128:1150  classCount[msg.sender] */\n      0xffffffffffffffffffffffffffffffffffffffff\n      and\n      0xffffffffffffffffffffffffffffffffffffffff\n      and\n      dup2\n      mstore\n      0x20\n      add\n      swap1\n      dup2\n      mstore\n      0x20\n      add\n      0x00\n      keccak256\n      0x00\n        /* \"contracts/Gym_Contact.sol\":1128:1152  classCount[msg.sender]++ */\n      dup2\n      sload\n      dup1\n      swap3\n      swap2\n      swap1\n      tag_54\n      swap1\n      tag_55\n      jump\t// in\n    tag_54:\n      swap2\n      swap1\n      pop\n      sstore\n      pop\n        /* \"contracts/Gym_Contact.sol\":866:1160  {\r... */\n      pop\n        /* \"contracts/Gym_Contact.sol\":804:1160  function createClass(string memory _name, uint _value) public {\r... */\n      pop\n      pop\n      jump\t// out\n        /* \"contracts/Gym_Contact.sol\":1198:1584  function register(address _address, uint _credits) public {\r... */\n    tag_27:\n        /* \"contracts/Gym_Contact.sol\":1399:1400  0 */\n      0x00\n        /* \"contracts/Gym_Contact.sol\":1378:1383  users */\n      dup1\n        /* \"contracts/Gym_Contact.sol\":1378:1395  users[msg.sender] */\n      0x00\n        /* \"contracts/Gym_Contact.sol\":1384:1394  msg.sender */\n      caller\n        /* \"contracts/Gym_Contact.sol\":1378:1395  users[msg.sender] */\n      0xffffffffffffffffffffffffffffffffffffffff\n      and\n      0xffffffffffffffffffffffffffffffffffffffff\n      and\n      dup2\n      mstore\n      0x20\n      add\n      swap1\n      dup2\n      mstore\n      0x20\n      add\n      0x00\n      keccak256\n      sload\n        /* \"contracts/Gym_Contact.sol\":1378:1400  users[msg.sender] == 0 */\n      eq\n        /* \"contracts/Gym_Contact.sol\":1370:1442  require(users[msg.sender] == 0, \"Ya te encuentras registrado en el gym\") */\n      tag_57\n      jumpi\n      mload(0x40)\n      0x08c379a000000000000000000000000000000000000000000000000000000000\n      dup2\n      mstore\n      0x04\n      add\n      tag_58\n      swap1\n      tag_59\n      jump\t// in\n    tag_58:\n      mload(0x40)\n      dup1\n      swap2\n      sub\n      swap1\n      revert\n    tag_57:\n        /* \"contracts/Gym_Contact.sol\":1473:1481  _credits */\n      dup1\n        /* \"contracts/Gym_Contact.sol\":1453:1458  users */\n      0x00\n        /* \"contracts/Gym_Contact.sol\":1453:1470  users[msg.sender] */\n      dup1\n        /* \"contracts/Gym_Contact.sol\":1459:1469  msg.sender */\n      caller\n        /* \"contracts/Gym_Contact.sol\":1453:1470  users[msg.sender] */\n      0xffffffffffffffffffffffffffffffffffffffff\n      and\n      0xffffffffffffffffffffffffffffffffffffffff\n      and\n      dup2\n      mstore\n      0x20\n      add\n      swap1\n      dup2\n      mstore\n      0x20\n      add\n      0x00\n      keccak256\n        /* \"contracts/Gym_Contact.sol\":1453:1481  users[msg.sender] = _credits */\n      dup2\n      swap1\n      sstore\n      pop\n        /* \"contracts/Gym_Contact.sol\":1497:1525  Register(_address, _credits) */\n      0x7dc6ab80cc84c043b7b8d4fcafc802187470087f7ea7fccd2e17aecd0256a1\n        /* \"contracts/Gym_Contact.sol\":1506:1514  _address */\n      dup3\n        /* \"contracts/Gym_Contact.sol\":1516:1524  _credits */\n      dup3\n        /* \"contracts/Gym_Contact.sol\":1497:1525  Register(_address, _credits) */\n      mload(0x40)\n      tag_60\n      swap3\n      swap2\n      swap1\n      tag_15\n      jump\t// in\n    tag_60:\n      mload(0x40)\n      dup1\n      swap2\n      sub\n      swap1\n      log1\n        /* \"contracts/Gym_Contact.sol\":1198:1584  function register(address _address, uint _credits) public {\r... */\n      pop\n      pop\n      jump\t// out\n        /* \"contracts/Gym_Contact.sol\":697:739  mapping(address => uint) public classCount */\n    tag_31:\n      mstore(0x20, 0x02)\n      dup1\n      0x00\n      mstore\n      keccak256(0x00, 0x40)\n      0x00\n      swap2\n      pop\n      swap1\n      pop\n      sload\n      dup2\n      jump\t// out\n        /* \"contracts/Gym_Contact.sol\":500:537  mapping(address => uint) public users */\n    tag_36:\n      mstore(0x20, 0x00)\n      dup1\n      0x00\n      mstore\n      keccak256(0x00, 0x40)\n      0x00\n      swap2\n      pop\n      swap1\n      pop\n      sload\n      dup2\n      jump\t// out\n        /* \"contracts/Gym_Contact.sol\":746:764  Class public class */\n    tag_39:\n      0x03\n      dup1\n      0x00\n      add\n      sload\n      swap1\n      dup1\n      0x01\n      add\n      dup1\n      sload\n      tag_61\n      swap1\n      tag_62\n      jump\t// in\n    tag_61:\n      dup1\n      0x1f\n      add\n      0x20\n      dup1\n      swap2\n      div\n      mul\n      0x20\n      add\n      mload(0x40)\n      swap1\n      dup2\n      add\n      0x40\n      mstore\n      dup1\n      swap3\n      swap2\n      swap1\n      dup2\n      dup2\n      mstore\n      0x20\n      add\n      dup3\n      dup1\n      sload\n      tag_63\n      swap1\n      tag_62\n      jump\t// in\n    tag_63:\n      dup1\n      iszero\n      tag_64\n      jumpi\n      dup1\n      0x1f\n      lt\n      tag_65\n      jumpi\n      0x0100\n      dup1\n      dup4\n      sload\n      div\n      mul\n      dup4\n      mstore\n      swap2\n      0x20\n      add\n      swap2\n      jump(tag_64)\n    tag_65:\n      dup3\n      add\n      swap2\n      swap1\n      0x00\n      mstore\n      keccak256(0x00, 0x20)\n      swap1\n    tag_66:\n      dup2\n      sload\n      dup2\n      mstore\n      swap1\n      0x01\n      add\n      swap1\n      0x20\n      add\n      dup1\n      dup4\n      gt\n      tag_66\n      jumpi\n      dup3\n      swap1\n      sub\n      0x1f\n      and\n      dup3\n      add\n      swap2\n    tag_64:\n      pop\n      pop\n      pop\n      pop\n      pop\n      swap1\n      dup1\n      0x02\n      add\n      sload\n      swap1\n      pop\n      dup4\n      jump\t// out\n        /* \"contracts/Gym_Contact.sol\":591:646  mapping(address =>mapping(uint => Class)) public clases */\n    tag_44:\n      mstore(0x20, 0x01)\n      dup2\n      0x00\n      mstore\n      mstore(0x20, keccak256(0x00, 0x40))\n      dup1\n      0x00\n      mstore\n      keccak256(0x00, 0x40)\n      0x00\n      swap2\n      pop\n      swap2\n      pop\n      pop\n      dup1\n      0x00\n      add\n      sload\n      swap1\n      dup1\n      0x01\n      add\n      dup1\n      sload\n      tag_67\n      swap1\n      tag_62\n      jump\t// in\n    tag_67:\n      dup1\n      0x1f\n      add\n      0x20\n      dup1\n      swap2\n      div\n      mul\n      0x20\n      add\n      mload(0x40)\n      swap1\n      dup2\n      add\n      0x40\n      mstore\n      dup1\n      swap3\n      swap2\n      swap1\n      dup2\n      dup2\n      mstore\n      0x20\n      add\n      dup3\n      dup1\n      sload\n      tag_68\n      swap1\n      tag_62\n      jump\t// in\n    tag_68:\n      dup1\n      iszero\n      tag_69\n      jumpi\n      dup1\n      0x1f\n      lt\n      tag_70\n      jumpi\n      0x0100\n      dup1\n      dup4\n      sload\n      div\n      mul\n      dup4\n      mstore\n      swap2\n      0x20\n      add\n      swap2\n      jump(tag_69)\n    tag_70:\n      dup3\n      add\n      swap2\n      swap1\n      0x00\n      mstore\n      keccak256(0x00, 0x20)\n      swap1\n    tag_71:\n      dup2\n      sload\n      dup2\n      mstore\n      swap1\n      0x01\n      add\n      swap1\n      0x20\n      add\n      dup1\n      dup4\n      gt\n      tag_71\n      jumpi\n      dup3\n      swap1\n      sub\n      0x1f\n      and\n      dup3\n      add\n      swap2\n    tag_69:\n      pop\n      pop\n      pop\n      pop\n      pop\n      swap1\n      dup1\n      0x02\n      add\n      sload\n      swap1\n      pop\n      dup4\n      jump\t// out\n    tag_52:\n      dup3\n      dup1\n      sload\n      tag_72\n      swap1\n      tag_62\n      jump\t// in\n    tag_72:\n      swap1\n      0x00\n      mstore\n      keccak256(0x00, 0x20)\n      swap1\n      0x1f\n      add\n      0x20\n      swap1\n      div\n      dup2\n      add\n      swap3\n      dup3\n      tag_74\n      jumpi\n      0x00\n      dup6\n      sstore\n      jump(tag_73)\n    tag_74:\n      dup3\n      0x1f\n      lt\n      tag_75\n      jumpi\n      dup1\n      mload\n      not(0xff)\n      and\n      dup4\n      dup1\n      add\n      or\n      dup6\n      sstore\n      jump(tag_73)\n    tag_75:\n      dup3\n      dup1\n      add\n      0x01\n      add\n      dup6\n      sstore\n      dup3\n      iszero\n      tag_73\n      jumpi\n      swap2\n      dup3\n      add\n    tag_76:\n      dup3\n      dup2\n      gt\n      iszero\n      tag_77\n      jumpi\n      dup3\n      mload\n      dup3\n      sstore\n      swap2\n      0x20\n      add\n      swap2\n      swap1\n      0x01\n      add\n      swap1\n      jump(tag_76)\n    tag_77:\n    tag_73:\n      pop\n      swap1\n      pop\n      tag_78\n      swap2\n      swap1\n      tag_79\n      jump\t// in\n    tag_78:\n      pop\n      swap1\n      jump\t// out\n    tag_79:\n    tag_80:\n      dup1\n      dup3\n      gt\n      iszero\n      tag_81\n      jumpi\n      0x00\n      dup2\n      0x00\n      swap1\n      sstore\n      pop\n      0x01\n      add\n      jump(tag_80)\n    tag_81:\n      pop\n      swap1\n      jump\t// out\n        /* \"#utility.yul\":7:419   */\n    tag_83:\n        /* \"#utility.yul\":85:90   */\n      0x00\n        /* \"#utility.yul\":110:176   */\n      tag_85\n        /* \"#utility.yul\":126:175   */\n      tag_86\n        /* \"#utility.yul\":168:174   */\n      dup5\n        /* \"#utility.yul\":126:175   */\n      tag_87\n      jump\t// in\n    tag_86:\n        /* \"#utility.yul\":110:176   */\n      tag_88\n      jump\t// in\n    tag_85:\n        /* \"#utility.yul\":101:176   */\n      swap1\n      pop\n        /* \"#utility.yul\":199:205   */\n      dup3\n        /* \"#utility.yul\":192:197   */\n      dup2\n        /* \"#utility.yul\":185:206   */\n      mstore\n        /* \"#utility.yul\":237:241   */\n      0x20\n        /* \"#utility.yul\":230:235   */\n      dup2\n        /* \"#utility.yul\":226:242   */\n      add\n        /* \"#utility.yul\":275:278   */\n      dup5\n        /* \"#utility.yul\":266:272   */\n      dup5\n        /* \"#utility.yul\":261:264   */\n      dup5\n        /* \"#utility.yul\":257:273   */\n      add\n        /* \"#utility.yul\":254:279   */\n      gt\n        /* \"#utility.yul\":251:363   */\n      iszero\n      tag_89\n      jumpi\n        /* \"#utility.yul\":282:361   */\n      tag_90\n      tag_91\n      jump\t// in\n    tag_90:\n        /* \"#utility.yul\":251:363   */\n    tag_89:\n        /* \"#utility.yul\":372:413   */\n      tag_92\n        /* \"#utility.yul\":406:412   */\n      dup5\n        /* \"#utility.yul\":401:404   */\n      dup3\n        /* \"#utility.yul\":396:399   */\n      dup6\n        /* \"#utility.yul\":372:413   */\n      tag_93\n      jump\t// in\n    tag_92:\n        /* \"#utility.yul\":91:419   */\n      pop\n        /* \"#utility.yul\":7:419   */\n      swap4\n      swap3\n      pop\n      pop\n      pop\n      jump\t// out\n        /* \"#utility.yul\":425:564   */\n    tag_94:\n        /* \"#utility.yul\":471:476   */\n      0x00\n        /* \"#utility.yul\":509:515   */\n      dup2\n        /* \"#utility.yul\":496:516   */\n      calldataload\n        /* \"#utility.yul\":487:516   */\n      swap1\n      pop\n        /* \"#utility.yul\":525:558   */\n      tag_96\n        /* \"#utility.yul\":552:557   */\n      dup2\n        /* \"#utility.yul\":525:558   */\n      tag_97\n      jump\t// in\n    tag_96:\n        /* \"#utility.yul\":425:564   */\n      swap3\n      swap2\n      pop\n      pop\n      jump\t// out\n        /* \"#utility.yul\":584:924   */\n    tag_98:\n        /* \"#utility.yul\":640:645   */\n      0x00\n        /* \"#utility.yul\":689:692   */\n      dup3\n        /* \"#utility.yul\":682:686   */\n      0x1f\n        /* \"#utility.yul\":674:680   */\n      dup4\n        /* \"#utility.yul\":670:687   */\n      add\n        /* \"#utility.yul\":666:693   */\n      slt\n        /* \"#utility.yul\":656:778   */\n      tag_100\n      jumpi\n        /* \"#utility.yul\":697:776   */\n      tag_101\n      tag_102\n      jump\t// in\n    tag_101:\n        /* \"#utility.yul\":656:778   */\n    tag_100:\n        /* \"#utility.yul\":814:820   */\n      dup2\n        /* \"#utility.yul\":801:821   */\n      calldataload\n        /* \"#utility.yul\":839:918   */\n      tag_103\n        /* \"#utility.yul\":914:917   */\n      dup5\n        /* \"#utility.yul\":906:912   */\n      dup3\n        /* \"#utility.yul\":899:903   */\n      0x20\n        /* \"#utility.yul\":891:897   */\n      dup7\n        /* \"#utility.yul\":887:904   */\n      add\n        /* \"#utility.yul\":839:918   */\n      tag_83\n      jump\t// in\n    tag_103:\n        /* \"#utility.yul\":830:918   */\n      swap2\n      pop\n        /* \"#utility.yul\":646:924   */\n      pop\n        /* \"#utility.yul\":584:924   */\n      swap3\n      swap2\n      pop\n      pop\n      jump\t// out\n        /* \"#utility.yul\":930:1069   */\n    tag_104:\n        /* \"#utility.yul\":976:981   */\n      0x00\n        /* \"#utility.yul\":1014:1020   */\n      dup2\n        /* \"#utility.yul\":1001:1021   */\n      calldataload\n        /* \"#utility.yul\":992:1021   */\n      swap1\n      pop\n        /* \"#utility.yul\":1030:1063   */\n      tag_106\n        /* \"#utility.yul\":1057:1062   */\n      dup2\n        /* \"#utility.yul\":1030:1063   */\n      tag_107\n      jump\t// in\n    tag_106:\n        /* \"#utility.yul\":930:1069   */\n      swap3\n      swap2\n      pop\n      pop\n      jump\t// out\n        /* \"#utility.yul\":1075:1404   */\n    tag_30:\n        /* \"#utility.yul\":1134:1140   */\n      0x00\n        /* \"#utility.yul\":1183:1185   */\n      0x20\n        /* \"#utility.yul\":1171:1180   */\n      dup3\n        /* \"#utility.yul\":1162:1169   */\n      dup5\n        /* \"#utility.yul\":1158:1181   */\n      sub\n        /* \"#utility.yul\":1154:1186   */\n      slt\n        /* \"#utility.yul\":1151:1270   */\n      iszero\n      tag_109\n      jumpi\n        /* \"#utility.yul\":1189:1268   */\n      tag_110\n      tag_111\n      jump\t// in\n    tag_110:\n        /* \"#utility.yul\":1151:1270   */\n    tag_109:\n        /* \"#utility.yul\":1309:1310   */\n      0x00\n        /* \"#utility.yul\":1334:1387   */\n      tag_112\n        /* \"#utility.yul\":1379:1386   */\n      dup5\n        /* \"#utility.yul\":1370:1376   */\n      dup3\n        /* \"#utility.yul\":1359:1368   */\n      dup6\n        /* \"#utility.yul\":1355:1377   */\n      add\n        /* \"#utility.yul\":1334:1387   */\n      tag_94\n      jump\t// in\n    tag_112:\n        /* \"#utility.yul\":1324:1387   */\n      swap2\n      pop\n        /* \"#utility.yul\":1280:1397   */\n      pop\n        /* \"#utility.yul\":1075:1404   */\n      swap3\n      swap2\n      pop\n      pop\n      jump\t// out\n        /* \"#utility.yul\":1410:1884   */\n    tag_26:\n        /* \"#utility.yul\":1478:1484   */\n      0x00\n        /* \"#utility.yul\":1486:1492   */\n      dup1\n        /* \"#utility.yul\":1535:1537   */\n      0x40\n        /* \"#utility.yul\":1523:1532   */\n      dup4\n        /* \"#utility.yul\":1514:1521   */\n      dup6\n        /* \"#utility.yul\":1510:1533   */\n      sub\n        /* \"#utility.yul\":1506:1538   */\n      slt\n        /* \"#utility.yul\":1503:1622   */\n      iszero\n      tag_114\n      jumpi\n        /* \"#utility.yul\":1541:1620   */\n      tag_115\n      tag_111\n      jump\t// in\n    tag_115:\n        /* \"#utility.yul\":1503:1622   */\n    tag_114:\n        /* \"#utility.yul\":1661:1662   */\n      0x00\n        /* \"#utility.yul\":1686:1739   */\n      tag_116\n        /* \"#utility.yul\":1731:1738   */\n      dup6\n        /* \"#utility.yul\":1722:1728   */\n      dup3\n        /* \"#utility.yul\":1711:1720   */\n      dup7\n        /* \"#utility.yul\":1707:1729   */\n      add\n        /* \"#utility.yul\":1686:1739   */\n      tag_94\n      jump\t// in\n    tag_116:\n        /* \"#utility.yul\":1676:1739   */\n      swap3\n      pop\n        /* \"#utility.yul\":1632:1749   */\n      pop\n        /* \"#utility.yul\":1788:1790   */\n      0x20\n        /* \"#utility.yul\":1814:1867   */\n      tag_117\n        /* \"#utility.yul\":1859:1866   */\n      dup6\n        /* \"#utility.yul\":1850:1856   */\n      dup3\n        /* \"#utility.yul\":1839:1848   */\n      dup7\n        /* \"#utility.yul\":1835:1857   */\n      add\n        /* \"#utility.yul\":1814:1867   */\n      tag_104\n      jump\t// in\n    tag_117:\n        /* \"#utility.yul\":1804:1867   */\n      swap2\n      pop\n        /* \"#utility.yul\":1759:1877   */\n      pop\n        /* \"#utility.yul\":1410:1884   */\n      swap3\n      pop\n      swap3\n      swap1\n      pop\n      jump\t// out\n        /* \"#utility.yul\":1890:2544   */\n    tag_22:\n        /* \"#utility.yul\":1968:1974   */\n      0x00\n        /* \"#utility.yul\":1976:1982   */\n      dup1\n        /* \"#utility.yul\":2025:2027   */\n      0x40\n        /* \"#utility.yul\":2013:2022   */\n      dup4\n        /* \"#utility.yul\":2004:2011   */\n      dup6\n        /* \"#utility.yul\":2000:2023   */\n      sub\n        /* \"#utility.yul\":1996:2028   */\n      slt\n        /* \"#utility.yul\":1993:2112   */\n      iszero\n      tag_119\n      jumpi\n        /* \"#utility.yul\":2031:2110   */\n      tag_120\n      tag_111\n      jump\t// in\n    tag_120:\n        /* \"#utility.yul\":1993:2112   */\n    tag_119:\n        /* \"#utility.yul\":2179:2180   */\n      0x00\n        /* \"#utility.yul\":2168:2177   */\n      dup4\n        /* \"#utility.yul\":2164:2181   */\n      add\n        /* \"#utility.yul\":2151:2182   */\n      calldataload\n        /* \"#utility.yul\":2209:2227   */\n      0xffffffffffffffff\n        /* \"#utility.yul\":2201:2207   */\n      dup2\n        /* \"#utility.yul\":2198:2228   */\n      gt\n        /* \"#utility.yul\":2195:2312   */\n      iszero\n      tag_121\n      jumpi\n        /* \"#utility.yul\":2231:2310   */\n      tag_122\n      tag_123\n      jump\t// in\n    tag_122:\n        /* \"#utility.yul\":2195:2312   */\n    tag_121:\n        /* \"#utility.yul\":2336:2399   */\n      tag_124\n        /* \"#utility.yul\":2391:2398   */\n      dup6\n        /* \"#utility.yul\":2382:2388   */\n      dup3\n        /* \"#utility.yul\":2371:2380   */\n      dup7\n        /* \"#utility.yul\":2367:2389   */\n      add\n        /* \"#utility.yul\":2336:2399   */\n      tag_98\n      jump\t// in\n    tag_124:\n        /* \"#utility.yul\":2326:2399   */\n      swap3\n      pop\n        /* \"#utility.yul\":2122:2409   */\n      pop\n        /* \"#utility.yul\":2448:2450   */\n      0x20\n        /* \"#utility.yul\":2474:2527   */\n      tag_125\n        /* \"#utility.yul\":2519:2526   */\n      dup6\n        /* \"#utility.yul\":2510:2516   */\n      dup3\n        /* \"#utility.yul\":2499:2508   */\n      dup7\n        /* \"#utility.yul\":2495:2517   */\n      add\n        /* \"#utility.yul\":2474:2527   */\n      tag_104\n      jump\t// in\n    tag_125:\n        /* \"#utility.yul\":2464:2527   */\n      swap2\n      pop\n        /* \"#utility.yul\":2419:2537   */\n      pop\n        /* \"#utility.yul\":1890:2544   */\n      swap3\n      pop\n      swap3\n      swap1\n      pop\n      jump\t// out\n        /* \"#utility.yul\":2550:2668   */\n    tag_126:\n        /* \"#utility.yul\":2637:2661   */\n      tag_128\n        /* \"#utility.yul\":2655:2660   */\n      dup2\n        /* \"#utility.yul\":2637:2661   */\n      tag_129\n      jump\t// in\n    tag_128:\n        /* \"#utility.yul\":2632:2635   */\n      dup3\n        /* \"#utility.yul\":2625:2662   */\n      mstore\n        /* \"#utility.yul\":2550:2668   */\n      pop\n      pop\n      jump\t// out\n        /* \"#utility.yul\":2674:3038   */\n    tag_130:\n        /* \"#utility.yul\":2762:2765   */\n      0x00\n        /* \"#utility.yul\":2790:2829   */\n      tag_132\n        /* \"#utility.yul\":2823:2828   */\n      dup3\n        /* \"#utility.yul\":2790:2829   */\n      tag_133\n      jump\t// in\n    tag_132:\n        /* \"#utility.yul\":2845:2916   */\n      tag_134\n        /* \"#utility.yul\":2909:2915   */\n      dup2\n        /* \"#utility.yul\":2904:2907   */\n      dup6\n        /* \"#utility.yul\":2845:2916   */\n      tag_135\n      jump\t// in\n    tag_134:\n        /* \"#utility.yul\":2838:2916   */\n      swap4\n      pop\n        /* \"#utility.yul\":2925:2977   */\n      tag_136\n        /* \"#utility.yul\":2970:2976   */\n      dup2\n        /* \"#utility.yul\":2965:2968   */\n      dup6\n        /* \"#utility.yul\":2958:2962   */\n      0x20\n        /* \"#utility.yul\":2951:2956   */\n      dup7\n        /* \"#utility.yul\":2947:2963   */\n      add\n        /* \"#utility.yul\":2925:2977   */\n      tag_137\n      jump\t// in\n    tag_136:\n        /* \"#utility.yul\":3002:3031   */\n      tag_138\n        /* \"#utility.yul\":3024:3030   */\n      dup2\n        /* \"#utility.yul\":3002:3031   */\n      tag_139\n      jump\t// in\n    tag_138:\n        /* \"#utility.yul\":2997:3000   */\n      dup5\n        /* \"#utility.yul\":2993:3032   */\n      add\n        /* \"#utility.yul\":2986:3032   */\n      swap2\n      pop\n        /* \"#utility.yul\":2766:3038   */\n      pop\n        /* \"#utility.yul\":2674:3038   */\n      swap3\n      swap2\n      pop\n      pop\n      jump\t// out\n        /* \"#utility.yul\":3044:3410   */\n    tag_140:\n        /* \"#utility.yul\":3186:3189   */\n      0x00\n        /* \"#utility.yul\":3207:3274   */\n      tag_142\n        /* \"#utility.yul\":3271:3273   */\n      0x25\n        /* \"#utility.yul\":3266:3269   */\n      dup4\n        /* \"#utility.yul\":3207:3274   */\n      tag_135\n      jump\t// in\n    tag_142:\n        /* \"#utility.yul\":3200:3274   */\n      swap2\n      pop\n        /* \"#utility.yul\":3283:3376   */\n      tag_143\n        /* \"#utility.yul\":3372:3375   */\n      dup3\n        /* \"#utility.yul\":3283:3376   */\n      tag_144\n      jump\t// in\n    tag_143:\n        /* \"#utility.yul\":3401:3403   */\n      0x40\n        /* \"#utility.yul\":3396:3399   */\n      dup3\n        /* \"#utility.yul\":3392:3404   */\n      add\n        /* \"#utility.yul\":3385:3404   */\n      swap1\n      pop\n        /* \"#utility.yul\":3044:3410   */\n      swap2\n      swap1\n      pop\n      jump\t// out\n        /* \"#utility.yul\":3416:3782   */\n    tag_145:\n        /* \"#utility.yul\":3558:3561   */\n      0x00\n        /* \"#utility.yul\":3579:3646   */\n      tag_147\n        /* \"#utility.yul\":3643:3645   */\n      0x30\n        /* \"#utility.yul\":3638:3641   */\n      dup4\n        /* \"#utility.yul\":3579:3646   */\n      tag_135\n      jump\t// in\n    tag_147:\n        /* \"#utility.yul\":3572:3646   */\n      swap2\n      pop\n        /* \"#utility.yul\":3655:3748   */\n      tag_148\n        /* \"#utility.yul\":3744:3747   */\n      dup3\n        /* \"#utility.yul\":3655:3748   */\n      tag_149\n      jump\t// in\n    tag_148:\n        /* \"#utility.yul\":3773:3775   */\n      0x40\n        /* \"#utility.yul\":3768:3771   */\n      dup3\n        /* \"#utility.yul\":3764:3776   */\n      add\n        /* \"#utility.yul\":3757:3776   */\n      swap1\n      pop\n        /* \"#utility.yul\":3416:3782   */\n      swap2\n      swap1\n      pop\n      jump\t// out\n        /* \"#utility.yul\":3788:3906   */\n    tag_150:\n        /* \"#utility.yul\":3875:3899   */\n      tag_152\n        /* \"#utility.yul\":3893:3898   */\n      dup2\n        /* \"#utility.yul\":3875:3899   */\n      tag_153\n      jump\t// in\n    tag_152:\n        /* \"#utility.yul\":3870:3873   */\n      dup3\n        /* \"#utility.yul\":3863:3900   */\n      mstore\n        /* \"#utility.yul\":3788:3906   */\n      pop\n      pop\n      jump\t// out\n        /* \"#utility.yul\":3912:4134   */\n    tag_19:\n        /* \"#utility.yul\":4005:4009   */\n      0x00\n        /* \"#utility.yul\":4043:4045   */\n      0x20\n        /* \"#utility.yul\":4032:4041   */\n      dup3\n        /* \"#utility.yul\":4028:4046   */\n      add\n        /* \"#utility.yul\":4020:4046   */\n      swap1\n      pop\n        /* \"#utility.yul\":4056:4127   */\n      tag_155\n        /* \"#utility.yul\":4124:4125   */\n      0x00\n        /* \"#utility.yul\":4113:4122   */\n      dup4\n        /* \"#utility.yul\":4109:4126   */\n      add\n        /* \"#utility.yul\":4100:4106   */\n      dup5\n        /* \"#utility.yul\":4056:4127   */\n      tag_126\n      jump\t// in\n    tag_155:\n        /* \"#utility.yul\":3912:4134   */\n      swap3\n      swap2\n      pop\n      pop\n      jump\t// out\n        /* \"#utility.yul\":4140:4472   */\n    tag_15:\n        /* \"#utility.yul\":4261:4265   */\n      0x00\n        /* \"#utility.yul\":4299:4301   */\n      0x40\n        /* \"#utility.yul\":4288:4297   */\n      dup3\n        /* \"#utility.yul\":4284:4302   */\n      add\n        /* \"#utility.yul\":4276:4302   */\n      swap1\n      pop\n        /* \"#utility.yul\":4312:4383   */\n      tag_157\n        /* \"#utility.yul\":4380:4381   */\n      0x00\n        /* \"#utility.yul\":4369:4378   */\n      dup4\n        /* \"#utility.yul\":4365:4382   */\n      add\n        /* \"#utility.yul\":4356:4362   */\n      dup6\n        /* \"#utility.yul\":4312:4383   */\n      tag_126\n      jump\t// in\n    tag_157:\n        /* \"#utility.yul\":4393:4465   */\n      tag_158\n        /* \"#utility.yul\":4461:4463   */\n      0x20\n        /* \"#utility.yul\":4450:4459   */\n      dup4\n        /* \"#utility.yul\":4446:4464   */\n      add\n        /* \"#utility.yul\":4437:4443   */\n      dup5\n        /* \"#utility.yul\":4393:4465   */\n      tag_150\n      jump\t// in\n    tag_158:\n        /* \"#utility.yul\":4140:4472   */\n      swap4\n      swap3\n      pop\n      pop\n      pop\n      jump\t// out\n        /* \"#utility.yul\":4478:4897   */\n    tag_59:\n        /* \"#utility.yul\":4644:4648   */\n      0x00\n        /* \"#utility.yul\":4682:4684   */\n      0x20\n        /* \"#utility.yul\":4671:4680   */\n      dup3\n        /* \"#utility.yul\":4667:4685   */\n      add\n        /* \"#utility.yul\":4659:4685   */\n      swap1\n      pop\n        /* \"#utility.yul\":4731:4740   */\n      dup2\n        /* \"#utility.yul\":4725:4729   */\n      dup2\n        /* \"#utility.yul\":4721:4741   */\n      sub\n        /* \"#utility.yul\":4717:4718   */\n      0x00\n        /* \"#utility.yul\":4706:4715   */\n      dup4\n        /* \"#utility.yul\":4702:4719   */\n      add\n        /* \"#utility.yul\":4695:4742   */\n      mstore\n        /* \"#utility.yul\":4759:4890   */\n      tag_160\n        /* \"#utility.yul\":4885:4889   */\n      dup2\n        /* \"#utility.yul\":4759:4890   */\n      tag_140\n      jump\t// in\n    tag_160:\n        /* \"#utility.yul\":4751:4890   */\n      swap1\n      pop\n        /* \"#utility.yul\":4478:4897   */\n      swap2\n      swap1\n      pop\n      jump\t// out\n        /* \"#utility.yul\":4903:5322   */\n    tag_50:\n        /* \"#utility.yul\":5069:5073   */\n      0x00\n        /* \"#utility.yul\":5107:5109   */\n      0x20\n        /* \"#utility.yul\":5096:5105   */\n      dup3\n        /* \"#utility.yul\":5092:5110   */\n      add\n        /* \"#utility.yul\":5084:5110   */\n      swap1\n      pop\n        /* \"#utility.yul\":5156:5165   */\n      dup2\n        /* \"#utility.yul\":5150:5154   */\n      dup2\n        /* \"#utility.yul\":5146:5166   */\n      sub\n        /* \"#utility.yul\":5142:5143   */\n      0x00\n        /* \"#utility.yul\":5131:5140   */\n      dup4\n        /* \"#utility.yul\":5127:5144   */\n      add\n        /* \"#utility.yul\":5120:5167   */\n      mstore\n        /* \"#utility.yul\":5184:5315   */\n      tag_162\n        /* \"#utility.yul\":5310:5314   */\n      dup2\n        /* \"#utility.yul\":5184:5315   */\n      tag_145\n      jump\t// in\n    tag_162:\n        /* \"#utility.yul\":5176:5315   */\n      swap1\n      pop\n        /* \"#utility.yul\":4903:5322   */\n      swap2\n      swap1\n      pop\n      jump\t// out\n        /* \"#utility.yul\":5328:5550   */\n    tag_33:\n        /* \"#utility.yul\":5421:5425   */\n      0x00\n        /* \"#utility.yul\":5459:5461   */\n      0x20\n        /* \"#utility.yul\":5448:5457   */\n      dup3\n        /* \"#utility.yul\":5444:5462   */\n      add\n        /* \"#utility.yul\":5436:5462   */\n      swap1\n      pop\n        /* \"#utility.yul\":5472:5543   */\n      tag_164\n        /* \"#utility.yul\":5540:5541   */\n      0x00\n        /* \"#utility.yul\":5529:5538   */\n      dup4\n        /* \"#utility.yul\":5525:5542   */\n      add\n        /* \"#utility.yul\":5516:5522   */\n      dup5\n        /* \"#utility.yul\":5472:5543   */\n      tag_150\n      jump\t// in\n    tag_164:\n        /* \"#utility.yul\":5328:5550   */\n      swap3\n      swap2\n      pop\n      pop\n      jump\t// out\n        /* \"#utility.yul\":5556:6089   */\n    tag_41:\n        /* \"#utility.yul\":5725:5729   */\n      0x00\n        /* \"#utility.yul\":5763:5765   */\n      0x60\n        /* \"#utility.yul\":5752:5761   */\n      dup3\n        /* \"#utility.yul\":5748:5766   */\n      add\n        /* \"#utility.yul\":5740:5766   */\n      swap1\n      pop\n        /* \"#utility.yul\":5776:5847   */\n      tag_166\n        /* \"#utility.yul\":5844:5845   */\n      0x00\n        /* \"#utility.yul\":5833:5842   */\n      dup4\n        /* \"#utility.yul\":5829:5846   */\n      add\n        /* \"#utility.yul\":5820:5826   */\n      dup7\n        /* \"#utility.yul\":5776:5847   */\n      tag_150\n      jump\t// in\n    tag_166:\n        /* \"#utility.yul\":5894:5903   */\n      dup2\n        /* \"#utility.yul\":5888:5892   */\n      dup2\n        /* \"#utility.yul\":5884:5904   */\n      sub\n        /* \"#utility.yul\":5879:5881   */\n      0x20\n        /* \"#utility.yul\":5868:5877   */\n      dup4\n        /* \"#utility.yul\":5864:5882   */\n      add\n        /* \"#utility.yul\":5857:5905   */\n      mstore\n        /* \"#utility.yul\":5922:6000   */\n      tag_167\n        /* \"#utility.yul\":5995:5999   */\n      dup2\n        /* \"#utility.yul\":5986:5992   */\n      dup6\n        /* \"#utility.yul\":5922:6000   */\n      tag_130\n      jump\t// in\n    tag_167:\n        /* \"#utility.yul\":5914:6000   */\n      swap1\n      pop\n        /* \"#utility.yul\":6010:6082   */\n      tag_168\n        /* \"#utility.yul\":6078:6080   */\n      0x40\n        /* \"#utility.yul\":6067:6076   */\n      dup4\n        /* \"#utility.yul\":6063:6081   */\n      add\n        /* \"#utility.yul\":6054:6060   */\n      dup5\n        /* \"#utility.yul\":6010:6082   */\n      tag_150\n      jump\t// in\n    tag_168:\n        /* \"#utility.yul\":5556:6089   */\n      swap5\n      swap4\n      pop\n      pop\n      pop\n      pop\n      jump\t// out\n        /* \"#utility.yul\":6095:6224   */\n    tag_88:\n        /* \"#utility.yul\":6129:6135   */\n      0x00\n        /* \"#utility.yul\":6156:6176   */\n      tag_170\n      tag_171\n      jump\t// in\n    tag_170:\n        /* \"#utility.yul\":6146:6176   */\n      swap1\n      pop\n        /* \"#utility.yul\":6185:6218   */\n      tag_172\n        /* \"#utility.yul\":6213:6217   */\n      dup3\n        /* \"#utility.yul\":6205:6211   */\n      dup3\n        /* \"#utility.yul\":6185:6218   */\n      tag_173\n      jump\t// in\n    tag_172:\n        /* \"#utility.yul\":6095:6224   */\n      swap2\n      swap1\n      pop\n      jump\t// out\n        /* \"#utility.yul\":6230:6305   */\n    tag_171:\n        /* \"#utility.yul\":6263:6269   */\n      0x00\n        /* \"#utility.yul\":6296:6298   */\n      0x40\n        /* \"#utility.yul\":6290:6299   */\n      mload\n        /* \"#utility.yul\":6280:6299   */\n      swap1\n      pop\n        /* \"#utility.yul\":6230:6305   */\n      swap1\n      jump\t// out\n        /* \"#utility.yul\":6311:6619   */\n    tag_87:\n        /* \"#utility.yul\":6373:6377   */\n      0x00\n        /* \"#utility.yul\":6463:6481   */\n      0xffffffffffffffff\n        /* \"#utility.yul\":6455:6461   */\n      dup3\n        /* \"#utility.yul\":6452:6482   */\n      gt\n        /* \"#utility.yul\":6449:6505   */\n      iszero\n      tag_176\n      jumpi\n        /* \"#utility.yul\":6485:6503   */\n      tag_177\n      tag_178\n      jump\t// in\n    tag_177:\n        /* \"#utility.yul\":6449:6505   */\n    tag_176:\n        /* \"#utility.yul\":6523:6552   */\n      tag_179\n        /* \"#utility.yul\":6545:6551   */\n      dup3\n        /* \"#utility.yul\":6523:6552   */\n      tag_139\n      jump\t// in\n    tag_179:\n        /* \"#utility.yul\":6515:6552   */\n      swap1\n      pop\n        /* \"#utility.yul\":6607:6611   */\n      0x20\n        /* \"#utility.yul\":6601:6605   */\n      dup2\n        /* \"#utility.yul\":6597:6612   */\n      add\n        /* \"#utility.yul\":6589:6612   */\n      swap1\n      pop\n        /* \"#utility.yul\":6311:6619   */\n      swap2\n      swap1\n      pop\n      jump\t// out\n        /* \"#utility.yul\":6625:6724   */\n    tag_133:\n        /* \"#utility.yul\":6677:6683   */\n      0x00\n        /* \"#utility.yul\":6711:6716   */\n      dup2\n        /* \"#utility.yul\":6705:6717   */\n      mload\n        /* \"#utility.yul\":6695:6717   */\n      swap1\n      pop\n        /* \"#utility.yul\":6625:6724   */\n      swap2\n      swap1\n      pop\n      jump\t// out\n        /* \"#utility.yul\":6730:6899   */\n    tag_135:\n        /* \"#utility.yul\":6814:6825   */\n      0x00\n        /* \"#utility.yul\":6848:6854   */\n      dup3\n        /* \"#utility.yul\":6843:6846   */\n      dup3\n        /* \"#utility.yul\":6836:6855   */\n      mstore\n        /* \"#utility.yul\":6888:6892   */\n      0x20\n        /* \"#utility.yul\":6883:6886   */\n      dup3\n        /* \"#utility.yul\":6879:6893   */\n      add\n        /* \"#utility.yul\":6864:6893   */\n      swap1\n      pop\n        /* \"#utility.yul\":6730:6899   */\n      swap3\n      swap2\n      pop\n      pop\n      jump\t// out\n        /* \"#utility.yul\":6905:7001   */\n    tag_129:\n        /* \"#utility.yul\":6942:6949   */\n      0x00\n        /* \"#utility.yul\":6971:6995   */\n      tag_183\n        /* \"#utility.yul\":6989:6994   */\n      dup3\n        /* \"#utility.yul\":6971:6995   */\n      tag_184\n      jump\t// in\n    tag_183:\n        /* \"#utility.yul\":6960:6995   */\n      swap1\n      pop\n        /* \"#utility.yul\":6905:7001   */\n      swap2\n      swap1\n      pop\n      jump\t// out\n        /* \"#utility.yul\":7007:7133   */\n    tag_184:\n        /* \"#utility.yul\":7044:7051   */\n      0x00\n        /* \"#utility.yul\":7084:7126   */\n      0xffffffffffffffffffffffffffffffffffffffff\n        /* \"#utility.yul\":7077:7082   */\n      dup3\n        /* \"#utility.yul\":7073:7127   */\n      and\n        /* \"#utility.yul\":7062:7127   */\n      swap1\n      pop\n        /* \"#utility.yul\":7007:7133   */\n      swap2\n      swap1\n      pop\n      jump\t// out\n        /* \"#utility.yul\":7139:7216   */\n    tag_153:\n        /* \"#utility.yul\":7176:7183   */\n      0x00\n        /* \"#utility.yul\":7205:7210   */\n      dup2\n        /* \"#utility.yul\":7194:7210   */\n      swap1\n      pop\n        /* \"#utility.yul\":7139:7216   */\n      swap2\n      swap1\n      pop\n      jump\t// out\n        /* \"#utility.yul\":7222:7376   */\n    tag_93:\n        /* \"#utility.yul\":7306:7312   */\n      dup3\n        /* \"#utility.yul\":7301:7304   */\n      dup2\n        /* \"#utility.yul\":7296:7299   */\n      dup4\n        /* \"#utility.yul\":7283:7313   */\n      calldatacopy\n        /* \"#utility.yul\":7368:7369   */\n      0x00\n        /* \"#utility.yul\":7359:7365   */\n      dup4\n        /* \"#utility.yul\":7354:7357   */\n      dup4\n        /* \"#utility.yul\":7350:7366   */\n      add\n        /* \"#utility.yul\":7343:7370   */\n      mstore\n        /* \"#utility.yul\":7222:7376   */\n      pop\n      pop\n      pop\n      jump\t// out\n        /* \"#utility.yul\":7382:7689   */\n    tag_137:\n        /* \"#utility.yul\":7450:7451   */\n      0x00\n        /* \"#utility.yul\":7460:7573   */\n    tag_189:\n        /* \"#utility.yul\":7474:7480   */\n      dup4\n        /* \"#utility.yul\":7471:7472   */\n      dup2\n        /* \"#utility.yul\":7468:7481   */\n      lt\n        /* \"#utility.yul\":7460:7573   */\n      iszero\n      tag_191\n      jumpi\n        /* \"#utility.yul\":7559:7560   */\n      dup1\n        /* \"#utility.yul\":7554:7557   */\n      dup3\n        /* \"#utility.yul\":7550:7561   */\n      add\n        /* \"#utility.yul\":7544:7562   */\n      mload\n        /* \"#utility.yul\":7540:7541   */\n      dup2\n        /* \"#utility.yul\":7535:7538   */\n      dup5\n        /* \"#utility.yul\":7531:7542   */\n      add\n        /* \"#utility.yul\":7524:7563   */\n      mstore\n        /* \"#utility.yul\":7496:7498   */\n      0x20\n        /* \"#utility.yul\":7493:7494   */\n      dup2\n        /* \"#utility.yul\":7489:7499   */\n      add\n        /* \"#utility.yul\":7484:7499   */\n      swap1\n      pop\n        /* \"#utility.yul\":7460:7573   */\n      jump(tag_189)\n    tag_191:\n        /* \"#utility.yul\":7591:7597   */\n      dup4\n        /* \"#utility.yul\":7588:7589   */\n      dup2\n        /* \"#utility.yul\":7585:7598   */\n      gt\n        /* \"#utility.yul\":7582:7683   */\n      iszero\n      tag_192\n      jumpi\n        /* \"#utility.yul\":7671:7672   */\n      0x00\n        /* \"#utility.yul\":7662:7668   */\n      dup5\n        /* \"#utility.yul\":7657:7660   */\n      dup5\n        /* \"#utility.yul\":7653:7669   */\n      add\n        /* \"#utility.yul\":7646:7673   */\n      mstore\n        /* \"#utility.yul\":7582:7683   */\n    tag_192:\n        /* \"#utility.yul\":7431:7689   */\n      pop\n        /* \"#utility.yul\":7382:7689   */\n      pop\n      pop\n      pop\n      jump\t// out\n        /* \"#utility.yul\":7695:8015   */\n    tag_62:\n        /* \"#utility.yul\":7739:7745   */\n      0x00\n        /* \"#utility.yul\":7776:7777   */\n      0x02\n        /* \"#utility.yul\":7770:7774   */\n      dup3\n        /* \"#utility.yul\":7766:7778   */\n      div\n        /* \"#utility.yul\":7756:7778   */\n      swap1\n      pop\n        /* \"#utility.yul\":7823:7824   */\n      0x01\n        /* \"#utility.yul\":7817:7821   */\n      dup3\n        /* \"#utility.yul\":7813:7825   */\n      and\n        /* \"#utility.yul\":7844:7862   */\n      dup1\n        /* \"#utility.yul\":7834:7915   */\n      tag_194\n      jumpi\n        /* \"#utility.yul\":7900:7904   */\n      0x7f\n        /* \"#utility.yul\":7892:7898   */\n      dup3\n        /* \"#utility.yul\":7888:7905   */\n      and\n        /* \"#utility.yul\":7878:7905   */\n      swap2\n      pop\n        /* \"#utility.yul\":7834:7915   */\n    tag_194:\n        /* \"#utility.yul\":7962:7964   */\n      0x20\n        /* \"#utility.yul\":7954:7960   */\n      dup3\n        /* \"#utility.yul\":7951:7965   */\n      lt\n        /* \"#utility.yul\":7931:7949   */\n      dup2\n        /* \"#utility.yul\":7928:7966   */\n      eq\n        /* \"#utility.yul\":7925:8009   */\n      iszero\n      tag_195\n      jumpi\n        /* \"#utility.yul\":7981:7999   */\n      tag_196\n      tag_197\n      jump\t// in\n    tag_196:\n        /* \"#utility.yul\":7925:8009   */\n    tag_195:\n        /* \"#utility.yul\":7746:8015   */\n      pop\n        /* \"#utility.yul\":7695:8015   */\n      swap2\n      swap1\n      pop\n      jump\t// out\n        /* \"#utility.yul\":8021:8302   */\n    tag_173:\n        /* \"#utility.yul\":8104:8131   */\n      tag_199\n        /* \"#utility.yul\":8126:8130   */\n      dup3\n        /* \"#utility.yul\":8104:8131   */\n      tag_139\n      jump\t// in\n    tag_199:\n        /* \"#utility.yul\":8096:8102   */\n      dup2\n        /* \"#utility.yul\":8092:8132   */\n      add\n        /* \"#utility.yul\":8234:8240   */\n      dup2\n        /* \"#utility.yul\":8222:8232   */\n      dup2\n        /* \"#utility.yul\":8219:8241   */\n      lt\n        /* \"#utility.yul\":8198:8216   */\n      0xffffffffffffffff\n        /* \"#utility.yul\":8186:8196   */\n      dup3\n        /* \"#utility.yul\":8183:8217   */\n      gt\n        /* \"#utility.yul\":8180:8242   */\n      or\n        /* \"#utility.yul\":8177:8265   */\n      iszero\n      tag_200\n      jumpi\n        /* \"#utility.yul\":8245:8263   */\n      tag_201\n      tag_178\n      jump\t// in\n    tag_201:\n        /* \"#utility.yul\":8177:8265   */\n    tag_200:\n        /* \"#utility.yul\":8285:8295   */\n      dup1\n        /* \"#utility.yul\":8281:8283   */\n      0x40\n        /* \"#utility.yul\":8274:8296   */\n      mstore\n        /* \"#utility.yul\":8064:8302   */\n      pop\n        /* \"#utility.yul\":8021:8302   */\n      pop\n      pop\n      jump\t// out\n        /* \"#utility.yul\":8308:8541   */\n    tag_55:\n        /* \"#utility.yul\":8347:8350   */\n      0x00\n        /* \"#utility.yul\":8370:8394   */\n      tag_203\n        /* \"#utility.yul\":8388:8393   */\n      dup3\n        /* \"#utility.yul\":8370:8394   */\n      tag_153\n      jump\t// in\n    tag_203:\n        /* \"#utility.yul\":8361:8394   */\n      swap2\n      pop\n        /* \"#utility.yul\":8416:8482   */\n      0xffffffffffffffffffffffffffffffffffffffffffffffffffffffffffffffff\n        /* \"#utility.yul\":8409:8414   */\n      dup3\n        /* \"#utility.yul\":8406:8483   */\n      eq\n        /* \"#utility.yul\":8403:8506   */\n      iszero\n      tag_204\n      jumpi\n        /* \"#utility.yul\":8486:8504   */\n      tag_205\n      tag_206\n      jump\t// in\n    tag_205:\n        /* \"#utility.yul\":8403:8506   */\n    tag_204:\n        /* \"#utility.yul\":8533:8534   */\n      0x01\n        /* \"#utility.yul\":8526:8531   */\n      dup3\n        /* \"#utility.yul\":8522:8535   */\n      add\n        /* \"#utility.yul\":8515:8535   */\n      swap1\n      pop\n        /* \"#utility.yul\":8308:8541   */\n      swap2\n      swap1\n      pop\n      jump\t// out\n        /* \"#utility.yul\":8547:8727   */\n    tag_206:\n        /* \"#utility.yul\":8595:8672   */\n      0x4e487b7100000000000000000000000000000000000000000000000000000000\n        /* \"#utility.yul\":8592:8593   */\n      0x00\n        /* \"#utility.yul\":8585:8673   */\n      mstore\n        /* \"#utility.yul\":8692:8696   */\n      0x11\n        /* \"#utility.yul\":8689:8690   */\n      0x04\n        /* \"#utility.yul\":8682:8697   */\n      mstore\n        /* \"#utility.yul\":8716:8720   */\n      0x24\n        /* \"#utility.yul\":8713:8714   */\n      0x00\n        /* \"#utility.yul\":8706:8721   */\n      revert\n        /* \"#utility.yul\":8733:8913   */\n    tag_197:\n        /* \"#utility.yul\":8781:8858   */\n      0x4e487b7100000000000000000000000000000000000000000000000000000000\n        /* \"#utility.yul\":8778:8779   */\n      0x00\n        /* \"#utility.yul\":8771:8859   */\n      mstore\n        /* \"#utility.yul\":8878:8882   */\n      0x22\n        /* \"#utility.yul\":8875:8876   */\n      0x04\n        /* \"#utility.yul\":8868:8883   */\n      mstore\n        /* \"#utility.yul\":8902:8906   */\n      0x24\n        /* \"#utility.yul\":8899:8900   */\n      0x00\n        /* \"#utility.yul\":8892:8907   */\n      revert\n        /* \"#utility.yul\":8919:9099   */\n    tag_178:\n        /* \"#utility.yul\":8967:9044   */\n      0x4e487b7100000000000000000000000000000000000000000000000000000000\n        /* \"#utility.yul\":8964:8965   */\n      0x00\n        /* \"#utility.yul\":8957:9045   */\n      mstore\n        /* \"#utility.yul\":9064:9068   */\n      0x41\n        /* \"#utility.yul\":9061:9062   */\n      0x04\n        /* \"#utility.yul\":9054:9069   */\n      mstore\n        /* \"#utility.yul\":9088:9092   */\n      0x24\n        /* \"#utility.yul\":9085:9086   */\n      0x00\n        /* \"#utility.yul\":9078:9093   */\n      revert\n        /* \"#utility.yul\":9105:9222   */\n    tag_102:\n        /* \"#utility.yul\":9214:9215   */\n      0x00\n        /* \"#utility.yul\":9211:9212   */\n      dup1\n        /* \"#utility.yul\":9204:9216   */\n      revert\n        /* \"#utility.yul\":9228:9345   */\n    tag_91:\n        /* \"#utility.yul\":9337:9338   */\n      0x00\n        /* \"#utility.yul\":9334:9335   */\n      dup1\n        /* \"#utility.yul\":9327:9339   */\n      revert\n        /* \"#utility.yul\":9351:9468   */\n    tag_123:\n        /* \"#utility.yul\":9460:9461   */\n      0x00\n        /* \"#utility.yul\":9457:9458   */\n      dup1\n        /* \"#utility.yul\":9450:9462   */\n      revert\n        /* \"#utility.yul\":9474:9591   */\n    tag_111:\n        /* \"#utility.yul\":9583:9584   */\n      0x00\n        /* \"#utility.yul\":9580:9581   */\n      dup1\n        /* \"#utility.yul\":9573:9585   */\n      revert\n        /* \"#utility.yul\":9597:9699   */\n    tag_139:\n        /* \"#utility.yul\":9638:9644   */\n      0x00\n        /* \"#utility.yul\":9689:9691   */\n      0x1f\n        /* \"#utility.yul\":9685:9692   */\n      not\n        /* \"#utility.yul\":9680:9682   */\n      0x1f\n        /* \"#utility.yul\":9673:9678   */\n      dup4\n        /* \"#utility.yul\":9669:9683   */\n      add\n        /* \"#utility.yul\":9665:9693   */\n      and\n        /* \"#utility.yul\":9655:9693   */\n      swap1\n      pop\n        /* \"#utility.yul\":9597:9699   */\n      swap2\n      swap1\n      pop\n      jump\t// out\n        /* \"#utility.yul\":9705:9929   */\n    tag_144:\n        /* \"#utility.yul\":9845:9879   */\n      0x596120746520656e6375656e74726173207265676973747261646f20656e2065\n        /* \"#utility.yul\":9841:9842   */\n      0x00\n        /* \"#utility.yul\":9833:9839   */\n      dup3\n        /* \"#utility.yul\":9829:9843   */\n      add\n        /* \"#utility.yul\":9822:9880   */\n      mstore\n        /* \"#utility.yul\":9914:9921   */\n      0x6c2067796d000000000000000000000000000000000000000000000000000000\n        /* \"#utility.yul\":9909:9911   */\n      0x20\n        /* \"#utility.yul\":9901:9907   */\n      dup3\n        /* \"#utility.yul\":9897:9912   */\n      add\n        /* \"#utility.yul\":9890:9922   */\n      mstore\n        /* \"#utility.yul\":9705:9929   */\n      pop\n      jump\t// out\n        /* \"#utility.yul\":9935:10170   */\n    tag_149:\n        /* \"#utility.yul\":10075:10109   */\n      0x536f6c6f20656c2041646d696e6973747261646f722064656c2047796d207075\n        /* \"#utility.yul\":10071:10072   */\n      0x00\n        /* \"#utility.yul\":10063:10069   */\n      dup3\n        /* \"#utility.yul\":10059:10073   */\n      add\n        /* \"#utility.yul\":10052:10110   */\n      mstore\n        /* \"#utility.yul\":10144:10162   */\n      0x65646520637265617220636c6173657300000000000000000000000000000000\n        /* \"#utility.yul\":10139:10141   */\n      0x20\n        /* \"#utility.yul\":10131:10137   */\n      dup3\n        /* \"#utility.yul\":10127:10142   */\n      add\n        /* \"#utility.yul\":10120:10163   */\n      mstore\n        /* \"#utility.yul\":9935:10170   */\n      pop\n      jump\t// out\n        /* \"#utility.yul\":10176:10298   */\n    tag_97:\n        /* \"#utility.yul\":10249:10273   */\n      tag_218\n        /* \"#utility.yul\":10267:10272   */\n      dup2\n        /* \"#utility.yul\":10249:10273   */\n      tag_129\n      jump\t// in\n    tag_218:\n        /* \"#utility.yul\":10242:10247   */\n      dup2\n        /* \"#utility.yul\":10239:10274   */\n      eq\n        /* \"#utility.yul\":10229:10292   */\n      tag_219\n      jumpi\n        /* \"#utility.yul\":10288:10289   */\n      0x00\n        /* \"#utility.yul\":10285:10286   */\n      dup1\n        /* \"#utility.yul\":10278:10290   */\n      revert\n        /* \"#utility.yul\":10229:10292   */\n    tag_219:\n        /* \"#utility.yul\":10176:10298   */\n      pop\n      jump\t// out\n        /* \"#utility.yul\":10304:10426   */\n    tag_107:\n        /* \"#utility.yul\":10377:10401   */\n      tag_221\n        /* \"#utility.yul\":10395:10400   */\n      dup2\n        /* \"#utility.yul\":10377:10401   */\n      tag_153\n      jump\t// in\n    tag_221:\n        /* \"#utility.yul\":10370:10375   */\n      dup2\n        /* \"#utility.yul\":10367:10402   */\n      eq\n        /* \"#utility.yul\":10357:10420   */\n      tag_222\n      jumpi\n        /* \"#utility.yul\":10416:10417   */\n      0x00\n        /* \"#utility.yul\":10413:10414   */\n      dup1\n        /* \"#utility.yul\":10406:10418   */\n      revert\n        /* \"#utility.yul\":10357:10420   */\n    tag_222:\n        /* \"#utility.yul\":10304:10426   */\n      pop\n      jump\t// out\n\n    auxdata: 0xa2646970667358221220a7a052420db8e686235cb0a1dcb06274a9a3d6ec56bc2a8795af20d2612f8d8e64736f6c63430008070033\n}\n",
				"bytecode": {
					"linkReferences": {},
					"object": "60a060405234801561001057600080fd5b503373ffffffffffffffffffffffffffffffffffffffff1660808173ffffffffffffffffffffffffffffffffffffffff1660601b8152505060805160601c610dc861007b600039600081816102010152818161023c015281816102b901526103360152610dc86000f3fe608060405234801561001057600080fd5b50600436106100885760003560e01c806378dea39d1161005b57806378dea39d14610102578063a87430ba14610132578063bff852fa14610162578063f3bcaf591461018257610088565b806312065fe01461008d5780632a0acc6a146100ac5780634852a212146100ca5780636d705ebb146100e6575b600080fd5b6100956101b4565b6040516100a39291906109b6565b60405180910390f35b6100b46101ff565b6040516100c1919061099b565b60405180910390f35b6100e460048036038101906100df91906108a2565b610223565b005b61010060048036038101906100fb9190610862565b610469565b005b61011c60048036038101906101179190610835565b610569565b6040516101299190610a1f565b60405180910390f35b61014c60048036038101906101479190610835565b610581565b6040516101599190610a1f565b60405180910390f35b61016a610599565b60405161017993929190610a3a565b60405180910390f35b61019c60048036038101906101979190610862565b610639565b6040516101ab93929190610a3a565b60405180910390f35b600080336000803373ffffffffffffffffffffffffffffffffffffffff1673ffffffffffffffffffffffffffffffffffffffff16815260200190815260200160002054915091509091565b7f000000000000000000000000000000000000000000000000000000000000000081565b3373ffffffffffffffffffffffffffffffffffffffff167f000000000000000000000000000000000000000000000000000000000000000073ffffffffffffffffffffffffffffffffffffffff16146102b1576040517f08c379a00000000000000000000000000000000000000000000000000000000081526004016102a8906109ff565b60405180910390fd5b6000600260007f000000000000000000000000000000000000000000000000000000000000000073ffffffffffffffffffffffffffffffffffffffff1673ffffffffffffffffffffffffffffffffffffffff168152602001908152602001600020549050604051806060016040528082815260200184815260200183815250600160007f000000000000000000000000000000000000000000000000000000000000000073ffffffffffffffffffffffffffffffffffffffff1673ffffffffffffffffffffffffffffffffffffffff16815260200190815260200160002060008381526020019081526020016000206000820151816000015560208201518160010190805190602001906103c69291906106f8565b50604082015181600201559050507f7e4cf851366c6fd2ca0ede101f0cf37bbc5080a6bb4fd545d9f5408650f1c1dd81848460405161040793929190610a3a565b60405180910390a1600260003373ffffffffffffffffffffffffffffffffffffffff1673ffffffffffffffffffffffffffffffffffffffff168152602001908152602001600020600081548092919061045f90610bcb565b9190505550505050565b60008060003373ffffffffffffffffffffffffffffffffffffffff1673ffffffffffffffffffffffffffffffffffffffff16815260200190815260200160002054146104ea576040517f08c379a00000000000000000000000000000000000000000000000000000000081526004016104e1906109df565b60405180910390fd5b806000803373ffffffffffffffffffffffffffffffffffffffff1673ffffffffffffffffffffffffffffffffffffffff168152602001908152602001600020819055507e7dc6ab80cc84c043b7b8d4fcafc802187470087f7ea7fccd2e17aecd0256a1828260405161055d9291906109b6565b60405180910390a15050565b60026020528060005260406000206000915090505481565b60006020528060005260406000206000915090505481565b60038060000154908060010180546105b090610b68565b80601f01602080910402602001604051908101604052809291908181526020018280546105dc90610b68565b80156106295780601f106105fe57610100808354040283529160200191610629565b820191906000526020600020905b81548152906001019060200180831161060c57829003601f168201915b5050505050908060020154905083565b60016020528160005260406000206020528060005260406000206000915091505080600001549080600101805461066f90610b68565b80601f016020809104026020016040519081016040528092919081815260200182805461069b90610b68565b80156106e85780601f106106bd576101008083540402835291602001916106e8565b820191906000526020600020905b8154815290600101906020018083116106cb57829003601f168201915b5050505050908060020154905083565b82805461070490610b68565b90600052602060002090601f016020900481019282610726576000855561076d565b82601f1061073f57805160ff191683800117855561076d565b8280016001018555821561076d579182015b8281111561076c578251825591602001919060010190610751565b5b50905061077a919061077e565b5090565b5b8082111561079757600081600090555060010161077f565b5090565b60006107ae6107a984610a9d565b610a78565b9050828152602081018484840111156107ca576107c9610ca6565b5b6107d5848285610b26565b509392505050565b6000813590506107ec81610d64565b92915050565b600082601f83011261080757610806610ca1565b5b813561081784826020860161079b565b91505092915050565b60008135905061082f81610d7b565b92915050565b60006020828403121561084b5761084a610cb0565b5b6000610859848285016107dd565b91505092915050565b6000806040838503121561087957610878610cb0565b5b6000610887858286016107dd565b925050602061089885828601610820565b9150509250929050565b600080604083850312156108b9576108b8610cb0565b5b600083013567ffffffffffffffff8111156108d7576108d6610cab565b5b6108e3858286016107f2565b92505060206108f485828601610820565b9150509250929050565b61090781610aea565b82525050565b600061091882610ace565b6109228185610ad9565b9350610932818560208601610b35565b61093b81610cb5565b840191505092915050565b6000610953602583610ad9565b915061095e82610cc6565b604082019050919050565b6000610976603083610ad9565b915061098182610d15565b604082019050919050565b61099581610b1c565b82525050565b60006020820190506109b060008301846108fe565b92915050565b60006040820190506109cb60008301856108fe565b6109d8602083018461098c565b9392505050565b600060208201905081810360008301526109f881610946565b9050919050565b60006020820190508181036000830152610a1881610969565b9050919050565b6000602082019050610a34600083018461098c565b92915050565b6000606082019050610a4f600083018661098c565b8181036020830152610a61818561090d565b9050610a70604083018461098c565b949350505050565b6000610a82610a93565b9050610a8e8282610b9a565b919050565b6000604051905090565b600067ffffffffffffffff821115610ab857610ab7610c72565b5b610ac182610cb5565b9050602081019050919050565b600081519050919050565b600082825260208201905092915050565b6000610af582610afc565b9050919050565b600073ffffffffffffffffffffffffffffffffffffffff82169050919050565b6000819050919050565b82818337600083830152505050565b60005b83811015610b53578082015181840152602081019050610b38565b83811115610b62576000848401525b50505050565b60006002820490506001821680610b8057607f821691505b60208210811415610b9457610b93610c43565b5b50919050565b610ba382610cb5565b810181811067ffffffffffffffff82111715610bc257610bc1610c72565b5b80604052505050565b6000610bd682610b1c565b91507fffffffffffffffffffffffffffffffffffffffffffffffffffffffffffffffff821415610c0957610c08610c14565b5b600182019050919050565b7f4e487b7100000000000000000000000000000000000000000000000000000000600052601160045260246000fd5b7f4e487b7100000000000000000000000000000000000000000000000000000000600052602260045260246000fd5b7f4e487b7100000000000000000000000000000000000000000000000000000000600052604160045260246000fd5b600080fd5b600080fd5b600080fd5b600080fd5b6000601f19601f8301169050919050565b7f596120746520656e6375656e74726173207265676973747261646f20656e206560008201527f6c2067796d000000000000000000000000000000000000000000000000000000602082015250565b7f536f6c6f20656c2041646d696e6973747261646f722064656c2047796d20707560008201527f65646520637265617220636c6173657300000000000000000000000000000000602082015250565b610d6d81610aea565b8114610d7857600080fd5b50565b610d8481610b1c565b8114610d8f57600080fd5b5056fea2646970667358221220a7a052420db8e686235cb0a1dcb06274a9a3d6ec56bc2a8795af20d2612f8d8e64736f6c63430008070033",
					"opcodes": "PUSH1 0xA0 PUSH1 0x40 MSTORE CALLVALUE DUP1 ISZERO PUSH2 0x10 JUMPI PUSH1 0x0 DUP1 REVERT JUMPDEST POP CALLER PUSH20 0xFFFFFFFFFFFFFFFFFFFFFFFFFFFFFFFFFFFFFFFF AND PUSH1 0x80 DUP2 PUSH20 0xFFFFFFFFFFFFFFFFFFFFFFFFFFFFFFFFFFFFFFFF AND PUSH1 0x60 SHL DUP2 MSTORE POP POP PUSH1 0x80 MLOAD PUSH1 0x60 SHR PUSH2 0xDC8 PUSH2 0x7B PUSH1 0x0 CODECOPY PUSH1 0x0 DUP2 DUP2 PUSH2 0x201 ADD MSTORE DUP2 DUP2 PUSH2 0x23C ADD MSTORE DUP2 DUP2 PUSH2 0x2B9 ADD MSTORE PUSH2 0x336 ADD MSTORE PUSH2 0xDC8 PUSH1 0x0 RETURN INVALID PUSH1 0x80 PUSH1 0x40 MSTORE CALLVALUE DUP1 ISZERO PUSH2 0x10 JUMPI PUSH1 0x0 DUP1 REVERT JUMPDEST POP PUSH1 0x4 CALLDATASIZE LT PUSH2 0x88 JUMPI PUSH1 0x0 CALLDATALOAD PUSH1 0xE0 SHR DUP1 PUSH4 0x78DEA39D GT PUSH2 0x5B JUMPI DUP1 PUSH4 0x78DEA39D EQ PUSH2 0x102 JUMPI DUP1 PUSH4 0xA87430BA EQ PUSH2 0x132 JUMPI DUP1 PUSH4 0xBFF852FA EQ PUSH2 0x162 JUMPI DUP1 PUSH4 0xF3BCAF59 EQ PUSH2 0x182 JUMPI PUSH2 0x88 JUMP JUMPDEST DUP1 PUSH4 0x12065FE0 EQ PUSH2 0x8D JUMPI DUP1 PUSH4 0x2A0ACC6A EQ PUSH2 0xAC JUMPI DUP1 PUSH4 0x4852A212 EQ PUSH2 0xCA JUMPI DUP1 PUSH4 0x6D705EBB EQ PUSH2 0xE6 JUMPI JUMPDEST PUSH1 0x0 DUP1 REVERT JUMPDEST PUSH2 0x95 PUSH2 0x1B4 JUMP JUMPDEST PUSH1 0x40 MLOAD PUSH2 0xA3 SWAP3 SWAP2 SWAP1 PUSH2 0x9B6 JUMP JUMPDEST PUSH1 0x40 MLOAD DUP1 SWAP2 SUB SWAP1 RETURN JUMPDEST PUSH2 0xB4 PUSH2 0x1FF JUMP JUMPDEST PUSH1 0x40 MLOAD PUSH2 0xC1 SWAP2 SWAP1 PUSH2 0x99B JUMP JUMPDEST PUSH1 0x40 MLOAD DUP1 SWAP2 SUB SWAP1 RETURN JUMPDEST PUSH2 0xE4 PUSH1 0x4 DUP1 CALLDATASIZE SUB DUP2 ADD SWAP1 PUSH2 0xDF SWAP2 SWAP1 PUSH2 0x8A2 JUMP JUMPDEST PUSH2 0x223 JUMP JUMPDEST STOP JUMPDEST PUSH2 0x100 PUSH1 0x4 DUP1 CALLDATASIZE SUB DUP2 ADD SWAP1 PUSH2 0xFB SWAP2 SWAP1 PUSH2 0x862 JUMP JUMPDEST PUSH2 0x469 JUMP JUMPDEST STOP JUMPDEST PUSH2 0x11C PUSH1 0x4 DUP1 CALLDATASIZE SUB DUP2 ADD SWAP1 PUSH2 0x117 SWAP2 SWAP1 PUSH2 0x835 JUMP JUMPDEST PUSH2 0x569 JUMP JUMPDEST PUSH1 0x40 MLOAD PUSH2 0x129 SWAP2 SWAP1 PUSH2 0xA1F JUMP JUMPDEST PUSH1 0x40 MLOAD DUP1 SWAP2 SUB SWAP1 RETURN JUMPDEST PUSH2 0x14C PUSH1 0x4 DUP1 CALLDATASIZE SUB DUP2 ADD SWAP1 PUSH2 0x147 SWAP2 SWAP1 PUSH2 0x835 JUMP JUMPDEST PUSH2 0x581 JUMP JUMPDEST PUSH1 0x40 MLOAD PUSH2 0x159 SWAP2 SWAP1 PUSH2 0xA1F JUMP JUMPDEST PUSH1 0x40 MLOAD DUP1 SWAP2 SUB SWAP1 RETURN JUMPDEST PUSH2 0x16A PUSH2 0x599 JUMP JUMPDEST PUSH1 0x40 MLOAD PUSH2 0x179 SWAP4 SWAP3 SWAP2 SWAP1 PUSH2 0xA3A JUMP JUMPDEST PUSH1 0x40 MLOAD DUP1 SWAP2 SUB SWAP1 RETURN JUMPDEST PUSH2 0x19C PUSH1 0x4 DUP1 CALLDATASIZE SUB DUP2 ADD SWAP1 PUSH2 0x197 SWAP2 SWAP1 PUSH2 0x862 JUMP JUMPDEST PUSH2 0x639 JUMP JUMPDEST PUSH1 0x40 MLOAD PUSH2 0x1AB SWAP4 SWAP3 SWAP2 SWAP1 PUSH2 0xA3A JUMP JUMPDEST PUSH1 0x40 MLOAD DUP1 SWAP2 SUB SWAP1 RETURN JUMPDEST PUSH1 0x0 DUP1 CALLER PUSH1 0x0 DUP1 CALLER PUSH20 0xFFFFFFFFFFFFFFFFFFFFFFFFFFFFFFFFFFFFFFFF AND PUSH20 0xFFFFFFFFFFFFFFFFFFFFFFFFFFFFFFFFFFFFFFFF AND DUP2 MSTORE PUSH1 0x20 ADD SWAP1 DUP2 MSTORE PUSH1 0x20 ADD PUSH1 0x0 KECCAK256 SLOAD SWAP2 POP SWAP2 POP SWAP1 SWAP2 JUMP JUMPDEST PUSH32 0x0 DUP2 JUMP JUMPDEST CALLER PUSH20 0xFFFFFFFFFFFFFFFFFFFFFFFFFFFFFFFFFFFFFFFF AND PUSH32 0x0 PUSH20 0xFFFFFFFFFFFFFFFFFFFFFFFFFFFFFFFFFFFFFFFF AND EQ PUSH2 0x2B1 JUMPI PUSH1 0x40 MLOAD PUSH32 0x8C379A000000000000000000000000000000000000000000000000000000000 DUP2 MSTORE PUSH1 0x4 ADD PUSH2 0x2A8 SWAP1 PUSH2 0x9FF JUMP JUMPDEST PUSH1 0x40 MLOAD DUP1 SWAP2 SUB SWAP1 REVERT JUMPDEST PUSH1 0x0 PUSH1 0x2 PUSH1 0x0 PUSH32 0x0 PUSH20 0xFFFFFFFFFFFFFFFFFFFFFFFFFFFFFFFFFFFFFFFF AND PUSH20 0xFFFFFFFFFFFFFFFFFFFFFFFFFFFFFFFFFFFFFFFF AND DUP2 MSTORE PUSH1 0x20 ADD SWAP1 DUP2 MSTORE PUSH1 0x20 ADD PUSH1 0x0 KECCAK256 SLOAD SWAP1 POP PUSH1 0x40 MLOAD DUP1 PUSH1 0x60 ADD PUSH1 0x40 MSTORE DUP1 DUP3 DUP2 MSTORE PUSH1 0x20 ADD DUP5 DUP2 MSTORE PUSH1 0x20 ADD DUP4 DUP2 MSTORE POP PUSH1 0x1 PUSH1 0x0 PUSH32 0x0 PUSH20 0xFFFFFFFFFFFFFFFFFFFFFFFFFFFFFFFFFFFFFFFF AND PUSH20 0xFFFFFFFFFFFFFFFFFFFFFFFFFFFFFFFFFFFFFFFF AND DUP2 MSTORE PUSH1 0x20 ADD SWAP1 DUP2 MSTORE PUSH1 0x20 ADD PUSH1 0x0 KECCAK256 PUSH1 0x0 DUP4 DUP2 MSTORE PUSH1 0x20 ADD SWAP1 DUP2 MSTORE PUSH1 0x20 ADD PUSH1 0x0 KECCAK256 PUSH1 0x0 DUP3 ADD MLOAD DUP2 PUSH1 0x0 ADD SSTORE PUSH1 0x20 DUP3 ADD MLOAD DUP2 PUSH1 0x1 ADD SWAP1 DUP1 MLOAD SWAP1 PUSH1 0x20 ADD SWAP1 PUSH2 0x3C6 SWAP3 SWAP2 SWAP1 PUSH2 0x6F8 JUMP JUMPDEST POP PUSH1 0x40 DUP3 ADD MLOAD DUP2 PUSH1 0x2 ADD SSTORE SWAP1 POP POP PUSH32 0x7E4CF851366C6FD2CA0EDE101F0CF37BBC5080A6BB4FD545D9F5408650F1C1DD DUP2 DUP5 DUP5 PUSH1 0x40 MLOAD PUSH2 0x407 SWAP4 SWAP3 SWAP2 SWAP1 PUSH2 0xA3A JUMP JUMPDEST PUSH1 0x40 MLOAD DUP1 SWAP2 SUB SWAP1 LOG1 PUSH1 0x2 PUSH1 0x0 CALLER PUSH20 0xFFFFFFFFFFFFFFFFFFFFFFFFFFFFFFFFFFFFFFFF AND PUSH20 0xFFFFFFFFFFFFFFFFFFFFFFFFFFFFFFFFFFFFFFFF AND DUP2 MSTORE PUSH1 0x20 ADD SWAP1 DUP2 MSTORE PUSH1 0x20 ADD PUSH1 0x0 KECCAK256 PUSH1 0x0 DUP2 SLOAD DUP1 SWAP3 SWAP2 SWAP1 PUSH2 0x45F SWAP1 PUSH2 0xBCB JUMP JUMPDEST SWAP2 SWAP1 POP SSTORE POP POP POP POP JUMP JUMPDEST PUSH1 0x0 DUP1 PUSH1 0x0 CALLER PUSH20 0xFFFFFFFFFFFFFFFFFFFFFFFFFFFFFFFFFFFFFFFF AND PUSH20 0xFFFFFFFFFFFFFFFFFFFFFFFFFFFFFFFFFFFFFFFF AND DUP2 MSTORE PUSH1 0x20 ADD SWAP1 DUP2 MSTORE PUSH1 0x20 ADD PUSH1 0x0 KECCAK256 SLOAD EQ PUSH2 0x4EA JUMPI PUSH1 0x40 MLOAD PUSH32 0x8C379A000000000000000000000000000000000000000000000000000000000 DUP2 MSTORE PUSH1 0x4 ADD PUSH2 0x4E1 SWAP1 PUSH2 0x9DF JUMP JUMPDEST PUSH1 0x40 MLOAD DUP1 SWAP2 SUB SWAP1 REVERT JUMPDEST DUP1 PUSH1 0x0 DUP1 CALLER PUSH20 0xFFFFFFFFFFFFFFFFFFFFFFFFFFFFFFFFFFFFFFFF AND PUSH20 0xFFFFFFFFFFFFFFFFFFFFFFFFFFFFFFFFFFFFFFFF AND DUP2 MSTORE PUSH1 0x20 ADD SWAP1 DUP2 MSTORE PUSH1 0x20 ADD PUSH1 0x0 KECCAK256 DUP2 SWAP1 SSTORE POP PUSH31 0x7DC6AB80CC84C043B7B8D4FCAFC802187470087F7EA7FCCD2E17AECD0256A1 DUP3 DUP3 PUSH1 0x40 MLOAD PUSH2 0x55D SWAP3 SWAP2 SWAP1 PUSH2 0x9B6 JUMP JUMPDEST PUSH1 0x40 MLOAD DUP1 SWAP2 SUB SWAP1 LOG1 POP POP JUMP JUMPDEST PUSH1 0x2 PUSH1 0x20 MSTORE DUP1 PUSH1 0x0 MSTORE PUSH1 0x40 PUSH1 0x0 KECCAK256 PUSH1 0x0 SWAP2 POP SWAP1 POP SLOAD DUP2 JUMP JUMPDEST PUSH1 0x0 PUSH1 0x20 MSTORE DUP1 PUSH1 0x0 MSTORE PUSH1 0x40 PUSH1 0x0 KECCAK256 PUSH1 0x0 SWAP2 POP SWAP1 POP SLOAD DUP2 JUMP JUMPDEST PUSH1 0x3 DUP1 PUSH1 0x0 ADD SLOAD SWAP1 DUP1 PUSH1 0x1 ADD DUP1 SLOAD PUSH2 0x5B0 SWAP1 PUSH2 0xB68 JUMP JUMPDEST DUP1 PUSH1 0x1F ADD PUSH1 0x20 DUP1 SWAP2 DIV MUL PUSH1 0x20 ADD PUSH1 0x40 MLOAD SWAP1 DUP2 ADD PUSH1 0x40 MSTORE DUP1 SWAP3 SWAP2 SWAP1 DUP2 DUP2 MSTORE PUSH1 0x20 ADD DUP3 DUP1 SLOAD PUSH2 0x5DC SWAP1 PUSH2 0xB68 JUMP JUMPDEST DUP1 ISZERO PUSH2 0x629 JUMPI DUP1 PUSH1 0x1F LT PUSH2 0x5FE JUMPI PUSH2 0x100 DUP1 DUP4 SLOAD DIV MUL DUP4 MSTORE SWAP2 PUSH1 0x20 ADD SWAP2 PUSH2 0x629 JUMP JUMPDEST DUP3 ADD SWAP2 SWAP1 PUSH1 0x0 MSTORE PUSH1 0x20 PUSH1 0x0 KECCAK256 SWAP1 JUMPDEST DUP2 SLOAD DUP2 MSTORE SWAP1 PUSH1 0x1 ADD SWAP1 PUSH1 0x20 ADD DUP1 DUP4 GT PUSH2 0x60C JUMPI DUP3 SWAP1 SUB PUSH1 0x1F AND DUP3 ADD SWAP2 JUMPDEST POP POP POP POP POP SWAP1 DUP1 PUSH1 0x2 ADD SLOAD SWAP1 POP DUP4 JUMP JUMPDEST PUSH1 0x1 PUSH1 0x20 MSTORE DUP2 PUSH1 0x0 MSTORE PUSH1 0x40 PUSH1 0x0 KECCAK256 PUSH1 0x20 MSTORE DUP1 PUSH1 0x0 MSTORE PUSH1 0x40 PUSH1 0x0 KECCAK256 PUSH1 0x0 SWAP2 POP SWAP2 POP POP DUP1 PUSH1 0x0 ADD SLOAD SWAP1 DUP1 PUSH1 0x1 ADD DUP1 SLOAD PUSH2 0x66F SWAP1 PUSH2 0xB68 JUMP JUMPDEST DUP1 PUSH1 0x1F ADD PUSH1 0x20 DUP1 SWAP2 DIV MUL PUSH1 0x20 ADD PUSH1 0x40 MLOAD SWAP1 DUP2 ADD PUSH1 0x40 MSTORE DUP1 SWAP3 SWAP2 SWAP1 DUP2 DUP2 MSTORE PUSH1 0x20 ADD DUP3 DUP1 SLOAD PUSH2 0x69B SWAP1 PUSH2 0xB68 JUMP JUMPDEST DUP1 ISZERO PUSH2 0x6E8 JUMPI DUP1 PUSH1 0x1F LT PUSH2 0x6BD JUMPI PUSH2 0x100 DUP1 DUP4 SLOAD DIV MUL DUP4 MSTORE SWAP2 PUSH1 0x20 ADD SWAP2 PUSH2 0x6E8 JUMP JUMPDEST DUP3 ADD SWAP2 SWAP1 PUSH1 0x0 MSTORE PUSH1 0x20 PUSH1 0x0 KECCAK256 SWAP1 JUMPDEST DUP2 SLOAD DUP2 MSTORE SWAP1 PUSH1 0x1 ADD SWAP1 PUSH1 0x20 ADD DUP1 DUP4 GT PUSH2 0x6CB JUMPI DUP3 SWAP1 SUB PUSH1 0x1F AND DUP3 ADD SWAP2 JUMPDEST POP POP POP POP POP SWAP1 DUP1 PUSH1 0x2 ADD SLOAD SWAP1 POP DUP4 JUMP JUMPDEST DUP3 DUP1 SLOAD PUSH2 0x704 SWAP1 PUSH2 0xB68 JUMP JUMPDEST SWAP1 PUSH1 0x0 MSTORE PUSH1 0x20 PUSH1 0x0 KECCAK256 SWAP1 PUSH1 0x1F ADD PUSH1 0x20 SWAP1 DIV DUP2 ADD SWAP3 DUP3 PUSH2 0x726 JUMPI PUSH1 0x0 DUP6 SSTORE PUSH2 0x76D JUMP JUMPDEST DUP3 PUSH1 0x1F LT PUSH2 0x73F JUMPI DUP1 MLOAD PUSH1 0xFF NOT AND DUP4 DUP1 ADD OR DUP6 SSTORE PUSH2 0x76D JUMP JUMPDEST DUP3 DUP1 ADD PUSH1 0x1 ADD DUP6 SSTORE DUP3 ISZERO PUSH2 0x76D JUMPI SWAP2 DUP3 ADD JUMPDEST DUP3 DUP2 GT ISZERO PUSH2 0x76C JUMPI DUP3 MLOAD DUP3 SSTORE SWAP2 PUSH1 0x20 ADD SWAP2 SWAP1 PUSH1 0x1 ADD SWAP1 PUSH2 0x751 JUMP JUMPDEST JUMPDEST POP SWAP1 POP PUSH2 0x77A SWAP2 SWAP1 PUSH2 0x77E JUMP JUMPDEST POP SWAP1 JUMP JUMPDEST JUMPDEST DUP1 DUP3 GT ISZERO PUSH2 0x797 JUMPI PUSH1 0x0 DUP2 PUSH1 0x0 SWAP1 SSTORE POP PUSH1 0x1 ADD PUSH2 0x77F JUMP JUMPDEST POP SWAP1 JUMP JUMPDEST PUSH1 0x0 PUSH2 0x7AE PUSH2 0x7A9 DUP5 PUSH2 0xA9D JUMP JUMPDEST PUSH2 0xA78 JUMP JUMPDEST SWAP1 POP DUP3 DUP2 MSTORE PUSH1 0x20 DUP2 ADD DUP5 DUP5 DUP5 ADD GT ISZERO PUSH2 0x7CA JUMPI PUSH2 0x7C9 PUSH2 0xCA6 JUMP JUMPDEST JUMPDEST PUSH2 0x7D5 DUP5 DUP3 DUP6 PUSH2 0xB26 JUMP JUMPDEST POP SWAP4 SWAP3 POP POP POP JUMP JUMPDEST PUSH1 0x0 DUP2 CALLDATALOAD SWAP1 POP PUSH2 0x7EC DUP2 PUSH2 0xD64 JUMP JUMPDEST SWAP3 SWAP2 POP POP JUMP JUMPDEST PUSH1 0x0 DUP3 PUSH1 0x1F DUP4 ADD SLT PUSH2 0x807 JUMPI PUSH2 0x806 PUSH2 0xCA1 JUMP JUMPDEST JUMPDEST DUP2 CALLDATALOAD PUSH2 0x817 DUP5 DUP3 PUSH1 0x20 DUP7 ADD PUSH2 0x79B JUMP JUMPDEST SWAP2 POP POP SWAP3 SWAP2 POP POP JUMP JUMPDEST PUSH1 0x0 DUP2 CALLDATALOAD SWAP1 POP PUSH2 0x82F DUP2 PUSH2 0xD7B JUMP JUMPDEST SWAP3 SWAP2 POP POP JUMP JUMPDEST PUSH1 0x0 PUSH1 0x20 DUP3 DUP5 SUB SLT ISZERO PUSH2 0x84B JUMPI PUSH2 0x84A PUSH2 0xCB0 JUMP JUMPDEST JUMPDEST PUSH1 0x0 PUSH2 0x859 DUP5 DUP3 DUP6 ADD PUSH2 0x7DD JUMP JUMPDEST SWAP2 POP POP SWAP3 SWAP2 POP POP JUMP JUMPDEST PUSH1 0x0 DUP1 PUSH1 0x40 DUP4 DUP6 SUB SLT ISZERO PUSH2 0x879 JUMPI PUSH2 0x878 PUSH2 0xCB0 JUMP JUMPDEST JUMPDEST PUSH1 0x0 PUSH2 0x887 DUP6 DUP3 DUP7 ADD PUSH2 0x7DD JUMP JUMPDEST SWAP3 POP POP PUSH1 0x20 PUSH2 0x898 DUP6 DUP3 DUP7 ADD PUSH2 0x820 JUMP JUMPDEST SWAP2 POP POP SWAP3 POP SWAP3 SWAP1 POP JUMP JUMPDEST PUSH1 0x0 DUP1 PUSH1 0x40 DUP4 DUP6 SUB SLT ISZERO PUSH2 0x8B9 JUMPI PUSH2 0x8B8 PUSH2 0xCB0 JUMP JUMPDEST JUMPDEST PUSH1 0x0 DUP4 ADD CALLDATALOAD PUSH8 0xFFFFFFFFFFFFFFFF DUP2 GT ISZERO PUSH2 0x8D7 JUMPI PUSH2 0x8D6 PUSH2 0xCAB JUMP JUMPDEST JUMPDEST PUSH2 0x8E3 DUP6 DUP3 DUP7 ADD PUSH2 0x7F2 JUMP JUMPDEST SWAP3 POP POP PUSH1 0x20 PUSH2 0x8F4 DUP6 DUP3 DUP7 ADD PUSH2 0x820 JUMP JUMPDEST SWAP2 POP POP SWAP3 POP SWAP3 SWAP1 POP JUMP JUMPDEST PUSH2 0x907 DUP2 PUSH2 0xAEA JUMP JUMPDEST DUP3 MSTORE POP POP JUMP JUMPDEST PUSH1 0x0 PUSH2 0x918 DUP3 PUSH2 0xACE JUMP JUMPDEST PUSH2 0x922 DUP2 DUP6 PUSH2 0xAD9 JUMP JUMPDEST SWAP4 POP PUSH2 0x932 DUP2 DUP6 PUSH1 0x20 DUP7 ADD PUSH2 0xB35 JUMP JUMPDEST PUSH2 0x93B DUP2 PUSH2 0xCB5 JUMP JUMPDEST DUP5 ADD SWAP2 POP POP SWAP3 SWAP2 POP POP JUMP JUMPDEST PUSH1 0x0 PUSH2 0x953 PUSH1 0x25 DUP4 PUSH2 0xAD9 JUMP JUMPDEST SWAP2 POP PUSH2 0x95E DUP3 PUSH2 0xCC6 JUMP JUMPDEST PUSH1 0x40 DUP3 ADD SWAP1 POP SWAP2 SWAP1 POP JUMP JUMPDEST PUSH1 0x0 PUSH2 0x976 PUSH1 0x30 DUP4 PUSH2 0xAD9 JUMP JUMPDEST SWAP2 POP PUSH2 0x981 DUP3 PUSH2 0xD15 JUMP JUMPDEST PUSH1 0x40 DUP3 ADD SWAP1 POP SWAP2 SWAP1 POP JUMP JUMPDEST PUSH2 0x995 DUP2 PUSH2 0xB1C JUMP JUMPDEST DUP3 MSTORE POP POP JUMP JUMPDEST PUSH1 0x0 PUSH1 0x20 DUP3 ADD SWAP1 POP PUSH2 0x9B0 PUSH1 0x0 DUP4 ADD DUP5 PUSH2 0x8FE JUMP JUMPDEST SWAP3 SWAP2 POP POP JUMP JUMPDEST PUSH1 0x0 PUSH1 0x40 DUP3 ADD SWAP1 POP PUSH2 0x9CB PUSH1 0x0 DUP4 ADD DUP6 PUSH2 0x8FE JUMP JUMPDEST PUSH2 0x9D8 PUSH1 0x20 DUP4 ADD DUP5 PUSH2 0x98C JUMP JUMPDEST SWAP4 SWAP3 POP POP POP JUMP JUMPDEST PUSH1 0x0 PUSH1 0x20 DUP3 ADD SWAP1 POP DUP2 DUP2 SUB PUSH1 0x0 DUP4 ADD MSTORE PUSH2 0x9F8 DUP2 PUSH2 0x946 JUMP JUMPDEST SWAP1 POP SWAP2 SWAP1 POP JUMP JUMPDEST PUSH1 0x0 PUSH1 0x20 DUP3 ADD SWAP1 POP DUP2 DUP2 SUB PUSH1 0x0 DUP4 ADD MSTORE PUSH2 0xA18 DUP2 PUSH2 0x969 JUMP JUMPDEST SWAP1 POP SWAP2 SWAP1 POP JUMP JUMPDEST PUSH1 0x0 PUSH1 0x20 DUP3 ADD SWAP1 POP PUSH2 0xA34 PUSH1 0x0 DUP4 ADD DUP5 PUSH2 0x98C JUMP JUMPDEST SWAP3 SWAP2 POP POP JUMP JUMPDEST PUSH1 0x0 PUSH1 0x60 DUP3 ADD SWAP1 POP PUSH2 0xA4F PUSH1 0x0 DUP4 ADD DUP7 PUSH2 0x98C JUMP JUMPDEST DUP2 DUP2 SUB PUSH1 0x20 DUP4 ADD MSTORE PUSH2 0xA61 DUP2 DUP6 PUSH2 0x90D JUMP JUMPDEST SWAP1 POP PUSH2 0xA70 PUSH1 0x40 DUP4 ADD DUP5 PUSH2 0x98C JUMP JUMPDEST SWAP5 SWAP4 POP POP POP POP JUMP JUMPDEST PUSH1 0x0 PUSH2 0xA82 PUSH2 0xA93 JUMP JUMPDEST SWAP1 POP PUSH2 0xA8E DUP3 DUP3 PUSH2 0xB9A JUMP JUMPDEST SWAP2 SWAP1 POP JUMP JUMPDEST PUSH1 0x0 PUSH1 0x40 MLOAD SWAP1 POP SWAP1 JUMP JUMPDEST PUSH1 0x0 PUSH8 0xFFFFFFFFFFFFFFFF DUP3 GT ISZERO PUSH2 0xAB8 JUMPI PUSH2 0xAB7 PUSH2 0xC72 JUMP JUMPDEST JUMPDEST PUSH2 0xAC1 DUP3 PUSH2 0xCB5 JUMP JUMPDEST SWAP1 POP PUSH1 0x20 DUP2 ADD SWAP1 POP SWAP2 SWAP1 POP JUMP JUMPDEST PUSH1 0x0 DUP2 MLOAD SWAP1 POP SWAP2 SWAP1 POP JUMP JUMPDEST PUSH1 0x0 DUP3 DUP3 MSTORE PUSH1 0x20 DUP3 ADD SWAP1 POP SWAP3 SWAP2 POP POP JUMP JUMPDEST PUSH1 0x0 PUSH2 0xAF5 DUP3 PUSH2 0xAFC JUMP JUMPDEST SWAP1 POP SWAP2 SWAP1 POP JUMP JUMPDEST PUSH1 0x0 PUSH20 0xFFFFFFFFFFFFFFFFFFFFFFFFFFFFFFFFFFFFFFFF DUP3 AND SWAP1 POP SWAP2 SWAP1 POP JUMP JUMPDEST PUSH1 0x0 DUP2 SWAP1 POP SWAP2 SWAP1 POP JUMP JUMPDEST DUP3 DUP2 DUP4 CALLDATACOPY PUSH1 0x0 DUP4 DUP4 ADD MSTORE POP POP POP JUMP JUMPDEST PUSH1 0x0 JUMPDEST DUP4 DUP2 LT ISZERO PUSH2 0xB53 JUMPI DUP1 DUP3 ADD MLOAD DUP2 DUP5 ADD MSTORE PUSH1 0x20 DUP2 ADD SWAP1 POP PUSH2 0xB38 JUMP JUMPDEST DUP4 DUP2 GT ISZERO PUSH2 0xB62 JUMPI PUSH1 0x0 DUP5 DUP5 ADD MSTORE JUMPDEST POP POP POP POP JUMP JUMPDEST PUSH1 0x0 PUSH1 0x2 DUP3 DIV SWAP1 POP PUSH1 0x1 DUP3 AND DUP1 PUSH2 0xB80 JUMPI PUSH1 0x7F DUP3 AND SWAP2 POP JUMPDEST PUSH1 0x20 DUP3 LT DUP2 EQ ISZERO PUSH2 0xB94 JUMPI PUSH2 0xB93 PUSH2 0xC43 JUMP JUMPDEST JUMPDEST POP SWAP2 SWAP1 POP JUMP JUMPDEST PUSH2 0xBA3 DUP3 PUSH2 0xCB5 JUMP JUMPDEST DUP2 ADD DUP2 DUP2 LT PUSH8 0xFFFFFFFFFFFFFFFF DUP3 GT OR ISZERO PUSH2 0xBC2 JUMPI PUSH2 0xBC1 PUSH2 0xC72 JUMP JUMPDEST JUMPDEST DUP1 PUSH1 0x40 MSTORE POP POP POP JUMP JUMPDEST PUSH1 0x0 PUSH2 0xBD6 DUP3 PUSH2 0xB1C JUMP JUMPDEST SWAP2 POP PUSH32 0xFFFFFFFFFFFFFFFFFFFFFFFFFFFFFFFFFFFFFFFFFFFFFFFFFFFFFFFFFFFFFFFF DUP3 EQ ISZERO PUSH2 0xC09 JUMPI PUSH2 0xC08 PUSH2 0xC14 JUMP JUMPDEST JUMPDEST PUSH1 0x1 DUP3 ADD SWAP1 POP SWAP2 SWAP1 POP JUMP JUMPDEST PUSH32 0x4E487B7100000000000000000000000000000000000000000000000000000000 PUSH1 0x0 MSTORE PUSH1 0x11 PUSH1 0x4 MSTORE PUSH1 0x24 PUSH1 0x0 REVERT JUMPDEST PUSH32 0x4E487B7100000000000000000000000000000000000000000000000000000000 PUSH1 0x0 MSTORE PUSH1 0x22 PUSH1 0x4 MSTORE PUSH1 0x24 PUSH1 0x0 REVERT JUMPDEST PUSH32 0x4E487B7100000000000000000000000000000000000000000000000000000000 PUSH1 0x0 MSTORE PUSH1 0x41 PUSH1 0x4 MSTORE PUSH1 0x24 PUSH1 0x0 REVERT JUMPDEST PUSH1 0x0 DUP1 REVERT JUMPDEST PUSH1 0x0 DUP1 REVERT JUMPDEST PUSH1 0x0 DUP1 REVERT JUMPDEST PUSH1 0x0 DUP1 REVERT JUMPDEST PUSH1 0x0 PUSH1 0x1F NOT PUSH1 0x1F DUP4 ADD AND SWAP1 POP SWAP2 SWAP1 POP JUMP JUMPDEST PUSH32 0x596120746520656E6375656E74726173207265676973747261646F20656E2065 PUSH1 0x0 DUP3 ADD MSTORE PUSH32 0x6C2067796D000000000000000000000000000000000000000000000000000000 PUSH1 0x20 DUP3 ADD MSTORE POP JUMP JUMPDEST PUSH32 0x536F6C6F20656C2041646D696E6973747261646F722064656C2047796D207075 PUSH1 0x0 DUP3 ADD MSTORE PUSH32 0x65646520637265617220636C6173657300000000000000000000000000000000 PUSH1 0x20 DUP3 ADD MSTORE POP JUMP JUMPDEST PUSH2 0xD6D DUP2 PUSH2 0xAEA JUMP JUMPDEST DUP2 EQ PUSH2 0xD78 JUMPI PUSH1 0x0 DUP1 REVERT JUMPDEST POP JUMP JUMPDEST PUSH2 0xD84 DUP2 PUSH2 0xB1C JUMP JUMPDEST DUP2 EQ PUSH2 0xD8F JUMPI PUSH1 0x0 DUP1 REVERT JUMPDEST POP JUMP INVALID LOG2 PUSH5 0x6970667358 0x22 SLT KECCAK256 0xA7 LOG0 MSTORE TIMESTAMP 0xD 0xB8 0xE6 DUP7 0x23 0x5C 0xB0 LOG1 0xDC 0xB0 PUSH3 0x74A9A3 0xD6 0xEC JUMP 0xBC 0x2A DUP8 SWAP6 0xAF KECCAK256 0xD2 PUSH2 0x2F8D DUP15 PUSH5 0x736F6C6343 STOP ADDMOD SMOD STOP CALLER "
				},
				"gasEstimates": {
					"creation": {
						"codeDepositCost": "705600",
						"executionCost": "infinite",
						"totalCost": "infinite"
					},
					"external": {
						"ADMIN()": "infinite",
						"clases(address,uint256)": "infinite",
						"class()": "infinite",
						"classCount(address)": "2814",
						"createClass(string,uint256)": "infinite",
						"getBalance()": "2689",
						"register(address,uint256)": "infinite",
						"users(address)": "2836"
					}
				},
				"methodIdentifiers": {
					"ADMIN()": "2a0acc6a",
					"clases(address,uint256)": "f3bcaf59",
					"class()": "bff852fa",
					"classCount(address)": "78dea39d",
					"createClass(string,uint256)": "4852a212",
					"getBalance()": "12065fe0",
					"register(address,uint256)": "6d705ebb",
					"users(address)": "a87430ba"
				}
			},
			"storageLayout": {
				"storage": [
					{
						"astId": 37,
						"contract": "contracts/Gym_Contact.sol:gym",
						"label": "users",
						"offset": 0,
						"slot": "0",
						"type": "t_mapping(t_address,t_uint256)"
					},
					{
						"astId": 44,
						"contract": "contracts/Gym_Contact.sol:gym",
						"label": "clases",
						"offset": 0,
						"slot": "1",
						"type": "t_mapping(t_address,t_mapping(t_uint256,t_struct(Class)8_storage))"
					},
					{
						"astId": 48,
						"contract": "contracts/Gym_Contact.sol:gym",
						"label": "classCount",
						"offset": 0,
						"slot": "2",
						"type": "t_mapping(t_address,t_uint256)"
					},
					{
						"astId": 51,
						"contract": "contracts/Gym_Contact.sol:gym",
						"label": "class",
						"offset": 0,
						"slot": "3",
						"type": "t_struct(Class)8_storage"
					}
				],
				"types": {
					"t_address": {
						"encoding": "inplace",
						"label": "address",
						"numberOfBytes": "20"
					},
					"t_mapping(t_address,t_mapping(t_uint256,t_struct(Class)8_storage))": {
						"encoding": "mapping",
						"key": "t_address",
						"label": "mapping(address => mapping(uint256 => struct gym.Class))",
						"numberOfBytes": "32",
						"value": "t_mapping(t_uint256,t_struct(Class)8_storage)"
					},
					"t_mapping(t_address,t_uint256)": {
						"encoding": "mapping",
						"key": "t_address",
						"label": "mapping(address => uint256)",
						"numberOfBytes": "32",
						"value": "t_uint256"
					},
					"t_mapping(t_uint256,t_struct(Class)8_storage)": {
						"encoding": "mapping",
						"key": "t_uint256",
						"label": "mapping(uint256 => struct gym.Class)",
						"numberOfBytes": "32",
						"value": "t_struct(Class)8_storage"
					},
					"t_string_storage": {
						"encoding": "bytes",
						"label": "string",
						"numberOfBytes": "32"
					},
					"t_struct(Class)8_storage": {
						"encoding": "inplace",
						"label": "struct gym.Class",
						"members": [
							{
								"astId": 3,
								"contract": "contracts/Gym_Contact.sol:gym",
								"label": "id",
								"offset": 0,
								"slot": "0",
								"type": "t_uint256"
							},
							{
								"astId": 5,
								"contract": "contracts/Gym_Contact.sol:gym",
								"label": "name",
								"offset": 0,
								"slot": "1",
								"type": "t_string_storage"
							},
							{
								"astId": 7,
								"contract": "contracts/Gym_Contact.sol:gym",
								"label": "value",
								"offset": 0,
								"slot": "2",
								"type": "t_uint256"
							}
						],
						"numberOfBytes": "96"
					},
					"t_uint256": {
						"encoding": "inplace",
						"label": "uint256",
						"numberOfBytes": "32"
					}
				}
			},
			"userdoc": {
				"kind": "user",
				"methods": {},
				"version": 1
			}
		}
	}
}