{
	"contracts/Gym_Contact.sol": {
		"gym": {
			"abi": [
				{
					"inputs": [],
					"stateMutability": "nonpayable",
					"type": "constructor"
				},
				{
					"anonymous": false,
					"inputs": [
						{
							"indexed": false,
							"internalType": "string",
							"name": "name",
							"type": "string"
						},
						{
							"indexed": false,
							"internalType": "uint256",
							"name": "value",
							"type": "uint256"
						}
					],
					"name": "ClassCreated",
					"type": "event"
				},
				{
					"anonymous": false,
					"inputs": [
						{
							"indexed": false,
							"internalType": "address",
							"name": "user",
							"type": "address"
						},
						{
							"indexed": false,
							"internalType": "uint256",
							"name": "credits",
							"type": "uint256"
						}
					],
					"name": "Register",
					"type": "event"
				},
				{
					"inputs": [],
					"name": "ADMIN",
					"outputs": [
						{
							"internalType": "address",
							"name": "",
							"type": "address"
						}
					],
					"stateMutability": "view",
					"type": "function"
				},
				{
					"inputs": [
						{
							"internalType": "uint256",
							"name": "",
							"type": "uint256"
						}
					],
					"name": "class",
					"outputs": [
						{
							"internalType": "string",
							"name": "name",
							"type": "string"
						},
						{
							"internalType": "uint256",
							"name": "value",
							"type": "uint256"
						}
					],
					"stateMutability": "view",
					"type": "function"
				},
				{
					"inputs": [
						{
							"internalType": "string",
							"name": "_name",
							"type": "string"
						},
						{
							"internalType": "uint256",
							"name": "_value",
							"type": "uint256"
						}
					],
					"name": "createClass",
					"outputs": [],
					"stateMutability": "nonpayable",
					"type": "function"
				},
				{
					"inputs": [],
					"name": "getBalance",
					"outputs": [
						{
							"internalType": "address",
							"name": "",
							"type": "address"
						},
						{
							"internalType": "uint256",
							"name": "",
							"type": "uint256"
						}
					],
					"stateMutability": "view",
					"type": "function"
				},
				{
					"inputs": [
						{
							"internalType": "uint256",
							"name": "_index",
							"type": "uint256"
						}
					],
					"name": "getClass",
					"outputs": [
						{
							"internalType": "string",
							"name": "name",
							"type": "string"
						},
						{
							"internalType": "uint256",
							"name": "value",
							"type": "uint256"
						}
					],
					"stateMutability": "view",
					"type": "function"
				},
				{
					"inputs": [
						{
							"internalType": "address",
							"name": "_address",
							"type": "address"
						},
						{
							"internalType": "uint256",
							"name": "_credits",
							"type": "uint256"
						}
					],
					"name": "register",
					"outputs": [],
					"stateMutability": "nonpayable",
					"type": "function"
				},
				{
					"inputs": [
						{
							"internalType": "address",
							"name": "",
							"type": "address"
						}
					],
					"name": "users",
					"outputs": [
						{
							"internalType": "uint256",
							"name": "",
							"type": "uint256"
						}
					],
					"stateMutability": "view",
					"type": "function"
				}
			],
			"devdoc": {
				"kind": "dev",
				"methods": {},
				"version": 1
			},
			"evm": {
				"assembly": "    /* \"contracts/Gym_Contact.sol\":70:2277  contract gym {\r... */\n  mstore(0x40, 0xa0)\n    /* \"contracts/Gym_Contact.sol\":431:482  constructor() {\r... */\n  callvalue\n  dup1\n  iszero\n  tag_1\n  jumpi\n  0x00\n  dup1\n  revert\ntag_1:\n  pop\n    /* \"contracts/Gym_Contact.sol\":464:474  msg.sender */\n  caller\n    /* \"contracts/Gym_Contact.sol\":456:474  ADMIN = msg.sender */\n  0xffffffffffffffffffffffffffffffffffffffff\n  and\n  0x80\n  dup2\n  0xffffffffffffffffffffffffffffffffffffffff\n  and\n  0x60\n  shl\n  dup2\n  mstore\n  pop\n  pop\n    /* \"contracts/Gym_Contact.sol\":70:2277  contract gym {\r... */\n  shr(0x60, mload(0x80))\n  codecopy(0x00, dataOffset(sub_0), dataSize(sub_0))\n  0x00\n  assignImmutable(\"0x731dc163f73d31d8c68f9917ce4ff967753939f70432973c04fd2c2a48148607\")\n  return(0x00, dataSize(sub_0))\nstop\n\nsub_0: assembly {\n        /* \"contracts/Gym_Contact.sol\":70:2277  contract gym {\r... */\n      mstore(0x40, 0x80)\n      callvalue\n      dup1\n      iszero\n      tag_1\n      jumpi\n      0x00\n      dup1\n      revert\n    tag_1:\n      pop\n      jumpi(tag_2, lt(calldatasize, 0x04))\n      shr(0xe0, calldataload(0x00))\n      dup1\n      0x4852a212\n      gt\n      tag_10\n      jumpi\n      dup1\n      0x4852a212\n      eq\n      tag_6\n      jumpi\n      dup1\n      0x512d62df\n      eq\n      tag_7\n      jumpi\n      dup1\n      0x6d705ebb\n      eq\n      tag_8\n      jumpi\n      dup1\n      0xa87430ba\n      eq\n      tag_9\n      jumpi\n      jump(tag_2)\n    tag_10:\n      dup1\n      0x12065fe0\n      eq\n      tag_3\n      jumpi\n      dup1\n      0x2a0acc6a\n      eq\n      tag_4\n      jumpi\n      dup1\n      0x3613a9f4\n      eq\n      tag_5\n      jumpi\n    tag_2:\n      0x00\n      dup1\n      revert\n        /* \"contracts/Gym_Contact.sol\":1653:1766  function getBalance() public view returns(address, uint){\r... */\n    tag_3:\n      tag_11\n      tag_12\n      jump\t// in\n    tag_11:\n      mload(0x40)\n      tag_13\n      swap3\n      swap2\n      swap1\n      tag_14\n      jump\t// in\n    tag_13:\n      mload(0x40)\n      dup1\n      swap2\n      sub\n      swap1\n      return\n        /* \"contracts/Gym_Contact.sol\":392:422  address immutable public ADMIN */\n    tag_4:\n      tag_15\n      tag_16\n      jump\t// in\n    tag_15:\n      mload(0x40)\n      tag_17\n      swap2\n      swap1\n      tag_18\n      jump\t// in\n    tag_17:\n      mload(0x40)\n      dup1\n      swap2\n      sub\n      swap1\n      return\n        /* \"contracts/Gym_Contact.sol\":758:778  Class[] public class */\n    tag_5:\n      tag_19\n      0x04\n      dup1\n      calldatasize\n      sub\n      dup2\n      add\n      swap1\n      tag_20\n      swap2\n      swap1\n      tag_21\n      jump\t// in\n    tag_20:\n      tag_22\n      jump\t// in\n    tag_19:\n      mload(0x40)\n      tag_23\n      swap3\n      swap2\n      swap1\n      tag_24\n      jump\t// in\n    tag_23:\n      mload(0x40)\n      dup1\n      swap2\n      sub\n      swap1\n      return\n        /* \"contracts/Gym_Contact.sol\":818:1221  function createClass(string memory _name, uint _value) public {\r... */\n    tag_6:\n      tag_25\n      0x04\n      dup1\n      calldatasize\n      sub\n      dup2\n      add\n      swap1\n      tag_26\n      swap2\n      swap1\n      tag_27\n      jump\t// in\n    tag_26:\n      tag_28\n      jump\t// in\n    tag_25:\n      stop\n        /* \"contracts/Gym_Contact.sol\":1774:1955  function getClass(uint _index) public view returns (string memory name, uint value) {\r... */\n    tag_7:\n      tag_29\n      0x04\n      dup1\n      calldatasize\n      sub\n      dup2\n      add\n      swap1\n      tag_30\n      swap2\n      swap1\n      tag_21\n      jump\t// in\n    tag_30:\n      tag_31\n      jump\t// in\n    tag_29:\n      mload(0x40)\n      tag_32\n      swap3\n      swap2\n      swap1\n      tag_24\n      jump\t// in\n    tag_32:\n      mload(0x40)\n      dup1\n      swap2\n      sub\n      swap1\n      return\n        /* \"contracts/Gym_Contact.sol\":1259:1645  function register(address _address, uint _credits) public {\r... */\n    tag_8:\n      tag_33\n      0x04\n      dup1\n      calldatasize\n      sub\n      dup2\n      add\n      swap1\n      tag_34\n      swap2\n      swap1\n      tag_35\n      jump\t// in\n    tag_34:\n      tag_36\n      jump\t// in\n    tag_33:\n      stop\n        /* \"contracts/Gym_Contact.sol\":506:543  mapping(address => uint) public users */\n    tag_9:\n      tag_37\n      0x04\n      dup1\n      calldatasize\n      sub\n      dup2\n      add\n      swap1\n      tag_38\n      swap2\n      swap1\n      tag_39\n      jump\t// in\n    tag_38:\n      tag_40\n      jump\t// in\n    tag_37:\n      mload(0x40)\n      tag_41\n      swap2\n      swap1\n      tag_42\n      jump\t// in\n    tag_41:\n      mload(0x40)\n      dup1\n      swap2\n      sub\n      swap1\n      return\n        /* \"contracts/Gym_Contact.sol\":1653:1766  function getBalance() public view returns(address, uint){\r... */\n    tag_12:\n        /* \"contracts/Gym_Contact.sol\":1695:1702  address */\n      0x00\n        /* \"contracts/Gym_Contact.sol\":1704:1708  uint */\n      dup1\n        /* \"contracts/Gym_Contact.sol\":1728:1738  msg.sender */\n      caller\n        /* \"contracts/Gym_Contact.sol\":1740:1745  users */\n      0x00\n        /* \"contracts/Gym_Contact.sol\":1740:1757  users[msg.sender] */\n      dup1\n        /* \"contracts/Gym_Contact.sol\":1746:1756  msg.sender */\n      caller\n        /* \"contracts/Gym_Contact.sol\":1740:1757  users[msg.sender] */\n      0xffffffffffffffffffffffffffffffffffffffff\n      and\n      0xffffffffffffffffffffffffffffffffffffffff\n      and\n      dup2\n      mstore\n      0x20\n      add\n      swap1\n      dup2\n      mstore\n      0x20\n      add\n      0x00\n      keccak256\n      sload\n        /* \"contracts/Gym_Contact.sol\":1720:1758  return (msg.sender, users[msg.sender]) */\n      swap2\n      pop\n      swap2\n      pop\n        /* \"contracts/Gym_Contact.sol\":1653:1766  function getBalance() public view returns(address, uint){\r... */\n      swap1\n      swap2\n      jump\t// out\n        /* \"contracts/Gym_Contact.sol\":392:422  address immutable public ADMIN */\n    tag_16:\n      immutable(\"0x731dc163f73d31d8c68f9917ce4ff967753939f70432973c04fd2c2a48148607\")\n      dup2\n      jump\t// out\n        /* \"contracts/Gym_Contact.sol\":758:778  Class[] public class */\n    tag_22:\n      0x01\n      dup2\n      dup2\n      sload\n      dup2\n      lt\n      tag_44\n      jumpi\n      0x00\n      dup1\n      revert\n    tag_44:\n      swap1\n      0x00\n      mstore\n      keccak256(0x00, 0x20)\n      swap1\n      0x02\n      mul\n      add\n      0x00\n      swap2\n      pop\n      swap1\n      pop\n      dup1\n      0x00\n      add\n      dup1\n      sload\n      tag_46\n      swap1\n      tag_47\n      jump\t// in\n    tag_46:\n      dup1\n      0x1f\n      add\n      0x20\n      dup1\n      swap2\n      div\n      mul\n      0x20\n      add\n      mload(0x40)\n      swap1\n      dup2\n      add\n      0x40\n      mstore\n      dup1\n      swap3\n      swap2\n      swap1\n      dup2\n      dup2\n      mstore\n      0x20\n      add\n      dup3\n      dup1\n      sload\n      tag_48\n      swap1\n      tag_47\n      jump\t// in\n    tag_48:\n      dup1\n      iszero\n      tag_49\n      jumpi\n      dup1\n      0x1f\n      lt\n      tag_50\n      jumpi\n      0x0100\n      dup1\n      dup4\n      sload\n      div\n      mul\n      dup4\n      mstore\n      swap2\n      0x20\n      add\n      swap2\n      jump(tag_49)\n    tag_50:\n      dup3\n      add\n      swap2\n      swap1\n      0x00\n      mstore\n      keccak256(0x00, 0x20)\n      swap1\n    tag_51:\n      dup2\n      sload\n      dup2\n      mstore\n      swap1\n      0x01\n      add\n      swap1\n      0x20\n      add\n      dup1\n      dup4\n      gt\n      tag_51\n      jumpi\n      dup3\n      swap1\n      sub\n      0x1f\n      and\n      dup3\n      add\n      swap2\n    tag_49:\n      pop\n      pop\n      pop\n      pop\n      pop\n      swap1\n      dup1\n      0x01\n      add\n      sload\n      swap1\n      pop\n      dup3\n      jump\t// out\n        /* \"contracts/Gym_Contact.sol\":818:1221  function createClass(string memory _name, uint _value) public {\r... */\n    tag_28:\n        /* \"contracts/Gym_Contact.sol\":908:918  msg.sender */\n      caller\n        /* \"contracts/Gym_Contact.sol\":899:918  ADMIN == msg.sender */\n      0xffffffffffffffffffffffffffffffffffffffff\n      and\n        /* \"contracts/Gym_Contact.sol\":899:904  ADMIN */\n      immutable(\"0x731dc163f73d31d8c68f9917ce4ff967753939f70432973c04fd2c2a48148607\")\n        /* \"contracts/Gym_Contact.sol\":899:918  ADMIN == msg.sender */\n      0xffffffffffffffffffffffffffffffffffffffff\n      and\n      eq\n        /* \"contracts/Gym_Contact.sol\":891:971  require(ADMIN == msg.sender, \"Solo el Administrador del Gym puede crear clases\") */\n      tag_53\n      jumpi\n      mload(0x40)\n      0x08c379a000000000000000000000000000000000000000000000000000000000\n      dup2\n      mstore\n      0x04\n      add\n      tag_54\n      swap1\n      tag_55\n      jump\t// in\n    tag_54:\n      mload(0x40)\n      dup1\n      swap2\n      sub\n      swap1\n      revert\n    tag_53:\n        /* \"contracts/Gym_Contact.sol\":982:987  class */\n      0x01\n        /* \"contracts/Gym_Contact.sol\":993:1013  Class(_name, _value) */\n      mload(0x40)\n      dup1\n      0x40\n      add\n      0x40\n      mstore\n      dup1\n        /* \"contracts/Gym_Contact.sol\":999:1004  _name */\n      dup5\n        /* \"contracts/Gym_Contact.sol\":993:1013  Class(_name, _value) */\n      dup2\n      mstore\n      0x20\n      add\n        /* \"contracts/Gym_Contact.sol\":1006:1012  _value */\n      dup4\n        /* \"contracts/Gym_Contact.sol\":993:1013  Class(_name, _value) */\n      dup2\n      mstore\n      pop\n        /* \"contracts/Gym_Contact.sol\":982:1014  class.push(Class(_name, _value)) */\n      swap1\n      dup1\n      0x01\n      dup2\n      sload\n      add\n      dup1\n      dup3\n      sstore\n      dup1\n      swap2\n      pop\n      pop\n      0x01\n      swap1\n      sub\n      swap1\n      0x00\n      mstore\n      keccak256(0x00, 0x20)\n      swap1\n      0x02\n      mul\n      add\n      0x00\n      swap1\n      swap2\n      swap1\n      swap2\n      swap1\n      swap2\n      pop\n      0x00\n      dup3\n      add\n      mload\n      dup2\n      0x00\n      add\n      swap1\n      dup1\n      mload\n      swap1\n      0x20\n      add\n      swap1\n      tag_57\n      swap3\n      swap2\n      swap1\n      tag_58\n      jump\t// in\n    tag_57:\n      pop\n      0x20\n      dup3\n      add\n      mload\n      dup2\n      0x01\n      add\n      sstore\n      pop\n      pop\n        /* \"contracts/Gym_Contact.sol\":1030:1057  ClassCreated(_name, _value) */\n      0x14d49e3ea4f348b7f368906dfe1a63055c7822d622a61672a35a55ae97a768f9\n        /* \"contracts/Gym_Contact.sol\":1043:1048  _name */\n      dup3\n        /* \"contracts/Gym_Contact.sol\":1050:1056  _value */\n      dup3\n        /* \"contracts/Gym_Contact.sol\":1030:1057  ClassCreated(_name, _value) */\n      mload(0x40)\n      tag_59\n      swap3\n      swap2\n      swap1\n      tag_24\n      jump\t// in\n    tag_59:\n      mload(0x40)\n      dup1\n      swap2\n      sub\n      swap1\n      log1\n        /* \"contracts/Gym_Contact.sol\":818:1221  function createClass(string memory _name, uint _value) public {\r... */\n      pop\n      pop\n      jump\t// out\n        /* \"contracts/Gym_Contact.sol\":1774:1955  function getClass(uint _index) public view returns (string memory name, uint value) {\r... */\n    tag_31:\n        /* \"contracts/Gym_Contact.sol\":1826:1844  string memory name */\n      0x60\n        /* \"contracts/Gym_Contact.sol\":1846:1856  uint value */\n      0x00\n        /* \"contracts/Gym_Contact.sol\":1869:1888  Class storage clase */\n      dup1\n        /* \"contracts/Gym_Contact.sol\":1891:1896  class */\n      0x01\n        /* \"contracts/Gym_Contact.sol\":1897:1903  _index */\n      dup5\n        /* \"contracts/Gym_Contact.sol\":1891:1904  class[_index] */\n      dup2\n      sload\n      dup2\n      lt\n      tag_61\n      jumpi\n      tag_62\n      tag_63\n      jump\t// in\n    tag_62:\n    tag_61:\n      swap1\n      0x00\n      mstore\n      keccak256(0x00, 0x20)\n      swap1\n      0x02\n      mul\n      add\n        /* \"contracts/Gym_Contact.sol\":1869:1904  Class storage clase = class[_index] */\n      swap1\n      pop\n        /* \"contracts/Gym_Contact.sol\":1923:1928  clase */\n      dup1\n        /* \"contracts/Gym_Contact.sol\":1923:1933  clase.name */\n      0x00\n      add\n        /* \"contracts/Gym_Contact.sol\":1935:1940  clase */\n      dup2\n        /* \"contracts/Gym_Contact.sol\":1935:1946  clase.value */\n      0x01\n      add\n      sload\n        /* \"contracts/Gym_Contact.sol\":1915:1947  return (clase.name, clase.value) */\n      dup2\n      dup1\n      sload\n      tag_65\n      swap1\n      tag_47\n      jump\t// in\n    tag_65:\n      dup1\n      0x1f\n      add\n      0x20\n      dup1\n      swap2\n      div\n      mul\n      0x20\n      add\n      mload(0x40)\n      swap1\n      dup2\n      add\n      0x40\n      mstore\n      dup1\n      swap3\n      swap2\n      swap1\n      dup2\n      dup2\n      mstore\n      0x20\n      add\n      dup3\n      dup1\n      sload\n      tag_66\n      swap1\n      tag_47\n      jump\t// in\n    tag_66:\n      dup1\n      iszero\n      tag_67\n      jumpi\n      dup1\n      0x1f\n      lt\n      tag_68\n      jumpi\n      0x0100\n      dup1\n      dup4\n      sload\n      div\n      mul\n      dup4\n      mstore\n      swap2\n      0x20\n      add\n      swap2\n      jump(tag_67)\n    tag_68:\n      dup3\n      add\n      swap2\n      swap1\n      0x00\n      mstore\n      keccak256(0x00, 0x20)\n      swap1\n    tag_69:\n      dup2\n      sload\n      dup2\n      mstore\n      swap1\n      0x01\n      add\n      swap1\n      0x20\n      add\n      dup1\n      dup4\n      gt\n      tag_69\n      jumpi\n      dup3\n      swap1\n      sub\n      0x1f\n      and\n      dup3\n      add\n      swap2\n    tag_67:\n      pop\n      pop\n      pop\n      pop\n      pop\n      swap2\n      pop\n      swap3\n      pop\n      swap3\n      pop\n      pop\n        /* \"contracts/Gym_Contact.sol\":1774:1955  function getClass(uint _index) public view returns (string memory name, uint value) {\r... */\n      swap2\n      pop\n      swap2\n      jump\t// out\n        /* \"contracts/Gym_Contact.sol\":1259:1645  function register(address _address, uint _credits) public {\r... */\n    tag_36:\n        /* \"contracts/Gym_Contact.sol\":1460:1461  0 */\n      0x00\n        /* \"contracts/Gym_Contact.sol\":1439:1444  users */\n      dup1\n        /* \"contracts/Gym_Contact.sol\":1439:1456  users[msg.sender] */\n      0x00\n        /* \"contracts/Gym_Contact.sol\":1445:1455  msg.sender */\n      caller\n        /* \"contracts/Gym_Contact.sol\":1439:1456  users[msg.sender] */\n      0xffffffffffffffffffffffffffffffffffffffff\n      and\n      0xffffffffffffffffffffffffffffffffffffffff\n      and\n      dup2\n      mstore\n      0x20\n      add\n      swap1\n      dup2\n      mstore\n      0x20\n      add\n      0x00\n      keccak256\n      sload\n        /* \"contracts/Gym_Contact.sol\":1439:1461  users[msg.sender] == 0 */\n      eq\n        /* \"contracts/Gym_Contact.sol\":1431:1503  require(users[msg.sender] == 0, \"Ya te encuentras registrado en el gym\") */\n      tag_71\n      jumpi\n      mload(0x40)\n      0x08c379a000000000000000000000000000000000000000000000000000000000\n      dup2\n      mstore\n      0x04\n      add\n      tag_72\n      swap1\n      tag_73\n      jump\t// in\n    tag_72:\n      mload(0x40)\n      dup1\n      swap2\n      sub\n      swap1\n      revert\n    tag_71:\n        /* \"contracts/Gym_Contact.sol\":1534:1542  _credits */\n      dup1\n        /* \"contracts/Gym_Contact.sol\":1514:1519  users */\n      0x00\n        /* \"contracts/Gym_Contact.sol\":1514:1531  users[msg.sender] */\n      dup1\n        /* \"contracts/Gym_Contact.sol\":1520:1530  msg.sender */\n      caller\n        /* \"contracts/Gym_Contact.sol\":1514:1531  users[msg.sender] */\n      0xffffffffffffffffffffffffffffffffffffffff\n      and\n      0xffffffffffffffffffffffffffffffffffffffff\n      and\n      dup2\n      mstore\n      0x20\n      add\n      swap1\n      dup2\n      mstore\n      0x20\n      add\n      0x00\n      keccak256\n        /* \"contracts/Gym_Contact.sol\":1514:1542  users[msg.sender] = _credits */\n      dup2\n      swap1\n      sstore\n      pop\n        /* \"contracts/Gym_Contact.sol\":1558:1586  Register(_address, _credits) */\n      0x7dc6ab80cc84c043b7b8d4fcafc802187470087f7ea7fccd2e17aecd0256a1\n        /* \"contracts/Gym_Contact.sol\":1567:1575  _address */\n      dup3\n        /* \"contracts/Gym_Contact.sol\":1577:1585  _credits */\n      dup3\n        /* \"contracts/Gym_Contact.sol\":1558:1586  Register(_address, _credits) */\n      mload(0x40)\n      tag_74\n      swap3\n      swap2\n      swap1\n      tag_14\n      jump\t// in\n    tag_74:\n      mload(0x40)\n      dup1\n      swap2\n      sub\n      swap1\n      log1\n        /* \"contracts/Gym_Contact.sol\":1259:1645  function register(address _address, uint _credits) public {\r... */\n      pop\n      pop\n      jump\t// out\n        /* \"contracts/Gym_Contact.sol\":506:543  mapping(address => uint) public users */\n    tag_40:\n      mstore(0x20, 0x00)\n      dup1\n      0x00\n      mstore\n      keccak256(0x00, 0x40)\n      0x00\n      swap2\n      pop\n      swap1\n      pop\n      sload\n      dup2\n      jump\t// out\n    tag_58:\n      dup3\n      dup1\n      sload\n      tag_75\n      swap1\n      tag_47\n      jump\t// in\n    tag_75:\n      swap1\n      0x00\n      mstore\n      keccak256(0x00, 0x20)\n      swap1\n      0x1f\n      add\n      0x20\n      swap1\n      div\n      dup2\n      add\n      swap3\n      dup3\n      tag_77\n      jumpi\n      0x00\n      dup6\n      sstore\n      jump(tag_76)\n    tag_77:\n      dup3\n      0x1f\n      lt\n      tag_78\n      jumpi\n      dup1\n      mload\n      not(0xff)\n      and\n      dup4\n      dup1\n      add\n      or\n      dup6\n      sstore\n      jump(tag_76)\n    tag_78:\n      dup3\n      dup1\n      add\n      0x01\n      add\n      dup6\n      sstore\n      dup3\n      iszero\n      tag_76\n      jumpi\n      swap2\n      dup3\n      add\n    tag_79:\n      dup3\n      dup2\n      gt\n      iszero\n      tag_80\n      jumpi\n      dup3\n      mload\n      dup3\n      sstore\n      swap2\n      0x20\n      add\n      swap2\n      swap1\n      0x01\n      add\n      swap1\n      jump(tag_79)\n    tag_80:\n    tag_76:\n      pop\n      swap1\n      pop\n      tag_81\n      swap2\n      swap1\n      tag_82\n      jump\t// in\n    tag_81:\n      pop\n      swap1\n      jump\t// out\n    tag_82:\n    tag_83:\n      dup1\n      dup3\n      gt\n      iszero\n      tag_84\n      jumpi\n      0x00\n      dup2\n      0x00\n      swap1\n      sstore\n      pop\n      0x01\n      add\n      jump(tag_83)\n    tag_84:\n      pop\n      swap1\n      jump\t// out\n        /* \"#utility.yul\":7:419   */\n    tag_86:\n        /* \"#utility.yul\":85:90   */\n      0x00\n        /* \"#utility.yul\":110:176   */\n      tag_88\n        /* \"#utility.yul\":126:175   */\n      tag_89\n        /* \"#utility.yul\":168:174   */\n      dup5\n        /* \"#utility.yul\":126:175   */\n      tag_90\n      jump\t// in\n    tag_89:\n        /* \"#utility.yul\":110:176   */\n      tag_91\n      jump\t// in\n    tag_88:\n        /* \"#utility.yul\":101:176   */\n      swap1\n      pop\n        /* \"#utility.yul\":199:205   */\n      dup3\n        /* \"#utility.yul\":192:197   */\n      dup2\n        /* \"#utility.yul\":185:206   */\n      mstore\n        /* \"#utility.yul\":237:241   */\n      0x20\n        /* \"#utility.yul\":230:235   */\n      dup2\n        /* \"#utility.yul\":226:242   */\n      add\n        /* \"#utility.yul\":275:278   */\n      dup5\n        /* \"#utility.yul\":266:272   */\n      dup5\n        /* \"#utility.yul\":261:264   */\n      dup5\n        /* \"#utility.yul\":257:273   */\n      add\n        /* \"#utility.yul\":254:279   */\n      gt\n        /* \"#utility.yul\":251:363   */\n      iszero\n      tag_92\n      jumpi\n        /* \"#utility.yul\":282:361   */\n      tag_93\n      tag_94\n      jump\t// in\n    tag_93:\n        /* \"#utility.yul\":251:363   */\n    tag_92:\n        /* \"#utility.yul\":372:413   */\n      tag_95\n        /* \"#utility.yul\":406:412   */\n      dup5\n        /* \"#utility.yul\":401:404   */\n      dup3\n        /* \"#utility.yul\":396:399   */\n      dup6\n        /* \"#utility.yul\":372:413   */\n      tag_96\n      jump\t// in\n    tag_95:\n        /* \"#utility.yul\":91:419   */\n      pop\n        /* \"#utility.yul\":7:419   */\n      swap4\n      swap3\n      pop\n      pop\n      pop\n      jump\t// out\n        /* \"#utility.yul\":425:564   */\n    tag_97:\n        /* \"#utility.yul\":471:476   */\n      0x00\n        /* \"#utility.yul\":509:515   */\n      dup2\n        /* \"#utility.yul\":496:516   */\n      calldataload\n        /* \"#utility.yul\":487:516   */\n      swap1\n      pop\n        /* \"#utility.yul\":525:558   */\n      tag_99\n        /* \"#utility.yul\":552:557   */\n      dup2\n        /* \"#utility.yul\":525:558   */\n      tag_100\n      jump\t// in\n    tag_99:\n        /* \"#utility.yul\":425:564   */\n      swap3\n      swap2\n      pop\n      pop\n      jump\t// out\n        /* \"#utility.yul\":584:924   */\n    tag_101:\n        /* \"#utility.yul\":640:645   */\n      0x00\n        /* \"#utility.yul\":689:692   */\n      dup3\n        /* \"#utility.yul\":682:686   */\n      0x1f\n        /* \"#utility.yul\":674:680   */\n      dup4\n        /* \"#utility.yul\":670:687   */\n      add\n        /* \"#utility.yul\":666:693   */\n      slt\n        /* \"#utility.yul\":656:778   */\n      tag_103\n      jumpi\n        /* \"#utility.yul\":697:776   */\n      tag_104\n      tag_105\n      jump\t// in\n    tag_104:\n        /* \"#utility.yul\":656:778   */\n    tag_103:\n        /* \"#utility.yul\":814:820   */\n      dup2\n        /* \"#utility.yul\":801:821   */\n      calldataload\n        /* \"#utility.yul\":839:918   */\n      tag_106\n        /* \"#utility.yul\":914:917   */\n      dup5\n        /* \"#utility.yul\":906:912   */\n      dup3\n        /* \"#utility.yul\":899:903   */\n      0x20\n        /* \"#utility.yul\":891:897   */\n      dup7\n        /* \"#utility.yul\":887:904   */\n      add\n        /* \"#utility.yul\":839:918   */\n      tag_86\n      jump\t// in\n    tag_106:\n        /* \"#utility.yul\":830:918   */\n      swap2\n      pop\n        /* \"#utility.yul\":646:924   */\n      pop\n        /* \"#utility.yul\":584:924   */\n      swap3\n      swap2\n      pop\n      pop\n      jump\t// out\n        /* \"#utility.yul\":930:1069   */\n    tag_107:\n        /* \"#utility.yul\":976:981   */\n      0x00\n        /* \"#utility.yul\":1014:1020   */\n      dup2\n        /* \"#utility.yul\":1001:1021   */\n      calldataload\n        /* \"#utility.yul\":992:1021   */\n      swap1\n      pop\n        /* \"#utility.yul\":1030:1063   */\n      tag_109\n        /* \"#utility.yul\":1057:1062   */\n      dup2\n        /* \"#utility.yul\":1030:1063   */\n      tag_110\n      jump\t// in\n    tag_109:\n        /* \"#utility.yul\":930:1069   */\n      swap3\n      swap2\n      pop\n      pop\n      jump\t// out\n        /* \"#utility.yul\":1075:1404   */\n    tag_39:\n        /* \"#utility.yul\":1134:1140   */\n      0x00\n        /* \"#utility.yul\":1183:1185   */\n      0x20\n        /* \"#utility.yul\":1171:1180   */\n      dup3\n        /* \"#utility.yul\":1162:1169   */\n      dup5\n        /* \"#utility.yul\":1158:1181   */\n      sub\n        /* \"#utility.yul\":1154:1186   */\n      slt\n        /* \"#utility.yul\":1151:1270   */\n      iszero\n      tag_112\n      jumpi\n        /* \"#utility.yul\":1189:1268   */\n      tag_113\n      tag_114\n      jump\t// in\n    tag_113:\n        /* \"#utility.yul\":1151:1270   */\n    tag_112:\n        /* \"#utility.yul\":1309:1310   */\n      0x00\n        /* \"#utility.yul\":1334:1387   */\n      tag_115\n        /* \"#utility.yul\":1379:1386   */\n      dup5\n        /* \"#utility.yul\":1370:1376   */\n      dup3\n        /* \"#utility.yul\":1359:1368   */\n      dup6\n        /* \"#utility.yul\":1355:1377   */\n      add\n        /* \"#utility.yul\":1334:1387   */\n      tag_97\n      jump\t// in\n    tag_115:\n        /* \"#utility.yul\":1324:1387   */\n      swap2\n      pop\n        /* \"#utility.yul\":1280:1397   */\n      pop\n        /* \"#utility.yul\":1075:1404   */\n      swap3\n      swap2\n      pop\n      pop\n      jump\t// out\n        /* \"#utility.yul\":1410:1884   */\n    tag_35:\n        /* \"#utility.yul\":1478:1484   */\n      0x00\n        /* \"#utility.yul\":1486:1492   */\n      dup1\n        /* \"#utility.yul\":1535:1537   */\n      0x40\n        /* \"#utility.yul\":1523:1532   */\n      dup4\n        /* \"#utility.yul\":1514:1521   */\n      dup6\n        /* \"#utility.yul\":1510:1533   */\n      sub\n        /* \"#utility.yul\":1506:1538   */\n      slt\n        /* \"#utility.yul\":1503:1622   */\n      iszero\n      tag_117\n      jumpi\n        /* \"#utility.yul\":1541:1620   */\n      tag_118\n      tag_114\n      jump\t// in\n    tag_118:\n        /* \"#utility.yul\":1503:1622   */\n    tag_117:\n        /* \"#utility.yul\":1661:1662   */\n      0x00\n        /* \"#utility.yul\":1686:1739   */\n      tag_119\n        /* \"#utility.yul\":1731:1738   */\n      dup6\n        /* \"#utility.yul\":1722:1728   */\n      dup3\n        /* \"#utility.yul\":1711:1720   */\n      dup7\n        /* \"#utility.yul\":1707:1729   */\n      add\n        /* \"#utility.yul\":1686:1739   */\n      tag_97\n      jump\t// in\n    tag_119:\n        /* \"#utility.yul\":1676:1739   */\n      swap3\n      pop\n        /* \"#utility.yul\":1632:1749   */\n      pop\n        /* \"#utility.yul\":1788:1790   */\n      0x20\n        /* \"#utility.yul\":1814:1867   */\n      tag_120\n        /* \"#utility.yul\":1859:1866   */\n      dup6\n        /* \"#utility.yul\":1850:1856   */\n      dup3\n        /* \"#utility.yul\":1839:1848   */\n      dup7\n        /* \"#utility.yul\":1835:1857   */\n      add\n        /* \"#utility.yul\":1814:1867   */\n      tag_107\n      jump\t// in\n    tag_120:\n        /* \"#utility.yul\":1804:1867   */\n      swap2\n      pop\n        /* \"#utility.yul\":1759:1877   */\n      pop\n        /* \"#utility.yul\":1410:1884   */\n      swap3\n      pop\n      swap3\n      swap1\n      pop\n      jump\t// out\n        /* \"#utility.yul\":1890:2544   */\n    tag_27:\n        /* \"#utility.yul\":1968:1974   */\n      0x00\n        /* \"#utility.yul\":1976:1982   */\n      dup1\n        /* \"#utility.yul\":2025:2027   */\n      0x40\n        /* \"#utility.yul\":2013:2022   */\n      dup4\n        /* \"#utility.yul\":2004:2011   */\n      dup6\n        /* \"#utility.yul\":2000:2023   */\n      sub\n        /* \"#utility.yul\":1996:2028   */\n      slt\n        /* \"#utility.yul\":1993:2112   */\n      iszero\n      tag_122\n      jumpi\n        /* \"#utility.yul\":2031:2110   */\n      tag_123\n      tag_114\n      jump\t// in\n    tag_123:\n        /* \"#utility.yul\":1993:2112   */\n    tag_122:\n        /* \"#utility.yul\":2179:2180   */\n      0x00\n        /* \"#utility.yul\":2168:2177   */\n      dup4\n        /* \"#utility.yul\":2164:2181   */\n      add\n        /* \"#utility.yul\":2151:2182   */\n      calldataload\n        /* \"#utility.yul\":2209:2227   */\n      0xffffffffffffffff\n        /* \"#utility.yul\":2201:2207   */\n      dup2\n        /* \"#utility.yul\":2198:2228   */\n      gt\n        /* \"#utility.yul\":2195:2312   */\n      iszero\n      tag_124\n      jumpi\n        /* \"#utility.yul\":2231:2310   */\n      tag_125\n      tag_126\n      jump\t// in\n    tag_125:\n        /* \"#utility.yul\":2195:2312   */\n    tag_124:\n        /* \"#utility.yul\":2336:2399   */\n      tag_127\n        /* \"#utility.yul\":2391:2398   */\n      dup6\n        /* \"#utility.yul\":2382:2388   */\n      dup3\n        /* \"#utility.yul\":2371:2380   */\n      dup7\n        /* \"#utility.yul\":2367:2389   */\n      add\n        /* \"#utility.yul\":2336:2399   */\n      tag_101\n      jump\t// in\n    tag_127:\n        /* \"#utility.yul\":2326:2399   */\n      swap3\n      pop\n        /* \"#utility.yul\":2122:2409   */\n      pop\n        /* \"#utility.yul\":2448:2450   */\n      0x20\n        /* \"#utility.yul\":2474:2527   */\n      tag_128\n        /* \"#utility.yul\":2519:2526   */\n      dup6\n        /* \"#utility.yul\":2510:2516   */\n      dup3\n        /* \"#utility.yul\":2499:2508   */\n      dup7\n        /* \"#utility.yul\":2495:2517   */\n      add\n        /* \"#utility.yul\":2474:2527   */\n      tag_107\n      jump\t// in\n    tag_128:\n        /* \"#utility.yul\":2464:2527   */\n      swap2\n      pop\n        /* \"#utility.yul\":2419:2537   */\n      pop\n        /* \"#utility.yul\":1890:2544   */\n      swap3\n      pop\n      swap3\n      swap1\n      pop\n      jump\t// out\n        /* \"#utility.yul\":2550:2879   */\n    tag_21:\n        /* \"#utility.yul\":2609:2615   */\n      0x00\n        /* \"#utility.yul\":2658:2660   */\n      0x20\n        /* \"#utility.yul\":2646:2655   */\n      dup3\n        /* \"#utility.yul\":2637:2644   */\n      dup5\n        /* \"#utility.yul\":2633:2656   */\n      sub\n        /* \"#utility.yul\":2629:2661   */\n      slt\n        /* \"#utility.yul\":2626:2745   */\n      iszero\n      tag_130\n      jumpi\n        /* \"#utility.yul\":2664:2743   */\n      tag_131\n      tag_114\n      jump\t// in\n    tag_131:\n        /* \"#utility.yul\":2626:2745   */\n    tag_130:\n        /* \"#utility.yul\":2784:2785   */\n      0x00\n        /* \"#utility.yul\":2809:2862   */\n      tag_132\n        /* \"#utility.yul\":2854:2861   */\n      dup5\n        /* \"#utility.yul\":2845:2851   */\n      dup3\n        /* \"#utility.yul\":2834:2843   */\n      dup6\n        /* \"#utility.yul\":2830:2852   */\n      add\n        /* \"#utility.yul\":2809:2862   */\n      tag_107\n      jump\t// in\n    tag_132:\n        /* \"#utility.yul\":2799:2862   */\n      swap2\n      pop\n        /* \"#utility.yul\":2755:2872   */\n      pop\n        /* \"#utility.yul\":2550:2879   */\n      swap3\n      swap2\n      pop\n      pop\n      jump\t// out\n        /* \"#utility.yul\":2885:3003   */\n    tag_133:\n        /* \"#utility.yul\":2972:2996   */\n      tag_135\n        /* \"#utility.yul\":2990:2995   */\n      dup2\n        /* \"#utility.yul\":2972:2996   */\n      tag_136\n      jump\t// in\n    tag_135:\n        /* \"#utility.yul\":2967:2970   */\n      dup3\n        /* \"#utility.yul\":2960:2997   */\n      mstore\n        /* \"#utility.yul\":2885:3003   */\n      pop\n      pop\n      jump\t// out\n        /* \"#utility.yul\":3009:3373   */\n    tag_137:\n        /* \"#utility.yul\":3097:3100   */\n      0x00\n        /* \"#utility.yul\":3125:3164   */\n      tag_139\n        /* \"#utility.yul\":3158:3163   */\n      dup3\n        /* \"#utility.yul\":3125:3164   */\n      tag_140\n      jump\t// in\n    tag_139:\n        /* \"#utility.yul\":3180:3251   */\n      tag_141\n        /* \"#utility.yul\":3244:3250   */\n      dup2\n        /* \"#utility.yul\":3239:3242   */\n      dup6\n        /* \"#utility.yul\":3180:3251   */\n      tag_142\n      jump\t// in\n    tag_141:\n        /* \"#utility.yul\":3173:3251   */\n      swap4\n      pop\n        /* \"#utility.yul\":3260:3312   */\n      tag_143\n        /* \"#utility.yul\":3305:3311   */\n      dup2\n        /* \"#utility.yul\":3300:3303   */\n      dup6\n        /* \"#utility.yul\":3293:3297   */\n      0x20\n        /* \"#utility.yul\":3286:3291   */\n      dup7\n        /* \"#utility.yul\":3282:3298   */\n      add\n        /* \"#utility.yul\":3260:3312   */\n      tag_144\n      jump\t// in\n    tag_143:\n        /* \"#utility.yul\":3337:3366   */\n      tag_145\n        /* \"#utility.yul\":3359:3365   */\n      dup2\n        /* \"#utility.yul\":3337:3366   */\n      tag_146\n      jump\t// in\n    tag_145:\n        /* \"#utility.yul\":3332:3335   */\n      dup5\n        /* \"#utility.yul\":3328:3367   */\n      add\n        /* \"#utility.yul\":3321:3367   */\n      swap2\n      pop\n        /* \"#utility.yul\":3101:3373   */\n      pop\n        /* \"#utility.yul\":3009:3373   */\n      swap3\n      swap2\n      pop\n      pop\n      jump\t// out\n        /* \"#utility.yul\":3379:3745   */\n    tag_147:\n        /* \"#utility.yul\":3521:3524   */\n      0x00\n        /* \"#utility.yul\":3542:3609   */\n      tag_149\n        /* \"#utility.yul\":3606:3608   */\n      0x25\n        /* \"#utility.yul\":3601:3604   */\n      dup4\n        /* \"#utility.yul\":3542:3609   */\n      tag_142\n      jump\t// in\n    tag_149:\n        /* \"#utility.yul\":3535:3609   */\n      swap2\n      pop\n        /* \"#utility.yul\":3618:3711   */\n      tag_150\n        /* \"#utility.yul\":3707:3710   */\n      dup3\n        /* \"#utility.yul\":3618:3711   */\n      tag_151\n      jump\t// in\n    tag_150:\n        /* \"#utility.yul\":3736:3738   */\n      0x40\n        /* \"#utility.yul\":3731:3734   */\n      dup3\n        /* \"#utility.yul\":3727:3739   */\n      add\n        /* \"#utility.yul\":3720:3739   */\n      swap1\n      pop\n        /* \"#utility.yul\":3379:3745   */\n      swap2\n      swap1\n      pop\n      jump\t// out\n        /* \"#utility.yul\":3751:4117   */\n    tag_152:\n        /* \"#utility.yul\":3893:3896   */\n      0x00\n        /* \"#utility.yul\":3914:3981   */\n      tag_154\n        /* \"#utility.yul\":3978:3980   */\n      0x30\n        /* \"#utility.yul\":3973:3976   */\n      dup4\n        /* \"#utility.yul\":3914:3981   */\n      tag_142\n      jump\t// in\n    tag_154:\n        /* \"#utility.yul\":3907:3981   */\n      swap2\n      pop\n        /* \"#utility.yul\":3990:4083   */\n      tag_155\n        /* \"#utility.yul\":4079:4082   */\n      dup3\n        /* \"#utility.yul\":3990:4083   */\n      tag_156\n      jump\t// in\n    tag_155:\n        /* \"#utility.yul\":4108:4110   */\n      0x40\n        /* \"#utility.yul\":4103:4106   */\n      dup3\n        /* \"#utility.yul\":4099:4111   */\n      add\n        /* \"#utility.yul\":4092:4111   */\n      swap1\n      pop\n        /* \"#utility.yul\":3751:4117   */\n      swap2\n      swap1\n      pop\n      jump\t// out\n        /* \"#utility.yul\":4123:4241   */\n    tag_157:\n        /* \"#utility.yul\":4210:4234   */\n      tag_159\n        /* \"#utility.yul\":4228:4233   */\n      dup2\n        /* \"#utility.yul\":4210:4234   */\n      tag_160\n      jump\t// in\n    tag_159:\n        /* \"#utility.yul\":4205:4208   */\n      dup3\n        /* \"#utility.yul\":4198:4235   */\n      mstore\n        /* \"#utility.yul\":4123:4241   */\n      pop\n      pop\n      jump\t// out\n        /* \"#utility.yul\":4247:4469   */\n    tag_18:\n        /* \"#utility.yul\":4340:4344   */\n      0x00\n        /* \"#utility.yul\":4378:4380   */\n      0x20\n        /* \"#utility.yul\":4367:4376   */\n      dup3\n        /* \"#utility.yul\":4363:4381   */\n      add\n        /* \"#utility.yul\":4355:4381   */\n      swap1\n      pop\n        /* \"#utility.yul\":4391:4462   */\n      tag_162\n        /* \"#utility.yul\":4459:4460   */\n      0x00\n        /* \"#utility.yul\":4448:4457   */\n      dup4\n        /* \"#utility.yul\":4444:4461   */\n      add\n        /* \"#utility.yul\":4435:4441   */\n      dup5\n        /* \"#utility.yul\":4391:4462   */\n      tag_133\n      jump\t// in\n    tag_162:\n        /* \"#utility.yul\":4247:4469   */\n      swap3\n      swap2\n      pop\n      pop\n      jump\t// out\n        /* \"#utility.yul\":4475:4807   */\n    tag_14:\n        /* \"#utility.yul\":4596:4600   */\n      0x00\n        /* \"#utility.yul\":4634:4636   */\n      0x40\n        /* \"#utility.yul\":4623:4632   */\n      dup3\n        /* \"#utility.yul\":4619:4637   */\n      add\n        /* \"#utility.yul\":4611:4637   */\n      swap1\n      pop\n        /* \"#utility.yul\":4647:4718   */\n      tag_164\n        /* \"#utility.yul\":4715:4716   */\n      0x00\n        /* \"#utility.yul\":4704:4713   */\n      dup4\n        /* \"#utility.yul\":4700:4717   */\n      add\n        /* \"#utility.yul\":4691:4697   */\n      dup6\n        /* \"#utility.yul\":4647:4718   */\n      tag_133\n      jump\t// in\n    tag_164:\n        /* \"#utility.yul\":4728:4800   */\n      tag_165\n        /* \"#utility.yul\":4796:4798   */\n      0x20\n        /* \"#utility.yul\":4785:4794   */\n      dup4\n        /* \"#utility.yul\":4781:4799   */\n      add\n        /* \"#utility.yul\":4772:4778   */\n      dup5\n        /* \"#utility.yul\":4728:4800   */\n      tag_157\n      jump\t// in\n    tag_165:\n        /* \"#utility.yul\":4475:4807   */\n      swap4\n      swap3\n      pop\n      pop\n      pop\n      jump\t// out\n        /* \"#utility.yul\":4813:5236   */\n    tag_24:\n        /* \"#utility.yul\":4954:4958   */\n      0x00\n        /* \"#utility.yul\":4992:4994   */\n      0x40\n        /* \"#utility.yul\":4981:4990   */\n      dup3\n        /* \"#utility.yul\":4977:4995   */\n      add\n        /* \"#utility.yul\":4969:4995   */\n      swap1\n      pop\n        /* \"#utility.yul\":5041:5050   */\n      dup2\n        /* \"#utility.yul\":5035:5039   */\n      dup2\n        /* \"#utility.yul\":5031:5051   */\n      sub\n        /* \"#utility.yul\":5027:5028   */\n      0x00\n        /* \"#utility.yul\":5016:5025   */\n      dup4\n        /* \"#utility.yul\":5012:5029   */\n      add\n        /* \"#utility.yul\":5005:5052   */\n      mstore\n        /* \"#utility.yul\":5069:5147   */\n      tag_167\n        /* \"#utility.yul\":5142:5146   */\n      dup2\n        /* \"#utility.yul\":5133:5139   */\n      dup6\n        /* \"#utility.yul\":5069:5147   */\n      tag_137\n      jump\t// in\n    tag_167:\n        /* \"#utility.yul\":5061:5147   */\n      swap1\n      pop\n        /* \"#utility.yul\":5157:5229   */\n      tag_168\n        /* \"#utility.yul\":5225:5227   */\n      0x20\n        /* \"#utility.yul\":5214:5223   */\n      dup4\n        /* \"#utility.yul\":5210:5228   */\n      add\n        /* \"#utility.yul\":5201:5207   */\n      dup5\n        /* \"#utility.yul\":5157:5229   */\n      tag_157\n      jump\t// in\n    tag_168:\n        /* \"#utility.yul\":4813:5236   */\n      swap4\n      swap3\n      pop\n      pop\n      pop\n      jump\t// out\n        /* \"#utility.yul\":5242:5661   */\n    tag_73:\n        /* \"#utility.yul\":5408:5412   */\n      0x00\n        /* \"#utility.yul\":5446:5448   */\n      0x20\n        /* \"#utility.yul\":5435:5444   */\n      dup3\n        /* \"#utility.yul\":5431:5449   */\n      add\n        /* \"#utility.yul\":5423:5449   */\n      swap1\n      pop\n        /* \"#utility.yul\":5495:5504   */\n      dup2\n        /* \"#utility.yul\":5489:5493   */\n      dup2\n        /* \"#utility.yul\":5485:5505   */\n      sub\n        /* \"#utility.yul\":5481:5482   */\n      0x00\n        /* \"#utility.yul\":5470:5479   */\n      dup4\n        /* \"#utility.yul\":5466:5483   */\n      add\n        /* \"#utility.yul\":5459:5506   */\n      mstore\n        /* \"#utility.yul\":5523:5654   */\n      tag_170\n        /* \"#utility.yul\":5649:5653   */\n      dup2\n        /* \"#utility.yul\":5523:5654   */\n      tag_147\n      jump\t// in\n    tag_170:\n        /* \"#utility.yul\":5515:5654   */\n      swap1\n      pop\n        /* \"#utility.yul\":5242:5661   */\n      swap2\n      swap1\n      pop\n      jump\t// out\n        /* \"#utility.yul\":5667:6086   */\n    tag_55:\n        /* \"#utility.yul\":5833:5837   */\n      0x00\n        /* \"#utility.yul\":5871:5873   */\n      0x20\n        /* \"#utility.yul\":5860:5869   */\n      dup3\n        /* \"#utility.yul\":5856:5874   */\n      add\n        /* \"#utility.yul\":5848:5874   */\n      swap1\n      pop\n        /* \"#utility.yul\":5920:5929   */\n      dup2\n        /* \"#utility.yul\":5914:5918   */\n      dup2\n        /* \"#utility.yul\":5910:5930   */\n      sub\n        /* \"#utility.yul\":5906:5907   */\n      0x00\n        /* \"#utility.yul\":5895:5904   */\n      dup4\n        /* \"#utility.yul\":5891:5908   */\n      add\n        /* \"#utility.yul\":5884:5931   */\n      mstore\n        /* \"#utility.yul\":5948:6079   */\n      tag_172\n        /* \"#utility.yul\":6074:6078   */\n      dup2\n        /* \"#utility.yul\":5948:6079   */\n      tag_152\n      jump\t// in\n    tag_172:\n        /* \"#utility.yul\":5940:6079   */\n      swap1\n      pop\n        /* \"#utility.yul\":5667:6086   */\n      swap2\n      swap1\n      pop\n      jump\t// out\n        /* \"#utility.yul\":6092:6314   */\n    tag_42:\n        /* \"#utility.yul\":6185:6189   */\n      0x00\n        /* \"#utility.yul\":6223:6225   */\n      0x20\n        /* \"#utility.yul\":6212:6221   */\n      dup3\n        /* \"#utility.yul\":6208:6226   */\n      add\n        /* \"#utility.yul\":6200:6226   */\n      swap1\n      pop\n        /* \"#utility.yul\":6236:6307   */\n      tag_174\n        /* \"#utility.yul\":6304:6305   */\n      0x00\n        /* \"#utility.yul\":6293:6302   */\n      dup4\n        /* \"#utility.yul\":6289:6306   */\n      add\n        /* \"#utility.yul\":6280:6286   */\n      dup5\n        /* \"#utility.yul\":6236:6307   */\n      tag_157\n      jump\t// in\n    tag_174:\n        /* \"#utility.yul\":6092:6314   */\n      swap3\n      swap2\n      pop\n      pop\n      jump\t// out\n        /* \"#utility.yul\":6320:6449   */\n    tag_91:\n        /* \"#utility.yul\":6354:6360   */\n      0x00\n        /* \"#utility.yul\":6381:6401   */\n      tag_176\n      tag_177\n      jump\t// in\n    tag_176:\n        /* \"#utility.yul\":6371:6401   */\n      swap1\n      pop\n        /* \"#utility.yul\":6410:6443   */\n      tag_178\n        /* \"#utility.yul\":6438:6442   */\n      dup3\n        /* \"#utility.yul\":6430:6436   */\n      dup3\n        /* \"#utility.yul\":6410:6443   */\n      tag_179\n      jump\t// in\n    tag_178:\n        /* \"#utility.yul\":6320:6449   */\n      swap2\n      swap1\n      pop\n      jump\t// out\n        /* \"#utility.yul\":6455:6530   */\n    tag_177:\n        /* \"#utility.yul\":6488:6494   */\n      0x00\n        /* \"#utility.yul\":6521:6523   */\n      0x40\n        /* \"#utility.yul\":6515:6524   */\n      mload\n        /* \"#utility.yul\":6505:6524   */\n      swap1\n      pop\n        /* \"#utility.yul\":6455:6530   */\n      swap1\n      jump\t// out\n        /* \"#utility.yul\":6536:6844   */\n    tag_90:\n        /* \"#utility.yul\":6598:6602   */\n      0x00\n        /* \"#utility.yul\":6688:6706   */\n      0xffffffffffffffff\n        /* \"#utility.yul\":6680:6686   */\n      dup3\n        /* \"#utility.yul\":6677:6707   */\n      gt\n        /* \"#utility.yul\":6674:6730   */\n      iszero\n      tag_182\n      jumpi\n        /* \"#utility.yul\":6710:6728   */\n      tag_183\n      tag_184\n      jump\t// in\n    tag_183:\n        /* \"#utility.yul\":6674:6730   */\n    tag_182:\n        /* \"#utility.yul\":6748:6777   */\n      tag_185\n        /* \"#utility.yul\":6770:6776   */\n      dup3\n        /* \"#utility.yul\":6748:6777   */\n      tag_146\n      jump\t// in\n    tag_185:\n        /* \"#utility.yul\":6740:6777   */\n      swap1\n      pop\n        /* \"#utility.yul\":6832:6836   */\n      0x20\n        /* \"#utility.yul\":6826:6830   */\n      dup2\n        /* \"#utility.yul\":6822:6837   */\n      add\n        /* \"#utility.yul\":6814:6837   */\n      swap1\n      pop\n        /* \"#utility.yul\":6536:6844   */\n      swap2\n      swap1\n      pop\n      jump\t// out\n        /* \"#utility.yul\":6850:6949   */\n    tag_140:\n        /* \"#utility.yul\":6902:6908   */\n      0x00\n        /* \"#utility.yul\":6936:6941   */\n      dup2\n        /* \"#utility.yul\":6930:6942   */\n      mload\n        /* \"#utility.yul\":6920:6942   */\n      swap1\n      pop\n        /* \"#utility.yul\":6850:6949   */\n      swap2\n      swap1\n      pop\n      jump\t// out\n        /* \"#utility.yul\":6955:7124   */\n    tag_142:\n        /* \"#utility.yul\":7039:7050   */\n      0x00\n        /* \"#utility.yul\":7073:7079   */\n      dup3\n        /* \"#utility.yul\":7068:7071   */\n      dup3\n        /* \"#utility.yul\":7061:7080   */\n      mstore\n        /* \"#utility.yul\":7113:7117   */\n      0x20\n        /* \"#utility.yul\":7108:7111   */\n      dup3\n        /* \"#utility.yul\":7104:7118   */\n      add\n        /* \"#utility.yul\":7089:7118   */\n      swap1\n      pop\n        /* \"#utility.yul\":6955:7124   */\n      swap3\n      swap2\n      pop\n      pop\n      jump\t// out\n        /* \"#utility.yul\":7130:7226   */\n    tag_136:\n        /* \"#utility.yul\":7167:7174   */\n      0x00\n        /* \"#utility.yul\":7196:7220   */\n      tag_189\n        /* \"#utility.yul\":7214:7219   */\n      dup3\n        /* \"#utility.yul\":7196:7220   */\n      tag_190\n      jump\t// in\n    tag_189:\n        /* \"#utility.yul\":7185:7220   */\n      swap1\n      pop\n        /* \"#utility.yul\":7130:7226   */\n      swap2\n      swap1\n      pop\n      jump\t// out\n        /* \"#utility.yul\":7232:7358   */\n    tag_190:\n        /* \"#utility.yul\":7269:7276   */\n      0x00\n        /* \"#utility.yul\":7309:7351   */\n      0xffffffffffffffffffffffffffffffffffffffff\n        /* \"#utility.yul\":7302:7307   */\n      dup3\n        /* \"#utility.yul\":7298:7352   */\n      and\n        /* \"#utility.yul\":7287:7352   */\n      swap1\n      pop\n        /* \"#utility.yul\":7232:7358   */\n      swap2\n      swap1\n      pop\n      jump\t// out\n        /* \"#utility.yul\":7364:7441   */\n    tag_160:\n        /* \"#utility.yul\":7401:7408   */\n      0x00\n        /* \"#utility.yul\":7430:7435   */\n      dup2\n        /* \"#utility.yul\":7419:7435   */\n      swap1\n      pop\n        /* \"#utility.yul\":7364:7441   */\n      swap2\n      swap1\n      pop\n      jump\t// out\n        /* \"#utility.yul\":7447:7601   */\n    tag_96:\n        /* \"#utility.yul\":7531:7537   */\n      dup3\n        /* \"#utility.yul\":7526:7529   */\n      dup2\n        /* \"#utility.yul\":7521:7524   */\n      dup4\n        /* \"#utility.yul\":7508:7538   */\n      calldatacopy\n        /* \"#utility.yul\":7593:7594   */\n      0x00\n        /* \"#utility.yul\":7584:7590   */\n      dup4\n        /* \"#utility.yul\":7579:7582   */\n      dup4\n        /* \"#utility.yul\":7575:7591   */\n      add\n        /* \"#utility.yul\":7568:7595   */\n      mstore\n        /* \"#utility.yul\":7447:7601   */\n      pop\n      pop\n      pop\n      jump\t// out\n        /* \"#utility.yul\":7607:7914   */\n    tag_144:\n        /* \"#utility.yul\":7675:7676   */\n      0x00\n        /* \"#utility.yul\":7685:7798   */\n    tag_195:\n        /* \"#utility.yul\":7699:7705   */\n      dup4\n        /* \"#utility.yul\":7696:7697   */\n      dup2\n        /* \"#utility.yul\":7693:7706   */\n      lt\n        /* \"#utility.yul\":7685:7798   */\n      iszero\n      tag_197\n      jumpi\n        /* \"#utility.yul\":7784:7785   */\n      dup1\n        /* \"#utility.yul\":7779:7782   */\n      dup3\n        /* \"#utility.yul\":7775:7786   */\n      add\n        /* \"#utility.yul\":7769:7787   */\n      mload\n        /* \"#utility.yul\":7765:7766   */\n      dup2\n        /* \"#utility.yul\":7760:7763   */\n      dup5\n        /* \"#utility.yul\":7756:7767   */\n      add\n        /* \"#utility.yul\":7749:7788   */\n      mstore\n        /* \"#utility.yul\":7721:7723   */\n      0x20\n        /* \"#utility.yul\":7718:7719   */\n      dup2\n        /* \"#utility.yul\":7714:7724   */\n      add\n        /* \"#utility.yul\":7709:7724   */\n      swap1\n      pop\n        /* \"#utility.yul\":7685:7798   */\n      jump(tag_195)\n    tag_197:\n        /* \"#utility.yul\":7816:7822   */\n      dup4\n        /* \"#utility.yul\":7813:7814   */\n      dup2\n        /* \"#utility.yul\":7810:7823   */\n      gt\n        /* \"#utility.yul\":7807:7908   */\n      iszero\n      tag_198\n      jumpi\n        /* \"#utility.yul\":7896:7897   */\n      0x00\n        /* \"#utility.yul\":7887:7893   */\n      dup5\n        /* \"#utility.yul\":7882:7885   */\n      dup5\n        /* \"#utility.yul\":7878:7894   */\n      add\n        /* \"#utility.yul\":7871:7898   */\n      mstore\n        /* \"#utility.yul\":7807:7908   */\n    tag_198:\n        /* \"#utility.yul\":7656:7914   */\n      pop\n        /* \"#utility.yul\":7607:7914   */\n      pop\n      pop\n      pop\n      jump\t// out\n        /* \"#utility.yul\":7920:8240   */\n    tag_47:\n        /* \"#utility.yul\":7964:7970   */\n      0x00\n        /* \"#utility.yul\":8001:8002   */\n      0x02\n        /* \"#utility.yul\":7995:7999   */\n      dup3\n        /* \"#utility.yul\":7991:8003   */\n      div\n        /* \"#utility.yul\":7981:8003   */\n      swap1\n      pop\n        /* \"#utility.yul\":8048:8049   */\n      0x01\n        /* \"#utility.yul\":8042:8046   */\n      dup3\n        /* \"#utility.yul\":8038:8050   */\n      and\n        /* \"#utility.yul\":8069:8087   */\n      dup1\n        /* \"#utility.yul\":8059:8140   */\n      tag_200\n      jumpi\n        /* \"#utility.yul\":8125:8129   */\n      0x7f\n        /* \"#utility.yul\":8117:8123   */\n      dup3\n        /* \"#utility.yul\":8113:8130   */\n      and\n        /* \"#utility.yul\":8103:8130   */\n      swap2\n      pop\n        /* \"#utility.yul\":8059:8140   */\n    tag_200:\n        /* \"#utility.yul\":8187:8189   */\n      0x20\n        /* \"#utility.yul\":8179:8185   */\n      dup3\n        /* \"#utility.yul\":8176:8190   */\n      lt\n        /* \"#utility.yul\":8156:8174   */\n      dup2\n        /* \"#utility.yul\":8153:8191   */\n      eq\n        /* \"#utility.yul\":8150:8234   */\n      iszero\n      tag_201\n      jumpi\n        /* \"#utility.yul\":8206:8224   */\n      tag_202\n      tag_203\n      jump\t// in\n    tag_202:\n        /* \"#utility.yul\":8150:8234   */\n    tag_201:\n        /* \"#utility.yul\":7971:8240   */\n      pop\n        /* \"#utility.yul\":7920:8240   */\n      swap2\n      swap1\n      pop\n      jump\t// out\n        /* \"#utility.yul\":8246:8527   */\n    tag_179:\n        /* \"#utility.yul\":8329:8356   */\n      tag_205\n        /* \"#utility.yul\":8351:8355   */\n      dup3\n        /* \"#utility.yul\":8329:8356   */\n      tag_146\n      jump\t// in\n    tag_205:\n        /* \"#utility.yul\":8321:8327   */\n      dup2\n        /* \"#utility.yul\":8317:8357   */\n      add\n        /* \"#utility.yul\":8459:8465   */\n      dup2\n        /* \"#utility.yul\":8447:8457   */\n      dup2\n        /* \"#utility.yul\":8444:8466   */\n      lt\n        /* \"#utility.yul\":8423:8441   */\n      0xffffffffffffffff\n        /* \"#utility.yul\":8411:8421   */\n      dup3\n        /* \"#utility.yul\":8408:8442   */\n      gt\n        /* \"#utility.yul\":8405:8467   */\n      or\n        /* \"#utility.yul\":8402:8490   */\n      iszero\n      tag_206\n      jumpi\n        /* \"#utility.yul\":8470:8488   */\n      tag_207\n      tag_184\n      jump\t// in\n    tag_207:\n        /* \"#utility.yul\":8402:8490   */\n    tag_206:\n        /* \"#utility.yul\":8510:8520   */\n      dup1\n        /* \"#utility.yul\":8506:8508   */\n      0x40\n        /* \"#utility.yul\":8499:8521   */\n      mstore\n        /* \"#utility.yul\":8289:8527   */\n      pop\n        /* \"#utility.yul\":8246:8527   */\n      pop\n      pop\n      jump\t// out\n        /* \"#utility.yul\":8533:8713   */\n    tag_203:\n        /* \"#utility.yul\":8581:8658   */\n      0x4e487b7100000000000000000000000000000000000000000000000000000000\n        /* \"#utility.yul\":8578:8579   */\n      0x00\n        /* \"#utility.yul\":8571:8659   */\n      mstore\n        /* \"#utility.yul\":8678:8682   */\n      0x22\n        /* \"#utility.yul\":8675:8676   */\n      0x04\n        /* \"#utility.yul\":8668:8683   */\n      mstore\n        /* \"#utility.yul\":8702:8706   */\n      0x24\n        /* \"#utility.yul\":8699:8700   */\n      0x00\n        /* \"#utility.yul\":8692:8707   */\n      revert\n        /* \"#utility.yul\":8719:8899   */\n    tag_63:\n        /* \"#utility.yul\":8767:8844   */\n      0x4e487b7100000000000000000000000000000000000000000000000000000000\n        /* \"#utility.yul\":8764:8765   */\n      0x00\n        /* \"#utility.yul\":8757:8845   */\n      mstore\n        /* \"#utility.yul\":8864:8868   */\n      0x32\n        /* \"#utility.yul\":8861:8862   */\n      0x04\n        /* \"#utility.yul\":8854:8869   */\n      mstore\n        /* \"#utility.yul\":8888:8892   */\n      0x24\n        /* \"#utility.yul\":8885:8886   */\n      0x00\n        /* \"#utility.yul\":8878:8893   */\n      revert\n        /* \"#utility.yul\":8905:9085   */\n    tag_184:\n        /* \"#utility.yul\":8953:9030   */\n      0x4e487b7100000000000000000000000000000000000000000000000000000000\n        /* \"#utility.yul\":8950:8951   */\n      0x00\n        /* \"#utility.yul\":8943:9031   */\n      mstore\n        /* \"#utility.yul\":9050:9054   */\n      0x41\n        /* \"#utility.yul\":9047:9048   */\n      0x04\n        /* \"#utility.yul\":9040:9055   */\n      mstore\n        /* \"#utility.yul\":9074:9078   */\n      0x24\n        /* \"#utility.yul\":9071:9072   */\n      0x00\n        /* \"#utility.yul\":9064:9079   */\n      revert\n        /* \"#utility.yul\":9091:9208   */\n    tag_105:\n        /* \"#utility.yul\":9200:9201   */\n      0x00\n        /* \"#utility.yul\":9197:9198   */\n      dup1\n        /* \"#utility.yul\":9190:9202   */\n      revert\n        /* \"#utility.yul\":9214:9331   */\n    tag_94:\n        /* \"#utility.yul\":9323:9324   */\n      0x00\n        /* \"#utility.yul\":9320:9321   */\n      dup1\n        /* \"#utility.yul\":9313:9325   */\n      revert\n        /* \"#utility.yul\":9337:9454   */\n    tag_126:\n        /* \"#utility.yul\":9446:9447   */\n      0x00\n        /* \"#utility.yul\":9443:9444   */\n      dup1\n        /* \"#utility.yul\":9436:9448   */\n      revert\n        /* \"#utility.yul\":9460:9577   */\n    tag_114:\n        /* \"#utility.yul\":9569:9570   */\n      0x00\n        /* \"#utility.yul\":9566:9567   */\n      dup1\n        /* \"#utility.yul\":9559:9571   */\n      revert\n        /* \"#utility.yul\":9583:9685   */\n    tag_146:\n        /* \"#utility.yul\":9624:9630   */\n      0x00\n        /* \"#utility.yul\":9675:9677   */\n      0x1f\n        /* \"#utility.yul\":9671:9678   */\n      not\n        /* \"#utility.yul\":9666:9668   */\n      0x1f\n        /* \"#utility.yul\":9659:9664   */\n      dup4\n        /* \"#utility.yul\":9655:9669   */\n      add\n        /* \"#utility.yul\":9651:9679   */\n      and\n        /* \"#utility.yul\":9641:9679   */\n      swap1\n      pop\n        /* \"#utility.yul\":9583:9685   */\n      swap2\n      swap1\n      pop\n      jump\t// out\n        /* \"#utility.yul\":9691:9915   */\n    tag_151:\n        /* \"#utility.yul\":9831:9865   */\n      0x596120746520656e6375656e74726173207265676973747261646f20656e2065\n        /* \"#utility.yul\":9827:9828   */\n      0x00\n        /* \"#utility.yul\":9819:9825   */\n      dup3\n        /* \"#utility.yul\":9815:9829   */\n      add\n        /* \"#utility.yul\":9808:9866   */\n      mstore\n        /* \"#utility.yul\":9900:9907   */\n      0x6c2067796d000000000000000000000000000000000000000000000000000000\n        /* \"#utility.yul\":9895:9897   */\n      0x20\n        /* \"#utility.yul\":9887:9893   */\n      dup3\n        /* \"#utility.yul\":9883:9898   */\n      add\n        /* \"#utility.yul\":9876:9908   */\n      mstore\n        /* \"#utility.yul\":9691:9915   */\n      pop\n      jump\t// out\n        /* \"#utility.yul\":9921:10156   */\n    tag_156:\n        /* \"#utility.yul\":10061:10095   */\n      0x536f6c6f20656c2041646d696e6973747261646f722064656c2047796d207075\n        /* \"#utility.yul\":10057:10058   */\n      0x00\n        /* \"#utility.yul\":10049:10055   */\n      dup3\n        /* \"#utility.yul\":10045:10059   */\n      add\n        /* \"#utility.yul\":10038:10096   */\n      mstore\n        /* \"#utility.yul\":10130:10148   */\n      0x65646520637265617220636c6173657300000000000000000000000000000000\n        /* \"#utility.yul\":10125:10127   */\n      0x20\n        /* \"#utility.yul\":10117:10123   */\n      dup3\n        /* \"#utility.yul\":10113:10128   */\n      add\n        /* \"#utility.yul\":10106:10149   */\n      mstore\n        /* \"#utility.yul\":9921:10156   */\n      pop\n      jump\t// out\n        /* \"#utility.yul\":10162:10284   */\n    tag_100:\n        /* \"#utility.yul\":10235:10259   */\n      tag_219\n        /* \"#utility.yul\":10253:10258   */\n      dup2\n        /* \"#utility.yul\":10235:10259   */\n      tag_136\n      jump\t// in\n    tag_219:\n        /* \"#utility.yul\":10228:10233   */\n      dup2\n        /* \"#utility.yul\":10225:10260   */\n      eq\n        /* \"#utility.yul\":10215:10278   */\n      tag_220\n      jumpi\n        /* \"#utility.yul\":10274:10275   */\n      0x00\n        /* \"#utility.yul\":10271:10272   */\n      dup1\n        /* \"#utility.yul\":10264:10276   */\n      revert\n        /* \"#utility.yul\":10215:10278   */\n    tag_220:\n        /* \"#utility.yul\":10162:10284   */\n      pop\n      jump\t// out\n        /* \"#utility.yul\":10290:10412   */\n    tag_110:\n        /* \"#utility.yul\":10363:10387   */\n      tag_222\n        /* \"#utility.yul\":10381:10386   */\n      dup2\n        /* \"#utility.yul\":10363:10387   */\n      tag_160\n      jump\t// in\n    tag_222:\n        /* \"#utility.yul\":10356:10361   */\n      dup2\n        /* \"#utility.yul\":10353:10388   */\n      eq\n        /* \"#utility.yul\":10343:10406   */\n      tag_223\n      jumpi\n        /* \"#utility.yul\":10402:10403   */\n      0x00\n        /* \"#utility.yul\":10399:10400   */\n      dup1\n        /* \"#utility.yul\":10392:10404   */\n      revert\n        /* \"#utility.yul\":10343:10406   */\n    tag_223:\n        /* \"#utility.yul\":10290:10412   */\n      pop\n      jump\t// out\n\n    auxdata: 0xa2646970667358221220dbd924387612f6a904dd4300559d5f3ab9b8b15b739146f60ff7b0bf6d897e3764736f6c63430008070033\n}\n",
				"bytecode": {
					"linkReferences": {},
					"object": "60a060405234801561001057600080fd5b503373ffffffffffffffffffffffffffffffffffffffff1660808173ffffffffffffffffffffffffffffffffffffffff1660601b8152505060805160601c610c6e61006d600039600081816101d601526102cd0152610c6e6000f3fe608060405234801561001057600080fd5b506004361061007d5760003560e01c80634852a2121161005b5780634852a212146100f0578063512d62df1461010c5780636d705ebb1461013d578063a87430ba146101595761007d565b806312065fe0146100825780632a0acc6a146100a15780633613a9f4146100bf575b600080fd5b61008a610189565b6040516100989291906108b3565b60405180910390f35b6100a96101d4565b6040516100b69190610898565b60405180910390f35b6100d960048036038101906100d491906107ce565b6101f8565b6040516100e79291906108dc565b60405180910390f35b61010a60048036038101906101059190610772565b6102b4565b005b610126600480360381019061012191906107ce565b6103e8565b6040516101349291906108dc565b60405180910390f35b61015760048036038101906101529190610732565b6104b0565b005b610173600480360381019061016e9190610705565b6105b0565b604051610180919061094c565b60405180910390f35b600080336000803373ffffffffffffffffffffffffffffffffffffffff1673ffffffffffffffffffffffffffffffffffffffff16815260200190815260200160002054915091509091565b7f000000000000000000000000000000000000000000000000000000000000000081565b6001818154811061020857600080fd5b906000526020600020906002020160009150905080600001805461022b90610a57565b80601f016020809104026020016040519081016040528092919081815260200182805461025790610a57565b80156102a45780601f10610279576101008083540402835291602001916102a4565b820191906000526020600020905b81548152906001019060200180831161028757829003601f168201915b5050505050908060010154905082565b3373ffffffffffffffffffffffffffffffffffffffff167f000000000000000000000000000000000000000000000000000000000000000073ffffffffffffffffffffffffffffffffffffffff1614610342576040517f08c379a00000000000000000000000000000000000000000000000000000000081526004016103399061092c565b60405180910390fd5b60016040518060400160405280848152602001838152509080600181540180825580915050600190039060005260206000209060020201600090919091909150600082015181600001908051906020019061039e9291906105c8565b506020820151816001015550507f14d49e3ea4f348b7f368906dfe1a63055c7822d622a61672a35a55ae97a768f982826040516103dc9291906108dc565b60405180910390a15050565b60606000806001848154811061040157610400610ae9565b5b9060005260206000209060020201905080600001816001015481805461042690610a57565b80601f016020809104026020016040519081016040528092919081815260200182805461045290610a57565b801561049f5780601f106104745761010080835404028352916020019161049f565b820191906000526020600020905b81548152906001019060200180831161048257829003601f168201915b505050505091509250925050915091565b60008060003373ffffffffffffffffffffffffffffffffffffffff1673ffffffffffffffffffffffffffffffffffffffff1681526020019081526020016000205414610531576040517f08c379a00000000000000000000000000000000000000000000000000000000081526004016105289061090c565b60405180910390fd5b806000803373ffffffffffffffffffffffffffffffffffffffff1673ffffffffffffffffffffffffffffffffffffffff168152602001908152602001600020819055507e7dc6ab80cc84c043b7b8d4fcafc802187470087f7ea7fccd2e17aecd0256a182826040516105a49291906108b3565b60405180910390a15050565b60006020528060005260406000206000915090505481565b8280546105d490610a57565b90600052602060002090601f0160209004810192826105f6576000855561063d565b82601f1061060f57805160ff191683800117855561063d565b8280016001018555821561063d579182015b8281111561063c578251825591602001919060010190610621565b5b50905061064a919061064e565b5090565b5b8082111561066757600081600090555060010161064f565b5090565b600061067e6106798461098c565b610967565b90508281526020810184848401111561069a57610699610b4c565b5b6106a5848285610a15565b509392505050565b6000813590506106bc81610c0a565b92915050565b600082601f8301126106d7576106d6610b47565b5b81356106e784826020860161066b565b91505092915050565b6000813590506106ff81610c21565b92915050565b60006020828403121561071b5761071a610b56565b5b6000610729848285016106ad565b91505092915050565b6000806040838503121561074957610748610b56565b5b6000610757858286016106ad565b9250506020610768858286016106f0565b9150509250929050565b6000806040838503121561078957610788610b56565b5b600083013567ffffffffffffffff8111156107a7576107a6610b51565b5b6107b3858286016106c2565b92505060206107c4858286016106f0565b9150509250929050565b6000602082840312156107e4576107e3610b56565b5b60006107f2848285016106f0565b91505092915050565b610804816109d9565b82525050565b6000610815826109bd565b61081f81856109c8565b935061082f818560208601610a24565b61083881610b5b565b840191505092915050565b60006108506025836109c8565b915061085b82610b6c565b604082019050919050565b60006108736030836109c8565b915061087e82610bbb565b604082019050919050565b61089281610a0b565b82525050565b60006020820190506108ad60008301846107fb565b92915050565b60006040820190506108c860008301856107fb565b6108d56020830184610889565b9392505050565b600060408201905081810360008301526108f6818561080a565b90506109056020830184610889565b9392505050565b6000602082019050818103600083015261092581610843565b9050919050565b6000602082019050818103600083015261094581610866565b9050919050565b60006020820190506109616000830184610889565b92915050565b6000610971610982565b905061097d8282610a89565b919050565b6000604051905090565b600067ffffffffffffffff8211156109a7576109a6610b18565b5b6109b082610b5b565b9050602081019050919050565b600081519050919050565b600082825260208201905092915050565b60006109e4826109eb565b9050919050565b600073ffffffffffffffffffffffffffffffffffffffff82169050919050565b6000819050919050565b82818337600083830152505050565b60005b83811015610a42578082015181840152602081019050610a27565b83811115610a51576000848401525b50505050565b60006002820490506001821680610a6f57607f821691505b60208210811415610a8357610a82610aba565b5b50919050565b610a9282610b5b565b810181811067ffffffffffffffff82111715610ab157610ab0610b18565b5b80604052505050565b7f4e487b7100000000000000000000000000000000000000000000000000000000600052602260045260246000fd5b7f4e487b7100000000000000000000000000000000000000000000000000000000600052603260045260246000fd5b7f4e487b7100000000000000000000000000000000000000000000000000000000600052604160045260246000fd5b600080fd5b600080fd5b600080fd5b600080fd5b6000601f19601f8301169050919050565b7f596120746520656e6375656e74726173207265676973747261646f20656e206560008201527f6c2067796d000000000000000000000000000000000000000000000000000000602082015250565b7f536f6c6f20656c2041646d696e6973747261646f722064656c2047796d20707560008201527f65646520637265617220636c6173657300000000000000000000000000000000602082015250565b610c13816109d9565b8114610c1e57600080fd5b50565b610c2a81610a0b565b8114610c3557600080fd5b5056fea2646970667358221220dbd924387612f6a904dd4300559d5f3ab9b8b15b739146f60ff7b0bf6d897e3764736f6c63430008070033",
					"opcodes": "PUSH1 0xA0 PUSH1 0x40 MSTORE CALLVALUE DUP1 ISZERO PUSH2 0x10 JUMPI PUSH1 0x0 DUP1 REVERT JUMPDEST POP CALLER PUSH20 0xFFFFFFFFFFFFFFFFFFFFFFFFFFFFFFFFFFFFFFFF AND PUSH1 0x80 DUP2 PUSH20 0xFFFFFFFFFFFFFFFFFFFFFFFFFFFFFFFFFFFFFFFF AND PUSH1 0x60 SHL DUP2 MSTORE POP POP PUSH1 0x80 MLOAD PUSH1 0x60 SHR PUSH2 0xC6E PUSH2 0x6D PUSH1 0x0 CODECOPY PUSH1 0x0 DUP2 DUP2 PUSH2 0x1D6 ADD MSTORE PUSH2 0x2CD ADD MSTORE PUSH2 0xC6E PUSH1 0x0 RETURN INVALID PUSH1 0x80 PUSH1 0x40 MSTORE CALLVALUE DUP1 ISZERO PUSH2 0x10 JUMPI PUSH1 0x0 DUP1 REVERT JUMPDEST POP PUSH1 0x4 CALLDATASIZE LT PUSH2 0x7D JUMPI PUSH1 0x0 CALLDATALOAD PUSH1 0xE0 SHR DUP1 PUSH4 0x4852A212 GT PUSH2 0x5B JUMPI DUP1 PUSH4 0x4852A212 EQ PUSH2 0xF0 JUMPI DUP1 PUSH4 0x512D62DF EQ PUSH2 0x10C JUMPI DUP1 PUSH4 0x6D705EBB EQ PUSH2 0x13D JUMPI DUP1 PUSH4 0xA87430BA EQ PUSH2 0x159 JUMPI PUSH2 0x7D JUMP JUMPDEST DUP1 PUSH4 0x12065FE0 EQ PUSH2 0x82 JUMPI DUP1 PUSH4 0x2A0ACC6A EQ PUSH2 0xA1 JUMPI DUP1 PUSH4 0x3613A9F4 EQ PUSH2 0xBF JUMPI JUMPDEST PUSH1 0x0 DUP1 REVERT JUMPDEST PUSH2 0x8A PUSH2 0x189 JUMP JUMPDEST PUSH1 0x40 MLOAD PUSH2 0x98 SWAP3 SWAP2 SWAP1 PUSH2 0x8B3 JUMP JUMPDEST PUSH1 0x40 MLOAD DUP1 SWAP2 SUB SWAP1 RETURN JUMPDEST PUSH2 0xA9 PUSH2 0x1D4 JUMP JUMPDEST PUSH1 0x40 MLOAD PUSH2 0xB6 SWAP2 SWAP1 PUSH2 0x898 JUMP JUMPDEST PUSH1 0x40 MLOAD DUP1 SWAP2 SUB SWAP1 RETURN JUMPDEST PUSH2 0xD9 PUSH1 0x4 DUP1 CALLDATASIZE SUB DUP2 ADD SWAP1 PUSH2 0xD4 SWAP2 SWAP1 PUSH2 0x7CE JUMP JUMPDEST PUSH2 0x1F8 JUMP JUMPDEST PUSH1 0x40 MLOAD PUSH2 0xE7 SWAP3 SWAP2 SWAP1 PUSH2 0x8DC JUMP JUMPDEST PUSH1 0x40 MLOAD DUP1 SWAP2 SUB SWAP1 RETURN JUMPDEST PUSH2 0x10A PUSH1 0x4 DUP1 CALLDATASIZE SUB DUP2 ADD SWAP1 PUSH2 0x105 SWAP2 SWAP1 PUSH2 0x772 JUMP JUMPDEST PUSH2 0x2B4 JUMP JUMPDEST STOP JUMPDEST PUSH2 0x126 PUSH1 0x4 DUP1 CALLDATASIZE SUB DUP2 ADD SWAP1 PUSH2 0x121 SWAP2 SWAP1 PUSH2 0x7CE JUMP JUMPDEST PUSH2 0x3E8 JUMP JUMPDEST PUSH1 0x40 MLOAD PUSH2 0x134 SWAP3 SWAP2 SWAP1 PUSH2 0x8DC JUMP JUMPDEST PUSH1 0x40 MLOAD DUP1 SWAP2 SUB SWAP1 RETURN JUMPDEST PUSH2 0x157 PUSH1 0x4 DUP1 CALLDATASIZE SUB DUP2 ADD SWAP1 PUSH2 0x152 SWAP2 SWAP1 PUSH2 0x732 JUMP JUMPDEST PUSH2 0x4B0 JUMP JUMPDEST STOP JUMPDEST PUSH2 0x173 PUSH1 0x4 DUP1 CALLDATASIZE SUB DUP2 ADD SWAP1 PUSH2 0x16E SWAP2 SWAP1 PUSH2 0x705 JUMP JUMPDEST PUSH2 0x5B0 JUMP JUMPDEST PUSH1 0x40 MLOAD PUSH2 0x180 SWAP2 SWAP1 PUSH2 0x94C JUMP JUMPDEST PUSH1 0x40 MLOAD DUP1 SWAP2 SUB SWAP1 RETURN JUMPDEST PUSH1 0x0 DUP1 CALLER PUSH1 0x0 DUP1 CALLER PUSH20 0xFFFFFFFFFFFFFFFFFFFFFFFFFFFFFFFFFFFFFFFF AND PUSH20 0xFFFFFFFFFFFFFFFFFFFFFFFFFFFFFFFFFFFFFFFF AND DUP2 MSTORE PUSH1 0x20 ADD SWAP1 DUP2 MSTORE PUSH1 0x20 ADD PUSH1 0x0 KECCAK256 SLOAD SWAP2 POP SWAP2 POP SWAP1 SWAP2 JUMP JUMPDEST PUSH32 0x0 DUP2 JUMP JUMPDEST PUSH1 0x1 DUP2 DUP2 SLOAD DUP2 LT PUSH2 0x208 JUMPI PUSH1 0x0 DUP1 REVERT JUMPDEST SWAP1 PUSH1 0x0 MSTORE PUSH1 0x20 PUSH1 0x0 KECCAK256 SWAP1 PUSH1 0x2 MUL ADD PUSH1 0x0 SWAP2 POP SWAP1 POP DUP1 PUSH1 0x0 ADD DUP1 SLOAD PUSH2 0x22B SWAP1 PUSH2 0xA57 JUMP JUMPDEST DUP1 PUSH1 0x1F ADD PUSH1 0x20 DUP1 SWAP2 DIV MUL PUSH1 0x20 ADD PUSH1 0x40 MLOAD SWAP1 DUP2 ADD PUSH1 0x40 MSTORE DUP1 SWAP3 SWAP2 SWAP1 DUP2 DUP2 MSTORE PUSH1 0x20 ADD DUP3 DUP1 SLOAD PUSH2 0x257 SWAP1 PUSH2 0xA57 JUMP JUMPDEST DUP1 ISZERO PUSH2 0x2A4 JUMPI DUP1 PUSH1 0x1F LT PUSH2 0x279 JUMPI PUSH2 0x100 DUP1 DUP4 SLOAD DIV MUL DUP4 MSTORE SWAP2 PUSH1 0x20 ADD SWAP2 PUSH2 0x2A4 JUMP JUMPDEST DUP3 ADD SWAP2 SWAP1 PUSH1 0x0 MSTORE PUSH1 0x20 PUSH1 0x0 KECCAK256 SWAP1 JUMPDEST DUP2 SLOAD DUP2 MSTORE SWAP1 PUSH1 0x1 ADD SWAP1 PUSH1 0x20 ADD DUP1 DUP4 GT PUSH2 0x287 JUMPI DUP3 SWAP1 SUB PUSH1 0x1F AND DUP3 ADD SWAP2 JUMPDEST POP POP POP POP POP SWAP1 DUP1 PUSH1 0x1 ADD SLOAD SWAP1 POP DUP3 JUMP JUMPDEST CALLER PUSH20 0xFFFFFFFFFFFFFFFFFFFFFFFFFFFFFFFFFFFFFFFF AND PUSH32 0x0 PUSH20 0xFFFFFFFFFFFFFFFFFFFFFFFFFFFFFFFFFFFFFFFF AND EQ PUSH2 0x342 JUMPI PUSH1 0x40 MLOAD PUSH32 0x8C379A000000000000000000000000000000000000000000000000000000000 DUP2 MSTORE PUSH1 0x4 ADD PUSH2 0x339 SWAP1 PUSH2 0x92C JUMP JUMPDEST PUSH1 0x40 MLOAD DUP1 SWAP2 SUB SWAP1 REVERT JUMPDEST PUSH1 0x1 PUSH1 0x40 MLOAD DUP1 PUSH1 0x40 ADD PUSH1 0x40 MSTORE DUP1 DUP5 DUP2 MSTORE PUSH1 0x20 ADD DUP4 DUP2 MSTORE POP SWAP1 DUP1 PUSH1 0x1 DUP2 SLOAD ADD DUP1 DUP3 SSTORE DUP1 SWAP2 POP POP PUSH1 0x1 SWAP1 SUB SWAP1 PUSH1 0x0 MSTORE PUSH1 0x20 PUSH1 0x0 KECCAK256 SWAP1 PUSH1 0x2 MUL ADD PUSH1 0x0 SWAP1 SWAP2 SWAP1 SWAP2 SWAP1 SWAP2 POP PUSH1 0x0 DUP3 ADD MLOAD DUP2 PUSH1 0x0 ADD SWAP1 DUP1 MLOAD SWAP1 PUSH1 0x20 ADD SWAP1 PUSH2 0x39E SWAP3 SWAP2 SWAP1 PUSH2 0x5C8 JUMP JUMPDEST POP PUSH1 0x20 DUP3 ADD MLOAD DUP2 PUSH1 0x1 ADD SSTORE POP POP PUSH32 0x14D49E3EA4F348B7F368906DFE1A63055C7822D622A61672A35A55AE97A768F9 DUP3 DUP3 PUSH1 0x40 MLOAD PUSH2 0x3DC SWAP3 SWAP2 SWAP1 PUSH2 0x8DC JUMP JUMPDEST PUSH1 0x40 MLOAD DUP1 SWAP2 SUB SWAP1 LOG1 POP POP JUMP JUMPDEST PUSH1 0x60 PUSH1 0x0 DUP1 PUSH1 0x1 DUP5 DUP2 SLOAD DUP2 LT PUSH2 0x401 JUMPI PUSH2 0x400 PUSH2 0xAE9 JUMP JUMPDEST JUMPDEST SWAP1 PUSH1 0x0 MSTORE PUSH1 0x20 PUSH1 0x0 KECCAK256 SWAP1 PUSH1 0x2 MUL ADD SWAP1 POP DUP1 PUSH1 0x0 ADD DUP2 PUSH1 0x1 ADD SLOAD DUP2 DUP1 SLOAD PUSH2 0x426 SWAP1 PUSH2 0xA57 JUMP JUMPDEST DUP1 PUSH1 0x1F ADD PUSH1 0x20 DUP1 SWAP2 DIV MUL PUSH1 0x20 ADD PUSH1 0x40 MLOAD SWAP1 DUP2 ADD PUSH1 0x40 MSTORE DUP1 SWAP3 SWAP2 SWAP1 DUP2 DUP2 MSTORE PUSH1 0x20 ADD DUP3 DUP1 SLOAD PUSH2 0x452 SWAP1 PUSH2 0xA57 JUMP JUMPDEST DUP1 ISZERO PUSH2 0x49F JUMPI DUP1 PUSH1 0x1F LT PUSH2 0x474 JUMPI PUSH2 0x100 DUP1 DUP4 SLOAD DIV MUL DUP4 MSTORE SWAP2 PUSH1 0x20 ADD SWAP2 PUSH2 0x49F JUMP JUMPDEST DUP3 ADD SWAP2 SWAP1 PUSH1 0x0 MSTORE PUSH1 0x20 PUSH1 0x0 KECCAK256 SWAP1 JUMPDEST DUP2 SLOAD DUP2 MSTORE SWAP1 PUSH1 0x1 ADD SWAP1 PUSH1 0x20 ADD DUP1 DUP4 GT PUSH2 0x482 JUMPI DUP3 SWAP1 SUB PUSH1 0x1F AND DUP3 ADD SWAP2 JUMPDEST POP POP POP POP POP SWAP2 POP SWAP3 POP SWAP3 POP POP SWAP2 POP SWAP2 JUMP JUMPDEST PUSH1 0x0 DUP1 PUSH1 0x0 CALLER PUSH20 0xFFFFFFFFFFFFFFFFFFFFFFFFFFFFFFFFFFFFFFFF AND PUSH20 0xFFFFFFFFFFFFFFFFFFFFFFFFFFFFFFFFFFFFFFFF AND DUP2 MSTORE PUSH1 0x20 ADD SWAP1 DUP2 MSTORE PUSH1 0x20 ADD PUSH1 0x0 KECCAK256 SLOAD EQ PUSH2 0x531 JUMPI PUSH1 0x40 MLOAD PUSH32 0x8C379A000000000000000000000000000000000000000000000000000000000 DUP2 MSTORE PUSH1 0x4 ADD PUSH2 0x528 SWAP1 PUSH2 0x90C JUMP JUMPDEST PUSH1 0x40 MLOAD DUP1 SWAP2 SUB SWAP1 REVERT JUMPDEST DUP1 PUSH1 0x0 DUP1 CALLER PUSH20 0xFFFFFFFFFFFFFFFFFFFFFFFFFFFFFFFFFFFFFFFF AND PUSH20 0xFFFFFFFFFFFFFFFFFFFFFFFFFFFFFFFFFFFFFFFF AND DUP2 MSTORE PUSH1 0x20 ADD SWAP1 DUP2 MSTORE PUSH1 0x20 ADD PUSH1 0x0 KECCAK256 DUP2 SWAP1 SSTORE POP PUSH31 0x7DC6AB80CC84C043B7B8D4FCAFC802187470087F7EA7FCCD2E17AECD0256A1 DUP3 DUP3 PUSH1 0x40 MLOAD PUSH2 0x5A4 SWAP3 SWAP2 SWAP1 PUSH2 0x8B3 JUMP JUMPDEST PUSH1 0x40 MLOAD DUP1 SWAP2 SUB SWAP1 LOG1 POP POP JUMP JUMPDEST PUSH1 0x0 PUSH1 0x20 MSTORE DUP1 PUSH1 0x0 MSTORE PUSH1 0x40 PUSH1 0x0 KECCAK256 PUSH1 0x0 SWAP2 POP SWAP1 POP SLOAD DUP2 JUMP JUMPDEST DUP3 DUP1 SLOAD PUSH2 0x5D4 SWAP1 PUSH2 0xA57 JUMP JUMPDEST SWAP1 PUSH1 0x0 MSTORE PUSH1 0x20 PUSH1 0x0 KECCAK256 SWAP1 PUSH1 0x1F ADD PUSH1 0x20 SWAP1 DIV DUP2 ADD SWAP3 DUP3 PUSH2 0x5F6 JUMPI PUSH1 0x0 DUP6 SSTORE PUSH2 0x63D JUMP JUMPDEST DUP3 PUSH1 0x1F LT PUSH2 0x60F JUMPI DUP1 MLOAD PUSH1 0xFF NOT AND DUP4 DUP1 ADD OR DUP6 SSTORE PUSH2 0x63D JUMP JUMPDEST DUP3 DUP1 ADD PUSH1 0x1 ADD DUP6 SSTORE DUP3 ISZERO PUSH2 0x63D JUMPI SWAP2 DUP3 ADD JUMPDEST DUP3 DUP2 GT ISZERO PUSH2 0x63C JUMPI DUP3 MLOAD DUP3 SSTORE SWAP2 PUSH1 0x20 ADD SWAP2 SWAP1 PUSH1 0x1 ADD SWAP1 PUSH2 0x621 JUMP JUMPDEST JUMPDEST POP SWAP1 POP PUSH2 0x64A SWAP2 SWAP1 PUSH2 0x64E JUMP JUMPDEST POP SWAP1 JUMP JUMPDEST JUMPDEST DUP1 DUP3 GT ISZERO PUSH2 0x667 JUMPI PUSH1 0x0 DUP2 PUSH1 0x0 SWAP1 SSTORE POP PUSH1 0x1 ADD PUSH2 0x64F JUMP JUMPDEST POP SWAP1 JUMP JUMPDEST PUSH1 0x0 PUSH2 0x67E PUSH2 0x679 DUP5 PUSH2 0x98C JUMP JUMPDEST PUSH2 0x967 JUMP JUMPDEST SWAP1 POP DUP3 DUP2 MSTORE PUSH1 0x20 DUP2 ADD DUP5 DUP5 DUP5 ADD GT ISZERO PUSH2 0x69A JUMPI PUSH2 0x699 PUSH2 0xB4C JUMP JUMPDEST JUMPDEST PUSH2 0x6A5 DUP5 DUP3 DUP6 PUSH2 0xA15 JUMP JUMPDEST POP SWAP4 SWAP3 POP POP POP JUMP JUMPDEST PUSH1 0x0 DUP2 CALLDATALOAD SWAP1 POP PUSH2 0x6BC DUP2 PUSH2 0xC0A JUMP JUMPDEST SWAP3 SWAP2 POP POP JUMP JUMPDEST PUSH1 0x0 DUP3 PUSH1 0x1F DUP4 ADD SLT PUSH2 0x6D7 JUMPI PUSH2 0x6D6 PUSH2 0xB47 JUMP JUMPDEST JUMPDEST DUP2 CALLDATALOAD PUSH2 0x6E7 DUP5 DUP3 PUSH1 0x20 DUP7 ADD PUSH2 0x66B JUMP JUMPDEST SWAP2 POP POP SWAP3 SWAP2 POP POP JUMP JUMPDEST PUSH1 0x0 DUP2 CALLDATALOAD SWAP1 POP PUSH2 0x6FF DUP2 PUSH2 0xC21 JUMP JUMPDEST SWAP3 SWAP2 POP POP JUMP JUMPDEST PUSH1 0x0 PUSH1 0x20 DUP3 DUP5 SUB SLT ISZERO PUSH2 0x71B JUMPI PUSH2 0x71A PUSH2 0xB56 JUMP JUMPDEST JUMPDEST PUSH1 0x0 PUSH2 0x729 DUP5 DUP3 DUP6 ADD PUSH2 0x6AD JUMP JUMPDEST SWAP2 POP POP SWAP3 SWAP2 POP POP JUMP JUMPDEST PUSH1 0x0 DUP1 PUSH1 0x40 DUP4 DUP6 SUB SLT ISZERO PUSH2 0x749 JUMPI PUSH2 0x748 PUSH2 0xB56 JUMP JUMPDEST JUMPDEST PUSH1 0x0 PUSH2 0x757 DUP6 DUP3 DUP7 ADD PUSH2 0x6AD JUMP JUMPDEST SWAP3 POP POP PUSH1 0x20 PUSH2 0x768 DUP6 DUP3 DUP7 ADD PUSH2 0x6F0 JUMP JUMPDEST SWAP2 POP POP SWAP3 POP SWAP3 SWAP1 POP JUMP JUMPDEST PUSH1 0x0 DUP1 PUSH1 0x40 DUP4 DUP6 SUB SLT ISZERO PUSH2 0x789 JUMPI PUSH2 0x788 PUSH2 0xB56 JUMP JUMPDEST JUMPDEST PUSH1 0x0 DUP4 ADD CALLDATALOAD PUSH8 0xFFFFFFFFFFFFFFFF DUP2 GT ISZERO PUSH2 0x7A7 JUMPI PUSH2 0x7A6 PUSH2 0xB51 JUMP JUMPDEST JUMPDEST PUSH2 0x7B3 DUP6 DUP3 DUP7 ADD PUSH2 0x6C2 JUMP JUMPDEST SWAP3 POP POP PUSH1 0x20 PUSH2 0x7C4 DUP6 DUP3 DUP7 ADD PUSH2 0x6F0 JUMP JUMPDEST SWAP2 POP POP SWAP3 POP SWAP3 SWAP1 POP JUMP JUMPDEST PUSH1 0x0 PUSH1 0x20 DUP3 DUP5 SUB SLT ISZERO PUSH2 0x7E4 JUMPI PUSH2 0x7E3 PUSH2 0xB56 JUMP JUMPDEST JUMPDEST PUSH1 0x0 PUSH2 0x7F2 DUP5 DUP3 DUP6 ADD PUSH2 0x6F0 JUMP JUMPDEST SWAP2 POP POP SWAP3 SWAP2 POP POP JUMP JUMPDEST PUSH2 0x804 DUP2 PUSH2 0x9D9 JUMP JUMPDEST DUP3 MSTORE POP POP JUMP JUMPDEST PUSH1 0x0 PUSH2 0x815 DUP3 PUSH2 0x9BD JUMP JUMPDEST PUSH2 0x81F DUP2 DUP6 PUSH2 0x9C8 JUMP JUMPDEST SWAP4 POP PUSH2 0x82F DUP2 DUP6 PUSH1 0x20 DUP7 ADD PUSH2 0xA24 JUMP JUMPDEST PUSH2 0x838 DUP2 PUSH2 0xB5B JUMP JUMPDEST DUP5 ADD SWAP2 POP POP SWAP3 SWAP2 POP POP JUMP JUMPDEST PUSH1 0x0 PUSH2 0x850 PUSH1 0x25 DUP4 PUSH2 0x9C8 JUMP JUMPDEST SWAP2 POP PUSH2 0x85B DUP3 PUSH2 0xB6C JUMP JUMPDEST PUSH1 0x40 DUP3 ADD SWAP1 POP SWAP2 SWAP1 POP JUMP JUMPDEST PUSH1 0x0 PUSH2 0x873 PUSH1 0x30 DUP4 PUSH2 0x9C8 JUMP JUMPDEST SWAP2 POP PUSH2 0x87E DUP3 PUSH2 0xBBB JUMP JUMPDEST PUSH1 0x40 DUP3 ADD SWAP1 POP SWAP2 SWAP1 POP JUMP JUMPDEST PUSH2 0x892 DUP2 PUSH2 0xA0B JUMP JUMPDEST DUP3 MSTORE POP POP JUMP JUMPDEST PUSH1 0x0 PUSH1 0x20 DUP3 ADD SWAP1 POP PUSH2 0x8AD PUSH1 0x0 DUP4 ADD DUP5 PUSH2 0x7FB JUMP JUMPDEST SWAP3 SWAP2 POP POP JUMP JUMPDEST PUSH1 0x0 PUSH1 0x40 DUP3 ADD SWAP1 POP PUSH2 0x8C8 PUSH1 0x0 DUP4 ADD DUP6 PUSH2 0x7FB JUMP JUMPDEST PUSH2 0x8D5 PUSH1 0x20 DUP4 ADD DUP5 PUSH2 0x889 JUMP JUMPDEST SWAP4 SWAP3 POP POP POP JUMP JUMPDEST PUSH1 0x0 PUSH1 0x40 DUP3 ADD SWAP1 POP DUP2 DUP2 SUB PUSH1 0x0 DUP4 ADD MSTORE PUSH2 0x8F6 DUP2 DUP6 PUSH2 0x80A JUMP JUMPDEST SWAP1 POP PUSH2 0x905 PUSH1 0x20 DUP4 ADD DUP5 PUSH2 0x889 JUMP JUMPDEST SWAP4 SWAP3 POP POP POP JUMP JUMPDEST PUSH1 0x0 PUSH1 0x20 DUP3 ADD SWAP1 POP DUP2 DUP2 SUB PUSH1 0x0 DUP4 ADD MSTORE PUSH2 0x925 DUP2 PUSH2 0x843 JUMP JUMPDEST SWAP1 POP SWAP2 SWAP1 POP JUMP JUMPDEST PUSH1 0x0 PUSH1 0x20 DUP3 ADD SWAP1 POP DUP2 DUP2 SUB PUSH1 0x0 DUP4 ADD MSTORE PUSH2 0x945 DUP2 PUSH2 0x866 JUMP JUMPDEST SWAP1 POP SWAP2 SWAP1 POP JUMP JUMPDEST PUSH1 0x0 PUSH1 0x20 DUP3 ADD SWAP1 POP PUSH2 0x961 PUSH1 0x0 DUP4 ADD DUP5 PUSH2 0x889 JUMP JUMPDEST SWAP3 SWAP2 POP POP JUMP JUMPDEST PUSH1 0x0 PUSH2 0x971 PUSH2 0x982 JUMP JUMPDEST SWAP1 POP PUSH2 0x97D DUP3 DUP3 PUSH2 0xA89 JUMP JUMPDEST SWAP2 SWAP1 POP JUMP JUMPDEST PUSH1 0x0 PUSH1 0x40 MLOAD SWAP1 POP SWAP1 JUMP JUMPDEST PUSH1 0x0 PUSH8 0xFFFFFFFFFFFFFFFF DUP3 GT ISZERO PUSH2 0x9A7 JUMPI PUSH2 0x9A6 PUSH2 0xB18 JUMP JUMPDEST JUMPDEST PUSH2 0x9B0 DUP3 PUSH2 0xB5B JUMP JUMPDEST SWAP1 POP PUSH1 0x20 DUP2 ADD SWAP1 POP SWAP2 SWAP1 POP JUMP JUMPDEST PUSH1 0x0 DUP2 MLOAD SWAP1 POP SWAP2 SWAP1 POP JUMP JUMPDEST PUSH1 0x0 DUP3 DUP3 MSTORE PUSH1 0x20 DUP3 ADD SWAP1 POP SWAP3 SWAP2 POP POP JUMP JUMPDEST PUSH1 0x0 PUSH2 0x9E4 DUP3 PUSH2 0x9EB JUMP JUMPDEST SWAP1 POP SWAP2 SWAP1 POP JUMP JUMPDEST PUSH1 0x0 PUSH20 0xFFFFFFFFFFFFFFFFFFFFFFFFFFFFFFFFFFFFFFFF DUP3 AND SWAP1 POP SWAP2 SWAP1 POP JUMP JUMPDEST PUSH1 0x0 DUP2 SWAP1 POP SWAP2 SWAP1 POP JUMP JUMPDEST DUP3 DUP2 DUP4 CALLDATACOPY PUSH1 0x0 DUP4 DUP4 ADD MSTORE POP POP POP JUMP JUMPDEST PUSH1 0x0 JUMPDEST DUP4 DUP2 LT ISZERO PUSH2 0xA42 JUMPI DUP1 DUP3 ADD MLOAD DUP2 DUP5 ADD MSTORE PUSH1 0x20 DUP2 ADD SWAP1 POP PUSH2 0xA27 JUMP JUMPDEST DUP4 DUP2 GT ISZERO PUSH2 0xA51 JUMPI PUSH1 0x0 DUP5 DUP5 ADD MSTORE JUMPDEST POP POP POP POP JUMP JUMPDEST PUSH1 0x0 PUSH1 0x2 DUP3 DIV SWAP1 POP PUSH1 0x1 DUP3 AND DUP1 PUSH2 0xA6F JUMPI PUSH1 0x7F DUP3 AND SWAP2 POP JUMPDEST PUSH1 0x20 DUP3 LT DUP2 EQ ISZERO PUSH2 0xA83 JUMPI PUSH2 0xA82 PUSH2 0xABA JUMP JUMPDEST JUMPDEST POP SWAP2 SWAP1 POP JUMP JUMPDEST PUSH2 0xA92 DUP3 PUSH2 0xB5B JUMP JUMPDEST DUP2 ADD DUP2 DUP2 LT PUSH8 0xFFFFFFFFFFFFFFFF DUP3 GT OR ISZERO PUSH2 0xAB1 JUMPI PUSH2 0xAB0 PUSH2 0xB18 JUMP JUMPDEST JUMPDEST DUP1 PUSH1 0x40 MSTORE POP POP POP JUMP JUMPDEST PUSH32 0x4E487B7100000000000000000000000000000000000000000000000000000000 PUSH1 0x0 MSTORE PUSH1 0x22 PUSH1 0x4 MSTORE PUSH1 0x24 PUSH1 0x0 REVERT JUMPDEST PUSH32 0x4E487B7100000000000000000000000000000000000000000000000000000000 PUSH1 0x0 MSTORE PUSH1 0x32 PUSH1 0x4 MSTORE PUSH1 0x24 PUSH1 0x0 REVERT JUMPDEST PUSH32 0x4E487B7100000000000000000000000000000000000000000000000000000000 PUSH1 0x0 MSTORE PUSH1 0x41 PUSH1 0x4 MSTORE PUSH1 0x24 PUSH1 0x0 REVERT JUMPDEST PUSH1 0x0 DUP1 REVERT JUMPDEST PUSH1 0x0 DUP1 REVERT JUMPDEST PUSH1 0x0 DUP1 REVERT JUMPDEST PUSH1 0x0 DUP1 REVERT JUMPDEST PUSH1 0x0 PUSH1 0x1F NOT PUSH1 0x1F DUP4 ADD AND SWAP1 POP SWAP2 SWAP1 POP JUMP JUMPDEST PUSH32 0x596120746520656E6375656E74726173207265676973747261646F20656E2065 PUSH1 0x0 DUP3 ADD MSTORE PUSH32 0x6C2067796D000000000000000000000000000000000000000000000000000000 PUSH1 0x20 DUP3 ADD MSTORE POP JUMP JUMPDEST PUSH32 0x536F6C6F20656C2041646D696E6973747261646F722064656C2047796D207075 PUSH1 0x0 DUP3 ADD MSTORE PUSH32 0x65646520637265617220636C6173657300000000000000000000000000000000 PUSH1 0x20 DUP3 ADD MSTORE POP JUMP JUMPDEST PUSH2 0xC13 DUP2 PUSH2 0x9D9 JUMP JUMPDEST DUP2 EQ PUSH2 0xC1E JUMPI PUSH1 0x0 DUP1 REVERT JUMPDEST POP JUMP JUMPDEST PUSH2 0xC2A DUP2 PUSH2 0xA0B JUMP JUMPDEST DUP2 EQ PUSH2 0xC35 JUMPI PUSH1 0x0 DUP1 REVERT JUMPDEST POP JUMP INVALID LOG2 PUSH5 0x6970667358 0x22 SLT KECCAK256 0xDB 0xD9 0x24 CODESIZE PUSH23 0x12F6A904DD4300559D5F3AB9B8B15B739146F60FF7B0BF PUSH14 0x897E3764736F6C63430008070033 "
				},
				"gasEstimates": {
					"creation": {
						"codeDepositCost": "636400",
						"executionCost": "infinite",
						"totalCost": "infinite"
					},
					"external": {
						"ADMIN()": "infinite",
						"class(uint256)": "infinite",
						"createClass(string,uint256)": "infinite",
						"getBalance()": "2689",
						"getClass(uint256)": "infinite",
						"register(address,uint256)": "infinite",
						"users(address)": "2880"
					}
				},
				"methodIdentifiers": {
					"ADMIN()": "2a0acc6a",
					"class(uint256)": "3613a9f4",
					"createClass(string,uint256)": "4852a212",
					"getBalance()": "12065fe0",
					"getClass(uint256)": "512d62df",
					"register(address,uint256)": "6d705ebb",
					"users(address)": "a87430ba"
				}
			},
			"storageLayout": {
				"storage": [
					{
						"astId": 33,
						"contract": "contracts/Gym_Contact.sol:gym",
						"label": "users",
						"offset": 0,
						"slot": "0",
						"type": "t_mapping(t_address,t_uint256)"
					},
					{
						"astId": 37,
						"contract": "contracts/Gym_Contact.sol:gym",
						"label": "class",
						"offset": 0,
						"slot": "1",
						"type": "t_array(t_struct(Class)6_storage)dyn_storage"
					}
				],
				"types": {
					"t_address": {
						"encoding": "inplace",
						"label": "address",
						"numberOfBytes": "20"
					},
					"t_array(t_struct(Class)6_storage)dyn_storage": {
						"base": "t_struct(Class)6_storage",
						"encoding": "dynamic_array",
						"label": "struct gym.Class[]",
						"numberOfBytes": "32"
					},
					"t_mapping(t_address,t_uint256)": {
						"encoding": "mapping",
						"key": "t_address",
						"label": "mapping(address => uint256)",
						"numberOfBytes": "32",
						"value": "t_uint256"
					},
					"t_string_storage": {
						"encoding": "bytes",
						"label": "string",
						"numberOfBytes": "32"
					},
					"t_struct(Class)6_storage": {
						"encoding": "inplace",
						"label": "struct gym.Class",
						"members": [
							{
								"astId": 3,
								"contract": "contracts/Gym_Contact.sol:gym",
								"label": "name",
								"offset": 0,
								"slot": "0",
								"type": "t_string_storage"
							},
							{
								"astId": 5,
								"contract": "contracts/Gym_Contact.sol:gym",
								"label": "value",
								"offset": 0,
								"slot": "1",
								"type": "t_uint256"
							}
						],
						"numberOfBytes": "64"
					},
					"t_uint256": {
						"encoding": "inplace",
						"label": "uint256",
						"numberOfBytes": "32"
					}
				}
			},
			"userdoc": {
				"kind": "user",
				"methods": {},
				"version": 1
			}
		}
	}
}