{
	"contracts/Gym_Contact.sol": {
		"gym": {
			"abi": [
				{
					"inputs": [],
					"stateMutability": "nonpayable",
					"type": "constructor"
				},
				{
					"anonymous": false,
					"inputs": [
						{
							"indexed": false,
							"internalType": "string",
							"name": "name",
							"type": "string"
						},
						{
							"indexed": false,
							"internalType": "uint256",
							"name": "value",
							"type": "uint256"
						}
					],
					"name": "ClassCreated",
					"type": "event"
				},
				{
					"anonymous": false,
					"inputs": [
						{
							"indexed": false,
							"internalType": "address",
							"name": "user",
							"type": "address"
						},
						{
							"indexed": false,
							"internalType": "uint256",
							"name": "credits",
							"type": "uint256"
						}
					],
					"name": "Register",
					"type": "event"
				},
				{
					"inputs": [],
					"name": "ADMIN",
					"outputs": [
						{
							"internalType": "address",
							"name": "",
							"type": "address"
						}
					],
					"stateMutability": "view",
					"type": "function"
				},
				{
					"inputs": [
						{
							"internalType": "uint256",
							"name": "",
							"type": "uint256"
						}
					],
					"name": "class",
					"outputs": [
						{
							"internalType": "string",
							"name": "name",
							"type": "string"
						},
						{
							"internalType": "uint256",
							"name": "value",
							"type": "uint256"
						}
					],
					"stateMutability": "view",
					"type": "function"
				},
				{
					"inputs": [
						{
							"internalType": "string",
							"name": "_name",
							"type": "string"
						},
						{
							"internalType": "uint256",
							"name": "_value",
							"type": "uint256"
						}
					],
					"name": "createClass",
					"outputs": [],
					"stateMutability": "nonpayable",
					"type": "function"
				},
				{
					"inputs": [],
					"name": "getBalance",
					"outputs": [
						{
							"internalType": "address",
							"name": "",
							"type": "address"
						},
						{
							"internalType": "uint256",
							"name": "",
							"type": "uint256"
						}
					],
					"stateMutability": "view",
					"type": "function"
				},
				{
					"inputs": [
						{
							"internalType": "uint256",
							"name": "_index",
							"type": "uint256"
						}
					],
					"name": "getClass",
					"outputs": [
						{
							"internalType": "string",
							"name": "name",
							"type": "string"
						},
						{
							"internalType": "uint256",
							"name": "value",
							"type": "uint256"
						}
					],
					"stateMutability": "view",
					"type": "function"
				},
				{
					"inputs": [
						{
							"internalType": "uint256",
							"name": "_value",
							"type": "uint256"
						}
					],
					"name": "getCredits",
					"outputs": [],
					"stateMutability": "nonpayable",
					"type": "function"
				},
				{
					"inputs": [
						{
							"internalType": "address",
							"name": "_address",
							"type": "address"
						},
						{
							"internalType": "uint256",
							"name": "_credits",
							"type": "uint256"
						}
					],
					"name": "register",
					"outputs": [],
					"stateMutability": "nonpayable",
					"type": "function"
				},
				{
					"inputs": [
						{
							"internalType": "uint256",
							"name": "_index",
							"type": "uint256"
						}
					],
					"name": "removeClass",
					"outputs": [],
					"stateMutability": "nonpayable",
					"type": "function"
				},
				{
					"inputs": [
						{
							"internalType": "uint256",
							"name": "_index",
							"type": "uint256"
						}
					],
					"name": "takeClass",
					"outputs": [],
					"stateMutability": "nonpayable",
					"type": "function"
				},
				{
					"inputs": [
						{
							"internalType": "uint256",
							"name": "_value",
							"type": "uint256"
						},
						{
							"internalType": "address",
							"name": "_address",
							"type": "address"
						}
					],
					"name": "transferCredits",
					"outputs": [],
					"stateMutability": "nonpayable",
					"type": "function"
				},
				{
					"inputs": [
						{
							"internalType": "uint256",
							"name": "_index",
							"type": "uint256"
						},
						{
							"internalType": "string",
							"name": "_name",
							"type": "string"
						},
						{
							"internalType": "uint256",
							"name": "_value",
							"type": "uint256"
						}
					],
					"name": "updateClass",
					"outputs": [],
					"stateMutability": "nonpayable",
					"type": "function"
				},
				{
					"inputs": [
						{
							"internalType": "address",
							"name": "",
							"type": "address"
						}
					],
					"name": "users",
					"outputs": [
						{
							"internalType": "uint256",
							"name": "",
							"type": "uint256"
						}
					],
					"stateMutability": "view",
					"type": "function"
				}
			],
			"devdoc": {
				"kind": "dev",
				"methods": {},
				"version": 1
			},
			"evm": {
				"assembly": "    /* \"contracts/Gym_Contact.sol\":70:2991  contract gym {\r... */\n  mstore(0x40, 0xa0)\n    /* \"contracts/Gym_Contact.sol\":431:482  constructor() {\r... */\n  callvalue\n  dup1\n  iszero\n  tag_1\n  jumpi\n  0x00\n  dup1\n  revert\ntag_1:\n  pop\n    /* \"contracts/Gym_Contact.sol\":464:474  msg.sender */\n  caller\n    /* \"contracts/Gym_Contact.sol\":456:474  ADMIN = msg.sender */\n  0xffffffffffffffffffffffffffffffffffffffff\n  and\n  0x80\n  dup2\n  0xffffffffffffffffffffffffffffffffffffffff\n  and\n  0x60\n  shl\n  dup2\n  mstore\n  pop\n  pop\n    /* \"contracts/Gym_Contact.sol\":70:2991  contract gym {\r... */\n  shr(0x60, mload(0x80))\n  codecopy(0x00, dataOffset(sub_0), dataSize(sub_0))\n  0x00\n  assignImmutable(\"0x731dc163f73d31d8c68f9917ce4ff967753939f70432973c04fd2c2a48148607\")\n  return(0x00, dataSize(sub_0))\nstop\n\nsub_0: assembly {\n        /* \"contracts/Gym_Contact.sol\":70:2991  contract gym {\r... */\n      mstore(0x40, 0x80)\n      callvalue\n      dup1\n      iszero\n      tag_1\n      jumpi\n      0x00\n      dup1\n      revert\n    tag_1:\n      pop\n      jumpi(tag_2, lt(calldatasize, 0x04))\n      shr(0xe0, calldataload(0x00))\n      dup1\n      0x512d62df\n      gt\n      tag_15\n      jumpi\n      dup1\n      0x512d62df\n      eq\n      tag_9\n      jumpi\n      dup1\n      0x6d705ebb\n      eq\n      tag_10\n      jumpi\n      dup1\n      0x72c30f45\n      eq\n      tag_11\n      jumpi\n      dup1\n      0x7aed8136\n      eq\n      tag_12\n      jumpi\n      dup1\n      0xa87430ba\n      eq\n      tag_13\n      jumpi\n      dup1\n      0xd93b2dd0\n      eq\n      tag_14\n      jumpi\n      jump(tag_2)\n    tag_15:\n      dup1\n      0x12065fe0\n      eq\n      tag_3\n      jumpi\n      dup1\n      0x19389b95\n      eq\n      tag_4\n      jumpi\n      dup1\n      0x1e8be099\n      eq\n      tag_5\n      jumpi\n      dup1\n      0x2a0acc6a\n      eq\n      tag_6\n      jumpi\n      dup1\n      0x3613a9f4\n      eq\n      tag_7\n      jumpi\n      dup1\n      0x4852a212\n      eq\n      tag_8\n      jumpi\n    tag_2:\n      0x00\n      dup1\n      revert\n        /* \"contracts/Gym_Contact.sol\":1971:2084  function getBalance() public view returns(address, uint){\r... */\n    tag_3:\n      tag_16\n      tag_17\n      jump\t// in\n    tag_16:\n      mload(0x40)\n      tag_18\n      swap3\n      swap2\n      swap1\n      tag_19\n      jump\t// in\n    tag_18:\n      mload(0x40)\n      dup1\n      swap2\n      sub\n      swap1\n      return\n        /* \"contracts/Gym_Contact.sol\":2604:2713  function getCredits(uint _value) public {\r... */\n    tag_4:\n      tag_20\n      0x04\n      dup1\n      calldatasize\n      sub\n      dup2\n      add\n      swap1\n      tag_21\n      swap2\n      swap1\n      tag_22\n      jump\t// in\n    tag_21:\n      tag_23\n      jump\t// in\n    tag_20:\n      stop\n        /* \"contracts/Gym_Contact.sol\":1073:1357  function updateClass(uint _index, string memory _name, uint _value) public {\r... */\n    tag_5:\n      tag_24\n      0x04\n      dup1\n      calldatasize\n      sub\n      dup2\n      add\n      swap1\n      tag_25\n      swap2\n      swap1\n      tag_26\n      jump\t// in\n    tag_25:\n      tag_27\n      jump\t// in\n    tag_24:\n      stop\n        /* \"contracts/Gym_Contact.sol\":392:422  address immutable public ADMIN */\n    tag_6:\n      tag_28\n      tag_29\n      jump\t// in\n    tag_28:\n      mload(0x40)\n      tag_30\n      swap2\n      swap1\n      tag_31\n      jump\t// in\n    tag_30:\n      mload(0x40)\n      dup1\n      swap2\n      sub\n      swap1\n      return\n        /* \"contracts/Gym_Contact.sol\":758:778  Class[] public class */\n    tag_7:\n      tag_32\n      0x04\n      dup1\n      calldatasize\n      sub\n      dup2\n      add\n      swap1\n      tag_33\n      swap2\n      swap1\n      tag_22\n      jump\t// in\n    tag_33:\n      tag_34\n      jump\t// in\n    tag_32:\n      mload(0x40)\n      tag_35\n      swap3\n      swap2\n      swap1\n      tag_36\n      jump\t// in\n    tag_35:\n      mload(0x40)\n      dup1\n      swap2\n      sub\n      swap1\n      return\n        /* \"contracts/Gym_Contact.sol\":818:1065  function createClass(string memory _name, uint _value) public {\r... */\n    tag_8:\n      tag_37\n      0x04\n      dup1\n      calldatasize\n      sub\n      dup2\n      add\n      swap1\n      tag_38\n      swap2\n      swap1\n      tag_39\n      jump\t// in\n    tag_38:\n      tag_40\n      jump\t// in\n    tag_37:\n      stop\n        /* \"contracts/Gym_Contact.sol\":2092:2343  function getClass(uint _index) public view returns (string memory name, uint value) {\r... */\n    tag_9:\n      tag_41\n      0x04\n      dup1\n      calldatasize\n      sub\n      dup2\n      add\n      swap1\n      tag_42\n      swap2\n      swap1\n      tag_22\n      jump\t// in\n    tag_42:\n      tag_43\n      jump\t// in\n    tag_41:\n      mload(0x40)\n      tag_44\n      swap3\n      swap2\n      swap1\n      tag_36\n      jump\t// in\n    tag_44:\n      mload(0x40)\n      dup1\n      swap2\n      sub\n      swap1\n      return\n        /* \"contracts/Gym_Contact.sol\":1577:1963  function register(address _address, uint _credits) public {\r... */\n    tag_10:\n      tag_45\n      0x04\n      dup1\n      calldatasize\n      sub\n      dup2\n      add\n      swap1\n      tag_46\n      swap2\n      swap1\n      tag_47\n      jump\t// in\n    tag_46:\n      tag_48\n      jump\t// in\n    tag_45:\n      stop\n        /* \"contracts/Gym_Contact.sol\":1365:1539  function removeClass(uint _index) public {\r... */\n    tag_11:\n      tag_49\n      0x04\n      dup1\n      calldatasize\n      sub\n      dup2\n      add\n      swap1\n      tag_50\n      swap2\n      swap1\n      tag_22\n      jump\t// in\n    tag_50:\n      tag_51\n      jump\t// in\n    tag_49:\n      stop\n        /* \"contracts/Gym_Contact.sol\":2351:2596  function takeClass(uint _index) public {\r... */\n    tag_12:\n      tag_52\n      0x04\n      dup1\n      calldatasize\n      sub\n      dup2\n      add\n      swap1\n      tag_53\n      swap2\n      swap1\n      tag_22\n      jump\t// in\n    tag_53:\n      tag_54\n      jump\t// in\n    tag_52:\n      stop\n        /* \"contracts/Gym_Contact.sol\":506:543  mapping(address => uint) public users */\n    tag_13:\n      tag_55\n      0x04\n      dup1\n      calldatasize\n      sub\n      dup2\n      add\n      swap1\n      tag_56\n      swap2\n      swap1\n      tag_57\n      jump\t// in\n    tag_56:\n      tag_58\n      jump\t// in\n    tag_55:\n      mload(0x40)\n      tag_59\n      swap2\n      swap1\n      tag_60\n      jump\t// in\n    tag_59:\n      mload(0x40)\n      dup1\n      swap2\n      sub\n      swap1\n      return\n        /* \"contracts/Gym_Contact.sol\":2721:2986  function transferCredits(uint _value, address _address) public {\r... */\n    tag_14:\n      tag_61\n      0x04\n      dup1\n      calldatasize\n      sub\n      dup2\n      add\n      swap1\n      tag_62\n      swap2\n      swap1\n      tag_63\n      jump\t// in\n    tag_62:\n      tag_64\n      jump\t// in\n    tag_61:\n      stop\n        /* \"contracts/Gym_Contact.sol\":1971:2084  function getBalance() public view returns(address, uint){\r... */\n    tag_17:\n        /* \"contracts/Gym_Contact.sol\":2013:2020  address */\n      0x00\n        /* \"contracts/Gym_Contact.sol\":2022:2026  uint */\n      dup1\n        /* \"contracts/Gym_Contact.sol\":2046:2056  msg.sender */\n      caller\n        /* \"contracts/Gym_Contact.sol\":2058:2063  users */\n      0x00\n        /* \"contracts/Gym_Contact.sol\":2058:2075  users[msg.sender] */\n      dup1\n        /* \"contracts/Gym_Contact.sol\":2064:2074  msg.sender */\n      caller\n        /* \"contracts/Gym_Contact.sol\":2058:2075  users[msg.sender] */\n      0xffffffffffffffffffffffffffffffffffffffff\n      and\n      0xffffffffffffffffffffffffffffffffffffffff\n      and\n      dup2\n      mstore\n      0x20\n      add\n      swap1\n      dup2\n      mstore\n      0x20\n      add\n      0x00\n      keccak256\n      sload\n        /* \"contracts/Gym_Contact.sol\":2038:2076  return (msg.sender, users[msg.sender]) */\n      swap2\n      pop\n      swap2\n      pop\n        /* \"contracts/Gym_Contact.sol\":1971:2084  function getBalance() public view returns(address, uint){\r... */\n      swap1\n      swap2\n      jump\t// out\n        /* \"contracts/Gym_Contact.sol\":2604:2713  function getCredits(uint _value) public {\r... */\n    tag_23:\n        /* \"contracts/Gym_Contact.sol\":2676:2682  _value */\n      dup1\n        /* \"contracts/Gym_Contact.sol\":2655:2660  users */\n      0x00\n        /* \"contracts/Gym_Contact.sol\":2655:2672  users[msg.sender] */\n      dup1\n        /* \"contracts/Gym_Contact.sol\":2661:2671  msg.sender */\n      caller\n        /* \"contracts/Gym_Contact.sol\":2655:2672  users[msg.sender] */\n      0xffffffffffffffffffffffffffffffffffffffff\n      and\n      0xffffffffffffffffffffffffffffffffffffffff\n      and\n      dup2\n      mstore\n      0x20\n      add\n      swap1\n      dup2\n      mstore\n      0x20\n      add\n      0x00\n      keccak256\n      0x00\n        /* \"contracts/Gym_Contact.sol\":2655:2682  users[msg.sender] += _value */\n      dup3\n      dup3\n      sload\n      tag_67\n      swap2\n      swap1\n      tag_68\n      jump\t// in\n    tag_67:\n      swap3\n      pop\n      pop\n      dup2\n      swap1\n      sstore\n      pop\n        /* \"contracts/Gym_Contact.sol\":2693:2705  getBalance() */\n      tag_69\n        /* \"contracts/Gym_Contact.sol\":2693:2703  getBalance */\n      tag_17\n        /* \"contracts/Gym_Contact.sol\":2693:2705  getBalance() */\n      jump\t// in\n    tag_69:\n      pop\n      pop\n        /* \"contracts/Gym_Contact.sol\":2604:2713  function getCredits(uint _value) public {\r... */\n      pop\n      jump\t// out\n        /* \"contracts/Gym_Contact.sol\":1073:1357  function updateClass(uint _index, string memory _name, uint _value) public {\r... */\n    tag_27:\n        /* \"contracts/Gym_Contact.sol\":1176:1186  msg.sender */\n      caller\n        /* \"contracts/Gym_Contact.sol\":1167:1186  ADMIN == msg.sender */\n      0xffffffffffffffffffffffffffffffffffffffff\n      and\n        /* \"contracts/Gym_Contact.sol\":1167:1172  ADMIN */\n      immutable(\"0x731dc163f73d31d8c68f9917ce4ff967753939f70432973c04fd2c2a48148607\")\n        /* \"contracts/Gym_Contact.sol\":1167:1186  ADMIN == msg.sender */\n      0xffffffffffffffffffffffffffffffffffffffff\n      and\n      eq\n        /* \"contracts/Gym_Contact.sol\":1159:1243  require(ADMIN == msg.sender, \"Solo el Administrador del Gym puede modificar clases\") */\n      tag_71\n      jumpi\n      mload(0x40)\n      0x08c379a000000000000000000000000000000000000000000000000000000000\n      dup2\n      mstore\n      0x04\n      add\n      tag_72\n      swap1\n      tag_73\n      jump\t// in\n    tag_72:\n      mload(0x40)\n      dup1\n      swap2\n      sub\n      swap1\n      revert\n    tag_71:\n        /* \"contracts/Gym_Contact.sol\":1254:1273  Class storage clase */\n      0x00\n        /* \"contracts/Gym_Contact.sol\":1276:1281  class */\n      0x01\n        /* \"contracts/Gym_Contact.sol\":1282:1288  _index */\n      dup5\n        /* \"contracts/Gym_Contact.sol\":1276:1289  class[_index] */\n      dup2\n      sload\n      dup2\n      lt\n      tag_74\n      jumpi\n      tag_75\n      tag_76\n      jump\t// in\n    tag_75:\n    tag_74:\n      swap1\n      0x00\n      mstore\n      keccak256(0x00, 0x20)\n      swap1\n      0x02\n      mul\n      add\n        /* \"contracts/Gym_Contact.sol\":1254:1289  Class storage clase = class[_index] */\n      swap1\n      pop\n        /* \"contracts/Gym_Contact.sol\":1313:1318  _name */\n      dup3\n        /* \"contracts/Gym_Contact.sol\":1300:1305  clase */\n      dup2\n        /* \"contracts/Gym_Contact.sol\":1300:1310  clase.name */\n      0x00\n      add\n        /* \"contracts/Gym_Contact.sol\":1300:1318  clase.name = _name */\n      swap1\n      dup1\n      mload\n      swap1\n      0x20\n      add\n      swap1\n      tag_78\n      swap3\n      swap2\n      swap1\n      tag_79\n      jump\t// in\n    tag_78:\n      pop\n        /* \"contracts/Gym_Contact.sol\":1343:1349  _value */\n      dup2\n        /* \"contracts/Gym_Contact.sol\":1329:1334  clase */\n      dup2\n        /* \"contracts/Gym_Contact.sol\":1329:1340  clase.value */\n      0x01\n      add\n        /* \"contracts/Gym_Contact.sol\":1329:1349  clase.value = _value */\n      dup2\n      swap1\n      sstore\n      pop\n        /* \"contracts/Gym_Contact.sol\":1148:1357  {\r... */\n      pop\n        /* \"contracts/Gym_Contact.sol\":1073:1357  function updateClass(uint _index, string memory _name, uint _value) public {\r... */\n      pop\n      pop\n      pop\n      jump\t// out\n        /* \"contracts/Gym_Contact.sol\":392:422  address immutable public ADMIN */\n    tag_29:\n      immutable(\"0x731dc163f73d31d8c68f9917ce4ff967753939f70432973c04fd2c2a48148607\")\n      dup2\n      jump\t// out\n        /* \"contracts/Gym_Contact.sol\":758:778  Class[] public class */\n    tag_34:\n      0x01\n      dup2\n      dup2\n      sload\n      dup2\n      lt\n      tag_80\n      jumpi\n      0x00\n      dup1\n      revert\n    tag_80:\n      swap1\n      0x00\n      mstore\n      keccak256(0x00, 0x20)\n      swap1\n      0x02\n      mul\n      add\n      0x00\n      swap2\n      pop\n      swap1\n      pop\n      dup1\n      0x00\n      add\n      dup1\n      sload\n      tag_82\n      swap1\n      tag_83\n      jump\t// in\n    tag_82:\n      dup1\n      0x1f\n      add\n      0x20\n      dup1\n      swap2\n      div\n      mul\n      0x20\n      add\n      mload(0x40)\n      swap1\n      dup2\n      add\n      0x40\n      mstore\n      dup1\n      swap3\n      swap2\n      swap1\n      dup2\n      dup2\n      mstore\n      0x20\n      add\n      dup3\n      dup1\n      sload\n      tag_84\n      swap1\n      tag_83\n      jump\t// in\n    tag_84:\n      dup1\n      iszero\n      tag_85\n      jumpi\n      dup1\n      0x1f\n      lt\n      tag_86\n      jumpi\n      0x0100\n      dup1\n      dup4\n      sload\n      div\n      mul\n      dup4\n      mstore\n      swap2\n      0x20\n      add\n      swap2\n      jump(tag_85)\n    tag_86:\n      dup3\n      add\n      swap2\n      swap1\n      0x00\n      mstore\n      keccak256(0x00, 0x20)\n      swap1\n    tag_87:\n      dup2\n      sload\n      dup2\n      mstore\n      swap1\n      0x01\n      add\n      swap1\n      0x20\n      add\n      dup1\n      dup4\n      gt\n      tag_87\n      jumpi\n      dup3\n      swap1\n      sub\n      0x1f\n      and\n      dup3\n      add\n      swap2\n    tag_85:\n      pop\n      pop\n      pop\n      pop\n      pop\n      swap1\n      dup1\n      0x01\n      add\n      sload\n      swap1\n      pop\n      dup3\n      jump\t// out\n        /* \"contracts/Gym_Contact.sol\":818:1065  function createClass(string memory _name, uint _value) public {\r... */\n    tag_40:\n        /* \"contracts/Gym_Contact.sol\":908:918  msg.sender */\n      caller\n        /* \"contracts/Gym_Contact.sol\":899:918  ADMIN == msg.sender */\n      0xffffffffffffffffffffffffffffffffffffffff\n      and\n        /* \"contracts/Gym_Contact.sol\":899:904  ADMIN */\n      immutable(\"0x731dc163f73d31d8c68f9917ce4ff967753939f70432973c04fd2c2a48148607\")\n        /* \"contracts/Gym_Contact.sol\":899:918  ADMIN == msg.sender */\n      0xffffffffffffffffffffffffffffffffffffffff\n      and\n      eq\n        /* \"contracts/Gym_Contact.sol\":891:971  require(ADMIN == msg.sender, \"Solo el Administrador del Gym puede crear clases\") */\n      tag_89\n      jumpi\n      mload(0x40)\n      0x08c379a000000000000000000000000000000000000000000000000000000000\n      dup2\n      mstore\n      0x04\n      add\n      tag_90\n      swap1\n      tag_91\n      jump\t// in\n    tag_90:\n      mload(0x40)\n      dup1\n      swap2\n      sub\n      swap1\n      revert\n    tag_89:\n        /* \"contracts/Gym_Contact.sol\":982:987  class */\n      0x01\n        /* \"contracts/Gym_Contact.sol\":993:1013  Class(_name, _value) */\n      mload(0x40)\n      dup1\n      0x40\n      add\n      0x40\n      mstore\n      dup1\n        /* \"contracts/Gym_Contact.sol\":999:1004  _name */\n      dup5\n        /* \"contracts/Gym_Contact.sol\":993:1013  Class(_name, _value) */\n      dup2\n      mstore\n      0x20\n      add\n        /* \"contracts/Gym_Contact.sol\":1006:1012  _value */\n      dup4\n        /* \"contracts/Gym_Contact.sol\":993:1013  Class(_name, _value) */\n      dup2\n      mstore\n      pop\n        /* \"contracts/Gym_Contact.sol\":982:1014  class.push(Class(_name, _value)) */\n      swap1\n      dup1\n      0x01\n      dup2\n      sload\n      add\n      dup1\n      dup3\n      sstore\n      dup1\n      swap2\n      pop\n      pop\n      0x01\n      swap1\n      sub\n      swap1\n      0x00\n      mstore\n      keccak256(0x00, 0x20)\n      swap1\n      0x02\n      mul\n      add\n      0x00\n      swap1\n      swap2\n      swap1\n      swap2\n      swap1\n      swap2\n      pop\n      0x00\n      dup3\n      add\n      mload\n      dup2\n      0x00\n      add\n      swap1\n      dup1\n      mload\n      swap1\n      0x20\n      add\n      swap1\n      tag_93\n      swap3\n      swap2\n      swap1\n      tag_79\n      jump\t// in\n    tag_93:\n      pop\n      0x20\n      dup3\n      add\n      mload\n      dup2\n      0x01\n      add\n      sstore\n      pop\n      pop\n        /* \"contracts/Gym_Contact.sol\":1030:1057  ClassCreated(_name, _value) */\n      0x14d49e3ea4f348b7f368906dfe1a63055c7822d622a61672a35a55ae97a768f9\n        /* \"contracts/Gym_Contact.sol\":1043:1048  _name */\n      dup3\n        /* \"contracts/Gym_Contact.sol\":1050:1056  _value */\n      dup3\n        /* \"contracts/Gym_Contact.sol\":1030:1057  ClassCreated(_name, _value) */\n      mload(0x40)\n      tag_94\n      swap3\n      swap2\n      swap1\n      tag_36\n      jump\t// in\n    tag_94:\n      mload(0x40)\n      dup1\n      swap2\n      sub\n      swap1\n      log1\n        /* \"contracts/Gym_Contact.sol\":818:1065  function createClass(string memory _name, uint _value) public {\r... */\n      pop\n      pop\n      jump\t// out\n        /* \"contracts/Gym_Contact.sol\":2092:2343  function getClass(uint _index) public view returns (string memory name, uint value) {\r... */\n    tag_43:\n        /* \"contracts/Gym_Contact.sol\":2144:2162  string memory name */\n      0x60\n        /* \"contracts/Gym_Contact.sol\":2164:2174  uint value */\n      0x00\n        /* \"contracts/Gym_Contact.sol\":2187:2206  Class storage clase */\n      dup1\n        /* \"contracts/Gym_Contact.sol\":2209:2214  class */\n      0x01\n        /* \"contracts/Gym_Contact.sol\":2215:2221  _index */\n      dup5\n        /* \"contracts/Gym_Contact.sol\":2209:2222  class[_index] */\n      dup2\n      sload\n      dup2\n      lt\n      tag_96\n      jumpi\n      tag_97\n      tag_76\n      jump\t// in\n    tag_97:\n    tag_96:\n      swap1\n      0x00\n      mstore\n      keccak256(0x00, 0x20)\n      swap1\n      0x02\n      mul\n      add\n        /* \"contracts/Gym_Contact.sol\":2187:2222  Class storage clase = class[_index] */\n      swap1\n      pop\n        /* \"contracts/Gym_Contact.sol\":2256:2257  0 */\n      0x00\n        /* \"contracts/Gym_Contact.sol\":2241:2246  clase */\n      dup2\n        /* \"contracts/Gym_Contact.sol\":2241:2252  clase.value */\n      0x01\n      add\n      sload\n        /* \"contracts/Gym_Contact.sol\":2241:2257  clase.value == 0 */\n      eq\n        /* \"contracts/Gym_Contact.sol\":2233:2292  require(clase.value == 0, \"No existe una clase con ese Id\") */\n      tag_99\n      jumpi\n      mload(0x40)\n      0x08c379a000000000000000000000000000000000000000000000000000000000\n      dup2\n      mstore\n      0x04\n      add\n      tag_100\n      swap1\n      tag_101\n      jump\t// in\n    tag_100:\n      mload(0x40)\n      dup1\n      swap2\n      sub\n      swap1\n      revert\n    tag_99:\n        /* \"contracts/Gym_Contact.sol\":2311:2316  clase */\n      dup1\n        /* \"contracts/Gym_Contact.sol\":2311:2321  clase.name */\n      0x00\n      add\n        /* \"contracts/Gym_Contact.sol\":2323:2328  clase */\n      dup2\n        /* \"contracts/Gym_Contact.sol\":2323:2334  clase.value */\n      0x01\n      add\n      sload\n        /* \"contracts/Gym_Contact.sol\":2303:2335  return (clase.name, clase.value) */\n      dup2\n      dup1\n      sload\n      tag_102\n      swap1\n      tag_83\n      jump\t// in\n    tag_102:\n      dup1\n      0x1f\n      add\n      0x20\n      dup1\n      swap2\n      div\n      mul\n      0x20\n      add\n      mload(0x40)\n      swap1\n      dup2\n      add\n      0x40\n      mstore\n      dup1\n      swap3\n      swap2\n      swap1\n      dup2\n      dup2\n      mstore\n      0x20\n      add\n      dup3\n      dup1\n      sload\n      tag_103\n      swap1\n      tag_83\n      jump\t// in\n    tag_103:\n      dup1\n      iszero\n      tag_104\n      jumpi\n      dup1\n      0x1f\n      lt\n      tag_105\n      jumpi\n      0x0100\n      dup1\n      dup4\n      sload\n      div\n      mul\n      dup4\n      mstore\n      swap2\n      0x20\n      add\n      swap2\n      jump(tag_104)\n    tag_105:\n      dup3\n      add\n      swap2\n      swap1\n      0x00\n      mstore\n      keccak256(0x00, 0x20)\n      swap1\n    tag_106:\n      dup2\n      sload\n      dup2\n      mstore\n      swap1\n      0x01\n      add\n      swap1\n      0x20\n      add\n      dup1\n      dup4\n      gt\n      tag_106\n      jumpi\n      dup3\n      swap1\n      sub\n      0x1f\n      and\n      dup3\n      add\n      swap2\n    tag_104:\n      pop\n      pop\n      pop\n      pop\n      pop\n      swap2\n      pop\n      swap3\n      pop\n      swap3\n      pop\n      pop\n        /* \"contracts/Gym_Contact.sol\":2092:2343  function getClass(uint _index) public view returns (string memory name, uint value) {\r... */\n      swap2\n      pop\n      swap2\n      jump\t// out\n        /* \"contracts/Gym_Contact.sol\":1577:1963  function register(address _address, uint _credits) public {\r... */\n    tag_48:\n        /* \"contracts/Gym_Contact.sol\":1778:1779  0 */\n      0x00\n        /* \"contracts/Gym_Contact.sol\":1757:1762  users */\n      dup1\n        /* \"contracts/Gym_Contact.sol\":1757:1774  users[msg.sender] */\n      0x00\n        /* \"contracts/Gym_Contact.sol\":1763:1773  msg.sender */\n      caller\n        /* \"contracts/Gym_Contact.sol\":1757:1774  users[msg.sender] */\n      0xffffffffffffffffffffffffffffffffffffffff\n      and\n      0xffffffffffffffffffffffffffffffffffffffff\n      and\n      dup2\n      mstore\n      0x20\n      add\n      swap1\n      dup2\n      mstore\n      0x20\n      add\n      0x00\n      keccak256\n      sload\n        /* \"contracts/Gym_Contact.sol\":1757:1779  users[msg.sender] == 0 */\n      eq\n        /* \"contracts/Gym_Contact.sol\":1749:1821  require(users[msg.sender] == 0, \"Ya te encuentras registrado en el gym\") */\n      tag_108\n      jumpi\n      mload(0x40)\n      0x08c379a000000000000000000000000000000000000000000000000000000000\n      dup2\n      mstore\n      0x04\n      add\n      tag_109\n      swap1\n      tag_110\n      jump\t// in\n    tag_109:\n      mload(0x40)\n      dup1\n      swap2\n      sub\n      swap1\n      revert\n    tag_108:\n        /* \"contracts/Gym_Contact.sol\":1852:1860  _credits */\n      dup1\n        /* \"contracts/Gym_Contact.sol\":1832:1837  users */\n      0x00\n        /* \"contracts/Gym_Contact.sol\":1832:1849  users[msg.sender] */\n      dup1\n        /* \"contracts/Gym_Contact.sol\":1838:1848  msg.sender */\n      caller\n        /* \"contracts/Gym_Contact.sol\":1832:1849  users[msg.sender] */\n      0xffffffffffffffffffffffffffffffffffffffff\n      and\n      0xffffffffffffffffffffffffffffffffffffffff\n      and\n      dup2\n      mstore\n      0x20\n      add\n      swap1\n      dup2\n      mstore\n      0x20\n      add\n      0x00\n      keccak256\n        /* \"contracts/Gym_Contact.sol\":1832:1860  users[msg.sender] = _credits */\n      dup2\n      swap1\n      sstore\n      pop\n        /* \"contracts/Gym_Contact.sol\":1876:1904  Register(_address, _credits) */\n      0x7dc6ab80cc84c043b7b8d4fcafc802187470087f7ea7fccd2e17aecd0256a1\n        /* \"contracts/Gym_Contact.sol\":1885:1893  _address */\n      dup3\n        /* \"contracts/Gym_Contact.sol\":1895:1903  _credits */\n      dup3\n        /* \"contracts/Gym_Contact.sol\":1876:1904  Register(_address, _credits) */\n      mload(0x40)\n      tag_111\n      swap3\n      swap2\n      swap1\n      tag_19\n      jump\t// in\n    tag_111:\n      mload(0x40)\n      dup1\n      swap2\n      sub\n      swap1\n      log1\n        /* \"contracts/Gym_Contact.sol\":1577:1963  function register(address _address, uint _credits) public {\r... */\n      pop\n      pop\n      jump\t// out\n        /* \"contracts/Gym_Contact.sol\":1365:1539  function removeClass(uint _index) public {\r... */\n    tag_51:\n        /* \"contracts/Gym_Contact.sol\":1434:1444  msg.sender */\n      caller\n        /* \"contracts/Gym_Contact.sol\":1425:1444  ADMIN == msg.sender */\n      0xffffffffffffffffffffffffffffffffffffffff\n      and\n        /* \"contracts/Gym_Contact.sol\":1425:1430  ADMIN */\n      immutable(\"0x731dc163f73d31d8c68f9917ce4ff967753939f70432973c04fd2c2a48148607\")\n        /* \"contracts/Gym_Contact.sol\":1425:1444  ADMIN == msg.sender */\n      0xffffffffffffffffffffffffffffffffffffffff\n      and\n      eq\n        /* \"contracts/Gym_Contact.sol\":1417:1500  require(ADMIN == msg.sender, \"Solo el Administrador del Gym puede eliminar clases\") */\n      tag_113\n      jumpi\n      mload(0x40)\n      0x08c379a000000000000000000000000000000000000000000000000000000000\n      dup2\n      mstore\n      0x04\n      add\n      tag_114\n      swap1\n      tag_115\n      jump\t// in\n    tag_114:\n      mload(0x40)\n      dup1\n      swap2\n      sub\n      swap1\n      revert\n    tag_113:\n        /* \"contracts/Gym_Contact.sol\":1518:1523  class */\n      0x01\n        /* \"contracts/Gym_Contact.sol\":1524:1530  _index */\n      dup2\n        /* \"contracts/Gym_Contact.sol\":1518:1531  class[_index] */\n      dup2\n      sload\n      dup2\n      lt\n      tag_116\n      jumpi\n      tag_117\n      tag_76\n      jump\t// in\n    tag_117:\n    tag_116:\n      swap1\n      0x00\n      mstore\n      keccak256(0x00, 0x20)\n      swap1\n      0x02\n      mul\n      add\n      0x00\n        /* \"contracts/Gym_Contact.sol\":1511:1531  delete class[_index] */\n      dup1\n      dup3\n      add\n      0x00\n      tag_119\n      swap2\n      swap1\n      tag_120\n      jump\t// in\n    tag_119:\n      0x01\n      dup3\n      add\n      0x00\n      swap1\n      sstore\n      pop\n      pop\n        /* \"contracts/Gym_Contact.sol\":1365:1539  function removeClass(uint _index) public {\r... */\n      pop\n      jump\t// out\n        /* \"contracts/Gym_Contact.sol\":2351:2596  function takeClass(uint _index) public {\r... */\n    tag_54:\n        /* \"contracts/Gym_Contact.sol\":2401:2420  Class storage clase */\n      0x00\n        /* \"contracts/Gym_Contact.sol\":2423:2428  class */\n      0x01\n        /* \"contracts/Gym_Contact.sol\":2429:2435  _index */\n      dup3\n        /* \"contracts/Gym_Contact.sol\":2423:2436  class[_index] */\n      dup2\n      sload\n      dup2\n      lt\n      tag_122\n      jumpi\n      tag_123\n      tag_76\n      jump\t// in\n    tag_123:\n    tag_122:\n      swap1\n      0x00\n      mstore\n      keccak256(0x00, 0x20)\n      swap1\n      0x02\n      mul\n      add\n        /* \"contracts/Gym_Contact.sol\":2401:2436  Class storage clase = class[_index] */\n      swap1\n      pop\n        /* \"contracts/Gym_Contact.sol\":2476:2481  clase */\n      dup1\n        /* \"contracts/Gym_Contact.sol\":2476:2487  clase.value */\n      0x01\n      add\n      sload\n        /* \"contracts/Gym_Contact.sol\":2455:2460  users */\n      0x00\n        /* \"contracts/Gym_Contact.sol\":2455:2472  users[msg.sender] */\n      dup1\n        /* \"contracts/Gym_Contact.sol\":2461:2471  msg.sender */\n      caller\n        /* \"contracts/Gym_Contact.sol\":2455:2472  users[msg.sender] */\n      0xffffffffffffffffffffffffffffffffffffffff\n      and\n      0xffffffffffffffffffffffffffffffffffffffff\n      and\n      dup2\n      mstore\n      0x20\n      add\n      swap1\n      dup2\n      mstore\n      0x20\n      add\n      0x00\n      keccak256\n      sload\n        /* \"contracts/Gym_Contact.sol\":2455:2487  users[msg.sender] >= clase.value */\n      lt\n      iszero\n        /* \"contracts/Gym_Contact.sol\":2447:2522  require(users[msg.sender] >= clase.value, \"No tienes creditos suficientes\") */\n      tag_125\n      jumpi\n      mload(0x40)\n      0x08c379a000000000000000000000000000000000000000000000000000000000\n      dup2\n      mstore\n      0x04\n      add\n      tag_126\n      swap1\n      tag_127\n      jump\t// in\n    tag_126:\n      mload(0x40)\n      dup1\n      swap2\n      sub\n      swap1\n      revert\n    tag_125:\n        /* \"contracts/Gym_Contact.sol\":2554:2559  clase */\n      dup1\n        /* \"contracts/Gym_Contact.sol\":2554:2565  clase.value */\n      0x01\n      add\n      sload\n        /* \"contracts/Gym_Contact.sol\":2533:2538  users */\n      0x00\n        /* \"contracts/Gym_Contact.sol\":2533:2550  users[msg.sender] */\n      dup1\n        /* \"contracts/Gym_Contact.sol\":2539:2549  msg.sender */\n      caller\n        /* \"contracts/Gym_Contact.sol\":2533:2550  users[msg.sender] */\n      0xffffffffffffffffffffffffffffffffffffffff\n      and\n      0xffffffffffffffffffffffffffffffffffffffff\n      and\n      dup2\n      mstore\n      0x20\n      add\n      swap1\n      dup2\n      mstore\n      0x20\n      add\n      0x00\n      keccak256\n      0x00\n        /* \"contracts/Gym_Contact.sol\":2533:2565  users[msg.sender] -= clase.value */\n      dup3\n      dup3\n      sload\n      tag_128\n      swap2\n      swap1\n      tag_129\n      jump\t// in\n    tag_128:\n      swap3\n      pop\n      pop\n      dup2\n      swap1\n      sstore\n      pop\n        /* \"contracts/Gym_Contact.sol\":2576:2588  getBalance() */\n      tag_130\n        /* \"contracts/Gym_Contact.sol\":2576:2586  getBalance */\n      tag_17\n        /* \"contracts/Gym_Contact.sol\":2576:2588  getBalance() */\n      jump\t// in\n    tag_130:\n      pop\n      pop\n        /* \"contracts/Gym_Contact.sol\":2390:2596  {\r... */\n      pop\n        /* \"contracts/Gym_Contact.sol\":2351:2596  function takeClass(uint _index) public {\r... */\n      pop\n      jump\t// out\n        /* \"contracts/Gym_Contact.sol\":506:543  mapping(address => uint) public users */\n    tag_58:\n      mstore(0x20, 0x00)\n      dup1\n      0x00\n      mstore\n      keccak256(0x00, 0x40)\n      0x00\n      swap2\n      pop\n      swap1\n      pop\n      sload\n      dup2\n      jump\t// out\n        /* \"contracts/Gym_Contact.sol\":2721:2986  function transferCredits(uint _value, address _address) public {\r... */\n    tag_64:\n        /* \"contracts/Gym_Contact.sol\":2824:2830  _value */\n      dup2\n        /* \"contracts/Gym_Contact.sol\":2803:2808  users */\n      0x00\n        /* \"contracts/Gym_Contact.sol\":2803:2820  users[msg.sender] */\n      dup1\n        /* \"contracts/Gym_Contact.sol\":2809:2819  msg.sender */\n      caller\n        /* \"contracts/Gym_Contact.sol\":2803:2820  users[msg.sender] */\n      0xffffffffffffffffffffffffffffffffffffffff\n      and\n      0xffffffffffffffffffffffffffffffffffffffff\n      and\n      dup2\n      mstore\n      0x20\n      add\n      swap1\n      dup2\n      mstore\n      0x20\n      add\n      0x00\n      keccak256\n      sload\n        /* \"contracts/Gym_Contact.sol\":2803:2830  users[msg.sender] >= _value */\n      lt\n      iszero\n        /* \"contracts/Gym_Contact.sol\":2795:2881  require(users[msg.sender] >= _value, \"No tienes creditos suficientes para transferir\") */\n      tag_132\n      jumpi\n      mload(0x40)\n      0x08c379a000000000000000000000000000000000000000000000000000000000\n      dup2\n      mstore\n      0x04\n      add\n      tag_133\n      swap1\n      tag_134\n      jump\t// in\n    tag_133:\n      mload(0x40)\n      dup1\n      swap2\n      sub\n      swap1\n      revert\n    tag_132:\n        /* \"contracts/Gym_Contact.sol\":2913:2919  _value */\n      dup2\n        /* \"contracts/Gym_Contact.sol\":2892:2897  users */\n      0x00\n        /* \"contracts/Gym_Contact.sol\":2892:2909  users[msg.sender] */\n      dup1\n        /* \"contracts/Gym_Contact.sol\":2898:2908  msg.sender */\n      caller\n        /* \"contracts/Gym_Contact.sol\":2892:2909  users[msg.sender] */\n      0xffffffffffffffffffffffffffffffffffffffff\n      and\n      0xffffffffffffffffffffffffffffffffffffffff\n      and\n      dup2\n      mstore\n      0x20\n      add\n      swap1\n      dup2\n      mstore\n      0x20\n      add\n      0x00\n      keccak256\n      0x00\n        /* \"contracts/Gym_Contact.sol\":2892:2919  users[msg.sender] -= _value */\n      dup3\n      dup3\n      sload\n      tag_135\n      swap2\n      swap1\n      tag_129\n      jump\t// in\n    tag_135:\n      swap3\n      pop\n      pop\n      dup2\n      swap1\n      sstore\n      pop\n        /* \"contracts/Gym_Contact.sol\":2949:2955  _value */\n      dup2\n        /* \"contracts/Gym_Contact.sol\":2930:2935  users */\n      0x00\n        /* \"contracts/Gym_Contact.sol\":2930:2945  users[_address] */\n      dup1\n        /* \"contracts/Gym_Contact.sol\":2936:2944  _address */\n      dup4\n        /* \"contracts/Gym_Contact.sol\":2930:2945  users[_address] */\n      0xffffffffffffffffffffffffffffffffffffffff\n      and\n      0xffffffffffffffffffffffffffffffffffffffff\n      and\n      dup2\n      mstore\n      0x20\n      add\n      swap1\n      dup2\n      mstore\n      0x20\n      add\n      0x00\n      keccak256\n      0x00\n        /* \"contracts/Gym_Contact.sol\":2930:2955  users[_address] += _value */\n      dup3\n      dup3\n      sload\n      tag_136\n      swap2\n      swap1\n      tag_68\n      jump\t// in\n    tag_136:\n      swap3\n      pop\n      pop\n      dup2\n      swap1\n      sstore\n      pop\n        /* \"contracts/Gym_Contact.sol\":2966:2978  getBalance() */\n      tag_137\n        /* \"contracts/Gym_Contact.sol\":2966:2976  getBalance */\n      tag_17\n        /* \"contracts/Gym_Contact.sol\":2966:2978  getBalance() */\n      jump\t// in\n    tag_137:\n      pop\n      pop\n        /* \"contracts/Gym_Contact.sol\":2721:2986  function transferCredits(uint _value, address _address) public {\r... */\n      pop\n      pop\n      jump\t// out\n    tag_79:\n      dup3\n      dup1\n      sload\n      tag_138\n      swap1\n      tag_83\n      jump\t// in\n    tag_138:\n      swap1\n      0x00\n      mstore\n      keccak256(0x00, 0x20)\n      swap1\n      0x1f\n      add\n      0x20\n      swap1\n      div\n      dup2\n      add\n      swap3\n      dup3\n      tag_140\n      jumpi\n      0x00\n      dup6\n      sstore\n      jump(tag_139)\n    tag_140:\n      dup3\n      0x1f\n      lt\n      tag_141\n      jumpi\n      dup1\n      mload\n      not(0xff)\n      and\n      dup4\n      dup1\n      add\n      or\n      dup6\n      sstore\n      jump(tag_139)\n    tag_141:\n      dup3\n      dup1\n      add\n      0x01\n      add\n      dup6\n      sstore\n      dup3\n      iszero\n      tag_139\n      jumpi\n      swap2\n      dup3\n      add\n    tag_142:\n      dup3\n      dup2\n      gt\n      iszero\n      tag_143\n      jumpi\n      dup3\n      mload\n      dup3\n      sstore\n      swap2\n      0x20\n      add\n      swap2\n      swap1\n      0x01\n      add\n      swap1\n      jump(tag_142)\n    tag_143:\n    tag_139:\n      pop\n      swap1\n      pop\n      tag_144\n      swap2\n      swap1\n      tag_145\n      jump\t// in\n    tag_144:\n      pop\n      swap1\n      jump\t// out\n    tag_120:\n      pop\n      dup1\n      sload\n      tag_146\n      swap1\n      tag_83\n      jump\t// in\n    tag_146:\n      0x00\n      dup3\n      sstore\n      dup1\n      0x1f\n      lt\n      tag_148\n      jumpi\n      pop\n      jump(tag_147)\n    tag_148:\n      0x1f\n      add\n      0x20\n      swap1\n      div\n      swap1\n      0x00\n      mstore\n      keccak256(0x00, 0x20)\n      swap1\n      dup2\n      add\n      swap1\n      tag_149\n      swap2\n      swap1\n      tag_145\n      jump\t// in\n    tag_149:\n    tag_147:\n      pop\n      jump\t// out\n    tag_145:\n    tag_150:\n      dup1\n      dup3\n      gt\n      iszero\n      tag_151\n      jumpi\n      0x00\n      dup2\n      0x00\n      swap1\n      sstore\n      pop\n      0x01\n      add\n      jump(tag_150)\n    tag_151:\n      pop\n      swap1\n      jump\t// out\n        /* \"#utility.yul\":7:419   */\n    tag_153:\n        /* \"#utility.yul\":85:90   */\n      0x00\n        /* \"#utility.yul\":110:176   */\n      tag_155\n        /* \"#utility.yul\":126:175   */\n      tag_156\n        /* \"#utility.yul\":168:174   */\n      dup5\n        /* \"#utility.yul\":126:175   */\n      tag_157\n      jump\t// in\n    tag_156:\n        /* \"#utility.yul\":110:176   */\n      tag_158\n      jump\t// in\n    tag_155:\n        /* \"#utility.yul\":101:176   */\n      swap1\n      pop\n        /* \"#utility.yul\":199:205   */\n      dup3\n        /* \"#utility.yul\":192:197   */\n      dup2\n        /* \"#utility.yul\":185:206   */\n      mstore\n        /* \"#utility.yul\":237:241   */\n      0x20\n        /* \"#utility.yul\":230:235   */\n      dup2\n        /* \"#utility.yul\":226:242   */\n      add\n        /* \"#utility.yul\":275:278   */\n      dup5\n        /* \"#utility.yul\":266:272   */\n      dup5\n        /* \"#utility.yul\":261:264   */\n      dup5\n        /* \"#utility.yul\":257:273   */\n      add\n        /* \"#utility.yul\":254:279   */\n      gt\n        /* \"#utility.yul\":251:363   */\n      iszero\n      tag_159\n      jumpi\n        /* \"#utility.yul\":282:361   */\n      tag_160\n      tag_161\n      jump\t// in\n    tag_160:\n        /* \"#utility.yul\":251:363   */\n    tag_159:\n        /* \"#utility.yul\":372:413   */\n      tag_162\n        /* \"#utility.yul\":406:412   */\n      dup5\n        /* \"#utility.yul\":401:404   */\n      dup3\n        /* \"#utility.yul\":396:399   */\n      dup6\n        /* \"#utility.yul\":372:413   */\n      tag_163\n      jump\t// in\n    tag_162:\n        /* \"#utility.yul\":91:419   */\n      pop\n        /* \"#utility.yul\":7:419   */\n      swap4\n      swap3\n      pop\n      pop\n      pop\n      jump\t// out\n        /* \"#utility.yul\":425:564   */\n    tag_164:\n        /* \"#utility.yul\":471:476   */\n      0x00\n        /* \"#utility.yul\":509:515   */\n      dup2\n        /* \"#utility.yul\":496:516   */\n      calldataload\n        /* \"#utility.yul\":487:516   */\n      swap1\n      pop\n        /* \"#utility.yul\":525:558   */\n      tag_166\n        /* \"#utility.yul\":552:557   */\n      dup2\n        /* \"#utility.yul\":525:558   */\n      tag_167\n      jump\t// in\n    tag_166:\n        /* \"#utility.yul\":425:564   */\n      swap3\n      swap2\n      pop\n      pop\n      jump\t// out\n        /* \"#utility.yul\":584:924   */\n    tag_168:\n        /* \"#utility.yul\":640:645   */\n      0x00\n        /* \"#utility.yul\":689:692   */\n      dup3\n        /* \"#utility.yul\":682:686   */\n      0x1f\n        /* \"#utility.yul\":674:680   */\n      dup4\n        /* \"#utility.yul\":670:687   */\n      add\n        /* \"#utility.yul\":666:693   */\n      slt\n        /* \"#utility.yul\":656:778   */\n      tag_170\n      jumpi\n        /* \"#utility.yul\":697:776   */\n      tag_171\n      tag_172\n      jump\t// in\n    tag_171:\n        /* \"#utility.yul\":656:778   */\n    tag_170:\n        /* \"#utility.yul\":814:820   */\n      dup2\n        /* \"#utility.yul\":801:821   */\n      calldataload\n        /* \"#utility.yul\":839:918   */\n      tag_173\n        /* \"#utility.yul\":914:917   */\n      dup5\n        /* \"#utility.yul\":906:912   */\n      dup3\n        /* \"#utility.yul\":899:903   */\n      0x20\n        /* \"#utility.yul\":891:897   */\n      dup7\n        /* \"#utility.yul\":887:904   */\n      add\n        /* \"#utility.yul\":839:918   */\n      tag_153\n      jump\t// in\n    tag_173:\n        /* \"#utility.yul\":830:918   */\n      swap2\n      pop\n        /* \"#utility.yul\":646:924   */\n      pop\n        /* \"#utility.yul\":584:924   */\n      swap3\n      swap2\n      pop\n      pop\n      jump\t// out\n        /* \"#utility.yul\":930:1069   */\n    tag_174:\n        /* \"#utility.yul\":976:981   */\n      0x00\n        /* \"#utility.yul\":1014:1020   */\n      dup2\n        /* \"#utility.yul\":1001:1021   */\n      calldataload\n        /* \"#utility.yul\":992:1021   */\n      swap1\n      pop\n        /* \"#utility.yul\":1030:1063   */\n      tag_176\n        /* \"#utility.yul\":1057:1062   */\n      dup2\n        /* \"#utility.yul\":1030:1063   */\n      tag_177\n      jump\t// in\n    tag_176:\n        /* \"#utility.yul\":930:1069   */\n      swap3\n      swap2\n      pop\n      pop\n      jump\t// out\n        /* \"#utility.yul\":1075:1404   */\n    tag_57:\n        /* \"#utility.yul\":1134:1140   */\n      0x00\n        /* \"#utility.yul\":1183:1185   */\n      0x20\n        /* \"#utility.yul\":1171:1180   */\n      dup3\n        /* \"#utility.yul\":1162:1169   */\n      dup5\n        /* \"#utility.yul\":1158:1181   */\n      sub\n        /* \"#utility.yul\":1154:1186   */\n      slt\n        /* \"#utility.yul\":1151:1270   */\n      iszero\n      tag_179\n      jumpi\n        /* \"#utility.yul\":1189:1268   */\n      tag_180\n      tag_181\n      jump\t// in\n    tag_180:\n        /* \"#utility.yul\":1151:1270   */\n    tag_179:\n        /* \"#utility.yul\":1309:1310   */\n      0x00\n        /* \"#utility.yul\":1334:1387   */\n      tag_182\n        /* \"#utility.yul\":1379:1386   */\n      dup5\n        /* \"#utility.yul\":1370:1376   */\n      dup3\n        /* \"#utility.yul\":1359:1368   */\n      dup6\n        /* \"#utility.yul\":1355:1377   */\n      add\n        /* \"#utility.yul\":1334:1387   */\n      tag_164\n      jump\t// in\n    tag_182:\n        /* \"#utility.yul\":1324:1387   */\n      swap2\n      pop\n        /* \"#utility.yul\":1280:1397   */\n      pop\n        /* \"#utility.yul\":1075:1404   */\n      swap3\n      swap2\n      pop\n      pop\n      jump\t// out\n        /* \"#utility.yul\":1410:1884   */\n    tag_47:\n        /* \"#utility.yul\":1478:1484   */\n      0x00\n        /* \"#utility.yul\":1486:1492   */\n      dup1\n        /* \"#utility.yul\":1535:1537   */\n      0x40\n        /* \"#utility.yul\":1523:1532   */\n      dup4\n        /* \"#utility.yul\":1514:1521   */\n      dup6\n        /* \"#utility.yul\":1510:1533   */\n      sub\n        /* \"#utility.yul\":1506:1538   */\n      slt\n        /* \"#utility.yul\":1503:1622   */\n      iszero\n      tag_184\n      jumpi\n        /* \"#utility.yul\":1541:1620   */\n      tag_185\n      tag_181\n      jump\t// in\n    tag_185:\n        /* \"#utility.yul\":1503:1622   */\n    tag_184:\n        /* \"#utility.yul\":1661:1662   */\n      0x00\n        /* \"#utility.yul\":1686:1739   */\n      tag_186\n        /* \"#utility.yul\":1731:1738   */\n      dup6\n        /* \"#utility.yul\":1722:1728   */\n      dup3\n        /* \"#utility.yul\":1711:1720   */\n      dup7\n        /* \"#utility.yul\":1707:1729   */\n      add\n        /* \"#utility.yul\":1686:1739   */\n      tag_164\n      jump\t// in\n    tag_186:\n        /* \"#utility.yul\":1676:1739   */\n      swap3\n      pop\n        /* \"#utility.yul\":1632:1749   */\n      pop\n        /* \"#utility.yul\":1788:1790   */\n      0x20\n        /* \"#utility.yul\":1814:1867   */\n      tag_187\n        /* \"#utility.yul\":1859:1866   */\n      dup6\n        /* \"#utility.yul\":1850:1856   */\n      dup3\n        /* \"#utility.yul\":1839:1848   */\n      dup7\n        /* \"#utility.yul\":1835:1857   */\n      add\n        /* \"#utility.yul\":1814:1867   */\n      tag_174\n      jump\t// in\n    tag_187:\n        /* \"#utility.yul\":1804:1867   */\n      swap2\n      pop\n        /* \"#utility.yul\":1759:1877   */\n      pop\n        /* \"#utility.yul\":1410:1884   */\n      swap3\n      pop\n      swap3\n      swap1\n      pop\n      jump\t// out\n        /* \"#utility.yul\":1890:2544   */\n    tag_39:\n        /* \"#utility.yul\":1968:1974   */\n      0x00\n        /* \"#utility.yul\":1976:1982   */\n      dup1\n        /* \"#utility.yul\":2025:2027   */\n      0x40\n        /* \"#utility.yul\":2013:2022   */\n      dup4\n        /* \"#utility.yul\":2004:2011   */\n      dup6\n        /* \"#utility.yul\":2000:2023   */\n      sub\n        /* \"#utility.yul\":1996:2028   */\n      slt\n        /* \"#utility.yul\":1993:2112   */\n      iszero\n      tag_189\n      jumpi\n        /* \"#utility.yul\":2031:2110   */\n      tag_190\n      tag_181\n      jump\t// in\n    tag_190:\n        /* \"#utility.yul\":1993:2112   */\n    tag_189:\n        /* \"#utility.yul\":2179:2180   */\n      0x00\n        /* \"#utility.yul\":2168:2177   */\n      dup4\n        /* \"#utility.yul\":2164:2181   */\n      add\n        /* \"#utility.yul\":2151:2182   */\n      calldataload\n        /* \"#utility.yul\":2209:2227   */\n      0xffffffffffffffff\n        /* \"#utility.yul\":2201:2207   */\n      dup2\n        /* \"#utility.yul\":2198:2228   */\n      gt\n        /* \"#utility.yul\":2195:2312   */\n      iszero\n      tag_191\n      jumpi\n        /* \"#utility.yul\":2231:2310   */\n      tag_192\n      tag_193\n      jump\t// in\n    tag_192:\n        /* \"#utility.yul\":2195:2312   */\n    tag_191:\n        /* \"#utility.yul\":2336:2399   */\n      tag_194\n        /* \"#utility.yul\":2391:2398   */\n      dup6\n        /* \"#utility.yul\":2382:2388   */\n      dup3\n        /* \"#utility.yul\":2371:2380   */\n      dup7\n        /* \"#utility.yul\":2367:2389   */\n      add\n        /* \"#utility.yul\":2336:2399   */\n      tag_168\n      jump\t// in\n    tag_194:\n        /* \"#utility.yul\":2326:2399   */\n      swap3\n      pop\n        /* \"#utility.yul\":2122:2409   */\n      pop\n        /* \"#utility.yul\":2448:2450   */\n      0x20\n        /* \"#utility.yul\":2474:2527   */\n      tag_195\n        /* \"#utility.yul\":2519:2526   */\n      dup6\n        /* \"#utility.yul\":2510:2516   */\n      dup3\n        /* \"#utility.yul\":2499:2508   */\n      dup7\n        /* \"#utility.yul\":2495:2517   */\n      add\n        /* \"#utility.yul\":2474:2527   */\n      tag_174\n      jump\t// in\n    tag_195:\n        /* \"#utility.yul\":2464:2527   */\n      swap2\n      pop\n        /* \"#utility.yul\":2419:2537   */\n      pop\n        /* \"#utility.yul\":1890:2544   */\n      swap3\n      pop\n      swap3\n      swap1\n      pop\n      jump\t// out\n        /* \"#utility.yul\":2550:2879   */\n    tag_22:\n        /* \"#utility.yul\":2609:2615   */\n      0x00\n        /* \"#utility.yul\":2658:2660   */\n      0x20\n        /* \"#utility.yul\":2646:2655   */\n      dup3\n        /* \"#utility.yul\":2637:2644   */\n      dup5\n        /* \"#utility.yul\":2633:2656   */\n      sub\n        /* \"#utility.yul\":2629:2661   */\n      slt\n        /* \"#utility.yul\":2626:2745   */\n      iszero\n      tag_197\n      jumpi\n        /* \"#utility.yul\":2664:2743   */\n      tag_198\n      tag_181\n      jump\t// in\n    tag_198:\n        /* \"#utility.yul\":2626:2745   */\n    tag_197:\n        /* \"#utility.yul\":2784:2785   */\n      0x00\n        /* \"#utility.yul\":2809:2862   */\n      tag_199\n        /* \"#utility.yul\":2854:2861   */\n      dup5\n        /* \"#utility.yul\":2845:2851   */\n      dup3\n        /* \"#utility.yul\":2834:2843   */\n      dup6\n        /* \"#utility.yul\":2830:2852   */\n      add\n        /* \"#utility.yul\":2809:2862   */\n      tag_174\n      jump\t// in\n    tag_199:\n        /* \"#utility.yul\":2799:2862   */\n      swap2\n      pop\n        /* \"#utility.yul\":2755:2872   */\n      pop\n        /* \"#utility.yul\":2550:2879   */\n      swap3\n      swap2\n      pop\n      pop\n      jump\t// out\n        /* \"#utility.yul\":2885:3359   */\n    tag_63:\n        /* \"#utility.yul\":2953:2959   */\n      0x00\n        /* \"#utility.yul\":2961:2967   */\n      dup1\n        /* \"#utility.yul\":3010:3012   */\n      0x40\n        /* \"#utility.yul\":2998:3007   */\n      dup4\n        /* \"#utility.yul\":2989:2996   */\n      dup6\n        /* \"#utility.yul\":2985:3008   */\n      sub\n        /* \"#utility.yul\":2981:3013   */\n      slt\n        /* \"#utility.yul\":2978:3097   */\n      iszero\n      tag_201\n      jumpi\n        /* \"#utility.yul\":3016:3095   */\n      tag_202\n      tag_181\n      jump\t// in\n    tag_202:\n        /* \"#utility.yul\":2978:3097   */\n    tag_201:\n        /* \"#utility.yul\":3136:3137   */\n      0x00\n        /* \"#utility.yul\":3161:3214   */\n      tag_203\n        /* \"#utility.yul\":3206:3213   */\n      dup6\n        /* \"#utility.yul\":3197:3203   */\n      dup3\n        /* \"#utility.yul\":3186:3195   */\n      dup7\n        /* \"#utility.yul\":3182:3204   */\n      add\n        /* \"#utility.yul\":3161:3214   */\n      tag_174\n      jump\t// in\n    tag_203:\n        /* \"#utility.yul\":3151:3214   */\n      swap3\n      pop\n        /* \"#utility.yul\":3107:3224   */\n      pop\n        /* \"#utility.yul\":3263:3265   */\n      0x20\n        /* \"#utility.yul\":3289:3342   */\n      tag_204\n        /* \"#utility.yul\":3334:3341   */\n      dup6\n        /* \"#utility.yul\":3325:3331   */\n      dup3\n        /* \"#utility.yul\":3314:3323   */\n      dup7\n        /* \"#utility.yul\":3310:3332   */\n      add\n        /* \"#utility.yul\":3289:3342   */\n      tag_164\n      jump\t// in\n    tag_204:\n        /* \"#utility.yul\":3279:3342   */\n      swap2\n      pop\n        /* \"#utility.yul\":3234:3352   */\n      pop\n        /* \"#utility.yul\":2885:3359   */\n      swap3\n      pop\n      swap3\n      swap1\n      pop\n      jump\t// out\n        /* \"#utility.yul\":3365:4164   */\n    tag_26:\n        /* \"#utility.yul\":3452:3458   */\n      0x00\n        /* \"#utility.yul\":3460:3466   */\n      dup1\n        /* \"#utility.yul\":3468:3474   */\n      0x00\n        /* \"#utility.yul\":3517:3519   */\n      0x60\n        /* \"#utility.yul\":3505:3514   */\n      dup5\n        /* \"#utility.yul\":3496:3503   */\n      dup7\n        /* \"#utility.yul\":3492:3515   */\n      sub\n        /* \"#utility.yul\":3488:3520   */\n      slt\n        /* \"#utility.yul\":3485:3604   */\n      iszero\n      tag_206\n      jumpi\n        /* \"#utility.yul\":3523:3602   */\n      tag_207\n      tag_181\n      jump\t// in\n    tag_207:\n        /* \"#utility.yul\":3485:3604   */\n    tag_206:\n        /* \"#utility.yul\":3643:3644   */\n      0x00\n        /* \"#utility.yul\":3668:3721   */\n      tag_208\n        /* \"#utility.yul\":3713:3720   */\n      dup7\n        /* \"#utility.yul\":3704:3710   */\n      dup3\n        /* \"#utility.yul\":3693:3702   */\n      dup8\n        /* \"#utility.yul\":3689:3711   */\n      add\n        /* \"#utility.yul\":3668:3721   */\n      tag_174\n      jump\t// in\n    tag_208:\n        /* \"#utility.yul\":3658:3721   */\n      swap4\n      pop\n        /* \"#utility.yul\":3614:3731   */\n      pop\n        /* \"#utility.yul\":3798:3800   */\n      0x20\n        /* \"#utility.yul\":3787:3796   */\n      dup5\n        /* \"#utility.yul\":3783:3801   */\n      add\n        /* \"#utility.yul\":3770:3802   */\n      calldataload\n        /* \"#utility.yul\":3829:3847   */\n      0xffffffffffffffff\n        /* \"#utility.yul\":3821:3827   */\n      dup2\n        /* \"#utility.yul\":3818:3848   */\n      gt\n        /* \"#utility.yul\":3815:3932   */\n      iszero\n      tag_209\n      jumpi\n        /* \"#utility.yul\":3851:3930   */\n      tag_210\n      tag_193\n      jump\t// in\n    tag_210:\n        /* \"#utility.yul\":3815:3932   */\n    tag_209:\n        /* \"#utility.yul\":3956:4019   */\n      tag_211\n        /* \"#utility.yul\":4011:4018   */\n      dup7\n        /* \"#utility.yul\":4002:4008   */\n      dup3\n        /* \"#utility.yul\":3991:4000   */\n      dup8\n        /* \"#utility.yul\":3987:4009   */\n      add\n        /* \"#utility.yul\":3956:4019   */\n      tag_168\n      jump\t// in\n    tag_211:\n        /* \"#utility.yul\":3946:4019   */\n      swap3\n      pop\n        /* \"#utility.yul\":3741:4029   */\n      pop\n        /* \"#utility.yul\":4068:4070   */\n      0x40\n        /* \"#utility.yul\":4094:4147   */\n      tag_212\n        /* \"#utility.yul\":4139:4146   */\n      dup7\n        /* \"#utility.yul\":4130:4136   */\n      dup3\n        /* \"#utility.yul\":4119:4128   */\n      dup8\n        /* \"#utility.yul\":4115:4137   */\n      add\n        /* \"#utility.yul\":4094:4147   */\n      tag_174\n      jump\t// in\n    tag_212:\n        /* \"#utility.yul\":4084:4147   */\n      swap2\n      pop\n        /* \"#utility.yul\":4039:4157   */\n      pop\n        /* \"#utility.yul\":3365:4164   */\n      swap3\n      pop\n      swap3\n      pop\n      swap3\n      jump\t// out\n        /* \"#utility.yul\":4170:4288   */\n    tag_213:\n        /* \"#utility.yul\":4257:4281   */\n      tag_215\n        /* \"#utility.yul\":4275:4280   */\n      dup2\n        /* \"#utility.yul\":4257:4281   */\n      tag_216\n      jump\t// in\n    tag_215:\n        /* \"#utility.yul\":4252:4255   */\n      dup3\n        /* \"#utility.yul\":4245:4282   */\n      mstore\n        /* \"#utility.yul\":4170:4288   */\n      pop\n      pop\n      jump\t// out\n        /* \"#utility.yul\":4294:4658   */\n    tag_217:\n        /* \"#utility.yul\":4382:4385   */\n      0x00\n        /* \"#utility.yul\":4410:4449   */\n      tag_219\n        /* \"#utility.yul\":4443:4448   */\n      dup3\n        /* \"#utility.yul\":4410:4449   */\n      tag_220\n      jump\t// in\n    tag_219:\n        /* \"#utility.yul\":4465:4536   */\n      tag_221\n        /* \"#utility.yul\":4529:4535   */\n      dup2\n        /* \"#utility.yul\":4524:4527   */\n      dup6\n        /* \"#utility.yul\":4465:4536   */\n      tag_222\n      jump\t// in\n    tag_221:\n        /* \"#utility.yul\":4458:4536   */\n      swap4\n      pop\n        /* \"#utility.yul\":4545:4597   */\n      tag_223\n        /* \"#utility.yul\":4590:4596   */\n      dup2\n        /* \"#utility.yul\":4585:4588   */\n      dup6\n        /* \"#utility.yul\":4578:4582   */\n      0x20\n        /* \"#utility.yul\":4571:4576   */\n      dup7\n        /* \"#utility.yul\":4567:4583   */\n      add\n        /* \"#utility.yul\":4545:4597   */\n      tag_224\n      jump\t// in\n    tag_223:\n        /* \"#utility.yul\":4622:4651   */\n      tag_225\n        /* \"#utility.yul\":4644:4650   */\n      dup2\n        /* \"#utility.yul\":4622:4651   */\n      tag_226\n      jump\t// in\n    tag_225:\n        /* \"#utility.yul\":4617:4620   */\n      dup5\n        /* \"#utility.yul\":4613:4652   */\n      add\n        /* \"#utility.yul\":4606:4652   */\n      swap2\n      pop\n        /* \"#utility.yul\":4386:4658   */\n      pop\n        /* \"#utility.yul\":4294:4658   */\n      swap3\n      swap2\n      pop\n      pop\n      jump\t// out\n        /* \"#utility.yul\":4664:5030   */\n    tag_227:\n        /* \"#utility.yul\":4806:4809   */\n      0x00\n        /* \"#utility.yul\":4827:4894   */\n      tag_229\n        /* \"#utility.yul\":4891:4893   */\n      0x34\n        /* \"#utility.yul\":4886:4889   */\n      dup4\n        /* \"#utility.yul\":4827:4894   */\n      tag_222\n      jump\t// in\n    tag_229:\n        /* \"#utility.yul\":4820:4894   */\n      swap2\n      pop\n        /* \"#utility.yul\":4903:4996   */\n      tag_230\n        /* \"#utility.yul\":4992:4995   */\n      dup3\n        /* \"#utility.yul\":4903:4996   */\n      tag_231\n      jump\t// in\n    tag_230:\n        /* \"#utility.yul\":5021:5023   */\n      0x40\n        /* \"#utility.yul\":5016:5019   */\n      dup3\n        /* \"#utility.yul\":5012:5024   */\n      add\n        /* \"#utility.yul\":5005:5024   */\n      swap1\n      pop\n        /* \"#utility.yul\":4664:5030   */\n      swap2\n      swap1\n      pop\n      jump\t// out\n        /* \"#utility.yul\":5036:5402   */\n    tag_232:\n        /* \"#utility.yul\":5178:5181   */\n      0x00\n        /* \"#utility.yul\":5199:5266   */\n      tag_234\n        /* \"#utility.yul\":5263:5265   */\n      0x25\n        /* \"#utility.yul\":5258:5261   */\n      dup4\n        /* \"#utility.yul\":5199:5266   */\n      tag_222\n      jump\t// in\n    tag_234:\n        /* \"#utility.yul\":5192:5266   */\n      swap2\n      pop\n        /* \"#utility.yul\":5275:5368   */\n      tag_235\n        /* \"#utility.yul\":5364:5367   */\n      dup3\n        /* \"#utility.yul\":5275:5368   */\n      tag_236\n      jump\t// in\n    tag_235:\n        /* \"#utility.yul\":5393:5395   */\n      0x40\n        /* \"#utility.yul\":5388:5391   */\n      dup3\n        /* \"#utility.yul\":5384:5396   */\n      add\n        /* \"#utility.yul\":5377:5396   */\n      swap1\n      pop\n        /* \"#utility.yul\":5036:5402   */\n      swap2\n      swap1\n      pop\n      jump\t// out\n        /* \"#utility.yul\":5408:5774   */\n    tag_237:\n        /* \"#utility.yul\":5550:5553   */\n      0x00\n        /* \"#utility.yul\":5571:5638   */\n      tag_239\n        /* \"#utility.yul\":5635:5637   */\n      0x2e\n        /* \"#utility.yul\":5630:5633   */\n      dup4\n        /* \"#utility.yul\":5571:5638   */\n      tag_222\n      jump\t// in\n    tag_239:\n        /* \"#utility.yul\":5564:5638   */\n      swap2\n      pop\n        /* \"#utility.yul\":5647:5740   */\n      tag_240\n        /* \"#utility.yul\":5736:5739   */\n      dup3\n        /* \"#utility.yul\":5647:5740   */\n      tag_241\n      jump\t// in\n    tag_240:\n        /* \"#utility.yul\":5765:5767   */\n      0x40\n        /* \"#utility.yul\":5760:5763   */\n      dup3\n        /* \"#utility.yul\":5756:5768   */\n      add\n        /* \"#utility.yul\":5749:5768   */\n      swap1\n      pop\n        /* \"#utility.yul\":5408:5774   */\n      swap2\n      swap1\n      pop\n      jump\t// out\n        /* \"#utility.yul\":5780:6146   */\n    tag_242:\n        /* \"#utility.yul\":5922:5925   */\n      0x00\n        /* \"#utility.yul\":5943:6010   */\n      tag_244\n        /* \"#utility.yul\":6007:6009   */\n      0x30\n        /* \"#utility.yul\":6002:6005   */\n      dup4\n        /* \"#utility.yul\":5943:6010   */\n      tag_222\n      jump\t// in\n    tag_244:\n        /* \"#utility.yul\":5936:6010   */\n      swap2\n      pop\n        /* \"#utility.yul\":6019:6112   */\n      tag_245\n        /* \"#utility.yul\":6108:6111   */\n      dup3\n        /* \"#utility.yul\":6019:6112   */\n      tag_246\n      jump\t// in\n    tag_245:\n        /* \"#utility.yul\":6137:6139   */\n      0x40\n        /* \"#utility.yul\":6132:6135   */\n      dup3\n        /* \"#utility.yul\":6128:6140   */\n      add\n        /* \"#utility.yul\":6121:6140   */\n      swap1\n      pop\n        /* \"#utility.yul\":5780:6146   */\n      swap2\n      swap1\n      pop\n      jump\t// out\n        /* \"#utility.yul\":6152:6518   */\n    tag_247:\n        /* \"#utility.yul\":6294:6297   */\n      0x00\n        /* \"#utility.yul\":6315:6382   */\n      tag_249\n        /* \"#utility.yul\":6379:6381   */\n      0x1e\n        /* \"#utility.yul\":6374:6377   */\n      dup4\n        /* \"#utility.yul\":6315:6382   */\n      tag_222\n      jump\t// in\n    tag_249:\n        /* \"#utility.yul\":6308:6382   */\n      swap2\n      pop\n        /* \"#utility.yul\":6391:6484   */\n      tag_250\n        /* \"#utility.yul\":6480:6483   */\n      dup3\n        /* \"#utility.yul\":6391:6484   */\n      tag_251\n      jump\t// in\n    tag_250:\n        /* \"#utility.yul\":6509:6511   */\n      0x20\n        /* \"#utility.yul\":6504:6507   */\n      dup3\n        /* \"#utility.yul\":6500:6512   */\n      add\n        /* \"#utility.yul\":6493:6512   */\n      swap1\n      pop\n        /* \"#utility.yul\":6152:6518   */\n      swap2\n      swap1\n      pop\n      jump\t// out\n        /* \"#utility.yul\":6524:6890   */\n    tag_252:\n        /* \"#utility.yul\":6666:6669   */\n      0x00\n        /* \"#utility.yul\":6687:6754   */\n      tag_254\n        /* \"#utility.yul\":6751:6753   */\n      0x33\n        /* \"#utility.yul\":6746:6749   */\n      dup4\n        /* \"#utility.yul\":6687:6754   */\n      tag_222\n      jump\t// in\n    tag_254:\n        /* \"#utility.yul\":6680:6754   */\n      swap2\n      pop\n        /* \"#utility.yul\":6763:6856   */\n      tag_255\n        /* \"#utility.yul\":6852:6855   */\n      dup3\n        /* \"#utility.yul\":6763:6856   */\n      tag_256\n      jump\t// in\n    tag_255:\n        /* \"#utility.yul\":6881:6883   */\n      0x40\n        /* \"#utility.yul\":6876:6879   */\n      dup3\n        /* \"#utility.yul\":6872:6884   */\n      add\n        /* \"#utility.yul\":6865:6884   */\n      swap1\n      pop\n        /* \"#utility.yul\":6524:6890   */\n      swap2\n      swap1\n      pop\n      jump\t// out\n        /* \"#utility.yul\":6896:7262   */\n    tag_257:\n        /* \"#utility.yul\":7038:7041   */\n      0x00\n        /* \"#utility.yul\":7059:7126   */\n      tag_259\n        /* \"#utility.yul\":7123:7125   */\n      0x1e\n        /* \"#utility.yul\":7118:7121   */\n      dup4\n        /* \"#utility.yul\":7059:7126   */\n      tag_222\n      jump\t// in\n    tag_259:\n        /* \"#utility.yul\":7052:7126   */\n      swap2\n      pop\n        /* \"#utility.yul\":7135:7228   */\n      tag_260\n        /* \"#utility.yul\":7224:7227   */\n      dup3\n        /* \"#utility.yul\":7135:7228   */\n      tag_261\n      jump\t// in\n    tag_260:\n        /* \"#utility.yul\":7253:7255   */\n      0x20\n        /* \"#utility.yul\":7248:7251   */\n      dup3\n        /* \"#utility.yul\":7244:7256   */\n      add\n        /* \"#utility.yul\":7237:7256   */\n      swap1\n      pop\n        /* \"#utility.yul\":6896:7262   */\n      swap2\n      swap1\n      pop\n      jump\t// out\n        /* \"#utility.yul\":7268:7386   */\n    tag_262:\n        /* \"#utility.yul\":7355:7379   */\n      tag_264\n        /* \"#utility.yul\":7373:7378   */\n      dup2\n        /* \"#utility.yul\":7355:7379   */\n      tag_265\n      jump\t// in\n    tag_264:\n        /* \"#utility.yul\":7350:7353   */\n      dup3\n        /* \"#utility.yul\":7343:7380   */\n      mstore\n        /* \"#utility.yul\":7268:7386   */\n      pop\n      pop\n      jump\t// out\n        /* \"#utility.yul\":7392:7614   */\n    tag_31:\n        /* \"#utility.yul\":7485:7489   */\n      0x00\n        /* \"#utility.yul\":7523:7525   */\n      0x20\n        /* \"#utility.yul\":7512:7521   */\n      dup3\n        /* \"#utility.yul\":7508:7526   */\n      add\n        /* \"#utility.yul\":7500:7526   */\n      swap1\n      pop\n        /* \"#utility.yul\":7536:7607   */\n      tag_267\n        /* \"#utility.yul\":7604:7605   */\n      0x00\n        /* \"#utility.yul\":7593:7602   */\n      dup4\n        /* \"#utility.yul\":7589:7606   */\n      add\n        /* \"#utility.yul\":7580:7586   */\n      dup5\n        /* \"#utility.yul\":7536:7607   */\n      tag_213\n      jump\t// in\n    tag_267:\n        /* \"#utility.yul\":7392:7614   */\n      swap3\n      swap2\n      pop\n      pop\n      jump\t// out\n        /* \"#utility.yul\":7620:7952   */\n    tag_19:\n        /* \"#utility.yul\":7741:7745   */\n      0x00\n        /* \"#utility.yul\":7779:7781   */\n      0x40\n        /* \"#utility.yul\":7768:7777   */\n      dup3\n        /* \"#utility.yul\":7764:7782   */\n      add\n        /* \"#utility.yul\":7756:7782   */\n      swap1\n      pop\n        /* \"#utility.yul\":7792:7863   */\n      tag_269\n        /* \"#utility.yul\":7860:7861   */\n      0x00\n        /* \"#utility.yul\":7849:7858   */\n      dup4\n        /* \"#utility.yul\":7845:7862   */\n      add\n        /* \"#utility.yul\":7836:7842   */\n      dup6\n        /* \"#utility.yul\":7792:7863   */\n      tag_213\n      jump\t// in\n    tag_269:\n        /* \"#utility.yul\":7873:7945   */\n      tag_270\n        /* \"#utility.yul\":7941:7943   */\n      0x20\n        /* \"#utility.yul\":7930:7939   */\n      dup4\n        /* \"#utility.yul\":7926:7944   */\n      add\n        /* \"#utility.yul\":7917:7923   */\n      dup5\n        /* \"#utility.yul\":7873:7945   */\n      tag_262\n      jump\t// in\n    tag_270:\n        /* \"#utility.yul\":7620:7952   */\n      swap4\n      swap3\n      pop\n      pop\n      pop\n      jump\t// out\n        /* \"#utility.yul\":7958:8381   */\n    tag_36:\n        /* \"#utility.yul\":8099:8103   */\n      0x00\n        /* \"#utility.yul\":8137:8139   */\n      0x40\n        /* \"#utility.yul\":8126:8135   */\n      dup3\n        /* \"#utility.yul\":8122:8140   */\n      add\n        /* \"#utility.yul\":8114:8140   */\n      swap1\n      pop\n        /* \"#utility.yul\":8186:8195   */\n      dup2\n        /* \"#utility.yul\":8180:8184   */\n      dup2\n        /* \"#utility.yul\":8176:8196   */\n      sub\n        /* \"#utility.yul\":8172:8173   */\n      0x00\n        /* \"#utility.yul\":8161:8170   */\n      dup4\n        /* \"#utility.yul\":8157:8174   */\n      add\n        /* \"#utility.yul\":8150:8197   */\n      mstore\n        /* \"#utility.yul\":8214:8292   */\n      tag_272\n        /* \"#utility.yul\":8287:8291   */\n      dup2\n        /* \"#utility.yul\":8278:8284   */\n      dup6\n        /* \"#utility.yul\":8214:8292   */\n      tag_217\n      jump\t// in\n    tag_272:\n        /* \"#utility.yul\":8206:8292   */\n      swap1\n      pop\n        /* \"#utility.yul\":8302:8374   */\n      tag_273\n        /* \"#utility.yul\":8370:8372   */\n      0x20\n        /* \"#utility.yul\":8359:8368   */\n      dup4\n        /* \"#utility.yul\":8355:8373   */\n      add\n        /* \"#utility.yul\":8346:8352   */\n      dup5\n        /* \"#utility.yul\":8302:8374   */\n      tag_262\n      jump\t// in\n    tag_273:\n        /* \"#utility.yul\":7958:8381   */\n      swap4\n      swap3\n      pop\n      pop\n      pop\n      jump\t// out\n        /* \"#utility.yul\":8387:8806   */\n    tag_73:\n        /* \"#utility.yul\":8553:8557   */\n      0x00\n        /* \"#utility.yul\":8591:8593   */\n      0x20\n        /* \"#utility.yul\":8580:8589   */\n      dup3\n        /* \"#utility.yul\":8576:8594   */\n      add\n        /* \"#utility.yul\":8568:8594   */\n      swap1\n      pop\n        /* \"#utility.yul\":8640:8649   */\n      dup2\n        /* \"#utility.yul\":8634:8638   */\n      dup2\n        /* \"#utility.yul\":8630:8650   */\n      sub\n        /* \"#utility.yul\":8626:8627   */\n      0x00\n        /* \"#utility.yul\":8615:8624   */\n      dup4\n        /* \"#utility.yul\":8611:8628   */\n      add\n        /* \"#utility.yul\":8604:8651   */\n      mstore\n        /* \"#utility.yul\":8668:8799   */\n      tag_275\n        /* \"#utility.yul\":8794:8798   */\n      dup2\n        /* \"#utility.yul\":8668:8799   */\n      tag_227\n      jump\t// in\n    tag_275:\n        /* \"#utility.yul\":8660:8799   */\n      swap1\n      pop\n        /* \"#utility.yul\":8387:8806   */\n      swap2\n      swap1\n      pop\n      jump\t// out\n        /* \"#utility.yul\":8812:9231   */\n    tag_110:\n        /* \"#utility.yul\":8978:8982   */\n      0x00\n        /* \"#utility.yul\":9016:9018   */\n      0x20\n        /* \"#utility.yul\":9005:9014   */\n      dup3\n        /* \"#utility.yul\":9001:9019   */\n      add\n        /* \"#utility.yul\":8993:9019   */\n      swap1\n      pop\n        /* \"#utility.yul\":9065:9074   */\n      dup2\n        /* \"#utility.yul\":9059:9063   */\n      dup2\n        /* \"#utility.yul\":9055:9075   */\n      sub\n        /* \"#utility.yul\":9051:9052   */\n      0x00\n        /* \"#utility.yul\":9040:9049   */\n      dup4\n        /* \"#utility.yul\":9036:9053   */\n      add\n        /* \"#utility.yul\":9029:9076   */\n      mstore\n        /* \"#utility.yul\":9093:9224   */\n      tag_277\n        /* \"#utility.yul\":9219:9223   */\n      dup2\n        /* \"#utility.yul\":9093:9224   */\n      tag_232\n      jump\t// in\n    tag_277:\n        /* \"#utility.yul\":9085:9224   */\n      swap1\n      pop\n        /* \"#utility.yul\":8812:9231   */\n      swap2\n      swap1\n      pop\n      jump\t// out\n        /* \"#utility.yul\":9237:9656   */\n    tag_134:\n        /* \"#utility.yul\":9403:9407   */\n      0x00\n        /* \"#utility.yul\":9441:9443   */\n      0x20\n        /* \"#utility.yul\":9430:9439   */\n      dup3\n        /* \"#utility.yul\":9426:9444   */\n      add\n        /* \"#utility.yul\":9418:9444   */\n      swap1\n      pop\n        /* \"#utility.yul\":9490:9499   */\n      dup2\n        /* \"#utility.yul\":9484:9488   */\n      dup2\n        /* \"#utility.yul\":9480:9500   */\n      sub\n        /* \"#utility.yul\":9476:9477   */\n      0x00\n        /* \"#utility.yul\":9465:9474   */\n      dup4\n        /* \"#utility.yul\":9461:9478   */\n      add\n        /* \"#utility.yul\":9454:9501   */\n      mstore\n        /* \"#utility.yul\":9518:9649   */\n      tag_279\n        /* \"#utility.yul\":9644:9648   */\n      dup2\n        /* \"#utility.yul\":9518:9649   */\n      tag_237\n      jump\t// in\n    tag_279:\n        /* \"#utility.yul\":9510:9649   */\n      swap1\n      pop\n        /* \"#utility.yul\":9237:9656   */\n      swap2\n      swap1\n      pop\n      jump\t// out\n        /* \"#utility.yul\":9662:10081   */\n    tag_91:\n        /* \"#utility.yul\":9828:9832   */\n      0x00\n        /* \"#utility.yul\":9866:9868   */\n      0x20\n        /* \"#utility.yul\":9855:9864   */\n      dup3\n        /* \"#utility.yul\":9851:9869   */\n      add\n        /* \"#utility.yul\":9843:9869   */\n      swap1\n      pop\n        /* \"#utility.yul\":9915:9924   */\n      dup2\n        /* \"#utility.yul\":9909:9913   */\n      dup2\n        /* \"#utility.yul\":9905:9925   */\n      sub\n        /* \"#utility.yul\":9901:9902   */\n      0x00\n        /* \"#utility.yul\":9890:9899   */\n      dup4\n        /* \"#utility.yul\":9886:9903   */\n      add\n        /* \"#utility.yul\":9879:9926   */\n      mstore\n        /* \"#utility.yul\":9943:10074   */\n      tag_281\n        /* \"#utility.yul\":10069:10073   */\n      dup2\n        /* \"#utility.yul\":9943:10074   */\n      tag_242\n      jump\t// in\n    tag_281:\n        /* \"#utility.yul\":9935:10074   */\n      swap1\n      pop\n        /* \"#utility.yul\":9662:10081   */\n      swap2\n      swap1\n      pop\n      jump\t// out\n        /* \"#utility.yul\":10087:10506   */\n    tag_127:\n        /* \"#utility.yul\":10253:10257   */\n      0x00\n        /* \"#utility.yul\":10291:10293   */\n      0x20\n        /* \"#utility.yul\":10280:10289   */\n      dup3\n        /* \"#utility.yul\":10276:10294   */\n      add\n        /* \"#utility.yul\":10268:10294   */\n      swap1\n      pop\n        /* \"#utility.yul\":10340:10349   */\n      dup2\n        /* \"#utility.yul\":10334:10338   */\n      dup2\n        /* \"#utility.yul\":10330:10350   */\n      sub\n        /* \"#utility.yul\":10326:10327   */\n      0x00\n        /* \"#utility.yul\":10315:10324   */\n      dup4\n        /* \"#utility.yul\":10311:10328   */\n      add\n        /* \"#utility.yul\":10304:10351   */\n      mstore\n        /* \"#utility.yul\":10368:10499   */\n      tag_283\n        /* \"#utility.yul\":10494:10498   */\n      dup2\n        /* \"#utility.yul\":10368:10499   */\n      tag_247\n      jump\t// in\n    tag_283:\n        /* \"#utility.yul\":10360:10499   */\n      swap1\n      pop\n        /* \"#utility.yul\":10087:10506   */\n      swap2\n      swap1\n      pop\n      jump\t// out\n        /* \"#utility.yul\":10512:10931   */\n    tag_115:\n        /* \"#utility.yul\":10678:10682   */\n      0x00\n        /* \"#utility.yul\":10716:10718   */\n      0x20\n        /* \"#utility.yul\":10705:10714   */\n      dup3\n        /* \"#utility.yul\":10701:10719   */\n      add\n        /* \"#utility.yul\":10693:10719   */\n      swap1\n      pop\n        /* \"#utility.yul\":10765:10774   */\n      dup2\n        /* \"#utility.yul\":10759:10763   */\n      dup2\n        /* \"#utility.yul\":10755:10775   */\n      sub\n        /* \"#utility.yul\":10751:10752   */\n      0x00\n        /* \"#utility.yul\":10740:10749   */\n      dup4\n        /* \"#utility.yul\":10736:10753   */\n      add\n        /* \"#utility.yul\":10729:10776   */\n      mstore\n        /* \"#utility.yul\":10793:10924   */\n      tag_285\n        /* \"#utility.yul\":10919:10923   */\n      dup2\n        /* \"#utility.yul\":10793:10924   */\n      tag_252\n      jump\t// in\n    tag_285:\n        /* \"#utility.yul\":10785:10924   */\n      swap1\n      pop\n        /* \"#utility.yul\":10512:10931   */\n      swap2\n      swap1\n      pop\n      jump\t// out\n        /* \"#utility.yul\":10937:11356   */\n    tag_101:\n        /* \"#utility.yul\":11103:11107   */\n      0x00\n        /* \"#utility.yul\":11141:11143   */\n      0x20\n        /* \"#utility.yul\":11130:11139   */\n      dup3\n        /* \"#utility.yul\":11126:11144   */\n      add\n        /* \"#utility.yul\":11118:11144   */\n      swap1\n      pop\n        /* \"#utility.yul\":11190:11199   */\n      dup2\n        /* \"#utility.yul\":11184:11188   */\n      dup2\n        /* \"#utility.yul\":11180:11200   */\n      sub\n        /* \"#utility.yul\":11176:11177   */\n      0x00\n        /* \"#utility.yul\":11165:11174   */\n      dup4\n        /* \"#utility.yul\":11161:11178   */\n      add\n        /* \"#utility.yul\":11154:11201   */\n      mstore\n        /* \"#utility.yul\":11218:11349   */\n      tag_287\n        /* \"#utility.yul\":11344:11348   */\n      dup2\n        /* \"#utility.yul\":11218:11349   */\n      tag_257\n      jump\t// in\n    tag_287:\n        /* \"#utility.yul\":11210:11349   */\n      swap1\n      pop\n        /* \"#utility.yul\":10937:11356   */\n      swap2\n      swap1\n      pop\n      jump\t// out\n        /* \"#utility.yul\":11362:11584   */\n    tag_60:\n        /* \"#utility.yul\":11455:11459   */\n      0x00\n        /* \"#utility.yul\":11493:11495   */\n      0x20\n        /* \"#utility.yul\":11482:11491   */\n      dup3\n        /* \"#utility.yul\":11478:11496   */\n      add\n        /* \"#utility.yul\":11470:11496   */\n      swap1\n      pop\n        /* \"#utility.yul\":11506:11577   */\n      tag_289\n        /* \"#utility.yul\":11574:11575   */\n      0x00\n        /* \"#utility.yul\":11563:11572   */\n      dup4\n        /* \"#utility.yul\":11559:11576   */\n      add\n        /* \"#utility.yul\":11550:11556   */\n      dup5\n        /* \"#utility.yul\":11506:11577   */\n      tag_262\n      jump\t// in\n    tag_289:\n        /* \"#utility.yul\":11362:11584   */\n      swap3\n      swap2\n      pop\n      pop\n      jump\t// out\n        /* \"#utility.yul\":11590:11719   */\n    tag_158:\n        /* \"#utility.yul\":11624:11630   */\n      0x00\n        /* \"#utility.yul\":11651:11671   */\n      tag_291\n      tag_292\n      jump\t// in\n    tag_291:\n        /* \"#utility.yul\":11641:11671   */\n      swap1\n      pop\n        /* \"#utility.yul\":11680:11713   */\n      tag_293\n        /* \"#utility.yul\":11708:11712   */\n      dup3\n        /* \"#utility.yul\":11700:11706   */\n      dup3\n        /* \"#utility.yul\":11680:11713   */\n      tag_294\n      jump\t// in\n    tag_293:\n        /* \"#utility.yul\":11590:11719   */\n      swap2\n      swap1\n      pop\n      jump\t// out\n        /* \"#utility.yul\":11725:11800   */\n    tag_292:\n        /* \"#utility.yul\":11758:11764   */\n      0x00\n        /* \"#utility.yul\":11791:11793   */\n      0x40\n        /* \"#utility.yul\":11785:11794   */\n      mload\n        /* \"#utility.yul\":11775:11794   */\n      swap1\n      pop\n        /* \"#utility.yul\":11725:11800   */\n      swap1\n      jump\t// out\n        /* \"#utility.yul\":11806:12114   */\n    tag_157:\n        /* \"#utility.yul\":11868:11872   */\n      0x00\n        /* \"#utility.yul\":11958:11976   */\n      0xffffffffffffffff\n        /* \"#utility.yul\":11950:11956   */\n      dup3\n        /* \"#utility.yul\":11947:11977   */\n      gt\n        /* \"#utility.yul\":11944:12000   */\n      iszero\n      tag_297\n      jumpi\n        /* \"#utility.yul\":11980:11998   */\n      tag_298\n      tag_299\n      jump\t// in\n    tag_298:\n        /* \"#utility.yul\":11944:12000   */\n    tag_297:\n        /* \"#utility.yul\":12018:12047   */\n      tag_300\n        /* \"#utility.yul\":12040:12046   */\n      dup3\n        /* \"#utility.yul\":12018:12047   */\n      tag_226\n      jump\t// in\n    tag_300:\n        /* \"#utility.yul\":12010:12047   */\n      swap1\n      pop\n        /* \"#utility.yul\":12102:12106   */\n      0x20\n        /* \"#utility.yul\":12096:12100   */\n      dup2\n        /* \"#utility.yul\":12092:12107   */\n      add\n        /* \"#utility.yul\":12084:12107   */\n      swap1\n      pop\n        /* \"#utility.yul\":11806:12114   */\n      swap2\n      swap1\n      pop\n      jump\t// out\n        /* \"#utility.yul\":12120:12219   */\n    tag_220:\n        /* \"#utility.yul\":12172:12178   */\n      0x00\n        /* \"#utility.yul\":12206:12211   */\n      dup2\n        /* \"#utility.yul\":12200:12212   */\n      mload\n        /* \"#utility.yul\":12190:12212   */\n      swap1\n      pop\n        /* \"#utility.yul\":12120:12219   */\n      swap2\n      swap1\n      pop\n      jump\t// out\n        /* \"#utility.yul\":12225:12394   */\n    tag_222:\n        /* \"#utility.yul\":12309:12320   */\n      0x00\n        /* \"#utility.yul\":12343:12349   */\n      dup3\n        /* \"#utility.yul\":12338:12341   */\n      dup3\n        /* \"#utility.yul\":12331:12350   */\n      mstore\n        /* \"#utility.yul\":12383:12387   */\n      0x20\n        /* \"#utility.yul\":12378:12381   */\n      dup3\n        /* \"#utility.yul\":12374:12388   */\n      add\n        /* \"#utility.yul\":12359:12388   */\n      swap1\n      pop\n        /* \"#utility.yul\":12225:12394   */\n      swap3\n      swap2\n      pop\n      pop\n      jump\t// out\n        /* \"#utility.yul\":12400:12705   */\n    tag_68:\n        /* \"#utility.yul\":12440:12443   */\n      0x00\n        /* \"#utility.yul\":12459:12479   */\n      tag_304\n        /* \"#utility.yul\":12477:12478   */\n      dup3\n        /* \"#utility.yul\":12459:12479   */\n      tag_265\n      jump\t// in\n    tag_304:\n        /* \"#utility.yul\":12454:12479   */\n      swap2\n      pop\n        /* \"#utility.yul\":12493:12513   */\n      tag_305\n        /* \"#utility.yul\":12511:12512   */\n      dup4\n        /* \"#utility.yul\":12493:12513   */\n      tag_265\n      jump\t// in\n    tag_305:\n        /* \"#utility.yul\":12488:12513   */\n      swap3\n      pop\n        /* \"#utility.yul\":12647:12648   */\n      dup3\n        /* \"#utility.yul\":12579:12645   */\n      0xffffffffffffffffffffffffffffffffffffffffffffffffffffffffffffffff\n        /* \"#utility.yul\":12575:12649   */\n      sub\n        /* \"#utility.yul\":12572:12573   */\n      dup3\n        /* \"#utility.yul\":12569:12650   */\n      gt\n        /* \"#utility.yul\":12566:12673   */\n      iszero\n      tag_306\n      jumpi\n        /* \"#utility.yul\":12653:12671   */\n      tag_307\n      tag_308\n      jump\t// in\n    tag_307:\n        /* \"#utility.yul\":12566:12673   */\n    tag_306:\n        /* \"#utility.yul\":12697:12698   */\n      dup3\n        /* \"#utility.yul\":12694:12695   */\n      dup3\n        /* \"#utility.yul\":12690:12699   */\n      add\n        /* \"#utility.yul\":12683:12699   */\n      swap1\n      pop\n        /* \"#utility.yul\":12400:12705   */\n      swap3\n      swap2\n      pop\n      pop\n      jump\t// out\n        /* \"#utility.yul\":12711:12902   */\n    tag_129:\n        /* \"#utility.yul\":12751:12755   */\n      0x00\n        /* \"#utility.yul\":12771:12791   */\n      tag_310\n        /* \"#utility.yul\":12789:12790   */\n      dup3\n        /* \"#utility.yul\":12771:12791   */\n      tag_265\n      jump\t// in\n    tag_310:\n        /* \"#utility.yul\":12766:12791   */\n      swap2\n      pop\n        /* \"#utility.yul\":12805:12825   */\n      tag_311\n        /* \"#utility.yul\":12823:12824   */\n      dup4\n        /* \"#utility.yul\":12805:12825   */\n      tag_265\n      jump\t// in\n    tag_311:\n        /* \"#utility.yul\":12800:12825   */\n      swap3\n      pop\n        /* \"#utility.yul\":12844:12845   */\n      dup3\n        /* \"#utility.yul\":12841:12842   */\n      dup3\n        /* \"#utility.yul\":12838:12846   */\n      lt\n        /* \"#utility.yul\":12835:12869   */\n      iszero\n      tag_312\n      jumpi\n        /* \"#utility.yul\":12849:12867   */\n      tag_313\n      tag_308\n      jump\t// in\n    tag_313:\n        /* \"#utility.yul\":12835:12869   */\n    tag_312:\n        /* \"#utility.yul\":12894:12895   */\n      dup3\n        /* \"#utility.yul\":12891:12892   */\n      dup3\n        /* \"#utility.yul\":12887:12896   */\n      sub\n        /* \"#utility.yul\":12879:12896   */\n      swap1\n      pop\n        /* \"#utility.yul\":12711:12902   */\n      swap3\n      swap2\n      pop\n      pop\n      jump\t// out\n        /* \"#utility.yul\":12908:13004   */\n    tag_216:\n        /* \"#utility.yul\":12945:12952   */\n      0x00\n        /* \"#utility.yul\":12974:12998   */\n      tag_315\n        /* \"#utility.yul\":12992:12997   */\n      dup3\n        /* \"#utility.yul\":12974:12998   */\n      tag_316\n      jump\t// in\n    tag_315:\n        /* \"#utility.yul\":12963:12998   */\n      swap1\n      pop\n        /* \"#utility.yul\":12908:13004   */\n      swap2\n      swap1\n      pop\n      jump\t// out\n        /* \"#utility.yul\":13010:13136   */\n    tag_316:\n        /* \"#utility.yul\":13047:13054   */\n      0x00\n        /* \"#utility.yul\":13087:13129   */\n      0xffffffffffffffffffffffffffffffffffffffff\n        /* \"#utility.yul\":13080:13085   */\n      dup3\n        /* \"#utility.yul\":13076:13130   */\n      and\n        /* \"#utility.yul\":13065:13130   */\n      swap1\n      pop\n        /* \"#utility.yul\":13010:13136   */\n      swap2\n      swap1\n      pop\n      jump\t// out\n        /* \"#utility.yul\":13142:13219   */\n    tag_265:\n        /* \"#utility.yul\":13179:13186   */\n      0x00\n        /* \"#utility.yul\":13208:13213   */\n      dup2\n        /* \"#utility.yul\":13197:13213   */\n      swap1\n      pop\n        /* \"#utility.yul\":13142:13219   */\n      swap2\n      swap1\n      pop\n      jump\t// out\n        /* \"#utility.yul\":13225:13379   */\n    tag_163:\n        /* \"#utility.yul\":13309:13315   */\n      dup3\n        /* \"#utility.yul\":13304:13307   */\n      dup2\n        /* \"#utility.yul\":13299:13302   */\n      dup4\n        /* \"#utility.yul\":13286:13316   */\n      calldatacopy\n        /* \"#utility.yul\":13371:13372   */\n      0x00\n        /* \"#utility.yul\":13362:13368   */\n      dup4\n        /* \"#utility.yul\":13357:13360   */\n      dup4\n        /* \"#utility.yul\":13353:13369   */\n      add\n        /* \"#utility.yul\":13346:13373   */\n      mstore\n        /* \"#utility.yul\":13225:13379   */\n      pop\n      pop\n      pop\n      jump\t// out\n        /* \"#utility.yul\":13385:13692   */\n    tag_224:\n        /* \"#utility.yul\":13453:13454   */\n      0x00\n        /* \"#utility.yul\":13463:13576   */\n    tag_321:\n        /* \"#utility.yul\":13477:13483   */\n      dup4\n        /* \"#utility.yul\":13474:13475   */\n      dup2\n        /* \"#utility.yul\":13471:13484   */\n      lt\n        /* \"#utility.yul\":13463:13576   */\n      iszero\n      tag_323\n      jumpi\n        /* \"#utility.yul\":13562:13563   */\n      dup1\n        /* \"#utility.yul\":13557:13560   */\n      dup3\n        /* \"#utility.yul\":13553:13564   */\n      add\n        /* \"#utility.yul\":13547:13565   */\n      mload\n        /* \"#utility.yul\":13543:13544   */\n      dup2\n        /* \"#utility.yul\":13538:13541   */\n      dup5\n        /* \"#utility.yul\":13534:13545   */\n      add\n        /* \"#utility.yul\":13527:13566   */\n      mstore\n        /* \"#utility.yul\":13499:13501   */\n      0x20\n        /* \"#utility.yul\":13496:13497   */\n      dup2\n        /* \"#utility.yul\":13492:13502   */\n      add\n        /* \"#utility.yul\":13487:13502   */\n      swap1\n      pop\n        /* \"#utility.yul\":13463:13576   */\n      jump(tag_321)\n    tag_323:\n        /* \"#utility.yul\":13594:13600   */\n      dup4\n        /* \"#utility.yul\":13591:13592   */\n      dup2\n        /* \"#utility.yul\":13588:13601   */\n      gt\n        /* \"#utility.yul\":13585:13686   */\n      iszero\n      tag_324\n      jumpi\n        /* \"#utility.yul\":13674:13675   */\n      0x00\n        /* \"#utility.yul\":13665:13671   */\n      dup5\n        /* \"#utility.yul\":13660:13663   */\n      dup5\n        /* \"#utility.yul\":13656:13672   */\n      add\n        /* \"#utility.yul\":13649:13676   */\n      mstore\n        /* \"#utility.yul\":13585:13686   */\n    tag_324:\n        /* \"#utility.yul\":13434:13692   */\n      pop\n        /* \"#utility.yul\":13385:13692   */\n      pop\n      pop\n      pop\n      jump\t// out\n        /* \"#utility.yul\":13698:14018   */\n    tag_83:\n        /* \"#utility.yul\":13742:13748   */\n      0x00\n        /* \"#utility.yul\":13779:13780   */\n      0x02\n        /* \"#utility.yul\":13773:13777   */\n      dup3\n        /* \"#utility.yul\":13769:13781   */\n      div\n        /* \"#utility.yul\":13759:13781   */\n      swap1\n      pop\n        /* \"#utility.yul\":13826:13827   */\n      0x01\n        /* \"#utility.yul\":13820:13824   */\n      dup3\n        /* \"#utility.yul\":13816:13828   */\n      and\n        /* \"#utility.yul\":13847:13865   */\n      dup1\n        /* \"#utility.yul\":13837:13918   */\n      tag_326\n      jumpi\n        /* \"#utility.yul\":13903:13907   */\n      0x7f\n        /* \"#utility.yul\":13895:13901   */\n      dup3\n        /* \"#utility.yul\":13891:13908   */\n      and\n        /* \"#utility.yul\":13881:13908   */\n      swap2\n      pop\n        /* \"#utility.yul\":13837:13918   */\n    tag_326:\n        /* \"#utility.yul\":13965:13967   */\n      0x20\n        /* \"#utility.yul\":13957:13963   */\n      dup3\n        /* \"#utility.yul\":13954:13968   */\n      lt\n        /* \"#utility.yul\":13934:13952   */\n      dup2\n        /* \"#utility.yul\":13931:13969   */\n      eq\n        /* \"#utility.yul\":13928:14012   */\n      iszero\n      tag_327\n      jumpi\n        /* \"#utility.yul\":13984:14002   */\n      tag_328\n      tag_329\n      jump\t// in\n    tag_328:\n        /* \"#utility.yul\":13928:14012   */\n    tag_327:\n        /* \"#utility.yul\":13749:14018   */\n      pop\n        /* \"#utility.yul\":13698:14018   */\n      swap2\n      swap1\n      pop\n      jump\t// out\n        /* \"#utility.yul\":14024:14305   */\n    tag_294:\n        /* \"#utility.yul\":14107:14134   */\n      tag_331\n        /* \"#utility.yul\":14129:14133   */\n      dup3\n        /* \"#utility.yul\":14107:14134   */\n      tag_226\n      jump\t// in\n    tag_331:\n        /* \"#utility.yul\":14099:14105   */\n      dup2\n        /* \"#utility.yul\":14095:14135   */\n      add\n        /* \"#utility.yul\":14237:14243   */\n      dup2\n        /* \"#utility.yul\":14225:14235   */\n      dup2\n        /* \"#utility.yul\":14222:14244   */\n      lt\n        /* \"#utility.yul\":14201:14219   */\n      0xffffffffffffffff\n        /* \"#utility.yul\":14189:14199   */\n      dup3\n        /* \"#utility.yul\":14186:14220   */\n      gt\n        /* \"#utility.yul\":14183:14245   */\n      or\n        /* \"#utility.yul\":14180:14268   */\n      iszero\n      tag_332\n      jumpi\n        /* \"#utility.yul\":14248:14266   */\n      tag_333\n      tag_299\n      jump\t// in\n    tag_333:\n        /* \"#utility.yul\":14180:14268   */\n    tag_332:\n        /* \"#utility.yul\":14288:14298   */\n      dup1\n        /* \"#utility.yul\":14284:14286   */\n      0x40\n        /* \"#utility.yul\":14277:14299   */\n      mstore\n        /* \"#utility.yul\":14067:14305   */\n      pop\n        /* \"#utility.yul\":14024:14305   */\n      pop\n      pop\n      jump\t// out\n        /* \"#utility.yul\":14311:14491   */\n    tag_308:\n        /* \"#utility.yul\":14359:14436   */\n      0x4e487b7100000000000000000000000000000000000000000000000000000000\n        /* \"#utility.yul\":14356:14357   */\n      0x00\n        /* \"#utility.yul\":14349:14437   */\n      mstore\n        /* \"#utility.yul\":14456:14460   */\n      0x11\n        /* \"#utility.yul\":14453:14454   */\n      0x04\n        /* \"#utility.yul\":14446:14461   */\n      mstore\n        /* \"#utility.yul\":14480:14484   */\n      0x24\n        /* \"#utility.yul\":14477:14478   */\n      0x00\n        /* \"#utility.yul\":14470:14485   */\n      revert\n        /* \"#utility.yul\":14497:14677   */\n    tag_329:\n        /* \"#utility.yul\":14545:14622   */\n      0x4e487b7100000000000000000000000000000000000000000000000000000000\n        /* \"#utility.yul\":14542:14543   */\n      0x00\n        /* \"#utility.yul\":14535:14623   */\n      mstore\n        /* \"#utility.yul\":14642:14646   */\n      0x22\n        /* \"#utility.yul\":14639:14640   */\n      0x04\n        /* \"#utility.yul\":14632:14647   */\n      mstore\n        /* \"#utility.yul\":14666:14670   */\n      0x24\n        /* \"#utility.yul\":14663:14664   */\n      0x00\n        /* \"#utility.yul\":14656:14671   */\n      revert\n        /* \"#utility.yul\":14683:14863   */\n    tag_76:\n        /* \"#utility.yul\":14731:14808   */\n      0x4e487b7100000000000000000000000000000000000000000000000000000000\n        /* \"#utility.yul\":14728:14729   */\n      0x00\n        /* \"#utility.yul\":14721:14809   */\n      mstore\n        /* \"#utility.yul\":14828:14832   */\n      0x32\n        /* \"#utility.yul\":14825:14826   */\n      0x04\n        /* \"#utility.yul\":14818:14833   */\n      mstore\n        /* \"#utility.yul\":14852:14856   */\n      0x24\n        /* \"#utility.yul\":14849:14850   */\n      0x00\n        /* \"#utility.yul\":14842:14857   */\n      revert\n        /* \"#utility.yul\":14869:15049   */\n    tag_299:\n        /* \"#utility.yul\":14917:14994   */\n      0x4e487b7100000000000000000000000000000000000000000000000000000000\n        /* \"#utility.yul\":14914:14915   */\n      0x00\n        /* \"#utility.yul\":14907:14995   */\n      mstore\n        /* \"#utility.yul\":15014:15018   */\n      0x41\n        /* \"#utility.yul\":15011:15012   */\n      0x04\n        /* \"#utility.yul\":15004:15019   */\n      mstore\n        /* \"#utility.yul\":15038:15042   */\n      0x24\n        /* \"#utility.yul\":15035:15036   */\n      0x00\n        /* \"#utility.yul\":15028:15043   */\n      revert\n        /* \"#utility.yul\":15055:15172   */\n    tag_172:\n        /* \"#utility.yul\":15164:15165   */\n      0x00\n        /* \"#utility.yul\":15161:15162   */\n      dup1\n        /* \"#utility.yul\":15154:15166   */\n      revert\n        /* \"#utility.yul\":15178:15295   */\n    tag_161:\n        /* \"#utility.yul\":15287:15288   */\n      0x00\n        /* \"#utility.yul\":15284:15285   */\n      dup1\n        /* \"#utility.yul\":15277:15289   */\n      revert\n        /* \"#utility.yul\":15301:15418   */\n    tag_193:\n        /* \"#utility.yul\":15410:15411   */\n      0x00\n        /* \"#utility.yul\":15407:15408   */\n      dup1\n        /* \"#utility.yul\":15400:15412   */\n      revert\n        /* \"#utility.yul\":15424:15541   */\n    tag_181:\n        /* \"#utility.yul\":15533:15534   */\n      0x00\n        /* \"#utility.yul\":15530:15531   */\n      dup1\n        /* \"#utility.yul\":15523:15535   */\n      revert\n        /* \"#utility.yul\":15547:15649   */\n    tag_226:\n        /* \"#utility.yul\":15588:15594   */\n      0x00\n        /* \"#utility.yul\":15639:15641   */\n      0x1f\n        /* \"#utility.yul\":15635:15642   */\n      not\n        /* \"#utility.yul\":15630:15632   */\n      0x1f\n        /* \"#utility.yul\":15623:15628   */\n      dup4\n        /* \"#utility.yul\":15619:15633   */\n      add\n        /* \"#utility.yul\":15615:15643   */\n      and\n        /* \"#utility.yul\":15605:15643   */\n      swap1\n      pop\n        /* \"#utility.yul\":15547:15649   */\n      swap2\n      swap1\n      pop\n      jump\t// out\n        /* \"#utility.yul\":15655:15894   */\n    tag_231:\n        /* \"#utility.yul\":15795:15829   */\n      0x536f6c6f20656c2041646d696e6973747261646f722064656c2047796d207075\n        /* \"#utility.yul\":15791:15792   */\n      0x00\n        /* \"#utility.yul\":15783:15789   */\n      dup3\n        /* \"#utility.yul\":15779:15793   */\n      add\n        /* \"#utility.yul\":15772:15830   */\n      mstore\n        /* \"#utility.yul\":15864:15886   */\n      0x656465206d6f6469666963617220636c61736573000000000000000000000000\n        /* \"#utility.yul\":15859:15861   */\n      0x20\n        /* \"#utility.yul\":15851:15857   */\n      dup3\n        /* \"#utility.yul\":15847:15862   */\n      add\n        /* \"#utility.yul\":15840:15887   */\n      mstore\n        /* \"#utility.yul\":15655:15894   */\n      pop\n      jump\t// out\n        /* \"#utility.yul\":15900:16124   */\n    tag_236:\n        /* \"#utility.yul\":16040:16074   */\n      0x596120746520656e6375656e74726173207265676973747261646f20656e2065\n        /* \"#utility.yul\":16036:16037   */\n      0x00\n        /* \"#utility.yul\":16028:16034   */\n      dup3\n        /* \"#utility.yul\":16024:16038   */\n      add\n        /* \"#utility.yul\":16017:16075   */\n      mstore\n        /* \"#utility.yul\":16109:16116   */\n      0x6c2067796d000000000000000000000000000000000000000000000000000000\n        /* \"#utility.yul\":16104:16106   */\n      0x20\n        /* \"#utility.yul\":16096:16102   */\n      dup3\n        /* \"#utility.yul\":16092:16107   */\n      add\n        /* \"#utility.yul\":16085:16117   */\n      mstore\n        /* \"#utility.yul\":15900:16124   */\n      pop\n      jump\t// out\n        /* \"#utility.yul\":16130:16363   */\n    tag_241:\n        /* \"#utility.yul\":16270:16304   */\n      0x4e6f207469656e6573206372656469746f7320737566696369656e7465732070\n        /* \"#utility.yul\":16266:16267   */\n      0x00\n        /* \"#utility.yul\":16258:16264   */\n      dup3\n        /* \"#utility.yul\":16254:16268   */\n      add\n        /* \"#utility.yul\":16247:16305   */\n      mstore\n        /* \"#utility.yul\":16339:16355   */\n      0x617261207472616e736665726972000000000000000000000000000000000000\n        /* \"#utility.yul\":16334:16336   */\n      0x20\n        /* \"#utility.yul\":16326:16332   */\n      dup3\n        /* \"#utility.yul\":16322:16337   */\n      add\n        /* \"#utility.yul\":16315:16356   */\n      mstore\n        /* \"#utility.yul\":16130:16363   */\n      pop\n      jump\t// out\n        /* \"#utility.yul\":16369:16604   */\n    tag_246:\n        /* \"#utility.yul\":16509:16543   */\n      0x536f6c6f20656c2041646d696e6973747261646f722064656c2047796d207075\n        /* \"#utility.yul\":16505:16506   */\n      0x00\n        /* \"#utility.yul\":16497:16503   */\n      dup3\n        /* \"#utility.yul\":16493:16507   */\n      add\n        /* \"#utility.yul\":16486:16544   */\n      mstore\n        /* \"#utility.yul\":16578:16596   */\n      0x65646520637265617220636c6173657300000000000000000000000000000000\n        /* \"#utility.yul\":16573:16575   */\n      0x20\n        /* \"#utility.yul\":16565:16571   */\n      dup3\n        /* \"#utility.yul\":16561:16576   */\n      add\n        /* \"#utility.yul\":16554:16597   */\n      mstore\n        /* \"#utility.yul\":16369:16604   */\n      pop\n      jump\t// out\n        /* \"#utility.yul\":16610:16790   */\n    tag_251:\n        /* \"#utility.yul\":16750:16782   */\n      0x4e6f207469656e6573206372656469746f7320737566696369656e7465730000\n        /* \"#utility.yul\":16746:16747   */\n      0x00\n        /* \"#utility.yul\":16738:16744   */\n      dup3\n        /* \"#utility.yul\":16734:16748   */\n      add\n        /* \"#utility.yul\":16727:16783   */\n      mstore\n        /* \"#utility.yul\":16610:16790   */\n      pop\n      jump\t// out\n        /* \"#utility.yul\":16796:17034   */\n    tag_256:\n        /* \"#utility.yul\":16936:16970   */\n      0x536f6c6f20656c2041646d696e6973747261646f722064656c2047796d207075\n        /* \"#utility.yul\":16932:16933   */\n      0x00\n        /* \"#utility.yul\":16924:16930   */\n      dup3\n        /* \"#utility.yul\":16920:16934   */\n      add\n        /* \"#utility.yul\":16913:16971   */\n      mstore\n        /* \"#utility.yul\":17005:17026   */\n      0x65646520656c696d696e617220636c6173657300000000000000000000000000\n        /* \"#utility.yul\":17000:17002   */\n      0x20\n        /* \"#utility.yul\":16992:16998   */\n      dup3\n        /* \"#utility.yul\":16988:17003   */\n      add\n        /* \"#utility.yul\":16981:17027   */\n      mstore\n        /* \"#utility.yul\":16796:17034   */\n      pop\n      jump\t// out\n        /* \"#utility.yul\":17040:17220   */\n    tag_261:\n        /* \"#utility.yul\":17180:17212   */\n      0x4e6f2065786973746520756e6120636c61736520636f6e206573652049640000\n        /* \"#utility.yul\":17176:17177   */\n      0x00\n        /* \"#utility.yul\":17168:17174   */\n      dup3\n        /* \"#utility.yul\":17164:17178   */\n      add\n        /* \"#utility.yul\":17157:17213   */\n      mstore\n        /* \"#utility.yul\":17040:17220   */\n      pop\n      jump\t// out\n        /* \"#utility.yul\":17226:17348   */\n    tag_167:\n        /* \"#utility.yul\":17299:17323   */\n      tag_351\n        /* \"#utility.yul\":17317:17322   */\n      dup2\n        /* \"#utility.yul\":17299:17323   */\n      tag_216\n      jump\t// in\n    tag_351:\n        /* \"#utility.yul\":17292:17297   */\n      dup2\n        /* \"#utility.yul\":17289:17324   */\n      eq\n        /* \"#utility.yul\":17279:17342   */\n      tag_352\n      jumpi\n        /* \"#utility.yul\":17338:17339   */\n      0x00\n        /* \"#utility.yul\":17335:17336   */\n      dup1\n        /* \"#utility.yul\":17328:17340   */\n      revert\n        /* \"#utility.yul\":17279:17342   */\n    tag_352:\n        /* \"#utility.yul\":17226:17348   */\n      pop\n      jump\t// out\n        /* \"#utility.yul\":17354:17476   */\n    tag_177:\n        /* \"#utility.yul\":17427:17451   */\n      tag_354\n        /* \"#utility.yul\":17445:17450   */\n      dup2\n        /* \"#utility.yul\":17427:17451   */\n      tag_265\n      jump\t// in\n    tag_354:\n        /* \"#utility.yul\":17420:17425   */\n      dup2\n        /* \"#utility.yul\":17417:17452   */\n      eq\n        /* \"#utility.yul\":17407:17470   */\n      tag_355\n      jumpi\n        /* \"#utility.yul\":17466:17467   */\n      0x00\n        /* \"#utility.yul\":17463:17464   */\n      dup1\n        /* \"#utility.yul\":17456:17468   */\n      revert\n        /* \"#utility.yul\":17407:17470   */\n    tag_355:\n        /* \"#utility.yul\":17354:17476   */\n      pop\n      jump\t// out\n\n    auxdata: 0xa264697066735822122051b4036b7fc0d53805b29cef12d9fffd4ff0eb73a090446b57abd92cd6bed42f64736f6c63430008070033\n}\n",
				"bytecode": {
					"linkReferences": {},
					"object": "60a060405234801561001057600080fd5b503373ffffffffffffffffffffffffffffffffffffffff1660808173ffffffffffffffffffffffffffffffffffffffff1660601b8152505060805160601c61160561007b60003960008181610312015281816103d7015281816104ce015261081101526116056000f3fe608060405234801561001057600080fd5b50600436106100b45760003560e01c8063512d62df11610071578063512d62df1461017b5780636d705ebb146101ac57806372c30f45146101c85780637aed8136146101e4578063a87430ba14610200578063d93b2dd014610230576100b4565b806312065fe0146100b957806319389b95146100d85780631e8be099146100f45780632a0acc6a146101105780633613a9f41461012e5780634852a2121461015f575b600080fd5b6100c161024c565b6040516100cf929190610fb2565b60405180910390f35b6100f260048036038101906100ed9190610d6f565b610297565b005b61010e60048036038101906101099190610ddc565b6102f9565b005b6101186103d5565b6040516101259190610f97565b60405180910390f35b61014860048036038101906101439190610d6f565b6103f9565b604051610156929190610fdb565b60405180910390f35b61017960048036038101906101749190610d13565b6104b5565b005b61019560048036038101906101909190610d6f565b6105e9565b6040516101a3929190610fdb565b60405180910390f35b6101c660048036038101906101c19190610cd3565b6106f8565b005b6101e260048036038101906101dd9190610d6f565b6107f8565b005b6101fe60048036038101906101f99190610d6f565b6108c6565b005b61021a60048036038101906102159190610ca6565b6109d8565b60405161022791906110eb565b60405180910390f35b61024a60048036038101906102459190610d9c565b6109f0565b005b600080336000803373ffffffffffffffffffffffffffffffffffffffff1673ffffffffffffffffffffffffffffffffffffffff16815260200190815260200160002054915091509091565b806000803373ffffffffffffffffffffffffffffffffffffffff1673ffffffffffffffffffffffffffffffffffffffff16815260200190815260200160002060008282546102e59190611178565b925050819055506102f461024c565b505050565b3373ffffffffffffffffffffffffffffffffffffffff167f000000000000000000000000000000000000000000000000000000000000000073ffffffffffffffffffffffffffffffffffffffff1614610387576040517f08c379a000000000000000000000000000000000000000000000000000000000815260040161037e9061100b565b60405180910390fd5b60006001848154811061039d5761039c611341565b5b90600052602060002090600202019050828160000190805190602001906103c5929190610b29565b5081816001018190555050505050565b7f000000000000000000000000000000000000000000000000000000000000000081565b6001818154811061040957600080fd5b906000526020600020906002020160009150905080600001805461042c90611280565b80601f016020809104026020016040519081016040528092919081815260200182805461045890611280565b80156104a55780601f1061047a576101008083540402835291602001916104a5565b820191906000526020600020905b81548152906001019060200180831161048857829003601f168201915b5050505050908060010154905082565b3373ffffffffffffffffffffffffffffffffffffffff167f000000000000000000000000000000000000000000000000000000000000000073ffffffffffffffffffffffffffffffffffffffff1614610543576040517f08c379a000000000000000000000000000000000000000000000000000000000815260040161053a9061106b565b60405180910390fd5b60016040518060400160405280848152602001838152509080600181540180825580915050600190039060005260206000209060020201600090919091909150600082015181600001908051906020019061059f929190610b29565b506020820151816001015550507f14d49e3ea4f348b7f368906dfe1a63055c7822d622a61672a35a55ae97a768f982826040516105dd929190610fdb565b60405180910390a15050565b60606000806001848154811061060257610601611341565b5b906000526020600020906002020190506000816001015414610659576040517f08c379a0000000000000000000000000000000000000000000000000000000008152600401610650906110cb565b60405180910390fd5b80600001816001015481805461066e90611280565b80601f016020809104026020016040519081016040528092919081815260200182805461069a90611280565b80156106e75780601f106106bc576101008083540402835291602001916106e7565b820191906000526020600020905b8154815290600101906020018083116106ca57829003601f168201915b505050505091509250925050915091565b60008060003373ffffffffffffffffffffffffffffffffffffffff1673ffffffffffffffffffffffffffffffffffffffff1681526020019081526020016000205414610779576040517f08c379a00000000000000000000000000000000000000000000000000000000081526004016107709061102b565b60405180910390fd5b806000803373ffffffffffffffffffffffffffffffffffffffff1673ffffffffffffffffffffffffffffffffffffffff168152602001908152602001600020819055507e7dc6ab80cc84c043b7b8d4fcafc802187470087f7ea7fccd2e17aecd0256a182826040516107ec929190610fb2565b60405180910390a15050565b3373ffffffffffffffffffffffffffffffffffffffff167f000000000000000000000000000000000000000000000000000000000000000073ffffffffffffffffffffffffffffffffffffffff1614610886576040517f08c379a000000000000000000000000000000000000000000000000000000000815260040161087d906110ab565b60405180910390fd5b6001818154811061089a57610899611341565b5b9060005260206000209060020201600080820160006108b99190610baf565b6001820160009055505050565b6000600182815481106108dc576108db611341565b5b9060005260206000209060020201905080600101546000803373ffffffffffffffffffffffffffffffffffffffff1673ffffffffffffffffffffffffffffffffffffffff168152602001908152602001600020541015610971576040517f08c379a00000000000000000000000000000000000000000000000000000000081526004016109689061108b565b60405180910390fd5b80600101546000803373ffffffffffffffffffffffffffffffffffffffff1673ffffffffffffffffffffffffffffffffffffffff16815260200190815260200160002060008282546109c391906111ce565b925050819055506109d261024c565b50505050565b60006020528060005260406000206000915090505481565b816000803373ffffffffffffffffffffffffffffffffffffffff1673ffffffffffffffffffffffffffffffffffffffff168152602001908152602001600020541015610a71576040517f08c379a0000000000000000000000000000000000000000000000000000000008152600401610a689061104b565b60405180910390fd5b816000803373ffffffffffffffffffffffffffffffffffffffff1673ffffffffffffffffffffffffffffffffffffffff1681526020019081526020016000206000828254610abf91906111ce565b92505081905550816000808373ffffffffffffffffffffffffffffffffffffffff1673ffffffffffffffffffffffffffffffffffffffff1681526020019081526020016000206000828254610b149190611178565b92505081905550610b2361024c565b50505050565b828054610b3590611280565b90600052602060002090601f016020900481019282610b575760008555610b9e565b82601f10610b7057805160ff1916838001178555610b9e565b82800160010185558215610b9e579182015b82811115610b9d578251825591602001919060010190610b82565b5b509050610bab9190610bef565b5090565b508054610bbb90611280565b6000825580601f10610bcd5750610bec565b601f016020900490600052602060002090810190610beb9190610bef565b5b50565b5b80821115610c08576000816000905550600101610bf0565b5090565b6000610c1f610c1a8461112b565b611106565b905082815260208101848484011115610c3b57610c3a6113a4565b5b610c4684828561123e565b509392505050565b600081359050610c5d816115a1565b92915050565b600082601f830112610c7857610c7761139f565b5b8135610c88848260208601610c0c565b91505092915050565b600081359050610ca0816115b8565b92915050565b600060208284031215610cbc57610cbb6113ae565b5b6000610cca84828501610c4e565b91505092915050565b60008060408385031215610cea57610ce96113ae565b5b6000610cf885828601610c4e565b9250506020610d0985828601610c91565b9150509250929050565b60008060408385031215610d2a57610d296113ae565b5b600083013567ffffffffffffffff811115610d4857610d476113a9565b5b610d5485828601610c63565b9250506020610d6585828601610c91565b9150509250929050565b600060208284031215610d8557610d846113ae565b5b6000610d9384828501610c91565b91505092915050565b60008060408385031215610db357610db26113ae565b5b6000610dc185828601610c91565b9250506020610dd285828601610c4e565b9150509250929050565b600080600060608486031215610df557610df46113ae565b5b6000610e0386828701610c91565b935050602084013567ffffffffffffffff811115610e2457610e236113a9565b5b610e3086828701610c63565b9250506040610e4186828701610c91565b9150509250925092565b610e5481611202565b82525050565b6000610e658261115c565b610e6f8185611167565b9350610e7f81856020860161124d565b610e88816113b3565b840191505092915050565b6000610ea0603483611167565b9150610eab826113c4565b604082019050919050565b6000610ec3602583611167565b9150610ece82611413565b604082019050919050565b6000610ee6602e83611167565b9150610ef182611462565b604082019050919050565b6000610f09603083611167565b9150610f14826114b1565b604082019050919050565b6000610f2c601e83611167565b9150610f3782611500565b602082019050919050565b6000610f4f603383611167565b9150610f5a82611529565b604082019050919050565b6000610f72601e83611167565b9150610f7d82611578565b602082019050919050565b610f9181611234565b82525050565b6000602082019050610fac6000830184610e4b565b92915050565b6000604082019050610fc76000830185610e4b565b610fd46020830184610f88565b9392505050565b60006040820190508181036000830152610ff58185610e5a565b90506110046020830184610f88565b9392505050565b6000602082019050818103600083015261102481610e93565b9050919050565b6000602082019050818103600083015261104481610eb6565b9050919050565b6000602082019050818103600083015261106481610ed9565b9050919050565b6000602082019050818103600083015261108481610efc565b9050919050565b600060208201905081810360008301526110a481610f1f565b9050919050565b600060208201905081810360008301526110c481610f42565b9050919050565b600060208201905081810360008301526110e481610f65565b9050919050565b60006020820190506111006000830184610f88565b92915050565b6000611110611121565b905061111c82826112b2565b919050565b6000604051905090565b600067ffffffffffffffff82111561114657611145611370565b5b61114f826113b3565b9050602081019050919050565b600081519050919050565b600082825260208201905092915050565b600061118382611234565b915061118e83611234565b9250827fffffffffffffffffffffffffffffffffffffffffffffffffffffffffffffffff038211156111c3576111c26112e3565b5b828201905092915050565b60006111d982611234565b91506111e483611234565b9250828210156111f7576111f66112e3565b5b828203905092915050565b600061120d82611214565b9050919050565b600073ffffffffffffffffffffffffffffffffffffffff82169050919050565b6000819050919050565b82818337600083830152505050565b60005b8381101561126b578082015181840152602081019050611250565b8381111561127a576000848401525b50505050565b6000600282049050600182168061129857607f821691505b602082108114156112ac576112ab611312565b5b50919050565b6112bb826113b3565b810181811067ffffffffffffffff821117156112da576112d9611370565b5b80604052505050565b7f4e487b7100000000000000000000000000000000000000000000000000000000600052601160045260246000fd5b7f4e487b7100000000000000000000000000000000000000000000000000000000600052602260045260246000fd5b7f4e487b7100000000000000000000000000000000000000000000000000000000600052603260045260246000fd5b7f4e487b7100000000000000000000000000000000000000000000000000000000600052604160045260246000fd5b600080fd5b600080fd5b600080fd5b600080fd5b6000601f19601f8301169050919050565b7f536f6c6f20656c2041646d696e6973747261646f722064656c2047796d20707560008201527f656465206d6f6469666963617220636c61736573000000000000000000000000602082015250565b7f596120746520656e6375656e74726173207265676973747261646f20656e206560008201527f6c2067796d000000000000000000000000000000000000000000000000000000602082015250565b7f4e6f207469656e6573206372656469746f7320737566696369656e746573207060008201527f617261207472616e736665726972000000000000000000000000000000000000602082015250565b7f536f6c6f20656c2041646d696e6973747261646f722064656c2047796d20707560008201527f65646520637265617220636c6173657300000000000000000000000000000000602082015250565b7f4e6f207469656e6573206372656469746f7320737566696369656e7465730000600082015250565b7f536f6c6f20656c2041646d696e6973747261646f722064656c2047796d20707560008201527f65646520656c696d696e617220636c6173657300000000000000000000000000602082015250565b7f4e6f2065786973746520756e6120636c61736520636f6e206573652049640000600082015250565b6115aa81611202565b81146115b557600080fd5b50565b6115c181611234565b81146115cc57600080fd5b5056fea264697066735822122051b4036b7fc0d53805b29cef12d9fffd4ff0eb73a090446b57abd92cd6bed42f64736f6c63430008070033",
					"opcodes": "PUSH1 0xA0 PUSH1 0x40 MSTORE CALLVALUE DUP1 ISZERO PUSH2 0x10 JUMPI PUSH1 0x0 DUP1 REVERT JUMPDEST POP CALLER PUSH20 0xFFFFFFFFFFFFFFFFFFFFFFFFFFFFFFFFFFFFFFFF AND PUSH1 0x80 DUP2 PUSH20 0xFFFFFFFFFFFFFFFFFFFFFFFFFFFFFFFFFFFFFFFF AND PUSH1 0x60 SHL DUP2 MSTORE POP POP PUSH1 0x80 MLOAD PUSH1 0x60 SHR PUSH2 0x1605 PUSH2 0x7B PUSH1 0x0 CODECOPY PUSH1 0x0 DUP2 DUP2 PUSH2 0x312 ADD MSTORE DUP2 DUP2 PUSH2 0x3D7 ADD MSTORE DUP2 DUP2 PUSH2 0x4CE ADD MSTORE PUSH2 0x811 ADD MSTORE PUSH2 0x1605 PUSH1 0x0 RETURN INVALID PUSH1 0x80 PUSH1 0x40 MSTORE CALLVALUE DUP1 ISZERO PUSH2 0x10 JUMPI PUSH1 0x0 DUP1 REVERT JUMPDEST POP PUSH1 0x4 CALLDATASIZE LT PUSH2 0xB4 JUMPI PUSH1 0x0 CALLDATALOAD PUSH1 0xE0 SHR DUP1 PUSH4 0x512D62DF GT PUSH2 0x71 JUMPI DUP1 PUSH4 0x512D62DF EQ PUSH2 0x17B JUMPI DUP1 PUSH4 0x6D705EBB EQ PUSH2 0x1AC JUMPI DUP1 PUSH4 0x72C30F45 EQ PUSH2 0x1C8 JUMPI DUP1 PUSH4 0x7AED8136 EQ PUSH2 0x1E4 JUMPI DUP1 PUSH4 0xA87430BA EQ PUSH2 0x200 JUMPI DUP1 PUSH4 0xD93B2DD0 EQ PUSH2 0x230 JUMPI PUSH2 0xB4 JUMP JUMPDEST DUP1 PUSH4 0x12065FE0 EQ PUSH2 0xB9 JUMPI DUP1 PUSH4 0x19389B95 EQ PUSH2 0xD8 JUMPI DUP1 PUSH4 0x1E8BE099 EQ PUSH2 0xF4 JUMPI DUP1 PUSH4 0x2A0ACC6A EQ PUSH2 0x110 JUMPI DUP1 PUSH4 0x3613A9F4 EQ PUSH2 0x12E JUMPI DUP1 PUSH4 0x4852A212 EQ PUSH2 0x15F JUMPI JUMPDEST PUSH1 0x0 DUP1 REVERT JUMPDEST PUSH2 0xC1 PUSH2 0x24C JUMP JUMPDEST PUSH1 0x40 MLOAD PUSH2 0xCF SWAP3 SWAP2 SWAP1 PUSH2 0xFB2 JUMP JUMPDEST PUSH1 0x40 MLOAD DUP1 SWAP2 SUB SWAP1 RETURN JUMPDEST PUSH2 0xF2 PUSH1 0x4 DUP1 CALLDATASIZE SUB DUP2 ADD SWAP1 PUSH2 0xED SWAP2 SWAP1 PUSH2 0xD6F JUMP JUMPDEST PUSH2 0x297 JUMP JUMPDEST STOP JUMPDEST PUSH2 0x10E PUSH1 0x4 DUP1 CALLDATASIZE SUB DUP2 ADD SWAP1 PUSH2 0x109 SWAP2 SWAP1 PUSH2 0xDDC JUMP JUMPDEST PUSH2 0x2F9 JUMP JUMPDEST STOP JUMPDEST PUSH2 0x118 PUSH2 0x3D5 JUMP JUMPDEST PUSH1 0x40 MLOAD PUSH2 0x125 SWAP2 SWAP1 PUSH2 0xF97 JUMP JUMPDEST PUSH1 0x40 MLOAD DUP1 SWAP2 SUB SWAP1 RETURN JUMPDEST PUSH2 0x148 PUSH1 0x4 DUP1 CALLDATASIZE SUB DUP2 ADD SWAP1 PUSH2 0x143 SWAP2 SWAP1 PUSH2 0xD6F JUMP JUMPDEST PUSH2 0x3F9 JUMP JUMPDEST PUSH1 0x40 MLOAD PUSH2 0x156 SWAP3 SWAP2 SWAP1 PUSH2 0xFDB JUMP JUMPDEST PUSH1 0x40 MLOAD DUP1 SWAP2 SUB SWAP1 RETURN JUMPDEST PUSH2 0x179 PUSH1 0x4 DUP1 CALLDATASIZE SUB DUP2 ADD SWAP1 PUSH2 0x174 SWAP2 SWAP1 PUSH2 0xD13 JUMP JUMPDEST PUSH2 0x4B5 JUMP JUMPDEST STOP JUMPDEST PUSH2 0x195 PUSH1 0x4 DUP1 CALLDATASIZE SUB DUP2 ADD SWAP1 PUSH2 0x190 SWAP2 SWAP1 PUSH2 0xD6F JUMP JUMPDEST PUSH2 0x5E9 JUMP JUMPDEST PUSH1 0x40 MLOAD PUSH2 0x1A3 SWAP3 SWAP2 SWAP1 PUSH2 0xFDB JUMP JUMPDEST PUSH1 0x40 MLOAD DUP1 SWAP2 SUB SWAP1 RETURN JUMPDEST PUSH2 0x1C6 PUSH1 0x4 DUP1 CALLDATASIZE SUB DUP2 ADD SWAP1 PUSH2 0x1C1 SWAP2 SWAP1 PUSH2 0xCD3 JUMP JUMPDEST PUSH2 0x6F8 JUMP JUMPDEST STOP JUMPDEST PUSH2 0x1E2 PUSH1 0x4 DUP1 CALLDATASIZE SUB DUP2 ADD SWAP1 PUSH2 0x1DD SWAP2 SWAP1 PUSH2 0xD6F JUMP JUMPDEST PUSH2 0x7F8 JUMP JUMPDEST STOP JUMPDEST PUSH2 0x1FE PUSH1 0x4 DUP1 CALLDATASIZE SUB DUP2 ADD SWAP1 PUSH2 0x1F9 SWAP2 SWAP1 PUSH2 0xD6F JUMP JUMPDEST PUSH2 0x8C6 JUMP JUMPDEST STOP JUMPDEST PUSH2 0x21A PUSH1 0x4 DUP1 CALLDATASIZE SUB DUP2 ADD SWAP1 PUSH2 0x215 SWAP2 SWAP1 PUSH2 0xCA6 JUMP JUMPDEST PUSH2 0x9D8 JUMP JUMPDEST PUSH1 0x40 MLOAD PUSH2 0x227 SWAP2 SWAP1 PUSH2 0x10EB JUMP JUMPDEST PUSH1 0x40 MLOAD DUP1 SWAP2 SUB SWAP1 RETURN JUMPDEST PUSH2 0x24A PUSH1 0x4 DUP1 CALLDATASIZE SUB DUP2 ADD SWAP1 PUSH2 0x245 SWAP2 SWAP1 PUSH2 0xD9C JUMP JUMPDEST PUSH2 0x9F0 JUMP JUMPDEST STOP JUMPDEST PUSH1 0x0 DUP1 CALLER PUSH1 0x0 DUP1 CALLER PUSH20 0xFFFFFFFFFFFFFFFFFFFFFFFFFFFFFFFFFFFFFFFF AND PUSH20 0xFFFFFFFFFFFFFFFFFFFFFFFFFFFFFFFFFFFFFFFF AND DUP2 MSTORE PUSH1 0x20 ADD SWAP1 DUP2 MSTORE PUSH1 0x20 ADD PUSH1 0x0 KECCAK256 SLOAD SWAP2 POP SWAP2 POP SWAP1 SWAP2 JUMP JUMPDEST DUP1 PUSH1 0x0 DUP1 CALLER PUSH20 0xFFFFFFFFFFFFFFFFFFFFFFFFFFFFFFFFFFFFFFFF AND PUSH20 0xFFFFFFFFFFFFFFFFFFFFFFFFFFFFFFFFFFFFFFFF AND DUP2 MSTORE PUSH1 0x20 ADD SWAP1 DUP2 MSTORE PUSH1 0x20 ADD PUSH1 0x0 KECCAK256 PUSH1 0x0 DUP3 DUP3 SLOAD PUSH2 0x2E5 SWAP2 SWAP1 PUSH2 0x1178 JUMP JUMPDEST SWAP3 POP POP DUP2 SWAP1 SSTORE POP PUSH2 0x2F4 PUSH2 0x24C JUMP JUMPDEST POP POP POP JUMP JUMPDEST CALLER PUSH20 0xFFFFFFFFFFFFFFFFFFFFFFFFFFFFFFFFFFFFFFFF AND PUSH32 0x0 PUSH20 0xFFFFFFFFFFFFFFFFFFFFFFFFFFFFFFFFFFFFFFFF AND EQ PUSH2 0x387 JUMPI PUSH1 0x40 MLOAD PUSH32 0x8C379A000000000000000000000000000000000000000000000000000000000 DUP2 MSTORE PUSH1 0x4 ADD PUSH2 0x37E SWAP1 PUSH2 0x100B JUMP JUMPDEST PUSH1 0x40 MLOAD DUP1 SWAP2 SUB SWAP1 REVERT JUMPDEST PUSH1 0x0 PUSH1 0x1 DUP5 DUP2 SLOAD DUP2 LT PUSH2 0x39D JUMPI PUSH2 0x39C PUSH2 0x1341 JUMP JUMPDEST JUMPDEST SWAP1 PUSH1 0x0 MSTORE PUSH1 0x20 PUSH1 0x0 KECCAK256 SWAP1 PUSH1 0x2 MUL ADD SWAP1 POP DUP3 DUP2 PUSH1 0x0 ADD SWAP1 DUP1 MLOAD SWAP1 PUSH1 0x20 ADD SWAP1 PUSH2 0x3C5 SWAP3 SWAP2 SWAP1 PUSH2 0xB29 JUMP JUMPDEST POP DUP2 DUP2 PUSH1 0x1 ADD DUP2 SWAP1 SSTORE POP POP POP POP POP JUMP JUMPDEST PUSH32 0x0 DUP2 JUMP JUMPDEST PUSH1 0x1 DUP2 DUP2 SLOAD DUP2 LT PUSH2 0x409 JUMPI PUSH1 0x0 DUP1 REVERT JUMPDEST SWAP1 PUSH1 0x0 MSTORE PUSH1 0x20 PUSH1 0x0 KECCAK256 SWAP1 PUSH1 0x2 MUL ADD PUSH1 0x0 SWAP2 POP SWAP1 POP DUP1 PUSH1 0x0 ADD DUP1 SLOAD PUSH2 0x42C SWAP1 PUSH2 0x1280 JUMP JUMPDEST DUP1 PUSH1 0x1F ADD PUSH1 0x20 DUP1 SWAP2 DIV MUL PUSH1 0x20 ADD PUSH1 0x40 MLOAD SWAP1 DUP2 ADD PUSH1 0x40 MSTORE DUP1 SWAP3 SWAP2 SWAP1 DUP2 DUP2 MSTORE PUSH1 0x20 ADD DUP3 DUP1 SLOAD PUSH2 0x458 SWAP1 PUSH2 0x1280 JUMP JUMPDEST DUP1 ISZERO PUSH2 0x4A5 JUMPI DUP1 PUSH1 0x1F LT PUSH2 0x47A JUMPI PUSH2 0x100 DUP1 DUP4 SLOAD DIV MUL DUP4 MSTORE SWAP2 PUSH1 0x20 ADD SWAP2 PUSH2 0x4A5 JUMP JUMPDEST DUP3 ADD SWAP2 SWAP1 PUSH1 0x0 MSTORE PUSH1 0x20 PUSH1 0x0 KECCAK256 SWAP1 JUMPDEST DUP2 SLOAD DUP2 MSTORE SWAP1 PUSH1 0x1 ADD SWAP1 PUSH1 0x20 ADD DUP1 DUP4 GT PUSH2 0x488 JUMPI DUP3 SWAP1 SUB PUSH1 0x1F AND DUP3 ADD SWAP2 JUMPDEST POP POP POP POP POP SWAP1 DUP1 PUSH1 0x1 ADD SLOAD SWAP1 POP DUP3 JUMP JUMPDEST CALLER PUSH20 0xFFFFFFFFFFFFFFFFFFFFFFFFFFFFFFFFFFFFFFFF AND PUSH32 0x0 PUSH20 0xFFFFFFFFFFFFFFFFFFFFFFFFFFFFFFFFFFFFFFFF AND EQ PUSH2 0x543 JUMPI PUSH1 0x40 MLOAD PUSH32 0x8C379A000000000000000000000000000000000000000000000000000000000 DUP2 MSTORE PUSH1 0x4 ADD PUSH2 0x53A SWAP1 PUSH2 0x106B JUMP JUMPDEST PUSH1 0x40 MLOAD DUP1 SWAP2 SUB SWAP1 REVERT JUMPDEST PUSH1 0x1 PUSH1 0x40 MLOAD DUP1 PUSH1 0x40 ADD PUSH1 0x40 MSTORE DUP1 DUP5 DUP2 MSTORE PUSH1 0x20 ADD DUP4 DUP2 MSTORE POP SWAP1 DUP1 PUSH1 0x1 DUP2 SLOAD ADD DUP1 DUP3 SSTORE DUP1 SWAP2 POP POP PUSH1 0x1 SWAP1 SUB SWAP1 PUSH1 0x0 MSTORE PUSH1 0x20 PUSH1 0x0 KECCAK256 SWAP1 PUSH1 0x2 MUL ADD PUSH1 0x0 SWAP1 SWAP2 SWAP1 SWAP2 SWAP1 SWAP2 POP PUSH1 0x0 DUP3 ADD MLOAD DUP2 PUSH1 0x0 ADD SWAP1 DUP1 MLOAD SWAP1 PUSH1 0x20 ADD SWAP1 PUSH2 0x59F SWAP3 SWAP2 SWAP1 PUSH2 0xB29 JUMP JUMPDEST POP PUSH1 0x20 DUP3 ADD MLOAD DUP2 PUSH1 0x1 ADD SSTORE POP POP PUSH32 0x14D49E3EA4F348B7F368906DFE1A63055C7822D622A61672A35A55AE97A768F9 DUP3 DUP3 PUSH1 0x40 MLOAD PUSH2 0x5DD SWAP3 SWAP2 SWAP1 PUSH2 0xFDB JUMP JUMPDEST PUSH1 0x40 MLOAD DUP1 SWAP2 SUB SWAP1 LOG1 POP POP JUMP JUMPDEST PUSH1 0x60 PUSH1 0x0 DUP1 PUSH1 0x1 DUP5 DUP2 SLOAD DUP2 LT PUSH2 0x602 JUMPI PUSH2 0x601 PUSH2 0x1341 JUMP JUMPDEST JUMPDEST SWAP1 PUSH1 0x0 MSTORE PUSH1 0x20 PUSH1 0x0 KECCAK256 SWAP1 PUSH1 0x2 MUL ADD SWAP1 POP PUSH1 0x0 DUP2 PUSH1 0x1 ADD SLOAD EQ PUSH2 0x659 JUMPI PUSH1 0x40 MLOAD PUSH32 0x8C379A000000000000000000000000000000000000000000000000000000000 DUP2 MSTORE PUSH1 0x4 ADD PUSH2 0x650 SWAP1 PUSH2 0x10CB JUMP JUMPDEST PUSH1 0x40 MLOAD DUP1 SWAP2 SUB SWAP1 REVERT JUMPDEST DUP1 PUSH1 0x0 ADD DUP2 PUSH1 0x1 ADD SLOAD DUP2 DUP1 SLOAD PUSH2 0x66E SWAP1 PUSH2 0x1280 JUMP JUMPDEST DUP1 PUSH1 0x1F ADD PUSH1 0x20 DUP1 SWAP2 DIV MUL PUSH1 0x20 ADD PUSH1 0x40 MLOAD SWAP1 DUP2 ADD PUSH1 0x40 MSTORE DUP1 SWAP3 SWAP2 SWAP1 DUP2 DUP2 MSTORE PUSH1 0x20 ADD DUP3 DUP1 SLOAD PUSH2 0x69A SWAP1 PUSH2 0x1280 JUMP JUMPDEST DUP1 ISZERO PUSH2 0x6E7 JUMPI DUP1 PUSH1 0x1F LT PUSH2 0x6BC JUMPI PUSH2 0x100 DUP1 DUP4 SLOAD DIV MUL DUP4 MSTORE SWAP2 PUSH1 0x20 ADD SWAP2 PUSH2 0x6E7 JUMP JUMPDEST DUP3 ADD SWAP2 SWAP1 PUSH1 0x0 MSTORE PUSH1 0x20 PUSH1 0x0 KECCAK256 SWAP1 JUMPDEST DUP2 SLOAD DUP2 MSTORE SWAP1 PUSH1 0x1 ADD SWAP1 PUSH1 0x20 ADD DUP1 DUP4 GT PUSH2 0x6CA JUMPI DUP3 SWAP1 SUB PUSH1 0x1F AND DUP3 ADD SWAP2 JUMPDEST POP POP POP POP POP SWAP2 POP SWAP3 POP SWAP3 POP POP SWAP2 POP SWAP2 JUMP JUMPDEST PUSH1 0x0 DUP1 PUSH1 0x0 CALLER PUSH20 0xFFFFFFFFFFFFFFFFFFFFFFFFFFFFFFFFFFFFFFFF AND PUSH20 0xFFFFFFFFFFFFFFFFFFFFFFFFFFFFFFFFFFFFFFFF AND DUP2 MSTORE PUSH1 0x20 ADD SWAP1 DUP2 MSTORE PUSH1 0x20 ADD PUSH1 0x0 KECCAK256 SLOAD EQ PUSH2 0x779 JUMPI PUSH1 0x40 MLOAD PUSH32 0x8C379A000000000000000000000000000000000000000000000000000000000 DUP2 MSTORE PUSH1 0x4 ADD PUSH2 0x770 SWAP1 PUSH2 0x102B JUMP JUMPDEST PUSH1 0x40 MLOAD DUP1 SWAP2 SUB SWAP1 REVERT JUMPDEST DUP1 PUSH1 0x0 DUP1 CALLER PUSH20 0xFFFFFFFFFFFFFFFFFFFFFFFFFFFFFFFFFFFFFFFF AND PUSH20 0xFFFFFFFFFFFFFFFFFFFFFFFFFFFFFFFFFFFFFFFF AND DUP2 MSTORE PUSH1 0x20 ADD SWAP1 DUP2 MSTORE PUSH1 0x20 ADD PUSH1 0x0 KECCAK256 DUP2 SWAP1 SSTORE POP PUSH31 0x7DC6AB80CC84C043B7B8D4FCAFC802187470087F7EA7FCCD2E17AECD0256A1 DUP3 DUP3 PUSH1 0x40 MLOAD PUSH2 0x7EC SWAP3 SWAP2 SWAP1 PUSH2 0xFB2 JUMP JUMPDEST PUSH1 0x40 MLOAD DUP1 SWAP2 SUB SWAP1 LOG1 POP POP JUMP JUMPDEST CALLER PUSH20 0xFFFFFFFFFFFFFFFFFFFFFFFFFFFFFFFFFFFFFFFF AND PUSH32 0x0 PUSH20 0xFFFFFFFFFFFFFFFFFFFFFFFFFFFFFFFFFFFFFFFF AND EQ PUSH2 0x886 JUMPI PUSH1 0x40 MLOAD PUSH32 0x8C379A000000000000000000000000000000000000000000000000000000000 DUP2 MSTORE PUSH1 0x4 ADD PUSH2 0x87D SWAP1 PUSH2 0x10AB JUMP JUMPDEST PUSH1 0x40 MLOAD DUP1 SWAP2 SUB SWAP1 REVERT JUMPDEST PUSH1 0x1 DUP2 DUP2 SLOAD DUP2 LT PUSH2 0x89A JUMPI PUSH2 0x899 PUSH2 0x1341 JUMP JUMPDEST JUMPDEST SWAP1 PUSH1 0x0 MSTORE PUSH1 0x20 PUSH1 0x0 KECCAK256 SWAP1 PUSH1 0x2 MUL ADD PUSH1 0x0 DUP1 DUP3 ADD PUSH1 0x0 PUSH2 0x8B9 SWAP2 SWAP1 PUSH2 0xBAF JUMP JUMPDEST PUSH1 0x1 DUP3 ADD PUSH1 0x0 SWAP1 SSTORE POP POP POP JUMP JUMPDEST PUSH1 0x0 PUSH1 0x1 DUP3 DUP2 SLOAD DUP2 LT PUSH2 0x8DC JUMPI PUSH2 0x8DB PUSH2 0x1341 JUMP JUMPDEST JUMPDEST SWAP1 PUSH1 0x0 MSTORE PUSH1 0x20 PUSH1 0x0 KECCAK256 SWAP1 PUSH1 0x2 MUL ADD SWAP1 POP DUP1 PUSH1 0x1 ADD SLOAD PUSH1 0x0 DUP1 CALLER PUSH20 0xFFFFFFFFFFFFFFFFFFFFFFFFFFFFFFFFFFFFFFFF AND PUSH20 0xFFFFFFFFFFFFFFFFFFFFFFFFFFFFFFFFFFFFFFFF AND DUP2 MSTORE PUSH1 0x20 ADD SWAP1 DUP2 MSTORE PUSH1 0x20 ADD PUSH1 0x0 KECCAK256 SLOAD LT ISZERO PUSH2 0x971 JUMPI PUSH1 0x40 MLOAD PUSH32 0x8C379A000000000000000000000000000000000000000000000000000000000 DUP2 MSTORE PUSH1 0x4 ADD PUSH2 0x968 SWAP1 PUSH2 0x108B JUMP JUMPDEST PUSH1 0x40 MLOAD DUP1 SWAP2 SUB SWAP1 REVERT JUMPDEST DUP1 PUSH1 0x1 ADD SLOAD PUSH1 0x0 DUP1 CALLER PUSH20 0xFFFFFFFFFFFFFFFFFFFFFFFFFFFFFFFFFFFFFFFF AND PUSH20 0xFFFFFFFFFFFFFFFFFFFFFFFFFFFFFFFFFFFFFFFF AND DUP2 MSTORE PUSH1 0x20 ADD SWAP1 DUP2 MSTORE PUSH1 0x20 ADD PUSH1 0x0 KECCAK256 PUSH1 0x0 DUP3 DUP3 SLOAD PUSH2 0x9C3 SWAP2 SWAP1 PUSH2 0x11CE JUMP JUMPDEST SWAP3 POP POP DUP2 SWAP1 SSTORE POP PUSH2 0x9D2 PUSH2 0x24C JUMP JUMPDEST POP POP POP POP JUMP JUMPDEST PUSH1 0x0 PUSH1 0x20 MSTORE DUP1 PUSH1 0x0 MSTORE PUSH1 0x40 PUSH1 0x0 KECCAK256 PUSH1 0x0 SWAP2 POP SWAP1 POP SLOAD DUP2 JUMP JUMPDEST DUP2 PUSH1 0x0 DUP1 CALLER PUSH20 0xFFFFFFFFFFFFFFFFFFFFFFFFFFFFFFFFFFFFFFFF AND PUSH20 0xFFFFFFFFFFFFFFFFFFFFFFFFFFFFFFFFFFFFFFFF AND DUP2 MSTORE PUSH1 0x20 ADD SWAP1 DUP2 MSTORE PUSH1 0x20 ADD PUSH1 0x0 KECCAK256 SLOAD LT ISZERO PUSH2 0xA71 JUMPI PUSH1 0x40 MLOAD PUSH32 0x8C379A000000000000000000000000000000000000000000000000000000000 DUP2 MSTORE PUSH1 0x4 ADD PUSH2 0xA68 SWAP1 PUSH2 0x104B JUMP JUMPDEST PUSH1 0x40 MLOAD DUP1 SWAP2 SUB SWAP1 REVERT JUMPDEST DUP2 PUSH1 0x0 DUP1 CALLER PUSH20 0xFFFFFFFFFFFFFFFFFFFFFFFFFFFFFFFFFFFFFFFF AND PUSH20 0xFFFFFFFFFFFFFFFFFFFFFFFFFFFFFFFFFFFFFFFF AND DUP2 MSTORE PUSH1 0x20 ADD SWAP1 DUP2 MSTORE PUSH1 0x20 ADD PUSH1 0x0 KECCAK256 PUSH1 0x0 DUP3 DUP3 SLOAD PUSH2 0xABF SWAP2 SWAP1 PUSH2 0x11CE JUMP JUMPDEST SWAP3 POP POP DUP2 SWAP1 SSTORE POP DUP2 PUSH1 0x0 DUP1 DUP4 PUSH20 0xFFFFFFFFFFFFFFFFFFFFFFFFFFFFFFFFFFFFFFFF AND PUSH20 0xFFFFFFFFFFFFFFFFFFFFFFFFFFFFFFFFFFFFFFFF AND DUP2 MSTORE PUSH1 0x20 ADD SWAP1 DUP2 MSTORE PUSH1 0x20 ADD PUSH1 0x0 KECCAK256 PUSH1 0x0 DUP3 DUP3 SLOAD PUSH2 0xB14 SWAP2 SWAP1 PUSH2 0x1178 JUMP JUMPDEST SWAP3 POP POP DUP2 SWAP1 SSTORE POP PUSH2 0xB23 PUSH2 0x24C JUMP JUMPDEST POP POP POP POP JUMP JUMPDEST DUP3 DUP1 SLOAD PUSH2 0xB35 SWAP1 PUSH2 0x1280 JUMP JUMPDEST SWAP1 PUSH1 0x0 MSTORE PUSH1 0x20 PUSH1 0x0 KECCAK256 SWAP1 PUSH1 0x1F ADD PUSH1 0x20 SWAP1 DIV DUP2 ADD SWAP3 DUP3 PUSH2 0xB57 JUMPI PUSH1 0x0 DUP6 SSTORE PUSH2 0xB9E JUMP JUMPDEST DUP3 PUSH1 0x1F LT PUSH2 0xB70 JUMPI DUP1 MLOAD PUSH1 0xFF NOT AND DUP4 DUP1 ADD OR DUP6 SSTORE PUSH2 0xB9E JUMP JUMPDEST DUP3 DUP1 ADD PUSH1 0x1 ADD DUP6 SSTORE DUP3 ISZERO PUSH2 0xB9E JUMPI SWAP2 DUP3 ADD JUMPDEST DUP3 DUP2 GT ISZERO PUSH2 0xB9D JUMPI DUP3 MLOAD DUP3 SSTORE SWAP2 PUSH1 0x20 ADD SWAP2 SWAP1 PUSH1 0x1 ADD SWAP1 PUSH2 0xB82 JUMP JUMPDEST JUMPDEST POP SWAP1 POP PUSH2 0xBAB SWAP2 SWAP1 PUSH2 0xBEF JUMP JUMPDEST POP SWAP1 JUMP JUMPDEST POP DUP1 SLOAD PUSH2 0xBBB SWAP1 PUSH2 0x1280 JUMP JUMPDEST PUSH1 0x0 DUP3 SSTORE DUP1 PUSH1 0x1F LT PUSH2 0xBCD JUMPI POP PUSH2 0xBEC JUMP JUMPDEST PUSH1 0x1F ADD PUSH1 0x20 SWAP1 DIV SWAP1 PUSH1 0x0 MSTORE PUSH1 0x20 PUSH1 0x0 KECCAK256 SWAP1 DUP2 ADD SWAP1 PUSH2 0xBEB SWAP2 SWAP1 PUSH2 0xBEF JUMP JUMPDEST JUMPDEST POP JUMP JUMPDEST JUMPDEST DUP1 DUP3 GT ISZERO PUSH2 0xC08 JUMPI PUSH1 0x0 DUP2 PUSH1 0x0 SWAP1 SSTORE POP PUSH1 0x1 ADD PUSH2 0xBF0 JUMP JUMPDEST POP SWAP1 JUMP JUMPDEST PUSH1 0x0 PUSH2 0xC1F PUSH2 0xC1A DUP5 PUSH2 0x112B JUMP JUMPDEST PUSH2 0x1106 JUMP JUMPDEST SWAP1 POP DUP3 DUP2 MSTORE PUSH1 0x20 DUP2 ADD DUP5 DUP5 DUP5 ADD GT ISZERO PUSH2 0xC3B JUMPI PUSH2 0xC3A PUSH2 0x13A4 JUMP JUMPDEST JUMPDEST PUSH2 0xC46 DUP5 DUP3 DUP6 PUSH2 0x123E JUMP JUMPDEST POP SWAP4 SWAP3 POP POP POP JUMP JUMPDEST PUSH1 0x0 DUP2 CALLDATALOAD SWAP1 POP PUSH2 0xC5D DUP2 PUSH2 0x15A1 JUMP JUMPDEST SWAP3 SWAP2 POP POP JUMP JUMPDEST PUSH1 0x0 DUP3 PUSH1 0x1F DUP4 ADD SLT PUSH2 0xC78 JUMPI PUSH2 0xC77 PUSH2 0x139F JUMP JUMPDEST JUMPDEST DUP2 CALLDATALOAD PUSH2 0xC88 DUP5 DUP3 PUSH1 0x20 DUP7 ADD PUSH2 0xC0C JUMP JUMPDEST SWAP2 POP POP SWAP3 SWAP2 POP POP JUMP JUMPDEST PUSH1 0x0 DUP2 CALLDATALOAD SWAP1 POP PUSH2 0xCA0 DUP2 PUSH2 0x15B8 JUMP JUMPDEST SWAP3 SWAP2 POP POP JUMP JUMPDEST PUSH1 0x0 PUSH1 0x20 DUP3 DUP5 SUB SLT ISZERO PUSH2 0xCBC JUMPI PUSH2 0xCBB PUSH2 0x13AE JUMP JUMPDEST JUMPDEST PUSH1 0x0 PUSH2 0xCCA DUP5 DUP3 DUP6 ADD PUSH2 0xC4E JUMP JUMPDEST SWAP2 POP POP SWAP3 SWAP2 POP POP JUMP JUMPDEST PUSH1 0x0 DUP1 PUSH1 0x40 DUP4 DUP6 SUB SLT ISZERO PUSH2 0xCEA JUMPI PUSH2 0xCE9 PUSH2 0x13AE JUMP JUMPDEST JUMPDEST PUSH1 0x0 PUSH2 0xCF8 DUP6 DUP3 DUP7 ADD PUSH2 0xC4E JUMP JUMPDEST SWAP3 POP POP PUSH1 0x20 PUSH2 0xD09 DUP6 DUP3 DUP7 ADD PUSH2 0xC91 JUMP JUMPDEST SWAP2 POP POP SWAP3 POP SWAP3 SWAP1 POP JUMP JUMPDEST PUSH1 0x0 DUP1 PUSH1 0x40 DUP4 DUP6 SUB SLT ISZERO PUSH2 0xD2A JUMPI PUSH2 0xD29 PUSH2 0x13AE JUMP JUMPDEST JUMPDEST PUSH1 0x0 DUP4 ADD CALLDATALOAD PUSH8 0xFFFFFFFFFFFFFFFF DUP2 GT ISZERO PUSH2 0xD48 JUMPI PUSH2 0xD47 PUSH2 0x13A9 JUMP JUMPDEST JUMPDEST PUSH2 0xD54 DUP6 DUP3 DUP7 ADD PUSH2 0xC63 JUMP JUMPDEST SWAP3 POP POP PUSH1 0x20 PUSH2 0xD65 DUP6 DUP3 DUP7 ADD PUSH2 0xC91 JUMP JUMPDEST SWAP2 POP POP SWAP3 POP SWAP3 SWAP1 POP JUMP JUMPDEST PUSH1 0x0 PUSH1 0x20 DUP3 DUP5 SUB SLT ISZERO PUSH2 0xD85 JUMPI PUSH2 0xD84 PUSH2 0x13AE JUMP JUMPDEST JUMPDEST PUSH1 0x0 PUSH2 0xD93 DUP5 DUP3 DUP6 ADD PUSH2 0xC91 JUMP JUMPDEST SWAP2 POP POP SWAP3 SWAP2 POP POP JUMP JUMPDEST PUSH1 0x0 DUP1 PUSH1 0x40 DUP4 DUP6 SUB SLT ISZERO PUSH2 0xDB3 JUMPI PUSH2 0xDB2 PUSH2 0x13AE JUMP JUMPDEST JUMPDEST PUSH1 0x0 PUSH2 0xDC1 DUP6 DUP3 DUP7 ADD PUSH2 0xC91 JUMP JUMPDEST SWAP3 POP POP PUSH1 0x20 PUSH2 0xDD2 DUP6 DUP3 DUP7 ADD PUSH2 0xC4E JUMP JUMPDEST SWAP2 POP POP SWAP3 POP SWAP3 SWAP1 POP JUMP JUMPDEST PUSH1 0x0 DUP1 PUSH1 0x0 PUSH1 0x60 DUP5 DUP7 SUB SLT ISZERO PUSH2 0xDF5 JUMPI PUSH2 0xDF4 PUSH2 0x13AE JUMP JUMPDEST JUMPDEST PUSH1 0x0 PUSH2 0xE03 DUP7 DUP3 DUP8 ADD PUSH2 0xC91 JUMP JUMPDEST SWAP4 POP POP PUSH1 0x20 DUP5 ADD CALLDATALOAD PUSH8 0xFFFFFFFFFFFFFFFF DUP2 GT ISZERO PUSH2 0xE24 JUMPI PUSH2 0xE23 PUSH2 0x13A9 JUMP JUMPDEST JUMPDEST PUSH2 0xE30 DUP7 DUP3 DUP8 ADD PUSH2 0xC63 JUMP JUMPDEST SWAP3 POP POP PUSH1 0x40 PUSH2 0xE41 DUP7 DUP3 DUP8 ADD PUSH2 0xC91 JUMP JUMPDEST SWAP2 POP POP SWAP3 POP SWAP3 POP SWAP3 JUMP JUMPDEST PUSH2 0xE54 DUP2 PUSH2 0x1202 JUMP JUMPDEST DUP3 MSTORE POP POP JUMP JUMPDEST PUSH1 0x0 PUSH2 0xE65 DUP3 PUSH2 0x115C JUMP JUMPDEST PUSH2 0xE6F DUP2 DUP6 PUSH2 0x1167 JUMP JUMPDEST SWAP4 POP PUSH2 0xE7F DUP2 DUP6 PUSH1 0x20 DUP7 ADD PUSH2 0x124D JUMP JUMPDEST PUSH2 0xE88 DUP2 PUSH2 0x13B3 JUMP JUMPDEST DUP5 ADD SWAP2 POP POP SWAP3 SWAP2 POP POP JUMP JUMPDEST PUSH1 0x0 PUSH2 0xEA0 PUSH1 0x34 DUP4 PUSH2 0x1167 JUMP JUMPDEST SWAP2 POP PUSH2 0xEAB DUP3 PUSH2 0x13C4 JUMP JUMPDEST PUSH1 0x40 DUP3 ADD SWAP1 POP SWAP2 SWAP1 POP JUMP JUMPDEST PUSH1 0x0 PUSH2 0xEC3 PUSH1 0x25 DUP4 PUSH2 0x1167 JUMP JUMPDEST SWAP2 POP PUSH2 0xECE DUP3 PUSH2 0x1413 JUMP JUMPDEST PUSH1 0x40 DUP3 ADD SWAP1 POP SWAP2 SWAP1 POP JUMP JUMPDEST PUSH1 0x0 PUSH2 0xEE6 PUSH1 0x2E DUP4 PUSH2 0x1167 JUMP JUMPDEST SWAP2 POP PUSH2 0xEF1 DUP3 PUSH2 0x1462 JUMP JUMPDEST PUSH1 0x40 DUP3 ADD SWAP1 POP SWAP2 SWAP1 POP JUMP JUMPDEST PUSH1 0x0 PUSH2 0xF09 PUSH1 0x30 DUP4 PUSH2 0x1167 JUMP JUMPDEST SWAP2 POP PUSH2 0xF14 DUP3 PUSH2 0x14B1 JUMP JUMPDEST PUSH1 0x40 DUP3 ADD SWAP1 POP SWAP2 SWAP1 POP JUMP JUMPDEST PUSH1 0x0 PUSH2 0xF2C PUSH1 0x1E DUP4 PUSH2 0x1167 JUMP JUMPDEST SWAP2 POP PUSH2 0xF37 DUP3 PUSH2 0x1500 JUMP JUMPDEST PUSH1 0x20 DUP3 ADD SWAP1 POP SWAP2 SWAP1 POP JUMP JUMPDEST PUSH1 0x0 PUSH2 0xF4F PUSH1 0x33 DUP4 PUSH2 0x1167 JUMP JUMPDEST SWAP2 POP PUSH2 0xF5A DUP3 PUSH2 0x1529 JUMP JUMPDEST PUSH1 0x40 DUP3 ADD SWAP1 POP SWAP2 SWAP1 POP JUMP JUMPDEST PUSH1 0x0 PUSH2 0xF72 PUSH1 0x1E DUP4 PUSH2 0x1167 JUMP JUMPDEST SWAP2 POP PUSH2 0xF7D DUP3 PUSH2 0x1578 JUMP JUMPDEST PUSH1 0x20 DUP3 ADD SWAP1 POP SWAP2 SWAP1 POP JUMP JUMPDEST PUSH2 0xF91 DUP2 PUSH2 0x1234 JUMP JUMPDEST DUP3 MSTORE POP POP JUMP JUMPDEST PUSH1 0x0 PUSH1 0x20 DUP3 ADD SWAP1 POP PUSH2 0xFAC PUSH1 0x0 DUP4 ADD DUP5 PUSH2 0xE4B JUMP JUMPDEST SWAP3 SWAP2 POP POP JUMP JUMPDEST PUSH1 0x0 PUSH1 0x40 DUP3 ADD SWAP1 POP PUSH2 0xFC7 PUSH1 0x0 DUP4 ADD DUP6 PUSH2 0xE4B JUMP JUMPDEST PUSH2 0xFD4 PUSH1 0x20 DUP4 ADD DUP5 PUSH2 0xF88 JUMP JUMPDEST SWAP4 SWAP3 POP POP POP JUMP JUMPDEST PUSH1 0x0 PUSH1 0x40 DUP3 ADD SWAP1 POP DUP2 DUP2 SUB PUSH1 0x0 DUP4 ADD MSTORE PUSH2 0xFF5 DUP2 DUP6 PUSH2 0xE5A JUMP JUMPDEST SWAP1 POP PUSH2 0x1004 PUSH1 0x20 DUP4 ADD DUP5 PUSH2 0xF88 JUMP JUMPDEST SWAP4 SWAP3 POP POP POP JUMP JUMPDEST PUSH1 0x0 PUSH1 0x20 DUP3 ADD SWAP1 POP DUP2 DUP2 SUB PUSH1 0x0 DUP4 ADD MSTORE PUSH2 0x1024 DUP2 PUSH2 0xE93 JUMP JUMPDEST SWAP1 POP SWAP2 SWAP1 POP JUMP JUMPDEST PUSH1 0x0 PUSH1 0x20 DUP3 ADD SWAP1 POP DUP2 DUP2 SUB PUSH1 0x0 DUP4 ADD MSTORE PUSH2 0x1044 DUP2 PUSH2 0xEB6 JUMP JUMPDEST SWAP1 POP SWAP2 SWAP1 POP JUMP JUMPDEST PUSH1 0x0 PUSH1 0x20 DUP3 ADD SWAP1 POP DUP2 DUP2 SUB PUSH1 0x0 DUP4 ADD MSTORE PUSH2 0x1064 DUP2 PUSH2 0xED9 JUMP JUMPDEST SWAP1 POP SWAP2 SWAP1 POP JUMP JUMPDEST PUSH1 0x0 PUSH1 0x20 DUP3 ADD SWAP1 POP DUP2 DUP2 SUB PUSH1 0x0 DUP4 ADD MSTORE PUSH2 0x1084 DUP2 PUSH2 0xEFC JUMP JUMPDEST SWAP1 POP SWAP2 SWAP1 POP JUMP JUMPDEST PUSH1 0x0 PUSH1 0x20 DUP3 ADD SWAP1 POP DUP2 DUP2 SUB PUSH1 0x0 DUP4 ADD MSTORE PUSH2 0x10A4 DUP2 PUSH2 0xF1F JUMP JUMPDEST SWAP1 POP SWAP2 SWAP1 POP JUMP JUMPDEST PUSH1 0x0 PUSH1 0x20 DUP3 ADD SWAP1 POP DUP2 DUP2 SUB PUSH1 0x0 DUP4 ADD MSTORE PUSH2 0x10C4 DUP2 PUSH2 0xF42 JUMP JUMPDEST SWAP1 POP SWAP2 SWAP1 POP JUMP JUMPDEST PUSH1 0x0 PUSH1 0x20 DUP3 ADD SWAP1 POP DUP2 DUP2 SUB PUSH1 0x0 DUP4 ADD MSTORE PUSH2 0x10E4 DUP2 PUSH2 0xF65 JUMP JUMPDEST SWAP1 POP SWAP2 SWAP1 POP JUMP JUMPDEST PUSH1 0x0 PUSH1 0x20 DUP3 ADD SWAP1 POP PUSH2 0x1100 PUSH1 0x0 DUP4 ADD DUP5 PUSH2 0xF88 JUMP JUMPDEST SWAP3 SWAP2 POP POP JUMP JUMPDEST PUSH1 0x0 PUSH2 0x1110 PUSH2 0x1121 JUMP JUMPDEST SWAP1 POP PUSH2 0x111C DUP3 DUP3 PUSH2 0x12B2 JUMP JUMPDEST SWAP2 SWAP1 POP JUMP JUMPDEST PUSH1 0x0 PUSH1 0x40 MLOAD SWAP1 POP SWAP1 JUMP JUMPDEST PUSH1 0x0 PUSH8 0xFFFFFFFFFFFFFFFF DUP3 GT ISZERO PUSH2 0x1146 JUMPI PUSH2 0x1145 PUSH2 0x1370 JUMP JUMPDEST JUMPDEST PUSH2 0x114F DUP3 PUSH2 0x13B3 JUMP JUMPDEST SWAP1 POP PUSH1 0x20 DUP2 ADD SWAP1 POP SWAP2 SWAP1 POP JUMP JUMPDEST PUSH1 0x0 DUP2 MLOAD SWAP1 POP SWAP2 SWAP1 POP JUMP JUMPDEST PUSH1 0x0 DUP3 DUP3 MSTORE PUSH1 0x20 DUP3 ADD SWAP1 POP SWAP3 SWAP2 POP POP JUMP JUMPDEST PUSH1 0x0 PUSH2 0x1183 DUP3 PUSH2 0x1234 JUMP JUMPDEST SWAP2 POP PUSH2 0x118E DUP4 PUSH2 0x1234 JUMP JUMPDEST SWAP3 POP DUP3 PUSH32 0xFFFFFFFFFFFFFFFFFFFFFFFFFFFFFFFFFFFFFFFFFFFFFFFFFFFFFFFFFFFFFFFF SUB DUP3 GT ISZERO PUSH2 0x11C3 JUMPI PUSH2 0x11C2 PUSH2 0x12E3 JUMP JUMPDEST JUMPDEST DUP3 DUP3 ADD SWAP1 POP SWAP3 SWAP2 POP POP JUMP JUMPDEST PUSH1 0x0 PUSH2 0x11D9 DUP3 PUSH2 0x1234 JUMP JUMPDEST SWAP2 POP PUSH2 0x11E4 DUP4 PUSH2 0x1234 JUMP JUMPDEST SWAP3 POP DUP3 DUP3 LT ISZERO PUSH2 0x11F7 JUMPI PUSH2 0x11F6 PUSH2 0x12E3 JUMP JUMPDEST JUMPDEST DUP3 DUP3 SUB SWAP1 POP SWAP3 SWAP2 POP POP JUMP JUMPDEST PUSH1 0x0 PUSH2 0x120D DUP3 PUSH2 0x1214 JUMP JUMPDEST SWAP1 POP SWAP2 SWAP1 POP JUMP JUMPDEST PUSH1 0x0 PUSH20 0xFFFFFFFFFFFFFFFFFFFFFFFFFFFFFFFFFFFFFFFF DUP3 AND SWAP1 POP SWAP2 SWAP1 POP JUMP JUMPDEST PUSH1 0x0 DUP2 SWAP1 POP SWAP2 SWAP1 POP JUMP JUMPDEST DUP3 DUP2 DUP4 CALLDATACOPY PUSH1 0x0 DUP4 DUP4 ADD MSTORE POP POP POP JUMP JUMPDEST PUSH1 0x0 JUMPDEST DUP4 DUP2 LT ISZERO PUSH2 0x126B JUMPI DUP1 DUP3 ADD MLOAD DUP2 DUP5 ADD MSTORE PUSH1 0x20 DUP2 ADD SWAP1 POP PUSH2 0x1250 JUMP JUMPDEST DUP4 DUP2 GT ISZERO PUSH2 0x127A JUMPI PUSH1 0x0 DUP5 DUP5 ADD MSTORE JUMPDEST POP POP POP POP JUMP JUMPDEST PUSH1 0x0 PUSH1 0x2 DUP3 DIV SWAP1 POP PUSH1 0x1 DUP3 AND DUP1 PUSH2 0x1298 JUMPI PUSH1 0x7F DUP3 AND SWAP2 POP JUMPDEST PUSH1 0x20 DUP3 LT DUP2 EQ ISZERO PUSH2 0x12AC JUMPI PUSH2 0x12AB PUSH2 0x1312 JUMP JUMPDEST JUMPDEST POP SWAP2 SWAP1 POP JUMP JUMPDEST PUSH2 0x12BB DUP3 PUSH2 0x13B3 JUMP JUMPDEST DUP2 ADD DUP2 DUP2 LT PUSH8 0xFFFFFFFFFFFFFFFF DUP3 GT OR ISZERO PUSH2 0x12DA JUMPI PUSH2 0x12D9 PUSH2 0x1370 JUMP JUMPDEST JUMPDEST DUP1 PUSH1 0x40 MSTORE POP POP POP JUMP JUMPDEST PUSH32 0x4E487B7100000000000000000000000000000000000000000000000000000000 PUSH1 0x0 MSTORE PUSH1 0x11 PUSH1 0x4 MSTORE PUSH1 0x24 PUSH1 0x0 REVERT JUMPDEST PUSH32 0x4E487B7100000000000000000000000000000000000000000000000000000000 PUSH1 0x0 MSTORE PUSH1 0x22 PUSH1 0x4 MSTORE PUSH1 0x24 PUSH1 0x0 REVERT JUMPDEST PUSH32 0x4E487B7100000000000000000000000000000000000000000000000000000000 PUSH1 0x0 MSTORE PUSH1 0x32 PUSH1 0x4 MSTORE PUSH1 0x24 PUSH1 0x0 REVERT JUMPDEST PUSH32 0x4E487B7100000000000000000000000000000000000000000000000000000000 PUSH1 0x0 MSTORE PUSH1 0x41 PUSH1 0x4 MSTORE PUSH1 0x24 PUSH1 0x0 REVERT JUMPDEST PUSH1 0x0 DUP1 REVERT JUMPDEST PUSH1 0x0 DUP1 REVERT JUMPDEST PUSH1 0x0 DUP1 REVERT JUMPDEST PUSH1 0x0 DUP1 REVERT JUMPDEST PUSH1 0x0 PUSH1 0x1F NOT PUSH1 0x1F DUP4 ADD AND SWAP1 POP SWAP2 SWAP1 POP JUMP JUMPDEST PUSH32 0x536F6C6F20656C2041646D696E6973747261646F722064656C2047796D207075 PUSH1 0x0 DUP3 ADD MSTORE PUSH32 0x656465206D6F6469666963617220636C61736573000000000000000000000000 PUSH1 0x20 DUP3 ADD MSTORE POP JUMP JUMPDEST PUSH32 0x596120746520656E6375656E74726173207265676973747261646F20656E2065 PUSH1 0x0 DUP3 ADD MSTORE PUSH32 0x6C2067796D000000000000000000000000000000000000000000000000000000 PUSH1 0x20 DUP3 ADD MSTORE POP JUMP JUMPDEST PUSH32 0x4E6F207469656E6573206372656469746F7320737566696369656E7465732070 PUSH1 0x0 DUP3 ADD MSTORE PUSH32 0x617261207472616E736665726972000000000000000000000000000000000000 PUSH1 0x20 DUP3 ADD MSTORE POP JUMP JUMPDEST PUSH32 0x536F6C6F20656C2041646D696E6973747261646F722064656C2047796D207075 PUSH1 0x0 DUP3 ADD MSTORE PUSH32 0x65646520637265617220636C6173657300000000000000000000000000000000 PUSH1 0x20 DUP3 ADD MSTORE POP JUMP JUMPDEST PUSH32 0x4E6F207469656E6573206372656469746F7320737566696369656E7465730000 PUSH1 0x0 DUP3 ADD MSTORE POP JUMP JUMPDEST PUSH32 0x536F6C6F20656C2041646D696E6973747261646F722064656C2047796D207075 PUSH1 0x0 DUP3 ADD MSTORE PUSH32 0x65646520656C696D696E617220636C6173657300000000000000000000000000 PUSH1 0x20 DUP3 ADD MSTORE POP JUMP JUMPDEST PUSH32 0x4E6F2065786973746520756E6120636C61736520636F6E206573652049640000 PUSH1 0x0 DUP3 ADD MSTORE POP JUMP JUMPDEST PUSH2 0x15AA DUP2 PUSH2 0x1202 JUMP JUMPDEST DUP2 EQ PUSH2 0x15B5 JUMPI PUSH1 0x0 DUP1 REVERT JUMPDEST POP JUMP JUMPDEST PUSH2 0x15C1 DUP2 PUSH2 0x1234 JUMP JUMPDEST DUP2 EQ PUSH2 0x15CC JUMPI PUSH1 0x0 DUP1 REVERT JUMPDEST POP JUMP INVALID LOG2 PUSH5 0x6970667358 0x22 SLT KECCAK256 MLOAD 0xB4 SUB PUSH12 0x7FC0D53805B29CEF12D9FFFD 0x4F CREATE 0xEB PUSH20 0xA090446B57ABD92CD6BED42F64736F6C63430008 SMOD STOP CALLER "
				},
				"gasEstimates": {
					"creation": {
						"codeDepositCost": "1127400",
						"executionCost": "infinite",
						"totalCost": "infinite"
					},
					"external": {
						"ADMIN()": "infinite",
						"class(uint256)": "infinite",
						"createClass(string,uint256)": "infinite",
						"getBalance()": "2689",
						"getClass(uint256)": "infinite",
						"getCredits(uint256)": "infinite",
						"register(address,uint256)": "infinite",
						"removeClass(uint256)": "infinite",
						"takeClass(uint256)": "infinite",
						"transferCredits(uint256,address)": "infinite",
						"updateClass(uint256,string,uint256)": "infinite",
						"users(address)": "2902"
					}
				},
				"methodIdentifiers": {
					"ADMIN()": "2a0acc6a",
					"class(uint256)": "3613a9f4",
					"createClass(string,uint256)": "4852a212",
					"getBalance()": "12065fe0",
					"getClass(uint256)": "512d62df",
					"getCredits(uint256)": "19389b95",
					"register(address,uint256)": "6d705ebb",
					"removeClass(uint256)": "72c30f45",
					"takeClass(uint256)": "7aed8136",
					"transferCredits(uint256,address)": "d93b2dd0",
					"updateClass(uint256,string,uint256)": "1e8be099",
					"users(address)": "a87430ba"
				}
			},
			"storageLayout": {
				"storage": [
					{
						"astId": 33,
						"contract": "contracts/Gym_Contact.sol:gym",
						"label": "users",
						"offset": 0,
						"slot": "0",
						"type": "t_mapping(t_address,t_uint256)"
					},
					{
						"astId": 37,
						"contract": "contracts/Gym_Contact.sol:gym",
						"label": "class",
						"offset": 0,
						"slot": "1",
						"type": "t_array(t_struct(Class)6_storage)dyn_storage"
					}
				],
				"types": {
					"t_address": {
						"encoding": "inplace",
						"label": "address",
						"numberOfBytes": "20"
					},
					"t_array(t_struct(Class)6_storage)dyn_storage": {
						"base": "t_struct(Class)6_storage",
						"encoding": "dynamic_array",
						"label": "struct gym.Class[]",
						"numberOfBytes": "32"
					},
					"t_mapping(t_address,t_uint256)": {
						"encoding": "mapping",
						"key": "t_address",
						"label": "mapping(address => uint256)",
						"numberOfBytes": "32",
						"value": "t_uint256"
					},
					"t_string_storage": {
						"encoding": "bytes",
						"label": "string",
						"numberOfBytes": "32"
					},
					"t_struct(Class)6_storage": {
						"encoding": "inplace",
						"label": "struct gym.Class",
						"members": [
							{
								"astId": 3,
								"contract": "contracts/Gym_Contact.sol:gym",
								"label": "name",
								"offset": 0,
								"slot": "0",
								"type": "t_string_storage"
							},
							{
								"astId": 5,
								"contract": "contracts/Gym_Contact.sol:gym",
								"label": "value",
								"offset": 0,
								"slot": "1",
								"type": "t_uint256"
							}
						],
						"numberOfBytes": "64"
					},
					"t_uint256": {
						"encoding": "inplace",
						"label": "uint256",
						"numberOfBytes": "32"
					}
				}
			},
			"userdoc": {
				"kind": "user",
				"methods": {},
				"version": 1
			}
		}
	}
}