{
	"contracts/Gym_Contact.sol": {
		"gym": {
			"abi": [
				{
					"inputs": [],
					"stateMutability": "nonpayable",
					"type": "constructor"
				},
				{
					"anonymous": false,
					"inputs": [
						{
							"indexed": false,
							"internalType": "string",
							"name": "name",
							"type": "string"
						},
						{
							"indexed": false,
							"internalType": "uint256",
							"name": "value",
							"type": "uint256"
						}
					],
					"name": "ClassCreated",
					"type": "event"
				},
				{
					"anonymous": false,
					"inputs": [
						{
							"indexed": false,
							"internalType": "address",
							"name": "user",
							"type": "address"
						},
						{
							"indexed": false,
							"internalType": "uint256",
							"name": "credits",
							"type": "uint256"
						}
					],
					"name": "Register",
					"type": "event"
				},
				{
					"inputs": [],
					"name": "ADMIN",
					"outputs": [
						{
							"internalType": "address",
							"name": "",
							"type": "address"
						}
					],
					"stateMutability": "view",
					"type": "function"
				},
				{
					"inputs": [
						{
							"internalType": "string",
							"name": "_name",
							"type": "string"
						},
						{
							"internalType": "uint256",
							"name": "_value",
							"type": "uint256"
						}
					],
					"name": "createClass",
					"outputs": [],
					"stateMutability": "nonpayable",
					"type": "function"
				},
				{
					"inputs": [
						{
							"internalType": "address",
							"name": "_address",
							"type": "address"
						},
						{
							"internalType": "uint256",
							"name": "_credits",
							"type": "uint256"
						}
					],
					"name": "register",
					"outputs": [],
					"stateMutability": "nonpayable",
					"type": "function"
				},
				{
					"inputs": [
						{
							"internalType": "address",
							"name": "",
							"type": "address"
						}
					],
					"name": "users",
					"outputs": [
						{
							"internalType": "uint256",
							"name": "",
							"type": "uint256"
						}
					],
					"stateMutability": "view",
					"type": "function"
				}
			],
			"devdoc": {
				"kind": "dev",
				"methods": {},
				"version": 1
			},
			"evm": {
				"assembly": "    /* \"contracts/Gym_Contact.sol\":70:1200  contract gym {\r... */\n  mstore(0x40, 0xa0)\n    /* \"contracts/Gym_Contact.sol\":389:440  constructor() {\r... */\n  callvalue\n  dup1\n  iszero\n  tag_1\n  jumpi\n  0x00\n  dup1\n  revert\ntag_1:\n  pop\n    /* \"contracts/Gym_Contact.sol\":422:432  msg.sender */\n  caller\n    /* \"contracts/Gym_Contact.sol\":414:432  ADMIN = msg.sender */\n  0xffffffffffffffffffffffffffffffffffffffff\n  and\n  0x80\n  dup2\n  0xffffffffffffffffffffffffffffffffffffffff\n  and\n  0x60\n  shl\n  dup2\n  mstore\n  pop\n  pop\n    /* \"contracts/Gym_Contact.sol\":70:1200  contract gym {\r... */\n  shr(0x60, mload(0x80))\n  codecopy(0x00, dataOffset(sub_0), dataSize(sub_0))\n  0x00\n  assignImmutable(\"0x731dc163f73d31d8c68f9917ce4ff967753939f70432973c04fd2c2a48148607\")\n  return(0x00, dataSize(sub_0))\nstop\n\nsub_0: assembly {\n        /* \"contracts/Gym_Contact.sol\":70:1200  contract gym {\r... */\n      mstore(0x40, 0x80)\n      callvalue\n      dup1\n      iszero\n      tag_1\n      jumpi\n      0x00\n      dup1\n      revert\n    tag_1:\n      pop\n      jumpi(tag_2, lt(calldatasize, 0x04))\n      shr(0xe0, calldataload(0x00))\n      dup1\n      0x2a0acc6a\n      eq\n      tag_3\n      jumpi\n      dup1\n      0x4852a212\n      eq\n      tag_4\n      jumpi\n      dup1\n      0x6d705ebb\n      eq\n      tag_5\n      jumpi\n      dup1\n      0xa87430ba\n      eq\n      tag_6\n      jumpi\n    tag_2:\n      0x00\n      dup1\n      revert\n        /* \"contracts/Gym_Contact.sol\":350:380  address immutable public ADMIN */\n    tag_3:\n      tag_7\n      tag_8\n      jump\t// in\n    tag_7:\n      mload(0x40)\n      tag_9\n      swap2\n      swap1\n      tag_10\n      jump\t// in\n    tag_9:\n      mload(0x40)\n      dup1\n      swap2\n      sub\n      swap1\n      return\n        /* \"contracts/Gym_Contact.sol\":571:814  function createClass(string memory _name, uint _value) public {\r... */\n    tag_4:\n      tag_11\n      0x04\n      dup1\n      calldatasize\n      sub\n      dup2\n      add\n      swap1\n      tag_12\n      swap2\n      swap1\n      tag_13\n      jump\t// in\n    tag_12:\n      tag_14\n      jump\t// in\n    tag_11:\n      stop\n        /* \"contracts/Gym_Contact.sol\":852:1197  function register(address _address, uint _credits) public {\r... */\n    tag_5:\n      tag_15\n      0x04\n      dup1\n      calldatasize\n      sub\n      dup2\n      add\n      swap1\n      tag_16\n      swap2\n      swap1\n      tag_17\n      jump\t// in\n    tag_16:\n      tag_18\n      jump\t// in\n    tag_15:\n      stop\n        /* \"contracts/Gym_Contact.sol\":464:501  mapping(address => uint) public users */\n    tag_6:\n      tag_19\n      0x04\n      dup1\n      calldatasize\n      sub\n      dup2\n      add\n      swap1\n      tag_20\n      swap2\n      swap1\n      tag_21\n      jump\t// in\n    tag_20:\n      tag_22\n      jump\t// in\n    tag_19:\n      mload(0x40)\n      tag_23\n      swap2\n      swap1\n      tag_24\n      jump\t// in\n    tag_23:\n      mload(0x40)\n      dup1\n      swap2\n      sub\n      swap1\n      return\n        /* \"contracts/Gym_Contact.sol\":350:380  address immutable public ADMIN */\n    tag_8:\n      immutable(\"0x731dc163f73d31d8c68f9917ce4ff967753939f70432973c04fd2c2a48148607\")\n      dup2\n      jump\t// out\n        /* \"contracts/Gym_Contact.sol\":571:814  function createClass(string memory _name, uint _value) public {\r... */\n    tag_14:\n        /* \"contracts/Gym_Contact.sol\":661:671  msg.sender */\n      caller\n        /* \"contracts/Gym_Contact.sol\":652:671  ADMIN == msg.sender */\n      0xffffffffffffffffffffffffffffffffffffffff\n      and\n        /* \"contracts/Gym_Contact.sol\":652:657  ADMIN */\n      immutable(\"0x731dc163f73d31d8c68f9917ce4ff967753939f70432973c04fd2c2a48148607\")\n        /* \"contracts/Gym_Contact.sol\":652:671  ADMIN == msg.sender */\n      0xffffffffffffffffffffffffffffffffffffffff\n      and\n      eq\n        /* \"contracts/Gym_Contact.sol\":644:724  require(ADMIN == msg.sender, \"Solo el Administrador del Gym puede crear clases\") */\n      tag_26\n      jumpi\n      mload(0x40)\n      0x08c379a000000000000000000000000000000000000000000000000000000000\n      dup2\n      mstore\n      0x04\n      add\n      tag_27\n      swap1\n      tag_28\n      jump\t// in\n    tag_27:\n      mload(0x40)\n      dup1\n      swap2\n      sub\n      swap1\n      revert\n    tag_26:\n        /* \"contracts/Gym_Contact.sol\":740:767  ClassCreated(_name, _value) */\n      0x14d49e3ea4f348b7f368906dfe1a63055c7822d622a61672a35a55ae97a768f9\n        /* \"contracts/Gym_Contact.sol\":753:758  _name */\n      dup3\n        /* \"contracts/Gym_Contact.sol\":760:766  _value */\n      dup3\n        /* \"contracts/Gym_Contact.sol\":740:767  ClassCreated(_name, _value) */\n      mload(0x40)\n      tag_29\n      swap3\n      swap2\n      swap1\n      tag_30\n      jump\t// in\n    tag_29:\n      mload(0x40)\n      dup1\n      swap2\n      sub\n      swap1\n      log1\n        /* \"contracts/Gym_Contact.sol\":571:814  function createClass(string memory _name, uint _value) public {\r... */\n      pop\n      pop\n      jump\t// out\n        /* \"contracts/Gym_Contact.sol\":852:1197  function register(address _address, uint _credits) public {\r... */\n    tag_18:\n        /* \"contracts/Gym_Contact.sol\":941:946  ADMIN */\n      immutable(\"0x731dc163f73d31d8c68f9917ce4ff967753939f70432973c04fd2c2a48148607\")\n        /* \"contracts/Gym_Contact.sol\":929:946  _address == ADMIN */\n      0xffffffffffffffffffffffffffffffffffffffff\n      and\n        /* \"contracts/Gym_Contact.sol\":929:937  _address */\n      dup3\n        /* \"contracts/Gym_Contact.sol\":929:946  _address == ADMIN */\n      0xffffffffffffffffffffffffffffffffffffffff\n      and\n      eq\n        /* \"contracts/Gym_Contact.sol\":921:972  require(_address == ADMIN, \"Eres el Administrador\") */\n      tag_32\n      jumpi\n      mload(0x40)\n      0x08c379a000000000000000000000000000000000000000000000000000000000\n      dup2\n      mstore\n      0x04\n      add\n      tag_33\n      swap1\n      tag_34\n      jump\t// in\n    tag_33:\n      mload(0x40)\n      dup1\n      swap2\n      sub\n      swap1\n      revert\n    tag_32:\n        /* \"contracts/Gym_Contact.sol\":1012:1013  0 */\n      0x00\n        /* \"contracts/Gym_Contact.sol\":991:996  users */\n      dup1\n        /* \"contracts/Gym_Contact.sol\":991:1008  users[msg.sender] */\n      0x00\n        /* \"contracts/Gym_Contact.sol\":997:1007  msg.sender */\n      caller\n        /* \"contracts/Gym_Contact.sol\":991:1008  users[msg.sender] */\n      0xffffffffffffffffffffffffffffffffffffffff\n      and\n      0xffffffffffffffffffffffffffffffffffffffff\n      and\n      dup2\n      mstore\n      0x20\n      add\n      swap1\n      dup2\n      mstore\n      0x20\n      add\n      0x00\n      keccak256\n      sload\n        /* \"contracts/Gym_Contact.sol\":991:1013  users[msg.sender] == 0 */\n      eq\n        /* \"contracts/Gym_Contact.sol\":983:1055  require(users[msg.sender] == 0, \"Ya te encuentras registrado en el gym\") */\n      tag_35\n      jumpi\n      mload(0x40)\n      0x08c379a000000000000000000000000000000000000000000000000000000000\n      dup2\n      mstore\n      0x04\n      add\n      tag_36\n      swap1\n      tag_37\n      jump\t// in\n    tag_36:\n      mload(0x40)\n      dup1\n      swap2\n      sub\n      swap1\n      revert\n    tag_35:\n        /* \"contracts/Gym_Contact.sol\":1086:1094  _credits */\n      dup1\n        /* \"contracts/Gym_Contact.sol\":1066:1071  users */\n      0x00\n        /* \"contracts/Gym_Contact.sol\":1066:1083  users[msg.sender] */\n      dup1\n        /* \"contracts/Gym_Contact.sol\":1072:1082  msg.sender */\n      caller\n        /* \"contracts/Gym_Contact.sol\":1066:1083  users[msg.sender] */\n      0xffffffffffffffffffffffffffffffffffffffff\n      and\n      0xffffffffffffffffffffffffffffffffffffffff\n      and\n      dup2\n      mstore\n      0x20\n      add\n      swap1\n      dup2\n      mstore\n      0x20\n      add\n      0x00\n      keccak256\n        /* \"contracts/Gym_Contact.sol\":1066:1094  users[msg.sender] = _credits */\n      dup2\n      swap1\n      sstore\n      pop\n        /* \"contracts/Gym_Contact.sol\":1110:1138  Register(_address, _credits) */\n      0x7dc6ab80cc84c043b7b8d4fcafc802187470087f7ea7fccd2e17aecd0256a1\n        /* \"contracts/Gym_Contact.sol\":1119:1127  _address */\n      dup3\n        /* \"contracts/Gym_Contact.sol\":1129:1137  _credits */\n      dup3\n        /* \"contracts/Gym_Contact.sol\":1110:1138  Register(_address, _credits) */\n      mload(0x40)\n      tag_38\n      swap3\n      swap2\n      swap1\n      tag_39\n      jump\t// in\n    tag_38:\n      mload(0x40)\n      dup1\n      swap2\n      sub\n      swap1\n      log1\n        /* \"contracts/Gym_Contact.sol\":852:1197  function register(address _address, uint _credits) public {\r... */\n      pop\n      pop\n      jump\t// out\n        /* \"contracts/Gym_Contact.sol\":464:501  mapping(address => uint) public users */\n    tag_22:\n      mstore(0x20, 0x00)\n      dup1\n      0x00\n      mstore\n      keccak256(0x00, 0x40)\n      0x00\n      swap2\n      pop\n      swap1\n      pop\n      sload\n      dup2\n      jump\t// out\n        /* \"#utility.yul\":7:419   */\n    tag_41:\n        /* \"#utility.yul\":85:90   */\n      0x00\n        /* \"#utility.yul\":110:176   */\n      tag_43\n        /* \"#utility.yul\":126:175   */\n      tag_44\n        /* \"#utility.yul\":168:174   */\n      dup5\n        /* \"#utility.yul\":126:175   */\n      tag_45\n      jump\t// in\n    tag_44:\n        /* \"#utility.yul\":110:176   */\n      tag_46\n      jump\t// in\n    tag_43:\n        /* \"#utility.yul\":101:176   */\n      swap1\n      pop\n        /* \"#utility.yul\":199:205   */\n      dup3\n        /* \"#utility.yul\":192:197   */\n      dup2\n        /* \"#utility.yul\":185:206   */\n      mstore\n        /* \"#utility.yul\":237:241   */\n      0x20\n        /* \"#utility.yul\":230:235   */\n      dup2\n        /* \"#utility.yul\":226:242   */\n      add\n        /* \"#utility.yul\":275:278   */\n      dup5\n        /* \"#utility.yul\":266:272   */\n      dup5\n        /* \"#utility.yul\":261:264   */\n      dup5\n        /* \"#utility.yul\":257:273   */\n      add\n        /* \"#utility.yul\":254:279   */\n      gt\n        /* \"#utility.yul\":251:363   */\n      iszero\n      tag_47\n      jumpi\n        /* \"#utility.yul\":282:361   */\n      tag_48\n      tag_49\n      jump\t// in\n    tag_48:\n        /* \"#utility.yul\":251:363   */\n    tag_47:\n        /* \"#utility.yul\":372:413   */\n      tag_50\n        /* \"#utility.yul\":406:412   */\n      dup5\n        /* \"#utility.yul\":401:404   */\n      dup3\n        /* \"#utility.yul\":396:399   */\n      dup6\n        /* \"#utility.yul\":372:413   */\n      tag_51\n      jump\t// in\n    tag_50:\n        /* \"#utility.yul\":91:419   */\n      pop\n        /* \"#utility.yul\":7:419   */\n      swap4\n      swap3\n      pop\n      pop\n      pop\n      jump\t// out\n        /* \"#utility.yul\":425:564   */\n    tag_52:\n        /* \"#utility.yul\":471:476   */\n      0x00\n        /* \"#utility.yul\":509:515   */\n      dup2\n        /* \"#utility.yul\":496:516   */\n      calldataload\n        /* \"#utility.yul\":487:516   */\n      swap1\n      pop\n        /* \"#utility.yul\":525:558   */\n      tag_54\n        /* \"#utility.yul\":552:557   */\n      dup2\n        /* \"#utility.yul\":525:558   */\n      tag_55\n      jump\t// in\n    tag_54:\n        /* \"#utility.yul\":425:564   */\n      swap3\n      swap2\n      pop\n      pop\n      jump\t// out\n        /* \"#utility.yul\":584:924   */\n    tag_56:\n        /* \"#utility.yul\":640:645   */\n      0x00\n        /* \"#utility.yul\":689:692   */\n      dup3\n        /* \"#utility.yul\":682:686   */\n      0x1f\n        /* \"#utility.yul\":674:680   */\n      dup4\n        /* \"#utility.yul\":670:687   */\n      add\n        /* \"#utility.yul\":666:693   */\n      slt\n        /* \"#utility.yul\":656:778   */\n      tag_58\n      jumpi\n        /* \"#utility.yul\":697:776   */\n      tag_59\n      tag_60\n      jump\t// in\n    tag_59:\n        /* \"#utility.yul\":656:778   */\n    tag_58:\n        /* \"#utility.yul\":814:820   */\n      dup2\n        /* \"#utility.yul\":801:821   */\n      calldataload\n        /* \"#utility.yul\":839:918   */\n      tag_61\n        /* \"#utility.yul\":914:917   */\n      dup5\n        /* \"#utility.yul\":906:912   */\n      dup3\n        /* \"#utility.yul\":899:903   */\n      0x20\n        /* \"#utility.yul\":891:897   */\n      dup7\n        /* \"#utility.yul\":887:904   */\n      add\n        /* \"#utility.yul\":839:918   */\n      tag_41\n      jump\t// in\n    tag_61:\n        /* \"#utility.yul\":830:918   */\n      swap2\n      pop\n        /* \"#utility.yul\":646:924   */\n      pop\n        /* \"#utility.yul\":584:924   */\n      swap3\n      swap2\n      pop\n      pop\n      jump\t// out\n        /* \"#utility.yul\":930:1069   */\n    tag_62:\n        /* \"#utility.yul\":976:981   */\n      0x00\n        /* \"#utility.yul\":1014:1020   */\n      dup2\n        /* \"#utility.yul\":1001:1021   */\n      calldataload\n        /* \"#utility.yul\":992:1021   */\n      swap1\n      pop\n        /* \"#utility.yul\":1030:1063   */\n      tag_64\n        /* \"#utility.yul\":1057:1062   */\n      dup2\n        /* \"#utility.yul\":1030:1063   */\n      tag_65\n      jump\t// in\n    tag_64:\n        /* \"#utility.yul\":930:1069   */\n      swap3\n      swap2\n      pop\n      pop\n      jump\t// out\n        /* \"#utility.yul\":1075:1404   */\n    tag_21:\n        /* \"#utility.yul\":1134:1140   */\n      0x00\n        /* \"#utility.yul\":1183:1185   */\n      0x20\n        /* \"#utility.yul\":1171:1180   */\n      dup3\n        /* \"#utility.yul\":1162:1169   */\n      dup5\n        /* \"#utility.yul\":1158:1181   */\n      sub\n        /* \"#utility.yul\":1154:1186   */\n      slt\n        /* \"#utility.yul\":1151:1270   */\n      iszero\n      tag_67\n      jumpi\n        /* \"#utility.yul\":1189:1268   */\n      tag_68\n      tag_69\n      jump\t// in\n    tag_68:\n        /* \"#utility.yul\":1151:1270   */\n    tag_67:\n        /* \"#utility.yul\":1309:1310   */\n      0x00\n        /* \"#utility.yul\":1334:1387   */\n      tag_70\n        /* \"#utility.yul\":1379:1386   */\n      dup5\n        /* \"#utility.yul\":1370:1376   */\n      dup3\n        /* \"#utility.yul\":1359:1368   */\n      dup6\n        /* \"#utility.yul\":1355:1377   */\n      add\n        /* \"#utility.yul\":1334:1387   */\n      tag_52\n      jump\t// in\n    tag_70:\n        /* \"#utility.yul\":1324:1387   */\n      swap2\n      pop\n        /* \"#utility.yul\":1280:1397   */\n      pop\n        /* \"#utility.yul\":1075:1404   */\n      swap3\n      swap2\n      pop\n      pop\n      jump\t// out\n        /* \"#utility.yul\":1410:1884   */\n    tag_17:\n        /* \"#utility.yul\":1478:1484   */\n      0x00\n        /* \"#utility.yul\":1486:1492   */\n      dup1\n        /* \"#utility.yul\":1535:1537   */\n      0x40\n        /* \"#utility.yul\":1523:1532   */\n      dup4\n        /* \"#utility.yul\":1514:1521   */\n      dup6\n        /* \"#utility.yul\":1510:1533   */\n      sub\n        /* \"#utility.yul\":1506:1538   */\n      slt\n        /* \"#utility.yul\":1503:1622   */\n      iszero\n      tag_72\n      jumpi\n        /* \"#utility.yul\":1541:1620   */\n      tag_73\n      tag_69\n      jump\t// in\n    tag_73:\n        /* \"#utility.yul\":1503:1622   */\n    tag_72:\n        /* \"#utility.yul\":1661:1662   */\n      0x00\n        /* \"#utility.yul\":1686:1739   */\n      tag_74\n        /* \"#utility.yul\":1731:1738   */\n      dup6\n        /* \"#utility.yul\":1722:1728   */\n      dup3\n        /* \"#utility.yul\":1711:1720   */\n      dup7\n        /* \"#utility.yul\":1707:1729   */\n      add\n        /* \"#utility.yul\":1686:1739   */\n      tag_52\n      jump\t// in\n    tag_74:\n        /* \"#utility.yul\":1676:1739   */\n      swap3\n      pop\n        /* \"#utility.yul\":1632:1749   */\n      pop\n        /* \"#utility.yul\":1788:1790   */\n      0x20\n        /* \"#utility.yul\":1814:1867   */\n      tag_75\n        /* \"#utility.yul\":1859:1866   */\n      dup6\n        /* \"#utility.yul\":1850:1856   */\n      dup3\n        /* \"#utility.yul\":1839:1848   */\n      dup7\n        /* \"#utility.yul\":1835:1857   */\n      add\n        /* \"#utility.yul\":1814:1867   */\n      tag_62\n      jump\t// in\n    tag_75:\n        /* \"#utility.yul\":1804:1867   */\n      swap2\n      pop\n        /* \"#utility.yul\":1759:1877   */\n      pop\n        /* \"#utility.yul\":1410:1884   */\n      swap3\n      pop\n      swap3\n      swap1\n      pop\n      jump\t// out\n        /* \"#utility.yul\":1890:2544   */\n    tag_13:\n        /* \"#utility.yul\":1968:1974   */\n      0x00\n        /* \"#utility.yul\":1976:1982   */\n      dup1\n        /* \"#utility.yul\":2025:2027   */\n      0x40\n        /* \"#utility.yul\":2013:2022   */\n      dup4\n        /* \"#utility.yul\":2004:2011   */\n      dup6\n        /* \"#utility.yul\":2000:2023   */\n      sub\n        /* \"#utility.yul\":1996:2028   */\n      slt\n        /* \"#utility.yul\":1993:2112   */\n      iszero\n      tag_77\n      jumpi\n        /* \"#utility.yul\":2031:2110   */\n      tag_78\n      tag_69\n      jump\t// in\n    tag_78:\n        /* \"#utility.yul\":1993:2112   */\n    tag_77:\n        /* \"#utility.yul\":2179:2180   */\n      0x00\n        /* \"#utility.yul\":2168:2177   */\n      dup4\n        /* \"#utility.yul\":2164:2181   */\n      add\n        /* \"#utility.yul\":2151:2182   */\n      calldataload\n        /* \"#utility.yul\":2209:2227   */\n      0xffffffffffffffff\n        /* \"#utility.yul\":2201:2207   */\n      dup2\n        /* \"#utility.yul\":2198:2228   */\n      gt\n        /* \"#utility.yul\":2195:2312   */\n      iszero\n      tag_79\n      jumpi\n        /* \"#utility.yul\":2231:2310   */\n      tag_80\n      tag_81\n      jump\t// in\n    tag_80:\n        /* \"#utility.yul\":2195:2312   */\n    tag_79:\n        /* \"#utility.yul\":2336:2399   */\n      tag_82\n        /* \"#utility.yul\":2391:2398   */\n      dup6\n        /* \"#utility.yul\":2382:2388   */\n      dup3\n        /* \"#utility.yul\":2371:2380   */\n      dup7\n        /* \"#utility.yul\":2367:2389   */\n      add\n        /* \"#utility.yul\":2336:2399   */\n      tag_56\n      jump\t// in\n    tag_82:\n        /* \"#utility.yul\":2326:2399   */\n      swap3\n      pop\n        /* \"#utility.yul\":2122:2409   */\n      pop\n        /* \"#utility.yul\":2448:2450   */\n      0x20\n        /* \"#utility.yul\":2474:2527   */\n      tag_83\n        /* \"#utility.yul\":2519:2526   */\n      dup6\n        /* \"#utility.yul\":2510:2516   */\n      dup3\n        /* \"#utility.yul\":2499:2508   */\n      dup7\n        /* \"#utility.yul\":2495:2517   */\n      add\n        /* \"#utility.yul\":2474:2527   */\n      tag_62\n      jump\t// in\n    tag_83:\n        /* \"#utility.yul\":2464:2527   */\n      swap2\n      pop\n        /* \"#utility.yul\":2419:2537   */\n      pop\n        /* \"#utility.yul\":1890:2544   */\n      swap3\n      pop\n      swap3\n      swap1\n      pop\n      jump\t// out\n        /* \"#utility.yul\":2550:2668   */\n    tag_84:\n        /* \"#utility.yul\":2637:2661   */\n      tag_86\n        /* \"#utility.yul\":2655:2660   */\n      dup2\n        /* \"#utility.yul\":2637:2661   */\n      tag_87\n      jump\t// in\n    tag_86:\n        /* \"#utility.yul\":2632:2635   */\n      dup3\n        /* \"#utility.yul\":2625:2662   */\n      mstore\n        /* \"#utility.yul\":2550:2668   */\n      pop\n      pop\n      jump\t// out\n        /* \"#utility.yul\":2674:3038   */\n    tag_88:\n        /* \"#utility.yul\":2762:2765   */\n      0x00\n        /* \"#utility.yul\":2790:2829   */\n      tag_90\n        /* \"#utility.yul\":2823:2828   */\n      dup3\n        /* \"#utility.yul\":2790:2829   */\n      tag_91\n      jump\t// in\n    tag_90:\n        /* \"#utility.yul\":2845:2916   */\n      tag_92\n        /* \"#utility.yul\":2909:2915   */\n      dup2\n        /* \"#utility.yul\":2904:2907   */\n      dup6\n        /* \"#utility.yul\":2845:2916   */\n      tag_93\n      jump\t// in\n    tag_92:\n        /* \"#utility.yul\":2838:2916   */\n      swap4\n      pop\n        /* \"#utility.yul\":2925:2977   */\n      tag_94\n        /* \"#utility.yul\":2970:2976   */\n      dup2\n        /* \"#utility.yul\":2965:2968   */\n      dup6\n        /* \"#utility.yul\":2958:2962   */\n      0x20\n        /* \"#utility.yul\":2951:2956   */\n      dup7\n        /* \"#utility.yul\":2947:2963   */\n      add\n        /* \"#utility.yul\":2925:2977   */\n      tag_95\n      jump\t// in\n    tag_94:\n        /* \"#utility.yul\":3002:3031   */\n      tag_96\n        /* \"#utility.yul\":3024:3030   */\n      dup2\n        /* \"#utility.yul\":3002:3031   */\n      tag_97\n      jump\t// in\n    tag_96:\n        /* \"#utility.yul\":2997:3000   */\n      dup5\n        /* \"#utility.yul\":2993:3032   */\n      add\n        /* \"#utility.yul\":2986:3032   */\n      swap2\n      pop\n        /* \"#utility.yul\":2766:3038   */\n      pop\n        /* \"#utility.yul\":2674:3038   */\n      swap3\n      swap2\n      pop\n      pop\n      jump\t// out\n        /* \"#utility.yul\":3044:3410   */\n    tag_98:\n        /* \"#utility.yul\":3186:3189   */\n      0x00\n        /* \"#utility.yul\":3207:3274   */\n      tag_100\n        /* \"#utility.yul\":3271:3273   */\n      0x25\n        /* \"#utility.yul\":3266:3269   */\n      dup4\n        /* \"#utility.yul\":3207:3274   */\n      tag_93\n      jump\t// in\n    tag_100:\n        /* \"#utility.yul\":3200:3274   */\n      swap2\n      pop\n        /* \"#utility.yul\":3283:3376   */\n      tag_101\n        /* \"#utility.yul\":3372:3375   */\n      dup3\n        /* \"#utility.yul\":3283:3376   */\n      tag_102\n      jump\t// in\n    tag_101:\n        /* \"#utility.yul\":3401:3403   */\n      0x40\n        /* \"#utility.yul\":3396:3399   */\n      dup3\n        /* \"#utility.yul\":3392:3404   */\n      add\n        /* \"#utility.yul\":3385:3404   */\n      swap1\n      pop\n        /* \"#utility.yul\":3044:3410   */\n      swap2\n      swap1\n      pop\n      jump\t// out\n        /* \"#utility.yul\":3416:3782   */\n    tag_103:\n        /* \"#utility.yul\":3558:3561   */\n      0x00\n        /* \"#utility.yul\":3579:3646   */\n      tag_105\n        /* \"#utility.yul\":3643:3645   */\n      0x30\n        /* \"#utility.yul\":3638:3641   */\n      dup4\n        /* \"#utility.yul\":3579:3646   */\n      tag_93\n      jump\t// in\n    tag_105:\n        /* \"#utility.yul\":3572:3646   */\n      swap2\n      pop\n        /* \"#utility.yul\":3655:3748   */\n      tag_106\n        /* \"#utility.yul\":3744:3747   */\n      dup3\n        /* \"#utility.yul\":3655:3748   */\n      tag_107\n      jump\t// in\n    tag_106:\n        /* \"#utility.yul\":3773:3775   */\n      0x40\n        /* \"#utility.yul\":3768:3771   */\n      dup3\n        /* \"#utility.yul\":3764:3776   */\n      add\n        /* \"#utility.yul\":3757:3776   */\n      swap1\n      pop\n        /* \"#utility.yul\":3416:3782   */\n      swap2\n      swap1\n      pop\n      jump\t// out\n        /* \"#utility.yul\":3788:4154   */\n    tag_108:\n        /* \"#utility.yul\":3930:3933   */\n      0x00\n        /* \"#utility.yul\":3951:4018   */\n      tag_110\n        /* \"#utility.yul\":4015:4017   */\n      0x15\n        /* \"#utility.yul\":4010:4013   */\n      dup4\n        /* \"#utility.yul\":3951:4018   */\n      tag_93\n      jump\t// in\n    tag_110:\n        /* \"#utility.yul\":3944:4018   */\n      swap2\n      pop\n        /* \"#utility.yul\":4027:4120   */\n      tag_111\n        /* \"#utility.yul\":4116:4119   */\n      dup3\n        /* \"#utility.yul\":4027:4120   */\n      tag_112\n      jump\t// in\n    tag_111:\n        /* \"#utility.yul\":4145:4147   */\n      0x20\n        /* \"#utility.yul\":4140:4143   */\n      dup3\n        /* \"#utility.yul\":4136:4148   */\n      add\n        /* \"#utility.yul\":4129:4148   */\n      swap1\n      pop\n        /* \"#utility.yul\":3788:4154   */\n      swap2\n      swap1\n      pop\n      jump\t// out\n        /* \"#utility.yul\":4160:4278   */\n    tag_113:\n        /* \"#utility.yul\":4247:4271   */\n      tag_115\n        /* \"#utility.yul\":4265:4270   */\n      dup2\n        /* \"#utility.yul\":4247:4271   */\n      tag_116\n      jump\t// in\n    tag_115:\n        /* \"#utility.yul\":4242:4245   */\n      dup3\n        /* \"#utility.yul\":4235:4272   */\n      mstore\n        /* \"#utility.yul\":4160:4278   */\n      pop\n      pop\n      jump\t// out\n        /* \"#utility.yul\":4284:4506   */\n    tag_10:\n        /* \"#utility.yul\":4377:4381   */\n      0x00\n        /* \"#utility.yul\":4415:4417   */\n      0x20\n        /* \"#utility.yul\":4404:4413   */\n      dup3\n        /* \"#utility.yul\":4400:4418   */\n      add\n        /* \"#utility.yul\":4392:4418   */\n      swap1\n      pop\n        /* \"#utility.yul\":4428:4499   */\n      tag_118\n        /* \"#utility.yul\":4496:4497   */\n      0x00\n        /* \"#utility.yul\":4485:4494   */\n      dup4\n        /* \"#utility.yul\":4481:4498   */\n      add\n        /* \"#utility.yul\":4472:4478   */\n      dup5\n        /* \"#utility.yul\":4428:4499   */\n      tag_84\n      jump\t// in\n    tag_118:\n        /* \"#utility.yul\":4284:4506   */\n      swap3\n      swap2\n      pop\n      pop\n      jump\t// out\n        /* \"#utility.yul\":4512:4844   */\n    tag_39:\n        /* \"#utility.yul\":4633:4637   */\n      0x00\n        /* \"#utility.yul\":4671:4673   */\n      0x40\n        /* \"#utility.yul\":4660:4669   */\n      dup3\n        /* \"#utility.yul\":4656:4674   */\n      add\n        /* \"#utility.yul\":4648:4674   */\n      swap1\n      pop\n        /* \"#utility.yul\":4684:4755   */\n      tag_120\n        /* \"#utility.yul\":4752:4753   */\n      0x00\n        /* \"#utility.yul\":4741:4750   */\n      dup4\n        /* \"#utility.yul\":4737:4754   */\n      add\n        /* \"#utility.yul\":4728:4734   */\n      dup6\n        /* \"#utility.yul\":4684:4755   */\n      tag_84\n      jump\t// in\n    tag_120:\n        /* \"#utility.yul\":4765:4837   */\n      tag_121\n        /* \"#utility.yul\":4833:4835   */\n      0x20\n        /* \"#utility.yul\":4822:4831   */\n      dup4\n        /* \"#utility.yul\":4818:4836   */\n      add\n        /* \"#utility.yul\":4809:4815   */\n      dup5\n        /* \"#utility.yul\":4765:4837   */\n      tag_113\n      jump\t// in\n    tag_121:\n        /* \"#utility.yul\":4512:4844   */\n      swap4\n      swap3\n      pop\n      pop\n      pop\n      jump\t// out\n        /* \"#utility.yul\":4850:5273   */\n    tag_30:\n        /* \"#utility.yul\":4991:4995   */\n      0x00\n        /* \"#utility.yul\":5029:5031   */\n      0x40\n        /* \"#utility.yul\":5018:5027   */\n      dup3\n        /* \"#utility.yul\":5014:5032   */\n      add\n        /* \"#utility.yul\":5006:5032   */\n      swap1\n      pop\n        /* \"#utility.yul\":5078:5087   */\n      dup2\n        /* \"#utility.yul\":5072:5076   */\n      dup2\n        /* \"#utility.yul\":5068:5088   */\n      sub\n        /* \"#utility.yul\":5064:5065   */\n      0x00\n        /* \"#utility.yul\":5053:5062   */\n      dup4\n        /* \"#utility.yul\":5049:5066   */\n      add\n        /* \"#utility.yul\":5042:5089   */\n      mstore\n        /* \"#utility.yul\":5106:5184   */\n      tag_123\n        /* \"#utility.yul\":5179:5183   */\n      dup2\n        /* \"#utility.yul\":5170:5176   */\n      dup6\n        /* \"#utility.yul\":5106:5184   */\n      tag_88\n      jump\t// in\n    tag_123:\n        /* \"#utility.yul\":5098:5184   */\n      swap1\n      pop\n        /* \"#utility.yul\":5194:5266   */\n      tag_124\n        /* \"#utility.yul\":5262:5264   */\n      0x20\n        /* \"#utility.yul\":5251:5260   */\n      dup4\n        /* \"#utility.yul\":5247:5265   */\n      add\n        /* \"#utility.yul\":5238:5244   */\n      dup5\n        /* \"#utility.yul\":5194:5266   */\n      tag_113\n      jump\t// in\n    tag_124:\n        /* \"#utility.yul\":4850:5273   */\n      swap4\n      swap3\n      pop\n      pop\n      pop\n      jump\t// out\n        /* \"#utility.yul\":5279:5698   */\n    tag_37:\n        /* \"#utility.yul\":5445:5449   */\n      0x00\n        /* \"#utility.yul\":5483:5485   */\n      0x20\n        /* \"#utility.yul\":5472:5481   */\n      dup3\n        /* \"#utility.yul\":5468:5486   */\n      add\n        /* \"#utility.yul\":5460:5486   */\n      swap1\n      pop\n        /* \"#utility.yul\":5532:5541   */\n      dup2\n        /* \"#utility.yul\":5526:5530   */\n      dup2\n        /* \"#utility.yul\":5522:5542   */\n      sub\n        /* \"#utility.yul\":5518:5519   */\n      0x00\n        /* \"#utility.yul\":5507:5516   */\n      dup4\n        /* \"#utility.yul\":5503:5520   */\n      add\n        /* \"#utility.yul\":5496:5543   */\n      mstore\n        /* \"#utility.yul\":5560:5691   */\n      tag_126\n        /* \"#utility.yul\":5686:5690   */\n      dup2\n        /* \"#utility.yul\":5560:5691   */\n      tag_98\n      jump\t// in\n    tag_126:\n        /* \"#utility.yul\":5552:5691   */\n      swap1\n      pop\n        /* \"#utility.yul\":5279:5698   */\n      swap2\n      swap1\n      pop\n      jump\t// out\n        /* \"#utility.yul\":5704:6123   */\n    tag_28:\n        /* \"#utility.yul\":5870:5874   */\n      0x00\n        /* \"#utility.yul\":5908:5910   */\n      0x20\n        /* \"#utility.yul\":5897:5906   */\n      dup3\n        /* \"#utility.yul\":5893:5911   */\n      add\n        /* \"#utility.yul\":5885:5911   */\n      swap1\n      pop\n        /* \"#utility.yul\":5957:5966   */\n      dup2\n        /* \"#utility.yul\":5951:5955   */\n      dup2\n        /* \"#utility.yul\":5947:5967   */\n      sub\n        /* \"#utility.yul\":5943:5944   */\n      0x00\n        /* \"#utility.yul\":5932:5941   */\n      dup4\n        /* \"#utility.yul\":5928:5945   */\n      add\n        /* \"#utility.yul\":5921:5968   */\n      mstore\n        /* \"#utility.yul\":5985:6116   */\n      tag_128\n        /* \"#utility.yul\":6111:6115   */\n      dup2\n        /* \"#utility.yul\":5985:6116   */\n      tag_103\n      jump\t// in\n    tag_128:\n        /* \"#utility.yul\":5977:6116   */\n      swap1\n      pop\n        /* \"#utility.yul\":5704:6123   */\n      swap2\n      swap1\n      pop\n      jump\t// out\n        /* \"#utility.yul\":6129:6548   */\n    tag_34:\n        /* \"#utility.yul\":6295:6299   */\n      0x00\n        /* \"#utility.yul\":6333:6335   */\n      0x20\n        /* \"#utility.yul\":6322:6331   */\n      dup3\n        /* \"#utility.yul\":6318:6336   */\n      add\n        /* \"#utility.yul\":6310:6336   */\n      swap1\n      pop\n        /* \"#utility.yul\":6382:6391   */\n      dup2\n        /* \"#utility.yul\":6376:6380   */\n      dup2\n        /* \"#utility.yul\":6372:6392   */\n      sub\n        /* \"#utility.yul\":6368:6369   */\n      0x00\n        /* \"#utility.yul\":6357:6366   */\n      dup4\n        /* \"#utility.yul\":6353:6370   */\n      add\n        /* \"#utility.yul\":6346:6393   */\n      mstore\n        /* \"#utility.yul\":6410:6541   */\n      tag_130\n        /* \"#utility.yul\":6536:6540   */\n      dup2\n        /* \"#utility.yul\":6410:6541   */\n      tag_108\n      jump\t// in\n    tag_130:\n        /* \"#utility.yul\":6402:6541   */\n      swap1\n      pop\n        /* \"#utility.yul\":6129:6548   */\n      swap2\n      swap1\n      pop\n      jump\t// out\n        /* \"#utility.yul\":6554:6776   */\n    tag_24:\n        /* \"#utility.yul\":6647:6651   */\n      0x00\n        /* \"#utility.yul\":6685:6687   */\n      0x20\n        /* \"#utility.yul\":6674:6683   */\n      dup3\n        /* \"#utility.yul\":6670:6688   */\n      add\n        /* \"#utility.yul\":6662:6688   */\n      swap1\n      pop\n        /* \"#utility.yul\":6698:6769   */\n      tag_132\n        /* \"#utility.yul\":6766:6767   */\n      0x00\n        /* \"#utility.yul\":6755:6764   */\n      dup4\n        /* \"#utility.yul\":6751:6768   */\n      add\n        /* \"#utility.yul\":6742:6748   */\n      dup5\n        /* \"#utility.yul\":6698:6769   */\n      tag_113\n      jump\t// in\n    tag_132:\n        /* \"#utility.yul\":6554:6776   */\n      swap3\n      swap2\n      pop\n      pop\n      jump\t// out\n        /* \"#utility.yul\":6782:6911   */\n    tag_46:\n        /* \"#utility.yul\":6816:6822   */\n      0x00\n        /* \"#utility.yul\":6843:6863   */\n      tag_134\n      tag_135\n      jump\t// in\n    tag_134:\n        /* \"#utility.yul\":6833:6863   */\n      swap1\n      pop\n        /* \"#utility.yul\":6872:6905   */\n      tag_136\n        /* \"#utility.yul\":6900:6904   */\n      dup3\n        /* \"#utility.yul\":6892:6898   */\n      dup3\n        /* \"#utility.yul\":6872:6905   */\n      tag_137\n      jump\t// in\n    tag_136:\n        /* \"#utility.yul\":6782:6911   */\n      swap2\n      swap1\n      pop\n      jump\t// out\n        /* \"#utility.yul\":6917:6992   */\n    tag_135:\n        /* \"#utility.yul\":6950:6956   */\n      0x00\n        /* \"#utility.yul\":6983:6985   */\n      0x40\n        /* \"#utility.yul\":6977:6986   */\n      mload\n        /* \"#utility.yul\":6967:6986   */\n      swap1\n      pop\n        /* \"#utility.yul\":6917:6992   */\n      swap1\n      jump\t// out\n        /* \"#utility.yul\":6998:7306   */\n    tag_45:\n        /* \"#utility.yul\":7060:7064   */\n      0x00\n        /* \"#utility.yul\":7150:7168   */\n      0xffffffffffffffff\n        /* \"#utility.yul\":7142:7148   */\n      dup3\n        /* \"#utility.yul\":7139:7169   */\n      gt\n        /* \"#utility.yul\":7136:7192   */\n      iszero\n      tag_140\n      jumpi\n        /* \"#utility.yul\":7172:7190   */\n      tag_141\n      tag_142\n      jump\t// in\n    tag_141:\n        /* \"#utility.yul\":7136:7192   */\n    tag_140:\n        /* \"#utility.yul\":7210:7239   */\n      tag_143\n        /* \"#utility.yul\":7232:7238   */\n      dup3\n        /* \"#utility.yul\":7210:7239   */\n      tag_97\n      jump\t// in\n    tag_143:\n        /* \"#utility.yul\":7202:7239   */\n      swap1\n      pop\n        /* \"#utility.yul\":7294:7298   */\n      0x20\n        /* \"#utility.yul\":7288:7292   */\n      dup2\n        /* \"#utility.yul\":7284:7299   */\n      add\n        /* \"#utility.yul\":7276:7299   */\n      swap1\n      pop\n        /* \"#utility.yul\":6998:7306   */\n      swap2\n      swap1\n      pop\n      jump\t// out\n        /* \"#utility.yul\":7312:7411   */\n    tag_91:\n        /* \"#utility.yul\":7364:7370   */\n      0x00\n        /* \"#utility.yul\":7398:7403   */\n      dup2\n        /* \"#utility.yul\":7392:7404   */\n      mload\n        /* \"#utility.yul\":7382:7404   */\n      swap1\n      pop\n        /* \"#utility.yul\":7312:7411   */\n      swap2\n      swap1\n      pop\n      jump\t// out\n        /* \"#utility.yul\":7417:7586   */\n    tag_93:\n        /* \"#utility.yul\":7501:7512   */\n      0x00\n        /* \"#utility.yul\":7535:7541   */\n      dup3\n        /* \"#utility.yul\":7530:7533   */\n      dup3\n        /* \"#utility.yul\":7523:7542   */\n      mstore\n        /* \"#utility.yul\":7575:7579   */\n      0x20\n        /* \"#utility.yul\":7570:7573   */\n      dup3\n        /* \"#utility.yul\":7566:7580   */\n      add\n        /* \"#utility.yul\":7551:7580   */\n      swap1\n      pop\n        /* \"#utility.yul\":7417:7586   */\n      swap3\n      swap2\n      pop\n      pop\n      jump\t// out\n        /* \"#utility.yul\":7592:7688   */\n    tag_87:\n        /* \"#utility.yul\":7629:7636   */\n      0x00\n        /* \"#utility.yul\":7658:7682   */\n      tag_147\n        /* \"#utility.yul\":7676:7681   */\n      dup3\n        /* \"#utility.yul\":7658:7682   */\n      tag_148\n      jump\t// in\n    tag_147:\n        /* \"#utility.yul\":7647:7682   */\n      swap1\n      pop\n        /* \"#utility.yul\":7592:7688   */\n      swap2\n      swap1\n      pop\n      jump\t// out\n        /* \"#utility.yul\":7694:7820   */\n    tag_148:\n        /* \"#utility.yul\":7731:7738   */\n      0x00\n        /* \"#utility.yul\":7771:7813   */\n      0xffffffffffffffffffffffffffffffffffffffff\n        /* \"#utility.yul\":7764:7769   */\n      dup3\n        /* \"#utility.yul\":7760:7814   */\n      and\n        /* \"#utility.yul\":7749:7814   */\n      swap1\n      pop\n        /* \"#utility.yul\":7694:7820   */\n      swap2\n      swap1\n      pop\n      jump\t// out\n        /* \"#utility.yul\":7826:7903   */\n    tag_116:\n        /* \"#utility.yul\":7863:7870   */\n      0x00\n        /* \"#utility.yul\":7892:7897   */\n      dup2\n        /* \"#utility.yul\":7881:7897   */\n      swap1\n      pop\n        /* \"#utility.yul\":7826:7903   */\n      swap2\n      swap1\n      pop\n      jump\t// out\n        /* \"#utility.yul\":7909:8063   */\n    tag_51:\n        /* \"#utility.yul\":7993:7999   */\n      dup3\n        /* \"#utility.yul\":7988:7991   */\n      dup2\n        /* \"#utility.yul\":7983:7986   */\n      dup4\n        /* \"#utility.yul\":7970:8000   */\n      calldatacopy\n        /* \"#utility.yul\":8055:8056   */\n      0x00\n        /* \"#utility.yul\":8046:8052   */\n      dup4\n        /* \"#utility.yul\":8041:8044   */\n      dup4\n        /* \"#utility.yul\":8037:8053   */\n      add\n        /* \"#utility.yul\":8030:8057   */\n      mstore\n        /* \"#utility.yul\":7909:8063   */\n      pop\n      pop\n      pop\n      jump\t// out\n        /* \"#utility.yul\":8069:8376   */\n    tag_95:\n        /* \"#utility.yul\":8137:8138   */\n      0x00\n        /* \"#utility.yul\":8147:8260   */\n    tag_153:\n        /* \"#utility.yul\":8161:8167   */\n      dup4\n        /* \"#utility.yul\":8158:8159   */\n      dup2\n        /* \"#utility.yul\":8155:8168   */\n      lt\n        /* \"#utility.yul\":8147:8260   */\n      iszero\n      tag_155\n      jumpi\n        /* \"#utility.yul\":8246:8247   */\n      dup1\n        /* \"#utility.yul\":8241:8244   */\n      dup3\n        /* \"#utility.yul\":8237:8248   */\n      add\n        /* \"#utility.yul\":8231:8249   */\n      mload\n        /* \"#utility.yul\":8227:8228   */\n      dup2\n        /* \"#utility.yul\":8222:8225   */\n      dup5\n        /* \"#utility.yul\":8218:8229   */\n      add\n        /* \"#utility.yul\":8211:8250   */\n      mstore\n        /* \"#utility.yul\":8183:8185   */\n      0x20\n        /* \"#utility.yul\":8180:8181   */\n      dup2\n        /* \"#utility.yul\":8176:8186   */\n      add\n        /* \"#utility.yul\":8171:8186   */\n      swap1\n      pop\n        /* \"#utility.yul\":8147:8260   */\n      jump(tag_153)\n    tag_155:\n        /* \"#utility.yul\":8278:8284   */\n      dup4\n        /* \"#utility.yul\":8275:8276   */\n      dup2\n        /* \"#utility.yul\":8272:8285   */\n      gt\n        /* \"#utility.yul\":8269:8370   */\n      iszero\n      tag_156\n      jumpi\n        /* \"#utility.yul\":8358:8359   */\n      0x00\n        /* \"#utility.yul\":8349:8355   */\n      dup5\n        /* \"#utility.yul\":8344:8347   */\n      dup5\n        /* \"#utility.yul\":8340:8356   */\n      add\n        /* \"#utility.yul\":8333:8360   */\n      mstore\n        /* \"#utility.yul\":8269:8370   */\n    tag_156:\n        /* \"#utility.yul\":8118:8376   */\n      pop\n        /* \"#utility.yul\":8069:8376   */\n      pop\n      pop\n      pop\n      jump\t// out\n        /* \"#utility.yul\":8382:8663   */\n    tag_137:\n        /* \"#utility.yul\":8465:8492   */\n      tag_158\n        /* \"#utility.yul\":8487:8491   */\n      dup3\n        /* \"#utility.yul\":8465:8492   */\n      tag_97\n      jump\t// in\n    tag_158:\n        /* \"#utility.yul\":8457:8463   */\n      dup2\n        /* \"#utility.yul\":8453:8493   */\n      add\n        /* \"#utility.yul\":8595:8601   */\n      dup2\n        /* \"#utility.yul\":8583:8593   */\n      dup2\n        /* \"#utility.yul\":8580:8602   */\n      lt\n        /* \"#utility.yul\":8559:8577   */\n      0xffffffffffffffff\n        /* \"#utility.yul\":8547:8557   */\n      dup3\n        /* \"#utility.yul\":8544:8578   */\n      gt\n        /* \"#utility.yul\":8541:8603   */\n      or\n        /* \"#utility.yul\":8538:8626   */\n      iszero\n      tag_159\n      jumpi\n        /* \"#utility.yul\":8606:8624   */\n      tag_160\n      tag_142\n      jump\t// in\n    tag_160:\n        /* \"#utility.yul\":8538:8626   */\n    tag_159:\n        /* \"#utility.yul\":8646:8656   */\n      dup1\n        /* \"#utility.yul\":8642:8644   */\n      0x40\n        /* \"#utility.yul\":8635:8657   */\n      mstore\n        /* \"#utility.yul\":8425:8663   */\n      pop\n        /* \"#utility.yul\":8382:8663   */\n      pop\n      pop\n      jump\t// out\n        /* \"#utility.yul\":8669:8849   */\n    tag_142:\n        /* \"#utility.yul\":8717:8794   */\n      0x4e487b7100000000000000000000000000000000000000000000000000000000\n        /* \"#utility.yul\":8714:8715   */\n      0x00\n        /* \"#utility.yul\":8707:8795   */\n      mstore\n        /* \"#utility.yul\":8814:8818   */\n      0x41\n        /* \"#utility.yul\":8811:8812   */\n      0x04\n        /* \"#utility.yul\":8804:8819   */\n      mstore\n        /* \"#utility.yul\":8838:8842   */\n      0x24\n        /* \"#utility.yul\":8835:8836   */\n      0x00\n        /* \"#utility.yul\":8828:8843   */\n      revert\n        /* \"#utility.yul\":8855:8972   */\n    tag_60:\n        /* \"#utility.yul\":8964:8965   */\n      0x00\n        /* \"#utility.yul\":8961:8962   */\n      dup1\n        /* \"#utility.yul\":8954:8966   */\n      revert\n        /* \"#utility.yul\":8978:9095   */\n    tag_49:\n        /* \"#utility.yul\":9087:9088   */\n      0x00\n        /* \"#utility.yul\":9084:9085   */\n      dup1\n        /* \"#utility.yul\":9077:9089   */\n      revert\n        /* \"#utility.yul\":9101:9218   */\n    tag_81:\n        /* \"#utility.yul\":9210:9211   */\n      0x00\n        /* \"#utility.yul\":9207:9208   */\n      dup1\n        /* \"#utility.yul\":9200:9212   */\n      revert\n        /* \"#utility.yul\":9224:9341   */\n    tag_69:\n        /* \"#utility.yul\":9333:9334   */\n      0x00\n        /* \"#utility.yul\":9330:9331   */\n      dup1\n        /* \"#utility.yul\":9323:9335   */\n      revert\n        /* \"#utility.yul\":9347:9449   */\n    tag_97:\n        /* \"#utility.yul\":9388:9394   */\n      0x00\n        /* \"#utility.yul\":9439:9441   */\n      0x1f\n        /* \"#utility.yul\":9435:9442   */\n      not\n        /* \"#utility.yul\":9430:9432   */\n      0x1f\n        /* \"#utility.yul\":9423:9428   */\n      dup4\n        /* \"#utility.yul\":9419:9433   */\n      add\n        /* \"#utility.yul\":9415:9443   */\n      and\n        /* \"#utility.yul\":9405:9443   */\n      swap1\n      pop\n        /* \"#utility.yul\":9347:9449   */\n      swap2\n      swap1\n      pop\n      jump\t// out\n        /* \"#utility.yul\":9455:9679   */\n    tag_102:\n        /* \"#utility.yul\":9595:9629   */\n      0x596120746520656e6375656e74726173207265676973747261646f20656e2065\n        /* \"#utility.yul\":9591:9592   */\n      0x00\n        /* \"#utility.yul\":9583:9589   */\n      dup3\n        /* \"#utility.yul\":9579:9593   */\n      add\n        /* \"#utility.yul\":9572:9630   */\n      mstore\n        /* \"#utility.yul\":9664:9671   */\n      0x6c2067796d000000000000000000000000000000000000000000000000000000\n        /* \"#utility.yul\":9659:9661   */\n      0x20\n        /* \"#utility.yul\":9651:9657   */\n      dup3\n        /* \"#utility.yul\":9647:9662   */\n      add\n        /* \"#utility.yul\":9640:9672   */\n      mstore\n        /* \"#utility.yul\":9455:9679   */\n      pop\n      jump\t// out\n        /* \"#utility.yul\":9685:9920   */\n    tag_107:\n        /* \"#utility.yul\":9825:9859   */\n      0x536f6c6f20656c2041646d696e6973747261646f722064656c2047796d207075\n        /* \"#utility.yul\":9821:9822   */\n      0x00\n        /* \"#utility.yul\":9813:9819   */\n      dup3\n        /* \"#utility.yul\":9809:9823   */\n      add\n        /* \"#utility.yul\":9802:9860   */\n      mstore\n        /* \"#utility.yul\":9894:9912   */\n      0x65646520637265617220636c6173657300000000000000000000000000000000\n        /* \"#utility.yul\":9889:9891   */\n      0x20\n        /* \"#utility.yul\":9881:9887   */\n      dup3\n        /* \"#utility.yul\":9877:9892   */\n      add\n        /* \"#utility.yul\":9870:9913   */\n      mstore\n        /* \"#utility.yul\":9685:9920   */\n      pop\n      jump\t// out\n        /* \"#utility.yul\":9926:10097   */\n    tag_112:\n        /* \"#utility.yul\":10066:10089   */\n      0x4572657320656c2041646d696e6973747261646f720000000000000000000000\n        /* \"#utility.yul\":10062:10063   */\n      0x00\n        /* \"#utility.yul\":10054:10060   */\n      dup3\n        /* \"#utility.yul\":10050:10064   */\n      add\n        /* \"#utility.yul\":10043:10090   */\n      mstore\n        /* \"#utility.yul\":9926:10097   */\n      pop\n      jump\t// out\n        /* \"#utility.yul\":10103:10225   */\n    tag_55:\n        /* \"#utility.yul\":10176:10200   */\n      tag_171\n        /* \"#utility.yul\":10194:10199   */\n      dup2\n        /* \"#utility.yul\":10176:10200   */\n      tag_87\n      jump\t// in\n    tag_171:\n        /* \"#utility.yul\":10169:10174   */\n      dup2\n        /* \"#utility.yul\":10166:10201   */\n      eq\n        /* \"#utility.yul\":10156:10219   */\n      tag_172\n      jumpi\n        /* \"#utility.yul\":10215:10216   */\n      0x00\n        /* \"#utility.yul\":10212:10213   */\n      dup1\n        /* \"#utility.yul\":10205:10217   */\n      revert\n        /* \"#utility.yul\":10156:10219   */\n    tag_172:\n        /* \"#utility.yul\":10103:10225   */\n      pop\n      jump\t// out\n        /* \"#utility.yul\":10231:10353   */\n    tag_65:\n        /* \"#utility.yul\":10304:10328   */\n      tag_174\n        /* \"#utility.yul\":10322:10327   */\n      dup2\n        /* \"#utility.yul\":10304:10328   */\n      tag_116\n      jump\t// in\n    tag_174:\n        /* \"#utility.yul\":10297:10302   */\n      dup2\n        /* \"#utility.yul\":10294:10329   */\n      eq\n        /* \"#utility.yul\":10284:10347   */\n      tag_175\n      jumpi\n        /* \"#utility.yul\":10343:10344   */\n      0x00\n        /* \"#utility.yul\":10340:10341   */\n      dup1\n        /* \"#utility.yul\":10333:10345   */\n      revert\n        /* \"#utility.yul\":10284:10347   */\n    tag_175:\n        /* \"#utility.yul\":10231:10353   */\n      pop\n      jump\t// out\n\n    auxdata: 0xa2646970667358221220d828205f0481a96fe650ee2db689fafc39b5bdd3979d0faba48e569d2ed4817364736f6c63430008070033\n}\n",
				"bytecode": {
					"linkReferences": {},
					"object": "60a060405234801561001057600080fd5b503373ffffffffffffffffffffffffffffffffffffffff1660808173ffffffffffffffffffffffffffffffffffffffff1660601b8152505060805160601c61091e6100736000396000818160d90152818161011401526101c8015261091e6000f3fe608060405234801561001057600080fd5b506004361061004c5760003560e01c80632a0acc6a146100515780634852a2121461006f5780636d705ebb1461008b578063a87430ba146100a7575b600080fd5b6100596100d7565b604051610066919061058f565b60405180910390f35b61008960048036038101906100849190610473565b6100fb565b005b6100a560048036038101906100a09190610433565b6101c6565b005b6100c160048036038101906100bc9190610406565b610354565b6040516100ce9190610663565b60405180910390f35b7f000000000000000000000000000000000000000000000000000000000000000081565b3373ffffffffffffffffffffffffffffffffffffffff167f000000000000000000000000000000000000000000000000000000000000000073ffffffffffffffffffffffffffffffffffffffff1614610189576040517f08c379a000000000000000000000000000000000000000000000000000000000815260040161018090610623565b60405180910390fd5b7f14d49e3ea4f348b7f368906dfe1a63055c7822d622a61672a35a55ae97a768f982826040516101ba9291906105d3565b60405180910390a15050565b7f000000000000000000000000000000000000000000000000000000000000000073ffffffffffffffffffffffffffffffffffffffff168273ffffffffffffffffffffffffffffffffffffffff1614610254576040517f08c379a000000000000000000000000000000000000000000000000000000000815260040161024b90610643565b60405180910390fd5b60008060003373ffffffffffffffffffffffffffffffffffffffff1673ffffffffffffffffffffffffffffffffffffffff16815260200190815260200160002054146102d5576040517f08c379a00000000000000000000000000000000000000000000000000000000081526004016102cc90610603565b60405180910390fd5b806000803373ffffffffffffffffffffffffffffffffffffffff1673ffffffffffffffffffffffffffffffffffffffff168152602001908152602001600020819055507e7dc6ab80cc84c043b7b8d4fcafc802187470087f7ea7fccd2e17aecd0256a182826040516103489291906105aa565b60405180910390a15050565b60006020528060005260406000206000915090505481565b600061037f61037a846106a3565b61067e565b90508281526020810184848401111561039b5761039a6107d3565b5b6103a684828561072c565b509392505050565b6000813590506103bd816108ba565b92915050565b600082601f8301126103d8576103d76107ce565b5b81356103e884826020860161036c565b91505092915050565b600081359050610400816108d1565b92915050565b60006020828403121561041c5761041b6107dd565b5b600061042a848285016103ae565b91505092915050565b6000806040838503121561044a576104496107dd565b5b6000610458858286016103ae565b9250506020610469858286016103f1565b9150509250929050565b6000806040838503121561048a576104896107dd565b5b600083013567ffffffffffffffff8111156104a8576104a76107d8565b5b6104b4858286016103c3565b92505060206104c5858286016103f1565b9150509250929050565b6104d8816106f0565b82525050565b60006104e9826106d4565b6104f381856106df565b935061050381856020860161073b565b61050c816107e2565b840191505092915050565b60006105246025836106df565b915061052f826107f3565b604082019050919050565b60006105476030836106df565b915061055282610842565b604082019050919050565b600061056a6015836106df565b915061057582610891565b602082019050919050565b61058981610722565b82525050565b60006020820190506105a460008301846104cf565b92915050565b60006040820190506105bf60008301856104cf565b6105cc6020830184610580565b9392505050565b600060408201905081810360008301526105ed81856104de565b90506105fc6020830184610580565b9392505050565b6000602082019050818103600083015261061c81610517565b9050919050565b6000602082019050818103600083015261063c8161053a565b9050919050565b6000602082019050818103600083015261065c8161055d565b9050919050565b60006020820190506106786000830184610580565b92915050565b6000610688610699565b9050610694828261076e565b919050565b6000604051905090565b600067ffffffffffffffff8211156106be576106bd61079f565b5b6106c7826107e2565b9050602081019050919050565b600081519050919050565b600082825260208201905092915050565b60006106fb82610702565b9050919050565b600073ffffffffffffffffffffffffffffffffffffffff82169050919050565b6000819050919050565b82818337600083830152505050565b60005b8381101561075957808201518184015260208101905061073e565b83811115610768576000848401525b50505050565b610777826107e2565b810181811067ffffffffffffffff821117156107965761079561079f565b5b80604052505050565b7f4e487b7100000000000000000000000000000000000000000000000000000000600052604160045260246000fd5b600080fd5b600080fd5b600080fd5b600080fd5b6000601f19601f8301169050919050565b7f596120746520656e6375656e74726173207265676973747261646f20656e206560008201527f6c2067796d000000000000000000000000000000000000000000000000000000602082015250565b7f536f6c6f20656c2041646d696e6973747261646f722064656c2047796d20707560008201527f65646520637265617220636c6173657300000000000000000000000000000000602082015250565b7f4572657320656c2041646d696e6973747261646f720000000000000000000000600082015250565b6108c3816106f0565b81146108ce57600080fd5b50565b6108da81610722565b81146108e557600080fd5b5056fea2646970667358221220d828205f0481a96fe650ee2db689fafc39b5bdd3979d0faba48e569d2ed4817364736f6c63430008070033",
					"opcodes": "PUSH1 0xA0 PUSH1 0x40 MSTORE CALLVALUE DUP1 ISZERO PUSH2 0x10 JUMPI PUSH1 0x0 DUP1 REVERT JUMPDEST POP CALLER PUSH20 0xFFFFFFFFFFFFFFFFFFFFFFFFFFFFFFFFFFFFFFFF AND PUSH1 0x80 DUP2 PUSH20 0xFFFFFFFFFFFFFFFFFFFFFFFFFFFFFFFFFFFFFFFF AND PUSH1 0x60 SHL DUP2 MSTORE POP POP PUSH1 0x80 MLOAD PUSH1 0x60 SHR PUSH2 0x91E PUSH2 0x73 PUSH1 0x0 CODECOPY PUSH1 0x0 DUP2 DUP2 PUSH1 0xD9 ADD MSTORE DUP2 DUP2 PUSH2 0x114 ADD MSTORE PUSH2 0x1C8 ADD MSTORE PUSH2 0x91E PUSH1 0x0 RETURN INVALID PUSH1 0x80 PUSH1 0x40 MSTORE CALLVALUE DUP1 ISZERO PUSH2 0x10 JUMPI PUSH1 0x0 DUP1 REVERT JUMPDEST POP PUSH1 0x4 CALLDATASIZE LT PUSH2 0x4C JUMPI PUSH1 0x0 CALLDATALOAD PUSH1 0xE0 SHR DUP1 PUSH4 0x2A0ACC6A EQ PUSH2 0x51 JUMPI DUP1 PUSH4 0x4852A212 EQ PUSH2 0x6F JUMPI DUP1 PUSH4 0x6D705EBB EQ PUSH2 0x8B JUMPI DUP1 PUSH4 0xA87430BA EQ PUSH2 0xA7 JUMPI JUMPDEST PUSH1 0x0 DUP1 REVERT JUMPDEST PUSH2 0x59 PUSH2 0xD7 JUMP JUMPDEST PUSH1 0x40 MLOAD PUSH2 0x66 SWAP2 SWAP1 PUSH2 0x58F JUMP JUMPDEST PUSH1 0x40 MLOAD DUP1 SWAP2 SUB SWAP1 RETURN JUMPDEST PUSH2 0x89 PUSH1 0x4 DUP1 CALLDATASIZE SUB DUP2 ADD SWAP1 PUSH2 0x84 SWAP2 SWAP1 PUSH2 0x473 JUMP JUMPDEST PUSH2 0xFB JUMP JUMPDEST STOP JUMPDEST PUSH2 0xA5 PUSH1 0x4 DUP1 CALLDATASIZE SUB DUP2 ADD SWAP1 PUSH2 0xA0 SWAP2 SWAP1 PUSH2 0x433 JUMP JUMPDEST PUSH2 0x1C6 JUMP JUMPDEST STOP JUMPDEST PUSH2 0xC1 PUSH1 0x4 DUP1 CALLDATASIZE SUB DUP2 ADD SWAP1 PUSH2 0xBC SWAP2 SWAP1 PUSH2 0x406 JUMP JUMPDEST PUSH2 0x354 JUMP JUMPDEST PUSH1 0x40 MLOAD PUSH2 0xCE SWAP2 SWAP1 PUSH2 0x663 JUMP JUMPDEST PUSH1 0x40 MLOAD DUP1 SWAP2 SUB SWAP1 RETURN JUMPDEST PUSH32 0x0 DUP2 JUMP JUMPDEST CALLER PUSH20 0xFFFFFFFFFFFFFFFFFFFFFFFFFFFFFFFFFFFFFFFF AND PUSH32 0x0 PUSH20 0xFFFFFFFFFFFFFFFFFFFFFFFFFFFFFFFFFFFFFFFF AND EQ PUSH2 0x189 JUMPI PUSH1 0x40 MLOAD PUSH32 0x8C379A000000000000000000000000000000000000000000000000000000000 DUP2 MSTORE PUSH1 0x4 ADD PUSH2 0x180 SWAP1 PUSH2 0x623 JUMP JUMPDEST PUSH1 0x40 MLOAD DUP1 SWAP2 SUB SWAP1 REVERT JUMPDEST PUSH32 0x14D49E3EA4F348B7F368906DFE1A63055C7822D622A61672A35A55AE97A768F9 DUP3 DUP3 PUSH1 0x40 MLOAD PUSH2 0x1BA SWAP3 SWAP2 SWAP1 PUSH2 0x5D3 JUMP JUMPDEST PUSH1 0x40 MLOAD DUP1 SWAP2 SUB SWAP1 LOG1 POP POP JUMP JUMPDEST PUSH32 0x0 PUSH20 0xFFFFFFFFFFFFFFFFFFFFFFFFFFFFFFFFFFFFFFFF AND DUP3 PUSH20 0xFFFFFFFFFFFFFFFFFFFFFFFFFFFFFFFFFFFFFFFF AND EQ PUSH2 0x254 JUMPI PUSH1 0x40 MLOAD PUSH32 0x8C379A000000000000000000000000000000000000000000000000000000000 DUP2 MSTORE PUSH1 0x4 ADD PUSH2 0x24B SWAP1 PUSH2 0x643 JUMP JUMPDEST PUSH1 0x40 MLOAD DUP1 SWAP2 SUB SWAP1 REVERT JUMPDEST PUSH1 0x0 DUP1 PUSH1 0x0 CALLER PUSH20 0xFFFFFFFFFFFFFFFFFFFFFFFFFFFFFFFFFFFFFFFF AND PUSH20 0xFFFFFFFFFFFFFFFFFFFFFFFFFFFFFFFFFFFFFFFF AND DUP2 MSTORE PUSH1 0x20 ADD SWAP1 DUP2 MSTORE PUSH1 0x20 ADD PUSH1 0x0 KECCAK256 SLOAD EQ PUSH2 0x2D5 JUMPI PUSH1 0x40 MLOAD PUSH32 0x8C379A000000000000000000000000000000000000000000000000000000000 DUP2 MSTORE PUSH1 0x4 ADD PUSH2 0x2CC SWAP1 PUSH2 0x603 JUMP JUMPDEST PUSH1 0x40 MLOAD DUP1 SWAP2 SUB SWAP1 REVERT JUMPDEST DUP1 PUSH1 0x0 DUP1 CALLER PUSH20 0xFFFFFFFFFFFFFFFFFFFFFFFFFFFFFFFFFFFFFFFF AND PUSH20 0xFFFFFFFFFFFFFFFFFFFFFFFFFFFFFFFFFFFFFFFF AND DUP2 MSTORE PUSH1 0x20 ADD SWAP1 DUP2 MSTORE PUSH1 0x20 ADD PUSH1 0x0 KECCAK256 DUP2 SWAP1 SSTORE POP PUSH31 0x7DC6AB80CC84C043B7B8D4FCAFC802187470087F7EA7FCCD2E17AECD0256A1 DUP3 DUP3 PUSH1 0x40 MLOAD PUSH2 0x348 SWAP3 SWAP2 SWAP1 PUSH2 0x5AA JUMP JUMPDEST PUSH1 0x40 MLOAD DUP1 SWAP2 SUB SWAP1 LOG1 POP POP JUMP JUMPDEST PUSH1 0x0 PUSH1 0x20 MSTORE DUP1 PUSH1 0x0 MSTORE PUSH1 0x40 PUSH1 0x0 KECCAK256 PUSH1 0x0 SWAP2 POP SWAP1 POP SLOAD DUP2 JUMP JUMPDEST PUSH1 0x0 PUSH2 0x37F PUSH2 0x37A DUP5 PUSH2 0x6A3 JUMP JUMPDEST PUSH2 0x67E JUMP JUMPDEST SWAP1 POP DUP3 DUP2 MSTORE PUSH1 0x20 DUP2 ADD DUP5 DUP5 DUP5 ADD GT ISZERO PUSH2 0x39B JUMPI PUSH2 0x39A PUSH2 0x7D3 JUMP JUMPDEST JUMPDEST PUSH2 0x3A6 DUP5 DUP3 DUP6 PUSH2 0x72C JUMP JUMPDEST POP SWAP4 SWAP3 POP POP POP JUMP JUMPDEST PUSH1 0x0 DUP2 CALLDATALOAD SWAP1 POP PUSH2 0x3BD DUP2 PUSH2 0x8BA JUMP JUMPDEST SWAP3 SWAP2 POP POP JUMP JUMPDEST PUSH1 0x0 DUP3 PUSH1 0x1F DUP4 ADD SLT PUSH2 0x3D8 JUMPI PUSH2 0x3D7 PUSH2 0x7CE JUMP JUMPDEST JUMPDEST DUP2 CALLDATALOAD PUSH2 0x3E8 DUP5 DUP3 PUSH1 0x20 DUP7 ADD PUSH2 0x36C JUMP JUMPDEST SWAP2 POP POP SWAP3 SWAP2 POP POP JUMP JUMPDEST PUSH1 0x0 DUP2 CALLDATALOAD SWAP1 POP PUSH2 0x400 DUP2 PUSH2 0x8D1 JUMP JUMPDEST SWAP3 SWAP2 POP POP JUMP JUMPDEST PUSH1 0x0 PUSH1 0x20 DUP3 DUP5 SUB SLT ISZERO PUSH2 0x41C JUMPI PUSH2 0x41B PUSH2 0x7DD JUMP JUMPDEST JUMPDEST PUSH1 0x0 PUSH2 0x42A DUP5 DUP3 DUP6 ADD PUSH2 0x3AE JUMP JUMPDEST SWAP2 POP POP SWAP3 SWAP2 POP POP JUMP JUMPDEST PUSH1 0x0 DUP1 PUSH1 0x40 DUP4 DUP6 SUB SLT ISZERO PUSH2 0x44A JUMPI PUSH2 0x449 PUSH2 0x7DD JUMP JUMPDEST JUMPDEST PUSH1 0x0 PUSH2 0x458 DUP6 DUP3 DUP7 ADD PUSH2 0x3AE JUMP JUMPDEST SWAP3 POP POP PUSH1 0x20 PUSH2 0x469 DUP6 DUP3 DUP7 ADD PUSH2 0x3F1 JUMP JUMPDEST SWAP2 POP POP SWAP3 POP SWAP3 SWAP1 POP JUMP JUMPDEST PUSH1 0x0 DUP1 PUSH1 0x40 DUP4 DUP6 SUB SLT ISZERO PUSH2 0x48A JUMPI PUSH2 0x489 PUSH2 0x7DD JUMP JUMPDEST JUMPDEST PUSH1 0x0 DUP4 ADD CALLDATALOAD PUSH8 0xFFFFFFFFFFFFFFFF DUP2 GT ISZERO PUSH2 0x4A8 JUMPI PUSH2 0x4A7 PUSH2 0x7D8 JUMP JUMPDEST JUMPDEST PUSH2 0x4B4 DUP6 DUP3 DUP7 ADD PUSH2 0x3C3 JUMP JUMPDEST SWAP3 POP POP PUSH1 0x20 PUSH2 0x4C5 DUP6 DUP3 DUP7 ADD PUSH2 0x3F1 JUMP JUMPDEST SWAP2 POP POP SWAP3 POP SWAP3 SWAP1 POP JUMP JUMPDEST PUSH2 0x4D8 DUP2 PUSH2 0x6F0 JUMP JUMPDEST DUP3 MSTORE POP POP JUMP JUMPDEST PUSH1 0x0 PUSH2 0x4E9 DUP3 PUSH2 0x6D4 JUMP JUMPDEST PUSH2 0x4F3 DUP2 DUP6 PUSH2 0x6DF JUMP JUMPDEST SWAP4 POP PUSH2 0x503 DUP2 DUP6 PUSH1 0x20 DUP7 ADD PUSH2 0x73B JUMP JUMPDEST PUSH2 0x50C DUP2 PUSH2 0x7E2 JUMP JUMPDEST DUP5 ADD SWAP2 POP POP SWAP3 SWAP2 POP POP JUMP JUMPDEST PUSH1 0x0 PUSH2 0x524 PUSH1 0x25 DUP4 PUSH2 0x6DF JUMP JUMPDEST SWAP2 POP PUSH2 0x52F DUP3 PUSH2 0x7F3 JUMP JUMPDEST PUSH1 0x40 DUP3 ADD SWAP1 POP SWAP2 SWAP1 POP JUMP JUMPDEST PUSH1 0x0 PUSH2 0x547 PUSH1 0x30 DUP4 PUSH2 0x6DF JUMP JUMPDEST SWAP2 POP PUSH2 0x552 DUP3 PUSH2 0x842 JUMP JUMPDEST PUSH1 0x40 DUP3 ADD SWAP1 POP SWAP2 SWAP1 POP JUMP JUMPDEST PUSH1 0x0 PUSH2 0x56A PUSH1 0x15 DUP4 PUSH2 0x6DF JUMP JUMPDEST SWAP2 POP PUSH2 0x575 DUP3 PUSH2 0x891 JUMP JUMPDEST PUSH1 0x20 DUP3 ADD SWAP1 POP SWAP2 SWAP1 POP JUMP JUMPDEST PUSH2 0x589 DUP2 PUSH2 0x722 JUMP JUMPDEST DUP3 MSTORE POP POP JUMP JUMPDEST PUSH1 0x0 PUSH1 0x20 DUP3 ADD SWAP1 POP PUSH2 0x5A4 PUSH1 0x0 DUP4 ADD DUP5 PUSH2 0x4CF JUMP JUMPDEST SWAP3 SWAP2 POP POP JUMP JUMPDEST PUSH1 0x0 PUSH1 0x40 DUP3 ADD SWAP1 POP PUSH2 0x5BF PUSH1 0x0 DUP4 ADD DUP6 PUSH2 0x4CF JUMP JUMPDEST PUSH2 0x5CC PUSH1 0x20 DUP4 ADD DUP5 PUSH2 0x580 JUMP JUMPDEST SWAP4 SWAP3 POP POP POP JUMP JUMPDEST PUSH1 0x0 PUSH1 0x40 DUP3 ADD SWAP1 POP DUP2 DUP2 SUB PUSH1 0x0 DUP4 ADD MSTORE PUSH2 0x5ED DUP2 DUP6 PUSH2 0x4DE JUMP JUMPDEST SWAP1 POP PUSH2 0x5FC PUSH1 0x20 DUP4 ADD DUP5 PUSH2 0x580 JUMP JUMPDEST SWAP4 SWAP3 POP POP POP JUMP JUMPDEST PUSH1 0x0 PUSH1 0x20 DUP3 ADD SWAP1 POP DUP2 DUP2 SUB PUSH1 0x0 DUP4 ADD MSTORE PUSH2 0x61C DUP2 PUSH2 0x517 JUMP JUMPDEST SWAP1 POP SWAP2 SWAP1 POP JUMP JUMPDEST PUSH1 0x0 PUSH1 0x20 DUP3 ADD SWAP1 POP DUP2 DUP2 SUB PUSH1 0x0 DUP4 ADD MSTORE PUSH2 0x63C DUP2 PUSH2 0x53A JUMP JUMPDEST SWAP1 POP SWAP2 SWAP1 POP JUMP JUMPDEST PUSH1 0x0 PUSH1 0x20 DUP3 ADD SWAP1 POP DUP2 DUP2 SUB PUSH1 0x0 DUP4 ADD MSTORE PUSH2 0x65C DUP2 PUSH2 0x55D JUMP JUMPDEST SWAP1 POP SWAP2 SWAP1 POP JUMP JUMPDEST PUSH1 0x0 PUSH1 0x20 DUP3 ADD SWAP1 POP PUSH2 0x678 PUSH1 0x0 DUP4 ADD DUP5 PUSH2 0x580 JUMP JUMPDEST SWAP3 SWAP2 POP POP JUMP JUMPDEST PUSH1 0x0 PUSH2 0x688 PUSH2 0x699 JUMP JUMPDEST SWAP1 POP PUSH2 0x694 DUP3 DUP3 PUSH2 0x76E JUMP JUMPDEST SWAP2 SWAP1 POP JUMP JUMPDEST PUSH1 0x0 PUSH1 0x40 MLOAD SWAP1 POP SWAP1 JUMP JUMPDEST PUSH1 0x0 PUSH8 0xFFFFFFFFFFFFFFFF DUP3 GT ISZERO PUSH2 0x6BE JUMPI PUSH2 0x6BD PUSH2 0x79F JUMP JUMPDEST JUMPDEST PUSH2 0x6C7 DUP3 PUSH2 0x7E2 JUMP JUMPDEST SWAP1 POP PUSH1 0x20 DUP2 ADD SWAP1 POP SWAP2 SWAP1 POP JUMP JUMPDEST PUSH1 0x0 DUP2 MLOAD SWAP1 POP SWAP2 SWAP1 POP JUMP JUMPDEST PUSH1 0x0 DUP3 DUP3 MSTORE PUSH1 0x20 DUP3 ADD SWAP1 POP SWAP3 SWAP2 POP POP JUMP JUMPDEST PUSH1 0x0 PUSH2 0x6FB DUP3 PUSH2 0x702 JUMP JUMPDEST SWAP1 POP SWAP2 SWAP1 POP JUMP JUMPDEST PUSH1 0x0 PUSH20 0xFFFFFFFFFFFFFFFFFFFFFFFFFFFFFFFFFFFFFFFF DUP3 AND SWAP1 POP SWAP2 SWAP1 POP JUMP JUMPDEST PUSH1 0x0 DUP2 SWAP1 POP SWAP2 SWAP1 POP JUMP JUMPDEST DUP3 DUP2 DUP4 CALLDATACOPY PUSH1 0x0 DUP4 DUP4 ADD MSTORE POP POP POP JUMP JUMPDEST PUSH1 0x0 JUMPDEST DUP4 DUP2 LT ISZERO PUSH2 0x759 JUMPI DUP1 DUP3 ADD MLOAD DUP2 DUP5 ADD MSTORE PUSH1 0x20 DUP2 ADD SWAP1 POP PUSH2 0x73E JUMP JUMPDEST DUP4 DUP2 GT ISZERO PUSH2 0x768 JUMPI PUSH1 0x0 DUP5 DUP5 ADD MSTORE JUMPDEST POP POP POP POP JUMP JUMPDEST PUSH2 0x777 DUP3 PUSH2 0x7E2 JUMP JUMPDEST DUP2 ADD DUP2 DUP2 LT PUSH8 0xFFFFFFFFFFFFFFFF DUP3 GT OR ISZERO PUSH2 0x796 JUMPI PUSH2 0x795 PUSH2 0x79F JUMP JUMPDEST JUMPDEST DUP1 PUSH1 0x40 MSTORE POP POP POP JUMP JUMPDEST PUSH32 0x4E487B7100000000000000000000000000000000000000000000000000000000 PUSH1 0x0 MSTORE PUSH1 0x41 PUSH1 0x4 MSTORE PUSH1 0x24 PUSH1 0x0 REVERT JUMPDEST PUSH1 0x0 DUP1 REVERT JUMPDEST PUSH1 0x0 DUP1 REVERT JUMPDEST PUSH1 0x0 DUP1 REVERT JUMPDEST PUSH1 0x0 DUP1 REVERT JUMPDEST PUSH1 0x0 PUSH1 0x1F NOT PUSH1 0x1F DUP4 ADD AND SWAP1 POP SWAP2 SWAP1 POP JUMP JUMPDEST PUSH32 0x596120746520656E6375656E74726173207265676973747261646F20656E2065 PUSH1 0x0 DUP3 ADD MSTORE PUSH32 0x6C2067796D000000000000000000000000000000000000000000000000000000 PUSH1 0x20 DUP3 ADD MSTORE POP JUMP JUMPDEST PUSH32 0x536F6C6F20656C2041646D696E6973747261646F722064656C2047796D207075 PUSH1 0x0 DUP3 ADD MSTORE PUSH32 0x65646520637265617220636C6173657300000000000000000000000000000000 PUSH1 0x20 DUP3 ADD MSTORE POP JUMP JUMPDEST PUSH32 0x4572657320656C2041646D696E6973747261646F720000000000000000000000 PUSH1 0x0 DUP3 ADD MSTORE POP JUMP JUMPDEST PUSH2 0x8C3 DUP2 PUSH2 0x6F0 JUMP JUMPDEST DUP2 EQ PUSH2 0x8CE JUMPI PUSH1 0x0 DUP1 REVERT JUMPDEST POP JUMP JUMPDEST PUSH2 0x8DA DUP2 PUSH2 0x722 JUMP JUMPDEST DUP2 EQ PUSH2 0x8E5 JUMPI PUSH1 0x0 DUP1 REVERT JUMPDEST POP JUMP INVALID LOG2 PUSH5 0x6970667358 0x22 SLT KECCAK256 0xD8 0x28 KECCAK256 0x5F DIV DUP2 0xA9 PUSH16 0xE650EE2DB689FAFC39B5BDD3979D0FAB LOG4 DUP15 JUMP SWAP14 0x2E 0xD4 DUP2 PUSH20 0x64736F6C63430008070033000000000000000000 "
				},
				"gasEstimates": {
					"creation": {
						"codeDepositCost": "466800",
						"executionCost": "infinite",
						"totalCost": "infinite"
					},
					"external": {
						"ADMIN()": "infinite",
						"createClass(string,uint256)": "infinite",
						"register(address,uint256)": "infinite",
						"users(address)": "2858"
					}
				},
				"methodIdentifiers": {
					"ADMIN()": "2a0acc6a",
					"createClass(string,uint256)": "4852a212",
					"register(address,uint256)": "6d705ebb",
					"users(address)": "a87430ba"
				}
			},
			"storageLayout": {
				"storage": [
					{
						"astId": 33,
						"contract": "contracts/Gym_Contact.sol:gym",
						"label": "users",
						"offset": 0,
						"slot": "0",
						"type": "t_mapping(t_address,t_uint256)"
					}
				],
				"types": {
					"t_address": {
						"encoding": "inplace",
						"label": "address",
						"numberOfBytes": "20"
					},
					"t_mapping(t_address,t_uint256)": {
						"encoding": "mapping",
						"key": "t_address",
						"label": "mapping(address => uint256)",
						"numberOfBytes": "32",
						"value": "t_uint256"
					},
					"t_uint256": {
						"encoding": "inplace",
						"label": "uint256",
						"numberOfBytes": "32"
					}
				}
			},
			"userdoc": {
				"kind": "user",
				"methods": {},
				"version": 1
			}
		}
	}
}