{
	"contracts/Gym_Contact.sol": {
		"gym": {
			"abi": [
				{
					"inputs": [],
					"stateMutability": "nonpayable",
					"type": "constructor"
				},
				{
					"anonymous": false,
					"inputs": [
						{
							"indexed": false,
							"internalType": "uint256",
							"name": "id",
							"type": "uint256"
						},
						{
							"indexed": false,
							"internalType": "string",
							"name": "name",
							"type": "string"
						},
						{
							"indexed": false,
							"internalType": "uint256",
							"name": "value",
							"type": "uint256"
						}
					],
					"name": "ClassCreated",
					"type": "event"
				},
				{
					"anonymous": false,
					"inputs": [
						{
							"indexed": false,
							"internalType": "address",
							"name": "user",
							"type": "address"
						},
						{
							"indexed": false,
							"internalType": "uint256",
							"name": "credits",
							"type": "uint256"
						}
					],
					"name": "Register",
					"type": "event"
				},
				{
					"inputs": [],
					"name": "ADMIN",
					"outputs": [
						{
							"internalType": "address",
							"name": "",
							"type": "address"
						}
					],
					"stateMutability": "view",
					"type": "function"
				},
				{
					"inputs": [
						{
							"internalType": "address",
							"name": "",
							"type": "address"
						},
						{
							"internalType": "uint256",
							"name": "",
							"type": "uint256"
						}
					],
					"name": "clases",
					"outputs": [
						{
							"internalType": "uint256",
							"name": "id",
							"type": "uint256"
						},
						{
							"internalType": "string",
							"name": "name",
							"type": "string"
						},
						{
							"internalType": "uint256",
							"name": "value",
							"type": "uint256"
						}
					],
					"stateMutability": "view",
					"type": "function"
				},
				{
					"inputs": [],
					"name": "class",
					"outputs": [
						{
							"internalType": "uint256",
							"name": "id",
							"type": "uint256"
						},
						{
							"internalType": "string",
							"name": "name",
							"type": "string"
						},
						{
							"internalType": "uint256",
							"name": "value",
							"type": "uint256"
						}
					],
					"stateMutability": "view",
					"type": "function"
				},
				{
					"inputs": [
						{
							"internalType": "address",
							"name": "",
							"type": "address"
						}
					],
					"name": "classCount",
					"outputs": [
						{
							"internalType": "uint256",
							"name": "",
							"type": "uint256"
						}
					],
					"stateMutability": "view",
					"type": "function"
				},
				{
					"inputs": [
						{
							"internalType": "string",
							"name": "_name",
							"type": "string"
						},
						{
							"internalType": "uint256",
							"name": "_value",
							"type": "uint256"
						}
					],
					"name": "createClass",
					"outputs": [],
					"stateMutability": "nonpayable",
					"type": "function"
				},
				{
					"inputs": [],
					"name": "getBalance",
					"outputs": [
						{
							"internalType": "address",
							"name": "",
							"type": "address"
						},
						{
							"internalType": "uint256",
							"name": "",
							"type": "uint256"
						}
					],
					"stateMutability": "view",
					"type": "function"
				},
				{
					"inputs": [],
					"name": "getClass",
					"outputs": [
						{
							"internalType": "string",
							"name": "",
							"type": "string"
						}
					],
					"stateMutability": "view",
					"type": "function"
				},
				{
					"inputs": [
						{
							"internalType": "address",
							"name": "_address",
							"type": "address"
						},
						{
							"internalType": "uint256",
							"name": "_credits",
							"type": "uint256"
						}
					],
					"name": "register",
					"outputs": [],
					"stateMutability": "nonpayable",
					"type": "function"
				},
				{
					"inputs": [
						{
							"internalType": "address",
							"name": "",
							"type": "address"
						}
					],
					"name": "users",
					"outputs": [
						{
							"internalType": "uint256",
							"name": "",
							"type": "uint256"
						}
					],
					"stateMutability": "view",
					"type": "function"
				}
			],
			"devdoc": {
				"kind": "dev",
				"methods": {},
				"version": 1
			},
			"evm": {
				"assembly": "    /* \"contracts/Gym_Contact.sol\":70:1924  contract gym {\r... */\n  mstore(0x40, 0xa0)\n    /* \"contracts/Gym_Contact.sol\":425:476  constructor() {\r... */\n  callvalue\n  dup1\n  iszero\n  tag_1\n  jumpi\n  0x00\n  dup1\n  revert\ntag_1:\n  pop\n    /* \"contracts/Gym_Contact.sol\":458:468  msg.sender */\n  caller\n    /* \"contracts/Gym_Contact.sol\":450:468  ADMIN = msg.sender */\n  0xffffffffffffffffffffffffffffffffffffffff\n  and\n  0x80\n  dup2\n  0xffffffffffffffffffffffffffffffffffffffff\n  and\n  0x60\n  shl\n  dup2\n  mstore\n  pop\n  pop\n    /* \"contracts/Gym_Contact.sol\":70:1924  contract gym {\r... */\n  shr(0x60, mload(0x80))\n  codecopy(0x00, dataOffset(sub_0), dataSize(sub_0))\n  0x00\n  assignImmutable(\"0x6585423cb6456b1d4957f6454d2f004f0c4f58d53a00082412d5c2ef4b1b31fd\")\n  return(0x00, dataSize(sub_0))\nstop\n\nsub_0: assembly {\n        /* \"contracts/Gym_Contact.sol\":70:1924  contract gym {\r... */\n      mstore(0x40, 0x80)\n      callvalue\n      dup1\n      iszero\n      tag_1\n      jumpi\n      0x00\n      dup1\n      revert\n    tag_1:\n      pop\n      jumpi(tag_2, lt(calldatasize, 0x04))\n      shr(0xe0, calldataload(0x00))\n      dup1\n      0x6d705ebb\n      gt\n      tag_12\n      jumpi\n      dup1\n      0x6d705ebb\n      eq\n      tag_7\n      jumpi\n      dup1\n      0x78dea39d\n      eq\n      tag_8\n      jumpi\n      dup1\n      0xa87430ba\n      eq\n      tag_9\n      jumpi\n      dup1\n      0xbff852fa\n      eq\n      tag_10\n      jumpi\n      dup1\n      0xf3bcaf59\n      eq\n      tag_11\n      jumpi\n      jump(tag_2)\n    tag_12:\n      dup1\n      0x12065fe0\n      eq\n      tag_3\n      jumpi\n      dup1\n      0x2a0acc6a\n      eq\n      tag_4\n      jumpi\n      dup1\n      0x4852a212\n      eq\n      tag_5\n      jumpi\n      dup1\n      0x57e61ea4\n      eq\n      tag_6\n      jumpi\n    tag_2:\n      0x00\n      dup1\n      revert\n        /* \"contracts/Gym_Contact.sol\":1592:1705  function getBalance() public view returns(address, uint){\r... */\n    tag_3:\n      tag_13\n      tag_14\n      jump\t// in\n    tag_13:\n      mload(0x40)\n      tag_15\n      swap3\n      swap2\n      swap1\n      tag_16\n      jump\t// in\n    tag_15:\n      mload(0x40)\n      dup1\n      swap2\n      sub\n      swap1\n      return\n        /* \"contracts/Gym_Contact.sol\":386:416  address immutable public ADMIN */\n    tag_4:\n      tag_17\n      tag_18\n      jump\t// in\n    tag_17:\n      mload(0x40)\n      tag_19\n      swap2\n      swap1\n      tag_20\n      jump\t// in\n    tag_19:\n      mload(0x40)\n      dup1\n      swap2\n      sub\n      swap1\n      return\n        /* \"contracts/Gym_Contact.sol\":804:1160  function createClass(string memory _name, uint _value) public {\r... */\n    tag_5:\n      tag_21\n      0x04\n      dup1\n      calldatasize\n      sub\n      dup2\n      add\n      swap1\n      tag_22\n      swap2\n      swap1\n      tag_23\n      jump\t// in\n    tag_22:\n      tag_24\n      jump\t// in\n    tag_21:\n      stop\n        /* \"contracts/Gym_Contact.sol\":1713:1804  function getClass() public view returns(string memory) {\r... */\n    tag_6:\n      tag_25\n      tag_26\n      jump\t// in\n    tag_25:\n      mload(0x40)\n      tag_27\n      swap2\n      swap1\n      tag_28\n      jump\t// in\n    tag_27:\n      mload(0x40)\n      dup1\n      swap2\n      sub\n      swap1\n      return\n        /* \"contracts/Gym_Contact.sol\":1198:1584  function register(address _address, uint _credits) public {\r... */\n    tag_7:\n      tag_29\n      0x04\n      dup1\n      calldatasize\n      sub\n      dup2\n      add\n      swap1\n      tag_30\n      swap2\n      swap1\n      tag_31\n      jump\t// in\n    tag_30:\n      tag_32\n      jump\t// in\n    tag_29:\n      stop\n        /* \"contracts/Gym_Contact.sol\":697:739  mapping(address => uint) public classCount */\n    tag_8:\n      tag_33\n      0x04\n      dup1\n      calldatasize\n      sub\n      dup2\n      add\n      swap1\n      tag_34\n      swap2\n      swap1\n      tag_35\n      jump\t// in\n    tag_34:\n      tag_36\n      jump\t// in\n    tag_33:\n      mload(0x40)\n      tag_37\n      swap2\n      swap1\n      tag_38\n      jump\t// in\n    tag_37:\n      mload(0x40)\n      dup1\n      swap2\n      sub\n      swap1\n      return\n        /* \"contracts/Gym_Contact.sol\":500:537  mapping(address => uint) public users */\n    tag_9:\n      tag_39\n      0x04\n      dup1\n      calldatasize\n      sub\n      dup2\n      add\n      swap1\n      tag_40\n      swap2\n      swap1\n      tag_35\n      jump\t// in\n    tag_40:\n      tag_41\n      jump\t// in\n    tag_39:\n      mload(0x40)\n      tag_42\n      swap2\n      swap1\n      tag_38\n      jump\t// in\n    tag_42:\n      mload(0x40)\n      dup1\n      swap2\n      sub\n      swap1\n      return\n        /* \"contracts/Gym_Contact.sol\":746:764  Class public class */\n    tag_10:\n      tag_43\n      tag_44\n      jump\t// in\n    tag_43:\n      mload(0x40)\n      tag_45\n      swap4\n      swap3\n      swap2\n      swap1\n      tag_46\n      jump\t// in\n    tag_45:\n      mload(0x40)\n      dup1\n      swap2\n      sub\n      swap1\n      return\n        /* \"contracts/Gym_Contact.sol\":591:646  mapping(address =>mapping(uint => Class)) public clases */\n    tag_11:\n      tag_47\n      0x04\n      dup1\n      calldatasize\n      sub\n      dup2\n      add\n      swap1\n      tag_48\n      swap2\n      swap1\n      tag_31\n      jump\t// in\n    tag_48:\n      tag_49\n      jump\t// in\n    tag_47:\n      mload(0x40)\n      tag_50\n      swap4\n      swap3\n      swap2\n      swap1\n      tag_46\n      jump\t// in\n    tag_50:\n      mload(0x40)\n      dup1\n      swap2\n      sub\n      swap1\n      return\n        /* \"contracts/Gym_Contact.sol\":1592:1705  function getBalance() public view returns(address, uint){\r... */\n    tag_14:\n        /* \"contracts/Gym_Contact.sol\":1634:1641  address */\n      0x00\n        /* \"contracts/Gym_Contact.sol\":1643:1647  uint */\n      dup1\n        /* \"contracts/Gym_Contact.sol\":1667:1677  msg.sender */\n      caller\n        /* \"contracts/Gym_Contact.sol\":1679:1684  users */\n      0x00\n        /* \"contracts/Gym_Contact.sol\":1679:1696  users[msg.sender] */\n      dup1\n        /* \"contracts/Gym_Contact.sol\":1685:1695  msg.sender */\n      caller\n        /* \"contracts/Gym_Contact.sol\":1679:1696  users[msg.sender] */\n      0xffffffffffffffffffffffffffffffffffffffff\n      and\n      0xffffffffffffffffffffffffffffffffffffffff\n      and\n      dup2\n      mstore\n      0x20\n      add\n      swap1\n      dup2\n      mstore\n      0x20\n      add\n      0x00\n      keccak256\n      sload\n        /* \"contracts/Gym_Contact.sol\":1659:1697  return (msg.sender, users[msg.sender]) */\n      swap2\n      pop\n      swap2\n      pop\n        /* \"contracts/Gym_Contact.sol\":1592:1705  function getBalance() public view returns(address, uint){\r... */\n      swap1\n      swap2\n      jump\t// out\n        /* \"contracts/Gym_Contact.sol\":386:416  address immutable public ADMIN */\n    tag_18:\n      immutable(\"0x6585423cb6456b1d4957f6454d2f004f0c4f58d53a00082412d5c2ef4b1b31fd\")\n      dup2\n      jump\t// out\n        /* \"contracts/Gym_Contact.sol\":804:1160  function createClass(string memory _name, uint _value) public {\r... */\n    tag_24:\n        /* \"contracts/Gym_Contact.sol\":894:904  msg.sender */\n      caller\n        /* \"contracts/Gym_Contact.sol\":885:904  ADMIN == msg.sender */\n      0xffffffffffffffffffffffffffffffffffffffff\n      and\n        /* \"contracts/Gym_Contact.sol\":885:890  ADMIN */\n      immutable(\"0x6585423cb6456b1d4957f6454d2f004f0c4f58d53a00082412d5c2ef4b1b31fd\")\n        /* \"contracts/Gym_Contact.sol\":885:904  ADMIN == msg.sender */\n      0xffffffffffffffffffffffffffffffffffffffff\n      and\n      eq\n        /* \"contracts/Gym_Contact.sol\":877:957  require(ADMIN == msg.sender, \"Solo el Administrador del Gym puede crear clases\") */\n      tag_53\n      jumpi\n      mload(0x40)\n      0x08c379a000000000000000000000000000000000000000000000000000000000\n      dup2\n      mstore\n      0x04\n      add\n      tag_54\n      swap1\n      tag_55\n      jump\t// in\n    tag_54:\n      mload(0x40)\n      dup1\n      swap2\n      sub\n      swap1\n      revert\n    tag_53:\n        /* \"contracts/Gym_Contact.sol\":968:980  uint counter */\n      0x00\n        /* \"contracts/Gym_Contact.sol\":983:993  classCount */\n      0x02\n        /* \"contracts/Gym_Contact.sol\":983:1000  classCount[ADMIN] */\n      0x00\n        /* \"contracts/Gym_Contact.sol\":994:999  ADMIN */\n      immutable(\"0x6585423cb6456b1d4957f6454d2f004f0c4f58d53a00082412d5c2ef4b1b31fd\")\n        /* \"contracts/Gym_Contact.sol\":983:1000  classCount[ADMIN] */\n      0xffffffffffffffffffffffffffffffffffffffff\n      and\n      0xffffffffffffffffffffffffffffffffffffffff\n      and\n      dup2\n      mstore\n      0x20\n      add\n      swap1\n      dup2\n      mstore\n      0x20\n      add\n      0x00\n      keccak256\n      sload\n        /* \"contracts/Gym_Contact.sol\":968:1000  uint counter = classCount[ADMIN] */\n      swap1\n      pop\n        /* \"contracts/Gym_Contact.sol\":1036:1065  Class(counter, _name, _value) */\n      mload(0x40)\n      dup1\n      0x60\n      add\n      0x40\n      mstore\n      dup1\n        /* \"contracts/Gym_Contact.sol\":1042:1049  counter */\n      dup3\n        /* \"contracts/Gym_Contact.sol\":1036:1065  Class(counter, _name, _value) */\n      dup2\n      mstore\n      0x20\n      add\n        /* \"contracts/Gym_Contact.sol\":1051:1056  _name */\n      dup5\n        /* \"contracts/Gym_Contact.sol\":1036:1065  Class(counter, _name, _value) */\n      dup2\n      mstore\n      0x20\n      add\n        /* \"contracts/Gym_Contact.sol\":1058:1064  _value */\n      dup4\n        /* \"contracts/Gym_Contact.sol\":1036:1065  Class(counter, _name, _value) */\n      dup2\n      mstore\n      pop\n        /* \"contracts/Gym_Contact.sol\":1011:1017  clases */\n      0x01\n        /* \"contracts/Gym_Contact.sol\":1011:1024  clases[ADMIN] */\n      0x00\n        /* \"contracts/Gym_Contact.sol\":1018:1023  ADMIN */\n      immutable(\"0x6585423cb6456b1d4957f6454d2f004f0c4f58d53a00082412d5c2ef4b1b31fd\")\n        /* \"contracts/Gym_Contact.sol\":1011:1024  clases[ADMIN] */\n      0xffffffffffffffffffffffffffffffffffffffff\n      and\n      0xffffffffffffffffffffffffffffffffffffffff\n      and\n      dup2\n      mstore\n      0x20\n      add\n      swap1\n      dup2\n      mstore\n      0x20\n      add\n      0x00\n      keccak256\n        /* \"contracts/Gym_Contact.sol\":1011:1033  clases[ADMIN][counter] */\n      0x00\n        /* \"contracts/Gym_Contact.sol\":1025:1032  counter */\n      dup4\n        /* \"contracts/Gym_Contact.sol\":1011:1033  clases[ADMIN][counter] */\n      dup2\n      mstore\n      0x20\n      add\n      swap1\n      dup2\n      mstore\n      0x20\n      add\n      0x00\n      keccak256\n        /* \"contracts/Gym_Contact.sol\":1011:1065  clases[ADMIN][counter] = Class(counter, _name, _value) */\n      0x00\n      dup3\n      add\n      mload\n      dup2\n      0x00\n      add\n      sstore\n      0x20\n      dup3\n      add\n      mload\n      dup2\n      0x01\n      add\n      swap1\n      dup1\n      mload\n      swap1\n      0x20\n      add\n      swap1\n      tag_56\n      swap3\n      swap2\n      swap1\n      tag_57\n      jump\t// in\n    tag_56:\n      pop\n      0x40\n      dup3\n      add\n      mload\n      dup2\n      0x02\n      add\n      sstore\n      swap1\n      pop\n      pop\n        /* \"contracts/Gym_Contact.sol\":1081:1117  ClassCreated(counter, _name, _value) */\n      0x7e4cf851366c6fd2ca0ede101f0cf37bbc5080a6bb4fd545d9f5408650f1c1dd\n        /* \"contracts/Gym_Contact.sol\":1094:1101  counter */\n      dup2\n        /* \"contracts/Gym_Contact.sol\":1103:1108  _name */\n      dup5\n        /* \"contracts/Gym_Contact.sol\":1110:1116  _value */\n      dup5\n        /* \"contracts/Gym_Contact.sol\":1081:1117  ClassCreated(counter, _name, _value) */\n      mload(0x40)\n      tag_58\n      swap4\n      swap3\n      swap2\n      swap1\n      tag_46\n      jump\t// in\n    tag_58:\n      mload(0x40)\n      dup1\n      swap2\n      sub\n      swap1\n      log1\n        /* \"contracts/Gym_Contact.sol\":1128:1138  classCount */\n      0x02\n        /* \"contracts/Gym_Contact.sol\":1128:1150  classCount[msg.sender] */\n      0x00\n        /* \"contracts/Gym_Contact.sol\":1139:1149  msg.sender */\n      caller\n        /* \"contracts/Gym_Contact.sol\":1128:1150  classCount[msg.sender] */\n      0xffffffffffffffffffffffffffffffffffffffff\n      and\n      0xffffffffffffffffffffffffffffffffffffffff\n      and\n      dup2\n      mstore\n      0x20\n      add\n      swap1\n      dup2\n      mstore\n      0x20\n      add\n      0x00\n      keccak256\n      0x00\n        /* \"contracts/Gym_Contact.sol\":1128:1152  classCount[msg.sender]++ */\n      dup2\n      sload\n      dup1\n      swap3\n      swap2\n      swap1\n      tag_59\n      swap1\n      tag_60\n      jump\t// in\n    tag_59:\n      swap2\n      swap1\n      pop\n      sstore\n      pop\n        /* \"contracts/Gym_Contact.sol\":866:1160  {\r... */\n      pop\n        /* \"contracts/Gym_Contact.sol\":804:1160  function createClass(string memory _name, uint _value) public {\r... */\n      pop\n      pop\n      jump\t// out\n        /* \"contracts/Gym_Contact.sol\":1713:1804  function getClass() public view returns(string memory) {\r... */\n    tag_26:\n        /* \"contracts/Gym_Contact.sol\":1753:1766  string memory */\n      0x60\n        /* \"contracts/Gym_Contact.sol\":1786:1791  class */\n      0x03\n        /* \"contracts/Gym_Contact.sol\":1786:1796  class.name */\n      0x01\n      add\n        /* \"contracts/Gym_Contact.sol\":1779:1796  return class.name */\n      dup1\n      sload\n      tag_62\n      swap1\n      tag_63\n      jump\t// in\n    tag_62:\n      dup1\n      0x1f\n      add\n      0x20\n      dup1\n      swap2\n      div\n      mul\n      0x20\n      add\n      mload(0x40)\n      swap1\n      dup2\n      add\n      0x40\n      mstore\n      dup1\n      swap3\n      swap2\n      swap1\n      dup2\n      dup2\n      mstore\n      0x20\n      add\n      dup3\n      dup1\n      sload\n      tag_64\n      swap1\n      tag_63\n      jump\t// in\n    tag_64:\n      dup1\n      iszero\n      tag_65\n      jumpi\n      dup1\n      0x1f\n      lt\n      tag_66\n      jumpi\n      0x0100\n      dup1\n      dup4\n      sload\n      div\n      mul\n      dup4\n      mstore\n      swap2\n      0x20\n      add\n      swap2\n      jump(tag_65)\n    tag_66:\n      dup3\n      add\n      swap2\n      swap1\n      0x00\n      mstore\n      keccak256(0x00, 0x20)\n      swap1\n    tag_67:\n      dup2\n      sload\n      dup2\n      mstore\n      swap1\n      0x01\n      add\n      swap1\n      0x20\n      add\n      dup1\n      dup4\n      gt\n      tag_67\n      jumpi\n      dup3\n      swap1\n      sub\n      0x1f\n      and\n      dup3\n      add\n      swap2\n    tag_65:\n      pop\n      pop\n      pop\n      pop\n      pop\n      swap1\n      pop\n        /* \"contracts/Gym_Contact.sol\":1713:1804  function getClass() public view returns(string memory) {\r... */\n      swap1\n      jump\t// out\n        /* \"contracts/Gym_Contact.sol\":1198:1584  function register(address _address, uint _credits) public {\r... */\n    tag_32:\n        /* \"contracts/Gym_Contact.sol\":1399:1400  0 */\n      0x00\n        /* \"contracts/Gym_Contact.sol\":1378:1383  users */\n      dup1\n        /* \"contracts/Gym_Contact.sol\":1378:1395  users[msg.sender] */\n      0x00\n        /* \"contracts/Gym_Contact.sol\":1384:1394  msg.sender */\n      caller\n        /* \"contracts/Gym_Contact.sol\":1378:1395  users[msg.sender] */\n      0xffffffffffffffffffffffffffffffffffffffff\n      and\n      0xffffffffffffffffffffffffffffffffffffffff\n      and\n      dup2\n      mstore\n      0x20\n      add\n      swap1\n      dup2\n      mstore\n      0x20\n      add\n      0x00\n      keccak256\n      sload\n        /* \"contracts/Gym_Contact.sol\":1378:1400  users[msg.sender] == 0 */\n      eq\n        /* \"contracts/Gym_Contact.sol\":1370:1442  require(users[msg.sender] == 0, \"Ya te encuentras registrado en el gym\") */\n      tag_69\n      jumpi\n      mload(0x40)\n      0x08c379a000000000000000000000000000000000000000000000000000000000\n      dup2\n      mstore\n      0x04\n      add\n      tag_70\n      swap1\n      tag_71\n      jump\t// in\n    tag_70:\n      mload(0x40)\n      dup1\n      swap2\n      sub\n      swap1\n      revert\n    tag_69:\n        /* \"contracts/Gym_Contact.sol\":1473:1481  _credits */\n      dup1\n        /* \"contracts/Gym_Contact.sol\":1453:1458  users */\n      0x00\n        /* \"contracts/Gym_Contact.sol\":1453:1470  users[msg.sender] */\n      dup1\n        /* \"contracts/Gym_Contact.sol\":1459:1469  msg.sender */\n      caller\n        /* \"contracts/Gym_Contact.sol\":1453:1470  users[msg.sender] */\n      0xffffffffffffffffffffffffffffffffffffffff\n      and\n      0xffffffffffffffffffffffffffffffffffffffff\n      and\n      dup2\n      mstore\n      0x20\n      add\n      swap1\n      dup2\n      mstore\n      0x20\n      add\n      0x00\n      keccak256\n        /* \"contracts/Gym_Contact.sol\":1453:1481  users[msg.sender] = _credits */\n      dup2\n      swap1\n      sstore\n      pop\n        /* \"contracts/Gym_Contact.sol\":1497:1525  Register(_address, _credits) */\n      0x7dc6ab80cc84c043b7b8d4fcafc802187470087f7ea7fccd2e17aecd0256a1\n        /* \"contracts/Gym_Contact.sol\":1506:1514  _address */\n      dup3\n        /* \"contracts/Gym_Contact.sol\":1516:1524  _credits */\n      dup3\n        /* \"contracts/Gym_Contact.sol\":1497:1525  Register(_address, _credits) */\n      mload(0x40)\n      tag_72\n      swap3\n      swap2\n      swap1\n      tag_16\n      jump\t// in\n    tag_72:\n      mload(0x40)\n      dup1\n      swap2\n      sub\n      swap1\n      log1\n        /* \"contracts/Gym_Contact.sol\":1198:1584  function register(address _address, uint _credits) public {\r... */\n      pop\n      pop\n      jump\t// out\n        /* \"contracts/Gym_Contact.sol\":697:739  mapping(address => uint) public classCount */\n    tag_36:\n      mstore(0x20, 0x02)\n      dup1\n      0x00\n      mstore\n      keccak256(0x00, 0x40)\n      0x00\n      swap2\n      pop\n      swap1\n      pop\n      sload\n      dup2\n      jump\t// out\n        /* \"contracts/Gym_Contact.sol\":500:537  mapping(address => uint) public users */\n    tag_41:\n      mstore(0x20, 0x00)\n      dup1\n      0x00\n      mstore\n      keccak256(0x00, 0x40)\n      0x00\n      swap2\n      pop\n      swap1\n      pop\n      sload\n      dup2\n      jump\t// out\n        /* \"contracts/Gym_Contact.sol\":746:764  Class public class */\n    tag_44:\n      0x03\n      dup1\n      0x00\n      add\n      sload\n      swap1\n      dup1\n      0x01\n      add\n      dup1\n      sload\n      tag_73\n      swap1\n      tag_63\n      jump\t// in\n    tag_73:\n      dup1\n      0x1f\n      add\n      0x20\n      dup1\n      swap2\n      div\n      mul\n      0x20\n      add\n      mload(0x40)\n      swap1\n      dup2\n      add\n      0x40\n      mstore\n      dup1\n      swap3\n      swap2\n      swap1\n      dup2\n      dup2\n      mstore\n      0x20\n      add\n      dup3\n      dup1\n      sload\n      tag_74\n      swap1\n      tag_63\n      jump\t// in\n    tag_74:\n      dup1\n      iszero\n      tag_75\n      jumpi\n      dup1\n      0x1f\n      lt\n      tag_76\n      jumpi\n      0x0100\n      dup1\n      dup4\n      sload\n      div\n      mul\n      dup4\n      mstore\n      swap2\n      0x20\n      add\n      swap2\n      jump(tag_75)\n    tag_76:\n      dup3\n      add\n      swap2\n      swap1\n      0x00\n      mstore\n      keccak256(0x00, 0x20)\n      swap1\n    tag_77:\n      dup2\n      sload\n      dup2\n      mstore\n      swap1\n      0x01\n      add\n      swap1\n      0x20\n      add\n      dup1\n      dup4\n      gt\n      tag_77\n      jumpi\n      dup3\n      swap1\n      sub\n      0x1f\n      and\n      dup3\n      add\n      swap2\n    tag_75:\n      pop\n      pop\n      pop\n      pop\n      pop\n      swap1\n      dup1\n      0x02\n      add\n      sload\n      swap1\n      pop\n      dup4\n      jump\t// out\n        /* \"contracts/Gym_Contact.sol\":591:646  mapping(address =>mapping(uint => Class)) public clases */\n    tag_49:\n      mstore(0x20, 0x01)\n      dup2\n      0x00\n      mstore\n      mstore(0x20, keccak256(0x00, 0x40))\n      dup1\n      0x00\n      mstore\n      keccak256(0x00, 0x40)\n      0x00\n      swap2\n      pop\n      swap2\n      pop\n      pop\n      dup1\n      0x00\n      add\n      sload\n      swap1\n      dup1\n      0x01\n      add\n      dup1\n      sload\n      tag_78\n      swap1\n      tag_63\n      jump\t// in\n    tag_78:\n      dup1\n      0x1f\n      add\n      0x20\n      dup1\n      swap2\n      div\n      mul\n      0x20\n      add\n      mload(0x40)\n      swap1\n      dup2\n      add\n      0x40\n      mstore\n      dup1\n      swap3\n      swap2\n      swap1\n      dup2\n      dup2\n      mstore\n      0x20\n      add\n      dup3\n      dup1\n      sload\n      tag_79\n      swap1\n      tag_63\n      jump\t// in\n    tag_79:\n      dup1\n      iszero\n      tag_80\n      jumpi\n      dup1\n      0x1f\n      lt\n      tag_81\n      jumpi\n      0x0100\n      dup1\n      dup4\n      sload\n      div\n      mul\n      dup4\n      mstore\n      swap2\n      0x20\n      add\n      swap2\n      jump(tag_80)\n    tag_81:\n      dup3\n      add\n      swap2\n      swap1\n      0x00\n      mstore\n      keccak256(0x00, 0x20)\n      swap1\n    tag_82:\n      dup2\n      sload\n      dup2\n      mstore\n      swap1\n      0x01\n      add\n      swap1\n      0x20\n      add\n      dup1\n      dup4\n      gt\n      tag_82\n      jumpi\n      dup3\n      swap1\n      sub\n      0x1f\n      and\n      dup3\n      add\n      swap2\n    tag_80:\n      pop\n      pop\n      pop\n      pop\n      pop\n      swap1\n      dup1\n      0x02\n      add\n      sload\n      swap1\n      pop\n      dup4\n      jump\t// out\n    tag_57:\n      dup3\n      dup1\n      sload\n      tag_83\n      swap1\n      tag_63\n      jump\t// in\n    tag_83:\n      swap1\n      0x00\n      mstore\n      keccak256(0x00, 0x20)\n      swap1\n      0x1f\n      add\n      0x20\n      swap1\n      div\n      dup2\n      add\n      swap3\n      dup3\n      tag_85\n      jumpi\n      0x00\n      dup6\n      sstore\n      jump(tag_84)\n    tag_85:\n      dup3\n      0x1f\n      lt\n      tag_86\n      jumpi\n      dup1\n      mload\n      not(0xff)\n      and\n      dup4\n      dup1\n      add\n      or\n      dup6\n      sstore\n      jump(tag_84)\n    tag_86:\n      dup3\n      dup1\n      add\n      0x01\n      add\n      dup6\n      sstore\n      dup3\n      iszero\n      tag_84\n      jumpi\n      swap2\n      dup3\n      add\n    tag_87:\n      dup3\n      dup2\n      gt\n      iszero\n      tag_88\n      jumpi\n      dup3\n      mload\n      dup3\n      sstore\n      swap2\n      0x20\n      add\n      swap2\n      swap1\n      0x01\n      add\n      swap1\n      jump(tag_87)\n    tag_88:\n    tag_84:\n      pop\n      swap1\n      pop\n      tag_89\n      swap2\n      swap1\n      tag_90\n      jump\t// in\n    tag_89:\n      pop\n      swap1\n      jump\t// out\n    tag_90:\n    tag_91:\n      dup1\n      dup3\n      gt\n      iszero\n      tag_92\n      jumpi\n      0x00\n      dup2\n      0x00\n      swap1\n      sstore\n      pop\n      0x01\n      add\n      jump(tag_91)\n    tag_92:\n      pop\n      swap1\n      jump\t// out\n        /* \"#utility.yul\":7:419   */\n    tag_94:\n        /* \"#utility.yul\":85:90   */\n      0x00\n        /* \"#utility.yul\":110:176   */\n      tag_96\n        /* \"#utility.yul\":126:175   */\n      tag_97\n        /* \"#utility.yul\":168:174   */\n      dup5\n        /* \"#utility.yul\":126:175   */\n      tag_98\n      jump\t// in\n    tag_97:\n        /* \"#utility.yul\":110:176   */\n      tag_99\n      jump\t// in\n    tag_96:\n        /* \"#utility.yul\":101:176   */\n      swap1\n      pop\n        /* \"#utility.yul\":199:205   */\n      dup3\n        /* \"#utility.yul\":192:197   */\n      dup2\n        /* \"#utility.yul\":185:206   */\n      mstore\n        /* \"#utility.yul\":237:241   */\n      0x20\n        /* \"#utility.yul\":230:235   */\n      dup2\n        /* \"#utility.yul\":226:242   */\n      add\n        /* \"#utility.yul\":275:278   */\n      dup5\n        /* \"#utility.yul\":266:272   */\n      dup5\n        /* \"#utility.yul\":261:264   */\n      dup5\n        /* \"#utility.yul\":257:273   */\n      add\n        /* \"#utility.yul\":254:279   */\n      gt\n        /* \"#utility.yul\":251:363   */\n      iszero\n      tag_100\n      jumpi\n        /* \"#utility.yul\":282:361   */\n      tag_101\n      tag_102\n      jump\t// in\n    tag_101:\n        /* \"#utility.yul\":251:363   */\n    tag_100:\n        /* \"#utility.yul\":372:413   */\n      tag_103\n        /* \"#utility.yul\":406:412   */\n      dup5\n        /* \"#utility.yul\":401:404   */\n      dup3\n        /* \"#utility.yul\":396:399   */\n      dup6\n        /* \"#utility.yul\":372:413   */\n      tag_104\n      jump\t// in\n    tag_103:\n        /* \"#utility.yul\":91:419   */\n      pop\n        /* \"#utility.yul\":7:419   */\n      swap4\n      swap3\n      pop\n      pop\n      pop\n      jump\t// out\n        /* \"#utility.yul\":425:564   */\n    tag_105:\n        /* \"#utility.yul\":471:476   */\n      0x00\n        /* \"#utility.yul\":509:515   */\n      dup2\n        /* \"#utility.yul\":496:516   */\n      calldataload\n        /* \"#utility.yul\":487:516   */\n      swap1\n      pop\n        /* \"#utility.yul\":525:558   */\n      tag_107\n        /* \"#utility.yul\":552:557   */\n      dup2\n        /* \"#utility.yul\":525:558   */\n      tag_108\n      jump\t// in\n    tag_107:\n        /* \"#utility.yul\":425:564   */\n      swap3\n      swap2\n      pop\n      pop\n      jump\t// out\n        /* \"#utility.yul\":584:924   */\n    tag_109:\n        /* \"#utility.yul\":640:645   */\n      0x00\n        /* \"#utility.yul\":689:692   */\n      dup3\n        /* \"#utility.yul\":682:686   */\n      0x1f\n        /* \"#utility.yul\":674:680   */\n      dup4\n        /* \"#utility.yul\":670:687   */\n      add\n        /* \"#utility.yul\":666:693   */\n      slt\n        /* \"#utility.yul\":656:778   */\n      tag_111\n      jumpi\n        /* \"#utility.yul\":697:776   */\n      tag_112\n      tag_113\n      jump\t// in\n    tag_112:\n        /* \"#utility.yul\":656:778   */\n    tag_111:\n        /* \"#utility.yul\":814:820   */\n      dup2\n        /* \"#utility.yul\":801:821   */\n      calldataload\n        /* \"#utility.yul\":839:918   */\n      tag_114\n        /* \"#utility.yul\":914:917   */\n      dup5\n        /* \"#utility.yul\":906:912   */\n      dup3\n        /* \"#utility.yul\":899:903   */\n      0x20\n        /* \"#utility.yul\":891:897   */\n      dup7\n        /* \"#utility.yul\":887:904   */\n      add\n        /* \"#utility.yul\":839:918   */\n      tag_94\n      jump\t// in\n    tag_114:\n        /* \"#utility.yul\":830:918   */\n      swap2\n      pop\n        /* \"#utility.yul\":646:924   */\n      pop\n        /* \"#utility.yul\":584:924   */\n      swap3\n      swap2\n      pop\n      pop\n      jump\t// out\n        /* \"#utility.yul\":930:1069   */\n    tag_115:\n        /* \"#utility.yul\":976:981   */\n      0x00\n        /* \"#utility.yul\":1014:1020   */\n      dup2\n        /* \"#utility.yul\":1001:1021   */\n      calldataload\n        /* \"#utility.yul\":992:1021   */\n      swap1\n      pop\n        /* \"#utility.yul\":1030:1063   */\n      tag_117\n        /* \"#utility.yul\":1057:1062   */\n      dup2\n        /* \"#utility.yul\":1030:1063   */\n      tag_118\n      jump\t// in\n    tag_117:\n        /* \"#utility.yul\":930:1069   */\n      swap3\n      swap2\n      pop\n      pop\n      jump\t// out\n        /* \"#utility.yul\":1075:1404   */\n    tag_35:\n        /* \"#utility.yul\":1134:1140   */\n      0x00\n        /* \"#utility.yul\":1183:1185   */\n      0x20\n        /* \"#utility.yul\":1171:1180   */\n      dup3\n        /* \"#utility.yul\":1162:1169   */\n      dup5\n        /* \"#utility.yul\":1158:1181   */\n      sub\n        /* \"#utility.yul\":1154:1186   */\n      slt\n        /* \"#utility.yul\":1151:1270   */\n      iszero\n      tag_120\n      jumpi\n        /* \"#utility.yul\":1189:1268   */\n      tag_121\n      tag_122\n      jump\t// in\n    tag_121:\n        /* \"#utility.yul\":1151:1270   */\n    tag_120:\n        /* \"#utility.yul\":1309:1310   */\n      0x00\n        /* \"#utility.yul\":1334:1387   */\n      tag_123\n        /* \"#utility.yul\":1379:1386   */\n      dup5\n        /* \"#utility.yul\":1370:1376   */\n      dup3\n        /* \"#utility.yul\":1359:1368   */\n      dup6\n        /* \"#utility.yul\":1355:1377   */\n      add\n        /* \"#utility.yul\":1334:1387   */\n      tag_105\n      jump\t// in\n    tag_123:\n        /* \"#utility.yul\":1324:1387   */\n      swap2\n      pop\n        /* \"#utility.yul\":1280:1397   */\n      pop\n        /* \"#utility.yul\":1075:1404   */\n      swap3\n      swap2\n      pop\n      pop\n      jump\t// out\n        /* \"#utility.yul\":1410:1884   */\n    tag_31:\n        /* \"#utility.yul\":1478:1484   */\n      0x00\n        /* \"#utility.yul\":1486:1492   */\n      dup1\n        /* \"#utility.yul\":1535:1537   */\n      0x40\n        /* \"#utility.yul\":1523:1532   */\n      dup4\n        /* \"#utility.yul\":1514:1521   */\n      dup6\n        /* \"#utility.yul\":1510:1533   */\n      sub\n        /* \"#utility.yul\":1506:1538   */\n      slt\n        /* \"#utility.yul\":1503:1622   */\n      iszero\n      tag_125\n      jumpi\n        /* \"#utility.yul\":1541:1620   */\n      tag_126\n      tag_122\n      jump\t// in\n    tag_126:\n        /* \"#utility.yul\":1503:1622   */\n    tag_125:\n        /* \"#utility.yul\":1661:1662   */\n      0x00\n        /* \"#utility.yul\":1686:1739   */\n      tag_127\n        /* \"#utility.yul\":1731:1738   */\n      dup6\n        /* \"#utility.yul\":1722:1728   */\n      dup3\n        /* \"#utility.yul\":1711:1720   */\n      dup7\n        /* \"#utility.yul\":1707:1729   */\n      add\n        /* \"#utility.yul\":1686:1739   */\n      tag_105\n      jump\t// in\n    tag_127:\n        /* \"#utility.yul\":1676:1739   */\n      swap3\n      pop\n        /* \"#utility.yul\":1632:1749   */\n      pop\n        /* \"#utility.yul\":1788:1790   */\n      0x20\n        /* \"#utility.yul\":1814:1867   */\n      tag_128\n        /* \"#utility.yul\":1859:1866   */\n      dup6\n        /* \"#utility.yul\":1850:1856   */\n      dup3\n        /* \"#utility.yul\":1839:1848   */\n      dup7\n        /* \"#utility.yul\":1835:1857   */\n      add\n        /* \"#utility.yul\":1814:1867   */\n      tag_115\n      jump\t// in\n    tag_128:\n        /* \"#utility.yul\":1804:1867   */\n      swap2\n      pop\n        /* \"#utility.yul\":1759:1877   */\n      pop\n        /* \"#utility.yul\":1410:1884   */\n      swap3\n      pop\n      swap3\n      swap1\n      pop\n      jump\t// out\n        /* \"#utility.yul\":1890:2544   */\n    tag_23:\n        /* \"#utility.yul\":1968:1974   */\n      0x00\n        /* \"#utility.yul\":1976:1982   */\n      dup1\n        /* \"#utility.yul\":2025:2027   */\n      0x40\n        /* \"#utility.yul\":2013:2022   */\n      dup4\n        /* \"#utility.yul\":2004:2011   */\n      dup6\n        /* \"#utility.yul\":2000:2023   */\n      sub\n        /* \"#utility.yul\":1996:2028   */\n      slt\n        /* \"#utility.yul\":1993:2112   */\n      iszero\n      tag_130\n      jumpi\n        /* \"#utility.yul\":2031:2110   */\n      tag_131\n      tag_122\n      jump\t// in\n    tag_131:\n        /* \"#utility.yul\":1993:2112   */\n    tag_130:\n        /* \"#utility.yul\":2179:2180   */\n      0x00\n        /* \"#utility.yul\":2168:2177   */\n      dup4\n        /* \"#utility.yul\":2164:2181   */\n      add\n        /* \"#utility.yul\":2151:2182   */\n      calldataload\n        /* \"#utility.yul\":2209:2227   */\n      0xffffffffffffffff\n        /* \"#utility.yul\":2201:2207   */\n      dup2\n        /* \"#utility.yul\":2198:2228   */\n      gt\n        /* \"#utility.yul\":2195:2312   */\n      iszero\n      tag_132\n      jumpi\n        /* \"#utility.yul\":2231:2310   */\n      tag_133\n      tag_134\n      jump\t// in\n    tag_133:\n        /* \"#utility.yul\":2195:2312   */\n    tag_132:\n        /* \"#utility.yul\":2336:2399   */\n      tag_135\n        /* \"#utility.yul\":2391:2398   */\n      dup6\n        /* \"#utility.yul\":2382:2388   */\n      dup3\n        /* \"#utility.yul\":2371:2380   */\n      dup7\n        /* \"#utility.yul\":2367:2389   */\n      add\n        /* \"#utility.yul\":2336:2399   */\n      tag_109\n      jump\t// in\n    tag_135:\n        /* \"#utility.yul\":2326:2399   */\n      swap3\n      pop\n        /* \"#utility.yul\":2122:2409   */\n      pop\n        /* \"#utility.yul\":2448:2450   */\n      0x20\n        /* \"#utility.yul\":2474:2527   */\n      tag_136\n        /* \"#utility.yul\":2519:2526   */\n      dup6\n        /* \"#utility.yul\":2510:2516   */\n      dup3\n        /* \"#utility.yul\":2499:2508   */\n      dup7\n        /* \"#utility.yul\":2495:2517   */\n      add\n        /* \"#utility.yul\":2474:2527   */\n      tag_115\n      jump\t// in\n    tag_136:\n        /* \"#utility.yul\":2464:2527   */\n      swap2\n      pop\n        /* \"#utility.yul\":2419:2537   */\n      pop\n        /* \"#utility.yul\":1890:2544   */\n      swap3\n      pop\n      swap3\n      swap1\n      pop\n      jump\t// out\n        /* \"#utility.yul\":2550:2668   */\n    tag_137:\n        /* \"#utility.yul\":2637:2661   */\n      tag_139\n        /* \"#utility.yul\":2655:2660   */\n      dup2\n        /* \"#utility.yul\":2637:2661   */\n      tag_140\n      jump\t// in\n    tag_139:\n        /* \"#utility.yul\":2632:2635   */\n      dup3\n        /* \"#utility.yul\":2625:2662   */\n      mstore\n        /* \"#utility.yul\":2550:2668   */\n      pop\n      pop\n      jump\t// out\n        /* \"#utility.yul\":2674:3038   */\n    tag_141:\n        /* \"#utility.yul\":2762:2765   */\n      0x00\n        /* \"#utility.yul\":2790:2829   */\n      tag_143\n        /* \"#utility.yul\":2823:2828   */\n      dup3\n        /* \"#utility.yul\":2790:2829   */\n      tag_144\n      jump\t// in\n    tag_143:\n        /* \"#utility.yul\":2845:2916   */\n      tag_145\n        /* \"#utility.yul\":2909:2915   */\n      dup2\n        /* \"#utility.yul\":2904:2907   */\n      dup6\n        /* \"#utility.yul\":2845:2916   */\n      tag_146\n      jump\t// in\n    tag_145:\n        /* \"#utility.yul\":2838:2916   */\n      swap4\n      pop\n        /* \"#utility.yul\":2925:2977   */\n      tag_147\n        /* \"#utility.yul\":2970:2976   */\n      dup2\n        /* \"#utility.yul\":2965:2968   */\n      dup6\n        /* \"#utility.yul\":2958:2962   */\n      0x20\n        /* \"#utility.yul\":2951:2956   */\n      dup7\n        /* \"#utility.yul\":2947:2963   */\n      add\n        /* \"#utility.yul\":2925:2977   */\n      tag_148\n      jump\t// in\n    tag_147:\n        /* \"#utility.yul\":3002:3031   */\n      tag_149\n        /* \"#utility.yul\":3024:3030   */\n      dup2\n        /* \"#utility.yul\":3002:3031   */\n      tag_150\n      jump\t// in\n    tag_149:\n        /* \"#utility.yul\":2997:3000   */\n      dup5\n        /* \"#utility.yul\":2993:3032   */\n      add\n        /* \"#utility.yul\":2986:3032   */\n      swap2\n      pop\n        /* \"#utility.yul\":2766:3038   */\n      pop\n        /* \"#utility.yul\":2674:3038   */\n      swap3\n      swap2\n      pop\n      pop\n      jump\t// out\n        /* \"#utility.yul\":3044:3410   */\n    tag_151:\n        /* \"#utility.yul\":3186:3189   */\n      0x00\n        /* \"#utility.yul\":3207:3274   */\n      tag_153\n        /* \"#utility.yul\":3271:3273   */\n      0x25\n        /* \"#utility.yul\":3266:3269   */\n      dup4\n        /* \"#utility.yul\":3207:3274   */\n      tag_146\n      jump\t// in\n    tag_153:\n        /* \"#utility.yul\":3200:3274   */\n      swap2\n      pop\n        /* \"#utility.yul\":3283:3376   */\n      tag_154\n        /* \"#utility.yul\":3372:3375   */\n      dup3\n        /* \"#utility.yul\":3283:3376   */\n      tag_155\n      jump\t// in\n    tag_154:\n        /* \"#utility.yul\":3401:3403   */\n      0x40\n        /* \"#utility.yul\":3396:3399   */\n      dup3\n        /* \"#utility.yul\":3392:3404   */\n      add\n        /* \"#utility.yul\":3385:3404   */\n      swap1\n      pop\n        /* \"#utility.yul\":3044:3410   */\n      swap2\n      swap1\n      pop\n      jump\t// out\n        /* \"#utility.yul\":3416:3782   */\n    tag_156:\n        /* \"#utility.yul\":3558:3561   */\n      0x00\n        /* \"#utility.yul\":3579:3646   */\n      tag_158\n        /* \"#utility.yul\":3643:3645   */\n      0x30\n        /* \"#utility.yul\":3638:3641   */\n      dup4\n        /* \"#utility.yul\":3579:3646   */\n      tag_146\n      jump\t// in\n    tag_158:\n        /* \"#utility.yul\":3572:3646   */\n      swap2\n      pop\n        /* \"#utility.yul\":3655:3748   */\n      tag_159\n        /* \"#utility.yul\":3744:3747   */\n      dup3\n        /* \"#utility.yul\":3655:3748   */\n      tag_160\n      jump\t// in\n    tag_159:\n        /* \"#utility.yul\":3773:3775   */\n      0x40\n        /* \"#utility.yul\":3768:3771   */\n      dup3\n        /* \"#utility.yul\":3764:3776   */\n      add\n        /* \"#utility.yul\":3757:3776   */\n      swap1\n      pop\n        /* \"#utility.yul\":3416:3782   */\n      swap2\n      swap1\n      pop\n      jump\t// out\n        /* \"#utility.yul\":3788:3906   */\n    tag_161:\n        /* \"#utility.yul\":3875:3899   */\n      tag_163\n        /* \"#utility.yul\":3893:3898   */\n      dup2\n        /* \"#utility.yul\":3875:3899   */\n      tag_164\n      jump\t// in\n    tag_163:\n        /* \"#utility.yul\":3870:3873   */\n      dup3\n        /* \"#utility.yul\":3863:3900   */\n      mstore\n        /* \"#utility.yul\":3788:3906   */\n      pop\n      pop\n      jump\t// out\n        /* \"#utility.yul\":3912:4134   */\n    tag_20:\n        /* \"#utility.yul\":4005:4009   */\n      0x00\n        /* \"#utility.yul\":4043:4045   */\n      0x20\n        /* \"#utility.yul\":4032:4041   */\n      dup3\n        /* \"#utility.yul\":4028:4046   */\n      add\n        /* \"#utility.yul\":4020:4046   */\n      swap1\n      pop\n        /* \"#utility.yul\":4056:4127   */\n      tag_166\n        /* \"#utility.yul\":4124:4125   */\n      0x00\n        /* \"#utility.yul\":4113:4122   */\n      dup4\n        /* \"#utility.yul\":4109:4126   */\n      add\n        /* \"#utility.yul\":4100:4106   */\n      dup5\n        /* \"#utility.yul\":4056:4127   */\n      tag_137\n      jump\t// in\n    tag_166:\n        /* \"#utility.yul\":3912:4134   */\n      swap3\n      swap2\n      pop\n      pop\n      jump\t// out\n        /* \"#utility.yul\":4140:4472   */\n    tag_16:\n        /* \"#utility.yul\":4261:4265   */\n      0x00\n        /* \"#utility.yul\":4299:4301   */\n      0x40\n        /* \"#utility.yul\":4288:4297   */\n      dup3\n        /* \"#utility.yul\":4284:4302   */\n      add\n        /* \"#utility.yul\":4276:4302   */\n      swap1\n      pop\n        /* \"#utility.yul\":4312:4383   */\n      tag_168\n        /* \"#utility.yul\":4380:4381   */\n      0x00\n        /* \"#utility.yul\":4369:4378   */\n      dup4\n        /* \"#utility.yul\":4365:4382   */\n      add\n        /* \"#utility.yul\":4356:4362   */\n      dup6\n        /* \"#utility.yul\":4312:4383   */\n      tag_137\n      jump\t// in\n    tag_168:\n        /* \"#utility.yul\":4393:4465   */\n      tag_169\n        /* \"#utility.yul\":4461:4463   */\n      0x20\n        /* \"#utility.yul\":4450:4459   */\n      dup4\n        /* \"#utility.yul\":4446:4464   */\n      add\n        /* \"#utility.yul\":4437:4443   */\n      dup5\n        /* \"#utility.yul\":4393:4465   */\n      tag_161\n      jump\t// in\n    tag_169:\n        /* \"#utility.yul\":4140:4472   */\n      swap4\n      swap3\n      pop\n      pop\n      pop\n      jump\t// out\n        /* \"#utility.yul\":4478:4791   */\n    tag_28:\n        /* \"#utility.yul\":4591:4595   */\n      0x00\n        /* \"#utility.yul\":4629:4631   */\n      0x20\n        /* \"#utility.yul\":4618:4627   */\n      dup3\n        /* \"#utility.yul\":4614:4632   */\n      add\n        /* \"#utility.yul\":4606:4632   */\n      swap1\n      pop\n        /* \"#utility.yul\":4678:4687   */\n      dup2\n        /* \"#utility.yul\":4672:4676   */\n      dup2\n        /* \"#utility.yul\":4668:4688   */\n      sub\n        /* \"#utility.yul\":4664:4665   */\n      0x00\n        /* \"#utility.yul\":4653:4662   */\n      dup4\n        /* \"#utility.yul\":4649:4666   */\n      add\n        /* \"#utility.yul\":4642:4689   */\n      mstore\n        /* \"#utility.yul\":4706:4784   */\n      tag_171\n        /* \"#utility.yul\":4779:4783   */\n      dup2\n        /* \"#utility.yul\":4770:4776   */\n      dup5\n        /* \"#utility.yul\":4706:4784   */\n      tag_141\n      jump\t// in\n    tag_171:\n        /* \"#utility.yul\":4698:4784   */\n      swap1\n      pop\n        /* \"#utility.yul\":4478:4791   */\n      swap3\n      swap2\n      pop\n      pop\n      jump\t// out\n        /* \"#utility.yul\":4797:5216   */\n    tag_71:\n        /* \"#utility.yul\":4963:4967   */\n      0x00\n        /* \"#utility.yul\":5001:5003   */\n      0x20\n        /* \"#utility.yul\":4990:4999   */\n      dup3\n        /* \"#utility.yul\":4986:5004   */\n      add\n        /* \"#utility.yul\":4978:5004   */\n      swap1\n      pop\n        /* \"#utility.yul\":5050:5059   */\n      dup2\n        /* \"#utility.yul\":5044:5048   */\n      dup2\n        /* \"#utility.yul\":5040:5060   */\n      sub\n        /* \"#utility.yul\":5036:5037   */\n      0x00\n        /* \"#utility.yul\":5025:5034   */\n      dup4\n        /* \"#utility.yul\":5021:5038   */\n      add\n        /* \"#utility.yul\":5014:5061   */\n      mstore\n        /* \"#utility.yul\":5078:5209   */\n      tag_173\n        /* \"#utility.yul\":5204:5208   */\n      dup2\n        /* \"#utility.yul\":5078:5209   */\n      tag_151\n      jump\t// in\n    tag_173:\n        /* \"#utility.yul\":5070:5209   */\n      swap1\n      pop\n        /* \"#utility.yul\":4797:5216   */\n      swap2\n      swap1\n      pop\n      jump\t// out\n        /* \"#utility.yul\":5222:5641   */\n    tag_55:\n        /* \"#utility.yul\":5388:5392   */\n      0x00\n        /* \"#utility.yul\":5426:5428   */\n      0x20\n        /* \"#utility.yul\":5415:5424   */\n      dup3\n        /* \"#utility.yul\":5411:5429   */\n      add\n        /* \"#utility.yul\":5403:5429   */\n      swap1\n      pop\n        /* \"#utility.yul\":5475:5484   */\n      dup2\n        /* \"#utility.yul\":5469:5473   */\n      dup2\n        /* \"#utility.yul\":5465:5485   */\n      sub\n        /* \"#utility.yul\":5461:5462   */\n      0x00\n        /* \"#utility.yul\":5450:5459   */\n      dup4\n        /* \"#utility.yul\":5446:5463   */\n      add\n        /* \"#utility.yul\":5439:5486   */\n      mstore\n        /* \"#utility.yul\":5503:5634   */\n      tag_175\n        /* \"#utility.yul\":5629:5633   */\n      dup2\n        /* \"#utility.yul\":5503:5634   */\n      tag_156\n      jump\t// in\n    tag_175:\n        /* \"#utility.yul\":5495:5634   */\n      swap1\n      pop\n        /* \"#utility.yul\":5222:5641   */\n      swap2\n      swap1\n      pop\n      jump\t// out\n        /* \"#utility.yul\":5647:5869   */\n    tag_38:\n        /* \"#utility.yul\":5740:5744   */\n      0x00\n        /* \"#utility.yul\":5778:5780   */\n      0x20\n        /* \"#utility.yul\":5767:5776   */\n      dup3\n        /* \"#utility.yul\":5763:5781   */\n      add\n        /* \"#utility.yul\":5755:5781   */\n      swap1\n      pop\n        /* \"#utility.yul\":5791:5862   */\n      tag_177\n        /* \"#utility.yul\":5859:5860   */\n      0x00\n        /* \"#utility.yul\":5848:5857   */\n      dup4\n        /* \"#utility.yul\":5844:5861   */\n      add\n        /* \"#utility.yul\":5835:5841   */\n      dup5\n        /* \"#utility.yul\":5791:5862   */\n      tag_161\n      jump\t// in\n    tag_177:\n        /* \"#utility.yul\":5647:5869   */\n      swap3\n      swap2\n      pop\n      pop\n      jump\t// out\n        /* \"#utility.yul\":5875:6408   */\n    tag_46:\n        /* \"#utility.yul\":6044:6048   */\n      0x00\n        /* \"#utility.yul\":6082:6084   */\n      0x60\n        /* \"#utility.yul\":6071:6080   */\n      dup3\n        /* \"#utility.yul\":6067:6085   */\n      add\n        /* \"#utility.yul\":6059:6085   */\n      swap1\n      pop\n        /* \"#utility.yul\":6095:6166   */\n      tag_179\n        /* \"#utility.yul\":6163:6164   */\n      0x00\n        /* \"#utility.yul\":6152:6161   */\n      dup4\n        /* \"#utility.yul\":6148:6165   */\n      add\n        /* \"#utility.yul\":6139:6145   */\n      dup7\n        /* \"#utility.yul\":6095:6166   */\n      tag_161\n      jump\t// in\n    tag_179:\n        /* \"#utility.yul\":6213:6222   */\n      dup2\n        /* \"#utility.yul\":6207:6211   */\n      dup2\n        /* \"#utility.yul\":6203:6223   */\n      sub\n        /* \"#utility.yul\":6198:6200   */\n      0x20\n        /* \"#utility.yul\":6187:6196   */\n      dup4\n        /* \"#utility.yul\":6183:6201   */\n      add\n        /* \"#utility.yul\":6176:6224   */\n      mstore\n        /* \"#utility.yul\":6241:6319   */\n      tag_180\n        /* \"#utility.yul\":6314:6318   */\n      dup2\n        /* \"#utility.yul\":6305:6311   */\n      dup6\n        /* \"#utility.yul\":6241:6319   */\n      tag_141\n      jump\t// in\n    tag_180:\n        /* \"#utility.yul\":6233:6319   */\n      swap1\n      pop\n        /* \"#utility.yul\":6329:6401   */\n      tag_181\n        /* \"#utility.yul\":6397:6399   */\n      0x40\n        /* \"#utility.yul\":6386:6395   */\n      dup4\n        /* \"#utility.yul\":6382:6400   */\n      add\n        /* \"#utility.yul\":6373:6379   */\n      dup5\n        /* \"#utility.yul\":6329:6401   */\n      tag_161\n      jump\t// in\n    tag_181:\n        /* \"#utility.yul\":5875:6408   */\n      swap5\n      swap4\n      pop\n      pop\n      pop\n      pop\n      jump\t// out\n        /* \"#utility.yul\":6414:6543   */\n    tag_99:\n        /* \"#utility.yul\":6448:6454   */\n      0x00\n        /* \"#utility.yul\":6475:6495   */\n      tag_183\n      tag_184\n      jump\t// in\n    tag_183:\n        /* \"#utility.yul\":6465:6495   */\n      swap1\n      pop\n        /* \"#utility.yul\":6504:6537   */\n      tag_185\n        /* \"#utility.yul\":6532:6536   */\n      dup3\n        /* \"#utility.yul\":6524:6530   */\n      dup3\n        /* \"#utility.yul\":6504:6537   */\n      tag_186\n      jump\t// in\n    tag_185:\n        /* \"#utility.yul\":6414:6543   */\n      swap2\n      swap1\n      pop\n      jump\t// out\n        /* \"#utility.yul\":6549:6624   */\n    tag_184:\n        /* \"#utility.yul\":6582:6588   */\n      0x00\n        /* \"#utility.yul\":6615:6617   */\n      0x40\n        /* \"#utility.yul\":6609:6618   */\n      mload\n        /* \"#utility.yul\":6599:6618   */\n      swap1\n      pop\n        /* \"#utility.yul\":6549:6624   */\n      swap1\n      jump\t// out\n        /* \"#utility.yul\":6630:6938   */\n    tag_98:\n        /* \"#utility.yul\":6692:6696   */\n      0x00\n        /* \"#utility.yul\":6782:6800   */\n      0xffffffffffffffff\n        /* \"#utility.yul\":6774:6780   */\n      dup3\n        /* \"#utility.yul\":6771:6801   */\n      gt\n        /* \"#utility.yul\":6768:6824   */\n      iszero\n      tag_189\n      jumpi\n        /* \"#utility.yul\":6804:6822   */\n      tag_190\n      tag_191\n      jump\t// in\n    tag_190:\n        /* \"#utility.yul\":6768:6824   */\n    tag_189:\n        /* \"#utility.yul\":6842:6871   */\n      tag_192\n        /* \"#utility.yul\":6864:6870   */\n      dup3\n        /* \"#utility.yul\":6842:6871   */\n      tag_150\n      jump\t// in\n    tag_192:\n        /* \"#utility.yul\":6834:6871   */\n      swap1\n      pop\n        /* \"#utility.yul\":6926:6930   */\n      0x20\n        /* \"#utility.yul\":6920:6924   */\n      dup2\n        /* \"#utility.yul\":6916:6931   */\n      add\n        /* \"#utility.yul\":6908:6931   */\n      swap1\n      pop\n        /* \"#utility.yul\":6630:6938   */\n      swap2\n      swap1\n      pop\n      jump\t// out\n        /* \"#utility.yul\":6944:7043   */\n    tag_144:\n        /* \"#utility.yul\":6996:7002   */\n      0x00\n        /* \"#utility.yul\":7030:7035   */\n      dup2\n        /* \"#utility.yul\":7024:7036   */\n      mload\n        /* \"#utility.yul\":7014:7036   */\n      swap1\n      pop\n        /* \"#utility.yul\":6944:7043   */\n      swap2\n      swap1\n      pop\n      jump\t// out\n        /* \"#utility.yul\":7049:7218   */\n    tag_146:\n        /* \"#utility.yul\":7133:7144   */\n      0x00\n        /* \"#utility.yul\":7167:7173   */\n      dup3\n        /* \"#utility.yul\":7162:7165   */\n      dup3\n        /* \"#utility.yul\":7155:7174   */\n      mstore\n        /* \"#utility.yul\":7207:7211   */\n      0x20\n        /* \"#utility.yul\":7202:7205   */\n      dup3\n        /* \"#utility.yul\":7198:7212   */\n      add\n        /* \"#utility.yul\":7183:7212   */\n      swap1\n      pop\n        /* \"#utility.yul\":7049:7218   */\n      swap3\n      swap2\n      pop\n      pop\n      jump\t// out\n        /* \"#utility.yul\":7224:7320   */\n    tag_140:\n        /* \"#utility.yul\":7261:7268   */\n      0x00\n        /* \"#utility.yul\":7290:7314   */\n      tag_196\n        /* \"#utility.yul\":7308:7313   */\n      dup3\n        /* \"#utility.yul\":7290:7314   */\n      tag_197\n      jump\t// in\n    tag_196:\n        /* \"#utility.yul\":7279:7314   */\n      swap1\n      pop\n        /* \"#utility.yul\":7224:7320   */\n      swap2\n      swap1\n      pop\n      jump\t// out\n        /* \"#utility.yul\":7326:7452   */\n    tag_197:\n        /* \"#utility.yul\":7363:7370   */\n      0x00\n        /* \"#utility.yul\":7403:7445   */\n      0xffffffffffffffffffffffffffffffffffffffff\n        /* \"#utility.yul\":7396:7401   */\n      dup3\n        /* \"#utility.yul\":7392:7446   */\n      and\n        /* \"#utility.yul\":7381:7446   */\n      swap1\n      pop\n        /* \"#utility.yul\":7326:7452   */\n      swap2\n      swap1\n      pop\n      jump\t// out\n        /* \"#utility.yul\":7458:7535   */\n    tag_164:\n        /* \"#utility.yul\":7495:7502   */\n      0x00\n        /* \"#utility.yul\":7524:7529   */\n      dup2\n        /* \"#utility.yul\":7513:7529   */\n      swap1\n      pop\n        /* \"#utility.yul\":7458:7535   */\n      swap2\n      swap1\n      pop\n      jump\t// out\n        /* \"#utility.yul\":7541:7695   */\n    tag_104:\n        /* \"#utility.yul\":7625:7631   */\n      dup3\n        /* \"#utility.yul\":7620:7623   */\n      dup2\n        /* \"#utility.yul\":7615:7618   */\n      dup4\n        /* \"#utility.yul\":7602:7632   */\n      calldatacopy\n        /* \"#utility.yul\":7687:7688   */\n      0x00\n        /* \"#utility.yul\":7678:7684   */\n      dup4\n        /* \"#utility.yul\":7673:7676   */\n      dup4\n        /* \"#utility.yul\":7669:7685   */\n      add\n        /* \"#utility.yul\":7662:7689   */\n      mstore\n        /* \"#utility.yul\":7541:7695   */\n      pop\n      pop\n      pop\n      jump\t// out\n        /* \"#utility.yul\":7701:8008   */\n    tag_148:\n        /* \"#utility.yul\":7769:7770   */\n      0x00\n        /* \"#utility.yul\":7779:7892   */\n    tag_202:\n        /* \"#utility.yul\":7793:7799   */\n      dup4\n        /* \"#utility.yul\":7790:7791   */\n      dup2\n        /* \"#utility.yul\":7787:7800   */\n      lt\n        /* \"#utility.yul\":7779:7892   */\n      iszero\n      tag_204\n      jumpi\n        /* \"#utility.yul\":7878:7879   */\n      dup1\n        /* \"#utility.yul\":7873:7876   */\n      dup3\n        /* \"#utility.yul\":7869:7880   */\n      add\n        /* \"#utility.yul\":7863:7881   */\n      mload\n        /* \"#utility.yul\":7859:7860   */\n      dup2\n        /* \"#utility.yul\":7854:7857   */\n      dup5\n        /* \"#utility.yul\":7850:7861   */\n      add\n        /* \"#utility.yul\":7843:7882   */\n      mstore\n        /* \"#utility.yul\":7815:7817   */\n      0x20\n        /* \"#utility.yul\":7812:7813   */\n      dup2\n        /* \"#utility.yul\":7808:7818   */\n      add\n        /* \"#utility.yul\":7803:7818   */\n      swap1\n      pop\n        /* \"#utility.yul\":7779:7892   */\n      jump(tag_202)\n    tag_204:\n        /* \"#utility.yul\":7910:7916   */\n      dup4\n        /* \"#utility.yul\":7907:7908   */\n      dup2\n        /* \"#utility.yul\":7904:7917   */\n      gt\n        /* \"#utility.yul\":7901:8002   */\n      iszero\n      tag_205\n      jumpi\n        /* \"#utility.yul\":7990:7991   */\n      0x00\n        /* \"#utility.yul\":7981:7987   */\n      dup5\n        /* \"#utility.yul\":7976:7979   */\n      dup5\n        /* \"#utility.yul\":7972:7988   */\n      add\n        /* \"#utility.yul\":7965:7992   */\n      mstore\n        /* \"#utility.yul\":7901:8002   */\n    tag_205:\n        /* \"#utility.yul\":7750:8008   */\n      pop\n        /* \"#utility.yul\":7701:8008   */\n      pop\n      pop\n      pop\n      jump\t// out\n        /* \"#utility.yul\":8014:8334   */\n    tag_63:\n        /* \"#utility.yul\":8058:8064   */\n      0x00\n        /* \"#utility.yul\":8095:8096   */\n      0x02\n        /* \"#utility.yul\":8089:8093   */\n      dup3\n        /* \"#utility.yul\":8085:8097   */\n      div\n        /* \"#utility.yul\":8075:8097   */\n      swap1\n      pop\n        /* \"#utility.yul\":8142:8143   */\n      0x01\n        /* \"#utility.yul\":8136:8140   */\n      dup3\n        /* \"#utility.yul\":8132:8144   */\n      and\n        /* \"#utility.yul\":8163:8181   */\n      dup1\n        /* \"#utility.yul\":8153:8234   */\n      tag_207\n      jumpi\n        /* \"#utility.yul\":8219:8223   */\n      0x7f\n        /* \"#utility.yul\":8211:8217   */\n      dup3\n        /* \"#utility.yul\":8207:8224   */\n      and\n        /* \"#utility.yul\":8197:8224   */\n      swap2\n      pop\n        /* \"#utility.yul\":8153:8234   */\n    tag_207:\n        /* \"#utility.yul\":8281:8283   */\n      0x20\n        /* \"#utility.yul\":8273:8279   */\n      dup3\n        /* \"#utility.yul\":8270:8284   */\n      lt\n        /* \"#utility.yul\":8250:8268   */\n      dup2\n        /* \"#utility.yul\":8247:8285   */\n      eq\n        /* \"#utility.yul\":8244:8328   */\n      iszero\n      tag_208\n      jumpi\n        /* \"#utility.yul\":8300:8318   */\n      tag_209\n      tag_210\n      jump\t// in\n    tag_209:\n        /* \"#utility.yul\":8244:8328   */\n    tag_208:\n        /* \"#utility.yul\":8065:8334   */\n      pop\n        /* \"#utility.yul\":8014:8334   */\n      swap2\n      swap1\n      pop\n      jump\t// out\n        /* \"#utility.yul\":8340:8621   */\n    tag_186:\n        /* \"#utility.yul\":8423:8450   */\n      tag_212\n        /* \"#utility.yul\":8445:8449   */\n      dup3\n        /* \"#utility.yul\":8423:8450   */\n      tag_150\n      jump\t// in\n    tag_212:\n        /* \"#utility.yul\":8415:8421   */\n      dup2\n        /* \"#utility.yul\":8411:8451   */\n      add\n        /* \"#utility.yul\":8553:8559   */\n      dup2\n        /* \"#utility.yul\":8541:8551   */\n      dup2\n        /* \"#utility.yul\":8538:8560   */\n      lt\n        /* \"#utility.yul\":8517:8535   */\n      0xffffffffffffffff\n        /* \"#utility.yul\":8505:8515   */\n      dup3\n        /* \"#utility.yul\":8502:8536   */\n      gt\n        /* \"#utility.yul\":8499:8561   */\n      or\n        /* \"#utility.yul\":8496:8584   */\n      iszero\n      tag_213\n      jumpi\n        /* \"#utility.yul\":8564:8582   */\n      tag_214\n      tag_191\n      jump\t// in\n    tag_214:\n        /* \"#utility.yul\":8496:8584   */\n    tag_213:\n        /* \"#utility.yul\":8604:8614   */\n      dup1\n        /* \"#utility.yul\":8600:8602   */\n      0x40\n        /* \"#utility.yul\":8593:8615   */\n      mstore\n        /* \"#utility.yul\":8383:8621   */\n      pop\n        /* \"#utility.yul\":8340:8621   */\n      pop\n      pop\n      jump\t// out\n        /* \"#utility.yul\":8627:8860   */\n    tag_60:\n        /* \"#utility.yul\":8666:8669   */\n      0x00\n        /* \"#utility.yul\":8689:8713   */\n      tag_216\n        /* \"#utility.yul\":8707:8712   */\n      dup3\n        /* \"#utility.yul\":8689:8713   */\n      tag_164\n      jump\t// in\n    tag_216:\n        /* \"#utility.yul\":8680:8713   */\n      swap2\n      pop\n        /* \"#utility.yul\":8735:8801   */\n      0xffffffffffffffffffffffffffffffffffffffffffffffffffffffffffffffff\n        /* \"#utility.yul\":8728:8733   */\n      dup3\n        /* \"#utility.yul\":8725:8802   */\n      eq\n        /* \"#utility.yul\":8722:8825   */\n      iszero\n      tag_217\n      jumpi\n        /* \"#utility.yul\":8805:8823   */\n      tag_218\n      tag_219\n      jump\t// in\n    tag_218:\n        /* \"#utility.yul\":8722:8825   */\n    tag_217:\n        /* \"#utility.yul\":8852:8853   */\n      0x01\n        /* \"#utility.yul\":8845:8850   */\n      dup3\n        /* \"#utility.yul\":8841:8854   */\n      add\n        /* \"#utility.yul\":8834:8854   */\n      swap1\n      pop\n        /* \"#utility.yul\":8627:8860   */\n      swap2\n      swap1\n      pop\n      jump\t// out\n        /* \"#utility.yul\":8866:9046   */\n    tag_219:\n        /* \"#utility.yul\":8914:8991   */\n      0x4e487b7100000000000000000000000000000000000000000000000000000000\n        /* \"#utility.yul\":8911:8912   */\n      0x00\n        /* \"#utility.yul\":8904:8992   */\n      mstore\n        /* \"#utility.yul\":9011:9015   */\n      0x11\n        /* \"#utility.yul\":9008:9009   */\n      0x04\n        /* \"#utility.yul\":9001:9016   */\n      mstore\n        /* \"#utility.yul\":9035:9039   */\n      0x24\n        /* \"#utility.yul\":9032:9033   */\n      0x00\n        /* \"#utility.yul\":9025:9040   */\n      revert\n        /* \"#utility.yul\":9052:9232   */\n    tag_210:\n        /* \"#utility.yul\":9100:9177   */\n      0x4e487b7100000000000000000000000000000000000000000000000000000000\n        /* \"#utility.yul\":9097:9098   */\n      0x00\n        /* \"#utility.yul\":9090:9178   */\n      mstore\n        /* \"#utility.yul\":9197:9201   */\n      0x22\n        /* \"#utility.yul\":9194:9195   */\n      0x04\n        /* \"#utility.yul\":9187:9202   */\n      mstore\n        /* \"#utility.yul\":9221:9225   */\n      0x24\n        /* \"#utility.yul\":9218:9219   */\n      0x00\n        /* \"#utility.yul\":9211:9226   */\n      revert\n        /* \"#utility.yul\":9238:9418   */\n    tag_191:\n        /* \"#utility.yul\":9286:9363   */\n      0x4e487b7100000000000000000000000000000000000000000000000000000000\n        /* \"#utility.yul\":9283:9284   */\n      0x00\n        /* \"#utility.yul\":9276:9364   */\n      mstore\n        /* \"#utility.yul\":9383:9387   */\n      0x41\n        /* \"#utility.yul\":9380:9381   */\n      0x04\n        /* \"#utility.yul\":9373:9388   */\n      mstore\n        /* \"#utility.yul\":9407:9411   */\n      0x24\n        /* \"#utility.yul\":9404:9405   */\n      0x00\n        /* \"#utility.yul\":9397:9412   */\n      revert\n        /* \"#utility.yul\":9424:9541   */\n    tag_113:\n        /* \"#utility.yul\":9533:9534   */\n      0x00\n        /* \"#utility.yul\":9530:9531   */\n      dup1\n        /* \"#utility.yul\":9523:9535   */\n      revert\n        /* \"#utility.yul\":9547:9664   */\n    tag_102:\n        /* \"#utility.yul\":9656:9657   */\n      0x00\n        /* \"#utility.yul\":9653:9654   */\n      dup1\n        /* \"#utility.yul\":9646:9658   */\n      revert\n        /* \"#utility.yul\":9670:9787   */\n    tag_134:\n        /* \"#utility.yul\":9779:9780   */\n      0x00\n        /* \"#utility.yul\":9776:9777   */\n      dup1\n        /* \"#utility.yul\":9769:9781   */\n      revert\n        /* \"#utility.yul\":9793:9910   */\n    tag_122:\n        /* \"#utility.yul\":9902:9903   */\n      0x00\n        /* \"#utility.yul\":9899:9900   */\n      dup1\n        /* \"#utility.yul\":9892:9904   */\n      revert\n        /* \"#utility.yul\":9916:10018   */\n    tag_150:\n        /* \"#utility.yul\":9957:9963   */\n      0x00\n        /* \"#utility.yul\":10008:10010   */\n      0x1f\n        /* \"#utility.yul\":10004:10011   */\n      not\n        /* \"#utility.yul\":9999:10001   */\n      0x1f\n        /* \"#utility.yul\":9992:9997   */\n      dup4\n        /* \"#utility.yul\":9988:10002   */\n      add\n        /* \"#utility.yul\":9984:10012   */\n      and\n        /* \"#utility.yul\":9974:10012   */\n      swap1\n      pop\n        /* \"#utility.yul\":9916:10018   */\n      swap2\n      swap1\n      pop\n      jump\t// out\n        /* \"#utility.yul\":10024:10248   */\n    tag_155:\n        /* \"#utility.yul\":10164:10198   */\n      0x596120746520656e6375656e74726173207265676973747261646f20656e2065\n        /* \"#utility.yul\":10160:10161   */\n      0x00\n        /* \"#utility.yul\":10152:10158   */\n      dup3\n        /* \"#utility.yul\":10148:10162   */\n      add\n        /* \"#utility.yul\":10141:10199   */\n      mstore\n        /* \"#utility.yul\":10233:10240   */\n      0x6c2067796d000000000000000000000000000000000000000000000000000000\n        /* \"#utility.yul\":10228:10230   */\n      0x20\n        /* \"#utility.yul\":10220:10226   */\n      dup3\n        /* \"#utility.yul\":10216:10231   */\n      add\n        /* \"#utility.yul\":10209:10241   */\n      mstore\n        /* \"#utility.yul\":10024:10248   */\n      pop\n      jump\t// out\n        /* \"#utility.yul\":10254:10489   */\n    tag_160:\n        /* \"#utility.yul\":10394:10428   */\n      0x536f6c6f20656c2041646d696e6973747261646f722064656c2047796d207075\n        /* \"#utility.yul\":10390:10391   */\n      0x00\n        /* \"#utility.yul\":10382:10388   */\n      dup3\n        /* \"#utility.yul\":10378:10392   */\n      add\n        /* \"#utility.yul\":10371:10429   */\n      mstore\n        /* \"#utility.yul\":10463:10481   */\n      0x65646520637265617220636c6173657300000000000000000000000000000000\n        /* \"#utility.yul\":10458:10460   */\n      0x20\n        /* \"#utility.yul\":10450:10456   */\n      dup3\n        /* \"#utility.yul\":10446:10461   */\n      add\n        /* \"#utility.yul\":10439:10482   */\n      mstore\n        /* \"#utility.yul\":10254:10489   */\n      pop\n      jump\t// out\n        /* \"#utility.yul\":10495:10617   */\n    tag_108:\n        /* \"#utility.yul\":10568:10592   */\n      tag_231\n        /* \"#utility.yul\":10586:10591   */\n      dup2\n        /* \"#utility.yul\":10568:10592   */\n      tag_140\n      jump\t// in\n    tag_231:\n        /* \"#utility.yul\":10561:10566   */\n      dup2\n        /* \"#utility.yul\":10558:10593   */\n      eq\n        /* \"#utility.yul\":10548:10611   */\n      tag_232\n      jumpi\n        /* \"#utility.yul\":10607:10608   */\n      0x00\n        /* \"#utility.yul\":10604:10605   */\n      dup1\n        /* \"#utility.yul\":10597:10609   */\n      revert\n        /* \"#utility.yul\":10548:10611   */\n    tag_232:\n        /* \"#utility.yul\":10495:10617   */\n      pop\n      jump\t// out\n        /* \"#utility.yul\":10623:10745   */\n    tag_118:\n        /* \"#utility.yul\":10696:10720   */\n      tag_234\n        /* \"#utility.yul\":10714:10719   */\n      dup2\n        /* \"#utility.yul\":10696:10720   */\n      tag_164\n      jump\t// in\n    tag_234:\n        /* \"#utility.yul\":10689:10694   */\n      dup2\n        /* \"#utility.yul\":10686:10721   */\n      eq\n        /* \"#utility.yul\":10676:10739   */\n      tag_235\n      jumpi\n        /* \"#utility.yul\":10735:10736   */\n      0x00\n        /* \"#utility.yul\":10732:10733   */\n      dup1\n        /* \"#utility.yul\":10725:10737   */\n      revert\n        /* \"#utility.yul\":10676:10739   */\n    tag_235:\n        /* \"#utility.yul\":10623:10745   */\n      pop\n      jump\t// out\n\n    auxdata: 0xa2646970667358221220e238d53305467f8f9cd7ffad9e25ef0f5fbebaf4913f9ae569f79ad4e1451c7a64736f6c63430008070033\n}\n",
				"bytecode": {
					"linkReferences": {},
					"object": "60a060405234801561001057600080fd5b503373ffffffffffffffffffffffffffffffffffffffff1660808173ffffffffffffffffffffffffffffffffffffffff1660601b8152505060805160601c610ea861007b6000396000818161022a01528181610265015281816102e2015261035f0152610ea86000f3fe608060405234801561001057600080fd5b50600436106100935760003560e01c80636d705ebb116100665780636d705ebb1461010f57806378dea39d1461012b578063a87430ba1461015b578063bff852fa1461018b578063f3bcaf59146101ab57610093565b806312065fe0146100985780632a0acc6a146100b75780634852a212146100d557806357e61ea4146100f1575b600080fd5b6100a06101dd565b6040516100ae929190610a74565b60405180910390f35b6100bf610228565b6040516100cc9190610a59565b60405180910390f35b6100ef60048036038101906100ea9190610960565b61024c565b005b6100f9610492565b6040516101069190610a9d565b60405180910390f35b61012960048036038101906101249190610920565b610527565b005b610145600480360381019061014091906108f3565b610627565b6040516101529190610aff565b60405180910390f35b610175600480360381019061017091906108f3565b61063f565b6040516101829190610aff565b60405180910390f35b610193610657565b6040516101a293929190610b1a565b60405180910390f35b6101c560048036038101906101c09190610920565b6106f7565b6040516101d493929190610b1a565b60405180910390f35b600080336000803373ffffffffffffffffffffffffffffffffffffffff1673ffffffffffffffffffffffffffffffffffffffff16815260200190815260200160002054915091509091565b7f000000000000000000000000000000000000000000000000000000000000000081565b3373ffffffffffffffffffffffffffffffffffffffff167f000000000000000000000000000000000000000000000000000000000000000073ffffffffffffffffffffffffffffffffffffffff16146102da576040517f08c379a00000000000000000000000000000000000000000000000000000000081526004016102d190610adf565b60405180910390fd5b6000600260007f000000000000000000000000000000000000000000000000000000000000000073ffffffffffffffffffffffffffffffffffffffff1673ffffffffffffffffffffffffffffffffffffffff168152602001908152602001600020549050604051806060016040528082815260200184815260200183815250600160007f000000000000000000000000000000000000000000000000000000000000000073ffffffffffffffffffffffffffffffffffffffff1673ffffffffffffffffffffffffffffffffffffffff16815260200190815260200160002060008381526020019081526020016000206000820151816000015560208201518160010190805190602001906103ef9291906107b6565b50604082015181600201559050507f7e4cf851366c6fd2ca0ede101f0cf37bbc5080a6bb4fd545d9f5408650f1c1dd81848460405161043093929190610b1a565b60405180910390a1600260003373ffffffffffffffffffffffffffffffffffffffff1673ffffffffffffffffffffffffffffffffffffffff168152602001908152602001600020600081548092919061048890610cab565b9190505550505050565b6060600360010180546104a490610c48565b80601f01602080910402602001604051908101604052809291908181526020018280546104d090610c48565b801561051d5780601f106104f25761010080835404028352916020019161051d565b820191906000526020600020905b81548152906001019060200180831161050057829003601f168201915b5050505050905090565b60008060003373ffffffffffffffffffffffffffffffffffffffff1673ffffffffffffffffffffffffffffffffffffffff16815260200190815260200160002054146105a8576040517f08c379a000000000000000000000000000000000000000000000000000000000815260040161059f90610abf565b60405180910390fd5b806000803373ffffffffffffffffffffffffffffffffffffffff1673ffffffffffffffffffffffffffffffffffffffff168152602001908152602001600020819055507e7dc6ab80cc84c043b7b8d4fcafc802187470087f7ea7fccd2e17aecd0256a1828260405161061b929190610a74565b60405180910390a15050565b60026020528060005260406000206000915090505481565b60006020528060005260406000206000915090505481565b600380600001549080600101805461066e90610c48565b80601f016020809104026020016040519081016040528092919081815260200182805461069a90610c48565b80156106e75780601f106106bc576101008083540402835291602001916106e7565b820191906000526020600020905b8154815290600101906020018083116106ca57829003601f168201915b5050505050908060020154905083565b60016020528160005260406000206020528060005260406000206000915091505080600001549080600101805461072d90610c48565b80601f016020809104026020016040519081016040528092919081815260200182805461075990610c48565b80156107a65780601f1061077b576101008083540402835291602001916107a6565b820191906000526020600020905b81548152906001019060200180831161078957829003601f168201915b5050505050908060020154905083565b8280546107c290610c48565b90600052602060002090601f0160209004810192826107e4576000855561082b565b82601f106107fd57805160ff191683800117855561082b565b8280016001018555821561082b579182015b8281111561082a57825182559160200191906001019061080f565b5b509050610838919061083c565b5090565b5b8082111561085557600081600090555060010161083d565b5090565b600061086c61086784610b7d565b610b58565b90508281526020810184848401111561088857610887610d86565b5b610893848285610c06565b509392505050565b6000813590506108aa81610e44565b92915050565b600082601f8301126108c5576108c4610d81565b5b81356108d5848260208601610859565b91505092915050565b6000813590506108ed81610e5b565b92915050565b60006020828403121561090957610908610d90565b5b60006109178482850161089b565b91505092915050565b6000806040838503121561093757610936610d90565b5b60006109458582860161089b565b9250506020610956858286016108de565b9150509250929050565b6000806040838503121561097757610976610d90565b5b600083013567ffffffffffffffff81111561099557610994610d8b565b5b6109a1858286016108b0565b92505060206109b2858286016108de565b9150509250929050565b6109c581610bca565b82525050565b60006109d682610bae565b6109e08185610bb9565b93506109f0818560208601610c15565b6109f981610d95565b840191505092915050565b6000610a11602583610bb9565b9150610a1c82610da6565b604082019050919050565b6000610a34603083610bb9565b9150610a3f82610df5565b604082019050919050565b610a5381610bfc565b82525050565b6000602082019050610a6e60008301846109bc565b92915050565b6000604082019050610a8960008301856109bc565b610a966020830184610a4a565b9392505050565b60006020820190508181036000830152610ab781846109cb565b905092915050565b60006020820190508181036000830152610ad881610a04565b9050919050565b60006020820190508181036000830152610af881610a27565b9050919050565b6000602082019050610b146000830184610a4a565b92915050565b6000606082019050610b2f6000830186610a4a565b8181036020830152610b4181856109cb565b9050610b506040830184610a4a565b949350505050565b6000610b62610b73565b9050610b6e8282610c7a565b919050565b6000604051905090565b600067ffffffffffffffff821115610b9857610b97610d52565b5b610ba182610d95565b9050602081019050919050565b600081519050919050565b600082825260208201905092915050565b6000610bd582610bdc565b9050919050565b600073ffffffffffffffffffffffffffffffffffffffff82169050919050565b6000819050919050565b82818337600083830152505050565b60005b83811015610c33578082015181840152602081019050610c18565b83811115610c42576000848401525b50505050565b60006002820490506001821680610c6057607f821691505b60208210811415610c7457610c73610d23565b5b50919050565b610c8382610d95565b810181811067ffffffffffffffff82111715610ca257610ca1610d52565b5b80604052505050565b6000610cb682610bfc565b91507fffffffffffffffffffffffffffffffffffffffffffffffffffffffffffffffff821415610ce957610ce8610cf4565b5b600182019050919050565b7f4e487b7100000000000000000000000000000000000000000000000000000000600052601160045260246000fd5b7f4e487b7100000000000000000000000000000000000000000000000000000000600052602260045260246000fd5b7f4e487b7100000000000000000000000000000000000000000000000000000000600052604160045260246000fd5b600080fd5b600080fd5b600080fd5b600080fd5b6000601f19601f8301169050919050565b7f596120746520656e6375656e74726173207265676973747261646f20656e206560008201527f6c2067796d000000000000000000000000000000000000000000000000000000602082015250565b7f536f6c6f20656c2041646d696e6973747261646f722064656c2047796d20707560008201527f65646520637265617220636c6173657300000000000000000000000000000000602082015250565b610e4d81610bca565b8114610e5857600080fd5b50565b610e6481610bfc565b8114610e6f57600080fd5b5056fea2646970667358221220e238d53305467f8f9cd7ffad9e25ef0f5fbebaf4913f9ae569f79ad4e1451c7a64736f6c63430008070033",
					"opcodes": "PUSH1 0xA0 PUSH1 0x40 MSTORE CALLVALUE DUP1 ISZERO PUSH2 0x10 JUMPI PUSH1 0x0 DUP1 REVERT JUMPDEST POP CALLER PUSH20 0xFFFFFFFFFFFFFFFFFFFFFFFFFFFFFFFFFFFFFFFF AND PUSH1 0x80 DUP2 PUSH20 0xFFFFFFFFFFFFFFFFFFFFFFFFFFFFFFFFFFFFFFFF AND PUSH1 0x60 SHL DUP2 MSTORE POP POP PUSH1 0x80 MLOAD PUSH1 0x60 SHR PUSH2 0xEA8 PUSH2 0x7B PUSH1 0x0 CODECOPY PUSH1 0x0 DUP2 DUP2 PUSH2 0x22A ADD MSTORE DUP2 DUP2 PUSH2 0x265 ADD MSTORE DUP2 DUP2 PUSH2 0x2E2 ADD MSTORE PUSH2 0x35F ADD MSTORE PUSH2 0xEA8 PUSH1 0x0 RETURN INVALID PUSH1 0x80 PUSH1 0x40 MSTORE CALLVALUE DUP1 ISZERO PUSH2 0x10 JUMPI PUSH1 0x0 DUP1 REVERT JUMPDEST POP PUSH1 0x4 CALLDATASIZE LT PUSH2 0x93 JUMPI PUSH1 0x0 CALLDATALOAD PUSH1 0xE0 SHR DUP1 PUSH4 0x6D705EBB GT PUSH2 0x66 JUMPI DUP1 PUSH4 0x6D705EBB EQ PUSH2 0x10F JUMPI DUP1 PUSH4 0x78DEA39D EQ PUSH2 0x12B JUMPI DUP1 PUSH4 0xA87430BA EQ PUSH2 0x15B JUMPI DUP1 PUSH4 0xBFF852FA EQ PUSH2 0x18B JUMPI DUP1 PUSH4 0xF3BCAF59 EQ PUSH2 0x1AB JUMPI PUSH2 0x93 JUMP JUMPDEST DUP1 PUSH4 0x12065FE0 EQ PUSH2 0x98 JUMPI DUP1 PUSH4 0x2A0ACC6A EQ PUSH2 0xB7 JUMPI DUP1 PUSH4 0x4852A212 EQ PUSH2 0xD5 JUMPI DUP1 PUSH4 0x57E61EA4 EQ PUSH2 0xF1 JUMPI JUMPDEST PUSH1 0x0 DUP1 REVERT JUMPDEST PUSH2 0xA0 PUSH2 0x1DD JUMP JUMPDEST PUSH1 0x40 MLOAD PUSH2 0xAE SWAP3 SWAP2 SWAP1 PUSH2 0xA74 JUMP JUMPDEST PUSH1 0x40 MLOAD DUP1 SWAP2 SUB SWAP1 RETURN JUMPDEST PUSH2 0xBF PUSH2 0x228 JUMP JUMPDEST PUSH1 0x40 MLOAD PUSH2 0xCC SWAP2 SWAP1 PUSH2 0xA59 JUMP JUMPDEST PUSH1 0x40 MLOAD DUP1 SWAP2 SUB SWAP1 RETURN JUMPDEST PUSH2 0xEF PUSH1 0x4 DUP1 CALLDATASIZE SUB DUP2 ADD SWAP1 PUSH2 0xEA SWAP2 SWAP1 PUSH2 0x960 JUMP JUMPDEST PUSH2 0x24C JUMP JUMPDEST STOP JUMPDEST PUSH2 0xF9 PUSH2 0x492 JUMP JUMPDEST PUSH1 0x40 MLOAD PUSH2 0x106 SWAP2 SWAP1 PUSH2 0xA9D JUMP JUMPDEST PUSH1 0x40 MLOAD DUP1 SWAP2 SUB SWAP1 RETURN JUMPDEST PUSH2 0x129 PUSH1 0x4 DUP1 CALLDATASIZE SUB DUP2 ADD SWAP1 PUSH2 0x124 SWAP2 SWAP1 PUSH2 0x920 JUMP JUMPDEST PUSH2 0x527 JUMP JUMPDEST STOP JUMPDEST PUSH2 0x145 PUSH1 0x4 DUP1 CALLDATASIZE SUB DUP2 ADD SWAP1 PUSH2 0x140 SWAP2 SWAP1 PUSH2 0x8F3 JUMP JUMPDEST PUSH2 0x627 JUMP JUMPDEST PUSH1 0x40 MLOAD PUSH2 0x152 SWAP2 SWAP1 PUSH2 0xAFF JUMP JUMPDEST PUSH1 0x40 MLOAD DUP1 SWAP2 SUB SWAP1 RETURN JUMPDEST PUSH2 0x175 PUSH1 0x4 DUP1 CALLDATASIZE SUB DUP2 ADD SWAP1 PUSH2 0x170 SWAP2 SWAP1 PUSH2 0x8F3 JUMP JUMPDEST PUSH2 0x63F JUMP JUMPDEST PUSH1 0x40 MLOAD PUSH2 0x182 SWAP2 SWAP1 PUSH2 0xAFF JUMP JUMPDEST PUSH1 0x40 MLOAD DUP1 SWAP2 SUB SWAP1 RETURN JUMPDEST PUSH2 0x193 PUSH2 0x657 JUMP JUMPDEST PUSH1 0x40 MLOAD PUSH2 0x1A2 SWAP4 SWAP3 SWAP2 SWAP1 PUSH2 0xB1A JUMP JUMPDEST PUSH1 0x40 MLOAD DUP1 SWAP2 SUB SWAP1 RETURN JUMPDEST PUSH2 0x1C5 PUSH1 0x4 DUP1 CALLDATASIZE SUB DUP2 ADD SWAP1 PUSH2 0x1C0 SWAP2 SWAP1 PUSH2 0x920 JUMP JUMPDEST PUSH2 0x6F7 JUMP JUMPDEST PUSH1 0x40 MLOAD PUSH2 0x1D4 SWAP4 SWAP3 SWAP2 SWAP1 PUSH2 0xB1A JUMP JUMPDEST PUSH1 0x40 MLOAD DUP1 SWAP2 SUB SWAP1 RETURN JUMPDEST PUSH1 0x0 DUP1 CALLER PUSH1 0x0 DUP1 CALLER PUSH20 0xFFFFFFFFFFFFFFFFFFFFFFFFFFFFFFFFFFFFFFFF AND PUSH20 0xFFFFFFFFFFFFFFFFFFFFFFFFFFFFFFFFFFFFFFFF AND DUP2 MSTORE PUSH1 0x20 ADD SWAP1 DUP2 MSTORE PUSH1 0x20 ADD PUSH1 0x0 KECCAK256 SLOAD SWAP2 POP SWAP2 POP SWAP1 SWAP2 JUMP JUMPDEST PUSH32 0x0 DUP2 JUMP JUMPDEST CALLER PUSH20 0xFFFFFFFFFFFFFFFFFFFFFFFFFFFFFFFFFFFFFFFF AND PUSH32 0x0 PUSH20 0xFFFFFFFFFFFFFFFFFFFFFFFFFFFFFFFFFFFFFFFF AND EQ PUSH2 0x2DA JUMPI PUSH1 0x40 MLOAD PUSH32 0x8C379A000000000000000000000000000000000000000000000000000000000 DUP2 MSTORE PUSH1 0x4 ADD PUSH2 0x2D1 SWAP1 PUSH2 0xADF JUMP JUMPDEST PUSH1 0x40 MLOAD DUP1 SWAP2 SUB SWAP1 REVERT JUMPDEST PUSH1 0x0 PUSH1 0x2 PUSH1 0x0 PUSH32 0x0 PUSH20 0xFFFFFFFFFFFFFFFFFFFFFFFFFFFFFFFFFFFFFFFF AND PUSH20 0xFFFFFFFFFFFFFFFFFFFFFFFFFFFFFFFFFFFFFFFF AND DUP2 MSTORE PUSH1 0x20 ADD SWAP1 DUP2 MSTORE PUSH1 0x20 ADD PUSH1 0x0 KECCAK256 SLOAD SWAP1 POP PUSH1 0x40 MLOAD DUP1 PUSH1 0x60 ADD PUSH1 0x40 MSTORE DUP1 DUP3 DUP2 MSTORE PUSH1 0x20 ADD DUP5 DUP2 MSTORE PUSH1 0x20 ADD DUP4 DUP2 MSTORE POP PUSH1 0x1 PUSH1 0x0 PUSH32 0x0 PUSH20 0xFFFFFFFFFFFFFFFFFFFFFFFFFFFFFFFFFFFFFFFF AND PUSH20 0xFFFFFFFFFFFFFFFFFFFFFFFFFFFFFFFFFFFFFFFF AND DUP2 MSTORE PUSH1 0x20 ADD SWAP1 DUP2 MSTORE PUSH1 0x20 ADD PUSH1 0x0 KECCAK256 PUSH1 0x0 DUP4 DUP2 MSTORE PUSH1 0x20 ADD SWAP1 DUP2 MSTORE PUSH1 0x20 ADD PUSH1 0x0 KECCAK256 PUSH1 0x0 DUP3 ADD MLOAD DUP2 PUSH1 0x0 ADD SSTORE PUSH1 0x20 DUP3 ADD MLOAD DUP2 PUSH1 0x1 ADD SWAP1 DUP1 MLOAD SWAP1 PUSH1 0x20 ADD SWAP1 PUSH2 0x3EF SWAP3 SWAP2 SWAP1 PUSH2 0x7B6 JUMP JUMPDEST POP PUSH1 0x40 DUP3 ADD MLOAD DUP2 PUSH1 0x2 ADD SSTORE SWAP1 POP POP PUSH32 0x7E4CF851366C6FD2CA0EDE101F0CF37BBC5080A6BB4FD545D9F5408650F1C1DD DUP2 DUP5 DUP5 PUSH1 0x40 MLOAD PUSH2 0x430 SWAP4 SWAP3 SWAP2 SWAP1 PUSH2 0xB1A JUMP JUMPDEST PUSH1 0x40 MLOAD DUP1 SWAP2 SUB SWAP1 LOG1 PUSH1 0x2 PUSH1 0x0 CALLER PUSH20 0xFFFFFFFFFFFFFFFFFFFFFFFFFFFFFFFFFFFFFFFF AND PUSH20 0xFFFFFFFFFFFFFFFFFFFFFFFFFFFFFFFFFFFFFFFF AND DUP2 MSTORE PUSH1 0x20 ADD SWAP1 DUP2 MSTORE PUSH1 0x20 ADD PUSH1 0x0 KECCAK256 PUSH1 0x0 DUP2 SLOAD DUP1 SWAP3 SWAP2 SWAP1 PUSH2 0x488 SWAP1 PUSH2 0xCAB JUMP JUMPDEST SWAP2 SWAP1 POP SSTORE POP POP POP POP JUMP JUMPDEST PUSH1 0x60 PUSH1 0x3 PUSH1 0x1 ADD DUP1 SLOAD PUSH2 0x4A4 SWAP1 PUSH2 0xC48 JUMP JUMPDEST DUP1 PUSH1 0x1F ADD PUSH1 0x20 DUP1 SWAP2 DIV MUL PUSH1 0x20 ADD PUSH1 0x40 MLOAD SWAP1 DUP2 ADD PUSH1 0x40 MSTORE DUP1 SWAP3 SWAP2 SWAP1 DUP2 DUP2 MSTORE PUSH1 0x20 ADD DUP3 DUP1 SLOAD PUSH2 0x4D0 SWAP1 PUSH2 0xC48 JUMP JUMPDEST DUP1 ISZERO PUSH2 0x51D JUMPI DUP1 PUSH1 0x1F LT PUSH2 0x4F2 JUMPI PUSH2 0x100 DUP1 DUP4 SLOAD DIV MUL DUP4 MSTORE SWAP2 PUSH1 0x20 ADD SWAP2 PUSH2 0x51D JUMP JUMPDEST DUP3 ADD SWAP2 SWAP1 PUSH1 0x0 MSTORE PUSH1 0x20 PUSH1 0x0 KECCAK256 SWAP1 JUMPDEST DUP2 SLOAD DUP2 MSTORE SWAP1 PUSH1 0x1 ADD SWAP1 PUSH1 0x20 ADD DUP1 DUP4 GT PUSH2 0x500 JUMPI DUP3 SWAP1 SUB PUSH1 0x1F AND DUP3 ADD SWAP2 JUMPDEST POP POP POP POP POP SWAP1 POP SWAP1 JUMP JUMPDEST PUSH1 0x0 DUP1 PUSH1 0x0 CALLER PUSH20 0xFFFFFFFFFFFFFFFFFFFFFFFFFFFFFFFFFFFFFFFF AND PUSH20 0xFFFFFFFFFFFFFFFFFFFFFFFFFFFFFFFFFFFFFFFF AND DUP2 MSTORE PUSH1 0x20 ADD SWAP1 DUP2 MSTORE PUSH1 0x20 ADD PUSH1 0x0 KECCAK256 SLOAD EQ PUSH2 0x5A8 JUMPI PUSH1 0x40 MLOAD PUSH32 0x8C379A000000000000000000000000000000000000000000000000000000000 DUP2 MSTORE PUSH1 0x4 ADD PUSH2 0x59F SWAP1 PUSH2 0xABF JUMP JUMPDEST PUSH1 0x40 MLOAD DUP1 SWAP2 SUB SWAP1 REVERT JUMPDEST DUP1 PUSH1 0x0 DUP1 CALLER PUSH20 0xFFFFFFFFFFFFFFFFFFFFFFFFFFFFFFFFFFFFFFFF AND PUSH20 0xFFFFFFFFFFFFFFFFFFFFFFFFFFFFFFFFFFFFFFFF AND DUP2 MSTORE PUSH1 0x20 ADD SWAP1 DUP2 MSTORE PUSH1 0x20 ADD PUSH1 0x0 KECCAK256 DUP2 SWAP1 SSTORE POP PUSH31 0x7DC6AB80CC84C043B7B8D4FCAFC802187470087F7EA7FCCD2E17AECD0256A1 DUP3 DUP3 PUSH1 0x40 MLOAD PUSH2 0x61B SWAP3 SWAP2 SWAP1 PUSH2 0xA74 JUMP JUMPDEST PUSH1 0x40 MLOAD DUP1 SWAP2 SUB SWAP1 LOG1 POP POP JUMP JUMPDEST PUSH1 0x2 PUSH1 0x20 MSTORE DUP1 PUSH1 0x0 MSTORE PUSH1 0x40 PUSH1 0x0 KECCAK256 PUSH1 0x0 SWAP2 POP SWAP1 POP SLOAD DUP2 JUMP JUMPDEST PUSH1 0x0 PUSH1 0x20 MSTORE DUP1 PUSH1 0x0 MSTORE PUSH1 0x40 PUSH1 0x0 KECCAK256 PUSH1 0x0 SWAP2 POP SWAP1 POP SLOAD DUP2 JUMP JUMPDEST PUSH1 0x3 DUP1 PUSH1 0x0 ADD SLOAD SWAP1 DUP1 PUSH1 0x1 ADD DUP1 SLOAD PUSH2 0x66E SWAP1 PUSH2 0xC48 JUMP JUMPDEST DUP1 PUSH1 0x1F ADD PUSH1 0x20 DUP1 SWAP2 DIV MUL PUSH1 0x20 ADD PUSH1 0x40 MLOAD SWAP1 DUP2 ADD PUSH1 0x40 MSTORE DUP1 SWAP3 SWAP2 SWAP1 DUP2 DUP2 MSTORE PUSH1 0x20 ADD DUP3 DUP1 SLOAD PUSH2 0x69A SWAP1 PUSH2 0xC48 JUMP JUMPDEST DUP1 ISZERO PUSH2 0x6E7 JUMPI DUP1 PUSH1 0x1F LT PUSH2 0x6BC JUMPI PUSH2 0x100 DUP1 DUP4 SLOAD DIV MUL DUP4 MSTORE SWAP2 PUSH1 0x20 ADD SWAP2 PUSH2 0x6E7 JUMP JUMPDEST DUP3 ADD SWAP2 SWAP1 PUSH1 0x0 MSTORE PUSH1 0x20 PUSH1 0x0 KECCAK256 SWAP1 JUMPDEST DUP2 SLOAD DUP2 MSTORE SWAP1 PUSH1 0x1 ADD SWAP1 PUSH1 0x20 ADD DUP1 DUP4 GT PUSH2 0x6CA JUMPI DUP3 SWAP1 SUB PUSH1 0x1F AND DUP3 ADD SWAP2 JUMPDEST POP POP POP POP POP SWAP1 DUP1 PUSH1 0x2 ADD SLOAD SWAP1 POP DUP4 JUMP JUMPDEST PUSH1 0x1 PUSH1 0x20 MSTORE DUP2 PUSH1 0x0 MSTORE PUSH1 0x40 PUSH1 0x0 KECCAK256 PUSH1 0x20 MSTORE DUP1 PUSH1 0x0 MSTORE PUSH1 0x40 PUSH1 0x0 KECCAK256 PUSH1 0x0 SWAP2 POP SWAP2 POP POP DUP1 PUSH1 0x0 ADD SLOAD SWAP1 DUP1 PUSH1 0x1 ADD DUP1 SLOAD PUSH2 0x72D SWAP1 PUSH2 0xC48 JUMP JUMPDEST DUP1 PUSH1 0x1F ADD PUSH1 0x20 DUP1 SWAP2 DIV MUL PUSH1 0x20 ADD PUSH1 0x40 MLOAD SWAP1 DUP2 ADD PUSH1 0x40 MSTORE DUP1 SWAP3 SWAP2 SWAP1 DUP2 DUP2 MSTORE PUSH1 0x20 ADD DUP3 DUP1 SLOAD PUSH2 0x759 SWAP1 PUSH2 0xC48 JUMP JUMPDEST DUP1 ISZERO PUSH2 0x7A6 JUMPI DUP1 PUSH1 0x1F LT PUSH2 0x77B JUMPI PUSH2 0x100 DUP1 DUP4 SLOAD DIV MUL DUP4 MSTORE SWAP2 PUSH1 0x20 ADD SWAP2 PUSH2 0x7A6 JUMP JUMPDEST DUP3 ADD SWAP2 SWAP1 PUSH1 0x0 MSTORE PUSH1 0x20 PUSH1 0x0 KECCAK256 SWAP1 JUMPDEST DUP2 SLOAD DUP2 MSTORE SWAP1 PUSH1 0x1 ADD SWAP1 PUSH1 0x20 ADD DUP1 DUP4 GT PUSH2 0x789 JUMPI DUP3 SWAP1 SUB PUSH1 0x1F AND DUP3 ADD SWAP2 JUMPDEST POP POP POP POP POP SWAP1 DUP1 PUSH1 0x2 ADD SLOAD SWAP1 POP DUP4 JUMP JUMPDEST DUP3 DUP1 SLOAD PUSH2 0x7C2 SWAP1 PUSH2 0xC48 JUMP JUMPDEST SWAP1 PUSH1 0x0 MSTORE PUSH1 0x20 PUSH1 0x0 KECCAK256 SWAP1 PUSH1 0x1F ADD PUSH1 0x20 SWAP1 DIV DUP2 ADD SWAP3 DUP3 PUSH2 0x7E4 JUMPI PUSH1 0x0 DUP6 SSTORE PUSH2 0x82B JUMP JUMPDEST DUP3 PUSH1 0x1F LT PUSH2 0x7FD JUMPI DUP1 MLOAD PUSH1 0xFF NOT AND DUP4 DUP1 ADD OR DUP6 SSTORE PUSH2 0x82B JUMP JUMPDEST DUP3 DUP1 ADD PUSH1 0x1 ADD DUP6 SSTORE DUP3 ISZERO PUSH2 0x82B JUMPI SWAP2 DUP3 ADD JUMPDEST DUP3 DUP2 GT ISZERO PUSH2 0x82A JUMPI DUP3 MLOAD DUP3 SSTORE SWAP2 PUSH1 0x20 ADD SWAP2 SWAP1 PUSH1 0x1 ADD SWAP1 PUSH2 0x80F JUMP JUMPDEST JUMPDEST POP SWAP1 POP PUSH2 0x838 SWAP2 SWAP1 PUSH2 0x83C JUMP JUMPDEST POP SWAP1 JUMP JUMPDEST JUMPDEST DUP1 DUP3 GT ISZERO PUSH2 0x855 JUMPI PUSH1 0x0 DUP2 PUSH1 0x0 SWAP1 SSTORE POP PUSH1 0x1 ADD PUSH2 0x83D JUMP JUMPDEST POP SWAP1 JUMP JUMPDEST PUSH1 0x0 PUSH2 0x86C PUSH2 0x867 DUP5 PUSH2 0xB7D JUMP JUMPDEST PUSH2 0xB58 JUMP JUMPDEST SWAP1 POP DUP3 DUP2 MSTORE PUSH1 0x20 DUP2 ADD DUP5 DUP5 DUP5 ADD GT ISZERO PUSH2 0x888 JUMPI PUSH2 0x887 PUSH2 0xD86 JUMP JUMPDEST JUMPDEST PUSH2 0x893 DUP5 DUP3 DUP6 PUSH2 0xC06 JUMP JUMPDEST POP SWAP4 SWAP3 POP POP POP JUMP JUMPDEST PUSH1 0x0 DUP2 CALLDATALOAD SWAP1 POP PUSH2 0x8AA DUP2 PUSH2 0xE44 JUMP JUMPDEST SWAP3 SWAP2 POP POP JUMP JUMPDEST PUSH1 0x0 DUP3 PUSH1 0x1F DUP4 ADD SLT PUSH2 0x8C5 JUMPI PUSH2 0x8C4 PUSH2 0xD81 JUMP JUMPDEST JUMPDEST DUP2 CALLDATALOAD PUSH2 0x8D5 DUP5 DUP3 PUSH1 0x20 DUP7 ADD PUSH2 0x859 JUMP JUMPDEST SWAP2 POP POP SWAP3 SWAP2 POP POP JUMP JUMPDEST PUSH1 0x0 DUP2 CALLDATALOAD SWAP1 POP PUSH2 0x8ED DUP2 PUSH2 0xE5B JUMP JUMPDEST SWAP3 SWAP2 POP POP JUMP JUMPDEST PUSH1 0x0 PUSH1 0x20 DUP3 DUP5 SUB SLT ISZERO PUSH2 0x909 JUMPI PUSH2 0x908 PUSH2 0xD90 JUMP JUMPDEST JUMPDEST PUSH1 0x0 PUSH2 0x917 DUP5 DUP3 DUP6 ADD PUSH2 0x89B JUMP JUMPDEST SWAP2 POP POP SWAP3 SWAP2 POP POP JUMP JUMPDEST PUSH1 0x0 DUP1 PUSH1 0x40 DUP4 DUP6 SUB SLT ISZERO PUSH2 0x937 JUMPI PUSH2 0x936 PUSH2 0xD90 JUMP JUMPDEST JUMPDEST PUSH1 0x0 PUSH2 0x945 DUP6 DUP3 DUP7 ADD PUSH2 0x89B JUMP JUMPDEST SWAP3 POP POP PUSH1 0x20 PUSH2 0x956 DUP6 DUP3 DUP7 ADD PUSH2 0x8DE JUMP JUMPDEST SWAP2 POP POP SWAP3 POP SWAP3 SWAP1 POP JUMP JUMPDEST PUSH1 0x0 DUP1 PUSH1 0x40 DUP4 DUP6 SUB SLT ISZERO PUSH2 0x977 JUMPI PUSH2 0x976 PUSH2 0xD90 JUMP JUMPDEST JUMPDEST PUSH1 0x0 DUP4 ADD CALLDATALOAD PUSH8 0xFFFFFFFFFFFFFFFF DUP2 GT ISZERO PUSH2 0x995 JUMPI PUSH2 0x994 PUSH2 0xD8B JUMP JUMPDEST JUMPDEST PUSH2 0x9A1 DUP6 DUP3 DUP7 ADD PUSH2 0x8B0 JUMP JUMPDEST SWAP3 POP POP PUSH1 0x20 PUSH2 0x9B2 DUP6 DUP3 DUP7 ADD PUSH2 0x8DE JUMP JUMPDEST SWAP2 POP POP SWAP3 POP SWAP3 SWAP1 POP JUMP JUMPDEST PUSH2 0x9C5 DUP2 PUSH2 0xBCA JUMP JUMPDEST DUP3 MSTORE POP POP JUMP JUMPDEST PUSH1 0x0 PUSH2 0x9D6 DUP3 PUSH2 0xBAE JUMP JUMPDEST PUSH2 0x9E0 DUP2 DUP6 PUSH2 0xBB9 JUMP JUMPDEST SWAP4 POP PUSH2 0x9F0 DUP2 DUP6 PUSH1 0x20 DUP7 ADD PUSH2 0xC15 JUMP JUMPDEST PUSH2 0x9F9 DUP2 PUSH2 0xD95 JUMP JUMPDEST DUP5 ADD SWAP2 POP POP SWAP3 SWAP2 POP POP JUMP JUMPDEST PUSH1 0x0 PUSH2 0xA11 PUSH1 0x25 DUP4 PUSH2 0xBB9 JUMP JUMPDEST SWAP2 POP PUSH2 0xA1C DUP3 PUSH2 0xDA6 JUMP JUMPDEST PUSH1 0x40 DUP3 ADD SWAP1 POP SWAP2 SWAP1 POP JUMP JUMPDEST PUSH1 0x0 PUSH2 0xA34 PUSH1 0x30 DUP4 PUSH2 0xBB9 JUMP JUMPDEST SWAP2 POP PUSH2 0xA3F DUP3 PUSH2 0xDF5 JUMP JUMPDEST PUSH1 0x40 DUP3 ADD SWAP1 POP SWAP2 SWAP1 POP JUMP JUMPDEST PUSH2 0xA53 DUP2 PUSH2 0xBFC JUMP JUMPDEST DUP3 MSTORE POP POP JUMP JUMPDEST PUSH1 0x0 PUSH1 0x20 DUP3 ADD SWAP1 POP PUSH2 0xA6E PUSH1 0x0 DUP4 ADD DUP5 PUSH2 0x9BC JUMP JUMPDEST SWAP3 SWAP2 POP POP JUMP JUMPDEST PUSH1 0x0 PUSH1 0x40 DUP3 ADD SWAP1 POP PUSH2 0xA89 PUSH1 0x0 DUP4 ADD DUP6 PUSH2 0x9BC JUMP JUMPDEST PUSH2 0xA96 PUSH1 0x20 DUP4 ADD DUP5 PUSH2 0xA4A JUMP JUMPDEST SWAP4 SWAP3 POP POP POP JUMP JUMPDEST PUSH1 0x0 PUSH1 0x20 DUP3 ADD SWAP1 POP DUP2 DUP2 SUB PUSH1 0x0 DUP4 ADD MSTORE PUSH2 0xAB7 DUP2 DUP5 PUSH2 0x9CB JUMP JUMPDEST SWAP1 POP SWAP3 SWAP2 POP POP JUMP JUMPDEST PUSH1 0x0 PUSH1 0x20 DUP3 ADD SWAP1 POP DUP2 DUP2 SUB PUSH1 0x0 DUP4 ADD MSTORE PUSH2 0xAD8 DUP2 PUSH2 0xA04 JUMP JUMPDEST SWAP1 POP SWAP2 SWAP1 POP JUMP JUMPDEST PUSH1 0x0 PUSH1 0x20 DUP3 ADD SWAP1 POP DUP2 DUP2 SUB PUSH1 0x0 DUP4 ADD MSTORE PUSH2 0xAF8 DUP2 PUSH2 0xA27 JUMP JUMPDEST SWAP1 POP SWAP2 SWAP1 POP JUMP JUMPDEST PUSH1 0x0 PUSH1 0x20 DUP3 ADD SWAP1 POP PUSH2 0xB14 PUSH1 0x0 DUP4 ADD DUP5 PUSH2 0xA4A JUMP JUMPDEST SWAP3 SWAP2 POP POP JUMP JUMPDEST PUSH1 0x0 PUSH1 0x60 DUP3 ADD SWAP1 POP PUSH2 0xB2F PUSH1 0x0 DUP4 ADD DUP7 PUSH2 0xA4A JUMP JUMPDEST DUP2 DUP2 SUB PUSH1 0x20 DUP4 ADD MSTORE PUSH2 0xB41 DUP2 DUP6 PUSH2 0x9CB JUMP JUMPDEST SWAP1 POP PUSH2 0xB50 PUSH1 0x40 DUP4 ADD DUP5 PUSH2 0xA4A JUMP JUMPDEST SWAP5 SWAP4 POP POP POP POP JUMP JUMPDEST PUSH1 0x0 PUSH2 0xB62 PUSH2 0xB73 JUMP JUMPDEST SWAP1 POP PUSH2 0xB6E DUP3 DUP3 PUSH2 0xC7A JUMP JUMPDEST SWAP2 SWAP1 POP JUMP JUMPDEST PUSH1 0x0 PUSH1 0x40 MLOAD SWAP1 POP SWAP1 JUMP JUMPDEST PUSH1 0x0 PUSH8 0xFFFFFFFFFFFFFFFF DUP3 GT ISZERO PUSH2 0xB98 JUMPI PUSH2 0xB97 PUSH2 0xD52 JUMP JUMPDEST JUMPDEST PUSH2 0xBA1 DUP3 PUSH2 0xD95 JUMP JUMPDEST SWAP1 POP PUSH1 0x20 DUP2 ADD SWAP1 POP SWAP2 SWAP1 POP JUMP JUMPDEST PUSH1 0x0 DUP2 MLOAD SWAP1 POP SWAP2 SWAP1 POP JUMP JUMPDEST PUSH1 0x0 DUP3 DUP3 MSTORE PUSH1 0x20 DUP3 ADD SWAP1 POP SWAP3 SWAP2 POP POP JUMP JUMPDEST PUSH1 0x0 PUSH2 0xBD5 DUP3 PUSH2 0xBDC JUMP JUMPDEST SWAP1 POP SWAP2 SWAP1 POP JUMP JUMPDEST PUSH1 0x0 PUSH20 0xFFFFFFFFFFFFFFFFFFFFFFFFFFFFFFFFFFFFFFFF DUP3 AND SWAP1 POP SWAP2 SWAP1 POP JUMP JUMPDEST PUSH1 0x0 DUP2 SWAP1 POP SWAP2 SWAP1 POP JUMP JUMPDEST DUP3 DUP2 DUP4 CALLDATACOPY PUSH1 0x0 DUP4 DUP4 ADD MSTORE POP POP POP JUMP JUMPDEST PUSH1 0x0 JUMPDEST DUP4 DUP2 LT ISZERO PUSH2 0xC33 JUMPI DUP1 DUP3 ADD MLOAD DUP2 DUP5 ADD MSTORE PUSH1 0x20 DUP2 ADD SWAP1 POP PUSH2 0xC18 JUMP JUMPDEST DUP4 DUP2 GT ISZERO PUSH2 0xC42 JUMPI PUSH1 0x0 DUP5 DUP5 ADD MSTORE JUMPDEST POP POP POP POP JUMP JUMPDEST PUSH1 0x0 PUSH1 0x2 DUP3 DIV SWAP1 POP PUSH1 0x1 DUP3 AND DUP1 PUSH2 0xC60 JUMPI PUSH1 0x7F DUP3 AND SWAP2 POP JUMPDEST PUSH1 0x20 DUP3 LT DUP2 EQ ISZERO PUSH2 0xC74 JUMPI PUSH2 0xC73 PUSH2 0xD23 JUMP JUMPDEST JUMPDEST POP SWAP2 SWAP1 POP JUMP JUMPDEST PUSH2 0xC83 DUP3 PUSH2 0xD95 JUMP JUMPDEST DUP2 ADD DUP2 DUP2 LT PUSH8 0xFFFFFFFFFFFFFFFF DUP3 GT OR ISZERO PUSH2 0xCA2 JUMPI PUSH2 0xCA1 PUSH2 0xD52 JUMP JUMPDEST JUMPDEST DUP1 PUSH1 0x40 MSTORE POP POP POP JUMP JUMPDEST PUSH1 0x0 PUSH2 0xCB6 DUP3 PUSH2 0xBFC JUMP JUMPDEST SWAP2 POP PUSH32 0xFFFFFFFFFFFFFFFFFFFFFFFFFFFFFFFFFFFFFFFFFFFFFFFFFFFFFFFFFFFFFFFF DUP3 EQ ISZERO PUSH2 0xCE9 JUMPI PUSH2 0xCE8 PUSH2 0xCF4 JUMP JUMPDEST JUMPDEST PUSH1 0x1 DUP3 ADD SWAP1 POP SWAP2 SWAP1 POP JUMP JUMPDEST PUSH32 0x4E487B7100000000000000000000000000000000000000000000000000000000 PUSH1 0x0 MSTORE PUSH1 0x11 PUSH1 0x4 MSTORE PUSH1 0x24 PUSH1 0x0 REVERT JUMPDEST PUSH32 0x4E487B7100000000000000000000000000000000000000000000000000000000 PUSH1 0x0 MSTORE PUSH1 0x22 PUSH1 0x4 MSTORE PUSH1 0x24 PUSH1 0x0 REVERT JUMPDEST PUSH32 0x4E487B7100000000000000000000000000000000000000000000000000000000 PUSH1 0x0 MSTORE PUSH1 0x41 PUSH1 0x4 MSTORE PUSH1 0x24 PUSH1 0x0 REVERT JUMPDEST PUSH1 0x0 DUP1 REVERT JUMPDEST PUSH1 0x0 DUP1 REVERT JUMPDEST PUSH1 0x0 DUP1 REVERT JUMPDEST PUSH1 0x0 DUP1 REVERT JUMPDEST PUSH1 0x0 PUSH1 0x1F NOT PUSH1 0x1F DUP4 ADD AND SWAP1 POP SWAP2 SWAP1 POP JUMP JUMPDEST PUSH32 0x596120746520656E6375656E74726173207265676973747261646F20656E2065 PUSH1 0x0 DUP3 ADD MSTORE PUSH32 0x6C2067796D000000000000000000000000000000000000000000000000000000 PUSH1 0x20 DUP3 ADD MSTORE POP JUMP JUMPDEST PUSH32 0x536F6C6F20656C2041646D696E6973747261646F722064656C2047796D207075 PUSH1 0x0 DUP3 ADD MSTORE PUSH32 0x65646520637265617220636C6173657300000000000000000000000000000000 PUSH1 0x20 DUP3 ADD MSTORE POP JUMP JUMPDEST PUSH2 0xE4D DUP2 PUSH2 0xBCA JUMP JUMPDEST DUP2 EQ PUSH2 0xE58 JUMPI PUSH1 0x0 DUP1 REVERT JUMPDEST POP JUMP JUMPDEST PUSH2 0xE64 DUP2 PUSH2 0xBFC JUMP JUMPDEST DUP2 EQ PUSH2 0xE6F JUMPI PUSH1 0x0 DUP1 REVERT JUMPDEST POP JUMP INVALID LOG2 PUSH5 0x6970667358 0x22 SLT KECCAK256 0xE2 CODESIZE 0xD5 CALLER SDIV CHAINID PUSH32 0x8F9CD7FFAD9E25EF0F5FBEBAF4913F9AE569F79AD4E1451C7A64736F6C634300 ADDMOD SMOD STOP CALLER "
				},
				"gasEstimates": {
					"creation": {
						"codeDepositCost": "750400",
						"executionCost": "infinite",
						"totalCost": "infinite"
					},
					"external": {
						"ADMIN()": "infinite",
						"clases(address,uint256)": "infinite",
						"class()": "infinite",
						"classCount(address)": "2836",
						"createClass(string,uint256)": "infinite",
						"getBalance()": "2689",
						"getClass()": "infinite",
						"register(address,uint256)": "infinite",
						"users(address)": "2858"
					}
				},
				"methodIdentifiers": {
					"ADMIN()": "2a0acc6a",
					"clases(address,uint256)": "f3bcaf59",
					"class()": "bff852fa",
					"classCount(address)": "78dea39d",
					"createClass(string,uint256)": "4852a212",
					"getBalance()": "12065fe0",
					"getClass()": "57e61ea4",
					"register(address,uint256)": "6d705ebb",
					"users(address)": "a87430ba"
				}
			},
			"storageLayout": {
				"storage": [
					{
						"astId": 37,
						"contract": "contracts/Gym_Contact.sol:gym",
						"label": "users",
						"offset": 0,
						"slot": "0",
						"type": "t_mapping(t_address,t_uint256)"
					},
					{
						"astId": 44,
						"contract": "contracts/Gym_Contact.sol:gym",
						"label": "clases",
						"offset": 0,
						"slot": "1",
						"type": "t_mapping(t_address,t_mapping(t_uint256,t_struct(Class)8_storage))"
					},
					{
						"astId": 48,
						"contract": "contracts/Gym_Contact.sol:gym",
						"label": "classCount",
						"offset": 0,
						"slot": "2",
						"type": "t_mapping(t_address,t_uint256)"
					},
					{
						"astId": 51,
						"contract": "contracts/Gym_Contact.sol:gym",
						"label": "class",
						"offset": 0,
						"slot": "3",
						"type": "t_struct(Class)8_storage"
					}
				],
				"types": {
					"t_address": {
						"encoding": "inplace",
						"label": "address",
						"numberOfBytes": "20"
					},
					"t_mapping(t_address,t_mapping(t_uint256,t_struct(Class)8_storage))": {
						"encoding": "mapping",
						"key": "t_address",
						"label": "mapping(address => mapping(uint256 => struct gym.Class))",
						"numberOfBytes": "32",
						"value": "t_mapping(t_uint256,t_struct(Class)8_storage)"
					},
					"t_mapping(t_address,t_uint256)": {
						"encoding": "mapping",
						"key": "t_address",
						"label": "mapping(address => uint256)",
						"numberOfBytes": "32",
						"value": "t_uint256"
					},
					"t_mapping(t_uint256,t_struct(Class)8_storage)": {
						"encoding": "mapping",
						"key": "t_uint256",
						"label": "mapping(uint256 => struct gym.Class)",
						"numberOfBytes": "32",
						"value": "t_struct(Class)8_storage"
					},
					"t_string_storage": {
						"encoding": "bytes",
						"label": "string",
						"numberOfBytes": "32"
					},
					"t_struct(Class)8_storage": {
						"encoding": "inplace",
						"label": "struct gym.Class",
						"members": [
							{
								"astId": 3,
								"contract": "contracts/Gym_Contact.sol:gym",
								"label": "id",
								"offset": 0,
								"slot": "0",
								"type": "t_uint256"
							},
							{
								"astId": 5,
								"contract": "contracts/Gym_Contact.sol:gym",
								"label": "name",
								"offset": 0,
								"slot": "1",
								"type": "t_string_storage"
							},
							{
								"astId": 7,
								"contract": "contracts/Gym_Contact.sol:gym",
								"label": "value",
								"offset": 0,
								"slot": "2",
								"type": "t_uint256"
							}
						],
						"numberOfBytes": "96"
					},
					"t_uint256": {
						"encoding": "inplace",
						"label": "uint256",
						"numberOfBytes": "32"
					}
				}
			},
			"userdoc": {
				"kind": "user",
				"methods": {},
				"version": 1
			}
		}
	}
}