{
	"contracts/Gym_Contact.sol": {
		"gym": {
			"abi": [
				{
					"inputs": [],
					"stateMutability": "nonpayable",
					"type": "constructor"
				},
				{
					"anonymous": false,
					"inputs": [
						{
							"indexed": false,
							"internalType": "string",
							"name": "name",
							"type": "string"
						},
						{
							"indexed": false,
							"internalType": "uint256",
							"name": "value",
							"type": "uint256"
						}
					],
					"name": "ClassCreated",
					"type": "event"
				},
				{
					"anonymous": false,
					"inputs": [
						{
							"indexed": false,
							"internalType": "address",
							"name": "user",
							"type": "address"
						},
						{
							"indexed": false,
							"internalType": "uint256",
							"name": "credits",
							"type": "uint256"
						}
					],
					"name": "Register",
					"type": "event"
				},
				{
					"inputs": [],
					"name": "ADMIN",
					"outputs": [
						{
							"internalType": "address",
							"name": "",
							"type": "address"
						}
					],
					"stateMutability": "view",
					"type": "function"
				},
				{
					"inputs": [
						{
							"internalType": "address",
							"name": "",
							"type": "address"
						}
					],
					"name": "clases",
					"outputs": [
						{
							"internalType": "string",
							"name": "name",
							"type": "string"
						},
						{
							"internalType": "uint256",
							"name": "value",
							"type": "uint256"
						}
					],
					"stateMutability": "view",
					"type": "function"
				},
				{
					"inputs": [
						{
							"internalType": "string",
							"name": "_name",
							"type": "string"
						},
						{
							"internalType": "uint256",
							"name": "_value",
							"type": "uint256"
						}
					],
					"name": "createClass",
					"outputs": [],
					"stateMutability": "nonpayable",
					"type": "function"
				},
				{
					"inputs": [],
					"name": "getBalance",
					"outputs": [
						{
							"internalType": "address",
							"name": "",
							"type": "address"
						},
						{
							"internalType": "uint256",
							"name": "",
							"type": "uint256"
						}
					],
					"stateMutability": "view",
					"type": "function"
				},
				{
					"inputs": [
						{
							"internalType": "address",
							"name": "_address",
							"type": "address"
						},
						{
							"internalType": "uint256",
							"name": "_credits",
							"type": "uint256"
						}
					],
					"name": "register",
					"outputs": [],
					"stateMutability": "nonpayable",
					"type": "function"
				},
				{
					"inputs": [
						{
							"internalType": "address",
							"name": "",
							"type": "address"
						}
					],
					"name": "users",
					"outputs": [
						{
							"internalType": "uint256",
							"name": "",
							"type": "uint256"
						}
					],
					"stateMutability": "view",
					"type": "function"
				}
			],
			"devdoc": {
				"kind": "dev",
				"methods": {},
				"version": 1
			},
			"evm": {
				"assembly": "    /* \"contracts/Gym_Contact.sol\":70:1470  contract gym {\r... */\n  mstore(0x40, 0xa0)\n    /* \"contracts/Gym_Contact.sol\":389:440  constructor() {\r... */\n  callvalue\n  dup1\n  iszero\n  tag_1\n  jumpi\n  0x00\n  dup1\n  revert\ntag_1:\n  pop\n    /* \"contracts/Gym_Contact.sol\":422:432  msg.sender */\n  caller\n    /* \"contracts/Gym_Contact.sol\":414:432  ADMIN = msg.sender */\n  0xffffffffffffffffffffffffffffffffffffffff\n  and\n  0x80\n  dup2\n  0xffffffffffffffffffffffffffffffffffffffff\n  and\n  0x60\n  shl\n  dup2\n  mstore\n  pop\n  pop\n    /* \"contracts/Gym_Contact.sol\":70:1470  contract gym {\r... */\n  shr(0x60, mload(0x80))\n  codecopy(0x00, dataOffset(sub_0), dataSize(sub_0))\n  0x00\n  assignImmutable(\"0x731dc163f73d31d8c68f9917ce4ff967753939f70432973c04fd2c2a48148607\")\n  return(0x00, dataSize(sub_0))\nstop\n\nsub_0: assembly {\n        /* \"contracts/Gym_Contact.sol\":70:1470  contract gym {\r... */\n      mstore(0x40, 0x80)\n      callvalue\n      dup1\n      iszero\n      tag_1\n      jumpi\n      0x00\n      dup1\n      revert\n    tag_1:\n      pop\n      jumpi(tag_2, lt(calldatasize, 0x04))\n      shr(0xe0, calldataload(0x00))\n      dup1\n      0x12065fe0\n      eq\n      tag_3\n      jumpi\n      dup1\n      0x2a0acc6a\n      eq\n      tag_4\n      jumpi\n      dup1\n      0x3db99f9e\n      eq\n      tag_5\n      jumpi\n      dup1\n      0x4852a212\n      eq\n      tag_6\n      jumpi\n      dup1\n      0x6d705ebb\n      eq\n      tag_7\n      jumpi\n      dup1\n      0xa87430ba\n      eq\n      tag_8\n      jumpi\n    tag_2:\n      0x00\n      dup1\n      revert\n        /* \"contracts/Gym_Contact.sol\":1354:1467  function getBalance() public view returns(address, uint){\r... */\n    tag_3:\n      tag_9\n      tag_10\n      jump\t// in\n    tag_9:\n      mload(0x40)\n      tag_11\n      swap3\n      swap2\n      swap1\n      tag_12\n      jump\t// in\n    tag_11:\n      mload(0x40)\n      dup1\n      swap2\n      sub\n      swap1\n      return\n        /* \"contracts/Gym_Contact.sol\":350:380  address immutable public ADMIN */\n    tag_4:\n      tag_13\n      tag_14\n      jump\t// in\n    tag_13:\n      mload(0x40)\n      tag_15\n      swap2\n      swap1\n      tag_16\n      jump\t// in\n    tag_15:\n      mload(0x40)\n      dup1\n      swap2\n      sub\n      swap1\n      return\n        /* \"contracts/Gym_Contact.sol\":555:595  mapping(address => Class ) public clases */\n    tag_5:\n      tag_17\n      0x04\n      dup1\n      calldatasize\n      sub\n      dup2\n      add\n      swap1\n      tag_18\n      swap2\n      swap1\n      tag_19\n      jump\t// in\n    tag_18:\n      tag_20\n      jump\t// in\n    tag_17:\n      mload(0x40)\n      tag_21\n      swap3\n      swap2\n      swap1\n      tag_22\n      jump\t// in\n    tag_21:\n      mload(0x40)\n      dup1\n      swap2\n      sub\n      swap1\n      return\n        /* \"contracts/Gym_Contact.sol\":679:922  function createClass(string memory _name, uint _value) public {\r... */\n    tag_6:\n      tag_23\n      0x04\n      dup1\n      calldatasize\n      sub\n      dup2\n      add\n      swap1\n      tag_24\n      swap2\n      swap1\n      tag_25\n      jump\t// in\n    tag_24:\n      tag_26\n      jump\t// in\n    tag_23:\n      stop\n        /* \"contracts/Gym_Contact.sol\":960:1346  function register(address _address, uint _credits) public {\r... */\n    tag_7:\n      tag_27\n      0x04\n      dup1\n      calldatasize\n      sub\n      dup2\n      add\n      swap1\n      tag_28\n      swap2\n      swap1\n      tag_29\n      jump\t// in\n    tag_28:\n      tag_30\n      jump\t// in\n    tag_27:\n      stop\n        /* \"contracts/Gym_Contact.sol\":464:501  mapping(address => uint) public users */\n    tag_8:\n      tag_31\n      0x04\n      dup1\n      calldatasize\n      sub\n      dup2\n      add\n      swap1\n      tag_32\n      swap2\n      swap1\n      tag_19\n      jump\t// in\n    tag_32:\n      tag_33\n      jump\t// in\n    tag_31:\n      mload(0x40)\n      tag_34\n      swap2\n      swap1\n      tag_35\n      jump\t// in\n    tag_34:\n      mload(0x40)\n      dup1\n      swap2\n      sub\n      swap1\n      return\n        /* \"contracts/Gym_Contact.sol\":1354:1467  function getBalance() public view returns(address, uint){\r... */\n    tag_10:\n        /* \"contracts/Gym_Contact.sol\":1396:1403  address */\n      0x00\n        /* \"contracts/Gym_Contact.sol\":1405:1409  uint */\n      dup1\n        /* \"contracts/Gym_Contact.sol\":1429:1439  msg.sender */\n      caller\n        /* \"contracts/Gym_Contact.sol\":1441:1446  users */\n      0x00\n        /* \"contracts/Gym_Contact.sol\":1441:1458  users[msg.sender] */\n      dup1\n        /* \"contracts/Gym_Contact.sol\":1447:1457  msg.sender */\n      caller\n        /* \"contracts/Gym_Contact.sol\":1441:1458  users[msg.sender] */\n      0xffffffffffffffffffffffffffffffffffffffff\n      and\n      0xffffffffffffffffffffffffffffffffffffffff\n      and\n      dup2\n      mstore\n      0x20\n      add\n      swap1\n      dup2\n      mstore\n      0x20\n      add\n      0x00\n      keccak256\n      sload\n        /* \"contracts/Gym_Contact.sol\":1421:1459  return (msg.sender, users[msg.sender]) */\n      swap2\n      pop\n      swap2\n      pop\n        /* \"contracts/Gym_Contact.sol\":1354:1467  function getBalance() public view returns(address, uint){\r... */\n      swap1\n      swap2\n      jump\t// out\n        /* \"contracts/Gym_Contact.sol\":350:380  address immutable public ADMIN */\n    tag_14:\n      immutable(\"0x731dc163f73d31d8c68f9917ce4ff967753939f70432973c04fd2c2a48148607\")\n      dup2\n      jump\t// out\n        /* \"contracts/Gym_Contact.sol\":555:595  mapping(address => Class ) public clases */\n    tag_20:\n      mstore(0x20, 0x01)\n      dup1\n      0x00\n      mstore\n      keccak256(0x00, 0x40)\n      0x00\n      swap2\n      pop\n      swap1\n      pop\n      dup1\n      0x00\n      add\n      dup1\n      sload\n      tag_37\n      swap1\n      tag_38\n      jump\t// in\n    tag_37:\n      dup1\n      0x1f\n      add\n      0x20\n      dup1\n      swap2\n      div\n      mul\n      0x20\n      add\n      mload(0x40)\n      swap1\n      dup2\n      add\n      0x40\n      mstore\n      dup1\n      swap3\n      swap2\n      swap1\n      dup2\n      dup2\n      mstore\n      0x20\n      add\n      dup3\n      dup1\n      sload\n      tag_39\n      swap1\n      tag_38\n      jump\t// in\n    tag_39:\n      dup1\n      iszero\n      tag_40\n      jumpi\n      dup1\n      0x1f\n      lt\n      tag_41\n      jumpi\n      0x0100\n      dup1\n      dup4\n      sload\n      div\n      mul\n      dup4\n      mstore\n      swap2\n      0x20\n      add\n      swap2\n      jump(tag_40)\n    tag_41:\n      dup3\n      add\n      swap2\n      swap1\n      0x00\n      mstore\n      keccak256(0x00, 0x20)\n      swap1\n    tag_42:\n      dup2\n      sload\n      dup2\n      mstore\n      swap1\n      0x01\n      add\n      swap1\n      0x20\n      add\n      dup1\n      dup4\n      gt\n      tag_42\n      jumpi\n      dup3\n      swap1\n      sub\n      0x1f\n      and\n      dup3\n      add\n      swap2\n    tag_40:\n      pop\n      pop\n      pop\n      pop\n      pop\n      swap1\n      dup1\n      0x01\n      add\n      sload\n      swap1\n      pop\n      dup3\n      jump\t// out\n        /* \"contracts/Gym_Contact.sol\":679:922  function createClass(string memory _name, uint _value) public {\r... */\n    tag_26:\n        /* \"contracts/Gym_Contact.sol\":769:779  msg.sender */\n      caller\n        /* \"contracts/Gym_Contact.sol\":760:779  ADMIN == msg.sender */\n      0xffffffffffffffffffffffffffffffffffffffff\n      and\n        /* \"contracts/Gym_Contact.sol\":760:765  ADMIN */\n      immutable(\"0x731dc163f73d31d8c68f9917ce4ff967753939f70432973c04fd2c2a48148607\")\n        /* \"contracts/Gym_Contact.sol\":760:779  ADMIN == msg.sender */\n      0xffffffffffffffffffffffffffffffffffffffff\n      and\n      eq\n        /* \"contracts/Gym_Contact.sol\":752:832  require(ADMIN == msg.sender, \"Solo el Administrador del Gym puede crear clases\") */\n      tag_44\n      jumpi\n      mload(0x40)\n      0x08c379a000000000000000000000000000000000000000000000000000000000\n      dup2\n      mstore\n      0x04\n      add\n      tag_45\n      swap1\n      tag_46\n      jump\t// in\n    tag_45:\n      mload(0x40)\n      dup1\n      swap2\n      sub\n      swap1\n      revert\n    tag_44:\n        /* \"contracts/Gym_Contact.sol\":848:875  ClassCreated(_name, _value) */\n      0x14d49e3ea4f348b7f368906dfe1a63055c7822d622a61672a35a55ae97a768f9\n        /* \"contracts/Gym_Contact.sol\":861:866  _name */\n      dup3\n        /* \"contracts/Gym_Contact.sol\":868:874  _value */\n      dup3\n        /* \"contracts/Gym_Contact.sol\":848:875  ClassCreated(_name, _value) */\n      mload(0x40)\n      tag_47\n      swap3\n      swap2\n      swap1\n      tag_22\n      jump\t// in\n    tag_47:\n      mload(0x40)\n      dup1\n      swap2\n      sub\n      swap1\n      log1\n        /* \"contracts/Gym_Contact.sol\":679:922  function createClass(string memory _name, uint _value) public {\r... */\n      pop\n      pop\n      jump\t// out\n        /* \"contracts/Gym_Contact.sol\":960:1346  function register(address _address, uint _credits) public {\r... */\n    tag_30:\n        /* \"contracts/Gym_Contact.sol\":1161:1162  0 */\n      0x00\n        /* \"contracts/Gym_Contact.sol\":1140:1145  users */\n      dup1\n        /* \"contracts/Gym_Contact.sol\":1140:1157  users[msg.sender] */\n      0x00\n        /* \"contracts/Gym_Contact.sol\":1146:1156  msg.sender */\n      caller\n        /* \"contracts/Gym_Contact.sol\":1140:1157  users[msg.sender] */\n      0xffffffffffffffffffffffffffffffffffffffff\n      and\n      0xffffffffffffffffffffffffffffffffffffffff\n      and\n      dup2\n      mstore\n      0x20\n      add\n      swap1\n      dup2\n      mstore\n      0x20\n      add\n      0x00\n      keccak256\n      sload\n        /* \"contracts/Gym_Contact.sol\":1140:1162  users[msg.sender] == 0 */\n      eq\n        /* \"contracts/Gym_Contact.sol\":1132:1204  require(users[msg.sender] == 0, \"Ya te encuentras registrado en el gym\") */\n      tag_49\n      jumpi\n      mload(0x40)\n      0x08c379a000000000000000000000000000000000000000000000000000000000\n      dup2\n      mstore\n      0x04\n      add\n      tag_50\n      swap1\n      tag_51\n      jump\t// in\n    tag_50:\n      mload(0x40)\n      dup1\n      swap2\n      sub\n      swap1\n      revert\n    tag_49:\n        /* \"contracts/Gym_Contact.sol\":1235:1243  _credits */\n      dup1\n        /* \"contracts/Gym_Contact.sol\":1215:1220  users */\n      0x00\n        /* \"contracts/Gym_Contact.sol\":1215:1232  users[msg.sender] */\n      dup1\n        /* \"contracts/Gym_Contact.sol\":1221:1231  msg.sender */\n      caller\n        /* \"contracts/Gym_Contact.sol\":1215:1232  users[msg.sender] */\n      0xffffffffffffffffffffffffffffffffffffffff\n      and\n      0xffffffffffffffffffffffffffffffffffffffff\n      and\n      dup2\n      mstore\n      0x20\n      add\n      swap1\n      dup2\n      mstore\n      0x20\n      add\n      0x00\n      keccak256\n        /* \"contracts/Gym_Contact.sol\":1215:1243  users[msg.sender] = _credits */\n      dup2\n      swap1\n      sstore\n      pop\n        /* \"contracts/Gym_Contact.sol\":1259:1287  Register(_address, _credits) */\n      0x7dc6ab80cc84c043b7b8d4fcafc802187470087f7ea7fccd2e17aecd0256a1\n        /* \"contracts/Gym_Contact.sol\":1268:1276  _address */\n      dup3\n        /* \"contracts/Gym_Contact.sol\":1278:1286  _credits */\n      dup3\n        /* \"contracts/Gym_Contact.sol\":1259:1287  Register(_address, _credits) */\n      mload(0x40)\n      tag_52\n      swap3\n      swap2\n      swap1\n      tag_12\n      jump\t// in\n    tag_52:\n      mload(0x40)\n      dup1\n      swap2\n      sub\n      swap1\n      log1\n        /* \"contracts/Gym_Contact.sol\":960:1346  function register(address _address, uint _credits) public {\r... */\n      pop\n      pop\n      jump\t// out\n        /* \"contracts/Gym_Contact.sol\":464:501  mapping(address => uint) public users */\n    tag_33:\n      mstore(0x20, 0x00)\n      dup1\n      0x00\n      mstore\n      keccak256(0x00, 0x40)\n      0x00\n      swap2\n      pop\n      swap1\n      pop\n      sload\n      dup2\n      jump\t// out\n        /* \"#utility.yul\":7:419   */\n    tag_54:\n        /* \"#utility.yul\":85:90   */\n      0x00\n        /* \"#utility.yul\":110:176   */\n      tag_56\n        /* \"#utility.yul\":126:175   */\n      tag_57\n        /* \"#utility.yul\":168:174   */\n      dup5\n        /* \"#utility.yul\":126:175   */\n      tag_58\n      jump\t// in\n    tag_57:\n        /* \"#utility.yul\":110:176   */\n      tag_59\n      jump\t// in\n    tag_56:\n        /* \"#utility.yul\":101:176   */\n      swap1\n      pop\n        /* \"#utility.yul\":199:205   */\n      dup3\n        /* \"#utility.yul\":192:197   */\n      dup2\n        /* \"#utility.yul\":185:206   */\n      mstore\n        /* \"#utility.yul\":237:241   */\n      0x20\n        /* \"#utility.yul\":230:235   */\n      dup2\n        /* \"#utility.yul\":226:242   */\n      add\n        /* \"#utility.yul\":275:278   */\n      dup5\n        /* \"#utility.yul\":266:272   */\n      dup5\n        /* \"#utility.yul\":261:264   */\n      dup5\n        /* \"#utility.yul\":257:273   */\n      add\n        /* \"#utility.yul\":254:279   */\n      gt\n        /* \"#utility.yul\":251:363   */\n      iszero\n      tag_60\n      jumpi\n        /* \"#utility.yul\":282:361   */\n      tag_61\n      tag_62\n      jump\t// in\n    tag_61:\n        /* \"#utility.yul\":251:363   */\n    tag_60:\n        /* \"#utility.yul\":372:413   */\n      tag_63\n        /* \"#utility.yul\":406:412   */\n      dup5\n        /* \"#utility.yul\":401:404   */\n      dup3\n        /* \"#utility.yul\":396:399   */\n      dup6\n        /* \"#utility.yul\":372:413   */\n      tag_64\n      jump\t// in\n    tag_63:\n        /* \"#utility.yul\":91:419   */\n      pop\n        /* \"#utility.yul\":7:419   */\n      swap4\n      swap3\n      pop\n      pop\n      pop\n      jump\t// out\n        /* \"#utility.yul\":425:564   */\n    tag_65:\n        /* \"#utility.yul\":471:476   */\n      0x00\n        /* \"#utility.yul\":509:515   */\n      dup2\n        /* \"#utility.yul\":496:516   */\n      calldataload\n        /* \"#utility.yul\":487:516   */\n      swap1\n      pop\n        /* \"#utility.yul\":525:558   */\n      tag_67\n        /* \"#utility.yul\":552:557   */\n      dup2\n        /* \"#utility.yul\":525:558   */\n      tag_68\n      jump\t// in\n    tag_67:\n        /* \"#utility.yul\":425:564   */\n      swap3\n      swap2\n      pop\n      pop\n      jump\t// out\n        /* \"#utility.yul\":584:924   */\n    tag_69:\n        /* \"#utility.yul\":640:645   */\n      0x00\n        /* \"#utility.yul\":689:692   */\n      dup3\n        /* \"#utility.yul\":682:686   */\n      0x1f\n        /* \"#utility.yul\":674:680   */\n      dup4\n        /* \"#utility.yul\":670:687   */\n      add\n        /* \"#utility.yul\":666:693   */\n      slt\n        /* \"#utility.yul\":656:778   */\n      tag_71\n      jumpi\n        /* \"#utility.yul\":697:776   */\n      tag_72\n      tag_73\n      jump\t// in\n    tag_72:\n        /* \"#utility.yul\":656:778   */\n    tag_71:\n        /* \"#utility.yul\":814:820   */\n      dup2\n        /* \"#utility.yul\":801:821   */\n      calldataload\n        /* \"#utility.yul\":839:918   */\n      tag_74\n        /* \"#utility.yul\":914:917   */\n      dup5\n        /* \"#utility.yul\":906:912   */\n      dup3\n        /* \"#utility.yul\":899:903   */\n      0x20\n        /* \"#utility.yul\":891:897   */\n      dup7\n        /* \"#utility.yul\":887:904   */\n      add\n        /* \"#utility.yul\":839:918   */\n      tag_54\n      jump\t// in\n    tag_74:\n        /* \"#utility.yul\":830:918   */\n      swap2\n      pop\n        /* \"#utility.yul\":646:924   */\n      pop\n        /* \"#utility.yul\":584:924   */\n      swap3\n      swap2\n      pop\n      pop\n      jump\t// out\n        /* \"#utility.yul\":930:1069   */\n    tag_75:\n        /* \"#utility.yul\":976:981   */\n      0x00\n        /* \"#utility.yul\":1014:1020   */\n      dup2\n        /* \"#utility.yul\":1001:1021   */\n      calldataload\n        /* \"#utility.yul\":992:1021   */\n      swap1\n      pop\n        /* \"#utility.yul\":1030:1063   */\n      tag_77\n        /* \"#utility.yul\":1057:1062   */\n      dup2\n        /* \"#utility.yul\":1030:1063   */\n      tag_78\n      jump\t// in\n    tag_77:\n        /* \"#utility.yul\":930:1069   */\n      swap3\n      swap2\n      pop\n      pop\n      jump\t// out\n        /* \"#utility.yul\":1075:1404   */\n    tag_19:\n        /* \"#utility.yul\":1134:1140   */\n      0x00\n        /* \"#utility.yul\":1183:1185   */\n      0x20\n        /* \"#utility.yul\":1171:1180   */\n      dup3\n        /* \"#utility.yul\":1162:1169   */\n      dup5\n        /* \"#utility.yul\":1158:1181   */\n      sub\n        /* \"#utility.yul\":1154:1186   */\n      slt\n        /* \"#utility.yul\":1151:1270   */\n      iszero\n      tag_80\n      jumpi\n        /* \"#utility.yul\":1189:1268   */\n      tag_81\n      tag_82\n      jump\t// in\n    tag_81:\n        /* \"#utility.yul\":1151:1270   */\n    tag_80:\n        /* \"#utility.yul\":1309:1310   */\n      0x00\n        /* \"#utility.yul\":1334:1387   */\n      tag_83\n        /* \"#utility.yul\":1379:1386   */\n      dup5\n        /* \"#utility.yul\":1370:1376   */\n      dup3\n        /* \"#utility.yul\":1359:1368   */\n      dup6\n        /* \"#utility.yul\":1355:1377   */\n      add\n        /* \"#utility.yul\":1334:1387   */\n      tag_65\n      jump\t// in\n    tag_83:\n        /* \"#utility.yul\":1324:1387   */\n      swap2\n      pop\n        /* \"#utility.yul\":1280:1397   */\n      pop\n        /* \"#utility.yul\":1075:1404   */\n      swap3\n      swap2\n      pop\n      pop\n      jump\t// out\n        /* \"#utility.yul\":1410:1884   */\n    tag_29:\n        /* \"#utility.yul\":1478:1484   */\n      0x00\n        /* \"#utility.yul\":1486:1492   */\n      dup1\n        /* \"#utility.yul\":1535:1537   */\n      0x40\n        /* \"#utility.yul\":1523:1532   */\n      dup4\n        /* \"#utility.yul\":1514:1521   */\n      dup6\n        /* \"#utility.yul\":1510:1533   */\n      sub\n        /* \"#utility.yul\":1506:1538   */\n      slt\n        /* \"#utility.yul\":1503:1622   */\n      iszero\n      tag_85\n      jumpi\n        /* \"#utility.yul\":1541:1620   */\n      tag_86\n      tag_82\n      jump\t// in\n    tag_86:\n        /* \"#utility.yul\":1503:1622   */\n    tag_85:\n        /* \"#utility.yul\":1661:1662   */\n      0x00\n        /* \"#utility.yul\":1686:1739   */\n      tag_87\n        /* \"#utility.yul\":1731:1738   */\n      dup6\n        /* \"#utility.yul\":1722:1728   */\n      dup3\n        /* \"#utility.yul\":1711:1720   */\n      dup7\n        /* \"#utility.yul\":1707:1729   */\n      add\n        /* \"#utility.yul\":1686:1739   */\n      tag_65\n      jump\t// in\n    tag_87:\n        /* \"#utility.yul\":1676:1739   */\n      swap3\n      pop\n        /* \"#utility.yul\":1632:1749   */\n      pop\n        /* \"#utility.yul\":1788:1790   */\n      0x20\n        /* \"#utility.yul\":1814:1867   */\n      tag_88\n        /* \"#utility.yul\":1859:1866   */\n      dup6\n        /* \"#utility.yul\":1850:1856   */\n      dup3\n        /* \"#utility.yul\":1839:1848   */\n      dup7\n        /* \"#utility.yul\":1835:1857   */\n      add\n        /* \"#utility.yul\":1814:1867   */\n      tag_75\n      jump\t// in\n    tag_88:\n        /* \"#utility.yul\":1804:1867   */\n      swap2\n      pop\n        /* \"#utility.yul\":1759:1877   */\n      pop\n        /* \"#utility.yul\":1410:1884   */\n      swap3\n      pop\n      swap3\n      swap1\n      pop\n      jump\t// out\n        /* \"#utility.yul\":1890:2544   */\n    tag_25:\n        /* \"#utility.yul\":1968:1974   */\n      0x00\n        /* \"#utility.yul\":1976:1982   */\n      dup1\n        /* \"#utility.yul\":2025:2027   */\n      0x40\n        /* \"#utility.yul\":2013:2022   */\n      dup4\n        /* \"#utility.yul\":2004:2011   */\n      dup6\n        /* \"#utility.yul\":2000:2023   */\n      sub\n        /* \"#utility.yul\":1996:2028   */\n      slt\n        /* \"#utility.yul\":1993:2112   */\n      iszero\n      tag_90\n      jumpi\n        /* \"#utility.yul\":2031:2110   */\n      tag_91\n      tag_82\n      jump\t// in\n    tag_91:\n        /* \"#utility.yul\":1993:2112   */\n    tag_90:\n        /* \"#utility.yul\":2179:2180   */\n      0x00\n        /* \"#utility.yul\":2168:2177   */\n      dup4\n        /* \"#utility.yul\":2164:2181   */\n      add\n        /* \"#utility.yul\":2151:2182   */\n      calldataload\n        /* \"#utility.yul\":2209:2227   */\n      0xffffffffffffffff\n        /* \"#utility.yul\":2201:2207   */\n      dup2\n        /* \"#utility.yul\":2198:2228   */\n      gt\n        /* \"#utility.yul\":2195:2312   */\n      iszero\n      tag_92\n      jumpi\n        /* \"#utility.yul\":2231:2310   */\n      tag_93\n      tag_94\n      jump\t// in\n    tag_93:\n        /* \"#utility.yul\":2195:2312   */\n    tag_92:\n        /* \"#utility.yul\":2336:2399   */\n      tag_95\n        /* \"#utility.yul\":2391:2398   */\n      dup6\n        /* \"#utility.yul\":2382:2388   */\n      dup3\n        /* \"#utility.yul\":2371:2380   */\n      dup7\n        /* \"#utility.yul\":2367:2389   */\n      add\n        /* \"#utility.yul\":2336:2399   */\n      tag_69\n      jump\t// in\n    tag_95:\n        /* \"#utility.yul\":2326:2399   */\n      swap3\n      pop\n        /* \"#utility.yul\":2122:2409   */\n      pop\n        /* \"#utility.yul\":2448:2450   */\n      0x20\n        /* \"#utility.yul\":2474:2527   */\n      tag_96\n        /* \"#utility.yul\":2519:2526   */\n      dup6\n        /* \"#utility.yul\":2510:2516   */\n      dup3\n        /* \"#utility.yul\":2499:2508   */\n      dup7\n        /* \"#utility.yul\":2495:2517   */\n      add\n        /* \"#utility.yul\":2474:2527   */\n      tag_75\n      jump\t// in\n    tag_96:\n        /* \"#utility.yul\":2464:2527   */\n      swap2\n      pop\n        /* \"#utility.yul\":2419:2537   */\n      pop\n        /* \"#utility.yul\":1890:2544   */\n      swap3\n      pop\n      swap3\n      swap1\n      pop\n      jump\t// out\n        /* \"#utility.yul\":2550:2668   */\n    tag_97:\n        /* \"#utility.yul\":2637:2661   */\n      tag_99\n        /* \"#utility.yul\":2655:2660   */\n      dup2\n        /* \"#utility.yul\":2637:2661   */\n      tag_100\n      jump\t// in\n    tag_99:\n        /* \"#utility.yul\":2632:2635   */\n      dup3\n        /* \"#utility.yul\":2625:2662   */\n      mstore\n        /* \"#utility.yul\":2550:2668   */\n      pop\n      pop\n      jump\t// out\n        /* \"#utility.yul\":2674:3038   */\n    tag_101:\n        /* \"#utility.yul\":2762:2765   */\n      0x00\n        /* \"#utility.yul\":2790:2829   */\n      tag_103\n        /* \"#utility.yul\":2823:2828   */\n      dup3\n        /* \"#utility.yul\":2790:2829   */\n      tag_104\n      jump\t// in\n    tag_103:\n        /* \"#utility.yul\":2845:2916   */\n      tag_105\n        /* \"#utility.yul\":2909:2915   */\n      dup2\n        /* \"#utility.yul\":2904:2907   */\n      dup6\n        /* \"#utility.yul\":2845:2916   */\n      tag_106\n      jump\t// in\n    tag_105:\n        /* \"#utility.yul\":2838:2916   */\n      swap4\n      pop\n        /* \"#utility.yul\":2925:2977   */\n      tag_107\n        /* \"#utility.yul\":2970:2976   */\n      dup2\n        /* \"#utility.yul\":2965:2968   */\n      dup6\n        /* \"#utility.yul\":2958:2962   */\n      0x20\n        /* \"#utility.yul\":2951:2956   */\n      dup7\n        /* \"#utility.yul\":2947:2963   */\n      add\n        /* \"#utility.yul\":2925:2977   */\n      tag_108\n      jump\t// in\n    tag_107:\n        /* \"#utility.yul\":3002:3031   */\n      tag_109\n        /* \"#utility.yul\":3024:3030   */\n      dup2\n        /* \"#utility.yul\":3002:3031   */\n      tag_110\n      jump\t// in\n    tag_109:\n        /* \"#utility.yul\":2997:3000   */\n      dup5\n        /* \"#utility.yul\":2993:3032   */\n      add\n        /* \"#utility.yul\":2986:3032   */\n      swap2\n      pop\n        /* \"#utility.yul\":2766:3038   */\n      pop\n        /* \"#utility.yul\":2674:3038   */\n      swap3\n      swap2\n      pop\n      pop\n      jump\t// out\n        /* \"#utility.yul\":3044:3410   */\n    tag_111:\n        /* \"#utility.yul\":3186:3189   */\n      0x00\n        /* \"#utility.yul\":3207:3274   */\n      tag_113\n        /* \"#utility.yul\":3271:3273   */\n      0x25\n        /* \"#utility.yul\":3266:3269   */\n      dup4\n        /* \"#utility.yul\":3207:3274   */\n      tag_106\n      jump\t// in\n    tag_113:\n        /* \"#utility.yul\":3200:3274   */\n      swap2\n      pop\n        /* \"#utility.yul\":3283:3376   */\n      tag_114\n        /* \"#utility.yul\":3372:3375   */\n      dup3\n        /* \"#utility.yul\":3283:3376   */\n      tag_115\n      jump\t// in\n    tag_114:\n        /* \"#utility.yul\":3401:3403   */\n      0x40\n        /* \"#utility.yul\":3396:3399   */\n      dup3\n        /* \"#utility.yul\":3392:3404   */\n      add\n        /* \"#utility.yul\":3385:3404   */\n      swap1\n      pop\n        /* \"#utility.yul\":3044:3410   */\n      swap2\n      swap1\n      pop\n      jump\t// out\n        /* \"#utility.yul\":3416:3782   */\n    tag_116:\n        /* \"#utility.yul\":3558:3561   */\n      0x00\n        /* \"#utility.yul\":3579:3646   */\n      tag_118\n        /* \"#utility.yul\":3643:3645   */\n      0x30\n        /* \"#utility.yul\":3638:3641   */\n      dup4\n        /* \"#utility.yul\":3579:3646   */\n      tag_106\n      jump\t// in\n    tag_118:\n        /* \"#utility.yul\":3572:3646   */\n      swap2\n      pop\n        /* \"#utility.yul\":3655:3748   */\n      tag_119\n        /* \"#utility.yul\":3744:3747   */\n      dup3\n        /* \"#utility.yul\":3655:3748   */\n      tag_120\n      jump\t// in\n    tag_119:\n        /* \"#utility.yul\":3773:3775   */\n      0x40\n        /* \"#utility.yul\":3768:3771   */\n      dup3\n        /* \"#utility.yul\":3764:3776   */\n      add\n        /* \"#utility.yul\":3757:3776   */\n      swap1\n      pop\n        /* \"#utility.yul\":3416:3782   */\n      swap2\n      swap1\n      pop\n      jump\t// out\n        /* \"#utility.yul\":3788:3906   */\n    tag_121:\n        /* \"#utility.yul\":3875:3899   */\n      tag_123\n        /* \"#utility.yul\":3893:3898   */\n      dup2\n        /* \"#utility.yul\":3875:3899   */\n      tag_124\n      jump\t// in\n    tag_123:\n        /* \"#utility.yul\":3870:3873   */\n      dup3\n        /* \"#utility.yul\":3863:3900   */\n      mstore\n        /* \"#utility.yul\":3788:3906   */\n      pop\n      pop\n      jump\t// out\n        /* \"#utility.yul\":3912:4134   */\n    tag_16:\n        /* \"#utility.yul\":4005:4009   */\n      0x00\n        /* \"#utility.yul\":4043:4045   */\n      0x20\n        /* \"#utility.yul\":4032:4041   */\n      dup3\n        /* \"#utility.yul\":4028:4046   */\n      add\n        /* \"#utility.yul\":4020:4046   */\n      swap1\n      pop\n        /* \"#utility.yul\":4056:4127   */\n      tag_126\n        /* \"#utility.yul\":4124:4125   */\n      0x00\n        /* \"#utility.yul\":4113:4122   */\n      dup4\n        /* \"#utility.yul\":4109:4126   */\n      add\n        /* \"#utility.yul\":4100:4106   */\n      dup5\n        /* \"#utility.yul\":4056:4127   */\n      tag_97\n      jump\t// in\n    tag_126:\n        /* \"#utility.yul\":3912:4134   */\n      swap3\n      swap2\n      pop\n      pop\n      jump\t// out\n        /* \"#utility.yul\":4140:4472   */\n    tag_12:\n        /* \"#utility.yul\":4261:4265   */\n      0x00\n        /* \"#utility.yul\":4299:4301   */\n      0x40\n        /* \"#utility.yul\":4288:4297   */\n      dup3\n        /* \"#utility.yul\":4284:4302   */\n      add\n        /* \"#utility.yul\":4276:4302   */\n      swap1\n      pop\n        /* \"#utility.yul\":4312:4383   */\n      tag_128\n        /* \"#utility.yul\":4380:4381   */\n      0x00\n        /* \"#utility.yul\":4369:4378   */\n      dup4\n        /* \"#utility.yul\":4365:4382   */\n      add\n        /* \"#utility.yul\":4356:4362   */\n      dup6\n        /* \"#utility.yul\":4312:4383   */\n      tag_97\n      jump\t// in\n    tag_128:\n        /* \"#utility.yul\":4393:4465   */\n      tag_129\n        /* \"#utility.yul\":4461:4463   */\n      0x20\n        /* \"#utility.yul\":4450:4459   */\n      dup4\n        /* \"#utility.yul\":4446:4464   */\n      add\n        /* \"#utility.yul\":4437:4443   */\n      dup5\n        /* \"#utility.yul\":4393:4465   */\n      tag_121\n      jump\t// in\n    tag_129:\n        /* \"#utility.yul\":4140:4472   */\n      swap4\n      swap3\n      pop\n      pop\n      pop\n      jump\t// out\n        /* \"#utility.yul\":4478:4901   */\n    tag_22:\n        /* \"#utility.yul\":4619:4623   */\n      0x00\n        /* \"#utility.yul\":4657:4659   */\n      0x40\n        /* \"#utility.yul\":4646:4655   */\n      dup3\n        /* \"#utility.yul\":4642:4660   */\n      add\n        /* \"#utility.yul\":4634:4660   */\n      swap1\n      pop\n        /* \"#utility.yul\":4706:4715   */\n      dup2\n        /* \"#utility.yul\":4700:4704   */\n      dup2\n        /* \"#utility.yul\":4696:4716   */\n      sub\n        /* \"#utility.yul\":4692:4693   */\n      0x00\n        /* \"#utility.yul\":4681:4690   */\n      dup4\n        /* \"#utility.yul\":4677:4694   */\n      add\n        /* \"#utility.yul\":4670:4717   */\n      mstore\n        /* \"#utility.yul\":4734:4812   */\n      tag_131\n        /* \"#utility.yul\":4807:4811   */\n      dup2\n        /* \"#utility.yul\":4798:4804   */\n      dup6\n        /* \"#utility.yul\":4734:4812   */\n      tag_101\n      jump\t// in\n    tag_131:\n        /* \"#utility.yul\":4726:4812   */\n      swap1\n      pop\n        /* \"#utility.yul\":4822:4894   */\n      tag_132\n        /* \"#utility.yul\":4890:4892   */\n      0x20\n        /* \"#utility.yul\":4879:4888   */\n      dup4\n        /* \"#utility.yul\":4875:4893   */\n      add\n        /* \"#utility.yul\":4866:4872   */\n      dup5\n        /* \"#utility.yul\":4822:4894   */\n      tag_121\n      jump\t// in\n    tag_132:\n        /* \"#utility.yul\":4478:4901   */\n      swap4\n      swap3\n      pop\n      pop\n      pop\n      jump\t// out\n        /* \"#utility.yul\":4907:5326   */\n    tag_51:\n        /* \"#utility.yul\":5073:5077   */\n      0x00\n        /* \"#utility.yul\":5111:5113   */\n      0x20\n        /* \"#utility.yul\":5100:5109   */\n      dup3\n        /* \"#utility.yul\":5096:5114   */\n      add\n        /* \"#utility.yul\":5088:5114   */\n      swap1\n      pop\n        /* \"#utility.yul\":5160:5169   */\n      dup2\n        /* \"#utility.yul\":5154:5158   */\n      dup2\n        /* \"#utility.yul\":5150:5170   */\n      sub\n        /* \"#utility.yul\":5146:5147   */\n      0x00\n        /* \"#utility.yul\":5135:5144   */\n      dup4\n        /* \"#utility.yul\":5131:5148   */\n      add\n        /* \"#utility.yul\":5124:5171   */\n      mstore\n        /* \"#utility.yul\":5188:5319   */\n      tag_134\n        /* \"#utility.yul\":5314:5318   */\n      dup2\n        /* \"#utility.yul\":5188:5319   */\n      tag_111\n      jump\t// in\n    tag_134:\n        /* \"#utility.yul\":5180:5319   */\n      swap1\n      pop\n        /* \"#utility.yul\":4907:5326   */\n      swap2\n      swap1\n      pop\n      jump\t// out\n        /* \"#utility.yul\":5332:5751   */\n    tag_46:\n        /* \"#utility.yul\":5498:5502   */\n      0x00\n        /* \"#utility.yul\":5536:5538   */\n      0x20\n        /* \"#utility.yul\":5525:5534   */\n      dup3\n        /* \"#utility.yul\":5521:5539   */\n      add\n        /* \"#utility.yul\":5513:5539   */\n      swap1\n      pop\n        /* \"#utility.yul\":5585:5594   */\n      dup2\n        /* \"#utility.yul\":5579:5583   */\n      dup2\n        /* \"#utility.yul\":5575:5595   */\n      sub\n        /* \"#utility.yul\":5571:5572   */\n      0x00\n        /* \"#utility.yul\":5560:5569   */\n      dup4\n        /* \"#utility.yul\":5556:5573   */\n      add\n        /* \"#utility.yul\":5549:5596   */\n      mstore\n        /* \"#utility.yul\":5613:5744   */\n      tag_136\n        /* \"#utility.yul\":5739:5743   */\n      dup2\n        /* \"#utility.yul\":5613:5744   */\n      tag_116\n      jump\t// in\n    tag_136:\n        /* \"#utility.yul\":5605:5744   */\n      swap1\n      pop\n        /* \"#utility.yul\":5332:5751   */\n      swap2\n      swap1\n      pop\n      jump\t// out\n        /* \"#utility.yul\":5757:5979   */\n    tag_35:\n        /* \"#utility.yul\":5850:5854   */\n      0x00\n        /* \"#utility.yul\":5888:5890   */\n      0x20\n        /* \"#utility.yul\":5877:5886   */\n      dup3\n        /* \"#utility.yul\":5873:5891   */\n      add\n        /* \"#utility.yul\":5865:5891   */\n      swap1\n      pop\n        /* \"#utility.yul\":5901:5972   */\n      tag_138\n        /* \"#utility.yul\":5969:5970   */\n      0x00\n        /* \"#utility.yul\":5958:5967   */\n      dup4\n        /* \"#utility.yul\":5954:5971   */\n      add\n        /* \"#utility.yul\":5945:5951   */\n      dup5\n        /* \"#utility.yul\":5901:5972   */\n      tag_121\n      jump\t// in\n    tag_138:\n        /* \"#utility.yul\":5757:5979   */\n      swap3\n      swap2\n      pop\n      pop\n      jump\t// out\n        /* \"#utility.yul\":5985:6114   */\n    tag_59:\n        /* \"#utility.yul\":6019:6025   */\n      0x00\n        /* \"#utility.yul\":6046:6066   */\n      tag_140\n      tag_141\n      jump\t// in\n    tag_140:\n        /* \"#utility.yul\":6036:6066   */\n      swap1\n      pop\n        /* \"#utility.yul\":6075:6108   */\n      tag_142\n        /* \"#utility.yul\":6103:6107   */\n      dup3\n        /* \"#utility.yul\":6095:6101   */\n      dup3\n        /* \"#utility.yul\":6075:6108   */\n      tag_143\n      jump\t// in\n    tag_142:\n        /* \"#utility.yul\":5985:6114   */\n      swap2\n      swap1\n      pop\n      jump\t// out\n        /* \"#utility.yul\":6120:6195   */\n    tag_141:\n        /* \"#utility.yul\":6153:6159   */\n      0x00\n        /* \"#utility.yul\":6186:6188   */\n      0x40\n        /* \"#utility.yul\":6180:6189   */\n      mload\n        /* \"#utility.yul\":6170:6189   */\n      swap1\n      pop\n        /* \"#utility.yul\":6120:6195   */\n      swap1\n      jump\t// out\n        /* \"#utility.yul\":6201:6509   */\n    tag_58:\n        /* \"#utility.yul\":6263:6267   */\n      0x00\n        /* \"#utility.yul\":6353:6371   */\n      0xffffffffffffffff\n        /* \"#utility.yul\":6345:6351   */\n      dup3\n        /* \"#utility.yul\":6342:6372   */\n      gt\n        /* \"#utility.yul\":6339:6395   */\n      iszero\n      tag_146\n      jumpi\n        /* \"#utility.yul\":6375:6393   */\n      tag_147\n      tag_148\n      jump\t// in\n    tag_147:\n        /* \"#utility.yul\":6339:6395   */\n    tag_146:\n        /* \"#utility.yul\":6413:6442   */\n      tag_149\n        /* \"#utility.yul\":6435:6441   */\n      dup3\n        /* \"#utility.yul\":6413:6442   */\n      tag_110\n      jump\t// in\n    tag_149:\n        /* \"#utility.yul\":6405:6442   */\n      swap1\n      pop\n        /* \"#utility.yul\":6497:6501   */\n      0x20\n        /* \"#utility.yul\":6491:6495   */\n      dup2\n        /* \"#utility.yul\":6487:6502   */\n      add\n        /* \"#utility.yul\":6479:6502   */\n      swap1\n      pop\n        /* \"#utility.yul\":6201:6509   */\n      swap2\n      swap1\n      pop\n      jump\t// out\n        /* \"#utility.yul\":6515:6614   */\n    tag_104:\n        /* \"#utility.yul\":6567:6573   */\n      0x00\n        /* \"#utility.yul\":6601:6606   */\n      dup2\n        /* \"#utility.yul\":6595:6607   */\n      mload\n        /* \"#utility.yul\":6585:6607   */\n      swap1\n      pop\n        /* \"#utility.yul\":6515:6614   */\n      swap2\n      swap1\n      pop\n      jump\t// out\n        /* \"#utility.yul\":6620:6789   */\n    tag_106:\n        /* \"#utility.yul\":6704:6715   */\n      0x00\n        /* \"#utility.yul\":6738:6744   */\n      dup3\n        /* \"#utility.yul\":6733:6736   */\n      dup3\n        /* \"#utility.yul\":6726:6745   */\n      mstore\n        /* \"#utility.yul\":6778:6782   */\n      0x20\n        /* \"#utility.yul\":6773:6776   */\n      dup3\n        /* \"#utility.yul\":6769:6783   */\n      add\n        /* \"#utility.yul\":6754:6783   */\n      swap1\n      pop\n        /* \"#utility.yul\":6620:6789   */\n      swap3\n      swap2\n      pop\n      pop\n      jump\t// out\n        /* \"#utility.yul\":6795:6891   */\n    tag_100:\n        /* \"#utility.yul\":6832:6839   */\n      0x00\n        /* \"#utility.yul\":6861:6885   */\n      tag_153\n        /* \"#utility.yul\":6879:6884   */\n      dup3\n        /* \"#utility.yul\":6861:6885   */\n      tag_154\n      jump\t// in\n    tag_153:\n        /* \"#utility.yul\":6850:6885   */\n      swap1\n      pop\n        /* \"#utility.yul\":6795:6891   */\n      swap2\n      swap1\n      pop\n      jump\t// out\n        /* \"#utility.yul\":6897:7023   */\n    tag_154:\n        /* \"#utility.yul\":6934:6941   */\n      0x00\n        /* \"#utility.yul\":6974:7016   */\n      0xffffffffffffffffffffffffffffffffffffffff\n        /* \"#utility.yul\":6967:6972   */\n      dup3\n        /* \"#utility.yul\":6963:7017   */\n      and\n        /* \"#utility.yul\":6952:7017   */\n      swap1\n      pop\n        /* \"#utility.yul\":6897:7023   */\n      swap2\n      swap1\n      pop\n      jump\t// out\n        /* \"#utility.yul\":7029:7106   */\n    tag_124:\n        /* \"#utility.yul\":7066:7073   */\n      0x00\n        /* \"#utility.yul\":7095:7100   */\n      dup2\n        /* \"#utility.yul\":7084:7100   */\n      swap1\n      pop\n        /* \"#utility.yul\":7029:7106   */\n      swap2\n      swap1\n      pop\n      jump\t// out\n        /* \"#utility.yul\":7112:7266   */\n    tag_64:\n        /* \"#utility.yul\":7196:7202   */\n      dup3\n        /* \"#utility.yul\":7191:7194   */\n      dup2\n        /* \"#utility.yul\":7186:7189   */\n      dup4\n        /* \"#utility.yul\":7173:7203   */\n      calldatacopy\n        /* \"#utility.yul\":7258:7259   */\n      0x00\n        /* \"#utility.yul\":7249:7255   */\n      dup4\n        /* \"#utility.yul\":7244:7247   */\n      dup4\n        /* \"#utility.yul\":7240:7256   */\n      add\n        /* \"#utility.yul\":7233:7260   */\n      mstore\n        /* \"#utility.yul\":7112:7266   */\n      pop\n      pop\n      pop\n      jump\t// out\n        /* \"#utility.yul\":7272:7579   */\n    tag_108:\n        /* \"#utility.yul\":7340:7341   */\n      0x00\n        /* \"#utility.yul\":7350:7463   */\n    tag_159:\n        /* \"#utility.yul\":7364:7370   */\n      dup4\n        /* \"#utility.yul\":7361:7362   */\n      dup2\n        /* \"#utility.yul\":7358:7371   */\n      lt\n        /* \"#utility.yul\":7350:7463   */\n      iszero\n      tag_161\n      jumpi\n        /* \"#utility.yul\":7449:7450   */\n      dup1\n        /* \"#utility.yul\":7444:7447   */\n      dup3\n        /* \"#utility.yul\":7440:7451   */\n      add\n        /* \"#utility.yul\":7434:7452   */\n      mload\n        /* \"#utility.yul\":7430:7431   */\n      dup2\n        /* \"#utility.yul\":7425:7428   */\n      dup5\n        /* \"#utility.yul\":7421:7432   */\n      add\n        /* \"#utility.yul\":7414:7453   */\n      mstore\n        /* \"#utility.yul\":7386:7388   */\n      0x20\n        /* \"#utility.yul\":7383:7384   */\n      dup2\n        /* \"#utility.yul\":7379:7389   */\n      add\n        /* \"#utility.yul\":7374:7389   */\n      swap1\n      pop\n        /* \"#utility.yul\":7350:7463   */\n      jump(tag_159)\n    tag_161:\n        /* \"#utility.yul\":7481:7487   */\n      dup4\n        /* \"#utility.yul\":7478:7479   */\n      dup2\n        /* \"#utility.yul\":7475:7488   */\n      gt\n        /* \"#utility.yul\":7472:7573   */\n      iszero\n      tag_162\n      jumpi\n        /* \"#utility.yul\":7561:7562   */\n      0x00\n        /* \"#utility.yul\":7552:7558   */\n      dup5\n        /* \"#utility.yul\":7547:7550   */\n      dup5\n        /* \"#utility.yul\":7543:7559   */\n      add\n        /* \"#utility.yul\":7536:7563   */\n      mstore\n        /* \"#utility.yul\":7472:7573   */\n    tag_162:\n        /* \"#utility.yul\":7321:7579   */\n      pop\n        /* \"#utility.yul\":7272:7579   */\n      pop\n      pop\n      pop\n      jump\t// out\n        /* \"#utility.yul\":7585:7905   */\n    tag_38:\n        /* \"#utility.yul\":7629:7635   */\n      0x00\n        /* \"#utility.yul\":7666:7667   */\n      0x02\n        /* \"#utility.yul\":7660:7664   */\n      dup3\n        /* \"#utility.yul\":7656:7668   */\n      div\n        /* \"#utility.yul\":7646:7668   */\n      swap1\n      pop\n        /* \"#utility.yul\":7713:7714   */\n      0x01\n        /* \"#utility.yul\":7707:7711   */\n      dup3\n        /* \"#utility.yul\":7703:7715   */\n      and\n        /* \"#utility.yul\":7734:7752   */\n      dup1\n        /* \"#utility.yul\":7724:7805   */\n      tag_164\n      jumpi\n        /* \"#utility.yul\":7790:7794   */\n      0x7f\n        /* \"#utility.yul\":7782:7788   */\n      dup3\n        /* \"#utility.yul\":7778:7795   */\n      and\n        /* \"#utility.yul\":7768:7795   */\n      swap2\n      pop\n        /* \"#utility.yul\":7724:7805   */\n    tag_164:\n        /* \"#utility.yul\":7852:7854   */\n      0x20\n        /* \"#utility.yul\":7844:7850   */\n      dup3\n        /* \"#utility.yul\":7841:7855   */\n      lt\n        /* \"#utility.yul\":7821:7839   */\n      dup2\n        /* \"#utility.yul\":7818:7856   */\n      eq\n        /* \"#utility.yul\":7815:7899   */\n      iszero\n      tag_165\n      jumpi\n        /* \"#utility.yul\":7871:7889   */\n      tag_166\n      tag_167\n      jump\t// in\n    tag_166:\n        /* \"#utility.yul\":7815:7899   */\n    tag_165:\n        /* \"#utility.yul\":7636:7905   */\n      pop\n        /* \"#utility.yul\":7585:7905   */\n      swap2\n      swap1\n      pop\n      jump\t// out\n        /* \"#utility.yul\":7911:8192   */\n    tag_143:\n        /* \"#utility.yul\":7994:8021   */\n      tag_169\n        /* \"#utility.yul\":8016:8020   */\n      dup3\n        /* \"#utility.yul\":7994:8021   */\n      tag_110\n      jump\t// in\n    tag_169:\n        /* \"#utility.yul\":7986:7992   */\n      dup2\n        /* \"#utility.yul\":7982:8022   */\n      add\n        /* \"#utility.yul\":8124:8130   */\n      dup2\n        /* \"#utility.yul\":8112:8122   */\n      dup2\n        /* \"#utility.yul\":8109:8131   */\n      lt\n        /* \"#utility.yul\":8088:8106   */\n      0xffffffffffffffff\n        /* \"#utility.yul\":8076:8086   */\n      dup3\n        /* \"#utility.yul\":8073:8107   */\n      gt\n        /* \"#utility.yul\":8070:8132   */\n      or\n        /* \"#utility.yul\":8067:8155   */\n      iszero\n      tag_170\n      jumpi\n        /* \"#utility.yul\":8135:8153   */\n      tag_171\n      tag_148\n      jump\t// in\n    tag_171:\n        /* \"#utility.yul\":8067:8155   */\n    tag_170:\n        /* \"#utility.yul\":8175:8185   */\n      dup1\n        /* \"#utility.yul\":8171:8173   */\n      0x40\n        /* \"#utility.yul\":8164:8186   */\n      mstore\n        /* \"#utility.yul\":7954:8192   */\n      pop\n        /* \"#utility.yul\":7911:8192   */\n      pop\n      pop\n      jump\t// out\n        /* \"#utility.yul\":8198:8378   */\n    tag_167:\n        /* \"#utility.yul\":8246:8323   */\n      0x4e487b7100000000000000000000000000000000000000000000000000000000\n        /* \"#utility.yul\":8243:8244   */\n      0x00\n        /* \"#utility.yul\":8236:8324   */\n      mstore\n        /* \"#utility.yul\":8343:8347   */\n      0x22\n        /* \"#utility.yul\":8340:8341   */\n      0x04\n        /* \"#utility.yul\":8333:8348   */\n      mstore\n        /* \"#utility.yul\":8367:8371   */\n      0x24\n        /* \"#utility.yul\":8364:8365   */\n      0x00\n        /* \"#utility.yul\":8357:8372   */\n      revert\n        /* \"#utility.yul\":8384:8564   */\n    tag_148:\n        /* \"#utility.yul\":8432:8509   */\n      0x4e487b7100000000000000000000000000000000000000000000000000000000\n        /* \"#utility.yul\":8429:8430   */\n      0x00\n        /* \"#utility.yul\":8422:8510   */\n      mstore\n        /* \"#utility.yul\":8529:8533   */\n      0x41\n        /* \"#utility.yul\":8526:8527   */\n      0x04\n        /* \"#utility.yul\":8519:8534   */\n      mstore\n        /* \"#utility.yul\":8553:8557   */\n      0x24\n        /* \"#utility.yul\":8550:8551   */\n      0x00\n        /* \"#utility.yul\":8543:8558   */\n      revert\n        /* \"#utility.yul\":8570:8687   */\n    tag_73:\n        /* \"#utility.yul\":8679:8680   */\n      0x00\n        /* \"#utility.yul\":8676:8677   */\n      dup1\n        /* \"#utility.yul\":8669:8681   */\n      revert\n        /* \"#utility.yul\":8693:8810   */\n    tag_62:\n        /* \"#utility.yul\":8802:8803   */\n      0x00\n        /* \"#utility.yul\":8799:8800   */\n      dup1\n        /* \"#utility.yul\":8792:8804   */\n      revert\n        /* \"#utility.yul\":8816:8933   */\n    tag_94:\n        /* \"#utility.yul\":8925:8926   */\n      0x00\n        /* \"#utility.yul\":8922:8923   */\n      dup1\n        /* \"#utility.yul\":8915:8927   */\n      revert\n        /* \"#utility.yul\":8939:9056   */\n    tag_82:\n        /* \"#utility.yul\":9048:9049   */\n      0x00\n        /* \"#utility.yul\":9045:9046   */\n      dup1\n        /* \"#utility.yul\":9038:9050   */\n      revert\n        /* \"#utility.yul\":9062:9164   */\n    tag_110:\n        /* \"#utility.yul\":9103:9109   */\n      0x00\n        /* \"#utility.yul\":9154:9156   */\n      0x1f\n        /* \"#utility.yul\":9150:9157   */\n      not\n        /* \"#utility.yul\":9145:9147   */\n      0x1f\n        /* \"#utility.yul\":9138:9143   */\n      dup4\n        /* \"#utility.yul\":9134:9148   */\n      add\n        /* \"#utility.yul\":9130:9158   */\n      and\n        /* \"#utility.yul\":9120:9158   */\n      swap1\n      pop\n        /* \"#utility.yul\":9062:9164   */\n      swap2\n      swap1\n      pop\n      jump\t// out\n        /* \"#utility.yul\":9170:9394   */\n    tag_115:\n        /* \"#utility.yul\":9310:9344   */\n      0x596120746520656e6375656e74726173207265676973747261646f20656e2065\n        /* \"#utility.yul\":9306:9307   */\n      0x00\n        /* \"#utility.yul\":9298:9304   */\n      dup3\n        /* \"#utility.yul\":9294:9308   */\n      add\n        /* \"#utility.yul\":9287:9345   */\n      mstore\n        /* \"#utility.yul\":9379:9386   */\n      0x6c2067796d000000000000000000000000000000000000000000000000000000\n        /* \"#utility.yul\":9374:9376   */\n      0x20\n        /* \"#utility.yul\":9366:9372   */\n      dup3\n        /* \"#utility.yul\":9362:9377   */\n      add\n        /* \"#utility.yul\":9355:9387   */\n      mstore\n        /* \"#utility.yul\":9170:9394   */\n      pop\n      jump\t// out\n        /* \"#utility.yul\":9400:9635   */\n    tag_120:\n        /* \"#utility.yul\":9540:9574   */\n      0x536f6c6f20656c2041646d696e6973747261646f722064656c2047796d207075\n        /* \"#utility.yul\":9536:9537   */\n      0x00\n        /* \"#utility.yul\":9528:9534   */\n      dup3\n        /* \"#utility.yul\":9524:9538   */\n      add\n        /* \"#utility.yul\":9517:9575   */\n      mstore\n        /* \"#utility.yul\":9609:9627   */\n      0x65646520637265617220636c6173657300000000000000000000000000000000\n        /* \"#utility.yul\":9604:9606   */\n      0x20\n        /* \"#utility.yul\":9596:9602   */\n      dup3\n        /* \"#utility.yul\":9592:9607   */\n      add\n        /* \"#utility.yul\":9585:9628   */\n      mstore\n        /* \"#utility.yul\":9400:9635   */\n      pop\n      jump\t// out\n        /* \"#utility.yul\":9641:9763   */\n    tag_68:\n        /* \"#utility.yul\":9714:9738   */\n      tag_182\n        /* \"#utility.yul\":9732:9737   */\n      dup2\n        /* \"#utility.yul\":9714:9738   */\n      tag_100\n      jump\t// in\n    tag_182:\n        /* \"#utility.yul\":9707:9712   */\n      dup2\n        /* \"#utility.yul\":9704:9739   */\n      eq\n        /* \"#utility.yul\":9694:9757   */\n      tag_183\n      jumpi\n        /* \"#utility.yul\":9753:9754   */\n      0x00\n        /* \"#utility.yul\":9750:9751   */\n      dup1\n        /* \"#utility.yul\":9743:9755   */\n      revert\n        /* \"#utility.yul\":9694:9757   */\n    tag_183:\n        /* \"#utility.yul\":9641:9763   */\n      pop\n      jump\t// out\n        /* \"#utility.yul\":9769:9891   */\n    tag_78:\n        /* \"#utility.yul\":9842:9866   */\n      tag_185\n        /* \"#utility.yul\":9860:9865   */\n      dup2\n        /* \"#utility.yul\":9842:9866   */\n      tag_124\n      jump\t// in\n    tag_185:\n        /* \"#utility.yul\":9835:9840   */\n      dup2\n        /* \"#utility.yul\":9832:9867   */\n      eq\n        /* \"#utility.yul\":9822:9885   */\n      tag_186\n      jumpi\n        /* \"#utility.yul\":9881:9882   */\n      0x00\n        /* \"#utility.yul\":9878:9879   */\n      dup1\n        /* \"#utility.yul\":9871:9883   */\n      revert\n        /* \"#utility.yul\":9822:9885   */\n    tag_186:\n        /* \"#utility.yul\":9769:9891   */\n      pop\n      jump\t// out\n\n    auxdata: 0xa264697066735822122001c426e8b5250fc6b23220c8880a36be4f2975a242a1975489473c37ea4f48c364736f6c63430008070033\n}\n",
				"bytecode": {
					"linkReferences": {},
					"object": "60a060405234801561001057600080fd5b503373ffffffffffffffffffffffffffffffffffffffff1660808173ffffffffffffffffffffffffffffffffffffffff1660601b8152505060805160601c6109e261006d6000396000818161018a015261027101526109e26000f3fe608060405234801561001057600080fd5b50600436106100625760003560e01c806312065fe0146100675780632a0acc6a146100865780633db99f9e146100a45780634852a212146100d55780636d705ebb146100f1578063a87430ba1461010d575b600080fd5b61006f61013d565b60405161007d929190610656565b60405180910390f35b61008e610188565b60405161009b919061063b565b60405180910390f35b6100be60048036038101906100b991906104d5565b6101ac565b6040516100cc92919061067f565b60405180910390f35b6100ef60048036038101906100ea9190610542565b610258565b005b61010b60048036038101906101069190610502565b610323565b005b610127600480360381019061012291906104d5565b610423565b60405161013491906106ef565b60405180910390f35b600080336000803373ffffffffffffffffffffffffffffffffffffffff1673ffffffffffffffffffffffffffffffffffffffff16815260200190815260200160002054915091509091565b7f000000000000000000000000000000000000000000000000000000000000000081565b60016020528060005260406000206000915090508060000180546101cf906107fa565b80601f01602080910402602001604051908101604052809291908181526020018280546101fb906107fa565b80156102485780601f1061021d57610100808354040283529160200191610248565b820191906000526020600020905b81548152906001019060200180831161022b57829003601f168201915b5050505050908060010154905082565b3373ffffffffffffffffffffffffffffffffffffffff167f000000000000000000000000000000000000000000000000000000000000000073ffffffffffffffffffffffffffffffffffffffff16146102e6576040517f08c379a00000000000000000000000000000000000000000000000000000000081526004016102dd906106cf565b60405180910390fd5b7f14d49e3ea4f348b7f368906dfe1a63055c7822d622a61672a35a55ae97a768f9828260405161031792919061067f565b60405180910390a15050565b60008060003373ffffffffffffffffffffffffffffffffffffffff1673ffffffffffffffffffffffffffffffffffffffff16815260200190815260200160002054146103a4576040517f08c379a000000000000000000000000000000000000000000000000000000000815260040161039b906106af565b60405180910390fd5b806000803373ffffffffffffffffffffffffffffffffffffffff1673ffffffffffffffffffffffffffffffffffffffff168152602001908152602001600020819055507e7dc6ab80cc84c043b7b8d4fcafc802187470087f7ea7fccd2e17aecd0256a18282604051610417929190610656565b60405180910390a15050565b60006020528060005260406000206000915090505481565b600061044e6104498461072f565b61070a565b90508281526020810184848401111561046a576104696108c0565b5b6104758482856107b8565b509392505050565b60008135905061048c8161097e565b92915050565b600082601f8301126104a7576104a66108bb565b5b81356104b784826020860161043b565b91505092915050565b6000813590506104cf81610995565b92915050565b6000602082840312156104eb576104ea6108ca565b5b60006104f98482850161047d565b91505092915050565b60008060408385031215610519576105186108ca565b5b60006105278582860161047d565b9250506020610538858286016104c0565b9150509250929050565b60008060408385031215610559576105586108ca565b5b600083013567ffffffffffffffff811115610577576105766108c5565b5b61058385828601610492565b9250506020610594858286016104c0565b9150509250929050565b6105a78161077c565b82525050565b60006105b882610760565b6105c2818561076b565b93506105d28185602086016107c7565b6105db816108cf565b840191505092915050565b60006105f360258361076b565b91506105fe826108e0565b604082019050919050565b600061061660308361076b565b91506106218261092f565b604082019050919050565b610635816107ae565b82525050565b6000602082019050610650600083018461059e565b92915050565b600060408201905061066b600083018561059e565b610678602083018461062c565b9392505050565b6000604082019050818103600083015261069981856105ad565b90506106a8602083018461062c565b9392505050565b600060208201905081810360008301526106c8816105e6565b9050919050565b600060208201905081810360008301526106e881610609565b9050919050565b6000602082019050610704600083018461062c565b92915050565b6000610714610725565b9050610720828261082c565b919050565b6000604051905090565b600067ffffffffffffffff82111561074a5761074961088c565b5b610753826108cf565b9050602081019050919050565b600081519050919050565b600082825260208201905092915050565b60006107878261078e565b9050919050565b600073ffffffffffffffffffffffffffffffffffffffff82169050919050565b6000819050919050565b82818337600083830152505050565b60005b838110156107e55780820151818401526020810190506107ca565b838111156107f4576000848401525b50505050565b6000600282049050600182168061081257607f821691505b602082108114156108265761082561085d565b5b50919050565b610835826108cf565b810181811067ffffffffffffffff821117156108545761085361088c565b5b80604052505050565b7f4e487b7100000000000000000000000000000000000000000000000000000000600052602260045260246000fd5b7f4e487b7100000000000000000000000000000000000000000000000000000000600052604160045260246000fd5b600080fd5b600080fd5b600080fd5b600080fd5b6000601f19601f8301169050919050565b7f596120746520656e6375656e74726173207265676973747261646f20656e206560008201527f6c2067796d000000000000000000000000000000000000000000000000000000602082015250565b7f536f6c6f20656c2041646d696e6973747261646f722064656c2047796d20707560008201527f65646520637265617220636c6173657300000000000000000000000000000000602082015250565b6109878161077c565b811461099257600080fd5b50565b61099e816107ae565b81146109a957600080fd5b5056fea264697066735822122001c426e8b5250fc6b23220c8880a36be4f2975a242a1975489473c37ea4f48c364736f6c63430008070033",
					"opcodes": "PUSH1 0xA0 PUSH1 0x40 MSTORE CALLVALUE DUP1 ISZERO PUSH2 0x10 JUMPI PUSH1 0x0 DUP1 REVERT JUMPDEST POP CALLER PUSH20 0xFFFFFFFFFFFFFFFFFFFFFFFFFFFFFFFFFFFFFFFF AND PUSH1 0x80 DUP2 PUSH20 0xFFFFFFFFFFFFFFFFFFFFFFFFFFFFFFFFFFFFFFFF AND PUSH1 0x60 SHL DUP2 MSTORE POP POP PUSH1 0x80 MLOAD PUSH1 0x60 SHR PUSH2 0x9E2 PUSH2 0x6D PUSH1 0x0 CODECOPY PUSH1 0x0 DUP2 DUP2 PUSH2 0x18A ADD MSTORE PUSH2 0x271 ADD MSTORE PUSH2 0x9E2 PUSH1 0x0 RETURN INVALID PUSH1 0x80 PUSH1 0x40 MSTORE CALLVALUE DUP1 ISZERO PUSH2 0x10 JUMPI PUSH1 0x0 DUP1 REVERT JUMPDEST POP PUSH1 0x4 CALLDATASIZE LT PUSH2 0x62 JUMPI PUSH1 0x0 CALLDATALOAD PUSH1 0xE0 SHR DUP1 PUSH4 0x12065FE0 EQ PUSH2 0x67 JUMPI DUP1 PUSH4 0x2A0ACC6A EQ PUSH2 0x86 JUMPI DUP1 PUSH4 0x3DB99F9E EQ PUSH2 0xA4 JUMPI DUP1 PUSH4 0x4852A212 EQ PUSH2 0xD5 JUMPI DUP1 PUSH4 0x6D705EBB EQ PUSH2 0xF1 JUMPI DUP1 PUSH4 0xA87430BA EQ PUSH2 0x10D JUMPI JUMPDEST PUSH1 0x0 DUP1 REVERT JUMPDEST PUSH2 0x6F PUSH2 0x13D JUMP JUMPDEST PUSH1 0x40 MLOAD PUSH2 0x7D SWAP3 SWAP2 SWAP1 PUSH2 0x656 JUMP JUMPDEST PUSH1 0x40 MLOAD DUP1 SWAP2 SUB SWAP1 RETURN JUMPDEST PUSH2 0x8E PUSH2 0x188 JUMP JUMPDEST PUSH1 0x40 MLOAD PUSH2 0x9B SWAP2 SWAP1 PUSH2 0x63B JUMP JUMPDEST PUSH1 0x40 MLOAD DUP1 SWAP2 SUB SWAP1 RETURN JUMPDEST PUSH2 0xBE PUSH1 0x4 DUP1 CALLDATASIZE SUB DUP2 ADD SWAP1 PUSH2 0xB9 SWAP2 SWAP1 PUSH2 0x4D5 JUMP JUMPDEST PUSH2 0x1AC JUMP JUMPDEST PUSH1 0x40 MLOAD PUSH2 0xCC SWAP3 SWAP2 SWAP1 PUSH2 0x67F JUMP JUMPDEST PUSH1 0x40 MLOAD DUP1 SWAP2 SUB SWAP1 RETURN JUMPDEST PUSH2 0xEF PUSH1 0x4 DUP1 CALLDATASIZE SUB DUP2 ADD SWAP1 PUSH2 0xEA SWAP2 SWAP1 PUSH2 0x542 JUMP JUMPDEST PUSH2 0x258 JUMP JUMPDEST STOP JUMPDEST PUSH2 0x10B PUSH1 0x4 DUP1 CALLDATASIZE SUB DUP2 ADD SWAP1 PUSH2 0x106 SWAP2 SWAP1 PUSH2 0x502 JUMP JUMPDEST PUSH2 0x323 JUMP JUMPDEST STOP JUMPDEST PUSH2 0x127 PUSH1 0x4 DUP1 CALLDATASIZE SUB DUP2 ADD SWAP1 PUSH2 0x122 SWAP2 SWAP1 PUSH2 0x4D5 JUMP JUMPDEST PUSH2 0x423 JUMP JUMPDEST PUSH1 0x40 MLOAD PUSH2 0x134 SWAP2 SWAP1 PUSH2 0x6EF JUMP JUMPDEST PUSH1 0x40 MLOAD DUP1 SWAP2 SUB SWAP1 RETURN JUMPDEST PUSH1 0x0 DUP1 CALLER PUSH1 0x0 DUP1 CALLER PUSH20 0xFFFFFFFFFFFFFFFFFFFFFFFFFFFFFFFFFFFFFFFF AND PUSH20 0xFFFFFFFFFFFFFFFFFFFFFFFFFFFFFFFFFFFFFFFF AND DUP2 MSTORE PUSH1 0x20 ADD SWAP1 DUP2 MSTORE PUSH1 0x20 ADD PUSH1 0x0 KECCAK256 SLOAD SWAP2 POP SWAP2 POP SWAP1 SWAP2 JUMP JUMPDEST PUSH32 0x0 DUP2 JUMP JUMPDEST PUSH1 0x1 PUSH1 0x20 MSTORE DUP1 PUSH1 0x0 MSTORE PUSH1 0x40 PUSH1 0x0 KECCAK256 PUSH1 0x0 SWAP2 POP SWAP1 POP DUP1 PUSH1 0x0 ADD DUP1 SLOAD PUSH2 0x1CF SWAP1 PUSH2 0x7FA JUMP JUMPDEST DUP1 PUSH1 0x1F ADD PUSH1 0x20 DUP1 SWAP2 DIV MUL PUSH1 0x20 ADD PUSH1 0x40 MLOAD SWAP1 DUP2 ADD PUSH1 0x40 MSTORE DUP1 SWAP3 SWAP2 SWAP1 DUP2 DUP2 MSTORE PUSH1 0x20 ADD DUP3 DUP1 SLOAD PUSH2 0x1FB SWAP1 PUSH2 0x7FA JUMP JUMPDEST DUP1 ISZERO PUSH2 0x248 JUMPI DUP1 PUSH1 0x1F LT PUSH2 0x21D JUMPI PUSH2 0x100 DUP1 DUP4 SLOAD DIV MUL DUP4 MSTORE SWAP2 PUSH1 0x20 ADD SWAP2 PUSH2 0x248 JUMP JUMPDEST DUP3 ADD SWAP2 SWAP1 PUSH1 0x0 MSTORE PUSH1 0x20 PUSH1 0x0 KECCAK256 SWAP1 JUMPDEST DUP2 SLOAD DUP2 MSTORE SWAP1 PUSH1 0x1 ADD SWAP1 PUSH1 0x20 ADD DUP1 DUP4 GT PUSH2 0x22B JUMPI DUP3 SWAP1 SUB PUSH1 0x1F AND DUP3 ADD SWAP2 JUMPDEST POP POP POP POP POP SWAP1 DUP1 PUSH1 0x1 ADD SLOAD SWAP1 POP DUP3 JUMP JUMPDEST CALLER PUSH20 0xFFFFFFFFFFFFFFFFFFFFFFFFFFFFFFFFFFFFFFFF AND PUSH32 0x0 PUSH20 0xFFFFFFFFFFFFFFFFFFFFFFFFFFFFFFFFFFFFFFFF AND EQ PUSH2 0x2E6 JUMPI PUSH1 0x40 MLOAD PUSH32 0x8C379A000000000000000000000000000000000000000000000000000000000 DUP2 MSTORE PUSH1 0x4 ADD PUSH2 0x2DD SWAP1 PUSH2 0x6CF JUMP JUMPDEST PUSH1 0x40 MLOAD DUP1 SWAP2 SUB SWAP1 REVERT JUMPDEST PUSH32 0x14D49E3EA4F348B7F368906DFE1A63055C7822D622A61672A35A55AE97A768F9 DUP3 DUP3 PUSH1 0x40 MLOAD PUSH2 0x317 SWAP3 SWAP2 SWAP1 PUSH2 0x67F JUMP JUMPDEST PUSH1 0x40 MLOAD DUP1 SWAP2 SUB SWAP1 LOG1 POP POP JUMP JUMPDEST PUSH1 0x0 DUP1 PUSH1 0x0 CALLER PUSH20 0xFFFFFFFFFFFFFFFFFFFFFFFFFFFFFFFFFFFFFFFF AND PUSH20 0xFFFFFFFFFFFFFFFFFFFFFFFFFFFFFFFFFFFFFFFF AND DUP2 MSTORE PUSH1 0x20 ADD SWAP1 DUP2 MSTORE PUSH1 0x20 ADD PUSH1 0x0 KECCAK256 SLOAD EQ PUSH2 0x3A4 JUMPI PUSH1 0x40 MLOAD PUSH32 0x8C379A000000000000000000000000000000000000000000000000000000000 DUP2 MSTORE PUSH1 0x4 ADD PUSH2 0x39B SWAP1 PUSH2 0x6AF JUMP JUMPDEST PUSH1 0x40 MLOAD DUP1 SWAP2 SUB SWAP1 REVERT JUMPDEST DUP1 PUSH1 0x0 DUP1 CALLER PUSH20 0xFFFFFFFFFFFFFFFFFFFFFFFFFFFFFFFFFFFFFFFF AND PUSH20 0xFFFFFFFFFFFFFFFFFFFFFFFFFFFFFFFFFFFFFFFF AND DUP2 MSTORE PUSH1 0x20 ADD SWAP1 DUP2 MSTORE PUSH1 0x20 ADD PUSH1 0x0 KECCAK256 DUP2 SWAP1 SSTORE POP PUSH31 0x7DC6AB80CC84C043B7B8D4FCAFC802187470087F7EA7FCCD2E17AECD0256A1 DUP3 DUP3 PUSH1 0x40 MLOAD PUSH2 0x417 SWAP3 SWAP2 SWAP1 PUSH2 0x656 JUMP JUMPDEST PUSH1 0x40 MLOAD DUP1 SWAP2 SUB SWAP1 LOG1 POP POP JUMP JUMPDEST PUSH1 0x0 PUSH1 0x20 MSTORE DUP1 PUSH1 0x0 MSTORE PUSH1 0x40 PUSH1 0x0 KECCAK256 PUSH1 0x0 SWAP2 POP SWAP1 POP SLOAD DUP2 JUMP JUMPDEST PUSH1 0x0 PUSH2 0x44E PUSH2 0x449 DUP5 PUSH2 0x72F JUMP JUMPDEST PUSH2 0x70A JUMP JUMPDEST SWAP1 POP DUP3 DUP2 MSTORE PUSH1 0x20 DUP2 ADD DUP5 DUP5 DUP5 ADD GT ISZERO PUSH2 0x46A JUMPI PUSH2 0x469 PUSH2 0x8C0 JUMP JUMPDEST JUMPDEST PUSH2 0x475 DUP5 DUP3 DUP6 PUSH2 0x7B8 JUMP JUMPDEST POP SWAP4 SWAP3 POP POP POP JUMP JUMPDEST PUSH1 0x0 DUP2 CALLDATALOAD SWAP1 POP PUSH2 0x48C DUP2 PUSH2 0x97E JUMP JUMPDEST SWAP3 SWAP2 POP POP JUMP JUMPDEST PUSH1 0x0 DUP3 PUSH1 0x1F DUP4 ADD SLT PUSH2 0x4A7 JUMPI PUSH2 0x4A6 PUSH2 0x8BB JUMP JUMPDEST JUMPDEST DUP2 CALLDATALOAD PUSH2 0x4B7 DUP5 DUP3 PUSH1 0x20 DUP7 ADD PUSH2 0x43B JUMP JUMPDEST SWAP2 POP POP SWAP3 SWAP2 POP POP JUMP JUMPDEST PUSH1 0x0 DUP2 CALLDATALOAD SWAP1 POP PUSH2 0x4CF DUP2 PUSH2 0x995 JUMP JUMPDEST SWAP3 SWAP2 POP POP JUMP JUMPDEST PUSH1 0x0 PUSH1 0x20 DUP3 DUP5 SUB SLT ISZERO PUSH2 0x4EB JUMPI PUSH2 0x4EA PUSH2 0x8CA JUMP JUMPDEST JUMPDEST PUSH1 0x0 PUSH2 0x4F9 DUP5 DUP3 DUP6 ADD PUSH2 0x47D JUMP JUMPDEST SWAP2 POP POP SWAP3 SWAP2 POP POP JUMP JUMPDEST PUSH1 0x0 DUP1 PUSH1 0x40 DUP4 DUP6 SUB SLT ISZERO PUSH2 0x519 JUMPI PUSH2 0x518 PUSH2 0x8CA JUMP JUMPDEST JUMPDEST PUSH1 0x0 PUSH2 0x527 DUP6 DUP3 DUP7 ADD PUSH2 0x47D JUMP JUMPDEST SWAP3 POP POP PUSH1 0x20 PUSH2 0x538 DUP6 DUP3 DUP7 ADD PUSH2 0x4C0 JUMP JUMPDEST SWAP2 POP POP SWAP3 POP SWAP3 SWAP1 POP JUMP JUMPDEST PUSH1 0x0 DUP1 PUSH1 0x40 DUP4 DUP6 SUB SLT ISZERO PUSH2 0x559 JUMPI PUSH2 0x558 PUSH2 0x8CA JUMP JUMPDEST JUMPDEST PUSH1 0x0 DUP4 ADD CALLDATALOAD PUSH8 0xFFFFFFFFFFFFFFFF DUP2 GT ISZERO PUSH2 0x577 JUMPI PUSH2 0x576 PUSH2 0x8C5 JUMP JUMPDEST JUMPDEST PUSH2 0x583 DUP6 DUP3 DUP7 ADD PUSH2 0x492 JUMP JUMPDEST SWAP3 POP POP PUSH1 0x20 PUSH2 0x594 DUP6 DUP3 DUP7 ADD PUSH2 0x4C0 JUMP JUMPDEST SWAP2 POP POP SWAP3 POP SWAP3 SWAP1 POP JUMP JUMPDEST PUSH2 0x5A7 DUP2 PUSH2 0x77C JUMP JUMPDEST DUP3 MSTORE POP POP JUMP JUMPDEST PUSH1 0x0 PUSH2 0x5B8 DUP3 PUSH2 0x760 JUMP JUMPDEST PUSH2 0x5C2 DUP2 DUP6 PUSH2 0x76B JUMP JUMPDEST SWAP4 POP PUSH2 0x5D2 DUP2 DUP6 PUSH1 0x20 DUP7 ADD PUSH2 0x7C7 JUMP JUMPDEST PUSH2 0x5DB DUP2 PUSH2 0x8CF JUMP JUMPDEST DUP5 ADD SWAP2 POP POP SWAP3 SWAP2 POP POP JUMP JUMPDEST PUSH1 0x0 PUSH2 0x5F3 PUSH1 0x25 DUP4 PUSH2 0x76B JUMP JUMPDEST SWAP2 POP PUSH2 0x5FE DUP3 PUSH2 0x8E0 JUMP JUMPDEST PUSH1 0x40 DUP3 ADD SWAP1 POP SWAP2 SWAP1 POP JUMP JUMPDEST PUSH1 0x0 PUSH2 0x616 PUSH1 0x30 DUP4 PUSH2 0x76B JUMP JUMPDEST SWAP2 POP PUSH2 0x621 DUP3 PUSH2 0x92F JUMP JUMPDEST PUSH1 0x40 DUP3 ADD SWAP1 POP SWAP2 SWAP1 POP JUMP JUMPDEST PUSH2 0x635 DUP2 PUSH2 0x7AE JUMP JUMPDEST DUP3 MSTORE POP POP JUMP JUMPDEST PUSH1 0x0 PUSH1 0x20 DUP3 ADD SWAP1 POP PUSH2 0x650 PUSH1 0x0 DUP4 ADD DUP5 PUSH2 0x59E JUMP JUMPDEST SWAP3 SWAP2 POP POP JUMP JUMPDEST PUSH1 0x0 PUSH1 0x40 DUP3 ADD SWAP1 POP PUSH2 0x66B PUSH1 0x0 DUP4 ADD DUP6 PUSH2 0x59E JUMP JUMPDEST PUSH2 0x678 PUSH1 0x20 DUP4 ADD DUP5 PUSH2 0x62C JUMP JUMPDEST SWAP4 SWAP3 POP POP POP JUMP JUMPDEST PUSH1 0x0 PUSH1 0x40 DUP3 ADD SWAP1 POP DUP2 DUP2 SUB PUSH1 0x0 DUP4 ADD MSTORE PUSH2 0x699 DUP2 DUP6 PUSH2 0x5AD JUMP JUMPDEST SWAP1 POP PUSH2 0x6A8 PUSH1 0x20 DUP4 ADD DUP5 PUSH2 0x62C JUMP JUMPDEST SWAP4 SWAP3 POP POP POP JUMP JUMPDEST PUSH1 0x0 PUSH1 0x20 DUP3 ADD SWAP1 POP DUP2 DUP2 SUB PUSH1 0x0 DUP4 ADD MSTORE PUSH2 0x6C8 DUP2 PUSH2 0x5E6 JUMP JUMPDEST SWAP1 POP SWAP2 SWAP1 POP JUMP JUMPDEST PUSH1 0x0 PUSH1 0x20 DUP3 ADD SWAP1 POP DUP2 DUP2 SUB PUSH1 0x0 DUP4 ADD MSTORE PUSH2 0x6E8 DUP2 PUSH2 0x609 JUMP JUMPDEST SWAP1 POP SWAP2 SWAP1 POP JUMP JUMPDEST PUSH1 0x0 PUSH1 0x20 DUP3 ADD SWAP1 POP PUSH2 0x704 PUSH1 0x0 DUP4 ADD DUP5 PUSH2 0x62C JUMP JUMPDEST SWAP3 SWAP2 POP POP JUMP JUMPDEST PUSH1 0x0 PUSH2 0x714 PUSH2 0x725 JUMP JUMPDEST SWAP1 POP PUSH2 0x720 DUP3 DUP3 PUSH2 0x82C JUMP JUMPDEST SWAP2 SWAP1 POP JUMP JUMPDEST PUSH1 0x0 PUSH1 0x40 MLOAD SWAP1 POP SWAP1 JUMP JUMPDEST PUSH1 0x0 PUSH8 0xFFFFFFFFFFFFFFFF DUP3 GT ISZERO PUSH2 0x74A JUMPI PUSH2 0x749 PUSH2 0x88C JUMP JUMPDEST JUMPDEST PUSH2 0x753 DUP3 PUSH2 0x8CF JUMP JUMPDEST SWAP1 POP PUSH1 0x20 DUP2 ADD SWAP1 POP SWAP2 SWAP1 POP JUMP JUMPDEST PUSH1 0x0 DUP2 MLOAD SWAP1 POP SWAP2 SWAP1 POP JUMP JUMPDEST PUSH1 0x0 DUP3 DUP3 MSTORE PUSH1 0x20 DUP3 ADD SWAP1 POP SWAP3 SWAP2 POP POP JUMP JUMPDEST PUSH1 0x0 PUSH2 0x787 DUP3 PUSH2 0x78E JUMP JUMPDEST SWAP1 POP SWAP2 SWAP1 POP JUMP JUMPDEST PUSH1 0x0 PUSH20 0xFFFFFFFFFFFFFFFFFFFFFFFFFFFFFFFFFFFFFFFF DUP3 AND SWAP1 POP SWAP2 SWAP1 POP JUMP JUMPDEST PUSH1 0x0 DUP2 SWAP1 POP SWAP2 SWAP1 POP JUMP JUMPDEST DUP3 DUP2 DUP4 CALLDATACOPY PUSH1 0x0 DUP4 DUP4 ADD MSTORE POP POP POP JUMP JUMPDEST PUSH1 0x0 JUMPDEST DUP4 DUP2 LT ISZERO PUSH2 0x7E5 JUMPI DUP1 DUP3 ADD MLOAD DUP2 DUP5 ADD MSTORE PUSH1 0x20 DUP2 ADD SWAP1 POP PUSH2 0x7CA JUMP JUMPDEST DUP4 DUP2 GT ISZERO PUSH2 0x7F4 JUMPI PUSH1 0x0 DUP5 DUP5 ADD MSTORE JUMPDEST POP POP POP POP JUMP JUMPDEST PUSH1 0x0 PUSH1 0x2 DUP3 DIV SWAP1 POP PUSH1 0x1 DUP3 AND DUP1 PUSH2 0x812 JUMPI PUSH1 0x7F DUP3 AND SWAP2 POP JUMPDEST PUSH1 0x20 DUP3 LT DUP2 EQ ISZERO PUSH2 0x826 JUMPI PUSH2 0x825 PUSH2 0x85D JUMP JUMPDEST JUMPDEST POP SWAP2 SWAP1 POP JUMP JUMPDEST PUSH2 0x835 DUP3 PUSH2 0x8CF JUMP JUMPDEST DUP2 ADD DUP2 DUP2 LT PUSH8 0xFFFFFFFFFFFFFFFF DUP3 GT OR ISZERO PUSH2 0x854 JUMPI PUSH2 0x853 PUSH2 0x88C JUMP JUMPDEST JUMPDEST DUP1 PUSH1 0x40 MSTORE POP POP POP JUMP JUMPDEST PUSH32 0x4E487B7100000000000000000000000000000000000000000000000000000000 PUSH1 0x0 MSTORE PUSH1 0x22 PUSH1 0x4 MSTORE PUSH1 0x24 PUSH1 0x0 REVERT JUMPDEST PUSH32 0x4E487B7100000000000000000000000000000000000000000000000000000000 PUSH1 0x0 MSTORE PUSH1 0x41 PUSH1 0x4 MSTORE PUSH1 0x24 PUSH1 0x0 REVERT JUMPDEST PUSH1 0x0 DUP1 REVERT JUMPDEST PUSH1 0x0 DUP1 REVERT JUMPDEST PUSH1 0x0 DUP1 REVERT JUMPDEST PUSH1 0x0 DUP1 REVERT JUMPDEST PUSH1 0x0 PUSH1 0x1F NOT PUSH1 0x1F DUP4 ADD AND SWAP1 POP SWAP2 SWAP1 POP JUMP JUMPDEST PUSH32 0x596120746520656E6375656E74726173207265676973747261646F20656E2065 PUSH1 0x0 DUP3 ADD MSTORE PUSH32 0x6C2067796D000000000000000000000000000000000000000000000000000000 PUSH1 0x20 DUP3 ADD MSTORE POP JUMP JUMPDEST PUSH32 0x536F6C6F20656C2041646D696E6973747261646F722064656C2047796D207075 PUSH1 0x0 DUP3 ADD MSTORE PUSH32 0x65646520637265617220636C6173657300000000000000000000000000000000 PUSH1 0x20 DUP3 ADD MSTORE POP JUMP JUMPDEST PUSH2 0x987 DUP2 PUSH2 0x77C JUMP JUMPDEST DUP2 EQ PUSH2 0x992 JUMPI PUSH1 0x0 DUP1 REVERT JUMPDEST POP JUMP JUMPDEST PUSH2 0x99E DUP2 PUSH2 0x7AE JUMP JUMPDEST DUP2 EQ PUSH2 0x9A9 JUMPI PUSH1 0x0 DUP1 REVERT JUMPDEST POP JUMP INVALID LOG2 PUSH5 0x6970667358 0x22 SLT KECCAK256 ADD 0xC4 0x26 0xE8 0xB5 0x25 0xF 0xC6 0xB2 ORIGIN KECCAK256 0xC8 DUP9 EXP CALLDATASIZE 0xBE 0x4F 0x29 PUSH22 0xA242A1975489473C37EA4F48C364736F6C6343000807 STOP CALLER "
				},
				"gasEstimates": {
					"creation": {
						"codeDepositCost": "506000",
						"executionCost": "infinite",
						"totalCost": "infinite"
					},
					"external": {
						"ADMIN()": "infinite",
						"clases(address)": "infinite",
						"createClass(string,uint256)": "infinite",
						"getBalance()": "2666",
						"register(address,uint256)": "infinite",
						"users(address)": "2902"
					}
				},
				"methodIdentifiers": {
					"ADMIN()": "2a0acc6a",
					"clases(address)": "3db99f9e",
					"createClass(string,uint256)": "4852a212",
					"getBalance()": "12065fe0",
					"register(address,uint256)": "6d705ebb",
					"users(address)": "a87430ba"
				}
			},
			"storageLayout": {
				"storage": [
					{
						"astId": 33,
						"contract": "contracts/Gym_Contact.sol:gym",
						"label": "users",
						"offset": 0,
						"slot": "0",
						"type": "t_mapping(t_address,t_uint256)"
					},
					{
						"astId": 38,
						"contract": "contracts/Gym_Contact.sol:gym",
						"label": "clases",
						"offset": 0,
						"slot": "1",
						"type": "t_mapping(t_address,t_struct(Class)6_storage)"
					}
				],
				"types": {
					"t_address": {
						"encoding": "inplace",
						"label": "address",
						"numberOfBytes": "20"
					},
					"t_mapping(t_address,t_struct(Class)6_storage)": {
						"encoding": "mapping",
						"key": "t_address",
						"label": "mapping(address => struct gym.Class)",
						"numberOfBytes": "32",
						"value": "t_struct(Class)6_storage"
					},
					"t_mapping(t_address,t_uint256)": {
						"encoding": "mapping",
						"key": "t_address",
						"label": "mapping(address => uint256)",
						"numberOfBytes": "32",
						"value": "t_uint256"
					},
					"t_string_storage": {
						"encoding": "bytes",
						"label": "string",
						"numberOfBytes": "32"
					},
					"t_struct(Class)6_storage": {
						"encoding": "inplace",
						"label": "struct gym.Class",
						"members": [
							{
								"astId": 3,
								"contract": "contracts/Gym_Contact.sol:gym",
								"label": "name",
								"offset": 0,
								"slot": "0",
								"type": "t_string_storage"
							},
							{
								"astId": 5,
								"contract": "contracts/Gym_Contact.sol:gym",
								"label": "value",
								"offset": 0,
								"slot": "1",
								"type": "t_uint256"
							}
						],
						"numberOfBytes": "64"
					},
					"t_uint256": {
						"encoding": "inplace",
						"label": "uint256",
						"numberOfBytes": "32"
					}
				}
			},
			"userdoc": {
				"kind": "user",
				"methods": {},
				"version": 1
			}
		}
	}
}