{
	"contracts/Gym_Contact.sol": {
		"gym": {
			"abi": [
				{
					"inputs": [],
					"stateMutability": "nonpayable",
					"type": "constructor"
				},
				{
					"anonymous": false,
					"inputs": [
						{
							"indexed": false,
							"internalType": "string",
							"name": "name",
							"type": "string"
						},
						{
							"indexed": false,
							"internalType": "uint256",
							"name": "value",
							"type": "uint256"
						}
					],
					"name": "ClassCreated",
					"type": "event"
				},
				{
					"anonymous": false,
					"inputs": [
						{
							"indexed": false,
							"internalType": "address",
							"name": "user",
							"type": "address"
						},
						{
							"indexed": false,
							"internalType": "uint256",
							"name": "credits",
							"type": "uint256"
						}
					],
					"name": "Register",
					"type": "event"
				},
				{
					"inputs": [],
					"name": "ADMIN",
					"outputs": [
						{
							"internalType": "address",
							"name": "",
							"type": "address"
						}
					],
					"stateMutability": "view",
					"type": "function"
				},
				{
					"inputs": [
						{
							"internalType": "uint256",
							"name": "",
							"type": "uint256"
						}
					],
					"name": "class",
					"outputs": [
						{
							"internalType": "string",
							"name": "name",
							"type": "string"
						},
						{
							"internalType": "uint256",
							"name": "value",
							"type": "uint256"
						}
					],
					"stateMutability": "view",
					"type": "function"
				},
				{
					"inputs": [
						{
							"internalType": "string",
							"name": "_name",
							"type": "string"
						},
						{
							"internalType": "uint256",
							"name": "_value",
							"type": "uint256"
						}
					],
					"name": "createClass",
					"outputs": [],
					"stateMutability": "nonpayable",
					"type": "function"
				},
				{
					"inputs": [],
					"name": "getBalance",
					"outputs": [
						{
							"internalType": "address",
							"name": "",
							"type": "address"
						},
						{
							"internalType": "uint256",
							"name": "",
							"type": "uint256"
						}
					],
					"stateMutability": "view",
					"type": "function"
				},
				{
					"inputs": [
						{
							"internalType": "uint256",
							"name": "_index",
							"type": "uint256"
						}
					],
					"name": "getClass",
					"outputs": [
						{
							"internalType": "string",
							"name": "name",
							"type": "string"
						},
						{
							"internalType": "uint256",
							"name": "value",
							"type": "uint256"
						}
					],
					"stateMutability": "view",
					"type": "function"
				},
				{
					"inputs": [
						{
							"internalType": "address",
							"name": "_address",
							"type": "address"
						},
						{
							"internalType": "uint256",
							"name": "_credits",
							"type": "uint256"
						}
					],
					"name": "register",
					"outputs": [],
					"stateMutability": "nonpayable",
					"type": "function"
				},
				{
					"inputs": [
						{
							"internalType": "uint256",
							"name": "_index",
							"type": "uint256"
						}
					],
					"name": "removeClass",
					"outputs": [],
					"stateMutability": "nonpayable",
					"type": "function"
				},
				{
					"inputs": [
						{
							"internalType": "uint256",
							"name": "_index",
							"type": "uint256"
						}
					],
					"name": "takeClass",
					"outputs": [],
					"stateMutability": "nonpayable",
					"type": "function"
				},
				{
					"inputs": [
						{
							"internalType": "uint256",
							"name": "_index",
							"type": "uint256"
						},
						{
							"internalType": "string",
							"name": "_name",
							"type": "string"
						},
						{
							"internalType": "uint256",
							"name": "_value",
							"type": "uint256"
						}
					],
					"name": "updateClass",
					"outputs": [],
					"stateMutability": "nonpayable",
					"type": "function"
				},
				{
					"inputs": [
						{
							"internalType": "address",
							"name": "",
							"type": "address"
						}
					],
					"name": "users",
					"outputs": [
						{
							"internalType": "uint256",
							"name": "",
							"type": "uint256"
						}
					],
					"stateMutability": "view",
					"type": "function"
				}
			],
			"devdoc": {
				"kind": "dev",
				"methods": {},
				"version": 1
			},
			"evm": {
				"assembly": "    /* \"contracts/Gym_Contact.sol\":70:2600  contract gym {\r... */\n  mstore(0x40, 0xa0)\n    /* \"contracts/Gym_Contact.sol\":431:482  constructor() {\r... */\n  callvalue\n  dup1\n  iszero\n  tag_1\n  jumpi\n  0x00\n  dup1\n  revert\ntag_1:\n  pop\n    /* \"contracts/Gym_Contact.sol\":464:474  msg.sender */\n  caller\n    /* \"contracts/Gym_Contact.sol\":456:474  ADMIN = msg.sender */\n  0xffffffffffffffffffffffffffffffffffffffff\n  and\n  0x80\n  dup2\n  0xffffffffffffffffffffffffffffffffffffffff\n  and\n  0x60\n  shl\n  dup2\n  mstore\n  pop\n  pop\n    /* \"contracts/Gym_Contact.sol\":70:2600  contract gym {\r... */\n  shr(0x60, mload(0x80))\n  codecopy(0x00, dataOffset(sub_0), dataSize(sub_0))\n  0x00\n  assignImmutable(\"0x731dc163f73d31d8c68f9917ce4ff967753939f70432973c04fd2c2a48148607\")\n  return(0x00, dataSize(sub_0))\nstop\n\nsub_0: assembly {\n        /* \"contracts/Gym_Contact.sol\":70:2600  contract gym {\r... */\n      mstore(0x40, 0x80)\n      callvalue\n      dup1\n      iszero\n      tag_1\n      jumpi\n      0x00\n      dup1\n      revert\n    tag_1:\n      pop\n      jumpi(tag_2, lt(calldatasize, 0x04))\n      shr(0xe0, calldataload(0x00))\n      dup1\n      0x512d62df\n      gt\n      tag_13\n      jumpi\n      dup1\n      0x512d62df\n      eq\n      tag_8\n      jumpi\n      dup1\n      0x6d705ebb\n      eq\n      tag_9\n      jumpi\n      dup1\n      0x72c30f45\n      eq\n      tag_10\n      jumpi\n      dup1\n      0x7aed8136\n      eq\n      tag_11\n      jumpi\n      dup1\n      0xa87430ba\n      eq\n      tag_12\n      jumpi\n      jump(tag_2)\n    tag_13:\n      dup1\n      0x12065fe0\n      eq\n      tag_3\n      jumpi\n      dup1\n      0x1e8be099\n      eq\n      tag_4\n      jumpi\n      dup1\n      0x2a0acc6a\n      eq\n      tag_5\n      jumpi\n      dup1\n      0x3613a9f4\n      eq\n      tag_6\n      jumpi\n      dup1\n      0x4852a212\n      eq\n      tag_7\n      jumpi\n    tag_2:\n      0x00\n      dup1\n      revert\n        /* \"contracts/Gym_Contact.sol\":1971:2084  function getBalance() public view returns(address, uint){\r... */\n    tag_3:\n      tag_14\n      tag_15\n      jump\t// in\n    tag_14:\n      mload(0x40)\n      tag_16\n      swap3\n      swap2\n      swap1\n      tag_17\n      jump\t// in\n    tag_16:\n      mload(0x40)\n      dup1\n      swap2\n      sub\n      swap1\n      return\n        /* \"contracts/Gym_Contact.sol\":1073:1357  function updateClass(uint _index, string memory _name, uint _value) public {\r... */\n    tag_4:\n      tag_18\n      0x04\n      dup1\n      calldatasize\n      sub\n      dup2\n      add\n      swap1\n      tag_19\n      swap2\n      swap1\n      tag_20\n      jump\t// in\n    tag_19:\n      tag_21\n      jump\t// in\n    tag_18:\n      stop\n        /* \"contracts/Gym_Contact.sol\":392:422  address immutable public ADMIN */\n    tag_5:\n      tag_22\n      tag_23\n      jump\t// in\n    tag_22:\n      mload(0x40)\n      tag_24\n      swap2\n      swap1\n      tag_25\n      jump\t// in\n    tag_24:\n      mload(0x40)\n      dup1\n      swap2\n      sub\n      swap1\n      return\n        /* \"contracts/Gym_Contact.sol\":758:778  Class[] public class */\n    tag_6:\n      tag_26\n      0x04\n      dup1\n      calldatasize\n      sub\n      dup2\n      add\n      swap1\n      tag_27\n      swap2\n      swap1\n      tag_28\n      jump\t// in\n    tag_27:\n      tag_29\n      jump\t// in\n    tag_26:\n      mload(0x40)\n      tag_30\n      swap3\n      swap2\n      swap1\n      tag_31\n      jump\t// in\n    tag_30:\n      mload(0x40)\n      dup1\n      swap2\n      sub\n      swap1\n      return\n        /* \"contracts/Gym_Contact.sol\":818:1065  function createClass(string memory _name, uint _value) public {\r... */\n    tag_7:\n      tag_32\n      0x04\n      dup1\n      calldatasize\n      sub\n      dup2\n      add\n      swap1\n      tag_33\n      swap2\n      swap1\n      tag_34\n      jump\t// in\n    tag_33:\n      tag_35\n      jump\t// in\n    tag_32:\n      stop\n        /* \"contracts/Gym_Contact.sol\":2092:2343  function getClass(uint _index) public view returns (string memory name, uint value) {\r... */\n    tag_8:\n      tag_36\n      0x04\n      dup1\n      calldatasize\n      sub\n      dup2\n      add\n      swap1\n      tag_37\n      swap2\n      swap1\n      tag_28\n      jump\t// in\n    tag_37:\n      tag_38\n      jump\t// in\n    tag_36:\n      mload(0x40)\n      tag_39\n      swap3\n      swap2\n      swap1\n      tag_31\n      jump\t// in\n    tag_39:\n      mload(0x40)\n      dup1\n      swap2\n      sub\n      swap1\n      return\n        /* \"contracts/Gym_Contact.sol\":1577:1963  function register(address _address, uint _credits) public {\r... */\n    tag_9:\n      tag_40\n      0x04\n      dup1\n      calldatasize\n      sub\n      dup2\n      add\n      swap1\n      tag_41\n      swap2\n      swap1\n      tag_42\n      jump\t// in\n    tag_41:\n      tag_43\n      jump\t// in\n    tag_40:\n      stop\n        /* \"contracts/Gym_Contact.sol\":1365:1539  function removeClass(uint _index) public {\r... */\n    tag_10:\n      tag_44\n      0x04\n      dup1\n      calldatasize\n      sub\n      dup2\n      add\n      swap1\n      tag_45\n      swap2\n      swap1\n      tag_28\n      jump\t// in\n    tag_45:\n      tag_46\n      jump\t// in\n    tag_44:\n      stop\n        /* \"contracts/Gym_Contact.sol\":2351:2595  function takeClass(uint _index) public {\r... */\n    tag_11:\n      tag_47\n      0x04\n      dup1\n      calldatasize\n      sub\n      dup2\n      add\n      swap1\n      tag_48\n      swap2\n      swap1\n      tag_28\n      jump\t// in\n    tag_48:\n      tag_49\n      jump\t// in\n    tag_47:\n      stop\n        /* \"contracts/Gym_Contact.sol\":506:543  mapping(address => uint) public users */\n    tag_12:\n      tag_50\n      0x04\n      dup1\n      calldatasize\n      sub\n      dup2\n      add\n      swap1\n      tag_51\n      swap2\n      swap1\n      tag_52\n      jump\t// in\n    tag_51:\n      tag_53\n      jump\t// in\n    tag_50:\n      mload(0x40)\n      tag_54\n      swap2\n      swap1\n      tag_55\n      jump\t// in\n    tag_54:\n      mload(0x40)\n      dup1\n      swap2\n      sub\n      swap1\n      return\n        /* \"contracts/Gym_Contact.sol\":1971:2084  function getBalance() public view returns(address, uint){\r... */\n    tag_15:\n        /* \"contracts/Gym_Contact.sol\":2013:2020  address */\n      0x00\n        /* \"contracts/Gym_Contact.sol\":2022:2026  uint */\n      dup1\n        /* \"contracts/Gym_Contact.sol\":2046:2056  msg.sender */\n      caller\n        /* \"contracts/Gym_Contact.sol\":2058:2063  users */\n      0x00\n        /* \"contracts/Gym_Contact.sol\":2058:2075  users[msg.sender] */\n      dup1\n        /* \"contracts/Gym_Contact.sol\":2064:2074  msg.sender */\n      caller\n        /* \"contracts/Gym_Contact.sol\":2058:2075  users[msg.sender] */\n      0xffffffffffffffffffffffffffffffffffffffff\n      and\n      0xffffffffffffffffffffffffffffffffffffffff\n      and\n      dup2\n      mstore\n      0x20\n      add\n      swap1\n      dup2\n      mstore\n      0x20\n      add\n      0x00\n      keccak256\n      sload\n        /* \"contracts/Gym_Contact.sol\":2038:2076  return (msg.sender, users[msg.sender]) */\n      swap2\n      pop\n      swap2\n      pop\n        /* \"contracts/Gym_Contact.sol\":1971:2084  function getBalance() public view returns(address, uint){\r... */\n      swap1\n      swap2\n      jump\t// out\n        /* \"contracts/Gym_Contact.sol\":1073:1357  function updateClass(uint _index, string memory _name, uint _value) public {\r... */\n    tag_21:\n        /* \"contracts/Gym_Contact.sol\":1176:1186  msg.sender */\n      caller\n        /* \"contracts/Gym_Contact.sol\":1167:1186  ADMIN == msg.sender */\n      0xffffffffffffffffffffffffffffffffffffffff\n      and\n        /* \"contracts/Gym_Contact.sol\":1167:1172  ADMIN */\n      immutable(\"0x731dc163f73d31d8c68f9917ce4ff967753939f70432973c04fd2c2a48148607\")\n        /* \"contracts/Gym_Contact.sol\":1167:1186  ADMIN == msg.sender */\n      0xffffffffffffffffffffffffffffffffffffffff\n      and\n      eq\n        /* \"contracts/Gym_Contact.sol\":1159:1243  require(ADMIN == msg.sender, \"Solo el Administrador del Gym puede modificar clases\") */\n      tag_58\n      jumpi\n      mload(0x40)\n      0x08c379a000000000000000000000000000000000000000000000000000000000\n      dup2\n      mstore\n      0x04\n      add\n      tag_59\n      swap1\n      tag_60\n      jump\t// in\n    tag_59:\n      mload(0x40)\n      dup1\n      swap2\n      sub\n      swap1\n      revert\n    tag_58:\n        /* \"contracts/Gym_Contact.sol\":1254:1273  Class storage clase */\n      0x00\n        /* \"contracts/Gym_Contact.sol\":1276:1281  class */\n      0x01\n        /* \"contracts/Gym_Contact.sol\":1282:1288  _index */\n      dup5\n        /* \"contracts/Gym_Contact.sol\":1276:1289  class[_index] */\n      dup2\n      sload\n      dup2\n      lt\n      tag_61\n      jumpi\n      tag_62\n      tag_63\n      jump\t// in\n    tag_62:\n    tag_61:\n      swap1\n      0x00\n      mstore\n      keccak256(0x00, 0x20)\n      swap1\n      0x02\n      mul\n      add\n        /* \"contracts/Gym_Contact.sol\":1254:1289  Class storage clase = class[_index] */\n      swap1\n      pop\n        /* \"contracts/Gym_Contact.sol\":1313:1318  _name */\n      dup3\n        /* \"contracts/Gym_Contact.sol\":1300:1305  clase */\n      dup2\n        /* \"contracts/Gym_Contact.sol\":1300:1310  clase.name */\n      0x00\n      add\n        /* \"contracts/Gym_Contact.sol\":1300:1318  clase.name = _name */\n      swap1\n      dup1\n      mload\n      swap1\n      0x20\n      add\n      swap1\n      tag_65\n      swap3\n      swap2\n      swap1\n      tag_66\n      jump\t// in\n    tag_65:\n      pop\n        /* \"contracts/Gym_Contact.sol\":1343:1349  _value */\n      dup2\n        /* \"contracts/Gym_Contact.sol\":1329:1334  clase */\n      dup2\n        /* \"contracts/Gym_Contact.sol\":1329:1340  clase.value */\n      0x01\n      add\n        /* \"contracts/Gym_Contact.sol\":1329:1349  clase.value = _value */\n      dup2\n      swap1\n      sstore\n      pop\n        /* \"contracts/Gym_Contact.sol\":1148:1357  {\r... */\n      pop\n        /* \"contracts/Gym_Contact.sol\":1073:1357  function updateClass(uint _index, string memory _name, uint _value) public {\r... */\n      pop\n      pop\n      pop\n      jump\t// out\n        /* \"contracts/Gym_Contact.sol\":392:422  address immutable public ADMIN */\n    tag_23:\n      immutable(\"0x731dc163f73d31d8c68f9917ce4ff967753939f70432973c04fd2c2a48148607\")\n      dup2\n      jump\t// out\n        /* \"contracts/Gym_Contact.sol\":758:778  Class[] public class */\n    tag_29:\n      0x01\n      dup2\n      dup2\n      sload\n      dup2\n      lt\n      tag_67\n      jumpi\n      0x00\n      dup1\n      revert\n    tag_67:\n      swap1\n      0x00\n      mstore\n      keccak256(0x00, 0x20)\n      swap1\n      0x02\n      mul\n      add\n      0x00\n      swap2\n      pop\n      swap1\n      pop\n      dup1\n      0x00\n      add\n      dup1\n      sload\n      tag_69\n      swap1\n      tag_70\n      jump\t// in\n    tag_69:\n      dup1\n      0x1f\n      add\n      0x20\n      dup1\n      swap2\n      div\n      mul\n      0x20\n      add\n      mload(0x40)\n      swap1\n      dup2\n      add\n      0x40\n      mstore\n      dup1\n      swap3\n      swap2\n      swap1\n      dup2\n      dup2\n      mstore\n      0x20\n      add\n      dup3\n      dup1\n      sload\n      tag_71\n      swap1\n      tag_70\n      jump\t// in\n    tag_71:\n      dup1\n      iszero\n      tag_72\n      jumpi\n      dup1\n      0x1f\n      lt\n      tag_73\n      jumpi\n      0x0100\n      dup1\n      dup4\n      sload\n      div\n      mul\n      dup4\n      mstore\n      swap2\n      0x20\n      add\n      swap2\n      jump(tag_72)\n    tag_73:\n      dup3\n      add\n      swap2\n      swap1\n      0x00\n      mstore\n      keccak256(0x00, 0x20)\n      swap1\n    tag_74:\n      dup2\n      sload\n      dup2\n      mstore\n      swap1\n      0x01\n      add\n      swap1\n      0x20\n      add\n      dup1\n      dup4\n      gt\n      tag_74\n      jumpi\n      dup3\n      swap1\n      sub\n      0x1f\n      and\n      dup3\n      add\n      swap2\n    tag_72:\n      pop\n      pop\n      pop\n      pop\n      pop\n      swap1\n      dup1\n      0x01\n      add\n      sload\n      swap1\n      pop\n      dup3\n      jump\t// out\n        /* \"contracts/Gym_Contact.sol\":818:1065  function createClass(string memory _name, uint _value) public {\r... */\n    tag_35:\n        /* \"contracts/Gym_Contact.sol\":908:918  msg.sender */\n      caller\n        /* \"contracts/Gym_Contact.sol\":899:918  ADMIN == msg.sender */\n      0xffffffffffffffffffffffffffffffffffffffff\n      and\n        /* \"contracts/Gym_Contact.sol\":899:904  ADMIN */\n      immutable(\"0x731dc163f73d31d8c68f9917ce4ff967753939f70432973c04fd2c2a48148607\")\n        /* \"contracts/Gym_Contact.sol\":899:918  ADMIN == msg.sender */\n      0xffffffffffffffffffffffffffffffffffffffff\n      and\n      eq\n        /* \"contracts/Gym_Contact.sol\":891:971  require(ADMIN == msg.sender, \"Solo el Administrador del Gym puede crear clases\") */\n      tag_76\n      jumpi\n      mload(0x40)\n      0x08c379a000000000000000000000000000000000000000000000000000000000\n      dup2\n      mstore\n      0x04\n      add\n      tag_77\n      swap1\n      tag_78\n      jump\t// in\n    tag_77:\n      mload(0x40)\n      dup1\n      swap2\n      sub\n      swap1\n      revert\n    tag_76:\n        /* \"contracts/Gym_Contact.sol\":982:987  class */\n      0x01\n        /* \"contracts/Gym_Contact.sol\":993:1013  Class(_name, _value) */\n      mload(0x40)\n      dup1\n      0x40\n      add\n      0x40\n      mstore\n      dup1\n        /* \"contracts/Gym_Contact.sol\":999:1004  _name */\n      dup5\n        /* \"contracts/Gym_Contact.sol\":993:1013  Class(_name, _value) */\n      dup2\n      mstore\n      0x20\n      add\n        /* \"contracts/Gym_Contact.sol\":1006:1012  _value */\n      dup4\n        /* \"contracts/Gym_Contact.sol\":993:1013  Class(_name, _value) */\n      dup2\n      mstore\n      pop\n        /* \"contracts/Gym_Contact.sol\":982:1014  class.push(Class(_name, _value)) */\n      swap1\n      dup1\n      0x01\n      dup2\n      sload\n      add\n      dup1\n      dup3\n      sstore\n      dup1\n      swap2\n      pop\n      pop\n      0x01\n      swap1\n      sub\n      swap1\n      0x00\n      mstore\n      keccak256(0x00, 0x20)\n      swap1\n      0x02\n      mul\n      add\n      0x00\n      swap1\n      swap2\n      swap1\n      swap2\n      swap1\n      swap2\n      pop\n      0x00\n      dup3\n      add\n      mload\n      dup2\n      0x00\n      add\n      swap1\n      dup1\n      mload\n      swap1\n      0x20\n      add\n      swap1\n      tag_80\n      swap3\n      swap2\n      swap1\n      tag_66\n      jump\t// in\n    tag_80:\n      pop\n      0x20\n      dup3\n      add\n      mload\n      dup2\n      0x01\n      add\n      sstore\n      pop\n      pop\n        /* \"contracts/Gym_Contact.sol\":1030:1057  ClassCreated(_name, _value) */\n      0x14d49e3ea4f348b7f368906dfe1a63055c7822d622a61672a35a55ae97a768f9\n        /* \"contracts/Gym_Contact.sol\":1043:1048  _name */\n      dup3\n        /* \"contracts/Gym_Contact.sol\":1050:1056  _value */\n      dup3\n        /* \"contracts/Gym_Contact.sol\":1030:1057  ClassCreated(_name, _value) */\n      mload(0x40)\n      tag_81\n      swap3\n      swap2\n      swap1\n      tag_31\n      jump\t// in\n    tag_81:\n      mload(0x40)\n      dup1\n      swap2\n      sub\n      swap1\n      log1\n        /* \"contracts/Gym_Contact.sol\":818:1065  function createClass(string memory _name, uint _value) public {\r... */\n      pop\n      pop\n      jump\t// out\n        /* \"contracts/Gym_Contact.sol\":2092:2343  function getClass(uint _index) public view returns (string memory name, uint value) {\r... */\n    tag_38:\n        /* \"contracts/Gym_Contact.sol\":2144:2162  string memory name */\n      0x60\n        /* \"contracts/Gym_Contact.sol\":2164:2174  uint value */\n      0x00\n        /* \"contracts/Gym_Contact.sol\":2187:2206  Class storage clase */\n      dup1\n        /* \"contracts/Gym_Contact.sol\":2209:2214  class */\n      0x01\n        /* \"contracts/Gym_Contact.sol\":2215:2221  _index */\n      dup5\n        /* \"contracts/Gym_Contact.sol\":2209:2222  class[_index] */\n      dup2\n      sload\n      dup2\n      lt\n      tag_83\n      jumpi\n      tag_84\n      tag_63\n      jump\t// in\n    tag_84:\n    tag_83:\n      swap1\n      0x00\n      mstore\n      keccak256(0x00, 0x20)\n      swap1\n      0x02\n      mul\n      add\n        /* \"contracts/Gym_Contact.sol\":2187:2222  Class storage clase = class[_index] */\n      swap1\n      pop\n        /* \"contracts/Gym_Contact.sol\":2256:2257  0 */\n      0x00\n        /* \"contracts/Gym_Contact.sol\":2241:2246  clase */\n      dup2\n        /* \"contracts/Gym_Contact.sol\":2241:2252  clase.value */\n      0x01\n      add\n      sload\n        /* \"contracts/Gym_Contact.sol\":2241:2257  clase.value == 0 */\n      eq\n        /* \"contracts/Gym_Contact.sol\":2233:2292  require(clase.value == 0, \"No existe una clase con ese Id\") */\n      tag_86\n      jumpi\n      mload(0x40)\n      0x08c379a000000000000000000000000000000000000000000000000000000000\n      dup2\n      mstore\n      0x04\n      add\n      tag_87\n      swap1\n      tag_88\n      jump\t// in\n    tag_87:\n      mload(0x40)\n      dup1\n      swap2\n      sub\n      swap1\n      revert\n    tag_86:\n        /* \"contracts/Gym_Contact.sol\":2311:2316  clase */\n      dup1\n        /* \"contracts/Gym_Contact.sol\":2311:2321  clase.name */\n      0x00\n      add\n        /* \"contracts/Gym_Contact.sol\":2323:2328  clase */\n      dup2\n        /* \"contracts/Gym_Contact.sol\":2323:2334  clase.value */\n      0x01\n      add\n      sload\n        /* \"contracts/Gym_Contact.sol\":2303:2335  return (clase.name, clase.value) */\n      dup2\n      dup1\n      sload\n      tag_89\n      swap1\n      tag_70\n      jump\t// in\n    tag_89:\n      dup1\n      0x1f\n      add\n      0x20\n      dup1\n      swap2\n      div\n      mul\n      0x20\n      add\n      mload(0x40)\n      swap1\n      dup2\n      add\n      0x40\n      mstore\n      dup1\n      swap3\n      swap2\n      swap1\n      dup2\n      dup2\n      mstore\n      0x20\n      add\n      dup3\n      dup1\n      sload\n      tag_90\n      swap1\n      tag_70\n      jump\t// in\n    tag_90:\n      dup1\n      iszero\n      tag_91\n      jumpi\n      dup1\n      0x1f\n      lt\n      tag_92\n      jumpi\n      0x0100\n      dup1\n      dup4\n      sload\n      div\n      mul\n      dup4\n      mstore\n      swap2\n      0x20\n      add\n      swap2\n      jump(tag_91)\n    tag_92:\n      dup3\n      add\n      swap2\n      swap1\n      0x00\n      mstore\n      keccak256(0x00, 0x20)\n      swap1\n    tag_93:\n      dup2\n      sload\n      dup2\n      mstore\n      swap1\n      0x01\n      add\n      swap1\n      0x20\n      add\n      dup1\n      dup4\n      gt\n      tag_93\n      jumpi\n      dup3\n      swap1\n      sub\n      0x1f\n      and\n      dup3\n      add\n      swap2\n    tag_91:\n      pop\n      pop\n      pop\n      pop\n      pop\n      swap2\n      pop\n      swap3\n      pop\n      swap3\n      pop\n      pop\n        /* \"contracts/Gym_Contact.sol\":2092:2343  function getClass(uint _index) public view returns (string memory name, uint value) {\r... */\n      swap2\n      pop\n      swap2\n      jump\t// out\n        /* \"contracts/Gym_Contact.sol\":1577:1963  function register(address _address, uint _credits) public {\r... */\n    tag_43:\n        /* \"contracts/Gym_Contact.sol\":1778:1779  0 */\n      0x00\n        /* \"contracts/Gym_Contact.sol\":1757:1762  users */\n      dup1\n        /* \"contracts/Gym_Contact.sol\":1757:1774  users[msg.sender] */\n      0x00\n        /* \"contracts/Gym_Contact.sol\":1763:1773  msg.sender */\n      caller\n        /* \"contracts/Gym_Contact.sol\":1757:1774  users[msg.sender] */\n      0xffffffffffffffffffffffffffffffffffffffff\n      and\n      0xffffffffffffffffffffffffffffffffffffffff\n      and\n      dup2\n      mstore\n      0x20\n      add\n      swap1\n      dup2\n      mstore\n      0x20\n      add\n      0x00\n      keccak256\n      sload\n        /* \"contracts/Gym_Contact.sol\":1757:1779  users[msg.sender] == 0 */\n      eq\n        /* \"contracts/Gym_Contact.sol\":1749:1821  require(users[msg.sender] == 0, \"Ya te encuentras registrado en el gym\") */\n      tag_95\n      jumpi\n      mload(0x40)\n      0x08c379a000000000000000000000000000000000000000000000000000000000\n      dup2\n      mstore\n      0x04\n      add\n      tag_96\n      swap1\n      tag_97\n      jump\t// in\n    tag_96:\n      mload(0x40)\n      dup1\n      swap2\n      sub\n      swap1\n      revert\n    tag_95:\n        /* \"contracts/Gym_Contact.sol\":1852:1860  _credits */\n      dup1\n        /* \"contracts/Gym_Contact.sol\":1832:1837  users */\n      0x00\n        /* \"contracts/Gym_Contact.sol\":1832:1849  users[msg.sender] */\n      dup1\n        /* \"contracts/Gym_Contact.sol\":1838:1848  msg.sender */\n      caller\n        /* \"contracts/Gym_Contact.sol\":1832:1849  users[msg.sender] */\n      0xffffffffffffffffffffffffffffffffffffffff\n      and\n      0xffffffffffffffffffffffffffffffffffffffff\n      and\n      dup2\n      mstore\n      0x20\n      add\n      swap1\n      dup2\n      mstore\n      0x20\n      add\n      0x00\n      keccak256\n        /* \"contracts/Gym_Contact.sol\":1832:1860  users[msg.sender] = _credits */\n      dup2\n      swap1\n      sstore\n      pop\n        /* \"contracts/Gym_Contact.sol\":1876:1904  Register(_address, _credits) */\n      0x7dc6ab80cc84c043b7b8d4fcafc802187470087f7ea7fccd2e17aecd0256a1\n        /* \"contracts/Gym_Contact.sol\":1885:1893  _address */\n      dup3\n        /* \"contracts/Gym_Contact.sol\":1895:1903  _credits */\n      dup3\n        /* \"contracts/Gym_Contact.sol\":1876:1904  Register(_address, _credits) */\n      mload(0x40)\n      tag_98\n      swap3\n      swap2\n      swap1\n      tag_17\n      jump\t// in\n    tag_98:\n      mload(0x40)\n      dup1\n      swap2\n      sub\n      swap1\n      log1\n        /* \"contracts/Gym_Contact.sol\":1577:1963  function register(address _address, uint _credits) public {\r... */\n      pop\n      pop\n      jump\t// out\n        /* \"contracts/Gym_Contact.sol\":1365:1539  function removeClass(uint _index) public {\r... */\n    tag_46:\n        /* \"contracts/Gym_Contact.sol\":1434:1444  msg.sender */\n      caller\n        /* \"contracts/Gym_Contact.sol\":1425:1444  ADMIN == msg.sender */\n      0xffffffffffffffffffffffffffffffffffffffff\n      and\n        /* \"contracts/Gym_Contact.sol\":1425:1430  ADMIN */\n      immutable(\"0x731dc163f73d31d8c68f9917ce4ff967753939f70432973c04fd2c2a48148607\")\n        /* \"contracts/Gym_Contact.sol\":1425:1444  ADMIN == msg.sender */\n      0xffffffffffffffffffffffffffffffffffffffff\n      and\n      eq\n        /* \"contracts/Gym_Contact.sol\":1417:1500  require(ADMIN == msg.sender, \"Solo el Administrador del Gym puede eliminar clases\") */\n      tag_100\n      jumpi\n      mload(0x40)\n      0x08c379a000000000000000000000000000000000000000000000000000000000\n      dup2\n      mstore\n      0x04\n      add\n      tag_101\n      swap1\n      tag_102\n      jump\t// in\n    tag_101:\n      mload(0x40)\n      dup1\n      swap2\n      sub\n      swap1\n      revert\n    tag_100:\n        /* \"contracts/Gym_Contact.sol\":1518:1523  class */\n      0x01\n        /* \"contracts/Gym_Contact.sol\":1524:1530  _index */\n      dup2\n        /* \"contracts/Gym_Contact.sol\":1518:1531  class[_index] */\n      dup2\n      sload\n      dup2\n      lt\n      tag_103\n      jumpi\n      tag_104\n      tag_63\n      jump\t// in\n    tag_104:\n    tag_103:\n      swap1\n      0x00\n      mstore\n      keccak256(0x00, 0x20)\n      swap1\n      0x02\n      mul\n      add\n      0x00\n        /* \"contracts/Gym_Contact.sol\":1511:1531  delete class[_index] */\n      dup1\n      dup3\n      add\n      0x00\n      tag_106\n      swap2\n      swap1\n      tag_107\n      jump\t// in\n    tag_106:\n      0x01\n      dup3\n      add\n      0x00\n      swap1\n      sstore\n      pop\n      pop\n        /* \"contracts/Gym_Contact.sol\":1365:1539  function removeClass(uint _index) public {\r... */\n      pop\n      jump\t// out\n        /* \"contracts/Gym_Contact.sol\":2351:2595  function takeClass(uint _index) public {\r... */\n    tag_49:\n        /* \"contracts/Gym_Contact.sol\":2401:2420  Class storage clase */\n      0x00\n        /* \"contracts/Gym_Contact.sol\":2423:2428  class */\n      0x01\n        /* \"contracts/Gym_Contact.sol\":2429:2435  _index */\n      dup3\n        /* \"contracts/Gym_Contact.sol\":2423:2436  class[_index] */\n      dup2\n      sload\n      dup2\n      lt\n      tag_109\n      jumpi\n      tag_110\n      tag_63\n      jump\t// in\n    tag_110:\n    tag_109:\n      swap1\n      0x00\n      mstore\n      keccak256(0x00, 0x20)\n      swap1\n      0x02\n      mul\n      add\n        /* \"contracts/Gym_Contact.sol\":2401:2436  Class storage clase = class[_index] */\n      swap1\n      pop\n        /* \"contracts/Gym_Contact.sol\":2475:2480  clase */\n      dup1\n        /* \"contracts/Gym_Contact.sol\":2475:2486  clase.value */\n      0x01\n      add\n      sload\n        /* \"contracts/Gym_Contact.sol\":2455:2460  users */\n      0x00\n        /* \"contracts/Gym_Contact.sol\":2455:2472  users[msg.sender] */\n      dup1\n        /* \"contracts/Gym_Contact.sol\":2461:2471  msg.sender */\n      caller\n        /* \"contracts/Gym_Contact.sol\":2455:2472  users[msg.sender] */\n      0xffffffffffffffffffffffffffffffffffffffff\n      and\n      0xffffffffffffffffffffffffffffffffffffffff\n      and\n      dup2\n      mstore\n      0x20\n      add\n      swap1\n      dup2\n      mstore\n      0x20\n      add\n      0x00\n      keccak256\n      sload\n        /* \"contracts/Gym_Contact.sol\":2455:2486  users[msg.sender] > clase.value */\n      gt\n        /* \"contracts/Gym_Contact.sol\":2447:2521  require(users[msg.sender] > clase.value, \"No tienes creditos suficientes\") */\n      tag_112\n      jumpi\n      mload(0x40)\n      0x08c379a000000000000000000000000000000000000000000000000000000000\n      dup2\n      mstore\n      0x04\n      add\n      tag_113\n      swap1\n      tag_114\n      jump\t// in\n    tag_113:\n      mload(0x40)\n      dup1\n      swap2\n      sub\n      swap1\n      revert\n    tag_112:\n        /* \"contracts/Gym_Contact.sol\":2553:2558  clase */\n      dup1\n        /* \"contracts/Gym_Contact.sol\":2553:2564  clase.value */\n      0x01\n      add\n      sload\n        /* \"contracts/Gym_Contact.sol\":2532:2537  users */\n      0x00\n        /* \"contracts/Gym_Contact.sol\":2532:2549  users[msg.sender] */\n      dup1\n        /* \"contracts/Gym_Contact.sol\":2538:2548  msg.sender */\n      caller\n        /* \"contracts/Gym_Contact.sol\":2532:2549  users[msg.sender] */\n      0xffffffffffffffffffffffffffffffffffffffff\n      and\n      0xffffffffffffffffffffffffffffffffffffffff\n      and\n      dup2\n      mstore\n      0x20\n      add\n      swap1\n      dup2\n      mstore\n      0x20\n      add\n      0x00\n      keccak256\n      0x00\n        /* \"contracts/Gym_Contact.sol\":2532:2564  users[msg.sender] -= clase.value */\n      dup3\n      dup3\n      sload\n      tag_115\n      swap2\n      swap1\n      tag_116\n      jump\t// in\n    tag_115:\n      swap3\n      pop\n      pop\n      dup2\n      swap1\n      sstore\n      pop\n        /* \"contracts/Gym_Contact.sol\":2575:2587  getBalance() */\n      tag_117\n        /* \"contracts/Gym_Contact.sol\":2575:2585  getBalance */\n      tag_15\n        /* \"contracts/Gym_Contact.sol\":2575:2587  getBalance() */\n      jump\t// in\n    tag_117:\n      pop\n      pop\n        /* \"contracts/Gym_Contact.sol\":2390:2595  {\r... */\n      pop\n        /* \"contracts/Gym_Contact.sol\":2351:2595  function takeClass(uint _index) public {\r... */\n      pop\n      jump\t// out\n        /* \"contracts/Gym_Contact.sol\":506:543  mapping(address => uint) public users */\n    tag_53:\n      mstore(0x20, 0x00)\n      dup1\n      0x00\n      mstore\n      keccak256(0x00, 0x40)\n      0x00\n      swap2\n      pop\n      swap1\n      pop\n      sload\n      dup2\n      jump\t// out\n    tag_66:\n      dup3\n      dup1\n      sload\n      tag_118\n      swap1\n      tag_70\n      jump\t// in\n    tag_118:\n      swap1\n      0x00\n      mstore\n      keccak256(0x00, 0x20)\n      swap1\n      0x1f\n      add\n      0x20\n      swap1\n      div\n      dup2\n      add\n      swap3\n      dup3\n      tag_120\n      jumpi\n      0x00\n      dup6\n      sstore\n      jump(tag_119)\n    tag_120:\n      dup3\n      0x1f\n      lt\n      tag_121\n      jumpi\n      dup1\n      mload\n      not(0xff)\n      and\n      dup4\n      dup1\n      add\n      or\n      dup6\n      sstore\n      jump(tag_119)\n    tag_121:\n      dup3\n      dup1\n      add\n      0x01\n      add\n      dup6\n      sstore\n      dup3\n      iszero\n      tag_119\n      jumpi\n      swap2\n      dup3\n      add\n    tag_122:\n      dup3\n      dup2\n      gt\n      iszero\n      tag_123\n      jumpi\n      dup3\n      mload\n      dup3\n      sstore\n      swap2\n      0x20\n      add\n      swap2\n      swap1\n      0x01\n      add\n      swap1\n      jump(tag_122)\n    tag_123:\n    tag_119:\n      pop\n      swap1\n      pop\n      tag_124\n      swap2\n      swap1\n      tag_125\n      jump\t// in\n    tag_124:\n      pop\n      swap1\n      jump\t// out\n    tag_107:\n      pop\n      dup1\n      sload\n      tag_126\n      swap1\n      tag_70\n      jump\t// in\n    tag_126:\n      0x00\n      dup3\n      sstore\n      dup1\n      0x1f\n      lt\n      tag_128\n      jumpi\n      pop\n      jump(tag_127)\n    tag_128:\n      0x1f\n      add\n      0x20\n      swap1\n      div\n      swap1\n      0x00\n      mstore\n      keccak256(0x00, 0x20)\n      swap1\n      dup2\n      add\n      swap1\n      tag_129\n      swap2\n      swap1\n      tag_125\n      jump\t// in\n    tag_129:\n    tag_127:\n      pop\n      jump\t// out\n    tag_125:\n    tag_130:\n      dup1\n      dup3\n      gt\n      iszero\n      tag_131\n      jumpi\n      0x00\n      dup2\n      0x00\n      swap1\n      sstore\n      pop\n      0x01\n      add\n      jump(tag_130)\n    tag_131:\n      pop\n      swap1\n      jump\t// out\n        /* \"#utility.yul\":7:419   */\n    tag_133:\n        /* \"#utility.yul\":85:90   */\n      0x00\n        /* \"#utility.yul\":110:176   */\n      tag_135\n        /* \"#utility.yul\":126:175   */\n      tag_136\n        /* \"#utility.yul\":168:174   */\n      dup5\n        /* \"#utility.yul\":126:175   */\n      tag_137\n      jump\t// in\n    tag_136:\n        /* \"#utility.yul\":110:176   */\n      tag_138\n      jump\t// in\n    tag_135:\n        /* \"#utility.yul\":101:176   */\n      swap1\n      pop\n        /* \"#utility.yul\":199:205   */\n      dup3\n        /* \"#utility.yul\":192:197   */\n      dup2\n        /* \"#utility.yul\":185:206   */\n      mstore\n        /* \"#utility.yul\":237:241   */\n      0x20\n        /* \"#utility.yul\":230:235   */\n      dup2\n        /* \"#utility.yul\":226:242   */\n      add\n        /* \"#utility.yul\":275:278   */\n      dup5\n        /* \"#utility.yul\":266:272   */\n      dup5\n        /* \"#utility.yul\":261:264   */\n      dup5\n        /* \"#utility.yul\":257:273   */\n      add\n        /* \"#utility.yul\":254:279   */\n      gt\n        /* \"#utility.yul\":251:363   */\n      iszero\n      tag_139\n      jumpi\n        /* \"#utility.yul\":282:361   */\n      tag_140\n      tag_141\n      jump\t// in\n    tag_140:\n        /* \"#utility.yul\":251:363   */\n    tag_139:\n        /* \"#utility.yul\":372:413   */\n      tag_142\n        /* \"#utility.yul\":406:412   */\n      dup5\n        /* \"#utility.yul\":401:404   */\n      dup3\n        /* \"#utility.yul\":396:399   */\n      dup6\n        /* \"#utility.yul\":372:413   */\n      tag_143\n      jump\t// in\n    tag_142:\n        /* \"#utility.yul\":91:419   */\n      pop\n        /* \"#utility.yul\":7:419   */\n      swap4\n      swap3\n      pop\n      pop\n      pop\n      jump\t// out\n        /* \"#utility.yul\":425:564   */\n    tag_144:\n        /* \"#utility.yul\":471:476   */\n      0x00\n        /* \"#utility.yul\":509:515   */\n      dup2\n        /* \"#utility.yul\":496:516   */\n      calldataload\n        /* \"#utility.yul\":487:516   */\n      swap1\n      pop\n        /* \"#utility.yul\":525:558   */\n      tag_146\n        /* \"#utility.yul\":552:557   */\n      dup2\n        /* \"#utility.yul\":525:558   */\n      tag_147\n      jump\t// in\n    tag_146:\n        /* \"#utility.yul\":425:564   */\n      swap3\n      swap2\n      pop\n      pop\n      jump\t// out\n        /* \"#utility.yul\":584:924   */\n    tag_148:\n        /* \"#utility.yul\":640:645   */\n      0x00\n        /* \"#utility.yul\":689:692   */\n      dup3\n        /* \"#utility.yul\":682:686   */\n      0x1f\n        /* \"#utility.yul\":674:680   */\n      dup4\n        /* \"#utility.yul\":670:687   */\n      add\n        /* \"#utility.yul\":666:693   */\n      slt\n        /* \"#utility.yul\":656:778   */\n      tag_150\n      jumpi\n        /* \"#utility.yul\":697:776   */\n      tag_151\n      tag_152\n      jump\t// in\n    tag_151:\n        /* \"#utility.yul\":656:778   */\n    tag_150:\n        /* \"#utility.yul\":814:820   */\n      dup2\n        /* \"#utility.yul\":801:821   */\n      calldataload\n        /* \"#utility.yul\":839:918   */\n      tag_153\n        /* \"#utility.yul\":914:917   */\n      dup5\n        /* \"#utility.yul\":906:912   */\n      dup3\n        /* \"#utility.yul\":899:903   */\n      0x20\n        /* \"#utility.yul\":891:897   */\n      dup7\n        /* \"#utility.yul\":887:904   */\n      add\n        /* \"#utility.yul\":839:918   */\n      tag_133\n      jump\t// in\n    tag_153:\n        /* \"#utility.yul\":830:918   */\n      swap2\n      pop\n        /* \"#utility.yul\":646:924   */\n      pop\n        /* \"#utility.yul\":584:924   */\n      swap3\n      swap2\n      pop\n      pop\n      jump\t// out\n        /* \"#utility.yul\":930:1069   */\n    tag_154:\n        /* \"#utility.yul\":976:981   */\n      0x00\n        /* \"#utility.yul\":1014:1020   */\n      dup2\n        /* \"#utility.yul\":1001:1021   */\n      calldataload\n        /* \"#utility.yul\":992:1021   */\n      swap1\n      pop\n        /* \"#utility.yul\":1030:1063   */\n      tag_156\n        /* \"#utility.yul\":1057:1062   */\n      dup2\n        /* \"#utility.yul\":1030:1063   */\n      tag_157\n      jump\t// in\n    tag_156:\n        /* \"#utility.yul\":930:1069   */\n      swap3\n      swap2\n      pop\n      pop\n      jump\t// out\n        /* \"#utility.yul\":1075:1404   */\n    tag_52:\n        /* \"#utility.yul\":1134:1140   */\n      0x00\n        /* \"#utility.yul\":1183:1185   */\n      0x20\n        /* \"#utility.yul\":1171:1180   */\n      dup3\n        /* \"#utility.yul\":1162:1169   */\n      dup5\n        /* \"#utility.yul\":1158:1181   */\n      sub\n        /* \"#utility.yul\":1154:1186   */\n      slt\n        /* \"#utility.yul\":1151:1270   */\n      iszero\n      tag_159\n      jumpi\n        /* \"#utility.yul\":1189:1268   */\n      tag_160\n      tag_161\n      jump\t// in\n    tag_160:\n        /* \"#utility.yul\":1151:1270   */\n    tag_159:\n        /* \"#utility.yul\":1309:1310   */\n      0x00\n        /* \"#utility.yul\":1334:1387   */\n      tag_162\n        /* \"#utility.yul\":1379:1386   */\n      dup5\n        /* \"#utility.yul\":1370:1376   */\n      dup3\n        /* \"#utility.yul\":1359:1368   */\n      dup6\n        /* \"#utility.yul\":1355:1377   */\n      add\n        /* \"#utility.yul\":1334:1387   */\n      tag_144\n      jump\t// in\n    tag_162:\n        /* \"#utility.yul\":1324:1387   */\n      swap2\n      pop\n        /* \"#utility.yul\":1280:1397   */\n      pop\n        /* \"#utility.yul\":1075:1404   */\n      swap3\n      swap2\n      pop\n      pop\n      jump\t// out\n        /* \"#utility.yul\":1410:1884   */\n    tag_42:\n        /* \"#utility.yul\":1478:1484   */\n      0x00\n        /* \"#utility.yul\":1486:1492   */\n      dup1\n        /* \"#utility.yul\":1535:1537   */\n      0x40\n        /* \"#utility.yul\":1523:1532   */\n      dup4\n        /* \"#utility.yul\":1514:1521   */\n      dup6\n        /* \"#utility.yul\":1510:1533   */\n      sub\n        /* \"#utility.yul\":1506:1538   */\n      slt\n        /* \"#utility.yul\":1503:1622   */\n      iszero\n      tag_164\n      jumpi\n        /* \"#utility.yul\":1541:1620   */\n      tag_165\n      tag_161\n      jump\t// in\n    tag_165:\n        /* \"#utility.yul\":1503:1622   */\n    tag_164:\n        /* \"#utility.yul\":1661:1662   */\n      0x00\n        /* \"#utility.yul\":1686:1739   */\n      tag_166\n        /* \"#utility.yul\":1731:1738   */\n      dup6\n        /* \"#utility.yul\":1722:1728   */\n      dup3\n        /* \"#utility.yul\":1711:1720   */\n      dup7\n        /* \"#utility.yul\":1707:1729   */\n      add\n        /* \"#utility.yul\":1686:1739   */\n      tag_144\n      jump\t// in\n    tag_166:\n        /* \"#utility.yul\":1676:1739   */\n      swap3\n      pop\n        /* \"#utility.yul\":1632:1749   */\n      pop\n        /* \"#utility.yul\":1788:1790   */\n      0x20\n        /* \"#utility.yul\":1814:1867   */\n      tag_167\n        /* \"#utility.yul\":1859:1866   */\n      dup6\n        /* \"#utility.yul\":1850:1856   */\n      dup3\n        /* \"#utility.yul\":1839:1848   */\n      dup7\n        /* \"#utility.yul\":1835:1857   */\n      add\n        /* \"#utility.yul\":1814:1867   */\n      tag_154\n      jump\t// in\n    tag_167:\n        /* \"#utility.yul\":1804:1867   */\n      swap2\n      pop\n        /* \"#utility.yul\":1759:1877   */\n      pop\n        /* \"#utility.yul\":1410:1884   */\n      swap3\n      pop\n      swap3\n      swap1\n      pop\n      jump\t// out\n        /* \"#utility.yul\":1890:2544   */\n    tag_34:\n        /* \"#utility.yul\":1968:1974   */\n      0x00\n        /* \"#utility.yul\":1976:1982   */\n      dup1\n        /* \"#utility.yul\":2025:2027   */\n      0x40\n        /* \"#utility.yul\":2013:2022   */\n      dup4\n        /* \"#utility.yul\":2004:2011   */\n      dup6\n        /* \"#utility.yul\":2000:2023   */\n      sub\n        /* \"#utility.yul\":1996:2028   */\n      slt\n        /* \"#utility.yul\":1993:2112   */\n      iszero\n      tag_169\n      jumpi\n        /* \"#utility.yul\":2031:2110   */\n      tag_170\n      tag_161\n      jump\t// in\n    tag_170:\n        /* \"#utility.yul\":1993:2112   */\n    tag_169:\n        /* \"#utility.yul\":2179:2180   */\n      0x00\n        /* \"#utility.yul\":2168:2177   */\n      dup4\n        /* \"#utility.yul\":2164:2181   */\n      add\n        /* \"#utility.yul\":2151:2182   */\n      calldataload\n        /* \"#utility.yul\":2209:2227   */\n      0xffffffffffffffff\n        /* \"#utility.yul\":2201:2207   */\n      dup2\n        /* \"#utility.yul\":2198:2228   */\n      gt\n        /* \"#utility.yul\":2195:2312   */\n      iszero\n      tag_171\n      jumpi\n        /* \"#utility.yul\":2231:2310   */\n      tag_172\n      tag_173\n      jump\t// in\n    tag_172:\n        /* \"#utility.yul\":2195:2312   */\n    tag_171:\n        /* \"#utility.yul\":2336:2399   */\n      tag_174\n        /* \"#utility.yul\":2391:2398   */\n      dup6\n        /* \"#utility.yul\":2382:2388   */\n      dup3\n        /* \"#utility.yul\":2371:2380   */\n      dup7\n        /* \"#utility.yul\":2367:2389   */\n      add\n        /* \"#utility.yul\":2336:2399   */\n      tag_148\n      jump\t// in\n    tag_174:\n        /* \"#utility.yul\":2326:2399   */\n      swap3\n      pop\n        /* \"#utility.yul\":2122:2409   */\n      pop\n        /* \"#utility.yul\":2448:2450   */\n      0x20\n        /* \"#utility.yul\":2474:2527   */\n      tag_175\n        /* \"#utility.yul\":2519:2526   */\n      dup6\n        /* \"#utility.yul\":2510:2516   */\n      dup3\n        /* \"#utility.yul\":2499:2508   */\n      dup7\n        /* \"#utility.yul\":2495:2517   */\n      add\n        /* \"#utility.yul\":2474:2527   */\n      tag_154\n      jump\t// in\n    tag_175:\n        /* \"#utility.yul\":2464:2527   */\n      swap2\n      pop\n        /* \"#utility.yul\":2419:2537   */\n      pop\n        /* \"#utility.yul\":1890:2544   */\n      swap3\n      pop\n      swap3\n      swap1\n      pop\n      jump\t// out\n        /* \"#utility.yul\":2550:2879   */\n    tag_28:\n        /* \"#utility.yul\":2609:2615   */\n      0x00\n        /* \"#utility.yul\":2658:2660   */\n      0x20\n        /* \"#utility.yul\":2646:2655   */\n      dup3\n        /* \"#utility.yul\":2637:2644   */\n      dup5\n        /* \"#utility.yul\":2633:2656   */\n      sub\n        /* \"#utility.yul\":2629:2661   */\n      slt\n        /* \"#utility.yul\":2626:2745   */\n      iszero\n      tag_177\n      jumpi\n        /* \"#utility.yul\":2664:2743   */\n      tag_178\n      tag_161\n      jump\t// in\n    tag_178:\n        /* \"#utility.yul\":2626:2745   */\n    tag_177:\n        /* \"#utility.yul\":2784:2785   */\n      0x00\n        /* \"#utility.yul\":2809:2862   */\n      tag_179\n        /* \"#utility.yul\":2854:2861   */\n      dup5\n        /* \"#utility.yul\":2845:2851   */\n      dup3\n        /* \"#utility.yul\":2834:2843   */\n      dup6\n        /* \"#utility.yul\":2830:2852   */\n      add\n        /* \"#utility.yul\":2809:2862   */\n      tag_154\n      jump\t// in\n    tag_179:\n        /* \"#utility.yul\":2799:2862   */\n      swap2\n      pop\n        /* \"#utility.yul\":2755:2872   */\n      pop\n        /* \"#utility.yul\":2550:2879   */\n      swap3\n      swap2\n      pop\n      pop\n      jump\t// out\n        /* \"#utility.yul\":2885:3684   */\n    tag_20:\n        /* \"#utility.yul\":2972:2978   */\n      0x00\n        /* \"#utility.yul\":2980:2986   */\n      dup1\n        /* \"#utility.yul\":2988:2994   */\n      0x00\n        /* \"#utility.yul\":3037:3039   */\n      0x60\n        /* \"#utility.yul\":3025:3034   */\n      dup5\n        /* \"#utility.yul\":3016:3023   */\n      dup7\n        /* \"#utility.yul\":3012:3035   */\n      sub\n        /* \"#utility.yul\":3008:3040   */\n      slt\n        /* \"#utility.yul\":3005:3124   */\n      iszero\n      tag_181\n      jumpi\n        /* \"#utility.yul\":3043:3122   */\n      tag_182\n      tag_161\n      jump\t// in\n    tag_182:\n        /* \"#utility.yul\":3005:3124   */\n    tag_181:\n        /* \"#utility.yul\":3163:3164   */\n      0x00\n        /* \"#utility.yul\":3188:3241   */\n      tag_183\n        /* \"#utility.yul\":3233:3240   */\n      dup7\n        /* \"#utility.yul\":3224:3230   */\n      dup3\n        /* \"#utility.yul\":3213:3222   */\n      dup8\n        /* \"#utility.yul\":3209:3231   */\n      add\n        /* \"#utility.yul\":3188:3241   */\n      tag_154\n      jump\t// in\n    tag_183:\n        /* \"#utility.yul\":3178:3241   */\n      swap4\n      pop\n        /* \"#utility.yul\":3134:3251   */\n      pop\n        /* \"#utility.yul\":3318:3320   */\n      0x20\n        /* \"#utility.yul\":3307:3316   */\n      dup5\n        /* \"#utility.yul\":3303:3321   */\n      add\n        /* \"#utility.yul\":3290:3322   */\n      calldataload\n        /* \"#utility.yul\":3349:3367   */\n      0xffffffffffffffff\n        /* \"#utility.yul\":3341:3347   */\n      dup2\n        /* \"#utility.yul\":3338:3368   */\n      gt\n        /* \"#utility.yul\":3335:3452   */\n      iszero\n      tag_184\n      jumpi\n        /* \"#utility.yul\":3371:3450   */\n      tag_185\n      tag_173\n      jump\t// in\n    tag_185:\n        /* \"#utility.yul\":3335:3452   */\n    tag_184:\n        /* \"#utility.yul\":3476:3539   */\n      tag_186\n        /* \"#utility.yul\":3531:3538   */\n      dup7\n        /* \"#utility.yul\":3522:3528   */\n      dup3\n        /* \"#utility.yul\":3511:3520   */\n      dup8\n        /* \"#utility.yul\":3507:3529   */\n      add\n        /* \"#utility.yul\":3476:3539   */\n      tag_148\n      jump\t// in\n    tag_186:\n        /* \"#utility.yul\":3466:3539   */\n      swap3\n      pop\n        /* \"#utility.yul\":3261:3549   */\n      pop\n        /* \"#utility.yul\":3588:3590   */\n      0x40\n        /* \"#utility.yul\":3614:3667   */\n      tag_187\n        /* \"#utility.yul\":3659:3666   */\n      dup7\n        /* \"#utility.yul\":3650:3656   */\n      dup3\n        /* \"#utility.yul\":3639:3648   */\n      dup8\n        /* \"#utility.yul\":3635:3657   */\n      add\n        /* \"#utility.yul\":3614:3667   */\n      tag_154\n      jump\t// in\n    tag_187:\n        /* \"#utility.yul\":3604:3667   */\n      swap2\n      pop\n        /* \"#utility.yul\":3559:3677   */\n      pop\n        /* \"#utility.yul\":2885:3684   */\n      swap3\n      pop\n      swap3\n      pop\n      swap3\n      jump\t// out\n        /* \"#utility.yul\":3690:3808   */\n    tag_188:\n        /* \"#utility.yul\":3777:3801   */\n      tag_190\n        /* \"#utility.yul\":3795:3800   */\n      dup2\n        /* \"#utility.yul\":3777:3801   */\n      tag_191\n      jump\t// in\n    tag_190:\n        /* \"#utility.yul\":3772:3775   */\n      dup3\n        /* \"#utility.yul\":3765:3802   */\n      mstore\n        /* \"#utility.yul\":3690:3808   */\n      pop\n      pop\n      jump\t// out\n        /* \"#utility.yul\":3814:4178   */\n    tag_192:\n        /* \"#utility.yul\":3902:3905   */\n      0x00\n        /* \"#utility.yul\":3930:3969   */\n      tag_194\n        /* \"#utility.yul\":3963:3968   */\n      dup3\n        /* \"#utility.yul\":3930:3969   */\n      tag_195\n      jump\t// in\n    tag_194:\n        /* \"#utility.yul\":3985:4056   */\n      tag_196\n        /* \"#utility.yul\":4049:4055   */\n      dup2\n        /* \"#utility.yul\":4044:4047   */\n      dup6\n        /* \"#utility.yul\":3985:4056   */\n      tag_197\n      jump\t// in\n    tag_196:\n        /* \"#utility.yul\":3978:4056   */\n      swap4\n      pop\n        /* \"#utility.yul\":4065:4117   */\n      tag_198\n        /* \"#utility.yul\":4110:4116   */\n      dup2\n        /* \"#utility.yul\":4105:4108   */\n      dup6\n        /* \"#utility.yul\":4098:4102   */\n      0x20\n        /* \"#utility.yul\":4091:4096   */\n      dup7\n        /* \"#utility.yul\":4087:4103   */\n      add\n        /* \"#utility.yul\":4065:4117   */\n      tag_199\n      jump\t// in\n    tag_198:\n        /* \"#utility.yul\":4142:4171   */\n      tag_200\n        /* \"#utility.yul\":4164:4170   */\n      dup2\n        /* \"#utility.yul\":4142:4171   */\n      tag_201\n      jump\t// in\n    tag_200:\n        /* \"#utility.yul\":4137:4140   */\n      dup5\n        /* \"#utility.yul\":4133:4172   */\n      add\n        /* \"#utility.yul\":4126:4172   */\n      swap2\n      pop\n        /* \"#utility.yul\":3906:4178   */\n      pop\n        /* \"#utility.yul\":3814:4178   */\n      swap3\n      swap2\n      pop\n      pop\n      jump\t// out\n        /* \"#utility.yul\":4184:4550   */\n    tag_202:\n        /* \"#utility.yul\":4326:4329   */\n      0x00\n        /* \"#utility.yul\":4347:4414   */\n      tag_204\n        /* \"#utility.yul\":4411:4413   */\n      0x34\n        /* \"#utility.yul\":4406:4409   */\n      dup4\n        /* \"#utility.yul\":4347:4414   */\n      tag_197\n      jump\t// in\n    tag_204:\n        /* \"#utility.yul\":4340:4414   */\n      swap2\n      pop\n        /* \"#utility.yul\":4423:4516   */\n      tag_205\n        /* \"#utility.yul\":4512:4515   */\n      dup3\n        /* \"#utility.yul\":4423:4516   */\n      tag_206\n      jump\t// in\n    tag_205:\n        /* \"#utility.yul\":4541:4543   */\n      0x40\n        /* \"#utility.yul\":4536:4539   */\n      dup3\n        /* \"#utility.yul\":4532:4544   */\n      add\n        /* \"#utility.yul\":4525:4544   */\n      swap1\n      pop\n        /* \"#utility.yul\":4184:4550   */\n      swap2\n      swap1\n      pop\n      jump\t// out\n        /* \"#utility.yul\":4556:4922   */\n    tag_207:\n        /* \"#utility.yul\":4698:4701   */\n      0x00\n        /* \"#utility.yul\":4719:4786   */\n      tag_209\n        /* \"#utility.yul\":4783:4785   */\n      0x25\n        /* \"#utility.yul\":4778:4781   */\n      dup4\n        /* \"#utility.yul\":4719:4786   */\n      tag_197\n      jump\t// in\n    tag_209:\n        /* \"#utility.yul\":4712:4786   */\n      swap2\n      pop\n        /* \"#utility.yul\":4795:4888   */\n      tag_210\n        /* \"#utility.yul\":4884:4887   */\n      dup3\n        /* \"#utility.yul\":4795:4888   */\n      tag_211\n      jump\t// in\n    tag_210:\n        /* \"#utility.yul\":4913:4915   */\n      0x40\n        /* \"#utility.yul\":4908:4911   */\n      dup3\n        /* \"#utility.yul\":4904:4916   */\n      add\n        /* \"#utility.yul\":4897:4916   */\n      swap1\n      pop\n        /* \"#utility.yul\":4556:4922   */\n      swap2\n      swap1\n      pop\n      jump\t// out\n        /* \"#utility.yul\":4928:5294   */\n    tag_212:\n        /* \"#utility.yul\":5070:5073   */\n      0x00\n        /* \"#utility.yul\":5091:5158   */\n      tag_214\n        /* \"#utility.yul\":5155:5157   */\n      0x30\n        /* \"#utility.yul\":5150:5153   */\n      dup4\n        /* \"#utility.yul\":5091:5158   */\n      tag_197\n      jump\t// in\n    tag_214:\n        /* \"#utility.yul\":5084:5158   */\n      swap2\n      pop\n        /* \"#utility.yul\":5167:5260   */\n      tag_215\n        /* \"#utility.yul\":5256:5259   */\n      dup3\n        /* \"#utility.yul\":5167:5260   */\n      tag_216\n      jump\t// in\n    tag_215:\n        /* \"#utility.yul\":5285:5287   */\n      0x40\n        /* \"#utility.yul\":5280:5283   */\n      dup3\n        /* \"#utility.yul\":5276:5288   */\n      add\n        /* \"#utility.yul\":5269:5288   */\n      swap1\n      pop\n        /* \"#utility.yul\":4928:5294   */\n      swap2\n      swap1\n      pop\n      jump\t// out\n        /* \"#utility.yul\":5300:5666   */\n    tag_217:\n        /* \"#utility.yul\":5442:5445   */\n      0x00\n        /* \"#utility.yul\":5463:5530   */\n      tag_219\n        /* \"#utility.yul\":5527:5529   */\n      0x1e\n        /* \"#utility.yul\":5522:5525   */\n      dup4\n        /* \"#utility.yul\":5463:5530   */\n      tag_197\n      jump\t// in\n    tag_219:\n        /* \"#utility.yul\":5456:5530   */\n      swap2\n      pop\n        /* \"#utility.yul\":5539:5632   */\n      tag_220\n        /* \"#utility.yul\":5628:5631   */\n      dup3\n        /* \"#utility.yul\":5539:5632   */\n      tag_221\n      jump\t// in\n    tag_220:\n        /* \"#utility.yul\":5657:5659   */\n      0x20\n        /* \"#utility.yul\":5652:5655   */\n      dup3\n        /* \"#utility.yul\":5648:5660   */\n      add\n        /* \"#utility.yul\":5641:5660   */\n      swap1\n      pop\n        /* \"#utility.yul\":5300:5666   */\n      swap2\n      swap1\n      pop\n      jump\t// out\n        /* \"#utility.yul\":5672:6038   */\n    tag_222:\n        /* \"#utility.yul\":5814:5817   */\n      0x00\n        /* \"#utility.yul\":5835:5902   */\n      tag_224\n        /* \"#utility.yul\":5899:5901   */\n      0x33\n        /* \"#utility.yul\":5894:5897   */\n      dup4\n        /* \"#utility.yul\":5835:5902   */\n      tag_197\n      jump\t// in\n    tag_224:\n        /* \"#utility.yul\":5828:5902   */\n      swap2\n      pop\n        /* \"#utility.yul\":5911:6004   */\n      tag_225\n        /* \"#utility.yul\":6000:6003   */\n      dup3\n        /* \"#utility.yul\":5911:6004   */\n      tag_226\n      jump\t// in\n    tag_225:\n        /* \"#utility.yul\":6029:6031   */\n      0x40\n        /* \"#utility.yul\":6024:6027   */\n      dup3\n        /* \"#utility.yul\":6020:6032   */\n      add\n        /* \"#utility.yul\":6013:6032   */\n      swap1\n      pop\n        /* \"#utility.yul\":5672:6038   */\n      swap2\n      swap1\n      pop\n      jump\t// out\n        /* \"#utility.yul\":6044:6410   */\n    tag_227:\n        /* \"#utility.yul\":6186:6189   */\n      0x00\n        /* \"#utility.yul\":6207:6274   */\n      tag_229\n        /* \"#utility.yul\":6271:6273   */\n      0x1e\n        /* \"#utility.yul\":6266:6269   */\n      dup4\n        /* \"#utility.yul\":6207:6274   */\n      tag_197\n      jump\t// in\n    tag_229:\n        /* \"#utility.yul\":6200:6274   */\n      swap2\n      pop\n        /* \"#utility.yul\":6283:6376   */\n      tag_230\n        /* \"#utility.yul\":6372:6375   */\n      dup3\n        /* \"#utility.yul\":6283:6376   */\n      tag_231\n      jump\t// in\n    tag_230:\n        /* \"#utility.yul\":6401:6403   */\n      0x20\n        /* \"#utility.yul\":6396:6399   */\n      dup3\n        /* \"#utility.yul\":6392:6404   */\n      add\n        /* \"#utility.yul\":6385:6404   */\n      swap1\n      pop\n        /* \"#utility.yul\":6044:6410   */\n      swap2\n      swap1\n      pop\n      jump\t// out\n        /* \"#utility.yul\":6416:6534   */\n    tag_232:\n        /* \"#utility.yul\":6503:6527   */\n      tag_234\n        /* \"#utility.yul\":6521:6526   */\n      dup2\n        /* \"#utility.yul\":6503:6527   */\n      tag_235\n      jump\t// in\n    tag_234:\n        /* \"#utility.yul\":6498:6501   */\n      dup3\n        /* \"#utility.yul\":6491:6528   */\n      mstore\n        /* \"#utility.yul\":6416:6534   */\n      pop\n      pop\n      jump\t// out\n        /* \"#utility.yul\":6540:6762   */\n    tag_25:\n        /* \"#utility.yul\":6633:6637   */\n      0x00\n        /* \"#utility.yul\":6671:6673   */\n      0x20\n        /* \"#utility.yul\":6660:6669   */\n      dup3\n        /* \"#utility.yul\":6656:6674   */\n      add\n        /* \"#utility.yul\":6648:6674   */\n      swap1\n      pop\n        /* \"#utility.yul\":6684:6755   */\n      tag_237\n        /* \"#utility.yul\":6752:6753   */\n      0x00\n        /* \"#utility.yul\":6741:6750   */\n      dup4\n        /* \"#utility.yul\":6737:6754   */\n      add\n        /* \"#utility.yul\":6728:6734   */\n      dup5\n        /* \"#utility.yul\":6684:6755   */\n      tag_188\n      jump\t// in\n    tag_237:\n        /* \"#utility.yul\":6540:6762   */\n      swap3\n      swap2\n      pop\n      pop\n      jump\t// out\n        /* \"#utility.yul\":6768:7100   */\n    tag_17:\n        /* \"#utility.yul\":6889:6893   */\n      0x00\n        /* \"#utility.yul\":6927:6929   */\n      0x40\n        /* \"#utility.yul\":6916:6925   */\n      dup3\n        /* \"#utility.yul\":6912:6930   */\n      add\n        /* \"#utility.yul\":6904:6930   */\n      swap1\n      pop\n        /* \"#utility.yul\":6940:7011   */\n      tag_239\n        /* \"#utility.yul\":7008:7009   */\n      0x00\n        /* \"#utility.yul\":6997:7006   */\n      dup4\n        /* \"#utility.yul\":6993:7010   */\n      add\n        /* \"#utility.yul\":6984:6990   */\n      dup6\n        /* \"#utility.yul\":6940:7011   */\n      tag_188\n      jump\t// in\n    tag_239:\n        /* \"#utility.yul\":7021:7093   */\n      tag_240\n        /* \"#utility.yul\":7089:7091   */\n      0x20\n        /* \"#utility.yul\":7078:7087   */\n      dup4\n        /* \"#utility.yul\":7074:7092   */\n      add\n        /* \"#utility.yul\":7065:7071   */\n      dup5\n        /* \"#utility.yul\":7021:7093   */\n      tag_232\n      jump\t// in\n    tag_240:\n        /* \"#utility.yul\":6768:7100   */\n      swap4\n      swap3\n      pop\n      pop\n      pop\n      jump\t// out\n        /* \"#utility.yul\":7106:7529   */\n    tag_31:\n        /* \"#utility.yul\":7247:7251   */\n      0x00\n        /* \"#utility.yul\":7285:7287   */\n      0x40\n        /* \"#utility.yul\":7274:7283   */\n      dup3\n        /* \"#utility.yul\":7270:7288   */\n      add\n        /* \"#utility.yul\":7262:7288   */\n      swap1\n      pop\n        /* \"#utility.yul\":7334:7343   */\n      dup2\n        /* \"#utility.yul\":7328:7332   */\n      dup2\n        /* \"#utility.yul\":7324:7344   */\n      sub\n        /* \"#utility.yul\":7320:7321   */\n      0x00\n        /* \"#utility.yul\":7309:7318   */\n      dup4\n        /* \"#utility.yul\":7305:7322   */\n      add\n        /* \"#utility.yul\":7298:7345   */\n      mstore\n        /* \"#utility.yul\":7362:7440   */\n      tag_242\n        /* \"#utility.yul\":7435:7439   */\n      dup2\n        /* \"#utility.yul\":7426:7432   */\n      dup6\n        /* \"#utility.yul\":7362:7440   */\n      tag_192\n      jump\t// in\n    tag_242:\n        /* \"#utility.yul\":7354:7440   */\n      swap1\n      pop\n        /* \"#utility.yul\":7450:7522   */\n      tag_243\n        /* \"#utility.yul\":7518:7520   */\n      0x20\n        /* \"#utility.yul\":7507:7516   */\n      dup4\n        /* \"#utility.yul\":7503:7521   */\n      add\n        /* \"#utility.yul\":7494:7500   */\n      dup5\n        /* \"#utility.yul\":7450:7522   */\n      tag_232\n      jump\t// in\n    tag_243:\n        /* \"#utility.yul\":7106:7529   */\n      swap4\n      swap3\n      pop\n      pop\n      pop\n      jump\t// out\n        /* \"#utility.yul\":7535:7954   */\n    tag_60:\n        /* \"#utility.yul\":7701:7705   */\n      0x00\n        /* \"#utility.yul\":7739:7741   */\n      0x20\n        /* \"#utility.yul\":7728:7737   */\n      dup3\n        /* \"#utility.yul\":7724:7742   */\n      add\n        /* \"#utility.yul\":7716:7742   */\n      swap1\n      pop\n        /* \"#utility.yul\":7788:7797   */\n      dup2\n        /* \"#utility.yul\":7782:7786   */\n      dup2\n        /* \"#utility.yul\":7778:7798   */\n      sub\n        /* \"#utility.yul\":7774:7775   */\n      0x00\n        /* \"#utility.yul\":7763:7772   */\n      dup4\n        /* \"#utility.yul\":7759:7776   */\n      add\n        /* \"#utility.yul\":7752:7799   */\n      mstore\n        /* \"#utility.yul\":7816:7947   */\n      tag_245\n        /* \"#utility.yul\":7942:7946   */\n      dup2\n        /* \"#utility.yul\":7816:7947   */\n      tag_202\n      jump\t// in\n    tag_245:\n        /* \"#utility.yul\":7808:7947   */\n      swap1\n      pop\n        /* \"#utility.yul\":7535:7954   */\n      swap2\n      swap1\n      pop\n      jump\t// out\n        /* \"#utility.yul\":7960:8379   */\n    tag_97:\n        /* \"#utility.yul\":8126:8130   */\n      0x00\n        /* \"#utility.yul\":8164:8166   */\n      0x20\n        /* \"#utility.yul\":8153:8162   */\n      dup3\n        /* \"#utility.yul\":8149:8167   */\n      add\n        /* \"#utility.yul\":8141:8167   */\n      swap1\n      pop\n        /* \"#utility.yul\":8213:8222   */\n      dup2\n        /* \"#utility.yul\":8207:8211   */\n      dup2\n        /* \"#utility.yul\":8203:8223   */\n      sub\n        /* \"#utility.yul\":8199:8200   */\n      0x00\n        /* \"#utility.yul\":8188:8197   */\n      dup4\n        /* \"#utility.yul\":8184:8201   */\n      add\n        /* \"#utility.yul\":8177:8224   */\n      mstore\n        /* \"#utility.yul\":8241:8372   */\n      tag_247\n        /* \"#utility.yul\":8367:8371   */\n      dup2\n        /* \"#utility.yul\":8241:8372   */\n      tag_207\n      jump\t// in\n    tag_247:\n        /* \"#utility.yul\":8233:8372   */\n      swap1\n      pop\n        /* \"#utility.yul\":7960:8379   */\n      swap2\n      swap1\n      pop\n      jump\t// out\n        /* \"#utility.yul\":8385:8804   */\n    tag_78:\n        /* \"#utility.yul\":8551:8555   */\n      0x00\n        /* \"#utility.yul\":8589:8591   */\n      0x20\n        /* \"#utility.yul\":8578:8587   */\n      dup3\n        /* \"#utility.yul\":8574:8592   */\n      add\n        /* \"#utility.yul\":8566:8592   */\n      swap1\n      pop\n        /* \"#utility.yul\":8638:8647   */\n      dup2\n        /* \"#utility.yul\":8632:8636   */\n      dup2\n        /* \"#utility.yul\":8628:8648   */\n      sub\n        /* \"#utility.yul\":8624:8625   */\n      0x00\n        /* \"#utility.yul\":8613:8622   */\n      dup4\n        /* \"#utility.yul\":8609:8626   */\n      add\n        /* \"#utility.yul\":8602:8649   */\n      mstore\n        /* \"#utility.yul\":8666:8797   */\n      tag_249\n        /* \"#utility.yul\":8792:8796   */\n      dup2\n        /* \"#utility.yul\":8666:8797   */\n      tag_212\n      jump\t// in\n    tag_249:\n        /* \"#utility.yul\":8658:8797   */\n      swap1\n      pop\n        /* \"#utility.yul\":8385:8804   */\n      swap2\n      swap1\n      pop\n      jump\t// out\n        /* \"#utility.yul\":8810:9229   */\n    tag_114:\n        /* \"#utility.yul\":8976:8980   */\n      0x00\n        /* \"#utility.yul\":9014:9016   */\n      0x20\n        /* \"#utility.yul\":9003:9012   */\n      dup3\n        /* \"#utility.yul\":8999:9017   */\n      add\n        /* \"#utility.yul\":8991:9017   */\n      swap1\n      pop\n        /* \"#utility.yul\":9063:9072   */\n      dup2\n        /* \"#utility.yul\":9057:9061   */\n      dup2\n        /* \"#utility.yul\":9053:9073   */\n      sub\n        /* \"#utility.yul\":9049:9050   */\n      0x00\n        /* \"#utility.yul\":9038:9047   */\n      dup4\n        /* \"#utility.yul\":9034:9051   */\n      add\n        /* \"#utility.yul\":9027:9074   */\n      mstore\n        /* \"#utility.yul\":9091:9222   */\n      tag_251\n        /* \"#utility.yul\":9217:9221   */\n      dup2\n        /* \"#utility.yul\":9091:9222   */\n      tag_217\n      jump\t// in\n    tag_251:\n        /* \"#utility.yul\":9083:9222   */\n      swap1\n      pop\n        /* \"#utility.yul\":8810:9229   */\n      swap2\n      swap1\n      pop\n      jump\t// out\n        /* \"#utility.yul\":9235:9654   */\n    tag_102:\n        /* \"#utility.yul\":9401:9405   */\n      0x00\n        /* \"#utility.yul\":9439:9441   */\n      0x20\n        /* \"#utility.yul\":9428:9437   */\n      dup3\n        /* \"#utility.yul\":9424:9442   */\n      add\n        /* \"#utility.yul\":9416:9442   */\n      swap1\n      pop\n        /* \"#utility.yul\":9488:9497   */\n      dup2\n        /* \"#utility.yul\":9482:9486   */\n      dup2\n        /* \"#utility.yul\":9478:9498   */\n      sub\n        /* \"#utility.yul\":9474:9475   */\n      0x00\n        /* \"#utility.yul\":9463:9472   */\n      dup4\n        /* \"#utility.yul\":9459:9476   */\n      add\n        /* \"#utility.yul\":9452:9499   */\n      mstore\n        /* \"#utility.yul\":9516:9647   */\n      tag_253\n        /* \"#utility.yul\":9642:9646   */\n      dup2\n        /* \"#utility.yul\":9516:9647   */\n      tag_222\n      jump\t// in\n    tag_253:\n        /* \"#utility.yul\":9508:9647   */\n      swap1\n      pop\n        /* \"#utility.yul\":9235:9654   */\n      swap2\n      swap1\n      pop\n      jump\t// out\n        /* \"#utility.yul\":9660:10079   */\n    tag_88:\n        /* \"#utility.yul\":9826:9830   */\n      0x00\n        /* \"#utility.yul\":9864:9866   */\n      0x20\n        /* \"#utility.yul\":9853:9862   */\n      dup3\n        /* \"#utility.yul\":9849:9867   */\n      add\n        /* \"#utility.yul\":9841:9867   */\n      swap1\n      pop\n        /* \"#utility.yul\":9913:9922   */\n      dup2\n        /* \"#utility.yul\":9907:9911   */\n      dup2\n        /* \"#utility.yul\":9903:9923   */\n      sub\n        /* \"#utility.yul\":9899:9900   */\n      0x00\n        /* \"#utility.yul\":9888:9897   */\n      dup4\n        /* \"#utility.yul\":9884:9901   */\n      add\n        /* \"#utility.yul\":9877:9924   */\n      mstore\n        /* \"#utility.yul\":9941:10072   */\n      tag_255\n        /* \"#utility.yul\":10067:10071   */\n      dup2\n        /* \"#utility.yul\":9941:10072   */\n      tag_227\n      jump\t// in\n    tag_255:\n        /* \"#utility.yul\":9933:10072   */\n      swap1\n      pop\n        /* \"#utility.yul\":9660:10079   */\n      swap2\n      swap1\n      pop\n      jump\t// out\n        /* \"#utility.yul\":10085:10307   */\n    tag_55:\n        /* \"#utility.yul\":10178:10182   */\n      0x00\n        /* \"#utility.yul\":10216:10218   */\n      0x20\n        /* \"#utility.yul\":10205:10214   */\n      dup3\n        /* \"#utility.yul\":10201:10219   */\n      add\n        /* \"#utility.yul\":10193:10219   */\n      swap1\n      pop\n        /* \"#utility.yul\":10229:10300   */\n      tag_257\n        /* \"#utility.yul\":10297:10298   */\n      0x00\n        /* \"#utility.yul\":10286:10295   */\n      dup4\n        /* \"#utility.yul\":10282:10299   */\n      add\n        /* \"#utility.yul\":10273:10279   */\n      dup5\n        /* \"#utility.yul\":10229:10300   */\n      tag_232\n      jump\t// in\n    tag_257:\n        /* \"#utility.yul\":10085:10307   */\n      swap3\n      swap2\n      pop\n      pop\n      jump\t// out\n        /* \"#utility.yul\":10313:10442   */\n    tag_138:\n        /* \"#utility.yul\":10347:10353   */\n      0x00\n        /* \"#utility.yul\":10374:10394   */\n      tag_259\n      tag_260\n      jump\t// in\n    tag_259:\n        /* \"#utility.yul\":10364:10394   */\n      swap1\n      pop\n        /* \"#utility.yul\":10403:10436   */\n      tag_261\n        /* \"#utility.yul\":10431:10435   */\n      dup3\n        /* \"#utility.yul\":10423:10429   */\n      dup3\n        /* \"#utility.yul\":10403:10436   */\n      tag_262\n      jump\t// in\n    tag_261:\n        /* \"#utility.yul\":10313:10442   */\n      swap2\n      swap1\n      pop\n      jump\t// out\n        /* \"#utility.yul\":10448:10523   */\n    tag_260:\n        /* \"#utility.yul\":10481:10487   */\n      0x00\n        /* \"#utility.yul\":10514:10516   */\n      0x40\n        /* \"#utility.yul\":10508:10517   */\n      mload\n        /* \"#utility.yul\":10498:10517   */\n      swap1\n      pop\n        /* \"#utility.yul\":10448:10523   */\n      swap1\n      jump\t// out\n        /* \"#utility.yul\":10529:10837   */\n    tag_137:\n        /* \"#utility.yul\":10591:10595   */\n      0x00\n        /* \"#utility.yul\":10681:10699   */\n      0xffffffffffffffff\n        /* \"#utility.yul\":10673:10679   */\n      dup3\n        /* \"#utility.yul\":10670:10700   */\n      gt\n        /* \"#utility.yul\":10667:10723   */\n      iszero\n      tag_265\n      jumpi\n        /* \"#utility.yul\":10703:10721   */\n      tag_266\n      tag_267\n      jump\t// in\n    tag_266:\n        /* \"#utility.yul\":10667:10723   */\n    tag_265:\n        /* \"#utility.yul\":10741:10770   */\n      tag_268\n        /* \"#utility.yul\":10763:10769   */\n      dup3\n        /* \"#utility.yul\":10741:10770   */\n      tag_201\n      jump\t// in\n    tag_268:\n        /* \"#utility.yul\":10733:10770   */\n      swap1\n      pop\n        /* \"#utility.yul\":10825:10829   */\n      0x20\n        /* \"#utility.yul\":10819:10823   */\n      dup2\n        /* \"#utility.yul\":10815:10830   */\n      add\n        /* \"#utility.yul\":10807:10830   */\n      swap1\n      pop\n        /* \"#utility.yul\":10529:10837   */\n      swap2\n      swap1\n      pop\n      jump\t// out\n        /* \"#utility.yul\":10843:10942   */\n    tag_195:\n        /* \"#utility.yul\":10895:10901   */\n      0x00\n        /* \"#utility.yul\":10929:10934   */\n      dup2\n        /* \"#utility.yul\":10923:10935   */\n      mload\n        /* \"#utility.yul\":10913:10935   */\n      swap1\n      pop\n        /* \"#utility.yul\":10843:10942   */\n      swap2\n      swap1\n      pop\n      jump\t// out\n        /* \"#utility.yul\":10948:11117   */\n    tag_197:\n        /* \"#utility.yul\":11032:11043   */\n      0x00\n        /* \"#utility.yul\":11066:11072   */\n      dup3\n        /* \"#utility.yul\":11061:11064   */\n      dup3\n        /* \"#utility.yul\":11054:11073   */\n      mstore\n        /* \"#utility.yul\":11106:11110   */\n      0x20\n        /* \"#utility.yul\":11101:11104   */\n      dup3\n        /* \"#utility.yul\":11097:11111   */\n      add\n        /* \"#utility.yul\":11082:11111   */\n      swap1\n      pop\n        /* \"#utility.yul\":10948:11117   */\n      swap3\n      swap2\n      pop\n      pop\n      jump\t// out\n        /* \"#utility.yul\":11123:11314   */\n    tag_116:\n        /* \"#utility.yul\":11163:11167   */\n      0x00\n        /* \"#utility.yul\":11183:11203   */\n      tag_272\n        /* \"#utility.yul\":11201:11202   */\n      dup3\n        /* \"#utility.yul\":11183:11203   */\n      tag_235\n      jump\t// in\n    tag_272:\n        /* \"#utility.yul\":11178:11203   */\n      swap2\n      pop\n        /* \"#utility.yul\":11217:11237   */\n      tag_273\n        /* \"#utility.yul\":11235:11236   */\n      dup4\n        /* \"#utility.yul\":11217:11237   */\n      tag_235\n      jump\t// in\n    tag_273:\n        /* \"#utility.yul\":11212:11237   */\n      swap3\n      pop\n        /* \"#utility.yul\":11256:11257   */\n      dup3\n        /* \"#utility.yul\":11253:11254   */\n      dup3\n        /* \"#utility.yul\":11250:11258   */\n      lt\n        /* \"#utility.yul\":11247:11281   */\n      iszero\n      tag_274\n      jumpi\n        /* \"#utility.yul\":11261:11279   */\n      tag_275\n      tag_276\n      jump\t// in\n    tag_275:\n        /* \"#utility.yul\":11247:11281   */\n    tag_274:\n        /* \"#utility.yul\":11306:11307   */\n      dup3\n        /* \"#utility.yul\":11303:11304   */\n      dup3\n        /* \"#utility.yul\":11299:11308   */\n      sub\n        /* \"#utility.yul\":11291:11308   */\n      swap1\n      pop\n        /* \"#utility.yul\":11123:11314   */\n      swap3\n      swap2\n      pop\n      pop\n      jump\t// out\n        /* \"#utility.yul\":11320:11416   */\n    tag_191:\n        /* \"#utility.yul\":11357:11364   */\n      0x00\n        /* \"#utility.yul\":11386:11410   */\n      tag_278\n        /* \"#utility.yul\":11404:11409   */\n      dup3\n        /* \"#utility.yul\":11386:11410   */\n      tag_279\n      jump\t// in\n    tag_278:\n        /* \"#utility.yul\":11375:11410   */\n      swap1\n      pop\n        /* \"#utility.yul\":11320:11416   */\n      swap2\n      swap1\n      pop\n      jump\t// out\n        /* \"#utility.yul\":11422:11548   */\n    tag_279:\n        /* \"#utility.yul\":11459:11466   */\n      0x00\n        /* \"#utility.yul\":11499:11541   */\n      0xffffffffffffffffffffffffffffffffffffffff\n        /* \"#utility.yul\":11492:11497   */\n      dup3\n        /* \"#utility.yul\":11488:11542   */\n      and\n        /* \"#utility.yul\":11477:11542   */\n      swap1\n      pop\n        /* \"#utility.yul\":11422:11548   */\n      swap2\n      swap1\n      pop\n      jump\t// out\n        /* \"#utility.yul\":11554:11631   */\n    tag_235:\n        /* \"#utility.yul\":11591:11598   */\n      0x00\n        /* \"#utility.yul\":11620:11625   */\n      dup2\n        /* \"#utility.yul\":11609:11625   */\n      swap1\n      pop\n        /* \"#utility.yul\":11554:11631   */\n      swap2\n      swap1\n      pop\n      jump\t// out\n        /* \"#utility.yul\":11637:11791   */\n    tag_143:\n        /* \"#utility.yul\":11721:11727   */\n      dup3\n        /* \"#utility.yul\":11716:11719   */\n      dup2\n        /* \"#utility.yul\":11711:11714   */\n      dup4\n        /* \"#utility.yul\":11698:11728   */\n      calldatacopy\n        /* \"#utility.yul\":11783:11784   */\n      0x00\n        /* \"#utility.yul\":11774:11780   */\n      dup4\n        /* \"#utility.yul\":11769:11772   */\n      dup4\n        /* \"#utility.yul\":11765:11781   */\n      add\n        /* \"#utility.yul\":11758:11785   */\n      mstore\n        /* \"#utility.yul\":11637:11791   */\n      pop\n      pop\n      pop\n      jump\t// out\n        /* \"#utility.yul\":11797:12104   */\n    tag_199:\n        /* \"#utility.yul\":11865:11866   */\n      0x00\n        /* \"#utility.yul\":11875:11988   */\n    tag_284:\n        /* \"#utility.yul\":11889:11895   */\n      dup4\n        /* \"#utility.yul\":11886:11887   */\n      dup2\n        /* \"#utility.yul\":11883:11896   */\n      lt\n        /* \"#utility.yul\":11875:11988   */\n      iszero\n      tag_286\n      jumpi\n        /* \"#utility.yul\":11974:11975   */\n      dup1\n        /* \"#utility.yul\":11969:11972   */\n      dup3\n        /* \"#utility.yul\":11965:11976   */\n      add\n        /* \"#utility.yul\":11959:11977   */\n      mload\n        /* \"#utility.yul\":11955:11956   */\n      dup2\n        /* \"#utility.yul\":11950:11953   */\n      dup5\n        /* \"#utility.yul\":11946:11957   */\n      add\n        /* \"#utility.yul\":11939:11978   */\n      mstore\n        /* \"#utility.yul\":11911:11913   */\n      0x20\n        /* \"#utility.yul\":11908:11909   */\n      dup2\n        /* \"#utility.yul\":11904:11914   */\n      add\n        /* \"#utility.yul\":11899:11914   */\n      swap1\n      pop\n        /* \"#utility.yul\":11875:11988   */\n      jump(tag_284)\n    tag_286:\n        /* \"#utility.yul\":12006:12012   */\n      dup4\n        /* \"#utility.yul\":12003:12004   */\n      dup2\n        /* \"#utility.yul\":12000:12013   */\n      gt\n        /* \"#utility.yul\":11997:12098   */\n      iszero\n      tag_287\n      jumpi\n        /* \"#utility.yul\":12086:12087   */\n      0x00\n        /* \"#utility.yul\":12077:12083   */\n      dup5\n        /* \"#utility.yul\":12072:12075   */\n      dup5\n        /* \"#utility.yul\":12068:12084   */\n      add\n        /* \"#utility.yul\":12061:12088   */\n      mstore\n        /* \"#utility.yul\":11997:12098   */\n    tag_287:\n        /* \"#utility.yul\":11846:12104   */\n      pop\n        /* \"#utility.yul\":11797:12104   */\n      pop\n      pop\n      pop\n      jump\t// out\n        /* \"#utility.yul\":12110:12430   */\n    tag_70:\n        /* \"#utility.yul\":12154:12160   */\n      0x00\n        /* \"#utility.yul\":12191:12192   */\n      0x02\n        /* \"#utility.yul\":12185:12189   */\n      dup3\n        /* \"#utility.yul\":12181:12193   */\n      div\n        /* \"#utility.yul\":12171:12193   */\n      swap1\n      pop\n        /* \"#utility.yul\":12238:12239   */\n      0x01\n        /* \"#utility.yul\":12232:12236   */\n      dup3\n        /* \"#utility.yul\":12228:12240   */\n      and\n        /* \"#utility.yul\":12259:12277   */\n      dup1\n        /* \"#utility.yul\":12249:12330   */\n      tag_289\n      jumpi\n        /* \"#utility.yul\":12315:12319   */\n      0x7f\n        /* \"#utility.yul\":12307:12313   */\n      dup3\n        /* \"#utility.yul\":12303:12320   */\n      and\n        /* \"#utility.yul\":12293:12320   */\n      swap2\n      pop\n        /* \"#utility.yul\":12249:12330   */\n    tag_289:\n        /* \"#utility.yul\":12377:12379   */\n      0x20\n        /* \"#utility.yul\":12369:12375   */\n      dup3\n        /* \"#utility.yul\":12366:12380   */\n      lt\n        /* \"#utility.yul\":12346:12364   */\n      dup2\n        /* \"#utility.yul\":12343:12381   */\n      eq\n        /* \"#utility.yul\":12340:12424   */\n      iszero\n      tag_290\n      jumpi\n        /* \"#utility.yul\":12396:12414   */\n      tag_291\n      tag_292\n      jump\t// in\n    tag_291:\n        /* \"#utility.yul\":12340:12424   */\n    tag_290:\n        /* \"#utility.yul\":12161:12430   */\n      pop\n        /* \"#utility.yul\":12110:12430   */\n      swap2\n      swap1\n      pop\n      jump\t// out\n        /* \"#utility.yul\":12436:12717   */\n    tag_262:\n        /* \"#utility.yul\":12519:12546   */\n      tag_294\n        /* \"#utility.yul\":12541:12545   */\n      dup3\n        /* \"#utility.yul\":12519:12546   */\n      tag_201\n      jump\t// in\n    tag_294:\n        /* \"#utility.yul\":12511:12517   */\n      dup2\n        /* \"#utility.yul\":12507:12547   */\n      add\n        /* \"#utility.yul\":12649:12655   */\n      dup2\n        /* \"#utility.yul\":12637:12647   */\n      dup2\n        /* \"#utility.yul\":12634:12656   */\n      lt\n        /* \"#utility.yul\":12613:12631   */\n      0xffffffffffffffff\n        /* \"#utility.yul\":12601:12611   */\n      dup3\n        /* \"#utility.yul\":12598:12632   */\n      gt\n        /* \"#utility.yul\":12595:12657   */\n      or\n        /* \"#utility.yul\":12592:12680   */\n      iszero\n      tag_295\n      jumpi\n        /* \"#utility.yul\":12660:12678   */\n      tag_296\n      tag_267\n      jump\t// in\n    tag_296:\n        /* \"#utility.yul\":12592:12680   */\n    tag_295:\n        /* \"#utility.yul\":12700:12710   */\n      dup1\n        /* \"#utility.yul\":12696:12698   */\n      0x40\n        /* \"#utility.yul\":12689:12711   */\n      mstore\n        /* \"#utility.yul\":12479:12717   */\n      pop\n        /* \"#utility.yul\":12436:12717   */\n      pop\n      pop\n      jump\t// out\n        /* \"#utility.yul\":12723:12903   */\n    tag_276:\n        /* \"#utility.yul\":12771:12848   */\n      0x4e487b7100000000000000000000000000000000000000000000000000000000\n        /* \"#utility.yul\":12768:12769   */\n      0x00\n        /* \"#utility.yul\":12761:12849   */\n      mstore\n        /* \"#utility.yul\":12868:12872   */\n      0x11\n        /* \"#utility.yul\":12865:12866   */\n      0x04\n        /* \"#utility.yul\":12858:12873   */\n      mstore\n        /* \"#utility.yul\":12892:12896   */\n      0x24\n        /* \"#utility.yul\":12889:12890   */\n      0x00\n        /* \"#utility.yul\":12882:12897   */\n      revert\n        /* \"#utility.yul\":12909:13089   */\n    tag_292:\n        /* \"#utility.yul\":12957:13034   */\n      0x4e487b7100000000000000000000000000000000000000000000000000000000\n        /* \"#utility.yul\":12954:12955   */\n      0x00\n        /* \"#utility.yul\":12947:13035   */\n      mstore\n        /* \"#utility.yul\":13054:13058   */\n      0x22\n        /* \"#utility.yul\":13051:13052   */\n      0x04\n        /* \"#utility.yul\":13044:13059   */\n      mstore\n        /* \"#utility.yul\":13078:13082   */\n      0x24\n        /* \"#utility.yul\":13075:13076   */\n      0x00\n        /* \"#utility.yul\":13068:13083   */\n      revert\n        /* \"#utility.yul\":13095:13275   */\n    tag_63:\n        /* \"#utility.yul\":13143:13220   */\n      0x4e487b7100000000000000000000000000000000000000000000000000000000\n        /* \"#utility.yul\":13140:13141   */\n      0x00\n        /* \"#utility.yul\":13133:13221   */\n      mstore\n        /* \"#utility.yul\":13240:13244   */\n      0x32\n        /* \"#utility.yul\":13237:13238   */\n      0x04\n        /* \"#utility.yul\":13230:13245   */\n      mstore\n        /* \"#utility.yul\":13264:13268   */\n      0x24\n        /* \"#utility.yul\":13261:13262   */\n      0x00\n        /* \"#utility.yul\":13254:13269   */\n      revert\n        /* \"#utility.yul\":13281:13461   */\n    tag_267:\n        /* \"#utility.yul\":13329:13406   */\n      0x4e487b7100000000000000000000000000000000000000000000000000000000\n        /* \"#utility.yul\":13326:13327   */\n      0x00\n        /* \"#utility.yul\":13319:13407   */\n      mstore\n        /* \"#utility.yul\":13426:13430   */\n      0x41\n        /* \"#utility.yul\":13423:13424   */\n      0x04\n        /* \"#utility.yul\":13416:13431   */\n      mstore\n        /* \"#utility.yul\":13450:13454   */\n      0x24\n        /* \"#utility.yul\":13447:13448   */\n      0x00\n        /* \"#utility.yul\":13440:13455   */\n      revert\n        /* \"#utility.yul\":13467:13584   */\n    tag_152:\n        /* \"#utility.yul\":13576:13577   */\n      0x00\n        /* \"#utility.yul\":13573:13574   */\n      dup1\n        /* \"#utility.yul\":13566:13578   */\n      revert\n        /* \"#utility.yul\":13590:13707   */\n    tag_141:\n        /* \"#utility.yul\":13699:13700   */\n      0x00\n        /* \"#utility.yul\":13696:13697   */\n      dup1\n        /* \"#utility.yul\":13689:13701   */\n      revert\n        /* \"#utility.yul\":13713:13830   */\n    tag_173:\n        /* \"#utility.yul\":13822:13823   */\n      0x00\n        /* \"#utility.yul\":13819:13820   */\n      dup1\n        /* \"#utility.yul\":13812:13824   */\n      revert\n        /* \"#utility.yul\":13836:13953   */\n    tag_161:\n        /* \"#utility.yul\":13945:13946   */\n      0x00\n        /* \"#utility.yul\":13942:13943   */\n      dup1\n        /* \"#utility.yul\":13935:13947   */\n      revert\n        /* \"#utility.yul\":13959:14061   */\n    tag_201:\n        /* \"#utility.yul\":14000:14006   */\n      0x00\n        /* \"#utility.yul\":14051:14053   */\n      0x1f\n        /* \"#utility.yul\":14047:14054   */\n      not\n        /* \"#utility.yul\":14042:14044   */\n      0x1f\n        /* \"#utility.yul\":14035:14040   */\n      dup4\n        /* \"#utility.yul\":14031:14045   */\n      add\n        /* \"#utility.yul\":14027:14055   */\n      and\n        /* \"#utility.yul\":14017:14055   */\n      swap1\n      pop\n        /* \"#utility.yul\":13959:14061   */\n      swap2\n      swap1\n      pop\n      jump\t// out\n        /* \"#utility.yul\":14067:14306   */\n    tag_206:\n        /* \"#utility.yul\":14207:14241   */\n      0x536f6c6f20656c2041646d696e6973747261646f722064656c2047796d207075\n        /* \"#utility.yul\":14203:14204   */\n      0x00\n        /* \"#utility.yul\":14195:14201   */\n      dup3\n        /* \"#utility.yul\":14191:14205   */\n      add\n        /* \"#utility.yul\":14184:14242   */\n      mstore\n        /* \"#utility.yul\":14276:14298   */\n      0x656465206d6f6469666963617220636c61736573000000000000000000000000\n        /* \"#utility.yul\":14271:14273   */\n      0x20\n        /* \"#utility.yul\":14263:14269   */\n      dup3\n        /* \"#utility.yul\":14259:14274   */\n      add\n        /* \"#utility.yul\":14252:14299   */\n      mstore\n        /* \"#utility.yul\":14067:14306   */\n      pop\n      jump\t// out\n        /* \"#utility.yul\":14312:14536   */\n    tag_211:\n        /* \"#utility.yul\":14452:14486   */\n      0x596120746520656e6375656e74726173207265676973747261646f20656e2065\n        /* \"#utility.yul\":14448:14449   */\n      0x00\n        /* \"#utility.yul\":14440:14446   */\n      dup3\n        /* \"#utility.yul\":14436:14450   */\n      add\n        /* \"#utility.yul\":14429:14487   */\n      mstore\n        /* \"#utility.yul\":14521:14528   */\n      0x6c2067796d000000000000000000000000000000000000000000000000000000\n        /* \"#utility.yul\":14516:14518   */\n      0x20\n        /* \"#utility.yul\":14508:14514   */\n      dup3\n        /* \"#utility.yul\":14504:14519   */\n      add\n        /* \"#utility.yul\":14497:14529   */\n      mstore\n        /* \"#utility.yul\":14312:14536   */\n      pop\n      jump\t// out\n        /* \"#utility.yul\":14542:14777   */\n    tag_216:\n        /* \"#utility.yul\":14682:14716   */\n      0x536f6c6f20656c2041646d696e6973747261646f722064656c2047796d207075\n        /* \"#utility.yul\":14678:14679   */\n      0x00\n        /* \"#utility.yul\":14670:14676   */\n      dup3\n        /* \"#utility.yul\":14666:14680   */\n      add\n        /* \"#utility.yul\":14659:14717   */\n      mstore\n        /* \"#utility.yul\":14751:14769   */\n      0x65646520637265617220636c6173657300000000000000000000000000000000\n        /* \"#utility.yul\":14746:14748   */\n      0x20\n        /* \"#utility.yul\":14738:14744   */\n      dup3\n        /* \"#utility.yul\":14734:14749   */\n      add\n        /* \"#utility.yul\":14727:14770   */\n      mstore\n        /* \"#utility.yul\":14542:14777   */\n      pop\n      jump\t// out\n        /* \"#utility.yul\":14783:14963   */\n    tag_221:\n        /* \"#utility.yul\":14923:14955   */\n      0x4e6f207469656e6573206372656469746f7320737566696369656e7465730000\n        /* \"#utility.yul\":14919:14920   */\n      0x00\n        /* \"#utility.yul\":14911:14917   */\n      dup3\n        /* \"#utility.yul\":14907:14921   */\n      add\n        /* \"#utility.yul\":14900:14956   */\n      mstore\n        /* \"#utility.yul\":14783:14963   */\n      pop\n      jump\t// out\n        /* \"#utility.yul\":14969:15207   */\n    tag_226:\n        /* \"#utility.yul\":15109:15143   */\n      0x536f6c6f20656c2041646d696e6973747261646f722064656c2047796d207075\n        /* \"#utility.yul\":15105:15106   */\n      0x00\n        /* \"#utility.yul\":15097:15103   */\n      dup3\n        /* \"#utility.yul\":15093:15107   */\n      add\n        /* \"#utility.yul\":15086:15144   */\n      mstore\n        /* \"#utility.yul\":15178:15199   */\n      0x65646520656c696d696e617220636c6173657300000000000000000000000000\n        /* \"#utility.yul\":15173:15175   */\n      0x20\n        /* \"#utility.yul\":15165:15171   */\n      dup3\n        /* \"#utility.yul\":15161:15176   */\n      add\n        /* \"#utility.yul\":15154:15200   */\n      mstore\n        /* \"#utility.yul\":14969:15207   */\n      pop\n      jump\t// out\n        /* \"#utility.yul\":15213:15393   */\n    tag_231:\n        /* \"#utility.yul\":15353:15385   */\n      0x4e6f2065786973746520756e6120636c61736520636f6e206573652049640000\n        /* \"#utility.yul\":15349:15350   */\n      0x00\n        /* \"#utility.yul\":15341:15347   */\n      dup3\n        /* \"#utility.yul\":15337:15351   */\n      add\n        /* \"#utility.yul\":15330:15386   */\n      mstore\n        /* \"#utility.yul\":15213:15393   */\n      pop\n      jump\t// out\n        /* \"#utility.yul\":15399:15521   */\n    tag_147:\n        /* \"#utility.yul\":15472:15496   */\n      tag_313\n        /* \"#utility.yul\":15490:15495   */\n      dup2\n        /* \"#utility.yul\":15472:15496   */\n      tag_191\n      jump\t// in\n    tag_313:\n        /* \"#utility.yul\":15465:15470   */\n      dup2\n        /* \"#utility.yul\":15462:15497   */\n      eq\n        /* \"#utility.yul\":15452:15515   */\n      tag_314\n      jumpi\n        /* \"#utility.yul\":15511:15512   */\n      0x00\n        /* \"#utility.yul\":15508:15509   */\n      dup1\n        /* \"#utility.yul\":15501:15513   */\n      revert\n        /* \"#utility.yul\":15452:15515   */\n    tag_314:\n        /* \"#utility.yul\":15399:15521   */\n      pop\n      jump\t// out\n        /* \"#utility.yul\":15527:15649   */\n    tag_157:\n        /* \"#utility.yul\":15600:15624   */\n      tag_316\n        /* \"#utility.yul\":15618:15623   */\n      dup2\n        /* \"#utility.yul\":15600:15624   */\n      tag_235\n      jump\t// in\n    tag_316:\n        /* \"#utility.yul\":15593:15598   */\n      dup2\n        /* \"#utility.yul\":15590:15625   */\n      eq\n        /* \"#utility.yul\":15580:15643   */\n      tag_317\n      jumpi\n        /* \"#utility.yul\":15639:15640   */\n      0x00\n        /* \"#utility.yul\":15636:15637   */\n      dup1\n        /* \"#utility.yul\":15629:15641   */\n      revert\n        /* \"#utility.yul\":15580:15643   */\n    tag_317:\n        /* \"#utility.yul\":15527:15649   */\n      pop\n      jump\t// out\n\n    auxdata: 0xa264697066735822122087702c17489a1906db8a53ce5185ec2dc0f4ca9c32771b30f435db1ddf95829964736f6c63430008070033\n}\n",
				"bytecode": {
					"linkReferences": {},
					"object": "60a060405234801561001057600080fd5b503373ffffffffffffffffffffffffffffffffffffffff1660808173ffffffffffffffffffffffffffffffffffffffff1660601b8152505060805160601c6112f361007b60003960008181610262015281816103270152818161041e015261076101526112f36000f3fe608060405234801561001057600080fd5b506004361061009e5760003560e01c8063512d62df11610066578063512d62df146101495780636d705ebb1461017a57806372c30f45146101965780637aed8136146101b2578063a87430ba146101ce5761009e565b806312065fe0146100a35780631e8be099146100c25780632a0acc6a146100de5780633613a9f4146100fc5780634852a2121461012d575b600080fd5b6100ab6101fe565b6040516100b9929190610d65565b60405180910390f35b6100dc60048036038101906100d79190610bb2565b610249565b005b6100e6610325565b6040516100f39190610d4a565b60405180910390f35b61011660048036038101906101119190610b85565b610349565b604051610124929190610d8e565b60405180910390f35b61014760048036038101906101429190610b29565b610405565b005b610163600480360381019061015e9190610b85565b610539565b604051610171929190610d8e565b60405180910390f35b610194600480360381019061018f9190610ae9565b610648565b005b6101b060048036038101906101ab9190610b85565b610748565b005b6101cc60048036038101906101c79190610b85565b610816565b005b6101e860048036038101906101e39190610abc565b610927565b6040516101f59190610e7e565b60405180910390f35b600080336000803373ffffffffffffffffffffffffffffffffffffffff1673ffffffffffffffffffffffffffffffffffffffff16815260200190815260200160002054915091509091565b3373ffffffffffffffffffffffffffffffffffffffff167f000000000000000000000000000000000000000000000000000000000000000073ffffffffffffffffffffffffffffffffffffffff16146102d7576040517f08c379a00000000000000000000000000000000000000000000000000000000081526004016102ce90610dbe565b60405180910390fd5b6000600184815481106102ed576102ec61107e565b5b906000526020600020906002020190508281600001908051906020019061031592919061093f565b5081816001018190555050505050565b7f000000000000000000000000000000000000000000000000000000000000000081565b6001818154811061035957600080fd5b906000526020600020906002020160009150905080600001805461037c90610fbd565b80601f01602080910402602001604051908101604052809291908181526020018280546103a890610fbd565b80156103f55780601f106103ca576101008083540402835291602001916103f5565b820191906000526020600020905b8154815290600101906020018083116103d857829003601f168201915b5050505050908060010154905082565b3373ffffffffffffffffffffffffffffffffffffffff167f000000000000000000000000000000000000000000000000000000000000000073ffffffffffffffffffffffffffffffffffffffff1614610493576040517f08c379a000000000000000000000000000000000000000000000000000000000815260040161048a90610dfe565b60405180910390fd5b6001604051806040016040528084815260200183815250908060018154018082558091505060019003906000526020600020906002020160009091909190915060008201518160000190805190602001906104ef92919061093f565b506020820151816001015550507f14d49e3ea4f348b7f368906dfe1a63055c7822d622a61672a35a55ae97a768f9828260405161052d929190610d8e565b60405180910390a15050565b6060600080600184815481106105525761055161107e565b5b9060005260206000209060020201905060008160010154146105a9576040517f08c379a00000000000000000000000000000000000000000000000000000000081526004016105a090610e5e565b60405180910390fd5b8060000181600101548180546105be90610fbd565b80601f01602080910402602001604051908101604052809291908181526020018280546105ea90610fbd565b80156106375780601f1061060c57610100808354040283529160200191610637565b820191906000526020600020905b81548152906001019060200180831161061a57829003601f168201915b505050505091509250925050915091565b60008060003373ffffffffffffffffffffffffffffffffffffffff1673ffffffffffffffffffffffffffffffffffffffff16815260200190815260200160002054146106c9576040517f08c379a00000000000000000000000000000000000000000000000000000000081526004016106c090610dde565b60405180910390fd5b806000803373ffffffffffffffffffffffffffffffffffffffff1673ffffffffffffffffffffffffffffffffffffffff168152602001908152602001600020819055507e7dc6ab80cc84c043b7b8d4fcafc802187470087f7ea7fccd2e17aecd0256a1828260405161073c929190610d65565b60405180910390a15050565b3373ffffffffffffffffffffffffffffffffffffffff167f000000000000000000000000000000000000000000000000000000000000000073ffffffffffffffffffffffffffffffffffffffff16146107d6576040517f08c379a00000000000000000000000000000000000000000000000000000000081526004016107cd90610e3e565b60405180910390fd5b600181815481106107ea576107e961107e565b5b90600052602060002090600202016000808201600061080991906109c5565b6001820160009055505050565b60006001828154811061082c5761082b61107e565b5b9060005260206000209060020201905080600101546000803373ffffffffffffffffffffffffffffffffffffffff1673ffffffffffffffffffffffffffffffffffffffff16815260200190815260200160002054116108c0576040517f08c379a00000000000000000000000000000000000000000000000000000000081526004016108b790610e1e565b60405180910390fd5b80600101546000803373ffffffffffffffffffffffffffffffffffffffff1673ffffffffffffffffffffffffffffffffffffffff16815260200190815260200160002060008282546109129190610f0b565b925050819055506109216101fe565b50505050565b60006020528060005260406000206000915090505481565b82805461094b90610fbd565b90600052602060002090601f01602090048101928261096d57600085556109b4565b82601f1061098657805160ff19168380011785556109b4565b828001600101855582156109b4579182015b828111156109b3578251825591602001919060010190610998565b5b5090506109c19190610a05565b5090565b5080546109d190610fbd565b6000825580601f106109e35750610a02565b601f016020900490600052602060002090810190610a019190610a05565b5b50565b5b80821115610a1e576000816000905550600101610a06565b5090565b6000610a35610a3084610ebe565b610e99565b905082815260208101848484011115610a5157610a506110e1565b5b610a5c848285610f7b565b509392505050565b600081359050610a738161128f565b92915050565b600082601f830112610a8e57610a8d6110dc565b5b8135610a9e848260208601610a22565b91505092915050565b600081359050610ab6816112a6565b92915050565b600060208284031215610ad257610ad16110eb565b5b6000610ae084828501610a64565b91505092915050565b60008060408385031215610b0057610aff6110eb565b5b6000610b0e85828601610a64565b9250506020610b1f85828601610aa7565b9150509250929050565b60008060408385031215610b4057610b3f6110eb565b5b600083013567ffffffffffffffff811115610b5e57610b5d6110e6565b5b610b6a85828601610a79565b9250506020610b7b85828601610aa7565b9150509250929050565b600060208284031215610b9b57610b9a6110eb565b5b6000610ba984828501610aa7565b91505092915050565b600080600060608486031215610bcb57610bca6110eb565b5b6000610bd986828701610aa7565b935050602084013567ffffffffffffffff811115610bfa57610bf96110e6565b5b610c0686828701610a79565b9250506040610c1786828701610aa7565b9150509250925092565b610c2a81610f3f565b82525050565b6000610c3b82610eef565b610c458185610efa565b9350610c55818560208601610f8a565b610c5e816110f0565b840191505092915050565b6000610c76603483610efa565b9150610c8182611101565b604082019050919050565b6000610c99602583610efa565b9150610ca482611150565b604082019050919050565b6000610cbc603083610efa565b9150610cc78261119f565b604082019050919050565b6000610cdf601e83610efa565b9150610cea826111ee565b602082019050919050565b6000610d02603383610efa565b9150610d0d82611217565b604082019050919050565b6000610d25601e83610efa565b9150610d3082611266565b602082019050919050565b610d4481610f71565b82525050565b6000602082019050610d5f6000830184610c21565b92915050565b6000604082019050610d7a6000830185610c21565b610d876020830184610d3b565b9392505050565b60006040820190508181036000830152610da88185610c30565b9050610db76020830184610d3b565b9392505050565b60006020820190508181036000830152610dd781610c69565b9050919050565b60006020820190508181036000830152610df781610c8c565b9050919050565b60006020820190508181036000830152610e1781610caf565b9050919050565b60006020820190508181036000830152610e3781610cd2565b9050919050565b60006020820190508181036000830152610e5781610cf5565b9050919050565b60006020820190508181036000830152610e7781610d18565b9050919050565b6000602082019050610e936000830184610d3b565b92915050565b6000610ea3610eb4565b9050610eaf8282610fef565b919050565b6000604051905090565b600067ffffffffffffffff821115610ed957610ed86110ad565b5b610ee2826110f0565b9050602081019050919050565b600081519050919050565b600082825260208201905092915050565b6000610f1682610f71565b9150610f2183610f71565b925082821015610f3457610f33611020565b5b828203905092915050565b6000610f4a82610f51565b9050919050565b600073ffffffffffffffffffffffffffffffffffffffff82169050919050565b6000819050919050565b82818337600083830152505050565b60005b83811015610fa8578082015181840152602081019050610f8d565b83811115610fb7576000848401525b50505050565b60006002820490506001821680610fd557607f821691505b60208210811415610fe957610fe861104f565b5b50919050565b610ff8826110f0565b810181811067ffffffffffffffff82111715611017576110166110ad565b5b80604052505050565b7f4e487b7100000000000000000000000000000000000000000000000000000000600052601160045260246000fd5b7f4e487b7100000000000000000000000000000000000000000000000000000000600052602260045260246000fd5b7f4e487b7100000000000000000000000000000000000000000000000000000000600052603260045260246000fd5b7f4e487b7100000000000000000000000000000000000000000000000000000000600052604160045260246000fd5b600080fd5b600080fd5b600080fd5b600080fd5b6000601f19601f8301169050919050565b7f536f6c6f20656c2041646d696e6973747261646f722064656c2047796d20707560008201527f656465206d6f6469666963617220636c61736573000000000000000000000000602082015250565b7f596120746520656e6375656e74726173207265676973747261646f20656e206560008201527f6c2067796d000000000000000000000000000000000000000000000000000000602082015250565b7f536f6c6f20656c2041646d696e6973747261646f722064656c2047796d20707560008201527f65646520637265617220636c6173657300000000000000000000000000000000602082015250565b7f4e6f207469656e6573206372656469746f7320737566696369656e7465730000600082015250565b7f536f6c6f20656c2041646d696e6973747261646f722064656c2047796d20707560008201527f65646520656c696d696e617220636c6173657300000000000000000000000000602082015250565b7f4e6f2065786973746520756e6120636c61736520636f6e206573652049640000600082015250565b61129881610f3f565b81146112a357600080fd5b50565b6112af81610f71565b81146112ba57600080fd5b5056fea264697066735822122087702c17489a1906db8a53ce5185ec2dc0f4ca9c32771b30f435db1ddf95829964736f6c63430008070033",
					"opcodes": "PUSH1 0xA0 PUSH1 0x40 MSTORE CALLVALUE DUP1 ISZERO PUSH2 0x10 JUMPI PUSH1 0x0 DUP1 REVERT JUMPDEST POP CALLER PUSH20 0xFFFFFFFFFFFFFFFFFFFFFFFFFFFFFFFFFFFFFFFF AND PUSH1 0x80 DUP2 PUSH20 0xFFFFFFFFFFFFFFFFFFFFFFFFFFFFFFFFFFFFFFFF AND PUSH1 0x60 SHL DUP2 MSTORE POP POP PUSH1 0x80 MLOAD PUSH1 0x60 SHR PUSH2 0x12F3 PUSH2 0x7B PUSH1 0x0 CODECOPY PUSH1 0x0 DUP2 DUP2 PUSH2 0x262 ADD MSTORE DUP2 DUP2 PUSH2 0x327 ADD MSTORE DUP2 DUP2 PUSH2 0x41E ADD MSTORE PUSH2 0x761 ADD MSTORE PUSH2 0x12F3 PUSH1 0x0 RETURN INVALID PUSH1 0x80 PUSH1 0x40 MSTORE CALLVALUE DUP1 ISZERO PUSH2 0x10 JUMPI PUSH1 0x0 DUP1 REVERT JUMPDEST POP PUSH1 0x4 CALLDATASIZE LT PUSH2 0x9E JUMPI PUSH1 0x0 CALLDATALOAD PUSH1 0xE0 SHR DUP1 PUSH4 0x512D62DF GT PUSH2 0x66 JUMPI DUP1 PUSH4 0x512D62DF EQ PUSH2 0x149 JUMPI DUP1 PUSH4 0x6D705EBB EQ PUSH2 0x17A JUMPI DUP1 PUSH4 0x72C30F45 EQ PUSH2 0x196 JUMPI DUP1 PUSH4 0x7AED8136 EQ PUSH2 0x1B2 JUMPI DUP1 PUSH4 0xA87430BA EQ PUSH2 0x1CE JUMPI PUSH2 0x9E JUMP JUMPDEST DUP1 PUSH4 0x12065FE0 EQ PUSH2 0xA3 JUMPI DUP1 PUSH4 0x1E8BE099 EQ PUSH2 0xC2 JUMPI DUP1 PUSH4 0x2A0ACC6A EQ PUSH2 0xDE JUMPI DUP1 PUSH4 0x3613A9F4 EQ PUSH2 0xFC JUMPI DUP1 PUSH4 0x4852A212 EQ PUSH2 0x12D JUMPI JUMPDEST PUSH1 0x0 DUP1 REVERT JUMPDEST PUSH2 0xAB PUSH2 0x1FE JUMP JUMPDEST PUSH1 0x40 MLOAD PUSH2 0xB9 SWAP3 SWAP2 SWAP1 PUSH2 0xD65 JUMP JUMPDEST PUSH1 0x40 MLOAD DUP1 SWAP2 SUB SWAP1 RETURN JUMPDEST PUSH2 0xDC PUSH1 0x4 DUP1 CALLDATASIZE SUB DUP2 ADD SWAP1 PUSH2 0xD7 SWAP2 SWAP1 PUSH2 0xBB2 JUMP JUMPDEST PUSH2 0x249 JUMP JUMPDEST STOP JUMPDEST PUSH2 0xE6 PUSH2 0x325 JUMP JUMPDEST PUSH1 0x40 MLOAD PUSH2 0xF3 SWAP2 SWAP1 PUSH2 0xD4A JUMP JUMPDEST PUSH1 0x40 MLOAD DUP1 SWAP2 SUB SWAP1 RETURN JUMPDEST PUSH2 0x116 PUSH1 0x4 DUP1 CALLDATASIZE SUB DUP2 ADD SWAP1 PUSH2 0x111 SWAP2 SWAP1 PUSH2 0xB85 JUMP JUMPDEST PUSH2 0x349 JUMP JUMPDEST PUSH1 0x40 MLOAD PUSH2 0x124 SWAP3 SWAP2 SWAP1 PUSH2 0xD8E JUMP JUMPDEST PUSH1 0x40 MLOAD DUP1 SWAP2 SUB SWAP1 RETURN JUMPDEST PUSH2 0x147 PUSH1 0x4 DUP1 CALLDATASIZE SUB DUP2 ADD SWAP1 PUSH2 0x142 SWAP2 SWAP1 PUSH2 0xB29 JUMP JUMPDEST PUSH2 0x405 JUMP JUMPDEST STOP JUMPDEST PUSH2 0x163 PUSH1 0x4 DUP1 CALLDATASIZE SUB DUP2 ADD SWAP1 PUSH2 0x15E SWAP2 SWAP1 PUSH2 0xB85 JUMP JUMPDEST PUSH2 0x539 JUMP JUMPDEST PUSH1 0x40 MLOAD PUSH2 0x171 SWAP3 SWAP2 SWAP1 PUSH2 0xD8E JUMP JUMPDEST PUSH1 0x40 MLOAD DUP1 SWAP2 SUB SWAP1 RETURN JUMPDEST PUSH2 0x194 PUSH1 0x4 DUP1 CALLDATASIZE SUB DUP2 ADD SWAP1 PUSH2 0x18F SWAP2 SWAP1 PUSH2 0xAE9 JUMP JUMPDEST PUSH2 0x648 JUMP JUMPDEST STOP JUMPDEST PUSH2 0x1B0 PUSH1 0x4 DUP1 CALLDATASIZE SUB DUP2 ADD SWAP1 PUSH2 0x1AB SWAP2 SWAP1 PUSH2 0xB85 JUMP JUMPDEST PUSH2 0x748 JUMP JUMPDEST STOP JUMPDEST PUSH2 0x1CC PUSH1 0x4 DUP1 CALLDATASIZE SUB DUP2 ADD SWAP1 PUSH2 0x1C7 SWAP2 SWAP1 PUSH2 0xB85 JUMP JUMPDEST PUSH2 0x816 JUMP JUMPDEST STOP JUMPDEST PUSH2 0x1E8 PUSH1 0x4 DUP1 CALLDATASIZE SUB DUP2 ADD SWAP1 PUSH2 0x1E3 SWAP2 SWAP1 PUSH2 0xABC JUMP JUMPDEST PUSH2 0x927 JUMP JUMPDEST PUSH1 0x40 MLOAD PUSH2 0x1F5 SWAP2 SWAP1 PUSH2 0xE7E JUMP JUMPDEST PUSH1 0x40 MLOAD DUP1 SWAP2 SUB SWAP1 RETURN JUMPDEST PUSH1 0x0 DUP1 CALLER PUSH1 0x0 DUP1 CALLER PUSH20 0xFFFFFFFFFFFFFFFFFFFFFFFFFFFFFFFFFFFFFFFF AND PUSH20 0xFFFFFFFFFFFFFFFFFFFFFFFFFFFFFFFFFFFFFFFF AND DUP2 MSTORE PUSH1 0x20 ADD SWAP1 DUP2 MSTORE PUSH1 0x20 ADD PUSH1 0x0 KECCAK256 SLOAD SWAP2 POP SWAP2 POP SWAP1 SWAP2 JUMP JUMPDEST CALLER PUSH20 0xFFFFFFFFFFFFFFFFFFFFFFFFFFFFFFFFFFFFFFFF AND PUSH32 0x0 PUSH20 0xFFFFFFFFFFFFFFFFFFFFFFFFFFFFFFFFFFFFFFFF AND EQ PUSH2 0x2D7 JUMPI PUSH1 0x40 MLOAD PUSH32 0x8C379A000000000000000000000000000000000000000000000000000000000 DUP2 MSTORE PUSH1 0x4 ADD PUSH2 0x2CE SWAP1 PUSH2 0xDBE JUMP JUMPDEST PUSH1 0x40 MLOAD DUP1 SWAP2 SUB SWAP1 REVERT JUMPDEST PUSH1 0x0 PUSH1 0x1 DUP5 DUP2 SLOAD DUP2 LT PUSH2 0x2ED JUMPI PUSH2 0x2EC PUSH2 0x107E JUMP JUMPDEST JUMPDEST SWAP1 PUSH1 0x0 MSTORE PUSH1 0x20 PUSH1 0x0 KECCAK256 SWAP1 PUSH1 0x2 MUL ADD SWAP1 POP DUP3 DUP2 PUSH1 0x0 ADD SWAP1 DUP1 MLOAD SWAP1 PUSH1 0x20 ADD SWAP1 PUSH2 0x315 SWAP3 SWAP2 SWAP1 PUSH2 0x93F JUMP JUMPDEST POP DUP2 DUP2 PUSH1 0x1 ADD DUP2 SWAP1 SSTORE POP POP POP POP POP JUMP JUMPDEST PUSH32 0x0 DUP2 JUMP JUMPDEST PUSH1 0x1 DUP2 DUP2 SLOAD DUP2 LT PUSH2 0x359 JUMPI PUSH1 0x0 DUP1 REVERT JUMPDEST SWAP1 PUSH1 0x0 MSTORE PUSH1 0x20 PUSH1 0x0 KECCAK256 SWAP1 PUSH1 0x2 MUL ADD PUSH1 0x0 SWAP2 POP SWAP1 POP DUP1 PUSH1 0x0 ADD DUP1 SLOAD PUSH2 0x37C SWAP1 PUSH2 0xFBD JUMP JUMPDEST DUP1 PUSH1 0x1F ADD PUSH1 0x20 DUP1 SWAP2 DIV MUL PUSH1 0x20 ADD PUSH1 0x40 MLOAD SWAP1 DUP2 ADD PUSH1 0x40 MSTORE DUP1 SWAP3 SWAP2 SWAP1 DUP2 DUP2 MSTORE PUSH1 0x20 ADD DUP3 DUP1 SLOAD PUSH2 0x3A8 SWAP1 PUSH2 0xFBD JUMP JUMPDEST DUP1 ISZERO PUSH2 0x3F5 JUMPI DUP1 PUSH1 0x1F LT PUSH2 0x3CA JUMPI PUSH2 0x100 DUP1 DUP4 SLOAD DIV MUL DUP4 MSTORE SWAP2 PUSH1 0x20 ADD SWAP2 PUSH2 0x3F5 JUMP JUMPDEST DUP3 ADD SWAP2 SWAP1 PUSH1 0x0 MSTORE PUSH1 0x20 PUSH1 0x0 KECCAK256 SWAP1 JUMPDEST DUP2 SLOAD DUP2 MSTORE SWAP1 PUSH1 0x1 ADD SWAP1 PUSH1 0x20 ADD DUP1 DUP4 GT PUSH2 0x3D8 JUMPI DUP3 SWAP1 SUB PUSH1 0x1F AND DUP3 ADD SWAP2 JUMPDEST POP POP POP POP POP SWAP1 DUP1 PUSH1 0x1 ADD SLOAD SWAP1 POP DUP3 JUMP JUMPDEST CALLER PUSH20 0xFFFFFFFFFFFFFFFFFFFFFFFFFFFFFFFFFFFFFFFF AND PUSH32 0x0 PUSH20 0xFFFFFFFFFFFFFFFFFFFFFFFFFFFFFFFFFFFFFFFF AND EQ PUSH2 0x493 JUMPI PUSH1 0x40 MLOAD PUSH32 0x8C379A000000000000000000000000000000000000000000000000000000000 DUP2 MSTORE PUSH1 0x4 ADD PUSH2 0x48A SWAP1 PUSH2 0xDFE JUMP JUMPDEST PUSH1 0x40 MLOAD DUP1 SWAP2 SUB SWAP1 REVERT JUMPDEST PUSH1 0x1 PUSH1 0x40 MLOAD DUP1 PUSH1 0x40 ADD PUSH1 0x40 MSTORE DUP1 DUP5 DUP2 MSTORE PUSH1 0x20 ADD DUP4 DUP2 MSTORE POP SWAP1 DUP1 PUSH1 0x1 DUP2 SLOAD ADD DUP1 DUP3 SSTORE DUP1 SWAP2 POP POP PUSH1 0x1 SWAP1 SUB SWAP1 PUSH1 0x0 MSTORE PUSH1 0x20 PUSH1 0x0 KECCAK256 SWAP1 PUSH1 0x2 MUL ADD PUSH1 0x0 SWAP1 SWAP2 SWAP1 SWAP2 SWAP1 SWAP2 POP PUSH1 0x0 DUP3 ADD MLOAD DUP2 PUSH1 0x0 ADD SWAP1 DUP1 MLOAD SWAP1 PUSH1 0x20 ADD SWAP1 PUSH2 0x4EF SWAP3 SWAP2 SWAP1 PUSH2 0x93F JUMP JUMPDEST POP PUSH1 0x20 DUP3 ADD MLOAD DUP2 PUSH1 0x1 ADD SSTORE POP POP PUSH32 0x14D49E3EA4F348B7F368906DFE1A63055C7822D622A61672A35A55AE97A768F9 DUP3 DUP3 PUSH1 0x40 MLOAD PUSH2 0x52D SWAP3 SWAP2 SWAP1 PUSH2 0xD8E JUMP JUMPDEST PUSH1 0x40 MLOAD DUP1 SWAP2 SUB SWAP1 LOG1 POP POP JUMP JUMPDEST PUSH1 0x60 PUSH1 0x0 DUP1 PUSH1 0x1 DUP5 DUP2 SLOAD DUP2 LT PUSH2 0x552 JUMPI PUSH2 0x551 PUSH2 0x107E JUMP JUMPDEST JUMPDEST SWAP1 PUSH1 0x0 MSTORE PUSH1 0x20 PUSH1 0x0 KECCAK256 SWAP1 PUSH1 0x2 MUL ADD SWAP1 POP PUSH1 0x0 DUP2 PUSH1 0x1 ADD SLOAD EQ PUSH2 0x5A9 JUMPI PUSH1 0x40 MLOAD PUSH32 0x8C379A000000000000000000000000000000000000000000000000000000000 DUP2 MSTORE PUSH1 0x4 ADD PUSH2 0x5A0 SWAP1 PUSH2 0xE5E JUMP JUMPDEST PUSH1 0x40 MLOAD DUP1 SWAP2 SUB SWAP1 REVERT JUMPDEST DUP1 PUSH1 0x0 ADD DUP2 PUSH1 0x1 ADD SLOAD DUP2 DUP1 SLOAD PUSH2 0x5BE SWAP1 PUSH2 0xFBD JUMP JUMPDEST DUP1 PUSH1 0x1F ADD PUSH1 0x20 DUP1 SWAP2 DIV MUL PUSH1 0x20 ADD PUSH1 0x40 MLOAD SWAP1 DUP2 ADD PUSH1 0x40 MSTORE DUP1 SWAP3 SWAP2 SWAP1 DUP2 DUP2 MSTORE PUSH1 0x20 ADD DUP3 DUP1 SLOAD PUSH2 0x5EA SWAP1 PUSH2 0xFBD JUMP JUMPDEST DUP1 ISZERO PUSH2 0x637 JUMPI DUP1 PUSH1 0x1F LT PUSH2 0x60C JUMPI PUSH2 0x100 DUP1 DUP4 SLOAD DIV MUL DUP4 MSTORE SWAP2 PUSH1 0x20 ADD SWAP2 PUSH2 0x637 JUMP JUMPDEST DUP3 ADD SWAP2 SWAP1 PUSH1 0x0 MSTORE PUSH1 0x20 PUSH1 0x0 KECCAK256 SWAP1 JUMPDEST DUP2 SLOAD DUP2 MSTORE SWAP1 PUSH1 0x1 ADD SWAP1 PUSH1 0x20 ADD DUP1 DUP4 GT PUSH2 0x61A JUMPI DUP3 SWAP1 SUB PUSH1 0x1F AND DUP3 ADD SWAP2 JUMPDEST POP POP POP POP POP SWAP2 POP SWAP3 POP SWAP3 POP POP SWAP2 POP SWAP2 JUMP JUMPDEST PUSH1 0x0 DUP1 PUSH1 0x0 CALLER PUSH20 0xFFFFFFFFFFFFFFFFFFFFFFFFFFFFFFFFFFFFFFFF AND PUSH20 0xFFFFFFFFFFFFFFFFFFFFFFFFFFFFFFFFFFFFFFFF AND DUP2 MSTORE PUSH1 0x20 ADD SWAP1 DUP2 MSTORE PUSH1 0x20 ADD PUSH1 0x0 KECCAK256 SLOAD EQ PUSH2 0x6C9 JUMPI PUSH1 0x40 MLOAD PUSH32 0x8C379A000000000000000000000000000000000000000000000000000000000 DUP2 MSTORE PUSH1 0x4 ADD PUSH2 0x6C0 SWAP1 PUSH2 0xDDE JUMP JUMPDEST PUSH1 0x40 MLOAD DUP1 SWAP2 SUB SWAP1 REVERT JUMPDEST DUP1 PUSH1 0x0 DUP1 CALLER PUSH20 0xFFFFFFFFFFFFFFFFFFFFFFFFFFFFFFFFFFFFFFFF AND PUSH20 0xFFFFFFFFFFFFFFFFFFFFFFFFFFFFFFFFFFFFFFFF AND DUP2 MSTORE PUSH1 0x20 ADD SWAP1 DUP2 MSTORE PUSH1 0x20 ADD PUSH1 0x0 KECCAK256 DUP2 SWAP1 SSTORE POP PUSH31 0x7DC6AB80CC84C043B7B8D4FCAFC802187470087F7EA7FCCD2E17AECD0256A1 DUP3 DUP3 PUSH1 0x40 MLOAD PUSH2 0x73C SWAP3 SWAP2 SWAP1 PUSH2 0xD65 JUMP JUMPDEST PUSH1 0x40 MLOAD DUP1 SWAP2 SUB SWAP1 LOG1 POP POP JUMP JUMPDEST CALLER PUSH20 0xFFFFFFFFFFFFFFFFFFFFFFFFFFFFFFFFFFFFFFFF AND PUSH32 0x0 PUSH20 0xFFFFFFFFFFFFFFFFFFFFFFFFFFFFFFFFFFFFFFFF AND EQ PUSH2 0x7D6 JUMPI PUSH1 0x40 MLOAD PUSH32 0x8C379A000000000000000000000000000000000000000000000000000000000 DUP2 MSTORE PUSH1 0x4 ADD PUSH2 0x7CD SWAP1 PUSH2 0xE3E JUMP JUMPDEST PUSH1 0x40 MLOAD DUP1 SWAP2 SUB SWAP1 REVERT JUMPDEST PUSH1 0x1 DUP2 DUP2 SLOAD DUP2 LT PUSH2 0x7EA JUMPI PUSH2 0x7E9 PUSH2 0x107E JUMP JUMPDEST JUMPDEST SWAP1 PUSH1 0x0 MSTORE PUSH1 0x20 PUSH1 0x0 KECCAK256 SWAP1 PUSH1 0x2 MUL ADD PUSH1 0x0 DUP1 DUP3 ADD PUSH1 0x0 PUSH2 0x809 SWAP2 SWAP1 PUSH2 0x9C5 JUMP JUMPDEST PUSH1 0x1 DUP3 ADD PUSH1 0x0 SWAP1 SSTORE POP POP POP JUMP JUMPDEST PUSH1 0x0 PUSH1 0x1 DUP3 DUP2 SLOAD DUP2 LT PUSH2 0x82C JUMPI PUSH2 0x82B PUSH2 0x107E JUMP JUMPDEST JUMPDEST SWAP1 PUSH1 0x0 MSTORE PUSH1 0x20 PUSH1 0x0 KECCAK256 SWAP1 PUSH1 0x2 MUL ADD SWAP1 POP DUP1 PUSH1 0x1 ADD SLOAD PUSH1 0x0 DUP1 CALLER PUSH20 0xFFFFFFFFFFFFFFFFFFFFFFFFFFFFFFFFFFFFFFFF AND PUSH20 0xFFFFFFFFFFFFFFFFFFFFFFFFFFFFFFFFFFFFFFFF AND DUP2 MSTORE PUSH1 0x20 ADD SWAP1 DUP2 MSTORE PUSH1 0x20 ADD PUSH1 0x0 KECCAK256 SLOAD GT PUSH2 0x8C0 JUMPI PUSH1 0x40 MLOAD PUSH32 0x8C379A000000000000000000000000000000000000000000000000000000000 DUP2 MSTORE PUSH1 0x4 ADD PUSH2 0x8B7 SWAP1 PUSH2 0xE1E JUMP JUMPDEST PUSH1 0x40 MLOAD DUP1 SWAP2 SUB SWAP1 REVERT JUMPDEST DUP1 PUSH1 0x1 ADD SLOAD PUSH1 0x0 DUP1 CALLER PUSH20 0xFFFFFFFFFFFFFFFFFFFFFFFFFFFFFFFFFFFFFFFF AND PUSH20 0xFFFFFFFFFFFFFFFFFFFFFFFFFFFFFFFFFFFFFFFF AND DUP2 MSTORE PUSH1 0x20 ADD SWAP1 DUP2 MSTORE PUSH1 0x20 ADD PUSH1 0x0 KECCAK256 PUSH1 0x0 DUP3 DUP3 SLOAD PUSH2 0x912 SWAP2 SWAP1 PUSH2 0xF0B JUMP JUMPDEST SWAP3 POP POP DUP2 SWAP1 SSTORE POP PUSH2 0x921 PUSH2 0x1FE JUMP JUMPDEST POP POP POP POP JUMP JUMPDEST PUSH1 0x0 PUSH1 0x20 MSTORE DUP1 PUSH1 0x0 MSTORE PUSH1 0x40 PUSH1 0x0 KECCAK256 PUSH1 0x0 SWAP2 POP SWAP1 POP SLOAD DUP2 JUMP JUMPDEST DUP3 DUP1 SLOAD PUSH2 0x94B SWAP1 PUSH2 0xFBD JUMP JUMPDEST SWAP1 PUSH1 0x0 MSTORE PUSH1 0x20 PUSH1 0x0 KECCAK256 SWAP1 PUSH1 0x1F ADD PUSH1 0x20 SWAP1 DIV DUP2 ADD SWAP3 DUP3 PUSH2 0x96D JUMPI PUSH1 0x0 DUP6 SSTORE PUSH2 0x9B4 JUMP JUMPDEST DUP3 PUSH1 0x1F LT PUSH2 0x986 JUMPI DUP1 MLOAD PUSH1 0xFF NOT AND DUP4 DUP1 ADD OR DUP6 SSTORE PUSH2 0x9B4 JUMP JUMPDEST DUP3 DUP1 ADD PUSH1 0x1 ADD DUP6 SSTORE DUP3 ISZERO PUSH2 0x9B4 JUMPI SWAP2 DUP3 ADD JUMPDEST DUP3 DUP2 GT ISZERO PUSH2 0x9B3 JUMPI DUP3 MLOAD DUP3 SSTORE SWAP2 PUSH1 0x20 ADD SWAP2 SWAP1 PUSH1 0x1 ADD SWAP1 PUSH2 0x998 JUMP JUMPDEST JUMPDEST POP SWAP1 POP PUSH2 0x9C1 SWAP2 SWAP1 PUSH2 0xA05 JUMP JUMPDEST POP SWAP1 JUMP JUMPDEST POP DUP1 SLOAD PUSH2 0x9D1 SWAP1 PUSH2 0xFBD JUMP JUMPDEST PUSH1 0x0 DUP3 SSTORE DUP1 PUSH1 0x1F LT PUSH2 0x9E3 JUMPI POP PUSH2 0xA02 JUMP JUMPDEST PUSH1 0x1F ADD PUSH1 0x20 SWAP1 DIV SWAP1 PUSH1 0x0 MSTORE PUSH1 0x20 PUSH1 0x0 KECCAK256 SWAP1 DUP2 ADD SWAP1 PUSH2 0xA01 SWAP2 SWAP1 PUSH2 0xA05 JUMP JUMPDEST JUMPDEST POP JUMP JUMPDEST JUMPDEST DUP1 DUP3 GT ISZERO PUSH2 0xA1E JUMPI PUSH1 0x0 DUP2 PUSH1 0x0 SWAP1 SSTORE POP PUSH1 0x1 ADD PUSH2 0xA06 JUMP JUMPDEST POP SWAP1 JUMP JUMPDEST PUSH1 0x0 PUSH2 0xA35 PUSH2 0xA30 DUP5 PUSH2 0xEBE JUMP JUMPDEST PUSH2 0xE99 JUMP JUMPDEST SWAP1 POP DUP3 DUP2 MSTORE PUSH1 0x20 DUP2 ADD DUP5 DUP5 DUP5 ADD GT ISZERO PUSH2 0xA51 JUMPI PUSH2 0xA50 PUSH2 0x10E1 JUMP JUMPDEST JUMPDEST PUSH2 0xA5C DUP5 DUP3 DUP6 PUSH2 0xF7B JUMP JUMPDEST POP SWAP4 SWAP3 POP POP POP JUMP JUMPDEST PUSH1 0x0 DUP2 CALLDATALOAD SWAP1 POP PUSH2 0xA73 DUP2 PUSH2 0x128F JUMP JUMPDEST SWAP3 SWAP2 POP POP JUMP JUMPDEST PUSH1 0x0 DUP3 PUSH1 0x1F DUP4 ADD SLT PUSH2 0xA8E JUMPI PUSH2 0xA8D PUSH2 0x10DC JUMP JUMPDEST JUMPDEST DUP2 CALLDATALOAD PUSH2 0xA9E DUP5 DUP3 PUSH1 0x20 DUP7 ADD PUSH2 0xA22 JUMP JUMPDEST SWAP2 POP POP SWAP3 SWAP2 POP POP JUMP JUMPDEST PUSH1 0x0 DUP2 CALLDATALOAD SWAP1 POP PUSH2 0xAB6 DUP2 PUSH2 0x12A6 JUMP JUMPDEST SWAP3 SWAP2 POP POP JUMP JUMPDEST PUSH1 0x0 PUSH1 0x20 DUP3 DUP5 SUB SLT ISZERO PUSH2 0xAD2 JUMPI PUSH2 0xAD1 PUSH2 0x10EB JUMP JUMPDEST JUMPDEST PUSH1 0x0 PUSH2 0xAE0 DUP5 DUP3 DUP6 ADD PUSH2 0xA64 JUMP JUMPDEST SWAP2 POP POP SWAP3 SWAP2 POP POP JUMP JUMPDEST PUSH1 0x0 DUP1 PUSH1 0x40 DUP4 DUP6 SUB SLT ISZERO PUSH2 0xB00 JUMPI PUSH2 0xAFF PUSH2 0x10EB JUMP JUMPDEST JUMPDEST PUSH1 0x0 PUSH2 0xB0E DUP6 DUP3 DUP7 ADD PUSH2 0xA64 JUMP JUMPDEST SWAP3 POP POP PUSH1 0x20 PUSH2 0xB1F DUP6 DUP3 DUP7 ADD PUSH2 0xAA7 JUMP JUMPDEST SWAP2 POP POP SWAP3 POP SWAP3 SWAP1 POP JUMP JUMPDEST PUSH1 0x0 DUP1 PUSH1 0x40 DUP4 DUP6 SUB SLT ISZERO PUSH2 0xB40 JUMPI PUSH2 0xB3F PUSH2 0x10EB JUMP JUMPDEST JUMPDEST PUSH1 0x0 DUP4 ADD CALLDATALOAD PUSH8 0xFFFFFFFFFFFFFFFF DUP2 GT ISZERO PUSH2 0xB5E JUMPI PUSH2 0xB5D PUSH2 0x10E6 JUMP JUMPDEST JUMPDEST PUSH2 0xB6A DUP6 DUP3 DUP7 ADD PUSH2 0xA79 JUMP JUMPDEST SWAP3 POP POP PUSH1 0x20 PUSH2 0xB7B DUP6 DUP3 DUP7 ADD PUSH2 0xAA7 JUMP JUMPDEST SWAP2 POP POP SWAP3 POP SWAP3 SWAP1 POP JUMP JUMPDEST PUSH1 0x0 PUSH1 0x20 DUP3 DUP5 SUB SLT ISZERO PUSH2 0xB9B JUMPI PUSH2 0xB9A PUSH2 0x10EB JUMP JUMPDEST JUMPDEST PUSH1 0x0 PUSH2 0xBA9 DUP5 DUP3 DUP6 ADD PUSH2 0xAA7 JUMP JUMPDEST SWAP2 POP POP SWAP3 SWAP2 POP POP JUMP JUMPDEST PUSH1 0x0 DUP1 PUSH1 0x0 PUSH1 0x60 DUP5 DUP7 SUB SLT ISZERO PUSH2 0xBCB JUMPI PUSH2 0xBCA PUSH2 0x10EB JUMP JUMPDEST JUMPDEST PUSH1 0x0 PUSH2 0xBD9 DUP7 DUP3 DUP8 ADD PUSH2 0xAA7 JUMP JUMPDEST SWAP4 POP POP PUSH1 0x20 DUP5 ADD CALLDATALOAD PUSH8 0xFFFFFFFFFFFFFFFF DUP2 GT ISZERO PUSH2 0xBFA JUMPI PUSH2 0xBF9 PUSH2 0x10E6 JUMP JUMPDEST JUMPDEST PUSH2 0xC06 DUP7 DUP3 DUP8 ADD PUSH2 0xA79 JUMP JUMPDEST SWAP3 POP POP PUSH1 0x40 PUSH2 0xC17 DUP7 DUP3 DUP8 ADD PUSH2 0xAA7 JUMP JUMPDEST SWAP2 POP POP SWAP3 POP SWAP3 POP SWAP3 JUMP JUMPDEST PUSH2 0xC2A DUP2 PUSH2 0xF3F JUMP JUMPDEST DUP3 MSTORE POP POP JUMP JUMPDEST PUSH1 0x0 PUSH2 0xC3B DUP3 PUSH2 0xEEF JUMP JUMPDEST PUSH2 0xC45 DUP2 DUP6 PUSH2 0xEFA JUMP JUMPDEST SWAP4 POP PUSH2 0xC55 DUP2 DUP6 PUSH1 0x20 DUP7 ADD PUSH2 0xF8A JUMP JUMPDEST PUSH2 0xC5E DUP2 PUSH2 0x10F0 JUMP JUMPDEST DUP5 ADD SWAP2 POP POP SWAP3 SWAP2 POP POP JUMP JUMPDEST PUSH1 0x0 PUSH2 0xC76 PUSH1 0x34 DUP4 PUSH2 0xEFA JUMP JUMPDEST SWAP2 POP PUSH2 0xC81 DUP3 PUSH2 0x1101 JUMP JUMPDEST PUSH1 0x40 DUP3 ADD SWAP1 POP SWAP2 SWAP1 POP JUMP JUMPDEST PUSH1 0x0 PUSH2 0xC99 PUSH1 0x25 DUP4 PUSH2 0xEFA JUMP JUMPDEST SWAP2 POP PUSH2 0xCA4 DUP3 PUSH2 0x1150 JUMP JUMPDEST PUSH1 0x40 DUP3 ADD SWAP1 POP SWAP2 SWAP1 POP JUMP JUMPDEST PUSH1 0x0 PUSH2 0xCBC PUSH1 0x30 DUP4 PUSH2 0xEFA JUMP JUMPDEST SWAP2 POP PUSH2 0xCC7 DUP3 PUSH2 0x119F JUMP JUMPDEST PUSH1 0x40 DUP3 ADD SWAP1 POP SWAP2 SWAP1 POP JUMP JUMPDEST PUSH1 0x0 PUSH2 0xCDF PUSH1 0x1E DUP4 PUSH2 0xEFA JUMP JUMPDEST SWAP2 POP PUSH2 0xCEA DUP3 PUSH2 0x11EE JUMP JUMPDEST PUSH1 0x20 DUP3 ADD SWAP1 POP SWAP2 SWAP1 POP JUMP JUMPDEST PUSH1 0x0 PUSH2 0xD02 PUSH1 0x33 DUP4 PUSH2 0xEFA JUMP JUMPDEST SWAP2 POP PUSH2 0xD0D DUP3 PUSH2 0x1217 JUMP JUMPDEST PUSH1 0x40 DUP3 ADD SWAP1 POP SWAP2 SWAP1 POP JUMP JUMPDEST PUSH1 0x0 PUSH2 0xD25 PUSH1 0x1E DUP4 PUSH2 0xEFA JUMP JUMPDEST SWAP2 POP PUSH2 0xD30 DUP3 PUSH2 0x1266 JUMP JUMPDEST PUSH1 0x20 DUP3 ADD SWAP1 POP SWAP2 SWAP1 POP JUMP JUMPDEST PUSH2 0xD44 DUP2 PUSH2 0xF71 JUMP JUMPDEST DUP3 MSTORE POP POP JUMP JUMPDEST PUSH1 0x0 PUSH1 0x20 DUP3 ADD SWAP1 POP PUSH2 0xD5F PUSH1 0x0 DUP4 ADD DUP5 PUSH2 0xC21 JUMP JUMPDEST SWAP3 SWAP2 POP POP JUMP JUMPDEST PUSH1 0x0 PUSH1 0x40 DUP3 ADD SWAP1 POP PUSH2 0xD7A PUSH1 0x0 DUP4 ADD DUP6 PUSH2 0xC21 JUMP JUMPDEST PUSH2 0xD87 PUSH1 0x20 DUP4 ADD DUP5 PUSH2 0xD3B JUMP JUMPDEST SWAP4 SWAP3 POP POP POP JUMP JUMPDEST PUSH1 0x0 PUSH1 0x40 DUP3 ADD SWAP1 POP DUP2 DUP2 SUB PUSH1 0x0 DUP4 ADD MSTORE PUSH2 0xDA8 DUP2 DUP6 PUSH2 0xC30 JUMP JUMPDEST SWAP1 POP PUSH2 0xDB7 PUSH1 0x20 DUP4 ADD DUP5 PUSH2 0xD3B JUMP JUMPDEST SWAP4 SWAP3 POP POP POP JUMP JUMPDEST PUSH1 0x0 PUSH1 0x20 DUP3 ADD SWAP1 POP DUP2 DUP2 SUB PUSH1 0x0 DUP4 ADD MSTORE PUSH2 0xDD7 DUP2 PUSH2 0xC69 JUMP JUMPDEST SWAP1 POP SWAP2 SWAP1 POP JUMP JUMPDEST PUSH1 0x0 PUSH1 0x20 DUP3 ADD SWAP1 POP DUP2 DUP2 SUB PUSH1 0x0 DUP4 ADD MSTORE PUSH2 0xDF7 DUP2 PUSH2 0xC8C JUMP JUMPDEST SWAP1 POP SWAP2 SWAP1 POP JUMP JUMPDEST PUSH1 0x0 PUSH1 0x20 DUP3 ADD SWAP1 POP DUP2 DUP2 SUB PUSH1 0x0 DUP4 ADD MSTORE PUSH2 0xE17 DUP2 PUSH2 0xCAF JUMP JUMPDEST SWAP1 POP SWAP2 SWAP1 POP JUMP JUMPDEST PUSH1 0x0 PUSH1 0x20 DUP3 ADD SWAP1 POP DUP2 DUP2 SUB PUSH1 0x0 DUP4 ADD MSTORE PUSH2 0xE37 DUP2 PUSH2 0xCD2 JUMP JUMPDEST SWAP1 POP SWAP2 SWAP1 POP JUMP JUMPDEST PUSH1 0x0 PUSH1 0x20 DUP3 ADD SWAP1 POP DUP2 DUP2 SUB PUSH1 0x0 DUP4 ADD MSTORE PUSH2 0xE57 DUP2 PUSH2 0xCF5 JUMP JUMPDEST SWAP1 POP SWAP2 SWAP1 POP JUMP JUMPDEST PUSH1 0x0 PUSH1 0x20 DUP3 ADD SWAP1 POP DUP2 DUP2 SUB PUSH1 0x0 DUP4 ADD MSTORE PUSH2 0xE77 DUP2 PUSH2 0xD18 JUMP JUMPDEST SWAP1 POP SWAP2 SWAP1 POP JUMP JUMPDEST PUSH1 0x0 PUSH1 0x20 DUP3 ADD SWAP1 POP PUSH2 0xE93 PUSH1 0x0 DUP4 ADD DUP5 PUSH2 0xD3B JUMP JUMPDEST SWAP3 SWAP2 POP POP JUMP JUMPDEST PUSH1 0x0 PUSH2 0xEA3 PUSH2 0xEB4 JUMP JUMPDEST SWAP1 POP PUSH2 0xEAF DUP3 DUP3 PUSH2 0xFEF JUMP JUMPDEST SWAP2 SWAP1 POP JUMP JUMPDEST PUSH1 0x0 PUSH1 0x40 MLOAD SWAP1 POP SWAP1 JUMP JUMPDEST PUSH1 0x0 PUSH8 0xFFFFFFFFFFFFFFFF DUP3 GT ISZERO PUSH2 0xED9 JUMPI PUSH2 0xED8 PUSH2 0x10AD JUMP JUMPDEST JUMPDEST PUSH2 0xEE2 DUP3 PUSH2 0x10F0 JUMP JUMPDEST SWAP1 POP PUSH1 0x20 DUP2 ADD SWAP1 POP SWAP2 SWAP1 POP JUMP JUMPDEST PUSH1 0x0 DUP2 MLOAD SWAP1 POP SWAP2 SWAP1 POP JUMP JUMPDEST PUSH1 0x0 DUP3 DUP3 MSTORE PUSH1 0x20 DUP3 ADD SWAP1 POP SWAP3 SWAP2 POP POP JUMP JUMPDEST PUSH1 0x0 PUSH2 0xF16 DUP3 PUSH2 0xF71 JUMP JUMPDEST SWAP2 POP PUSH2 0xF21 DUP4 PUSH2 0xF71 JUMP JUMPDEST SWAP3 POP DUP3 DUP3 LT ISZERO PUSH2 0xF34 JUMPI PUSH2 0xF33 PUSH2 0x1020 JUMP JUMPDEST JUMPDEST DUP3 DUP3 SUB SWAP1 POP SWAP3 SWAP2 POP POP JUMP JUMPDEST PUSH1 0x0 PUSH2 0xF4A DUP3 PUSH2 0xF51 JUMP JUMPDEST SWAP1 POP SWAP2 SWAP1 POP JUMP JUMPDEST PUSH1 0x0 PUSH20 0xFFFFFFFFFFFFFFFFFFFFFFFFFFFFFFFFFFFFFFFF DUP3 AND SWAP1 POP SWAP2 SWAP1 POP JUMP JUMPDEST PUSH1 0x0 DUP2 SWAP1 POP SWAP2 SWAP1 POP JUMP JUMPDEST DUP3 DUP2 DUP4 CALLDATACOPY PUSH1 0x0 DUP4 DUP4 ADD MSTORE POP POP POP JUMP JUMPDEST PUSH1 0x0 JUMPDEST DUP4 DUP2 LT ISZERO PUSH2 0xFA8 JUMPI DUP1 DUP3 ADD MLOAD DUP2 DUP5 ADD MSTORE PUSH1 0x20 DUP2 ADD SWAP1 POP PUSH2 0xF8D JUMP JUMPDEST DUP4 DUP2 GT ISZERO PUSH2 0xFB7 JUMPI PUSH1 0x0 DUP5 DUP5 ADD MSTORE JUMPDEST POP POP POP POP JUMP JUMPDEST PUSH1 0x0 PUSH1 0x2 DUP3 DIV SWAP1 POP PUSH1 0x1 DUP3 AND DUP1 PUSH2 0xFD5 JUMPI PUSH1 0x7F DUP3 AND SWAP2 POP JUMPDEST PUSH1 0x20 DUP3 LT DUP2 EQ ISZERO PUSH2 0xFE9 JUMPI PUSH2 0xFE8 PUSH2 0x104F JUMP JUMPDEST JUMPDEST POP SWAP2 SWAP1 POP JUMP JUMPDEST PUSH2 0xFF8 DUP3 PUSH2 0x10F0 JUMP JUMPDEST DUP2 ADD DUP2 DUP2 LT PUSH8 0xFFFFFFFFFFFFFFFF DUP3 GT OR ISZERO PUSH2 0x1017 JUMPI PUSH2 0x1016 PUSH2 0x10AD JUMP JUMPDEST JUMPDEST DUP1 PUSH1 0x40 MSTORE POP POP POP JUMP JUMPDEST PUSH32 0x4E487B7100000000000000000000000000000000000000000000000000000000 PUSH1 0x0 MSTORE PUSH1 0x11 PUSH1 0x4 MSTORE PUSH1 0x24 PUSH1 0x0 REVERT JUMPDEST PUSH32 0x4E487B7100000000000000000000000000000000000000000000000000000000 PUSH1 0x0 MSTORE PUSH1 0x22 PUSH1 0x4 MSTORE PUSH1 0x24 PUSH1 0x0 REVERT JUMPDEST PUSH32 0x4E487B7100000000000000000000000000000000000000000000000000000000 PUSH1 0x0 MSTORE PUSH1 0x32 PUSH1 0x4 MSTORE PUSH1 0x24 PUSH1 0x0 REVERT JUMPDEST PUSH32 0x4E487B7100000000000000000000000000000000000000000000000000000000 PUSH1 0x0 MSTORE PUSH1 0x41 PUSH1 0x4 MSTORE PUSH1 0x24 PUSH1 0x0 REVERT JUMPDEST PUSH1 0x0 DUP1 REVERT JUMPDEST PUSH1 0x0 DUP1 REVERT JUMPDEST PUSH1 0x0 DUP1 REVERT JUMPDEST PUSH1 0x0 DUP1 REVERT JUMPDEST PUSH1 0x0 PUSH1 0x1F NOT PUSH1 0x1F DUP4 ADD AND SWAP1 POP SWAP2 SWAP1 POP JUMP JUMPDEST PUSH32 0x536F6C6F20656C2041646D696E6973747261646F722064656C2047796D207075 PUSH1 0x0 DUP3 ADD MSTORE PUSH32 0x656465206D6F6469666963617220636C61736573000000000000000000000000 PUSH1 0x20 DUP3 ADD MSTORE POP JUMP JUMPDEST PUSH32 0x596120746520656E6375656E74726173207265676973747261646F20656E2065 PUSH1 0x0 DUP3 ADD MSTORE PUSH32 0x6C2067796D000000000000000000000000000000000000000000000000000000 PUSH1 0x20 DUP3 ADD MSTORE POP JUMP JUMPDEST PUSH32 0x536F6C6F20656C2041646D696E6973747261646F722064656C2047796D207075 PUSH1 0x0 DUP3 ADD MSTORE PUSH32 0x65646520637265617220636C6173657300000000000000000000000000000000 PUSH1 0x20 DUP3 ADD MSTORE POP JUMP JUMPDEST PUSH32 0x4E6F207469656E6573206372656469746F7320737566696369656E7465730000 PUSH1 0x0 DUP3 ADD MSTORE POP JUMP JUMPDEST PUSH32 0x536F6C6F20656C2041646D696E6973747261646F722064656C2047796D207075 PUSH1 0x0 DUP3 ADD MSTORE PUSH32 0x65646520656C696D696E617220636C6173657300000000000000000000000000 PUSH1 0x20 DUP3 ADD MSTORE POP JUMP JUMPDEST PUSH32 0x4E6F2065786973746520756E6120636C61736520636F6E206573652049640000 PUSH1 0x0 DUP3 ADD MSTORE POP JUMP JUMPDEST PUSH2 0x1298 DUP2 PUSH2 0xF3F JUMP JUMPDEST DUP2 EQ PUSH2 0x12A3 JUMPI PUSH1 0x0 DUP1 REVERT JUMPDEST POP JUMP JUMPDEST PUSH2 0x12AF DUP2 PUSH2 0xF71 JUMP JUMPDEST DUP2 EQ PUSH2 0x12BA JUMPI PUSH1 0x0 DUP1 REVERT JUMPDEST POP JUMP INVALID LOG2 PUSH5 0x6970667358 0x22 SLT KECCAK256 DUP8 PUSH17 0x2C17489A1906DB8A53CE5185EC2DC0F4CA SWAP13 ORIGIN PUSH24 0x1B30F435DB1DDF95829964736F6C63430008070033000000 "
				},
				"gasEstimates": {
					"creation": {
						"codeDepositCost": "970200",
						"executionCost": "infinite",
						"totalCost": "infinite"
					},
					"external": {
						"ADMIN()": "infinite",
						"class(uint256)": "infinite",
						"createClass(string,uint256)": "infinite",
						"getBalance()": "2689",
						"getClass(uint256)": "infinite",
						"register(address,uint256)": "infinite",
						"removeClass(uint256)": "infinite",
						"takeClass(uint256)": "infinite",
						"updateClass(uint256,string,uint256)": "infinite",
						"users(address)": "2902"
					}
				},
				"methodIdentifiers": {
					"ADMIN()": "2a0acc6a",
					"class(uint256)": "3613a9f4",
					"createClass(string,uint256)": "4852a212",
					"getBalance()": "12065fe0",
					"getClass(uint256)": "512d62df",
					"register(address,uint256)": "6d705ebb",
					"removeClass(uint256)": "72c30f45",
					"takeClass(uint256)": "7aed8136",
					"updateClass(uint256,string,uint256)": "1e8be099",
					"users(address)": "a87430ba"
				}
			},
			"storageLayout": {
				"storage": [
					{
						"astId": 33,
						"contract": "contracts/Gym_Contact.sol:gym",
						"label": "users",
						"offset": 0,
						"slot": "0",
						"type": "t_mapping(t_address,t_uint256)"
					},
					{
						"astId": 37,
						"contract": "contracts/Gym_Contact.sol:gym",
						"label": "class",
						"offset": 0,
						"slot": "1",
						"type": "t_array(t_struct(Class)6_storage)dyn_storage"
					}
				],
				"types": {
					"t_address": {
						"encoding": "inplace",
						"label": "address",
						"numberOfBytes": "20"
					},
					"t_array(t_struct(Class)6_storage)dyn_storage": {
						"base": "t_struct(Class)6_storage",
						"encoding": "dynamic_array",
						"label": "struct gym.Class[]",
						"numberOfBytes": "32"
					},
					"t_mapping(t_address,t_uint256)": {
						"encoding": "mapping",
						"key": "t_address",
						"label": "mapping(address => uint256)",
						"numberOfBytes": "32",
						"value": "t_uint256"
					},
					"t_string_storage": {
						"encoding": "bytes",
						"label": "string",
						"numberOfBytes": "32"
					},
					"t_struct(Class)6_storage": {
						"encoding": "inplace",
						"label": "struct gym.Class",
						"members": [
							{
								"astId": 3,
								"contract": "contracts/Gym_Contact.sol:gym",
								"label": "name",
								"offset": 0,
								"slot": "0",
								"type": "t_string_storage"
							},
							{
								"astId": 5,
								"contract": "contracts/Gym_Contact.sol:gym",
								"label": "value",
								"offset": 0,
								"slot": "1",
								"type": "t_uint256"
							}
						],
						"numberOfBytes": "64"
					},
					"t_uint256": {
						"encoding": "inplace",
						"label": "uint256",
						"numberOfBytes": "32"
					}
				}
			},
			"userdoc": {
				"kind": "user",
				"methods": {},
				"version": 1
			}
		}
	}
}