{
	"contracts/Gym_Contact.sol": {
		"gym": {
			"abi": [
				{
					"inputs": [],
					"stateMutability": "nonpayable",
					"type": "constructor"
				},
				{
					"anonymous": false,
					"inputs": [
						{
							"indexed": false,
							"internalType": "string",
							"name": "name",
							"type": "string"
						},
						{
							"indexed": false,
							"internalType": "uint256",
							"name": "value",
							"type": "uint256"
						}
					],
					"name": "ClassCreated",
					"type": "event"
				},
				{
					"anonymous": false,
					"inputs": [
						{
							"indexed": false,
							"internalType": "address",
							"name": "user",
							"type": "address"
						},
						{
							"indexed": false,
							"internalType": "uint256",
							"name": "credits",
							"type": "uint256"
						}
					],
					"name": "Register",
					"type": "event"
				},
				{
					"inputs": [],
					"name": "ADMIN",
					"outputs": [
						{
							"internalType": "address",
							"name": "",
							"type": "address"
						}
					],
					"stateMutability": "view",
					"type": "function"
				},
				{
					"inputs": [
						{
							"internalType": "uint256",
							"name": "",
							"type": "uint256"
						}
					],
					"name": "class",
					"outputs": [
						{
							"internalType": "string",
							"name": "name",
							"type": "string"
						},
						{
							"internalType": "uint256",
							"name": "value",
							"type": "uint256"
						}
					],
					"stateMutability": "view",
					"type": "function"
				},
				{
					"inputs": [
						{
							"internalType": "string",
							"name": "_name",
							"type": "string"
						},
						{
							"internalType": "uint256",
							"name": "_value",
							"type": "uint256"
						}
					],
					"name": "createClass",
					"outputs": [],
					"stateMutability": "nonpayable",
					"type": "function"
				},
				{
					"inputs": [],
					"name": "getBalance",
					"outputs": [
						{
							"internalType": "address",
							"name": "",
							"type": "address"
						},
						{
							"internalType": "uint256",
							"name": "",
							"type": "uint256"
						}
					],
					"stateMutability": "view",
					"type": "function"
				},
				{
					"inputs": [
						{
							"internalType": "uint256",
							"name": "_index",
							"type": "uint256"
						}
					],
					"name": "getClass",
					"outputs": [
						{
							"internalType": "string",
							"name": "name",
							"type": "string"
						},
						{
							"internalType": "uint256",
							"name": "value",
							"type": "uint256"
						}
					],
					"stateMutability": "view",
					"type": "function"
				},
				{
					"inputs": [
						{
							"internalType": "address",
							"name": "_address",
							"type": "address"
						},
						{
							"internalType": "uint256",
							"name": "_credits",
							"type": "uint256"
						}
					],
					"name": "register",
					"outputs": [],
					"stateMutability": "nonpayable",
					"type": "function"
				},
				{
					"inputs": [
						{
							"internalType": "uint256",
							"name": "_index",
							"type": "uint256"
						},
						{
							"internalType": "string",
							"name": "_name",
							"type": "string"
						},
						{
							"internalType": "uint256",
							"name": "_value",
							"type": "uint256"
						}
					],
					"name": "updateClass",
					"outputs": [],
					"stateMutability": "nonpayable",
					"type": "function"
				},
				{
					"inputs": [
						{
							"internalType": "address",
							"name": "",
							"type": "address"
						}
					],
					"name": "users",
					"outputs": [
						{
							"internalType": "uint256",
							"name": "",
							"type": "uint256"
						}
					],
					"stateMutability": "view",
					"type": "function"
				}
			],
			"devdoc": {
				"kind": "dev",
				"methods": {},
				"version": 1
			},
			"evm": {
				"assembly": "    /* \"contracts/Gym_Contact.sol\":70:2158  contract gym {\r... */\n  mstore(0x40, 0xa0)\n    /* \"contracts/Gym_Contact.sol\":431:482  constructor() {\r... */\n  callvalue\n  dup1\n  iszero\n  tag_1\n  jumpi\n  0x00\n  dup1\n  revert\ntag_1:\n  pop\n    /* \"contracts/Gym_Contact.sol\":464:474  msg.sender */\n  caller\n    /* \"contracts/Gym_Contact.sol\":456:474  ADMIN = msg.sender */\n  0xffffffffffffffffffffffffffffffffffffffff\n  and\n  0x80\n  dup2\n  0xffffffffffffffffffffffffffffffffffffffff\n  and\n  0x60\n  shl\n  dup2\n  mstore\n  pop\n  pop\n    /* \"contracts/Gym_Contact.sol\":70:2158  contract gym {\r... */\n  shr(0x60, mload(0x80))\n  codecopy(0x00, dataOffset(sub_0), dataSize(sub_0))\n  0x00\n  assignImmutable(\"0x731dc163f73d31d8c68f9917ce4ff967753939f70432973c04fd2c2a48148607\")\n  return(0x00, dataSize(sub_0))\nstop\n\nsub_0: assembly {\n        /* \"contracts/Gym_Contact.sol\":70:2158  contract gym {\r... */\n      mstore(0x40, 0x80)\n      callvalue\n      dup1\n      iszero\n      tag_1\n      jumpi\n      0x00\n      dup1\n      revert\n    tag_1:\n      pop\n      jumpi(tag_2, lt(calldatasize, 0x04))\n      shr(0xe0, calldataload(0x00))\n      dup1\n      0x4852a212\n      gt\n      tag_11\n      jumpi\n      dup1\n      0x4852a212\n      eq\n      tag_7\n      jumpi\n      dup1\n      0x512d62df\n      eq\n      tag_8\n      jumpi\n      dup1\n      0x6d705ebb\n      eq\n      tag_9\n      jumpi\n      dup1\n      0xa87430ba\n      eq\n      tag_10\n      jumpi\n      jump(tag_2)\n    tag_11:\n      dup1\n      0x12065fe0\n      eq\n      tag_3\n      jumpi\n      dup1\n      0x1e8be099\n      eq\n      tag_4\n      jumpi\n      dup1\n      0x2a0acc6a\n      eq\n      tag_5\n      jumpi\n      dup1\n      0x3613a9f4\n      eq\n      tag_6\n      jumpi\n    tag_2:\n      0x00\n      dup1\n      revert\n        /* \"contracts/Gym_Contact.sol\":1851:1964  function getBalance() public view returns(address, uint){\r... */\n    tag_3:\n      tag_12\n      tag_13\n      jump\t// in\n    tag_12:\n      mload(0x40)\n      tag_14\n      swap3\n      swap2\n      swap1\n      tag_15\n      jump\t// in\n    tag_14:\n      mload(0x40)\n      dup1\n      swap2\n      sub\n      swap1\n      return\n        /* \"contracts/Gym_Contact.sol\":1073:1262  function updateClass(uint _index, string memory _name, uint _value) public {\r... */\n    tag_4:\n      tag_16\n      0x04\n      dup1\n      calldatasize\n      sub\n      dup2\n      add\n      swap1\n      tag_17\n      swap2\n      swap1\n      tag_18\n      jump\t// in\n    tag_17:\n      tag_19\n      jump\t// in\n    tag_16:\n      stop\n        /* \"contracts/Gym_Contact.sol\":392:422  address immutable public ADMIN */\n    tag_5:\n      tag_20\n      tag_21\n      jump\t// in\n    tag_20:\n      mload(0x40)\n      tag_22\n      swap2\n      swap1\n      tag_23\n      jump\t// in\n    tag_22:\n      mload(0x40)\n      dup1\n      swap2\n      sub\n      swap1\n      return\n        /* \"contracts/Gym_Contact.sol\":758:778  Class[] public class */\n    tag_6:\n      tag_24\n      0x04\n      dup1\n      calldatasize\n      sub\n      dup2\n      add\n      swap1\n      tag_25\n      swap2\n      swap1\n      tag_26\n      jump\t// in\n    tag_25:\n      tag_27\n      jump\t// in\n    tag_24:\n      mload(0x40)\n      tag_28\n      swap3\n      swap2\n      swap1\n      tag_29\n      jump\t// in\n    tag_28:\n      mload(0x40)\n      dup1\n      swap2\n      sub\n      swap1\n      return\n        /* \"contracts/Gym_Contact.sol\":818:1065  function createClass(string memory _name, uint _value) public {\r... */\n    tag_7:\n      tag_30\n      0x04\n      dup1\n      calldatasize\n      sub\n      dup2\n      add\n      swap1\n      tag_31\n      swap2\n      swap1\n      tag_32\n      jump\t// in\n    tag_31:\n      tag_33\n      jump\t// in\n    tag_30:\n      stop\n        /* \"contracts/Gym_Contact.sol\":1972:2153  function getClass(uint _index) public view returns (string memory name, uint value) {\r... */\n    tag_8:\n      tag_34\n      0x04\n      dup1\n      calldatasize\n      sub\n      dup2\n      add\n      swap1\n      tag_35\n      swap2\n      swap1\n      tag_26\n      jump\t// in\n    tag_35:\n      tag_36\n      jump\t// in\n    tag_34:\n      mload(0x40)\n      tag_37\n      swap3\n      swap2\n      swap1\n      tag_29\n      jump\t// in\n    tag_37:\n      mload(0x40)\n      dup1\n      swap2\n      sub\n      swap1\n      return\n        /* \"contracts/Gym_Contact.sol\":1457:1843  function register(address _address, uint _credits) public {\r... */\n    tag_9:\n      tag_38\n      0x04\n      dup1\n      calldatasize\n      sub\n      dup2\n      add\n      swap1\n      tag_39\n      swap2\n      swap1\n      tag_40\n      jump\t// in\n    tag_39:\n      tag_41\n      jump\t// in\n    tag_38:\n      stop\n        /* \"contracts/Gym_Contact.sol\":506:543  mapping(address => uint) public users */\n    tag_10:\n      tag_42\n      0x04\n      dup1\n      calldatasize\n      sub\n      dup2\n      add\n      swap1\n      tag_43\n      swap2\n      swap1\n      tag_44\n      jump\t// in\n    tag_43:\n      tag_45\n      jump\t// in\n    tag_42:\n      mload(0x40)\n      tag_46\n      swap2\n      swap1\n      tag_47\n      jump\t// in\n    tag_46:\n      mload(0x40)\n      dup1\n      swap2\n      sub\n      swap1\n      return\n        /* \"contracts/Gym_Contact.sol\":1851:1964  function getBalance() public view returns(address, uint){\r... */\n    tag_13:\n        /* \"contracts/Gym_Contact.sol\":1893:1900  address */\n      0x00\n        /* \"contracts/Gym_Contact.sol\":1902:1906  uint */\n      dup1\n        /* \"contracts/Gym_Contact.sol\":1926:1936  msg.sender */\n      caller\n        /* \"contracts/Gym_Contact.sol\":1938:1943  users */\n      0x00\n        /* \"contracts/Gym_Contact.sol\":1938:1955  users[msg.sender] */\n      dup1\n        /* \"contracts/Gym_Contact.sol\":1944:1954  msg.sender */\n      caller\n        /* \"contracts/Gym_Contact.sol\":1938:1955  users[msg.sender] */\n      0xffffffffffffffffffffffffffffffffffffffff\n      and\n      0xffffffffffffffffffffffffffffffffffffffff\n      and\n      dup2\n      mstore\n      0x20\n      add\n      swap1\n      dup2\n      mstore\n      0x20\n      add\n      0x00\n      keccak256\n      sload\n        /* \"contracts/Gym_Contact.sol\":1918:1956  return (msg.sender, users[msg.sender]) */\n      swap2\n      pop\n      swap2\n      pop\n        /* \"contracts/Gym_Contact.sol\":1851:1964  function getBalance() public view returns(address, uint){\r... */\n      swap1\n      swap2\n      jump\t// out\n        /* \"contracts/Gym_Contact.sol\":1073:1262  function updateClass(uint _index, string memory _name, uint _value) public {\r... */\n    tag_19:\n        /* \"contracts/Gym_Contact.sol\":1159:1178  Class storage clase */\n      0x00\n        /* \"contracts/Gym_Contact.sol\":1181:1186  class */\n      0x01\n        /* \"contracts/Gym_Contact.sol\":1187:1193  _index */\n      dup5\n        /* \"contracts/Gym_Contact.sol\":1181:1194  class[_index] */\n      dup2\n      sload\n      dup2\n      lt\n      tag_50\n      jumpi\n      tag_51\n      tag_52\n      jump\t// in\n    tag_51:\n    tag_50:\n      swap1\n      0x00\n      mstore\n      keccak256(0x00, 0x20)\n      swap1\n      0x02\n      mul\n      add\n        /* \"contracts/Gym_Contact.sol\":1159:1194  Class storage clase = class[_index] */\n      swap1\n      pop\n        /* \"contracts/Gym_Contact.sol\":1218:1223  _name */\n      dup3\n        /* \"contracts/Gym_Contact.sol\":1205:1210  clase */\n      dup2\n        /* \"contracts/Gym_Contact.sol\":1205:1215  clase.name */\n      0x00\n      add\n        /* \"contracts/Gym_Contact.sol\":1205:1223  clase.name = _name */\n      swap1\n      dup1\n      mload\n      swap1\n      0x20\n      add\n      swap1\n      tag_54\n      swap3\n      swap2\n      swap1\n      tag_55\n      jump\t// in\n    tag_54:\n      pop\n        /* \"contracts/Gym_Contact.sol\":1248:1254  _value */\n      dup2\n        /* \"contracts/Gym_Contact.sol\":1234:1239  clase */\n      dup2\n        /* \"contracts/Gym_Contact.sol\":1234:1245  clase.value */\n      0x01\n      add\n        /* \"contracts/Gym_Contact.sol\":1234:1254  clase.value = _value */\n      dup2\n      swap1\n      sstore\n      pop\n        /* \"contracts/Gym_Contact.sol\":1148:1262  {\r... */\n      pop\n        /* \"contracts/Gym_Contact.sol\":1073:1262  function updateClass(uint _index, string memory _name, uint _value) public {\r... */\n      pop\n      pop\n      pop\n      jump\t// out\n        /* \"contracts/Gym_Contact.sol\":392:422  address immutable public ADMIN */\n    tag_21:\n      immutable(\"0x731dc163f73d31d8c68f9917ce4ff967753939f70432973c04fd2c2a48148607\")\n      dup2\n      jump\t// out\n        /* \"contracts/Gym_Contact.sol\":758:778  Class[] public class */\n    tag_27:\n      0x01\n      dup2\n      dup2\n      sload\n      dup2\n      lt\n      tag_56\n      jumpi\n      0x00\n      dup1\n      revert\n    tag_56:\n      swap1\n      0x00\n      mstore\n      keccak256(0x00, 0x20)\n      swap1\n      0x02\n      mul\n      add\n      0x00\n      swap2\n      pop\n      swap1\n      pop\n      dup1\n      0x00\n      add\n      dup1\n      sload\n      tag_58\n      swap1\n      tag_59\n      jump\t// in\n    tag_58:\n      dup1\n      0x1f\n      add\n      0x20\n      dup1\n      swap2\n      div\n      mul\n      0x20\n      add\n      mload(0x40)\n      swap1\n      dup2\n      add\n      0x40\n      mstore\n      dup1\n      swap3\n      swap2\n      swap1\n      dup2\n      dup2\n      mstore\n      0x20\n      add\n      dup3\n      dup1\n      sload\n      tag_60\n      swap1\n      tag_59\n      jump\t// in\n    tag_60:\n      dup1\n      iszero\n      tag_61\n      jumpi\n      dup1\n      0x1f\n      lt\n      tag_62\n      jumpi\n      0x0100\n      dup1\n      dup4\n      sload\n      div\n      mul\n      dup4\n      mstore\n      swap2\n      0x20\n      add\n      swap2\n      jump(tag_61)\n    tag_62:\n      dup3\n      add\n      swap2\n      swap1\n      0x00\n      mstore\n      keccak256(0x00, 0x20)\n      swap1\n    tag_63:\n      dup2\n      sload\n      dup2\n      mstore\n      swap1\n      0x01\n      add\n      swap1\n      0x20\n      add\n      dup1\n      dup4\n      gt\n      tag_63\n      jumpi\n      dup3\n      swap1\n      sub\n      0x1f\n      and\n      dup3\n      add\n      swap2\n    tag_61:\n      pop\n      pop\n      pop\n      pop\n      pop\n      swap1\n      dup1\n      0x01\n      add\n      sload\n      swap1\n      pop\n      dup3\n      jump\t// out\n        /* \"contracts/Gym_Contact.sol\":818:1065  function createClass(string memory _name, uint _value) public {\r... */\n    tag_33:\n        /* \"contracts/Gym_Contact.sol\":908:918  msg.sender */\n      caller\n        /* \"contracts/Gym_Contact.sol\":899:918  ADMIN == msg.sender */\n      0xffffffffffffffffffffffffffffffffffffffff\n      and\n        /* \"contracts/Gym_Contact.sol\":899:904  ADMIN */\n      immutable(\"0x731dc163f73d31d8c68f9917ce4ff967753939f70432973c04fd2c2a48148607\")\n        /* \"contracts/Gym_Contact.sol\":899:918  ADMIN == msg.sender */\n      0xffffffffffffffffffffffffffffffffffffffff\n      and\n      eq\n        /* \"contracts/Gym_Contact.sol\":891:971  require(ADMIN == msg.sender, \"Solo el Administrador del Gym puede crear clases\") */\n      tag_65\n      jumpi\n      mload(0x40)\n      0x08c379a000000000000000000000000000000000000000000000000000000000\n      dup2\n      mstore\n      0x04\n      add\n      tag_66\n      swap1\n      tag_67\n      jump\t// in\n    tag_66:\n      mload(0x40)\n      dup1\n      swap2\n      sub\n      swap1\n      revert\n    tag_65:\n        /* \"contracts/Gym_Contact.sol\":982:987  class */\n      0x01\n        /* \"contracts/Gym_Contact.sol\":993:1013  Class(_name, _value) */\n      mload(0x40)\n      dup1\n      0x40\n      add\n      0x40\n      mstore\n      dup1\n        /* \"contracts/Gym_Contact.sol\":999:1004  _name */\n      dup5\n        /* \"contracts/Gym_Contact.sol\":993:1013  Class(_name, _value) */\n      dup2\n      mstore\n      0x20\n      add\n        /* \"contracts/Gym_Contact.sol\":1006:1012  _value */\n      dup4\n        /* \"contracts/Gym_Contact.sol\":993:1013  Class(_name, _value) */\n      dup2\n      mstore\n      pop\n        /* \"contracts/Gym_Contact.sol\":982:1014  class.push(Class(_name, _value)) */\n      swap1\n      dup1\n      0x01\n      dup2\n      sload\n      add\n      dup1\n      dup3\n      sstore\n      dup1\n      swap2\n      pop\n      pop\n      0x01\n      swap1\n      sub\n      swap1\n      0x00\n      mstore\n      keccak256(0x00, 0x20)\n      swap1\n      0x02\n      mul\n      add\n      0x00\n      swap1\n      swap2\n      swap1\n      swap2\n      swap1\n      swap2\n      pop\n      0x00\n      dup3\n      add\n      mload\n      dup2\n      0x00\n      add\n      swap1\n      dup1\n      mload\n      swap1\n      0x20\n      add\n      swap1\n      tag_69\n      swap3\n      swap2\n      swap1\n      tag_55\n      jump\t// in\n    tag_69:\n      pop\n      0x20\n      dup3\n      add\n      mload\n      dup2\n      0x01\n      add\n      sstore\n      pop\n      pop\n        /* \"contracts/Gym_Contact.sol\":1030:1057  ClassCreated(_name, _value) */\n      0x14d49e3ea4f348b7f368906dfe1a63055c7822d622a61672a35a55ae97a768f9\n        /* \"contracts/Gym_Contact.sol\":1043:1048  _name */\n      dup3\n        /* \"contracts/Gym_Contact.sol\":1050:1056  _value */\n      dup3\n        /* \"contracts/Gym_Contact.sol\":1030:1057  ClassCreated(_name, _value) */\n      mload(0x40)\n      tag_70\n      swap3\n      swap2\n      swap1\n      tag_29\n      jump\t// in\n    tag_70:\n      mload(0x40)\n      dup1\n      swap2\n      sub\n      swap1\n      log1\n        /* \"contracts/Gym_Contact.sol\":818:1065  function createClass(string memory _name, uint _value) public {\r... */\n      pop\n      pop\n      jump\t// out\n        /* \"contracts/Gym_Contact.sol\":1972:2153  function getClass(uint _index) public view returns (string memory name, uint value) {\r... */\n    tag_36:\n        /* \"contracts/Gym_Contact.sol\":2024:2042  string memory name */\n      0x60\n        /* \"contracts/Gym_Contact.sol\":2044:2054  uint value */\n      0x00\n        /* \"contracts/Gym_Contact.sol\":2067:2086  Class storage clase */\n      dup1\n        /* \"contracts/Gym_Contact.sol\":2089:2094  class */\n      0x01\n        /* \"contracts/Gym_Contact.sol\":2095:2101  _index */\n      dup5\n        /* \"contracts/Gym_Contact.sol\":2089:2102  class[_index] */\n      dup2\n      sload\n      dup2\n      lt\n      tag_72\n      jumpi\n      tag_73\n      tag_52\n      jump\t// in\n    tag_73:\n    tag_72:\n      swap1\n      0x00\n      mstore\n      keccak256(0x00, 0x20)\n      swap1\n      0x02\n      mul\n      add\n        /* \"contracts/Gym_Contact.sol\":2067:2102  Class storage clase = class[_index] */\n      swap1\n      pop\n        /* \"contracts/Gym_Contact.sol\":2121:2126  clase */\n      dup1\n        /* \"contracts/Gym_Contact.sol\":2121:2131  clase.name */\n      0x00\n      add\n        /* \"contracts/Gym_Contact.sol\":2133:2138  clase */\n      dup2\n        /* \"contracts/Gym_Contact.sol\":2133:2144  clase.value */\n      0x01\n      add\n      sload\n        /* \"contracts/Gym_Contact.sol\":2113:2145  return (clase.name, clase.value) */\n      dup2\n      dup1\n      sload\n      tag_75\n      swap1\n      tag_59\n      jump\t// in\n    tag_75:\n      dup1\n      0x1f\n      add\n      0x20\n      dup1\n      swap2\n      div\n      mul\n      0x20\n      add\n      mload(0x40)\n      swap1\n      dup2\n      add\n      0x40\n      mstore\n      dup1\n      swap3\n      swap2\n      swap1\n      dup2\n      dup2\n      mstore\n      0x20\n      add\n      dup3\n      dup1\n      sload\n      tag_76\n      swap1\n      tag_59\n      jump\t// in\n    tag_76:\n      dup1\n      iszero\n      tag_77\n      jumpi\n      dup1\n      0x1f\n      lt\n      tag_78\n      jumpi\n      0x0100\n      dup1\n      dup4\n      sload\n      div\n      mul\n      dup4\n      mstore\n      swap2\n      0x20\n      add\n      swap2\n      jump(tag_77)\n    tag_78:\n      dup3\n      add\n      swap2\n      swap1\n      0x00\n      mstore\n      keccak256(0x00, 0x20)\n      swap1\n    tag_79:\n      dup2\n      sload\n      dup2\n      mstore\n      swap1\n      0x01\n      add\n      swap1\n      0x20\n      add\n      dup1\n      dup4\n      gt\n      tag_79\n      jumpi\n      dup3\n      swap1\n      sub\n      0x1f\n      and\n      dup3\n      add\n      swap2\n    tag_77:\n      pop\n      pop\n      pop\n      pop\n      pop\n      swap2\n      pop\n      swap3\n      pop\n      swap3\n      pop\n      pop\n        /* \"contracts/Gym_Contact.sol\":1972:2153  function getClass(uint _index) public view returns (string memory name, uint value) {\r... */\n      swap2\n      pop\n      swap2\n      jump\t// out\n        /* \"contracts/Gym_Contact.sol\":1457:1843  function register(address _address, uint _credits) public {\r... */\n    tag_41:\n        /* \"contracts/Gym_Contact.sol\":1658:1659  0 */\n      0x00\n        /* \"contracts/Gym_Contact.sol\":1637:1642  users */\n      dup1\n        /* \"contracts/Gym_Contact.sol\":1637:1654  users[msg.sender] */\n      0x00\n        /* \"contracts/Gym_Contact.sol\":1643:1653  msg.sender */\n      caller\n        /* \"contracts/Gym_Contact.sol\":1637:1654  users[msg.sender] */\n      0xffffffffffffffffffffffffffffffffffffffff\n      and\n      0xffffffffffffffffffffffffffffffffffffffff\n      and\n      dup2\n      mstore\n      0x20\n      add\n      swap1\n      dup2\n      mstore\n      0x20\n      add\n      0x00\n      keccak256\n      sload\n        /* \"contracts/Gym_Contact.sol\":1637:1659  users[msg.sender] == 0 */\n      eq\n        /* \"contracts/Gym_Contact.sol\":1629:1701  require(users[msg.sender] == 0, \"Ya te encuentras registrado en el gym\") */\n      tag_81\n      jumpi\n      mload(0x40)\n      0x08c379a000000000000000000000000000000000000000000000000000000000\n      dup2\n      mstore\n      0x04\n      add\n      tag_82\n      swap1\n      tag_83\n      jump\t// in\n    tag_82:\n      mload(0x40)\n      dup1\n      swap2\n      sub\n      swap1\n      revert\n    tag_81:\n        /* \"contracts/Gym_Contact.sol\":1732:1740  _credits */\n      dup1\n        /* \"contracts/Gym_Contact.sol\":1712:1717  users */\n      0x00\n        /* \"contracts/Gym_Contact.sol\":1712:1729  users[msg.sender] */\n      dup1\n        /* \"contracts/Gym_Contact.sol\":1718:1728  msg.sender */\n      caller\n        /* \"contracts/Gym_Contact.sol\":1712:1729  users[msg.sender] */\n      0xffffffffffffffffffffffffffffffffffffffff\n      and\n      0xffffffffffffffffffffffffffffffffffffffff\n      and\n      dup2\n      mstore\n      0x20\n      add\n      swap1\n      dup2\n      mstore\n      0x20\n      add\n      0x00\n      keccak256\n        /* \"contracts/Gym_Contact.sol\":1712:1740  users[msg.sender] = _credits */\n      dup2\n      swap1\n      sstore\n      pop\n        /* \"contracts/Gym_Contact.sol\":1756:1784  Register(_address, _credits) */\n      0x7dc6ab80cc84c043b7b8d4fcafc802187470087f7ea7fccd2e17aecd0256a1\n        /* \"contracts/Gym_Contact.sol\":1765:1773  _address */\n      dup3\n        /* \"contracts/Gym_Contact.sol\":1775:1783  _credits */\n      dup3\n        /* \"contracts/Gym_Contact.sol\":1756:1784  Register(_address, _credits) */\n      mload(0x40)\n      tag_84\n      swap3\n      swap2\n      swap1\n      tag_15\n      jump\t// in\n    tag_84:\n      mload(0x40)\n      dup1\n      swap2\n      sub\n      swap1\n      log1\n        /* \"contracts/Gym_Contact.sol\":1457:1843  function register(address _address, uint _credits) public {\r... */\n      pop\n      pop\n      jump\t// out\n        /* \"contracts/Gym_Contact.sol\":506:543  mapping(address => uint) public users */\n    tag_45:\n      mstore(0x20, 0x00)\n      dup1\n      0x00\n      mstore\n      keccak256(0x00, 0x40)\n      0x00\n      swap2\n      pop\n      swap1\n      pop\n      sload\n      dup2\n      jump\t// out\n    tag_55:\n      dup3\n      dup1\n      sload\n      tag_85\n      swap1\n      tag_59\n      jump\t// in\n    tag_85:\n      swap1\n      0x00\n      mstore\n      keccak256(0x00, 0x20)\n      swap1\n      0x1f\n      add\n      0x20\n      swap1\n      div\n      dup2\n      add\n      swap3\n      dup3\n      tag_87\n      jumpi\n      0x00\n      dup6\n      sstore\n      jump(tag_86)\n    tag_87:\n      dup3\n      0x1f\n      lt\n      tag_88\n      jumpi\n      dup1\n      mload\n      not(0xff)\n      and\n      dup4\n      dup1\n      add\n      or\n      dup6\n      sstore\n      jump(tag_86)\n    tag_88:\n      dup3\n      dup1\n      add\n      0x01\n      add\n      dup6\n      sstore\n      dup3\n      iszero\n      tag_86\n      jumpi\n      swap2\n      dup3\n      add\n    tag_89:\n      dup3\n      dup2\n      gt\n      iszero\n      tag_90\n      jumpi\n      dup3\n      mload\n      dup3\n      sstore\n      swap2\n      0x20\n      add\n      swap2\n      swap1\n      0x01\n      add\n      swap1\n      jump(tag_89)\n    tag_90:\n    tag_86:\n      pop\n      swap1\n      pop\n      tag_91\n      swap2\n      swap1\n      tag_92\n      jump\t// in\n    tag_91:\n      pop\n      swap1\n      jump\t// out\n    tag_92:\n    tag_93:\n      dup1\n      dup3\n      gt\n      iszero\n      tag_94\n      jumpi\n      0x00\n      dup2\n      0x00\n      swap1\n      sstore\n      pop\n      0x01\n      add\n      jump(tag_93)\n    tag_94:\n      pop\n      swap1\n      jump\t// out\n        /* \"#utility.yul\":7:419   */\n    tag_96:\n        /* \"#utility.yul\":85:90   */\n      0x00\n        /* \"#utility.yul\":110:176   */\n      tag_98\n        /* \"#utility.yul\":126:175   */\n      tag_99\n        /* \"#utility.yul\":168:174   */\n      dup5\n        /* \"#utility.yul\":126:175   */\n      tag_100\n      jump\t// in\n    tag_99:\n        /* \"#utility.yul\":110:176   */\n      tag_101\n      jump\t// in\n    tag_98:\n        /* \"#utility.yul\":101:176   */\n      swap1\n      pop\n        /* \"#utility.yul\":199:205   */\n      dup3\n        /* \"#utility.yul\":192:197   */\n      dup2\n        /* \"#utility.yul\":185:206   */\n      mstore\n        /* \"#utility.yul\":237:241   */\n      0x20\n        /* \"#utility.yul\":230:235   */\n      dup2\n        /* \"#utility.yul\":226:242   */\n      add\n        /* \"#utility.yul\":275:278   */\n      dup5\n        /* \"#utility.yul\":266:272   */\n      dup5\n        /* \"#utility.yul\":261:264   */\n      dup5\n        /* \"#utility.yul\":257:273   */\n      add\n        /* \"#utility.yul\":254:279   */\n      gt\n        /* \"#utility.yul\":251:363   */\n      iszero\n      tag_102\n      jumpi\n        /* \"#utility.yul\":282:361   */\n      tag_103\n      tag_104\n      jump\t// in\n    tag_103:\n        /* \"#utility.yul\":251:363   */\n    tag_102:\n        /* \"#utility.yul\":372:413   */\n      tag_105\n        /* \"#utility.yul\":406:412   */\n      dup5\n        /* \"#utility.yul\":401:404   */\n      dup3\n        /* \"#utility.yul\":396:399   */\n      dup6\n        /* \"#utility.yul\":372:413   */\n      tag_106\n      jump\t// in\n    tag_105:\n        /* \"#utility.yul\":91:419   */\n      pop\n        /* \"#utility.yul\":7:419   */\n      swap4\n      swap3\n      pop\n      pop\n      pop\n      jump\t// out\n        /* \"#utility.yul\":425:564   */\n    tag_107:\n        /* \"#utility.yul\":471:476   */\n      0x00\n        /* \"#utility.yul\":509:515   */\n      dup2\n        /* \"#utility.yul\":496:516   */\n      calldataload\n        /* \"#utility.yul\":487:516   */\n      swap1\n      pop\n        /* \"#utility.yul\":525:558   */\n      tag_109\n        /* \"#utility.yul\":552:557   */\n      dup2\n        /* \"#utility.yul\":525:558   */\n      tag_110\n      jump\t// in\n    tag_109:\n        /* \"#utility.yul\":425:564   */\n      swap3\n      swap2\n      pop\n      pop\n      jump\t// out\n        /* \"#utility.yul\":584:924   */\n    tag_111:\n        /* \"#utility.yul\":640:645   */\n      0x00\n        /* \"#utility.yul\":689:692   */\n      dup3\n        /* \"#utility.yul\":682:686   */\n      0x1f\n        /* \"#utility.yul\":674:680   */\n      dup4\n        /* \"#utility.yul\":670:687   */\n      add\n        /* \"#utility.yul\":666:693   */\n      slt\n        /* \"#utility.yul\":656:778   */\n      tag_113\n      jumpi\n        /* \"#utility.yul\":697:776   */\n      tag_114\n      tag_115\n      jump\t// in\n    tag_114:\n        /* \"#utility.yul\":656:778   */\n    tag_113:\n        /* \"#utility.yul\":814:820   */\n      dup2\n        /* \"#utility.yul\":801:821   */\n      calldataload\n        /* \"#utility.yul\":839:918   */\n      tag_116\n        /* \"#utility.yul\":914:917   */\n      dup5\n        /* \"#utility.yul\":906:912   */\n      dup3\n        /* \"#utility.yul\":899:903   */\n      0x20\n        /* \"#utility.yul\":891:897   */\n      dup7\n        /* \"#utility.yul\":887:904   */\n      add\n        /* \"#utility.yul\":839:918   */\n      tag_96\n      jump\t// in\n    tag_116:\n        /* \"#utility.yul\":830:918   */\n      swap2\n      pop\n        /* \"#utility.yul\":646:924   */\n      pop\n        /* \"#utility.yul\":584:924   */\n      swap3\n      swap2\n      pop\n      pop\n      jump\t// out\n        /* \"#utility.yul\":930:1069   */\n    tag_117:\n        /* \"#utility.yul\":976:981   */\n      0x00\n        /* \"#utility.yul\":1014:1020   */\n      dup2\n        /* \"#utility.yul\":1001:1021   */\n      calldataload\n        /* \"#utility.yul\":992:1021   */\n      swap1\n      pop\n        /* \"#utility.yul\":1030:1063   */\n      tag_119\n        /* \"#utility.yul\":1057:1062   */\n      dup2\n        /* \"#utility.yul\":1030:1063   */\n      tag_120\n      jump\t// in\n    tag_119:\n        /* \"#utility.yul\":930:1069   */\n      swap3\n      swap2\n      pop\n      pop\n      jump\t// out\n        /* \"#utility.yul\":1075:1404   */\n    tag_44:\n        /* \"#utility.yul\":1134:1140   */\n      0x00\n        /* \"#utility.yul\":1183:1185   */\n      0x20\n        /* \"#utility.yul\":1171:1180   */\n      dup3\n        /* \"#utility.yul\":1162:1169   */\n      dup5\n        /* \"#utility.yul\":1158:1181   */\n      sub\n        /* \"#utility.yul\":1154:1186   */\n      slt\n        /* \"#utility.yul\":1151:1270   */\n      iszero\n      tag_122\n      jumpi\n        /* \"#utility.yul\":1189:1268   */\n      tag_123\n      tag_124\n      jump\t// in\n    tag_123:\n        /* \"#utility.yul\":1151:1270   */\n    tag_122:\n        /* \"#utility.yul\":1309:1310   */\n      0x00\n        /* \"#utility.yul\":1334:1387   */\n      tag_125\n        /* \"#utility.yul\":1379:1386   */\n      dup5\n        /* \"#utility.yul\":1370:1376   */\n      dup3\n        /* \"#utility.yul\":1359:1368   */\n      dup6\n        /* \"#utility.yul\":1355:1377   */\n      add\n        /* \"#utility.yul\":1334:1387   */\n      tag_107\n      jump\t// in\n    tag_125:\n        /* \"#utility.yul\":1324:1387   */\n      swap2\n      pop\n        /* \"#utility.yul\":1280:1397   */\n      pop\n        /* \"#utility.yul\":1075:1404   */\n      swap3\n      swap2\n      pop\n      pop\n      jump\t// out\n        /* \"#utility.yul\":1410:1884   */\n    tag_40:\n        /* \"#utility.yul\":1478:1484   */\n      0x00\n        /* \"#utility.yul\":1486:1492   */\n      dup1\n        /* \"#utility.yul\":1535:1537   */\n      0x40\n        /* \"#utility.yul\":1523:1532   */\n      dup4\n        /* \"#utility.yul\":1514:1521   */\n      dup6\n        /* \"#utility.yul\":1510:1533   */\n      sub\n        /* \"#utility.yul\":1506:1538   */\n      slt\n        /* \"#utility.yul\":1503:1622   */\n      iszero\n      tag_127\n      jumpi\n        /* \"#utility.yul\":1541:1620   */\n      tag_128\n      tag_124\n      jump\t// in\n    tag_128:\n        /* \"#utility.yul\":1503:1622   */\n    tag_127:\n        /* \"#utility.yul\":1661:1662   */\n      0x00\n        /* \"#utility.yul\":1686:1739   */\n      tag_129\n        /* \"#utility.yul\":1731:1738   */\n      dup6\n        /* \"#utility.yul\":1722:1728   */\n      dup3\n        /* \"#utility.yul\":1711:1720   */\n      dup7\n        /* \"#utility.yul\":1707:1729   */\n      add\n        /* \"#utility.yul\":1686:1739   */\n      tag_107\n      jump\t// in\n    tag_129:\n        /* \"#utility.yul\":1676:1739   */\n      swap3\n      pop\n        /* \"#utility.yul\":1632:1749   */\n      pop\n        /* \"#utility.yul\":1788:1790   */\n      0x20\n        /* \"#utility.yul\":1814:1867   */\n      tag_130\n        /* \"#utility.yul\":1859:1866   */\n      dup6\n        /* \"#utility.yul\":1850:1856   */\n      dup3\n        /* \"#utility.yul\":1839:1848   */\n      dup7\n        /* \"#utility.yul\":1835:1857   */\n      add\n        /* \"#utility.yul\":1814:1867   */\n      tag_117\n      jump\t// in\n    tag_130:\n        /* \"#utility.yul\":1804:1867   */\n      swap2\n      pop\n        /* \"#utility.yul\":1759:1877   */\n      pop\n        /* \"#utility.yul\":1410:1884   */\n      swap3\n      pop\n      swap3\n      swap1\n      pop\n      jump\t// out\n        /* \"#utility.yul\":1890:2544   */\n    tag_32:\n        /* \"#utility.yul\":1968:1974   */\n      0x00\n        /* \"#utility.yul\":1976:1982   */\n      dup1\n        /* \"#utility.yul\":2025:2027   */\n      0x40\n        /* \"#utility.yul\":2013:2022   */\n      dup4\n        /* \"#utility.yul\":2004:2011   */\n      dup6\n        /* \"#utility.yul\":2000:2023   */\n      sub\n        /* \"#utility.yul\":1996:2028   */\n      slt\n        /* \"#utility.yul\":1993:2112   */\n      iszero\n      tag_132\n      jumpi\n        /* \"#utility.yul\":2031:2110   */\n      tag_133\n      tag_124\n      jump\t// in\n    tag_133:\n        /* \"#utility.yul\":1993:2112   */\n    tag_132:\n        /* \"#utility.yul\":2179:2180   */\n      0x00\n        /* \"#utility.yul\":2168:2177   */\n      dup4\n        /* \"#utility.yul\":2164:2181   */\n      add\n        /* \"#utility.yul\":2151:2182   */\n      calldataload\n        /* \"#utility.yul\":2209:2227   */\n      0xffffffffffffffff\n        /* \"#utility.yul\":2201:2207   */\n      dup2\n        /* \"#utility.yul\":2198:2228   */\n      gt\n        /* \"#utility.yul\":2195:2312   */\n      iszero\n      tag_134\n      jumpi\n        /* \"#utility.yul\":2231:2310   */\n      tag_135\n      tag_136\n      jump\t// in\n    tag_135:\n        /* \"#utility.yul\":2195:2312   */\n    tag_134:\n        /* \"#utility.yul\":2336:2399   */\n      tag_137\n        /* \"#utility.yul\":2391:2398   */\n      dup6\n        /* \"#utility.yul\":2382:2388   */\n      dup3\n        /* \"#utility.yul\":2371:2380   */\n      dup7\n        /* \"#utility.yul\":2367:2389   */\n      add\n        /* \"#utility.yul\":2336:2399   */\n      tag_111\n      jump\t// in\n    tag_137:\n        /* \"#utility.yul\":2326:2399   */\n      swap3\n      pop\n        /* \"#utility.yul\":2122:2409   */\n      pop\n        /* \"#utility.yul\":2448:2450   */\n      0x20\n        /* \"#utility.yul\":2474:2527   */\n      tag_138\n        /* \"#utility.yul\":2519:2526   */\n      dup6\n        /* \"#utility.yul\":2510:2516   */\n      dup3\n        /* \"#utility.yul\":2499:2508   */\n      dup7\n        /* \"#utility.yul\":2495:2517   */\n      add\n        /* \"#utility.yul\":2474:2527   */\n      tag_117\n      jump\t// in\n    tag_138:\n        /* \"#utility.yul\":2464:2527   */\n      swap2\n      pop\n        /* \"#utility.yul\":2419:2537   */\n      pop\n        /* \"#utility.yul\":1890:2544   */\n      swap3\n      pop\n      swap3\n      swap1\n      pop\n      jump\t// out\n        /* \"#utility.yul\":2550:2879   */\n    tag_26:\n        /* \"#utility.yul\":2609:2615   */\n      0x00\n        /* \"#utility.yul\":2658:2660   */\n      0x20\n        /* \"#utility.yul\":2646:2655   */\n      dup3\n        /* \"#utility.yul\":2637:2644   */\n      dup5\n        /* \"#utility.yul\":2633:2656   */\n      sub\n        /* \"#utility.yul\":2629:2661   */\n      slt\n        /* \"#utility.yul\":2626:2745   */\n      iszero\n      tag_140\n      jumpi\n        /* \"#utility.yul\":2664:2743   */\n      tag_141\n      tag_124\n      jump\t// in\n    tag_141:\n        /* \"#utility.yul\":2626:2745   */\n    tag_140:\n        /* \"#utility.yul\":2784:2785   */\n      0x00\n        /* \"#utility.yul\":2809:2862   */\n      tag_142\n        /* \"#utility.yul\":2854:2861   */\n      dup5\n        /* \"#utility.yul\":2845:2851   */\n      dup3\n        /* \"#utility.yul\":2834:2843   */\n      dup6\n        /* \"#utility.yul\":2830:2852   */\n      add\n        /* \"#utility.yul\":2809:2862   */\n      tag_117\n      jump\t// in\n    tag_142:\n        /* \"#utility.yul\":2799:2862   */\n      swap2\n      pop\n        /* \"#utility.yul\":2755:2872   */\n      pop\n        /* \"#utility.yul\":2550:2879   */\n      swap3\n      swap2\n      pop\n      pop\n      jump\t// out\n        /* \"#utility.yul\":2885:3684   */\n    tag_18:\n        /* \"#utility.yul\":2972:2978   */\n      0x00\n        /* \"#utility.yul\":2980:2986   */\n      dup1\n        /* \"#utility.yul\":2988:2994   */\n      0x00\n        /* \"#utility.yul\":3037:3039   */\n      0x60\n        /* \"#utility.yul\":3025:3034   */\n      dup5\n        /* \"#utility.yul\":3016:3023   */\n      dup7\n        /* \"#utility.yul\":3012:3035   */\n      sub\n        /* \"#utility.yul\":3008:3040   */\n      slt\n        /* \"#utility.yul\":3005:3124   */\n      iszero\n      tag_144\n      jumpi\n        /* \"#utility.yul\":3043:3122   */\n      tag_145\n      tag_124\n      jump\t// in\n    tag_145:\n        /* \"#utility.yul\":3005:3124   */\n    tag_144:\n        /* \"#utility.yul\":3163:3164   */\n      0x00\n        /* \"#utility.yul\":3188:3241   */\n      tag_146\n        /* \"#utility.yul\":3233:3240   */\n      dup7\n        /* \"#utility.yul\":3224:3230   */\n      dup3\n        /* \"#utility.yul\":3213:3222   */\n      dup8\n        /* \"#utility.yul\":3209:3231   */\n      add\n        /* \"#utility.yul\":3188:3241   */\n      tag_117\n      jump\t// in\n    tag_146:\n        /* \"#utility.yul\":3178:3241   */\n      swap4\n      pop\n        /* \"#utility.yul\":3134:3251   */\n      pop\n        /* \"#utility.yul\":3318:3320   */\n      0x20\n        /* \"#utility.yul\":3307:3316   */\n      dup5\n        /* \"#utility.yul\":3303:3321   */\n      add\n        /* \"#utility.yul\":3290:3322   */\n      calldataload\n        /* \"#utility.yul\":3349:3367   */\n      0xffffffffffffffff\n        /* \"#utility.yul\":3341:3347   */\n      dup2\n        /* \"#utility.yul\":3338:3368   */\n      gt\n        /* \"#utility.yul\":3335:3452   */\n      iszero\n      tag_147\n      jumpi\n        /* \"#utility.yul\":3371:3450   */\n      tag_148\n      tag_136\n      jump\t// in\n    tag_148:\n        /* \"#utility.yul\":3335:3452   */\n    tag_147:\n        /* \"#utility.yul\":3476:3539   */\n      tag_149\n        /* \"#utility.yul\":3531:3538   */\n      dup7\n        /* \"#utility.yul\":3522:3528   */\n      dup3\n        /* \"#utility.yul\":3511:3520   */\n      dup8\n        /* \"#utility.yul\":3507:3529   */\n      add\n        /* \"#utility.yul\":3476:3539   */\n      tag_111\n      jump\t// in\n    tag_149:\n        /* \"#utility.yul\":3466:3539   */\n      swap3\n      pop\n        /* \"#utility.yul\":3261:3549   */\n      pop\n        /* \"#utility.yul\":3588:3590   */\n      0x40\n        /* \"#utility.yul\":3614:3667   */\n      tag_150\n        /* \"#utility.yul\":3659:3666   */\n      dup7\n        /* \"#utility.yul\":3650:3656   */\n      dup3\n        /* \"#utility.yul\":3639:3648   */\n      dup8\n        /* \"#utility.yul\":3635:3657   */\n      add\n        /* \"#utility.yul\":3614:3667   */\n      tag_117\n      jump\t// in\n    tag_150:\n        /* \"#utility.yul\":3604:3667   */\n      swap2\n      pop\n        /* \"#utility.yul\":3559:3677   */\n      pop\n        /* \"#utility.yul\":2885:3684   */\n      swap3\n      pop\n      swap3\n      pop\n      swap3\n      jump\t// out\n        /* \"#utility.yul\":3690:3808   */\n    tag_151:\n        /* \"#utility.yul\":3777:3801   */\n      tag_153\n        /* \"#utility.yul\":3795:3800   */\n      dup2\n        /* \"#utility.yul\":3777:3801   */\n      tag_154\n      jump\t// in\n    tag_153:\n        /* \"#utility.yul\":3772:3775   */\n      dup3\n        /* \"#utility.yul\":3765:3802   */\n      mstore\n        /* \"#utility.yul\":3690:3808   */\n      pop\n      pop\n      jump\t// out\n        /* \"#utility.yul\":3814:4178   */\n    tag_155:\n        /* \"#utility.yul\":3902:3905   */\n      0x00\n        /* \"#utility.yul\":3930:3969   */\n      tag_157\n        /* \"#utility.yul\":3963:3968   */\n      dup3\n        /* \"#utility.yul\":3930:3969   */\n      tag_158\n      jump\t// in\n    tag_157:\n        /* \"#utility.yul\":3985:4056   */\n      tag_159\n        /* \"#utility.yul\":4049:4055   */\n      dup2\n        /* \"#utility.yul\":4044:4047   */\n      dup6\n        /* \"#utility.yul\":3985:4056   */\n      tag_160\n      jump\t// in\n    tag_159:\n        /* \"#utility.yul\":3978:4056   */\n      swap4\n      pop\n        /* \"#utility.yul\":4065:4117   */\n      tag_161\n        /* \"#utility.yul\":4110:4116   */\n      dup2\n        /* \"#utility.yul\":4105:4108   */\n      dup6\n        /* \"#utility.yul\":4098:4102   */\n      0x20\n        /* \"#utility.yul\":4091:4096   */\n      dup7\n        /* \"#utility.yul\":4087:4103   */\n      add\n        /* \"#utility.yul\":4065:4117   */\n      tag_162\n      jump\t// in\n    tag_161:\n        /* \"#utility.yul\":4142:4171   */\n      tag_163\n        /* \"#utility.yul\":4164:4170   */\n      dup2\n        /* \"#utility.yul\":4142:4171   */\n      tag_164\n      jump\t// in\n    tag_163:\n        /* \"#utility.yul\":4137:4140   */\n      dup5\n        /* \"#utility.yul\":4133:4172   */\n      add\n        /* \"#utility.yul\":4126:4172   */\n      swap2\n      pop\n        /* \"#utility.yul\":3906:4178   */\n      pop\n        /* \"#utility.yul\":3814:4178   */\n      swap3\n      swap2\n      pop\n      pop\n      jump\t// out\n        /* \"#utility.yul\":4184:4550   */\n    tag_165:\n        /* \"#utility.yul\":4326:4329   */\n      0x00\n        /* \"#utility.yul\":4347:4414   */\n      tag_167\n        /* \"#utility.yul\":4411:4413   */\n      0x25\n        /* \"#utility.yul\":4406:4409   */\n      dup4\n        /* \"#utility.yul\":4347:4414   */\n      tag_160\n      jump\t// in\n    tag_167:\n        /* \"#utility.yul\":4340:4414   */\n      swap2\n      pop\n        /* \"#utility.yul\":4423:4516   */\n      tag_168\n        /* \"#utility.yul\":4512:4515   */\n      dup3\n        /* \"#utility.yul\":4423:4516   */\n      tag_169\n      jump\t// in\n    tag_168:\n        /* \"#utility.yul\":4541:4543   */\n      0x40\n        /* \"#utility.yul\":4536:4539   */\n      dup3\n        /* \"#utility.yul\":4532:4544   */\n      add\n        /* \"#utility.yul\":4525:4544   */\n      swap1\n      pop\n        /* \"#utility.yul\":4184:4550   */\n      swap2\n      swap1\n      pop\n      jump\t// out\n        /* \"#utility.yul\":4556:4922   */\n    tag_170:\n        /* \"#utility.yul\":4698:4701   */\n      0x00\n        /* \"#utility.yul\":4719:4786   */\n      tag_172\n        /* \"#utility.yul\":4783:4785   */\n      0x30\n        /* \"#utility.yul\":4778:4781   */\n      dup4\n        /* \"#utility.yul\":4719:4786   */\n      tag_160\n      jump\t// in\n    tag_172:\n        /* \"#utility.yul\":4712:4786   */\n      swap2\n      pop\n        /* \"#utility.yul\":4795:4888   */\n      tag_173\n        /* \"#utility.yul\":4884:4887   */\n      dup3\n        /* \"#utility.yul\":4795:4888   */\n      tag_174\n      jump\t// in\n    tag_173:\n        /* \"#utility.yul\":4913:4915   */\n      0x40\n        /* \"#utility.yul\":4908:4911   */\n      dup3\n        /* \"#utility.yul\":4904:4916   */\n      add\n        /* \"#utility.yul\":4897:4916   */\n      swap1\n      pop\n        /* \"#utility.yul\":4556:4922   */\n      swap2\n      swap1\n      pop\n      jump\t// out\n        /* \"#utility.yul\":4928:5046   */\n    tag_175:\n        /* \"#utility.yul\":5015:5039   */\n      tag_177\n        /* \"#utility.yul\":5033:5038   */\n      dup2\n        /* \"#utility.yul\":5015:5039   */\n      tag_178\n      jump\t// in\n    tag_177:\n        /* \"#utility.yul\":5010:5013   */\n      dup3\n        /* \"#utility.yul\":5003:5040   */\n      mstore\n        /* \"#utility.yul\":4928:5046   */\n      pop\n      pop\n      jump\t// out\n        /* \"#utility.yul\":5052:5274   */\n    tag_23:\n        /* \"#utility.yul\":5145:5149   */\n      0x00\n        /* \"#utility.yul\":5183:5185   */\n      0x20\n        /* \"#utility.yul\":5172:5181   */\n      dup3\n        /* \"#utility.yul\":5168:5186   */\n      add\n        /* \"#utility.yul\":5160:5186   */\n      swap1\n      pop\n        /* \"#utility.yul\":5196:5267   */\n      tag_180\n        /* \"#utility.yul\":5264:5265   */\n      0x00\n        /* \"#utility.yul\":5253:5262   */\n      dup4\n        /* \"#utility.yul\":5249:5266   */\n      add\n        /* \"#utility.yul\":5240:5246   */\n      dup5\n        /* \"#utility.yul\":5196:5267   */\n      tag_151\n      jump\t// in\n    tag_180:\n        /* \"#utility.yul\":5052:5274   */\n      swap3\n      swap2\n      pop\n      pop\n      jump\t// out\n        /* \"#utility.yul\":5280:5612   */\n    tag_15:\n        /* \"#utility.yul\":5401:5405   */\n      0x00\n        /* \"#utility.yul\":5439:5441   */\n      0x40\n        /* \"#utility.yul\":5428:5437   */\n      dup3\n        /* \"#utility.yul\":5424:5442   */\n      add\n        /* \"#utility.yul\":5416:5442   */\n      swap1\n      pop\n        /* \"#utility.yul\":5452:5523   */\n      tag_182\n        /* \"#utility.yul\":5520:5521   */\n      0x00\n        /* \"#utility.yul\":5509:5518   */\n      dup4\n        /* \"#utility.yul\":5505:5522   */\n      add\n        /* \"#utility.yul\":5496:5502   */\n      dup6\n        /* \"#utility.yul\":5452:5523   */\n      tag_151\n      jump\t// in\n    tag_182:\n        /* \"#utility.yul\":5533:5605   */\n      tag_183\n        /* \"#utility.yul\":5601:5603   */\n      0x20\n        /* \"#utility.yul\":5590:5599   */\n      dup4\n        /* \"#utility.yul\":5586:5604   */\n      add\n        /* \"#utility.yul\":5577:5583   */\n      dup5\n        /* \"#utility.yul\":5533:5605   */\n      tag_175\n      jump\t// in\n    tag_183:\n        /* \"#utility.yul\":5280:5612   */\n      swap4\n      swap3\n      pop\n      pop\n      pop\n      jump\t// out\n        /* \"#utility.yul\":5618:6041   */\n    tag_29:\n        /* \"#utility.yul\":5759:5763   */\n      0x00\n        /* \"#utility.yul\":5797:5799   */\n      0x40\n        /* \"#utility.yul\":5786:5795   */\n      dup3\n        /* \"#utility.yul\":5782:5800   */\n      add\n        /* \"#utility.yul\":5774:5800   */\n      swap1\n      pop\n        /* \"#utility.yul\":5846:5855   */\n      dup2\n        /* \"#utility.yul\":5840:5844   */\n      dup2\n        /* \"#utility.yul\":5836:5856   */\n      sub\n        /* \"#utility.yul\":5832:5833   */\n      0x00\n        /* \"#utility.yul\":5821:5830   */\n      dup4\n        /* \"#utility.yul\":5817:5834   */\n      add\n        /* \"#utility.yul\":5810:5857   */\n      mstore\n        /* \"#utility.yul\":5874:5952   */\n      tag_185\n        /* \"#utility.yul\":5947:5951   */\n      dup2\n        /* \"#utility.yul\":5938:5944   */\n      dup6\n        /* \"#utility.yul\":5874:5952   */\n      tag_155\n      jump\t// in\n    tag_185:\n        /* \"#utility.yul\":5866:5952   */\n      swap1\n      pop\n        /* \"#utility.yul\":5962:6034   */\n      tag_186\n        /* \"#utility.yul\":6030:6032   */\n      0x20\n        /* \"#utility.yul\":6019:6028   */\n      dup4\n        /* \"#utility.yul\":6015:6033   */\n      add\n        /* \"#utility.yul\":6006:6012   */\n      dup5\n        /* \"#utility.yul\":5962:6034   */\n      tag_175\n      jump\t// in\n    tag_186:\n        /* \"#utility.yul\":5618:6041   */\n      swap4\n      swap3\n      pop\n      pop\n      pop\n      jump\t// out\n        /* \"#utility.yul\":6047:6466   */\n    tag_83:\n        /* \"#utility.yul\":6213:6217   */\n      0x00\n        /* \"#utility.yul\":6251:6253   */\n      0x20\n        /* \"#utility.yul\":6240:6249   */\n      dup3\n        /* \"#utility.yul\":6236:6254   */\n      add\n        /* \"#utility.yul\":6228:6254   */\n      swap1\n      pop\n        /* \"#utility.yul\":6300:6309   */\n      dup2\n        /* \"#utility.yul\":6294:6298   */\n      dup2\n        /* \"#utility.yul\":6290:6310   */\n      sub\n        /* \"#utility.yul\":6286:6287   */\n      0x00\n        /* \"#utility.yul\":6275:6284   */\n      dup4\n        /* \"#utility.yul\":6271:6288   */\n      add\n        /* \"#utility.yul\":6264:6311   */\n      mstore\n        /* \"#utility.yul\":6328:6459   */\n      tag_188\n        /* \"#utility.yul\":6454:6458   */\n      dup2\n        /* \"#utility.yul\":6328:6459   */\n      tag_165\n      jump\t// in\n    tag_188:\n        /* \"#utility.yul\":6320:6459   */\n      swap1\n      pop\n        /* \"#utility.yul\":6047:6466   */\n      swap2\n      swap1\n      pop\n      jump\t// out\n        /* \"#utility.yul\":6472:6891   */\n    tag_67:\n        /* \"#utility.yul\":6638:6642   */\n      0x00\n        /* \"#utility.yul\":6676:6678   */\n      0x20\n        /* \"#utility.yul\":6665:6674   */\n      dup3\n        /* \"#utility.yul\":6661:6679   */\n      add\n        /* \"#utility.yul\":6653:6679   */\n      swap1\n      pop\n        /* \"#utility.yul\":6725:6734   */\n      dup2\n        /* \"#utility.yul\":6719:6723   */\n      dup2\n        /* \"#utility.yul\":6715:6735   */\n      sub\n        /* \"#utility.yul\":6711:6712   */\n      0x00\n        /* \"#utility.yul\":6700:6709   */\n      dup4\n        /* \"#utility.yul\":6696:6713   */\n      add\n        /* \"#utility.yul\":6689:6736   */\n      mstore\n        /* \"#utility.yul\":6753:6884   */\n      tag_190\n        /* \"#utility.yul\":6879:6883   */\n      dup2\n        /* \"#utility.yul\":6753:6884   */\n      tag_170\n      jump\t// in\n    tag_190:\n        /* \"#utility.yul\":6745:6884   */\n      swap1\n      pop\n        /* \"#utility.yul\":6472:6891   */\n      swap2\n      swap1\n      pop\n      jump\t// out\n        /* \"#utility.yul\":6897:7119   */\n    tag_47:\n        /* \"#utility.yul\":6990:6994   */\n      0x00\n        /* \"#utility.yul\":7028:7030   */\n      0x20\n        /* \"#utility.yul\":7017:7026   */\n      dup3\n        /* \"#utility.yul\":7013:7031   */\n      add\n        /* \"#utility.yul\":7005:7031   */\n      swap1\n      pop\n        /* \"#utility.yul\":7041:7112   */\n      tag_192\n        /* \"#utility.yul\":7109:7110   */\n      0x00\n        /* \"#utility.yul\":7098:7107   */\n      dup4\n        /* \"#utility.yul\":7094:7111   */\n      add\n        /* \"#utility.yul\":7085:7091   */\n      dup5\n        /* \"#utility.yul\":7041:7112   */\n      tag_175\n      jump\t// in\n    tag_192:\n        /* \"#utility.yul\":6897:7119   */\n      swap3\n      swap2\n      pop\n      pop\n      jump\t// out\n        /* \"#utility.yul\":7125:7254   */\n    tag_101:\n        /* \"#utility.yul\":7159:7165   */\n      0x00\n        /* \"#utility.yul\":7186:7206   */\n      tag_194\n      tag_195\n      jump\t// in\n    tag_194:\n        /* \"#utility.yul\":7176:7206   */\n      swap1\n      pop\n        /* \"#utility.yul\":7215:7248   */\n      tag_196\n        /* \"#utility.yul\":7243:7247   */\n      dup3\n        /* \"#utility.yul\":7235:7241   */\n      dup3\n        /* \"#utility.yul\":7215:7248   */\n      tag_197\n      jump\t// in\n    tag_196:\n        /* \"#utility.yul\":7125:7254   */\n      swap2\n      swap1\n      pop\n      jump\t// out\n        /* \"#utility.yul\":7260:7335   */\n    tag_195:\n        /* \"#utility.yul\":7293:7299   */\n      0x00\n        /* \"#utility.yul\":7326:7328   */\n      0x40\n        /* \"#utility.yul\":7320:7329   */\n      mload\n        /* \"#utility.yul\":7310:7329   */\n      swap1\n      pop\n        /* \"#utility.yul\":7260:7335   */\n      swap1\n      jump\t// out\n        /* \"#utility.yul\":7341:7649   */\n    tag_100:\n        /* \"#utility.yul\":7403:7407   */\n      0x00\n        /* \"#utility.yul\":7493:7511   */\n      0xffffffffffffffff\n        /* \"#utility.yul\":7485:7491   */\n      dup3\n        /* \"#utility.yul\":7482:7512   */\n      gt\n        /* \"#utility.yul\":7479:7535   */\n      iszero\n      tag_200\n      jumpi\n        /* \"#utility.yul\":7515:7533   */\n      tag_201\n      tag_202\n      jump\t// in\n    tag_201:\n        /* \"#utility.yul\":7479:7535   */\n    tag_200:\n        /* \"#utility.yul\":7553:7582   */\n      tag_203\n        /* \"#utility.yul\":7575:7581   */\n      dup3\n        /* \"#utility.yul\":7553:7582   */\n      tag_164\n      jump\t// in\n    tag_203:\n        /* \"#utility.yul\":7545:7582   */\n      swap1\n      pop\n        /* \"#utility.yul\":7637:7641   */\n      0x20\n        /* \"#utility.yul\":7631:7635   */\n      dup2\n        /* \"#utility.yul\":7627:7642   */\n      add\n        /* \"#utility.yul\":7619:7642   */\n      swap1\n      pop\n        /* \"#utility.yul\":7341:7649   */\n      swap2\n      swap1\n      pop\n      jump\t// out\n        /* \"#utility.yul\":7655:7754   */\n    tag_158:\n        /* \"#utility.yul\":7707:7713   */\n      0x00\n        /* \"#utility.yul\":7741:7746   */\n      dup2\n        /* \"#utility.yul\":7735:7747   */\n      mload\n        /* \"#utility.yul\":7725:7747   */\n      swap1\n      pop\n        /* \"#utility.yul\":7655:7754   */\n      swap2\n      swap1\n      pop\n      jump\t// out\n        /* \"#utility.yul\":7760:7929   */\n    tag_160:\n        /* \"#utility.yul\":7844:7855   */\n      0x00\n        /* \"#utility.yul\":7878:7884   */\n      dup3\n        /* \"#utility.yul\":7873:7876   */\n      dup3\n        /* \"#utility.yul\":7866:7885   */\n      mstore\n        /* \"#utility.yul\":7918:7922   */\n      0x20\n        /* \"#utility.yul\":7913:7916   */\n      dup3\n        /* \"#utility.yul\":7909:7923   */\n      add\n        /* \"#utility.yul\":7894:7923   */\n      swap1\n      pop\n        /* \"#utility.yul\":7760:7929   */\n      swap3\n      swap2\n      pop\n      pop\n      jump\t// out\n        /* \"#utility.yul\":7935:8031   */\n    tag_154:\n        /* \"#utility.yul\":7972:7979   */\n      0x00\n        /* \"#utility.yul\":8001:8025   */\n      tag_207\n        /* \"#utility.yul\":8019:8024   */\n      dup3\n        /* \"#utility.yul\":8001:8025   */\n      tag_208\n      jump\t// in\n    tag_207:\n        /* \"#utility.yul\":7990:8025   */\n      swap1\n      pop\n        /* \"#utility.yul\":7935:8031   */\n      swap2\n      swap1\n      pop\n      jump\t// out\n        /* \"#utility.yul\":8037:8163   */\n    tag_208:\n        /* \"#utility.yul\":8074:8081   */\n      0x00\n        /* \"#utility.yul\":8114:8156   */\n      0xffffffffffffffffffffffffffffffffffffffff\n        /* \"#utility.yul\":8107:8112   */\n      dup3\n        /* \"#utility.yul\":8103:8157   */\n      and\n        /* \"#utility.yul\":8092:8157   */\n      swap1\n      pop\n        /* \"#utility.yul\":8037:8163   */\n      swap2\n      swap1\n      pop\n      jump\t// out\n        /* \"#utility.yul\":8169:8246   */\n    tag_178:\n        /* \"#utility.yul\":8206:8213   */\n      0x00\n        /* \"#utility.yul\":8235:8240   */\n      dup2\n        /* \"#utility.yul\":8224:8240   */\n      swap1\n      pop\n        /* \"#utility.yul\":8169:8246   */\n      swap2\n      swap1\n      pop\n      jump\t// out\n        /* \"#utility.yul\":8252:8406   */\n    tag_106:\n        /* \"#utility.yul\":8336:8342   */\n      dup3\n        /* \"#utility.yul\":8331:8334   */\n      dup2\n        /* \"#utility.yul\":8326:8329   */\n      dup4\n        /* \"#utility.yul\":8313:8343   */\n      calldatacopy\n        /* \"#utility.yul\":8398:8399   */\n      0x00\n        /* \"#utility.yul\":8389:8395   */\n      dup4\n        /* \"#utility.yul\":8384:8387   */\n      dup4\n        /* \"#utility.yul\":8380:8396   */\n      add\n        /* \"#utility.yul\":8373:8400   */\n      mstore\n        /* \"#utility.yul\":8252:8406   */\n      pop\n      pop\n      pop\n      jump\t// out\n        /* \"#utility.yul\":8412:8719   */\n    tag_162:\n        /* \"#utility.yul\":8480:8481   */\n      0x00\n        /* \"#utility.yul\":8490:8603   */\n    tag_213:\n        /* \"#utility.yul\":8504:8510   */\n      dup4\n        /* \"#utility.yul\":8501:8502   */\n      dup2\n        /* \"#utility.yul\":8498:8511   */\n      lt\n        /* \"#utility.yul\":8490:8603   */\n      iszero\n      tag_215\n      jumpi\n        /* \"#utility.yul\":8589:8590   */\n      dup1\n        /* \"#utility.yul\":8584:8587   */\n      dup3\n        /* \"#utility.yul\":8580:8591   */\n      add\n        /* \"#utility.yul\":8574:8592   */\n      mload\n        /* \"#utility.yul\":8570:8571   */\n      dup2\n        /* \"#utility.yul\":8565:8568   */\n      dup5\n        /* \"#utility.yul\":8561:8572   */\n      add\n        /* \"#utility.yul\":8554:8593   */\n      mstore\n        /* \"#utility.yul\":8526:8528   */\n      0x20\n        /* \"#utility.yul\":8523:8524   */\n      dup2\n        /* \"#utility.yul\":8519:8529   */\n      add\n        /* \"#utility.yul\":8514:8529   */\n      swap1\n      pop\n        /* \"#utility.yul\":8490:8603   */\n      jump(tag_213)\n    tag_215:\n        /* \"#utility.yul\":8621:8627   */\n      dup4\n        /* \"#utility.yul\":8618:8619   */\n      dup2\n        /* \"#utility.yul\":8615:8628   */\n      gt\n        /* \"#utility.yul\":8612:8713   */\n      iszero\n      tag_216\n      jumpi\n        /* \"#utility.yul\":8701:8702   */\n      0x00\n        /* \"#utility.yul\":8692:8698   */\n      dup5\n        /* \"#utility.yul\":8687:8690   */\n      dup5\n        /* \"#utility.yul\":8683:8699   */\n      add\n        /* \"#utility.yul\":8676:8703   */\n      mstore\n        /* \"#utility.yul\":8612:8713   */\n    tag_216:\n        /* \"#utility.yul\":8461:8719   */\n      pop\n        /* \"#utility.yul\":8412:8719   */\n      pop\n      pop\n      pop\n      jump\t// out\n        /* \"#utility.yul\":8725:9045   */\n    tag_59:\n        /* \"#utility.yul\":8769:8775   */\n      0x00\n        /* \"#utility.yul\":8806:8807   */\n      0x02\n        /* \"#utility.yul\":8800:8804   */\n      dup3\n        /* \"#utility.yul\":8796:8808   */\n      div\n        /* \"#utility.yul\":8786:8808   */\n      swap1\n      pop\n        /* \"#utility.yul\":8853:8854   */\n      0x01\n        /* \"#utility.yul\":8847:8851   */\n      dup3\n        /* \"#utility.yul\":8843:8855   */\n      and\n        /* \"#utility.yul\":8874:8892   */\n      dup1\n        /* \"#utility.yul\":8864:8945   */\n      tag_218\n      jumpi\n        /* \"#utility.yul\":8930:8934   */\n      0x7f\n        /* \"#utility.yul\":8922:8928   */\n      dup3\n        /* \"#utility.yul\":8918:8935   */\n      and\n        /* \"#utility.yul\":8908:8935   */\n      swap2\n      pop\n        /* \"#utility.yul\":8864:8945   */\n    tag_218:\n        /* \"#utility.yul\":8992:8994   */\n      0x20\n        /* \"#utility.yul\":8984:8990   */\n      dup3\n        /* \"#utility.yul\":8981:8995   */\n      lt\n        /* \"#utility.yul\":8961:8979   */\n      dup2\n        /* \"#utility.yul\":8958:8996   */\n      eq\n        /* \"#utility.yul\":8955:9039   */\n      iszero\n      tag_219\n      jumpi\n        /* \"#utility.yul\":9011:9029   */\n      tag_220\n      tag_221\n      jump\t// in\n    tag_220:\n        /* \"#utility.yul\":8955:9039   */\n    tag_219:\n        /* \"#utility.yul\":8776:9045   */\n      pop\n        /* \"#utility.yul\":8725:9045   */\n      swap2\n      swap1\n      pop\n      jump\t// out\n        /* \"#utility.yul\":9051:9332   */\n    tag_197:\n        /* \"#utility.yul\":9134:9161   */\n      tag_223\n        /* \"#utility.yul\":9156:9160   */\n      dup3\n        /* \"#utility.yul\":9134:9161   */\n      tag_164\n      jump\t// in\n    tag_223:\n        /* \"#utility.yul\":9126:9132   */\n      dup2\n        /* \"#utility.yul\":9122:9162   */\n      add\n        /* \"#utility.yul\":9264:9270   */\n      dup2\n        /* \"#utility.yul\":9252:9262   */\n      dup2\n        /* \"#utility.yul\":9249:9271   */\n      lt\n        /* \"#utility.yul\":9228:9246   */\n      0xffffffffffffffff\n        /* \"#utility.yul\":9216:9226   */\n      dup3\n        /* \"#utility.yul\":9213:9247   */\n      gt\n        /* \"#utility.yul\":9210:9272   */\n      or\n        /* \"#utility.yul\":9207:9295   */\n      iszero\n      tag_224\n      jumpi\n        /* \"#utility.yul\":9275:9293   */\n      tag_225\n      tag_202\n      jump\t// in\n    tag_225:\n        /* \"#utility.yul\":9207:9295   */\n    tag_224:\n        /* \"#utility.yul\":9315:9325   */\n      dup1\n        /* \"#utility.yul\":9311:9313   */\n      0x40\n        /* \"#utility.yul\":9304:9326   */\n      mstore\n        /* \"#utility.yul\":9094:9332   */\n      pop\n        /* \"#utility.yul\":9051:9332   */\n      pop\n      pop\n      jump\t// out\n        /* \"#utility.yul\":9338:9518   */\n    tag_221:\n        /* \"#utility.yul\":9386:9463   */\n      0x4e487b7100000000000000000000000000000000000000000000000000000000\n        /* \"#utility.yul\":9383:9384   */\n      0x00\n        /* \"#utility.yul\":9376:9464   */\n      mstore\n        /* \"#utility.yul\":9483:9487   */\n      0x22\n        /* \"#utility.yul\":9480:9481   */\n      0x04\n        /* \"#utility.yul\":9473:9488   */\n      mstore\n        /* \"#utility.yul\":9507:9511   */\n      0x24\n        /* \"#utility.yul\":9504:9505   */\n      0x00\n        /* \"#utility.yul\":9497:9512   */\n      revert\n        /* \"#utility.yul\":9524:9704   */\n    tag_52:\n        /* \"#utility.yul\":9572:9649   */\n      0x4e487b7100000000000000000000000000000000000000000000000000000000\n        /* \"#utility.yul\":9569:9570   */\n      0x00\n        /* \"#utility.yul\":9562:9650   */\n      mstore\n        /* \"#utility.yul\":9669:9673   */\n      0x32\n        /* \"#utility.yul\":9666:9667   */\n      0x04\n        /* \"#utility.yul\":9659:9674   */\n      mstore\n        /* \"#utility.yul\":9693:9697   */\n      0x24\n        /* \"#utility.yul\":9690:9691   */\n      0x00\n        /* \"#utility.yul\":9683:9698   */\n      revert\n        /* \"#utility.yul\":9710:9890   */\n    tag_202:\n        /* \"#utility.yul\":9758:9835   */\n      0x4e487b7100000000000000000000000000000000000000000000000000000000\n        /* \"#utility.yul\":9755:9756   */\n      0x00\n        /* \"#utility.yul\":9748:9836   */\n      mstore\n        /* \"#utility.yul\":9855:9859   */\n      0x41\n        /* \"#utility.yul\":9852:9853   */\n      0x04\n        /* \"#utility.yul\":9845:9860   */\n      mstore\n        /* \"#utility.yul\":9879:9883   */\n      0x24\n        /* \"#utility.yul\":9876:9877   */\n      0x00\n        /* \"#utility.yul\":9869:9884   */\n      revert\n        /* \"#utility.yul\":9896:10013   */\n    tag_115:\n        /* \"#utility.yul\":10005:10006   */\n      0x00\n        /* \"#utility.yul\":10002:10003   */\n      dup1\n        /* \"#utility.yul\":9995:10007   */\n      revert\n        /* \"#utility.yul\":10019:10136   */\n    tag_104:\n        /* \"#utility.yul\":10128:10129   */\n      0x00\n        /* \"#utility.yul\":10125:10126   */\n      dup1\n        /* \"#utility.yul\":10118:10130   */\n      revert\n        /* \"#utility.yul\":10142:10259   */\n    tag_136:\n        /* \"#utility.yul\":10251:10252   */\n      0x00\n        /* \"#utility.yul\":10248:10249   */\n      dup1\n        /* \"#utility.yul\":10241:10253   */\n      revert\n        /* \"#utility.yul\":10265:10382   */\n    tag_124:\n        /* \"#utility.yul\":10374:10375   */\n      0x00\n        /* \"#utility.yul\":10371:10372   */\n      dup1\n        /* \"#utility.yul\":10364:10376   */\n      revert\n        /* \"#utility.yul\":10388:10490   */\n    tag_164:\n        /* \"#utility.yul\":10429:10435   */\n      0x00\n        /* \"#utility.yul\":10480:10482   */\n      0x1f\n        /* \"#utility.yul\":10476:10483   */\n      not\n        /* \"#utility.yul\":10471:10473   */\n      0x1f\n        /* \"#utility.yul\":10464:10469   */\n      dup4\n        /* \"#utility.yul\":10460:10474   */\n      add\n        /* \"#utility.yul\":10456:10484   */\n      and\n        /* \"#utility.yul\":10446:10484   */\n      swap1\n      pop\n        /* \"#utility.yul\":10388:10490   */\n      swap2\n      swap1\n      pop\n      jump\t// out\n        /* \"#utility.yul\":10496:10720   */\n    tag_169:\n        /* \"#utility.yul\":10636:10670   */\n      0x596120746520656e6375656e74726173207265676973747261646f20656e2065\n        /* \"#utility.yul\":10632:10633   */\n      0x00\n        /* \"#utility.yul\":10624:10630   */\n      dup3\n        /* \"#utility.yul\":10620:10634   */\n      add\n        /* \"#utility.yul\":10613:10671   */\n      mstore\n        /* \"#utility.yul\":10705:10712   */\n      0x6c2067796d000000000000000000000000000000000000000000000000000000\n        /* \"#utility.yul\":10700:10702   */\n      0x20\n        /* \"#utility.yul\":10692:10698   */\n      dup3\n        /* \"#utility.yul\":10688:10703   */\n      add\n        /* \"#utility.yul\":10681:10713   */\n      mstore\n        /* \"#utility.yul\":10496:10720   */\n      pop\n      jump\t// out\n        /* \"#utility.yul\":10726:10961   */\n    tag_174:\n        /* \"#utility.yul\":10866:10900   */\n      0x536f6c6f20656c2041646d696e6973747261646f722064656c2047796d207075\n        /* \"#utility.yul\":10862:10863   */\n      0x00\n        /* \"#utility.yul\":10854:10860   */\n      dup3\n        /* \"#utility.yul\":10850:10864   */\n      add\n        /* \"#utility.yul\":10843:10901   */\n      mstore\n        /* \"#utility.yul\":10935:10953   */\n      0x65646520637265617220636c6173657300000000000000000000000000000000\n        /* \"#utility.yul\":10930:10932   */\n      0x20\n        /* \"#utility.yul\":10922:10928   */\n      dup3\n        /* \"#utility.yul\":10918:10933   */\n      add\n        /* \"#utility.yul\":10911:10954   */\n      mstore\n        /* \"#utility.yul\":10726:10961   */\n      pop\n      jump\t// out\n        /* \"#utility.yul\":10967:11089   */\n    tag_110:\n        /* \"#utility.yul\":11040:11064   */\n      tag_237\n        /* \"#utility.yul\":11058:11063   */\n      dup2\n        /* \"#utility.yul\":11040:11064   */\n      tag_154\n      jump\t// in\n    tag_237:\n        /* \"#utility.yul\":11033:11038   */\n      dup2\n        /* \"#utility.yul\":11030:11065   */\n      eq\n        /* \"#utility.yul\":11020:11083   */\n      tag_238\n      jumpi\n        /* \"#utility.yul\":11079:11080   */\n      0x00\n        /* \"#utility.yul\":11076:11077   */\n      dup1\n        /* \"#utility.yul\":11069:11081   */\n      revert\n        /* \"#utility.yul\":11020:11083   */\n    tag_238:\n        /* \"#utility.yul\":10967:11089   */\n      pop\n      jump\t// out\n        /* \"#utility.yul\":11095:11217   */\n    tag_120:\n        /* \"#utility.yul\":11168:11192   */\n      tag_240\n        /* \"#utility.yul\":11186:11191   */\n      dup2\n        /* \"#utility.yul\":11168:11192   */\n      tag_178\n      jump\t// in\n    tag_240:\n        /* \"#utility.yul\":11161:11166   */\n      dup2\n        /* \"#utility.yul\":11158:11193   */\n      eq\n        /* \"#utility.yul\":11148:11211   */\n      tag_241\n      jumpi\n        /* \"#utility.yul\":11207:11208   */\n      0x00\n        /* \"#utility.yul\":11204:11205   */\n      dup1\n        /* \"#utility.yul\":11197:11209   */\n      revert\n        /* \"#utility.yul\":11148:11211   */\n    tag_241:\n        /* \"#utility.yul\":11095:11217   */\n      pop\n      jump\t// out\n\n    auxdata: 0xa2646970667358221220fce699928e81d231da3289afd25b729b33cfb92445f7e914a911ca10474264e664736f6c63430008070033\n}\n",
				"bytecode": {
					"linkReferences": {},
					"object": "60a060405234801561001057600080fd5b503373ffffffffffffffffffffffffffffffffffffffff1660808173ffffffffffffffffffffffffffffffffffffffff1660601b8152505060805160601c610d5261006d6000396000818161024b01526103420152610d526000f3fe608060405234801561001057600080fd5b50600436106100885760003560e01c80634852a2121161005b5780634852a21214610117578063512d62df146101335780636d705ebb14610164578063a87430ba1461018057610088565b806312065fe01461008d5780631e8be099146100ac5780632a0acc6a146100c85780633613a9f4146100e6575b600080fd5b6100956101b0565b6040516100a3929190610997565b60405180910390f35b6100c660048036038101906100c19190610870565b6101fb565b005b6100d0610249565b6040516100dd919061097c565b60405180910390f35b61010060048036038101906100fb9190610843565b61026d565b60405161010e9291906109c0565b60405180910390f35b610131600480360381019061012c91906107e7565b610329565b005b61014d60048036038101906101489190610843565b61045d565b60405161015b9291906109c0565b60405180910390f35b61017e600480360381019061017991906107a7565b610525565b005b61019a6004803603810190610195919061077a565b610625565b6040516101a79190610a30565b60405180910390f35b600080336000803373ffffffffffffffffffffffffffffffffffffffff1673ffffffffffffffffffffffffffffffffffffffff16815260200190815260200160002054915091509091565b60006001848154811061021157610210610bcd565b5b906000526020600020906002020190508281600001908051906020019061023992919061063d565b5081816001018190555050505050565b7f000000000000000000000000000000000000000000000000000000000000000081565b6001818154811061027d57600080fd5b90600052602060002090600202016000915090508060000180546102a090610b3b565b80601f01602080910402602001604051908101604052809291908181526020018280546102cc90610b3b565b80156103195780601f106102ee57610100808354040283529160200191610319565b820191906000526020600020905b8154815290600101906020018083116102fc57829003601f168201915b5050505050908060010154905082565b3373ffffffffffffffffffffffffffffffffffffffff167f000000000000000000000000000000000000000000000000000000000000000073ffffffffffffffffffffffffffffffffffffffff16146103b7576040517f08c379a00000000000000000000000000000000000000000000000000000000081526004016103ae90610a10565b60405180910390fd5b60016040518060400160405280848152602001838152509080600181540180825580915050600190039060005260206000209060020201600090919091909150600082015181600001908051906020019061041392919061063d565b506020820151816001015550507f14d49e3ea4f348b7f368906dfe1a63055c7822d622a61672a35a55ae97a768f982826040516104519291906109c0565b60405180910390a15050565b60606000806001848154811061047657610475610bcd565b5b9060005260206000209060020201905080600001816001015481805461049b90610b3b565b80601f01602080910402602001604051908101604052809291908181526020018280546104c790610b3b565b80156105145780601f106104e957610100808354040283529160200191610514565b820191906000526020600020905b8154815290600101906020018083116104f757829003601f168201915b505050505091509250925050915091565b60008060003373ffffffffffffffffffffffffffffffffffffffff1673ffffffffffffffffffffffffffffffffffffffff16815260200190815260200160002054146105a6576040517f08c379a000000000000000000000000000000000000000000000000000000000815260040161059d906109f0565b60405180910390fd5b806000803373ffffffffffffffffffffffffffffffffffffffff1673ffffffffffffffffffffffffffffffffffffffff168152602001908152602001600020819055507e7dc6ab80cc84c043b7b8d4fcafc802187470087f7ea7fccd2e17aecd0256a18282604051610619929190610997565b60405180910390a15050565b60006020528060005260406000206000915090505481565b82805461064990610b3b565b90600052602060002090601f01602090048101928261066b57600085556106b2565b82601f1061068457805160ff19168380011785556106b2565b828001600101855582156106b2579182015b828111156106b1578251825591602001919060010190610696565b5b5090506106bf91906106c3565b5090565b5b808211156106dc5760008160009055506001016106c4565b5090565b60006106f36106ee84610a70565b610a4b565b90508281526020810184848401111561070f5761070e610c30565b5b61071a848285610af9565b509392505050565b60008135905061073181610cee565b92915050565b600082601f83011261074c5761074b610c2b565b5b813561075c8482602086016106e0565b91505092915050565b60008135905061077481610d05565b92915050565b6000602082840312156107905761078f610c3a565b5b600061079e84828501610722565b91505092915050565b600080604083850312156107be576107bd610c3a565b5b60006107cc85828601610722565b92505060206107dd85828601610765565b9150509250929050565b600080604083850312156107fe576107fd610c3a565b5b600083013567ffffffffffffffff81111561081c5761081b610c35565b5b61082885828601610737565b925050602061083985828601610765565b9150509250929050565b60006020828403121561085957610858610c3a565b5b600061086784828501610765565b91505092915050565b60008060006060848603121561088957610888610c3a565b5b600061089786828701610765565b935050602084013567ffffffffffffffff8111156108b8576108b7610c35565b5b6108c486828701610737565b92505060406108d586828701610765565b9150509250925092565b6108e881610abd565b82525050565b60006108f982610aa1565b6109038185610aac565b9350610913818560208601610b08565b61091c81610c3f565b840191505092915050565b6000610934602583610aac565b915061093f82610c50565b604082019050919050565b6000610957603083610aac565b915061096282610c9f565b604082019050919050565b61097681610aef565b82525050565b600060208201905061099160008301846108df565b92915050565b60006040820190506109ac60008301856108df565b6109b9602083018461096d565b9392505050565b600060408201905081810360008301526109da81856108ee565b90506109e9602083018461096d565b9392505050565b60006020820190508181036000830152610a0981610927565b9050919050565b60006020820190508181036000830152610a298161094a565b9050919050565b6000602082019050610a45600083018461096d565b92915050565b6000610a55610a66565b9050610a618282610b6d565b919050565b6000604051905090565b600067ffffffffffffffff821115610a8b57610a8a610bfc565b5b610a9482610c3f565b9050602081019050919050565b600081519050919050565b600082825260208201905092915050565b6000610ac882610acf565b9050919050565b600073ffffffffffffffffffffffffffffffffffffffff82169050919050565b6000819050919050565b82818337600083830152505050565b60005b83811015610b26578082015181840152602081019050610b0b565b83811115610b35576000848401525b50505050565b60006002820490506001821680610b5357607f821691505b60208210811415610b6757610b66610b9e565b5b50919050565b610b7682610c3f565b810181811067ffffffffffffffff82111715610b9557610b94610bfc565b5b80604052505050565b7f4e487b7100000000000000000000000000000000000000000000000000000000600052602260045260246000fd5b7f4e487b7100000000000000000000000000000000000000000000000000000000600052603260045260246000fd5b7f4e487b7100000000000000000000000000000000000000000000000000000000600052604160045260246000fd5b600080fd5b600080fd5b600080fd5b600080fd5b6000601f19601f8301169050919050565b7f596120746520656e6375656e74726173207265676973747261646f20656e206560008201527f6c2067796d000000000000000000000000000000000000000000000000000000602082015250565b7f536f6c6f20656c2041646d696e6973747261646f722064656c2047796d20707560008201527f65646520637265617220636c6173657300000000000000000000000000000000602082015250565b610cf781610abd565b8114610d0257600080fd5b50565b610d0e81610aef565b8114610d1957600080fd5b5056fea2646970667358221220fce699928e81d231da3289afd25b729b33cfb92445f7e914a911ca10474264e664736f6c63430008070033",
					"opcodes": "PUSH1 0xA0 PUSH1 0x40 MSTORE CALLVALUE DUP1 ISZERO PUSH2 0x10 JUMPI PUSH1 0x0 DUP1 REVERT JUMPDEST POP CALLER PUSH20 0xFFFFFFFFFFFFFFFFFFFFFFFFFFFFFFFFFFFFFFFF AND PUSH1 0x80 DUP2 PUSH20 0xFFFFFFFFFFFFFFFFFFFFFFFFFFFFFFFFFFFFFFFF AND PUSH1 0x60 SHL DUP2 MSTORE POP POP PUSH1 0x80 MLOAD PUSH1 0x60 SHR PUSH2 0xD52 PUSH2 0x6D PUSH1 0x0 CODECOPY PUSH1 0x0 DUP2 DUP2 PUSH2 0x24B ADD MSTORE PUSH2 0x342 ADD MSTORE PUSH2 0xD52 PUSH1 0x0 RETURN INVALID PUSH1 0x80 PUSH1 0x40 MSTORE CALLVALUE DUP1 ISZERO PUSH2 0x10 JUMPI PUSH1 0x0 DUP1 REVERT JUMPDEST POP PUSH1 0x4 CALLDATASIZE LT PUSH2 0x88 JUMPI PUSH1 0x0 CALLDATALOAD PUSH1 0xE0 SHR DUP1 PUSH4 0x4852A212 GT PUSH2 0x5B JUMPI DUP1 PUSH4 0x4852A212 EQ PUSH2 0x117 JUMPI DUP1 PUSH4 0x512D62DF EQ PUSH2 0x133 JUMPI DUP1 PUSH4 0x6D705EBB EQ PUSH2 0x164 JUMPI DUP1 PUSH4 0xA87430BA EQ PUSH2 0x180 JUMPI PUSH2 0x88 JUMP JUMPDEST DUP1 PUSH4 0x12065FE0 EQ PUSH2 0x8D JUMPI DUP1 PUSH4 0x1E8BE099 EQ PUSH2 0xAC JUMPI DUP1 PUSH4 0x2A0ACC6A EQ PUSH2 0xC8 JUMPI DUP1 PUSH4 0x3613A9F4 EQ PUSH2 0xE6 JUMPI JUMPDEST PUSH1 0x0 DUP1 REVERT JUMPDEST PUSH2 0x95 PUSH2 0x1B0 JUMP JUMPDEST PUSH1 0x40 MLOAD PUSH2 0xA3 SWAP3 SWAP2 SWAP1 PUSH2 0x997 JUMP JUMPDEST PUSH1 0x40 MLOAD DUP1 SWAP2 SUB SWAP1 RETURN JUMPDEST PUSH2 0xC6 PUSH1 0x4 DUP1 CALLDATASIZE SUB DUP2 ADD SWAP1 PUSH2 0xC1 SWAP2 SWAP1 PUSH2 0x870 JUMP JUMPDEST PUSH2 0x1FB JUMP JUMPDEST STOP JUMPDEST PUSH2 0xD0 PUSH2 0x249 JUMP JUMPDEST PUSH1 0x40 MLOAD PUSH2 0xDD SWAP2 SWAP1 PUSH2 0x97C JUMP JUMPDEST PUSH1 0x40 MLOAD DUP1 SWAP2 SUB SWAP1 RETURN JUMPDEST PUSH2 0x100 PUSH1 0x4 DUP1 CALLDATASIZE SUB DUP2 ADD SWAP1 PUSH2 0xFB SWAP2 SWAP1 PUSH2 0x843 JUMP JUMPDEST PUSH2 0x26D JUMP JUMPDEST PUSH1 0x40 MLOAD PUSH2 0x10E SWAP3 SWAP2 SWAP1 PUSH2 0x9C0 JUMP JUMPDEST PUSH1 0x40 MLOAD DUP1 SWAP2 SUB SWAP1 RETURN JUMPDEST PUSH2 0x131 PUSH1 0x4 DUP1 CALLDATASIZE SUB DUP2 ADD SWAP1 PUSH2 0x12C SWAP2 SWAP1 PUSH2 0x7E7 JUMP JUMPDEST PUSH2 0x329 JUMP JUMPDEST STOP JUMPDEST PUSH2 0x14D PUSH1 0x4 DUP1 CALLDATASIZE SUB DUP2 ADD SWAP1 PUSH2 0x148 SWAP2 SWAP1 PUSH2 0x843 JUMP JUMPDEST PUSH2 0x45D JUMP JUMPDEST PUSH1 0x40 MLOAD PUSH2 0x15B SWAP3 SWAP2 SWAP1 PUSH2 0x9C0 JUMP JUMPDEST PUSH1 0x40 MLOAD DUP1 SWAP2 SUB SWAP1 RETURN JUMPDEST PUSH2 0x17E PUSH1 0x4 DUP1 CALLDATASIZE SUB DUP2 ADD SWAP1 PUSH2 0x179 SWAP2 SWAP1 PUSH2 0x7A7 JUMP JUMPDEST PUSH2 0x525 JUMP JUMPDEST STOP JUMPDEST PUSH2 0x19A PUSH1 0x4 DUP1 CALLDATASIZE SUB DUP2 ADD SWAP1 PUSH2 0x195 SWAP2 SWAP1 PUSH2 0x77A JUMP JUMPDEST PUSH2 0x625 JUMP JUMPDEST PUSH1 0x40 MLOAD PUSH2 0x1A7 SWAP2 SWAP1 PUSH2 0xA30 JUMP JUMPDEST PUSH1 0x40 MLOAD DUP1 SWAP2 SUB SWAP1 RETURN JUMPDEST PUSH1 0x0 DUP1 CALLER PUSH1 0x0 DUP1 CALLER PUSH20 0xFFFFFFFFFFFFFFFFFFFFFFFFFFFFFFFFFFFFFFFF AND PUSH20 0xFFFFFFFFFFFFFFFFFFFFFFFFFFFFFFFFFFFFFFFF AND DUP2 MSTORE PUSH1 0x20 ADD SWAP1 DUP2 MSTORE PUSH1 0x20 ADD PUSH1 0x0 KECCAK256 SLOAD SWAP2 POP SWAP2 POP SWAP1 SWAP2 JUMP JUMPDEST PUSH1 0x0 PUSH1 0x1 DUP5 DUP2 SLOAD DUP2 LT PUSH2 0x211 JUMPI PUSH2 0x210 PUSH2 0xBCD JUMP JUMPDEST JUMPDEST SWAP1 PUSH1 0x0 MSTORE PUSH1 0x20 PUSH1 0x0 KECCAK256 SWAP1 PUSH1 0x2 MUL ADD SWAP1 POP DUP3 DUP2 PUSH1 0x0 ADD SWAP1 DUP1 MLOAD SWAP1 PUSH1 0x20 ADD SWAP1 PUSH2 0x239 SWAP3 SWAP2 SWAP1 PUSH2 0x63D JUMP JUMPDEST POP DUP2 DUP2 PUSH1 0x1 ADD DUP2 SWAP1 SSTORE POP POP POP POP POP JUMP JUMPDEST PUSH32 0x0 DUP2 JUMP JUMPDEST PUSH1 0x1 DUP2 DUP2 SLOAD DUP2 LT PUSH2 0x27D JUMPI PUSH1 0x0 DUP1 REVERT JUMPDEST SWAP1 PUSH1 0x0 MSTORE PUSH1 0x20 PUSH1 0x0 KECCAK256 SWAP1 PUSH1 0x2 MUL ADD PUSH1 0x0 SWAP2 POP SWAP1 POP DUP1 PUSH1 0x0 ADD DUP1 SLOAD PUSH2 0x2A0 SWAP1 PUSH2 0xB3B JUMP JUMPDEST DUP1 PUSH1 0x1F ADD PUSH1 0x20 DUP1 SWAP2 DIV MUL PUSH1 0x20 ADD PUSH1 0x40 MLOAD SWAP1 DUP2 ADD PUSH1 0x40 MSTORE DUP1 SWAP3 SWAP2 SWAP1 DUP2 DUP2 MSTORE PUSH1 0x20 ADD DUP3 DUP1 SLOAD PUSH2 0x2CC SWAP1 PUSH2 0xB3B JUMP JUMPDEST DUP1 ISZERO PUSH2 0x319 JUMPI DUP1 PUSH1 0x1F LT PUSH2 0x2EE JUMPI PUSH2 0x100 DUP1 DUP4 SLOAD DIV MUL DUP4 MSTORE SWAP2 PUSH1 0x20 ADD SWAP2 PUSH2 0x319 JUMP JUMPDEST DUP3 ADD SWAP2 SWAP1 PUSH1 0x0 MSTORE PUSH1 0x20 PUSH1 0x0 KECCAK256 SWAP1 JUMPDEST DUP2 SLOAD DUP2 MSTORE SWAP1 PUSH1 0x1 ADD SWAP1 PUSH1 0x20 ADD DUP1 DUP4 GT PUSH2 0x2FC JUMPI DUP3 SWAP1 SUB PUSH1 0x1F AND DUP3 ADD SWAP2 JUMPDEST POP POP POP POP POP SWAP1 DUP1 PUSH1 0x1 ADD SLOAD SWAP1 POP DUP3 JUMP JUMPDEST CALLER PUSH20 0xFFFFFFFFFFFFFFFFFFFFFFFFFFFFFFFFFFFFFFFF AND PUSH32 0x0 PUSH20 0xFFFFFFFFFFFFFFFFFFFFFFFFFFFFFFFFFFFFFFFF AND EQ PUSH2 0x3B7 JUMPI PUSH1 0x40 MLOAD PUSH32 0x8C379A000000000000000000000000000000000000000000000000000000000 DUP2 MSTORE PUSH1 0x4 ADD PUSH2 0x3AE SWAP1 PUSH2 0xA10 JUMP JUMPDEST PUSH1 0x40 MLOAD DUP1 SWAP2 SUB SWAP1 REVERT JUMPDEST PUSH1 0x1 PUSH1 0x40 MLOAD DUP1 PUSH1 0x40 ADD PUSH1 0x40 MSTORE DUP1 DUP5 DUP2 MSTORE PUSH1 0x20 ADD DUP4 DUP2 MSTORE POP SWAP1 DUP1 PUSH1 0x1 DUP2 SLOAD ADD DUP1 DUP3 SSTORE DUP1 SWAP2 POP POP PUSH1 0x1 SWAP1 SUB SWAP1 PUSH1 0x0 MSTORE PUSH1 0x20 PUSH1 0x0 KECCAK256 SWAP1 PUSH1 0x2 MUL ADD PUSH1 0x0 SWAP1 SWAP2 SWAP1 SWAP2 SWAP1 SWAP2 POP PUSH1 0x0 DUP3 ADD MLOAD DUP2 PUSH1 0x0 ADD SWAP1 DUP1 MLOAD SWAP1 PUSH1 0x20 ADD SWAP1 PUSH2 0x413 SWAP3 SWAP2 SWAP1 PUSH2 0x63D JUMP JUMPDEST POP PUSH1 0x20 DUP3 ADD MLOAD DUP2 PUSH1 0x1 ADD SSTORE POP POP PUSH32 0x14D49E3EA4F348B7F368906DFE1A63055C7822D622A61672A35A55AE97A768F9 DUP3 DUP3 PUSH1 0x40 MLOAD PUSH2 0x451 SWAP3 SWAP2 SWAP1 PUSH2 0x9C0 JUMP JUMPDEST PUSH1 0x40 MLOAD DUP1 SWAP2 SUB SWAP1 LOG1 POP POP JUMP JUMPDEST PUSH1 0x60 PUSH1 0x0 DUP1 PUSH1 0x1 DUP5 DUP2 SLOAD DUP2 LT PUSH2 0x476 JUMPI PUSH2 0x475 PUSH2 0xBCD JUMP JUMPDEST JUMPDEST SWAP1 PUSH1 0x0 MSTORE PUSH1 0x20 PUSH1 0x0 KECCAK256 SWAP1 PUSH1 0x2 MUL ADD SWAP1 POP DUP1 PUSH1 0x0 ADD DUP2 PUSH1 0x1 ADD SLOAD DUP2 DUP1 SLOAD PUSH2 0x49B SWAP1 PUSH2 0xB3B JUMP JUMPDEST DUP1 PUSH1 0x1F ADD PUSH1 0x20 DUP1 SWAP2 DIV MUL PUSH1 0x20 ADD PUSH1 0x40 MLOAD SWAP1 DUP2 ADD PUSH1 0x40 MSTORE DUP1 SWAP3 SWAP2 SWAP1 DUP2 DUP2 MSTORE PUSH1 0x20 ADD DUP3 DUP1 SLOAD PUSH2 0x4C7 SWAP1 PUSH2 0xB3B JUMP JUMPDEST DUP1 ISZERO PUSH2 0x514 JUMPI DUP1 PUSH1 0x1F LT PUSH2 0x4E9 JUMPI PUSH2 0x100 DUP1 DUP4 SLOAD DIV MUL DUP4 MSTORE SWAP2 PUSH1 0x20 ADD SWAP2 PUSH2 0x514 JUMP JUMPDEST DUP3 ADD SWAP2 SWAP1 PUSH1 0x0 MSTORE PUSH1 0x20 PUSH1 0x0 KECCAK256 SWAP1 JUMPDEST DUP2 SLOAD DUP2 MSTORE SWAP1 PUSH1 0x1 ADD SWAP1 PUSH1 0x20 ADD DUP1 DUP4 GT PUSH2 0x4F7 JUMPI DUP3 SWAP1 SUB PUSH1 0x1F AND DUP3 ADD SWAP2 JUMPDEST POP POP POP POP POP SWAP2 POP SWAP3 POP SWAP3 POP POP SWAP2 POP SWAP2 JUMP JUMPDEST PUSH1 0x0 DUP1 PUSH1 0x0 CALLER PUSH20 0xFFFFFFFFFFFFFFFFFFFFFFFFFFFFFFFFFFFFFFFF AND PUSH20 0xFFFFFFFFFFFFFFFFFFFFFFFFFFFFFFFFFFFFFFFF AND DUP2 MSTORE PUSH1 0x20 ADD SWAP1 DUP2 MSTORE PUSH1 0x20 ADD PUSH1 0x0 KECCAK256 SLOAD EQ PUSH2 0x5A6 JUMPI PUSH1 0x40 MLOAD PUSH32 0x8C379A000000000000000000000000000000000000000000000000000000000 DUP2 MSTORE PUSH1 0x4 ADD PUSH2 0x59D SWAP1 PUSH2 0x9F0 JUMP JUMPDEST PUSH1 0x40 MLOAD DUP1 SWAP2 SUB SWAP1 REVERT JUMPDEST DUP1 PUSH1 0x0 DUP1 CALLER PUSH20 0xFFFFFFFFFFFFFFFFFFFFFFFFFFFFFFFFFFFFFFFF AND PUSH20 0xFFFFFFFFFFFFFFFFFFFFFFFFFFFFFFFFFFFFFFFF AND DUP2 MSTORE PUSH1 0x20 ADD SWAP1 DUP2 MSTORE PUSH1 0x20 ADD PUSH1 0x0 KECCAK256 DUP2 SWAP1 SSTORE POP PUSH31 0x7DC6AB80CC84C043B7B8D4FCAFC802187470087F7EA7FCCD2E17AECD0256A1 DUP3 DUP3 PUSH1 0x40 MLOAD PUSH2 0x619 SWAP3 SWAP2 SWAP1 PUSH2 0x997 JUMP JUMPDEST PUSH1 0x40 MLOAD DUP1 SWAP2 SUB SWAP1 LOG1 POP POP JUMP JUMPDEST PUSH1 0x0 PUSH1 0x20 MSTORE DUP1 PUSH1 0x0 MSTORE PUSH1 0x40 PUSH1 0x0 KECCAK256 PUSH1 0x0 SWAP2 POP SWAP1 POP SLOAD DUP2 JUMP JUMPDEST DUP3 DUP1 SLOAD PUSH2 0x649 SWAP1 PUSH2 0xB3B JUMP JUMPDEST SWAP1 PUSH1 0x0 MSTORE PUSH1 0x20 PUSH1 0x0 KECCAK256 SWAP1 PUSH1 0x1F ADD PUSH1 0x20 SWAP1 DIV DUP2 ADD SWAP3 DUP3 PUSH2 0x66B JUMPI PUSH1 0x0 DUP6 SSTORE PUSH2 0x6B2 JUMP JUMPDEST DUP3 PUSH1 0x1F LT PUSH2 0x684 JUMPI DUP1 MLOAD PUSH1 0xFF NOT AND DUP4 DUP1 ADD OR DUP6 SSTORE PUSH2 0x6B2 JUMP JUMPDEST DUP3 DUP1 ADD PUSH1 0x1 ADD DUP6 SSTORE DUP3 ISZERO PUSH2 0x6B2 JUMPI SWAP2 DUP3 ADD JUMPDEST DUP3 DUP2 GT ISZERO PUSH2 0x6B1 JUMPI DUP3 MLOAD DUP3 SSTORE SWAP2 PUSH1 0x20 ADD SWAP2 SWAP1 PUSH1 0x1 ADD SWAP1 PUSH2 0x696 JUMP JUMPDEST JUMPDEST POP SWAP1 POP PUSH2 0x6BF SWAP2 SWAP1 PUSH2 0x6C3 JUMP JUMPDEST POP SWAP1 JUMP JUMPDEST JUMPDEST DUP1 DUP3 GT ISZERO PUSH2 0x6DC JUMPI PUSH1 0x0 DUP2 PUSH1 0x0 SWAP1 SSTORE POP PUSH1 0x1 ADD PUSH2 0x6C4 JUMP JUMPDEST POP SWAP1 JUMP JUMPDEST PUSH1 0x0 PUSH2 0x6F3 PUSH2 0x6EE DUP5 PUSH2 0xA70 JUMP JUMPDEST PUSH2 0xA4B JUMP JUMPDEST SWAP1 POP DUP3 DUP2 MSTORE PUSH1 0x20 DUP2 ADD DUP5 DUP5 DUP5 ADD GT ISZERO PUSH2 0x70F JUMPI PUSH2 0x70E PUSH2 0xC30 JUMP JUMPDEST JUMPDEST PUSH2 0x71A DUP5 DUP3 DUP6 PUSH2 0xAF9 JUMP JUMPDEST POP SWAP4 SWAP3 POP POP POP JUMP JUMPDEST PUSH1 0x0 DUP2 CALLDATALOAD SWAP1 POP PUSH2 0x731 DUP2 PUSH2 0xCEE JUMP JUMPDEST SWAP3 SWAP2 POP POP JUMP JUMPDEST PUSH1 0x0 DUP3 PUSH1 0x1F DUP4 ADD SLT PUSH2 0x74C JUMPI PUSH2 0x74B PUSH2 0xC2B JUMP JUMPDEST JUMPDEST DUP2 CALLDATALOAD PUSH2 0x75C DUP5 DUP3 PUSH1 0x20 DUP7 ADD PUSH2 0x6E0 JUMP JUMPDEST SWAP2 POP POP SWAP3 SWAP2 POP POP JUMP JUMPDEST PUSH1 0x0 DUP2 CALLDATALOAD SWAP1 POP PUSH2 0x774 DUP2 PUSH2 0xD05 JUMP JUMPDEST SWAP3 SWAP2 POP POP JUMP JUMPDEST PUSH1 0x0 PUSH1 0x20 DUP3 DUP5 SUB SLT ISZERO PUSH2 0x790 JUMPI PUSH2 0x78F PUSH2 0xC3A JUMP JUMPDEST JUMPDEST PUSH1 0x0 PUSH2 0x79E DUP5 DUP3 DUP6 ADD PUSH2 0x722 JUMP JUMPDEST SWAP2 POP POP SWAP3 SWAP2 POP POP JUMP JUMPDEST PUSH1 0x0 DUP1 PUSH1 0x40 DUP4 DUP6 SUB SLT ISZERO PUSH2 0x7BE JUMPI PUSH2 0x7BD PUSH2 0xC3A JUMP JUMPDEST JUMPDEST PUSH1 0x0 PUSH2 0x7CC DUP6 DUP3 DUP7 ADD PUSH2 0x722 JUMP JUMPDEST SWAP3 POP POP PUSH1 0x20 PUSH2 0x7DD DUP6 DUP3 DUP7 ADD PUSH2 0x765 JUMP JUMPDEST SWAP2 POP POP SWAP3 POP SWAP3 SWAP1 POP JUMP JUMPDEST PUSH1 0x0 DUP1 PUSH1 0x40 DUP4 DUP6 SUB SLT ISZERO PUSH2 0x7FE JUMPI PUSH2 0x7FD PUSH2 0xC3A JUMP JUMPDEST JUMPDEST PUSH1 0x0 DUP4 ADD CALLDATALOAD PUSH8 0xFFFFFFFFFFFFFFFF DUP2 GT ISZERO PUSH2 0x81C JUMPI PUSH2 0x81B PUSH2 0xC35 JUMP JUMPDEST JUMPDEST PUSH2 0x828 DUP6 DUP3 DUP7 ADD PUSH2 0x737 JUMP JUMPDEST SWAP3 POP POP PUSH1 0x20 PUSH2 0x839 DUP6 DUP3 DUP7 ADD PUSH2 0x765 JUMP JUMPDEST SWAP2 POP POP SWAP3 POP SWAP3 SWAP1 POP JUMP JUMPDEST PUSH1 0x0 PUSH1 0x20 DUP3 DUP5 SUB SLT ISZERO PUSH2 0x859 JUMPI PUSH2 0x858 PUSH2 0xC3A JUMP JUMPDEST JUMPDEST PUSH1 0x0 PUSH2 0x867 DUP5 DUP3 DUP6 ADD PUSH2 0x765 JUMP JUMPDEST SWAP2 POP POP SWAP3 SWAP2 POP POP JUMP JUMPDEST PUSH1 0x0 DUP1 PUSH1 0x0 PUSH1 0x60 DUP5 DUP7 SUB SLT ISZERO PUSH2 0x889 JUMPI PUSH2 0x888 PUSH2 0xC3A JUMP JUMPDEST JUMPDEST PUSH1 0x0 PUSH2 0x897 DUP7 DUP3 DUP8 ADD PUSH2 0x765 JUMP JUMPDEST SWAP4 POP POP PUSH1 0x20 DUP5 ADD CALLDATALOAD PUSH8 0xFFFFFFFFFFFFFFFF DUP2 GT ISZERO PUSH2 0x8B8 JUMPI PUSH2 0x8B7 PUSH2 0xC35 JUMP JUMPDEST JUMPDEST PUSH2 0x8C4 DUP7 DUP3 DUP8 ADD PUSH2 0x737 JUMP JUMPDEST SWAP3 POP POP PUSH1 0x40 PUSH2 0x8D5 DUP7 DUP3 DUP8 ADD PUSH2 0x765 JUMP JUMPDEST SWAP2 POP POP SWAP3 POP SWAP3 POP SWAP3 JUMP JUMPDEST PUSH2 0x8E8 DUP2 PUSH2 0xABD JUMP JUMPDEST DUP3 MSTORE POP POP JUMP JUMPDEST PUSH1 0x0 PUSH2 0x8F9 DUP3 PUSH2 0xAA1 JUMP JUMPDEST PUSH2 0x903 DUP2 DUP6 PUSH2 0xAAC JUMP JUMPDEST SWAP4 POP PUSH2 0x913 DUP2 DUP6 PUSH1 0x20 DUP7 ADD PUSH2 0xB08 JUMP JUMPDEST PUSH2 0x91C DUP2 PUSH2 0xC3F JUMP JUMPDEST DUP5 ADD SWAP2 POP POP SWAP3 SWAP2 POP POP JUMP JUMPDEST PUSH1 0x0 PUSH2 0x934 PUSH1 0x25 DUP4 PUSH2 0xAAC JUMP JUMPDEST SWAP2 POP PUSH2 0x93F DUP3 PUSH2 0xC50 JUMP JUMPDEST PUSH1 0x40 DUP3 ADD SWAP1 POP SWAP2 SWAP1 POP JUMP JUMPDEST PUSH1 0x0 PUSH2 0x957 PUSH1 0x30 DUP4 PUSH2 0xAAC JUMP JUMPDEST SWAP2 POP PUSH2 0x962 DUP3 PUSH2 0xC9F JUMP JUMPDEST PUSH1 0x40 DUP3 ADD SWAP1 POP SWAP2 SWAP1 POP JUMP JUMPDEST PUSH2 0x976 DUP2 PUSH2 0xAEF JUMP JUMPDEST DUP3 MSTORE POP POP JUMP JUMPDEST PUSH1 0x0 PUSH1 0x20 DUP3 ADD SWAP1 POP PUSH2 0x991 PUSH1 0x0 DUP4 ADD DUP5 PUSH2 0x8DF JUMP JUMPDEST SWAP3 SWAP2 POP POP JUMP JUMPDEST PUSH1 0x0 PUSH1 0x40 DUP3 ADD SWAP1 POP PUSH2 0x9AC PUSH1 0x0 DUP4 ADD DUP6 PUSH2 0x8DF JUMP JUMPDEST PUSH2 0x9B9 PUSH1 0x20 DUP4 ADD DUP5 PUSH2 0x96D JUMP JUMPDEST SWAP4 SWAP3 POP POP POP JUMP JUMPDEST PUSH1 0x0 PUSH1 0x40 DUP3 ADD SWAP1 POP DUP2 DUP2 SUB PUSH1 0x0 DUP4 ADD MSTORE PUSH2 0x9DA DUP2 DUP6 PUSH2 0x8EE JUMP JUMPDEST SWAP1 POP PUSH2 0x9E9 PUSH1 0x20 DUP4 ADD DUP5 PUSH2 0x96D JUMP JUMPDEST SWAP4 SWAP3 POP POP POP JUMP JUMPDEST PUSH1 0x0 PUSH1 0x20 DUP3 ADD SWAP1 POP DUP2 DUP2 SUB PUSH1 0x0 DUP4 ADD MSTORE PUSH2 0xA09 DUP2 PUSH2 0x927 JUMP JUMPDEST SWAP1 POP SWAP2 SWAP1 POP JUMP JUMPDEST PUSH1 0x0 PUSH1 0x20 DUP3 ADD SWAP1 POP DUP2 DUP2 SUB PUSH1 0x0 DUP4 ADD MSTORE PUSH2 0xA29 DUP2 PUSH2 0x94A JUMP JUMPDEST SWAP1 POP SWAP2 SWAP1 POP JUMP JUMPDEST PUSH1 0x0 PUSH1 0x20 DUP3 ADD SWAP1 POP PUSH2 0xA45 PUSH1 0x0 DUP4 ADD DUP5 PUSH2 0x96D JUMP JUMPDEST SWAP3 SWAP2 POP POP JUMP JUMPDEST PUSH1 0x0 PUSH2 0xA55 PUSH2 0xA66 JUMP JUMPDEST SWAP1 POP PUSH2 0xA61 DUP3 DUP3 PUSH2 0xB6D JUMP JUMPDEST SWAP2 SWAP1 POP JUMP JUMPDEST PUSH1 0x0 PUSH1 0x40 MLOAD SWAP1 POP SWAP1 JUMP JUMPDEST PUSH1 0x0 PUSH8 0xFFFFFFFFFFFFFFFF DUP3 GT ISZERO PUSH2 0xA8B JUMPI PUSH2 0xA8A PUSH2 0xBFC JUMP JUMPDEST JUMPDEST PUSH2 0xA94 DUP3 PUSH2 0xC3F JUMP JUMPDEST SWAP1 POP PUSH1 0x20 DUP2 ADD SWAP1 POP SWAP2 SWAP1 POP JUMP JUMPDEST PUSH1 0x0 DUP2 MLOAD SWAP1 POP SWAP2 SWAP1 POP JUMP JUMPDEST PUSH1 0x0 DUP3 DUP3 MSTORE PUSH1 0x20 DUP3 ADD SWAP1 POP SWAP3 SWAP2 POP POP JUMP JUMPDEST PUSH1 0x0 PUSH2 0xAC8 DUP3 PUSH2 0xACF JUMP JUMPDEST SWAP1 POP SWAP2 SWAP1 POP JUMP JUMPDEST PUSH1 0x0 PUSH20 0xFFFFFFFFFFFFFFFFFFFFFFFFFFFFFFFFFFFFFFFF DUP3 AND SWAP1 POP SWAP2 SWAP1 POP JUMP JUMPDEST PUSH1 0x0 DUP2 SWAP1 POP SWAP2 SWAP1 POP JUMP JUMPDEST DUP3 DUP2 DUP4 CALLDATACOPY PUSH1 0x0 DUP4 DUP4 ADD MSTORE POP POP POP JUMP JUMPDEST PUSH1 0x0 JUMPDEST DUP4 DUP2 LT ISZERO PUSH2 0xB26 JUMPI DUP1 DUP3 ADD MLOAD DUP2 DUP5 ADD MSTORE PUSH1 0x20 DUP2 ADD SWAP1 POP PUSH2 0xB0B JUMP JUMPDEST DUP4 DUP2 GT ISZERO PUSH2 0xB35 JUMPI PUSH1 0x0 DUP5 DUP5 ADD MSTORE JUMPDEST POP POP POP POP JUMP JUMPDEST PUSH1 0x0 PUSH1 0x2 DUP3 DIV SWAP1 POP PUSH1 0x1 DUP3 AND DUP1 PUSH2 0xB53 JUMPI PUSH1 0x7F DUP3 AND SWAP2 POP JUMPDEST PUSH1 0x20 DUP3 LT DUP2 EQ ISZERO PUSH2 0xB67 JUMPI PUSH2 0xB66 PUSH2 0xB9E JUMP JUMPDEST JUMPDEST POP SWAP2 SWAP1 POP JUMP JUMPDEST PUSH2 0xB76 DUP3 PUSH2 0xC3F JUMP JUMPDEST DUP2 ADD DUP2 DUP2 LT PUSH8 0xFFFFFFFFFFFFFFFF DUP3 GT OR ISZERO PUSH2 0xB95 JUMPI PUSH2 0xB94 PUSH2 0xBFC JUMP JUMPDEST JUMPDEST DUP1 PUSH1 0x40 MSTORE POP POP POP JUMP JUMPDEST PUSH32 0x4E487B7100000000000000000000000000000000000000000000000000000000 PUSH1 0x0 MSTORE PUSH1 0x22 PUSH1 0x4 MSTORE PUSH1 0x24 PUSH1 0x0 REVERT JUMPDEST PUSH32 0x4E487B7100000000000000000000000000000000000000000000000000000000 PUSH1 0x0 MSTORE PUSH1 0x32 PUSH1 0x4 MSTORE PUSH1 0x24 PUSH1 0x0 REVERT JUMPDEST PUSH32 0x4E487B7100000000000000000000000000000000000000000000000000000000 PUSH1 0x0 MSTORE PUSH1 0x41 PUSH1 0x4 MSTORE PUSH1 0x24 PUSH1 0x0 REVERT JUMPDEST PUSH1 0x0 DUP1 REVERT JUMPDEST PUSH1 0x0 DUP1 REVERT JUMPDEST PUSH1 0x0 DUP1 REVERT JUMPDEST PUSH1 0x0 DUP1 REVERT JUMPDEST PUSH1 0x0 PUSH1 0x1F NOT PUSH1 0x1F DUP4 ADD AND SWAP1 POP SWAP2 SWAP1 POP JUMP JUMPDEST PUSH32 0x596120746520656E6375656E74726173207265676973747261646F20656E2065 PUSH1 0x0 DUP3 ADD MSTORE PUSH32 0x6C2067796D000000000000000000000000000000000000000000000000000000 PUSH1 0x20 DUP3 ADD MSTORE POP JUMP JUMPDEST PUSH32 0x536F6C6F20656C2041646D696E6973747261646F722064656C2047796D207075 PUSH1 0x0 DUP3 ADD MSTORE PUSH32 0x65646520637265617220636C6173657300000000000000000000000000000000 PUSH1 0x20 DUP3 ADD MSTORE POP JUMP JUMPDEST PUSH2 0xCF7 DUP2 PUSH2 0xABD JUMP JUMPDEST DUP2 EQ PUSH2 0xD02 JUMPI PUSH1 0x0 DUP1 REVERT JUMPDEST POP JUMP JUMPDEST PUSH2 0xD0E DUP2 PUSH2 0xAEF JUMP JUMPDEST DUP2 EQ PUSH2 0xD19 JUMPI PUSH1 0x0 DUP1 REVERT JUMPDEST POP JUMP INVALID LOG2 PUSH5 0x6970667358 0x22 SLT KECCAK256 0xFC 0xE6 SWAP10 SWAP3 DUP15 DUP2 0xD2 BALANCE 0xDA ORIGIN DUP10 0xAF 0xD2 JUMPDEST PUSH19 0x9B33CFB92445F7E914A911CA10474264E66473 PUSH16 0x6C634300080700330000000000000000 "
				},
				"gasEstimates": {
					"creation": {
						"codeDepositCost": "682000",
						"executionCost": "infinite",
						"totalCost": "infinite"
					},
					"external": {
						"ADMIN()": "infinite",
						"class(uint256)": "infinite",
						"createClass(string,uint256)": "infinite",
						"getBalance()": "2689",
						"getClass(uint256)": "infinite",
						"register(address,uint256)": "infinite",
						"updateClass(uint256,string,uint256)": "infinite",
						"users(address)": "2880"
					}
				},
				"methodIdentifiers": {
					"ADMIN()": "2a0acc6a",
					"class(uint256)": "3613a9f4",
					"createClass(string,uint256)": "4852a212",
					"getBalance()": "12065fe0",
					"getClass(uint256)": "512d62df",
					"register(address,uint256)": "6d705ebb",
					"updateClass(uint256,string,uint256)": "1e8be099",
					"users(address)": "a87430ba"
				}
			},
			"storageLayout": {
				"storage": [
					{
						"astId": 33,
						"contract": "contracts/Gym_Contact.sol:gym",
						"label": "users",
						"offset": 0,
						"slot": "0",
						"type": "t_mapping(t_address,t_uint256)"
					},
					{
						"astId": 37,
						"contract": "contracts/Gym_Contact.sol:gym",
						"label": "class",
						"offset": 0,
						"slot": "1",
						"type": "t_array(t_struct(Class)6_storage)dyn_storage"
					}
				],
				"types": {
					"t_address": {
						"encoding": "inplace",
						"label": "address",
						"numberOfBytes": "20"
					},
					"t_array(t_struct(Class)6_storage)dyn_storage": {
						"base": "t_struct(Class)6_storage",
						"encoding": "dynamic_array",
						"label": "struct gym.Class[]",
						"numberOfBytes": "32"
					},
					"t_mapping(t_address,t_uint256)": {
						"encoding": "mapping",
						"key": "t_address",
						"label": "mapping(address => uint256)",
						"numberOfBytes": "32",
						"value": "t_uint256"
					},
					"t_string_storage": {
						"encoding": "bytes",
						"label": "string",
						"numberOfBytes": "32"
					},
					"t_struct(Class)6_storage": {
						"encoding": "inplace",
						"label": "struct gym.Class",
						"members": [
							{
								"astId": 3,
								"contract": "contracts/Gym_Contact.sol:gym",
								"label": "name",
								"offset": 0,
								"slot": "0",
								"type": "t_string_storage"
							},
							{
								"astId": 5,
								"contract": "contracts/Gym_Contact.sol:gym",
								"label": "value",
								"offset": 0,
								"slot": "1",
								"type": "t_uint256"
							}
						],
						"numberOfBytes": "64"
					},
					"t_uint256": {
						"encoding": "inplace",
						"label": "uint256",
						"numberOfBytes": "32"
					}
				}
			},
			"userdoc": {
				"kind": "user",
				"methods": {},
				"version": 1
			}
		}
	}
}