{
	"contracts/Gym_Contact.sol": {
		"gym": {
			"abi": [
				{
					"inputs": [],
					"stateMutability": "nonpayable",
					"type": "constructor"
				},
				{
					"anonymous": false,
					"inputs": [
						{
							"indexed": false,
							"internalType": "string",
							"name": "name",
							"type": "string"
						},
						{
							"indexed": false,
							"internalType": "uint256",
							"name": "value",
							"type": "uint256"
						}
					],
					"name": "ClassCreated",
					"type": "event"
				},
				{
					"anonymous": false,
					"inputs": [
						{
							"indexed": false,
							"internalType": "address",
							"name": "user",
							"type": "address"
						},
						{
							"indexed": false,
							"internalType": "uint256",
							"name": "credits",
							"type": "uint256"
						}
					],
					"name": "Register",
					"type": "event"
				},
				{
					"inputs": [],
					"name": "ADMIN",
					"outputs": [
						{
							"internalType": "address",
							"name": "",
							"type": "address"
						}
					],
					"stateMutability": "view",
					"type": "function"
				},
				{
					"inputs": [
						{
							"internalType": "address",
							"name": "",
							"type": "address"
						},
						{
							"internalType": "string",
							"name": "",
							"type": "string"
						}
					],
					"name": "clases",
					"outputs": [
						{
							"internalType": "string",
							"name": "name",
							"type": "string"
						},
						{
							"internalType": "uint256",
							"name": "value",
							"type": "uint256"
						}
					],
					"stateMutability": "view",
					"type": "function"
				},
				{
					"inputs": [],
					"name": "class",
					"outputs": [
						{
							"internalType": "string",
							"name": "name",
							"type": "string"
						},
						{
							"internalType": "uint256",
							"name": "value",
							"type": "uint256"
						}
					],
					"stateMutability": "view",
					"type": "function"
				},
				{
					"inputs": [
						{
							"internalType": "string",
							"name": "_name",
							"type": "string"
						},
						{
							"internalType": "uint256",
							"name": "_value",
							"type": "uint256"
						}
					],
					"name": "createClass",
					"outputs": [],
					"stateMutability": "nonpayable",
					"type": "function"
				},
				{
					"inputs": [],
					"name": "getBalance",
					"outputs": [
						{
							"internalType": "address",
							"name": "",
							"type": "address"
						},
						{
							"internalType": "uint256",
							"name": "",
							"type": "uint256"
						}
					],
					"stateMutability": "view",
					"type": "function"
				},
				{
					"inputs": [
						{
							"internalType": "string",
							"name": "_name",
							"type": "string"
						}
					],
					"name": "getClass",
					"outputs": [
						{
							"internalType": "string",
							"name": "",
							"type": "string"
						}
					],
					"stateMutability": "view",
					"type": "function"
				},
				{
					"inputs": [
						{
							"internalType": "address",
							"name": "_address",
							"type": "address"
						},
						{
							"internalType": "uint256",
							"name": "_credits",
							"type": "uint256"
						}
					],
					"name": "register",
					"outputs": [],
					"stateMutability": "nonpayable",
					"type": "function"
				},
				{
					"inputs": [
						{
							"internalType": "address",
							"name": "",
							"type": "address"
						}
					],
					"name": "users",
					"outputs": [
						{
							"internalType": "uint256",
							"name": "",
							"type": "uint256"
						}
					],
					"stateMutability": "view",
					"type": "function"
				}
			],
			"devdoc": {
				"kind": "dev",
				"methods": {},
				"version": 1
			},
			"evm": {
				"assembly": "    /* \"contracts/Gym_Contact.sol\":70:1769  contract gym {\r... */\n  mstore(0x40, 0xa0)\n    /* \"contracts/Gym_Contact.sol\":389:440  constructor() {\r... */\n  callvalue\n  dup1\n  iszero\n  tag_1\n  jumpi\n  0x00\n  dup1\n  revert\ntag_1:\n  pop\n    /* \"contracts/Gym_Contact.sol\":422:432  msg.sender */\n  caller\n    /* \"contracts/Gym_Contact.sol\":414:432  ADMIN = msg.sender */\n  0xffffffffffffffffffffffffffffffffffffffff\n  and\n  0x80\n  dup2\n  0xffffffffffffffffffffffffffffffffffffffff\n  and\n  0x60\n  shl\n  dup2\n  mstore\n  pop\n  pop\n    /* \"contracts/Gym_Contact.sol\":70:1769  contract gym {\r... */\n  shr(0x60, mload(0x80))\n  codecopy(0x00, dataOffset(sub_0), dataSize(sub_0))\n  0x00\n  assignImmutable(\"0x731dc163f73d31d8c68f9917ce4ff967753939f70432973c04fd2c2a48148607\")\n  return(0x00, dataSize(sub_0))\nstop\n\nsub_0: assembly {\n        /* \"contracts/Gym_Contact.sol\":70:1769  contract gym {\r... */\n      mstore(0x40, 0x80)\n      callvalue\n      dup1\n      iszero\n      tag_1\n      jumpi\n      0x00\n      dup1\n      revert\n    tag_1:\n      pop\n      jumpi(tag_2, lt(calldatasize, 0x04))\n      shr(0xe0, calldataload(0x00))\n      dup1\n      0x6d705ebb\n      gt\n      tag_11\n      jumpi\n      dup1\n      0x6d705ebb\n      eq\n      tag_7\n      jumpi\n      dup1\n      0xa87430ba\n      eq\n      tag_8\n      jumpi\n      dup1\n      0xbff852fa\n      eq\n      tag_9\n      jumpi\n      dup1\n      0xe92761b6\n      eq\n      tag_10\n      jumpi\n      jump(tag_2)\n    tag_11:\n      dup1\n      0x035af4ca\n      eq\n      tag_3\n      jumpi\n      dup1\n      0x12065fe0\n      eq\n      tag_4\n      jumpi\n      dup1\n      0x2a0acc6a\n      eq\n      tag_5\n      jumpi\n      dup1\n      0x4852a212\n      eq\n      tag_6\n      jumpi\n    tag_2:\n      0x00\n      dup1\n      revert\n        /* \"contracts/Gym_Contact.sol\":555:612  mapping(address =>mapping(string => Class)) public clases */\n    tag_3:\n      tag_12\n      0x04\n      dup1\n      calldatasize\n      sub\n      dup2\n      add\n      swap1\n      tag_13\n      swap2\n      swap1\n      tag_14\n      jump\t// in\n    tag_13:\n      tag_15\n      jump\t// in\n    tag_12:\n      mload(0x40)\n      tag_16\n      swap3\n      swap2\n      swap1\n      tag_17\n      jump\t// in\n    tag_16:\n      mload(0x40)\n      dup1\n      swap2\n      sub\n      swap1\n      return\n        /* \"contracts/Gym_Contact.sol\":1455:1568  function getBalance() public view returns(address, uint){\r... */\n    tag_4:\n      tag_18\n      tag_19\n      jump\t// in\n    tag_18:\n      mload(0x40)\n      tag_20\n      swap3\n      swap2\n      swap1\n      tag_21\n      jump\t// in\n    tag_20:\n      mload(0x40)\n      dup1\n      swap2\n      sub\n      swap1\n      return\n        /* \"contracts/Gym_Contact.sol\":350:380  address immutable public ADMIN */\n    tag_5:\n      tag_22\n      tag_23\n      jump\t// in\n    tag_22:\n      mload(0x40)\n      tag_24\n      swap2\n      swap1\n      tag_25\n      jump\t// in\n    tag_24:\n      mload(0x40)\n      dup1\n      swap2\n      sub\n      swap1\n      return\n        /* \"contracts/Gym_Contact.sol\":721:1023  function createClass(string memory _name, uint _value) public {\r... */\n    tag_6:\n      tag_26\n      0x04\n      dup1\n      calldatasize\n      sub\n      dup2\n      add\n      swap1\n      tag_27\n      swap2\n      swap1\n      tag_28\n      jump\t// in\n    tag_27:\n      tag_29\n      jump\t// in\n    tag_26:\n      stop\n        /* \"contracts/Gym_Contact.sol\":1061:1447  function register(address _address, uint _credits) public {\r... */\n    tag_7:\n      tag_30\n      0x04\n      dup1\n      calldatasize\n      sub\n      dup2\n      add\n      swap1\n      tag_31\n      swap2\n      swap1\n      tag_32\n      jump\t// in\n    tag_31:\n      tag_33\n      jump\t// in\n    tag_30:\n      stop\n        /* \"contracts/Gym_Contact.sol\":464:501  mapping(address => uint) public users */\n    tag_8:\n      tag_34\n      0x04\n      dup1\n      calldatasize\n      sub\n      dup2\n      add\n      swap1\n      tag_35\n      swap2\n      swap1\n      tag_36\n      jump\t// in\n    tag_35:\n      tag_37\n      jump\t// in\n    tag_34:\n      mload(0x40)\n      tag_38\n      swap2\n      swap1\n      tag_39\n      jump\t// in\n    tag_38:\n      mload(0x40)\n      dup1\n      swap2\n      sub\n      swap1\n      return\n        /* \"contracts/Gym_Contact.sol\":665:683  Class public class */\n    tag_9:\n      tag_40\n      tag_41\n      jump\t// in\n    tag_40:\n      mload(0x40)\n      tag_42\n      swap3\n      swap2\n      swap1\n      tag_17\n      jump\t// in\n    tag_42:\n      mload(0x40)\n      dup1\n      swap2\n      sub\n      swap1\n      return\n        /* \"contracts/Gym_Contact.sol\":1576:1694  function getClass(string memory _name) public view returns(string memory){\r... */\n    tag_10:\n      tag_43\n      0x04\n      dup1\n      calldatasize\n      sub\n      dup2\n      add\n      swap1\n      tag_44\n      swap2\n      swap1\n      tag_45\n      jump\t// in\n    tag_44:\n      tag_46\n      jump\t// in\n    tag_43:\n      mload(0x40)\n      tag_47\n      swap2\n      swap1\n      tag_48\n      jump\t// in\n    tag_47:\n      mload(0x40)\n      dup1\n      swap2\n      sub\n      swap1\n      return\n        /* \"contracts/Gym_Contact.sol\":555:612  mapping(address =>mapping(string => Class)) public clases */\n    tag_15:\n      mstore(0x20, 0x01)\n      dup2\n      0x00\n      mstore\n      keccak256(0x00, 0x40)\n      dup2\n      dup1\n      mload\n      0x20\n      dup2\n      add\n      dup3\n      add\n      dup1\n      mload\n      dup5\n      dup3\n      mstore\n      0x20\n      dup4\n      add\n      0x20\n      dup6\n      add\n      keccak256\n      dup2\n      dup4\n      mstore\n      dup1\n      swap6\n      pop\n      pop\n      pop\n      pop\n      pop\n      pop\n      0x00\n      swap2\n      pop\n      swap2\n      pop\n      pop\n      dup1\n      0x00\n      add\n      dup1\n      sload\n      tag_49\n      swap1\n      tag_50\n      jump\t// in\n    tag_49:\n      dup1\n      0x1f\n      add\n      0x20\n      dup1\n      swap2\n      div\n      mul\n      0x20\n      add\n      mload(0x40)\n      swap1\n      dup2\n      add\n      0x40\n      mstore\n      dup1\n      swap3\n      swap2\n      swap1\n      dup2\n      dup2\n      mstore\n      0x20\n      add\n      dup3\n      dup1\n      sload\n      tag_51\n      swap1\n      tag_50\n      jump\t// in\n    tag_51:\n      dup1\n      iszero\n      tag_52\n      jumpi\n      dup1\n      0x1f\n      lt\n      tag_53\n      jumpi\n      0x0100\n      dup1\n      dup4\n      sload\n      div\n      mul\n      dup4\n      mstore\n      swap2\n      0x20\n      add\n      swap2\n      jump(tag_52)\n    tag_53:\n      dup3\n      add\n      swap2\n      swap1\n      0x00\n      mstore\n      keccak256(0x00, 0x20)\n      swap1\n    tag_54:\n      dup2\n      sload\n      dup2\n      mstore\n      swap1\n      0x01\n      add\n      swap1\n      0x20\n      add\n      dup1\n      dup4\n      gt\n      tag_54\n      jumpi\n      dup3\n      swap1\n      sub\n      0x1f\n      and\n      dup3\n      add\n      swap2\n    tag_52:\n      pop\n      pop\n      pop\n      pop\n      pop\n      swap1\n      dup1\n      0x01\n      add\n      sload\n      swap1\n      pop\n      dup3\n      jump\t// out\n        /* \"contracts/Gym_Contact.sol\":1455:1568  function getBalance() public view returns(address, uint){\r... */\n    tag_19:\n        /* \"contracts/Gym_Contact.sol\":1497:1504  address */\n      0x00\n        /* \"contracts/Gym_Contact.sol\":1506:1510  uint */\n      dup1\n        /* \"contracts/Gym_Contact.sol\":1530:1540  msg.sender */\n      caller\n        /* \"contracts/Gym_Contact.sol\":1542:1547  users */\n      0x00\n        /* \"contracts/Gym_Contact.sol\":1542:1559  users[msg.sender] */\n      dup1\n        /* \"contracts/Gym_Contact.sol\":1548:1558  msg.sender */\n      caller\n        /* \"contracts/Gym_Contact.sol\":1542:1559  users[msg.sender] */\n      0xffffffffffffffffffffffffffffffffffffffff\n      and\n      0xffffffffffffffffffffffffffffffffffffffff\n      and\n      dup2\n      mstore\n      0x20\n      add\n      swap1\n      dup2\n      mstore\n      0x20\n      add\n      0x00\n      keccak256\n      sload\n        /* \"contracts/Gym_Contact.sol\":1522:1560  return (msg.sender, users[msg.sender]) */\n      swap2\n      pop\n      swap2\n      pop\n        /* \"contracts/Gym_Contact.sol\":1455:1568  function getBalance() public view returns(address, uint){\r... */\n      swap1\n      swap2\n      jump\t// out\n        /* \"contracts/Gym_Contact.sol\":350:380  address immutable public ADMIN */\n    tag_23:\n      immutable(\"0x731dc163f73d31d8c68f9917ce4ff967753939f70432973c04fd2c2a48148607\")\n      dup2\n      jump\t// out\n        /* \"contracts/Gym_Contact.sol\":721:1023  function createClass(string memory _name, uint _value) public {\r... */\n    tag_29:\n        /* \"contracts/Gym_Contact.sol\":811:821  msg.sender */\n      caller\n        /* \"contracts/Gym_Contact.sol\":802:821  ADMIN == msg.sender */\n      0xffffffffffffffffffffffffffffffffffffffff\n      and\n        /* \"contracts/Gym_Contact.sol\":802:807  ADMIN */\n      immutable(\"0x731dc163f73d31d8c68f9917ce4ff967753939f70432973c04fd2c2a48148607\")\n        /* \"contracts/Gym_Contact.sol\":802:821  ADMIN == msg.sender */\n      0xffffffffffffffffffffffffffffffffffffffff\n      and\n      eq\n        /* \"contracts/Gym_Contact.sol\":794:874  require(ADMIN == msg.sender, \"Solo el Administrador del Gym puede crear clases\") */\n      tag_57\n      jumpi\n      mload(0x40)\n      0x08c379a000000000000000000000000000000000000000000000000000000000\n      dup2\n      mstore\n      0x04\n      add\n      tag_58\n      swap1\n      tag_59\n      jump\t// in\n    tag_58:\n      mload(0x40)\n      dup1\n      swap2\n      sub\n      swap1\n      revert\n    tag_57:\n        /* \"contracts/Gym_Contact.sol\":913:933  Class(_name, _value) */\n      mload(0x40)\n      dup1\n      0x40\n      add\n      0x40\n      mstore\n      dup1\n        /* \"contracts/Gym_Contact.sol\":919:924  _name */\n      dup4\n        /* \"contracts/Gym_Contact.sol\":913:933  Class(_name, _value) */\n      dup2\n      mstore\n      0x20\n      add\n        /* \"contracts/Gym_Contact.sol\":926:932  _value */\n      dup3\n        /* \"contracts/Gym_Contact.sol\":913:933  Class(_name, _value) */\n      dup2\n      mstore\n      pop\n        /* \"contracts/Gym_Contact.sol\":885:891  clases */\n      0x01\n        /* \"contracts/Gym_Contact.sol\":885:903  clases[msg.sender] */\n      0x00\n        /* \"contracts/Gym_Contact.sol\":892:902  msg.sender */\n      caller\n        /* \"contracts/Gym_Contact.sol\":885:903  clases[msg.sender] */\n      0xffffffffffffffffffffffffffffffffffffffff\n      and\n      0xffffffffffffffffffffffffffffffffffffffff\n      and\n      dup2\n      mstore\n      0x20\n      add\n      swap1\n      dup2\n      mstore\n      0x20\n      add\n      0x00\n      keccak256\n        /* \"contracts/Gym_Contact.sol\":904:909  _name */\n      dup4\n        /* \"contracts/Gym_Contact.sol\":885:910  clases[msg.sender][_name] */\n      mload(0x40)\n      tag_60\n      swap2\n      swap1\n      tag_61\n      jump\t// in\n    tag_60:\n      swap1\n      dup2\n      mstore\n      0x20\n      add\n      mload(0x40)\n      dup1\n      swap2\n      sub\n      swap1\n      keccak256\n        /* \"contracts/Gym_Contact.sol\":885:933  clases[msg.sender][_name] = Class(_name, _value) */\n      0x00\n      dup3\n      add\n      mload\n      dup2\n      0x00\n      add\n      swap1\n      dup1\n      mload\n      swap1\n      0x20\n      add\n      swap1\n      tag_62\n      swap3\n      swap2\n      swap1\n      tag_63\n      jump\t// in\n    tag_62:\n      pop\n      0x20\n      dup3\n      add\n      mload\n      dup2\n      0x01\n      add\n      sstore\n      swap1\n      pop\n      pop\n        /* \"contracts/Gym_Contact.sol\":949:976  ClassCreated(_name, _value) */\n      0x14d49e3ea4f348b7f368906dfe1a63055c7822d622a61672a35a55ae97a768f9\n        /* \"contracts/Gym_Contact.sol\":962:967  _name */\n      dup3\n        /* \"contracts/Gym_Contact.sol\":969:975  _value */\n      dup3\n        /* \"contracts/Gym_Contact.sol\":949:976  ClassCreated(_name, _value) */\n      mload(0x40)\n      tag_64\n      swap3\n      swap2\n      swap1\n      tag_17\n      jump\t// in\n    tag_64:\n      mload(0x40)\n      dup1\n      swap2\n      sub\n      swap1\n      log1\n        /* \"contracts/Gym_Contact.sol\":721:1023  function createClass(string memory _name, uint _value) public {\r... */\n      pop\n      pop\n      jump\t// out\n        /* \"contracts/Gym_Contact.sol\":1061:1447  function register(address _address, uint _credits) public {\r... */\n    tag_33:\n        /* \"contracts/Gym_Contact.sol\":1262:1263  0 */\n      0x00\n        /* \"contracts/Gym_Contact.sol\":1241:1246  users */\n      dup1\n        /* \"contracts/Gym_Contact.sol\":1241:1258  users[msg.sender] */\n      0x00\n        /* \"contracts/Gym_Contact.sol\":1247:1257  msg.sender */\n      caller\n        /* \"contracts/Gym_Contact.sol\":1241:1258  users[msg.sender] */\n      0xffffffffffffffffffffffffffffffffffffffff\n      and\n      0xffffffffffffffffffffffffffffffffffffffff\n      and\n      dup2\n      mstore\n      0x20\n      add\n      swap1\n      dup2\n      mstore\n      0x20\n      add\n      0x00\n      keccak256\n      sload\n        /* \"contracts/Gym_Contact.sol\":1241:1263  users[msg.sender] == 0 */\n      eq\n        /* \"contracts/Gym_Contact.sol\":1233:1305  require(users[msg.sender] == 0, \"Ya te encuentras registrado en el gym\") */\n      tag_66\n      jumpi\n      mload(0x40)\n      0x08c379a000000000000000000000000000000000000000000000000000000000\n      dup2\n      mstore\n      0x04\n      add\n      tag_67\n      swap1\n      tag_68\n      jump\t// in\n    tag_67:\n      mload(0x40)\n      dup1\n      swap2\n      sub\n      swap1\n      revert\n    tag_66:\n        /* \"contracts/Gym_Contact.sol\":1336:1344  _credits */\n      dup1\n        /* \"contracts/Gym_Contact.sol\":1316:1321  users */\n      0x00\n        /* \"contracts/Gym_Contact.sol\":1316:1333  users[msg.sender] */\n      dup1\n        /* \"contracts/Gym_Contact.sol\":1322:1332  msg.sender */\n      caller\n        /* \"contracts/Gym_Contact.sol\":1316:1333  users[msg.sender] */\n      0xffffffffffffffffffffffffffffffffffffffff\n      and\n      0xffffffffffffffffffffffffffffffffffffffff\n      and\n      dup2\n      mstore\n      0x20\n      add\n      swap1\n      dup2\n      mstore\n      0x20\n      add\n      0x00\n      keccak256\n        /* \"contracts/Gym_Contact.sol\":1316:1344  users[msg.sender] = _credits */\n      dup2\n      swap1\n      sstore\n      pop\n        /* \"contracts/Gym_Contact.sol\":1360:1388  Register(_address, _credits) */\n      0x7dc6ab80cc84c043b7b8d4fcafc802187470087f7ea7fccd2e17aecd0256a1\n        /* \"contracts/Gym_Contact.sol\":1369:1377  _address */\n      dup3\n        /* \"contracts/Gym_Contact.sol\":1379:1387  _credits */\n      dup3\n        /* \"contracts/Gym_Contact.sol\":1360:1388  Register(_address, _credits) */\n      mload(0x40)\n      tag_69\n      swap3\n      swap2\n      swap1\n      tag_21\n      jump\t// in\n    tag_69:\n      mload(0x40)\n      dup1\n      swap2\n      sub\n      swap1\n      log1\n        /* \"contracts/Gym_Contact.sol\":1061:1447  function register(address _address, uint _credits) public {\r... */\n      pop\n      pop\n      jump\t// out\n        /* \"contracts/Gym_Contact.sol\":464:501  mapping(address => uint) public users */\n    tag_37:\n      mstore(0x20, 0x00)\n      dup1\n      0x00\n      mstore\n      keccak256(0x00, 0x40)\n      0x00\n      swap2\n      pop\n      swap1\n      pop\n      sload\n      dup2\n      jump\t// out\n        /* \"contracts/Gym_Contact.sol\":665:683  Class public class */\n    tag_41:\n      0x02\n      dup1\n      0x00\n      add\n      dup1\n      sload\n      tag_70\n      swap1\n      tag_50\n      jump\t// in\n    tag_70:\n      dup1\n      0x1f\n      add\n      0x20\n      dup1\n      swap2\n      div\n      mul\n      0x20\n      add\n      mload(0x40)\n      swap1\n      dup2\n      add\n      0x40\n      mstore\n      dup1\n      swap3\n      swap2\n      swap1\n      dup2\n      dup2\n      mstore\n      0x20\n      add\n      dup3\n      dup1\n      sload\n      tag_71\n      swap1\n      tag_50\n      jump\t// in\n    tag_71:\n      dup1\n      iszero\n      tag_72\n      jumpi\n      dup1\n      0x1f\n      lt\n      tag_73\n      jumpi\n      0x0100\n      dup1\n      dup4\n      sload\n      div\n      mul\n      dup4\n      mstore\n      swap2\n      0x20\n      add\n      swap2\n      jump(tag_72)\n    tag_73:\n      dup3\n      add\n      swap2\n      swap1\n      0x00\n      mstore\n      keccak256(0x00, 0x20)\n      swap1\n    tag_74:\n      dup2\n      sload\n      dup2\n      mstore\n      swap1\n      0x01\n      add\n      swap1\n      0x20\n      add\n      dup1\n      dup4\n      gt\n      tag_74\n      jumpi\n      dup3\n      swap1\n      sub\n      0x1f\n      and\n      dup3\n      add\n      swap2\n    tag_72:\n      pop\n      pop\n      pop\n      pop\n      pop\n      swap1\n      dup1\n      0x01\n      add\n      sload\n      swap1\n      pop\n      dup3\n      jump\t// out\n        /* \"contracts/Gym_Contact.sol\":1576:1694  function getClass(string memory _name) public view returns(string memory){\r... */\n    tag_46:\n        /* \"contracts/Gym_Contact.sol\":1635:1648  string memory */\n      0x60\n        /* \"contracts/Gym_Contact.sol\":1661:1667  clases */\n      0x01\n        /* \"contracts/Gym_Contact.sol\":1661:1679  clases[msg.sender] */\n      0x00\n        /* \"contracts/Gym_Contact.sol\":1668:1678  msg.sender */\n      caller\n        /* \"contracts/Gym_Contact.sol\":1661:1679  clases[msg.sender] */\n      0xffffffffffffffffffffffffffffffffffffffff\n      and\n      0xffffffffffffffffffffffffffffffffffffffff\n      and\n      dup2\n      mstore\n      0x20\n      add\n      swap1\n      dup2\n      mstore\n      0x20\n      add\n      0x00\n      keccak256\n        /* \"contracts/Gym_Contact.sol\":1680:1685  _name */\n      dup3\n        /* \"contracts/Gym_Contact.sol\":1661:1686  clases[msg.sender][_name] */\n      mload(0x40)\n      tag_76\n      swap2\n      swap1\n      tag_61\n      jump\t// in\n    tag_76:\n      swap1\n      dup2\n      mstore\n      0x20\n      add\n      mload(0x40)\n      dup1\n      swap2\n      sub\n      swap1\n      keccak256\n      pop\n        /* \"contracts/Gym_Contact.sol\":1576:1694  function getClass(string memory _name) public view returns(string memory){\r... */\n      swap2\n      swap1\n      pop\n      jump\t// out\n    tag_63:\n      dup3\n      dup1\n      sload\n      tag_77\n      swap1\n      tag_50\n      jump\t// in\n    tag_77:\n      swap1\n      0x00\n      mstore\n      keccak256(0x00, 0x20)\n      swap1\n      0x1f\n      add\n      0x20\n      swap1\n      div\n      dup2\n      add\n      swap3\n      dup3\n      tag_79\n      jumpi\n      0x00\n      dup6\n      sstore\n      jump(tag_78)\n    tag_79:\n      dup3\n      0x1f\n      lt\n      tag_80\n      jumpi\n      dup1\n      mload\n      not(0xff)\n      and\n      dup4\n      dup1\n      add\n      or\n      dup6\n      sstore\n      jump(tag_78)\n    tag_80:\n      dup3\n      dup1\n      add\n      0x01\n      add\n      dup6\n      sstore\n      dup3\n      iszero\n      tag_78\n      jumpi\n      swap2\n      dup3\n      add\n    tag_81:\n      dup3\n      dup2\n      gt\n      iszero\n      tag_82\n      jumpi\n      dup3\n      mload\n      dup3\n      sstore\n      swap2\n      0x20\n      add\n      swap2\n      swap1\n      0x01\n      add\n      swap1\n      jump(tag_81)\n    tag_82:\n    tag_78:\n      pop\n      swap1\n      pop\n      tag_83\n      swap2\n      swap1\n      tag_84\n      jump\t// in\n    tag_83:\n      pop\n      swap1\n      jump\t// out\n    tag_84:\n    tag_85:\n      dup1\n      dup3\n      gt\n      iszero\n      tag_86\n      jumpi\n      0x00\n      dup2\n      0x00\n      swap1\n      sstore\n      pop\n      0x01\n      add\n      jump(tag_85)\n    tag_86:\n      pop\n      swap1\n      jump\t// out\n        /* \"#utility.yul\":7:419   */\n    tag_88:\n        /* \"#utility.yul\":85:90   */\n      0x00\n        /* \"#utility.yul\":110:176   */\n      tag_90\n        /* \"#utility.yul\":126:175   */\n      tag_91\n        /* \"#utility.yul\":168:174   */\n      dup5\n        /* \"#utility.yul\":126:175   */\n      tag_92\n      jump\t// in\n    tag_91:\n        /* \"#utility.yul\":110:176   */\n      tag_93\n      jump\t// in\n    tag_90:\n        /* \"#utility.yul\":101:176   */\n      swap1\n      pop\n        /* \"#utility.yul\":199:205   */\n      dup3\n        /* \"#utility.yul\":192:197   */\n      dup2\n        /* \"#utility.yul\":185:206   */\n      mstore\n        /* \"#utility.yul\":237:241   */\n      0x20\n        /* \"#utility.yul\":230:235   */\n      dup2\n        /* \"#utility.yul\":226:242   */\n      add\n        /* \"#utility.yul\":275:278   */\n      dup5\n        /* \"#utility.yul\":266:272   */\n      dup5\n        /* \"#utility.yul\":261:264   */\n      dup5\n        /* \"#utility.yul\":257:273   */\n      add\n        /* \"#utility.yul\":254:279   */\n      gt\n        /* \"#utility.yul\":251:363   */\n      iszero\n      tag_94\n      jumpi\n        /* \"#utility.yul\":282:361   */\n      tag_95\n      tag_96\n      jump\t// in\n    tag_95:\n        /* \"#utility.yul\":251:363   */\n    tag_94:\n        /* \"#utility.yul\":372:413   */\n      tag_97\n        /* \"#utility.yul\":406:412   */\n      dup5\n        /* \"#utility.yul\":401:404   */\n      dup3\n        /* \"#utility.yul\":396:399   */\n      dup6\n        /* \"#utility.yul\":372:413   */\n      tag_98\n      jump\t// in\n    tag_97:\n        /* \"#utility.yul\":91:419   */\n      pop\n        /* \"#utility.yul\":7:419   */\n      swap4\n      swap3\n      pop\n      pop\n      pop\n      jump\t// out\n        /* \"#utility.yul\":425:564   */\n    tag_99:\n        /* \"#utility.yul\":471:476   */\n      0x00\n        /* \"#utility.yul\":509:515   */\n      dup2\n        /* \"#utility.yul\":496:516   */\n      calldataload\n        /* \"#utility.yul\":487:516   */\n      swap1\n      pop\n        /* \"#utility.yul\":525:558   */\n      tag_101\n        /* \"#utility.yul\":552:557   */\n      dup2\n        /* \"#utility.yul\":525:558   */\n      tag_102\n      jump\t// in\n    tag_101:\n        /* \"#utility.yul\":425:564   */\n      swap3\n      swap2\n      pop\n      pop\n      jump\t// out\n        /* \"#utility.yul\":584:924   */\n    tag_103:\n        /* \"#utility.yul\":640:645   */\n      0x00\n        /* \"#utility.yul\":689:692   */\n      dup3\n        /* \"#utility.yul\":682:686   */\n      0x1f\n        /* \"#utility.yul\":674:680   */\n      dup4\n        /* \"#utility.yul\":670:687   */\n      add\n        /* \"#utility.yul\":666:693   */\n      slt\n        /* \"#utility.yul\":656:778   */\n      tag_105\n      jumpi\n        /* \"#utility.yul\":697:776   */\n      tag_106\n      tag_107\n      jump\t// in\n    tag_106:\n        /* \"#utility.yul\":656:778   */\n    tag_105:\n        /* \"#utility.yul\":814:820   */\n      dup2\n        /* \"#utility.yul\":801:821   */\n      calldataload\n        /* \"#utility.yul\":839:918   */\n      tag_108\n        /* \"#utility.yul\":914:917   */\n      dup5\n        /* \"#utility.yul\":906:912   */\n      dup3\n        /* \"#utility.yul\":899:903   */\n      0x20\n        /* \"#utility.yul\":891:897   */\n      dup7\n        /* \"#utility.yul\":887:904   */\n      add\n        /* \"#utility.yul\":839:918   */\n      tag_88\n      jump\t// in\n    tag_108:\n        /* \"#utility.yul\":830:918   */\n      swap2\n      pop\n        /* \"#utility.yul\":646:924   */\n      pop\n        /* \"#utility.yul\":584:924   */\n      swap3\n      swap2\n      pop\n      pop\n      jump\t// out\n        /* \"#utility.yul\":930:1069   */\n    tag_109:\n        /* \"#utility.yul\":976:981   */\n      0x00\n        /* \"#utility.yul\":1014:1020   */\n      dup2\n        /* \"#utility.yul\":1001:1021   */\n      calldataload\n        /* \"#utility.yul\":992:1021   */\n      swap1\n      pop\n        /* \"#utility.yul\":1030:1063   */\n      tag_111\n        /* \"#utility.yul\":1057:1062   */\n      dup2\n        /* \"#utility.yul\":1030:1063   */\n      tag_112\n      jump\t// in\n    tag_111:\n        /* \"#utility.yul\":930:1069   */\n      swap3\n      swap2\n      pop\n      pop\n      jump\t// out\n        /* \"#utility.yul\":1075:1404   */\n    tag_36:\n        /* \"#utility.yul\":1134:1140   */\n      0x00\n        /* \"#utility.yul\":1183:1185   */\n      0x20\n        /* \"#utility.yul\":1171:1180   */\n      dup3\n        /* \"#utility.yul\":1162:1169   */\n      dup5\n        /* \"#utility.yul\":1158:1181   */\n      sub\n        /* \"#utility.yul\":1154:1186   */\n      slt\n        /* \"#utility.yul\":1151:1270   */\n      iszero\n      tag_114\n      jumpi\n        /* \"#utility.yul\":1189:1268   */\n      tag_115\n      tag_116\n      jump\t// in\n    tag_115:\n        /* \"#utility.yul\":1151:1270   */\n    tag_114:\n        /* \"#utility.yul\":1309:1310   */\n      0x00\n        /* \"#utility.yul\":1334:1387   */\n      tag_117\n        /* \"#utility.yul\":1379:1386   */\n      dup5\n        /* \"#utility.yul\":1370:1376   */\n      dup3\n        /* \"#utility.yul\":1359:1368   */\n      dup6\n        /* \"#utility.yul\":1355:1377   */\n      add\n        /* \"#utility.yul\":1334:1387   */\n      tag_99\n      jump\t// in\n    tag_117:\n        /* \"#utility.yul\":1324:1387   */\n      swap2\n      pop\n        /* \"#utility.yul\":1280:1397   */\n      pop\n        /* \"#utility.yul\":1075:1404   */\n      swap3\n      swap2\n      pop\n      pop\n      jump\t// out\n        /* \"#utility.yul\":1410:2064   */\n    tag_14:\n        /* \"#utility.yul\":1488:1494   */\n      0x00\n        /* \"#utility.yul\":1496:1502   */\n      dup1\n        /* \"#utility.yul\":1545:1547   */\n      0x40\n        /* \"#utility.yul\":1533:1542   */\n      dup4\n        /* \"#utility.yul\":1524:1531   */\n      dup6\n        /* \"#utility.yul\":1520:1543   */\n      sub\n        /* \"#utility.yul\":1516:1548   */\n      slt\n        /* \"#utility.yul\":1513:1632   */\n      iszero\n      tag_119\n      jumpi\n        /* \"#utility.yul\":1551:1630   */\n      tag_120\n      tag_116\n      jump\t// in\n    tag_120:\n        /* \"#utility.yul\":1513:1632   */\n    tag_119:\n        /* \"#utility.yul\":1671:1672   */\n      0x00\n        /* \"#utility.yul\":1696:1749   */\n      tag_121\n        /* \"#utility.yul\":1741:1748   */\n      dup6\n        /* \"#utility.yul\":1732:1738   */\n      dup3\n        /* \"#utility.yul\":1721:1730   */\n      dup7\n        /* \"#utility.yul\":1717:1739   */\n      add\n        /* \"#utility.yul\":1696:1749   */\n      tag_99\n      jump\t// in\n    tag_121:\n        /* \"#utility.yul\":1686:1749   */\n      swap3\n      pop\n        /* \"#utility.yul\":1642:1759   */\n      pop\n        /* \"#utility.yul\":1826:1828   */\n      0x20\n        /* \"#utility.yul\":1815:1824   */\n      dup4\n        /* \"#utility.yul\":1811:1829   */\n      add\n        /* \"#utility.yul\":1798:1830   */\n      calldataload\n        /* \"#utility.yul\":1857:1875   */\n      0xffffffffffffffff\n        /* \"#utility.yul\":1849:1855   */\n      dup2\n        /* \"#utility.yul\":1846:1876   */\n      gt\n        /* \"#utility.yul\":1843:1960   */\n      iszero\n      tag_122\n      jumpi\n        /* \"#utility.yul\":1879:1958   */\n      tag_123\n      tag_124\n      jump\t// in\n    tag_123:\n        /* \"#utility.yul\":1843:1960   */\n    tag_122:\n        /* \"#utility.yul\":1984:2047   */\n      tag_125\n        /* \"#utility.yul\":2039:2046   */\n      dup6\n        /* \"#utility.yul\":2030:2036   */\n      dup3\n        /* \"#utility.yul\":2019:2028   */\n      dup7\n        /* \"#utility.yul\":2015:2037   */\n      add\n        /* \"#utility.yul\":1984:2047   */\n      tag_103\n      jump\t// in\n    tag_125:\n        /* \"#utility.yul\":1974:2047   */\n      swap2\n      pop\n        /* \"#utility.yul\":1769:2057   */\n      pop\n        /* \"#utility.yul\":1410:2064   */\n      swap3\n      pop\n      swap3\n      swap1\n      pop\n      jump\t// out\n        /* \"#utility.yul\":2070:2544   */\n    tag_32:\n        /* \"#utility.yul\":2138:2144   */\n      0x00\n        /* \"#utility.yul\":2146:2152   */\n      dup1\n        /* \"#utility.yul\":2195:2197   */\n      0x40\n        /* \"#utility.yul\":2183:2192   */\n      dup4\n        /* \"#utility.yul\":2174:2181   */\n      dup6\n        /* \"#utility.yul\":2170:2193   */\n      sub\n        /* \"#utility.yul\":2166:2198   */\n      slt\n        /* \"#utility.yul\":2163:2282   */\n      iszero\n      tag_127\n      jumpi\n        /* \"#utility.yul\":2201:2280   */\n      tag_128\n      tag_116\n      jump\t// in\n    tag_128:\n        /* \"#utility.yul\":2163:2282   */\n    tag_127:\n        /* \"#utility.yul\":2321:2322   */\n      0x00\n        /* \"#utility.yul\":2346:2399   */\n      tag_129\n        /* \"#utility.yul\":2391:2398   */\n      dup6\n        /* \"#utility.yul\":2382:2388   */\n      dup3\n        /* \"#utility.yul\":2371:2380   */\n      dup7\n        /* \"#utility.yul\":2367:2389   */\n      add\n        /* \"#utility.yul\":2346:2399   */\n      tag_99\n      jump\t// in\n    tag_129:\n        /* \"#utility.yul\":2336:2399   */\n      swap3\n      pop\n        /* \"#utility.yul\":2292:2409   */\n      pop\n        /* \"#utility.yul\":2448:2450   */\n      0x20\n        /* \"#utility.yul\":2474:2527   */\n      tag_130\n        /* \"#utility.yul\":2519:2526   */\n      dup6\n        /* \"#utility.yul\":2510:2516   */\n      dup3\n        /* \"#utility.yul\":2499:2508   */\n      dup7\n        /* \"#utility.yul\":2495:2517   */\n      add\n        /* \"#utility.yul\":2474:2527   */\n      tag_109\n      jump\t// in\n    tag_130:\n        /* \"#utility.yul\":2464:2527   */\n      swap2\n      pop\n        /* \"#utility.yul\":2419:2537   */\n      pop\n        /* \"#utility.yul\":2070:2544   */\n      swap3\n      pop\n      swap3\n      swap1\n      pop\n      jump\t// out\n        /* \"#utility.yul\":2550:3059   */\n    tag_45:\n        /* \"#utility.yul\":2619:2625   */\n      0x00\n        /* \"#utility.yul\":2668:2670   */\n      0x20\n        /* \"#utility.yul\":2656:2665   */\n      dup3\n        /* \"#utility.yul\":2647:2654   */\n      dup5\n        /* \"#utility.yul\":2643:2666   */\n      sub\n        /* \"#utility.yul\":2639:2671   */\n      slt\n        /* \"#utility.yul\":2636:2755   */\n      iszero\n      tag_132\n      jumpi\n        /* \"#utility.yul\":2674:2753   */\n      tag_133\n      tag_116\n      jump\t// in\n    tag_133:\n        /* \"#utility.yul\":2636:2755   */\n    tag_132:\n        /* \"#utility.yul\":2822:2823   */\n      0x00\n        /* \"#utility.yul\":2811:2820   */\n      dup3\n        /* \"#utility.yul\":2807:2824   */\n      add\n        /* \"#utility.yul\":2794:2825   */\n      calldataload\n        /* \"#utility.yul\":2852:2870   */\n      0xffffffffffffffff\n        /* \"#utility.yul\":2844:2850   */\n      dup2\n        /* \"#utility.yul\":2841:2871   */\n      gt\n        /* \"#utility.yul\":2838:2955   */\n      iszero\n      tag_134\n      jumpi\n        /* \"#utility.yul\":2874:2953   */\n      tag_135\n      tag_124\n      jump\t// in\n    tag_135:\n        /* \"#utility.yul\":2838:2955   */\n    tag_134:\n        /* \"#utility.yul\":2979:3042   */\n      tag_136\n        /* \"#utility.yul\":3034:3041   */\n      dup5\n        /* \"#utility.yul\":3025:3031   */\n      dup3\n        /* \"#utility.yul\":3014:3023   */\n      dup6\n        /* \"#utility.yul\":3010:3032   */\n      add\n        /* \"#utility.yul\":2979:3042   */\n      tag_103\n      jump\t// in\n    tag_136:\n        /* \"#utility.yul\":2969:3042   */\n      swap2\n      pop\n        /* \"#utility.yul\":2765:3052   */\n      pop\n        /* \"#utility.yul\":2550:3059   */\n      swap3\n      swap2\n      pop\n      pop\n      jump\t// out\n        /* \"#utility.yul\":3065:3719   */\n    tag_28:\n        /* \"#utility.yul\":3143:3149   */\n      0x00\n        /* \"#utility.yul\":3151:3157   */\n      dup1\n        /* \"#utility.yul\":3200:3202   */\n      0x40\n        /* \"#utility.yul\":3188:3197   */\n      dup4\n        /* \"#utility.yul\":3179:3186   */\n      dup6\n        /* \"#utility.yul\":3175:3198   */\n      sub\n        /* \"#utility.yul\":3171:3203   */\n      slt\n        /* \"#utility.yul\":3168:3287   */\n      iszero\n      tag_138\n      jumpi\n        /* \"#utility.yul\":3206:3285   */\n      tag_139\n      tag_116\n      jump\t// in\n    tag_139:\n        /* \"#utility.yul\":3168:3287   */\n    tag_138:\n        /* \"#utility.yul\":3354:3355   */\n      0x00\n        /* \"#utility.yul\":3343:3352   */\n      dup4\n        /* \"#utility.yul\":3339:3356   */\n      add\n        /* \"#utility.yul\":3326:3357   */\n      calldataload\n        /* \"#utility.yul\":3384:3402   */\n      0xffffffffffffffff\n        /* \"#utility.yul\":3376:3382   */\n      dup2\n        /* \"#utility.yul\":3373:3403   */\n      gt\n        /* \"#utility.yul\":3370:3487   */\n      iszero\n      tag_140\n      jumpi\n        /* \"#utility.yul\":3406:3485   */\n      tag_141\n      tag_124\n      jump\t// in\n    tag_141:\n        /* \"#utility.yul\":3370:3487   */\n    tag_140:\n        /* \"#utility.yul\":3511:3574   */\n      tag_142\n        /* \"#utility.yul\":3566:3573   */\n      dup6\n        /* \"#utility.yul\":3557:3563   */\n      dup3\n        /* \"#utility.yul\":3546:3555   */\n      dup7\n        /* \"#utility.yul\":3542:3564   */\n      add\n        /* \"#utility.yul\":3511:3574   */\n      tag_103\n      jump\t// in\n    tag_142:\n        /* \"#utility.yul\":3501:3574   */\n      swap3\n      pop\n        /* \"#utility.yul\":3297:3584   */\n      pop\n        /* \"#utility.yul\":3623:3625   */\n      0x20\n        /* \"#utility.yul\":3649:3702   */\n      tag_143\n        /* \"#utility.yul\":3694:3701   */\n      dup6\n        /* \"#utility.yul\":3685:3691   */\n      dup3\n        /* \"#utility.yul\":3674:3683   */\n      dup7\n        /* \"#utility.yul\":3670:3692   */\n      add\n        /* \"#utility.yul\":3649:3702   */\n      tag_109\n      jump\t// in\n    tag_143:\n        /* \"#utility.yul\":3639:3702   */\n      swap2\n      pop\n        /* \"#utility.yul\":3594:3712   */\n      pop\n        /* \"#utility.yul\":3065:3719   */\n      swap3\n      pop\n      swap3\n      swap1\n      pop\n      jump\t// out\n        /* \"#utility.yul\":3725:3843   */\n    tag_144:\n        /* \"#utility.yul\":3812:3836   */\n      tag_146\n        /* \"#utility.yul\":3830:3835   */\n      dup2\n        /* \"#utility.yul\":3812:3836   */\n      tag_147\n      jump\t// in\n    tag_146:\n        /* \"#utility.yul\":3807:3810   */\n      dup3\n        /* \"#utility.yul\":3800:3837   */\n      mstore\n        /* \"#utility.yul\":3725:3843   */\n      pop\n      pop\n      jump\t// out\n        /* \"#utility.yul\":3849:4213   */\n    tag_148:\n        /* \"#utility.yul\":3937:3940   */\n      0x00\n        /* \"#utility.yul\":3965:4004   */\n      tag_150\n        /* \"#utility.yul\":3998:4003   */\n      dup3\n        /* \"#utility.yul\":3965:4004   */\n      tag_151\n      jump\t// in\n    tag_150:\n        /* \"#utility.yul\":4020:4091   */\n      tag_152\n        /* \"#utility.yul\":4084:4090   */\n      dup2\n        /* \"#utility.yul\":4079:4082   */\n      dup6\n        /* \"#utility.yul\":4020:4091   */\n      tag_153\n      jump\t// in\n    tag_152:\n        /* \"#utility.yul\":4013:4091   */\n      swap4\n      pop\n        /* \"#utility.yul\":4100:4152   */\n      tag_154\n        /* \"#utility.yul\":4145:4151   */\n      dup2\n        /* \"#utility.yul\":4140:4143   */\n      dup6\n        /* \"#utility.yul\":4133:4137   */\n      0x20\n        /* \"#utility.yul\":4126:4131   */\n      dup7\n        /* \"#utility.yul\":4122:4138   */\n      add\n        /* \"#utility.yul\":4100:4152   */\n      tag_155\n      jump\t// in\n    tag_154:\n        /* \"#utility.yul\":4177:4206   */\n      tag_156\n        /* \"#utility.yul\":4199:4205   */\n      dup2\n        /* \"#utility.yul\":4177:4206   */\n      tag_157\n      jump\t// in\n    tag_156:\n        /* \"#utility.yul\":4172:4175   */\n      dup5\n        /* \"#utility.yul\":4168:4207   */\n      add\n        /* \"#utility.yul\":4161:4207   */\n      swap2\n      pop\n        /* \"#utility.yul\":3941:4213   */\n      pop\n        /* \"#utility.yul\":3849:4213   */\n      swap3\n      swap2\n      pop\n      pop\n      jump\t// out\n        /* \"#utility.yul\":4219:4596   */\n    tag_158:\n        /* \"#utility.yul\":4325:4328   */\n      0x00\n        /* \"#utility.yul\":4353:4392   */\n      tag_160\n        /* \"#utility.yul\":4386:4391   */\n      dup3\n        /* \"#utility.yul\":4353:4392   */\n      tag_151\n      jump\t// in\n    tag_160:\n        /* \"#utility.yul\":4408:4497   */\n      tag_161\n        /* \"#utility.yul\":4490:4496   */\n      dup2\n        /* \"#utility.yul\":4485:4488   */\n      dup6\n        /* \"#utility.yul\":4408:4497   */\n      tag_162\n      jump\t// in\n    tag_161:\n        /* \"#utility.yul\":4401:4497   */\n      swap4\n      pop\n        /* \"#utility.yul\":4506:4558   */\n      tag_163\n        /* \"#utility.yul\":4551:4557   */\n      dup2\n        /* \"#utility.yul\":4546:4549   */\n      dup6\n        /* \"#utility.yul\":4539:4543   */\n      0x20\n        /* \"#utility.yul\":4532:4537   */\n      dup7\n        /* \"#utility.yul\":4528:4544   */\n      add\n        /* \"#utility.yul\":4506:4558   */\n      tag_155\n      jump\t// in\n    tag_163:\n        /* \"#utility.yul\":4583:4589   */\n      dup1\n        /* \"#utility.yul\":4578:4581   */\n      dup5\n        /* \"#utility.yul\":4574:4590   */\n      add\n        /* \"#utility.yul\":4567:4590   */\n      swap2\n      pop\n        /* \"#utility.yul\":4329:4596   */\n      pop\n        /* \"#utility.yul\":4219:4596   */\n      swap3\n      swap2\n      pop\n      pop\n      jump\t// out\n        /* \"#utility.yul\":4602:4968   */\n    tag_164:\n        /* \"#utility.yul\":4744:4747   */\n      0x00\n        /* \"#utility.yul\":4765:4832   */\n      tag_166\n        /* \"#utility.yul\":4829:4831   */\n      0x25\n        /* \"#utility.yul\":4824:4827   */\n      dup4\n        /* \"#utility.yul\":4765:4832   */\n      tag_153\n      jump\t// in\n    tag_166:\n        /* \"#utility.yul\":4758:4832   */\n      swap2\n      pop\n        /* \"#utility.yul\":4841:4934   */\n      tag_167\n        /* \"#utility.yul\":4930:4933   */\n      dup3\n        /* \"#utility.yul\":4841:4934   */\n      tag_168\n      jump\t// in\n    tag_167:\n        /* \"#utility.yul\":4959:4961   */\n      0x40\n        /* \"#utility.yul\":4954:4957   */\n      dup3\n        /* \"#utility.yul\":4950:4962   */\n      add\n        /* \"#utility.yul\":4943:4962   */\n      swap1\n      pop\n        /* \"#utility.yul\":4602:4968   */\n      swap2\n      swap1\n      pop\n      jump\t// out\n        /* \"#utility.yul\":4974:5340   */\n    tag_169:\n        /* \"#utility.yul\":5116:5119   */\n      0x00\n        /* \"#utility.yul\":5137:5204   */\n      tag_171\n        /* \"#utility.yul\":5201:5203   */\n      0x30\n        /* \"#utility.yul\":5196:5199   */\n      dup4\n        /* \"#utility.yul\":5137:5204   */\n      tag_153\n      jump\t// in\n    tag_171:\n        /* \"#utility.yul\":5130:5204   */\n      swap2\n      pop\n        /* \"#utility.yul\":5213:5306   */\n      tag_172\n        /* \"#utility.yul\":5302:5305   */\n      dup3\n        /* \"#utility.yul\":5213:5306   */\n      tag_173\n      jump\t// in\n    tag_172:\n        /* \"#utility.yul\":5331:5333   */\n      0x40\n        /* \"#utility.yul\":5326:5329   */\n      dup3\n        /* \"#utility.yul\":5322:5334   */\n      add\n        /* \"#utility.yul\":5315:5334   */\n      swap1\n      pop\n        /* \"#utility.yul\":4974:5340   */\n      swap2\n      swap1\n      pop\n      jump\t// out\n        /* \"#utility.yul\":5346:5464   */\n    tag_174:\n        /* \"#utility.yul\":5433:5457   */\n      tag_176\n        /* \"#utility.yul\":5451:5456   */\n      dup2\n        /* \"#utility.yul\":5433:5457   */\n      tag_177\n      jump\t// in\n    tag_176:\n        /* \"#utility.yul\":5428:5431   */\n      dup3\n        /* \"#utility.yul\":5421:5458   */\n      mstore\n        /* \"#utility.yul\":5346:5464   */\n      pop\n      pop\n      jump\t// out\n        /* \"#utility.yul\":5470:5745   */\n    tag_61:\n        /* \"#utility.yul\":5602:5605   */\n      0x00\n        /* \"#utility.yul\":5624:5719   */\n      tag_179\n        /* \"#utility.yul\":5715:5718   */\n      dup3\n        /* \"#utility.yul\":5706:5712   */\n      dup5\n        /* \"#utility.yul\":5624:5719   */\n      tag_158\n      jump\t// in\n    tag_179:\n        /* \"#utility.yul\":5617:5719   */\n      swap2\n      pop\n        /* \"#utility.yul\":5736:5739   */\n      dup2\n        /* \"#utility.yul\":5729:5739   */\n      swap1\n      pop\n        /* \"#utility.yul\":5470:5745   */\n      swap3\n      swap2\n      pop\n      pop\n      jump\t// out\n        /* \"#utility.yul\":5751:5973   */\n    tag_25:\n        /* \"#utility.yul\":5844:5848   */\n      0x00\n        /* \"#utility.yul\":5882:5884   */\n      0x20\n        /* \"#utility.yul\":5871:5880   */\n      dup3\n        /* \"#utility.yul\":5867:5885   */\n      add\n        /* \"#utility.yul\":5859:5885   */\n      swap1\n      pop\n        /* \"#utility.yul\":5895:5966   */\n      tag_181\n        /* \"#utility.yul\":5963:5964   */\n      0x00\n        /* \"#utility.yul\":5952:5961   */\n      dup4\n        /* \"#utility.yul\":5948:5965   */\n      add\n        /* \"#utility.yul\":5939:5945   */\n      dup5\n        /* \"#utility.yul\":5895:5966   */\n      tag_144\n      jump\t// in\n    tag_181:\n        /* \"#utility.yul\":5751:5973   */\n      swap3\n      swap2\n      pop\n      pop\n      jump\t// out\n        /* \"#utility.yul\":5979:6311   */\n    tag_21:\n        /* \"#utility.yul\":6100:6104   */\n      0x00\n        /* \"#utility.yul\":6138:6140   */\n      0x40\n        /* \"#utility.yul\":6127:6136   */\n      dup3\n        /* \"#utility.yul\":6123:6141   */\n      add\n        /* \"#utility.yul\":6115:6141   */\n      swap1\n      pop\n        /* \"#utility.yul\":6151:6222   */\n      tag_183\n        /* \"#utility.yul\":6219:6220   */\n      0x00\n        /* \"#utility.yul\":6208:6217   */\n      dup4\n        /* \"#utility.yul\":6204:6221   */\n      add\n        /* \"#utility.yul\":6195:6201   */\n      dup6\n        /* \"#utility.yul\":6151:6222   */\n      tag_144\n      jump\t// in\n    tag_183:\n        /* \"#utility.yul\":6232:6304   */\n      tag_184\n        /* \"#utility.yul\":6300:6302   */\n      0x20\n        /* \"#utility.yul\":6289:6298   */\n      dup4\n        /* \"#utility.yul\":6285:6303   */\n      add\n        /* \"#utility.yul\":6276:6282   */\n      dup5\n        /* \"#utility.yul\":6232:6304   */\n      tag_174\n      jump\t// in\n    tag_184:\n        /* \"#utility.yul\":5979:6311   */\n      swap4\n      swap3\n      pop\n      pop\n      pop\n      jump\t// out\n        /* \"#utility.yul\":6317:6630   */\n    tag_48:\n        /* \"#utility.yul\":6430:6434   */\n      0x00\n        /* \"#utility.yul\":6468:6470   */\n      0x20\n        /* \"#utility.yul\":6457:6466   */\n      dup3\n        /* \"#utility.yul\":6453:6471   */\n      add\n        /* \"#utility.yul\":6445:6471   */\n      swap1\n      pop\n        /* \"#utility.yul\":6517:6526   */\n      dup2\n        /* \"#utility.yul\":6511:6515   */\n      dup2\n        /* \"#utility.yul\":6507:6527   */\n      sub\n        /* \"#utility.yul\":6503:6504   */\n      0x00\n        /* \"#utility.yul\":6492:6501   */\n      dup4\n        /* \"#utility.yul\":6488:6505   */\n      add\n        /* \"#utility.yul\":6481:6528   */\n      mstore\n        /* \"#utility.yul\":6545:6623   */\n      tag_186\n        /* \"#utility.yul\":6618:6622   */\n      dup2\n        /* \"#utility.yul\":6609:6615   */\n      dup5\n        /* \"#utility.yul\":6545:6623   */\n      tag_148\n      jump\t// in\n    tag_186:\n        /* \"#utility.yul\":6537:6623   */\n      swap1\n      pop\n        /* \"#utility.yul\":6317:6630   */\n      swap3\n      swap2\n      pop\n      pop\n      jump\t// out\n        /* \"#utility.yul\":6636:7059   */\n    tag_17:\n        /* \"#utility.yul\":6777:6781   */\n      0x00\n        /* \"#utility.yul\":6815:6817   */\n      0x40\n        /* \"#utility.yul\":6804:6813   */\n      dup3\n        /* \"#utility.yul\":6800:6818   */\n      add\n        /* \"#utility.yul\":6792:6818   */\n      swap1\n      pop\n        /* \"#utility.yul\":6864:6873   */\n      dup2\n        /* \"#utility.yul\":6858:6862   */\n      dup2\n        /* \"#utility.yul\":6854:6874   */\n      sub\n        /* \"#utility.yul\":6850:6851   */\n      0x00\n        /* \"#utility.yul\":6839:6848   */\n      dup4\n        /* \"#utility.yul\":6835:6852   */\n      add\n        /* \"#utility.yul\":6828:6875   */\n      mstore\n        /* \"#utility.yul\":6892:6970   */\n      tag_188\n        /* \"#utility.yul\":6965:6969   */\n      dup2\n        /* \"#utility.yul\":6956:6962   */\n      dup6\n        /* \"#utility.yul\":6892:6970   */\n      tag_148\n      jump\t// in\n    tag_188:\n        /* \"#utility.yul\":6884:6970   */\n      swap1\n      pop\n        /* \"#utility.yul\":6980:7052   */\n      tag_189\n        /* \"#utility.yul\":7048:7050   */\n      0x20\n        /* \"#utility.yul\":7037:7046   */\n      dup4\n        /* \"#utility.yul\":7033:7051   */\n      add\n        /* \"#utility.yul\":7024:7030   */\n      dup5\n        /* \"#utility.yul\":6980:7052   */\n      tag_174\n      jump\t// in\n    tag_189:\n        /* \"#utility.yul\":6636:7059   */\n      swap4\n      swap3\n      pop\n      pop\n      pop\n      jump\t// out\n        /* \"#utility.yul\":7065:7484   */\n    tag_68:\n        /* \"#utility.yul\":7231:7235   */\n      0x00\n        /* \"#utility.yul\":7269:7271   */\n      0x20\n        /* \"#utility.yul\":7258:7267   */\n      dup3\n        /* \"#utility.yul\":7254:7272   */\n      add\n        /* \"#utility.yul\":7246:7272   */\n      swap1\n      pop\n        /* \"#utility.yul\":7318:7327   */\n      dup2\n        /* \"#utility.yul\":7312:7316   */\n      dup2\n        /* \"#utility.yul\":7308:7328   */\n      sub\n        /* \"#utility.yul\":7304:7305   */\n      0x00\n        /* \"#utility.yul\":7293:7302   */\n      dup4\n        /* \"#utility.yul\":7289:7306   */\n      add\n        /* \"#utility.yul\":7282:7329   */\n      mstore\n        /* \"#utility.yul\":7346:7477   */\n      tag_191\n        /* \"#utility.yul\":7472:7476   */\n      dup2\n        /* \"#utility.yul\":7346:7477   */\n      tag_164\n      jump\t// in\n    tag_191:\n        /* \"#utility.yul\":7338:7477   */\n      swap1\n      pop\n        /* \"#utility.yul\":7065:7484   */\n      swap2\n      swap1\n      pop\n      jump\t// out\n        /* \"#utility.yul\":7490:7909   */\n    tag_59:\n        /* \"#utility.yul\":7656:7660   */\n      0x00\n        /* \"#utility.yul\":7694:7696   */\n      0x20\n        /* \"#utility.yul\":7683:7692   */\n      dup3\n        /* \"#utility.yul\":7679:7697   */\n      add\n        /* \"#utility.yul\":7671:7697   */\n      swap1\n      pop\n        /* \"#utility.yul\":7743:7752   */\n      dup2\n        /* \"#utility.yul\":7737:7741   */\n      dup2\n        /* \"#utility.yul\":7733:7753   */\n      sub\n        /* \"#utility.yul\":7729:7730   */\n      0x00\n        /* \"#utility.yul\":7718:7727   */\n      dup4\n        /* \"#utility.yul\":7714:7731   */\n      add\n        /* \"#utility.yul\":7707:7754   */\n      mstore\n        /* \"#utility.yul\":7771:7902   */\n      tag_193\n        /* \"#utility.yul\":7897:7901   */\n      dup2\n        /* \"#utility.yul\":7771:7902   */\n      tag_169\n      jump\t// in\n    tag_193:\n        /* \"#utility.yul\":7763:7902   */\n      swap1\n      pop\n        /* \"#utility.yul\":7490:7909   */\n      swap2\n      swap1\n      pop\n      jump\t// out\n        /* \"#utility.yul\":7915:8137   */\n    tag_39:\n        /* \"#utility.yul\":8008:8012   */\n      0x00\n        /* \"#utility.yul\":8046:8048   */\n      0x20\n        /* \"#utility.yul\":8035:8044   */\n      dup3\n        /* \"#utility.yul\":8031:8049   */\n      add\n        /* \"#utility.yul\":8023:8049   */\n      swap1\n      pop\n        /* \"#utility.yul\":8059:8130   */\n      tag_195\n        /* \"#utility.yul\":8127:8128   */\n      0x00\n        /* \"#utility.yul\":8116:8125   */\n      dup4\n        /* \"#utility.yul\":8112:8129   */\n      add\n        /* \"#utility.yul\":8103:8109   */\n      dup5\n        /* \"#utility.yul\":8059:8130   */\n      tag_174\n      jump\t// in\n    tag_195:\n        /* \"#utility.yul\":7915:8137   */\n      swap3\n      swap2\n      pop\n      pop\n      jump\t// out\n        /* \"#utility.yul\":8143:8272   */\n    tag_93:\n        /* \"#utility.yul\":8177:8183   */\n      0x00\n        /* \"#utility.yul\":8204:8224   */\n      tag_197\n      tag_198\n      jump\t// in\n    tag_197:\n        /* \"#utility.yul\":8194:8224   */\n      swap1\n      pop\n        /* \"#utility.yul\":8233:8266   */\n      tag_199\n        /* \"#utility.yul\":8261:8265   */\n      dup3\n        /* \"#utility.yul\":8253:8259   */\n      dup3\n        /* \"#utility.yul\":8233:8266   */\n      tag_200\n      jump\t// in\n    tag_199:\n        /* \"#utility.yul\":8143:8272   */\n      swap2\n      swap1\n      pop\n      jump\t// out\n        /* \"#utility.yul\":8278:8353   */\n    tag_198:\n        /* \"#utility.yul\":8311:8317   */\n      0x00\n        /* \"#utility.yul\":8344:8346   */\n      0x40\n        /* \"#utility.yul\":8338:8347   */\n      mload\n        /* \"#utility.yul\":8328:8347   */\n      swap1\n      pop\n        /* \"#utility.yul\":8278:8353   */\n      swap1\n      jump\t// out\n        /* \"#utility.yul\":8359:8667   */\n    tag_92:\n        /* \"#utility.yul\":8421:8425   */\n      0x00\n        /* \"#utility.yul\":8511:8529   */\n      0xffffffffffffffff\n        /* \"#utility.yul\":8503:8509   */\n      dup3\n        /* \"#utility.yul\":8500:8530   */\n      gt\n        /* \"#utility.yul\":8497:8553   */\n      iszero\n      tag_203\n      jumpi\n        /* \"#utility.yul\":8533:8551   */\n      tag_204\n      tag_205\n      jump\t// in\n    tag_204:\n        /* \"#utility.yul\":8497:8553   */\n    tag_203:\n        /* \"#utility.yul\":8571:8600   */\n      tag_206\n        /* \"#utility.yul\":8593:8599   */\n      dup3\n        /* \"#utility.yul\":8571:8600   */\n      tag_157\n      jump\t// in\n    tag_206:\n        /* \"#utility.yul\":8563:8600   */\n      swap1\n      pop\n        /* \"#utility.yul\":8655:8659   */\n      0x20\n        /* \"#utility.yul\":8649:8653   */\n      dup2\n        /* \"#utility.yul\":8645:8660   */\n      add\n        /* \"#utility.yul\":8637:8660   */\n      swap1\n      pop\n        /* \"#utility.yul\":8359:8667   */\n      swap2\n      swap1\n      pop\n      jump\t// out\n        /* \"#utility.yul\":8673:8772   */\n    tag_151:\n        /* \"#utility.yul\":8725:8731   */\n      0x00\n        /* \"#utility.yul\":8759:8764   */\n      dup2\n        /* \"#utility.yul\":8753:8765   */\n      mload\n        /* \"#utility.yul\":8743:8765   */\n      swap1\n      pop\n        /* \"#utility.yul\":8673:8772   */\n      swap2\n      swap1\n      pop\n      jump\t// out\n        /* \"#utility.yul\":8778:8947   */\n    tag_153:\n        /* \"#utility.yul\":8862:8873   */\n      0x00\n        /* \"#utility.yul\":8896:8902   */\n      dup3\n        /* \"#utility.yul\":8891:8894   */\n      dup3\n        /* \"#utility.yul\":8884:8903   */\n      mstore\n        /* \"#utility.yul\":8936:8940   */\n      0x20\n        /* \"#utility.yul\":8931:8934   */\n      dup3\n        /* \"#utility.yul\":8927:8941   */\n      add\n        /* \"#utility.yul\":8912:8941   */\n      swap1\n      pop\n        /* \"#utility.yul\":8778:8947   */\n      swap3\n      swap2\n      pop\n      pop\n      jump\t// out\n        /* \"#utility.yul\":8953:9101   */\n    tag_162:\n        /* \"#utility.yul\":9055:9066   */\n      0x00\n        /* \"#utility.yul\":9092:9095   */\n      dup2\n        /* \"#utility.yul\":9077:9095   */\n      swap1\n      pop\n        /* \"#utility.yul\":8953:9101   */\n      swap3\n      swap2\n      pop\n      pop\n      jump\t// out\n        /* \"#utility.yul\":9107:9203   */\n    tag_147:\n        /* \"#utility.yul\":9144:9151   */\n      0x00\n        /* \"#utility.yul\":9173:9197   */\n      tag_211\n        /* \"#utility.yul\":9191:9196   */\n      dup3\n        /* \"#utility.yul\":9173:9197   */\n      tag_212\n      jump\t// in\n    tag_211:\n        /* \"#utility.yul\":9162:9197   */\n      swap1\n      pop\n        /* \"#utility.yul\":9107:9203   */\n      swap2\n      swap1\n      pop\n      jump\t// out\n        /* \"#utility.yul\":9209:9335   */\n    tag_212:\n        /* \"#utility.yul\":9246:9253   */\n      0x00\n        /* \"#utility.yul\":9286:9328   */\n      0xffffffffffffffffffffffffffffffffffffffff\n        /* \"#utility.yul\":9279:9284   */\n      dup3\n        /* \"#utility.yul\":9275:9329   */\n      and\n        /* \"#utility.yul\":9264:9329   */\n      swap1\n      pop\n        /* \"#utility.yul\":9209:9335   */\n      swap2\n      swap1\n      pop\n      jump\t// out\n        /* \"#utility.yul\":9341:9418   */\n    tag_177:\n        /* \"#utility.yul\":9378:9385   */\n      0x00\n        /* \"#utility.yul\":9407:9412   */\n      dup2\n        /* \"#utility.yul\":9396:9412   */\n      swap1\n      pop\n        /* \"#utility.yul\":9341:9418   */\n      swap2\n      swap1\n      pop\n      jump\t// out\n        /* \"#utility.yul\":9424:9578   */\n    tag_98:\n        /* \"#utility.yul\":9508:9514   */\n      dup3\n        /* \"#utility.yul\":9503:9506   */\n      dup2\n        /* \"#utility.yul\":9498:9501   */\n      dup4\n        /* \"#utility.yul\":9485:9515   */\n      calldatacopy\n        /* \"#utility.yul\":9570:9571   */\n      0x00\n        /* \"#utility.yul\":9561:9567   */\n      dup4\n        /* \"#utility.yul\":9556:9559   */\n      dup4\n        /* \"#utility.yul\":9552:9568   */\n      add\n        /* \"#utility.yul\":9545:9572   */\n      mstore\n        /* \"#utility.yul\":9424:9578   */\n      pop\n      pop\n      pop\n      jump\t// out\n        /* \"#utility.yul\":9584:9891   */\n    tag_155:\n        /* \"#utility.yul\":9652:9653   */\n      0x00\n        /* \"#utility.yul\":9662:9775   */\n    tag_217:\n        /* \"#utility.yul\":9676:9682   */\n      dup4\n        /* \"#utility.yul\":9673:9674   */\n      dup2\n        /* \"#utility.yul\":9670:9683   */\n      lt\n        /* \"#utility.yul\":9662:9775   */\n      iszero\n      tag_219\n      jumpi\n        /* \"#utility.yul\":9761:9762   */\n      dup1\n        /* \"#utility.yul\":9756:9759   */\n      dup3\n        /* \"#utility.yul\":9752:9763   */\n      add\n        /* \"#utility.yul\":9746:9764   */\n      mload\n        /* \"#utility.yul\":9742:9743   */\n      dup2\n        /* \"#utility.yul\":9737:9740   */\n      dup5\n        /* \"#utility.yul\":9733:9744   */\n      add\n        /* \"#utility.yul\":9726:9765   */\n      mstore\n        /* \"#utility.yul\":9698:9700   */\n      0x20\n        /* \"#utility.yul\":9695:9696   */\n      dup2\n        /* \"#utility.yul\":9691:9701   */\n      add\n        /* \"#utility.yul\":9686:9701   */\n      swap1\n      pop\n        /* \"#utility.yul\":9662:9775   */\n      jump(tag_217)\n    tag_219:\n        /* \"#utility.yul\":9793:9799   */\n      dup4\n        /* \"#utility.yul\":9790:9791   */\n      dup2\n        /* \"#utility.yul\":9787:9800   */\n      gt\n        /* \"#utility.yul\":9784:9885   */\n      iszero\n      tag_220\n      jumpi\n        /* \"#utility.yul\":9873:9874   */\n      0x00\n        /* \"#utility.yul\":9864:9870   */\n      dup5\n        /* \"#utility.yul\":9859:9862   */\n      dup5\n        /* \"#utility.yul\":9855:9871   */\n      add\n        /* \"#utility.yul\":9848:9875   */\n      mstore\n        /* \"#utility.yul\":9784:9885   */\n    tag_220:\n        /* \"#utility.yul\":9633:9891   */\n      pop\n        /* \"#utility.yul\":9584:9891   */\n      pop\n      pop\n      pop\n      jump\t// out\n        /* \"#utility.yul\":9897:10217   */\n    tag_50:\n        /* \"#utility.yul\":9941:9947   */\n      0x00\n        /* \"#utility.yul\":9978:9979   */\n      0x02\n        /* \"#utility.yul\":9972:9976   */\n      dup3\n        /* \"#utility.yul\":9968:9980   */\n      div\n        /* \"#utility.yul\":9958:9980   */\n      swap1\n      pop\n        /* \"#utility.yul\":10025:10026   */\n      0x01\n        /* \"#utility.yul\":10019:10023   */\n      dup3\n        /* \"#utility.yul\":10015:10027   */\n      and\n        /* \"#utility.yul\":10046:10064   */\n      dup1\n        /* \"#utility.yul\":10036:10117   */\n      tag_222\n      jumpi\n        /* \"#utility.yul\":10102:10106   */\n      0x7f\n        /* \"#utility.yul\":10094:10100   */\n      dup3\n        /* \"#utility.yul\":10090:10107   */\n      and\n        /* \"#utility.yul\":10080:10107   */\n      swap2\n      pop\n        /* \"#utility.yul\":10036:10117   */\n    tag_222:\n        /* \"#utility.yul\":10164:10166   */\n      0x20\n        /* \"#utility.yul\":10156:10162   */\n      dup3\n        /* \"#utility.yul\":10153:10167   */\n      lt\n        /* \"#utility.yul\":10133:10151   */\n      dup2\n        /* \"#utility.yul\":10130:10168   */\n      eq\n        /* \"#utility.yul\":10127:10211   */\n      iszero\n      tag_223\n      jumpi\n        /* \"#utility.yul\":10183:10201   */\n      tag_224\n      tag_225\n      jump\t// in\n    tag_224:\n        /* \"#utility.yul\":10127:10211   */\n    tag_223:\n        /* \"#utility.yul\":9948:10217   */\n      pop\n        /* \"#utility.yul\":9897:10217   */\n      swap2\n      swap1\n      pop\n      jump\t// out\n        /* \"#utility.yul\":10223:10504   */\n    tag_200:\n        /* \"#utility.yul\":10306:10333   */\n      tag_227\n        /* \"#utility.yul\":10328:10332   */\n      dup3\n        /* \"#utility.yul\":10306:10333   */\n      tag_157\n      jump\t// in\n    tag_227:\n        /* \"#utility.yul\":10298:10304   */\n      dup2\n        /* \"#utility.yul\":10294:10334   */\n      add\n        /* \"#utility.yul\":10436:10442   */\n      dup2\n        /* \"#utility.yul\":10424:10434   */\n      dup2\n        /* \"#utility.yul\":10421:10443   */\n      lt\n        /* \"#utility.yul\":10400:10418   */\n      0xffffffffffffffff\n        /* \"#utility.yul\":10388:10398   */\n      dup3\n        /* \"#utility.yul\":10385:10419   */\n      gt\n        /* \"#utility.yul\":10382:10444   */\n      or\n        /* \"#utility.yul\":10379:10467   */\n      iszero\n      tag_228\n      jumpi\n        /* \"#utility.yul\":10447:10465   */\n      tag_229\n      tag_205\n      jump\t// in\n    tag_229:\n        /* \"#utility.yul\":10379:10467   */\n    tag_228:\n        /* \"#utility.yul\":10487:10497   */\n      dup1\n        /* \"#utility.yul\":10483:10485   */\n      0x40\n        /* \"#utility.yul\":10476:10498   */\n      mstore\n        /* \"#utility.yul\":10266:10504   */\n      pop\n        /* \"#utility.yul\":10223:10504   */\n      pop\n      pop\n      jump\t// out\n        /* \"#utility.yul\":10510:10690   */\n    tag_225:\n        /* \"#utility.yul\":10558:10635   */\n      0x4e487b7100000000000000000000000000000000000000000000000000000000\n        /* \"#utility.yul\":10555:10556   */\n      0x00\n        /* \"#utility.yul\":10548:10636   */\n      mstore\n        /* \"#utility.yul\":10655:10659   */\n      0x22\n        /* \"#utility.yul\":10652:10653   */\n      0x04\n        /* \"#utility.yul\":10645:10660   */\n      mstore\n        /* \"#utility.yul\":10679:10683   */\n      0x24\n        /* \"#utility.yul\":10676:10677   */\n      0x00\n        /* \"#utility.yul\":10669:10684   */\n      revert\n        /* \"#utility.yul\":10696:10876   */\n    tag_205:\n        /* \"#utility.yul\":10744:10821   */\n      0x4e487b7100000000000000000000000000000000000000000000000000000000\n        /* \"#utility.yul\":10741:10742   */\n      0x00\n        /* \"#utility.yul\":10734:10822   */\n      mstore\n        /* \"#utility.yul\":10841:10845   */\n      0x41\n        /* \"#utility.yul\":10838:10839   */\n      0x04\n        /* \"#utility.yul\":10831:10846   */\n      mstore\n        /* \"#utility.yul\":10865:10869   */\n      0x24\n        /* \"#utility.yul\":10862:10863   */\n      0x00\n        /* \"#utility.yul\":10855:10870   */\n      revert\n        /* \"#utility.yul\":10882:10999   */\n    tag_107:\n        /* \"#utility.yul\":10991:10992   */\n      0x00\n        /* \"#utility.yul\":10988:10989   */\n      dup1\n        /* \"#utility.yul\":10981:10993   */\n      revert\n        /* \"#utility.yul\":11005:11122   */\n    tag_96:\n        /* \"#utility.yul\":11114:11115   */\n      0x00\n        /* \"#utility.yul\":11111:11112   */\n      dup1\n        /* \"#utility.yul\":11104:11116   */\n      revert\n        /* \"#utility.yul\":11128:11245   */\n    tag_124:\n        /* \"#utility.yul\":11237:11238   */\n      0x00\n        /* \"#utility.yul\":11234:11235   */\n      dup1\n        /* \"#utility.yul\":11227:11239   */\n      revert\n        /* \"#utility.yul\":11251:11368   */\n    tag_116:\n        /* \"#utility.yul\":11360:11361   */\n      0x00\n        /* \"#utility.yul\":11357:11358   */\n      dup1\n        /* \"#utility.yul\":11350:11362   */\n      revert\n        /* \"#utility.yul\":11374:11476   */\n    tag_157:\n        /* \"#utility.yul\":11415:11421   */\n      0x00\n        /* \"#utility.yul\":11466:11468   */\n      0x1f\n        /* \"#utility.yul\":11462:11469   */\n      not\n        /* \"#utility.yul\":11457:11459   */\n      0x1f\n        /* \"#utility.yul\":11450:11455   */\n      dup4\n        /* \"#utility.yul\":11446:11460   */\n      add\n        /* \"#utility.yul\":11442:11470   */\n      and\n        /* \"#utility.yul\":11432:11470   */\n      swap1\n      pop\n        /* \"#utility.yul\":11374:11476   */\n      swap2\n      swap1\n      pop\n      jump\t// out\n        /* \"#utility.yul\":11482:11706   */\n    tag_168:\n        /* \"#utility.yul\":11622:11656   */\n      0x596120746520656e6375656e74726173207265676973747261646f20656e2065\n        /* \"#utility.yul\":11618:11619   */\n      0x00\n        /* \"#utility.yul\":11610:11616   */\n      dup3\n        /* \"#utility.yul\":11606:11620   */\n      add\n        /* \"#utility.yul\":11599:11657   */\n      mstore\n        /* \"#utility.yul\":11691:11698   */\n      0x6c2067796d000000000000000000000000000000000000000000000000000000\n        /* \"#utility.yul\":11686:11688   */\n      0x20\n        /* \"#utility.yul\":11678:11684   */\n      dup3\n        /* \"#utility.yul\":11674:11689   */\n      add\n        /* \"#utility.yul\":11667:11699   */\n      mstore\n        /* \"#utility.yul\":11482:11706   */\n      pop\n      jump\t// out\n        /* \"#utility.yul\":11712:11947   */\n    tag_173:\n        /* \"#utility.yul\":11852:11886   */\n      0x536f6c6f20656c2041646d696e6973747261646f722064656c2047796d207075\n        /* \"#utility.yul\":11848:11849   */\n      0x00\n        /* \"#utility.yul\":11840:11846   */\n      dup3\n        /* \"#utility.yul\":11836:11850   */\n      add\n        /* \"#utility.yul\":11829:11887   */\n      mstore\n        /* \"#utility.yul\":11921:11939   */\n      0x65646520637265617220636c6173657300000000000000000000000000000000\n        /* \"#utility.yul\":11916:11918   */\n      0x20\n        /* \"#utility.yul\":11908:11914   */\n      dup3\n        /* \"#utility.yul\":11904:11919   */\n      add\n        /* \"#utility.yul\":11897:11940   */\n      mstore\n        /* \"#utility.yul\":11712:11947   */\n      pop\n      jump\t// out\n        /* \"#utility.yul\":11953:12075   */\n    tag_102:\n        /* \"#utility.yul\":12026:12050   */\n      tag_240\n        /* \"#utility.yul\":12044:12049   */\n      dup2\n        /* \"#utility.yul\":12026:12050   */\n      tag_147\n      jump\t// in\n    tag_240:\n        /* \"#utility.yul\":12019:12024   */\n      dup2\n        /* \"#utility.yul\":12016:12051   */\n      eq\n        /* \"#utility.yul\":12006:12069   */\n      tag_241\n      jumpi\n        /* \"#utility.yul\":12065:12066   */\n      0x00\n        /* \"#utility.yul\":12062:12063   */\n      dup1\n        /* \"#utility.yul\":12055:12067   */\n      revert\n        /* \"#utility.yul\":12006:12069   */\n    tag_241:\n        /* \"#utility.yul\":11953:12075   */\n      pop\n      jump\t// out\n        /* \"#utility.yul\":12081:12203   */\n    tag_112:\n        /* \"#utility.yul\":12154:12178   */\n      tag_243\n        /* \"#utility.yul\":12172:12177   */\n      dup2\n        /* \"#utility.yul\":12154:12178   */\n      tag_177\n      jump\t// in\n    tag_243:\n        /* \"#utility.yul\":12147:12152   */\n      dup2\n        /* \"#utility.yul\":12144:12179   */\n      eq\n        /* \"#utility.yul\":12134:12197   */\n      tag_244\n      jumpi\n        /* \"#utility.yul\":12193:12194   */\n      0x00\n        /* \"#utility.yul\":12190:12191   */\n      dup1\n        /* \"#utility.yul\":12183:12195   */\n      revert\n        /* \"#utility.yul\":12134:12197   */\n    tag_244:\n        /* \"#utility.yul\":12081:12203   */\n      pop\n      jump\t// out\n\n    auxdata: 0xa264697066735822122037249d982e37156512b7a1965418e3b54334449c9797fc5dec40d09e40882b4d64736f6c63430008070033\n}\n",
				"bytecode": {
					"linkReferences": {},
					"object": "60a060405234801561001057600080fd5b503373ffffffffffffffffffffffffffffffffffffffff1660808173ffffffffffffffffffffffffffffffffffffffff1660601b8152505060805160601c610dce61006d600039600081816102ce01526103090152610dce6000f3fe608060405234801561001057600080fd5b50600436106100885760003560e01c80636d705ebb1161005b5780636d705ebb14610117578063a87430ba14610133578063bff852fa14610163578063e92761b61461018257610088565b8063035af4ca1461008d57806312065fe0146100be5780632a0acc6a146100dd5780634852a212146100fb575b600080fd5b6100a760048036038101906100a291906107d4565b6101b2565b6040516100b5929190610a60565b60405180910390f35b6100c6610281565b6040516100d4929190610a15565b60405180910390f35b6100e56102cc565b6040516100f291906109fa565b60405180910390f35b610115600480360381019061011091906108b9565b6102f0565b005b610131600480360381019061012c9190610830565b610455565b005b61014d600480360381019061014891906107a7565b610555565b60405161015a9190610ad0565b60405180910390f35b61016b61056d565b604051610179929190610a60565b60405180910390f35b61019c60048036038101906101979190610870565b610607565b6040516101a99190610a3e565b60405180910390f35b600160205281600052604060002081805160208101820180518482526020830160208501208183528095505050505050600091509150508060000180546101f890610be6565b80601f016020809104026020016040519081016040528092919081815260200182805461022490610be6565b80156102715780601f1061024657610100808354040283529160200191610271565b820191906000526020600020905b81548152906001019060200180831161025457829003601f168201915b5050505050908060010154905082565b600080336000803373ffffffffffffffffffffffffffffffffffffffff1673ffffffffffffffffffffffffffffffffffffffff16815260200190815260200160002054915091509091565b7f000000000000000000000000000000000000000000000000000000000000000081565b3373ffffffffffffffffffffffffffffffffffffffff167f000000000000000000000000000000000000000000000000000000000000000073ffffffffffffffffffffffffffffffffffffffff161461037e576040517f08c379a000000000000000000000000000000000000000000000000000000000815260040161037590610ab0565b60405180910390fd5b604051806040016040528083815260200182815250600160003373ffffffffffffffffffffffffffffffffffffffff1673ffffffffffffffffffffffffffffffffffffffff168152602001908152602001600020836040516103e091906109e3565b9081526020016040518091039020600082015181600001908051906020019061040a92919061066a565b50602082015181600101559050507f14d49e3ea4f348b7f368906dfe1a63055c7822d622a61672a35a55ae97a768f98282604051610449929190610a60565b60405180910390a15050565b60008060003373ffffffffffffffffffffffffffffffffffffffff1673ffffffffffffffffffffffffffffffffffffffff16815260200190815260200160002054146104d6576040517f08c379a00000000000000000000000000000000000000000000000000000000081526004016104cd90610a90565b60405180910390fd5b806000803373ffffffffffffffffffffffffffffffffffffffff1673ffffffffffffffffffffffffffffffffffffffff168152602001908152602001600020819055507e7dc6ab80cc84c043b7b8d4fcafc802187470087f7ea7fccd2e17aecd0256a18282604051610549929190610a15565b60405180910390a15050565b60006020528060005260406000206000915090505481565b600280600001805461057e90610be6565b80601f01602080910402602001604051908101604052809291908181526020018280546105aa90610be6565b80156105f75780601f106105cc576101008083540402835291602001916105f7565b820191906000526020600020905b8154815290600101906020018083116105da57829003601f168201915b5050505050908060010154905082565b6060600160003373ffffffffffffffffffffffffffffffffffffffff1673ffffffffffffffffffffffffffffffffffffffff1681526020019081526020016000208260405161065691906109e3565b908152602001604051809103902050919050565b82805461067690610be6565b90600052602060002090601f01602090048101928261069857600085556106df565b82601f106106b157805160ff19168380011785556106df565b828001600101855582156106df579182015b828111156106de5782518255916020019190600101906106c3565b5b5090506106ec91906106f0565b5090565b5b808211156107095760008160009055506001016106f1565b5090565b600061072061071b84610b10565b610aeb565b90508281526020810184848401111561073c5761073b610cac565b5b610747848285610ba4565b509392505050565b60008135905061075e81610d6a565b92915050565b600082601f83011261077957610778610ca7565b5b813561078984826020860161070d565b91505092915050565b6000813590506107a181610d81565b92915050565b6000602082840312156107bd576107bc610cb6565b5b60006107cb8482850161074f565b91505092915050565b600080604083850312156107eb576107ea610cb6565b5b60006107f98582860161074f565b925050602083013567ffffffffffffffff81111561081a57610819610cb1565b5b61082685828601610764565b9150509250929050565b6000806040838503121561084757610846610cb6565b5b60006108558582860161074f565b925050602061086685828601610792565b9150509250929050565b60006020828403121561088657610885610cb6565b5b600082013567ffffffffffffffff8111156108a4576108a3610cb1565b5b6108b084828501610764565b91505092915050565b600080604083850312156108d0576108cf610cb6565b5b600083013567ffffffffffffffff8111156108ee576108ed610cb1565b5b6108fa85828601610764565b925050602061090b85828601610792565b9150509250929050565b61091e81610b68565b82525050565b600061092f82610b41565b6109398185610b4c565b9350610949818560208601610bb3565b61095281610cbb565b840191505092915050565b600061096882610b41565b6109728185610b5d565b9350610982818560208601610bb3565b80840191505092915050565b600061099b602583610b4c565b91506109a682610ccc565b604082019050919050565b60006109be603083610b4c565b91506109c982610d1b565b604082019050919050565b6109dd81610b9a565b82525050565b60006109ef828461095d565b915081905092915050565b6000602082019050610a0f6000830184610915565b92915050565b6000604082019050610a2a6000830185610915565b610a3760208301846109d4565b9392505050565b60006020820190508181036000830152610a588184610924565b905092915050565b60006040820190508181036000830152610a7a8185610924565b9050610a8960208301846109d4565b9392505050565b60006020820190508181036000830152610aa98161098e565b9050919050565b60006020820190508181036000830152610ac9816109b1565b9050919050565b6000602082019050610ae560008301846109d4565b92915050565b6000610af5610b06565b9050610b018282610c18565b919050565b6000604051905090565b600067ffffffffffffffff821115610b2b57610b2a610c78565b5b610b3482610cbb565b9050602081019050919050565b600081519050919050565b600082825260208201905092915050565b600081905092915050565b6000610b7382610b7a565b9050919050565b600073ffffffffffffffffffffffffffffffffffffffff82169050919050565b6000819050919050565b82818337600083830152505050565b60005b83811015610bd1578082015181840152602081019050610bb6565b83811115610be0576000848401525b50505050565b60006002820490506001821680610bfe57607f821691505b60208210811415610c1257610c11610c49565b5b50919050565b610c2182610cbb565b810181811067ffffffffffffffff82111715610c4057610c3f610c78565b5b80604052505050565b7f4e487b7100000000000000000000000000000000000000000000000000000000600052602260045260246000fd5b7f4e487b7100000000000000000000000000000000000000000000000000000000600052604160045260246000fd5b600080fd5b600080fd5b600080fd5b600080fd5b6000601f19601f8301169050919050565b7f596120746520656e6375656e74726173207265676973747261646f20656e206560008201527f6c2067796d000000000000000000000000000000000000000000000000000000602082015250565b7f536f6c6f20656c2041646d696e6973747261646f722064656c2047796d20707560008201527f65646520637265617220636c6173657300000000000000000000000000000000602082015250565b610d7381610b68565b8114610d7e57600080fd5b50565b610d8a81610b9a565b8114610d9557600080fd5b5056fea264697066735822122037249d982e37156512b7a1965418e3b54334449c9797fc5dec40d09e40882b4d64736f6c63430008070033",
					"opcodes": "PUSH1 0xA0 PUSH1 0x40 MSTORE CALLVALUE DUP1 ISZERO PUSH2 0x10 JUMPI PUSH1 0x0 DUP1 REVERT JUMPDEST POP CALLER PUSH20 0xFFFFFFFFFFFFFFFFFFFFFFFFFFFFFFFFFFFFFFFF AND PUSH1 0x80 DUP2 PUSH20 0xFFFFFFFFFFFFFFFFFFFFFFFFFFFFFFFFFFFFFFFF AND PUSH1 0x60 SHL DUP2 MSTORE POP POP PUSH1 0x80 MLOAD PUSH1 0x60 SHR PUSH2 0xDCE PUSH2 0x6D PUSH1 0x0 CODECOPY PUSH1 0x0 DUP2 DUP2 PUSH2 0x2CE ADD MSTORE PUSH2 0x309 ADD MSTORE PUSH2 0xDCE PUSH1 0x0 RETURN INVALID PUSH1 0x80 PUSH1 0x40 MSTORE CALLVALUE DUP1 ISZERO PUSH2 0x10 JUMPI PUSH1 0x0 DUP1 REVERT JUMPDEST POP PUSH1 0x4 CALLDATASIZE LT PUSH2 0x88 JUMPI PUSH1 0x0 CALLDATALOAD PUSH1 0xE0 SHR DUP1 PUSH4 0x6D705EBB GT PUSH2 0x5B JUMPI DUP1 PUSH4 0x6D705EBB EQ PUSH2 0x117 JUMPI DUP1 PUSH4 0xA87430BA EQ PUSH2 0x133 JUMPI DUP1 PUSH4 0xBFF852FA EQ PUSH2 0x163 JUMPI DUP1 PUSH4 0xE92761B6 EQ PUSH2 0x182 JUMPI PUSH2 0x88 JUMP JUMPDEST DUP1 PUSH4 0x35AF4CA EQ PUSH2 0x8D JUMPI DUP1 PUSH4 0x12065FE0 EQ PUSH2 0xBE JUMPI DUP1 PUSH4 0x2A0ACC6A EQ PUSH2 0xDD JUMPI DUP1 PUSH4 0x4852A212 EQ PUSH2 0xFB JUMPI JUMPDEST PUSH1 0x0 DUP1 REVERT JUMPDEST PUSH2 0xA7 PUSH1 0x4 DUP1 CALLDATASIZE SUB DUP2 ADD SWAP1 PUSH2 0xA2 SWAP2 SWAP1 PUSH2 0x7D4 JUMP JUMPDEST PUSH2 0x1B2 JUMP JUMPDEST PUSH1 0x40 MLOAD PUSH2 0xB5 SWAP3 SWAP2 SWAP1 PUSH2 0xA60 JUMP JUMPDEST PUSH1 0x40 MLOAD DUP1 SWAP2 SUB SWAP1 RETURN JUMPDEST PUSH2 0xC6 PUSH2 0x281 JUMP JUMPDEST PUSH1 0x40 MLOAD PUSH2 0xD4 SWAP3 SWAP2 SWAP1 PUSH2 0xA15 JUMP JUMPDEST PUSH1 0x40 MLOAD DUP1 SWAP2 SUB SWAP1 RETURN JUMPDEST PUSH2 0xE5 PUSH2 0x2CC JUMP JUMPDEST PUSH1 0x40 MLOAD PUSH2 0xF2 SWAP2 SWAP1 PUSH2 0x9FA JUMP JUMPDEST PUSH1 0x40 MLOAD DUP1 SWAP2 SUB SWAP1 RETURN JUMPDEST PUSH2 0x115 PUSH1 0x4 DUP1 CALLDATASIZE SUB DUP2 ADD SWAP1 PUSH2 0x110 SWAP2 SWAP1 PUSH2 0x8B9 JUMP JUMPDEST PUSH2 0x2F0 JUMP JUMPDEST STOP JUMPDEST PUSH2 0x131 PUSH1 0x4 DUP1 CALLDATASIZE SUB DUP2 ADD SWAP1 PUSH2 0x12C SWAP2 SWAP1 PUSH2 0x830 JUMP JUMPDEST PUSH2 0x455 JUMP JUMPDEST STOP JUMPDEST PUSH2 0x14D PUSH1 0x4 DUP1 CALLDATASIZE SUB DUP2 ADD SWAP1 PUSH2 0x148 SWAP2 SWAP1 PUSH2 0x7A7 JUMP JUMPDEST PUSH2 0x555 JUMP JUMPDEST PUSH1 0x40 MLOAD PUSH2 0x15A SWAP2 SWAP1 PUSH2 0xAD0 JUMP JUMPDEST PUSH1 0x40 MLOAD DUP1 SWAP2 SUB SWAP1 RETURN JUMPDEST PUSH2 0x16B PUSH2 0x56D JUMP JUMPDEST PUSH1 0x40 MLOAD PUSH2 0x179 SWAP3 SWAP2 SWAP1 PUSH2 0xA60 JUMP JUMPDEST PUSH1 0x40 MLOAD DUP1 SWAP2 SUB SWAP1 RETURN JUMPDEST PUSH2 0x19C PUSH1 0x4 DUP1 CALLDATASIZE SUB DUP2 ADD SWAP1 PUSH2 0x197 SWAP2 SWAP1 PUSH2 0x870 JUMP JUMPDEST PUSH2 0x607 JUMP JUMPDEST PUSH1 0x40 MLOAD PUSH2 0x1A9 SWAP2 SWAP1 PUSH2 0xA3E JUMP JUMPDEST PUSH1 0x40 MLOAD DUP1 SWAP2 SUB SWAP1 RETURN JUMPDEST PUSH1 0x1 PUSH1 0x20 MSTORE DUP2 PUSH1 0x0 MSTORE PUSH1 0x40 PUSH1 0x0 KECCAK256 DUP2 DUP1 MLOAD PUSH1 0x20 DUP2 ADD DUP3 ADD DUP1 MLOAD DUP5 DUP3 MSTORE PUSH1 0x20 DUP4 ADD PUSH1 0x20 DUP6 ADD KECCAK256 DUP2 DUP4 MSTORE DUP1 SWAP6 POP POP POP POP POP POP PUSH1 0x0 SWAP2 POP SWAP2 POP POP DUP1 PUSH1 0x0 ADD DUP1 SLOAD PUSH2 0x1F8 SWAP1 PUSH2 0xBE6 JUMP JUMPDEST DUP1 PUSH1 0x1F ADD PUSH1 0x20 DUP1 SWAP2 DIV MUL PUSH1 0x20 ADD PUSH1 0x40 MLOAD SWAP1 DUP2 ADD PUSH1 0x40 MSTORE DUP1 SWAP3 SWAP2 SWAP1 DUP2 DUP2 MSTORE PUSH1 0x20 ADD DUP3 DUP1 SLOAD PUSH2 0x224 SWAP1 PUSH2 0xBE6 JUMP JUMPDEST DUP1 ISZERO PUSH2 0x271 JUMPI DUP1 PUSH1 0x1F LT PUSH2 0x246 JUMPI PUSH2 0x100 DUP1 DUP4 SLOAD DIV MUL DUP4 MSTORE SWAP2 PUSH1 0x20 ADD SWAP2 PUSH2 0x271 JUMP JUMPDEST DUP3 ADD SWAP2 SWAP1 PUSH1 0x0 MSTORE PUSH1 0x20 PUSH1 0x0 KECCAK256 SWAP1 JUMPDEST DUP2 SLOAD DUP2 MSTORE SWAP1 PUSH1 0x1 ADD SWAP1 PUSH1 0x20 ADD DUP1 DUP4 GT PUSH2 0x254 JUMPI DUP3 SWAP1 SUB PUSH1 0x1F AND DUP3 ADD SWAP2 JUMPDEST POP POP POP POP POP SWAP1 DUP1 PUSH1 0x1 ADD SLOAD SWAP1 POP DUP3 JUMP JUMPDEST PUSH1 0x0 DUP1 CALLER PUSH1 0x0 DUP1 CALLER PUSH20 0xFFFFFFFFFFFFFFFFFFFFFFFFFFFFFFFFFFFFFFFF AND PUSH20 0xFFFFFFFFFFFFFFFFFFFFFFFFFFFFFFFFFFFFFFFF AND DUP2 MSTORE PUSH1 0x20 ADD SWAP1 DUP2 MSTORE PUSH1 0x20 ADD PUSH1 0x0 KECCAK256 SLOAD SWAP2 POP SWAP2 POP SWAP1 SWAP2 JUMP JUMPDEST PUSH32 0x0 DUP2 JUMP JUMPDEST CALLER PUSH20 0xFFFFFFFFFFFFFFFFFFFFFFFFFFFFFFFFFFFFFFFF AND PUSH32 0x0 PUSH20 0xFFFFFFFFFFFFFFFFFFFFFFFFFFFFFFFFFFFFFFFF AND EQ PUSH2 0x37E JUMPI PUSH1 0x40 MLOAD PUSH32 0x8C379A000000000000000000000000000000000000000000000000000000000 DUP2 MSTORE PUSH1 0x4 ADD PUSH2 0x375 SWAP1 PUSH2 0xAB0 JUMP JUMPDEST PUSH1 0x40 MLOAD DUP1 SWAP2 SUB SWAP1 REVERT JUMPDEST PUSH1 0x40 MLOAD DUP1 PUSH1 0x40 ADD PUSH1 0x40 MSTORE DUP1 DUP4 DUP2 MSTORE PUSH1 0x20 ADD DUP3 DUP2 MSTORE POP PUSH1 0x1 PUSH1 0x0 CALLER PUSH20 0xFFFFFFFFFFFFFFFFFFFFFFFFFFFFFFFFFFFFFFFF AND PUSH20 0xFFFFFFFFFFFFFFFFFFFFFFFFFFFFFFFFFFFFFFFF AND DUP2 MSTORE PUSH1 0x20 ADD SWAP1 DUP2 MSTORE PUSH1 0x20 ADD PUSH1 0x0 KECCAK256 DUP4 PUSH1 0x40 MLOAD PUSH2 0x3E0 SWAP2 SWAP1 PUSH2 0x9E3 JUMP JUMPDEST SWAP1 DUP2 MSTORE PUSH1 0x20 ADD PUSH1 0x40 MLOAD DUP1 SWAP2 SUB SWAP1 KECCAK256 PUSH1 0x0 DUP3 ADD MLOAD DUP2 PUSH1 0x0 ADD SWAP1 DUP1 MLOAD SWAP1 PUSH1 0x20 ADD SWAP1 PUSH2 0x40A SWAP3 SWAP2 SWAP1 PUSH2 0x66A JUMP JUMPDEST POP PUSH1 0x20 DUP3 ADD MLOAD DUP2 PUSH1 0x1 ADD SSTORE SWAP1 POP POP PUSH32 0x14D49E3EA4F348B7F368906DFE1A63055C7822D622A61672A35A55AE97A768F9 DUP3 DUP3 PUSH1 0x40 MLOAD PUSH2 0x449 SWAP3 SWAP2 SWAP1 PUSH2 0xA60 JUMP JUMPDEST PUSH1 0x40 MLOAD DUP1 SWAP2 SUB SWAP1 LOG1 POP POP JUMP JUMPDEST PUSH1 0x0 DUP1 PUSH1 0x0 CALLER PUSH20 0xFFFFFFFFFFFFFFFFFFFFFFFFFFFFFFFFFFFFFFFF AND PUSH20 0xFFFFFFFFFFFFFFFFFFFFFFFFFFFFFFFFFFFFFFFF AND DUP2 MSTORE PUSH1 0x20 ADD SWAP1 DUP2 MSTORE PUSH1 0x20 ADD PUSH1 0x0 KECCAK256 SLOAD EQ PUSH2 0x4D6 JUMPI PUSH1 0x40 MLOAD PUSH32 0x8C379A000000000000000000000000000000000000000000000000000000000 DUP2 MSTORE PUSH1 0x4 ADD PUSH2 0x4CD SWAP1 PUSH2 0xA90 JUMP JUMPDEST PUSH1 0x40 MLOAD DUP1 SWAP2 SUB SWAP1 REVERT JUMPDEST DUP1 PUSH1 0x0 DUP1 CALLER PUSH20 0xFFFFFFFFFFFFFFFFFFFFFFFFFFFFFFFFFFFFFFFF AND PUSH20 0xFFFFFFFFFFFFFFFFFFFFFFFFFFFFFFFFFFFFFFFF AND DUP2 MSTORE PUSH1 0x20 ADD SWAP1 DUP2 MSTORE PUSH1 0x20 ADD PUSH1 0x0 KECCAK256 DUP2 SWAP1 SSTORE POP PUSH31 0x7DC6AB80CC84C043B7B8D4FCAFC802187470087F7EA7FCCD2E17AECD0256A1 DUP3 DUP3 PUSH1 0x40 MLOAD PUSH2 0x549 SWAP3 SWAP2 SWAP1 PUSH2 0xA15 JUMP JUMPDEST PUSH1 0x40 MLOAD DUP1 SWAP2 SUB SWAP1 LOG1 POP POP JUMP JUMPDEST PUSH1 0x0 PUSH1 0x20 MSTORE DUP1 PUSH1 0x0 MSTORE PUSH1 0x40 PUSH1 0x0 KECCAK256 PUSH1 0x0 SWAP2 POP SWAP1 POP SLOAD DUP2 JUMP JUMPDEST PUSH1 0x2 DUP1 PUSH1 0x0 ADD DUP1 SLOAD PUSH2 0x57E SWAP1 PUSH2 0xBE6 JUMP JUMPDEST DUP1 PUSH1 0x1F ADD PUSH1 0x20 DUP1 SWAP2 DIV MUL PUSH1 0x20 ADD PUSH1 0x40 MLOAD SWAP1 DUP2 ADD PUSH1 0x40 MSTORE DUP1 SWAP3 SWAP2 SWAP1 DUP2 DUP2 MSTORE PUSH1 0x20 ADD DUP3 DUP1 SLOAD PUSH2 0x5AA SWAP1 PUSH2 0xBE6 JUMP JUMPDEST DUP1 ISZERO PUSH2 0x5F7 JUMPI DUP1 PUSH1 0x1F LT PUSH2 0x5CC JUMPI PUSH2 0x100 DUP1 DUP4 SLOAD DIV MUL DUP4 MSTORE SWAP2 PUSH1 0x20 ADD SWAP2 PUSH2 0x5F7 JUMP JUMPDEST DUP3 ADD SWAP2 SWAP1 PUSH1 0x0 MSTORE PUSH1 0x20 PUSH1 0x0 KECCAK256 SWAP1 JUMPDEST DUP2 SLOAD DUP2 MSTORE SWAP1 PUSH1 0x1 ADD SWAP1 PUSH1 0x20 ADD DUP1 DUP4 GT PUSH2 0x5DA JUMPI DUP3 SWAP1 SUB PUSH1 0x1F AND DUP3 ADD SWAP2 JUMPDEST POP POP POP POP POP SWAP1 DUP1 PUSH1 0x1 ADD SLOAD SWAP1 POP DUP3 JUMP JUMPDEST PUSH1 0x60 PUSH1 0x1 PUSH1 0x0 CALLER PUSH20 0xFFFFFFFFFFFFFFFFFFFFFFFFFFFFFFFFFFFFFFFF AND PUSH20 0xFFFFFFFFFFFFFFFFFFFFFFFFFFFFFFFFFFFFFFFF AND DUP2 MSTORE PUSH1 0x20 ADD SWAP1 DUP2 MSTORE PUSH1 0x20 ADD PUSH1 0x0 KECCAK256 DUP3 PUSH1 0x40 MLOAD PUSH2 0x656 SWAP2 SWAP1 PUSH2 0x9E3 JUMP JUMPDEST SWAP1 DUP2 MSTORE PUSH1 0x20 ADD PUSH1 0x40 MLOAD DUP1 SWAP2 SUB SWAP1 KECCAK256 POP SWAP2 SWAP1 POP JUMP JUMPDEST DUP3 DUP1 SLOAD PUSH2 0x676 SWAP1 PUSH2 0xBE6 JUMP JUMPDEST SWAP1 PUSH1 0x0 MSTORE PUSH1 0x20 PUSH1 0x0 KECCAK256 SWAP1 PUSH1 0x1F ADD PUSH1 0x20 SWAP1 DIV DUP2 ADD SWAP3 DUP3 PUSH2 0x698 JUMPI PUSH1 0x0 DUP6 SSTORE PUSH2 0x6DF JUMP JUMPDEST DUP3 PUSH1 0x1F LT PUSH2 0x6B1 JUMPI DUP1 MLOAD PUSH1 0xFF NOT AND DUP4 DUP1 ADD OR DUP6 SSTORE PUSH2 0x6DF JUMP JUMPDEST DUP3 DUP1 ADD PUSH1 0x1 ADD DUP6 SSTORE DUP3 ISZERO PUSH2 0x6DF JUMPI SWAP2 DUP3 ADD JUMPDEST DUP3 DUP2 GT ISZERO PUSH2 0x6DE JUMPI DUP3 MLOAD DUP3 SSTORE SWAP2 PUSH1 0x20 ADD SWAP2 SWAP1 PUSH1 0x1 ADD SWAP1 PUSH2 0x6C3 JUMP JUMPDEST JUMPDEST POP SWAP1 POP PUSH2 0x6EC SWAP2 SWAP1 PUSH2 0x6F0 JUMP JUMPDEST POP SWAP1 JUMP JUMPDEST JUMPDEST DUP1 DUP3 GT ISZERO PUSH2 0x709 JUMPI PUSH1 0x0 DUP2 PUSH1 0x0 SWAP1 SSTORE POP PUSH1 0x1 ADD PUSH2 0x6F1 JUMP JUMPDEST POP SWAP1 JUMP JUMPDEST PUSH1 0x0 PUSH2 0x720 PUSH2 0x71B DUP5 PUSH2 0xB10 JUMP JUMPDEST PUSH2 0xAEB JUMP JUMPDEST SWAP1 POP DUP3 DUP2 MSTORE PUSH1 0x20 DUP2 ADD DUP5 DUP5 DUP5 ADD GT ISZERO PUSH2 0x73C JUMPI PUSH2 0x73B PUSH2 0xCAC JUMP JUMPDEST JUMPDEST PUSH2 0x747 DUP5 DUP3 DUP6 PUSH2 0xBA4 JUMP JUMPDEST POP SWAP4 SWAP3 POP POP POP JUMP JUMPDEST PUSH1 0x0 DUP2 CALLDATALOAD SWAP1 POP PUSH2 0x75E DUP2 PUSH2 0xD6A JUMP JUMPDEST SWAP3 SWAP2 POP POP JUMP JUMPDEST PUSH1 0x0 DUP3 PUSH1 0x1F DUP4 ADD SLT PUSH2 0x779 JUMPI PUSH2 0x778 PUSH2 0xCA7 JUMP JUMPDEST JUMPDEST DUP2 CALLDATALOAD PUSH2 0x789 DUP5 DUP3 PUSH1 0x20 DUP7 ADD PUSH2 0x70D JUMP JUMPDEST SWAP2 POP POP SWAP3 SWAP2 POP POP JUMP JUMPDEST PUSH1 0x0 DUP2 CALLDATALOAD SWAP1 POP PUSH2 0x7A1 DUP2 PUSH2 0xD81 JUMP JUMPDEST SWAP3 SWAP2 POP POP JUMP JUMPDEST PUSH1 0x0 PUSH1 0x20 DUP3 DUP5 SUB SLT ISZERO PUSH2 0x7BD JUMPI PUSH2 0x7BC PUSH2 0xCB6 JUMP JUMPDEST JUMPDEST PUSH1 0x0 PUSH2 0x7CB DUP5 DUP3 DUP6 ADD PUSH2 0x74F JUMP JUMPDEST SWAP2 POP POP SWAP3 SWAP2 POP POP JUMP JUMPDEST PUSH1 0x0 DUP1 PUSH1 0x40 DUP4 DUP6 SUB SLT ISZERO PUSH2 0x7EB JUMPI PUSH2 0x7EA PUSH2 0xCB6 JUMP JUMPDEST JUMPDEST PUSH1 0x0 PUSH2 0x7F9 DUP6 DUP3 DUP7 ADD PUSH2 0x74F JUMP JUMPDEST SWAP3 POP POP PUSH1 0x20 DUP4 ADD CALLDATALOAD PUSH8 0xFFFFFFFFFFFFFFFF DUP2 GT ISZERO PUSH2 0x81A JUMPI PUSH2 0x819 PUSH2 0xCB1 JUMP JUMPDEST JUMPDEST PUSH2 0x826 DUP6 DUP3 DUP7 ADD PUSH2 0x764 JUMP JUMPDEST SWAP2 POP POP SWAP3 POP SWAP3 SWAP1 POP JUMP JUMPDEST PUSH1 0x0 DUP1 PUSH1 0x40 DUP4 DUP6 SUB SLT ISZERO PUSH2 0x847 JUMPI PUSH2 0x846 PUSH2 0xCB6 JUMP JUMPDEST JUMPDEST PUSH1 0x0 PUSH2 0x855 DUP6 DUP3 DUP7 ADD PUSH2 0x74F JUMP JUMPDEST SWAP3 POP POP PUSH1 0x20 PUSH2 0x866 DUP6 DUP3 DUP7 ADD PUSH2 0x792 JUMP JUMPDEST SWAP2 POP POP SWAP3 POP SWAP3 SWAP1 POP JUMP JUMPDEST PUSH1 0x0 PUSH1 0x20 DUP3 DUP5 SUB SLT ISZERO PUSH2 0x886 JUMPI PUSH2 0x885 PUSH2 0xCB6 JUMP JUMPDEST JUMPDEST PUSH1 0x0 DUP3 ADD CALLDATALOAD PUSH8 0xFFFFFFFFFFFFFFFF DUP2 GT ISZERO PUSH2 0x8A4 JUMPI PUSH2 0x8A3 PUSH2 0xCB1 JUMP JUMPDEST JUMPDEST PUSH2 0x8B0 DUP5 DUP3 DUP6 ADD PUSH2 0x764 JUMP JUMPDEST SWAP2 POP POP SWAP3 SWAP2 POP POP JUMP JUMPDEST PUSH1 0x0 DUP1 PUSH1 0x40 DUP4 DUP6 SUB SLT ISZERO PUSH2 0x8D0 JUMPI PUSH2 0x8CF PUSH2 0xCB6 JUMP JUMPDEST JUMPDEST PUSH1 0x0 DUP4 ADD CALLDATALOAD PUSH8 0xFFFFFFFFFFFFFFFF DUP2 GT ISZERO PUSH2 0x8EE JUMPI PUSH2 0x8ED PUSH2 0xCB1 JUMP JUMPDEST JUMPDEST PUSH2 0x8FA DUP6 DUP3 DUP7 ADD PUSH2 0x764 JUMP JUMPDEST SWAP3 POP POP PUSH1 0x20 PUSH2 0x90B DUP6 DUP3 DUP7 ADD PUSH2 0x792 JUMP JUMPDEST SWAP2 POP POP SWAP3 POP SWAP3 SWAP1 POP JUMP JUMPDEST PUSH2 0x91E DUP2 PUSH2 0xB68 JUMP JUMPDEST DUP3 MSTORE POP POP JUMP JUMPDEST PUSH1 0x0 PUSH2 0x92F DUP3 PUSH2 0xB41 JUMP JUMPDEST PUSH2 0x939 DUP2 DUP6 PUSH2 0xB4C JUMP JUMPDEST SWAP4 POP PUSH2 0x949 DUP2 DUP6 PUSH1 0x20 DUP7 ADD PUSH2 0xBB3 JUMP JUMPDEST PUSH2 0x952 DUP2 PUSH2 0xCBB JUMP JUMPDEST DUP5 ADD SWAP2 POP POP SWAP3 SWAP2 POP POP JUMP JUMPDEST PUSH1 0x0 PUSH2 0x968 DUP3 PUSH2 0xB41 JUMP JUMPDEST PUSH2 0x972 DUP2 DUP6 PUSH2 0xB5D JUMP JUMPDEST SWAP4 POP PUSH2 0x982 DUP2 DUP6 PUSH1 0x20 DUP7 ADD PUSH2 0xBB3 JUMP JUMPDEST DUP1 DUP5 ADD SWAP2 POP POP SWAP3 SWAP2 POP POP JUMP JUMPDEST PUSH1 0x0 PUSH2 0x99B PUSH1 0x25 DUP4 PUSH2 0xB4C JUMP JUMPDEST SWAP2 POP PUSH2 0x9A6 DUP3 PUSH2 0xCCC JUMP JUMPDEST PUSH1 0x40 DUP3 ADD SWAP1 POP SWAP2 SWAP1 POP JUMP JUMPDEST PUSH1 0x0 PUSH2 0x9BE PUSH1 0x30 DUP4 PUSH2 0xB4C JUMP JUMPDEST SWAP2 POP PUSH2 0x9C9 DUP3 PUSH2 0xD1B JUMP JUMPDEST PUSH1 0x40 DUP3 ADD SWAP1 POP SWAP2 SWAP1 POP JUMP JUMPDEST PUSH2 0x9DD DUP2 PUSH2 0xB9A JUMP JUMPDEST DUP3 MSTORE POP POP JUMP JUMPDEST PUSH1 0x0 PUSH2 0x9EF DUP3 DUP5 PUSH2 0x95D JUMP JUMPDEST SWAP2 POP DUP2 SWAP1 POP SWAP3 SWAP2 POP POP JUMP JUMPDEST PUSH1 0x0 PUSH1 0x20 DUP3 ADD SWAP1 POP PUSH2 0xA0F PUSH1 0x0 DUP4 ADD DUP5 PUSH2 0x915 JUMP JUMPDEST SWAP3 SWAP2 POP POP JUMP JUMPDEST PUSH1 0x0 PUSH1 0x40 DUP3 ADD SWAP1 POP PUSH2 0xA2A PUSH1 0x0 DUP4 ADD DUP6 PUSH2 0x915 JUMP JUMPDEST PUSH2 0xA37 PUSH1 0x20 DUP4 ADD DUP5 PUSH2 0x9D4 JUMP JUMPDEST SWAP4 SWAP3 POP POP POP JUMP JUMPDEST PUSH1 0x0 PUSH1 0x20 DUP3 ADD SWAP1 POP DUP2 DUP2 SUB PUSH1 0x0 DUP4 ADD MSTORE PUSH2 0xA58 DUP2 DUP5 PUSH2 0x924 JUMP JUMPDEST SWAP1 POP SWAP3 SWAP2 POP POP JUMP JUMPDEST PUSH1 0x0 PUSH1 0x40 DUP3 ADD SWAP1 POP DUP2 DUP2 SUB PUSH1 0x0 DUP4 ADD MSTORE PUSH2 0xA7A DUP2 DUP6 PUSH2 0x924 JUMP JUMPDEST SWAP1 POP PUSH2 0xA89 PUSH1 0x20 DUP4 ADD DUP5 PUSH2 0x9D4 JUMP JUMPDEST SWAP4 SWAP3 POP POP POP JUMP JUMPDEST PUSH1 0x0 PUSH1 0x20 DUP3 ADD SWAP1 POP DUP2 DUP2 SUB PUSH1 0x0 DUP4 ADD MSTORE PUSH2 0xAA9 DUP2 PUSH2 0x98E JUMP JUMPDEST SWAP1 POP SWAP2 SWAP1 POP JUMP JUMPDEST PUSH1 0x0 PUSH1 0x20 DUP3 ADD SWAP1 POP DUP2 DUP2 SUB PUSH1 0x0 DUP4 ADD MSTORE PUSH2 0xAC9 DUP2 PUSH2 0x9B1 JUMP JUMPDEST SWAP1 POP SWAP2 SWAP1 POP JUMP JUMPDEST PUSH1 0x0 PUSH1 0x20 DUP3 ADD SWAP1 POP PUSH2 0xAE5 PUSH1 0x0 DUP4 ADD DUP5 PUSH2 0x9D4 JUMP JUMPDEST SWAP3 SWAP2 POP POP JUMP JUMPDEST PUSH1 0x0 PUSH2 0xAF5 PUSH2 0xB06 JUMP JUMPDEST SWAP1 POP PUSH2 0xB01 DUP3 DUP3 PUSH2 0xC18 JUMP JUMPDEST SWAP2 SWAP1 POP JUMP JUMPDEST PUSH1 0x0 PUSH1 0x40 MLOAD SWAP1 POP SWAP1 JUMP JUMPDEST PUSH1 0x0 PUSH8 0xFFFFFFFFFFFFFFFF DUP3 GT ISZERO PUSH2 0xB2B JUMPI PUSH2 0xB2A PUSH2 0xC78 JUMP JUMPDEST JUMPDEST PUSH2 0xB34 DUP3 PUSH2 0xCBB JUMP JUMPDEST SWAP1 POP PUSH1 0x20 DUP2 ADD SWAP1 POP SWAP2 SWAP1 POP JUMP JUMPDEST PUSH1 0x0 DUP2 MLOAD SWAP1 POP SWAP2 SWAP1 POP JUMP JUMPDEST PUSH1 0x0 DUP3 DUP3 MSTORE PUSH1 0x20 DUP3 ADD SWAP1 POP SWAP3 SWAP2 POP POP JUMP JUMPDEST PUSH1 0x0 DUP2 SWAP1 POP SWAP3 SWAP2 POP POP JUMP JUMPDEST PUSH1 0x0 PUSH2 0xB73 DUP3 PUSH2 0xB7A JUMP JUMPDEST SWAP1 POP SWAP2 SWAP1 POP JUMP JUMPDEST PUSH1 0x0 PUSH20 0xFFFFFFFFFFFFFFFFFFFFFFFFFFFFFFFFFFFFFFFF DUP3 AND SWAP1 POP SWAP2 SWAP1 POP JUMP JUMPDEST PUSH1 0x0 DUP2 SWAP1 POP SWAP2 SWAP1 POP JUMP JUMPDEST DUP3 DUP2 DUP4 CALLDATACOPY PUSH1 0x0 DUP4 DUP4 ADD MSTORE POP POP POP JUMP JUMPDEST PUSH1 0x0 JUMPDEST DUP4 DUP2 LT ISZERO PUSH2 0xBD1 JUMPI DUP1 DUP3 ADD MLOAD DUP2 DUP5 ADD MSTORE PUSH1 0x20 DUP2 ADD SWAP1 POP PUSH2 0xBB6 JUMP JUMPDEST DUP4 DUP2 GT ISZERO PUSH2 0xBE0 JUMPI PUSH1 0x0 DUP5 DUP5 ADD MSTORE JUMPDEST POP POP POP POP JUMP JUMPDEST PUSH1 0x0 PUSH1 0x2 DUP3 DIV SWAP1 POP PUSH1 0x1 DUP3 AND DUP1 PUSH2 0xBFE JUMPI PUSH1 0x7F DUP3 AND SWAP2 POP JUMPDEST PUSH1 0x20 DUP3 LT DUP2 EQ ISZERO PUSH2 0xC12 JUMPI PUSH2 0xC11 PUSH2 0xC49 JUMP JUMPDEST JUMPDEST POP SWAP2 SWAP1 POP JUMP JUMPDEST PUSH2 0xC21 DUP3 PUSH2 0xCBB JUMP JUMPDEST DUP2 ADD DUP2 DUP2 LT PUSH8 0xFFFFFFFFFFFFFFFF DUP3 GT OR ISZERO PUSH2 0xC40 JUMPI PUSH2 0xC3F PUSH2 0xC78 JUMP JUMPDEST JUMPDEST DUP1 PUSH1 0x40 MSTORE POP POP POP JUMP JUMPDEST PUSH32 0x4E487B7100000000000000000000000000000000000000000000000000000000 PUSH1 0x0 MSTORE PUSH1 0x22 PUSH1 0x4 MSTORE PUSH1 0x24 PUSH1 0x0 REVERT JUMPDEST PUSH32 0x4E487B7100000000000000000000000000000000000000000000000000000000 PUSH1 0x0 MSTORE PUSH1 0x41 PUSH1 0x4 MSTORE PUSH1 0x24 PUSH1 0x0 REVERT JUMPDEST PUSH1 0x0 DUP1 REVERT JUMPDEST PUSH1 0x0 DUP1 REVERT JUMPDEST PUSH1 0x0 DUP1 REVERT JUMPDEST PUSH1 0x0 DUP1 REVERT JUMPDEST PUSH1 0x0 PUSH1 0x1F NOT PUSH1 0x1F DUP4 ADD AND SWAP1 POP SWAP2 SWAP1 POP JUMP JUMPDEST PUSH32 0x596120746520656E6375656E74726173207265676973747261646F20656E2065 PUSH1 0x0 DUP3 ADD MSTORE PUSH32 0x6C2067796D000000000000000000000000000000000000000000000000000000 PUSH1 0x20 DUP3 ADD MSTORE POP JUMP JUMPDEST PUSH32 0x536F6C6F20656C2041646D696E6973747261646F722064656C2047796D207075 PUSH1 0x0 DUP3 ADD MSTORE PUSH32 0x65646520637265617220636C6173657300000000000000000000000000000000 PUSH1 0x20 DUP3 ADD MSTORE POP JUMP JUMPDEST PUSH2 0xD73 DUP2 PUSH2 0xB68 JUMP JUMPDEST DUP2 EQ PUSH2 0xD7E JUMPI PUSH1 0x0 DUP1 REVERT JUMPDEST POP JUMP JUMPDEST PUSH2 0xD8A DUP2 PUSH2 0xB9A JUMP JUMPDEST DUP2 EQ PUSH2 0xD95 JUMPI PUSH1 0x0 DUP1 REVERT JUMPDEST POP JUMP INVALID LOG2 PUSH5 0x6970667358 0x22 SLT KECCAK256 CALLDATACOPY 0x24 SWAP14 SWAP9 0x2E CALLDATACOPY ISZERO PUSH6 0x12B7A1965418 0xE3 0xB5 NUMBER CALLVALUE DIFFICULTY SWAP13 SWAP8 SWAP8 0xFC 0x5D 0xEC BLOCKHASH 0xD0 SWAP15 BLOCKHASH DUP9 0x2B 0x4D PUSH5 0x736F6C6343 STOP ADDMOD SMOD STOP CALLER "
				},
				"gasEstimates": {
					"creation": {
						"codeDepositCost": "706800",
						"executionCost": "infinite",
						"totalCost": "infinite"
					},
					"external": {
						"ADMIN()": "infinite",
						"clases(address,string)": "infinite",
						"class()": "infinite",
						"createClass(string,uint256)": "infinite",
						"getBalance()": "2711",
						"getClass(string)": "infinite",
						"register(address,uint256)": "infinite",
						"users(address)": "2836"
					}
				},
				"methodIdentifiers": {
					"ADMIN()": "2a0acc6a",
					"clases(address,string)": "035af4ca",
					"class()": "bff852fa",
					"createClass(string,uint256)": "4852a212",
					"getBalance()": "12065fe0",
					"getClass(string)": "e92761b6",
					"register(address,uint256)": "6d705ebb",
					"users(address)": "a87430ba"
				}
			},
			"storageLayout": {
				"storage": [
					{
						"astId": 33,
						"contract": "contracts/Gym_Contact.sol:gym",
						"label": "users",
						"offset": 0,
						"slot": "0",
						"type": "t_mapping(t_address,t_uint256)"
					},
					{
						"astId": 40,
						"contract": "contracts/Gym_Contact.sol:gym",
						"label": "clases",
						"offset": 0,
						"slot": "1",
						"type": "t_mapping(t_address,t_mapping(t_string_memory_ptr,t_struct(Class)6_storage))"
					},
					{
						"astId": 43,
						"contract": "contracts/Gym_Contact.sol:gym",
						"label": "class",
						"offset": 0,
						"slot": "2",
						"type": "t_struct(Class)6_storage"
					}
				],
				"types": {
					"t_address": {
						"encoding": "inplace",
						"label": "address",
						"numberOfBytes": "20"
					},
					"t_mapping(t_address,t_mapping(t_string_memory_ptr,t_struct(Class)6_storage))": {
						"encoding": "mapping",
						"key": "t_address",
						"label": "mapping(address => mapping(string => struct gym.Class))",
						"numberOfBytes": "32",
						"value": "t_mapping(t_string_memory_ptr,t_struct(Class)6_storage)"
					},
					"t_mapping(t_address,t_uint256)": {
						"encoding": "mapping",
						"key": "t_address",
						"label": "mapping(address => uint256)",
						"numberOfBytes": "32",
						"value": "t_uint256"
					},
					"t_mapping(t_string_memory_ptr,t_struct(Class)6_storage)": {
						"encoding": "mapping",
						"key": "t_string_memory_ptr",
						"label": "mapping(string => struct gym.Class)",
						"numberOfBytes": "32",
						"value": "t_struct(Class)6_storage"
					},
					"t_string_memory_ptr": {
						"encoding": "bytes",
						"label": "string",
						"numberOfBytes": "32"
					},
					"t_string_storage": {
						"encoding": "bytes",
						"label": "string",
						"numberOfBytes": "32"
					},
					"t_struct(Class)6_storage": {
						"encoding": "inplace",
						"label": "struct gym.Class",
						"members": [
							{
								"astId": 3,
								"contract": "contracts/Gym_Contact.sol:gym",
								"label": "name",
								"offset": 0,
								"slot": "0",
								"type": "t_string_storage"
							},
							{
								"astId": 5,
								"contract": "contracts/Gym_Contact.sol:gym",
								"label": "value",
								"offset": 0,
								"slot": "1",
								"type": "t_uint256"
							}
						],
						"numberOfBytes": "64"
					},
					"t_uint256": {
						"encoding": "inplace",
						"label": "uint256",
						"numberOfBytes": "32"
					}
				}
			},
			"userdoc": {
				"kind": "user",
				"methods": {},
				"version": 1
			}
		}
	}
}