{
	"contracts/Gym_Contact.sol": {
		"gym": {
			"abi": [
				{
					"inputs": [],
					"stateMutability": "nonpayable",
					"type": "constructor"
				},
				{
					"anonymous": false,
					"inputs": [
						{
							"indexed": false,
							"internalType": "string",
							"name": "name",
							"type": "string"
						},
						{
							"indexed": false,
							"internalType": "uint256",
							"name": "value",
							"type": "uint256"
						}
					],
					"name": "ClassCreated",
					"type": "event"
				},
				{
					"anonymous": false,
					"inputs": [
						{
							"indexed": false,
							"internalType": "address",
							"name": "user",
							"type": "address"
						},
						{
							"indexed": false,
							"internalType": "uint256",
							"name": "credits",
							"type": "uint256"
						}
					],
					"name": "Register",
					"type": "event"
				},
				{
					"inputs": [],
					"name": "ADMIN",
					"outputs": [
						{
							"internalType": "address",
							"name": "",
							"type": "address"
						}
					],
					"stateMutability": "view",
					"type": "function"
				},
				{
					"inputs": [
						{
							"internalType": "uint256",
							"name": "",
							"type": "uint256"
						}
					],
					"name": "class",
					"outputs": [
						{
							"internalType": "uint256",
							"name": "id",
							"type": "uint256"
						},
						{
							"internalType": "string",
							"name": "name",
							"type": "string"
						},
						{
							"internalType": "uint256",
							"name": "value",
							"type": "uint256"
						}
					],
					"stateMutability": "view",
					"type": "function"
				},
				{
					"inputs": [
						{
							"components": [
								{
									"internalType": "uint256",
									"name": "id",
									"type": "uint256"
								},
								{
									"internalType": "string",
									"name": "name",
									"type": "string"
								},
								{
									"internalType": "uint256",
									"name": "value",
									"type": "uint256"
								}
							],
							"internalType": "struct gym.Class",
							"name": "_newClass",
							"type": "tuple"
						}
					],
					"name": "createClass",
					"outputs": [],
					"stateMutability": "nonpayable",
					"type": "function"
				},
				{
					"inputs": [],
					"name": "getBalance",
					"outputs": [
						{
							"internalType": "address",
							"name": "",
							"type": "address"
						},
						{
							"internalType": "uint256",
							"name": "",
							"type": "uint256"
						}
					],
					"stateMutability": "view",
					"type": "function"
				},
				{
					"inputs": [
						{
							"internalType": "address",
							"name": "_address",
							"type": "address"
						},
						{
							"internalType": "uint256",
							"name": "_credits",
							"type": "uint256"
						}
					],
					"name": "register",
					"outputs": [],
					"stateMutability": "nonpayable",
					"type": "function"
				},
				{
					"inputs": [
						{
							"internalType": "address",
							"name": "",
							"type": "address"
						}
					],
					"name": "users",
					"outputs": [
						{
							"internalType": "uint256",
							"name": "",
							"type": "uint256"
						}
					],
					"stateMutability": "view",
					"type": "function"
				}
			],
			"devdoc": {
				"kind": "dev",
				"methods": {},
				"version": 1
			},
			"evm": {
				"assembly": "    /* \"contracts/Gym_Contact.sol\":70:1734  contract gym {\r... */\n  mstore(0x40, 0xa0)\n    /* \"contracts/Gym_Contact.sol\":407:458  constructor() {\r... */\n  callvalue\n  dup1\n  iszero\n  tag_1\n  jumpi\n  0x00\n  dup1\n  revert\ntag_1:\n  pop\n    /* \"contracts/Gym_Contact.sol\":440:450  msg.sender */\n  caller\n    /* \"contracts/Gym_Contact.sol\":432:450  ADMIN = msg.sender */\n  0xffffffffffffffffffffffffffffffffffffffff\n  and\n  0x80\n  dup2\n  0xffffffffffffffffffffffffffffffffffffffff\n  and\n  0x60\n  shl\n  dup2\n  mstore\n  pop\n  pop\n    /* \"contracts/Gym_Contact.sol\":70:1734  contract gym {\r... */\n  shr(0x60, mload(0x80))\n  codecopy(0x00, dataOffset(sub_0), dataSize(sub_0))\n  0x00\n  assignImmutable(\"0xd4d1a59767271eefdc7830a772b9732a11d503531d972ab8c981a6b1c0e666e5\")\n  return(0x00, dataSize(sub_0))\nstop\n\nsub_0: assembly {\n        /* \"contracts/Gym_Contact.sol\":70:1734  contract gym {\r... */\n      mstore(0x40, 0x80)\n      callvalue\n      dup1\n      iszero\n      tag_1\n      jumpi\n      0x00\n      dup1\n      revert\n    tag_1:\n      pop\n      jumpi(tag_2, lt(calldatasize, 0x04))\n      shr(0xe0, calldataload(0x00))\n      dup1\n      0x12065fe0\n      eq\n      tag_3\n      jumpi\n      dup1\n      0x2a0acc6a\n      eq\n      tag_4\n      jumpi\n      dup1\n      0x3613a9f4\n      eq\n      tag_5\n      jumpi\n      dup1\n      0x6d705ebb\n      eq\n      tag_6\n      jumpi\n      dup1\n      0xa2838751\n      eq\n      tag_7\n      jumpi\n      dup1\n      0xa87430ba\n      eq\n      tag_8\n      jumpi\n    tag_2:\n      0x00\n      dup1\n      revert\n        /* \"contracts/Gym_Contact.sol\":1400:1513  function getBalance() public view returns(address, uint){\r... */\n    tag_3:\n      tag_9\n      tag_10\n      jump\t// in\n    tag_9:\n      mload(0x40)\n      tag_11\n      swap3\n      swap2\n      swap1\n      tag_12\n      jump\t// in\n    tag_11:\n      mload(0x40)\n      dup1\n      swap2\n      sub\n      swap1\n      return\n        /* \"contracts/Gym_Contact.sol\":368:398  address immutable public ADMIN */\n    tag_4:\n      tag_13\n      tag_14\n      jump\t// in\n    tag_13:\n      mload(0x40)\n      tag_15\n      swap2\n      swap1\n      tag_16\n      jump\t// in\n    tag_15:\n      mload(0x40)\n      dup1\n      swap2\n      sub\n      swap1\n      return\n        /* \"contracts/Gym_Contact.sol\":734:754  Class[] public class */\n    tag_5:\n      tag_17\n      0x04\n      dup1\n      calldatasize\n      sub\n      dup2\n      add\n      swap1\n      tag_18\n      swap2\n      swap1\n      tag_19\n      jump\t// in\n    tag_18:\n      tag_20\n      jump\t// in\n    tag_17:\n      mload(0x40)\n      tag_21\n      swap4\n      swap3\n      swap2\n      swap1\n      tag_22\n      jump\t// in\n    tag_21:\n      mload(0x40)\n      dup1\n      swap2\n      sub\n      swap1\n      return\n        /* \"contracts/Gym_Contact.sol\":1006:1392  function register(address _address, uint _credits) public {\r... */\n    tag_6:\n      tag_23\n      0x04\n      dup1\n      calldatasize\n      sub\n      dup2\n      add\n      swap1\n      tag_24\n      swap2\n      swap1\n      tag_25\n      jump\t// in\n    tag_24:\n      tag_26\n      jump\t// in\n    tag_23:\n      stop\n        /* \"contracts/Gym_Contact.sol\":794:968  function createClass(Class memory _newClass) public {\r... */\n    tag_7:\n      tag_27\n      0x04\n      dup1\n      calldatasize\n      sub\n      dup2\n      add\n      swap1\n      tag_28\n      swap2\n      swap1\n      tag_29\n      jump\t// in\n    tag_28:\n      tag_30\n      jump\t// in\n    tag_27:\n      stop\n        /* \"contracts/Gym_Contact.sol\":482:519  mapping(address => uint) public users */\n    tag_8:\n      tag_31\n      0x04\n      dup1\n      calldatasize\n      sub\n      dup2\n      add\n      swap1\n      tag_32\n      swap2\n      swap1\n      tag_33\n      jump\t// in\n    tag_32:\n      tag_34\n      jump\t// in\n    tag_31:\n      mload(0x40)\n      tag_35\n      swap2\n      swap1\n      tag_36\n      jump\t// in\n    tag_35:\n      mload(0x40)\n      dup1\n      swap2\n      sub\n      swap1\n      return\n        /* \"contracts/Gym_Contact.sol\":1400:1513  function getBalance() public view returns(address, uint){\r... */\n    tag_10:\n        /* \"contracts/Gym_Contact.sol\":1442:1449  address */\n      0x00\n        /* \"contracts/Gym_Contact.sol\":1451:1455  uint */\n      dup1\n        /* \"contracts/Gym_Contact.sol\":1475:1485  msg.sender */\n      caller\n        /* \"contracts/Gym_Contact.sol\":1487:1492  users */\n      0x00\n        /* \"contracts/Gym_Contact.sol\":1487:1504  users[msg.sender] */\n      dup1\n        /* \"contracts/Gym_Contact.sol\":1493:1503  msg.sender */\n      caller\n        /* \"contracts/Gym_Contact.sol\":1487:1504  users[msg.sender] */\n      0xffffffffffffffffffffffffffffffffffffffff\n      and\n      0xffffffffffffffffffffffffffffffffffffffff\n      and\n      dup2\n      mstore\n      0x20\n      add\n      swap1\n      dup2\n      mstore\n      0x20\n      add\n      0x00\n      keccak256\n      sload\n        /* \"contracts/Gym_Contact.sol\":1467:1505  return (msg.sender, users[msg.sender]) */\n      swap2\n      pop\n      swap2\n      pop\n        /* \"contracts/Gym_Contact.sol\":1400:1513  function getBalance() public view returns(address, uint){\r... */\n      swap1\n      swap2\n      jump\t// out\n        /* \"contracts/Gym_Contact.sol\":368:398  address immutable public ADMIN */\n    tag_14:\n      immutable(\"0xd4d1a59767271eefdc7830a772b9732a11d503531d972ab8c981a6b1c0e666e5\")\n      dup2\n      jump\t// out\n        /* \"contracts/Gym_Contact.sol\":734:754  Class[] public class */\n    tag_20:\n      0x01\n      dup2\n      dup2\n      sload\n      dup2\n      lt\n      tag_38\n      jumpi\n      0x00\n      dup1\n      revert\n    tag_38:\n      swap1\n      0x00\n      mstore\n      keccak256(0x00, 0x20)\n      swap1\n      0x03\n      mul\n      add\n      0x00\n      swap2\n      pop\n      swap1\n      pop\n      dup1\n      0x00\n      add\n      sload\n      swap1\n      dup1\n      0x01\n      add\n      dup1\n      sload\n      tag_40\n      swap1\n      tag_41\n      jump\t// in\n    tag_40:\n      dup1\n      0x1f\n      add\n      0x20\n      dup1\n      swap2\n      div\n      mul\n      0x20\n      add\n      mload(0x40)\n      swap1\n      dup2\n      add\n      0x40\n      mstore\n      dup1\n      swap3\n      swap2\n      swap1\n      dup2\n      dup2\n      mstore\n      0x20\n      add\n      dup3\n      dup1\n      sload\n      tag_42\n      swap1\n      tag_41\n      jump\t// in\n    tag_42:\n      dup1\n      iszero\n      tag_43\n      jumpi\n      dup1\n      0x1f\n      lt\n      tag_44\n      jumpi\n      0x0100\n      dup1\n      dup4\n      sload\n      div\n      mul\n      dup4\n      mstore\n      swap2\n      0x20\n      add\n      swap2\n      jump(tag_43)\n    tag_44:\n      dup3\n      add\n      swap2\n      swap1\n      0x00\n      mstore\n      keccak256(0x00, 0x20)\n      swap1\n    tag_45:\n      dup2\n      sload\n      dup2\n      mstore\n      swap1\n      0x01\n      add\n      swap1\n      0x20\n      add\n      dup1\n      dup4\n      gt\n      tag_45\n      jumpi\n      dup3\n      swap1\n      sub\n      0x1f\n      and\n      dup3\n      add\n      swap2\n    tag_43:\n      pop\n      pop\n      pop\n      pop\n      pop\n      swap1\n      dup1\n      0x02\n      add\n      sload\n      swap1\n      pop\n      dup4\n      jump\t// out\n        /* \"contracts/Gym_Contact.sol\":1006:1392  function register(address _address, uint _credits) public {\r... */\n    tag_26:\n        /* \"contracts/Gym_Contact.sol\":1207:1208  0 */\n      0x00\n        /* \"contracts/Gym_Contact.sol\":1186:1191  users */\n      dup1\n        /* \"contracts/Gym_Contact.sol\":1186:1203  users[msg.sender] */\n      0x00\n        /* \"contracts/Gym_Contact.sol\":1192:1202  msg.sender */\n      caller\n        /* \"contracts/Gym_Contact.sol\":1186:1203  users[msg.sender] */\n      0xffffffffffffffffffffffffffffffffffffffff\n      and\n      0xffffffffffffffffffffffffffffffffffffffff\n      and\n      dup2\n      mstore\n      0x20\n      add\n      swap1\n      dup2\n      mstore\n      0x20\n      add\n      0x00\n      keccak256\n      sload\n        /* \"contracts/Gym_Contact.sol\":1186:1208  users[msg.sender] == 0 */\n      eq\n        /* \"contracts/Gym_Contact.sol\":1178:1250  require(users[msg.sender] == 0, \"Ya te encuentras registrado en el gym\") */\n      tag_47\n      jumpi\n      mload(0x40)\n      0x08c379a000000000000000000000000000000000000000000000000000000000\n      dup2\n      mstore\n      0x04\n      add\n      tag_48\n      swap1\n      tag_49\n      jump\t// in\n    tag_48:\n      mload(0x40)\n      dup1\n      swap2\n      sub\n      swap1\n      revert\n    tag_47:\n        /* \"contracts/Gym_Contact.sol\":1281:1289  _credits */\n      dup1\n        /* \"contracts/Gym_Contact.sol\":1261:1266  users */\n      0x00\n        /* \"contracts/Gym_Contact.sol\":1261:1278  users[msg.sender] */\n      dup1\n        /* \"contracts/Gym_Contact.sol\":1267:1277  msg.sender */\n      caller\n        /* \"contracts/Gym_Contact.sol\":1261:1278  users[msg.sender] */\n      0xffffffffffffffffffffffffffffffffffffffff\n      and\n      0xffffffffffffffffffffffffffffffffffffffff\n      and\n      dup2\n      mstore\n      0x20\n      add\n      swap1\n      dup2\n      mstore\n      0x20\n      add\n      0x00\n      keccak256\n        /* \"contracts/Gym_Contact.sol\":1261:1289  users[msg.sender] = _credits */\n      dup2\n      swap1\n      sstore\n      pop\n        /* \"contracts/Gym_Contact.sol\":1305:1333  Register(_address, _credits) */\n      0x7dc6ab80cc84c043b7b8d4fcafc802187470087f7ea7fccd2e17aecd0256a1\n        /* \"contracts/Gym_Contact.sol\":1314:1322  _address */\n      dup3\n        /* \"contracts/Gym_Contact.sol\":1324:1332  _credits */\n      dup3\n        /* \"contracts/Gym_Contact.sol\":1305:1333  Register(_address, _credits) */\n      mload(0x40)\n      tag_50\n      swap3\n      swap2\n      swap1\n      tag_12\n      jump\t// in\n    tag_50:\n      mload(0x40)\n      dup1\n      swap2\n      sub\n      swap1\n      log1\n        /* \"contracts/Gym_Contact.sol\":1006:1392  function register(address _address, uint _credits) public {\r... */\n      pop\n      pop\n      jump\t// out\n        /* \"contracts/Gym_Contact.sol\":794:968  function createClass(Class memory _newClass) public {\r... */\n    tag_30:\n        /* \"contracts/Gym_Contact.sol\":874:884  msg.sender */\n      caller\n        /* \"contracts/Gym_Contact.sol\":865:884  ADMIN == msg.sender */\n      0xffffffffffffffffffffffffffffffffffffffff\n      and\n        /* \"contracts/Gym_Contact.sol\":865:870  ADMIN */\n      immutable(\"0xd4d1a59767271eefdc7830a772b9732a11d503531d972ab8c981a6b1c0e666e5\")\n        /* \"contracts/Gym_Contact.sol\":865:884  ADMIN == msg.sender */\n      0xffffffffffffffffffffffffffffffffffffffff\n      and\n      eq\n        /* \"contracts/Gym_Contact.sol\":857:937  require(ADMIN == msg.sender, \"Solo el Administrador del Gym puede crear clases\") */\n      tag_52\n      jumpi\n      mload(0x40)\n      0x08c379a000000000000000000000000000000000000000000000000000000000\n      dup2\n      mstore\n      0x04\n      add\n      tag_53\n      swap1\n      tag_54\n      jump\t// in\n    tag_53:\n      mload(0x40)\n      dup1\n      swap2\n      sub\n      swap1\n      revert\n    tag_52:\n        /* \"contracts/Gym_Contact.sol\":948:953  class */\n      0x01\n        /* \"contracts/Gym_Contact.sol\":948:960  class.push() */\n      dup1\n      dup2\n      0x01\n      dup2\n      sload\n      add\n      dup1\n      dup3\n      sstore\n      dup1\n      swap2\n      pop\n      pop\n      sub\n      swap1\n      0x00\n      mstore\n      keccak256(0x00, 0x20)\n      swap1\n      pop\n      pop\n        /* \"contracts/Gym_Contact.sol\":794:968  function createClass(Class memory _newClass) public {\r... */\n      pop\n      jump\t// out\n        /* \"contracts/Gym_Contact.sol\":482:519  mapping(address => uint) public users */\n    tag_34:\n      mstore(0x20, 0x00)\n      dup1\n      0x00\n      mstore\n      keccak256(0x00, 0x40)\n      0x00\n      swap2\n      pop\n      swap1\n      pop\n      sload\n      dup2\n      jump\t// out\n        /* \"#utility.yul\":7:419   */\n    tag_57:\n        /* \"#utility.yul\":85:90   */\n      0x00\n        /* \"#utility.yul\":110:176   */\n      tag_59\n        /* \"#utility.yul\":126:175   */\n      tag_60\n        /* \"#utility.yul\":168:174   */\n      dup5\n        /* \"#utility.yul\":126:175   */\n      tag_61\n      jump\t// in\n    tag_60:\n        /* \"#utility.yul\":110:176   */\n      tag_62\n      jump\t// in\n    tag_59:\n        /* \"#utility.yul\":101:176   */\n      swap1\n      pop\n        /* \"#utility.yul\":199:205   */\n      dup3\n        /* \"#utility.yul\":192:197   */\n      dup2\n        /* \"#utility.yul\":185:206   */\n      mstore\n        /* \"#utility.yul\":237:241   */\n      0x20\n        /* \"#utility.yul\":230:235   */\n      dup2\n        /* \"#utility.yul\":226:242   */\n      add\n        /* \"#utility.yul\":275:278   */\n      dup5\n        /* \"#utility.yul\":266:272   */\n      dup5\n        /* \"#utility.yul\":261:264   */\n      dup5\n        /* \"#utility.yul\":257:273   */\n      add\n        /* \"#utility.yul\":254:279   */\n      gt\n        /* \"#utility.yul\":251:363   */\n      iszero\n      tag_63\n      jumpi\n        /* \"#utility.yul\":282:361   */\n      tag_64\n      tag_65\n      jump\t// in\n    tag_64:\n        /* \"#utility.yul\":251:363   */\n    tag_63:\n        /* \"#utility.yul\":372:413   */\n      tag_66\n        /* \"#utility.yul\":406:412   */\n      dup5\n        /* \"#utility.yul\":401:404   */\n      dup3\n        /* \"#utility.yul\":396:399   */\n      dup6\n        /* \"#utility.yul\":372:413   */\n      tag_67\n      jump\t// in\n    tag_66:\n        /* \"#utility.yul\":91:419   */\n      pop\n        /* \"#utility.yul\":7:419   */\n      swap4\n      swap3\n      pop\n      pop\n      pop\n      jump\t// out\n        /* \"#utility.yul\":425:564   */\n    tag_68:\n        /* \"#utility.yul\":471:476   */\n      0x00\n        /* \"#utility.yul\":509:515   */\n      dup2\n        /* \"#utility.yul\":496:516   */\n      calldataload\n        /* \"#utility.yul\":487:516   */\n      swap1\n      pop\n        /* \"#utility.yul\":525:558   */\n      tag_70\n        /* \"#utility.yul\":552:557   */\n      dup2\n        /* \"#utility.yul\":525:558   */\n      tag_71\n      jump\t// in\n    tag_70:\n        /* \"#utility.yul\":425:564   */\n      swap3\n      swap2\n      pop\n      pop\n      jump\t// out\n        /* \"#utility.yul\":584:924   */\n    tag_72:\n        /* \"#utility.yul\":640:645   */\n      0x00\n        /* \"#utility.yul\":689:692   */\n      dup3\n        /* \"#utility.yul\":682:686   */\n      0x1f\n        /* \"#utility.yul\":674:680   */\n      dup4\n        /* \"#utility.yul\":670:687   */\n      add\n        /* \"#utility.yul\":666:693   */\n      slt\n        /* \"#utility.yul\":656:778   */\n      tag_74\n      jumpi\n        /* \"#utility.yul\":697:776   */\n      tag_75\n      tag_76\n      jump\t// in\n    tag_75:\n        /* \"#utility.yul\":656:778   */\n    tag_74:\n        /* \"#utility.yul\":814:820   */\n      dup2\n        /* \"#utility.yul\":801:821   */\n      calldataload\n        /* \"#utility.yul\":839:918   */\n      tag_77\n        /* \"#utility.yul\":914:917   */\n      dup5\n        /* \"#utility.yul\":906:912   */\n      dup3\n        /* \"#utility.yul\":899:903   */\n      0x20\n        /* \"#utility.yul\":891:897   */\n      dup7\n        /* \"#utility.yul\":887:904   */\n      add\n        /* \"#utility.yul\":839:918   */\n      tag_57\n      jump\t// in\n    tag_77:\n        /* \"#utility.yul\":830:918   */\n      swap2\n      pop\n        /* \"#utility.yul\":646:924   */\n      pop\n        /* \"#utility.yul\":584:924   */\n      swap3\n      swap2\n      pop\n      pop\n      jump\t// out\n        /* \"#utility.yul\":954:1853   */\n    tag_78:\n        /* \"#utility.yul\":1023:1028   */\n      0x00\n        /* \"#utility.yul\":1067:1071   */\n      0x60\n        /* \"#utility.yul\":1055:1064   */\n      dup3\n        /* \"#utility.yul\":1050:1053   */\n      dup5\n        /* \"#utility.yul\":1046:1065   */\n      sub\n        /* \"#utility.yul\":1042:1072   */\n      slt\n        /* \"#utility.yul\":1039:1156   */\n      iszero\n      tag_80\n      jumpi\n        /* \"#utility.yul\":1075:1154   */\n      tag_81\n      tag_82\n      jump\t// in\n    tag_81:\n        /* \"#utility.yul\":1039:1156   */\n    tag_80:\n        /* \"#utility.yul\":1174:1195   */\n      tag_83\n        /* \"#utility.yul\":1190:1194   */\n      0x60\n        /* \"#utility.yul\":1174:1195   */\n      tag_62\n      jump\t// in\n    tag_83:\n        /* \"#utility.yul\":1165:1195   */\n      swap1\n      pop\n        /* \"#utility.yul\":1252:1253   */\n      0x00\n        /* \"#utility.yul\":1292:1341   */\n      tag_84\n        /* \"#utility.yul\":1337:1340   */\n      dup5\n        /* \"#utility.yul\":1328:1334   */\n      dup3\n        /* \"#utility.yul\":1317:1326   */\n      dup6\n        /* \"#utility.yul\":1313:1335   */\n      add\n        /* \"#utility.yul\":1292:1341   */\n      tag_85\n      jump\t// in\n    tag_84:\n        /* \"#utility.yul\":1285:1289   */\n      0x00\n        /* \"#utility.yul\":1278:1283   */\n      dup4\n        /* \"#utility.yul\":1274:1290   */\n      add\n        /* \"#utility.yul\":1267:1342   */\n      mstore\n        /* \"#utility.yul\":1205:1353   */\n      pop\n        /* \"#utility.yul\":1440:1442   */\n      0x20\n        /* \"#utility.yul\":1429:1438   */\n      dup3\n        /* \"#utility.yul\":1425:1443   */\n      add\n        /* \"#utility.yul\":1412:1444   */\n      calldataload\n        /* \"#utility.yul\":1471:1489   */\n      0xffffffffffffffff\n        /* \"#utility.yul\":1463:1469   */\n      dup2\n        /* \"#utility.yul\":1460:1490   */\n      gt\n        /* \"#utility.yul\":1457:1574   */\n      iszero\n      tag_86\n      jumpi\n        /* \"#utility.yul\":1493:1572   */\n      tag_87\n      tag_88\n      jump\t// in\n    tag_87:\n        /* \"#utility.yul\":1457:1574   */\n    tag_86:\n        /* \"#utility.yul\":1613:1672   */\n      tag_89\n        /* \"#utility.yul\":1668:1671   */\n      dup5\n        /* \"#utility.yul\":1659:1665   */\n      dup3\n        /* \"#utility.yul\":1648:1657   */\n      dup6\n        /* \"#utility.yul\":1644:1666   */\n      add\n        /* \"#utility.yul\":1613:1672   */\n      tag_72\n      jump\t// in\n    tag_89:\n        /* \"#utility.yul\":1606:1610   */\n      0x20\n        /* \"#utility.yul\":1599:1604   */\n      dup4\n        /* \"#utility.yul\":1595:1611   */\n      add\n        /* \"#utility.yul\":1588:1673   */\n      mstore\n        /* \"#utility.yul\":1363:1684   */\n      pop\n        /* \"#utility.yul\":1744:1746   */\n      0x40\n        /* \"#utility.yul\":1785:1834   */\n      tag_90\n        /* \"#utility.yul\":1830:1833   */\n      dup5\n        /* \"#utility.yul\":1821:1827   */\n      dup3\n        /* \"#utility.yul\":1810:1819   */\n      dup6\n        /* \"#utility.yul\":1806:1828   */\n      add\n        /* \"#utility.yul\":1785:1834   */\n      tag_85\n      jump\t// in\n    tag_90:\n        /* \"#utility.yul\":1778:1782   */\n      0x40\n        /* \"#utility.yul\":1771:1776   */\n      dup4\n        /* \"#utility.yul\":1767:1783   */\n      add\n        /* \"#utility.yul\":1760:1835   */\n      mstore\n        /* \"#utility.yul\":1694:1846   */\n      pop\n        /* \"#utility.yul\":954:1853   */\n      swap3\n      swap2\n      pop\n      pop\n      jump\t// out\n        /* \"#utility.yul\":1859:1998   */\n    tag_85:\n        /* \"#utility.yul\":1905:1910   */\n      0x00\n        /* \"#utility.yul\":1943:1949   */\n      dup2\n        /* \"#utility.yul\":1930:1950   */\n      calldataload\n        /* \"#utility.yul\":1921:1950   */\n      swap1\n      pop\n        /* \"#utility.yul\":1959:1992   */\n      tag_92\n        /* \"#utility.yul\":1986:1991   */\n      dup2\n        /* \"#utility.yul\":1959:1992   */\n      tag_93\n      jump\t// in\n    tag_92:\n        /* \"#utility.yul\":1859:1998   */\n      swap3\n      swap2\n      pop\n      pop\n      jump\t// out\n        /* \"#utility.yul\":2004:2333   */\n    tag_33:\n        /* \"#utility.yul\":2063:2069   */\n      0x00\n        /* \"#utility.yul\":2112:2114   */\n      0x20\n        /* \"#utility.yul\":2100:2109   */\n      dup3\n        /* \"#utility.yul\":2091:2098   */\n      dup5\n        /* \"#utility.yul\":2087:2110   */\n      sub\n        /* \"#utility.yul\":2083:2115   */\n      slt\n        /* \"#utility.yul\":2080:2199   */\n      iszero\n      tag_95\n      jumpi\n        /* \"#utility.yul\":2118:2197   */\n      tag_96\n      tag_97\n      jump\t// in\n    tag_96:\n        /* \"#utility.yul\":2080:2199   */\n    tag_95:\n        /* \"#utility.yul\":2238:2239   */\n      0x00\n        /* \"#utility.yul\":2263:2316   */\n      tag_98\n        /* \"#utility.yul\":2308:2315   */\n      dup5\n        /* \"#utility.yul\":2299:2305   */\n      dup3\n        /* \"#utility.yul\":2288:2297   */\n      dup6\n        /* \"#utility.yul\":2284:2306   */\n      add\n        /* \"#utility.yul\":2263:2316   */\n      tag_68\n      jump\t// in\n    tag_98:\n        /* \"#utility.yul\":2253:2316   */\n      swap2\n      pop\n        /* \"#utility.yul\":2209:2326   */\n      pop\n        /* \"#utility.yul\":2004:2333   */\n      swap3\n      swap2\n      pop\n      pop\n      jump\t// out\n        /* \"#utility.yul\":2339:2813   */\n    tag_25:\n        /* \"#utility.yul\":2407:2413   */\n      0x00\n        /* \"#utility.yul\":2415:2421   */\n      dup1\n        /* \"#utility.yul\":2464:2466   */\n      0x40\n        /* \"#utility.yul\":2452:2461   */\n      dup4\n        /* \"#utility.yul\":2443:2450   */\n      dup6\n        /* \"#utility.yul\":2439:2462   */\n      sub\n        /* \"#utility.yul\":2435:2467   */\n      slt\n        /* \"#utility.yul\":2432:2551   */\n      iszero\n      tag_100\n      jumpi\n        /* \"#utility.yul\":2470:2549   */\n      tag_101\n      tag_97\n      jump\t// in\n    tag_101:\n        /* \"#utility.yul\":2432:2551   */\n    tag_100:\n        /* \"#utility.yul\":2590:2591   */\n      0x00\n        /* \"#utility.yul\":2615:2668   */\n      tag_102\n        /* \"#utility.yul\":2660:2667   */\n      dup6\n        /* \"#utility.yul\":2651:2657   */\n      dup3\n        /* \"#utility.yul\":2640:2649   */\n      dup7\n        /* \"#utility.yul\":2636:2658   */\n      add\n        /* \"#utility.yul\":2615:2668   */\n      tag_68\n      jump\t// in\n    tag_102:\n        /* \"#utility.yul\":2605:2668   */\n      swap3\n      pop\n        /* \"#utility.yul\":2561:2678   */\n      pop\n        /* \"#utility.yul\":2717:2719   */\n      0x20\n        /* \"#utility.yul\":2743:2796   */\n      tag_103\n        /* \"#utility.yul\":2788:2795   */\n      dup6\n        /* \"#utility.yul\":2779:2785   */\n      dup3\n        /* \"#utility.yul\":2768:2777   */\n      dup7\n        /* \"#utility.yul\":2764:2786   */\n      add\n        /* \"#utility.yul\":2743:2796   */\n      tag_85\n      jump\t// in\n    tag_103:\n        /* \"#utility.yul\":2733:2796   */\n      swap2\n      pop\n        /* \"#utility.yul\":2688:2806   */\n      pop\n        /* \"#utility.yul\":2339:2813   */\n      swap3\n      pop\n      swap3\n      swap1\n      pop\n      jump\t// out\n        /* \"#utility.yul\":2819:3348   */\n    tag_29:\n        /* \"#utility.yul\":2898:2904   */\n      0x00\n        /* \"#utility.yul\":2947:2949   */\n      0x20\n        /* \"#utility.yul\":2935:2944   */\n      dup3\n        /* \"#utility.yul\":2926:2933   */\n      dup5\n        /* \"#utility.yul\":2922:2945   */\n      sub\n        /* \"#utility.yul\":2918:2950   */\n      slt\n        /* \"#utility.yul\":2915:3034   */\n      iszero\n      tag_105\n      jumpi\n        /* \"#utility.yul\":2953:3032   */\n      tag_106\n      tag_97\n      jump\t// in\n    tag_106:\n        /* \"#utility.yul\":2915:3034   */\n    tag_105:\n        /* \"#utility.yul\":3101:3102   */\n      0x00\n        /* \"#utility.yul\":3090:3099   */\n      dup3\n        /* \"#utility.yul\":3086:3103   */\n      add\n        /* \"#utility.yul\":3073:3104   */\n      calldataload\n        /* \"#utility.yul\":3131:3149   */\n      0xffffffffffffffff\n        /* \"#utility.yul\":3123:3129   */\n      dup2\n        /* \"#utility.yul\":3120:3150   */\n      gt\n        /* \"#utility.yul\":3117:3234   */\n      iszero\n      tag_107\n      jumpi\n        /* \"#utility.yul\":3153:3232   */\n      tag_108\n      tag_109\n      jump\t// in\n    tag_108:\n        /* \"#utility.yul\":3117:3234   */\n    tag_107:\n        /* \"#utility.yul\":3258:3331   */\n      tag_110\n        /* \"#utility.yul\":3323:3330   */\n      dup5\n        /* \"#utility.yul\":3314:3320   */\n      dup3\n        /* \"#utility.yul\":3303:3312   */\n      dup6\n        /* \"#utility.yul\":3299:3321   */\n      add\n        /* \"#utility.yul\":3258:3331   */\n      tag_78\n      jump\t// in\n    tag_110:\n        /* \"#utility.yul\":3248:3331   */\n      swap2\n      pop\n        /* \"#utility.yul\":3044:3341   */\n      pop\n        /* \"#utility.yul\":2819:3348   */\n      swap3\n      swap2\n      pop\n      pop\n      jump\t// out\n        /* \"#utility.yul\":3354:3683   */\n    tag_19:\n        /* \"#utility.yul\":3413:3419   */\n      0x00\n        /* \"#utility.yul\":3462:3464   */\n      0x20\n        /* \"#utility.yul\":3450:3459   */\n      dup3\n        /* \"#utility.yul\":3441:3448   */\n      dup5\n        /* \"#utility.yul\":3437:3460   */\n      sub\n        /* \"#utility.yul\":3433:3465   */\n      slt\n        /* \"#utility.yul\":3430:3549   */\n      iszero\n      tag_112\n      jumpi\n        /* \"#utility.yul\":3468:3547   */\n      tag_113\n      tag_97\n      jump\t// in\n    tag_113:\n        /* \"#utility.yul\":3430:3549   */\n    tag_112:\n        /* \"#utility.yul\":3588:3589   */\n      0x00\n        /* \"#utility.yul\":3613:3666   */\n      tag_114\n        /* \"#utility.yul\":3658:3665   */\n      dup5\n        /* \"#utility.yul\":3649:3655   */\n      dup3\n        /* \"#utility.yul\":3638:3647   */\n      dup6\n        /* \"#utility.yul\":3634:3656   */\n      add\n        /* \"#utility.yul\":3613:3666   */\n      tag_85\n      jump\t// in\n    tag_114:\n        /* \"#utility.yul\":3603:3666   */\n      swap2\n      pop\n        /* \"#utility.yul\":3559:3676   */\n      pop\n        /* \"#utility.yul\":3354:3683   */\n      swap3\n      swap2\n      pop\n      pop\n      jump\t// out\n        /* \"#utility.yul\":3689:3807   */\n    tag_115:\n        /* \"#utility.yul\":3776:3800   */\n      tag_117\n        /* \"#utility.yul\":3794:3799   */\n      dup2\n        /* \"#utility.yul\":3776:3800   */\n      tag_118\n      jump\t// in\n    tag_117:\n        /* \"#utility.yul\":3771:3774   */\n      dup3\n        /* \"#utility.yul\":3764:3801   */\n      mstore\n        /* \"#utility.yul\":3689:3807   */\n      pop\n      pop\n      jump\t// out\n        /* \"#utility.yul\":3813:4177   */\n    tag_119:\n        /* \"#utility.yul\":3901:3904   */\n      0x00\n        /* \"#utility.yul\":3929:3968   */\n      tag_121\n        /* \"#utility.yul\":3962:3967   */\n      dup3\n        /* \"#utility.yul\":3929:3968   */\n      tag_122\n      jump\t// in\n    tag_121:\n        /* \"#utility.yul\":3984:4055   */\n      tag_123\n        /* \"#utility.yul\":4048:4054   */\n      dup2\n        /* \"#utility.yul\":4043:4046   */\n      dup6\n        /* \"#utility.yul\":3984:4055   */\n      tag_124\n      jump\t// in\n    tag_123:\n        /* \"#utility.yul\":3977:4055   */\n      swap4\n      pop\n        /* \"#utility.yul\":4064:4116   */\n      tag_125\n        /* \"#utility.yul\":4109:4115   */\n      dup2\n        /* \"#utility.yul\":4104:4107   */\n      dup6\n        /* \"#utility.yul\":4097:4101   */\n      0x20\n        /* \"#utility.yul\":4090:4095   */\n      dup7\n        /* \"#utility.yul\":4086:4102   */\n      add\n        /* \"#utility.yul\":4064:4116   */\n      tag_126\n      jump\t// in\n    tag_125:\n        /* \"#utility.yul\":4141:4170   */\n      tag_127\n        /* \"#utility.yul\":4163:4169   */\n      dup2\n        /* \"#utility.yul\":4141:4170   */\n      tag_128\n      jump\t// in\n    tag_127:\n        /* \"#utility.yul\":4136:4139   */\n      dup5\n        /* \"#utility.yul\":4132:4171   */\n      add\n        /* \"#utility.yul\":4125:4171   */\n      swap2\n      pop\n        /* \"#utility.yul\":3905:4177   */\n      pop\n        /* \"#utility.yul\":3813:4177   */\n      swap3\n      swap2\n      pop\n      pop\n      jump\t// out\n        /* \"#utility.yul\":4183:4549   */\n    tag_129:\n        /* \"#utility.yul\":4325:4328   */\n      0x00\n        /* \"#utility.yul\":4346:4413   */\n      tag_131\n        /* \"#utility.yul\":4410:4412   */\n      0x25\n        /* \"#utility.yul\":4405:4408   */\n      dup4\n        /* \"#utility.yul\":4346:4413   */\n      tag_124\n      jump\t// in\n    tag_131:\n        /* \"#utility.yul\":4339:4413   */\n      swap2\n      pop\n        /* \"#utility.yul\":4422:4515   */\n      tag_132\n        /* \"#utility.yul\":4511:4514   */\n      dup3\n        /* \"#utility.yul\":4422:4515   */\n      tag_133\n      jump\t// in\n    tag_132:\n        /* \"#utility.yul\":4540:4542   */\n      0x40\n        /* \"#utility.yul\":4535:4538   */\n      dup3\n        /* \"#utility.yul\":4531:4543   */\n      add\n        /* \"#utility.yul\":4524:4543   */\n      swap1\n      pop\n        /* \"#utility.yul\":4183:4549   */\n      swap2\n      swap1\n      pop\n      jump\t// out\n        /* \"#utility.yul\":4555:4921   */\n    tag_134:\n        /* \"#utility.yul\":4697:4700   */\n      0x00\n        /* \"#utility.yul\":4718:4785   */\n      tag_136\n        /* \"#utility.yul\":4782:4784   */\n      0x30\n        /* \"#utility.yul\":4777:4780   */\n      dup4\n        /* \"#utility.yul\":4718:4785   */\n      tag_124\n      jump\t// in\n    tag_136:\n        /* \"#utility.yul\":4711:4785   */\n      swap2\n      pop\n        /* \"#utility.yul\":4794:4887   */\n      tag_137\n        /* \"#utility.yul\":4883:4886   */\n      dup3\n        /* \"#utility.yul\":4794:4887   */\n      tag_138\n      jump\t// in\n    tag_137:\n        /* \"#utility.yul\":4912:4914   */\n      0x40\n        /* \"#utility.yul\":4907:4910   */\n      dup3\n        /* \"#utility.yul\":4903:4915   */\n      add\n        /* \"#utility.yul\":4896:4915   */\n      swap1\n      pop\n        /* \"#utility.yul\":4555:4921   */\n      swap2\n      swap1\n      pop\n      jump\t// out\n        /* \"#utility.yul\":4927:5045   */\n    tag_139:\n        /* \"#utility.yul\":5014:5038   */\n      tag_141\n        /* \"#utility.yul\":5032:5037   */\n      dup2\n        /* \"#utility.yul\":5014:5038   */\n      tag_142\n      jump\t// in\n    tag_141:\n        /* \"#utility.yul\":5009:5012   */\n      dup3\n        /* \"#utility.yul\":5002:5039   */\n      mstore\n        /* \"#utility.yul\":4927:5045   */\n      pop\n      pop\n      jump\t// out\n        /* \"#utility.yul\":5051:5273   */\n    tag_16:\n        /* \"#utility.yul\":5144:5148   */\n      0x00\n        /* \"#utility.yul\":5182:5184   */\n      0x20\n        /* \"#utility.yul\":5171:5180   */\n      dup3\n        /* \"#utility.yul\":5167:5185   */\n      add\n        /* \"#utility.yul\":5159:5185   */\n      swap1\n      pop\n        /* \"#utility.yul\":5195:5266   */\n      tag_144\n        /* \"#utility.yul\":5263:5264   */\n      0x00\n        /* \"#utility.yul\":5252:5261   */\n      dup4\n        /* \"#utility.yul\":5248:5265   */\n      add\n        /* \"#utility.yul\":5239:5245   */\n      dup5\n        /* \"#utility.yul\":5195:5266   */\n      tag_115\n      jump\t// in\n    tag_144:\n        /* \"#utility.yul\":5051:5273   */\n      swap3\n      swap2\n      pop\n      pop\n      jump\t// out\n        /* \"#utility.yul\":5279:5611   */\n    tag_12:\n        /* \"#utility.yul\":5400:5404   */\n      0x00\n        /* \"#utility.yul\":5438:5440   */\n      0x40\n        /* \"#utility.yul\":5427:5436   */\n      dup3\n        /* \"#utility.yul\":5423:5441   */\n      add\n        /* \"#utility.yul\":5415:5441   */\n      swap1\n      pop\n        /* \"#utility.yul\":5451:5522   */\n      tag_146\n        /* \"#utility.yul\":5519:5520   */\n      0x00\n        /* \"#utility.yul\":5508:5517   */\n      dup4\n        /* \"#utility.yul\":5504:5521   */\n      add\n        /* \"#utility.yul\":5495:5501   */\n      dup6\n        /* \"#utility.yul\":5451:5522   */\n      tag_115\n      jump\t// in\n    tag_146:\n        /* \"#utility.yul\":5532:5604   */\n      tag_147\n        /* \"#utility.yul\":5600:5602   */\n      0x20\n        /* \"#utility.yul\":5589:5598   */\n      dup4\n        /* \"#utility.yul\":5585:5603   */\n      add\n        /* \"#utility.yul\":5576:5582   */\n      dup5\n        /* \"#utility.yul\":5532:5604   */\n      tag_139\n      jump\t// in\n    tag_147:\n        /* \"#utility.yul\":5279:5611   */\n      swap4\n      swap3\n      pop\n      pop\n      pop\n      jump\t// out\n        /* \"#utility.yul\":5617:6036   */\n    tag_49:\n        /* \"#utility.yul\":5783:5787   */\n      0x00\n        /* \"#utility.yul\":5821:5823   */\n      0x20\n        /* \"#utility.yul\":5810:5819   */\n      dup3\n        /* \"#utility.yul\":5806:5824   */\n      add\n        /* \"#utility.yul\":5798:5824   */\n      swap1\n      pop\n        /* \"#utility.yul\":5870:5879   */\n      dup2\n        /* \"#utility.yul\":5864:5868   */\n      dup2\n        /* \"#utility.yul\":5860:5880   */\n      sub\n        /* \"#utility.yul\":5856:5857   */\n      0x00\n        /* \"#utility.yul\":5845:5854   */\n      dup4\n        /* \"#utility.yul\":5841:5858   */\n      add\n        /* \"#utility.yul\":5834:5881   */\n      mstore\n        /* \"#utility.yul\":5898:6029   */\n      tag_149\n        /* \"#utility.yul\":6024:6028   */\n      dup2\n        /* \"#utility.yul\":5898:6029   */\n      tag_129\n      jump\t// in\n    tag_149:\n        /* \"#utility.yul\":5890:6029   */\n      swap1\n      pop\n        /* \"#utility.yul\":5617:6036   */\n      swap2\n      swap1\n      pop\n      jump\t// out\n        /* \"#utility.yul\":6042:6461   */\n    tag_54:\n        /* \"#utility.yul\":6208:6212   */\n      0x00\n        /* \"#utility.yul\":6246:6248   */\n      0x20\n        /* \"#utility.yul\":6235:6244   */\n      dup3\n        /* \"#utility.yul\":6231:6249   */\n      add\n        /* \"#utility.yul\":6223:6249   */\n      swap1\n      pop\n        /* \"#utility.yul\":6295:6304   */\n      dup2\n        /* \"#utility.yul\":6289:6293   */\n      dup2\n        /* \"#utility.yul\":6285:6305   */\n      sub\n        /* \"#utility.yul\":6281:6282   */\n      0x00\n        /* \"#utility.yul\":6270:6279   */\n      dup4\n        /* \"#utility.yul\":6266:6283   */\n      add\n        /* \"#utility.yul\":6259:6306   */\n      mstore\n        /* \"#utility.yul\":6323:6454   */\n      tag_151\n        /* \"#utility.yul\":6449:6453   */\n      dup2\n        /* \"#utility.yul\":6323:6454   */\n      tag_134\n      jump\t// in\n    tag_151:\n        /* \"#utility.yul\":6315:6454   */\n      swap1\n      pop\n        /* \"#utility.yul\":6042:6461   */\n      swap2\n      swap1\n      pop\n      jump\t// out\n        /* \"#utility.yul\":6467:6689   */\n    tag_36:\n        /* \"#utility.yul\":6560:6564   */\n      0x00\n        /* \"#utility.yul\":6598:6600   */\n      0x20\n        /* \"#utility.yul\":6587:6596   */\n      dup3\n        /* \"#utility.yul\":6583:6601   */\n      add\n        /* \"#utility.yul\":6575:6601   */\n      swap1\n      pop\n        /* \"#utility.yul\":6611:6682   */\n      tag_153\n        /* \"#utility.yul\":6679:6680   */\n      0x00\n        /* \"#utility.yul\":6668:6677   */\n      dup4\n        /* \"#utility.yul\":6664:6681   */\n      add\n        /* \"#utility.yul\":6655:6661   */\n      dup5\n        /* \"#utility.yul\":6611:6682   */\n      tag_139\n      jump\t// in\n    tag_153:\n        /* \"#utility.yul\":6467:6689   */\n      swap3\n      swap2\n      pop\n      pop\n      jump\t// out\n        /* \"#utility.yul\":6695:7228   */\n    tag_22:\n        /* \"#utility.yul\":6864:6868   */\n      0x00\n        /* \"#utility.yul\":6902:6904   */\n      0x60\n        /* \"#utility.yul\":6891:6900   */\n      dup3\n        /* \"#utility.yul\":6887:6905   */\n      add\n        /* \"#utility.yul\":6879:6905   */\n      swap1\n      pop\n        /* \"#utility.yul\":6915:6986   */\n      tag_155\n        /* \"#utility.yul\":6983:6984   */\n      0x00\n        /* \"#utility.yul\":6972:6981   */\n      dup4\n        /* \"#utility.yul\":6968:6985   */\n      add\n        /* \"#utility.yul\":6959:6965   */\n      dup7\n        /* \"#utility.yul\":6915:6986   */\n      tag_139\n      jump\t// in\n    tag_155:\n        /* \"#utility.yul\":7033:7042   */\n      dup2\n        /* \"#utility.yul\":7027:7031   */\n      dup2\n        /* \"#utility.yul\":7023:7043   */\n      sub\n        /* \"#utility.yul\":7018:7020   */\n      0x20\n        /* \"#utility.yul\":7007:7016   */\n      dup4\n        /* \"#utility.yul\":7003:7021   */\n      add\n        /* \"#utility.yul\":6996:7044   */\n      mstore\n        /* \"#utility.yul\":7061:7139   */\n      tag_156\n        /* \"#utility.yul\":7134:7138   */\n      dup2\n        /* \"#utility.yul\":7125:7131   */\n      dup6\n        /* \"#utility.yul\":7061:7139   */\n      tag_119\n      jump\t// in\n    tag_156:\n        /* \"#utility.yul\":7053:7139   */\n      swap1\n      pop\n        /* \"#utility.yul\":7149:7221   */\n      tag_157\n        /* \"#utility.yul\":7217:7219   */\n      0x40\n        /* \"#utility.yul\":7206:7215   */\n      dup4\n        /* \"#utility.yul\":7202:7220   */\n      add\n        /* \"#utility.yul\":7193:7199   */\n      dup5\n        /* \"#utility.yul\":7149:7221   */\n      tag_139\n      jump\t// in\n    tag_157:\n        /* \"#utility.yul\":6695:7228   */\n      swap5\n      swap4\n      pop\n      pop\n      pop\n      pop\n      jump\t// out\n        /* \"#utility.yul\":7234:7363   */\n    tag_62:\n        /* \"#utility.yul\":7268:7274   */\n      0x00\n        /* \"#utility.yul\":7295:7315   */\n      tag_159\n      tag_160\n      jump\t// in\n    tag_159:\n        /* \"#utility.yul\":7285:7315   */\n      swap1\n      pop\n        /* \"#utility.yul\":7324:7357   */\n      tag_161\n        /* \"#utility.yul\":7352:7356   */\n      dup3\n        /* \"#utility.yul\":7344:7350   */\n      dup3\n        /* \"#utility.yul\":7324:7357   */\n      tag_162\n      jump\t// in\n    tag_161:\n        /* \"#utility.yul\":7234:7363   */\n      swap2\n      swap1\n      pop\n      jump\t// out\n        /* \"#utility.yul\":7369:7444   */\n    tag_160:\n        /* \"#utility.yul\":7402:7408   */\n      0x00\n        /* \"#utility.yul\":7435:7437   */\n      0x40\n        /* \"#utility.yul\":7429:7438   */\n      mload\n        /* \"#utility.yul\":7419:7438   */\n      swap1\n      pop\n        /* \"#utility.yul\":7369:7444   */\n      swap1\n      jump\t// out\n        /* \"#utility.yul\":7450:7758   */\n    tag_61:\n        /* \"#utility.yul\":7512:7516   */\n      0x00\n        /* \"#utility.yul\":7602:7620   */\n      0xffffffffffffffff\n        /* \"#utility.yul\":7594:7600   */\n      dup3\n        /* \"#utility.yul\":7591:7621   */\n      gt\n        /* \"#utility.yul\":7588:7644   */\n      iszero\n      tag_165\n      jumpi\n        /* \"#utility.yul\":7624:7642   */\n      tag_166\n      tag_167\n      jump\t// in\n    tag_166:\n        /* \"#utility.yul\":7588:7644   */\n    tag_165:\n        /* \"#utility.yul\":7662:7691   */\n      tag_168\n        /* \"#utility.yul\":7684:7690   */\n      dup3\n        /* \"#utility.yul\":7662:7691   */\n      tag_128\n      jump\t// in\n    tag_168:\n        /* \"#utility.yul\":7654:7691   */\n      swap1\n      pop\n        /* \"#utility.yul\":7746:7750   */\n      0x20\n        /* \"#utility.yul\":7740:7744   */\n      dup2\n        /* \"#utility.yul\":7736:7751   */\n      add\n        /* \"#utility.yul\":7728:7751   */\n      swap1\n      pop\n        /* \"#utility.yul\":7450:7758   */\n      swap2\n      swap1\n      pop\n      jump\t// out\n        /* \"#utility.yul\":7764:7863   */\n    tag_122:\n        /* \"#utility.yul\":7816:7822   */\n      0x00\n        /* \"#utility.yul\":7850:7855   */\n      dup2\n        /* \"#utility.yul\":7844:7856   */\n      mload\n        /* \"#utility.yul\":7834:7856   */\n      swap1\n      pop\n        /* \"#utility.yul\":7764:7863   */\n      swap2\n      swap1\n      pop\n      jump\t// out\n        /* \"#utility.yul\":7869:8038   */\n    tag_124:\n        /* \"#utility.yul\":7953:7964   */\n      0x00\n        /* \"#utility.yul\":7987:7993   */\n      dup3\n        /* \"#utility.yul\":7982:7985   */\n      dup3\n        /* \"#utility.yul\":7975:7994   */\n      mstore\n        /* \"#utility.yul\":8027:8031   */\n      0x20\n        /* \"#utility.yul\":8022:8025   */\n      dup3\n        /* \"#utility.yul\":8018:8032   */\n      add\n        /* \"#utility.yul\":8003:8032   */\n      swap1\n      pop\n        /* \"#utility.yul\":7869:8038   */\n      swap3\n      swap2\n      pop\n      pop\n      jump\t// out\n        /* \"#utility.yul\":8044:8140   */\n    tag_118:\n        /* \"#utility.yul\":8081:8088   */\n      0x00\n        /* \"#utility.yul\":8110:8134   */\n      tag_172\n        /* \"#utility.yul\":8128:8133   */\n      dup3\n        /* \"#utility.yul\":8110:8134   */\n      tag_173\n      jump\t// in\n    tag_172:\n        /* \"#utility.yul\":8099:8134   */\n      swap1\n      pop\n        /* \"#utility.yul\":8044:8140   */\n      swap2\n      swap1\n      pop\n      jump\t// out\n        /* \"#utility.yul\":8146:8272   */\n    tag_173:\n        /* \"#utility.yul\":8183:8190   */\n      0x00\n        /* \"#utility.yul\":8223:8265   */\n      0xffffffffffffffffffffffffffffffffffffffff\n        /* \"#utility.yul\":8216:8221   */\n      dup3\n        /* \"#utility.yul\":8212:8266   */\n      and\n        /* \"#utility.yul\":8201:8266   */\n      swap1\n      pop\n        /* \"#utility.yul\":8146:8272   */\n      swap2\n      swap1\n      pop\n      jump\t// out\n        /* \"#utility.yul\":8278:8355   */\n    tag_142:\n        /* \"#utility.yul\":8315:8322   */\n      0x00\n        /* \"#utility.yul\":8344:8349   */\n      dup2\n        /* \"#utility.yul\":8333:8349   */\n      swap1\n      pop\n        /* \"#utility.yul\":8278:8355   */\n      swap2\n      swap1\n      pop\n      jump\t// out\n        /* \"#utility.yul\":8361:8515   */\n    tag_67:\n        /* \"#utility.yul\":8445:8451   */\n      dup3\n        /* \"#utility.yul\":8440:8443   */\n      dup2\n        /* \"#utility.yul\":8435:8438   */\n      dup4\n        /* \"#utility.yul\":8422:8452   */\n      calldatacopy\n        /* \"#utility.yul\":8507:8508   */\n      0x00\n        /* \"#utility.yul\":8498:8504   */\n      dup4\n        /* \"#utility.yul\":8493:8496   */\n      dup4\n        /* \"#utility.yul\":8489:8505   */\n      add\n        /* \"#utility.yul\":8482:8509   */\n      mstore\n        /* \"#utility.yul\":8361:8515   */\n      pop\n      pop\n      pop\n      jump\t// out\n        /* \"#utility.yul\":8521:8828   */\n    tag_126:\n        /* \"#utility.yul\":8589:8590   */\n      0x00\n        /* \"#utility.yul\":8599:8712   */\n    tag_178:\n        /* \"#utility.yul\":8613:8619   */\n      dup4\n        /* \"#utility.yul\":8610:8611   */\n      dup2\n        /* \"#utility.yul\":8607:8620   */\n      lt\n        /* \"#utility.yul\":8599:8712   */\n      iszero\n      tag_180\n      jumpi\n        /* \"#utility.yul\":8698:8699   */\n      dup1\n        /* \"#utility.yul\":8693:8696   */\n      dup3\n        /* \"#utility.yul\":8689:8700   */\n      add\n        /* \"#utility.yul\":8683:8701   */\n      mload\n        /* \"#utility.yul\":8679:8680   */\n      dup2\n        /* \"#utility.yul\":8674:8677   */\n      dup5\n        /* \"#utility.yul\":8670:8681   */\n      add\n        /* \"#utility.yul\":8663:8702   */\n      mstore\n        /* \"#utility.yul\":8635:8637   */\n      0x20\n        /* \"#utility.yul\":8632:8633   */\n      dup2\n        /* \"#utility.yul\":8628:8638   */\n      add\n        /* \"#utility.yul\":8623:8638   */\n      swap1\n      pop\n        /* \"#utility.yul\":8599:8712   */\n      jump(tag_178)\n    tag_180:\n        /* \"#utility.yul\":8730:8736   */\n      dup4\n        /* \"#utility.yul\":8727:8728   */\n      dup2\n        /* \"#utility.yul\":8724:8737   */\n      gt\n        /* \"#utility.yul\":8721:8822   */\n      iszero\n      tag_181\n      jumpi\n        /* \"#utility.yul\":8810:8811   */\n      0x00\n        /* \"#utility.yul\":8801:8807   */\n      dup5\n        /* \"#utility.yul\":8796:8799   */\n      dup5\n        /* \"#utility.yul\":8792:8808   */\n      add\n        /* \"#utility.yul\":8785:8812   */\n      mstore\n        /* \"#utility.yul\":8721:8822   */\n    tag_181:\n        /* \"#utility.yul\":8570:8828   */\n      pop\n        /* \"#utility.yul\":8521:8828   */\n      pop\n      pop\n      pop\n      jump\t// out\n        /* \"#utility.yul\":8834:9154   */\n    tag_41:\n        /* \"#utility.yul\":8878:8884   */\n      0x00\n        /* \"#utility.yul\":8915:8916   */\n      0x02\n        /* \"#utility.yul\":8909:8913   */\n      dup3\n        /* \"#utility.yul\":8905:8917   */\n      div\n        /* \"#utility.yul\":8895:8917   */\n      swap1\n      pop\n        /* \"#utility.yul\":8962:8963   */\n      0x01\n        /* \"#utility.yul\":8956:8960   */\n      dup3\n        /* \"#utility.yul\":8952:8964   */\n      and\n        /* \"#utility.yul\":8983:9001   */\n      dup1\n        /* \"#utility.yul\":8973:9054   */\n      tag_183\n      jumpi\n        /* \"#utility.yul\":9039:9043   */\n      0x7f\n        /* \"#utility.yul\":9031:9037   */\n      dup3\n        /* \"#utility.yul\":9027:9044   */\n      and\n        /* \"#utility.yul\":9017:9044   */\n      swap2\n      pop\n        /* \"#utility.yul\":8973:9054   */\n    tag_183:\n        /* \"#utility.yul\":9101:9103   */\n      0x20\n        /* \"#utility.yul\":9093:9099   */\n      dup3\n        /* \"#utility.yul\":9090:9104   */\n      lt\n        /* \"#utility.yul\":9070:9088   */\n      dup2\n        /* \"#utility.yul\":9067:9105   */\n      eq\n        /* \"#utility.yul\":9064:9148   */\n      iszero\n      tag_184\n      jumpi\n        /* \"#utility.yul\":9120:9138   */\n      tag_185\n      tag_186\n      jump\t// in\n    tag_185:\n        /* \"#utility.yul\":9064:9148   */\n    tag_184:\n        /* \"#utility.yul\":8885:9154   */\n      pop\n        /* \"#utility.yul\":8834:9154   */\n      swap2\n      swap1\n      pop\n      jump\t// out\n        /* \"#utility.yul\":9160:9441   */\n    tag_162:\n        /* \"#utility.yul\":9243:9270   */\n      tag_188\n        /* \"#utility.yul\":9265:9269   */\n      dup3\n        /* \"#utility.yul\":9243:9270   */\n      tag_128\n      jump\t// in\n    tag_188:\n        /* \"#utility.yul\":9235:9241   */\n      dup2\n        /* \"#utility.yul\":9231:9271   */\n      add\n        /* \"#utility.yul\":9373:9379   */\n      dup2\n        /* \"#utility.yul\":9361:9371   */\n      dup2\n        /* \"#utility.yul\":9358:9380   */\n      lt\n        /* \"#utility.yul\":9337:9355   */\n      0xffffffffffffffff\n        /* \"#utility.yul\":9325:9335   */\n      dup3\n        /* \"#utility.yul\":9322:9356   */\n      gt\n        /* \"#utility.yul\":9319:9381   */\n      or\n        /* \"#utility.yul\":9316:9404   */\n      iszero\n      tag_189\n      jumpi\n        /* \"#utility.yul\":9384:9402   */\n      tag_190\n      tag_167\n      jump\t// in\n    tag_190:\n        /* \"#utility.yul\":9316:9404   */\n    tag_189:\n        /* \"#utility.yul\":9424:9434   */\n      dup1\n        /* \"#utility.yul\":9420:9422   */\n      0x40\n        /* \"#utility.yul\":9413:9435   */\n      mstore\n        /* \"#utility.yul\":9203:9441   */\n      pop\n        /* \"#utility.yul\":9160:9441   */\n      pop\n      pop\n      jump\t// out\n        /* \"#utility.yul\":9447:9627   */\n    tag_186:\n        /* \"#utility.yul\":9495:9572   */\n      0x4e487b7100000000000000000000000000000000000000000000000000000000\n        /* \"#utility.yul\":9492:9493   */\n      0x00\n        /* \"#utility.yul\":9485:9573   */\n      mstore\n        /* \"#utility.yul\":9592:9596   */\n      0x22\n        /* \"#utility.yul\":9589:9590   */\n      0x04\n        /* \"#utility.yul\":9582:9597   */\n      mstore\n        /* \"#utility.yul\":9616:9620   */\n      0x24\n        /* \"#utility.yul\":9613:9614   */\n      0x00\n        /* \"#utility.yul\":9606:9621   */\n      revert\n        /* \"#utility.yul\":9633:9813   */\n    tag_167:\n        /* \"#utility.yul\":9681:9758   */\n      0x4e487b7100000000000000000000000000000000000000000000000000000000\n        /* \"#utility.yul\":9678:9679   */\n      0x00\n        /* \"#utility.yul\":9671:9759   */\n      mstore\n        /* \"#utility.yul\":9778:9782   */\n      0x41\n        /* \"#utility.yul\":9775:9776   */\n      0x04\n        /* \"#utility.yul\":9768:9783   */\n      mstore\n        /* \"#utility.yul\":9802:9806   */\n      0x24\n        /* \"#utility.yul\":9799:9800   */\n      0x00\n        /* \"#utility.yul\":9792:9807   */\n      revert\n        /* \"#utility.yul\":9819:9936   */\n    tag_76:\n        /* \"#utility.yul\":9928:9929   */\n      0x00\n        /* \"#utility.yul\":9925:9926   */\n      dup1\n        /* \"#utility.yul\":9918:9930   */\n      revert\n        /* \"#utility.yul\":9942:10059   */\n    tag_82:\n        /* \"#utility.yul\":10051:10052   */\n      0x00\n        /* \"#utility.yul\":10048:10049   */\n      dup1\n        /* \"#utility.yul\":10041:10053   */\n      revert\n        /* \"#utility.yul\":10065:10182   */\n    tag_88:\n        /* \"#utility.yul\":10174:10175   */\n      0x00\n        /* \"#utility.yul\":10171:10172   */\n      dup1\n        /* \"#utility.yul\":10164:10176   */\n      revert\n        /* \"#utility.yul\":10188:10305   */\n    tag_65:\n        /* \"#utility.yul\":10297:10298   */\n      0x00\n        /* \"#utility.yul\":10294:10295   */\n      dup1\n        /* \"#utility.yul\":10287:10299   */\n      revert\n        /* \"#utility.yul\":10311:10428   */\n    tag_109:\n        /* \"#utility.yul\":10420:10421   */\n      0x00\n        /* \"#utility.yul\":10417:10418   */\n      dup1\n        /* \"#utility.yul\":10410:10422   */\n      revert\n        /* \"#utility.yul\":10434:10551   */\n    tag_97:\n        /* \"#utility.yul\":10543:10544   */\n      0x00\n        /* \"#utility.yul\":10540:10541   */\n      dup1\n        /* \"#utility.yul\":10533:10545   */\n      revert\n        /* \"#utility.yul\":10557:10659   */\n    tag_128:\n        /* \"#utility.yul\":10598:10604   */\n      0x00\n        /* \"#utility.yul\":10649:10651   */\n      0x1f\n        /* \"#utility.yul\":10645:10652   */\n      not\n        /* \"#utility.yul\":10640:10642   */\n      0x1f\n        /* \"#utility.yul\":10633:10638   */\n      dup4\n        /* \"#utility.yul\":10629:10643   */\n      add\n        /* \"#utility.yul\":10625:10653   */\n      and\n        /* \"#utility.yul\":10615:10653   */\n      swap1\n      pop\n        /* \"#utility.yul\":10557:10659   */\n      swap2\n      swap1\n      pop\n      jump\t// out\n        /* \"#utility.yul\":10665:10889   */\n    tag_133:\n        /* \"#utility.yul\":10805:10839   */\n      0x596120746520656e6375656e74726173207265676973747261646f20656e2065\n        /* \"#utility.yul\":10801:10802   */\n      0x00\n        /* \"#utility.yul\":10793:10799   */\n      dup3\n        /* \"#utility.yul\":10789:10803   */\n      add\n        /* \"#utility.yul\":10782:10840   */\n      mstore\n        /* \"#utility.yul\":10874:10881   */\n      0x6c2067796d000000000000000000000000000000000000000000000000000000\n        /* \"#utility.yul\":10869:10871   */\n      0x20\n        /* \"#utility.yul\":10861:10867   */\n      dup3\n        /* \"#utility.yul\":10857:10872   */\n      add\n        /* \"#utility.yul\":10850:10882   */\n      mstore\n        /* \"#utility.yul\":10665:10889   */\n      pop\n      jump\t// out\n        /* \"#utility.yul\":10895:11130   */\n    tag_138:\n        /* \"#utility.yul\":11035:11069   */\n      0x536f6c6f20656c2041646d696e6973747261646f722064656c2047796d207075\n        /* \"#utility.yul\":11031:11032   */\n      0x00\n        /* \"#utility.yul\":11023:11029   */\n      dup3\n        /* \"#utility.yul\":11019:11033   */\n      add\n        /* \"#utility.yul\":11012:11070   */\n      mstore\n        /* \"#utility.yul\":11104:11122   */\n      0x65646520637265617220636c6173657300000000000000000000000000000000\n        /* \"#utility.yul\":11099:11101   */\n      0x20\n        /* \"#utility.yul\":11091:11097   */\n      dup3\n        /* \"#utility.yul\":11087:11102   */\n      add\n        /* \"#utility.yul\":11080:11123   */\n      mstore\n        /* \"#utility.yul\":10895:11130   */\n      pop\n      jump\t// out\n        /* \"#utility.yul\":11136:11258   */\n    tag_71:\n        /* \"#utility.yul\":11209:11233   */\n      tag_203\n        /* \"#utility.yul\":11227:11232   */\n      dup2\n        /* \"#utility.yul\":11209:11233   */\n      tag_118\n      jump\t// in\n    tag_203:\n        /* \"#utility.yul\":11202:11207   */\n      dup2\n        /* \"#utility.yul\":11199:11234   */\n      eq\n        /* \"#utility.yul\":11189:11252   */\n      tag_204\n      jumpi\n        /* \"#utility.yul\":11248:11249   */\n      0x00\n        /* \"#utility.yul\":11245:11246   */\n      dup1\n        /* \"#utility.yul\":11238:11250   */\n      revert\n        /* \"#utility.yul\":11189:11252   */\n    tag_204:\n        /* \"#utility.yul\":11136:11258   */\n      pop\n      jump\t// out\n        /* \"#utility.yul\":11264:11386   */\n    tag_93:\n        /* \"#utility.yul\":11337:11361   */\n      tag_206\n        /* \"#utility.yul\":11355:11360   */\n      dup2\n        /* \"#utility.yul\":11337:11361   */\n      tag_142\n      jump\t// in\n    tag_206:\n        /* \"#utility.yul\":11330:11335   */\n      dup2\n        /* \"#utility.yul\":11327:11362   */\n      eq\n        /* \"#utility.yul\":11317:11380   */\n      tag_207\n      jumpi\n        /* \"#utility.yul\":11376:11377   */\n      0x00\n        /* \"#utility.yul\":11373:11374   */\n      dup1\n        /* \"#utility.yul\":11366:11378   */\n      revert\n        /* \"#utility.yul\":11317:11380   */\n    tag_207:\n        /* \"#utility.yul\":11264:11386   */\n      pop\n      jump\t// out\n\n    auxdata: 0xa264697066735822122095b74a4de7cb9c6ac67b25e36c7ed2984c3e6322e77f233ed6f69bdebfd57d1864736f6c63430008070033\n}\n",
				"bytecode": {
					"linkReferences": {},
					"object": "60a060405234801561001057600080fd5b503373ffffffffffffffffffffffffffffffffffffffff1660808173ffffffffffffffffffffffffffffffffffffffff1660601b8152505060805160601c610a8e61006d6000396000818161018b01526103880152610a8e6000f3fe608060405234801561001057600080fd5b50600436106100625760003560e01c806312065fe0146100675780632a0acc6a146100865780633613a9f4146100a45780636d705ebb146100d6578063a2838751146100f2578063a87430ba1461010e575b600080fd5b61006f61013e565b60405161007d9291906106ea565b60405180910390f35b61008e610189565b60405161009b91906106cf565b60405180910390f35b6100be60048036038101906100b99190610605565b6101ad565b6040516100cd9392919061076e565b60405180910390f35b6100f060048036038101906100eb919061057c565b61026f565b005b61010c600480360381019061010791906105bc565b61036f565b005b6101286004803603810190610123919061054f565b61041d565b6040516101359190610753565b60405180910390f35b600080336000803373ffffffffffffffffffffffffffffffffffffffff1673ffffffffffffffffffffffffffffffffffffffff16815260200190815260200160002054915091509091565b7f000000000000000000000000000000000000000000000000000000000000000081565b600181815481106101bd57600080fd5b90600052602060002090600302016000915090508060000154908060010180546101e69061089c565b80601f01602080910402602001604051908101604052809291908181526020018280546102129061089c565b801561025f5780601f106102345761010080835404028352916020019161025f565b820191906000526020600020905b81548152906001019060200180831161024257829003601f168201915b5050505050908060020154905083565b60008060003373ffffffffffffffffffffffffffffffffffffffff1673ffffffffffffffffffffffffffffffffffffffff16815260200190815260200160002054146102f0576040517f08c379a00000000000000000000000000000000000000000000000000000000081526004016102e790610713565b60405180910390fd5b806000803373ffffffffffffffffffffffffffffffffffffffff1673ffffffffffffffffffffffffffffffffffffffff168152602001908152602001600020819055507e7dc6ab80cc84c043b7b8d4fcafc802187470087f7ea7fccd2e17aecd0256a182826040516103639291906106ea565b60405180910390a15050565b3373ffffffffffffffffffffffffffffffffffffffff167f000000000000000000000000000000000000000000000000000000000000000073ffffffffffffffffffffffffffffffffffffffff16146103fd576040517f08c379a00000000000000000000000000000000000000000000000000000000081526004016103f490610733565b60405180910390fd5b600180816001815401808255809150500390600052602060002090505050565b60006020528060005260406000206000915090505481565b6000610448610443846107d1565b6107ac565b9050828152602081018484840111156104645761046361096c565b5b61046f84828561085a565b509392505050565b60008135905061048681610a2a565b92915050565b600082601f8301126104a1576104a061095d565b5b81356104b1848260208601610435565b91505092915050565b6000606082840312156104d0576104cf610962565b5b6104da60606107ac565b905060006104ea8482850161053a565b600083015250602082013567ffffffffffffffff81111561050e5761050d610967565b5b61051a8482850161048c565b602083015250604061052e8482850161053a565b60408301525092915050565b60008135905061054981610a41565b92915050565b60006020828403121561056557610564610976565b5b600061057384828501610477565b91505092915050565b6000806040838503121561059357610592610976565b5b60006105a185828601610477565b92505060206105b28582860161053a565b9150509250929050565b6000602082840312156105d2576105d1610976565b5b600082013567ffffffffffffffff8111156105f0576105ef610971565b5b6105fc848285016104ba565b91505092915050565b60006020828403121561061b5761061a610976565b5b60006106298482850161053a565b91505092915050565b61063b8161081e565b82525050565b600061064c82610802565b610656818561080d565b9350610666818560208601610869565b61066f8161097b565b840191505092915050565b600061068760258361080d565b91506106928261098c565b604082019050919050565b60006106aa60308361080d565b91506106b5826109db565b604082019050919050565b6106c981610850565b82525050565b60006020820190506106e46000830184610632565b92915050565b60006040820190506106ff6000830185610632565b61070c60208301846106c0565b9392505050565b6000602082019050818103600083015261072c8161067a565b9050919050565b6000602082019050818103600083015261074c8161069d565b9050919050565b600060208201905061076860008301846106c0565b92915050565b600060608201905061078360008301866106c0565b81810360208301526107958185610641565b90506107a460408301846106c0565b949350505050565b60006107b66107c7565b90506107c282826108ce565b919050565b6000604051905090565b600067ffffffffffffffff8211156107ec576107eb61092e565b5b6107f58261097b565b9050602081019050919050565b600081519050919050565b600082825260208201905092915050565b600061082982610830565b9050919050565b600073ffffffffffffffffffffffffffffffffffffffff82169050919050565b6000819050919050565b82818337600083830152505050565b60005b8381101561088757808201518184015260208101905061086c565b83811115610896576000848401525b50505050565b600060028204905060018216806108b457607f821691505b602082108114156108c8576108c76108ff565b5b50919050565b6108d78261097b565b810181811067ffffffffffffffff821117156108f6576108f561092e565b5b80604052505050565b7f4e487b7100000000000000000000000000000000000000000000000000000000600052602260045260246000fd5b7f4e487b7100000000000000000000000000000000000000000000000000000000600052604160045260246000fd5b600080fd5b600080fd5b600080fd5b600080fd5b600080fd5b600080fd5b6000601f19601f8301169050919050565b7f596120746520656e6375656e74726173207265676973747261646f20656e206560008201527f6c2067796d000000000000000000000000000000000000000000000000000000602082015250565b7f536f6c6f20656c2041646d696e6973747261646f722064656c2047796d20707560008201527f65646520637265617220636c6173657300000000000000000000000000000000602082015250565b610a338161081e565b8114610a3e57600080fd5b50565b610a4a81610850565b8114610a5557600080fd5b5056fea264697066735822122095b74a4de7cb9c6ac67b25e36c7ed2984c3e6322e77f233ed6f69bdebfd57d1864736f6c63430008070033",
					"opcodes": "PUSH1 0xA0 PUSH1 0x40 MSTORE CALLVALUE DUP1 ISZERO PUSH2 0x10 JUMPI PUSH1 0x0 DUP1 REVERT JUMPDEST POP CALLER PUSH20 0xFFFFFFFFFFFFFFFFFFFFFFFFFFFFFFFFFFFFFFFF AND PUSH1 0x80 DUP2 PUSH20 0xFFFFFFFFFFFFFFFFFFFFFFFFFFFFFFFFFFFFFFFF AND PUSH1 0x60 SHL DUP2 MSTORE POP POP PUSH1 0x80 MLOAD PUSH1 0x60 SHR PUSH2 0xA8E PUSH2 0x6D PUSH1 0x0 CODECOPY PUSH1 0x0 DUP2 DUP2 PUSH2 0x18B ADD MSTORE PUSH2 0x388 ADD MSTORE PUSH2 0xA8E PUSH1 0x0 RETURN INVALID PUSH1 0x80 PUSH1 0x40 MSTORE CALLVALUE DUP1 ISZERO PUSH2 0x10 JUMPI PUSH1 0x0 DUP1 REVERT JUMPDEST POP PUSH1 0x4 CALLDATASIZE LT PUSH2 0x62 JUMPI PUSH1 0x0 CALLDATALOAD PUSH1 0xE0 SHR DUP1 PUSH4 0x12065FE0 EQ PUSH2 0x67 JUMPI DUP1 PUSH4 0x2A0ACC6A EQ PUSH2 0x86 JUMPI DUP1 PUSH4 0x3613A9F4 EQ PUSH2 0xA4 JUMPI DUP1 PUSH4 0x6D705EBB EQ PUSH2 0xD6 JUMPI DUP1 PUSH4 0xA2838751 EQ PUSH2 0xF2 JUMPI DUP1 PUSH4 0xA87430BA EQ PUSH2 0x10E JUMPI JUMPDEST PUSH1 0x0 DUP1 REVERT JUMPDEST PUSH2 0x6F PUSH2 0x13E JUMP JUMPDEST PUSH1 0x40 MLOAD PUSH2 0x7D SWAP3 SWAP2 SWAP1 PUSH2 0x6EA JUMP JUMPDEST PUSH1 0x40 MLOAD DUP1 SWAP2 SUB SWAP1 RETURN JUMPDEST PUSH2 0x8E PUSH2 0x189 JUMP JUMPDEST PUSH1 0x40 MLOAD PUSH2 0x9B SWAP2 SWAP1 PUSH2 0x6CF JUMP JUMPDEST PUSH1 0x40 MLOAD DUP1 SWAP2 SUB SWAP1 RETURN JUMPDEST PUSH2 0xBE PUSH1 0x4 DUP1 CALLDATASIZE SUB DUP2 ADD SWAP1 PUSH2 0xB9 SWAP2 SWAP1 PUSH2 0x605 JUMP JUMPDEST PUSH2 0x1AD JUMP JUMPDEST PUSH1 0x40 MLOAD PUSH2 0xCD SWAP4 SWAP3 SWAP2 SWAP1 PUSH2 0x76E JUMP JUMPDEST PUSH1 0x40 MLOAD DUP1 SWAP2 SUB SWAP1 RETURN JUMPDEST PUSH2 0xF0 PUSH1 0x4 DUP1 CALLDATASIZE SUB DUP2 ADD SWAP1 PUSH2 0xEB SWAP2 SWAP1 PUSH2 0x57C JUMP JUMPDEST PUSH2 0x26F JUMP JUMPDEST STOP JUMPDEST PUSH2 0x10C PUSH1 0x4 DUP1 CALLDATASIZE SUB DUP2 ADD SWAP1 PUSH2 0x107 SWAP2 SWAP1 PUSH2 0x5BC JUMP JUMPDEST PUSH2 0x36F JUMP JUMPDEST STOP JUMPDEST PUSH2 0x128 PUSH1 0x4 DUP1 CALLDATASIZE SUB DUP2 ADD SWAP1 PUSH2 0x123 SWAP2 SWAP1 PUSH2 0x54F JUMP JUMPDEST PUSH2 0x41D JUMP JUMPDEST PUSH1 0x40 MLOAD PUSH2 0x135 SWAP2 SWAP1 PUSH2 0x753 JUMP JUMPDEST PUSH1 0x40 MLOAD DUP1 SWAP2 SUB SWAP1 RETURN JUMPDEST PUSH1 0x0 DUP1 CALLER PUSH1 0x0 DUP1 CALLER PUSH20 0xFFFFFFFFFFFFFFFFFFFFFFFFFFFFFFFFFFFFFFFF AND PUSH20 0xFFFFFFFFFFFFFFFFFFFFFFFFFFFFFFFFFFFFFFFF AND DUP2 MSTORE PUSH1 0x20 ADD SWAP1 DUP2 MSTORE PUSH1 0x20 ADD PUSH1 0x0 KECCAK256 SLOAD SWAP2 POP SWAP2 POP SWAP1 SWAP2 JUMP JUMPDEST PUSH32 0x0 DUP2 JUMP JUMPDEST PUSH1 0x1 DUP2 DUP2 SLOAD DUP2 LT PUSH2 0x1BD JUMPI PUSH1 0x0 DUP1 REVERT JUMPDEST SWAP1 PUSH1 0x0 MSTORE PUSH1 0x20 PUSH1 0x0 KECCAK256 SWAP1 PUSH1 0x3 MUL ADD PUSH1 0x0 SWAP2 POP SWAP1 POP DUP1 PUSH1 0x0 ADD SLOAD SWAP1 DUP1 PUSH1 0x1 ADD DUP1 SLOAD PUSH2 0x1E6 SWAP1 PUSH2 0x89C JUMP JUMPDEST DUP1 PUSH1 0x1F ADD PUSH1 0x20 DUP1 SWAP2 DIV MUL PUSH1 0x20 ADD PUSH1 0x40 MLOAD SWAP1 DUP2 ADD PUSH1 0x40 MSTORE DUP1 SWAP3 SWAP2 SWAP1 DUP2 DUP2 MSTORE PUSH1 0x20 ADD DUP3 DUP1 SLOAD PUSH2 0x212 SWAP1 PUSH2 0x89C JUMP JUMPDEST DUP1 ISZERO PUSH2 0x25F JUMPI DUP1 PUSH1 0x1F LT PUSH2 0x234 JUMPI PUSH2 0x100 DUP1 DUP4 SLOAD DIV MUL DUP4 MSTORE SWAP2 PUSH1 0x20 ADD SWAP2 PUSH2 0x25F JUMP JUMPDEST DUP3 ADD SWAP2 SWAP1 PUSH1 0x0 MSTORE PUSH1 0x20 PUSH1 0x0 KECCAK256 SWAP1 JUMPDEST DUP2 SLOAD DUP2 MSTORE SWAP1 PUSH1 0x1 ADD SWAP1 PUSH1 0x20 ADD DUP1 DUP4 GT PUSH2 0x242 JUMPI DUP3 SWAP1 SUB PUSH1 0x1F AND DUP3 ADD SWAP2 JUMPDEST POP POP POP POP POP SWAP1 DUP1 PUSH1 0x2 ADD SLOAD SWAP1 POP DUP4 JUMP JUMPDEST PUSH1 0x0 DUP1 PUSH1 0x0 CALLER PUSH20 0xFFFFFFFFFFFFFFFFFFFFFFFFFFFFFFFFFFFFFFFF AND PUSH20 0xFFFFFFFFFFFFFFFFFFFFFFFFFFFFFFFFFFFFFFFF AND DUP2 MSTORE PUSH1 0x20 ADD SWAP1 DUP2 MSTORE PUSH1 0x20 ADD PUSH1 0x0 KECCAK256 SLOAD EQ PUSH2 0x2F0 JUMPI PUSH1 0x40 MLOAD PUSH32 0x8C379A000000000000000000000000000000000000000000000000000000000 DUP2 MSTORE PUSH1 0x4 ADD PUSH2 0x2E7 SWAP1 PUSH2 0x713 JUMP JUMPDEST PUSH1 0x40 MLOAD DUP1 SWAP2 SUB SWAP1 REVERT JUMPDEST DUP1 PUSH1 0x0 DUP1 CALLER PUSH20 0xFFFFFFFFFFFFFFFFFFFFFFFFFFFFFFFFFFFFFFFF AND PUSH20 0xFFFFFFFFFFFFFFFFFFFFFFFFFFFFFFFFFFFFFFFF AND DUP2 MSTORE PUSH1 0x20 ADD SWAP1 DUP2 MSTORE PUSH1 0x20 ADD PUSH1 0x0 KECCAK256 DUP2 SWAP1 SSTORE POP PUSH31 0x7DC6AB80CC84C043B7B8D4FCAFC802187470087F7EA7FCCD2E17AECD0256A1 DUP3 DUP3 PUSH1 0x40 MLOAD PUSH2 0x363 SWAP3 SWAP2 SWAP1 PUSH2 0x6EA JUMP JUMPDEST PUSH1 0x40 MLOAD DUP1 SWAP2 SUB SWAP1 LOG1 POP POP JUMP JUMPDEST CALLER PUSH20 0xFFFFFFFFFFFFFFFFFFFFFFFFFFFFFFFFFFFFFFFF AND PUSH32 0x0 PUSH20 0xFFFFFFFFFFFFFFFFFFFFFFFFFFFFFFFFFFFFFFFF AND EQ PUSH2 0x3FD JUMPI PUSH1 0x40 MLOAD PUSH32 0x8C379A000000000000000000000000000000000000000000000000000000000 DUP2 MSTORE PUSH1 0x4 ADD PUSH2 0x3F4 SWAP1 PUSH2 0x733 JUMP JUMPDEST PUSH1 0x40 MLOAD DUP1 SWAP2 SUB SWAP1 REVERT JUMPDEST PUSH1 0x1 DUP1 DUP2 PUSH1 0x1 DUP2 SLOAD ADD DUP1 DUP3 SSTORE DUP1 SWAP2 POP POP SUB SWAP1 PUSH1 0x0 MSTORE PUSH1 0x20 PUSH1 0x0 KECCAK256 SWAP1 POP POP POP JUMP JUMPDEST PUSH1 0x0 PUSH1 0x20 MSTORE DUP1 PUSH1 0x0 MSTORE PUSH1 0x40 PUSH1 0x0 KECCAK256 PUSH1 0x0 SWAP2 POP SWAP1 POP SLOAD DUP2 JUMP JUMPDEST PUSH1 0x0 PUSH2 0x448 PUSH2 0x443 DUP5 PUSH2 0x7D1 JUMP JUMPDEST PUSH2 0x7AC JUMP JUMPDEST SWAP1 POP DUP3 DUP2 MSTORE PUSH1 0x20 DUP2 ADD DUP5 DUP5 DUP5 ADD GT ISZERO PUSH2 0x464 JUMPI PUSH2 0x463 PUSH2 0x96C JUMP JUMPDEST JUMPDEST PUSH2 0x46F DUP5 DUP3 DUP6 PUSH2 0x85A JUMP JUMPDEST POP SWAP4 SWAP3 POP POP POP JUMP JUMPDEST PUSH1 0x0 DUP2 CALLDATALOAD SWAP1 POP PUSH2 0x486 DUP2 PUSH2 0xA2A JUMP JUMPDEST SWAP3 SWAP2 POP POP JUMP JUMPDEST PUSH1 0x0 DUP3 PUSH1 0x1F DUP4 ADD SLT PUSH2 0x4A1 JUMPI PUSH2 0x4A0 PUSH2 0x95D JUMP JUMPDEST JUMPDEST DUP2 CALLDATALOAD PUSH2 0x4B1 DUP5 DUP3 PUSH1 0x20 DUP7 ADD PUSH2 0x435 JUMP JUMPDEST SWAP2 POP POP SWAP3 SWAP2 POP POP JUMP JUMPDEST PUSH1 0x0 PUSH1 0x60 DUP3 DUP5 SUB SLT ISZERO PUSH2 0x4D0 JUMPI PUSH2 0x4CF PUSH2 0x962 JUMP JUMPDEST JUMPDEST PUSH2 0x4DA PUSH1 0x60 PUSH2 0x7AC JUMP JUMPDEST SWAP1 POP PUSH1 0x0 PUSH2 0x4EA DUP5 DUP3 DUP6 ADD PUSH2 0x53A JUMP JUMPDEST PUSH1 0x0 DUP4 ADD MSTORE POP PUSH1 0x20 DUP3 ADD CALLDATALOAD PUSH8 0xFFFFFFFFFFFFFFFF DUP2 GT ISZERO PUSH2 0x50E JUMPI PUSH2 0x50D PUSH2 0x967 JUMP JUMPDEST JUMPDEST PUSH2 0x51A DUP5 DUP3 DUP6 ADD PUSH2 0x48C JUMP JUMPDEST PUSH1 0x20 DUP4 ADD MSTORE POP PUSH1 0x40 PUSH2 0x52E DUP5 DUP3 DUP6 ADD PUSH2 0x53A JUMP JUMPDEST PUSH1 0x40 DUP4 ADD MSTORE POP SWAP3 SWAP2 POP POP JUMP JUMPDEST PUSH1 0x0 DUP2 CALLDATALOAD SWAP1 POP PUSH2 0x549 DUP2 PUSH2 0xA41 JUMP JUMPDEST SWAP3 SWAP2 POP POP JUMP JUMPDEST PUSH1 0x0 PUSH1 0x20 DUP3 DUP5 SUB SLT ISZERO PUSH2 0x565 JUMPI PUSH2 0x564 PUSH2 0x976 JUMP JUMPDEST JUMPDEST PUSH1 0x0 PUSH2 0x573 DUP5 DUP3 DUP6 ADD PUSH2 0x477 JUMP JUMPDEST SWAP2 POP POP SWAP3 SWAP2 POP POP JUMP JUMPDEST PUSH1 0x0 DUP1 PUSH1 0x40 DUP4 DUP6 SUB SLT ISZERO PUSH2 0x593 JUMPI PUSH2 0x592 PUSH2 0x976 JUMP JUMPDEST JUMPDEST PUSH1 0x0 PUSH2 0x5A1 DUP6 DUP3 DUP7 ADD PUSH2 0x477 JUMP JUMPDEST SWAP3 POP POP PUSH1 0x20 PUSH2 0x5B2 DUP6 DUP3 DUP7 ADD PUSH2 0x53A JUMP JUMPDEST SWAP2 POP POP SWAP3 POP SWAP3 SWAP1 POP JUMP JUMPDEST PUSH1 0x0 PUSH1 0x20 DUP3 DUP5 SUB SLT ISZERO PUSH2 0x5D2 JUMPI PUSH2 0x5D1 PUSH2 0x976 JUMP JUMPDEST JUMPDEST PUSH1 0x0 DUP3 ADD CALLDATALOAD PUSH8 0xFFFFFFFFFFFFFFFF DUP2 GT ISZERO PUSH2 0x5F0 JUMPI PUSH2 0x5EF PUSH2 0x971 JUMP JUMPDEST JUMPDEST PUSH2 0x5FC DUP5 DUP3 DUP6 ADD PUSH2 0x4BA JUMP JUMPDEST SWAP2 POP POP SWAP3 SWAP2 POP POP JUMP JUMPDEST PUSH1 0x0 PUSH1 0x20 DUP3 DUP5 SUB SLT ISZERO PUSH2 0x61B JUMPI PUSH2 0x61A PUSH2 0x976 JUMP JUMPDEST JUMPDEST PUSH1 0x0 PUSH2 0x629 DUP5 DUP3 DUP6 ADD PUSH2 0x53A JUMP JUMPDEST SWAP2 POP POP SWAP3 SWAP2 POP POP JUMP JUMPDEST PUSH2 0x63B DUP2 PUSH2 0x81E JUMP JUMPDEST DUP3 MSTORE POP POP JUMP JUMPDEST PUSH1 0x0 PUSH2 0x64C DUP3 PUSH2 0x802 JUMP JUMPDEST PUSH2 0x656 DUP2 DUP6 PUSH2 0x80D JUMP JUMPDEST SWAP4 POP PUSH2 0x666 DUP2 DUP6 PUSH1 0x20 DUP7 ADD PUSH2 0x869 JUMP JUMPDEST PUSH2 0x66F DUP2 PUSH2 0x97B JUMP JUMPDEST DUP5 ADD SWAP2 POP POP SWAP3 SWAP2 POP POP JUMP JUMPDEST PUSH1 0x0 PUSH2 0x687 PUSH1 0x25 DUP4 PUSH2 0x80D JUMP JUMPDEST SWAP2 POP PUSH2 0x692 DUP3 PUSH2 0x98C JUMP JUMPDEST PUSH1 0x40 DUP3 ADD SWAP1 POP SWAP2 SWAP1 POP JUMP JUMPDEST PUSH1 0x0 PUSH2 0x6AA PUSH1 0x30 DUP4 PUSH2 0x80D JUMP JUMPDEST SWAP2 POP PUSH2 0x6B5 DUP3 PUSH2 0x9DB JUMP JUMPDEST PUSH1 0x40 DUP3 ADD SWAP1 POP SWAP2 SWAP1 POP JUMP JUMPDEST PUSH2 0x6C9 DUP2 PUSH2 0x850 JUMP JUMPDEST DUP3 MSTORE POP POP JUMP JUMPDEST PUSH1 0x0 PUSH1 0x20 DUP3 ADD SWAP1 POP PUSH2 0x6E4 PUSH1 0x0 DUP4 ADD DUP5 PUSH2 0x632 JUMP JUMPDEST SWAP3 SWAP2 POP POP JUMP JUMPDEST PUSH1 0x0 PUSH1 0x40 DUP3 ADD SWAP1 POP PUSH2 0x6FF PUSH1 0x0 DUP4 ADD DUP6 PUSH2 0x632 JUMP JUMPDEST PUSH2 0x70C PUSH1 0x20 DUP4 ADD DUP5 PUSH2 0x6C0 JUMP JUMPDEST SWAP4 SWAP3 POP POP POP JUMP JUMPDEST PUSH1 0x0 PUSH1 0x20 DUP3 ADD SWAP1 POP DUP2 DUP2 SUB PUSH1 0x0 DUP4 ADD MSTORE PUSH2 0x72C DUP2 PUSH2 0x67A JUMP JUMPDEST SWAP1 POP SWAP2 SWAP1 POP JUMP JUMPDEST PUSH1 0x0 PUSH1 0x20 DUP3 ADD SWAP1 POP DUP2 DUP2 SUB PUSH1 0x0 DUP4 ADD MSTORE PUSH2 0x74C DUP2 PUSH2 0x69D JUMP JUMPDEST SWAP1 POP SWAP2 SWAP1 POP JUMP JUMPDEST PUSH1 0x0 PUSH1 0x20 DUP3 ADD SWAP1 POP PUSH2 0x768 PUSH1 0x0 DUP4 ADD DUP5 PUSH2 0x6C0 JUMP JUMPDEST SWAP3 SWAP2 POP POP JUMP JUMPDEST PUSH1 0x0 PUSH1 0x60 DUP3 ADD SWAP1 POP PUSH2 0x783 PUSH1 0x0 DUP4 ADD DUP7 PUSH2 0x6C0 JUMP JUMPDEST DUP2 DUP2 SUB PUSH1 0x20 DUP4 ADD MSTORE PUSH2 0x795 DUP2 DUP6 PUSH2 0x641 JUMP JUMPDEST SWAP1 POP PUSH2 0x7A4 PUSH1 0x40 DUP4 ADD DUP5 PUSH2 0x6C0 JUMP JUMPDEST SWAP5 SWAP4 POP POP POP POP JUMP JUMPDEST PUSH1 0x0 PUSH2 0x7B6 PUSH2 0x7C7 JUMP JUMPDEST SWAP1 POP PUSH2 0x7C2 DUP3 DUP3 PUSH2 0x8CE JUMP JUMPDEST SWAP2 SWAP1 POP JUMP JUMPDEST PUSH1 0x0 PUSH1 0x40 MLOAD SWAP1 POP SWAP1 JUMP JUMPDEST PUSH1 0x0 PUSH8 0xFFFFFFFFFFFFFFFF DUP3 GT ISZERO PUSH2 0x7EC JUMPI PUSH2 0x7EB PUSH2 0x92E JUMP JUMPDEST JUMPDEST PUSH2 0x7F5 DUP3 PUSH2 0x97B JUMP JUMPDEST SWAP1 POP PUSH1 0x20 DUP2 ADD SWAP1 POP SWAP2 SWAP1 POP JUMP JUMPDEST PUSH1 0x0 DUP2 MLOAD SWAP1 POP SWAP2 SWAP1 POP JUMP JUMPDEST PUSH1 0x0 DUP3 DUP3 MSTORE PUSH1 0x20 DUP3 ADD SWAP1 POP SWAP3 SWAP2 POP POP JUMP JUMPDEST PUSH1 0x0 PUSH2 0x829 DUP3 PUSH2 0x830 JUMP JUMPDEST SWAP1 POP SWAP2 SWAP1 POP JUMP JUMPDEST PUSH1 0x0 PUSH20 0xFFFFFFFFFFFFFFFFFFFFFFFFFFFFFFFFFFFFFFFF DUP3 AND SWAP1 POP SWAP2 SWAP1 POP JUMP JUMPDEST PUSH1 0x0 DUP2 SWAP1 POP SWAP2 SWAP1 POP JUMP JUMPDEST DUP3 DUP2 DUP4 CALLDATACOPY PUSH1 0x0 DUP4 DUP4 ADD MSTORE POP POP POP JUMP JUMPDEST PUSH1 0x0 JUMPDEST DUP4 DUP2 LT ISZERO PUSH2 0x887 JUMPI DUP1 DUP3 ADD MLOAD DUP2 DUP5 ADD MSTORE PUSH1 0x20 DUP2 ADD SWAP1 POP PUSH2 0x86C JUMP JUMPDEST DUP4 DUP2 GT ISZERO PUSH2 0x896 JUMPI PUSH1 0x0 DUP5 DUP5 ADD MSTORE JUMPDEST POP POP POP POP JUMP JUMPDEST PUSH1 0x0 PUSH1 0x2 DUP3 DIV SWAP1 POP PUSH1 0x1 DUP3 AND DUP1 PUSH2 0x8B4 JUMPI PUSH1 0x7F DUP3 AND SWAP2 POP JUMPDEST PUSH1 0x20 DUP3 LT DUP2 EQ ISZERO PUSH2 0x8C8 JUMPI PUSH2 0x8C7 PUSH2 0x8FF JUMP JUMPDEST JUMPDEST POP SWAP2 SWAP1 POP JUMP JUMPDEST PUSH2 0x8D7 DUP3 PUSH2 0x97B JUMP JUMPDEST DUP2 ADD DUP2 DUP2 LT PUSH8 0xFFFFFFFFFFFFFFFF DUP3 GT OR ISZERO PUSH2 0x8F6 JUMPI PUSH2 0x8F5 PUSH2 0x92E JUMP JUMPDEST JUMPDEST DUP1 PUSH1 0x40 MSTORE POP POP POP JUMP JUMPDEST PUSH32 0x4E487B7100000000000000000000000000000000000000000000000000000000 PUSH1 0x0 MSTORE PUSH1 0x22 PUSH1 0x4 MSTORE PUSH1 0x24 PUSH1 0x0 REVERT JUMPDEST PUSH32 0x4E487B7100000000000000000000000000000000000000000000000000000000 PUSH1 0x0 MSTORE PUSH1 0x41 PUSH1 0x4 MSTORE PUSH1 0x24 PUSH1 0x0 REVERT JUMPDEST PUSH1 0x0 DUP1 REVERT JUMPDEST PUSH1 0x0 DUP1 REVERT JUMPDEST PUSH1 0x0 DUP1 REVERT JUMPDEST PUSH1 0x0 DUP1 REVERT JUMPDEST PUSH1 0x0 DUP1 REVERT JUMPDEST PUSH1 0x0 DUP1 REVERT JUMPDEST PUSH1 0x0 PUSH1 0x1F NOT PUSH1 0x1F DUP4 ADD AND SWAP1 POP SWAP2 SWAP1 POP JUMP JUMPDEST PUSH32 0x596120746520656E6375656E74726173207265676973747261646F20656E2065 PUSH1 0x0 DUP3 ADD MSTORE PUSH32 0x6C2067796D000000000000000000000000000000000000000000000000000000 PUSH1 0x20 DUP3 ADD MSTORE POP JUMP JUMPDEST PUSH32 0x536F6C6F20656C2041646D696E6973747261646F722064656C2047796D207075 PUSH1 0x0 DUP3 ADD MSTORE PUSH32 0x65646520637265617220636C6173657300000000000000000000000000000000 PUSH1 0x20 DUP3 ADD MSTORE POP JUMP JUMPDEST PUSH2 0xA33 DUP2 PUSH2 0x81E JUMP JUMPDEST DUP2 EQ PUSH2 0xA3E JUMPI PUSH1 0x0 DUP1 REVERT JUMPDEST POP JUMP JUMPDEST PUSH2 0xA4A DUP2 PUSH2 0x850 JUMP JUMPDEST DUP2 EQ PUSH2 0xA55 JUMPI PUSH1 0x0 DUP1 REVERT JUMPDEST POP JUMP INVALID LOG2 PUSH5 0x6970667358 0x22 SLT KECCAK256 SWAP6 0xB7 0x4A 0x4D 0xE7 0xCB SWAP13 PUSH11 0xC67B25E36C7ED2984C3E63 0x22 0xE7 PUSH32 0x233ED6F69BDEBFD57D1864736F6C634300080700330000000000000000000000 "
				},
				"gasEstimates": {
					"creation": {
						"codeDepositCost": "540400",
						"executionCost": "infinite",
						"totalCost": "infinite"
					},
					"external": {
						"ADMIN()": "infinite",
						"class(uint256)": "infinite",
						"createClass((uint256,string,uint256))": "infinite",
						"getBalance()": "2666",
						"register(address,uint256)": "infinite",
						"users(address)": "2902"
					}
				},
				"methodIdentifiers": {
					"ADMIN()": "2a0acc6a",
					"class(uint256)": "3613a9f4",
					"createClass((uint256,string,uint256))": "a2838751",
					"getBalance()": "12065fe0",
					"register(address,uint256)": "6d705ebb",
					"users(address)": "a87430ba"
				}
			},
			"storageLayout": {
				"storage": [
					{
						"astId": 35,
						"contract": "contracts/Gym_Contact.sol:gym",
						"label": "users",
						"offset": 0,
						"slot": "0",
						"type": "t_mapping(t_address,t_uint256)"
					},
					{
						"astId": 39,
						"contract": "contracts/Gym_Contact.sol:gym",
						"label": "class",
						"offset": 0,
						"slot": "1",
						"type": "t_array(t_struct(Class)8_storage)dyn_storage"
					}
				],
				"types": {
					"t_address": {
						"encoding": "inplace",
						"label": "address",
						"numberOfBytes": "20"
					},
					"t_array(t_struct(Class)8_storage)dyn_storage": {
						"base": "t_struct(Class)8_storage",
						"encoding": "dynamic_array",
						"label": "struct gym.Class[]",
						"numberOfBytes": "32"
					},
					"t_mapping(t_address,t_uint256)": {
						"encoding": "mapping",
						"key": "t_address",
						"label": "mapping(address => uint256)",
						"numberOfBytes": "32",
						"value": "t_uint256"
					},
					"t_string_storage": {
						"encoding": "bytes",
						"label": "string",
						"numberOfBytes": "32"
					},
					"t_struct(Class)8_storage": {
						"encoding": "inplace",
						"label": "struct gym.Class",
						"members": [
							{
								"astId": 3,
								"contract": "contracts/Gym_Contact.sol:gym",
								"label": "id",
								"offset": 0,
								"slot": "0",
								"type": "t_uint256"
							},
							{
								"astId": 5,
								"contract": "contracts/Gym_Contact.sol:gym",
								"label": "name",
								"offset": 0,
								"slot": "1",
								"type": "t_string_storage"
							},
							{
								"astId": 7,
								"contract": "contracts/Gym_Contact.sol:gym",
								"label": "value",
								"offset": 0,
								"slot": "2",
								"type": "t_uint256"
							}
						],
						"numberOfBytes": "96"
					},
					"t_uint256": {
						"encoding": "inplace",
						"label": "uint256",
						"numberOfBytes": "32"
					}
				}
			},
			"userdoc": {
				"kind": "user",
				"methods": {},
				"version": 1
			}
		}
	}
}