{
	"contracts/Gym_Contact.sol": {
		"gym": {
			"abi": [
				{
					"inputs": [],
					"stateMutability": "nonpayable",
					"type": "constructor"
				},
				{
					"anonymous": false,
					"inputs": [
						{
							"indexed": false,
							"internalType": "string",
							"name": "name",
							"type": "string"
						},
						{
							"indexed": false,
							"internalType": "uint256",
							"name": "value",
							"type": "uint256"
						}
					],
					"name": "ClassCreated",
					"type": "event"
				},
				{
					"anonymous": false,
					"inputs": [
						{
							"indexed": false,
							"internalType": "address",
							"name": "user",
							"type": "address"
						},
						{
							"indexed": false,
							"internalType": "uint256",
							"name": "credits",
							"type": "uint256"
						}
					],
					"name": "Register",
					"type": "event"
				},
				{
					"inputs": [],
					"name": "ADMIN",
					"outputs": [
						{
							"internalType": "address",
							"name": "",
							"type": "address"
						}
					],
					"stateMutability": "view",
					"type": "function"
				},
				{
					"inputs": [
						{
							"internalType": "uint256",
							"name": "",
							"type": "uint256"
						}
					],
					"name": "class",
					"outputs": [
						{
							"internalType": "string",
							"name": "name",
							"type": "string"
						},
						{
							"internalType": "uint256",
							"name": "value",
							"type": "uint256"
						}
					],
					"stateMutability": "view",
					"type": "function"
				},
				{
					"inputs": [
						{
							"internalType": "string",
							"name": "_name",
							"type": "string"
						},
						{
							"internalType": "uint256",
							"name": "_value",
							"type": "uint256"
						}
					],
					"name": "createClass",
					"outputs": [],
					"stateMutability": "nonpayable",
					"type": "function"
				},
				{
					"inputs": [],
					"name": "getBalance",
					"outputs": [
						{
							"internalType": "address",
							"name": "",
							"type": "address"
						},
						{
							"internalType": "uint256",
							"name": "",
							"type": "uint256"
						}
					],
					"stateMutability": "view",
					"type": "function"
				},
				{
					"inputs": [
						{
							"internalType": "uint256",
							"name": "_index",
							"type": "uint256"
						}
					],
					"name": "getClass",
					"outputs": [
						{
							"internalType": "string",
							"name": "name",
							"type": "string"
						},
						{
							"internalType": "uint256",
							"name": "value",
							"type": "uint256"
						}
					],
					"stateMutability": "view",
					"type": "function"
				},
				{
					"inputs": [
						{
							"internalType": "address",
							"name": "_address",
							"type": "address"
						},
						{
							"internalType": "uint256",
							"name": "_credits",
							"type": "uint256"
						}
					],
					"name": "register",
					"outputs": [],
					"stateMutability": "nonpayable",
					"type": "function"
				},
				{
					"inputs": [
						{
							"internalType": "uint256",
							"name": "_index",
							"type": "uint256"
						}
					],
					"name": "removeClass",
					"outputs": [],
					"stateMutability": "nonpayable",
					"type": "function"
				},
				{
					"inputs": [
						{
							"internalType": "uint256",
							"name": "_index",
							"type": "uint256"
						}
					],
					"name": "takeClass",
					"outputs": [],
					"stateMutability": "nonpayable",
					"type": "function"
				},
				{
					"inputs": [
						{
							"internalType": "uint256",
							"name": "_index",
							"type": "uint256"
						},
						{
							"internalType": "string",
							"name": "_name",
							"type": "string"
						},
						{
							"internalType": "uint256",
							"name": "_value",
							"type": "uint256"
						}
					],
					"name": "updateClass",
					"outputs": [],
					"stateMutability": "nonpayable",
					"type": "function"
				},
				{
					"inputs": [
						{
							"internalType": "address",
							"name": "",
							"type": "address"
						}
					],
					"name": "users",
					"outputs": [
						{
							"internalType": "uint256",
							"name": "",
							"type": "uint256"
						}
					],
					"stateMutability": "view",
					"type": "function"
				}
			],
			"devdoc": {
				"kind": "dev",
				"methods": {},
				"version": 1
			},
			"evm": {
				"assembly": "    /* \"contracts/Gym_Contact.sol\":70:2421  contract gym {\r... */\n  mstore(0x40, 0xa0)\n    /* \"contracts/Gym_Contact.sol\":431:482  constructor() {\r... */\n  callvalue\n  dup1\n  iszero\n  tag_1\n  jumpi\n  0x00\n  dup1\n  revert\ntag_1:\n  pop\n    /* \"contracts/Gym_Contact.sol\":464:474  msg.sender */\n  caller\n    /* \"contracts/Gym_Contact.sol\":456:474  ADMIN = msg.sender */\n  0xffffffffffffffffffffffffffffffffffffffff\n  and\n  0x80\n  dup2\n  0xffffffffffffffffffffffffffffffffffffffff\n  and\n  0x60\n  shl\n  dup2\n  mstore\n  pop\n  pop\n    /* \"contracts/Gym_Contact.sol\":70:2421  contract gym {\r... */\n  shr(0x60, mload(0x80))\n  codecopy(0x00, dataOffset(sub_0), dataSize(sub_0))\n  0x00\n  assignImmutable(\"0x731dc163f73d31d8c68f9917ce4ff967753939f70432973c04fd2c2a48148607\")\n  return(0x00, dataSize(sub_0))\nstop\n\nsub_0: assembly {\n        /* \"contracts/Gym_Contact.sol\":70:2421  contract gym {\r... */\n      mstore(0x40, 0x80)\n      callvalue\n      dup1\n      iszero\n      tag_1\n      jumpi\n      0x00\n      dup1\n      revert\n    tag_1:\n      pop\n      jumpi(tag_2, lt(calldatasize, 0x04))\n      shr(0xe0, calldataload(0x00))\n      dup1\n      0x512d62df\n      gt\n      tag_13\n      jumpi\n      dup1\n      0x512d62df\n      eq\n      tag_8\n      jumpi\n      dup1\n      0x6d705ebb\n      eq\n      tag_9\n      jumpi\n      dup1\n      0x72c30f45\n      eq\n      tag_10\n      jumpi\n      dup1\n      0x7aed8136\n      eq\n      tag_11\n      jumpi\n      dup1\n      0xa87430ba\n      eq\n      tag_12\n      jumpi\n      jump(tag_2)\n    tag_13:\n      dup1\n      0x12065fe0\n      eq\n      tag_3\n      jumpi\n      dup1\n      0x1e8be099\n      eq\n      tag_4\n      jumpi\n      dup1\n      0x2a0acc6a\n      eq\n      tag_5\n      jumpi\n      dup1\n      0x3613a9f4\n      eq\n      tag_6\n      jumpi\n      dup1\n      0x4852a212\n      eq\n      tag_7\n      jumpi\n    tag_2:\n      0x00\n      dup1\n      revert\n        /* \"contracts/Gym_Contact.sol\":1877:1990  function getBalance() public view returns(address, uint){\r... */\n    tag_3:\n      tag_14\n      tag_15\n      jump\t// in\n    tag_14:\n      mload(0x40)\n      tag_16\n      swap3\n      swap2\n      swap1\n      tag_17\n      jump\t// in\n    tag_16:\n      mload(0x40)\n      dup1\n      swap2\n      sub\n      swap1\n      return\n        /* \"contracts/Gym_Contact.sol\":1073:1357  function updateClass(uint _index, string memory _name, uint _value) public {\r... */\n    tag_4:\n      tag_18\n      0x04\n      dup1\n      calldatasize\n      sub\n      dup2\n      add\n      swap1\n      tag_19\n      swap2\n      swap1\n      tag_20\n      jump\t// in\n    tag_19:\n      tag_21\n      jump\t// in\n    tag_18:\n      stop\n        /* \"contracts/Gym_Contact.sol\":392:422  address immutable public ADMIN */\n    tag_5:\n      tag_22\n      tag_23\n      jump\t// in\n    tag_22:\n      mload(0x40)\n      tag_24\n      swap2\n      swap1\n      tag_25\n      jump\t// in\n    tag_24:\n      mload(0x40)\n      dup1\n      swap2\n      sub\n      swap1\n      return\n        /* \"contracts/Gym_Contact.sol\":758:778  Class[] public class */\n    tag_6:\n      tag_26\n      0x04\n      dup1\n      calldatasize\n      sub\n      dup2\n      add\n      swap1\n      tag_27\n      swap2\n      swap1\n      tag_28\n      jump\t// in\n    tag_27:\n      tag_29\n      jump\t// in\n    tag_26:\n      mload(0x40)\n      tag_30\n      swap3\n      swap2\n      swap1\n      tag_31\n      jump\t// in\n    tag_30:\n      mload(0x40)\n      dup1\n      swap2\n      sub\n      swap1\n      return\n        /* \"contracts/Gym_Contact.sol\":818:1065  function createClass(string memory _name, uint _value) public {\r... */\n    tag_7:\n      tag_32\n      0x04\n      dup1\n      calldatasize\n      sub\n      dup2\n      add\n      swap1\n      tag_33\n      swap2\n      swap1\n      tag_34\n      jump\t// in\n    tag_33:\n      tag_35\n      jump\t// in\n    tag_32:\n      stop\n        /* \"contracts/Gym_Contact.sol\":1998:2249  function getClass(uint _index) public view returns (string memory name, uint value) {\r... */\n    tag_8:\n      tag_36\n      0x04\n      dup1\n      calldatasize\n      sub\n      dup2\n      add\n      swap1\n      tag_37\n      swap2\n      swap1\n      tag_28\n      jump\t// in\n    tag_37:\n      tag_38\n      jump\t// in\n    tag_36:\n      mload(0x40)\n      tag_39\n      swap3\n      swap2\n      swap1\n      tag_31\n      jump\t// in\n    tag_39:\n      mload(0x40)\n      dup1\n      swap2\n      sub\n      swap1\n      return\n        /* \"contracts/Gym_Contact.sol\":1483:1869  function register(address _address, uint _credits) public {\r... */\n    tag_9:\n      tag_40\n      0x04\n      dup1\n      calldatasize\n      sub\n      dup2\n      add\n      swap1\n      tag_41\n      swap2\n      swap1\n      tag_42\n      jump\t// in\n    tag_41:\n      tag_43\n      jump\t// in\n    tag_40:\n      stop\n        /* \"contracts/Gym_Contact.sol\":1365:1445  function removeClass(uint _index) public {\r... */\n    tag_10:\n      tag_44\n      0x04\n      dup1\n      calldatasize\n      sub\n      dup2\n      add\n      swap1\n      tag_45\n      swap2\n      swap1\n      tag_28\n      jump\t// in\n    tag_45:\n      tag_46\n      jump\t// in\n    tag_44:\n      stop\n        /* \"contracts/Gym_Contact.sol\":2257:2416  function takeClass(uint _index) public {\r... */\n    tag_11:\n      tag_47\n      0x04\n      dup1\n      calldatasize\n      sub\n      dup2\n      add\n      swap1\n      tag_48\n      swap2\n      swap1\n      tag_28\n      jump\t// in\n    tag_48:\n      tag_49\n      jump\t// in\n    tag_47:\n      stop\n        /* \"contracts/Gym_Contact.sol\":506:543  mapping(address => uint) public users */\n    tag_12:\n      tag_50\n      0x04\n      dup1\n      calldatasize\n      sub\n      dup2\n      add\n      swap1\n      tag_51\n      swap2\n      swap1\n      tag_52\n      jump\t// in\n    tag_51:\n      tag_53\n      jump\t// in\n    tag_50:\n      mload(0x40)\n      tag_54\n      swap2\n      swap1\n      tag_55\n      jump\t// in\n    tag_54:\n      mload(0x40)\n      dup1\n      swap2\n      sub\n      swap1\n      return\n        /* \"contracts/Gym_Contact.sol\":1877:1990  function getBalance() public view returns(address, uint){\r... */\n    tag_15:\n        /* \"contracts/Gym_Contact.sol\":1919:1926  address */\n      0x00\n        /* \"contracts/Gym_Contact.sol\":1928:1932  uint */\n      dup1\n        /* \"contracts/Gym_Contact.sol\":1952:1962  msg.sender */\n      caller\n        /* \"contracts/Gym_Contact.sol\":1964:1969  users */\n      0x00\n        /* \"contracts/Gym_Contact.sol\":1964:1981  users[msg.sender] */\n      dup1\n        /* \"contracts/Gym_Contact.sol\":1970:1980  msg.sender */\n      caller\n        /* \"contracts/Gym_Contact.sol\":1964:1981  users[msg.sender] */\n      0xffffffffffffffffffffffffffffffffffffffff\n      and\n      0xffffffffffffffffffffffffffffffffffffffff\n      and\n      dup2\n      mstore\n      0x20\n      add\n      swap1\n      dup2\n      mstore\n      0x20\n      add\n      0x00\n      keccak256\n      sload\n        /* \"contracts/Gym_Contact.sol\":1944:1982  return (msg.sender, users[msg.sender]) */\n      swap2\n      pop\n      swap2\n      pop\n        /* \"contracts/Gym_Contact.sol\":1877:1990  function getBalance() public view returns(address, uint){\r... */\n      swap1\n      swap2\n      jump\t// out\n        /* \"contracts/Gym_Contact.sol\":1073:1357  function updateClass(uint _index, string memory _name, uint _value) public {\r... */\n    tag_21:\n        /* \"contracts/Gym_Contact.sol\":1176:1186  msg.sender */\n      caller\n        /* \"contracts/Gym_Contact.sol\":1167:1186  ADMIN == msg.sender */\n      0xffffffffffffffffffffffffffffffffffffffff\n      and\n        /* \"contracts/Gym_Contact.sol\":1167:1172  ADMIN */\n      immutable(\"0x731dc163f73d31d8c68f9917ce4ff967753939f70432973c04fd2c2a48148607\")\n        /* \"contracts/Gym_Contact.sol\":1167:1186  ADMIN == msg.sender */\n      0xffffffffffffffffffffffffffffffffffffffff\n      and\n      eq\n        /* \"contracts/Gym_Contact.sol\":1159:1243  require(ADMIN == msg.sender, \"Solo el Administrador del Gym puede modificar clases\") */\n      tag_58\n      jumpi\n      mload(0x40)\n      0x08c379a000000000000000000000000000000000000000000000000000000000\n      dup2\n      mstore\n      0x04\n      add\n      tag_59\n      swap1\n      tag_60\n      jump\t// in\n    tag_59:\n      mload(0x40)\n      dup1\n      swap2\n      sub\n      swap1\n      revert\n    tag_58:\n        /* \"contracts/Gym_Contact.sol\":1254:1273  Class storage clase */\n      0x00\n        /* \"contracts/Gym_Contact.sol\":1276:1281  class */\n      0x01\n        /* \"contracts/Gym_Contact.sol\":1282:1288  _index */\n      dup5\n        /* \"contracts/Gym_Contact.sol\":1276:1289  class[_index] */\n      dup2\n      sload\n      dup2\n      lt\n      tag_61\n      jumpi\n      tag_62\n      tag_63\n      jump\t// in\n    tag_62:\n    tag_61:\n      swap1\n      0x00\n      mstore\n      keccak256(0x00, 0x20)\n      swap1\n      0x02\n      mul\n      add\n        /* \"contracts/Gym_Contact.sol\":1254:1289  Class storage clase = class[_index] */\n      swap1\n      pop\n        /* \"contracts/Gym_Contact.sol\":1313:1318  _name */\n      dup3\n        /* \"contracts/Gym_Contact.sol\":1300:1305  clase */\n      dup2\n        /* \"contracts/Gym_Contact.sol\":1300:1310  clase.name */\n      0x00\n      add\n        /* \"contracts/Gym_Contact.sol\":1300:1318  clase.name = _name */\n      swap1\n      dup1\n      mload\n      swap1\n      0x20\n      add\n      swap1\n      tag_65\n      swap3\n      swap2\n      swap1\n      tag_66\n      jump\t// in\n    tag_65:\n      pop\n        /* \"contracts/Gym_Contact.sol\":1343:1349  _value */\n      dup2\n        /* \"contracts/Gym_Contact.sol\":1329:1334  clase */\n      dup2\n        /* \"contracts/Gym_Contact.sol\":1329:1340  clase.value */\n      0x01\n      add\n        /* \"contracts/Gym_Contact.sol\":1329:1349  clase.value = _value */\n      dup2\n      swap1\n      sstore\n      pop\n        /* \"contracts/Gym_Contact.sol\":1148:1357  {\r... */\n      pop\n        /* \"contracts/Gym_Contact.sol\":1073:1357  function updateClass(uint _index, string memory _name, uint _value) public {\r... */\n      pop\n      pop\n      pop\n      jump\t// out\n        /* \"contracts/Gym_Contact.sol\":392:422  address immutable public ADMIN */\n    tag_23:\n      immutable(\"0x731dc163f73d31d8c68f9917ce4ff967753939f70432973c04fd2c2a48148607\")\n      dup2\n      jump\t// out\n        /* \"contracts/Gym_Contact.sol\":758:778  Class[] public class */\n    tag_29:\n      0x01\n      dup2\n      dup2\n      sload\n      dup2\n      lt\n      tag_67\n      jumpi\n      0x00\n      dup1\n      revert\n    tag_67:\n      swap1\n      0x00\n      mstore\n      keccak256(0x00, 0x20)\n      swap1\n      0x02\n      mul\n      add\n      0x00\n      swap2\n      pop\n      swap1\n      pop\n      dup1\n      0x00\n      add\n      dup1\n      sload\n      tag_69\n      swap1\n      tag_70\n      jump\t// in\n    tag_69:\n      dup1\n      0x1f\n      add\n      0x20\n      dup1\n      swap2\n      div\n      mul\n      0x20\n      add\n      mload(0x40)\n      swap1\n      dup2\n      add\n      0x40\n      mstore\n      dup1\n      swap3\n      swap2\n      swap1\n      dup2\n      dup2\n      mstore\n      0x20\n      add\n      dup3\n      dup1\n      sload\n      tag_71\n      swap1\n      tag_70\n      jump\t// in\n    tag_71:\n      dup1\n      iszero\n      tag_72\n      jumpi\n      dup1\n      0x1f\n      lt\n      tag_73\n      jumpi\n      0x0100\n      dup1\n      dup4\n      sload\n      div\n      mul\n      dup4\n      mstore\n      swap2\n      0x20\n      add\n      swap2\n      jump(tag_72)\n    tag_73:\n      dup3\n      add\n      swap2\n      swap1\n      0x00\n      mstore\n      keccak256(0x00, 0x20)\n      swap1\n    tag_74:\n      dup2\n      sload\n      dup2\n      mstore\n      swap1\n      0x01\n      add\n      swap1\n      0x20\n      add\n      dup1\n      dup4\n      gt\n      tag_74\n      jumpi\n      dup3\n      swap1\n      sub\n      0x1f\n      and\n      dup3\n      add\n      swap2\n    tag_72:\n      pop\n      pop\n      pop\n      pop\n      pop\n      swap1\n      dup1\n      0x01\n      add\n      sload\n      swap1\n      pop\n      dup3\n      jump\t// out\n        /* \"contracts/Gym_Contact.sol\":818:1065  function createClass(string memory _name, uint _value) public {\r... */\n    tag_35:\n        /* \"contracts/Gym_Contact.sol\":908:918  msg.sender */\n      caller\n        /* \"contracts/Gym_Contact.sol\":899:918  ADMIN == msg.sender */\n      0xffffffffffffffffffffffffffffffffffffffff\n      and\n        /* \"contracts/Gym_Contact.sol\":899:904  ADMIN */\n      immutable(\"0x731dc163f73d31d8c68f9917ce4ff967753939f70432973c04fd2c2a48148607\")\n        /* \"contracts/Gym_Contact.sol\":899:918  ADMIN == msg.sender */\n      0xffffffffffffffffffffffffffffffffffffffff\n      and\n      eq\n        /* \"contracts/Gym_Contact.sol\":891:971  require(ADMIN == msg.sender, \"Solo el Administrador del Gym puede crear clases\") */\n      tag_76\n      jumpi\n      mload(0x40)\n      0x08c379a000000000000000000000000000000000000000000000000000000000\n      dup2\n      mstore\n      0x04\n      add\n      tag_77\n      swap1\n      tag_78\n      jump\t// in\n    tag_77:\n      mload(0x40)\n      dup1\n      swap2\n      sub\n      swap1\n      revert\n    tag_76:\n        /* \"contracts/Gym_Contact.sol\":982:987  class */\n      0x01\n        /* \"contracts/Gym_Contact.sol\":993:1013  Class(_name, _value) */\n      mload(0x40)\n      dup1\n      0x40\n      add\n      0x40\n      mstore\n      dup1\n        /* \"contracts/Gym_Contact.sol\":999:1004  _name */\n      dup5\n        /* \"contracts/Gym_Contact.sol\":993:1013  Class(_name, _value) */\n      dup2\n      mstore\n      0x20\n      add\n        /* \"contracts/Gym_Contact.sol\":1006:1012  _value */\n      dup4\n        /* \"contracts/Gym_Contact.sol\":993:1013  Class(_name, _value) */\n      dup2\n      mstore\n      pop\n        /* \"contracts/Gym_Contact.sol\":982:1014  class.push(Class(_name, _value)) */\n      swap1\n      dup1\n      0x01\n      dup2\n      sload\n      add\n      dup1\n      dup3\n      sstore\n      dup1\n      swap2\n      pop\n      pop\n      0x01\n      swap1\n      sub\n      swap1\n      0x00\n      mstore\n      keccak256(0x00, 0x20)\n      swap1\n      0x02\n      mul\n      add\n      0x00\n      swap1\n      swap2\n      swap1\n      swap2\n      swap1\n      swap2\n      pop\n      0x00\n      dup3\n      add\n      mload\n      dup2\n      0x00\n      add\n      swap1\n      dup1\n      mload\n      swap1\n      0x20\n      add\n      swap1\n      tag_80\n      swap3\n      swap2\n      swap1\n      tag_66\n      jump\t// in\n    tag_80:\n      pop\n      0x20\n      dup3\n      add\n      mload\n      dup2\n      0x01\n      add\n      sstore\n      pop\n      pop\n        /* \"contracts/Gym_Contact.sol\":1030:1057  ClassCreated(_name, _value) */\n      0x14d49e3ea4f348b7f368906dfe1a63055c7822d622a61672a35a55ae97a768f9\n        /* \"contracts/Gym_Contact.sol\":1043:1048  _name */\n      dup3\n        /* \"contracts/Gym_Contact.sol\":1050:1056  _value */\n      dup3\n        /* \"contracts/Gym_Contact.sol\":1030:1057  ClassCreated(_name, _value) */\n      mload(0x40)\n      tag_81\n      swap3\n      swap2\n      swap1\n      tag_31\n      jump\t// in\n    tag_81:\n      mload(0x40)\n      dup1\n      swap2\n      sub\n      swap1\n      log1\n        /* \"contracts/Gym_Contact.sol\":818:1065  function createClass(string memory _name, uint _value) public {\r... */\n      pop\n      pop\n      jump\t// out\n        /* \"contracts/Gym_Contact.sol\":1998:2249  function getClass(uint _index) public view returns (string memory name, uint value) {\r... */\n    tag_38:\n        /* \"contracts/Gym_Contact.sol\":2050:2068  string memory name */\n      0x60\n        /* \"contracts/Gym_Contact.sol\":2070:2080  uint value */\n      0x00\n        /* \"contracts/Gym_Contact.sol\":2093:2112  Class storage clase */\n      dup1\n        /* \"contracts/Gym_Contact.sol\":2115:2120  class */\n      0x01\n        /* \"contracts/Gym_Contact.sol\":2121:2127  _index */\n      dup5\n        /* \"contracts/Gym_Contact.sol\":2115:2128  class[_index] */\n      dup2\n      sload\n      dup2\n      lt\n      tag_83\n      jumpi\n      tag_84\n      tag_63\n      jump\t// in\n    tag_84:\n    tag_83:\n      swap1\n      0x00\n      mstore\n      keccak256(0x00, 0x20)\n      swap1\n      0x02\n      mul\n      add\n        /* \"contracts/Gym_Contact.sol\":2093:2128  Class storage clase = class[_index] */\n      swap1\n      pop\n        /* \"contracts/Gym_Contact.sol\":2162:2163  0 */\n      0x00\n        /* \"contracts/Gym_Contact.sol\":2147:2152  clase */\n      dup2\n        /* \"contracts/Gym_Contact.sol\":2147:2158  clase.value */\n      0x01\n      add\n      sload\n        /* \"contracts/Gym_Contact.sol\":2147:2163  clase.value == 0 */\n      eq\n        /* \"contracts/Gym_Contact.sol\":2139:2198  require(clase.value == 0, \"No existe una clase con ese Id\") */\n      tag_86\n      jumpi\n      mload(0x40)\n      0x08c379a000000000000000000000000000000000000000000000000000000000\n      dup2\n      mstore\n      0x04\n      add\n      tag_87\n      swap1\n      tag_88\n      jump\t// in\n    tag_87:\n      mload(0x40)\n      dup1\n      swap2\n      sub\n      swap1\n      revert\n    tag_86:\n        /* \"contracts/Gym_Contact.sol\":2217:2222  clase */\n      dup1\n        /* \"contracts/Gym_Contact.sol\":2217:2227  clase.name */\n      0x00\n      add\n        /* \"contracts/Gym_Contact.sol\":2229:2234  clase */\n      dup2\n        /* \"contracts/Gym_Contact.sol\":2229:2240  clase.value */\n      0x01\n      add\n      sload\n        /* \"contracts/Gym_Contact.sol\":2209:2241  return (clase.name, clase.value) */\n      dup2\n      dup1\n      sload\n      tag_89\n      swap1\n      tag_70\n      jump\t// in\n    tag_89:\n      dup1\n      0x1f\n      add\n      0x20\n      dup1\n      swap2\n      div\n      mul\n      0x20\n      add\n      mload(0x40)\n      swap1\n      dup2\n      add\n      0x40\n      mstore\n      dup1\n      swap3\n      swap2\n      swap1\n      dup2\n      dup2\n      mstore\n      0x20\n      add\n      dup3\n      dup1\n      sload\n      tag_90\n      swap1\n      tag_70\n      jump\t// in\n    tag_90:\n      dup1\n      iszero\n      tag_91\n      jumpi\n      dup1\n      0x1f\n      lt\n      tag_92\n      jumpi\n      0x0100\n      dup1\n      dup4\n      sload\n      div\n      mul\n      dup4\n      mstore\n      swap2\n      0x20\n      add\n      swap2\n      jump(tag_91)\n    tag_92:\n      dup3\n      add\n      swap2\n      swap1\n      0x00\n      mstore\n      keccak256(0x00, 0x20)\n      swap1\n    tag_93:\n      dup2\n      sload\n      dup2\n      mstore\n      swap1\n      0x01\n      add\n      swap1\n      0x20\n      add\n      dup1\n      dup4\n      gt\n      tag_93\n      jumpi\n      dup3\n      swap1\n      sub\n      0x1f\n      and\n      dup3\n      add\n      swap2\n    tag_91:\n      pop\n      pop\n      pop\n      pop\n      pop\n      swap2\n      pop\n      swap3\n      pop\n      swap3\n      pop\n      pop\n        /* \"contracts/Gym_Contact.sol\":1998:2249  function getClass(uint _index) public view returns (string memory name, uint value) {\r... */\n      swap2\n      pop\n      swap2\n      jump\t// out\n        /* \"contracts/Gym_Contact.sol\":1483:1869  function register(address _address, uint _credits) public {\r... */\n    tag_43:\n        /* \"contracts/Gym_Contact.sol\":1684:1685  0 */\n      0x00\n        /* \"contracts/Gym_Contact.sol\":1663:1668  users */\n      dup1\n        /* \"contracts/Gym_Contact.sol\":1663:1680  users[msg.sender] */\n      0x00\n        /* \"contracts/Gym_Contact.sol\":1669:1679  msg.sender */\n      caller\n        /* \"contracts/Gym_Contact.sol\":1663:1680  users[msg.sender] */\n      0xffffffffffffffffffffffffffffffffffffffff\n      and\n      0xffffffffffffffffffffffffffffffffffffffff\n      and\n      dup2\n      mstore\n      0x20\n      add\n      swap1\n      dup2\n      mstore\n      0x20\n      add\n      0x00\n      keccak256\n      sload\n        /* \"contracts/Gym_Contact.sol\":1663:1685  users[msg.sender] == 0 */\n      eq\n        /* \"contracts/Gym_Contact.sol\":1655:1727  require(users[msg.sender] == 0, \"Ya te encuentras registrado en el gym\") */\n      tag_95\n      jumpi\n      mload(0x40)\n      0x08c379a000000000000000000000000000000000000000000000000000000000\n      dup2\n      mstore\n      0x04\n      add\n      tag_96\n      swap1\n      tag_97\n      jump\t// in\n    tag_96:\n      mload(0x40)\n      dup1\n      swap2\n      sub\n      swap1\n      revert\n    tag_95:\n        /* \"contracts/Gym_Contact.sol\":1758:1766  _credits */\n      dup1\n        /* \"contracts/Gym_Contact.sol\":1738:1743  users */\n      0x00\n        /* \"contracts/Gym_Contact.sol\":1738:1755  users[msg.sender] */\n      dup1\n        /* \"contracts/Gym_Contact.sol\":1744:1754  msg.sender */\n      caller\n        /* \"contracts/Gym_Contact.sol\":1738:1755  users[msg.sender] */\n      0xffffffffffffffffffffffffffffffffffffffff\n      and\n      0xffffffffffffffffffffffffffffffffffffffff\n      and\n      dup2\n      mstore\n      0x20\n      add\n      swap1\n      dup2\n      mstore\n      0x20\n      add\n      0x00\n      keccak256\n        /* \"contracts/Gym_Contact.sol\":1738:1766  users[msg.sender] = _credits */\n      dup2\n      swap1\n      sstore\n      pop\n        /* \"contracts/Gym_Contact.sol\":1782:1810  Register(_address, _credits) */\n      0x7dc6ab80cc84c043b7b8d4fcafc802187470087f7ea7fccd2e17aecd0256a1\n        /* \"contracts/Gym_Contact.sol\":1791:1799  _address */\n      dup3\n        /* \"contracts/Gym_Contact.sol\":1801:1809  _credits */\n      dup3\n        /* \"contracts/Gym_Contact.sol\":1782:1810  Register(_address, _credits) */\n      mload(0x40)\n      tag_98\n      swap3\n      swap2\n      swap1\n      tag_17\n      jump\t// in\n    tag_98:\n      mload(0x40)\n      dup1\n      swap2\n      sub\n      swap1\n      log1\n        /* \"contracts/Gym_Contact.sol\":1483:1869  function register(address _address, uint _credits) public {\r... */\n      pop\n      pop\n      jump\t// out\n        /* \"contracts/Gym_Contact.sol\":1365:1445  function removeClass(uint _index) public {\r... */\n    tag_46:\n        /* \"contracts/Gym_Contact.sol\":1424:1429  class */\n      0x01\n        /* \"contracts/Gym_Contact.sol\":1430:1436  _index */\n      dup2\n        /* \"contracts/Gym_Contact.sol\":1424:1437  class[_index] */\n      dup2\n      sload\n      dup2\n      lt\n      tag_100\n      jumpi\n      tag_101\n      tag_63\n      jump\t// in\n    tag_101:\n    tag_100:\n      swap1\n      0x00\n      mstore\n      keccak256(0x00, 0x20)\n      swap1\n      0x02\n      mul\n      add\n      0x00\n        /* \"contracts/Gym_Contact.sol\":1417:1437  delete class[_index] */\n      dup1\n      dup3\n      add\n      0x00\n      tag_103\n      swap2\n      swap1\n      tag_104\n      jump\t// in\n    tag_103:\n      0x01\n      dup3\n      add\n      0x00\n      swap1\n      sstore\n      pop\n      pop\n        /* \"contracts/Gym_Contact.sol\":1365:1445  function removeClass(uint _index) public {\r... */\n      pop\n      jump\t// out\n        /* \"contracts/Gym_Contact.sol\":2257:2416  function takeClass(uint _index) public {\r... */\n    tag_49:\n        /* \"contracts/Gym_Contact.sol\":2307:2326  Class storage clase */\n      0x00\n        /* \"contracts/Gym_Contact.sol\":2329:2334  class */\n      0x01\n        /* \"contracts/Gym_Contact.sol\":2335:2341  _index */\n      dup3\n        /* \"contracts/Gym_Contact.sol\":2329:2342  class[_index] */\n      dup2\n      sload\n      dup2\n      lt\n      tag_106\n      jumpi\n      tag_107\n      tag_63\n      jump\t// in\n    tag_107:\n    tag_106:\n      swap1\n      0x00\n      mstore\n      keccak256(0x00, 0x20)\n      swap1\n      0x02\n      mul\n      add\n        /* \"contracts/Gym_Contact.sol\":2307:2342  Class storage clase = class[_index] */\n      swap1\n      pop\n        /* \"contracts/Gym_Contact.sol\":2374:2379  clase */\n      dup1\n        /* \"contracts/Gym_Contact.sol\":2374:2385  clase.value */\n      0x01\n      add\n      sload\n        /* \"contracts/Gym_Contact.sol\":2353:2358  users */\n      0x00\n        /* \"contracts/Gym_Contact.sol\":2353:2370  users[msg.sender] */\n      dup1\n        /* \"contracts/Gym_Contact.sol\":2359:2369  msg.sender */\n      caller\n        /* \"contracts/Gym_Contact.sol\":2353:2370  users[msg.sender] */\n      0xffffffffffffffffffffffffffffffffffffffff\n      and\n      0xffffffffffffffffffffffffffffffffffffffff\n      and\n      dup2\n      mstore\n      0x20\n      add\n      swap1\n      dup2\n      mstore\n      0x20\n      add\n      0x00\n      keccak256\n      0x00\n        /* \"contracts/Gym_Contact.sol\":2353:2385  users[msg.sender] -= clase.value */\n      dup3\n      dup3\n      sload\n      tag_109\n      swap2\n      swap1\n      tag_110\n      jump\t// in\n    tag_109:\n      swap3\n      pop\n      pop\n      dup2\n      swap1\n      sstore\n      pop\n        /* \"contracts/Gym_Contact.sol\":2396:2408  getBalance() */\n      tag_111\n        /* \"contracts/Gym_Contact.sol\":2396:2406  getBalance */\n      tag_15\n        /* \"contracts/Gym_Contact.sol\":2396:2408  getBalance() */\n      jump\t// in\n    tag_111:\n      pop\n      pop\n        /* \"contracts/Gym_Contact.sol\":2296:2416  {\r... */\n      pop\n        /* \"contracts/Gym_Contact.sol\":2257:2416  function takeClass(uint _index) public {\r... */\n      pop\n      jump\t// out\n        /* \"contracts/Gym_Contact.sol\":506:543  mapping(address => uint) public users */\n    tag_53:\n      mstore(0x20, 0x00)\n      dup1\n      0x00\n      mstore\n      keccak256(0x00, 0x40)\n      0x00\n      swap2\n      pop\n      swap1\n      pop\n      sload\n      dup2\n      jump\t// out\n    tag_66:\n      dup3\n      dup1\n      sload\n      tag_112\n      swap1\n      tag_70\n      jump\t// in\n    tag_112:\n      swap1\n      0x00\n      mstore\n      keccak256(0x00, 0x20)\n      swap1\n      0x1f\n      add\n      0x20\n      swap1\n      div\n      dup2\n      add\n      swap3\n      dup3\n      tag_114\n      jumpi\n      0x00\n      dup6\n      sstore\n      jump(tag_113)\n    tag_114:\n      dup3\n      0x1f\n      lt\n      tag_115\n      jumpi\n      dup1\n      mload\n      not(0xff)\n      and\n      dup4\n      dup1\n      add\n      or\n      dup6\n      sstore\n      jump(tag_113)\n    tag_115:\n      dup3\n      dup1\n      add\n      0x01\n      add\n      dup6\n      sstore\n      dup3\n      iszero\n      tag_113\n      jumpi\n      swap2\n      dup3\n      add\n    tag_116:\n      dup3\n      dup2\n      gt\n      iszero\n      tag_117\n      jumpi\n      dup3\n      mload\n      dup3\n      sstore\n      swap2\n      0x20\n      add\n      swap2\n      swap1\n      0x01\n      add\n      swap1\n      jump(tag_116)\n    tag_117:\n    tag_113:\n      pop\n      swap1\n      pop\n      tag_118\n      swap2\n      swap1\n      tag_119\n      jump\t// in\n    tag_118:\n      pop\n      swap1\n      jump\t// out\n    tag_104:\n      pop\n      dup1\n      sload\n      tag_120\n      swap1\n      tag_70\n      jump\t// in\n    tag_120:\n      0x00\n      dup3\n      sstore\n      dup1\n      0x1f\n      lt\n      tag_122\n      jumpi\n      pop\n      jump(tag_121)\n    tag_122:\n      0x1f\n      add\n      0x20\n      swap1\n      div\n      swap1\n      0x00\n      mstore\n      keccak256(0x00, 0x20)\n      swap1\n      dup2\n      add\n      swap1\n      tag_123\n      swap2\n      swap1\n      tag_119\n      jump\t// in\n    tag_123:\n    tag_121:\n      pop\n      jump\t// out\n    tag_119:\n    tag_124:\n      dup1\n      dup3\n      gt\n      iszero\n      tag_125\n      jumpi\n      0x00\n      dup2\n      0x00\n      swap1\n      sstore\n      pop\n      0x01\n      add\n      jump(tag_124)\n    tag_125:\n      pop\n      swap1\n      jump\t// out\n        /* \"#utility.yul\":7:419   */\n    tag_127:\n        /* \"#utility.yul\":85:90   */\n      0x00\n        /* \"#utility.yul\":110:176   */\n      tag_129\n        /* \"#utility.yul\":126:175   */\n      tag_130\n        /* \"#utility.yul\":168:174   */\n      dup5\n        /* \"#utility.yul\":126:175   */\n      tag_131\n      jump\t// in\n    tag_130:\n        /* \"#utility.yul\":110:176   */\n      tag_132\n      jump\t// in\n    tag_129:\n        /* \"#utility.yul\":101:176   */\n      swap1\n      pop\n        /* \"#utility.yul\":199:205   */\n      dup3\n        /* \"#utility.yul\":192:197   */\n      dup2\n        /* \"#utility.yul\":185:206   */\n      mstore\n        /* \"#utility.yul\":237:241   */\n      0x20\n        /* \"#utility.yul\":230:235   */\n      dup2\n        /* \"#utility.yul\":226:242   */\n      add\n        /* \"#utility.yul\":275:278   */\n      dup5\n        /* \"#utility.yul\":266:272   */\n      dup5\n        /* \"#utility.yul\":261:264   */\n      dup5\n        /* \"#utility.yul\":257:273   */\n      add\n        /* \"#utility.yul\":254:279   */\n      gt\n        /* \"#utility.yul\":251:363   */\n      iszero\n      tag_133\n      jumpi\n        /* \"#utility.yul\":282:361   */\n      tag_134\n      tag_135\n      jump\t// in\n    tag_134:\n        /* \"#utility.yul\":251:363   */\n    tag_133:\n        /* \"#utility.yul\":372:413   */\n      tag_136\n        /* \"#utility.yul\":406:412   */\n      dup5\n        /* \"#utility.yul\":401:404   */\n      dup3\n        /* \"#utility.yul\":396:399   */\n      dup6\n        /* \"#utility.yul\":372:413   */\n      tag_137\n      jump\t// in\n    tag_136:\n        /* \"#utility.yul\":91:419   */\n      pop\n        /* \"#utility.yul\":7:419   */\n      swap4\n      swap3\n      pop\n      pop\n      pop\n      jump\t// out\n        /* \"#utility.yul\":425:564   */\n    tag_138:\n        /* \"#utility.yul\":471:476   */\n      0x00\n        /* \"#utility.yul\":509:515   */\n      dup2\n        /* \"#utility.yul\":496:516   */\n      calldataload\n        /* \"#utility.yul\":487:516   */\n      swap1\n      pop\n        /* \"#utility.yul\":525:558   */\n      tag_140\n        /* \"#utility.yul\":552:557   */\n      dup2\n        /* \"#utility.yul\":525:558   */\n      tag_141\n      jump\t// in\n    tag_140:\n        /* \"#utility.yul\":425:564   */\n      swap3\n      swap2\n      pop\n      pop\n      jump\t// out\n        /* \"#utility.yul\":584:924   */\n    tag_142:\n        /* \"#utility.yul\":640:645   */\n      0x00\n        /* \"#utility.yul\":689:692   */\n      dup3\n        /* \"#utility.yul\":682:686   */\n      0x1f\n        /* \"#utility.yul\":674:680   */\n      dup4\n        /* \"#utility.yul\":670:687   */\n      add\n        /* \"#utility.yul\":666:693   */\n      slt\n        /* \"#utility.yul\":656:778   */\n      tag_144\n      jumpi\n        /* \"#utility.yul\":697:776   */\n      tag_145\n      tag_146\n      jump\t// in\n    tag_145:\n        /* \"#utility.yul\":656:778   */\n    tag_144:\n        /* \"#utility.yul\":814:820   */\n      dup2\n        /* \"#utility.yul\":801:821   */\n      calldataload\n        /* \"#utility.yul\":839:918   */\n      tag_147\n        /* \"#utility.yul\":914:917   */\n      dup5\n        /* \"#utility.yul\":906:912   */\n      dup3\n        /* \"#utility.yul\":899:903   */\n      0x20\n        /* \"#utility.yul\":891:897   */\n      dup7\n        /* \"#utility.yul\":887:904   */\n      add\n        /* \"#utility.yul\":839:918   */\n      tag_127\n      jump\t// in\n    tag_147:\n        /* \"#utility.yul\":830:918   */\n      swap2\n      pop\n        /* \"#utility.yul\":646:924   */\n      pop\n        /* \"#utility.yul\":584:924   */\n      swap3\n      swap2\n      pop\n      pop\n      jump\t// out\n        /* \"#utility.yul\":930:1069   */\n    tag_148:\n        /* \"#utility.yul\":976:981   */\n      0x00\n        /* \"#utility.yul\":1014:1020   */\n      dup2\n        /* \"#utility.yul\":1001:1021   */\n      calldataload\n        /* \"#utility.yul\":992:1021   */\n      swap1\n      pop\n        /* \"#utility.yul\":1030:1063   */\n      tag_150\n        /* \"#utility.yul\":1057:1062   */\n      dup2\n        /* \"#utility.yul\":1030:1063   */\n      tag_151\n      jump\t// in\n    tag_150:\n        /* \"#utility.yul\":930:1069   */\n      swap3\n      swap2\n      pop\n      pop\n      jump\t// out\n        /* \"#utility.yul\":1075:1404   */\n    tag_52:\n        /* \"#utility.yul\":1134:1140   */\n      0x00\n        /* \"#utility.yul\":1183:1185   */\n      0x20\n        /* \"#utility.yul\":1171:1180   */\n      dup3\n        /* \"#utility.yul\":1162:1169   */\n      dup5\n        /* \"#utility.yul\":1158:1181   */\n      sub\n        /* \"#utility.yul\":1154:1186   */\n      slt\n        /* \"#utility.yul\":1151:1270   */\n      iszero\n      tag_153\n      jumpi\n        /* \"#utility.yul\":1189:1268   */\n      tag_154\n      tag_155\n      jump\t// in\n    tag_154:\n        /* \"#utility.yul\":1151:1270   */\n    tag_153:\n        /* \"#utility.yul\":1309:1310   */\n      0x00\n        /* \"#utility.yul\":1334:1387   */\n      tag_156\n        /* \"#utility.yul\":1379:1386   */\n      dup5\n        /* \"#utility.yul\":1370:1376   */\n      dup3\n        /* \"#utility.yul\":1359:1368   */\n      dup6\n        /* \"#utility.yul\":1355:1377   */\n      add\n        /* \"#utility.yul\":1334:1387   */\n      tag_138\n      jump\t// in\n    tag_156:\n        /* \"#utility.yul\":1324:1387   */\n      swap2\n      pop\n        /* \"#utility.yul\":1280:1397   */\n      pop\n        /* \"#utility.yul\":1075:1404   */\n      swap3\n      swap2\n      pop\n      pop\n      jump\t// out\n        /* \"#utility.yul\":1410:1884   */\n    tag_42:\n        /* \"#utility.yul\":1478:1484   */\n      0x00\n        /* \"#utility.yul\":1486:1492   */\n      dup1\n        /* \"#utility.yul\":1535:1537   */\n      0x40\n        /* \"#utility.yul\":1523:1532   */\n      dup4\n        /* \"#utility.yul\":1514:1521   */\n      dup6\n        /* \"#utility.yul\":1510:1533   */\n      sub\n        /* \"#utility.yul\":1506:1538   */\n      slt\n        /* \"#utility.yul\":1503:1622   */\n      iszero\n      tag_158\n      jumpi\n        /* \"#utility.yul\":1541:1620   */\n      tag_159\n      tag_155\n      jump\t// in\n    tag_159:\n        /* \"#utility.yul\":1503:1622   */\n    tag_158:\n        /* \"#utility.yul\":1661:1662   */\n      0x00\n        /* \"#utility.yul\":1686:1739   */\n      tag_160\n        /* \"#utility.yul\":1731:1738   */\n      dup6\n        /* \"#utility.yul\":1722:1728   */\n      dup3\n        /* \"#utility.yul\":1711:1720   */\n      dup7\n        /* \"#utility.yul\":1707:1729   */\n      add\n        /* \"#utility.yul\":1686:1739   */\n      tag_138\n      jump\t// in\n    tag_160:\n        /* \"#utility.yul\":1676:1739   */\n      swap3\n      pop\n        /* \"#utility.yul\":1632:1749   */\n      pop\n        /* \"#utility.yul\":1788:1790   */\n      0x20\n        /* \"#utility.yul\":1814:1867   */\n      tag_161\n        /* \"#utility.yul\":1859:1866   */\n      dup6\n        /* \"#utility.yul\":1850:1856   */\n      dup3\n        /* \"#utility.yul\":1839:1848   */\n      dup7\n        /* \"#utility.yul\":1835:1857   */\n      add\n        /* \"#utility.yul\":1814:1867   */\n      tag_148\n      jump\t// in\n    tag_161:\n        /* \"#utility.yul\":1804:1867   */\n      swap2\n      pop\n        /* \"#utility.yul\":1759:1877   */\n      pop\n        /* \"#utility.yul\":1410:1884   */\n      swap3\n      pop\n      swap3\n      swap1\n      pop\n      jump\t// out\n        /* \"#utility.yul\":1890:2544   */\n    tag_34:\n        /* \"#utility.yul\":1968:1974   */\n      0x00\n        /* \"#utility.yul\":1976:1982   */\n      dup1\n        /* \"#utility.yul\":2025:2027   */\n      0x40\n        /* \"#utility.yul\":2013:2022   */\n      dup4\n        /* \"#utility.yul\":2004:2011   */\n      dup6\n        /* \"#utility.yul\":2000:2023   */\n      sub\n        /* \"#utility.yul\":1996:2028   */\n      slt\n        /* \"#utility.yul\":1993:2112   */\n      iszero\n      tag_163\n      jumpi\n        /* \"#utility.yul\":2031:2110   */\n      tag_164\n      tag_155\n      jump\t// in\n    tag_164:\n        /* \"#utility.yul\":1993:2112   */\n    tag_163:\n        /* \"#utility.yul\":2179:2180   */\n      0x00\n        /* \"#utility.yul\":2168:2177   */\n      dup4\n        /* \"#utility.yul\":2164:2181   */\n      add\n        /* \"#utility.yul\":2151:2182   */\n      calldataload\n        /* \"#utility.yul\":2209:2227   */\n      0xffffffffffffffff\n        /* \"#utility.yul\":2201:2207   */\n      dup2\n        /* \"#utility.yul\":2198:2228   */\n      gt\n        /* \"#utility.yul\":2195:2312   */\n      iszero\n      tag_165\n      jumpi\n        /* \"#utility.yul\":2231:2310   */\n      tag_166\n      tag_167\n      jump\t// in\n    tag_166:\n        /* \"#utility.yul\":2195:2312   */\n    tag_165:\n        /* \"#utility.yul\":2336:2399   */\n      tag_168\n        /* \"#utility.yul\":2391:2398   */\n      dup6\n        /* \"#utility.yul\":2382:2388   */\n      dup3\n        /* \"#utility.yul\":2371:2380   */\n      dup7\n        /* \"#utility.yul\":2367:2389   */\n      add\n        /* \"#utility.yul\":2336:2399   */\n      tag_142\n      jump\t// in\n    tag_168:\n        /* \"#utility.yul\":2326:2399   */\n      swap3\n      pop\n        /* \"#utility.yul\":2122:2409   */\n      pop\n        /* \"#utility.yul\":2448:2450   */\n      0x20\n        /* \"#utility.yul\":2474:2527   */\n      tag_169\n        /* \"#utility.yul\":2519:2526   */\n      dup6\n        /* \"#utility.yul\":2510:2516   */\n      dup3\n        /* \"#utility.yul\":2499:2508   */\n      dup7\n        /* \"#utility.yul\":2495:2517   */\n      add\n        /* \"#utility.yul\":2474:2527   */\n      tag_148\n      jump\t// in\n    tag_169:\n        /* \"#utility.yul\":2464:2527   */\n      swap2\n      pop\n        /* \"#utility.yul\":2419:2537   */\n      pop\n        /* \"#utility.yul\":1890:2544   */\n      swap3\n      pop\n      swap3\n      swap1\n      pop\n      jump\t// out\n        /* \"#utility.yul\":2550:2879   */\n    tag_28:\n        /* \"#utility.yul\":2609:2615   */\n      0x00\n        /* \"#utility.yul\":2658:2660   */\n      0x20\n        /* \"#utility.yul\":2646:2655   */\n      dup3\n        /* \"#utility.yul\":2637:2644   */\n      dup5\n        /* \"#utility.yul\":2633:2656   */\n      sub\n        /* \"#utility.yul\":2629:2661   */\n      slt\n        /* \"#utility.yul\":2626:2745   */\n      iszero\n      tag_171\n      jumpi\n        /* \"#utility.yul\":2664:2743   */\n      tag_172\n      tag_155\n      jump\t// in\n    tag_172:\n        /* \"#utility.yul\":2626:2745   */\n    tag_171:\n        /* \"#utility.yul\":2784:2785   */\n      0x00\n        /* \"#utility.yul\":2809:2862   */\n      tag_173\n        /* \"#utility.yul\":2854:2861   */\n      dup5\n        /* \"#utility.yul\":2845:2851   */\n      dup3\n        /* \"#utility.yul\":2834:2843   */\n      dup6\n        /* \"#utility.yul\":2830:2852   */\n      add\n        /* \"#utility.yul\":2809:2862   */\n      tag_148\n      jump\t// in\n    tag_173:\n        /* \"#utility.yul\":2799:2862   */\n      swap2\n      pop\n        /* \"#utility.yul\":2755:2872   */\n      pop\n        /* \"#utility.yul\":2550:2879   */\n      swap3\n      swap2\n      pop\n      pop\n      jump\t// out\n        /* \"#utility.yul\":2885:3684   */\n    tag_20:\n        /* \"#utility.yul\":2972:2978   */\n      0x00\n        /* \"#utility.yul\":2980:2986   */\n      dup1\n        /* \"#utility.yul\":2988:2994   */\n      0x00\n        /* \"#utility.yul\":3037:3039   */\n      0x60\n        /* \"#utility.yul\":3025:3034   */\n      dup5\n        /* \"#utility.yul\":3016:3023   */\n      dup7\n        /* \"#utility.yul\":3012:3035   */\n      sub\n        /* \"#utility.yul\":3008:3040   */\n      slt\n        /* \"#utility.yul\":3005:3124   */\n      iszero\n      tag_175\n      jumpi\n        /* \"#utility.yul\":3043:3122   */\n      tag_176\n      tag_155\n      jump\t// in\n    tag_176:\n        /* \"#utility.yul\":3005:3124   */\n    tag_175:\n        /* \"#utility.yul\":3163:3164   */\n      0x00\n        /* \"#utility.yul\":3188:3241   */\n      tag_177\n        /* \"#utility.yul\":3233:3240   */\n      dup7\n        /* \"#utility.yul\":3224:3230   */\n      dup3\n        /* \"#utility.yul\":3213:3222   */\n      dup8\n        /* \"#utility.yul\":3209:3231   */\n      add\n        /* \"#utility.yul\":3188:3241   */\n      tag_148\n      jump\t// in\n    tag_177:\n        /* \"#utility.yul\":3178:3241   */\n      swap4\n      pop\n        /* \"#utility.yul\":3134:3251   */\n      pop\n        /* \"#utility.yul\":3318:3320   */\n      0x20\n        /* \"#utility.yul\":3307:3316   */\n      dup5\n        /* \"#utility.yul\":3303:3321   */\n      add\n        /* \"#utility.yul\":3290:3322   */\n      calldataload\n        /* \"#utility.yul\":3349:3367   */\n      0xffffffffffffffff\n        /* \"#utility.yul\":3341:3347   */\n      dup2\n        /* \"#utility.yul\":3338:3368   */\n      gt\n        /* \"#utility.yul\":3335:3452   */\n      iszero\n      tag_178\n      jumpi\n        /* \"#utility.yul\":3371:3450   */\n      tag_179\n      tag_167\n      jump\t// in\n    tag_179:\n        /* \"#utility.yul\":3335:3452   */\n    tag_178:\n        /* \"#utility.yul\":3476:3539   */\n      tag_180\n        /* \"#utility.yul\":3531:3538   */\n      dup7\n        /* \"#utility.yul\":3522:3528   */\n      dup3\n        /* \"#utility.yul\":3511:3520   */\n      dup8\n        /* \"#utility.yul\":3507:3529   */\n      add\n        /* \"#utility.yul\":3476:3539   */\n      tag_142\n      jump\t// in\n    tag_180:\n        /* \"#utility.yul\":3466:3539   */\n      swap3\n      pop\n        /* \"#utility.yul\":3261:3549   */\n      pop\n        /* \"#utility.yul\":3588:3590   */\n      0x40\n        /* \"#utility.yul\":3614:3667   */\n      tag_181\n        /* \"#utility.yul\":3659:3666   */\n      dup7\n        /* \"#utility.yul\":3650:3656   */\n      dup3\n        /* \"#utility.yul\":3639:3648   */\n      dup8\n        /* \"#utility.yul\":3635:3657   */\n      add\n        /* \"#utility.yul\":3614:3667   */\n      tag_148\n      jump\t// in\n    tag_181:\n        /* \"#utility.yul\":3604:3667   */\n      swap2\n      pop\n        /* \"#utility.yul\":3559:3677   */\n      pop\n        /* \"#utility.yul\":2885:3684   */\n      swap3\n      pop\n      swap3\n      pop\n      swap3\n      jump\t// out\n        /* \"#utility.yul\":3690:3808   */\n    tag_182:\n        /* \"#utility.yul\":3777:3801   */\n      tag_184\n        /* \"#utility.yul\":3795:3800   */\n      dup2\n        /* \"#utility.yul\":3777:3801   */\n      tag_185\n      jump\t// in\n    tag_184:\n        /* \"#utility.yul\":3772:3775   */\n      dup3\n        /* \"#utility.yul\":3765:3802   */\n      mstore\n        /* \"#utility.yul\":3690:3808   */\n      pop\n      pop\n      jump\t// out\n        /* \"#utility.yul\":3814:4178   */\n    tag_186:\n        /* \"#utility.yul\":3902:3905   */\n      0x00\n        /* \"#utility.yul\":3930:3969   */\n      tag_188\n        /* \"#utility.yul\":3963:3968   */\n      dup3\n        /* \"#utility.yul\":3930:3969   */\n      tag_189\n      jump\t// in\n    tag_188:\n        /* \"#utility.yul\":3985:4056   */\n      tag_190\n        /* \"#utility.yul\":4049:4055   */\n      dup2\n        /* \"#utility.yul\":4044:4047   */\n      dup6\n        /* \"#utility.yul\":3985:4056   */\n      tag_191\n      jump\t// in\n    tag_190:\n        /* \"#utility.yul\":3978:4056   */\n      swap4\n      pop\n        /* \"#utility.yul\":4065:4117   */\n      tag_192\n        /* \"#utility.yul\":4110:4116   */\n      dup2\n        /* \"#utility.yul\":4105:4108   */\n      dup6\n        /* \"#utility.yul\":4098:4102   */\n      0x20\n        /* \"#utility.yul\":4091:4096   */\n      dup7\n        /* \"#utility.yul\":4087:4103   */\n      add\n        /* \"#utility.yul\":4065:4117   */\n      tag_193\n      jump\t// in\n    tag_192:\n        /* \"#utility.yul\":4142:4171   */\n      tag_194\n        /* \"#utility.yul\":4164:4170   */\n      dup2\n        /* \"#utility.yul\":4142:4171   */\n      tag_195\n      jump\t// in\n    tag_194:\n        /* \"#utility.yul\":4137:4140   */\n      dup5\n        /* \"#utility.yul\":4133:4172   */\n      add\n        /* \"#utility.yul\":4126:4172   */\n      swap2\n      pop\n        /* \"#utility.yul\":3906:4178   */\n      pop\n        /* \"#utility.yul\":3814:4178   */\n      swap3\n      swap2\n      pop\n      pop\n      jump\t// out\n        /* \"#utility.yul\":4184:4550   */\n    tag_196:\n        /* \"#utility.yul\":4326:4329   */\n      0x00\n        /* \"#utility.yul\":4347:4414   */\n      tag_198\n        /* \"#utility.yul\":4411:4413   */\n      0x34\n        /* \"#utility.yul\":4406:4409   */\n      dup4\n        /* \"#utility.yul\":4347:4414   */\n      tag_191\n      jump\t// in\n    tag_198:\n        /* \"#utility.yul\":4340:4414   */\n      swap2\n      pop\n        /* \"#utility.yul\":4423:4516   */\n      tag_199\n        /* \"#utility.yul\":4512:4515   */\n      dup3\n        /* \"#utility.yul\":4423:4516   */\n      tag_200\n      jump\t// in\n    tag_199:\n        /* \"#utility.yul\":4541:4543   */\n      0x40\n        /* \"#utility.yul\":4536:4539   */\n      dup3\n        /* \"#utility.yul\":4532:4544   */\n      add\n        /* \"#utility.yul\":4525:4544   */\n      swap1\n      pop\n        /* \"#utility.yul\":4184:4550   */\n      swap2\n      swap1\n      pop\n      jump\t// out\n        /* \"#utility.yul\":4556:4922   */\n    tag_201:\n        /* \"#utility.yul\":4698:4701   */\n      0x00\n        /* \"#utility.yul\":4719:4786   */\n      tag_203\n        /* \"#utility.yul\":4783:4785   */\n      0x25\n        /* \"#utility.yul\":4778:4781   */\n      dup4\n        /* \"#utility.yul\":4719:4786   */\n      tag_191\n      jump\t// in\n    tag_203:\n        /* \"#utility.yul\":4712:4786   */\n      swap2\n      pop\n        /* \"#utility.yul\":4795:4888   */\n      tag_204\n        /* \"#utility.yul\":4884:4887   */\n      dup3\n        /* \"#utility.yul\":4795:4888   */\n      tag_205\n      jump\t// in\n    tag_204:\n        /* \"#utility.yul\":4913:4915   */\n      0x40\n        /* \"#utility.yul\":4908:4911   */\n      dup3\n        /* \"#utility.yul\":4904:4916   */\n      add\n        /* \"#utility.yul\":4897:4916   */\n      swap1\n      pop\n        /* \"#utility.yul\":4556:4922   */\n      swap2\n      swap1\n      pop\n      jump\t// out\n        /* \"#utility.yul\":4928:5294   */\n    tag_206:\n        /* \"#utility.yul\":5070:5073   */\n      0x00\n        /* \"#utility.yul\":5091:5158   */\n      tag_208\n        /* \"#utility.yul\":5155:5157   */\n      0x30\n        /* \"#utility.yul\":5150:5153   */\n      dup4\n        /* \"#utility.yul\":5091:5158   */\n      tag_191\n      jump\t// in\n    tag_208:\n        /* \"#utility.yul\":5084:5158   */\n      swap2\n      pop\n        /* \"#utility.yul\":5167:5260   */\n      tag_209\n        /* \"#utility.yul\":5256:5259   */\n      dup3\n        /* \"#utility.yul\":5167:5260   */\n      tag_210\n      jump\t// in\n    tag_209:\n        /* \"#utility.yul\":5285:5287   */\n      0x40\n        /* \"#utility.yul\":5280:5283   */\n      dup3\n        /* \"#utility.yul\":5276:5288   */\n      add\n        /* \"#utility.yul\":5269:5288   */\n      swap1\n      pop\n        /* \"#utility.yul\":4928:5294   */\n      swap2\n      swap1\n      pop\n      jump\t// out\n        /* \"#utility.yul\":5300:5666   */\n    tag_211:\n        /* \"#utility.yul\":5442:5445   */\n      0x00\n        /* \"#utility.yul\":5463:5530   */\n      tag_213\n        /* \"#utility.yul\":5527:5529   */\n      0x1e\n        /* \"#utility.yul\":5522:5525   */\n      dup4\n        /* \"#utility.yul\":5463:5530   */\n      tag_191\n      jump\t// in\n    tag_213:\n        /* \"#utility.yul\":5456:5530   */\n      swap2\n      pop\n        /* \"#utility.yul\":5539:5632   */\n      tag_214\n        /* \"#utility.yul\":5628:5631   */\n      dup3\n        /* \"#utility.yul\":5539:5632   */\n      tag_215\n      jump\t// in\n    tag_214:\n        /* \"#utility.yul\":5657:5659   */\n      0x20\n        /* \"#utility.yul\":5652:5655   */\n      dup3\n        /* \"#utility.yul\":5648:5660   */\n      add\n        /* \"#utility.yul\":5641:5660   */\n      swap1\n      pop\n        /* \"#utility.yul\":5300:5666   */\n      swap2\n      swap1\n      pop\n      jump\t// out\n        /* \"#utility.yul\":5672:5790   */\n    tag_216:\n        /* \"#utility.yul\":5759:5783   */\n      tag_218\n        /* \"#utility.yul\":5777:5782   */\n      dup2\n        /* \"#utility.yul\":5759:5783   */\n      tag_219\n      jump\t// in\n    tag_218:\n        /* \"#utility.yul\":5754:5757   */\n      dup3\n        /* \"#utility.yul\":5747:5784   */\n      mstore\n        /* \"#utility.yul\":5672:5790   */\n      pop\n      pop\n      jump\t// out\n        /* \"#utility.yul\":5796:6018   */\n    tag_25:\n        /* \"#utility.yul\":5889:5893   */\n      0x00\n        /* \"#utility.yul\":5927:5929   */\n      0x20\n        /* \"#utility.yul\":5916:5925   */\n      dup3\n        /* \"#utility.yul\":5912:5930   */\n      add\n        /* \"#utility.yul\":5904:5930   */\n      swap1\n      pop\n        /* \"#utility.yul\":5940:6011   */\n      tag_221\n        /* \"#utility.yul\":6008:6009   */\n      0x00\n        /* \"#utility.yul\":5997:6006   */\n      dup4\n        /* \"#utility.yul\":5993:6010   */\n      add\n        /* \"#utility.yul\":5984:5990   */\n      dup5\n        /* \"#utility.yul\":5940:6011   */\n      tag_182\n      jump\t// in\n    tag_221:\n        /* \"#utility.yul\":5796:6018   */\n      swap3\n      swap2\n      pop\n      pop\n      jump\t// out\n        /* \"#utility.yul\":6024:6356   */\n    tag_17:\n        /* \"#utility.yul\":6145:6149   */\n      0x00\n        /* \"#utility.yul\":6183:6185   */\n      0x40\n        /* \"#utility.yul\":6172:6181   */\n      dup3\n        /* \"#utility.yul\":6168:6186   */\n      add\n        /* \"#utility.yul\":6160:6186   */\n      swap1\n      pop\n        /* \"#utility.yul\":6196:6267   */\n      tag_223\n        /* \"#utility.yul\":6264:6265   */\n      0x00\n        /* \"#utility.yul\":6253:6262   */\n      dup4\n        /* \"#utility.yul\":6249:6266   */\n      add\n        /* \"#utility.yul\":6240:6246   */\n      dup6\n        /* \"#utility.yul\":6196:6267   */\n      tag_182\n      jump\t// in\n    tag_223:\n        /* \"#utility.yul\":6277:6349   */\n      tag_224\n        /* \"#utility.yul\":6345:6347   */\n      0x20\n        /* \"#utility.yul\":6334:6343   */\n      dup4\n        /* \"#utility.yul\":6330:6348   */\n      add\n        /* \"#utility.yul\":6321:6327   */\n      dup5\n        /* \"#utility.yul\":6277:6349   */\n      tag_216\n      jump\t// in\n    tag_224:\n        /* \"#utility.yul\":6024:6356   */\n      swap4\n      swap3\n      pop\n      pop\n      pop\n      jump\t// out\n        /* \"#utility.yul\":6362:6785   */\n    tag_31:\n        /* \"#utility.yul\":6503:6507   */\n      0x00\n        /* \"#utility.yul\":6541:6543   */\n      0x40\n        /* \"#utility.yul\":6530:6539   */\n      dup3\n        /* \"#utility.yul\":6526:6544   */\n      add\n        /* \"#utility.yul\":6518:6544   */\n      swap1\n      pop\n        /* \"#utility.yul\":6590:6599   */\n      dup2\n        /* \"#utility.yul\":6584:6588   */\n      dup2\n        /* \"#utility.yul\":6580:6600   */\n      sub\n        /* \"#utility.yul\":6576:6577   */\n      0x00\n        /* \"#utility.yul\":6565:6574   */\n      dup4\n        /* \"#utility.yul\":6561:6578   */\n      add\n        /* \"#utility.yul\":6554:6601   */\n      mstore\n        /* \"#utility.yul\":6618:6696   */\n      tag_226\n        /* \"#utility.yul\":6691:6695   */\n      dup2\n        /* \"#utility.yul\":6682:6688   */\n      dup6\n        /* \"#utility.yul\":6618:6696   */\n      tag_186\n      jump\t// in\n    tag_226:\n        /* \"#utility.yul\":6610:6696   */\n      swap1\n      pop\n        /* \"#utility.yul\":6706:6778   */\n      tag_227\n        /* \"#utility.yul\":6774:6776   */\n      0x20\n        /* \"#utility.yul\":6763:6772   */\n      dup4\n        /* \"#utility.yul\":6759:6777   */\n      add\n        /* \"#utility.yul\":6750:6756   */\n      dup5\n        /* \"#utility.yul\":6706:6778   */\n      tag_216\n      jump\t// in\n    tag_227:\n        /* \"#utility.yul\":6362:6785   */\n      swap4\n      swap3\n      pop\n      pop\n      pop\n      jump\t// out\n        /* \"#utility.yul\":6791:7210   */\n    tag_60:\n        /* \"#utility.yul\":6957:6961   */\n      0x00\n        /* \"#utility.yul\":6995:6997   */\n      0x20\n        /* \"#utility.yul\":6984:6993   */\n      dup3\n        /* \"#utility.yul\":6980:6998   */\n      add\n        /* \"#utility.yul\":6972:6998   */\n      swap1\n      pop\n        /* \"#utility.yul\":7044:7053   */\n      dup2\n        /* \"#utility.yul\":7038:7042   */\n      dup2\n        /* \"#utility.yul\":7034:7054   */\n      sub\n        /* \"#utility.yul\":7030:7031   */\n      0x00\n        /* \"#utility.yul\":7019:7028   */\n      dup4\n        /* \"#utility.yul\":7015:7032   */\n      add\n        /* \"#utility.yul\":7008:7055   */\n      mstore\n        /* \"#utility.yul\":7072:7203   */\n      tag_229\n        /* \"#utility.yul\":7198:7202   */\n      dup2\n        /* \"#utility.yul\":7072:7203   */\n      tag_196\n      jump\t// in\n    tag_229:\n        /* \"#utility.yul\":7064:7203   */\n      swap1\n      pop\n        /* \"#utility.yul\":6791:7210   */\n      swap2\n      swap1\n      pop\n      jump\t// out\n        /* \"#utility.yul\":7216:7635   */\n    tag_97:\n        /* \"#utility.yul\":7382:7386   */\n      0x00\n        /* \"#utility.yul\":7420:7422   */\n      0x20\n        /* \"#utility.yul\":7409:7418   */\n      dup3\n        /* \"#utility.yul\":7405:7423   */\n      add\n        /* \"#utility.yul\":7397:7423   */\n      swap1\n      pop\n        /* \"#utility.yul\":7469:7478   */\n      dup2\n        /* \"#utility.yul\":7463:7467   */\n      dup2\n        /* \"#utility.yul\":7459:7479   */\n      sub\n        /* \"#utility.yul\":7455:7456   */\n      0x00\n        /* \"#utility.yul\":7444:7453   */\n      dup4\n        /* \"#utility.yul\":7440:7457   */\n      add\n        /* \"#utility.yul\":7433:7480   */\n      mstore\n        /* \"#utility.yul\":7497:7628   */\n      tag_231\n        /* \"#utility.yul\":7623:7627   */\n      dup2\n        /* \"#utility.yul\":7497:7628   */\n      tag_201\n      jump\t// in\n    tag_231:\n        /* \"#utility.yul\":7489:7628   */\n      swap1\n      pop\n        /* \"#utility.yul\":7216:7635   */\n      swap2\n      swap1\n      pop\n      jump\t// out\n        /* \"#utility.yul\":7641:8060   */\n    tag_78:\n        /* \"#utility.yul\":7807:7811   */\n      0x00\n        /* \"#utility.yul\":7845:7847   */\n      0x20\n        /* \"#utility.yul\":7834:7843   */\n      dup3\n        /* \"#utility.yul\":7830:7848   */\n      add\n        /* \"#utility.yul\":7822:7848   */\n      swap1\n      pop\n        /* \"#utility.yul\":7894:7903   */\n      dup2\n        /* \"#utility.yul\":7888:7892   */\n      dup2\n        /* \"#utility.yul\":7884:7904   */\n      sub\n        /* \"#utility.yul\":7880:7881   */\n      0x00\n        /* \"#utility.yul\":7869:7878   */\n      dup4\n        /* \"#utility.yul\":7865:7882   */\n      add\n        /* \"#utility.yul\":7858:7905   */\n      mstore\n        /* \"#utility.yul\":7922:8053   */\n      tag_233\n        /* \"#utility.yul\":8048:8052   */\n      dup2\n        /* \"#utility.yul\":7922:8053   */\n      tag_206\n      jump\t// in\n    tag_233:\n        /* \"#utility.yul\":7914:8053   */\n      swap1\n      pop\n        /* \"#utility.yul\":7641:8060   */\n      swap2\n      swap1\n      pop\n      jump\t// out\n        /* \"#utility.yul\":8066:8485   */\n    tag_88:\n        /* \"#utility.yul\":8232:8236   */\n      0x00\n        /* \"#utility.yul\":8270:8272   */\n      0x20\n        /* \"#utility.yul\":8259:8268   */\n      dup3\n        /* \"#utility.yul\":8255:8273   */\n      add\n        /* \"#utility.yul\":8247:8273   */\n      swap1\n      pop\n        /* \"#utility.yul\":8319:8328   */\n      dup2\n        /* \"#utility.yul\":8313:8317   */\n      dup2\n        /* \"#utility.yul\":8309:8329   */\n      sub\n        /* \"#utility.yul\":8305:8306   */\n      0x00\n        /* \"#utility.yul\":8294:8303   */\n      dup4\n        /* \"#utility.yul\":8290:8307   */\n      add\n        /* \"#utility.yul\":8283:8330   */\n      mstore\n        /* \"#utility.yul\":8347:8478   */\n      tag_235\n        /* \"#utility.yul\":8473:8477   */\n      dup2\n        /* \"#utility.yul\":8347:8478   */\n      tag_211\n      jump\t// in\n    tag_235:\n        /* \"#utility.yul\":8339:8478   */\n      swap1\n      pop\n        /* \"#utility.yul\":8066:8485   */\n      swap2\n      swap1\n      pop\n      jump\t// out\n        /* \"#utility.yul\":8491:8713   */\n    tag_55:\n        /* \"#utility.yul\":8584:8588   */\n      0x00\n        /* \"#utility.yul\":8622:8624   */\n      0x20\n        /* \"#utility.yul\":8611:8620   */\n      dup3\n        /* \"#utility.yul\":8607:8625   */\n      add\n        /* \"#utility.yul\":8599:8625   */\n      swap1\n      pop\n        /* \"#utility.yul\":8635:8706   */\n      tag_237\n        /* \"#utility.yul\":8703:8704   */\n      0x00\n        /* \"#utility.yul\":8692:8701   */\n      dup4\n        /* \"#utility.yul\":8688:8705   */\n      add\n        /* \"#utility.yul\":8679:8685   */\n      dup5\n        /* \"#utility.yul\":8635:8706   */\n      tag_216\n      jump\t// in\n    tag_237:\n        /* \"#utility.yul\":8491:8713   */\n      swap3\n      swap2\n      pop\n      pop\n      jump\t// out\n        /* \"#utility.yul\":8719:8848   */\n    tag_132:\n        /* \"#utility.yul\":8753:8759   */\n      0x00\n        /* \"#utility.yul\":8780:8800   */\n      tag_239\n      tag_240\n      jump\t// in\n    tag_239:\n        /* \"#utility.yul\":8770:8800   */\n      swap1\n      pop\n        /* \"#utility.yul\":8809:8842   */\n      tag_241\n        /* \"#utility.yul\":8837:8841   */\n      dup3\n        /* \"#utility.yul\":8829:8835   */\n      dup3\n        /* \"#utility.yul\":8809:8842   */\n      tag_242\n      jump\t// in\n    tag_241:\n        /* \"#utility.yul\":8719:8848   */\n      swap2\n      swap1\n      pop\n      jump\t// out\n        /* \"#utility.yul\":8854:8929   */\n    tag_240:\n        /* \"#utility.yul\":8887:8893   */\n      0x00\n        /* \"#utility.yul\":8920:8922   */\n      0x40\n        /* \"#utility.yul\":8914:8923   */\n      mload\n        /* \"#utility.yul\":8904:8923   */\n      swap1\n      pop\n        /* \"#utility.yul\":8854:8929   */\n      swap1\n      jump\t// out\n        /* \"#utility.yul\":8935:9243   */\n    tag_131:\n        /* \"#utility.yul\":8997:9001   */\n      0x00\n        /* \"#utility.yul\":9087:9105   */\n      0xffffffffffffffff\n        /* \"#utility.yul\":9079:9085   */\n      dup3\n        /* \"#utility.yul\":9076:9106   */\n      gt\n        /* \"#utility.yul\":9073:9129   */\n      iszero\n      tag_245\n      jumpi\n        /* \"#utility.yul\":9109:9127   */\n      tag_246\n      tag_247\n      jump\t// in\n    tag_246:\n        /* \"#utility.yul\":9073:9129   */\n    tag_245:\n        /* \"#utility.yul\":9147:9176   */\n      tag_248\n        /* \"#utility.yul\":9169:9175   */\n      dup3\n        /* \"#utility.yul\":9147:9176   */\n      tag_195\n      jump\t// in\n    tag_248:\n        /* \"#utility.yul\":9139:9176   */\n      swap1\n      pop\n        /* \"#utility.yul\":9231:9235   */\n      0x20\n        /* \"#utility.yul\":9225:9229   */\n      dup2\n        /* \"#utility.yul\":9221:9236   */\n      add\n        /* \"#utility.yul\":9213:9236   */\n      swap1\n      pop\n        /* \"#utility.yul\":8935:9243   */\n      swap2\n      swap1\n      pop\n      jump\t// out\n        /* \"#utility.yul\":9249:9348   */\n    tag_189:\n        /* \"#utility.yul\":9301:9307   */\n      0x00\n        /* \"#utility.yul\":9335:9340   */\n      dup2\n        /* \"#utility.yul\":9329:9341   */\n      mload\n        /* \"#utility.yul\":9319:9341   */\n      swap1\n      pop\n        /* \"#utility.yul\":9249:9348   */\n      swap2\n      swap1\n      pop\n      jump\t// out\n        /* \"#utility.yul\":9354:9523   */\n    tag_191:\n        /* \"#utility.yul\":9438:9449   */\n      0x00\n        /* \"#utility.yul\":9472:9478   */\n      dup3\n        /* \"#utility.yul\":9467:9470   */\n      dup3\n        /* \"#utility.yul\":9460:9479   */\n      mstore\n        /* \"#utility.yul\":9512:9516   */\n      0x20\n        /* \"#utility.yul\":9507:9510   */\n      dup3\n        /* \"#utility.yul\":9503:9517   */\n      add\n        /* \"#utility.yul\":9488:9517   */\n      swap1\n      pop\n        /* \"#utility.yul\":9354:9523   */\n      swap3\n      swap2\n      pop\n      pop\n      jump\t// out\n        /* \"#utility.yul\":9529:9720   */\n    tag_110:\n        /* \"#utility.yul\":9569:9573   */\n      0x00\n        /* \"#utility.yul\":9589:9609   */\n      tag_252\n        /* \"#utility.yul\":9607:9608   */\n      dup3\n        /* \"#utility.yul\":9589:9609   */\n      tag_219\n      jump\t// in\n    tag_252:\n        /* \"#utility.yul\":9584:9609   */\n      swap2\n      pop\n        /* \"#utility.yul\":9623:9643   */\n      tag_253\n        /* \"#utility.yul\":9641:9642   */\n      dup4\n        /* \"#utility.yul\":9623:9643   */\n      tag_219\n      jump\t// in\n    tag_253:\n        /* \"#utility.yul\":9618:9643   */\n      swap3\n      pop\n        /* \"#utility.yul\":9662:9663   */\n      dup3\n        /* \"#utility.yul\":9659:9660   */\n      dup3\n        /* \"#utility.yul\":9656:9664   */\n      lt\n        /* \"#utility.yul\":9653:9687   */\n      iszero\n      tag_254\n      jumpi\n        /* \"#utility.yul\":9667:9685   */\n      tag_255\n      tag_256\n      jump\t// in\n    tag_255:\n        /* \"#utility.yul\":9653:9687   */\n    tag_254:\n        /* \"#utility.yul\":9712:9713   */\n      dup3\n        /* \"#utility.yul\":9709:9710   */\n      dup3\n        /* \"#utility.yul\":9705:9714   */\n      sub\n        /* \"#utility.yul\":9697:9714   */\n      swap1\n      pop\n        /* \"#utility.yul\":9529:9720   */\n      swap3\n      swap2\n      pop\n      pop\n      jump\t// out\n        /* \"#utility.yul\":9726:9822   */\n    tag_185:\n        /* \"#utility.yul\":9763:9770   */\n      0x00\n        /* \"#utility.yul\":9792:9816   */\n      tag_258\n        /* \"#utility.yul\":9810:9815   */\n      dup3\n        /* \"#utility.yul\":9792:9816   */\n      tag_259\n      jump\t// in\n    tag_258:\n        /* \"#utility.yul\":9781:9816   */\n      swap1\n      pop\n        /* \"#utility.yul\":9726:9822   */\n      swap2\n      swap1\n      pop\n      jump\t// out\n        /* \"#utility.yul\":9828:9954   */\n    tag_259:\n        /* \"#utility.yul\":9865:9872   */\n      0x00\n        /* \"#utility.yul\":9905:9947   */\n      0xffffffffffffffffffffffffffffffffffffffff\n        /* \"#utility.yul\":9898:9903   */\n      dup3\n        /* \"#utility.yul\":9894:9948   */\n      and\n        /* \"#utility.yul\":9883:9948   */\n      swap1\n      pop\n        /* \"#utility.yul\":9828:9954   */\n      swap2\n      swap1\n      pop\n      jump\t// out\n        /* \"#utility.yul\":9960:10037   */\n    tag_219:\n        /* \"#utility.yul\":9997:10004   */\n      0x00\n        /* \"#utility.yul\":10026:10031   */\n      dup2\n        /* \"#utility.yul\":10015:10031   */\n      swap1\n      pop\n        /* \"#utility.yul\":9960:10037   */\n      swap2\n      swap1\n      pop\n      jump\t// out\n        /* \"#utility.yul\":10043:10197   */\n    tag_137:\n        /* \"#utility.yul\":10127:10133   */\n      dup3\n        /* \"#utility.yul\":10122:10125   */\n      dup2\n        /* \"#utility.yul\":10117:10120   */\n      dup4\n        /* \"#utility.yul\":10104:10134   */\n      calldatacopy\n        /* \"#utility.yul\":10189:10190   */\n      0x00\n        /* \"#utility.yul\":10180:10186   */\n      dup4\n        /* \"#utility.yul\":10175:10178   */\n      dup4\n        /* \"#utility.yul\":10171:10187   */\n      add\n        /* \"#utility.yul\":10164:10191   */\n      mstore\n        /* \"#utility.yul\":10043:10197   */\n      pop\n      pop\n      pop\n      jump\t// out\n        /* \"#utility.yul\":10203:10510   */\n    tag_193:\n        /* \"#utility.yul\":10271:10272   */\n      0x00\n        /* \"#utility.yul\":10281:10394   */\n    tag_264:\n        /* \"#utility.yul\":10295:10301   */\n      dup4\n        /* \"#utility.yul\":10292:10293   */\n      dup2\n        /* \"#utility.yul\":10289:10302   */\n      lt\n        /* \"#utility.yul\":10281:10394   */\n      iszero\n      tag_266\n      jumpi\n        /* \"#utility.yul\":10380:10381   */\n      dup1\n        /* \"#utility.yul\":10375:10378   */\n      dup3\n        /* \"#utility.yul\":10371:10382   */\n      add\n        /* \"#utility.yul\":10365:10383   */\n      mload\n        /* \"#utility.yul\":10361:10362   */\n      dup2\n        /* \"#utility.yul\":10356:10359   */\n      dup5\n        /* \"#utility.yul\":10352:10363   */\n      add\n        /* \"#utility.yul\":10345:10384   */\n      mstore\n        /* \"#utility.yul\":10317:10319   */\n      0x20\n        /* \"#utility.yul\":10314:10315   */\n      dup2\n        /* \"#utility.yul\":10310:10320   */\n      add\n        /* \"#utility.yul\":10305:10320   */\n      swap1\n      pop\n        /* \"#utility.yul\":10281:10394   */\n      jump(tag_264)\n    tag_266:\n        /* \"#utility.yul\":10412:10418   */\n      dup4\n        /* \"#utility.yul\":10409:10410   */\n      dup2\n        /* \"#utility.yul\":10406:10419   */\n      gt\n        /* \"#utility.yul\":10403:10504   */\n      iszero\n      tag_267\n      jumpi\n        /* \"#utility.yul\":10492:10493   */\n      0x00\n        /* \"#utility.yul\":10483:10489   */\n      dup5\n        /* \"#utility.yul\":10478:10481   */\n      dup5\n        /* \"#utility.yul\":10474:10490   */\n      add\n        /* \"#utility.yul\":10467:10494   */\n      mstore\n        /* \"#utility.yul\":10403:10504   */\n    tag_267:\n        /* \"#utility.yul\":10252:10510   */\n      pop\n        /* \"#utility.yul\":10203:10510   */\n      pop\n      pop\n      pop\n      jump\t// out\n        /* \"#utility.yul\":10516:10836   */\n    tag_70:\n        /* \"#utility.yul\":10560:10566   */\n      0x00\n        /* \"#utility.yul\":10597:10598   */\n      0x02\n        /* \"#utility.yul\":10591:10595   */\n      dup3\n        /* \"#utility.yul\":10587:10599   */\n      div\n        /* \"#utility.yul\":10577:10599   */\n      swap1\n      pop\n        /* \"#utility.yul\":10644:10645   */\n      0x01\n        /* \"#utility.yul\":10638:10642   */\n      dup3\n        /* \"#utility.yul\":10634:10646   */\n      and\n        /* \"#utility.yul\":10665:10683   */\n      dup1\n        /* \"#utility.yul\":10655:10736   */\n      tag_269\n      jumpi\n        /* \"#utility.yul\":10721:10725   */\n      0x7f\n        /* \"#utility.yul\":10713:10719   */\n      dup3\n        /* \"#utility.yul\":10709:10726   */\n      and\n        /* \"#utility.yul\":10699:10726   */\n      swap2\n      pop\n        /* \"#utility.yul\":10655:10736   */\n    tag_269:\n        /* \"#utility.yul\":10783:10785   */\n      0x20\n        /* \"#utility.yul\":10775:10781   */\n      dup3\n        /* \"#utility.yul\":10772:10786   */\n      lt\n        /* \"#utility.yul\":10752:10770   */\n      dup2\n        /* \"#utility.yul\":10749:10787   */\n      eq\n        /* \"#utility.yul\":10746:10830   */\n      iszero\n      tag_270\n      jumpi\n        /* \"#utility.yul\":10802:10820   */\n      tag_271\n      tag_272\n      jump\t// in\n    tag_271:\n        /* \"#utility.yul\":10746:10830   */\n    tag_270:\n        /* \"#utility.yul\":10567:10836   */\n      pop\n        /* \"#utility.yul\":10516:10836   */\n      swap2\n      swap1\n      pop\n      jump\t// out\n        /* \"#utility.yul\":10842:11123   */\n    tag_242:\n        /* \"#utility.yul\":10925:10952   */\n      tag_274\n        /* \"#utility.yul\":10947:10951   */\n      dup3\n        /* \"#utility.yul\":10925:10952   */\n      tag_195\n      jump\t// in\n    tag_274:\n        /* \"#utility.yul\":10917:10923   */\n      dup2\n        /* \"#utility.yul\":10913:10953   */\n      add\n        /* \"#utility.yul\":11055:11061   */\n      dup2\n        /* \"#utility.yul\":11043:11053   */\n      dup2\n        /* \"#utility.yul\":11040:11062   */\n      lt\n        /* \"#utility.yul\":11019:11037   */\n      0xffffffffffffffff\n        /* \"#utility.yul\":11007:11017   */\n      dup3\n        /* \"#utility.yul\":11004:11038   */\n      gt\n        /* \"#utility.yul\":11001:11063   */\n      or\n        /* \"#utility.yul\":10998:11086   */\n      iszero\n      tag_275\n      jumpi\n        /* \"#utility.yul\":11066:11084   */\n      tag_276\n      tag_247\n      jump\t// in\n    tag_276:\n        /* \"#utility.yul\":10998:11086   */\n    tag_275:\n        /* \"#utility.yul\":11106:11116   */\n      dup1\n        /* \"#utility.yul\":11102:11104   */\n      0x40\n        /* \"#utility.yul\":11095:11117   */\n      mstore\n        /* \"#utility.yul\":10885:11123   */\n      pop\n        /* \"#utility.yul\":10842:11123   */\n      pop\n      pop\n      jump\t// out\n        /* \"#utility.yul\":11129:11309   */\n    tag_256:\n        /* \"#utility.yul\":11177:11254   */\n      0x4e487b7100000000000000000000000000000000000000000000000000000000\n        /* \"#utility.yul\":11174:11175   */\n      0x00\n        /* \"#utility.yul\":11167:11255   */\n      mstore\n        /* \"#utility.yul\":11274:11278   */\n      0x11\n        /* \"#utility.yul\":11271:11272   */\n      0x04\n        /* \"#utility.yul\":11264:11279   */\n      mstore\n        /* \"#utility.yul\":11298:11302   */\n      0x24\n        /* \"#utility.yul\":11295:11296   */\n      0x00\n        /* \"#utility.yul\":11288:11303   */\n      revert\n        /* \"#utility.yul\":11315:11495   */\n    tag_272:\n        /* \"#utility.yul\":11363:11440   */\n      0x4e487b7100000000000000000000000000000000000000000000000000000000\n        /* \"#utility.yul\":11360:11361   */\n      0x00\n        /* \"#utility.yul\":11353:11441   */\n      mstore\n        /* \"#utility.yul\":11460:11464   */\n      0x22\n        /* \"#utility.yul\":11457:11458   */\n      0x04\n        /* \"#utility.yul\":11450:11465   */\n      mstore\n        /* \"#utility.yul\":11484:11488   */\n      0x24\n        /* \"#utility.yul\":11481:11482   */\n      0x00\n        /* \"#utility.yul\":11474:11489   */\n      revert\n        /* \"#utility.yul\":11501:11681   */\n    tag_63:\n        /* \"#utility.yul\":11549:11626   */\n      0x4e487b7100000000000000000000000000000000000000000000000000000000\n        /* \"#utility.yul\":11546:11547   */\n      0x00\n        /* \"#utility.yul\":11539:11627   */\n      mstore\n        /* \"#utility.yul\":11646:11650   */\n      0x32\n        /* \"#utility.yul\":11643:11644   */\n      0x04\n        /* \"#utility.yul\":11636:11651   */\n      mstore\n        /* \"#utility.yul\":11670:11674   */\n      0x24\n        /* \"#utility.yul\":11667:11668   */\n      0x00\n        /* \"#utility.yul\":11660:11675   */\n      revert\n        /* \"#utility.yul\":11687:11867   */\n    tag_247:\n        /* \"#utility.yul\":11735:11812   */\n      0x4e487b7100000000000000000000000000000000000000000000000000000000\n        /* \"#utility.yul\":11732:11733   */\n      0x00\n        /* \"#utility.yul\":11725:11813   */\n      mstore\n        /* \"#utility.yul\":11832:11836   */\n      0x41\n        /* \"#utility.yul\":11829:11830   */\n      0x04\n        /* \"#utility.yul\":11822:11837   */\n      mstore\n        /* \"#utility.yul\":11856:11860   */\n      0x24\n        /* \"#utility.yul\":11853:11854   */\n      0x00\n        /* \"#utility.yul\":11846:11861   */\n      revert\n        /* \"#utility.yul\":11873:11990   */\n    tag_146:\n        /* \"#utility.yul\":11982:11983   */\n      0x00\n        /* \"#utility.yul\":11979:11980   */\n      dup1\n        /* \"#utility.yul\":11972:11984   */\n      revert\n        /* \"#utility.yul\":11996:12113   */\n    tag_135:\n        /* \"#utility.yul\":12105:12106   */\n      0x00\n        /* \"#utility.yul\":12102:12103   */\n      dup1\n        /* \"#utility.yul\":12095:12107   */\n      revert\n        /* \"#utility.yul\":12119:12236   */\n    tag_167:\n        /* \"#utility.yul\":12228:12229   */\n      0x00\n        /* \"#utility.yul\":12225:12226   */\n      dup1\n        /* \"#utility.yul\":12218:12230   */\n      revert\n        /* \"#utility.yul\":12242:12359   */\n    tag_155:\n        /* \"#utility.yul\":12351:12352   */\n      0x00\n        /* \"#utility.yul\":12348:12349   */\n      dup1\n        /* \"#utility.yul\":12341:12353   */\n      revert\n        /* \"#utility.yul\":12365:12467   */\n    tag_195:\n        /* \"#utility.yul\":12406:12412   */\n      0x00\n        /* \"#utility.yul\":12457:12459   */\n      0x1f\n        /* \"#utility.yul\":12453:12460   */\n      not\n        /* \"#utility.yul\":12448:12450   */\n      0x1f\n        /* \"#utility.yul\":12441:12446   */\n      dup4\n        /* \"#utility.yul\":12437:12451   */\n      add\n        /* \"#utility.yul\":12433:12461   */\n      and\n        /* \"#utility.yul\":12423:12461   */\n      swap1\n      pop\n        /* \"#utility.yul\":12365:12467   */\n      swap2\n      swap1\n      pop\n      jump\t// out\n        /* \"#utility.yul\":12473:12712   */\n    tag_200:\n        /* \"#utility.yul\":12613:12647   */\n      0x536f6c6f20656c2041646d696e6973747261646f722064656c2047796d207075\n        /* \"#utility.yul\":12609:12610   */\n      0x00\n        /* \"#utility.yul\":12601:12607   */\n      dup3\n        /* \"#utility.yul\":12597:12611   */\n      add\n        /* \"#utility.yul\":12590:12648   */\n      mstore\n        /* \"#utility.yul\":12682:12704   */\n      0x656465206d6f6469666963617220636c61736573000000000000000000000000\n        /* \"#utility.yul\":12677:12679   */\n      0x20\n        /* \"#utility.yul\":12669:12675   */\n      dup3\n        /* \"#utility.yul\":12665:12680   */\n      add\n        /* \"#utility.yul\":12658:12705   */\n      mstore\n        /* \"#utility.yul\":12473:12712   */\n      pop\n      jump\t// out\n        /* \"#utility.yul\":12718:12942   */\n    tag_205:\n        /* \"#utility.yul\":12858:12892   */\n      0x596120746520656e6375656e74726173207265676973747261646f20656e2065\n        /* \"#utility.yul\":12854:12855   */\n      0x00\n        /* \"#utility.yul\":12846:12852   */\n      dup3\n        /* \"#utility.yul\":12842:12856   */\n      add\n        /* \"#utility.yul\":12835:12893   */\n      mstore\n        /* \"#utility.yul\":12927:12934   */\n      0x6c2067796d000000000000000000000000000000000000000000000000000000\n        /* \"#utility.yul\":12922:12924   */\n      0x20\n        /* \"#utility.yul\":12914:12920   */\n      dup3\n        /* \"#utility.yul\":12910:12925   */\n      add\n        /* \"#utility.yul\":12903:12935   */\n      mstore\n        /* \"#utility.yul\":12718:12942   */\n      pop\n      jump\t// out\n        /* \"#utility.yul\":12948:13183   */\n    tag_210:\n        /* \"#utility.yul\":13088:13122   */\n      0x536f6c6f20656c2041646d696e6973747261646f722064656c2047796d207075\n        /* \"#utility.yul\":13084:13085   */\n      0x00\n        /* \"#utility.yul\":13076:13082   */\n      dup3\n        /* \"#utility.yul\":13072:13086   */\n      add\n        /* \"#utility.yul\":13065:13123   */\n      mstore\n        /* \"#utility.yul\":13157:13175   */\n      0x65646520637265617220636c6173657300000000000000000000000000000000\n        /* \"#utility.yul\":13152:13154   */\n      0x20\n        /* \"#utility.yul\":13144:13150   */\n      dup3\n        /* \"#utility.yul\":13140:13155   */\n      add\n        /* \"#utility.yul\":13133:13176   */\n      mstore\n        /* \"#utility.yul\":12948:13183   */\n      pop\n      jump\t// out\n        /* \"#utility.yul\":13189:13369   */\n    tag_215:\n        /* \"#utility.yul\":13329:13361   */\n      0x4e6f2065786973746520756e6120636c61736520636f6e206573652049640000\n        /* \"#utility.yul\":13325:13326   */\n      0x00\n        /* \"#utility.yul\":13317:13323   */\n      dup3\n        /* \"#utility.yul\":13313:13327   */\n      add\n        /* \"#utility.yul\":13306:13362   */\n      mstore\n        /* \"#utility.yul\":13189:13369   */\n      pop\n      jump\t// out\n        /* \"#utility.yul\":13375:13497   */\n    tag_141:\n        /* \"#utility.yul\":13448:13472   */\n      tag_291\n        /* \"#utility.yul\":13466:13471   */\n      dup2\n        /* \"#utility.yul\":13448:13472   */\n      tag_185\n      jump\t// in\n    tag_291:\n        /* \"#utility.yul\":13441:13446   */\n      dup2\n        /* \"#utility.yul\":13438:13473   */\n      eq\n        /* \"#utility.yul\":13428:13491   */\n      tag_292\n      jumpi\n        /* \"#utility.yul\":13487:13488   */\n      0x00\n        /* \"#utility.yul\":13484:13485   */\n      dup1\n        /* \"#utility.yul\":13477:13489   */\n      revert\n        /* \"#utility.yul\":13428:13491   */\n    tag_292:\n        /* \"#utility.yul\":13375:13497   */\n      pop\n      jump\t// out\n        /* \"#utility.yul\":13503:13625   */\n    tag_151:\n        /* \"#utility.yul\":13576:13600   */\n      tag_294\n        /* \"#utility.yul\":13594:13599   */\n      dup2\n        /* \"#utility.yul\":13576:13600   */\n      tag_219\n      jump\t// in\n    tag_294:\n        /* \"#utility.yul\":13569:13574   */\n      dup2\n        /* \"#utility.yul\":13566:13601   */\n      eq\n        /* \"#utility.yul\":13556:13619   */\n      tag_295\n      jumpi\n        /* \"#utility.yul\":13615:13616   */\n      0x00\n        /* \"#utility.yul\":13612:13613   */\n      dup1\n        /* \"#utility.yul\":13605:13617   */\n      revert\n        /* \"#utility.yul\":13556:13619   */\n    tag_295:\n        /* \"#utility.yul\":13503:13625   */\n      pop\n      jump\t// out\n\n    auxdata: 0xa2646970667358221220bc94c99d2d1facc5c0837146cd5ed890e3b2e3a395081122c672fbdadb17185364736f6c63430008070033\n}\n",
				"bytecode": {
					"linkReferences": {},
					"object": "60a060405234801561001057600080fd5b503373ffffffffffffffffffffffffffffffffffffffff1660808173ffffffffffffffffffffffffffffffffffffffff1660601b8152505060805160601c6110e36100746000396000818161026201528181610327015261041e01526110e36000f3fe608060405234801561001057600080fd5b506004361061009e5760003560e01c8063512d62df11610066578063512d62df146101495780636d705ebb1461017a57806372c30f45146101965780637aed8136146101b2578063a87430ba146101ce5761009e565b806312065fe0146100a35780631e8be099146100c25780632a0acc6a146100de5780633613a9f4146100fc5780634852a2121461012d575b600080fd5b6100ab6101fe565b6040516100b9929190610c0d565b60405180910390f35b6100dc60048036038101906100d79190610aa0565b610249565b005b6100e6610325565b6040516100f39190610bf2565b60405180910390f35b61011660048036038101906101119190610a73565b610349565b604051610124929190610c36565b60405180910390f35b61014760048036038101906101429190610a17565b610405565b005b610163600480360381019061015e9190610a73565b610539565b604051610171929190610c36565b60405180910390f35b610194600480360381019061018f91906109d7565b610648565b005b6101b060048036038101906101ab9190610a73565b610748565b005b6101cc60048036038101906101c79190610a73565b610788565b005b6101e860048036038101906101e391906109aa565b610815565b6040516101f59190610ce6565b60405180910390f35b600080336000803373ffffffffffffffffffffffffffffffffffffffff1673ffffffffffffffffffffffffffffffffffffffff16815260200190815260200160002054915091509091565b3373ffffffffffffffffffffffffffffffffffffffff167f000000000000000000000000000000000000000000000000000000000000000073ffffffffffffffffffffffffffffffffffffffff16146102d7576040517f08c379a00000000000000000000000000000000000000000000000000000000081526004016102ce90610c66565b60405180910390fd5b6000600184815481106102ed576102ec610ee6565b5b906000526020600020906002020190508281600001908051906020019061031592919061082d565b5081816001018190555050505050565b7f000000000000000000000000000000000000000000000000000000000000000081565b6001818154811061035957600080fd5b906000526020600020906002020160009150905080600001805461037c90610e25565b80601f01602080910402602001604051908101604052809291908181526020018280546103a890610e25565b80156103f55780601f106103ca576101008083540402835291602001916103f5565b820191906000526020600020905b8154815290600101906020018083116103d857829003601f168201915b5050505050908060010154905082565b3373ffffffffffffffffffffffffffffffffffffffff167f000000000000000000000000000000000000000000000000000000000000000073ffffffffffffffffffffffffffffffffffffffff1614610493576040517f08c379a000000000000000000000000000000000000000000000000000000000815260040161048a90610ca6565b60405180910390fd5b6001604051806040016040528084815260200183815250908060018154018082558091505060019003906000526020600020906002020160009091909190915060008201518160000190805190602001906104ef92919061082d565b506020820151816001015550507f14d49e3ea4f348b7f368906dfe1a63055c7822d622a61672a35a55ae97a768f9828260405161052d929190610c36565b60405180910390a15050565b60606000806001848154811061055257610551610ee6565b5b9060005260206000209060020201905060008160010154146105a9576040517f08c379a00000000000000000000000000000000000000000000000000000000081526004016105a090610cc6565b60405180910390fd5b8060000181600101548180546105be90610e25565b80601f01602080910402602001604051908101604052809291908181526020018280546105ea90610e25565b80156106375780601f1061060c57610100808354040283529160200191610637565b820191906000526020600020905b81548152906001019060200180831161061a57829003601f168201915b505050505091509250925050915091565b60008060003373ffffffffffffffffffffffffffffffffffffffff1673ffffffffffffffffffffffffffffffffffffffff16815260200190815260200160002054146106c9576040517f08c379a00000000000000000000000000000000000000000000000000000000081526004016106c090610c86565b60405180910390fd5b806000803373ffffffffffffffffffffffffffffffffffffffff1673ffffffffffffffffffffffffffffffffffffffff168152602001908152602001600020819055507e7dc6ab80cc84c043b7b8d4fcafc802187470087f7ea7fccd2e17aecd0256a1828260405161073c929190610c0d565b60405180910390a15050565b6001818154811061075c5761075b610ee6565b5b90600052602060002090600202016000808201600061077b91906108b3565b6001820160009055505050565b60006001828154811061079e5761079d610ee6565b5b9060005260206000209060020201905080600101546000803373ffffffffffffffffffffffffffffffffffffffff1673ffffffffffffffffffffffffffffffffffffffff16815260200190815260200160002060008282546108009190610d73565b9250508190555061080f6101fe565b50505050565b60006020528060005260406000206000915090505481565b82805461083990610e25565b90600052602060002090601f01602090048101928261085b57600085556108a2565b82601f1061087457805160ff19168380011785556108a2565b828001600101855582156108a2579182015b828111156108a1578251825591602001919060010190610886565b5b5090506108af91906108f3565b5090565b5080546108bf90610e25565b6000825580601f106108d157506108f0565b601f0160209004906000526020600020908101906108ef91906108f3565b5b50565b5b8082111561090c5760008160009055506001016108f4565b5090565b600061092361091e84610d26565b610d01565b90508281526020810184848401111561093f5761093e610f49565b5b61094a848285610de3565b509392505050565b6000813590506109618161107f565b92915050565b600082601f83011261097c5761097b610f44565b5b813561098c848260208601610910565b91505092915050565b6000813590506109a481611096565b92915050565b6000602082840312156109c0576109bf610f53565b5b60006109ce84828501610952565b91505092915050565b600080604083850312156109ee576109ed610f53565b5b60006109fc85828601610952565b9250506020610a0d85828601610995565b9150509250929050565b60008060408385031215610a2e57610a2d610f53565b5b600083013567ffffffffffffffff811115610a4c57610a4b610f4e565b5b610a5885828601610967565b9250506020610a6985828601610995565b9150509250929050565b600060208284031215610a8957610a88610f53565b5b6000610a9784828501610995565b91505092915050565b600080600060608486031215610ab957610ab8610f53565b5b6000610ac786828701610995565b935050602084013567ffffffffffffffff811115610ae857610ae7610f4e565b5b610af486828701610967565b9250506040610b0586828701610995565b9150509250925092565b610b1881610da7565b82525050565b6000610b2982610d57565b610b338185610d62565b9350610b43818560208601610df2565b610b4c81610f58565b840191505092915050565b6000610b64603483610d62565b9150610b6f82610f69565b604082019050919050565b6000610b87602583610d62565b9150610b9282610fb8565b604082019050919050565b6000610baa603083610d62565b9150610bb582611007565b604082019050919050565b6000610bcd601e83610d62565b9150610bd882611056565b602082019050919050565b610bec81610dd9565b82525050565b6000602082019050610c076000830184610b0f565b92915050565b6000604082019050610c226000830185610b0f565b610c2f6020830184610be3565b9392505050565b60006040820190508181036000830152610c508185610b1e565b9050610c5f6020830184610be3565b9392505050565b60006020820190508181036000830152610c7f81610b57565b9050919050565b60006020820190508181036000830152610c9f81610b7a565b9050919050565b60006020820190508181036000830152610cbf81610b9d565b9050919050565b60006020820190508181036000830152610cdf81610bc0565b9050919050565b6000602082019050610cfb6000830184610be3565b92915050565b6000610d0b610d1c565b9050610d178282610e57565b919050565b6000604051905090565b600067ffffffffffffffff821115610d4157610d40610f15565b5b610d4a82610f58565b9050602081019050919050565b600081519050919050565b600082825260208201905092915050565b6000610d7e82610dd9565b9150610d8983610dd9565b925082821015610d9c57610d9b610e88565b5b828203905092915050565b6000610db282610db9565b9050919050565b600073ffffffffffffffffffffffffffffffffffffffff82169050919050565b6000819050919050565b82818337600083830152505050565b60005b83811015610e10578082015181840152602081019050610df5565b83811115610e1f576000848401525b50505050565b60006002820490506001821680610e3d57607f821691505b60208210811415610e5157610e50610eb7565b5b50919050565b610e6082610f58565b810181811067ffffffffffffffff82111715610e7f57610e7e610f15565b5b80604052505050565b7f4e487b7100000000000000000000000000000000000000000000000000000000600052601160045260246000fd5b7f4e487b7100000000000000000000000000000000000000000000000000000000600052602260045260246000fd5b7f4e487b7100000000000000000000000000000000000000000000000000000000600052603260045260246000fd5b7f4e487b7100000000000000000000000000000000000000000000000000000000600052604160045260246000fd5b600080fd5b600080fd5b600080fd5b600080fd5b6000601f19601f8301169050919050565b7f536f6c6f20656c2041646d696e6973747261646f722064656c2047796d20707560008201527f656465206d6f6469666963617220636c61736573000000000000000000000000602082015250565b7f596120746520656e6375656e74726173207265676973747261646f20656e206560008201527f6c2067796d000000000000000000000000000000000000000000000000000000602082015250565b7f536f6c6f20656c2041646d696e6973747261646f722064656c2047796d20707560008201527f65646520637265617220636c6173657300000000000000000000000000000000602082015250565b7f4e6f2065786973746520756e6120636c61736520636f6e206573652049640000600082015250565b61108881610da7565b811461109357600080fd5b50565b61109f81610dd9565b81146110aa57600080fd5b5056fea2646970667358221220bc94c99d2d1facc5c0837146cd5ed890e3b2e3a395081122c672fbdadb17185364736f6c63430008070033",
					"opcodes": "PUSH1 0xA0 PUSH1 0x40 MSTORE CALLVALUE DUP1 ISZERO PUSH2 0x10 JUMPI PUSH1 0x0 DUP1 REVERT JUMPDEST POP CALLER PUSH20 0xFFFFFFFFFFFFFFFFFFFFFFFFFFFFFFFFFFFFFFFF AND PUSH1 0x80 DUP2 PUSH20 0xFFFFFFFFFFFFFFFFFFFFFFFFFFFFFFFFFFFFFFFF AND PUSH1 0x60 SHL DUP2 MSTORE POP POP PUSH1 0x80 MLOAD PUSH1 0x60 SHR PUSH2 0x10E3 PUSH2 0x74 PUSH1 0x0 CODECOPY PUSH1 0x0 DUP2 DUP2 PUSH2 0x262 ADD MSTORE DUP2 DUP2 PUSH2 0x327 ADD MSTORE PUSH2 0x41E ADD MSTORE PUSH2 0x10E3 PUSH1 0x0 RETURN INVALID PUSH1 0x80 PUSH1 0x40 MSTORE CALLVALUE DUP1 ISZERO PUSH2 0x10 JUMPI PUSH1 0x0 DUP1 REVERT JUMPDEST POP PUSH1 0x4 CALLDATASIZE LT PUSH2 0x9E JUMPI PUSH1 0x0 CALLDATALOAD PUSH1 0xE0 SHR DUP1 PUSH4 0x512D62DF GT PUSH2 0x66 JUMPI DUP1 PUSH4 0x512D62DF EQ PUSH2 0x149 JUMPI DUP1 PUSH4 0x6D705EBB EQ PUSH2 0x17A JUMPI DUP1 PUSH4 0x72C30F45 EQ PUSH2 0x196 JUMPI DUP1 PUSH4 0x7AED8136 EQ PUSH2 0x1B2 JUMPI DUP1 PUSH4 0xA87430BA EQ PUSH2 0x1CE JUMPI PUSH2 0x9E JUMP JUMPDEST DUP1 PUSH4 0x12065FE0 EQ PUSH2 0xA3 JUMPI DUP1 PUSH4 0x1E8BE099 EQ PUSH2 0xC2 JUMPI DUP1 PUSH4 0x2A0ACC6A EQ PUSH2 0xDE JUMPI DUP1 PUSH4 0x3613A9F4 EQ PUSH2 0xFC JUMPI DUP1 PUSH4 0x4852A212 EQ PUSH2 0x12D JUMPI JUMPDEST PUSH1 0x0 DUP1 REVERT JUMPDEST PUSH2 0xAB PUSH2 0x1FE JUMP JUMPDEST PUSH1 0x40 MLOAD PUSH2 0xB9 SWAP3 SWAP2 SWAP1 PUSH2 0xC0D JUMP JUMPDEST PUSH1 0x40 MLOAD DUP1 SWAP2 SUB SWAP1 RETURN JUMPDEST PUSH2 0xDC PUSH1 0x4 DUP1 CALLDATASIZE SUB DUP2 ADD SWAP1 PUSH2 0xD7 SWAP2 SWAP1 PUSH2 0xAA0 JUMP JUMPDEST PUSH2 0x249 JUMP JUMPDEST STOP JUMPDEST PUSH2 0xE6 PUSH2 0x325 JUMP JUMPDEST PUSH1 0x40 MLOAD PUSH2 0xF3 SWAP2 SWAP1 PUSH2 0xBF2 JUMP JUMPDEST PUSH1 0x40 MLOAD DUP1 SWAP2 SUB SWAP1 RETURN JUMPDEST PUSH2 0x116 PUSH1 0x4 DUP1 CALLDATASIZE SUB DUP2 ADD SWAP1 PUSH2 0x111 SWAP2 SWAP1 PUSH2 0xA73 JUMP JUMPDEST PUSH2 0x349 JUMP JUMPDEST PUSH1 0x40 MLOAD PUSH2 0x124 SWAP3 SWAP2 SWAP1 PUSH2 0xC36 JUMP JUMPDEST PUSH1 0x40 MLOAD DUP1 SWAP2 SUB SWAP1 RETURN JUMPDEST PUSH2 0x147 PUSH1 0x4 DUP1 CALLDATASIZE SUB DUP2 ADD SWAP1 PUSH2 0x142 SWAP2 SWAP1 PUSH2 0xA17 JUMP JUMPDEST PUSH2 0x405 JUMP JUMPDEST STOP JUMPDEST PUSH2 0x163 PUSH1 0x4 DUP1 CALLDATASIZE SUB DUP2 ADD SWAP1 PUSH2 0x15E SWAP2 SWAP1 PUSH2 0xA73 JUMP JUMPDEST PUSH2 0x539 JUMP JUMPDEST PUSH1 0x40 MLOAD PUSH2 0x171 SWAP3 SWAP2 SWAP1 PUSH2 0xC36 JUMP JUMPDEST PUSH1 0x40 MLOAD DUP1 SWAP2 SUB SWAP1 RETURN JUMPDEST PUSH2 0x194 PUSH1 0x4 DUP1 CALLDATASIZE SUB DUP2 ADD SWAP1 PUSH2 0x18F SWAP2 SWAP1 PUSH2 0x9D7 JUMP JUMPDEST PUSH2 0x648 JUMP JUMPDEST STOP JUMPDEST PUSH2 0x1B0 PUSH1 0x4 DUP1 CALLDATASIZE SUB DUP2 ADD SWAP1 PUSH2 0x1AB SWAP2 SWAP1 PUSH2 0xA73 JUMP JUMPDEST PUSH2 0x748 JUMP JUMPDEST STOP JUMPDEST PUSH2 0x1CC PUSH1 0x4 DUP1 CALLDATASIZE SUB DUP2 ADD SWAP1 PUSH2 0x1C7 SWAP2 SWAP1 PUSH2 0xA73 JUMP JUMPDEST PUSH2 0x788 JUMP JUMPDEST STOP JUMPDEST PUSH2 0x1E8 PUSH1 0x4 DUP1 CALLDATASIZE SUB DUP2 ADD SWAP1 PUSH2 0x1E3 SWAP2 SWAP1 PUSH2 0x9AA JUMP JUMPDEST PUSH2 0x815 JUMP JUMPDEST PUSH1 0x40 MLOAD PUSH2 0x1F5 SWAP2 SWAP1 PUSH2 0xCE6 JUMP JUMPDEST PUSH1 0x40 MLOAD DUP1 SWAP2 SUB SWAP1 RETURN JUMPDEST PUSH1 0x0 DUP1 CALLER PUSH1 0x0 DUP1 CALLER PUSH20 0xFFFFFFFFFFFFFFFFFFFFFFFFFFFFFFFFFFFFFFFF AND PUSH20 0xFFFFFFFFFFFFFFFFFFFFFFFFFFFFFFFFFFFFFFFF AND DUP2 MSTORE PUSH1 0x20 ADD SWAP1 DUP2 MSTORE PUSH1 0x20 ADD PUSH1 0x0 KECCAK256 SLOAD SWAP2 POP SWAP2 POP SWAP1 SWAP2 JUMP JUMPDEST CALLER PUSH20 0xFFFFFFFFFFFFFFFFFFFFFFFFFFFFFFFFFFFFFFFF AND PUSH32 0x0 PUSH20 0xFFFFFFFFFFFFFFFFFFFFFFFFFFFFFFFFFFFFFFFF AND EQ PUSH2 0x2D7 JUMPI PUSH1 0x40 MLOAD PUSH32 0x8C379A000000000000000000000000000000000000000000000000000000000 DUP2 MSTORE PUSH1 0x4 ADD PUSH2 0x2CE SWAP1 PUSH2 0xC66 JUMP JUMPDEST PUSH1 0x40 MLOAD DUP1 SWAP2 SUB SWAP1 REVERT JUMPDEST PUSH1 0x0 PUSH1 0x1 DUP5 DUP2 SLOAD DUP2 LT PUSH2 0x2ED JUMPI PUSH2 0x2EC PUSH2 0xEE6 JUMP JUMPDEST JUMPDEST SWAP1 PUSH1 0x0 MSTORE PUSH1 0x20 PUSH1 0x0 KECCAK256 SWAP1 PUSH1 0x2 MUL ADD SWAP1 POP DUP3 DUP2 PUSH1 0x0 ADD SWAP1 DUP1 MLOAD SWAP1 PUSH1 0x20 ADD SWAP1 PUSH2 0x315 SWAP3 SWAP2 SWAP1 PUSH2 0x82D JUMP JUMPDEST POP DUP2 DUP2 PUSH1 0x1 ADD DUP2 SWAP1 SSTORE POP POP POP POP POP JUMP JUMPDEST PUSH32 0x0 DUP2 JUMP JUMPDEST PUSH1 0x1 DUP2 DUP2 SLOAD DUP2 LT PUSH2 0x359 JUMPI PUSH1 0x0 DUP1 REVERT JUMPDEST SWAP1 PUSH1 0x0 MSTORE PUSH1 0x20 PUSH1 0x0 KECCAK256 SWAP1 PUSH1 0x2 MUL ADD PUSH1 0x0 SWAP2 POP SWAP1 POP DUP1 PUSH1 0x0 ADD DUP1 SLOAD PUSH2 0x37C SWAP1 PUSH2 0xE25 JUMP JUMPDEST DUP1 PUSH1 0x1F ADD PUSH1 0x20 DUP1 SWAP2 DIV MUL PUSH1 0x20 ADD PUSH1 0x40 MLOAD SWAP1 DUP2 ADD PUSH1 0x40 MSTORE DUP1 SWAP3 SWAP2 SWAP1 DUP2 DUP2 MSTORE PUSH1 0x20 ADD DUP3 DUP1 SLOAD PUSH2 0x3A8 SWAP1 PUSH2 0xE25 JUMP JUMPDEST DUP1 ISZERO PUSH2 0x3F5 JUMPI DUP1 PUSH1 0x1F LT PUSH2 0x3CA JUMPI PUSH2 0x100 DUP1 DUP4 SLOAD DIV MUL DUP4 MSTORE SWAP2 PUSH1 0x20 ADD SWAP2 PUSH2 0x3F5 JUMP JUMPDEST DUP3 ADD SWAP2 SWAP1 PUSH1 0x0 MSTORE PUSH1 0x20 PUSH1 0x0 KECCAK256 SWAP1 JUMPDEST DUP2 SLOAD DUP2 MSTORE SWAP1 PUSH1 0x1 ADD SWAP1 PUSH1 0x20 ADD DUP1 DUP4 GT PUSH2 0x3D8 JUMPI DUP3 SWAP1 SUB PUSH1 0x1F AND DUP3 ADD SWAP2 JUMPDEST POP POP POP POP POP SWAP1 DUP1 PUSH1 0x1 ADD SLOAD SWAP1 POP DUP3 JUMP JUMPDEST CALLER PUSH20 0xFFFFFFFFFFFFFFFFFFFFFFFFFFFFFFFFFFFFFFFF AND PUSH32 0x0 PUSH20 0xFFFFFFFFFFFFFFFFFFFFFFFFFFFFFFFFFFFFFFFF AND EQ PUSH2 0x493 JUMPI PUSH1 0x40 MLOAD PUSH32 0x8C379A000000000000000000000000000000000000000000000000000000000 DUP2 MSTORE PUSH1 0x4 ADD PUSH2 0x48A SWAP1 PUSH2 0xCA6 JUMP JUMPDEST PUSH1 0x40 MLOAD DUP1 SWAP2 SUB SWAP1 REVERT JUMPDEST PUSH1 0x1 PUSH1 0x40 MLOAD DUP1 PUSH1 0x40 ADD PUSH1 0x40 MSTORE DUP1 DUP5 DUP2 MSTORE PUSH1 0x20 ADD DUP4 DUP2 MSTORE POP SWAP1 DUP1 PUSH1 0x1 DUP2 SLOAD ADD DUP1 DUP3 SSTORE DUP1 SWAP2 POP POP PUSH1 0x1 SWAP1 SUB SWAP1 PUSH1 0x0 MSTORE PUSH1 0x20 PUSH1 0x0 KECCAK256 SWAP1 PUSH1 0x2 MUL ADD PUSH1 0x0 SWAP1 SWAP2 SWAP1 SWAP2 SWAP1 SWAP2 POP PUSH1 0x0 DUP3 ADD MLOAD DUP2 PUSH1 0x0 ADD SWAP1 DUP1 MLOAD SWAP1 PUSH1 0x20 ADD SWAP1 PUSH2 0x4EF SWAP3 SWAP2 SWAP1 PUSH2 0x82D JUMP JUMPDEST POP PUSH1 0x20 DUP3 ADD MLOAD DUP2 PUSH1 0x1 ADD SSTORE POP POP PUSH32 0x14D49E3EA4F348B7F368906DFE1A63055C7822D622A61672A35A55AE97A768F9 DUP3 DUP3 PUSH1 0x40 MLOAD PUSH2 0x52D SWAP3 SWAP2 SWAP1 PUSH2 0xC36 JUMP JUMPDEST PUSH1 0x40 MLOAD DUP1 SWAP2 SUB SWAP1 LOG1 POP POP JUMP JUMPDEST PUSH1 0x60 PUSH1 0x0 DUP1 PUSH1 0x1 DUP5 DUP2 SLOAD DUP2 LT PUSH2 0x552 JUMPI PUSH2 0x551 PUSH2 0xEE6 JUMP JUMPDEST JUMPDEST SWAP1 PUSH1 0x0 MSTORE PUSH1 0x20 PUSH1 0x0 KECCAK256 SWAP1 PUSH1 0x2 MUL ADD SWAP1 POP PUSH1 0x0 DUP2 PUSH1 0x1 ADD SLOAD EQ PUSH2 0x5A9 JUMPI PUSH1 0x40 MLOAD PUSH32 0x8C379A000000000000000000000000000000000000000000000000000000000 DUP2 MSTORE PUSH1 0x4 ADD PUSH2 0x5A0 SWAP1 PUSH2 0xCC6 JUMP JUMPDEST PUSH1 0x40 MLOAD DUP1 SWAP2 SUB SWAP1 REVERT JUMPDEST DUP1 PUSH1 0x0 ADD DUP2 PUSH1 0x1 ADD SLOAD DUP2 DUP1 SLOAD PUSH2 0x5BE SWAP1 PUSH2 0xE25 JUMP JUMPDEST DUP1 PUSH1 0x1F ADD PUSH1 0x20 DUP1 SWAP2 DIV MUL PUSH1 0x20 ADD PUSH1 0x40 MLOAD SWAP1 DUP2 ADD PUSH1 0x40 MSTORE DUP1 SWAP3 SWAP2 SWAP1 DUP2 DUP2 MSTORE PUSH1 0x20 ADD DUP3 DUP1 SLOAD PUSH2 0x5EA SWAP1 PUSH2 0xE25 JUMP JUMPDEST DUP1 ISZERO PUSH2 0x637 JUMPI DUP1 PUSH1 0x1F LT PUSH2 0x60C JUMPI PUSH2 0x100 DUP1 DUP4 SLOAD DIV MUL DUP4 MSTORE SWAP2 PUSH1 0x20 ADD SWAP2 PUSH2 0x637 JUMP JUMPDEST DUP3 ADD SWAP2 SWAP1 PUSH1 0x0 MSTORE PUSH1 0x20 PUSH1 0x0 KECCAK256 SWAP1 JUMPDEST DUP2 SLOAD DUP2 MSTORE SWAP1 PUSH1 0x1 ADD SWAP1 PUSH1 0x20 ADD DUP1 DUP4 GT PUSH2 0x61A JUMPI DUP3 SWAP1 SUB PUSH1 0x1F AND DUP3 ADD SWAP2 JUMPDEST POP POP POP POP POP SWAP2 POP SWAP3 POP SWAP3 POP POP SWAP2 POP SWAP2 JUMP JUMPDEST PUSH1 0x0 DUP1 PUSH1 0x0 CALLER PUSH20 0xFFFFFFFFFFFFFFFFFFFFFFFFFFFFFFFFFFFFFFFF AND PUSH20 0xFFFFFFFFFFFFFFFFFFFFFFFFFFFFFFFFFFFFFFFF AND DUP2 MSTORE PUSH1 0x20 ADD SWAP1 DUP2 MSTORE PUSH1 0x20 ADD PUSH1 0x0 KECCAK256 SLOAD EQ PUSH2 0x6C9 JUMPI PUSH1 0x40 MLOAD PUSH32 0x8C379A000000000000000000000000000000000000000000000000000000000 DUP2 MSTORE PUSH1 0x4 ADD PUSH2 0x6C0 SWAP1 PUSH2 0xC86 JUMP JUMPDEST PUSH1 0x40 MLOAD DUP1 SWAP2 SUB SWAP1 REVERT JUMPDEST DUP1 PUSH1 0x0 DUP1 CALLER PUSH20 0xFFFFFFFFFFFFFFFFFFFFFFFFFFFFFFFFFFFFFFFF AND PUSH20 0xFFFFFFFFFFFFFFFFFFFFFFFFFFFFFFFFFFFFFFFF AND DUP2 MSTORE PUSH1 0x20 ADD SWAP1 DUP2 MSTORE PUSH1 0x20 ADD PUSH1 0x0 KECCAK256 DUP2 SWAP1 SSTORE POP PUSH31 0x7DC6AB80CC84C043B7B8D4FCAFC802187470087F7EA7FCCD2E17AECD0256A1 DUP3 DUP3 PUSH1 0x40 MLOAD PUSH2 0x73C SWAP3 SWAP2 SWAP1 PUSH2 0xC0D JUMP JUMPDEST PUSH1 0x40 MLOAD DUP1 SWAP2 SUB SWAP1 LOG1 POP POP JUMP JUMPDEST PUSH1 0x1 DUP2 DUP2 SLOAD DUP2 LT PUSH2 0x75C JUMPI PUSH2 0x75B PUSH2 0xEE6 JUMP JUMPDEST JUMPDEST SWAP1 PUSH1 0x0 MSTORE PUSH1 0x20 PUSH1 0x0 KECCAK256 SWAP1 PUSH1 0x2 MUL ADD PUSH1 0x0 DUP1 DUP3 ADD PUSH1 0x0 PUSH2 0x77B SWAP2 SWAP1 PUSH2 0x8B3 JUMP JUMPDEST PUSH1 0x1 DUP3 ADD PUSH1 0x0 SWAP1 SSTORE POP POP POP JUMP JUMPDEST PUSH1 0x0 PUSH1 0x1 DUP3 DUP2 SLOAD DUP2 LT PUSH2 0x79E JUMPI PUSH2 0x79D PUSH2 0xEE6 JUMP JUMPDEST JUMPDEST SWAP1 PUSH1 0x0 MSTORE PUSH1 0x20 PUSH1 0x0 KECCAK256 SWAP1 PUSH1 0x2 MUL ADD SWAP1 POP DUP1 PUSH1 0x1 ADD SLOAD PUSH1 0x0 DUP1 CALLER PUSH20 0xFFFFFFFFFFFFFFFFFFFFFFFFFFFFFFFFFFFFFFFF AND PUSH20 0xFFFFFFFFFFFFFFFFFFFFFFFFFFFFFFFFFFFFFFFF AND DUP2 MSTORE PUSH1 0x20 ADD SWAP1 DUP2 MSTORE PUSH1 0x20 ADD PUSH1 0x0 KECCAK256 PUSH1 0x0 DUP3 DUP3 SLOAD PUSH2 0x800 SWAP2 SWAP1 PUSH2 0xD73 JUMP JUMPDEST SWAP3 POP POP DUP2 SWAP1 SSTORE POP PUSH2 0x80F PUSH2 0x1FE JUMP JUMPDEST POP POP POP POP JUMP JUMPDEST PUSH1 0x0 PUSH1 0x20 MSTORE DUP1 PUSH1 0x0 MSTORE PUSH1 0x40 PUSH1 0x0 KECCAK256 PUSH1 0x0 SWAP2 POP SWAP1 POP SLOAD DUP2 JUMP JUMPDEST DUP3 DUP1 SLOAD PUSH2 0x839 SWAP1 PUSH2 0xE25 JUMP JUMPDEST SWAP1 PUSH1 0x0 MSTORE PUSH1 0x20 PUSH1 0x0 KECCAK256 SWAP1 PUSH1 0x1F ADD PUSH1 0x20 SWAP1 DIV DUP2 ADD SWAP3 DUP3 PUSH2 0x85B JUMPI PUSH1 0x0 DUP6 SSTORE PUSH2 0x8A2 JUMP JUMPDEST DUP3 PUSH1 0x1F LT PUSH2 0x874 JUMPI DUP1 MLOAD PUSH1 0xFF NOT AND DUP4 DUP1 ADD OR DUP6 SSTORE PUSH2 0x8A2 JUMP JUMPDEST DUP3 DUP1 ADD PUSH1 0x1 ADD DUP6 SSTORE DUP3 ISZERO PUSH2 0x8A2 JUMPI SWAP2 DUP3 ADD JUMPDEST DUP3 DUP2 GT ISZERO PUSH2 0x8A1 JUMPI DUP3 MLOAD DUP3 SSTORE SWAP2 PUSH1 0x20 ADD SWAP2 SWAP1 PUSH1 0x1 ADD SWAP1 PUSH2 0x886 JUMP JUMPDEST JUMPDEST POP SWAP1 POP PUSH2 0x8AF SWAP2 SWAP1 PUSH2 0x8F3 JUMP JUMPDEST POP SWAP1 JUMP JUMPDEST POP DUP1 SLOAD PUSH2 0x8BF SWAP1 PUSH2 0xE25 JUMP JUMPDEST PUSH1 0x0 DUP3 SSTORE DUP1 PUSH1 0x1F LT PUSH2 0x8D1 JUMPI POP PUSH2 0x8F0 JUMP JUMPDEST PUSH1 0x1F ADD PUSH1 0x20 SWAP1 DIV SWAP1 PUSH1 0x0 MSTORE PUSH1 0x20 PUSH1 0x0 KECCAK256 SWAP1 DUP2 ADD SWAP1 PUSH2 0x8EF SWAP2 SWAP1 PUSH2 0x8F3 JUMP JUMPDEST JUMPDEST POP JUMP JUMPDEST JUMPDEST DUP1 DUP3 GT ISZERO PUSH2 0x90C JUMPI PUSH1 0x0 DUP2 PUSH1 0x0 SWAP1 SSTORE POP PUSH1 0x1 ADD PUSH2 0x8F4 JUMP JUMPDEST POP SWAP1 JUMP JUMPDEST PUSH1 0x0 PUSH2 0x923 PUSH2 0x91E DUP5 PUSH2 0xD26 JUMP JUMPDEST PUSH2 0xD01 JUMP JUMPDEST SWAP1 POP DUP3 DUP2 MSTORE PUSH1 0x20 DUP2 ADD DUP5 DUP5 DUP5 ADD GT ISZERO PUSH2 0x93F JUMPI PUSH2 0x93E PUSH2 0xF49 JUMP JUMPDEST JUMPDEST PUSH2 0x94A DUP5 DUP3 DUP6 PUSH2 0xDE3 JUMP JUMPDEST POP SWAP4 SWAP3 POP POP POP JUMP JUMPDEST PUSH1 0x0 DUP2 CALLDATALOAD SWAP1 POP PUSH2 0x961 DUP2 PUSH2 0x107F JUMP JUMPDEST SWAP3 SWAP2 POP POP JUMP JUMPDEST PUSH1 0x0 DUP3 PUSH1 0x1F DUP4 ADD SLT PUSH2 0x97C JUMPI PUSH2 0x97B PUSH2 0xF44 JUMP JUMPDEST JUMPDEST DUP2 CALLDATALOAD PUSH2 0x98C DUP5 DUP3 PUSH1 0x20 DUP7 ADD PUSH2 0x910 JUMP JUMPDEST SWAP2 POP POP SWAP3 SWAP2 POP POP JUMP JUMPDEST PUSH1 0x0 DUP2 CALLDATALOAD SWAP1 POP PUSH2 0x9A4 DUP2 PUSH2 0x1096 JUMP JUMPDEST SWAP3 SWAP2 POP POP JUMP JUMPDEST PUSH1 0x0 PUSH1 0x20 DUP3 DUP5 SUB SLT ISZERO PUSH2 0x9C0 JUMPI PUSH2 0x9BF PUSH2 0xF53 JUMP JUMPDEST JUMPDEST PUSH1 0x0 PUSH2 0x9CE DUP5 DUP3 DUP6 ADD PUSH2 0x952 JUMP JUMPDEST SWAP2 POP POP SWAP3 SWAP2 POP POP JUMP JUMPDEST PUSH1 0x0 DUP1 PUSH1 0x40 DUP4 DUP6 SUB SLT ISZERO PUSH2 0x9EE JUMPI PUSH2 0x9ED PUSH2 0xF53 JUMP JUMPDEST JUMPDEST PUSH1 0x0 PUSH2 0x9FC DUP6 DUP3 DUP7 ADD PUSH2 0x952 JUMP JUMPDEST SWAP3 POP POP PUSH1 0x20 PUSH2 0xA0D DUP6 DUP3 DUP7 ADD PUSH2 0x995 JUMP JUMPDEST SWAP2 POP POP SWAP3 POP SWAP3 SWAP1 POP JUMP JUMPDEST PUSH1 0x0 DUP1 PUSH1 0x40 DUP4 DUP6 SUB SLT ISZERO PUSH2 0xA2E JUMPI PUSH2 0xA2D PUSH2 0xF53 JUMP JUMPDEST JUMPDEST PUSH1 0x0 DUP4 ADD CALLDATALOAD PUSH8 0xFFFFFFFFFFFFFFFF DUP2 GT ISZERO PUSH2 0xA4C JUMPI PUSH2 0xA4B PUSH2 0xF4E JUMP JUMPDEST JUMPDEST PUSH2 0xA58 DUP6 DUP3 DUP7 ADD PUSH2 0x967 JUMP JUMPDEST SWAP3 POP POP PUSH1 0x20 PUSH2 0xA69 DUP6 DUP3 DUP7 ADD PUSH2 0x995 JUMP JUMPDEST SWAP2 POP POP SWAP3 POP SWAP3 SWAP1 POP JUMP JUMPDEST PUSH1 0x0 PUSH1 0x20 DUP3 DUP5 SUB SLT ISZERO PUSH2 0xA89 JUMPI PUSH2 0xA88 PUSH2 0xF53 JUMP JUMPDEST JUMPDEST PUSH1 0x0 PUSH2 0xA97 DUP5 DUP3 DUP6 ADD PUSH2 0x995 JUMP JUMPDEST SWAP2 POP POP SWAP3 SWAP2 POP POP JUMP JUMPDEST PUSH1 0x0 DUP1 PUSH1 0x0 PUSH1 0x60 DUP5 DUP7 SUB SLT ISZERO PUSH2 0xAB9 JUMPI PUSH2 0xAB8 PUSH2 0xF53 JUMP JUMPDEST JUMPDEST PUSH1 0x0 PUSH2 0xAC7 DUP7 DUP3 DUP8 ADD PUSH2 0x995 JUMP JUMPDEST SWAP4 POP POP PUSH1 0x20 DUP5 ADD CALLDATALOAD PUSH8 0xFFFFFFFFFFFFFFFF DUP2 GT ISZERO PUSH2 0xAE8 JUMPI PUSH2 0xAE7 PUSH2 0xF4E JUMP JUMPDEST JUMPDEST PUSH2 0xAF4 DUP7 DUP3 DUP8 ADD PUSH2 0x967 JUMP JUMPDEST SWAP3 POP POP PUSH1 0x40 PUSH2 0xB05 DUP7 DUP3 DUP8 ADD PUSH2 0x995 JUMP JUMPDEST SWAP2 POP POP SWAP3 POP SWAP3 POP SWAP3 JUMP JUMPDEST PUSH2 0xB18 DUP2 PUSH2 0xDA7 JUMP JUMPDEST DUP3 MSTORE POP POP JUMP JUMPDEST PUSH1 0x0 PUSH2 0xB29 DUP3 PUSH2 0xD57 JUMP JUMPDEST PUSH2 0xB33 DUP2 DUP6 PUSH2 0xD62 JUMP JUMPDEST SWAP4 POP PUSH2 0xB43 DUP2 DUP6 PUSH1 0x20 DUP7 ADD PUSH2 0xDF2 JUMP JUMPDEST PUSH2 0xB4C DUP2 PUSH2 0xF58 JUMP JUMPDEST DUP5 ADD SWAP2 POP POP SWAP3 SWAP2 POP POP JUMP JUMPDEST PUSH1 0x0 PUSH2 0xB64 PUSH1 0x34 DUP4 PUSH2 0xD62 JUMP JUMPDEST SWAP2 POP PUSH2 0xB6F DUP3 PUSH2 0xF69 JUMP JUMPDEST PUSH1 0x40 DUP3 ADD SWAP1 POP SWAP2 SWAP1 POP JUMP JUMPDEST PUSH1 0x0 PUSH2 0xB87 PUSH1 0x25 DUP4 PUSH2 0xD62 JUMP JUMPDEST SWAP2 POP PUSH2 0xB92 DUP3 PUSH2 0xFB8 JUMP JUMPDEST PUSH1 0x40 DUP3 ADD SWAP1 POP SWAP2 SWAP1 POP JUMP JUMPDEST PUSH1 0x0 PUSH2 0xBAA PUSH1 0x30 DUP4 PUSH2 0xD62 JUMP JUMPDEST SWAP2 POP PUSH2 0xBB5 DUP3 PUSH2 0x1007 JUMP JUMPDEST PUSH1 0x40 DUP3 ADD SWAP1 POP SWAP2 SWAP1 POP JUMP JUMPDEST PUSH1 0x0 PUSH2 0xBCD PUSH1 0x1E DUP4 PUSH2 0xD62 JUMP JUMPDEST SWAP2 POP PUSH2 0xBD8 DUP3 PUSH2 0x1056 JUMP JUMPDEST PUSH1 0x20 DUP3 ADD SWAP1 POP SWAP2 SWAP1 POP JUMP JUMPDEST PUSH2 0xBEC DUP2 PUSH2 0xDD9 JUMP JUMPDEST DUP3 MSTORE POP POP JUMP JUMPDEST PUSH1 0x0 PUSH1 0x20 DUP3 ADD SWAP1 POP PUSH2 0xC07 PUSH1 0x0 DUP4 ADD DUP5 PUSH2 0xB0F JUMP JUMPDEST SWAP3 SWAP2 POP POP JUMP JUMPDEST PUSH1 0x0 PUSH1 0x40 DUP3 ADD SWAP1 POP PUSH2 0xC22 PUSH1 0x0 DUP4 ADD DUP6 PUSH2 0xB0F JUMP JUMPDEST PUSH2 0xC2F PUSH1 0x20 DUP4 ADD DUP5 PUSH2 0xBE3 JUMP JUMPDEST SWAP4 SWAP3 POP POP POP JUMP JUMPDEST PUSH1 0x0 PUSH1 0x40 DUP3 ADD SWAP1 POP DUP2 DUP2 SUB PUSH1 0x0 DUP4 ADD MSTORE PUSH2 0xC50 DUP2 DUP6 PUSH2 0xB1E JUMP JUMPDEST SWAP1 POP PUSH2 0xC5F PUSH1 0x20 DUP4 ADD DUP5 PUSH2 0xBE3 JUMP JUMPDEST SWAP4 SWAP3 POP POP POP JUMP JUMPDEST PUSH1 0x0 PUSH1 0x20 DUP3 ADD SWAP1 POP DUP2 DUP2 SUB PUSH1 0x0 DUP4 ADD MSTORE PUSH2 0xC7F DUP2 PUSH2 0xB57 JUMP JUMPDEST SWAP1 POP SWAP2 SWAP1 POP JUMP JUMPDEST PUSH1 0x0 PUSH1 0x20 DUP3 ADD SWAP1 POP DUP2 DUP2 SUB PUSH1 0x0 DUP4 ADD MSTORE PUSH2 0xC9F DUP2 PUSH2 0xB7A JUMP JUMPDEST SWAP1 POP SWAP2 SWAP1 POP JUMP JUMPDEST PUSH1 0x0 PUSH1 0x20 DUP3 ADD SWAP1 POP DUP2 DUP2 SUB PUSH1 0x0 DUP4 ADD MSTORE PUSH2 0xCBF DUP2 PUSH2 0xB9D JUMP JUMPDEST SWAP1 POP SWAP2 SWAP1 POP JUMP JUMPDEST PUSH1 0x0 PUSH1 0x20 DUP3 ADD SWAP1 POP DUP2 DUP2 SUB PUSH1 0x0 DUP4 ADD MSTORE PUSH2 0xCDF DUP2 PUSH2 0xBC0 JUMP JUMPDEST SWAP1 POP SWAP2 SWAP1 POP JUMP JUMPDEST PUSH1 0x0 PUSH1 0x20 DUP3 ADD SWAP1 POP PUSH2 0xCFB PUSH1 0x0 DUP4 ADD DUP5 PUSH2 0xBE3 JUMP JUMPDEST SWAP3 SWAP2 POP POP JUMP JUMPDEST PUSH1 0x0 PUSH2 0xD0B PUSH2 0xD1C JUMP JUMPDEST SWAP1 POP PUSH2 0xD17 DUP3 DUP3 PUSH2 0xE57 JUMP JUMPDEST SWAP2 SWAP1 POP JUMP JUMPDEST PUSH1 0x0 PUSH1 0x40 MLOAD SWAP1 POP SWAP1 JUMP JUMPDEST PUSH1 0x0 PUSH8 0xFFFFFFFFFFFFFFFF DUP3 GT ISZERO PUSH2 0xD41 JUMPI PUSH2 0xD40 PUSH2 0xF15 JUMP JUMPDEST JUMPDEST PUSH2 0xD4A DUP3 PUSH2 0xF58 JUMP JUMPDEST SWAP1 POP PUSH1 0x20 DUP2 ADD SWAP1 POP SWAP2 SWAP1 POP JUMP JUMPDEST PUSH1 0x0 DUP2 MLOAD SWAP1 POP SWAP2 SWAP1 POP JUMP JUMPDEST PUSH1 0x0 DUP3 DUP3 MSTORE PUSH1 0x20 DUP3 ADD SWAP1 POP SWAP3 SWAP2 POP POP JUMP JUMPDEST PUSH1 0x0 PUSH2 0xD7E DUP3 PUSH2 0xDD9 JUMP JUMPDEST SWAP2 POP PUSH2 0xD89 DUP4 PUSH2 0xDD9 JUMP JUMPDEST SWAP3 POP DUP3 DUP3 LT ISZERO PUSH2 0xD9C JUMPI PUSH2 0xD9B PUSH2 0xE88 JUMP JUMPDEST JUMPDEST DUP3 DUP3 SUB SWAP1 POP SWAP3 SWAP2 POP POP JUMP JUMPDEST PUSH1 0x0 PUSH2 0xDB2 DUP3 PUSH2 0xDB9 JUMP JUMPDEST SWAP1 POP SWAP2 SWAP1 POP JUMP JUMPDEST PUSH1 0x0 PUSH20 0xFFFFFFFFFFFFFFFFFFFFFFFFFFFFFFFFFFFFFFFF DUP3 AND SWAP1 POP SWAP2 SWAP1 POP JUMP JUMPDEST PUSH1 0x0 DUP2 SWAP1 POP SWAP2 SWAP1 POP JUMP JUMPDEST DUP3 DUP2 DUP4 CALLDATACOPY PUSH1 0x0 DUP4 DUP4 ADD MSTORE POP POP POP JUMP JUMPDEST PUSH1 0x0 JUMPDEST DUP4 DUP2 LT ISZERO PUSH2 0xE10 JUMPI DUP1 DUP3 ADD MLOAD DUP2 DUP5 ADD MSTORE PUSH1 0x20 DUP2 ADD SWAP1 POP PUSH2 0xDF5 JUMP JUMPDEST DUP4 DUP2 GT ISZERO PUSH2 0xE1F JUMPI PUSH1 0x0 DUP5 DUP5 ADD MSTORE JUMPDEST POP POP POP POP JUMP JUMPDEST PUSH1 0x0 PUSH1 0x2 DUP3 DIV SWAP1 POP PUSH1 0x1 DUP3 AND DUP1 PUSH2 0xE3D JUMPI PUSH1 0x7F DUP3 AND SWAP2 POP JUMPDEST PUSH1 0x20 DUP3 LT DUP2 EQ ISZERO PUSH2 0xE51 JUMPI PUSH2 0xE50 PUSH2 0xEB7 JUMP JUMPDEST JUMPDEST POP SWAP2 SWAP1 POP JUMP JUMPDEST PUSH2 0xE60 DUP3 PUSH2 0xF58 JUMP JUMPDEST DUP2 ADD DUP2 DUP2 LT PUSH8 0xFFFFFFFFFFFFFFFF DUP3 GT OR ISZERO PUSH2 0xE7F JUMPI PUSH2 0xE7E PUSH2 0xF15 JUMP JUMPDEST JUMPDEST DUP1 PUSH1 0x40 MSTORE POP POP POP JUMP JUMPDEST PUSH32 0x4E487B7100000000000000000000000000000000000000000000000000000000 PUSH1 0x0 MSTORE PUSH1 0x11 PUSH1 0x4 MSTORE PUSH1 0x24 PUSH1 0x0 REVERT JUMPDEST PUSH32 0x4E487B7100000000000000000000000000000000000000000000000000000000 PUSH1 0x0 MSTORE PUSH1 0x22 PUSH1 0x4 MSTORE PUSH1 0x24 PUSH1 0x0 REVERT JUMPDEST PUSH32 0x4E487B7100000000000000000000000000000000000000000000000000000000 PUSH1 0x0 MSTORE PUSH1 0x32 PUSH1 0x4 MSTORE PUSH1 0x24 PUSH1 0x0 REVERT JUMPDEST PUSH32 0x4E487B7100000000000000000000000000000000000000000000000000000000 PUSH1 0x0 MSTORE PUSH1 0x41 PUSH1 0x4 MSTORE PUSH1 0x24 PUSH1 0x0 REVERT JUMPDEST PUSH1 0x0 DUP1 REVERT JUMPDEST PUSH1 0x0 DUP1 REVERT JUMPDEST PUSH1 0x0 DUP1 REVERT JUMPDEST PUSH1 0x0 DUP1 REVERT JUMPDEST PUSH1 0x0 PUSH1 0x1F NOT PUSH1 0x1F DUP4 ADD AND SWAP1 POP SWAP2 SWAP1 POP JUMP JUMPDEST PUSH32 0x536F6C6F20656C2041646D696E6973747261646F722064656C2047796D207075 PUSH1 0x0 DUP3 ADD MSTORE PUSH32 0x656465206D6F6469666963617220636C61736573000000000000000000000000 PUSH1 0x20 DUP3 ADD MSTORE POP JUMP JUMPDEST PUSH32 0x596120746520656E6375656E74726173207265676973747261646F20656E2065 PUSH1 0x0 DUP3 ADD MSTORE PUSH32 0x6C2067796D000000000000000000000000000000000000000000000000000000 PUSH1 0x20 DUP3 ADD MSTORE POP JUMP JUMPDEST PUSH32 0x536F6C6F20656C2041646D696E6973747261646F722064656C2047796D207075 PUSH1 0x0 DUP3 ADD MSTORE PUSH32 0x65646520637265617220636C6173657300000000000000000000000000000000 PUSH1 0x20 DUP3 ADD MSTORE POP JUMP JUMPDEST PUSH32 0x4E6F2065786973746520756E6120636C61736520636F6E206573652049640000 PUSH1 0x0 DUP3 ADD MSTORE POP JUMP JUMPDEST PUSH2 0x1088 DUP2 PUSH2 0xDA7 JUMP JUMPDEST DUP2 EQ PUSH2 0x1093 JUMPI PUSH1 0x0 DUP1 REVERT JUMPDEST POP JUMP JUMPDEST PUSH2 0x109F DUP2 PUSH2 0xDD9 JUMP JUMPDEST DUP2 EQ PUSH2 0x10AA JUMPI PUSH1 0x0 DUP1 REVERT JUMPDEST POP JUMP INVALID LOG2 PUSH5 0x6970667358 0x22 SLT KECCAK256 0xBC SWAP5 0xC9 SWAP14 0x2D 0x1F 0xAC 0xC5 0xC0 DUP4 PUSH18 0x46CD5ED890E3B2E3A395081122C672FBDADB OR XOR MSTORE8 PUSH5 0x736F6C6343 STOP ADDMOD SMOD STOP CALLER "
				},
				"gasEstimates": {
					"creation": {
						"codeDepositCost": "864600",
						"executionCost": "infinite",
						"totalCost": "infinite"
					},
					"external": {
						"ADMIN()": "infinite",
						"class(uint256)": "infinite",
						"createClass(string,uint256)": "infinite",
						"getBalance()": "2689",
						"getClass(uint256)": "infinite",
						"register(address,uint256)": "infinite",
						"removeClass(uint256)": "infinite",
						"takeClass(uint256)": "infinite",
						"updateClass(uint256,string,uint256)": "infinite",
						"users(address)": "2902"
					}
				},
				"methodIdentifiers": {
					"ADMIN()": "2a0acc6a",
					"class(uint256)": "3613a9f4",
					"createClass(string,uint256)": "4852a212",
					"getBalance()": "12065fe0",
					"getClass(uint256)": "512d62df",
					"register(address,uint256)": "6d705ebb",
					"removeClass(uint256)": "72c30f45",
					"takeClass(uint256)": "7aed8136",
					"updateClass(uint256,string,uint256)": "1e8be099",
					"users(address)": "a87430ba"
				}
			},
			"storageLayout": {
				"storage": [
					{
						"astId": 33,
						"contract": "contracts/Gym_Contact.sol:gym",
						"label": "users",
						"offset": 0,
						"slot": "0",
						"type": "t_mapping(t_address,t_uint256)"
					},
					{
						"astId": 37,
						"contract": "contracts/Gym_Contact.sol:gym",
						"label": "class",
						"offset": 0,
						"slot": "1",
						"type": "t_array(t_struct(Class)6_storage)dyn_storage"
					}
				],
				"types": {
					"t_address": {
						"encoding": "inplace",
						"label": "address",
						"numberOfBytes": "20"
					},
					"t_array(t_struct(Class)6_storage)dyn_storage": {
						"base": "t_struct(Class)6_storage",
						"encoding": "dynamic_array",
						"label": "struct gym.Class[]",
						"numberOfBytes": "32"
					},
					"t_mapping(t_address,t_uint256)": {
						"encoding": "mapping",
						"key": "t_address",
						"label": "mapping(address => uint256)",
						"numberOfBytes": "32",
						"value": "t_uint256"
					},
					"t_string_storage": {
						"encoding": "bytes",
						"label": "string",
						"numberOfBytes": "32"
					},
					"t_struct(Class)6_storage": {
						"encoding": "inplace",
						"label": "struct gym.Class",
						"members": [
							{
								"astId": 3,
								"contract": "contracts/Gym_Contact.sol:gym",
								"label": "name",
								"offset": 0,
								"slot": "0",
								"type": "t_string_storage"
							},
							{
								"astId": 5,
								"contract": "contracts/Gym_Contact.sol:gym",
								"label": "value",
								"offset": 0,
								"slot": "1",
								"type": "t_uint256"
							}
						],
						"numberOfBytes": "64"
					},
					"t_uint256": {
						"encoding": "inplace",
						"label": "uint256",
						"numberOfBytes": "32"
					}
				}
			},
			"userdoc": {
				"kind": "user",
				"methods": {},
				"version": 1
			}
		}
	}
}