{
	"contracts/Gym_Contact.sol": {
		"gym": {
			"abi": [
				{
					"inputs": [],
					"stateMutability": "nonpayable",
					"type": "constructor"
				},
				{
					"anonymous": false,
					"inputs": [
						{
							"indexed": false,
							"internalType": "string",
							"name": "name",
							"type": "string"
						},
						{
							"indexed": false,
							"internalType": "uint256",
							"name": "value",
							"type": "uint256"
						}
					],
					"name": "ClassCreated",
					"type": "event"
				},
				{
					"anonymous": false,
					"inputs": [
						{
							"indexed": false,
							"internalType": "address",
							"name": "user",
							"type": "address"
						},
						{
							"indexed": false,
							"internalType": "uint256",
							"name": "credits",
							"type": "uint256"
						}
					],
					"name": "Register",
					"type": "event"
				},
				{
					"inputs": [],
					"name": "ADMIN",
					"outputs": [
						{
							"internalType": "address",
							"name": "",
							"type": "address"
						}
					],
					"stateMutability": "view",
					"type": "function"
				},
				{
					"inputs": [
						{
							"internalType": "uint256",
							"name": "",
							"type": "uint256"
						}
					],
					"name": "class",
					"outputs": [
						{
							"internalType": "string",
							"name": "name",
							"type": "string"
						},
						{
							"internalType": "uint256",
							"name": "value",
							"type": "uint256"
						}
					],
					"stateMutability": "view",
					"type": "function"
				},
				{
					"inputs": [
						{
							"internalType": "string",
							"name": "_name",
							"type": "string"
						},
						{
							"internalType": "uint256",
							"name": "_value",
							"type": "uint256"
						}
					],
					"name": "createClass",
					"outputs": [],
					"stateMutability": "nonpayable",
					"type": "function"
				},
				{
					"inputs": [],
					"name": "getBalance",
					"outputs": [
						{
							"internalType": "address",
							"name": "",
							"type": "address"
						},
						{
							"internalType": "uint256",
							"name": "",
							"type": "uint256"
						}
					],
					"stateMutability": "view",
					"type": "function"
				},
				{
					"inputs": [
						{
							"internalType": "uint256",
							"name": "_index",
							"type": "uint256"
						}
					],
					"name": "getClass",
					"outputs": [
						{
							"internalType": "string",
							"name": "name",
							"type": "string"
						},
						{
							"internalType": "uint256",
							"name": "value",
							"type": "uint256"
						}
					],
					"stateMutability": "view",
					"type": "function"
				},
				{
					"inputs": [
						{
							"internalType": "uint256",
							"name": "_value",
							"type": "uint256"
						}
					],
					"name": "getCredits",
					"outputs": [],
					"stateMutability": "nonpayable",
					"type": "function"
				},
				{
					"inputs": [
						{
							"internalType": "address",
							"name": "_address",
							"type": "address"
						},
						{
							"internalType": "uint256",
							"name": "_credits",
							"type": "uint256"
						}
					],
					"name": "register",
					"outputs": [],
					"stateMutability": "nonpayable",
					"type": "function"
				},
				{
					"inputs": [
						{
							"internalType": "uint256",
							"name": "_index",
							"type": "uint256"
						}
					],
					"name": "removeClass",
					"outputs": [],
					"stateMutability": "nonpayable",
					"type": "function"
				},
				{
					"inputs": [
						{
							"internalType": "uint256",
							"name": "_index",
							"type": "uint256"
						}
					],
					"name": "takeClass",
					"outputs": [],
					"stateMutability": "nonpayable",
					"type": "function"
				},
				{
					"inputs": [
						{
							"internalType": "uint256",
							"name": "_index",
							"type": "uint256"
						},
						{
							"internalType": "string",
							"name": "_name",
							"type": "string"
						},
						{
							"internalType": "uint256",
							"name": "_value",
							"type": "uint256"
						}
					],
					"name": "updateClass",
					"outputs": [],
					"stateMutability": "nonpayable",
					"type": "function"
				},
				{
					"inputs": [
						{
							"internalType": "address",
							"name": "",
							"type": "address"
						}
					],
					"name": "users",
					"outputs": [
						{
							"internalType": "uint256",
							"name": "",
							"type": "uint256"
						}
					],
					"stateMutability": "view",
					"type": "function"
				}
			],
			"devdoc": {
				"kind": "dev",
				"methods": {},
				"version": 1
			},
			"evm": {
				"assembly": "    /* \"contracts/Gym_Contact.sol\":70:2694  contract gym {\r... */\n  mstore(0x40, 0xa0)\n    /* \"contracts/Gym_Contact.sol\":431:482  constructor() {\r... */\n  callvalue\n  dup1\n  iszero\n  tag_1\n  jumpi\n  0x00\n  dup1\n  revert\ntag_1:\n  pop\n    /* \"contracts/Gym_Contact.sol\":464:474  msg.sender */\n  caller\n    /* \"contracts/Gym_Contact.sol\":456:474  ADMIN = msg.sender */\n  0xffffffffffffffffffffffffffffffffffffffff\n  and\n  0x80\n  dup2\n  0xffffffffffffffffffffffffffffffffffffffff\n  and\n  0x60\n  shl\n  dup2\n  mstore\n  pop\n  pop\n    /* \"contracts/Gym_Contact.sol\":70:2694  contract gym {\r... */\n  shr(0x60, mload(0x80))\n  codecopy(0x00, dataOffset(sub_0), dataSize(sub_0))\n  0x00\n  assignImmutable(\"0x731dc163f73d31d8c68f9917ce4ff967753939f70432973c04fd2c2a48148607\")\n  return(0x00, dataSize(sub_0))\nstop\n\nsub_0: assembly {\n        /* \"contracts/Gym_Contact.sol\":70:2694  contract gym {\r... */\n      mstore(0x40, 0x80)\n      callvalue\n      dup1\n      iszero\n      tag_1\n      jumpi\n      0x00\n      dup1\n      revert\n    tag_1:\n      pop\n      jumpi(tag_2, lt(calldatasize, 0x04))\n      shr(0xe0, calldataload(0x00))\n      dup1\n      0x4852a212\n      gt\n      tag_14\n      jumpi\n      dup1\n      0x4852a212\n      eq\n      tag_8\n      jumpi\n      dup1\n      0x512d62df\n      eq\n      tag_9\n      jumpi\n      dup1\n      0x6d705ebb\n      eq\n      tag_10\n      jumpi\n      dup1\n      0x72c30f45\n      eq\n      tag_11\n      jumpi\n      dup1\n      0x7aed8136\n      eq\n      tag_12\n      jumpi\n      dup1\n      0xa87430ba\n      eq\n      tag_13\n      jumpi\n      jump(tag_2)\n    tag_14:\n      dup1\n      0x12065fe0\n      eq\n      tag_3\n      jumpi\n      dup1\n      0x19389b95\n      eq\n      tag_4\n      jumpi\n      dup1\n      0x1e8be099\n      eq\n      tag_5\n      jumpi\n      dup1\n      0x2a0acc6a\n      eq\n      tag_6\n      jumpi\n      dup1\n      0x3613a9f4\n      eq\n      tag_7\n      jumpi\n    tag_2:\n      0x00\n      dup1\n      revert\n        /* \"contracts/Gym_Contact.sol\":1971:2084  function getBalance() public view returns(address, uint){\r... */\n    tag_3:\n      tag_15\n      tag_16\n      jump\t// in\n    tag_15:\n      mload(0x40)\n      tag_17\n      swap3\n      swap2\n      swap1\n      tag_18\n      jump\t// in\n    tag_17:\n      mload(0x40)\n      dup1\n      swap2\n      sub\n      swap1\n      return\n        /* \"contracts/Gym_Contact.sol\":2603:2689  function getCredits(uint _value) public {\r... */\n    tag_4:\n      tag_19\n      0x04\n      dup1\n      calldatasize\n      sub\n      dup2\n      add\n      swap1\n      tag_20\n      swap2\n      swap1\n      tag_21\n      jump\t// in\n    tag_20:\n      tag_22\n      jump\t// in\n    tag_19:\n      stop\n        /* \"contracts/Gym_Contact.sol\":1073:1357  function updateClass(uint _index, string memory _name, uint _value) public {\r... */\n    tag_5:\n      tag_23\n      0x04\n      dup1\n      calldatasize\n      sub\n      dup2\n      add\n      swap1\n      tag_24\n      swap2\n      swap1\n      tag_25\n      jump\t// in\n    tag_24:\n      tag_26\n      jump\t// in\n    tag_23:\n      stop\n        /* \"contracts/Gym_Contact.sol\":392:422  address immutable public ADMIN */\n    tag_6:\n      tag_27\n      tag_28\n      jump\t// in\n    tag_27:\n      mload(0x40)\n      tag_29\n      swap2\n      swap1\n      tag_30\n      jump\t// in\n    tag_29:\n      mload(0x40)\n      dup1\n      swap2\n      sub\n      swap1\n      return\n        /* \"contracts/Gym_Contact.sol\":758:778  Class[] public class */\n    tag_7:\n      tag_31\n      0x04\n      dup1\n      calldatasize\n      sub\n      dup2\n      add\n      swap1\n      tag_32\n      swap2\n      swap1\n      tag_21\n      jump\t// in\n    tag_32:\n      tag_33\n      jump\t// in\n    tag_31:\n      mload(0x40)\n      tag_34\n      swap3\n      swap2\n      swap1\n      tag_35\n      jump\t// in\n    tag_34:\n      mload(0x40)\n      dup1\n      swap2\n      sub\n      swap1\n      return\n        /* \"contracts/Gym_Contact.sol\":818:1065  function createClass(string memory _name, uint _value) public {\r... */\n    tag_8:\n      tag_36\n      0x04\n      dup1\n      calldatasize\n      sub\n      dup2\n      add\n      swap1\n      tag_37\n      swap2\n      swap1\n      tag_38\n      jump\t// in\n    tag_37:\n      tag_39\n      jump\t// in\n    tag_36:\n      stop\n        /* \"contracts/Gym_Contact.sol\":2092:2343  function getClass(uint _index) public view returns (string memory name, uint value) {\r... */\n    tag_9:\n      tag_40\n      0x04\n      dup1\n      calldatasize\n      sub\n      dup2\n      add\n      swap1\n      tag_41\n      swap2\n      swap1\n      tag_21\n      jump\t// in\n    tag_41:\n      tag_42\n      jump\t// in\n    tag_40:\n      mload(0x40)\n      tag_43\n      swap3\n      swap2\n      swap1\n      tag_35\n      jump\t// in\n    tag_43:\n      mload(0x40)\n      dup1\n      swap2\n      sub\n      swap1\n      return\n        /* \"contracts/Gym_Contact.sol\":1577:1963  function register(address _address, uint _credits) public {\r... */\n    tag_10:\n      tag_44\n      0x04\n      dup1\n      calldatasize\n      sub\n      dup2\n      add\n      swap1\n      tag_45\n      swap2\n      swap1\n      tag_46\n      jump\t// in\n    tag_45:\n      tag_47\n      jump\t// in\n    tag_44:\n      stop\n        /* \"contracts/Gym_Contact.sol\":1365:1539  function removeClass(uint _index) public {\r... */\n    tag_11:\n      tag_48\n      0x04\n      dup1\n      calldatasize\n      sub\n      dup2\n      add\n      swap1\n      tag_49\n      swap2\n      swap1\n      tag_21\n      jump\t// in\n    tag_49:\n      tag_50\n      jump\t// in\n    tag_48:\n      stop\n        /* \"contracts/Gym_Contact.sol\":2351:2595  function takeClass(uint _index) public {\r... */\n    tag_12:\n      tag_51\n      0x04\n      dup1\n      calldatasize\n      sub\n      dup2\n      add\n      swap1\n      tag_52\n      swap2\n      swap1\n      tag_21\n      jump\t// in\n    tag_52:\n      tag_53\n      jump\t// in\n    tag_51:\n      stop\n        /* \"contracts/Gym_Contact.sol\":506:543  mapping(address => uint) public users */\n    tag_13:\n      tag_54\n      0x04\n      dup1\n      calldatasize\n      sub\n      dup2\n      add\n      swap1\n      tag_55\n      swap2\n      swap1\n      tag_56\n      jump\t// in\n    tag_55:\n      tag_57\n      jump\t// in\n    tag_54:\n      mload(0x40)\n      tag_58\n      swap2\n      swap1\n      tag_59\n      jump\t// in\n    tag_58:\n      mload(0x40)\n      dup1\n      swap2\n      sub\n      swap1\n      return\n        /* \"contracts/Gym_Contact.sol\":1971:2084  function getBalance() public view returns(address, uint){\r... */\n    tag_16:\n        /* \"contracts/Gym_Contact.sol\":2013:2020  address */\n      0x00\n        /* \"contracts/Gym_Contact.sol\":2022:2026  uint */\n      dup1\n        /* \"contracts/Gym_Contact.sol\":2046:2056  msg.sender */\n      caller\n        /* \"contracts/Gym_Contact.sol\":2058:2063  users */\n      0x00\n        /* \"contracts/Gym_Contact.sol\":2058:2075  users[msg.sender] */\n      dup1\n        /* \"contracts/Gym_Contact.sol\":2064:2074  msg.sender */\n      caller\n        /* \"contracts/Gym_Contact.sol\":2058:2075  users[msg.sender] */\n      0xffffffffffffffffffffffffffffffffffffffff\n      and\n      0xffffffffffffffffffffffffffffffffffffffff\n      and\n      dup2\n      mstore\n      0x20\n      add\n      swap1\n      dup2\n      mstore\n      0x20\n      add\n      0x00\n      keccak256\n      sload\n        /* \"contracts/Gym_Contact.sol\":2038:2076  return (msg.sender, users[msg.sender]) */\n      swap2\n      pop\n      swap2\n      pop\n        /* \"contracts/Gym_Contact.sol\":1971:2084  function getBalance() public view returns(address, uint){\r... */\n      swap1\n      swap2\n      jump\t// out\n        /* \"contracts/Gym_Contact.sol\":2603:2689  function getCredits(uint _value) public {\r... */\n    tag_22:\n        /* \"contracts/Gym_Contact.sol\":2675:2681  _value */\n      dup1\n        /* \"contracts/Gym_Contact.sol\":2654:2659  users */\n      0x00\n        /* \"contracts/Gym_Contact.sol\":2654:2671  users[msg.sender] */\n      dup1\n        /* \"contracts/Gym_Contact.sol\":2660:2670  msg.sender */\n      caller\n        /* \"contracts/Gym_Contact.sol\":2654:2671  users[msg.sender] */\n      0xffffffffffffffffffffffffffffffffffffffff\n      and\n      0xffffffffffffffffffffffffffffffffffffffff\n      and\n      dup2\n      mstore\n      0x20\n      add\n      swap1\n      dup2\n      mstore\n      0x20\n      add\n      0x00\n      keccak256\n      0x00\n        /* \"contracts/Gym_Contact.sol\":2654:2681  users[msg.sender] += _value */\n      dup3\n      dup3\n      sload\n      tag_62\n      swap2\n      swap1\n      tag_63\n      jump\t// in\n    tag_62:\n      swap3\n      pop\n      pop\n      dup2\n      swap1\n      sstore\n      pop\n        /* \"contracts/Gym_Contact.sol\":2603:2689  function getCredits(uint _value) public {\r... */\n      pop\n      jump\t// out\n        /* \"contracts/Gym_Contact.sol\":1073:1357  function updateClass(uint _index, string memory _name, uint _value) public {\r... */\n    tag_26:\n        /* \"contracts/Gym_Contact.sol\":1176:1186  msg.sender */\n      caller\n        /* \"contracts/Gym_Contact.sol\":1167:1186  ADMIN == msg.sender */\n      0xffffffffffffffffffffffffffffffffffffffff\n      and\n        /* \"contracts/Gym_Contact.sol\":1167:1172  ADMIN */\n      immutable(\"0x731dc163f73d31d8c68f9917ce4ff967753939f70432973c04fd2c2a48148607\")\n        /* \"contracts/Gym_Contact.sol\":1167:1186  ADMIN == msg.sender */\n      0xffffffffffffffffffffffffffffffffffffffff\n      and\n      eq\n        /* \"contracts/Gym_Contact.sol\":1159:1243  require(ADMIN == msg.sender, \"Solo el Administrador del Gym puede modificar clases\") */\n      tag_65\n      jumpi\n      mload(0x40)\n      0x08c379a000000000000000000000000000000000000000000000000000000000\n      dup2\n      mstore\n      0x04\n      add\n      tag_66\n      swap1\n      tag_67\n      jump\t// in\n    tag_66:\n      mload(0x40)\n      dup1\n      swap2\n      sub\n      swap1\n      revert\n    tag_65:\n        /* \"contracts/Gym_Contact.sol\":1254:1273  Class storage clase */\n      0x00\n        /* \"contracts/Gym_Contact.sol\":1276:1281  class */\n      0x01\n        /* \"contracts/Gym_Contact.sol\":1282:1288  _index */\n      dup5\n        /* \"contracts/Gym_Contact.sol\":1276:1289  class[_index] */\n      dup2\n      sload\n      dup2\n      lt\n      tag_68\n      jumpi\n      tag_69\n      tag_70\n      jump\t// in\n    tag_69:\n    tag_68:\n      swap1\n      0x00\n      mstore\n      keccak256(0x00, 0x20)\n      swap1\n      0x02\n      mul\n      add\n        /* \"contracts/Gym_Contact.sol\":1254:1289  Class storage clase = class[_index] */\n      swap1\n      pop\n        /* \"contracts/Gym_Contact.sol\":1313:1318  _name */\n      dup3\n        /* \"contracts/Gym_Contact.sol\":1300:1305  clase */\n      dup2\n        /* \"contracts/Gym_Contact.sol\":1300:1310  clase.name */\n      0x00\n      add\n        /* \"contracts/Gym_Contact.sol\":1300:1318  clase.name = _name */\n      swap1\n      dup1\n      mload\n      swap1\n      0x20\n      add\n      swap1\n      tag_72\n      swap3\n      swap2\n      swap1\n      tag_73\n      jump\t// in\n    tag_72:\n      pop\n        /* \"contracts/Gym_Contact.sol\":1343:1349  _value */\n      dup2\n        /* \"contracts/Gym_Contact.sol\":1329:1334  clase */\n      dup2\n        /* \"contracts/Gym_Contact.sol\":1329:1340  clase.value */\n      0x01\n      add\n        /* \"contracts/Gym_Contact.sol\":1329:1349  clase.value = _value */\n      dup2\n      swap1\n      sstore\n      pop\n        /* \"contracts/Gym_Contact.sol\":1148:1357  {\r... */\n      pop\n        /* \"contracts/Gym_Contact.sol\":1073:1357  function updateClass(uint _index, string memory _name, uint _value) public {\r... */\n      pop\n      pop\n      pop\n      jump\t// out\n        /* \"contracts/Gym_Contact.sol\":392:422  address immutable public ADMIN */\n    tag_28:\n      immutable(\"0x731dc163f73d31d8c68f9917ce4ff967753939f70432973c04fd2c2a48148607\")\n      dup2\n      jump\t// out\n        /* \"contracts/Gym_Contact.sol\":758:778  Class[] public class */\n    tag_33:\n      0x01\n      dup2\n      dup2\n      sload\n      dup2\n      lt\n      tag_74\n      jumpi\n      0x00\n      dup1\n      revert\n    tag_74:\n      swap1\n      0x00\n      mstore\n      keccak256(0x00, 0x20)\n      swap1\n      0x02\n      mul\n      add\n      0x00\n      swap2\n      pop\n      swap1\n      pop\n      dup1\n      0x00\n      add\n      dup1\n      sload\n      tag_76\n      swap1\n      tag_77\n      jump\t// in\n    tag_76:\n      dup1\n      0x1f\n      add\n      0x20\n      dup1\n      swap2\n      div\n      mul\n      0x20\n      add\n      mload(0x40)\n      swap1\n      dup2\n      add\n      0x40\n      mstore\n      dup1\n      swap3\n      swap2\n      swap1\n      dup2\n      dup2\n      mstore\n      0x20\n      add\n      dup3\n      dup1\n      sload\n      tag_78\n      swap1\n      tag_77\n      jump\t// in\n    tag_78:\n      dup1\n      iszero\n      tag_79\n      jumpi\n      dup1\n      0x1f\n      lt\n      tag_80\n      jumpi\n      0x0100\n      dup1\n      dup4\n      sload\n      div\n      mul\n      dup4\n      mstore\n      swap2\n      0x20\n      add\n      swap2\n      jump(tag_79)\n    tag_80:\n      dup3\n      add\n      swap2\n      swap1\n      0x00\n      mstore\n      keccak256(0x00, 0x20)\n      swap1\n    tag_81:\n      dup2\n      sload\n      dup2\n      mstore\n      swap1\n      0x01\n      add\n      swap1\n      0x20\n      add\n      dup1\n      dup4\n      gt\n      tag_81\n      jumpi\n      dup3\n      swap1\n      sub\n      0x1f\n      and\n      dup3\n      add\n      swap2\n    tag_79:\n      pop\n      pop\n      pop\n      pop\n      pop\n      swap1\n      dup1\n      0x01\n      add\n      sload\n      swap1\n      pop\n      dup3\n      jump\t// out\n        /* \"contracts/Gym_Contact.sol\":818:1065  function createClass(string memory _name, uint _value) public {\r... */\n    tag_39:\n        /* \"contracts/Gym_Contact.sol\":908:918  msg.sender */\n      caller\n        /* \"contracts/Gym_Contact.sol\":899:918  ADMIN == msg.sender */\n      0xffffffffffffffffffffffffffffffffffffffff\n      and\n        /* \"contracts/Gym_Contact.sol\":899:904  ADMIN */\n      immutable(\"0x731dc163f73d31d8c68f9917ce4ff967753939f70432973c04fd2c2a48148607\")\n        /* \"contracts/Gym_Contact.sol\":899:918  ADMIN == msg.sender */\n      0xffffffffffffffffffffffffffffffffffffffff\n      and\n      eq\n        /* \"contracts/Gym_Contact.sol\":891:971  require(ADMIN == msg.sender, \"Solo el Administrador del Gym puede crear clases\") */\n      tag_83\n      jumpi\n      mload(0x40)\n      0x08c379a000000000000000000000000000000000000000000000000000000000\n      dup2\n      mstore\n      0x04\n      add\n      tag_84\n      swap1\n      tag_85\n      jump\t// in\n    tag_84:\n      mload(0x40)\n      dup1\n      swap2\n      sub\n      swap1\n      revert\n    tag_83:\n        /* \"contracts/Gym_Contact.sol\":982:987  class */\n      0x01\n        /* \"contracts/Gym_Contact.sol\":993:1013  Class(_name, _value) */\n      mload(0x40)\n      dup1\n      0x40\n      add\n      0x40\n      mstore\n      dup1\n        /* \"contracts/Gym_Contact.sol\":999:1004  _name */\n      dup5\n        /* \"contracts/Gym_Contact.sol\":993:1013  Class(_name, _value) */\n      dup2\n      mstore\n      0x20\n      add\n        /* \"contracts/Gym_Contact.sol\":1006:1012  _value */\n      dup4\n        /* \"contracts/Gym_Contact.sol\":993:1013  Class(_name, _value) */\n      dup2\n      mstore\n      pop\n        /* \"contracts/Gym_Contact.sol\":982:1014  class.push(Class(_name, _value)) */\n      swap1\n      dup1\n      0x01\n      dup2\n      sload\n      add\n      dup1\n      dup3\n      sstore\n      dup1\n      swap2\n      pop\n      pop\n      0x01\n      swap1\n      sub\n      swap1\n      0x00\n      mstore\n      keccak256(0x00, 0x20)\n      swap1\n      0x02\n      mul\n      add\n      0x00\n      swap1\n      swap2\n      swap1\n      swap2\n      swap1\n      swap2\n      pop\n      0x00\n      dup3\n      add\n      mload\n      dup2\n      0x00\n      add\n      swap1\n      dup1\n      mload\n      swap1\n      0x20\n      add\n      swap1\n      tag_87\n      swap3\n      swap2\n      swap1\n      tag_73\n      jump\t// in\n    tag_87:\n      pop\n      0x20\n      dup3\n      add\n      mload\n      dup2\n      0x01\n      add\n      sstore\n      pop\n      pop\n        /* \"contracts/Gym_Contact.sol\":1030:1057  ClassCreated(_name, _value) */\n      0x14d49e3ea4f348b7f368906dfe1a63055c7822d622a61672a35a55ae97a768f9\n        /* \"contracts/Gym_Contact.sol\":1043:1048  _name */\n      dup3\n        /* \"contracts/Gym_Contact.sol\":1050:1056  _value */\n      dup3\n        /* \"contracts/Gym_Contact.sol\":1030:1057  ClassCreated(_name, _value) */\n      mload(0x40)\n      tag_88\n      swap3\n      swap2\n      swap1\n      tag_35\n      jump\t// in\n    tag_88:\n      mload(0x40)\n      dup1\n      swap2\n      sub\n      swap1\n      log1\n        /* \"contracts/Gym_Contact.sol\":818:1065  function createClass(string memory _name, uint _value) public {\r... */\n      pop\n      pop\n      jump\t// out\n        /* \"contracts/Gym_Contact.sol\":2092:2343  function getClass(uint _index) public view returns (string memory name, uint value) {\r... */\n    tag_42:\n        /* \"contracts/Gym_Contact.sol\":2144:2162  string memory name */\n      0x60\n        /* \"contracts/Gym_Contact.sol\":2164:2174  uint value */\n      0x00\n        /* \"contracts/Gym_Contact.sol\":2187:2206  Class storage clase */\n      dup1\n        /* \"contracts/Gym_Contact.sol\":2209:2214  class */\n      0x01\n        /* \"contracts/Gym_Contact.sol\":2215:2221  _index */\n      dup5\n        /* \"contracts/Gym_Contact.sol\":2209:2222  class[_index] */\n      dup2\n      sload\n      dup2\n      lt\n      tag_90\n      jumpi\n      tag_91\n      tag_70\n      jump\t// in\n    tag_91:\n    tag_90:\n      swap1\n      0x00\n      mstore\n      keccak256(0x00, 0x20)\n      swap1\n      0x02\n      mul\n      add\n        /* \"contracts/Gym_Contact.sol\":2187:2222  Class storage clase = class[_index] */\n      swap1\n      pop\n        /* \"contracts/Gym_Contact.sol\":2256:2257  0 */\n      0x00\n        /* \"contracts/Gym_Contact.sol\":2241:2246  clase */\n      dup2\n        /* \"contracts/Gym_Contact.sol\":2241:2252  clase.value */\n      0x01\n      add\n      sload\n        /* \"contracts/Gym_Contact.sol\":2241:2257  clase.value == 0 */\n      eq\n        /* \"contracts/Gym_Contact.sol\":2233:2292  require(clase.value == 0, \"No existe una clase con ese Id\") */\n      tag_93\n      jumpi\n      mload(0x40)\n      0x08c379a000000000000000000000000000000000000000000000000000000000\n      dup2\n      mstore\n      0x04\n      add\n      tag_94\n      swap1\n      tag_95\n      jump\t// in\n    tag_94:\n      mload(0x40)\n      dup1\n      swap2\n      sub\n      swap1\n      revert\n    tag_93:\n        /* \"contracts/Gym_Contact.sol\":2311:2316  clase */\n      dup1\n        /* \"contracts/Gym_Contact.sol\":2311:2321  clase.name */\n      0x00\n      add\n        /* \"contracts/Gym_Contact.sol\":2323:2328  clase */\n      dup2\n        /* \"contracts/Gym_Contact.sol\":2323:2334  clase.value */\n      0x01\n      add\n      sload\n        /* \"contracts/Gym_Contact.sol\":2303:2335  return (clase.name, clase.value) */\n      dup2\n      dup1\n      sload\n      tag_96\n      swap1\n      tag_77\n      jump\t// in\n    tag_96:\n      dup1\n      0x1f\n      add\n      0x20\n      dup1\n      swap2\n      div\n      mul\n      0x20\n      add\n      mload(0x40)\n      swap1\n      dup2\n      add\n      0x40\n      mstore\n      dup1\n      swap3\n      swap2\n      swap1\n      dup2\n      dup2\n      mstore\n      0x20\n      add\n      dup3\n      dup1\n      sload\n      tag_97\n      swap1\n      tag_77\n      jump\t// in\n    tag_97:\n      dup1\n      iszero\n      tag_98\n      jumpi\n      dup1\n      0x1f\n      lt\n      tag_99\n      jumpi\n      0x0100\n      dup1\n      dup4\n      sload\n      div\n      mul\n      dup4\n      mstore\n      swap2\n      0x20\n      add\n      swap2\n      jump(tag_98)\n    tag_99:\n      dup3\n      add\n      swap2\n      swap1\n      0x00\n      mstore\n      keccak256(0x00, 0x20)\n      swap1\n    tag_100:\n      dup2\n      sload\n      dup2\n      mstore\n      swap1\n      0x01\n      add\n      swap1\n      0x20\n      add\n      dup1\n      dup4\n      gt\n      tag_100\n      jumpi\n      dup3\n      swap1\n      sub\n      0x1f\n      and\n      dup3\n      add\n      swap2\n    tag_98:\n      pop\n      pop\n      pop\n      pop\n      pop\n      swap2\n      pop\n      swap3\n      pop\n      swap3\n      pop\n      pop\n        /* \"contracts/Gym_Contact.sol\":2092:2343  function getClass(uint _index) public view returns (string memory name, uint value) {\r... */\n      swap2\n      pop\n      swap2\n      jump\t// out\n        /* \"contracts/Gym_Contact.sol\":1577:1963  function register(address _address, uint _credits) public {\r... */\n    tag_47:\n        /* \"contracts/Gym_Contact.sol\":1778:1779  0 */\n      0x00\n        /* \"contracts/Gym_Contact.sol\":1757:1762  users */\n      dup1\n        /* \"contracts/Gym_Contact.sol\":1757:1774  users[msg.sender] */\n      0x00\n        /* \"contracts/Gym_Contact.sol\":1763:1773  msg.sender */\n      caller\n        /* \"contracts/Gym_Contact.sol\":1757:1774  users[msg.sender] */\n      0xffffffffffffffffffffffffffffffffffffffff\n      and\n      0xffffffffffffffffffffffffffffffffffffffff\n      and\n      dup2\n      mstore\n      0x20\n      add\n      swap1\n      dup2\n      mstore\n      0x20\n      add\n      0x00\n      keccak256\n      sload\n        /* \"contracts/Gym_Contact.sol\":1757:1779  users[msg.sender] == 0 */\n      eq\n        /* \"contracts/Gym_Contact.sol\":1749:1821  require(users[msg.sender] == 0, \"Ya te encuentras registrado en el gym\") */\n      tag_102\n      jumpi\n      mload(0x40)\n      0x08c379a000000000000000000000000000000000000000000000000000000000\n      dup2\n      mstore\n      0x04\n      add\n      tag_103\n      swap1\n      tag_104\n      jump\t// in\n    tag_103:\n      mload(0x40)\n      dup1\n      swap2\n      sub\n      swap1\n      revert\n    tag_102:\n        /* \"contracts/Gym_Contact.sol\":1852:1860  _credits */\n      dup1\n        /* \"contracts/Gym_Contact.sol\":1832:1837  users */\n      0x00\n        /* \"contracts/Gym_Contact.sol\":1832:1849  users[msg.sender] */\n      dup1\n        /* \"contracts/Gym_Contact.sol\":1838:1848  msg.sender */\n      caller\n        /* \"contracts/Gym_Contact.sol\":1832:1849  users[msg.sender] */\n      0xffffffffffffffffffffffffffffffffffffffff\n      and\n      0xffffffffffffffffffffffffffffffffffffffff\n      and\n      dup2\n      mstore\n      0x20\n      add\n      swap1\n      dup2\n      mstore\n      0x20\n      add\n      0x00\n      keccak256\n        /* \"contracts/Gym_Contact.sol\":1832:1860  users[msg.sender] = _credits */\n      dup2\n      swap1\n      sstore\n      pop\n        /* \"contracts/Gym_Contact.sol\":1876:1904  Register(_address, _credits) */\n      0x7dc6ab80cc84c043b7b8d4fcafc802187470087f7ea7fccd2e17aecd0256a1\n        /* \"contracts/Gym_Contact.sol\":1885:1893  _address */\n      dup3\n        /* \"contracts/Gym_Contact.sol\":1895:1903  _credits */\n      dup3\n        /* \"contracts/Gym_Contact.sol\":1876:1904  Register(_address, _credits) */\n      mload(0x40)\n      tag_105\n      swap3\n      swap2\n      swap1\n      tag_18\n      jump\t// in\n    tag_105:\n      mload(0x40)\n      dup1\n      swap2\n      sub\n      swap1\n      log1\n        /* \"contracts/Gym_Contact.sol\":1577:1963  function register(address _address, uint _credits) public {\r... */\n      pop\n      pop\n      jump\t// out\n        /* \"contracts/Gym_Contact.sol\":1365:1539  function removeClass(uint _index) public {\r... */\n    tag_50:\n        /* \"contracts/Gym_Contact.sol\":1434:1444  msg.sender */\n      caller\n        /* \"contracts/Gym_Contact.sol\":1425:1444  ADMIN == msg.sender */\n      0xffffffffffffffffffffffffffffffffffffffff\n      and\n        /* \"contracts/Gym_Contact.sol\":1425:1430  ADMIN */\n      immutable(\"0x731dc163f73d31d8c68f9917ce4ff967753939f70432973c04fd2c2a48148607\")\n        /* \"contracts/Gym_Contact.sol\":1425:1444  ADMIN == msg.sender */\n      0xffffffffffffffffffffffffffffffffffffffff\n      and\n      eq\n        /* \"contracts/Gym_Contact.sol\":1417:1500  require(ADMIN == msg.sender, \"Solo el Administrador del Gym puede eliminar clases\") */\n      tag_107\n      jumpi\n      mload(0x40)\n      0x08c379a000000000000000000000000000000000000000000000000000000000\n      dup2\n      mstore\n      0x04\n      add\n      tag_108\n      swap1\n      tag_109\n      jump\t// in\n    tag_108:\n      mload(0x40)\n      dup1\n      swap2\n      sub\n      swap1\n      revert\n    tag_107:\n        /* \"contracts/Gym_Contact.sol\":1518:1523  class */\n      0x01\n        /* \"contracts/Gym_Contact.sol\":1524:1530  _index */\n      dup2\n        /* \"contracts/Gym_Contact.sol\":1518:1531  class[_index] */\n      dup2\n      sload\n      dup2\n      lt\n      tag_110\n      jumpi\n      tag_111\n      tag_70\n      jump\t// in\n    tag_111:\n    tag_110:\n      swap1\n      0x00\n      mstore\n      keccak256(0x00, 0x20)\n      swap1\n      0x02\n      mul\n      add\n      0x00\n        /* \"contracts/Gym_Contact.sol\":1511:1531  delete class[_index] */\n      dup1\n      dup3\n      add\n      0x00\n      tag_113\n      swap2\n      swap1\n      tag_114\n      jump\t// in\n    tag_113:\n      0x01\n      dup3\n      add\n      0x00\n      swap1\n      sstore\n      pop\n      pop\n        /* \"contracts/Gym_Contact.sol\":1365:1539  function removeClass(uint _index) public {\r... */\n      pop\n      jump\t// out\n        /* \"contracts/Gym_Contact.sol\":2351:2595  function takeClass(uint _index) public {\r... */\n    tag_53:\n        /* \"contracts/Gym_Contact.sol\":2401:2420  Class storage clase */\n      0x00\n        /* \"contracts/Gym_Contact.sol\":2423:2428  class */\n      0x01\n        /* \"contracts/Gym_Contact.sol\":2429:2435  _index */\n      dup3\n        /* \"contracts/Gym_Contact.sol\":2423:2436  class[_index] */\n      dup2\n      sload\n      dup2\n      lt\n      tag_116\n      jumpi\n      tag_117\n      tag_70\n      jump\t// in\n    tag_117:\n    tag_116:\n      swap1\n      0x00\n      mstore\n      keccak256(0x00, 0x20)\n      swap1\n      0x02\n      mul\n      add\n        /* \"contracts/Gym_Contact.sol\":2401:2436  Class storage clase = class[_index] */\n      swap1\n      pop\n        /* \"contracts/Gym_Contact.sol\":2475:2480  clase */\n      dup1\n        /* \"contracts/Gym_Contact.sol\":2475:2486  clase.value */\n      0x01\n      add\n      sload\n        /* \"contracts/Gym_Contact.sol\":2455:2460  users */\n      0x00\n        /* \"contracts/Gym_Contact.sol\":2455:2472  users[msg.sender] */\n      dup1\n        /* \"contracts/Gym_Contact.sol\":2461:2471  msg.sender */\n      caller\n        /* \"contracts/Gym_Contact.sol\":2455:2472  users[msg.sender] */\n      0xffffffffffffffffffffffffffffffffffffffff\n      and\n      0xffffffffffffffffffffffffffffffffffffffff\n      and\n      dup2\n      mstore\n      0x20\n      add\n      swap1\n      dup2\n      mstore\n      0x20\n      add\n      0x00\n      keccak256\n      sload\n        /* \"contracts/Gym_Contact.sol\":2455:2486  users[msg.sender] > clase.value */\n      gt\n        /* \"contracts/Gym_Contact.sol\":2447:2521  require(users[msg.sender] > clase.value, \"No tienes creditos suficientes\") */\n      tag_119\n      jumpi\n      mload(0x40)\n      0x08c379a000000000000000000000000000000000000000000000000000000000\n      dup2\n      mstore\n      0x04\n      add\n      tag_120\n      swap1\n      tag_121\n      jump\t// in\n    tag_120:\n      mload(0x40)\n      dup1\n      swap2\n      sub\n      swap1\n      revert\n    tag_119:\n        /* \"contracts/Gym_Contact.sol\":2553:2558  clase */\n      dup1\n        /* \"contracts/Gym_Contact.sol\":2553:2564  clase.value */\n      0x01\n      add\n      sload\n        /* \"contracts/Gym_Contact.sol\":2532:2537  users */\n      0x00\n        /* \"contracts/Gym_Contact.sol\":2532:2549  users[msg.sender] */\n      dup1\n        /* \"contracts/Gym_Contact.sol\":2538:2548  msg.sender */\n      caller\n        /* \"contracts/Gym_Contact.sol\":2532:2549  users[msg.sender] */\n      0xffffffffffffffffffffffffffffffffffffffff\n      and\n      0xffffffffffffffffffffffffffffffffffffffff\n      and\n      dup2\n      mstore\n      0x20\n      add\n      swap1\n      dup2\n      mstore\n      0x20\n      add\n      0x00\n      keccak256\n      0x00\n        /* \"contracts/Gym_Contact.sol\":2532:2564  users[msg.sender] -= clase.value */\n      dup3\n      dup3\n      sload\n      tag_122\n      swap2\n      swap1\n      tag_123\n      jump\t// in\n    tag_122:\n      swap3\n      pop\n      pop\n      dup2\n      swap1\n      sstore\n      pop\n        /* \"contracts/Gym_Contact.sol\":2575:2587  getBalance() */\n      tag_124\n        /* \"contracts/Gym_Contact.sol\":2575:2585  getBalance */\n      tag_16\n        /* \"contracts/Gym_Contact.sol\":2575:2587  getBalance() */\n      jump\t// in\n    tag_124:\n      pop\n      pop\n        /* \"contracts/Gym_Contact.sol\":2390:2595  {\r... */\n      pop\n        /* \"contracts/Gym_Contact.sol\":2351:2595  function takeClass(uint _index) public {\r... */\n      pop\n      jump\t// out\n        /* \"contracts/Gym_Contact.sol\":506:543  mapping(address => uint) public users */\n    tag_57:\n      mstore(0x20, 0x00)\n      dup1\n      0x00\n      mstore\n      keccak256(0x00, 0x40)\n      0x00\n      swap2\n      pop\n      swap1\n      pop\n      sload\n      dup2\n      jump\t// out\n    tag_73:\n      dup3\n      dup1\n      sload\n      tag_125\n      swap1\n      tag_77\n      jump\t// in\n    tag_125:\n      swap1\n      0x00\n      mstore\n      keccak256(0x00, 0x20)\n      swap1\n      0x1f\n      add\n      0x20\n      swap1\n      div\n      dup2\n      add\n      swap3\n      dup3\n      tag_127\n      jumpi\n      0x00\n      dup6\n      sstore\n      jump(tag_126)\n    tag_127:\n      dup3\n      0x1f\n      lt\n      tag_128\n      jumpi\n      dup1\n      mload\n      not(0xff)\n      and\n      dup4\n      dup1\n      add\n      or\n      dup6\n      sstore\n      jump(tag_126)\n    tag_128:\n      dup3\n      dup1\n      add\n      0x01\n      add\n      dup6\n      sstore\n      dup3\n      iszero\n      tag_126\n      jumpi\n      swap2\n      dup3\n      add\n    tag_129:\n      dup3\n      dup2\n      gt\n      iszero\n      tag_130\n      jumpi\n      dup3\n      mload\n      dup3\n      sstore\n      swap2\n      0x20\n      add\n      swap2\n      swap1\n      0x01\n      add\n      swap1\n      jump(tag_129)\n    tag_130:\n    tag_126:\n      pop\n      swap1\n      pop\n      tag_131\n      swap2\n      swap1\n      tag_132\n      jump\t// in\n    tag_131:\n      pop\n      swap1\n      jump\t// out\n    tag_114:\n      pop\n      dup1\n      sload\n      tag_133\n      swap1\n      tag_77\n      jump\t// in\n    tag_133:\n      0x00\n      dup3\n      sstore\n      dup1\n      0x1f\n      lt\n      tag_135\n      jumpi\n      pop\n      jump(tag_134)\n    tag_135:\n      0x1f\n      add\n      0x20\n      swap1\n      div\n      swap1\n      0x00\n      mstore\n      keccak256(0x00, 0x20)\n      swap1\n      dup2\n      add\n      swap1\n      tag_136\n      swap2\n      swap1\n      tag_132\n      jump\t// in\n    tag_136:\n    tag_134:\n      pop\n      jump\t// out\n    tag_132:\n    tag_137:\n      dup1\n      dup3\n      gt\n      iszero\n      tag_138\n      jumpi\n      0x00\n      dup2\n      0x00\n      swap1\n      sstore\n      pop\n      0x01\n      add\n      jump(tag_137)\n    tag_138:\n      pop\n      swap1\n      jump\t// out\n        /* \"#utility.yul\":7:419   */\n    tag_140:\n        /* \"#utility.yul\":85:90   */\n      0x00\n        /* \"#utility.yul\":110:176   */\n      tag_142\n        /* \"#utility.yul\":126:175   */\n      tag_143\n        /* \"#utility.yul\":168:174   */\n      dup5\n        /* \"#utility.yul\":126:175   */\n      tag_144\n      jump\t// in\n    tag_143:\n        /* \"#utility.yul\":110:176   */\n      tag_145\n      jump\t// in\n    tag_142:\n        /* \"#utility.yul\":101:176   */\n      swap1\n      pop\n        /* \"#utility.yul\":199:205   */\n      dup3\n        /* \"#utility.yul\":192:197   */\n      dup2\n        /* \"#utility.yul\":185:206   */\n      mstore\n        /* \"#utility.yul\":237:241   */\n      0x20\n        /* \"#utility.yul\":230:235   */\n      dup2\n        /* \"#utility.yul\":226:242   */\n      add\n        /* \"#utility.yul\":275:278   */\n      dup5\n        /* \"#utility.yul\":266:272   */\n      dup5\n        /* \"#utility.yul\":261:264   */\n      dup5\n        /* \"#utility.yul\":257:273   */\n      add\n        /* \"#utility.yul\":254:279   */\n      gt\n        /* \"#utility.yul\":251:363   */\n      iszero\n      tag_146\n      jumpi\n        /* \"#utility.yul\":282:361   */\n      tag_147\n      tag_148\n      jump\t// in\n    tag_147:\n        /* \"#utility.yul\":251:363   */\n    tag_146:\n        /* \"#utility.yul\":372:413   */\n      tag_149\n        /* \"#utility.yul\":406:412   */\n      dup5\n        /* \"#utility.yul\":401:404   */\n      dup3\n        /* \"#utility.yul\":396:399   */\n      dup6\n        /* \"#utility.yul\":372:413   */\n      tag_150\n      jump\t// in\n    tag_149:\n        /* \"#utility.yul\":91:419   */\n      pop\n        /* \"#utility.yul\":7:419   */\n      swap4\n      swap3\n      pop\n      pop\n      pop\n      jump\t// out\n        /* \"#utility.yul\":425:564   */\n    tag_151:\n        /* \"#utility.yul\":471:476   */\n      0x00\n        /* \"#utility.yul\":509:515   */\n      dup2\n        /* \"#utility.yul\":496:516   */\n      calldataload\n        /* \"#utility.yul\":487:516   */\n      swap1\n      pop\n        /* \"#utility.yul\":525:558   */\n      tag_153\n        /* \"#utility.yul\":552:557   */\n      dup2\n        /* \"#utility.yul\":525:558   */\n      tag_154\n      jump\t// in\n    tag_153:\n        /* \"#utility.yul\":425:564   */\n      swap3\n      swap2\n      pop\n      pop\n      jump\t// out\n        /* \"#utility.yul\":584:924   */\n    tag_155:\n        /* \"#utility.yul\":640:645   */\n      0x00\n        /* \"#utility.yul\":689:692   */\n      dup3\n        /* \"#utility.yul\":682:686   */\n      0x1f\n        /* \"#utility.yul\":674:680   */\n      dup4\n        /* \"#utility.yul\":670:687   */\n      add\n        /* \"#utility.yul\":666:693   */\n      slt\n        /* \"#utility.yul\":656:778   */\n      tag_157\n      jumpi\n        /* \"#utility.yul\":697:776   */\n      tag_158\n      tag_159\n      jump\t// in\n    tag_158:\n        /* \"#utility.yul\":656:778   */\n    tag_157:\n        /* \"#utility.yul\":814:820   */\n      dup2\n        /* \"#utility.yul\":801:821   */\n      calldataload\n        /* \"#utility.yul\":839:918   */\n      tag_160\n        /* \"#utility.yul\":914:917   */\n      dup5\n        /* \"#utility.yul\":906:912   */\n      dup3\n        /* \"#utility.yul\":899:903   */\n      0x20\n        /* \"#utility.yul\":891:897   */\n      dup7\n        /* \"#utility.yul\":887:904   */\n      add\n        /* \"#utility.yul\":839:918   */\n      tag_140\n      jump\t// in\n    tag_160:\n        /* \"#utility.yul\":830:918   */\n      swap2\n      pop\n        /* \"#utility.yul\":646:924   */\n      pop\n        /* \"#utility.yul\":584:924   */\n      swap3\n      swap2\n      pop\n      pop\n      jump\t// out\n        /* \"#utility.yul\":930:1069   */\n    tag_161:\n        /* \"#utility.yul\":976:981   */\n      0x00\n        /* \"#utility.yul\":1014:1020   */\n      dup2\n        /* \"#utility.yul\":1001:1021   */\n      calldataload\n        /* \"#utility.yul\":992:1021   */\n      swap1\n      pop\n        /* \"#utility.yul\":1030:1063   */\n      tag_163\n        /* \"#utility.yul\":1057:1062   */\n      dup2\n        /* \"#utility.yul\":1030:1063   */\n      tag_164\n      jump\t// in\n    tag_163:\n        /* \"#utility.yul\":930:1069   */\n      swap3\n      swap2\n      pop\n      pop\n      jump\t// out\n        /* \"#utility.yul\":1075:1404   */\n    tag_56:\n        /* \"#utility.yul\":1134:1140   */\n      0x00\n        /* \"#utility.yul\":1183:1185   */\n      0x20\n        /* \"#utility.yul\":1171:1180   */\n      dup3\n        /* \"#utility.yul\":1162:1169   */\n      dup5\n        /* \"#utility.yul\":1158:1181   */\n      sub\n        /* \"#utility.yul\":1154:1186   */\n      slt\n        /* \"#utility.yul\":1151:1270   */\n      iszero\n      tag_166\n      jumpi\n        /* \"#utility.yul\":1189:1268   */\n      tag_167\n      tag_168\n      jump\t// in\n    tag_167:\n        /* \"#utility.yul\":1151:1270   */\n    tag_166:\n        /* \"#utility.yul\":1309:1310   */\n      0x00\n        /* \"#utility.yul\":1334:1387   */\n      tag_169\n        /* \"#utility.yul\":1379:1386   */\n      dup5\n        /* \"#utility.yul\":1370:1376   */\n      dup3\n        /* \"#utility.yul\":1359:1368   */\n      dup6\n        /* \"#utility.yul\":1355:1377   */\n      add\n        /* \"#utility.yul\":1334:1387   */\n      tag_151\n      jump\t// in\n    tag_169:\n        /* \"#utility.yul\":1324:1387   */\n      swap2\n      pop\n        /* \"#utility.yul\":1280:1397   */\n      pop\n        /* \"#utility.yul\":1075:1404   */\n      swap3\n      swap2\n      pop\n      pop\n      jump\t// out\n        /* \"#utility.yul\":1410:1884   */\n    tag_46:\n        /* \"#utility.yul\":1478:1484   */\n      0x00\n        /* \"#utility.yul\":1486:1492   */\n      dup1\n        /* \"#utility.yul\":1535:1537   */\n      0x40\n        /* \"#utility.yul\":1523:1532   */\n      dup4\n        /* \"#utility.yul\":1514:1521   */\n      dup6\n        /* \"#utility.yul\":1510:1533   */\n      sub\n        /* \"#utility.yul\":1506:1538   */\n      slt\n        /* \"#utility.yul\":1503:1622   */\n      iszero\n      tag_171\n      jumpi\n        /* \"#utility.yul\":1541:1620   */\n      tag_172\n      tag_168\n      jump\t// in\n    tag_172:\n        /* \"#utility.yul\":1503:1622   */\n    tag_171:\n        /* \"#utility.yul\":1661:1662   */\n      0x00\n        /* \"#utility.yul\":1686:1739   */\n      tag_173\n        /* \"#utility.yul\":1731:1738   */\n      dup6\n        /* \"#utility.yul\":1722:1728   */\n      dup3\n        /* \"#utility.yul\":1711:1720   */\n      dup7\n        /* \"#utility.yul\":1707:1729   */\n      add\n        /* \"#utility.yul\":1686:1739   */\n      tag_151\n      jump\t// in\n    tag_173:\n        /* \"#utility.yul\":1676:1739   */\n      swap3\n      pop\n        /* \"#utility.yul\":1632:1749   */\n      pop\n        /* \"#utility.yul\":1788:1790   */\n      0x20\n        /* \"#utility.yul\":1814:1867   */\n      tag_174\n        /* \"#utility.yul\":1859:1866   */\n      dup6\n        /* \"#utility.yul\":1850:1856   */\n      dup3\n        /* \"#utility.yul\":1839:1848   */\n      dup7\n        /* \"#utility.yul\":1835:1857   */\n      add\n        /* \"#utility.yul\":1814:1867   */\n      tag_161\n      jump\t// in\n    tag_174:\n        /* \"#utility.yul\":1804:1867   */\n      swap2\n      pop\n        /* \"#utility.yul\":1759:1877   */\n      pop\n        /* \"#utility.yul\":1410:1884   */\n      swap3\n      pop\n      swap3\n      swap1\n      pop\n      jump\t// out\n        /* \"#utility.yul\":1890:2544   */\n    tag_38:\n        /* \"#utility.yul\":1968:1974   */\n      0x00\n        /* \"#utility.yul\":1976:1982   */\n      dup1\n        /* \"#utility.yul\":2025:2027   */\n      0x40\n        /* \"#utility.yul\":2013:2022   */\n      dup4\n        /* \"#utility.yul\":2004:2011   */\n      dup6\n        /* \"#utility.yul\":2000:2023   */\n      sub\n        /* \"#utility.yul\":1996:2028   */\n      slt\n        /* \"#utility.yul\":1993:2112   */\n      iszero\n      tag_176\n      jumpi\n        /* \"#utility.yul\":2031:2110   */\n      tag_177\n      tag_168\n      jump\t// in\n    tag_177:\n        /* \"#utility.yul\":1993:2112   */\n    tag_176:\n        /* \"#utility.yul\":2179:2180   */\n      0x00\n        /* \"#utility.yul\":2168:2177   */\n      dup4\n        /* \"#utility.yul\":2164:2181   */\n      add\n        /* \"#utility.yul\":2151:2182   */\n      calldataload\n        /* \"#utility.yul\":2209:2227   */\n      0xffffffffffffffff\n        /* \"#utility.yul\":2201:2207   */\n      dup2\n        /* \"#utility.yul\":2198:2228   */\n      gt\n        /* \"#utility.yul\":2195:2312   */\n      iszero\n      tag_178\n      jumpi\n        /* \"#utility.yul\":2231:2310   */\n      tag_179\n      tag_180\n      jump\t// in\n    tag_179:\n        /* \"#utility.yul\":2195:2312   */\n    tag_178:\n        /* \"#utility.yul\":2336:2399   */\n      tag_181\n        /* \"#utility.yul\":2391:2398   */\n      dup6\n        /* \"#utility.yul\":2382:2388   */\n      dup3\n        /* \"#utility.yul\":2371:2380   */\n      dup7\n        /* \"#utility.yul\":2367:2389   */\n      add\n        /* \"#utility.yul\":2336:2399   */\n      tag_155\n      jump\t// in\n    tag_181:\n        /* \"#utility.yul\":2326:2399   */\n      swap3\n      pop\n        /* \"#utility.yul\":2122:2409   */\n      pop\n        /* \"#utility.yul\":2448:2450   */\n      0x20\n        /* \"#utility.yul\":2474:2527   */\n      tag_182\n        /* \"#utility.yul\":2519:2526   */\n      dup6\n        /* \"#utility.yul\":2510:2516   */\n      dup3\n        /* \"#utility.yul\":2499:2508   */\n      dup7\n        /* \"#utility.yul\":2495:2517   */\n      add\n        /* \"#utility.yul\":2474:2527   */\n      tag_161\n      jump\t// in\n    tag_182:\n        /* \"#utility.yul\":2464:2527   */\n      swap2\n      pop\n        /* \"#utility.yul\":2419:2537   */\n      pop\n        /* \"#utility.yul\":1890:2544   */\n      swap3\n      pop\n      swap3\n      swap1\n      pop\n      jump\t// out\n        /* \"#utility.yul\":2550:2879   */\n    tag_21:\n        /* \"#utility.yul\":2609:2615   */\n      0x00\n        /* \"#utility.yul\":2658:2660   */\n      0x20\n        /* \"#utility.yul\":2646:2655   */\n      dup3\n        /* \"#utility.yul\":2637:2644   */\n      dup5\n        /* \"#utility.yul\":2633:2656   */\n      sub\n        /* \"#utility.yul\":2629:2661   */\n      slt\n        /* \"#utility.yul\":2626:2745   */\n      iszero\n      tag_184\n      jumpi\n        /* \"#utility.yul\":2664:2743   */\n      tag_185\n      tag_168\n      jump\t// in\n    tag_185:\n        /* \"#utility.yul\":2626:2745   */\n    tag_184:\n        /* \"#utility.yul\":2784:2785   */\n      0x00\n        /* \"#utility.yul\":2809:2862   */\n      tag_186\n        /* \"#utility.yul\":2854:2861   */\n      dup5\n        /* \"#utility.yul\":2845:2851   */\n      dup3\n        /* \"#utility.yul\":2834:2843   */\n      dup6\n        /* \"#utility.yul\":2830:2852   */\n      add\n        /* \"#utility.yul\":2809:2862   */\n      tag_161\n      jump\t// in\n    tag_186:\n        /* \"#utility.yul\":2799:2862   */\n      swap2\n      pop\n        /* \"#utility.yul\":2755:2872   */\n      pop\n        /* \"#utility.yul\":2550:2879   */\n      swap3\n      swap2\n      pop\n      pop\n      jump\t// out\n        /* \"#utility.yul\":2885:3684   */\n    tag_25:\n        /* \"#utility.yul\":2972:2978   */\n      0x00\n        /* \"#utility.yul\":2980:2986   */\n      dup1\n        /* \"#utility.yul\":2988:2994   */\n      0x00\n        /* \"#utility.yul\":3037:3039   */\n      0x60\n        /* \"#utility.yul\":3025:3034   */\n      dup5\n        /* \"#utility.yul\":3016:3023   */\n      dup7\n        /* \"#utility.yul\":3012:3035   */\n      sub\n        /* \"#utility.yul\":3008:3040   */\n      slt\n        /* \"#utility.yul\":3005:3124   */\n      iszero\n      tag_188\n      jumpi\n        /* \"#utility.yul\":3043:3122   */\n      tag_189\n      tag_168\n      jump\t// in\n    tag_189:\n        /* \"#utility.yul\":3005:3124   */\n    tag_188:\n        /* \"#utility.yul\":3163:3164   */\n      0x00\n        /* \"#utility.yul\":3188:3241   */\n      tag_190\n        /* \"#utility.yul\":3233:3240   */\n      dup7\n        /* \"#utility.yul\":3224:3230   */\n      dup3\n        /* \"#utility.yul\":3213:3222   */\n      dup8\n        /* \"#utility.yul\":3209:3231   */\n      add\n        /* \"#utility.yul\":3188:3241   */\n      tag_161\n      jump\t// in\n    tag_190:\n        /* \"#utility.yul\":3178:3241   */\n      swap4\n      pop\n        /* \"#utility.yul\":3134:3251   */\n      pop\n        /* \"#utility.yul\":3318:3320   */\n      0x20\n        /* \"#utility.yul\":3307:3316   */\n      dup5\n        /* \"#utility.yul\":3303:3321   */\n      add\n        /* \"#utility.yul\":3290:3322   */\n      calldataload\n        /* \"#utility.yul\":3349:3367   */\n      0xffffffffffffffff\n        /* \"#utility.yul\":3341:3347   */\n      dup2\n        /* \"#utility.yul\":3338:3368   */\n      gt\n        /* \"#utility.yul\":3335:3452   */\n      iszero\n      tag_191\n      jumpi\n        /* \"#utility.yul\":3371:3450   */\n      tag_192\n      tag_180\n      jump\t// in\n    tag_192:\n        /* \"#utility.yul\":3335:3452   */\n    tag_191:\n        /* \"#utility.yul\":3476:3539   */\n      tag_193\n        /* \"#utility.yul\":3531:3538   */\n      dup7\n        /* \"#utility.yul\":3522:3528   */\n      dup3\n        /* \"#utility.yul\":3511:3520   */\n      dup8\n        /* \"#utility.yul\":3507:3529   */\n      add\n        /* \"#utility.yul\":3476:3539   */\n      tag_155\n      jump\t// in\n    tag_193:\n        /* \"#utility.yul\":3466:3539   */\n      swap3\n      pop\n        /* \"#utility.yul\":3261:3549   */\n      pop\n        /* \"#utility.yul\":3588:3590   */\n      0x40\n        /* \"#utility.yul\":3614:3667   */\n      tag_194\n        /* \"#utility.yul\":3659:3666   */\n      dup7\n        /* \"#utility.yul\":3650:3656   */\n      dup3\n        /* \"#utility.yul\":3639:3648   */\n      dup8\n        /* \"#utility.yul\":3635:3657   */\n      add\n        /* \"#utility.yul\":3614:3667   */\n      tag_161\n      jump\t// in\n    tag_194:\n        /* \"#utility.yul\":3604:3667   */\n      swap2\n      pop\n        /* \"#utility.yul\":3559:3677   */\n      pop\n        /* \"#utility.yul\":2885:3684   */\n      swap3\n      pop\n      swap3\n      pop\n      swap3\n      jump\t// out\n        /* \"#utility.yul\":3690:3808   */\n    tag_195:\n        /* \"#utility.yul\":3777:3801   */\n      tag_197\n        /* \"#utility.yul\":3795:3800   */\n      dup2\n        /* \"#utility.yul\":3777:3801   */\n      tag_198\n      jump\t// in\n    tag_197:\n        /* \"#utility.yul\":3772:3775   */\n      dup3\n        /* \"#utility.yul\":3765:3802   */\n      mstore\n        /* \"#utility.yul\":3690:3808   */\n      pop\n      pop\n      jump\t// out\n        /* \"#utility.yul\":3814:4178   */\n    tag_199:\n        /* \"#utility.yul\":3902:3905   */\n      0x00\n        /* \"#utility.yul\":3930:3969   */\n      tag_201\n        /* \"#utility.yul\":3963:3968   */\n      dup3\n        /* \"#utility.yul\":3930:3969   */\n      tag_202\n      jump\t// in\n    tag_201:\n        /* \"#utility.yul\":3985:4056   */\n      tag_203\n        /* \"#utility.yul\":4049:4055   */\n      dup2\n        /* \"#utility.yul\":4044:4047   */\n      dup6\n        /* \"#utility.yul\":3985:4056   */\n      tag_204\n      jump\t// in\n    tag_203:\n        /* \"#utility.yul\":3978:4056   */\n      swap4\n      pop\n        /* \"#utility.yul\":4065:4117   */\n      tag_205\n        /* \"#utility.yul\":4110:4116   */\n      dup2\n        /* \"#utility.yul\":4105:4108   */\n      dup6\n        /* \"#utility.yul\":4098:4102   */\n      0x20\n        /* \"#utility.yul\":4091:4096   */\n      dup7\n        /* \"#utility.yul\":4087:4103   */\n      add\n        /* \"#utility.yul\":4065:4117   */\n      tag_206\n      jump\t// in\n    tag_205:\n        /* \"#utility.yul\":4142:4171   */\n      tag_207\n        /* \"#utility.yul\":4164:4170   */\n      dup2\n        /* \"#utility.yul\":4142:4171   */\n      tag_208\n      jump\t// in\n    tag_207:\n        /* \"#utility.yul\":4137:4140   */\n      dup5\n        /* \"#utility.yul\":4133:4172   */\n      add\n        /* \"#utility.yul\":4126:4172   */\n      swap2\n      pop\n        /* \"#utility.yul\":3906:4178   */\n      pop\n        /* \"#utility.yul\":3814:4178   */\n      swap3\n      swap2\n      pop\n      pop\n      jump\t// out\n        /* \"#utility.yul\":4184:4550   */\n    tag_209:\n        /* \"#utility.yul\":4326:4329   */\n      0x00\n        /* \"#utility.yul\":4347:4414   */\n      tag_211\n        /* \"#utility.yul\":4411:4413   */\n      0x34\n        /* \"#utility.yul\":4406:4409   */\n      dup4\n        /* \"#utility.yul\":4347:4414   */\n      tag_204\n      jump\t// in\n    tag_211:\n        /* \"#utility.yul\":4340:4414   */\n      swap2\n      pop\n        /* \"#utility.yul\":4423:4516   */\n      tag_212\n        /* \"#utility.yul\":4512:4515   */\n      dup3\n        /* \"#utility.yul\":4423:4516   */\n      tag_213\n      jump\t// in\n    tag_212:\n        /* \"#utility.yul\":4541:4543   */\n      0x40\n        /* \"#utility.yul\":4536:4539   */\n      dup3\n        /* \"#utility.yul\":4532:4544   */\n      add\n        /* \"#utility.yul\":4525:4544   */\n      swap1\n      pop\n        /* \"#utility.yul\":4184:4550   */\n      swap2\n      swap1\n      pop\n      jump\t// out\n        /* \"#utility.yul\":4556:4922   */\n    tag_214:\n        /* \"#utility.yul\":4698:4701   */\n      0x00\n        /* \"#utility.yul\":4719:4786   */\n      tag_216\n        /* \"#utility.yul\":4783:4785   */\n      0x25\n        /* \"#utility.yul\":4778:4781   */\n      dup4\n        /* \"#utility.yul\":4719:4786   */\n      tag_204\n      jump\t// in\n    tag_216:\n        /* \"#utility.yul\":4712:4786   */\n      swap2\n      pop\n        /* \"#utility.yul\":4795:4888   */\n      tag_217\n        /* \"#utility.yul\":4884:4887   */\n      dup3\n        /* \"#utility.yul\":4795:4888   */\n      tag_218\n      jump\t// in\n    tag_217:\n        /* \"#utility.yul\":4913:4915   */\n      0x40\n        /* \"#utility.yul\":4908:4911   */\n      dup3\n        /* \"#utility.yul\":4904:4916   */\n      add\n        /* \"#utility.yul\":4897:4916   */\n      swap1\n      pop\n        /* \"#utility.yul\":4556:4922   */\n      swap2\n      swap1\n      pop\n      jump\t// out\n        /* \"#utility.yul\":4928:5294   */\n    tag_219:\n        /* \"#utility.yul\":5070:5073   */\n      0x00\n        /* \"#utility.yul\":5091:5158   */\n      tag_221\n        /* \"#utility.yul\":5155:5157   */\n      0x30\n        /* \"#utility.yul\":5150:5153   */\n      dup4\n        /* \"#utility.yul\":5091:5158   */\n      tag_204\n      jump\t// in\n    tag_221:\n        /* \"#utility.yul\":5084:5158   */\n      swap2\n      pop\n        /* \"#utility.yul\":5167:5260   */\n      tag_222\n        /* \"#utility.yul\":5256:5259   */\n      dup3\n        /* \"#utility.yul\":5167:5260   */\n      tag_223\n      jump\t// in\n    tag_222:\n        /* \"#utility.yul\":5285:5287   */\n      0x40\n        /* \"#utility.yul\":5280:5283   */\n      dup3\n        /* \"#utility.yul\":5276:5288   */\n      add\n        /* \"#utility.yul\":5269:5288   */\n      swap1\n      pop\n        /* \"#utility.yul\":4928:5294   */\n      swap2\n      swap1\n      pop\n      jump\t// out\n        /* \"#utility.yul\":5300:5666   */\n    tag_224:\n        /* \"#utility.yul\":5442:5445   */\n      0x00\n        /* \"#utility.yul\":5463:5530   */\n      tag_226\n        /* \"#utility.yul\":5527:5529   */\n      0x1e\n        /* \"#utility.yul\":5522:5525   */\n      dup4\n        /* \"#utility.yul\":5463:5530   */\n      tag_204\n      jump\t// in\n    tag_226:\n        /* \"#utility.yul\":5456:5530   */\n      swap2\n      pop\n        /* \"#utility.yul\":5539:5632   */\n      tag_227\n        /* \"#utility.yul\":5628:5631   */\n      dup3\n        /* \"#utility.yul\":5539:5632   */\n      tag_228\n      jump\t// in\n    tag_227:\n        /* \"#utility.yul\":5657:5659   */\n      0x20\n        /* \"#utility.yul\":5652:5655   */\n      dup3\n        /* \"#utility.yul\":5648:5660   */\n      add\n        /* \"#utility.yul\":5641:5660   */\n      swap1\n      pop\n        /* \"#utility.yul\":5300:5666   */\n      swap2\n      swap1\n      pop\n      jump\t// out\n        /* \"#utility.yul\":5672:6038   */\n    tag_229:\n        /* \"#utility.yul\":5814:5817   */\n      0x00\n        /* \"#utility.yul\":5835:5902   */\n      tag_231\n        /* \"#utility.yul\":5899:5901   */\n      0x33\n        /* \"#utility.yul\":5894:5897   */\n      dup4\n        /* \"#utility.yul\":5835:5902   */\n      tag_204\n      jump\t// in\n    tag_231:\n        /* \"#utility.yul\":5828:5902   */\n      swap2\n      pop\n        /* \"#utility.yul\":5911:6004   */\n      tag_232\n        /* \"#utility.yul\":6000:6003   */\n      dup3\n        /* \"#utility.yul\":5911:6004   */\n      tag_233\n      jump\t// in\n    tag_232:\n        /* \"#utility.yul\":6029:6031   */\n      0x40\n        /* \"#utility.yul\":6024:6027   */\n      dup3\n        /* \"#utility.yul\":6020:6032   */\n      add\n        /* \"#utility.yul\":6013:6032   */\n      swap1\n      pop\n        /* \"#utility.yul\":5672:6038   */\n      swap2\n      swap1\n      pop\n      jump\t// out\n        /* \"#utility.yul\":6044:6410   */\n    tag_234:\n        /* \"#utility.yul\":6186:6189   */\n      0x00\n        /* \"#utility.yul\":6207:6274   */\n      tag_236\n        /* \"#utility.yul\":6271:6273   */\n      0x1e\n        /* \"#utility.yul\":6266:6269   */\n      dup4\n        /* \"#utility.yul\":6207:6274   */\n      tag_204\n      jump\t// in\n    tag_236:\n        /* \"#utility.yul\":6200:6274   */\n      swap2\n      pop\n        /* \"#utility.yul\":6283:6376   */\n      tag_237\n        /* \"#utility.yul\":6372:6375   */\n      dup3\n        /* \"#utility.yul\":6283:6376   */\n      tag_238\n      jump\t// in\n    tag_237:\n        /* \"#utility.yul\":6401:6403   */\n      0x20\n        /* \"#utility.yul\":6396:6399   */\n      dup3\n        /* \"#utility.yul\":6392:6404   */\n      add\n        /* \"#utility.yul\":6385:6404   */\n      swap1\n      pop\n        /* \"#utility.yul\":6044:6410   */\n      swap2\n      swap1\n      pop\n      jump\t// out\n        /* \"#utility.yul\":6416:6534   */\n    tag_239:\n        /* \"#utility.yul\":6503:6527   */\n      tag_241\n        /* \"#utility.yul\":6521:6526   */\n      dup2\n        /* \"#utility.yul\":6503:6527   */\n      tag_242\n      jump\t// in\n    tag_241:\n        /* \"#utility.yul\":6498:6501   */\n      dup3\n        /* \"#utility.yul\":6491:6528   */\n      mstore\n        /* \"#utility.yul\":6416:6534   */\n      pop\n      pop\n      jump\t// out\n        /* \"#utility.yul\":6540:6762   */\n    tag_30:\n        /* \"#utility.yul\":6633:6637   */\n      0x00\n        /* \"#utility.yul\":6671:6673   */\n      0x20\n        /* \"#utility.yul\":6660:6669   */\n      dup3\n        /* \"#utility.yul\":6656:6674   */\n      add\n        /* \"#utility.yul\":6648:6674   */\n      swap1\n      pop\n        /* \"#utility.yul\":6684:6755   */\n      tag_244\n        /* \"#utility.yul\":6752:6753   */\n      0x00\n        /* \"#utility.yul\":6741:6750   */\n      dup4\n        /* \"#utility.yul\":6737:6754   */\n      add\n        /* \"#utility.yul\":6728:6734   */\n      dup5\n        /* \"#utility.yul\":6684:6755   */\n      tag_195\n      jump\t// in\n    tag_244:\n        /* \"#utility.yul\":6540:6762   */\n      swap3\n      swap2\n      pop\n      pop\n      jump\t// out\n        /* \"#utility.yul\":6768:7100   */\n    tag_18:\n        /* \"#utility.yul\":6889:6893   */\n      0x00\n        /* \"#utility.yul\":6927:6929   */\n      0x40\n        /* \"#utility.yul\":6916:6925   */\n      dup3\n        /* \"#utility.yul\":6912:6930   */\n      add\n        /* \"#utility.yul\":6904:6930   */\n      swap1\n      pop\n        /* \"#utility.yul\":6940:7011   */\n      tag_246\n        /* \"#utility.yul\":7008:7009   */\n      0x00\n        /* \"#utility.yul\":6997:7006   */\n      dup4\n        /* \"#utility.yul\":6993:7010   */\n      add\n        /* \"#utility.yul\":6984:6990   */\n      dup6\n        /* \"#utility.yul\":6940:7011   */\n      tag_195\n      jump\t// in\n    tag_246:\n        /* \"#utility.yul\":7021:7093   */\n      tag_247\n        /* \"#utility.yul\":7089:7091   */\n      0x20\n        /* \"#utility.yul\":7078:7087   */\n      dup4\n        /* \"#utility.yul\":7074:7092   */\n      add\n        /* \"#utility.yul\":7065:7071   */\n      dup5\n        /* \"#utility.yul\":7021:7093   */\n      tag_239\n      jump\t// in\n    tag_247:\n        /* \"#utility.yul\":6768:7100   */\n      swap4\n      swap3\n      pop\n      pop\n      pop\n      jump\t// out\n        /* \"#utility.yul\":7106:7529   */\n    tag_35:\n        /* \"#utility.yul\":7247:7251   */\n      0x00\n        /* \"#utility.yul\":7285:7287   */\n      0x40\n        /* \"#utility.yul\":7274:7283   */\n      dup3\n        /* \"#utility.yul\":7270:7288   */\n      add\n        /* \"#utility.yul\":7262:7288   */\n      swap1\n      pop\n        /* \"#utility.yul\":7334:7343   */\n      dup2\n        /* \"#utility.yul\":7328:7332   */\n      dup2\n        /* \"#utility.yul\":7324:7344   */\n      sub\n        /* \"#utility.yul\":7320:7321   */\n      0x00\n        /* \"#utility.yul\":7309:7318   */\n      dup4\n        /* \"#utility.yul\":7305:7322   */\n      add\n        /* \"#utility.yul\":7298:7345   */\n      mstore\n        /* \"#utility.yul\":7362:7440   */\n      tag_249\n        /* \"#utility.yul\":7435:7439   */\n      dup2\n        /* \"#utility.yul\":7426:7432   */\n      dup6\n        /* \"#utility.yul\":7362:7440   */\n      tag_199\n      jump\t// in\n    tag_249:\n        /* \"#utility.yul\":7354:7440   */\n      swap1\n      pop\n        /* \"#utility.yul\":7450:7522   */\n      tag_250\n        /* \"#utility.yul\":7518:7520   */\n      0x20\n        /* \"#utility.yul\":7507:7516   */\n      dup4\n        /* \"#utility.yul\":7503:7521   */\n      add\n        /* \"#utility.yul\":7494:7500   */\n      dup5\n        /* \"#utility.yul\":7450:7522   */\n      tag_239\n      jump\t// in\n    tag_250:\n        /* \"#utility.yul\":7106:7529   */\n      swap4\n      swap3\n      pop\n      pop\n      pop\n      jump\t// out\n        /* \"#utility.yul\":7535:7954   */\n    tag_67:\n        /* \"#utility.yul\":7701:7705   */\n      0x00\n        /* \"#utility.yul\":7739:7741   */\n      0x20\n        /* \"#utility.yul\":7728:7737   */\n      dup3\n        /* \"#utility.yul\":7724:7742   */\n      add\n        /* \"#utility.yul\":7716:7742   */\n      swap1\n      pop\n        /* \"#utility.yul\":7788:7797   */\n      dup2\n        /* \"#utility.yul\":7782:7786   */\n      dup2\n        /* \"#utility.yul\":7778:7798   */\n      sub\n        /* \"#utility.yul\":7774:7775   */\n      0x00\n        /* \"#utility.yul\":7763:7772   */\n      dup4\n        /* \"#utility.yul\":7759:7776   */\n      add\n        /* \"#utility.yul\":7752:7799   */\n      mstore\n        /* \"#utility.yul\":7816:7947   */\n      tag_252\n        /* \"#utility.yul\":7942:7946   */\n      dup2\n        /* \"#utility.yul\":7816:7947   */\n      tag_209\n      jump\t// in\n    tag_252:\n        /* \"#utility.yul\":7808:7947   */\n      swap1\n      pop\n        /* \"#utility.yul\":7535:7954   */\n      swap2\n      swap1\n      pop\n      jump\t// out\n        /* \"#utility.yul\":7960:8379   */\n    tag_104:\n        /* \"#utility.yul\":8126:8130   */\n      0x00\n        /* \"#utility.yul\":8164:8166   */\n      0x20\n        /* \"#utility.yul\":8153:8162   */\n      dup3\n        /* \"#utility.yul\":8149:8167   */\n      add\n        /* \"#utility.yul\":8141:8167   */\n      swap1\n      pop\n        /* \"#utility.yul\":8213:8222   */\n      dup2\n        /* \"#utility.yul\":8207:8211   */\n      dup2\n        /* \"#utility.yul\":8203:8223   */\n      sub\n        /* \"#utility.yul\":8199:8200   */\n      0x00\n        /* \"#utility.yul\":8188:8197   */\n      dup4\n        /* \"#utility.yul\":8184:8201   */\n      add\n        /* \"#utility.yul\":8177:8224   */\n      mstore\n        /* \"#utility.yul\":8241:8372   */\n      tag_254\n        /* \"#utility.yul\":8367:8371   */\n      dup2\n        /* \"#utility.yul\":8241:8372   */\n      tag_214\n      jump\t// in\n    tag_254:\n        /* \"#utility.yul\":8233:8372   */\n      swap1\n      pop\n        /* \"#utility.yul\":7960:8379   */\n      swap2\n      swap1\n      pop\n      jump\t// out\n        /* \"#utility.yul\":8385:8804   */\n    tag_85:\n        /* \"#utility.yul\":8551:8555   */\n      0x00\n        /* \"#utility.yul\":8589:8591   */\n      0x20\n        /* \"#utility.yul\":8578:8587   */\n      dup3\n        /* \"#utility.yul\":8574:8592   */\n      add\n        /* \"#utility.yul\":8566:8592   */\n      swap1\n      pop\n        /* \"#utility.yul\":8638:8647   */\n      dup2\n        /* \"#utility.yul\":8632:8636   */\n      dup2\n        /* \"#utility.yul\":8628:8648   */\n      sub\n        /* \"#utility.yul\":8624:8625   */\n      0x00\n        /* \"#utility.yul\":8613:8622   */\n      dup4\n        /* \"#utility.yul\":8609:8626   */\n      add\n        /* \"#utility.yul\":8602:8649   */\n      mstore\n        /* \"#utility.yul\":8666:8797   */\n      tag_256\n        /* \"#utility.yul\":8792:8796   */\n      dup2\n        /* \"#utility.yul\":8666:8797   */\n      tag_219\n      jump\t// in\n    tag_256:\n        /* \"#utility.yul\":8658:8797   */\n      swap1\n      pop\n        /* \"#utility.yul\":8385:8804   */\n      swap2\n      swap1\n      pop\n      jump\t// out\n        /* \"#utility.yul\":8810:9229   */\n    tag_121:\n        /* \"#utility.yul\":8976:8980   */\n      0x00\n        /* \"#utility.yul\":9014:9016   */\n      0x20\n        /* \"#utility.yul\":9003:9012   */\n      dup3\n        /* \"#utility.yul\":8999:9017   */\n      add\n        /* \"#utility.yul\":8991:9017   */\n      swap1\n      pop\n        /* \"#utility.yul\":9063:9072   */\n      dup2\n        /* \"#utility.yul\":9057:9061   */\n      dup2\n        /* \"#utility.yul\":9053:9073   */\n      sub\n        /* \"#utility.yul\":9049:9050   */\n      0x00\n        /* \"#utility.yul\":9038:9047   */\n      dup4\n        /* \"#utility.yul\":9034:9051   */\n      add\n        /* \"#utility.yul\":9027:9074   */\n      mstore\n        /* \"#utility.yul\":9091:9222   */\n      tag_258\n        /* \"#utility.yul\":9217:9221   */\n      dup2\n        /* \"#utility.yul\":9091:9222   */\n      tag_224\n      jump\t// in\n    tag_258:\n        /* \"#utility.yul\":9083:9222   */\n      swap1\n      pop\n        /* \"#utility.yul\":8810:9229   */\n      swap2\n      swap1\n      pop\n      jump\t// out\n        /* \"#utility.yul\":9235:9654   */\n    tag_109:\n        /* \"#utility.yul\":9401:9405   */\n      0x00\n        /* \"#utility.yul\":9439:9441   */\n      0x20\n        /* \"#utility.yul\":9428:9437   */\n      dup3\n        /* \"#utility.yul\":9424:9442   */\n      add\n        /* \"#utility.yul\":9416:9442   */\n      swap1\n      pop\n        /* \"#utility.yul\":9488:9497   */\n      dup2\n        /* \"#utility.yul\":9482:9486   */\n      dup2\n        /* \"#utility.yul\":9478:9498   */\n      sub\n        /* \"#utility.yul\":9474:9475   */\n      0x00\n        /* \"#utility.yul\":9463:9472   */\n      dup4\n        /* \"#utility.yul\":9459:9476   */\n      add\n        /* \"#utility.yul\":9452:9499   */\n      mstore\n        /* \"#utility.yul\":9516:9647   */\n      tag_260\n        /* \"#utility.yul\":9642:9646   */\n      dup2\n        /* \"#utility.yul\":9516:9647   */\n      tag_229\n      jump\t// in\n    tag_260:\n        /* \"#utility.yul\":9508:9647   */\n      swap1\n      pop\n        /* \"#utility.yul\":9235:9654   */\n      swap2\n      swap1\n      pop\n      jump\t// out\n        /* \"#utility.yul\":9660:10079   */\n    tag_95:\n        /* \"#utility.yul\":9826:9830   */\n      0x00\n        /* \"#utility.yul\":9864:9866   */\n      0x20\n        /* \"#utility.yul\":9853:9862   */\n      dup3\n        /* \"#utility.yul\":9849:9867   */\n      add\n        /* \"#utility.yul\":9841:9867   */\n      swap1\n      pop\n        /* \"#utility.yul\":9913:9922   */\n      dup2\n        /* \"#utility.yul\":9907:9911   */\n      dup2\n        /* \"#utility.yul\":9903:9923   */\n      sub\n        /* \"#utility.yul\":9899:9900   */\n      0x00\n        /* \"#utility.yul\":9888:9897   */\n      dup4\n        /* \"#utility.yul\":9884:9901   */\n      add\n        /* \"#utility.yul\":9877:9924   */\n      mstore\n        /* \"#utility.yul\":9941:10072   */\n      tag_262\n        /* \"#utility.yul\":10067:10071   */\n      dup2\n        /* \"#utility.yul\":9941:10072   */\n      tag_234\n      jump\t// in\n    tag_262:\n        /* \"#utility.yul\":9933:10072   */\n      swap1\n      pop\n        /* \"#utility.yul\":9660:10079   */\n      swap2\n      swap1\n      pop\n      jump\t// out\n        /* \"#utility.yul\":10085:10307   */\n    tag_59:\n        /* \"#utility.yul\":10178:10182   */\n      0x00\n        /* \"#utility.yul\":10216:10218   */\n      0x20\n        /* \"#utility.yul\":10205:10214   */\n      dup3\n        /* \"#utility.yul\":10201:10219   */\n      add\n        /* \"#utility.yul\":10193:10219   */\n      swap1\n      pop\n        /* \"#utility.yul\":10229:10300   */\n      tag_264\n        /* \"#utility.yul\":10297:10298   */\n      0x00\n        /* \"#utility.yul\":10286:10295   */\n      dup4\n        /* \"#utility.yul\":10282:10299   */\n      add\n        /* \"#utility.yul\":10273:10279   */\n      dup5\n        /* \"#utility.yul\":10229:10300   */\n      tag_239\n      jump\t// in\n    tag_264:\n        /* \"#utility.yul\":10085:10307   */\n      swap3\n      swap2\n      pop\n      pop\n      jump\t// out\n        /* \"#utility.yul\":10313:10442   */\n    tag_145:\n        /* \"#utility.yul\":10347:10353   */\n      0x00\n        /* \"#utility.yul\":10374:10394   */\n      tag_266\n      tag_267\n      jump\t// in\n    tag_266:\n        /* \"#utility.yul\":10364:10394   */\n      swap1\n      pop\n        /* \"#utility.yul\":10403:10436   */\n      tag_268\n        /* \"#utility.yul\":10431:10435   */\n      dup3\n        /* \"#utility.yul\":10423:10429   */\n      dup3\n        /* \"#utility.yul\":10403:10436   */\n      tag_269\n      jump\t// in\n    tag_268:\n        /* \"#utility.yul\":10313:10442   */\n      swap2\n      swap1\n      pop\n      jump\t// out\n        /* \"#utility.yul\":10448:10523   */\n    tag_267:\n        /* \"#utility.yul\":10481:10487   */\n      0x00\n        /* \"#utility.yul\":10514:10516   */\n      0x40\n        /* \"#utility.yul\":10508:10517   */\n      mload\n        /* \"#utility.yul\":10498:10517   */\n      swap1\n      pop\n        /* \"#utility.yul\":10448:10523   */\n      swap1\n      jump\t// out\n        /* \"#utility.yul\":10529:10837   */\n    tag_144:\n        /* \"#utility.yul\":10591:10595   */\n      0x00\n        /* \"#utility.yul\":10681:10699   */\n      0xffffffffffffffff\n        /* \"#utility.yul\":10673:10679   */\n      dup3\n        /* \"#utility.yul\":10670:10700   */\n      gt\n        /* \"#utility.yul\":10667:10723   */\n      iszero\n      tag_272\n      jumpi\n        /* \"#utility.yul\":10703:10721   */\n      tag_273\n      tag_274\n      jump\t// in\n    tag_273:\n        /* \"#utility.yul\":10667:10723   */\n    tag_272:\n        /* \"#utility.yul\":10741:10770   */\n      tag_275\n        /* \"#utility.yul\":10763:10769   */\n      dup3\n        /* \"#utility.yul\":10741:10770   */\n      tag_208\n      jump\t// in\n    tag_275:\n        /* \"#utility.yul\":10733:10770   */\n      swap1\n      pop\n        /* \"#utility.yul\":10825:10829   */\n      0x20\n        /* \"#utility.yul\":10819:10823   */\n      dup2\n        /* \"#utility.yul\":10815:10830   */\n      add\n        /* \"#utility.yul\":10807:10830   */\n      swap1\n      pop\n        /* \"#utility.yul\":10529:10837   */\n      swap2\n      swap1\n      pop\n      jump\t// out\n        /* \"#utility.yul\":10843:10942   */\n    tag_202:\n        /* \"#utility.yul\":10895:10901   */\n      0x00\n        /* \"#utility.yul\":10929:10934   */\n      dup2\n        /* \"#utility.yul\":10923:10935   */\n      mload\n        /* \"#utility.yul\":10913:10935   */\n      swap1\n      pop\n        /* \"#utility.yul\":10843:10942   */\n      swap2\n      swap1\n      pop\n      jump\t// out\n        /* \"#utility.yul\":10948:11117   */\n    tag_204:\n        /* \"#utility.yul\":11032:11043   */\n      0x00\n        /* \"#utility.yul\":11066:11072   */\n      dup3\n        /* \"#utility.yul\":11061:11064   */\n      dup3\n        /* \"#utility.yul\":11054:11073   */\n      mstore\n        /* \"#utility.yul\":11106:11110   */\n      0x20\n        /* \"#utility.yul\":11101:11104   */\n      dup3\n        /* \"#utility.yul\":11097:11111   */\n      add\n        /* \"#utility.yul\":11082:11111   */\n      swap1\n      pop\n        /* \"#utility.yul\":10948:11117   */\n      swap3\n      swap2\n      pop\n      pop\n      jump\t// out\n        /* \"#utility.yul\":11123:11428   */\n    tag_63:\n        /* \"#utility.yul\":11163:11166   */\n      0x00\n        /* \"#utility.yul\":11182:11202   */\n      tag_279\n        /* \"#utility.yul\":11200:11201   */\n      dup3\n        /* \"#utility.yul\":11182:11202   */\n      tag_242\n      jump\t// in\n    tag_279:\n        /* \"#utility.yul\":11177:11202   */\n      swap2\n      pop\n        /* \"#utility.yul\":11216:11236   */\n      tag_280\n        /* \"#utility.yul\":11234:11235   */\n      dup4\n        /* \"#utility.yul\":11216:11236   */\n      tag_242\n      jump\t// in\n    tag_280:\n        /* \"#utility.yul\":11211:11236   */\n      swap3\n      pop\n        /* \"#utility.yul\":11370:11371   */\n      dup3\n        /* \"#utility.yul\":11302:11368   */\n      0xffffffffffffffffffffffffffffffffffffffffffffffffffffffffffffffff\n        /* \"#utility.yul\":11298:11372   */\n      sub\n        /* \"#utility.yul\":11295:11296   */\n      dup3\n        /* \"#utility.yul\":11292:11373   */\n      gt\n        /* \"#utility.yul\":11289:11396   */\n      iszero\n      tag_281\n      jumpi\n        /* \"#utility.yul\":11376:11394   */\n      tag_282\n      tag_283\n      jump\t// in\n    tag_282:\n        /* \"#utility.yul\":11289:11396   */\n    tag_281:\n        /* \"#utility.yul\":11420:11421   */\n      dup3\n        /* \"#utility.yul\":11417:11418   */\n      dup3\n        /* \"#utility.yul\":11413:11422   */\n      add\n        /* \"#utility.yul\":11406:11422   */\n      swap1\n      pop\n        /* \"#utility.yul\":11123:11428   */\n      swap3\n      swap2\n      pop\n      pop\n      jump\t// out\n        /* \"#utility.yul\":11434:11625   */\n    tag_123:\n        /* \"#utility.yul\":11474:11478   */\n      0x00\n        /* \"#utility.yul\":11494:11514   */\n      tag_285\n        /* \"#utility.yul\":11512:11513   */\n      dup3\n        /* \"#utility.yul\":11494:11514   */\n      tag_242\n      jump\t// in\n    tag_285:\n        /* \"#utility.yul\":11489:11514   */\n      swap2\n      pop\n        /* \"#utility.yul\":11528:11548   */\n      tag_286\n        /* \"#utility.yul\":11546:11547   */\n      dup4\n        /* \"#utility.yul\":11528:11548   */\n      tag_242\n      jump\t// in\n    tag_286:\n        /* \"#utility.yul\":11523:11548   */\n      swap3\n      pop\n        /* \"#utility.yul\":11567:11568   */\n      dup3\n        /* \"#utility.yul\":11564:11565   */\n      dup3\n        /* \"#utility.yul\":11561:11569   */\n      lt\n        /* \"#utility.yul\":11558:11592   */\n      iszero\n      tag_287\n      jumpi\n        /* \"#utility.yul\":11572:11590   */\n      tag_288\n      tag_283\n      jump\t// in\n    tag_288:\n        /* \"#utility.yul\":11558:11592   */\n    tag_287:\n        /* \"#utility.yul\":11617:11618   */\n      dup3\n        /* \"#utility.yul\":11614:11615   */\n      dup3\n        /* \"#utility.yul\":11610:11619   */\n      sub\n        /* \"#utility.yul\":11602:11619   */\n      swap1\n      pop\n        /* \"#utility.yul\":11434:11625   */\n      swap3\n      swap2\n      pop\n      pop\n      jump\t// out\n        /* \"#utility.yul\":11631:11727   */\n    tag_198:\n        /* \"#utility.yul\":11668:11675   */\n      0x00\n        /* \"#utility.yul\":11697:11721   */\n      tag_290\n        /* \"#utility.yul\":11715:11720   */\n      dup3\n        /* \"#utility.yul\":11697:11721   */\n      tag_291\n      jump\t// in\n    tag_290:\n        /* \"#utility.yul\":11686:11721   */\n      swap1\n      pop\n        /* \"#utility.yul\":11631:11727   */\n      swap2\n      swap1\n      pop\n      jump\t// out\n        /* \"#utility.yul\":11733:11859   */\n    tag_291:\n        /* \"#utility.yul\":11770:11777   */\n      0x00\n        /* \"#utility.yul\":11810:11852   */\n      0xffffffffffffffffffffffffffffffffffffffff\n        /* \"#utility.yul\":11803:11808   */\n      dup3\n        /* \"#utility.yul\":11799:11853   */\n      and\n        /* \"#utility.yul\":11788:11853   */\n      swap1\n      pop\n        /* \"#utility.yul\":11733:11859   */\n      swap2\n      swap1\n      pop\n      jump\t// out\n        /* \"#utility.yul\":11865:11942   */\n    tag_242:\n        /* \"#utility.yul\":11902:11909   */\n      0x00\n        /* \"#utility.yul\":11931:11936   */\n      dup2\n        /* \"#utility.yul\":11920:11936   */\n      swap1\n      pop\n        /* \"#utility.yul\":11865:11942   */\n      swap2\n      swap1\n      pop\n      jump\t// out\n        /* \"#utility.yul\":11948:12102   */\n    tag_150:\n        /* \"#utility.yul\":12032:12038   */\n      dup3\n        /* \"#utility.yul\":12027:12030   */\n      dup2\n        /* \"#utility.yul\":12022:12025   */\n      dup4\n        /* \"#utility.yul\":12009:12039   */\n      calldatacopy\n        /* \"#utility.yul\":12094:12095   */\n      0x00\n        /* \"#utility.yul\":12085:12091   */\n      dup4\n        /* \"#utility.yul\":12080:12083   */\n      dup4\n        /* \"#utility.yul\":12076:12092   */\n      add\n        /* \"#utility.yul\":12069:12096   */\n      mstore\n        /* \"#utility.yul\":11948:12102   */\n      pop\n      pop\n      pop\n      jump\t// out\n        /* \"#utility.yul\":12108:12415   */\n    tag_206:\n        /* \"#utility.yul\":12176:12177   */\n      0x00\n        /* \"#utility.yul\":12186:12299   */\n    tag_296:\n        /* \"#utility.yul\":12200:12206   */\n      dup4\n        /* \"#utility.yul\":12197:12198   */\n      dup2\n        /* \"#utility.yul\":12194:12207   */\n      lt\n        /* \"#utility.yul\":12186:12299   */\n      iszero\n      tag_298\n      jumpi\n        /* \"#utility.yul\":12285:12286   */\n      dup1\n        /* \"#utility.yul\":12280:12283   */\n      dup3\n        /* \"#utility.yul\":12276:12287   */\n      add\n        /* \"#utility.yul\":12270:12288   */\n      mload\n        /* \"#utility.yul\":12266:12267   */\n      dup2\n        /* \"#utility.yul\":12261:12264   */\n      dup5\n        /* \"#utility.yul\":12257:12268   */\n      add\n        /* \"#utility.yul\":12250:12289   */\n      mstore\n        /* \"#utility.yul\":12222:12224   */\n      0x20\n        /* \"#utility.yul\":12219:12220   */\n      dup2\n        /* \"#utility.yul\":12215:12225   */\n      add\n        /* \"#utility.yul\":12210:12225   */\n      swap1\n      pop\n        /* \"#utility.yul\":12186:12299   */\n      jump(tag_296)\n    tag_298:\n        /* \"#utility.yul\":12317:12323   */\n      dup4\n        /* \"#utility.yul\":12314:12315   */\n      dup2\n        /* \"#utility.yul\":12311:12324   */\n      gt\n        /* \"#utility.yul\":12308:12409   */\n      iszero\n      tag_299\n      jumpi\n        /* \"#utility.yul\":12397:12398   */\n      0x00\n        /* \"#utility.yul\":12388:12394   */\n      dup5\n        /* \"#utility.yul\":12383:12386   */\n      dup5\n        /* \"#utility.yul\":12379:12395   */\n      add\n        /* \"#utility.yul\":12372:12399   */\n      mstore\n        /* \"#utility.yul\":12308:12409   */\n    tag_299:\n        /* \"#utility.yul\":12157:12415   */\n      pop\n        /* \"#utility.yul\":12108:12415   */\n      pop\n      pop\n      pop\n      jump\t// out\n        /* \"#utility.yul\":12421:12741   */\n    tag_77:\n        /* \"#utility.yul\":12465:12471   */\n      0x00\n        /* \"#utility.yul\":12502:12503   */\n      0x02\n        /* \"#utility.yul\":12496:12500   */\n      dup3\n        /* \"#utility.yul\":12492:12504   */\n      div\n        /* \"#utility.yul\":12482:12504   */\n      swap1\n      pop\n        /* \"#utility.yul\":12549:12550   */\n      0x01\n        /* \"#utility.yul\":12543:12547   */\n      dup3\n        /* \"#utility.yul\":12539:12551   */\n      and\n        /* \"#utility.yul\":12570:12588   */\n      dup1\n        /* \"#utility.yul\":12560:12641   */\n      tag_301\n      jumpi\n        /* \"#utility.yul\":12626:12630   */\n      0x7f\n        /* \"#utility.yul\":12618:12624   */\n      dup3\n        /* \"#utility.yul\":12614:12631   */\n      and\n        /* \"#utility.yul\":12604:12631   */\n      swap2\n      pop\n        /* \"#utility.yul\":12560:12641   */\n    tag_301:\n        /* \"#utility.yul\":12688:12690   */\n      0x20\n        /* \"#utility.yul\":12680:12686   */\n      dup3\n        /* \"#utility.yul\":12677:12691   */\n      lt\n        /* \"#utility.yul\":12657:12675   */\n      dup2\n        /* \"#utility.yul\":12654:12692   */\n      eq\n        /* \"#utility.yul\":12651:12735   */\n      iszero\n      tag_302\n      jumpi\n        /* \"#utility.yul\":12707:12725   */\n      tag_303\n      tag_304\n      jump\t// in\n    tag_303:\n        /* \"#utility.yul\":12651:12735   */\n    tag_302:\n        /* \"#utility.yul\":12472:12741   */\n      pop\n        /* \"#utility.yul\":12421:12741   */\n      swap2\n      swap1\n      pop\n      jump\t// out\n        /* \"#utility.yul\":12747:13028   */\n    tag_269:\n        /* \"#utility.yul\":12830:12857   */\n      tag_306\n        /* \"#utility.yul\":12852:12856   */\n      dup3\n        /* \"#utility.yul\":12830:12857   */\n      tag_208\n      jump\t// in\n    tag_306:\n        /* \"#utility.yul\":12822:12828   */\n      dup2\n        /* \"#utility.yul\":12818:12858   */\n      add\n        /* \"#utility.yul\":12960:12966   */\n      dup2\n        /* \"#utility.yul\":12948:12958   */\n      dup2\n        /* \"#utility.yul\":12945:12967   */\n      lt\n        /* \"#utility.yul\":12924:12942   */\n      0xffffffffffffffff\n        /* \"#utility.yul\":12912:12922   */\n      dup3\n        /* \"#utility.yul\":12909:12943   */\n      gt\n        /* \"#utility.yul\":12906:12968   */\n      or\n        /* \"#utility.yul\":12903:12991   */\n      iszero\n      tag_307\n      jumpi\n        /* \"#utility.yul\":12971:12989   */\n      tag_308\n      tag_274\n      jump\t// in\n    tag_308:\n        /* \"#utility.yul\":12903:12991   */\n    tag_307:\n        /* \"#utility.yul\":13011:13021   */\n      dup1\n        /* \"#utility.yul\":13007:13009   */\n      0x40\n        /* \"#utility.yul\":13000:13022   */\n      mstore\n        /* \"#utility.yul\":12790:13028   */\n      pop\n        /* \"#utility.yul\":12747:13028   */\n      pop\n      pop\n      jump\t// out\n        /* \"#utility.yul\":13034:13214   */\n    tag_283:\n        /* \"#utility.yul\":13082:13159   */\n      0x4e487b7100000000000000000000000000000000000000000000000000000000\n        /* \"#utility.yul\":13079:13080   */\n      0x00\n        /* \"#utility.yul\":13072:13160   */\n      mstore\n        /* \"#utility.yul\":13179:13183   */\n      0x11\n        /* \"#utility.yul\":13176:13177   */\n      0x04\n        /* \"#utility.yul\":13169:13184   */\n      mstore\n        /* \"#utility.yul\":13203:13207   */\n      0x24\n        /* \"#utility.yul\":13200:13201   */\n      0x00\n        /* \"#utility.yul\":13193:13208   */\n      revert\n        /* \"#utility.yul\":13220:13400   */\n    tag_304:\n        /* \"#utility.yul\":13268:13345   */\n      0x4e487b7100000000000000000000000000000000000000000000000000000000\n        /* \"#utility.yul\":13265:13266   */\n      0x00\n        /* \"#utility.yul\":13258:13346   */\n      mstore\n        /* \"#utility.yul\":13365:13369   */\n      0x22\n        /* \"#utility.yul\":13362:13363   */\n      0x04\n        /* \"#utility.yul\":13355:13370   */\n      mstore\n        /* \"#utility.yul\":13389:13393   */\n      0x24\n        /* \"#utility.yul\":13386:13387   */\n      0x00\n        /* \"#utility.yul\":13379:13394   */\n      revert\n        /* \"#utility.yul\":13406:13586   */\n    tag_70:\n        /* \"#utility.yul\":13454:13531   */\n      0x4e487b7100000000000000000000000000000000000000000000000000000000\n        /* \"#utility.yul\":13451:13452   */\n      0x00\n        /* \"#utility.yul\":13444:13532   */\n      mstore\n        /* \"#utility.yul\":13551:13555   */\n      0x32\n        /* \"#utility.yul\":13548:13549   */\n      0x04\n        /* \"#utility.yul\":13541:13556   */\n      mstore\n        /* \"#utility.yul\":13575:13579   */\n      0x24\n        /* \"#utility.yul\":13572:13573   */\n      0x00\n        /* \"#utility.yul\":13565:13580   */\n      revert\n        /* \"#utility.yul\":13592:13772   */\n    tag_274:\n        /* \"#utility.yul\":13640:13717   */\n      0x4e487b7100000000000000000000000000000000000000000000000000000000\n        /* \"#utility.yul\":13637:13638   */\n      0x00\n        /* \"#utility.yul\":13630:13718   */\n      mstore\n        /* \"#utility.yul\":13737:13741   */\n      0x41\n        /* \"#utility.yul\":13734:13735   */\n      0x04\n        /* \"#utility.yul\":13727:13742   */\n      mstore\n        /* \"#utility.yul\":13761:13765   */\n      0x24\n        /* \"#utility.yul\":13758:13759   */\n      0x00\n        /* \"#utility.yul\":13751:13766   */\n      revert\n        /* \"#utility.yul\":13778:13895   */\n    tag_159:\n        /* \"#utility.yul\":13887:13888   */\n      0x00\n        /* \"#utility.yul\":13884:13885   */\n      dup1\n        /* \"#utility.yul\":13877:13889   */\n      revert\n        /* \"#utility.yul\":13901:14018   */\n    tag_148:\n        /* \"#utility.yul\":14010:14011   */\n      0x00\n        /* \"#utility.yul\":14007:14008   */\n      dup1\n        /* \"#utility.yul\":14000:14012   */\n      revert\n        /* \"#utility.yul\":14024:14141   */\n    tag_180:\n        /* \"#utility.yul\":14133:14134   */\n      0x00\n        /* \"#utility.yul\":14130:14131   */\n      dup1\n        /* \"#utility.yul\":14123:14135   */\n      revert\n        /* \"#utility.yul\":14147:14264   */\n    tag_168:\n        /* \"#utility.yul\":14256:14257   */\n      0x00\n        /* \"#utility.yul\":14253:14254   */\n      dup1\n        /* \"#utility.yul\":14246:14258   */\n      revert\n        /* \"#utility.yul\":14270:14372   */\n    tag_208:\n        /* \"#utility.yul\":14311:14317   */\n      0x00\n        /* \"#utility.yul\":14362:14364   */\n      0x1f\n        /* \"#utility.yul\":14358:14365   */\n      not\n        /* \"#utility.yul\":14353:14355   */\n      0x1f\n        /* \"#utility.yul\":14346:14351   */\n      dup4\n        /* \"#utility.yul\":14342:14356   */\n      add\n        /* \"#utility.yul\":14338:14366   */\n      and\n        /* \"#utility.yul\":14328:14366   */\n      swap1\n      pop\n        /* \"#utility.yul\":14270:14372   */\n      swap2\n      swap1\n      pop\n      jump\t// out\n        /* \"#utility.yul\":14378:14617   */\n    tag_213:\n        /* \"#utility.yul\":14518:14552   */\n      0x536f6c6f20656c2041646d696e6973747261646f722064656c2047796d207075\n        /* \"#utility.yul\":14514:14515   */\n      0x00\n        /* \"#utility.yul\":14506:14512   */\n      dup3\n        /* \"#utility.yul\":14502:14516   */\n      add\n        /* \"#utility.yul\":14495:14553   */\n      mstore\n        /* \"#utility.yul\":14587:14609   */\n      0x656465206d6f6469666963617220636c61736573000000000000000000000000\n        /* \"#utility.yul\":14582:14584   */\n      0x20\n        /* \"#utility.yul\":14574:14580   */\n      dup3\n        /* \"#utility.yul\":14570:14585   */\n      add\n        /* \"#utility.yul\":14563:14610   */\n      mstore\n        /* \"#utility.yul\":14378:14617   */\n      pop\n      jump\t// out\n        /* \"#utility.yul\":14623:14847   */\n    tag_218:\n        /* \"#utility.yul\":14763:14797   */\n      0x596120746520656e6375656e74726173207265676973747261646f20656e2065\n        /* \"#utility.yul\":14759:14760   */\n      0x00\n        /* \"#utility.yul\":14751:14757   */\n      dup3\n        /* \"#utility.yul\":14747:14761   */\n      add\n        /* \"#utility.yul\":14740:14798   */\n      mstore\n        /* \"#utility.yul\":14832:14839   */\n      0x6c2067796d000000000000000000000000000000000000000000000000000000\n        /* \"#utility.yul\":14827:14829   */\n      0x20\n        /* \"#utility.yul\":14819:14825   */\n      dup3\n        /* \"#utility.yul\":14815:14830   */\n      add\n        /* \"#utility.yul\":14808:14840   */\n      mstore\n        /* \"#utility.yul\":14623:14847   */\n      pop\n      jump\t// out\n        /* \"#utility.yul\":14853:15088   */\n    tag_223:\n        /* \"#utility.yul\":14993:15027   */\n      0x536f6c6f20656c2041646d696e6973747261646f722064656c2047796d207075\n        /* \"#utility.yul\":14989:14990   */\n      0x00\n        /* \"#utility.yul\":14981:14987   */\n      dup3\n        /* \"#utility.yul\":14977:14991   */\n      add\n        /* \"#utility.yul\":14970:15028   */\n      mstore\n        /* \"#utility.yul\":15062:15080   */\n      0x65646520637265617220636c6173657300000000000000000000000000000000\n        /* \"#utility.yul\":15057:15059   */\n      0x20\n        /* \"#utility.yul\":15049:15055   */\n      dup3\n        /* \"#utility.yul\":15045:15060   */\n      add\n        /* \"#utility.yul\":15038:15081   */\n      mstore\n        /* \"#utility.yul\":14853:15088   */\n      pop\n      jump\t// out\n        /* \"#utility.yul\":15094:15274   */\n    tag_228:\n        /* \"#utility.yul\":15234:15266   */\n      0x4e6f207469656e6573206372656469746f7320737566696369656e7465730000\n        /* \"#utility.yul\":15230:15231   */\n      0x00\n        /* \"#utility.yul\":15222:15228   */\n      dup3\n        /* \"#utility.yul\":15218:15232   */\n      add\n        /* \"#utility.yul\":15211:15267   */\n      mstore\n        /* \"#utility.yul\":15094:15274   */\n      pop\n      jump\t// out\n        /* \"#utility.yul\":15280:15518   */\n    tag_233:\n        /* \"#utility.yul\":15420:15454   */\n      0x536f6c6f20656c2041646d696e6973747261646f722064656c2047796d207075\n        /* \"#utility.yul\":15416:15417   */\n      0x00\n        /* \"#utility.yul\":15408:15414   */\n      dup3\n        /* \"#utility.yul\":15404:15418   */\n      add\n        /* \"#utility.yul\":15397:15455   */\n      mstore\n        /* \"#utility.yul\":15489:15510   */\n      0x65646520656c696d696e617220636c6173657300000000000000000000000000\n        /* \"#utility.yul\":15484:15486   */\n      0x20\n        /* \"#utility.yul\":15476:15482   */\n      dup3\n        /* \"#utility.yul\":15472:15487   */\n      add\n        /* \"#utility.yul\":15465:15511   */\n      mstore\n        /* \"#utility.yul\":15280:15518   */\n      pop\n      jump\t// out\n        /* \"#utility.yul\":15524:15704   */\n    tag_238:\n        /* \"#utility.yul\":15664:15696   */\n      0x4e6f2065786973746520756e6120636c61736520636f6e206573652049640000\n        /* \"#utility.yul\":15660:15661   */\n      0x00\n        /* \"#utility.yul\":15652:15658   */\n      dup3\n        /* \"#utility.yul\":15648:15662   */\n      add\n        /* \"#utility.yul\":15641:15697   */\n      mstore\n        /* \"#utility.yul\":15524:15704   */\n      pop\n      jump\t// out\n        /* \"#utility.yul\":15710:15832   */\n    tag_154:\n        /* \"#utility.yul\":15783:15807   */\n      tag_325\n        /* \"#utility.yul\":15801:15806   */\n      dup2\n        /* \"#utility.yul\":15783:15807   */\n      tag_198\n      jump\t// in\n    tag_325:\n        /* \"#utility.yul\":15776:15781   */\n      dup2\n        /* \"#utility.yul\":15773:15808   */\n      eq\n        /* \"#utility.yul\":15763:15826   */\n      tag_326\n      jumpi\n        /* \"#utility.yul\":15822:15823   */\n      0x00\n        /* \"#utility.yul\":15819:15820   */\n      dup1\n        /* \"#utility.yul\":15812:15824   */\n      revert\n        /* \"#utility.yul\":15763:15826   */\n    tag_326:\n        /* \"#utility.yul\":15710:15832   */\n      pop\n      jump\t// out\n        /* \"#utility.yul\":15838:15960   */\n    tag_164:\n        /* \"#utility.yul\":15911:15935   */\n      tag_328\n        /* \"#utility.yul\":15929:15934   */\n      dup2\n        /* \"#utility.yul\":15911:15935   */\n      tag_242\n      jump\t// in\n    tag_328:\n        /* \"#utility.yul\":15904:15909   */\n      dup2\n        /* \"#utility.yul\":15901:15936   */\n      eq\n        /* \"#utility.yul\":15891:15954   */\n      tag_329\n      jumpi\n        /* \"#utility.yul\":15950:15951   */\n      0x00\n        /* \"#utility.yul\":15947:15948   */\n      dup1\n        /* \"#utility.yul\":15940:15952   */\n      revert\n        /* \"#utility.yul\":15891:15954   */\n    tag_329:\n        /* \"#utility.yul\":15838:15960   */\n      pop\n      jump\t// out\n\n    auxdata: 0xa2646970667358221220bb4576c2c1260212bf2749abc3e6153de87af304c0805d1f5fec3f9cde2d5ee664736f6c63430008070033\n}\n",
				"bytecode": {
					"linkReferences": {},
					"object": "60a060405234801561001057600080fd5b503373ffffffffffffffffffffffffffffffffffffffff1660808173ffffffffffffffffffffffffffffffffffffffff1660601b8152505060805160601c6113c861007b600039600081816102e1015281816103a60152818161049d01526107e001526113c86000f3fe608060405234801561001057600080fd5b50600436106100a95760003560e01c80634852a212116100715780634852a21214610154578063512d62df146101705780636d705ebb146101a157806372c30f45146101bd5780637aed8136146101d9578063a87430ba146101f5576100a9565b806312065fe0146100ae57806319389b95146100cd5780631e8be099146100e95780632a0acc6a146101055780633613a9f414610123575b600080fd5b6100b6610225565b6040516100c4929190610de4565b60405180910390f35b6100e760048036038101906100e29190610c04565b610270565b005b61010360048036038101906100fe9190610c31565b6102c8565b005b61010d6103a4565b60405161011a9190610dc9565b60405180910390f35b61013d60048036038101906101389190610c04565b6103c8565b60405161014b929190610e0d565b60405180910390f35b61016e60048036038101906101699190610ba8565b610484565b005b61018a60048036038101906101859190610c04565b6105b8565b604051610198929190610e0d565b60405180910390f35b6101bb60048036038101906101b69190610b68565b6106c7565b005b6101d760048036038101906101d29190610c04565b6107c7565b005b6101f360048036038101906101ee9190610c04565b610895565b005b61020f600480360381019061020a9190610b3b565b6109a6565b60405161021c9190610efd565b60405180910390f35b600080336000803373ffffffffffffffffffffffffffffffffffffffff1673ffffffffffffffffffffffffffffffffffffffff16815260200190815260200160002054915091509091565b806000803373ffffffffffffffffffffffffffffffffffffffff1673ffffffffffffffffffffffffffffffffffffffff16815260200190815260200160002060008282546102be9190610f8a565b9250508190555050565b3373ffffffffffffffffffffffffffffffffffffffff167f000000000000000000000000000000000000000000000000000000000000000073ffffffffffffffffffffffffffffffffffffffff1614610356576040517f08c379a000000000000000000000000000000000000000000000000000000000815260040161034d90610e3d565b60405180910390fd5b60006001848154811061036c5761036b611153565b5b90600052602060002090600202019050828160000190805190602001906103949291906109be565b5081816001018190555050505050565b7f000000000000000000000000000000000000000000000000000000000000000081565b600181815481106103d857600080fd5b90600052602060002090600202016000915090508060000180546103fb90611092565b80601f016020809104026020016040519081016040528092919081815260200182805461042790611092565b80156104745780601f1061044957610100808354040283529160200191610474565b820191906000526020600020905b81548152906001019060200180831161045757829003601f168201915b5050505050908060010154905082565b3373ffffffffffffffffffffffffffffffffffffffff167f000000000000000000000000000000000000000000000000000000000000000073ffffffffffffffffffffffffffffffffffffffff1614610512576040517f08c379a000000000000000000000000000000000000000000000000000000000815260040161050990610e7d565b60405180910390fd5b60016040518060400160405280848152602001838152509080600181540180825580915050600190039060005260206000209060020201600090919091909150600082015181600001908051906020019061056e9291906109be565b506020820151816001015550507f14d49e3ea4f348b7f368906dfe1a63055c7822d622a61672a35a55ae97a768f982826040516105ac929190610e0d565b60405180910390a15050565b6060600080600184815481106105d1576105d0611153565b5b906000526020600020906002020190506000816001015414610628576040517f08c379a000000000000000000000000000000000000000000000000000000000815260040161061f90610edd565b60405180910390fd5b80600001816001015481805461063d90611092565b80601f016020809104026020016040519081016040528092919081815260200182805461066990611092565b80156106b65780601f1061068b576101008083540402835291602001916106b6565b820191906000526020600020905b81548152906001019060200180831161069957829003601f168201915b505050505091509250925050915091565b60008060003373ffffffffffffffffffffffffffffffffffffffff1673ffffffffffffffffffffffffffffffffffffffff1681526020019081526020016000205414610748576040517f08c379a000000000000000000000000000000000000000000000000000000000815260040161073f90610e5d565b60405180910390fd5b806000803373ffffffffffffffffffffffffffffffffffffffff1673ffffffffffffffffffffffffffffffffffffffff168152602001908152602001600020819055507e7dc6ab80cc84c043b7b8d4fcafc802187470087f7ea7fccd2e17aecd0256a182826040516107bb929190610de4565b60405180910390a15050565b3373ffffffffffffffffffffffffffffffffffffffff167f000000000000000000000000000000000000000000000000000000000000000073ffffffffffffffffffffffffffffffffffffffff1614610855576040517f08c379a000000000000000000000000000000000000000000000000000000000815260040161084c90610ebd565b60405180910390fd5b6001818154811061086957610868611153565b5b9060005260206000209060020201600080820160006108889190610a44565b6001820160009055505050565b6000600182815481106108ab576108aa611153565b5b9060005260206000209060020201905080600101546000803373ffffffffffffffffffffffffffffffffffffffff1673ffffffffffffffffffffffffffffffffffffffff168152602001908152602001600020541161093f576040517f08c379a000000000000000000000000000000000000000000000000000000000815260040161093690610e9d565b60405180910390fd5b80600101546000803373ffffffffffffffffffffffffffffffffffffffff1673ffffffffffffffffffffffffffffffffffffffff16815260200190815260200160002060008282546109919190610fe0565b925050819055506109a0610225565b50505050565b60006020528060005260406000206000915090505481565b8280546109ca90611092565b90600052602060002090601f0160209004810192826109ec5760008555610a33565b82601f10610a0557805160ff1916838001178555610a33565b82800160010185558215610a33579182015b82811115610a32578251825591602001919060010190610a17565b5b509050610a409190610a84565b5090565b508054610a5090611092565b6000825580601f10610a625750610a81565b601f016020900490600052602060002090810190610a809190610a84565b5b50565b5b80821115610a9d576000816000905550600101610a85565b5090565b6000610ab4610aaf84610f3d565b610f18565b905082815260208101848484011115610ad057610acf6111b6565b5b610adb848285611050565b509392505050565b600081359050610af281611364565b92915050565b600082601f830112610b0d57610b0c6111b1565b5b8135610b1d848260208601610aa1565b91505092915050565b600081359050610b358161137b565b92915050565b600060208284031215610b5157610b506111c0565b5b6000610b5f84828501610ae3565b91505092915050565b60008060408385031215610b7f57610b7e6111c0565b5b6000610b8d85828601610ae3565b9250506020610b9e85828601610b26565b9150509250929050565b60008060408385031215610bbf57610bbe6111c0565b5b600083013567ffffffffffffffff811115610bdd57610bdc6111bb565b5b610be985828601610af8565b9250506020610bfa85828601610b26565b9150509250929050565b600060208284031215610c1a57610c196111c0565b5b6000610c2884828501610b26565b91505092915050565b600080600060608486031215610c4a57610c496111c0565b5b6000610c5886828701610b26565b935050602084013567ffffffffffffffff811115610c7957610c786111bb565b5b610c8586828701610af8565b9250506040610c9686828701610b26565b9150509250925092565b610ca981611014565b82525050565b6000610cba82610f6e565b610cc48185610f79565b9350610cd481856020860161105f565b610cdd816111c5565b840191505092915050565b6000610cf5603483610f79565b9150610d00826111d6565b604082019050919050565b6000610d18602583610f79565b9150610d2382611225565b604082019050919050565b6000610d3b603083610f79565b9150610d4682611274565b604082019050919050565b6000610d5e601e83610f79565b9150610d69826112c3565b602082019050919050565b6000610d81603383610f79565b9150610d8c826112ec565b604082019050919050565b6000610da4601e83610f79565b9150610daf8261133b565b602082019050919050565b610dc381611046565b82525050565b6000602082019050610dde6000830184610ca0565b92915050565b6000604082019050610df96000830185610ca0565b610e066020830184610dba565b9392505050565b60006040820190508181036000830152610e278185610caf565b9050610e366020830184610dba565b9392505050565b60006020820190508181036000830152610e5681610ce8565b9050919050565b60006020820190508181036000830152610e7681610d0b565b9050919050565b60006020820190508181036000830152610e9681610d2e565b9050919050565b60006020820190508181036000830152610eb681610d51565b9050919050565b60006020820190508181036000830152610ed681610d74565b9050919050565b60006020820190508181036000830152610ef681610d97565b9050919050565b6000602082019050610f126000830184610dba565b92915050565b6000610f22610f33565b9050610f2e82826110c4565b919050565b6000604051905090565b600067ffffffffffffffff821115610f5857610f57611182565b5b610f61826111c5565b9050602081019050919050565b600081519050919050565b600082825260208201905092915050565b6000610f9582611046565b9150610fa083611046565b9250827fffffffffffffffffffffffffffffffffffffffffffffffffffffffffffffffff03821115610fd557610fd46110f5565b5b828201905092915050565b6000610feb82611046565b9150610ff683611046565b925082821015611009576110086110f5565b5b828203905092915050565b600061101f82611026565b9050919050565b600073ffffffffffffffffffffffffffffffffffffffff82169050919050565b6000819050919050565b82818337600083830152505050565b60005b8381101561107d578082015181840152602081019050611062565b8381111561108c576000848401525b50505050565b600060028204905060018216806110aa57607f821691505b602082108114156110be576110bd611124565b5b50919050565b6110cd826111c5565b810181811067ffffffffffffffff821117156110ec576110eb611182565b5b80604052505050565b7f4e487b7100000000000000000000000000000000000000000000000000000000600052601160045260246000fd5b7f4e487b7100000000000000000000000000000000000000000000000000000000600052602260045260246000fd5b7f4e487b7100000000000000000000000000000000000000000000000000000000600052603260045260246000fd5b7f4e487b7100000000000000000000000000000000000000000000000000000000600052604160045260246000fd5b600080fd5b600080fd5b600080fd5b600080fd5b6000601f19601f8301169050919050565b7f536f6c6f20656c2041646d696e6973747261646f722064656c2047796d20707560008201527f656465206d6f6469666963617220636c61736573000000000000000000000000602082015250565b7f596120746520656e6375656e74726173207265676973747261646f20656e206560008201527f6c2067796d000000000000000000000000000000000000000000000000000000602082015250565b7f536f6c6f20656c2041646d696e6973747261646f722064656c2047796d20707560008201527f65646520637265617220636c6173657300000000000000000000000000000000602082015250565b7f4e6f207469656e6573206372656469746f7320737566696369656e7465730000600082015250565b7f536f6c6f20656c2041646d696e6973747261646f722064656c2047796d20707560008201527f65646520656c696d696e617220636c6173657300000000000000000000000000602082015250565b7f4e6f2065786973746520756e6120636c61736520636f6e206573652049640000600082015250565b61136d81611014565b811461137857600080fd5b50565b61138481611046565b811461138f57600080fd5b5056fea2646970667358221220bb4576c2c1260212bf2749abc3e6153de87af304c0805d1f5fec3f9cde2d5ee664736f6c63430008070033",
					"opcodes": "PUSH1 0xA0 PUSH1 0x40 MSTORE CALLVALUE DUP1 ISZERO PUSH2 0x10 JUMPI PUSH1 0x0 DUP1 REVERT JUMPDEST POP CALLER PUSH20 0xFFFFFFFFFFFFFFFFFFFFFFFFFFFFFFFFFFFFFFFF AND PUSH1 0x80 DUP2 PUSH20 0xFFFFFFFFFFFFFFFFFFFFFFFFFFFFFFFFFFFFFFFF AND PUSH1 0x60 SHL DUP2 MSTORE POP POP PUSH1 0x80 MLOAD PUSH1 0x60 SHR PUSH2 0x13C8 PUSH2 0x7B PUSH1 0x0 CODECOPY PUSH1 0x0 DUP2 DUP2 PUSH2 0x2E1 ADD MSTORE DUP2 DUP2 PUSH2 0x3A6 ADD MSTORE DUP2 DUP2 PUSH2 0x49D ADD MSTORE PUSH2 0x7E0 ADD MSTORE PUSH2 0x13C8 PUSH1 0x0 RETURN INVALID PUSH1 0x80 PUSH1 0x40 MSTORE CALLVALUE DUP1 ISZERO PUSH2 0x10 JUMPI PUSH1 0x0 DUP1 REVERT JUMPDEST POP PUSH1 0x4 CALLDATASIZE LT PUSH2 0xA9 JUMPI PUSH1 0x0 CALLDATALOAD PUSH1 0xE0 SHR DUP1 PUSH4 0x4852A212 GT PUSH2 0x71 JUMPI DUP1 PUSH4 0x4852A212 EQ PUSH2 0x154 JUMPI DUP1 PUSH4 0x512D62DF EQ PUSH2 0x170 JUMPI DUP1 PUSH4 0x6D705EBB EQ PUSH2 0x1A1 JUMPI DUP1 PUSH4 0x72C30F45 EQ PUSH2 0x1BD JUMPI DUP1 PUSH4 0x7AED8136 EQ PUSH2 0x1D9 JUMPI DUP1 PUSH4 0xA87430BA EQ PUSH2 0x1F5 JUMPI PUSH2 0xA9 JUMP JUMPDEST DUP1 PUSH4 0x12065FE0 EQ PUSH2 0xAE JUMPI DUP1 PUSH4 0x19389B95 EQ PUSH2 0xCD JUMPI DUP1 PUSH4 0x1E8BE099 EQ PUSH2 0xE9 JUMPI DUP1 PUSH4 0x2A0ACC6A EQ PUSH2 0x105 JUMPI DUP1 PUSH4 0x3613A9F4 EQ PUSH2 0x123 JUMPI JUMPDEST PUSH1 0x0 DUP1 REVERT JUMPDEST PUSH2 0xB6 PUSH2 0x225 JUMP JUMPDEST PUSH1 0x40 MLOAD PUSH2 0xC4 SWAP3 SWAP2 SWAP1 PUSH2 0xDE4 JUMP JUMPDEST PUSH1 0x40 MLOAD DUP1 SWAP2 SUB SWAP1 RETURN JUMPDEST PUSH2 0xE7 PUSH1 0x4 DUP1 CALLDATASIZE SUB DUP2 ADD SWAP1 PUSH2 0xE2 SWAP2 SWAP1 PUSH2 0xC04 JUMP JUMPDEST PUSH2 0x270 JUMP JUMPDEST STOP JUMPDEST PUSH2 0x103 PUSH1 0x4 DUP1 CALLDATASIZE SUB DUP2 ADD SWAP1 PUSH2 0xFE SWAP2 SWAP1 PUSH2 0xC31 JUMP JUMPDEST PUSH2 0x2C8 JUMP JUMPDEST STOP JUMPDEST PUSH2 0x10D PUSH2 0x3A4 JUMP JUMPDEST PUSH1 0x40 MLOAD PUSH2 0x11A SWAP2 SWAP1 PUSH2 0xDC9 JUMP JUMPDEST PUSH1 0x40 MLOAD DUP1 SWAP2 SUB SWAP1 RETURN JUMPDEST PUSH2 0x13D PUSH1 0x4 DUP1 CALLDATASIZE SUB DUP2 ADD SWAP1 PUSH2 0x138 SWAP2 SWAP1 PUSH2 0xC04 JUMP JUMPDEST PUSH2 0x3C8 JUMP JUMPDEST PUSH1 0x40 MLOAD PUSH2 0x14B SWAP3 SWAP2 SWAP1 PUSH2 0xE0D JUMP JUMPDEST PUSH1 0x40 MLOAD DUP1 SWAP2 SUB SWAP1 RETURN JUMPDEST PUSH2 0x16E PUSH1 0x4 DUP1 CALLDATASIZE SUB DUP2 ADD SWAP1 PUSH2 0x169 SWAP2 SWAP1 PUSH2 0xBA8 JUMP JUMPDEST PUSH2 0x484 JUMP JUMPDEST STOP JUMPDEST PUSH2 0x18A PUSH1 0x4 DUP1 CALLDATASIZE SUB DUP2 ADD SWAP1 PUSH2 0x185 SWAP2 SWAP1 PUSH2 0xC04 JUMP JUMPDEST PUSH2 0x5B8 JUMP JUMPDEST PUSH1 0x40 MLOAD PUSH2 0x198 SWAP3 SWAP2 SWAP1 PUSH2 0xE0D JUMP JUMPDEST PUSH1 0x40 MLOAD DUP1 SWAP2 SUB SWAP1 RETURN JUMPDEST PUSH2 0x1BB PUSH1 0x4 DUP1 CALLDATASIZE SUB DUP2 ADD SWAP1 PUSH2 0x1B6 SWAP2 SWAP1 PUSH2 0xB68 JUMP JUMPDEST PUSH2 0x6C7 JUMP JUMPDEST STOP JUMPDEST PUSH2 0x1D7 PUSH1 0x4 DUP1 CALLDATASIZE SUB DUP2 ADD SWAP1 PUSH2 0x1D2 SWAP2 SWAP1 PUSH2 0xC04 JUMP JUMPDEST PUSH2 0x7C7 JUMP JUMPDEST STOP JUMPDEST PUSH2 0x1F3 PUSH1 0x4 DUP1 CALLDATASIZE SUB DUP2 ADD SWAP1 PUSH2 0x1EE SWAP2 SWAP1 PUSH2 0xC04 JUMP JUMPDEST PUSH2 0x895 JUMP JUMPDEST STOP JUMPDEST PUSH2 0x20F PUSH1 0x4 DUP1 CALLDATASIZE SUB DUP2 ADD SWAP1 PUSH2 0x20A SWAP2 SWAP1 PUSH2 0xB3B JUMP JUMPDEST PUSH2 0x9A6 JUMP JUMPDEST PUSH1 0x40 MLOAD PUSH2 0x21C SWAP2 SWAP1 PUSH2 0xEFD JUMP JUMPDEST PUSH1 0x40 MLOAD DUP1 SWAP2 SUB SWAP1 RETURN JUMPDEST PUSH1 0x0 DUP1 CALLER PUSH1 0x0 DUP1 CALLER PUSH20 0xFFFFFFFFFFFFFFFFFFFFFFFFFFFFFFFFFFFFFFFF AND PUSH20 0xFFFFFFFFFFFFFFFFFFFFFFFFFFFFFFFFFFFFFFFF AND DUP2 MSTORE PUSH1 0x20 ADD SWAP1 DUP2 MSTORE PUSH1 0x20 ADD PUSH1 0x0 KECCAK256 SLOAD SWAP2 POP SWAP2 POP SWAP1 SWAP2 JUMP JUMPDEST DUP1 PUSH1 0x0 DUP1 CALLER PUSH20 0xFFFFFFFFFFFFFFFFFFFFFFFFFFFFFFFFFFFFFFFF AND PUSH20 0xFFFFFFFFFFFFFFFFFFFFFFFFFFFFFFFFFFFFFFFF AND DUP2 MSTORE PUSH1 0x20 ADD SWAP1 DUP2 MSTORE PUSH1 0x20 ADD PUSH1 0x0 KECCAK256 PUSH1 0x0 DUP3 DUP3 SLOAD PUSH2 0x2BE SWAP2 SWAP1 PUSH2 0xF8A JUMP JUMPDEST SWAP3 POP POP DUP2 SWAP1 SSTORE POP POP JUMP JUMPDEST CALLER PUSH20 0xFFFFFFFFFFFFFFFFFFFFFFFFFFFFFFFFFFFFFFFF AND PUSH32 0x0 PUSH20 0xFFFFFFFFFFFFFFFFFFFFFFFFFFFFFFFFFFFFFFFF AND EQ PUSH2 0x356 JUMPI PUSH1 0x40 MLOAD PUSH32 0x8C379A000000000000000000000000000000000000000000000000000000000 DUP2 MSTORE PUSH1 0x4 ADD PUSH2 0x34D SWAP1 PUSH2 0xE3D JUMP JUMPDEST PUSH1 0x40 MLOAD DUP1 SWAP2 SUB SWAP1 REVERT JUMPDEST PUSH1 0x0 PUSH1 0x1 DUP5 DUP2 SLOAD DUP2 LT PUSH2 0x36C JUMPI PUSH2 0x36B PUSH2 0x1153 JUMP JUMPDEST JUMPDEST SWAP1 PUSH1 0x0 MSTORE PUSH1 0x20 PUSH1 0x0 KECCAK256 SWAP1 PUSH1 0x2 MUL ADD SWAP1 POP DUP3 DUP2 PUSH1 0x0 ADD SWAP1 DUP1 MLOAD SWAP1 PUSH1 0x20 ADD SWAP1 PUSH2 0x394 SWAP3 SWAP2 SWAP1 PUSH2 0x9BE JUMP JUMPDEST POP DUP2 DUP2 PUSH1 0x1 ADD DUP2 SWAP1 SSTORE POP POP POP POP POP JUMP JUMPDEST PUSH32 0x0 DUP2 JUMP JUMPDEST PUSH1 0x1 DUP2 DUP2 SLOAD DUP2 LT PUSH2 0x3D8 JUMPI PUSH1 0x0 DUP1 REVERT JUMPDEST SWAP1 PUSH1 0x0 MSTORE PUSH1 0x20 PUSH1 0x0 KECCAK256 SWAP1 PUSH1 0x2 MUL ADD PUSH1 0x0 SWAP2 POP SWAP1 POP DUP1 PUSH1 0x0 ADD DUP1 SLOAD PUSH2 0x3FB SWAP1 PUSH2 0x1092 JUMP JUMPDEST DUP1 PUSH1 0x1F ADD PUSH1 0x20 DUP1 SWAP2 DIV MUL PUSH1 0x20 ADD PUSH1 0x40 MLOAD SWAP1 DUP2 ADD PUSH1 0x40 MSTORE DUP1 SWAP3 SWAP2 SWAP1 DUP2 DUP2 MSTORE PUSH1 0x20 ADD DUP3 DUP1 SLOAD PUSH2 0x427 SWAP1 PUSH2 0x1092 JUMP JUMPDEST DUP1 ISZERO PUSH2 0x474 JUMPI DUP1 PUSH1 0x1F LT PUSH2 0x449 JUMPI PUSH2 0x100 DUP1 DUP4 SLOAD DIV MUL DUP4 MSTORE SWAP2 PUSH1 0x20 ADD SWAP2 PUSH2 0x474 JUMP JUMPDEST DUP3 ADD SWAP2 SWAP1 PUSH1 0x0 MSTORE PUSH1 0x20 PUSH1 0x0 KECCAK256 SWAP1 JUMPDEST DUP2 SLOAD DUP2 MSTORE SWAP1 PUSH1 0x1 ADD SWAP1 PUSH1 0x20 ADD DUP1 DUP4 GT PUSH2 0x457 JUMPI DUP3 SWAP1 SUB PUSH1 0x1F AND DUP3 ADD SWAP2 JUMPDEST POP POP POP POP POP SWAP1 DUP1 PUSH1 0x1 ADD SLOAD SWAP1 POP DUP3 JUMP JUMPDEST CALLER PUSH20 0xFFFFFFFFFFFFFFFFFFFFFFFFFFFFFFFFFFFFFFFF AND PUSH32 0x0 PUSH20 0xFFFFFFFFFFFFFFFFFFFFFFFFFFFFFFFFFFFFFFFF AND EQ PUSH2 0x512 JUMPI PUSH1 0x40 MLOAD PUSH32 0x8C379A000000000000000000000000000000000000000000000000000000000 DUP2 MSTORE PUSH1 0x4 ADD PUSH2 0x509 SWAP1 PUSH2 0xE7D JUMP JUMPDEST PUSH1 0x40 MLOAD DUP1 SWAP2 SUB SWAP1 REVERT JUMPDEST PUSH1 0x1 PUSH1 0x40 MLOAD DUP1 PUSH1 0x40 ADD PUSH1 0x40 MSTORE DUP1 DUP5 DUP2 MSTORE PUSH1 0x20 ADD DUP4 DUP2 MSTORE POP SWAP1 DUP1 PUSH1 0x1 DUP2 SLOAD ADD DUP1 DUP3 SSTORE DUP1 SWAP2 POP POP PUSH1 0x1 SWAP1 SUB SWAP1 PUSH1 0x0 MSTORE PUSH1 0x20 PUSH1 0x0 KECCAK256 SWAP1 PUSH1 0x2 MUL ADD PUSH1 0x0 SWAP1 SWAP2 SWAP1 SWAP2 SWAP1 SWAP2 POP PUSH1 0x0 DUP3 ADD MLOAD DUP2 PUSH1 0x0 ADD SWAP1 DUP1 MLOAD SWAP1 PUSH1 0x20 ADD SWAP1 PUSH2 0x56E SWAP3 SWAP2 SWAP1 PUSH2 0x9BE JUMP JUMPDEST POP PUSH1 0x20 DUP3 ADD MLOAD DUP2 PUSH1 0x1 ADD SSTORE POP POP PUSH32 0x14D49E3EA4F348B7F368906DFE1A63055C7822D622A61672A35A55AE97A768F9 DUP3 DUP3 PUSH1 0x40 MLOAD PUSH2 0x5AC SWAP3 SWAP2 SWAP1 PUSH2 0xE0D JUMP JUMPDEST PUSH1 0x40 MLOAD DUP1 SWAP2 SUB SWAP1 LOG1 POP POP JUMP JUMPDEST PUSH1 0x60 PUSH1 0x0 DUP1 PUSH1 0x1 DUP5 DUP2 SLOAD DUP2 LT PUSH2 0x5D1 JUMPI PUSH2 0x5D0 PUSH2 0x1153 JUMP JUMPDEST JUMPDEST SWAP1 PUSH1 0x0 MSTORE PUSH1 0x20 PUSH1 0x0 KECCAK256 SWAP1 PUSH1 0x2 MUL ADD SWAP1 POP PUSH1 0x0 DUP2 PUSH1 0x1 ADD SLOAD EQ PUSH2 0x628 JUMPI PUSH1 0x40 MLOAD PUSH32 0x8C379A000000000000000000000000000000000000000000000000000000000 DUP2 MSTORE PUSH1 0x4 ADD PUSH2 0x61F SWAP1 PUSH2 0xEDD JUMP JUMPDEST PUSH1 0x40 MLOAD DUP1 SWAP2 SUB SWAP1 REVERT JUMPDEST DUP1 PUSH1 0x0 ADD DUP2 PUSH1 0x1 ADD SLOAD DUP2 DUP1 SLOAD PUSH2 0x63D SWAP1 PUSH2 0x1092 JUMP JUMPDEST DUP1 PUSH1 0x1F ADD PUSH1 0x20 DUP1 SWAP2 DIV MUL PUSH1 0x20 ADD PUSH1 0x40 MLOAD SWAP1 DUP2 ADD PUSH1 0x40 MSTORE DUP1 SWAP3 SWAP2 SWAP1 DUP2 DUP2 MSTORE PUSH1 0x20 ADD DUP3 DUP1 SLOAD PUSH2 0x669 SWAP1 PUSH2 0x1092 JUMP JUMPDEST DUP1 ISZERO PUSH2 0x6B6 JUMPI DUP1 PUSH1 0x1F LT PUSH2 0x68B JUMPI PUSH2 0x100 DUP1 DUP4 SLOAD DIV MUL DUP4 MSTORE SWAP2 PUSH1 0x20 ADD SWAP2 PUSH2 0x6B6 JUMP JUMPDEST DUP3 ADD SWAP2 SWAP1 PUSH1 0x0 MSTORE PUSH1 0x20 PUSH1 0x0 KECCAK256 SWAP1 JUMPDEST DUP2 SLOAD DUP2 MSTORE SWAP1 PUSH1 0x1 ADD SWAP1 PUSH1 0x20 ADD DUP1 DUP4 GT PUSH2 0x699 JUMPI DUP3 SWAP1 SUB PUSH1 0x1F AND DUP3 ADD SWAP2 JUMPDEST POP POP POP POP POP SWAP2 POP SWAP3 POP SWAP3 POP POP SWAP2 POP SWAP2 JUMP JUMPDEST PUSH1 0x0 DUP1 PUSH1 0x0 CALLER PUSH20 0xFFFFFFFFFFFFFFFFFFFFFFFFFFFFFFFFFFFFFFFF AND PUSH20 0xFFFFFFFFFFFFFFFFFFFFFFFFFFFFFFFFFFFFFFFF AND DUP2 MSTORE PUSH1 0x20 ADD SWAP1 DUP2 MSTORE PUSH1 0x20 ADD PUSH1 0x0 KECCAK256 SLOAD EQ PUSH2 0x748 JUMPI PUSH1 0x40 MLOAD PUSH32 0x8C379A000000000000000000000000000000000000000000000000000000000 DUP2 MSTORE PUSH1 0x4 ADD PUSH2 0x73F SWAP1 PUSH2 0xE5D JUMP JUMPDEST PUSH1 0x40 MLOAD DUP1 SWAP2 SUB SWAP1 REVERT JUMPDEST DUP1 PUSH1 0x0 DUP1 CALLER PUSH20 0xFFFFFFFFFFFFFFFFFFFFFFFFFFFFFFFFFFFFFFFF AND PUSH20 0xFFFFFFFFFFFFFFFFFFFFFFFFFFFFFFFFFFFFFFFF AND DUP2 MSTORE PUSH1 0x20 ADD SWAP1 DUP2 MSTORE PUSH1 0x20 ADD PUSH1 0x0 KECCAK256 DUP2 SWAP1 SSTORE POP PUSH31 0x7DC6AB80CC84C043B7B8D4FCAFC802187470087F7EA7FCCD2E17AECD0256A1 DUP3 DUP3 PUSH1 0x40 MLOAD PUSH2 0x7BB SWAP3 SWAP2 SWAP1 PUSH2 0xDE4 JUMP JUMPDEST PUSH1 0x40 MLOAD DUP1 SWAP2 SUB SWAP1 LOG1 POP POP JUMP JUMPDEST CALLER PUSH20 0xFFFFFFFFFFFFFFFFFFFFFFFFFFFFFFFFFFFFFFFF AND PUSH32 0x0 PUSH20 0xFFFFFFFFFFFFFFFFFFFFFFFFFFFFFFFFFFFFFFFF AND EQ PUSH2 0x855 JUMPI PUSH1 0x40 MLOAD PUSH32 0x8C379A000000000000000000000000000000000000000000000000000000000 DUP2 MSTORE PUSH1 0x4 ADD PUSH2 0x84C SWAP1 PUSH2 0xEBD JUMP JUMPDEST PUSH1 0x40 MLOAD DUP1 SWAP2 SUB SWAP1 REVERT JUMPDEST PUSH1 0x1 DUP2 DUP2 SLOAD DUP2 LT PUSH2 0x869 JUMPI PUSH2 0x868 PUSH2 0x1153 JUMP JUMPDEST JUMPDEST SWAP1 PUSH1 0x0 MSTORE PUSH1 0x20 PUSH1 0x0 KECCAK256 SWAP1 PUSH1 0x2 MUL ADD PUSH1 0x0 DUP1 DUP3 ADD PUSH1 0x0 PUSH2 0x888 SWAP2 SWAP1 PUSH2 0xA44 JUMP JUMPDEST PUSH1 0x1 DUP3 ADD PUSH1 0x0 SWAP1 SSTORE POP POP POP JUMP JUMPDEST PUSH1 0x0 PUSH1 0x1 DUP3 DUP2 SLOAD DUP2 LT PUSH2 0x8AB JUMPI PUSH2 0x8AA PUSH2 0x1153 JUMP JUMPDEST JUMPDEST SWAP1 PUSH1 0x0 MSTORE PUSH1 0x20 PUSH1 0x0 KECCAK256 SWAP1 PUSH1 0x2 MUL ADD SWAP1 POP DUP1 PUSH1 0x1 ADD SLOAD PUSH1 0x0 DUP1 CALLER PUSH20 0xFFFFFFFFFFFFFFFFFFFFFFFFFFFFFFFFFFFFFFFF AND PUSH20 0xFFFFFFFFFFFFFFFFFFFFFFFFFFFFFFFFFFFFFFFF AND DUP2 MSTORE PUSH1 0x20 ADD SWAP1 DUP2 MSTORE PUSH1 0x20 ADD PUSH1 0x0 KECCAK256 SLOAD GT PUSH2 0x93F JUMPI PUSH1 0x40 MLOAD PUSH32 0x8C379A000000000000000000000000000000000000000000000000000000000 DUP2 MSTORE PUSH1 0x4 ADD PUSH2 0x936 SWAP1 PUSH2 0xE9D JUMP JUMPDEST PUSH1 0x40 MLOAD DUP1 SWAP2 SUB SWAP1 REVERT JUMPDEST DUP1 PUSH1 0x1 ADD SLOAD PUSH1 0x0 DUP1 CALLER PUSH20 0xFFFFFFFFFFFFFFFFFFFFFFFFFFFFFFFFFFFFFFFF AND PUSH20 0xFFFFFFFFFFFFFFFFFFFFFFFFFFFFFFFFFFFFFFFF AND DUP2 MSTORE PUSH1 0x20 ADD SWAP1 DUP2 MSTORE PUSH1 0x20 ADD PUSH1 0x0 KECCAK256 PUSH1 0x0 DUP3 DUP3 SLOAD PUSH2 0x991 SWAP2 SWAP1 PUSH2 0xFE0 JUMP JUMPDEST SWAP3 POP POP DUP2 SWAP1 SSTORE POP PUSH2 0x9A0 PUSH2 0x225 JUMP JUMPDEST POP POP POP POP JUMP JUMPDEST PUSH1 0x0 PUSH1 0x20 MSTORE DUP1 PUSH1 0x0 MSTORE PUSH1 0x40 PUSH1 0x0 KECCAK256 PUSH1 0x0 SWAP2 POP SWAP1 POP SLOAD DUP2 JUMP JUMPDEST DUP3 DUP1 SLOAD PUSH2 0x9CA SWAP1 PUSH2 0x1092 JUMP JUMPDEST SWAP1 PUSH1 0x0 MSTORE PUSH1 0x20 PUSH1 0x0 KECCAK256 SWAP1 PUSH1 0x1F ADD PUSH1 0x20 SWAP1 DIV DUP2 ADD SWAP3 DUP3 PUSH2 0x9EC JUMPI PUSH1 0x0 DUP6 SSTORE PUSH2 0xA33 JUMP JUMPDEST DUP3 PUSH1 0x1F LT PUSH2 0xA05 JUMPI DUP1 MLOAD PUSH1 0xFF NOT AND DUP4 DUP1 ADD OR DUP6 SSTORE PUSH2 0xA33 JUMP JUMPDEST DUP3 DUP1 ADD PUSH1 0x1 ADD DUP6 SSTORE DUP3 ISZERO PUSH2 0xA33 JUMPI SWAP2 DUP3 ADD JUMPDEST DUP3 DUP2 GT ISZERO PUSH2 0xA32 JUMPI DUP3 MLOAD DUP3 SSTORE SWAP2 PUSH1 0x20 ADD SWAP2 SWAP1 PUSH1 0x1 ADD SWAP1 PUSH2 0xA17 JUMP JUMPDEST JUMPDEST POP SWAP1 POP PUSH2 0xA40 SWAP2 SWAP1 PUSH2 0xA84 JUMP JUMPDEST POP SWAP1 JUMP JUMPDEST POP DUP1 SLOAD PUSH2 0xA50 SWAP1 PUSH2 0x1092 JUMP JUMPDEST PUSH1 0x0 DUP3 SSTORE DUP1 PUSH1 0x1F LT PUSH2 0xA62 JUMPI POP PUSH2 0xA81 JUMP JUMPDEST PUSH1 0x1F ADD PUSH1 0x20 SWAP1 DIV SWAP1 PUSH1 0x0 MSTORE PUSH1 0x20 PUSH1 0x0 KECCAK256 SWAP1 DUP2 ADD SWAP1 PUSH2 0xA80 SWAP2 SWAP1 PUSH2 0xA84 JUMP JUMPDEST JUMPDEST POP JUMP JUMPDEST JUMPDEST DUP1 DUP3 GT ISZERO PUSH2 0xA9D JUMPI PUSH1 0x0 DUP2 PUSH1 0x0 SWAP1 SSTORE POP PUSH1 0x1 ADD PUSH2 0xA85 JUMP JUMPDEST POP SWAP1 JUMP JUMPDEST PUSH1 0x0 PUSH2 0xAB4 PUSH2 0xAAF DUP5 PUSH2 0xF3D JUMP JUMPDEST PUSH2 0xF18 JUMP JUMPDEST SWAP1 POP DUP3 DUP2 MSTORE PUSH1 0x20 DUP2 ADD DUP5 DUP5 DUP5 ADD GT ISZERO PUSH2 0xAD0 JUMPI PUSH2 0xACF PUSH2 0x11B6 JUMP JUMPDEST JUMPDEST PUSH2 0xADB DUP5 DUP3 DUP6 PUSH2 0x1050 JUMP JUMPDEST POP SWAP4 SWAP3 POP POP POP JUMP JUMPDEST PUSH1 0x0 DUP2 CALLDATALOAD SWAP1 POP PUSH2 0xAF2 DUP2 PUSH2 0x1364 JUMP JUMPDEST SWAP3 SWAP2 POP POP JUMP JUMPDEST PUSH1 0x0 DUP3 PUSH1 0x1F DUP4 ADD SLT PUSH2 0xB0D JUMPI PUSH2 0xB0C PUSH2 0x11B1 JUMP JUMPDEST JUMPDEST DUP2 CALLDATALOAD PUSH2 0xB1D DUP5 DUP3 PUSH1 0x20 DUP7 ADD PUSH2 0xAA1 JUMP JUMPDEST SWAP2 POP POP SWAP3 SWAP2 POP POP JUMP JUMPDEST PUSH1 0x0 DUP2 CALLDATALOAD SWAP1 POP PUSH2 0xB35 DUP2 PUSH2 0x137B JUMP JUMPDEST SWAP3 SWAP2 POP POP JUMP JUMPDEST PUSH1 0x0 PUSH1 0x20 DUP3 DUP5 SUB SLT ISZERO PUSH2 0xB51 JUMPI PUSH2 0xB50 PUSH2 0x11C0 JUMP JUMPDEST JUMPDEST PUSH1 0x0 PUSH2 0xB5F DUP5 DUP3 DUP6 ADD PUSH2 0xAE3 JUMP JUMPDEST SWAP2 POP POP SWAP3 SWAP2 POP POP JUMP JUMPDEST PUSH1 0x0 DUP1 PUSH1 0x40 DUP4 DUP6 SUB SLT ISZERO PUSH2 0xB7F JUMPI PUSH2 0xB7E PUSH2 0x11C0 JUMP JUMPDEST JUMPDEST PUSH1 0x0 PUSH2 0xB8D DUP6 DUP3 DUP7 ADD PUSH2 0xAE3 JUMP JUMPDEST SWAP3 POP POP PUSH1 0x20 PUSH2 0xB9E DUP6 DUP3 DUP7 ADD PUSH2 0xB26 JUMP JUMPDEST SWAP2 POP POP SWAP3 POP SWAP3 SWAP1 POP JUMP JUMPDEST PUSH1 0x0 DUP1 PUSH1 0x40 DUP4 DUP6 SUB SLT ISZERO PUSH2 0xBBF JUMPI PUSH2 0xBBE PUSH2 0x11C0 JUMP JUMPDEST JUMPDEST PUSH1 0x0 DUP4 ADD CALLDATALOAD PUSH8 0xFFFFFFFFFFFFFFFF DUP2 GT ISZERO PUSH2 0xBDD JUMPI PUSH2 0xBDC PUSH2 0x11BB JUMP JUMPDEST JUMPDEST PUSH2 0xBE9 DUP6 DUP3 DUP7 ADD PUSH2 0xAF8 JUMP JUMPDEST SWAP3 POP POP PUSH1 0x20 PUSH2 0xBFA DUP6 DUP3 DUP7 ADD PUSH2 0xB26 JUMP JUMPDEST SWAP2 POP POP SWAP3 POP SWAP3 SWAP1 POP JUMP JUMPDEST PUSH1 0x0 PUSH1 0x20 DUP3 DUP5 SUB SLT ISZERO PUSH2 0xC1A JUMPI PUSH2 0xC19 PUSH2 0x11C0 JUMP JUMPDEST JUMPDEST PUSH1 0x0 PUSH2 0xC28 DUP5 DUP3 DUP6 ADD PUSH2 0xB26 JUMP JUMPDEST SWAP2 POP POP SWAP3 SWAP2 POP POP JUMP JUMPDEST PUSH1 0x0 DUP1 PUSH1 0x0 PUSH1 0x60 DUP5 DUP7 SUB SLT ISZERO PUSH2 0xC4A JUMPI PUSH2 0xC49 PUSH2 0x11C0 JUMP JUMPDEST JUMPDEST PUSH1 0x0 PUSH2 0xC58 DUP7 DUP3 DUP8 ADD PUSH2 0xB26 JUMP JUMPDEST SWAP4 POP POP PUSH1 0x20 DUP5 ADD CALLDATALOAD PUSH8 0xFFFFFFFFFFFFFFFF DUP2 GT ISZERO PUSH2 0xC79 JUMPI PUSH2 0xC78 PUSH2 0x11BB JUMP JUMPDEST JUMPDEST PUSH2 0xC85 DUP7 DUP3 DUP8 ADD PUSH2 0xAF8 JUMP JUMPDEST SWAP3 POP POP PUSH1 0x40 PUSH2 0xC96 DUP7 DUP3 DUP8 ADD PUSH2 0xB26 JUMP JUMPDEST SWAP2 POP POP SWAP3 POP SWAP3 POP SWAP3 JUMP JUMPDEST PUSH2 0xCA9 DUP2 PUSH2 0x1014 JUMP JUMPDEST DUP3 MSTORE POP POP JUMP JUMPDEST PUSH1 0x0 PUSH2 0xCBA DUP3 PUSH2 0xF6E JUMP JUMPDEST PUSH2 0xCC4 DUP2 DUP6 PUSH2 0xF79 JUMP JUMPDEST SWAP4 POP PUSH2 0xCD4 DUP2 DUP6 PUSH1 0x20 DUP7 ADD PUSH2 0x105F JUMP JUMPDEST PUSH2 0xCDD DUP2 PUSH2 0x11C5 JUMP JUMPDEST DUP5 ADD SWAP2 POP POP SWAP3 SWAP2 POP POP JUMP JUMPDEST PUSH1 0x0 PUSH2 0xCF5 PUSH1 0x34 DUP4 PUSH2 0xF79 JUMP JUMPDEST SWAP2 POP PUSH2 0xD00 DUP3 PUSH2 0x11D6 JUMP JUMPDEST PUSH1 0x40 DUP3 ADD SWAP1 POP SWAP2 SWAP1 POP JUMP JUMPDEST PUSH1 0x0 PUSH2 0xD18 PUSH1 0x25 DUP4 PUSH2 0xF79 JUMP JUMPDEST SWAP2 POP PUSH2 0xD23 DUP3 PUSH2 0x1225 JUMP JUMPDEST PUSH1 0x40 DUP3 ADD SWAP1 POP SWAP2 SWAP1 POP JUMP JUMPDEST PUSH1 0x0 PUSH2 0xD3B PUSH1 0x30 DUP4 PUSH2 0xF79 JUMP JUMPDEST SWAP2 POP PUSH2 0xD46 DUP3 PUSH2 0x1274 JUMP JUMPDEST PUSH1 0x40 DUP3 ADD SWAP1 POP SWAP2 SWAP1 POP JUMP JUMPDEST PUSH1 0x0 PUSH2 0xD5E PUSH1 0x1E DUP4 PUSH2 0xF79 JUMP JUMPDEST SWAP2 POP PUSH2 0xD69 DUP3 PUSH2 0x12C3 JUMP JUMPDEST PUSH1 0x20 DUP3 ADD SWAP1 POP SWAP2 SWAP1 POP JUMP JUMPDEST PUSH1 0x0 PUSH2 0xD81 PUSH1 0x33 DUP4 PUSH2 0xF79 JUMP JUMPDEST SWAP2 POP PUSH2 0xD8C DUP3 PUSH2 0x12EC JUMP JUMPDEST PUSH1 0x40 DUP3 ADD SWAP1 POP SWAP2 SWAP1 POP JUMP JUMPDEST PUSH1 0x0 PUSH2 0xDA4 PUSH1 0x1E DUP4 PUSH2 0xF79 JUMP JUMPDEST SWAP2 POP PUSH2 0xDAF DUP3 PUSH2 0x133B JUMP JUMPDEST PUSH1 0x20 DUP3 ADD SWAP1 POP SWAP2 SWAP1 POP JUMP JUMPDEST PUSH2 0xDC3 DUP2 PUSH2 0x1046 JUMP JUMPDEST DUP3 MSTORE POP POP JUMP JUMPDEST PUSH1 0x0 PUSH1 0x20 DUP3 ADD SWAP1 POP PUSH2 0xDDE PUSH1 0x0 DUP4 ADD DUP5 PUSH2 0xCA0 JUMP JUMPDEST SWAP3 SWAP2 POP POP JUMP JUMPDEST PUSH1 0x0 PUSH1 0x40 DUP3 ADD SWAP1 POP PUSH2 0xDF9 PUSH1 0x0 DUP4 ADD DUP6 PUSH2 0xCA0 JUMP JUMPDEST PUSH2 0xE06 PUSH1 0x20 DUP4 ADD DUP5 PUSH2 0xDBA JUMP JUMPDEST SWAP4 SWAP3 POP POP POP JUMP JUMPDEST PUSH1 0x0 PUSH1 0x40 DUP3 ADD SWAP1 POP DUP2 DUP2 SUB PUSH1 0x0 DUP4 ADD MSTORE PUSH2 0xE27 DUP2 DUP6 PUSH2 0xCAF JUMP JUMPDEST SWAP1 POP PUSH2 0xE36 PUSH1 0x20 DUP4 ADD DUP5 PUSH2 0xDBA JUMP JUMPDEST SWAP4 SWAP3 POP POP POP JUMP JUMPDEST PUSH1 0x0 PUSH1 0x20 DUP3 ADD SWAP1 POP DUP2 DUP2 SUB PUSH1 0x0 DUP4 ADD MSTORE PUSH2 0xE56 DUP2 PUSH2 0xCE8 JUMP JUMPDEST SWAP1 POP SWAP2 SWAP1 POP JUMP JUMPDEST PUSH1 0x0 PUSH1 0x20 DUP3 ADD SWAP1 POP DUP2 DUP2 SUB PUSH1 0x0 DUP4 ADD MSTORE PUSH2 0xE76 DUP2 PUSH2 0xD0B JUMP JUMPDEST SWAP1 POP SWAP2 SWAP1 POP JUMP JUMPDEST PUSH1 0x0 PUSH1 0x20 DUP3 ADD SWAP1 POP DUP2 DUP2 SUB PUSH1 0x0 DUP4 ADD MSTORE PUSH2 0xE96 DUP2 PUSH2 0xD2E JUMP JUMPDEST SWAP1 POP SWAP2 SWAP1 POP JUMP JUMPDEST PUSH1 0x0 PUSH1 0x20 DUP3 ADD SWAP1 POP DUP2 DUP2 SUB PUSH1 0x0 DUP4 ADD MSTORE PUSH2 0xEB6 DUP2 PUSH2 0xD51 JUMP JUMPDEST SWAP1 POP SWAP2 SWAP1 POP JUMP JUMPDEST PUSH1 0x0 PUSH1 0x20 DUP3 ADD SWAP1 POP DUP2 DUP2 SUB PUSH1 0x0 DUP4 ADD MSTORE PUSH2 0xED6 DUP2 PUSH2 0xD74 JUMP JUMPDEST SWAP1 POP SWAP2 SWAP1 POP JUMP JUMPDEST PUSH1 0x0 PUSH1 0x20 DUP3 ADD SWAP1 POP DUP2 DUP2 SUB PUSH1 0x0 DUP4 ADD MSTORE PUSH2 0xEF6 DUP2 PUSH2 0xD97 JUMP JUMPDEST SWAP1 POP SWAP2 SWAP1 POP JUMP JUMPDEST PUSH1 0x0 PUSH1 0x20 DUP3 ADD SWAP1 POP PUSH2 0xF12 PUSH1 0x0 DUP4 ADD DUP5 PUSH2 0xDBA JUMP JUMPDEST SWAP3 SWAP2 POP POP JUMP JUMPDEST PUSH1 0x0 PUSH2 0xF22 PUSH2 0xF33 JUMP JUMPDEST SWAP1 POP PUSH2 0xF2E DUP3 DUP3 PUSH2 0x10C4 JUMP JUMPDEST SWAP2 SWAP1 POP JUMP JUMPDEST PUSH1 0x0 PUSH1 0x40 MLOAD SWAP1 POP SWAP1 JUMP JUMPDEST PUSH1 0x0 PUSH8 0xFFFFFFFFFFFFFFFF DUP3 GT ISZERO PUSH2 0xF58 JUMPI PUSH2 0xF57 PUSH2 0x1182 JUMP JUMPDEST JUMPDEST PUSH2 0xF61 DUP3 PUSH2 0x11C5 JUMP JUMPDEST SWAP1 POP PUSH1 0x20 DUP2 ADD SWAP1 POP SWAP2 SWAP1 POP JUMP JUMPDEST PUSH1 0x0 DUP2 MLOAD SWAP1 POP SWAP2 SWAP1 POP JUMP JUMPDEST PUSH1 0x0 DUP3 DUP3 MSTORE PUSH1 0x20 DUP3 ADD SWAP1 POP SWAP3 SWAP2 POP POP JUMP JUMPDEST PUSH1 0x0 PUSH2 0xF95 DUP3 PUSH2 0x1046 JUMP JUMPDEST SWAP2 POP PUSH2 0xFA0 DUP4 PUSH2 0x1046 JUMP JUMPDEST SWAP3 POP DUP3 PUSH32 0xFFFFFFFFFFFFFFFFFFFFFFFFFFFFFFFFFFFFFFFFFFFFFFFFFFFFFFFFFFFFFFFF SUB DUP3 GT ISZERO PUSH2 0xFD5 JUMPI PUSH2 0xFD4 PUSH2 0x10F5 JUMP JUMPDEST JUMPDEST DUP3 DUP3 ADD SWAP1 POP SWAP3 SWAP2 POP POP JUMP JUMPDEST PUSH1 0x0 PUSH2 0xFEB DUP3 PUSH2 0x1046 JUMP JUMPDEST SWAP2 POP PUSH2 0xFF6 DUP4 PUSH2 0x1046 JUMP JUMPDEST SWAP3 POP DUP3 DUP3 LT ISZERO PUSH2 0x1009 JUMPI PUSH2 0x1008 PUSH2 0x10F5 JUMP JUMPDEST JUMPDEST DUP3 DUP3 SUB SWAP1 POP SWAP3 SWAP2 POP POP JUMP JUMPDEST PUSH1 0x0 PUSH2 0x101F DUP3 PUSH2 0x1026 JUMP JUMPDEST SWAP1 POP SWAP2 SWAP1 POP JUMP JUMPDEST PUSH1 0x0 PUSH20 0xFFFFFFFFFFFFFFFFFFFFFFFFFFFFFFFFFFFFFFFF DUP3 AND SWAP1 POP SWAP2 SWAP1 POP JUMP JUMPDEST PUSH1 0x0 DUP2 SWAP1 POP SWAP2 SWAP1 POP JUMP JUMPDEST DUP3 DUP2 DUP4 CALLDATACOPY PUSH1 0x0 DUP4 DUP4 ADD MSTORE POP POP POP JUMP JUMPDEST PUSH1 0x0 JUMPDEST DUP4 DUP2 LT ISZERO PUSH2 0x107D JUMPI DUP1 DUP3 ADD MLOAD DUP2 DUP5 ADD MSTORE PUSH1 0x20 DUP2 ADD SWAP1 POP PUSH2 0x1062 JUMP JUMPDEST DUP4 DUP2 GT ISZERO PUSH2 0x108C JUMPI PUSH1 0x0 DUP5 DUP5 ADD MSTORE JUMPDEST POP POP POP POP JUMP JUMPDEST PUSH1 0x0 PUSH1 0x2 DUP3 DIV SWAP1 POP PUSH1 0x1 DUP3 AND DUP1 PUSH2 0x10AA JUMPI PUSH1 0x7F DUP3 AND SWAP2 POP JUMPDEST PUSH1 0x20 DUP3 LT DUP2 EQ ISZERO PUSH2 0x10BE JUMPI PUSH2 0x10BD PUSH2 0x1124 JUMP JUMPDEST JUMPDEST POP SWAP2 SWAP1 POP JUMP JUMPDEST PUSH2 0x10CD DUP3 PUSH2 0x11C5 JUMP JUMPDEST DUP2 ADD DUP2 DUP2 LT PUSH8 0xFFFFFFFFFFFFFFFF DUP3 GT OR ISZERO PUSH2 0x10EC JUMPI PUSH2 0x10EB PUSH2 0x1182 JUMP JUMPDEST JUMPDEST DUP1 PUSH1 0x40 MSTORE POP POP POP JUMP JUMPDEST PUSH32 0x4E487B7100000000000000000000000000000000000000000000000000000000 PUSH1 0x0 MSTORE PUSH1 0x11 PUSH1 0x4 MSTORE PUSH1 0x24 PUSH1 0x0 REVERT JUMPDEST PUSH32 0x4E487B7100000000000000000000000000000000000000000000000000000000 PUSH1 0x0 MSTORE PUSH1 0x22 PUSH1 0x4 MSTORE PUSH1 0x24 PUSH1 0x0 REVERT JUMPDEST PUSH32 0x4E487B7100000000000000000000000000000000000000000000000000000000 PUSH1 0x0 MSTORE PUSH1 0x32 PUSH1 0x4 MSTORE PUSH1 0x24 PUSH1 0x0 REVERT JUMPDEST PUSH32 0x4E487B7100000000000000000000000000000000000000000000000000000000 PUSH1 0x0 MSTORE PUSH1 0x41 PUSH1 0x4 MSTORE PUSH1 0x24 PUSH1 0x0 REVERT JUMPDEST PUSH1 0x0 DUP1 REVERT JUMPDEST PUSH1 0x0 DUP1 REVERT JUMPDEST PUSH1 0x0 DUP1 REVERT JUMPDEST PUSH1 0x0 DUP1 REVERT JUMPDEST PUSH1 0x0 PUSH1 0x1F NOT PUSH1 0x1F DUP4 ADD AND SWAP1 POP SWAP2 SWAP1 POP JUMP JUMPDEST PUSH32 0x536F6C6F20656C2041646D696E6973747261646F722064656C2047796D207075 PUSH1 0x0 DUP3 ADD MSTORE PUSH32 0x656465206D6F6469666963617220636C61736573000000000000000000000000 PUSH1 0x20 DUP3 ADD MSTORE POP JUMP JUMPDEST PUSH32 0x596120746520656E6375656E74726173207265676973747261646F20656E2065 PUSH1 0x0 DUP3 ADD MSTORE PUSH32 0x6C2067796D000000000000000000000000000000000000000000000000000000 PUSH1 0x20 DUP3 ADD MSTORE POP JUMP JUMPDEST PUSH32 0x536F6C6F20656C2041646D696E6973747261646F722064656C2047796D207075 PUSH1 0x0 DUP3 ADD MSTORE PUSH32 0x65646520637265617220636C6173657300000000000000000000000000000000 PUSH1 0x20 DUP3 ADD MSTORE POP JUMP JUMPDEST PUSH32 0x4E6F207469656E6573206372656469746F7320737566696369656E7465730000 PUSH1 0x0 DUP3 ADD MSTORE POP JUMP JUMPDEST PUSH32 0x536F6C6F20656C2041646D696E6973747261646F722064656C2047796D207075 PUSH1 0x0 DUP3 ADD MSTORE PUSH32 0x65646520656C696D696E617220636C6173657300000000000000000000000000 PUSH1 0x20 DUP3 ADD MSTORE POP JUMP JUMPDEST PUSH32 0x4E6F2065786973746520756E6120636C61736520636F6E206573652049640000 PUSH1 0x0 DUP3 ADD MSTORE POP JUMP JUMPDEST PUSH2 0x136D DUP2 PUSH2 0x1014 JUMP JUMPDEST DUP2 EQ PUSH2 0x1378 JUMPI PUSH1 0x0 DUP1 REVERT JUMPDEST POP JUMP JUMPDEST PUSH2 0x1384 DUP2 PUSH2 0x1046 JUMP JUMPDEST DUP2 EQ PUSH2 0x138F JUMPI PUSH1 0x0 DUP1 REVERT JUMPDEST POP JUMP INVALID LOG2 PUSH5 0x6970667358 0x22 SLT KECCAK256 0xBB GASLIMIT PUSH23 0xC2C1260212BF2749ABC3E6153DE87AF304C0805D1F5FEC EXTCODEHASH SWAP13 0xDE 0x2D 0x5E 0xE6 PUSH5 0x736F6C6343 STOP ADDMOD SMOD STOP CALLER "
				},
				"gasEstimates": {
					"creation": {
						"codeDepositCost": "1012800",
						"executionCost": "infinite",
						"totalCost": "infinite"
					},
					"external": {
						"ADMIN()": "infinite",
						"class(uint256)": "infinite",
						"createClass(string,uint256)": "infinite",
						"getBalance()": "2689",
						"getClass(uint256)": "infinite",
						"getCredits(uint256)": "infinite",
						"register(address,uint256)": "infinite",
						"removeClass(uint256)": "infinite",
						"takeClass(uint256)": "infinite",
						"updateClass(uint256,string,uint256)": "infinite",
						"users(address)": "2924"
					}
				},
				"methodIdentifiers": {
					"ADMIN()": "2a0acc6a",
					"class(uint256)": "3613a9f4",
					"createClass(string,uint256)": "4852a212",
					"getBalance()": "12065fe0",
					"getClass(uint256)": "512d62df",
					"getCredits(uint256)": "19389b95",
					"register(address,uint256)": "6d705ebb",
					"removeClass(uint256)": "72c30f45",
					"takeClass(uint256)": "7aed8136",
					"updateClass(uint256,string,uint256)": "1e8be099",
					"users(address)": "a87430ba"
				}
			},
			"storageLayout": {
				"storage": [
					{
						"astId": 33,
						"contract": "contracts/Gym_Contact.sol:gym",
						"label": "users",
						"offset": 0,
						"slot": "0",
						"type": "t_mapping(t_address,t_uint256)"
					},
					{
						"astId": 37,
						"contract": "contracts/Gym_Contact.sol:gym",
						"label": "class",
						"offset": 0,
						"slot": "1",
						"type": "t_array(t_struct(Class)6_storage)dyn_storage"
					}
				],
				"types": {
					"t_address": {
						"encoding": "inplace",
						"label": "address",
						"numberOfBytes": "20"
					},
					"t_array(t_struct(Class)6_storage)dyn_storage": {
						"base": "t_struct(Class)6_storage",
						"encoding": "dynamic_array",
						"label": "struct gym.Class[]",
						"numberOfBytes": "32"
					},
					"t_mapping(t_address,t_uint256)": {
						"encoding": "mapping",
						"key": "t_address",
						"label": "mapping(address => uint256)",
						"numberOfBytes": "32",
						"value": "t_uint256"
					},
					"t_string_storage": {
						"encoding": "bytes",
						"label": "string",
						"numberOfBytes": "32"
					},
					"t_struct(Class)6_storage": {
						"encoding": "inplace",
						"label": "struct gym.Class",
						"members": [
							{
								"astId": 3,
								"contract": "contracts/Gym_Contact.sol:gym",
								"label": "name",
								"offset": 0,
								"slot": "0",
								"type": "t_string_storage"
							},
							{
								"astId": 5,
								"contract": "contracts/Gym_Contact.sol:gym",
								"label": "value",
								"offset": 0,
								"slot": "1",
								"type": "t_uint256"
							}
						],
						"numberOfBytes": "64"
					},
					"t_uint256": {
						"encoding": "inplace",
						"label": "uint256",
						"numberOfBytes": "32"
					}
				}
			},
			"userdoc": {
				"kind": "user",
				"methods": {},
				"version": 1
			}
		}
	}
}