{
	"contracts/Gym_Contact.sol": {
		"gym": {
			"abi": [
				{
					"inputs": [],
					"stateMutability": "nonpayable",
					"type": "constructor"
				},
				{
					"anonymous": false,
					"inputs": [
						{
							"indexed": false,
							"internalType": "string",
							"name": "name",
							"type": "string"
						},
						{
							"indexed": false,
							"internalType": "uint256",
							"name": "value",
							"type": "uint256"
						}
					],
					"name": "ClassCreated",
					"type": "event"
				},
				{
					"anonymous": false,
					"inputs": [
						{
							"indexed": false,
							"internalType": "address",
							"name": "user",
							"type": "address"
						},
						{
							"indexed": false,
							"internalType": "uint256",
							"name": "credits",
							"type": "uint256"
						}
					],
					"name": "Register",
					"type": "event"
				},
				{
					"inputs": [],
					"name": "ADMIN",
					"outputs": [
						{
							"internalType": "address",
							"name": "",
							"type": "address"
						}
					],
					"stateMutability": "view",
					"type": "function"
				},
				{
					"inputs": [
						{
							"internalType": "address",
							"name": "",
							"type": "address"
						},
						{
							"internalType": "string",
							"name": "",
							"type": "string"
						}
					],
					"name": "clases",
					"outputs": [
						{
							"internalType": "string",
							"name": "name",
							"type": "string"
						},
						{
							"internalType": "uint256",
							"name": "value",
							"type": "uint256"
						}
					],
					"stateMutability": "view",
					"type": "function"
				},
				{
					"inputs": [
						{
							"internalType": "string",
							"name": "_name",
							"type": "string"
						},
						{
							"internalType": "uint256",
							"name": "_value",
							"type": "uint256"
						}
					],
					"name": "createClass",
					"outputs": [],
					"stateMutability": "nonpayable",
					"type": "function"
				},
				{
					"inputs": [],
					"name": "getBalance",
					"outputs": [
						{
							"internalType": "address",
							"name": "",
							"type": "address"
						},
						{
							"internalType": "uint256",
							"name": "",
							"type": "uint256"
						}
					],
					"stateMutability": "view",
					"type": "function"
				},
				{
					"inputs": [
						{
							"internalType": "address",
							"name": "_address",
							"type": "address"
						},
						{
							"internalType": "uint256",
							"name": "_credits",
							"type": "uint256"
						}
					],
					"name": "register",
					"outputs": [],
					"stateMutability": "nonpayable",
					"type": "function"
				},
				{
					"inputs": [
						{
							"internalType": "address",
							"name": "",
							"type": "address"
						}
					],
					"name": "users",
					"outputs": [
						{
							"internalType": "uint256",
							"name": "",
							"type": "uint256"
						}
					],
					"stateMutability": "view",
					"type": "function"
				}
			],
			"devdoc": {
				"kind": "dev",
				"methods": {},
				"version": 1
			},
			"evm": {
				"assembly": "    /* \"contracts/Gym_Contact.sol\":70:1487  contract gym {\r... */\n  mstore(0x40, 0xa0)\n    /* \"contracts/Gym_Contact.sol\":389:440  constructor() {\r... */\n  callvalue\n  dup1\n  iszero\n  tag_1\n  jumpi\n  0x00\n  dup1\n  revert\ntag_1:\n  pop\n    /* \"contracts/Gym_Contact.sol\":422:432  msg.sender */\n  caller\n    /* \"contracts/Gym_Contact.sol\":414:432  ADMIN = msg.sender */\n  0xffffffffffffffffffffffffffffffffffffffff\n  and\n  0x80\n  dup2\n  0xffffffffffffffffffffffffffffffffffffffff\n  and\n  0x60\n  shl\n  dup2\n  mstore\n  pop\n  pop\n    /* \"contracts/Gym_Contact.sol\":70:1487  contract gym {\r... */\n  shr(0x60, mload(0x80))\n  codecopy(0x00, dataOffset(sub_0), dataSize(sub_0))\n  0x00\n  assignImmutable(\"0x731dc163f73d31d8c68f9917ce4ff967753939f70432973c04fd2c2a48148607\")\n  return(0x00, dataSize(sub_0))\nstop\n\nsub_0: assembly {\n        /* \"contracts/Gym_Contact.sol\":70:1487  contract gym {\r... */\n      mstore(0x40, 0x80)\n      callvalue\n      dup1\n      iszero\n      tag_1\n      jumpi\n      0x00\n      dup1\n      revert\n    tag_1:\n      pop\n      jumpi(tag_2, lt(calldatasize, 0x04))\n      shr(0xe0, calldataload(0x00))\n      dup1\n      0x035af4ca\n      eq\n      tag_3\n      jumpi\n      dup1\n      0x12065fe0\n      eq\n      tag_4\n      jumpi\n      dup1\n      0x2a0acc6a\n      eq\n      tag_5\n      jumpi\n      dup1\n      0x4852a212\n      eq\n      tag_6\n      jumpi\n      dup1\n      0x6d705ebb\n      eq\n      tag_7\n      jumpi\n      dup1\n      0xa87430ba\n      eq\n      tag_8\n      jumpi\n    tag_2:\n      0x00\n      dup1\n      revert\n        /* \"contracts/Gym_Contact.sol\":555:612  mapping(address =>mapping(string => Class)) public clases */\n    tag_3:\n      tag_9\n      0x04\n      dup1\n      calldatasize\n      sub\n      dup2\n      add\n      swap1\n      tag_10\n      swap2\n      swap1\n      tag_11\n      jump\t// in\n    tag_10:\n      tag_12\n      jump\t// in\n    tag_9:\n      mload(0x40)\n      tag_13\n      swap3\n      swap2\n      swap1\n      tag_14\n      jump\t// in\n    tag_13:\n      mload(0x40)\n      dup1\n      swap2\n      sub\n      swap1\n      return\n        /* \"contracts/Gym_Contact.sol\":1371:1484  function getBalance() public view returns(address, uint){\r... */\n    tag_4:\n      tag_15\n      tag_16\n      jump\t// in\n    tag_15:\n      mload(0x40)\n      tag_17\n      swap3\n      swap2\n      swap1\n      tag_18\n      jump\t// in\n    tag_17:\n      mload(0x40)\n      dup1\n      swap2\n      sub\n      swap1\n      return\n        /* \"contracts/Gym_Contact.sol\":350:380  address immutable public ADMIN */\n    tag_5:\n      tag_19\n      tag_20\n      jump\t// in\n    tag_19:\n      mload(0x40)\n      tag_21\n      swap2\n      swap1\n      tag_22\n      jump\t// in\n    tag_21:\n      mload(0x40)\n      dup1\n      swap2\n      sub\n      swap1\n      return\n        /* \"contracts/Gym_Contact.sol\":696:939  function createClass(string memory _name, uint _value) public {\r... */\n    tag_6:\n      tag_23\n      0x04\n      dup1\n      calldatasize\n      sub\n      dup2\n      add\n      swap1\n      tag_24\n      swap2\n      swap1\n      tag_25\n      jump\t// in\n    tag_24:\n      tag_26\n      jump\t// in\n    tag_23:\n      stop\n        /* \"contracts/Gym_Contact.sol\":977:1363  function register(address _address, uint _credits) public {\r... */\n    tag_7:\n      tag_27\n      0x04\n      dup1\n      calldatasize\n      sub\n      dup2\n      add\n      swap1\n      tag_28\n      swap2\n      swap1\n      tag_29\n      jump\t// in\n    tag_28:\n      tag_30\n      jump\t// in\n    tag_27:\n      stop\n        /* \"contracts/Gym_Contact.sol\":464:501  mapping(address => uint) public users */\n    tag_8:\n      tag_31\n      0x04\n      dup1\n      calldatasize\n      sub\n      dup2\n      add\n      swap1\n      tag_32\n      swap2\n      swap1\n      tag_33\n      jump\t// in\n    tag_32:\n      tag_34\n      jump\t// in\n    tag_31:\n      mload(0x40)\n      tag_35\n      swap2\n      swap1\n      tag_36\n      jump\t// in\n    tag_35:\n      mload(0x40)\n      dup1\n      swap2\n      sub\n      swap1\n      return\n        /* \"contracts/Gym_Contact.sol\":555:612  mapping(address =>mapping(string => Class)) public clases */\n    tag_12:\n      mstore(0x20, 0x01)\n      dup2\n      0x00\n      mstore\n      keccak256(0x00, 0x40)\n      dup2\n      dup1\n      mload\n      0x20\n      dup2\n      add\n      dup3\n      add\n      dup1\n      mload\n      dup5\n      dup3\n      mstore\n      0x20\n      dup4\n      add\n      0x20\n      dup6\n      add\n      keccak256\n      dup2\n      dup4\n      mstore\n      dup1\n      swap6\n      pop\n      pop\n      pop\n      pop\n      pop\n      pop\n      0x00\n      swap2\n      pop\n      swap2\n      pop\n      pop\n      dup1\n      0x00\n      add\n      dup1\n      sload\n      tag_37\n      swap1\n      tag_38\n      jump\t// in\n    tag_37:\n      dup1\n      0x1f\n      add\n      0x20\n      dup1\n      swap2\n      div\n      mul\n      0x20\n      add\n      mload(0x40)\n      swap1\n      dup2\n      add\n      0x40\n      mstore\n      dup1\n      swap3\n      swap2\n      swap1\n      dup2\n      dup2\n      mstore\n      0x20\n      add\n      dup3\n      dup1\n      sload\n      tag_39\n      swap1\n      tag_38\n      jump\t// in\n    tag_39:\n      dup1\n      iszero\n      tag_40\n      jumpi\n      dup1\n      0x1f\n      lt\n      tag_41\n      jumpi\n      0x0100\n      dup1\n      dup4\n      sload\n      div\n      mul\n      dup4\n      mstore\n      swap2\n      0x20\n      add\n      swap2\n      jump(tag_40)\n    tag_41:\n      dup3\n      add\n      swap2\n      swap1\n      0x00\n      mstore\n      keccak256(0x00, 0x20)\n      swap1\n    tag_42:\n      dup2\n      sload\n      dup2\n      mstore\n      swap1\n      0x01\n      add\n      swap1\n      0x20\n      add\n      dup1\n      dup4\n      gt\n      tag_42\n      jumpi\n      dup3\n      swap1\n      sub\n      0x1f\n      and\n      dup3\n      add\n      swap2\n    tag_40:\n      pop\n      pop\n      pop\n      pop\n      pop\n      swap1\n      dup1\n      0x01\n      add\n      sload\n      swap1\n      pop\n      dup3\n      jump\t// out\n        /* \"contracts/Gym_Contact.sol\":1371:1484  function getBalance() public view returns(address, uint){\r... */\n    tag_16:\n        /* \"contracts/Gym_Contact.sol\":1413:1420  address */\n      0x00\n        /* \"contracts/Gym_Contact.sol\":1422:1426  uint */\n      dup1\n        /* \"contracts/Gym_Contact.sol\":1446:1456  msg.sender */\n      caller\n        /* \"contracts/Gym_Contact.sol\":1458:1463  users */\n      0x00\n        /* \"contracts/Gym_Contact.sol\":1458:1475  users[msg.sender] */\n      dup1\n        /* \"contracts/Gym_Contact.sol\":1464:1474  msg.sender */\n      caller\n        /* \"contracts/Gym_Contact.sol\":1458:1475  users[msg.sender] */\n      0xffffffffffffffffffffffffffffffffffffffff\n      and\n      0xffffffffffffffffffffffffffffffffffffffff\n      and\n      dup2\n      mstore\n      0x20\n      add\n      swap1\n      dup2\n      mstore\n      0x20\n      add\n      0x00\n      keccak256\n      sload\n        /* \"contracts/Gym_Contact.sol\":1438:1476  return (msg.sender, users[msg.sender]) */\n      swap2\n      pop\n      swap2\n      pop\n        /* \"contracts/Gym_Contact.sol\":1371:1484  function getBalance() public view returns(address, uint){\r... */\n      swap1\n      swap2\n      jump\t// out\n        /* \"contracts/Gym_Contact.sol\":350:380  address immutable public ADMIN */\n    tag_20:\n      immutable(\"0x731dc163f73d31d8c68f9917ce4ff967753939f70432973c04fd2c2a48148607\")\n      dup2\n      jump\t// out\n        /* \"contracts/Gym_Contact.sol\":696:939  function createClass(string memory _name, uint _value) public {\r... */\n    tag_26:\n        /* \"contracts/Gym_Contact.sol\":786:796  msg.sender */\n      caller\n        /* \"contracts/Gym_Contact.sol\":777:796  ADMIN == msg.sender */\n      0xffffffffffffffffffffffffffffffffffffffff\n      and\n        /* \"contracts/Gym_Contact.sol\":777:782  ADMIN */\n      immutable(\"0x731dc163f73d31d8c68f9917ce4ff967753939f70432973c04fd2c2a48148607\")\n        /* \"contracts/Gym_Contact.sol\":777:796  ADMIN == msg.sender */\n      0xffffffffffffffffffffffffffffffffffffffff\n      and\n      eq\n        /* \"contracts/Gym_Contact.sol\":769:849  require(ADMIN == msg.sender, \"Solo el Administrador del Gym puede crear clases\") */\n      tag_45\n      jumpi\n      mload(0x40)\n      0x08c379a000000000000000000000000000000000000000000000000000000000\n      dup2\n      mstore\n      0x04\n      add\n      tag_46\n      swap1\n      tag_47\n      jump\t// in\n    tag_46:\n      mload(0x40)\n      dup1\n      swap2\n      sub\n      swap1\n      revert\n    tag_45:\n        /* \"contracts/Gym_Contact.sol\":865:892  ClassCreated(_name, _value) */\n      0x14d49e3ea4f348b7f368906dfe1a63055c7822d622a61672a35a55ae97a768f9\n        /* \"contracts/Gym_Contact.sol\":878:883  _name */\n      dup3\n        /* \"contracts/Gym_Contact.sol\":885:891  _value */\n      dup3\n        /* \"contracts/Gym_Contact.sol\":865:892  ClassCreated(_name, _value) */\n      mload(0x40)\n      tag_48\n      swap3\n      swap2\n      swap1\n      tag_14\n      jump\t// in\n    tag_48:\n      mload(0x40)\n      dup1\n      swap2\n      sub\n      swap1\n      log1\n        /* \"contracts/Gym_Contact.sol\":696:939  function createClass(string memory _name, uint _value) public {\r... */\n      pop\n      pop\n      jump\t// out\n        /* \"contracts/Gym_Contact.sol\":977:1363  function register(address _address, uint _credits) public {\r... */\n    tag_30:\n        /* \"contracts/Gym_Contact.sol\":1178:1179  0 */\n      0x00\n        /* \"contracts/Gym_Contact.sol\":1157:1162  users */\n      dup1\n        /* \"contracts/Gym_Contact.sol\":1157:1174  users[msg.sender] */\n      0x00\n        /* \"contracts/Gym_Contact.sol\":1163:1173  msg.sender */\n      caller\n        /* \"contracts/Gym_Contact.sol\":1157:1174  users[msg.sender] */\n      0xffffffffffffffffffffffffffffffffffffffff\n      and\n      0xffffffffffffffffffffffffffffffffffffffff\n      and\n      dup2\n      mstore\n      0x20\n      add\n      swap1\n      dup2\n      mstore\n      0x20\n      add\n      0x00\n      keccak256\n      sload\n        /* \"contracts/Gym_Contact.sol\":1157:1179  users[msg.sender] == 0 */\n      eq\n        /* \"contracts/Gym_Contact.sol\":1149:1221  require(users[msg.sender] == 0, \"Ya te encuentras registrado en el gym\") */\n      tag_50\n      jumpi\n      mload(0x40)\n      0x08c379a000000000000000000000000000000000000000000000000000000000\n      dup2\n      mstore\n      0x04\n      add\n      tag_51\n      swap1\n      tag_52\n      jump\t// in\n    tag_51:\n      mload(0x40)\n      dup1\n      swap2\n      sub\n      swap1\n      revert\n    tag_50:\n        /* \"contracts/Gym_Contact.sol\":1252:1260  _credits */\n      dup1\n        /* \"contracts/Gym_Contact.sol\":1232:1237  users */\n      0x00\n        /* \"contracts/Gym_Contact.sol\":1232:1249  users[msg.sender] */\n      dup1\n        /* \"contracts/Gym_Contact.sol\":1238:1248  msg.sender */\n      caller\n        /* \"contracts/Gym_Contact.sol\":1232:1249  users[msg.sender] */\n      0xffffffffffffffffffffffffffffffffffffffff\n      and\n      0xffffffffffffffffffffffffffffffffffffffff\n      and\n      dup2\n      mstore\n      0x20\n      add\n      swap1\n      dup2\n      mstore\n      0x20\n      add\n      0x00\n      keccak256\n        /* \"contracts/Gym_Contact.sol\":1232:1260  users[msg.sender] = _credits */\n      dup2\n      swap1\n      sstore\n      pop\n        /* \"contracts/Gym_Contact.sol\":1276:1304  Register(_address, _credits) */\n      0x7dc6ab80cc84c043b7b8d4fcafc802187470087f7ea7fccd2e17aecd0256a1\n        /* \"contracts/Gym_Contact.sol\":1285:1293  _address */\n      dup3\n        /* \"contracts/Gym_Contact.sol\":1295:1303  _credits */\n      dup3\n        /* \"contracts/Gym_Contact.sol\":1276:1304  Register(_address, _credits) */\n      mload(0x40)\n      tag_53\n      swap3\n      swap2\n      swap1\n      tag_18\n      jump\t// in\n    tag_53:\n      mload(0x40)\n      dup1\n      swap2\n      sub\n      swap1\n      log1\n        /* \"contracts/Gym_Contact.sol\":977:1363  function register(address _address, uint _credits) public {\r... */\n      pop\n      pop\n      jump\t// out\n        /* \"contracts/Gym_Contact.sol\":464:501  mapping(address => uint) public users */\n    tag_34:\n      mstore(0x20, 0x00)\n      dup1\n      0x00\n      mstore\n      keccak256(0x00, 0x40)\n      0x00\n      swap2\n      pop\n      swap1\n      pop\n      sload\n      dup2\n      jump\t// out\n        /* \"#utility.yul\":7:419   */\n    tag_55:\n        /* \"#utility.yul\":85:90   */\n      0x00\n        /* \"#utility.yul\":110:176   */\n      tag_57\n        /* \"#utility.yul\":126:175   */\n      tag_58\n        /* \"#utility.yul\":168:174   */\n      dup5\n        /* \"#utility.yul\":126:175   */\n      tag_59\n      jump\t// in\n    tag_58:\n        /* \"#utility.yul\":110:176   */\n      tag_60\n      jump\t// in\n    tag_57:\n        /* \"#utility.yul\":101:176   */\n      swap1\n      pop\n        /* \"#utility.yul\":199:205   */\n      dup3\n        /* \"#utility.yul\":192:197   */\n      dup2\n        /* \"#utility.yul\":185:206   */\n      mstore\n        /* \"#utility.yul\":237:241   */\n      0x20\n        /* \"#utility.yul\":230:235   */\n      dup2\n        /* \"#utility.yul\":226:242   */\n      add\n        /* \"#utility.yul\":275:278   */\n      dup5\n        /* \"#utility.yul\":266:272   */\n      dup5\n        /* \"#utility.yul\":261:264   */\n      dup5\n        /* \"#utility.yul\":257:273   */\n      add\n        /* \"#utility.yul\":254:279   */\n      gt\n        /* \"#utility.yul\":251:363   */\n      iszero\n      tag_61\n      jumpi\n        /* \"#utility.yul\":282:361   */\n      tag_62\n      tag_63\n      jump\t// in\n    tag_62:\n        /* \"#utility.yul\":251:363   */\n    tag_61:\n        /* \"#utility.yul\":372:413   */\n      tag_64\n        /* \"#utility.yul\":406:412   */\n      dup5\n        /* \"#utility.yul\":401:404   */\n      dup3\n        /* \"#utility.yul\":396:399   */\n      dup6\n        /* \"#utility.yul\":372:413   */\n      tag_65\n      jump\t// in\n    tag_64:\n        /* \"#utility.yul\":91:419   */\n      pop\n        /* \"#utility.yul\":7:419   */\n      swap4\n      swap3\n      pop\n      pop\n      pop\n      jump\t// out\n        /* \"#utility.yul\":425:564   */\n    tag_66:\n        /* \"#utility.yul\":471:476   */\n      0x00\n        /* \"#utility.yul\":509:515   */\n      dup2\n        /* \"#utility.yul\":496:516   */\n      calldataload\n        /* \"#utility.yul\":487:516   */\n      swap1\n      pop\n        /* \"#utility.yul\":525:558   */\n      tag_68\n        /* \"#utility.yul\":552:557   */\n      dup2\n        /* \"#utility.yul\":525:558   */\n      tag_69\n      jump\t// in\n    tag_68:\n        /* \"#utility.yul\":425:564   */\n      swap3\n      swap2\n      pop\n      pop\n      jump\t// out\n        /* \"#utility.yul\":584:924   */\n    tag_70:\n        /* \"#utility.yul\":640:645   */\n      0x00\n        /* \"#utility.yul\":689:692   */\n      dup3\n        /* \"#utility.yul\":682:686   */\n      0x1f\n        /* \"#utility.yul\":674:680   */\n      dup4\n        /* \"#utility.yul\":670:687   */\n      add\n        /* \"#utility.yul\":666:693   */\n      slt\n        /* \"#utility.yul\":656:778   */\n      tag_72\n      jumpi\n        /* \"#utility.yul\":697:776   */\n      tag_73\n      tag_74\n      jump\t// in\n    tag_73:\n        /* \"#utility.yul\":656:778   */\n    tag_72:\n        /* \"#utility.yul\":814:820   */\n      dup2\n        /* \"#utility.yul\":801:821   */\n      calldataload\n        /* \"#utility.yul\":839:918   */\n      tag_75\n        /* \"#utility.yul\":914:917   */\n      dup5\n        /* \"#utility.yul\":906:912   */\n      dup3\n        /* \"#utility.yul\":899:903   */\n      0x20\n        /* \"#utility.yul\":891:897   */\n      dup7\n        /* \"#utility.yul\":887:904   */\n      add\n        /* \"#utility.yul\":839:918   */\n      tag_55\n      jump\t// in\n    tag_75:\n        /* \"#utility.yul\":830:918   */\n      swap2\n      pop\n        /* \"#utility.yul\":646:924   */\n      pop\n        /* \"#utility.yul\":584:924   */\n      swap3\n      swap2\n      pop\n      pop\n      jump\t// out\n        /* \"#utility.yul\":930:1069   */\n    tag_76:\n        /* \"#utility.yul\":976:981   */\n      0x00\n        /* \"#utility.yul\":1014:1020   */\n      dup2\n        /* \"#utility.yul\":1001:1021   */\n      calldataload\n        /* \"#utility.yul\":992:1021   */\n      swap1\n      pop\n        /* \"#utility.yul\":1030:1063   */\n      tag_78\n        /* \"#utility.yul\":1057:1062   */\n      dup2\n        /* \"#utility.yul\":1030:1063   */\n      tag_79\n      jump\t// in\n    tag_78:\n        /* \"#utility.yul\":930:1069   */\n      swap3\n      swap2\n      pop\n      pop\n      jump\t// out\n        /* \"#utility.yul\":1075:1404   */\n    tag_33:\n        /* \"#utility.yul\":1134:1140   */\n      0x00\n        /* \"#utility.yul\":1183:1185   */\n      0x20\n        /* \"#utility.yul\":1171:1180   */\n      dup3\n        /* \"#utility.yul\":1162:1169   */\n      dup5\n        /* \"#utility.yul\":1158:1181   */\n      sub\n        /* \"#utility.yul\":1154:1186   */\n      slt\n        /* \"#utility.yul\":1151:1270   */\n      iszero\n      tag_81\n      jumpi\n        /* \"#utility.yul\":1189:1268   */\n      tag_82\n      tag_83\n      jump\t// in\n    tag_82:\n        /* \"#utility.yul\":1151:1270   */\n    tag_81:\n        /* \"#utility.yul\":1309:1310   */\n      0x00\n        /* \"#utility.yul\":1334:1387   */\n      tag_84\n        /* \"#utility.yul\":1379:1386   */\n      dup5\n        /* \"#utility.yul\":1370:1376   */\n      dup3\n        /* \"#utility.yul\":1359:1368   */\n      dup6\n        /* \"#utility.yul\":1355:1377   */\n      add\n        /* \"#utility.yul\":1334:1387   */\n      tag_66\n      jump\t// in\n    tag_84:\n        /* \"#utility.yul\":1324:1387   */\n      swap2\n      pop\n        /* \"#utility.yul\":1280:1397   */\n      pop\n        /* \"#utility.yul\":1075:1404   */\n      swap3\n      swap2\n      pop\n      pop\n      jump\t// out\n        /* \"#utility.yul\":1410:2064   */\n    tag_11:\n        /* \"#utility.yul\":1488:1494   */\n      0x00\n        /* \"#utility.yul\":1496:1502   */\n      dup1\n        /* \"#utility.yul\":1545:1547   */\n      0x40\n        /* \"#utility.yul\":1533:1542   */\n      dup4\n        /* \"#utility.yul\":1524:1531   */\n      dup6\n        /* \"#utility.yul\":1520:1543   */\n      sub\n        /* \"#utility.yul\":1516:1548   */\n      slt\n        /* \"#utility.yul\":1513:1632   */\n      iszero\n      tag_86\n      jumpi\n        /* \"#utility.yul\":1551:1630   */\n      tag_87\n      tag_83\n      jump\t// in\n    tag_87:\n        /* \"#utility.yul\":1513:1632   */\n    tag_86:\n        /* \"#utility.yul\":1671:1672   */\n      0x00\n        /* \"#utility.yul\":1696:1749   */\n      tag_88\n        /* \"#utility.yul\":1741:1748   */\n      dup6\n        /* \"#utility.yul\":1732:1738   */\n      dup3\n        /* \"#utility.yul\":1721:1730   */\n      dup7\n        /* \"#utility.yul\":1717:1739   */\n      add\n        /* \"#utility.yul\":1696:1749   */\n      tag_66\n      jump\t// in\n    tag_88:\n        /* \"#utility.yul\":1686:1749   */\n      swap3\n      pop\n        /* \"#utility.yul\":1642:1759   */\n      pop\n        /* \"#utility.yul\":1826:1828   */\n      0x20\n        /* \"#utility.yul\":1815:1824   */\n      dup4\n        /* \"#utility.yul\":1811:1829   */\n      add\n        /* \"#utility.yul\":1798:1830   */\n      calldataload\n        /* \"#utility.yul\":1857:1875   */\n      0xffffffffffffffff\n        /* \"#utility.yul\":1849:1855   */\n      dup2\n        /* \"#utility.yul\":1846:1876   */\n      gt\n        /* \"#utility.yul\":1843:1960   */\n      iszero\n      tag_89\n      jumpi\n        /* \"#utility.yul\":1879:1958   */\n      tag_90\n      tag_91\n      jump\t// in\n    tag_90:\n        /* \"#utility.yul\":1843:1960   */\n    tag_89:\n        /* \"#utility.yul\":1984:2047   */\n      tag_92\n        /* \"#utility.yul\":2039:2046   */\n      dup6\n        /* \"#utility.yul\":2030:2036   */\n      dup3\n        /* \"#utility.yul\":2019:2028   */\n      dup7\n        /* \"#utility.yul\":2015:2037   */\n      add\n        /* \"#utility.yul\":1984:2047   */\n      tag_70\n      jump\t// in\n    tag_92:\n        /* \"#utility.yul\":1974:2047   */\n      swap2\n      pop\n        /* \"#utility.yul\":1769:2057   */\n      pop\n        /* \"#utility.yul\":1410:2064   */\n      swap3\n      pop\n      swap3\n      swap1\n      pop\n      jump\t// out\n        /* \"#utility.yul\":2070:2544   */\n    tag_29:\n        /* \"#utility.yul\":2138:2144   */\n      0x00\n        /* \"#utility.yul\":2146:2152   */\n      dup1\n        /* \"#utility.yul\":2195:2197   */\n      0x40\n        /* \"#utility.yul\":2183:2192   */\n      dup4\n        /* \"#utility.yul\":2174:2181   */\n      dup6\n        /* \"#utility.yul\":2170:2193   */\n      sub\n        /* \"#utility.yul\":2166:2198   */\n      slt\n        /* \"#utility.yul\":2163:2282   */\n      iszero\n      tag_94\n      jumpi\n        /* \"#utility.yul\":2201:2280   */\n      tag_95\n      tag_83\n      jump\t// in\n    tag_95:\n        /* \"#utility.yul\":2163:2282   */\n    tag_94:\n        /* \"#utility.yul\":2321:2322   */\n      0x00\n        /* \"#utility.yul\":2346:2399   */\n      tag_96\n        /* \"#utility.yul\":2391:2398   */\n      dup6\n        /* \"#utility.yul\":2382:2388   */\n      dup3\n        /* \"#utility.yul\":2371:2380   */\n      dup7\n        /* \"#utility.yul\":2367:2389   */\n      add\n        /* \"#utility.yul\":2346:2399   */\n      tag_66\n      jump\t// in\n    tag_96:\n        /* \"#utility.yul\":2336:2399   */\n      swap3\n      pop\n        /* \"#utility.yul\":2292:2409   */\n      pop\n        /* \"#utility.yul\":2448:2450   */\n      0x20\n        /* \"#utility.yul\":2474:2527   */\n      tag_97\n        /* \"#utility.yul\":2519:2526   */\n      dup6\n        /* \"#utility.yul\":2510:2516   */\n      dup3\n        /* \"#utility.yul\":2499:2508   */\n      dup7\n        /* \"#utility.yul\":2495:2517   */\n      add\n        /* \"#utility.yul\":2474:2527   */\n      tag_76\n      jump\t// in\n    tag_97:\n        /* \"#utility.yul\":2464:2527   */\n      swap2\n      pop\n        /* \"#utility.yul\":2419:2537   */\n      pop\n        /* \"#utility.yul\":2070:2544   */\n      swap3\n      pop\n      swap3\n      swap1\n      pop\n      jump\t// out\n        /* \"#utility.yul\":2550:3204   */\n    tag_25:\n        /* \"#utility.yul\":2628:2634   */\n      0x00\n        /* \"#utility.yul\":2636:2642   */\n      dup1\n        /* \"#utility.yul\":2685:2687   */\n      0x40\n        /* \"#utility.yul\":2673:2682   */\n      dup4\n        /* \"#utility.yul\":2664:2671   */\n      dup6\n        /* \"#utility.yul\":2660:2683   */\n      sub\n        /* \"#utility.yul\":2656:2688   */\n      slt\n        /* \"#utility.yul\":2653:2772   */\n      iszero\n      tag_99\n      jumpi\n        /* \"#utility.yul\":2691:2770   */\n      tag_100\n      tag_83\n      jump\t// in\n    tag_100:\n        /* \"#utility.yul\":2653:2772   */\n    tag_99:\n        /* \"#utility.yul\":2839:2840   */\n      0x00\n        /* \"#utility.yul\":2828:2837   */\n      dup4\n        /* \"#utility.yul\":2824:2841   */\n      add\n        /* \"#utility.yul\":2811:2842   */\n      calldataload\n        /* \"#utility.yul\":2869:2887   */\n      0xffffffffffffffff\n        /* \"#utility.yul\":2861:2867   */\n      dup2\n        /* \"#utility.yul\":2858:2888   */\n      gt\n        /* \"#utility.yul\":2855:2972   */\n      iszero\n      tag_101\n      jumpi\n        /* \"#utility.yul\":2891:2970   */\n      tag_102\n      tag_91\n      jump\t// in\n    tag_102:\n        /* \"#utility.yul\":2855:2972   */\n    tag_101:\n        /* \"#utility.yul\":2996:3059   */\n      tag_103\n        /* \"#utility.yul\":3051:3058   */\n      dup6\n        /* \"#utility.yul\":3042:3048   */\n      dup3\n        /* \"#utility.yul\":3031:3040   */\n      dup7\n        /* \"#utility.yul\":3027:3049   */\n      add\n        /* \"#utility.yul\":2996:3059   */\n      tag_70\n      jump\t// in\n    tag_103:\n        /* \"#utility.yul\":2986:3059   */\n      swap3\n      pop\n        /* \"#utility.yul\":2782:3069   */\n      pop\n        /* \"#utility.yul\":3108:3110   */\n      0x20\n        /* \"#utility.yul\":3134:3187   */\n      tag_104\n        /* \"#utility.yul\":3179:3186   */\n      dup6\n        /* \"#utility.yul\":3170:3176   */\n      dup3\n        /* \"#utility.yul\":3159:3168   */\n      dup7\n        /* \"#utility.yul\":3155:3177   */\n      add\n        /* \"#utility.yul\":3134:3187   */\n      tag_76\n      jump\t// in\n    tag_104:\n        /* \"#utility.yul\":3124:3187   */\n      swap2\n      pop\n        /* \"#utility.yul\":3079:3197   */\n      pop\n        /* \"#utility.yul\":2550:3204   */\n      swap3\n      pop\n      swap3\n      swap1\n      pop\n      jump\t// out\n        /* \"#utility.yul\":3210:3328   */\n    tag_105:\n        /* \"#utility.yul\":3297:3321   */\n      tag_107\n        /* \"#utility.yul\":3315:3320   */\n      dup2\n        /* \"#utility.yul\":3297:3321   */\n      tag_108\n      jump\t// in\n    tag_107:\n        /* \"#utility.yul\":3292:3295   */\n      dup3\n        /* \"#utility.yul\":3285:3322   */\n      mstore\n        /* \"#utility.yul\":3210:3328   */\n      pop\n      pop\n      jump\t// out\n        /* \"#utility.yul\":3334:3698   */\n    tag_109:\n        /* \"#utility.yul\":3422:3425   */\n      0x00\n        /* \"#utility.yul\":3450:3489   */\n      tag_111\n        /* \"#utility.yul\":3483:3488   */\n      dup3\n        /* \"#utility.yul\":3450:3489   */\n      tag_112\n      jump\t// in\n    tag_111:\n        /* \"#utility.yul\":3505:3576   */\n      tag_113\n        /* \"#utility.yul\":3569:3575   */\n      dup2\n        /* \"#utility.yul\":3564:3567   */\n      dup6\n        /* \"#utility.yul\":3505:3576   */\n      tag_114\n      jump\t// in\n    tag_113:\n        /* \"#utility.yul\":3498:3576   */\n      swap4\n      pop\n        /* \"#utility.yul\":3585:3637   */\n      tag_115\n        /* \"#utility.yul\":3630:3636   */\n      dup2\n        /* \"#utility.yul\":3625:3628   */\n      dup6\n        /* \"#utility.yul\":3618:3622   */\n      0x20\n        /* \"#utility.yul\":3611:3616   */\n      dup7\n        /* \"#utility.yul\":3607:3623   */\n      add\n        /* \"#utility.yul\":3585:3637   */\n      tag_116\n      jump\t// in\n    tag_115:\n        /* \"#utility.yul\":3662:3691   */\n      tag_117\n        /* \"#utility.yul\":3684:3690   */\n      dup2\n        /* \"#utility.yul\":3662:3691   */\n      tag_118\n      jump\t// in\n    tag_117:\n        /* \"#utility.yul\":3657:3660   */\n      dup5\n        /* \"#utility.yul\":3653:3692   */\n      add\n        /* \"#utility.yul\":3646:3692   */\n      swap2\n      pop\n        /* \"#utility.yul\":3426:3698   */\n      pop\n        /* \"#utility.yul\":3334:3698   */\n      swap3\n      swap2\n      pop\n      pop\n      jump\t// out\n        /* \"#utility.yul\":3704:4070   */\n    tag_119:\n        /* \"#utility.yul\":3846:3849   */\n      0x00\n        /* \"#utility.yul\":3867:3934   */\n      tag_121\n        /* \"#utility.yul\":3931:3933   */\n      0x25\n        /* \"#utility.yul\":3926:3929   */\n      dup4\n        /* \"#utility.yul\":3867:3934   */\n      tag_114\n      jump\t// in\n    tag_121:\n        /* \"#utility.yul\":3860:3934   */\n      swap2\n      pop\n        /* \"#utility.yul\":3943:4036   */\n      tag_122\n        /* \"#utility.yul\":4032:4035   */\n      dup3\n        /* \"#utility.yul\":3943:4036   */\n      tag_123\n      jump\t// in\n    tag_122:\n        /* \"#utility.yul\":4061:4063   */\n      0x40\n        /* \"#utility.yul\":4056:4059   */\n      dup3\n        /* \"#utility.yul\":4052:4064   */\n      add\n        /* \"#utility.yul\":4045:4064   */\n      swap1\n      pop\n        /* \"#utility.yul\":3704:4070   */\n      swap2\n      swap1\n      pop\n      jump\t// out\n        /* \"#utility.yul\":4076:4442   */\n    tag_124:\n        /* \"#utility.yul\":4218:4221   */\n      0x00\n        /* \"#utility.yul\":4239:4306   */\n      tag_126\n        /* \"#utility.yul\":4303:4305   */\n      0x30\n        /* \"#utility.yul\":4298:4301   */\n      dup4\n        /* \"#utility.yul\":4239:4306   */\n      tag_114\n      jump\t// in\n    tag_126:\n        /* \"#utility.yul\":4232:4306   */\n      swap2\n      pop\n        /* \"#utility.yul\":4315:4408   */\n      tag_127\n        /* \"#utility.yul\":4404:4407   */\n      dup3\n        /* \"#utility.yul\":4315:4408   */\n      tag_128\n      jump\t// in\n    tag_127:\n        /* \"#utility.yul\":4433:4435   */\n      0x40\n        /* \"#utility.yul\":4428:4431   */\n      dup3\n        /* \"#utility.yul\":4424:4436   */\n      add\n        /* \"#utility.yul\":4417:4436   */\n      swap1\n      pop\n        /* \"#utility.yul\":4076:4442   */\n      swap2\n      swap1\n      pop\n      jump\t// out\n        /* \"#utility.yul\":4448:4566   */\n    tag_129:\n        /* \"#utility.yul\":4535:4559   */\n      tag_131\n        /* \"#utility.yul\":4553:4558   */\n      dup2\n        /* \"#utility.yul\":4535:4559   */\n      tag_132\n      jump\t// in\n    tag_131:\n        /* \"#utility.yul\":4530:4533   */\n      dup3\n        /* \"#utility.yul\":4523:4560   */\n      mstore\n        /* \"#utility.yul\":4448:4566   */\n      pop\n      pop\n      jump\t// out\n        /* \"#utility.yul\":4572:4794   */\n    tag_22:\n        /* \"#utility.yul\":4665:4669   */\n      0x00\n        /* \"#utility.yul\":4703:4705   */\n      0x20\n        /* \"#utility.yul\":4692:4701   */\n      dup3\n        /* \"#utility.yul\":4688:4706   */\n      add\n        /* \"#utility.yul\":4680:4706   */\n      swap1\n      pop\n        /* \"#utility.yul\":4716:4787   */\n      tag_134\n        /* \"#utility.yul\":4784:4785   */\n      0x00\n        /* \"#utility.yul\":4773:4782   */\n      dup4\n        /* \"#utility.yul\":4769:4786   */\n      add\n        /* \"#utility.yul\":4760:4766   */\n      dup5\n        /* \"#utility.yul\":4716:4787   */\n      tag_105\n      jump\t// in\n    tag_134:\n        /* \"#utility.yul\":4572:4794   */\n      swap3\n      swap2\n      pop\n      pop\n      jump\t// out\n        /* \"#utility.yul\":4800:5132   */\n    tag_18:\n        /* \"#utility.yul\":4921:4925   */\n      0x00\n        /* \"#utility.yul\":4959:4961   */\n      0x40\n        /* \"#utility.yul\":4948:4957   */\n      dup3\n        /* \"#utility.yul\":4944:4962   */\n      add\n        /* \"#utility.yul\":4936:4962   */\n      swap1\n      pop\n        /* \"#utility.yul\":4972:5043   */\n      tag_136\n        /* \"#utility.yul\":5040:5041   */\n      0x00\n        /* \"#utility.yul\":5029:5038   */\n      dup4\n        /* \"#utility.yul\":5025:5042   */\n      add\n        /* \"#utility.yul\":5016:5022   */\n      dup6\n        /* \"#utility.yul\":4972:5043   */\n      tag_105\n      jump\t// in\n    tag_136:\n        /* \"#utility.yul\":5053:5125   */\n      tag_137\n        /* \"#utility.yul\":5121:5123   */\n      0x20\n        /* \"#utility.yul\":5110:5119   */\n      dup4\n        /* \"#utility.yul\":5106:5124   */\n      add\n        /* \"#utility.yul\":5097:5103   */\n      dup5\n        /* \"#utility.yul\":5053:5125   */\n      tag_129\n      jump\t// in\n    tag_137:\n        /* \"#utility.yul\":4800:5132   */\n      swap4\n      swap3\n      pop\n      pop\n      pop\n      jump\t// out\n        /* \"#utility.yul\":5138:5561   */\n    tag_14:\n        /* \"#utility.yul\":5279:5283   */\n      0x00\n        /* \"#utility.yul\":5317:5319   */\n      0x40\n        /* \"#utility.yul\":5306:5315   */\n      dup3\n        /* \"#utility.yul\":5302:5320   */\n      add\n        /* \"#utility.yul\":5294:5320   */\n      swap1\n      pop\n        /* \"#utility.yul\":5366:5375   */\n      dup2\n        /* \"#utility.yul\":5360:5364   */\n      dup2\n        /* \"#utility.yul\":5356:5376   */\n      sub\n        /* \"#utility.yul\":5352:5353   */\n      0x00\n        /* \"#utility.yul\":5341:5350   */\n      dup4\n        /* \"#utility.yul\":5337:5354   */\n      add\n        /* \"#utility.yul\":5330:5377   */\n      mstore\n        /* \"#utility.yul\":5394:5472   */\n      tag_139\n        /* \"#utility.yul\":5467:5471   */\n      dup2\n        /* \"#utility.yul\":5458:5464   */\n      dup6\n        /* \"#utility.yul\":5394:5472   */\n      tag_109\n      jump\t// in\n    tag_139:\n        /* \"#utility.yul\":5386:5472   */\n      swap1\n      pop\n        /* \"#utility.yul\":5482:5554   */\n      tag_140\n        /* \"#utility.yul\":5550:5552   */\n      0x20\n        /* \"#utility.yul\":5539:5548   */\n      dup4\n        /* \"#utility.yul\":5535:5553   */\n      add\n        /* \"#utility.yul\":5526:5532   */\n      dup5\n        /* \"#utility.yul\":5482:5554   */\n      tag_129\n      jump\t// in\n    tag_140:\n        /* \"#utility.yul\":5138:5561   */\n      swap4\n      swap3\n      pop\n      pop\n      pop\n      jump\t// out\n        /* \"#utility.yul\":5567:5986   */\n    tag_52:\n        /* \"#utility.yul\":5733:5737   */\n      0x00\n        /* \"#utility.yul\":5771:5773   */\n      0x20\n        /* \"#utility.yul\":5760:5769   */\n      dup3\n        /* \"#utility.yul\":5756:5774   */\n      add\n        /* \"#utility.yul\":5748:5774   */\n      swap1\n      pop\n        /* \"#utility.yul\":5820:5829   */\n      dup2\n        /* \"#utility.yul\":5814:5818   */\n      dup2\n        /* \"#utility.yul\":5810:5830   */\n      sub\n        /* \"#utility.yul\":5806:5807   */\n      0x00\n        /* \"#utility.yul\":5795:5804   */\n      dup4\n        /* \"#utility.yul\":5791:5808   */\n      add\n        /* \"#utility.yul\":5784:5831   */\n      mstore\n        /* \"#utility.yul\":5848:5979   */\n      tag_142\n        /* \"#utility.yul\":5974:5978   */\n      dup2\n        /* \"#utility.yul\":5848:5979   */\n      tag_119\n      jump\t// in\n    tag_142:\n        /* \"#utility.yul\":5840:5979   */\n      swap1\n      pop\n        /* \"#utility.yul\":5567:5986   */\n      swap2\n      swap1\n      pop\n      jump\t// out\n        /* \"#utility.yul\":5992:6411   */\n    tag_47:\n        /* \"#utility.yul\":6158:6162   */\n      0x00\n        /* \"#utility.yul\":6196:6198   */\n      0x20\n        /* \"#utility.yul\":6185:6194   */\n      dup3\n        /* \"#utility.yul\":6181:6199   */\n      add\n        /* \"#utility.yul\":6173:6199   */\n      swap1\n      pop\n        /* \"#utility.yul\":6245:6254   */\n      dup2\n        /* \"#utility.yul\":6239:6243   */\n      dup2\n        /* \"#utility.yul\":6235:6255   */\n      sub\n        /* \"#utility.yul\":6231:6232   */\n      0x00\n        /* \"#utility.yul\":6220:6229   */\n      dup4\n        /* \"#utility.yul\":6216:6233   */\n      add\n        /* \"#utility.yul\":6209:6256   */\n      mstore\n        /* \"#utility.yul\":6273:6404   */\n      tag_144\n        /* \"#utility.yul\":6399:6403   */\n      dup2\n        /* \"#utility.yul\":6273:6404   */\n      tag_124\n      jump\t// in\n    tag_144:\n        /* \"#utility.yul\":6265:6404   */\n      swap1\n      pop\n        /* \"#utility.yul\":5992:6411   */\n      swap2\n      swap1\n      pop\n      jump\t// out\n        /* \"#utility.yul\":6417:6639   */\n    tag_36:\n        /* \"#utility.yul\":6510:6514   */\n      0x00\n        /* \"#utility.yul\":6548:6550   */\n      0x20\n        /* \"#utility.yul\":6537:6546   */\n      dup3\n        /* \"#utility.yul\":6533:6551   */\n      add\n        /* \"#utility.yul\":6525:6551   */\n      swap1\n      pop\n        /* \"#utility.yul\":6561:6632   */\n      tag_146\n        /* \"#utility.yul\":6629:6630   */\n      0x00\n        /* \"#utility.yul\":6618:6627   */\n      dup4\n        /* \"#utility.yul\":6614:6631   */\n      add\n        /* \"#utility.yul\":6605:6611   */\n      dup5\n        /* \"#utility.yul\":6561:6632   */\n      tag_129\n      jump\t// in\n    tag_146:\n        /* \"#utility.yul\":6417:6639   */\n      swap3\n      swap2\n      pop\n      pop\n      jump\t// out\n        /* \"#utility.yul\":6645:6774   */\n    tag_60:\n        /* \"#utility.yul\":6679:6685   */\n      0x00\n        /* \"#utility.yul\":6706:6726   */\n      tag_148\n      tag_149\n      jump\t// in\n    tag_148:\n        /* \"#utility.yul\":6696:6726   */\n      swap1\n      pop\n        /* \"#utility.yul\":6735:6768   */\n      tag_150\n        /* \"#utility.yul\":6763:6767   */\n      dup3\n        /* \"#utility.yul\":6755:6761   */\n      dup3\n        /* \"#utility.yul\":6735:6768   */\n      tag_151\n      jump\t// in\n    tag_150:\n        /* \"#utility.yul\":6645:6774   */\n      swap2\n      swap1\n      pop\n      jump\t// out\n        /* \"#utility.yul\":6780:6855   */\n    tag_149:\n        /* \"#utility.yul\":6813:6819   */\n      0x00\n        /* \"#utility.yul\":6846:6848   */\n      0x40\n        /* \"#utility.yul\":6840:6849   */\n      mload\n        /* \"#utility.yul\":6830:6849   */\n      swap1\n      pop\n        /* \"#utility.yul\":6780:6855   */\n      swap1\n      jump\t// out\n        /* \"#utility.yul\":6861:7169   */\n    tag_59:\n        /* \"#utility.yul\":6923:6927   */\n      0x00\n        /* \"#utility.yul\":7013:7031   */\n      0xffffffffffffffff\n        /* \"#utility.yul\":7005:7011   */\n      dup3\n        /* \"#utility.yul\":7002:7032   */\n      gt\n        /* \"#utility.yul\":6999:7055   */\n      iszero\n      tag_154\n      jumpi\n        /* \"#utility.yul\":7035:7053   */\n      tag_155\n      tag_156\n      jump\t// in\n    tag_155:\n        /* \"#utility.yul\":6999:7055   */\n    tag_154:\n        /* \"#utility.yul\":7073:7102   */\n      tag_157\n        /* \"#utility.yul\":7095:7101   */\n      dup3\n        /* \"#utility.yul\":7073:7102   */\n      tag_118\n      jump\t// in\n    tag_157:\n        /* \"#utility.yul\":7065:7102   */\n      swap1\n      pop\n        /* \"#utility.yul\":7157:7161   */\n      0x20\n        /* \"#utility.yul\":7151:7155   */\n      dup2\n        /* \"#utility.yul\":7147:7162   */\n      add\n        /* \"#utility.yul\":7139:7162   */\n      swap1\n      pop\n        /* \"#utility.yul\":6861:7169   */\n      swap2\n      swap1\n      pop\n      jump\t// out\n        /* \"#utility.yul\":7175:7274   */\n    tag_112:\n        /* \"#utility.yul\":7227:7233   */\n      0x00\n        /* \"#utility.yul\":7261:7266   */\n      dup2\n        /* \"#utility.yul\":7255:7267   */\n      mload\n        /* \"#utility.yul\":7245:7267   */\n      swap1\n      pop\n        /* \"#utility.yul\":7175:7274   */\n      swap2\n      swap1\n      pop\n      jump\t// out\n        /* \"#utility.yul\":7280:7449   */\n    tag_114:\n        /* \"#utility.yul\":7364:7375   */\n      0x00\n        /* \"#utility.yul\":7398:7404   */\n      dup3\n        /* \"#utility.yul\":7393:7396   */\n      dup3\n        /* \"#utility.yul\":7386:7405   */\n      mstore\n        /* \"#utility.yul\":7438:7442   */\n      0x20\n        /* \"#utility.yul\":7433:7436   */\n      dup3\n        /* \"#utility.yul\":7429:7443   */\n      add\n        /* \"#utility.yul\":7414:7443   */\n      swap1\n      pop\n        /* \"#utility.yul\":7280:7449   */\n      swap3\n      swap2\n      pop\n      pop\n      jump\t// out\n        /* \"#utility.yul\":7455:7551   */\n    tag_108:\n        /* \"#utility.yul\":7492:7499   */\n      0x00\n        /* \"#utility.yul\":7521:7545   */\n      tag_161\n        /* \"#utility.yul\":7539:7544   */\n      dup3\n        /* \"#utility.yul\":7521:7545   */\n      tag_162\n      jump\t// in\n    tag_161:\n        /* \"#utility.yul\":7510:7545   */\n      swap1\n      pop\n        /* \"#utility.yul\":7455:7551   */\n      swap2\n      swap1\n      pop\n      jump\t// out\n        /* \"#utility.yul\":7557:7683   */\n    tag_162:\n        /* \"#utility.yul\":7594:7601   */\n      0x00\n        /* \"#utility.yul\":7634:7676   */\n      0xffffffffffffffffffffffffffffffffffffffff\n        /* \"#utility.yul\":7627:7632   */\n      dup3\n        /* \"#utility.yul\":7623:7677   */\n      and\n        /* \"#utility.yul\":7612:7677   */\n      swap1\n      pop\n        /* \"#utility.yul\":7557:7683   */\n      swap2\n      swap1\n      pop\n      jump\t// out\n        /* \"#utility.yul\":7689:7766   */\n    tag_132:\n        /* \"#utility.yul\":7726:7733   */\n      0x00\n        /* \"#utility.yul\":7755:7760   */\n      dup2\n        /* \"#utility.yul\":7744:7760   */\n      swap1\n      pop\n        /* \"#utility.yul\":7689:7766   */\n      swap2\n      swap1\n      pop\n      jump\t// out\n        /* \"#utility.yul\":7772:7926   */\n    tag_65:\n        /* \"#utility.yul\":7856:7862   */\n      dup3\n        /* \"#utility.yul\":7851:7854   */\n      dup2\n        /* \"#utility.yul\":7846:7849   */\n      dup4\n        /* \"#utility.yul\":7833:7863   */\n      calldatacopy\n        /* \"#utility.yul\":7918:7919   */\n      0x00\n        /* \"#utility.yul\":7909:7915   */\n      dup4\n        /* \"#utility.yul\":7904:7907   */\n      dup4\n        /* \"#utility.yul\":7900:7916   */\n      add\n        /* \"#utility.yul\":7893:7920   */\n      mstore\n        /* \"#utility.yul\":7772:7926   */\n      pop\n      pop\n      pop\n      jump\t// out\n        /* \"#utility.yul\":7932:8239   */\n    tag_116:\n        /* \"#utility.yul\":8000:8001   */\n      0x00\n        /* \"#utility.yul\":8010:8123   */\n    tag_167:\n        /* \"#utility.yul\":8024:8030   */\n      dup4\n        /* \"#utility.yul\":8021:8022   */\n      dup2\n        /* \"#utility.yul\":8018:8031   */\n      lt\n        /* \"#utility.yul\":8010:8123   */\n      iszero\n      tag_169\n      jumpi\n        /* \"#utility.yul\":8109:8110   */\n      dup1\n        /* \"#utility.yul\":8104:8107   */\n      dup3\n        /* \"#utility.yul\":8100:8111   */\n      add\n        /* \"#utility.yul\":8094:8112   */\n      mload\n        /* \"#utility.yul\":8090:8091   */\n      dup2\n        /* \"#utility.yul\":8085:8088   */\n      dup5\n        /* \"#utility.yul\":8081:8092   */\n      add\n        /* \"#utility.yul\":8074:8113   */\n      mstore\n        /* \"#utility.yul\":8046:8048   */\n      0x20\n        /* \"#utility.yul\":8043:8044   */\n      dup2\n        /* \"#utility.yul\":8039:8049   */\n      add\n        /* \"#utility.yul\":8034:8049   */\n      swap1\n      pop\n        /* \"#utility.yul\":8010:8123   */\n      jump(tag_167)\n    tag_169:\n        /* \"#utility.yul\":8141:8147   */\n      dup4\n        /* \"#utility.yul\":8138:8139   */\n      dup2\n        /* \"#utility.yul\":8135:8148   */\n      gt\n        /* \"#utility.yul\":8132:8233   */\n      iszero\n      tag_170\n      jumpi\n        /* \"#utility.yul\":8221:8222   */\n      0x00\n        /* \"#utility.yul\":8212:8218   */\n      dup5\n        /* \"#utility.yul\":8207:8210   */\n      dup5\n        /* \"#utility.yul\":8203:8219   */\n      add\n        /* \"#utility.yul\":8196:8223   */\n      mstore\n        /* \"#utility.yul\":8132:8233   */\n    tag_170:\n        /* \"#utility.yul\":7981:8239   */\n      pop\n        /* \"#utility.yul\":7932:8239   */\n      pop\n      pop\n      pop\n      jump\t// out\n        /* \"#utility.yul\":8245:8565   */\n    tag_38:\n        /* \"#utility.yul\":8289:8295   */\n      0x00\n        /* \"#utility.yul\":8326:8327   */\n      0x02\n        /* \"#utility.yul\":8320:8324   */\n      dup3\n        /* \"#utility.yul\":8316:8328   */\n      div\n        /* \"#utility.yul\":8306:8328   */\n      swap1\n      pop\n        /* \"#utility.yul\":8373:8374   */\n      0x01\n        /* \"#utility.yul\":8367:8371   */\n      dup3\n        /* \"#utility.yul\":8363:8375   */\n      and\n        /* \"#utility.yul\":8394:8412   */\n      dup1\n        /* \"#utility.yul\":8384:8465   */\n      tag_172\n      jumpi\n        /* \"#utility.yul\":8450:8454   */\n      0x7f\n        /* \"#utility.yul\":8442:8448   */\n      dup3\n        /* \"#utility.yul\":8438:8455   */\n      and\n        /* \"#utility.yul\":8428:8455   */\n      swap2\n      pop\n        /* \"#utility.yul\":8384:8465   */\n    tag_172:\n        /* \"#utility.yul\":8512:8514   */\n      0x20\n        /* \"#utility.yul\":8504:8510   */\n      dup3\n        /* \"#utility.yul\":8501:8515   */\n      lt\n        /* \"#utility.yul\":8481:8499   */\n      dup2\n        /* \"#utility.yul\":8478:8516   */\n      eq\n        /* \"#utility.yul\":8475:8559   */\n      iszero\n      tag_173\n      jumpi\n        /* \"#utility.yul\":8531:8549   */\n      tag_174\n      tag_175\n      jump\t// in\n    tag_174:\n        /* \"#utility.yul\":8475:8559   */\n    tag_173:\n        /* \"#utility.yul\":8296:8565   */\n      pop\n        /* \"#utility.yul\":8245:8565   */\n      swap2\n      swap1\n      pop\n      jump\t// out\n        /* \"#utility.yul\":8571:8852   */\n    tag_151:\n        /* \"#utility.yul\":8654:8681   */\n      tag_177\n        /* \"#utility.yul\":8676:8680   */\n      dup3\n        /* \"#utility.yul\":8654:8681   */\n      tag_118\n      jump\t// in\n    tag_177:\n        /* \"#utility.yul\":8646:8652   */\n      dup2\n        /* \"#utility.yul\":8642:8682   */\n      add\n        /* \"#utility.yul\":8784:8790   */\n      dup2\n        /* \"#utility.yul\":8772:8782   */\n      dup2\n        /* \"#utility.yul\":8769:8791   */\n      lt\n        /* \"#utility.yul\":8748:8766   */\n      0xffffffffffffffff\n        /* \"#utility.yul\":8736:8746   */\n      dup3\n        /* \"#utility.yul\":8733:8767   */\n      gt\n        /* \"#utility.yul\":8730:8792   */\n      or\n        /* \"#utility.yul\":8727:8815   */\n      iszero\n      tag_178\n      jumpi\n        /* \"#utility.yul\":8795:8813   */\n      tag_179\n      tag_156\n      jump\t// in\n    tag_179:\n        /* \"#utility.yul\":8727:8815   */\n    tag_178:\n        /* \"#utility.yul\":8835:8845   */\n      dup1\n        /* \"#utility.yul\":8831:8833   */\n      0x40\n        /* \"#utility.yul\":8824:8846   */\n      mstore\n        /* \"#utility.yul\":8614:8852   */\n      pop\n        /* \"#utility.yul\":8571:8852   */\n      pop\n      pop\n      jump\t// out\n        /* \"#utility.yul\":8858:9038   */\n    tag_175:\n        /* \"#utility.yul\":8906:8983   */\n      0x4e487b7100000000000000000000000000000000000000000000000000000000\n        /* \"#utility.yul\":8903:8904   */\n      0x00\n        /* \"#utility.yul\":8896:8984   */\n      mstore\n        /* \"#utility.yul\":9003:9007   */\n      0x22\n        /* \"#utility.yul\":9000:9001   */\n      0x04\n        /* \"#utility.yul\":8993:9008   */\n      mstore\n        /* \"#utility.yul\":9027:9031   */\n      0x24\n        /* \"#utility.yul\":9024:9025   */\n      0x00\n        /* \"#utility.yul\":9017:9032   */\n      revert\n        /* \"#utility.yul\":9044:9224   */\n    tag_156:\n        /* \"#utility.yul\":9092:9169   */\n      0x4e487b7100000000000000000000000000000000000000000000000000000000\n        /* \"#utility.yul\":9089:9090   */\n      0x00\n        /* \"#utility.yul\":9082:9170   */\n      mstore\n        /* \"#utility.yul\":9189:9193   */\n      0x41\n        /* \"#utility.yul\":9186:9187   */\n      0x04\n        /* \"#utility.yul\":9179:9194   */\n      mstore\n        /* \"#utility.yul\":9213:9217   */\n      0x24\n        /* \"#utility.yul\":9210:9211   */\n      0x00\n        /* \"#utility.yul\":9203:9218   */\n      revert\n        /* \"#utility.yul\":9230:9347   */\n    tag_74:\n        /* \"#utility.yul\":9339:9340   */\n      0x00\n        /* \"#utility.yul\":9336:9337   */\n      dup1\n        /* \"#utility.yul\":9329:9341   */\n      revert\n        /* \"#utility.yul\":9353:9470   */\n    tag_63:\n        /* \"#utility.yul\":9462:9463   */\n      0x00\n        /* \"#utility.yul\":9459:9460   */\n      dup1\n        /* \"#utility.yul\":9452:9464   */\n      revert\n        /* \"#utility.yul\":9476:9593   */\n    tag_91:\n        /* \"#utility.yul\":9585:9586   */\n      0x00\n        /* \"#utility.yul\":9582:9583   */\n      dup1\n        /* \"#utility.yul\":9575:9587   */\n      revert\n        /* \"#utility.yul\":9599:9716   */\n    tag_83:\n        /* \"#utility.yul\":9708:9709   */\n      0x00\n        /* \"#utility.yul\":9705:9706   */\n      dup1\n        /* \"#utility.yul\":9698:9710   */\n      revert\n        /* \"#utility.yul\":9722:9824   */\n    tag_118:\n        /* \"#utility.yul\":9763:9769   */\n      0x00\n        /* \"#utility.yul\":9814:9816   */\n      0x1f\n        /* \"#utility.yul\":9810:9817   */\n      not\n        /* \"#utility.yul\":9805:9807   */\n      0x1f\n        /* \"#utility.yul\":9798:9803   */\n      dup4\n        /* \"#utility.yul\":9794:9808   */\n      add\n        /* \"#utility.yul\":9790:9818   */\n      and\n        /* \"#utility.yul\":9780:9818   */\n      swap1\n      pop\n        /* \"#utility.yul\":9722:9824   */\n      swap2\n      swap1\n      pop\n      jump\t// out\n        /* \"#utility.yul\":9830:10054   */\n    tag_123:\n        /* \"#utility.yul\":9970:10004   */\n      0x596120746520656e6375656e74726173207265676973747261646f20656e2065\n        /* \"#utility.yul\":9966:9967   */\n      0x00\n        /* \"#utility.yul\":9958:9964   */\n      dup3\n        /* \"#utility.yul\":9954:9968   */\n      add\n        /* \"#utility.yul\":9947:10005   */\n      mstore\n        /* \"#utility.yul\":10039:10046   */\n      0x6c2067796d000000000000000000000000000000000000000000000000000000\n        /* \"#utility.yul\":10034:10036   */\n      0x20\n        /* \"#utility.yul\":10026:10032   */\n      dup3\n        /* \"#utility.yul\":10022:10037   */\n      add\n        /* \"#utility.yul\":10015:10047   */\n      mstore\n        /* \"#utility.yul\":9830:10054   */\n      pop\n      jump\t// out\n        /* \"#utility.yul\":10060:10295   */\n    tag_128:\n        /* \"#utility.yul\":10200:10234   */\n      0x536f6c6f20656c2041646d696e6973747261646f722064656c2047796d207075\n        /* \"#utility.yul\":10196:10197   */\n      0x00\n        /* \"#utility.yul\":10188:10194   */\n      dup3\n        /* \"#utility.yul\":10184:10198   */\n      add\n        /* \"#utility.yul\":10177:10235   */\n      mstore\n        /* \"#utility.yul\":10269:10287   */\n      0x65646520637265617220636c6173657300000000000000000000000000000000\n        /* \"#utility.yul\":10264:10266   */\n      0x20\n        /* \"#utility.yul\":10256:10262   */\n      dup3\n        /* \"#utility.yul\":10252:10267   */\n      add\n        /* \"#utility.yul\":10245:10288   */\n      mstore\n        /* \"#utility.yul\":10060:10295   */\n      pop\n      jump\t// out\n        /* \"#utility.yul\":10301:10423   */\n    tag_69:\n        /* \"#utility.yul\":10374:10398   */\n      tag_190\n        /* \"#utility.yul\":10392:10397   */\n      dup2\n        /* \"#utility.yul\":10374:10398   */\n      tag_108\n      jump\t// in\n    tag_190:\n        /* \"#utility.yul\":10367:10372   */\n      dup2\n        /* \"#utility.yul\":10364:10399   */\n      eq\n        /* \"#utility.yul\":10354:10417   */\n      tag_191\n      jumpi\n        /* \"#utility.yul\":10413:10414   */\n      0x00\n        /* \"#utility.yul\":10410:10411   */\n      dup1\n        /* \"#utility.yul\":10403:10415   */\n      revert\n        /* \"#utility.yul\":10354:10417   */\n    tag_191:\n        /* \"#utility.yul\":10301:10423   */\n      pop\n      jump\t// out\n        /* \"#utility.yul\":10429:10551   */\n    tag_79:\n        /* \"#utility.yul\":10502:10526   */\n      tag_193\n        /* \"#utility.yul\":10520:10525   */\n      dup2\n        /* \"#utility.yul\":10502:10526   */\n      tag_132\n      jump\t// in\n    tag_193:\n        /* \"#utility.yul\":10495:10500   */\n      dup2\n        /* \"#utility.yul\":10492:10527   */\n      eq\n        /* \"#utility.yul\":10482:10545   */\n      tag_194\n      jumpi\n        /* \"#utility.yul\":10541:10542   */\n      0x00\n        /* \"#utility.yul\":10538:10539   */\n      dup1\n        /* \"#utility.yul\":10531:10543   */\n      revert\n        /* \"#utility.yul\":10482:10545   */\n    tag_194:\n        /* \"#utility.yul\":10429:10551   */\n      pop\n      jump\t// out\n\n    auxdata: 0xa2646970667358221220b969e88b85828584e7d9b1603d311f6f63ad76026bc5fe3cb53641f1cfc0066164736f6c63430008070033\n}\n",
				"bytecode": {
					"linkReferences": {},
					"object": "60a060405234801561001057600080fd5b503373ffffffffffffffffffffffffffffffffffffffff1660808173ffffffffffffffffffffffffffffffffffffffff1660601b8152505060805160601c610a6161006d6000396000818161025901526102940152610a616000f3fe608060405234801561001057600080fd5b50600436106100625760003560e01c8063035af4ca1461006757806312065fe0146100985780632a0acc6a146100b75780634852a212146100d55780636d705ebb146100f1578063a87430ba1461010d575b600080fd5b610081600480360381019061007c9190610525565b61013d565b60405161008f9291906106fe565b60405180910390f35b6100a061020c565b6040516100ae9291906106d5565b60405180910390f35b6100bf610257565b6040516100cc91906106ba565b60405180910390f35b6100ef60048036038101906100ea91906105c1565b61027b565b005b61010b60048036038101906101069190610581565b610346565b005b610127600480360381019061012291906104f8565b610446565b604051610134919061076e565b60405180910390f35b6001602052816000526040600020818051602081018201805184825260208301602085012081835280955050505050506000915091505080600001805461018390610879565b80601f01602080910402602001604051908101604052809291908181526020018280546101af90610879565b80156101fc5780601f106101d1576101008083540402835291602001916101fc565b820191906000526020600020905b8154815290600101906020018083116101df57829003601f168201915b5050505050908060010154905082565b600080336000803373ffffffffffffffffffffffffffffffffffffffff1673ffffffffffffffffffffffffffffffffffffffff16815260200190815260200160002054915091509091565b7f000000000000000000000000000000000000000000000000000000000000000081565b3373ffffffffffffffffffffffffffffffffffffffff167f000000000000000000000000000000000000000000000000000000000000000073ffffffffffffffffffffffffffffffffffffffff1614610309576040517f08c379a00000000000000000000000000000000000000000000000000000000081526004016103009061074e565b60405180910390fd5b7f14d49e3ea4f348b7f368906dfe1a63055c7822d622a61672a35a55ae97a768f9828260405161033a9291906106fe565b60405180910390a15050565b60008060003373ffffffffffffffffffffffffffffffffffffffff1673ffffffffffffffffffffffffffffffffffffffff16815260200190815260200160002054146103c7576040517f08c379a00000000000000000000000000000000000000000000000000000000081526004016103be9061072e565b60405180910390fd5b806000803373ffffffffffffffffffffffffffffffffffffffff1673ffffffffffffffffffffffffffffffffffffffff168152602001908152602001600020819055507e7dc6ab80cc84c043b7b8d4fcafc802187470087f7ea7fccd2e17aecd0256a1828260405161043a9291906106d5565b60405180910390a15050565b60006020528060005260406000206000915090505481565b600061047161046c846107ae565b610789565b90508281526020810184848401111561048d5761048c61093f565b5b610498848285610837565b509392505050565b6000813590506104af816109fd565b92915050565b600082601f8301126104ca576104c961093a565b5b81356104da84826020860161045e565b91505092915050565b6000813590506104f281610a14565b92915050565b60006020828403121561050e5761050d610949565b5b600061051c848285016104a0565b91505092915050565b6000806040838503121561053c5761053b610949565b5b600061054a858286016104a0565b925050602083013567ffffffffffffffff81111561056b5761056a610944565b5b610577858286016104b5565b9150509250929050565b6000806040838503121561059857610597610949565b5b60006105a6858286016104a0565b92505060206105b7858286016104e3565b9150509250929050565b600080604083850312156105d8576105d7610949565b5b600083013567ffffffffffffffff8111156105f6576105f5610944565b5b610602858286016104b5565b9250506020610613858286016104e3565b9150509250929050565b610626816107fb565b82525050565b6000610637826107df565b61064181856107ea565b9350610651818560208601610846565b61065a8161094e565b840191505092915050565b60006106726025836107ea565b915061067d8261095f565b604082019050919050565b60006106956030836107ea565b91506106a0826109ae565b604082019050919050565b6106b48161082d565b82525050565b60006020820190506106cf600083018461061d565b92915050565b60006040820190506106ea600083018561061d565b6106f760208301846106ab565b9392505050565b60006040820190508181036000830152610718818561062c565b905061072760208301846106ab565b9392505050565b6000602082019050818103600083015261074781610665565b9050919050565b6000602082019050818103600083015261076781610688565b9050919050565b600060208201905061078360008301846106ab565b92915050565b60006107936107a4565b905061079f82826108ab565b919050565b6000604051905090565b600067ffffffffffffffff8211156107c9576107c861090b565b5b6107d28261094e565b9050602081019050919050565b600081519050919050565b600082825260208201905092915050565b60006108068261080d565b9050919050565b600073ffffffffffffffffffffffffffffffffffffffff82169050919050565b6000819050919050565b82818337600083830152505050565b60005b83811015610864578082015181840152602081019050610849565b83811115610873576000848401525b50505050565b6000600282049050600182168061089157607f821691505b602082108114156108a5576108a46108dc565b5b50919050565b6108b48261094e565b810181811067ffffffffffffffff821117156108d3576108d261090b565b5b80604052505050565b7f4e487b7100000000000000000000000000000000000000000000000000000000600052602260045260246000fd5b7f4e487b7100000000000000000000000000000000000000000000000000000000600052604160045260246000fd5b600080fd5b600080fd5b600080fd5b600080fd5b6000601f19601f8301169050919050565b7f596120746520656e6375656e74726173207265676973747261646f20656e206560008201527f6c2067796d000000000000000000000000000000000000000000000000000000602082015250565b7f536f6c6f20656c2041646d696e6973747261646f722064656c2047796d20707560008201527f65646520637265617220636c6173657300000000000000000000000000000000602082015250565b610a06816107fb565b8114610a1157600080fd5b50565b610a1d8161082d565b8114610a2857600080fd5b5056fea2646970667358221220b969e88b85828584e7d9b1603d311f6f63ad76026bc5fe3cb53641f1cfc0066164736f6c63430008070033",
					"opcodes": "PUSH1 0xA0 PUSH1 0x40 MSTORE CALLVALUE DUP1 ISZERO PUSH2 0x10 JUMPI PUSH1 0x0 DUP1 REVERT JUMPDEST POP CALLER PUSH20 0xFFFFFFFFFFFFFFFFFFFFFFFFFFFFFFFFFFFFFFFF AND PUSH1 0x80 DUP2 PUSH20 0xFFFFFFFFFFFFFFFFFFFFFFFFFFFFFFFFFFFFFFFF AND PUSH1 0x60 SHL DUP2 MSTORE POP POP PUSH1 0x80 MLOAD PUSH1 0x60 SHR PUSH2 0xA61 PUSH2 0x6D PUSH1 0x0 CODECOPY PUSH1 0x0 DUP2 DUP2 PUSH2 0x259 ADD MSTORE PUSH2 0x294 ADD MSTORE PUSH2 0xA61 PUSH1 0x0 RETURN INVALID PUSH1 0x80 PUSH1 0x40 MSTORE CALLVALUE DUP1 ISZERO PUSH2 0x10 JUMPI PUSH1 0x0 DUP1 REVERT JUMPDEST POP PUSH1 0x4 CALLDATASIZE LT PUSH2 0x62 JUMPI PUSH1 0x0 CALLDATALOAD PUSH1 0xE0 SHR DUP1 PUSH4 0x35AF4CA EQ PUSH2 0x67 JUMPI DUP1 PUSH4 0x12065FE0 EQ PUSH2 0x98 JUMPI DUP1 PUSH4 0x2A0ACC6A EQ PUSH2 0xB7 JUMPI DUP1 PUSH4 0x4852A212 EQ PUSH2 0xD5 JUMPI DUP1 PUSH4 0x6D705EBB EQ PUSH2 0xF1 JUMPI DUP1 PUSH4 0xA87430BA EQ PUSH2 0x10D JUMPI JUMPDEST PUSH1 0x0 DUP1 REVERT JUMPDEST PUSH2 0x81 PUSH1 0x4 DUP1 CALLDATASIZE SUB DUP2 ADD SWAP1 PUSH2 0x7C SWAP2 SWAP1 PUSH2 0x525 JUMP JUMPDEST PUSH2 0x13D JUMP JUMPDEST PUSH1 0x40 MLOAD PUSH2 0x8F SWAP3 SWAP2 SWAP1 PUSH2 0x6FE JUMP JUMPDEST PUSH1 0x40 MLOAD DUP1 SWAP2 SUB SWAP1 RETURN JUMPDEST PUSH2 0xA0 PUSH2 0x20C JUMP JUMPDEST PUSH1 0x40 MLOAD PUSH2 0xAE SWAP3 SWAP2 SWAP1 PUSH2 0x6D5 JUMP JUMPDEST PUSH1 0x40 MLOAD DUP1 SWAP2 SUB SWAP1 RETURN JUMPDEST PUSH2 0xBF PUSH2 0x257 JUMP JUMPDEST PUSH1 0x40 MLOAD PUSH2 0xCC SWAP2 SWAP1 PUSH2 0x6BA JUMP JUMPDEST PUSH1 0x40 MLOAD DUP1 SWAP2 SUB SWAP1 RETURN JUMPDEST PUSH2 0xEF PUSH1 0x4 DUP1 CALLDATASIZE SUB DUP2 ADD SWAP1 PUSH2 0xEA SWAP2 SWAP1 PUSH2 0x5C1 JUMP JUMPDEST PUSH2 0x27B JUMP JUMPDEST STOP JUMPDEST PUSH2 0x10B PUSH1 0x4 DUP1 CALLDATASIZE SUB DUP2 ADD SWAP1 PUSH2 0x106 SWAP2 SWAP1 PUSH2 0x581 JUMP JUMPDEST PUSH2 0x346 JUMP JUMPDEST STOP JUMPDEST PUSH2 0x127 PUSH1 0x4 DUP1 CALLDATASIZE SUB DUP2 ADD SWAP1 PUSH2 0x122 SWAP2 SWAP1 PUSH2 0x4F8 JUMP JUMPDEST PUSH2 0x446 JUMP JUMPDEST PUSH1 0x40 MLOAD PUSH2 0x134 SWAP2 SWAP1 PUSH2 0x76E JUMP JUMPDEST PUSH1 0x40 MLOAD DUP1 SWAP2 SUB SWAP1 RETURN JUMPDEST PUSH1 0x1 PUSH1 0x20 MSTORE DUP2 PUSH1 0x0 MSTORE PUSH1 0x40 PUSH1 0x0 KECCAK256 DUP2 DUP1 MLOAD PUSH1 0x20 DUP2 ADD DUP3 ADD DUP1 MLOAD DUP5 DUP3 MSTORE PUSH1 0x20 DUP4 ADD PUSH1 0x20 DUP6 ADD KECCAK256 DUP2 DUP4 MSTORE DUP1 SWAP6 POP POP POP POP POP POP PUSH1 0x0 SWAP2 POP SWAP2 POP POP DUP1 PUSH1 0x0 ADD DUP1 SLOAD PUSH2 0x183 SWAP1 PUSH2 0x879 JUMP JUMPDEST DUP1 PUSH1 0x1F ADD PUSH1 0x20 DUP1 SWAP2 DIV MUL PUSH1 0x20 ADD PUSH1 0x40 MLOAD SWAP1 DUP2 ADD PUSH1 0x40 MSTORE DUP1 SWAP3 SWAP2 SWAP1 DUP2 DUP2 MSTORE PUSH1 0x20 ADD DUP3 DUP1 SLOAD PUSH2 0x1AF SWAP1 PUSH2 0x879 JUMP JUMPDEST DUP1 ISZERO PUSH2 0x1FC JUMPI DUP1 PUSH1 0x1F LT PUSH2 0x1D1 JUMPI PUSH2 0x100 DUP1 DUP4 SLOAD DIV MUL DUP4 MSTORE SWAP2 PUSH1 0x20 ADD SWAP2 PUSH2 0x1FC JUMP JUMPDEST DUP3 ADD SWAP2 SWAP1 PUSH1 0x0 MSTORE PUSH1 0x20 PUSH1 0x0 KECCAK256 SWAP1 JUMPDEST DUP2 SLOAD DUP2 MSTORE SWAP1 PUSH1 0x1 ADD SWAP1 PUSH1 0x20 ADD DUP1 DUP4 GT PUSH2 0x1DF JUMPI DUP3 SWAP1 SUB PUSH1 0x1F AND DUP3 ADD SWAP2 JUMPDEST POP POP POP POP POP SWAP1 DUP1 PUSH1 0x1 ADD SLOAD SWAP1 POP DUP3 JUMP JUMPDEST PUSH1 0x0 DUP1 CALLER PUSH1 0x0 DUP1 CALLER PUSH20 0xFFFFFFFFFFFFFFFFFFFFFFFFFFFFFFFFFFFFFFFF AND PUSH20 0xFFFFFFFFFFFFFFFFFFFFFFFFFFFFFFFFFFFFFFFF AND DUP2 MSTORE PUSH1 0x20 ADD SWAP1 DUP2 MSTORE PUSH1 0x20 ADD PUSH1 0x0 KECCAK256 SLOAD SWAP2 POP SWAP2 POP SWAP1 SWAP2 JUMP JUMPDEST PUSH32 0x0 DUP2 JUMP JUMPDEST CALLER PUSH20 0xFFFFFFFFFFFFFFFFFFFFFFFFFFFFFFFFFFFFFFFF AND PUSH32 0x0 PUSH20 0xFFFFFFFFFFFFFFFFFFFFFFFFFFFFFFFFFFFFFFFF AND EQ PUSH2 0x309 JUMPI PUSH1 0x40 MLOAD PUSH32 0x8C379A000000000000000000000000000000000000000000000000000000000 DUP2 MSTORE PUSH1 0x4 ADD PUSH2 0x300 SWAP1 PUSH2 0x74E JUMP JUMPDEST PUSH1 0x40 MLOAD DUP1 SWAP2 SUB SWAP1 REVERT JUMPDEST PUSH32 0x14D49E3EA4F348B7F368906DFE1A63055C7822D622A61672A35A55AE97A768F9 DUP3 DUP3 PUSH1 0x40 MLOAD PUSH2 0x33A SWAP3 SWAP2 SWAP1 PUSH2 0x6FE JUMP JUMPDEST PUSH1 0x40 MLOAD DUP1 SWAP2 SUB SWAP1 LOG1 POP POP JUMP JUMPDEST PUSH1 0x0 DUP1 PUSH1 0x0 CALLER PUSH20 0xFFFFFFFFFFFFFFFFFFFFFFFFFFFFFFFFFFFFFFFF AND PUSH20 0xFFFFFFFFFFFFFFFFFFFFFFFFFFFFFFFFFFFFFFFF AND DUP2 MSTORE PUSH1 0x20 ADD SWAP1 DUP2 MSTORE PUSH1 0x20 ADD PUSH1 0x0 KECCAK256 SLOAD EQ PUSH2 0x3C7 JUMPI PUSH1 0x40 MLOAD PUSH32 0x8C379A000000000000000000000000000000000000000000000000000000000 DUP2 MSTORE PUSH1 0x4 ADD PUSH2 0x3BE SWAP1 PUSH2 0x72E JUMP JUMPDEST PUSH1 0x40 MLOAD DUP1 SWAP2 SUB SWAP1 REVERT JUMPDEST DUP1 PUSH1 0x0 DUP1 CALLER PUSH20 0xFFFFFFFFFFFFFFFFFFFFFFFFFFFFFFFFFFFFFFFF AND PUSH20 0xFFFFFFFFFFFFFFFFFFFFFFFFFFFFFFFFFFFFFFFF AND DUP2 MSTORE PUSH1 0x20 ADD SWAP1 DUP2 MSTORE PUSH1 0x20 ADD PUSH1 0x0 KECCAK256 DUP2 SWAP1 SSTORE POP PUSH31 0x7DC6AB80CC84C043B7B8D4FCAFC802187470087F7EA7FCCD2E17AECD0256A1 DUP3 DUP3 PUSH1 0x40 MLOAD PUSH2 0x43A SWAP3 SWAP2 SWAP1 PUSH2 0x6D5 JUMP JUMPDEST PUSH1 0x40 MLOAD DUP1 SWAP2 SUB SWAP1 LOG1 POP POP JUMP JUMPDEST PUSH1 0x0 PUSH1 0x20 MSTORE DUP1 PUSH1 0x0 MSTORE PUSH1 0x40 PUSH1 0x0 KECCAK256 PUSH1 0x0 SWAP2 POP SWAP1 POP SLOAD DUP2 JUMP JUMPDEST PUSH1 0x0 PUSH2 0x471 PUSH2 0x46C DUP5 PUSH2 0x7AE JUMP JUMPDEST PUSH2 0x789 JUMP JUMPDEST SWAP1 POP DUP3 DUP2 MSTORE PUSH1 0x20 DUP2 ADD DUP5 DUP5 DUP5 ADD GT ISZERO PUSH2 0x48D JUMPI PUSH2 0x48C PUSH2 0x93F JUMP JUMPDEST JUMPDEST PUSH2 0x498 DUP5 DUP3 DUP6 PUSH2 0x837 JUMP JUMPDEST POP SWAP4 SWAP3 POP POP POP JUMP JUMPDEST PUSH1 0x0 DUP2 CALLDATALOAD SWAP1 POP PUSH2 0x4AF DUP2 PUSH2 0x9FD JUMP JUMPDEST SWAP3 SWAP2 POP POP JUMP JUMPDEST PUSH1 0x0 DUP3 PUSH1 0x1F DUP4 ADD SLT PUSH2 0x4CA JUMPI PUSH2 0x4C9 PUSH2 0x93A JUMP JUMPDEST JUMPDEST DUP2 CALLDATALOAD PUSH2 0x4DA DUP5 DUP3 PUSH1 0x20 DUP7 ADD PUSH2 0x45E JUMP JUMPDEST SWAP2 POP POP SWAP3 SWAP2 POP POP JUMP JUMPDEST PUSH1 0x0 DUP2 CALLDATALOAD SWAP1 POP PUSH2 0x4F2 DUP2 PUSH2 0xA14 JUMP JUMPDEST SWAP3 SWAP2 POP POP JUMP JUMPDEST PUSH1 0x0 PUSH1 0x20 DUP3 DUP5 SUB SLT ISZERO PUSH2 0x50E JUMPI PUSH2 0x50D PUSH2 0x949 JUMP JUMPDEST JUMPDEST PUSH1 0x0 PUSH2 0x51C DUP5 DUP3 DUP6 ADD PUSH2 0x4A0 JUMP JUMPDEST SWAP2 POP POP SWAP3 SWAP2 POP POP JUMP JUMPDEST PUSH1 0x0 DUP1 PUSH1 0x40 DUP4 DUP6 SUB SLT ISZERO PUSH2 0x53C JUMPI PUSH2 0x53B PUSH2 0x949 JUMP JUMPDEST JUMPDEST PUSH1 0x0 PUSH2 0x54A DUP6 DUP3 DUP7 ADD PUSH2 0x4A0 JUMP JUMPDEST SWAP3 POP POP PUSH1 0x20 DUP4 ADD CALLDATALOAD PUSH8 0xFFFFFFFFFFFFFFFF DUP2 GT ISZERO PUSH2 0x56B JUMPI PUSH2 0x56A PUSH2 0x944 JUMP JUMPDEST JUMPDEST PUSH2 0x577 DUP6 DUP3 DUP7 ADD PUSH2 0x4B5 JUMP JUMPDEST SWAP2 POP POP SWAP3 POP SWAP3 SWAP1 POP JUMP JUMPDEST PUSH1 0x0 DUP1 PUSH1 0x40 DUP4 DUP6 SUB SLT ISZERO PUSH2 0x598 JUMPI PUSH2 0x597 PUSH2 0x949 JUMP JUMPDEST JUMPDEST PUSH1 0x0 PUSH2 0x5A6 DUP6 DUP3 DUP7 ADD PUSH2 0x4A0 JUMP JUMPDEST SWAP3 POP POP PUSH1 0x20 PUSH2 0x5B7 DUP6 DUP3 DUP7 ADD PUSH2 0x4E3 JUMP JUMPDEST SWAP2 POP POP SWAP3 POP SWAP3 SWAP1 POP JUMP JUMPDEST PUSH1 0x0 DUP1 PUSH1 0x40 DUP4 DUP6 SUB SLT ISZERO PUSH2 0x5D8 JUMPI PUSH2 0x5D7 PUSH2 0x949 JUMP JUMPDEST JUMPDEST PUSH1 0x0 DUP4 ADD CALLDATALOAD PUSH8 0xFFFFFFFFFFFFFFFF DUP2 GT ISZERO PUSH2 0x5F6 JUMPI PUSH2 0x5F5 PUSH2 0x944 JUMP JUMPDEST JUMPDEST PUSH2 0x602 DUP6 DUP3 DUP7 ADD PUSH2 0x4B5 JUMP JUMPDEST SWAP3 POP POP PUSH1 0x20 PUSH2 0x613 DUP6 DUP3 DUP7 ADD PUSH2 0x4E3 JUMP JUMPDEST SWAP2 POP POP SWAP3 POP SWAP3 SWAP1 POP JUMP JUMPDEST PUSH2 0x626 DUP2 PUSH2 0x7FB JUMP JUMPDEST DUP3 MSTORE POP POP JUMP JUMPDEST PUSH1 0x0 PUSH2 0x637 DUP3 PUSH2 0x7DF JUMP JUMPDEST PUSH2 0x641 DUP2 DUP6 PUSH2 0x7EA JUMP JUMPDEST SWAP4 POP PUSH2 0x651 DUP2 DUP6 PUSH1 0x20 DUP7 ADD PUSH2 0x846 JUMP JUMPDEST PUSH2 0x65A DUP2 PUSH2 0x94E JUMP JUMPDEST DUP5 ADD SWAP2 POP POP SWAP3 SWAP2 POP POP JUMP JUMPDEST PUSH1 0x0 PUSH2 0x672 PUSH1 0x25 DUP4 PUSH2 0x7EA JUMP JUMPDEST SWAP2 POP PUSH2 0x67D DUP3 PUSH2 0x95F JUMP JUMPDEST PUSH1 0x40 DUP3 ADD SWAP1 POP SWAP2 SWAP1 POP JUMP JUMPDEST PUSH1 0x0 PUSH2 0x695 PUSH1 0x30 DUP4 PUSH2 0x7EA JUMP JUMPDEST SWAP2 POP PUSH2 0x6A0 DUP3 PUSH2 0x9AE JUMP JUMPDEST PUSH1 0x40 DUP3 ADD SWAP1 POP SWAP2 SWAP1 POP JUMP JUMPDEST PUSH2 0x6B4 DUP2 PUSH2 0x82D JUMP JUMPDEST DUP3 MSTORE POP POP JUMP JUMPDEST PUSH1 0x0 PUSH1 0x20 DUP3 ADD SWAP1 POP PUSH2 0x6CF PUSH1 0x0 DUP4 ADD DUP5 PUSH2 0x61D JUMP JUMPDEST SWAP3 SWAP2 POP POP JUMP JUMPDEST PUSH1 0x0 PUSH1 0x40 DUP3 ADD SWAP1 POP PUSH2 0x6EA PUSH1 0x0 DUP4 ADD DUP6 PUSH2 0x61D JUMP JUMPDEST PUSH2 0x6F7 PUSH1 0x20 DUP4 ADD DUP5 PUSH2 0x6AB JUMP JUMPDEST SWAP4 SWAP3 POP POP POP JUMP JUMPDEST PUSH1 0x0 PUSH1 0x40 DUP3 ADD SWAP1 POP DUP2 DUP2 SUB PUSH1 0x0 DUP4 ADD MSTORE PUSH2 0x718 DUP2 DUP6 PUSH2 0x62C JUMP JUMPDEST SWAP1 POP PUSH2 0x727 PUSH1 0x20 DUP4 ADD DUP5 PUSH2 0x6AB JUMP JUMPDEST SWAP4 SWAP3 POP POP POP JUMP JUMPDEST PUSH1 0x0 PUSH1 0x20 DUP3 ADD SWAP1 POP DUP2 DUP2 SUB PUSH1 0x0 DUP4 ADD MSTORE PUSH2 0x747 DUP2 PUSH2 0x665 JUMP JUMPDEST SWAP1 POP SWAP2 SWAP1 POP JUMP JUMPDEST PUSH1 0x0 PUSH1 0x20 DUP3 ADD SWAP1 POP DUP2 DUP2 SUB PUSH1 0x0 DUP4 ADD MSTORE PUSH2 0x767 DUP2 PUSH2 0x688 JUMP JUMPDEST SWAP1 POP SWAP2 SWAP1 POP JUMP JUMPDEST PUSH1 0x0 PUSH1 0x20 DUP3 ADD SWAP1 POP PUSH2 0x783 PUSH1 0x0 DUP4 ADD DUP5 PUSH2 0x6AB JUMP JUMPDEST SWAP3 SWAP2 POP POP JUMP JUMPDEST PUSH1 0x0 PUSH2 0x793 PUSH2 0x7A4 JUMP JUMPDEST SWAP1 POP PUSH2 0x79F DUP3 DUP3 PUSH2 0x8AB JUMP JUMPDEST SWAP2 SWAP1 POP JUMP JUMPDEST PUSH1 0x0 PUSH1 0x40 MLOAD SWAP1 POP SWAP1 JUMP JUMPDEST PUSH1 0x0 PUSH8 0xFFFFFFFFFFFFFFFF DUP3 GT ISZERO PUSH2 0x7C9 JUMPI PUSH2 0x7C8 PUSH2 0x90B JUMP JUMPDEST JUMPDEST PUSH2 0x7D2 DUP3 PUSH2 0x94E JUMP JUMPDEST SWAP1 POP PUSH1 0x20 DUP2 ADD SWAP1 POP SWAP2 SWAP1 POP JUMP JUMPDEST PUSH1 0x0 DUP2 MLOAD SWAP1 POP SWAP2 SWAP1 POP JUMP JUMPDEST PUSH1 0x0 DUP3 DUP3 MSTORE PUSH1 0x20 DUP3 ADD SWAP1 POP SWAP3 SWAP2 POP POP JUMP JUMPDEST PUSH1 0x0 PUSH2 0x806 DUP3 PUSH2 0x80D JUMP JUMPDEST SWAP1 POP SWAP2 SWAP1 POP JUMP JUMPDEST PUSH1 0x0 PUSH20 0xFFFFFFFFFFFFFFFFFFFFFFFFFFFFFFFFFFFFFFFF DUP3 AND SWAP1 POP SWAP2 SWAP1 POP JUMP JUMPDEST PUSH1 0x0 DUP2 SWAP1 POP SWAP2 SWAP1 POP JUMP JUMPDEST DUP3 DUP2 DUP4 CALLDATACOPY PUSH1 0x0 DUP4 DUP4 ADD MSTORE POP POP POP JUMP JUMPDEST PUSH1 0x0 JUMPDEST DUP4 DUP2 LT ISZERO PUSH2 0x864 JUMPI DUP1 DUP3 ADD MLOAD DUP2 DUP5 ADD MSTORE PUSH1 0x20 DUP2 ADD SWAP1 POP PUSH2 0x849 JUMP JUMPDEST DUP4 DUP2 GT ISZERO PUSH2 0x873 JUMPI PUSH1 0x0 DUP5 DUP5 ADD MSTORE JUMPDEST POP POP POP POP JUMP JUMPDEST PUSH1 0x0 PUSH1 0x2 DUP3 DIV SWAP1 POP PUSH1 0x1 DUP3 AND DUP1 PUSH2 0x891 JUMPI PUSH1 0x7F DUP3 AND SWAP2 POP JUMPDEST PUSH1 0x20 DUP3 LT DUP2 EQ ISZERO PUSH2 0x8A5 JUMPI PUSH2 0x8A4 PUSH2 0x8DC JUMP JUMPDEST JUMPDEST POP SWAP2 SWAP1 POP JUMP JUMPDEST PUSH2 0x8B4 DUP3 PUSH2 0x94E JUMP JUMPDEST DUP2 ADD DUP2 DUP2 LT PUSH8 0xFFFFFFFFFFFFFFFF DUP3 GT OR ISZERO PUSH2 0x8D3 JUMPI PUSH2 0x8D2 PUSH2 0x90B JUMP JUMPDEST JUMPDEST DUP1 PUSH1 0x40 MSTORE POP POP POP JUMP JUMPDEST PUSH32 0x4E487B7100000000000000000000000000000000000000000000000000000000 PUSH1 0x0 MSTORE PUSH1 0x22 PUSH1 0x4 MSTORE PUSH1 0x24 PUSH1 0x0 REVERT JUMPDEST PUSH32 0x4E487B7100000000000000000000000000000000000000000000000000000000 PUSH1 0x0 MSTORE PUSH1 0x41 PUSH1 0x4 MSTORE PUSH1 0x24 PUSH1 0x0 REVERT JUMPDEST PUSH1 0x0 DUP1 REVERT JUMPDEST PUSH1 0x0 DUP1 REVERT JUMPDEST PUSH1 0x0 DUP1 REVERT JUMPDEST PUSH1 0x0 DUP1 REVERT JUMPDEST PUSH1 0x0 PUSH1 0x1F NOT PUSH1 0x1F DUP4 ADD AND SWAP1 POP SWAP2 SWAP1 POP JUMP JUMPDEST PUSH32 0x596120746520656E6375656E74726173207265676973747261646F20656E2065 PUSH1 0x0 DUP3 ADD MSTORE PUSH32 0x6C2067796D000000000000000000000000000000000000000000000000000000 PUSH1 0x20 DUP3 ADD MSTORE POP JUMP JUMPDEST PUSH32 0x536F6C6F20656C2041646D696E6973747261646F722064656C2047796D207075 PUSH1 0x0 DUP3 ADD MSTORE PUSH32 0x65646520637265617220636C6173657300000000000000000000000000000000 PUSH1 0x20 DUP3 ADD MSTORE POP JUMP JUMPDEST PUSH2 0xA06 DUP2 PUSH2 0x7FB JUMP JUMPDEST DUP2 EQ PUSH2 0xA11 JUMPI PUSH1 0x0 DUP1 REVERT JUMPDEST POP JUMP JUMPDEST PUSH2 0xA1D DUP2 PUSH2 0x82D JUMP JUMPDEST DUP2 EQ PUSH2 0xA28 JUMPI PUSH1 0x0 DUP1 REVERT JUMPDEST POP JUMP INVALID LOG2 PUSH5 0x6970667358 0x22 SLT KECCAK256 0xB9 PUSH10 0xE88B85828584E7D9B160 RETURNDATASIZE BALANCE 0x1F PUSH16 0x63AD76026BC5FE3CB53641F1CFC00661 PUSH5 0x736F6C6343 STOP ADDMOD SMOD STOP CALLER "
				},
				"gasEstimates": {
					"creation": {
						"codeDepositCost": "531400",
						"executionCost": "infinite",
						"totalCost": "infinite"
					},
					"external": {
						"ADMIN()": "infinite",
						"clases(address,string)": "infinite",
						"createClass(string,uint256)": "infinite",
						"getBalance()": "2688",
						"register(address,uint256)": "infinite",
						"users(address)": "2902"
					}
				},
				"methodIdentifiers": {
					"ADMIN()": "2a0acc6a",
					"clases(address,string)": "035af4ca",
					"createClass(string,uint256)": "4852a212",
					"getBalance()": "12065fe0",
					"register(address,uint256)": "6d705ebb",
					"users(address)": "a87430ba"
				}
			},
			"storageLayout": {
				"storage": [
					{
						"astId": 33,
						"contract": "contracts/Gym_Contact.sol:gym",
						"label": "users",
						"offset": 0,
						"slot": "0",
						"type": "t_mapping(t_address,t_uint256)"
					},
					{
						"astId": 40,
						"contract": "contracts/Gym_Contact.sol:gym",
						"label": "clases",
						"offset": 0,
						"slot": "1",
						"type": "t_mapping(t_address,t_mapping(t_string_memory_ptr,t_struct(Class)6_storage))"
					}
				],
				"types": {
					"t_address": {
						"encoding": "inplace",
						"label": "address",
						"numberOfBytes": "20"
					},
					"t_mapping(t_address,t_mapping(t_string_memory_ptr,t_struct(Class)6_storage))": {
						"encoding": "mapping",
						"key": "t_address",
						"label": "mapping(address => mapping(string => struct gym.Class))",
						"numberOfBytes": "32",
						"value": "t_mapping(t_string_memory_ptr,t_struct(Class)6_storage)"
					},
					"t_mapping(t_address,t_uint256)": {
						"encoding": "mapping",
						"key": "t_address",
						"label": "mapping(address => uint256)",
						"numberOfBytes": "32",
						"value": "t_uint256"
					},
					"t_mapping(t_string_memory_ptr,t_struct(Class)6_storage)": {
						"encoding": "mapping",
						"key": "t_string_memory_ptr",
						"label": "mapping(string => struct gym.Class)",
						"numberOfBytes": "32",
						"value": "t_struct(Class)6_storage"
					},
					"t_string_memory_ptr": {
						"encoding": "bytes",
						"label": "string",
						"numberOfBytes": "32"
					},
					"t_string_storage": {
						"encoding": "bytes",
						"label": "string",
						"numberOfBytes": "32"
					},
					"t_struct(Class)6_storage": {
						"encoding": "inplace",
						"label": "struct gym.Class",
						"members": [
							{
								"astId": 3,
								"contract": "contracts/Gym_Contact.sol:gym",
								"label": "name",
								"offset": 0,
								"slot": "0",
								"type": "t_string_storage"
							},
							{
								"astId": 5,
								"contract": "contracts/Gym_Contact.sol:gym",
								"label": "value",
								"offset": 0,
								"slot": "1",
								"type": "t_uint256"
							}
						],
						"numberOfBytes": "64"
					},
					"t_uint256": {
						"encoding": "inplace",
						"label": "uint256",
						"numberOfBytes": "32"
					}
				}
			},
			"userdoc": {
				"kind": "user",
				"methods": {},
				"version": 1
			}
		}
	}
}