{
	"contracts/Gym_Contact.sol": {
		"gym": {
			"abi": [
				{
					"inputs": [],
					"stateMutability": "nonpayable",
					"type": "constructor"
				},
				{
					"anonymous": false,
					"inputs": [
						{
							"indexed": false,
							"internalType": "string",
							"name": "name",
							"type": "string"
						},
						{
							"indexed": false,
							"internalType": "uint256",
							"name": "value",
							"type": "uint256"
						}
					],
					"name": "ClassCreated",
					"type": "event"
				},
				{
					"anonymous": false,
					"inputs": [
						{
							"indexed": false,
							"internalType": "address",
							"name": "user",
							"type": "address"
						},
						{
							"indexed": false,
							"internalType": "uint256",
							"name": "credits",
							"type": "uint256"
						}
					],
					"name": "Register",
					"type": "event"
				},
				{
					"inputs": [],
					"name": "ADMIN",
					"outputs": [
						{
							"internalType": "address",
							"name": "",
							"type": "address"
						}
					],
					"stateMutability": "view",
					"type": "function"
				},
				{
					"inputs": [
						{
							"internalType": "uint256",
							"name": "",
							"type": "uint256"
						}
					],
					"name": "class",
					"outputs": [
						{
							"internalType": "string",
							"name": "name",
							"type": "string"
						},
						{
							"internalType": "uint256",
							"name": "value",
							"type": "uint256"
						}
					],
					"stateMutability": "view",
					"type": "function"
				},
				{
					"inputs": [
						{
							"internalType": "string",
							"name": "_name",
							"type": "string"
						},
						{
							"internalType": "uint256",
							"name": "_value",
							"type": "uint256"
						}
					],
					"name": "createClass",
					"outputs": [],
					"stateMutability": "nonpayable",
					"type": "function"
				},
				{
					"inputs": [],
					"name": "getBalance",
					"outputs": [
						{
							"internalType": "address",
							"name": "",
							"type": "address"
						},
						{
							"internalType": "uint256",
							"name": "",
							"type": "uint256"
						}
					],
					"stateMutability": "view",
					"type": "function"
				},
				{
					"inputs": [
						{
							"internalType": "uint256",
							"name": "_index",
							"type": "uint256"
						}
					],
					"name": "getClass",
					"outputs": [
						{
							"internalType": "string",
							"name": "name",
							"type": "string"
						},
						{
							"internalType": "uint256",
							"name": "value",
							"type": "uint256"
						}
					],
					"stateMutability": "view",
					"type": "function"
				},
				{
					"inputs": [
						{
							"internalType": "uint256",
							"name": "_value",
							"type": "uint256"
						}
					],
					"name": "getCredits",
					"outputs": [],
					"stateMutability": "nonpayable",
					"type": "function"
				},
				{
					"inputs": [
						{
							"internalType": "address",
							"name": "_address",
							"type": "address"
						},
						{
							"internalType": "uint256",
							"name": "_credits",
							"type": "uint256"
						}
					],
					"name": "register",
					"outputs": [],
					"stateMutability": "nonpayable",
					"type": "function"
				},
				{
					"inputs": [
						{
							"internalType": "uint256",
							"name": "_index",
							"type": "uint256"
						}
					],
					"name": "removeClass",
					"outputs": [],
					"stateMutability": "nonpayable",
					"type": "function"
				},
				{
					"inputs": [
						{
							"internalType": "uint256",
							"name": "_index",
							"type": "uint256"
						}
					],
					"name": "takeClass",
					"outputs": [],
					"stateMutability": "nonpayable",
					"type": "function"
				},
				{
					"inputs": [
						{
							"internalType": "uint256",
							"name": "_value",
							"type": "uint256"
						},
						{
							"internalType": "address",
							"name": "_address",
							"type": "address"
						}
					],
					"name": "transferCredits",
					"outputs": [],
					"stateMutability": "nonpayable",
					"type": "function"
				},
				{
					"inputs": [
						{
							"internalType": "uint256",
							"name": "_index",
							"type": "uint256"
						},
						{
							"internalType": "string",
							"name": "_name",
							"type": "string"
						},
						{
							"internalType": "uint256",
							"name": "_value",
							"type": "uint256"
						}
					],
					"name": "updateClass",
					"outputs": [],
					"stateMutability": "nonpayable",
					"type": "function"
				},
				{
					"inputs": [
						{
							"internalType": "address",
							"name": "",
							"type": "address"
						}
					],
					"name": "users",
					"outputs": [
						{
							"internalType": "uint256",
							"name": "",
							"type": "uint256"
						}
					],
					"stateMutability": "view",
					"type": "function"
				}
			],
			"devdoc": {
				"kind": "dev",
				"methods": {},
				"version": 1
			},
			"evm": {
				"assembly": "    /* \"contracts/Gym_Contact.sol\":70:2831  contract gym {\r... */\n  mstore(0x40, 0xa0)\n    /* \"contracts/Gym_Contact.sol\":389:440  constructor() {\r... */\n  callvalue\n  dup1\n  iszero\n  tag_1\n  jumpi\n  0x00\n  dup1\n  revert\ntag_1:\n  pop\n    /* \"contracts/Gym_Contact.sol\":422:432  msg.sender */\n  caller\n    /* \"contracts/Gym_Contact.sol\":414:432  ADMIN = msg.sender */\n  0xffffffffffffffffffffffffffffffffffffffff\n  and\n  0x80\n  dup2\n  0xffffffffffffffffffffffffffffffffffffffff\n  and\n  0x60\n  shl\n  dup2\n  mstore\n  pop\n  pop\n    /* \"contracts/Gym_Contact.sol\":70:2831  contract gym {\r... */\n  shr(0x60, mload(0x80))\n  codecopy(0x00, dataOffset(sub_0), dataSize(sub_0))\n  0x00\n  assignImmutable(\"0x731dc163f73d31d8c68f9917ce4ff967753939f70432973c04fd2c2a48148607\")\n  return(0x00, dataSize(sub_0))\nstop\n\nsub_0: assembly {\n        /* \"contracts/Gym_Contact.sol\":70:2831  contract gym {\r... */\n      mstore(0x40, 0x80)\n      callvalue\n      dup1\n      iszero\n      tag_1\n      jumpi\n      0x00\n      dup1\n      revert\n    tag_1:\n      pop\n      jumpi(tag_2, lt(calldatasize, 0x04))\n      shr(0xe0, calldataload(0x00))\n      dup1\n      0x512d62df\n      gt\n      tag_15\n      jumpi\n      dup1\n      0x512d62df\n      eq\n      tag_9\n      jumpi\n      dup1\n      0x6d705ebb\n      eq\n      tag_10\n      jumpi\n      dup1\n      0x72c30f45\n      eq\n      tag_11\n      jumpi\n      dup1\n      0x7aed8136\n      eq\n      tag_12\n      jumpi\n      dup1\n      0xa87430ba\n      eq\n      tag_13\n      jumpi\n      dup1\n      0xd93b2dd0\n      eq\n      tag_14\n      jumpi\n      jump(tag_2)\n    tag_15:\n      dup1\n      0x12065fe0\n      eq\n      tag_3\n      jumpi\n      dup1\n      0x19389b95\n      eq\n      tag_4\n      jumpi\n      dup1\n      0x1e8be099\n      eq\n      tag_5\n      jumpi\n      dup1\n      0x2a0acc6a\n      eq\n      tag_6\n      jumpi\n      dup1\n      0x3613a9f4\n      eq\n      tag_7\n      jumpi\n      dup1\n      0x4852a212\n      eq\n      tag_8\n      jumpi\n    tag_2:\n      0x00\n      dup1\n      revert\n        /* \"contracts/Gym_Contact.sol\":1753:1866  function getBalance() public view returns(address, uint){\r... */\n    tag_3:\n      tag_16\n      tag_17\n      jump\t// in\n    tag_16:\n      mload(0x40)\n      tag_18\n      swap3\n      swap2\n      swap1\n      tag_19\n      jump\t// in\n    tag_18:\n      mload(0x40)\n      dup1\n      swap2\n      sub\n      swap1\n      return\n        /* \"contracts/Gym_Contact.sol\":2446:2555  function getCredits(uint _value) public {\r... */\n    tag_4:\n      tag_20\n      0x04\n      dup1\n      calldatasize\n      sub\n      dup2\n      add\n      swap1\n      tag_21\n      swap2\n      swap1\n      tag_22\n      jump\t// in\n    tag_21:\n      tag_23\n      jump\t// in\n    tag_20:\n      stop\n        /* \"contracts/Gym_Contact.sol\":855:1139  function updateClass(uint _index, string memory _name, uint _value) public {\r... */\n    tag_5:\n      tag_24\n      0x04\n      dup1\n      calldatasize\n      sub\n      dup2\n      add\n      swap1\n      tag_25\n      swap2\n      swap1\n      tag_26\n      jump\t// in\n    tag_25:\n      tag_27\n      jump\t// in\n    tag_24:\n      stop\n        /* \"contracts/Gym_Contact.sol\":350:380  address immutable public ADMIN */\n    tag_6:\n      tag_28\n      tag_29\n      jump\t// in\n    tag_28:\n      mload(0x40)\n      tag_30\n      swap2\n      swap1\n      tag_31\n      jump\t// in\n    tag_30:\n      mload(0x40)\n      dup1\n      swap2\n      sub\n      swap1\n      return\n        /* \"contracts/Gym_Contact.sol\":542:562  Class[] public class */\n    tag_7:\n      tag_32\n      0x04\n      dup1\n      calldatasize\n      sub\n      dup2\n      add\n      swap1\n      tag_33\n      swap2\n      swap1\n      tag_22\n      jump\t// in\n    tag_33:\n      tag_34\n      jump\t// in\n    tag_32:\n      mload(0x40)\n      tag_35\n      swap3\n      swap2\n      swap1\n      tag_36\n      jump\t// in\n    tag_35:\n      mload(0x40)\n      dup1\n      swap2\n      sub\n      swap1\n      return\n        /* \"contracts/Gym_Contact.sol\":600:847  function createClass(string memory _name, uint _value) public {\r... */\n    tag_8:\n      tag_37\n      0x04\n      dup1\n      calldatasize\n      sub\n      dup2\n      add\n      swap1\n      tag_38\n      swap2\n      swap1\n      tag_39\n      jump\t// in\n    tag_38:\n      tag_40\n      jump\t// in\n    tag_37:\n      stop\n        /* \"contracts/Gym_Contact.sol\":1874:2125  function getClass(uint _index) public view returns (string memory name, uint value) {\r... */\n    tag_9:\n      tag_41\n      0x04\n      dup1\n      calldatasize\n      sub\n      dup2\n      add\n      swap1\n      tag_42\n      swap2\n      swap1\n      tag_22\n      jump\t// in\n    tag_42:\n      tag_43\n      jump\t// in\n    tag_41:\n      mload(0x40)\n      tag_44\n      swap3\n      swap2\n      swap1\n      tag_36\n      jump\t// in\n    tag_44:\n      mload(0x40)\n      dup1\n      swap2\n      sub\n      swap1\n      return\n        /* \"contracts/Gym_Contact.sol\":1359:1745  function register(address _address, uint _credits) public {\r... */\n    tag_10:\n      tag_45\n      0x04\n      dup1\n      calldatasize\n      sub\n      dup2\n      add\n      swap1\n      tag_46\n      swap2\n      swap1\n      tag_47\n      jump\t// in\n    tag_46:\n      tag_48\n      jump\t// in\n    tag_45:\n      stop\n        /* \"contracts/Gym_Contact.sol\":1147:1321  function removeClass(uint _index) public {\r... */\n    tag_11:\n      tag_49\n      0x04\n      dup1\n      calldatasize\n      sub\n      dup2\n      add\n      swap1\n      tag_50\n      swap2\n      swap1\n      tag_22\n      jump\t// in\n    tag_50:\n      tag_51\n      jump\t// in\n    tag_49:\n      stop\n        /* \"contracts/Gym_Contact.sol\":2133:2438  function takeClass(uint _index) public {\r... */\n    tag_12:\n      tag_52\n      0x04\n      dup1\n      calldatasize\n      sub\n      dup2\n      add\n      swap1\n      tag_53\n      swap2\n      swap1\n      tag_22\n      jump\t// in\n    tag_53:\n      tag_54\n      jump\t// in\n    tag_52:\n      stop\n        /* \"contracts/Gym_Contact.sol\":464:501  mapping(address => uint) public users */\n    tag_13:\n      tag_55\n      0x04\n      dup1\n      calldatasize\n      sub\n      dup2\n      add\n      swap1\n      tag_56\n      swap2\n      swap1\n      tag_57\n      jump\t// in\n    tag_56:\n      tag_58\n      jump\t// in\n    tag_55:\n      mload(0x40)\n      tag_59\n      swap2\n      swap1\n      tag_60\n      jump\t// in\n    tag_59:\n      mload(0x40)\n      dup1\n      swap2\n      sub\n      swap1\n      return\n        /* \"contracts/Gym_Contact.sol\":2563:2828  function transferCredits(uint _value, address _address) public {\r... */\n    tag_14:\n      tag_61\n      0x04\n      dup1\n      calldatasize\n      sub\n      dup2\n      add\n      swap1\n      tag_62\n      swap2\n      swap1\n      tag_63\n      jump\t// in\n    tag_62:\n      tag_64\n      jump\t// in\n    tag_61:\n      stop\n        /* \"contracts/Gym_Contact.sol\":1753:1866  function getBalance() public view returns(address, uint){\r... */\n    tag_17:\n        /* \"contracts/Gym_Contact.sol\":1795:1802  address */\n      0x00\n        /* \"contracts/Gym_Contact.sol\":1804:1808  uint */\n      dup1\n        /* \"contracts/Gym_Contact.sol\":1828:1838  msg.sender */\n      caller\n        /* \"contracts/Gym_Contact.sol\":1840:1845  users */\n      0x00\n        /* \"contracts/Gym_Contact.sol\":1840:1857  users[msg.sender] */\n      dup1\n        /* \"contracts/Gym_Contact.sol\":1846:1856  msg.sender */\n      caller\n        /* \"contracts/Gym_Contact.sol\":1840:1857  users[msg.sender] */\n      0xffffffffffffffffffffffffffffffffffffffff\n      and\n      0xffffffffffffffffffffffffffffffffffffffff\n      and\n      dup2\n      mstore\n      0x20\n      add\n      swap1\n      dup2\n      mstore\n      0x20\n      add\n      0x00\n      keccak256\n      sload\n        /* \"contracts/Gym_Contact.sol\":1820:1858  return (msg.sender, users[msg.sender]) */\n      swap2\n      pop\n      swap2\n      pop\n        /* \"contracts/Gym_Contact.sol\":1753:1866  function getBalance() public view returns(address, uint){\r... */\n      swap1\n      swap2\n      jump\t// out\n        /* \"contracts/Gym_Contact.sol\":2446:2555  function getCredits(uint _value) public {\r... */\n    tag_23:\n        /* \"contracts/Gym_Contact.sol\":2518:2524  _value */\n      dup1\n        /* \"contracts/Gym_Contact.sol\":2497:2502  users */\n      0x00\n        /* \"contracts/Gym_Contact.sol\":2497:2514  users[msg.sender] */\n      dup1\n        /* \"contracts/Gym_Contact.sol\":2503:2513  msg.sender */\n      caller\n        /* \"contracts/Gym_Contact.sol\":2497:2514  users[msg.sender] */\n      0xffffffffffffffffffffffffffffffffffffffff\n      and\n      0xffffffffffffffffffffffffffffffffffffffff\n      and\n      dup2\n      mstore\n      0x20\n      add\n      swap1\n      dup2\n      mstore\n      0x20\n      add\n      0x00\n      keccak256\n      0x00\n        /* \"contracts/Gym_Contact.sol\":2497:2524  users[msg.sender] += _value */\n      dup3\n      dup3\n      sload\n      tag_67\n      swap2\n      swap1\n      tag_68\n      jump\t// in\n    tag_67:\n      swap3\n      pop\n      pop\n      dup2\n      swap1\n      sstore\n      pop\n        /* \"contracts/Gym_Contact.sol\":2535:2547  getBalance() */\n      tag_69\n        /* \"contracts/Gym_Contact.sol\":2535:2545  getBalance */\n      tag_17\n        /* \"contracts/Gym_Contact.sol\":2535:2547  getBalance() */\n      jump\t// in\n    tag_69:\n      pop\n      pop\n        /* \"contracts/Gym_Contact.sol\":2446:2555  function getCredits(uint _value) public {\r... */\n      pop\n      jump\t// out\n        /* \"contracts/Gym_Contact.sol\":855:1139  function updateClass(uint _index, string memory _name, uint _value) public {\r... */\n    tag_27:\n        /* \"contracts/Gym_Contact.sol\":958:968  msg.sender */\n      caller\n        /* \"contracts/Gym_Contact.sol\":949:968  ADMIN == msg.sender */\n      0xffffffffffffffffffffffffffffffffffffffff\n      and\n        /* \"contracts/Gym_Contact.sol\":949:954  ADMIN */\n      immutable(\"0x731dc163f73d31d8c68f9917ce4ff967753939f70432973c04fd2c2a48148607\")\n        /* \"contracts/Gym_Contact.sol\":949:968  ADMIN == msg.sender */\n      0xffffffffffffffffffffffffffffffffffffffff\n      and\n      eq\n        /* \"contracts/Gym_Contact.sol\":941:1025  require(ADMIN == msg.sender, \"Solo el Administrador del Gym puede modificar clases\") */\n      tag_71\n      jumpi\n      mload(0x40)\n      0x08c379a000000000000000000000000000000000000000000000000000000000\n      dup2\n      mstore\n      0x04\n      add\n      tag_72\n      swap1\n      tag_73\n      jump\t// in\n    tag_72:\n      mload(0x40)\n      dup1\n      swap2\n      sub\n      swap1\n      revert\n    tag_71:\n        /* \"contracts/Gym_Contact.sol\":1036:1055  Class storage clase */\n      0x00\n        /* \"contracts/Gym_Contact.sol\":1058:1063  class */\n      0x01\n        /* \"contracts/Gym_Contact.sol\":1064:1070  _index */\n      dup5\n        /* \"contracts/Gym_Contact.sol\":1058:1071  class[_index] */\n      dup2\n      sload\n      dup2\n      lt\n      tag_74\n      jumpi\n      tag_75\n      tag_76\n      jump\t// in\n    tag_75:\n    tag_74:\n      swap1\n      0x00\n      mstore\n      keccak256(0x00, 0x20)\n      swap1\n      0x02\n      mul\n      add\n        /* \"contracts/Gym_Contact.sol\":1036:1071  Class storage clase = class[_index] */\n      swap1\n      pop\n        /* \"contracts/Gym_Contact.sol\":1095:1100  _name */\n      dup3\n        /* \"contracts/Gym_Contact.sol\":1082:1087  clase */\n      dup2\n        /* \"contracts/Gym_Contact.sol\":1082:1092  clase.name */\n      0x00\n      add\n        /* \"contracts/Gym_Contact.sol\":1082:1100  clase.name = _name */\n      swap1\n      dup1\n      mload\n      swap1\n      0x20\n      add\n      swap1\n      tag_78\n      swap3\n      swap2\n      swap1\n      tag_79\n      jump\t// in\n    tag_78:\n      pop\n        /* \"contracts/Gym_Contact.sol\":1125:1131  _value */\n      dup2\n        /* \"contracts/Gym_Contact.sol\":1111:1116  clase */\n      dup2\n        /* \"contracts/Gym_Contact.sol\":1111:1122  clase.value */\n      0x01\n      add\n        /* \"contracts/Gym_Contact.sol\":1111:1131  clase.value = _value */\n      dup2\n      swap1\n      sstore\n      pop\n        /* \"contracts/Gym_Contact.sol\":930:1139  {\r... */\n      pop\n        /* \"contracts/Gym_Contact.sol\":855:1139  function updateClass(uint _index, string memory _name, uint _value) public {\r... */\n      pop\n      pop\n      pop\n      jump\t// out\n        /* \"contracts/Gym_Contact.sol\":350:380  address immutable public ADMIN */\n    tag_29:\n      immutable(\"0x731dc163f73d31d8c68f9917ce4ff967753939f70432973c04fd2c2a48148607\")\n      dup2\n      jump\t// out\n        /* \"contracts/Gym_Contact.sol\":542:562  Class[] public class */\n    tag_34:\n      0x01\n      dup2\n      dup2\n      sload\n      dup2\n      lt\n      tag_80\n      jumpi\n      0x00\n      dup1\n      revert\n    tag_80:\n      swap1\n      0x00\n      mstore\n      keccak256(0x00, 0x20)\n      swap1\n      0x02\n      mul\n      add\n      0x00\n      swap2\n      pop\n      swap1\n      pop\n      dup1\n      0x00\n      add\n      dup1\n      sload\n      tag_82\n      swap1\n      tag_83\n      jump\t// in\n    tag_82:\n      dup1\n      0x1f\n      add\n      0x20\n      dup1\n      swap2\n      div\n      mul\n      0x20\n      add\n      mload(0x40)\n      swap1\n      dup2\n      add\n      0x40\n      mstore\n      dup1\n      swap3\n      swap2\n      swap1\n      dup2\n      dup2\n      mstore\n      0x20\n      add\n      dup3\n      dup1\n      sload\n      tag_84\n      swap1\n      tag_83\n      jump\t// in\n    tag_84:\n      dup1\n      iszero\n      tag_85\n      jumpi\n      dup1\n      0x1f\n      lt\n      tag_86\n      jumpi\n      0x0100\n      dup1\n      dup4\n      sload\n      div\n      mul\n      dup4\n      mstore\n      swap2\n      0x20\n      add\n      swap2\n      jump(tag_85)\n    tag_86:\n      dup3\n      add\n      swap2\n      swap1\n      0x00\n      mstore\n      keccak256(0x00, 0x20)\n      swap1\n    tag_87:\n      dup2\n      sload\n      dup2\n      mstore\n      swap1\n      0x01\n      add\n      swap1\n      0x20\n      add\n      dup1\n      dup4\n      gt\n      tag_87\n      jumpi\n      dup3\n      swap1\n      sub\n      0x1f\n      and\n      dup3\n      add\n      swap2\n    tag_85:\n      pop\n      pop\n      pop\n      pop\n      pop\n      swap1\n      dup1\n      0x01\n      add\n      sload\n      swap1\n      pop\n      dup3\n      jump\t// out\n        /* \"contracts/Gym_Contact.sol\":600:847  function createClass(string memory _name, uint _value) public {\r... */\n    tag_40:\n        /* \"contracts/Gym_Contact.sol\":690:700  msg.sender */\n      caller\n        /* \"contracts/Gym_Contact.sol\":681:700  ADMIN == msg.sender */\n      0xffffffffffffffffffffffffffffffffffffffff\n      and\n        /* \"contracts/Gym_Contact.sol\":681:686  ADMIN */\n      immutable(\"0x731dc163f73d31d8c68f9917ce4ff967753939f70432973c04fd2c2a48148607\")\n        /* \"contracts/Gym_Contact.sol\":681:700  ADMIN == msg.sender */\n      0xffffffffffffffffffffffffffffffffffffffff\n      and\n      eq\n        /* \"contracts/Gym_Contact.sol\":673:753  require(ADMIN == msg.sender, \"Solo el Administrador del Gym puede crear clases\") */\n      tag_89\n      jumpi\n      mload(0x40)\n      0x08c379a000000000000000000000000000000000000000000000000000000000\n      dup2\n      mstore\n      0x04\n      add\n      tag_90\n      swap1\n      tag_91\n      jump\t// in\n    tag_90:\n      mload(0x40)\n      dup1\n      swap2\n      sub\n      swap1\n      revert\n    tag_89:\n        /* \"contracts/Gym_Contact.sol\":764:769  class */\n      0x01\n        /* \"contracts/Gym_Contact.sol\":775:795  Class(_name, _value) */\n      mload(0x40)\n      dup1\n      0x40\n      add\n      0x40\n      mstore\n      dup1\n        /* \"contracts/Gym_Contact.sol\":781:786  _name */\n      dup5\n        /* \"contracts/Gym_Contact.sol\":775:795  Class(_name, _value) */\n      dup2\n      mstore\n      0x20\n      add\n        /* \"contracts/Gym_Contact.sol\":788:794  _value */\n      dup4\n        /* \"contracts/Gym_Contact.sol\":775:795  Class(_name, _value) */\n      dup2\n      mstore\n      pop\n        /* \"contracts/Gym_Contact.sol\":764:796  class.push(Class(_name, _value)) */\n      swap1\n      dup1\n      0x01\n      dup2\n      sload\n      add\n      dup1\n      dup3\n      sstore\n      dup1\n      swap2\n      pop\n      pop\n      0x01\n      swap1\n      sub\n      swap1\n      0x00\n      mstore\n      keccak256(0x00, 0x20)\n      swap1\n      0x02\n      mul\n      add\n      0x00\n      swap1\n      swap2\n      swap1\n      swap2\n      swap1\n      swap2\n      pop\n      0x00\n      dup3\n      add\n      mload\n      dup2\n      0x00\n      add\n      swap1\n      dup1\n      mload\n      swap1\n      0x20\n      add\n      swap1\n      tag_93\n      swap3\n      swap2\n      swap1\n      tag_79\n      jump\t// in\n    tag_93:\n      pop\n      0x20\n      dup3\n      add\n      mload\n      dup2\n      0x01\n      add\n      sstore\n      pop\n      pop\n        /* \"contracts/Gym_Contact.sol\":812:839  ClassCreated(_name, _value) */\n      0x14d49e3ea4f348b7f368906dfe1a63055c7822d622a61672a35a55ae97a768f9\n        /* \"contracts/Gym_Contact.sol\":825:830  _name */\n      dup3\n        /* \"contracts/Gym_Contact.sol\":832:838  _value */\n      dup3\n        /* \"contracts/Gym_Contact.sol\":812:839  ClassCreated(_name, _value) */\n      mload(0x40)\n      tag_94\n      swap3\n      swap2\n      swap1\n      tag_36\n      jump\t// in\n    tag_94:\n      mload(0x40)\n      dup1\n      swap2\n      sub\n      swap1\n      log1\n        /* \"contracts/Gym_Contact.sol\":600:847  function createClass(string memory _name, uint _value) public {\r... */\n      pop\n      pop\n      jump\t// out\n        /* \"contracts/Gym_Contact.sol\":1874:2125  function getClass(uint _index) public view returns (string memory name, uint value) {\r... */\n    tag_43:\n        /* \"contracts/Gym_Contact.sol\":1926:1944  string memory name */\n      0x60\n        /* \"contracts/Gym_Contact.sol\":1946:1956  uint value */\n      0x00\n        /* \"contracts/Gym_Contact.sol\":1969:1988  Class storage clase */\n      dup1\n        /* \"contracts/Gym_Contact.sol\":1991:1996  class */\n      0x01\n        /* \"contracts/Gym_Contact.sol\":1997:2003  _index */\n      dup5\n        /* \"contracts/Gym_Contact.sol\":1991:2004  class[_index] */\n      dup2\n      sload\n      dup2\n      lt\n      tag_96\n      jumpi\n      tag_97\n      tag_76\n      jump\t// in\n    tag_97:\n    tag_96:\n      swap1\n      0x00\n      mstore\n      keccak256(0x00, 0x20)\n      swap1\n      0x02\n      mul\n      add\n        /* \"contracts/Gym_Contact.sol\":1969:2004  Class storage clase = class[_index] */\n      swap1\n      pop\n        /* \"contracts/Gym_Contact.sol\":2038:2039  0 */\n      0x00\n        /* \"contracts/Gym_Contact.sol\":2023:2028  clase */\n      dup2\n        /* \"contracts/Gym_Contact.sol\":2023:2034  clase.value */\n      0x01\n      add\n      sload\n        /* \"contracts/Gym_Contact.sol\":2023:2039  clase.value == 0 */\n      eq\n        /* \"contracts/Gym_Contact.sol\":2015:2074  require(clase.value == 0, \"No existe una clase con ese Id\") */\n      tag_99\n      jumpi\n      mload(0x40)\n      0x08c379a000000000000000000000000000000000000000000000000000000000\n      dup2\n      mstore\n      0x04\n      add\n      tag_100\n      swap1\n      tag_101\n      jump\t// in\n    tag_100:\n      mload(0x40)\n      dup1\n      swap2\n      sub\n      swap1\n      revert\n    tag_99:\n        /* \"contracts/Gym_Contact.sol\":2093:2098  clase */\n      dup1\n        /* \"contracts/Gym_Contact.sol\":2093:2103  clase.name */\n      0x00\n      add\n        /* \"contracts/Gym_Contact.sol\":2105:2110  clase */\n      dup2\n        /* \"contracts/Gym_Contact.sol\":2105:2116  clase.value */\n      0x01\n      add\n      sload\n        /* \"contracts/Gym_Contact.sol\":2085:2117  return (clase.name, clase.value) */\n      dup2\n      dup1\n      sload\n      tag_102\n      swap1\n      tag_83\n      jump\t// in\n    tag_102:\n      dup1\n      0x1f\n      add\n      0x20\n      dup1\n      swap2\n      div\n      mul\n      0x20\n      add\n      mload(0x40)\n      swap1\n      dup2\n      add\n      0x40\n      mstore\n      dup1\n      swap3\n      swap2\n      swap1\n      dup2\n      dup2\n      mstore\n      0x20\n      add\n      dup3\n      dup1\n      sload\n      tag_103\n      swap1\n      tag_83\n      jump\t// in\n    tag_103:\n      dup1\n      iszero\n      tag_104\n      jumpi\n      dup1\n      0x1f\n      lt\n      tag_105\n      jumpi\n      0x0100\n      dup1\n      dup4\n      sload\n      div\n      mul\n      dup4\n      mstore\n      swap2\n      0x20\n      add\n      swap2\n      jump(tag_104)\n    tag_105:\n      dup3\n      add\n      swap2\n      swap1\n      0x00\n      mstore\n      keccak256(0x00, 0x20)\n      swap1\n    tag_106:\n      dup2\n      sload\n      dup2\n      mstore\n      swap1\n      0x01\n      add\n      swap1\n      0x20\n      add\n      dup1\n      dup4\n      gt\n      tag_106\n      jumpi\n      dup3\n      swap1\n      sub\n      0x1f\n      and\n      dup3\n      add\n      swap2\n    tag_104:\n      pop\n      pop\n      pop\n      pop\n      pop\n      swap2\n      pop\n      swap3\n      pop\n      swap3\n      pop\n      pop\n        /* \"contracts/Gym_Contact.sol\":1874:2125  function getClass(uint _index) public view returns (string memory name, uint value) {\r... */\n      swap2\n      pop\n      swap2\n      jump\t// out\n        /* \"contracts/Gym_Contact.sol\":1359:1745  function register(address _address, uint _credits) public {\r... */\n    tag_48:\n        /* \"contracts/Gym_Contact.sol\":1450:1455  ADMIN */\n      immutable(\"0x731dc163f73d31d8c68f9917ce4ff967753939f70432973c04fd2c2a48148607\")\n        /* \"contracts/Gym_Contact.sol\":1436:1455  msg.sender != ADMIN */\n      0xffffffffffffffffffffffffffffffffffffffff\n      and\n        /* \"contracts/Gym_Contact.sol\":1436:1446  msg.sender */\n      caller\n        /* \"contracts/Gym_Contact.sol\":1436:1455  msg.sender != ADMIN */\n      0xffffffffffffffffffffffffffffffffffffffff\n      and\n      eq\n      iszero\n        /* \"contracts/Gym_Contact.sol\":1428:1481  require(msg.sender != ADMIN, \"Eres el Administrador\") */\n      tag_108\n      jumpi\n      mload(0x40)\n      0x08c379a000000000000000000000000000000000000000000000000000000000\n      dup2\n      mstore\n      0x04\n      add\n      tag_109\n      swap1\n      tag_110\n      jump\t// in\n    tag_109:\n      mload(0x40)\n      dup1\n      swap2\n      sub\n      swap1\n      revert\n    tag_108:\n        /* \"contracts/Gym_Contact.sol\":1560:1561  0 */\n      0x00\n        /* \"contracts/Gym_Contact.sol\":1539:1544  users */\n      dup1\n        /* \"contracts/Gym_Contact.sol\":1539:1556  users[msg.sender] */\n      0x00\n        /* \"contracts/Gym_Contact.sol\":1545:1555  msg.sender */\n      caller\n        /* \"contracts/Gym_Contact.sol\":1539:1556  users[msg.sender] */\n      0xffffffffffffffffffffffffffffffffffffffff\n      and\n      0xffffffffffffffffffffffffffffffffffffffff\n      and\n      dup2\n      mstore\n      0x20\n      add\n      swap1\n      dup2\n      mstore\n      0x20\n      add\n      0x00\n      keccak256\n      sload\n        /* \"contracts/Gym_Contact.sol\":1539:1561  users[msg.sender] == 0 */\n      eq\n        /* \"contracts/Gym_Contact.sol\":1531:1603  require(users[msg.sender] == 0, \"Ya te encuentras registrado en el gym\") */\n      tag_111\n      jumpi\n      mload(0x40)\n      0x08c379a000000000000000000000000000000000000000000000000000000000\n      dup2\n      mstore\n      0x04\n      add\n      tag_112\n      swap1\n      tag_113\n      jump\t// in\n    tag_112:\n      mload(0x40)\n      dup1\n      swap2\n      sub\n      swap1\n      revert\n    tag_111:\n        /* \"contracts/Gym_Contact.sol\":1634:1642  _credits */\n      dup1\n        /* \"contracts/Gym_Contact.sol\":1614:1619  users */\n      0x00\n        /* \"contracts/Gym_Contact.sol\":1614:1631  users[msg.sender] */\n      dup1\n        /* \"contracts/Gym_Contact.sol\":1620:1630  msg.sender */\n      caller\n        /* \"contracts/Gym_Contact.sol\":1614:1631  users[msg.sender] */\n      0xffffffffffffffffffffffffffffffffffffffff\n      and\n      0xffffffffffffffffffffffffffffffffffffffff\n      and\n      dup2\n      mstore\n      0x20\n      add\n      swap1\n      dup2\n      mstore\n      0x20\n      add\n      0x00\n      keccak256\n        /* \"contracts/Gym_Contact.sol\":1614:1642  users[msg.sender] = _credits */\n      dup2\n      swap1\n      sstore\n      pop\n        /* \"contracts/Gym_Contact.sol\":1658:1686  Register(_address, _credits) */\n      0x7dc6ab80cc84c043b7b8d4fcafc802187470087f7ea7fccd2e17aecd0256a1\n        /* \"contracts/Gym_Contact.sol\":1667:1675  _address */\n      dup3\n        /* \"contracts/Gym_Contact.sol\":1677:1685  _credits */\n      dup3\n        /* \"contracts/Gym_Contact.sol\":1658:1686  Register(_address, _credits) */\n      mload(0x40)\n      tag_114\n      swap3\n      swap2\n      swap1\n      tag_19\n      jump\t// in\n    tag_114:\n      mload(0x40)\n      dup1\n      swap2\n      sub\n      swap1\n      log1\n        /* \"contracts/Gym_Contact.sol\":1359:1745  function register(address _address, uint _credits) public {\r... */\n      pop\n      pop\n      jump\t// out\n        /* \"contracts/Gym_Contact.sol\":1147:1321  function removeClass(uint _index) public {\r... */\n    tag_51:\n        /* \"contracts/Gym_Contact.sol\":1216:1226  msg.sender */\n      caller\n        /* \"contracts/Gym_Contact.sol\":1207:1226  ADMIN == msg.sender */\n      0xffffffffffffffffffffffffffffffffffffffff\n      and\n        /* \"contracts/Gym_Contact.sol\":1207:1212  ADMIN */\n      immutable(\"0x731dc163f73d31d8c68f9917ce4ff967753939f70432973c04fd2c2a48148607\")\n        /* \"contracts/Gym_Contact.sol\":1207:1226  ADMIN == msg.sender */\n      0xffffffffffffffffffffffffffffffffffffffff\n      and\n      eq\n        /* \"contracts/Gym_Contact.sol\":1199:1282  require(ADMIN == msg.sender, \"Solo el Administrador del Gym puede eliminar clases\") */\n      tag_116\n      jumpi\n      mload(0x40)\n      0x08c379a000000000000000000000000000000000000000000000000000000000\n      dup2\n      mstore\n      0x04\n      add\n      tag_117\n      swap1\n      tag_118\n      jump\t// in\n    tag_117:\n      mload(0x40)\n      dup1\n      swap2\n      sub\n      swap1\n      revert\n    tag_116:\n        /* \"contracts/Gym_Contact.sol\":1300:1305  class */\n      0x01\n        /* \"contracts/Gym_Contact.sol\":1306:1312  _index */\n      dup2\n        /* \"contracts/Gym_Contact.sol\":1300:1313  class[_index] */\n      dup2\n      sload\n      dup2\n      lt\n      tag_119\n      jumpi\n      tag_120\n      tag_76\n      jump\t// in\n    tag_120:\n    tag_119:\n      swap1\n      0x00\n      mstore\n      keccak256(0x00, 0x20)\n      swap1\n      0x02\n      mul\n      add\n      0x00\n        /* \"contracts/Gym_Contact.sol\":1293:1313  delete class[_index] */\n      dup1\n      dup3\n      add\n      0x00\n      tag_122\n      swap2\n      swap1\n      tag_123\n      jump\t// in\n    tag_122:\n      0x01\n      dup3\n      add\n      0x00\n      swap1\n      sstore\n      pop\n      pop\n        /* \"contracts/Gym_Contact.sol\":1147:1321  function removeClass(uint _index) public {\r... */\n      pop\n      jump\t// out\n        /* \"contracts/Gym_Contact.sol\":2133:2438  function takeClass(uint _index) public {\r... */\n    tag_54:\n        /* \"contracts/Gym_Contact.sol\":2183:2202  Class storage clase */\n      0x00\n        /* \"contracts/Gym_Contact.sol\":2205:2210  class */\n      0x01\n        /* \"contracts/Gym_Contact.sol\":2211:2217  _index */\n      dup3\n        /* \"contracts/Gym_Contact.sol\":2205:2218  class[_index] */\n      dup2\n      sload\n      dup2\n      lt\n      tag_125\n      jumpi\n      tag_126\n      tag_76\n      jump\t// in\n    tag_126:\n    tag_125:\n      swap1\n      0x00\n      mstore\n      keccak256(0x00, 0x20)\n      swap1\n      0x02\n      mul\n      add\n        /* \"contracts/Gym_Contact.sol\":2183:2218  Class storage clase = class[_index] */\n      swap1\n      pop\n        /* \"contracts/Gym_Contact.sol\":2252:2253  0 */\n      0x00\n        /* \"contracts/Gym_Contact.sol\":2237:2242  clase */\n      dup2\n        /* \"contracts/Gym_Contact.sol\":2237:2248  clase.value */\n      0x01\n      add\n      sload\n        /* \"contracts/Gym_Contact.sol\":2237:2253  clase.value != 0 */\n      eq\n      iszero\n        /* \"contracts/Gym_Contact.sol\":2229:2278  require(clase.value != 0, \"Esta clase no existe\") */\n      tag_128\n      jumpi\n      mload(0x40)\n      0x08c379a000000000000000000000000000000000000000000000000000000000\n      dup2\n      mstore\n      0x04\n      add\n      tag_129\n      swap1\n      tag_130\n      jump\t// in\n    tag_129:\n      mload(0x40)\n      dup1\n      swap2\n      sub\n      swap1\n      revert\n    tag_128:\n        /* \"contracts/Gym_Contact.sol\":2318:2323  clase */\n      dup1\n        /* \"contracts/Gym_Contact.sol\":2318:2329  clase.value */\n      0x01\n      add\n      sload\n        /* \"contracts/Gym_Contact.sol\":2297:2302  users */\n      0x00\n        /* \"contracts/Gym_Contact.sol\":2297:2314  users[msg.sender] */\n      dup1\n        /* \"contracts/Gym_Contact.sol\":2303:2313  msg.sender */\n      caller\n        /* \"contracts/Gym_Contact.sol\":2297:2314  users[msg.sender] */\n      0xffffffffffffffffffffffffffffffffffffffff\n      and\n      0xffffffffffffffffffffffffffffffffffffffff\n      and\n      dup2\n      mstore\n      0x20\n      add\n      swap1\n      dup2\n      mstore\n      0x20\n      add\n      0x00\n      keccak256\n      sload\n        /* \"contracts/Gym_Contact.sol\":2297:2329  users[msg.sender] >= clase.value */\n      lt\n      iszero\n        /* \"contracts/Gym_Contact.sol\":2289:2364  require(users[msg.sender] >= clase.value, \"No tienes creditos suficientes\") */\n      tag_131\n      jumpi\n      mload(0x40)\n      0x08c379a000000000000000000000000000000000000000000000000000000000\n      dup2\n      mstore\n      0x04\n      add\n      tag_132\n      swap1\n      tag_133\n      jump\t// in\n    tag_132:\n      mload(0x40)\n      dup1\n      swap2\n      sub\n      swap1\n      revert\n    tag_131:\n        /* \"contracts/Gym_Contact.sol\":2396:2401  clase */\n      dup1\n        /* \"contracts/Gym_Contact.sol\":2396:2407  clase.value */\n      0x01\n      add\n      sload\n        /* \"contracts/Gym_Contact.sol\":2375:2380  users */\n      0x00\n        /* \"contracts/Gym_Contact.sol\":2375:2392  users[msg.sender] */\n      dup1\n        /* \"contracts/Gym_Contact.sol\":2381:2391  msg.sender */\n      caller\n        /* \"contracts/Gym_Contact.sol\":2375:2392  users[msg.sender] */\n      0xffffffffffffffffffffffffffffffffffffffff\n      and\n      0xffffffffffffffffffffffffffffffffffffffff\n      and\n      dup2\n      mstore\n      0x20\n      add\n      swap1\n      dup2\n      mstore\n      0x20\n      add\n      0x00\n      keccak256\n      0x00\n        /* \"contracts/Gym_Contact.sol\":2375:2407  users[msg.sender] -= clase.value */\n      dup3\n      dup3\n      sload\n      tag_134\n      swap2\n      swap1\n      tag_135\n      jump\t// in\n    tag_134:\n      swap3\n      pop\n      pop\n      dup2\n      swap1\n      sstore\n      pop\n        /* \"contracts/Gym_Contact.sol\":2418:2430  getBalance() */\n      tag_136\n        /* \"contracts/Gym_Contact.sol\":2418:2428  getBalance */\n      tag_17\n        /* \"contracts/Gym_Contact.sol\":2418:2430  getBalance() */\n      jump\t// in\n    tag_136:\n      pop\n      pop\n        /* \"contracts/Gym_Contact.sol\":2172:2438  {\r... */\n      pop\n        /* \"contracts/Gym_Contact.sol\":2133:2438  function takeClass(uint _index) public {\r... */\n      pop\n      jump\t// out\n        /* \"contracts/Gym_Contact.sol\":464:501  mapping(address => uint) public users */\n    tag_58:\n      mstore(0x20, 0x00)\n      dup1\n      0x00\n      mstore\n      keccak256(0x00, 0x40)\n      0x00\n      swap2\n      pop\n      swap1\n      pop\n      sload\n      dup2\n      jump\t// out\n        /* \"contracts/Gym_Contact.sol\":2563:2828  function transferCredits(uint _value, address _address) public {\r... */\n    tag_64:\n        /* \"contracts/Gym_Contact.sol\":2666:2672  _value */\n      dup2\n        /* \"contracts/Gym_Contact.sol\":2645:2650  users */\n      0x00\n        /* \"contracts/Gym_Contact.sol\":2645:2662  users[msg.sender] */\n      dup1\n        /* \"contracts/Gym_Contact.sol\":2651:2661  msg.sender */\n      caller\n        /* \"contracts/Gym_Contact.sol\":2645:2662  users[msg.sender] */\n      0xffffffffffffffffffffffffffffffffffffffff\n      and\n      0xffffffffffffffffffffffffffffffffffffffff\n      and\n      dup2\n      mstore\n      0x20\n      add\n      swap1\n      dup2\n      mstore\n      0x20\n      add\n      0x00\n      keccak256\n      sload\n        /* \"contracts/Gym_Contact.sol\":2645:2672  users[msg.sender] >= _value */\n      lt\n      iszero\n        /* \"contracts/Gym_Contact.sol\":2637:2723  require(users[msg.sender] >= _value, \"No tienes creditos suficientes para transferir\") */\n      tag_138\n      jumpi\n      mload(0x40)\n      0x08c379a000000000000000000000000000000000000000000000000000000000\n      dup2\n      mstore\n      0x04\n      add\n      tag_139\n      swap1\n      tag_140\n      jump\t// in\n    tag_139:\n      mload(0x40)\n      dup1\n      swap2\n      sub\n      swap1\n      revert\n    tag_138:\n        /* \"contracts/Gym_Contact.sol\":2755:2761  _value */\n      dup2\n        /* \"contracts/Gym_Contact.sol\":2734:2739  users */\n      0x00\n        /* \"contracts/Gym_Contact.sol\":2734:2751  users[msg.sender] */\n      dup1\n        /* \"contracts/Gym_Contact.sol\":2740:2750  msg.sender */\n      caller\n        /* \"contracts/Gym_Contact.sol\":2734:2751  users[msg.sender] */\n      0xffffffffffffffffffffffffffffffffffffffff\n      and\n      0xffffffffffffffffffffffffffffffffffffffff\n      and\n      dup2\n      mstore\n      0x20\n      add\n      swap1\n      dup2\n      mstore\n      0x20\n      add\n      0x00\n      keccak256\n      0x00\n        /* \"contracts/Gym_Contact.sol\":2734:2761  users[msg.sender] -= _value */\n      dup3\n      dup3\n      sload\n      tag_141\n      swap2\n      swap1\n      tag_135\n      jump\t// in\n    tag_141:\n      swap3\n      pop\n      pop\n      dup2\n      swap1\n      sstore\n      pop\n        /* \"contracts/Gym_Contact.sol\":2791:2797  _value */\n      dup2\n        /* \"contracts/Gym_Contact.sol\":2772:2777  users */\n      0x00\n        /* \"contracts/Gym_Contact.sol\":2772:2787  users[_address] */\n      dup1\n        /* \"contracts/Gym_Contact.sol\":2778:2786  _address */\n      dup4\n        /* \"contracts/Gym_Contact.sol\":2772:2787  users[_address] */\n      0xffffffffffffffffffffffffffffffffffffffff\n      and\n      0xffffffffffffffffffffffffffffffffffffffff\n      and\n      dup2\n      mstore\n      0x20\n      add\n      swap1\n      dup2\n      mstore\n      0x20\n      add\n      0x00\n      keccak256\n      0x00\n        /* \"contracts/Gym_Contact.sol\":2772:2797  users[_address] += _value */\n      dup3\n      dup3\n      sload\n      tag_142\n      swap2\n      swap1\n      tag_68\n      jump\t// in\n    tag_142:\n      swap3\n      pop\n      pop\n      dup2\n      swap1\n      sstore\n      pop\n        /* \"contracts/Gym_Contact.sol\":2808:2820  getBalance() */\n      tag_143\n        /* \"contracts/Gym_Contact.sol\":2808:2818  getBalance */\n      tag_17\n        /* \"contracts/Gym_Contact.sol\":2808:2820  getBalance() */\n      jump\t// in\n    tag_143:\n      pop\n      pop\n        /* \"contracts/Gym_Contact.sol\":2563:2828  function transferCredits(uint _value, address _address) public {\r... */\n      pop\n      pop\n      jump\t// out\n    tag_79:\n      dup3\n      dup1\n      sload\n      tag_144\n      swap1\n      tag_83\n      jump\t// in\n    tag_144:\n      swap1\n      0x00\n      mstore\n      keccak256(0x00, 0x20)\n      swap1\n      0x1f\n      add\n      0x20\n      swap1\n      div\n      dup2\n      add\n      swap3\n      dup3\n      tag_146\n      jumpi\n      0x00\n      dup6\n      sstore\n      jump(tag_145)\n    tag_146:\n      dup3\n      0x1f\n      lt\n      tag_147\n      jumpi\n      dup1\n      mload\n      not(0xff)\n      and\n      dup4\n      dup1\n      add\n      or\n      dup6\n      sstore\n      jump(tag_145)\n    tag_147:\n      dup3\n      dup1\n      add\n      0x01\n      add\n      dup6\n      sstore\n      dup3\n      iszero\n      tag_145\n      jumpi\n      swap2\n      dup3\n      add\n    tag_148:\n      dup3\n      dup2\n      gt\n      iszero\n      tag_149\n      jumpi\n      dup3\n      mload\n      dup3\n      sstore\n      swap2\n      0x20\n      add\n      swap2\n      swap1\n      0x01\n      add\n      swap1\n      jump(tag_148)\n    tag_149:\n    tag_145:\n      pop\n      swap1\n      pop\n      tag_150\n      swap2\n      swap1\n      tag_151\n      jump\t// in\n    tag_150:\n      pop\n      swap1\n      jump\t// out\n    tag_123:\n      pop\n      dup1\n      sload\n      tag_152\n      swap1\n      tag_83\n      jump\t// in\n    tag_152:\n      0x00\n      dup3\n      sstore\n      dup1\n      0x1f\n      lt\n      tag_154\n      jumpi\n      pop\n      jump(tag_153)\n    tag_154:\n      0x1f\n      add\n      0x20\n      swap1\n      div\n      swap1\n      0x00\n      mstore\n      keccak256(0x00, 0x20)\n      swap1\n      dup2\n      add\n      swap1\n      tag_155\n      swap2\n      swap1\n      tag_151\n      jump\t// in\n    tag_155:\n    tag_153:\n      pop\n      jump\t// out\n    tag_151:\n    tag_156:\n      dup1\n      dup3\n      gt\n      iszero\n      tag_157\n      jumpi\n      0x00\n      dup2\n      0x00\n      swap1\n      sstore\n      pop\n      0x01\n      add\n      jump(tag_156)\n    tag_157:\n      pop\n      swap1\n      jump\t// out\n        /* \"#utility.yul\":7:419   */\n    tag_159:\n        /* \"#utility.yul\":85:90   */\n      0x00\n        /* \"#utility.yul\":110:176   */\n      tag_161\n        /* \"#utility.yul\":126:175   */\n      tag_162\n        /* \"#utility.yul\":168:174   */\n      dup5\n        /* \"#utility.yul\":126:175   */\n      tag_163\n      jump\t// in\n    tag_162:\n        /* \"#utility.yul\":110:176   */\n      tag_164\n      jump\t// in\n    tag_161:\n        /* \"#utility.yul\":101:176   */\n      swap1\n      pop\n        /* \"#utility.yul\":199:205   */\n      dup3\n        /* \"#utility.yul\":192:197   */\n      dup2\n        /* \"#utility.yul\":185:206   */\n      mstore\n        /* \"#utility.yul\":237:241   */\n      0x20\n        /* \"#utility.yul\":230:235   */\n      dup2\n        /* \"#utility.yul\":226:242   */\n      add\n        /* \"#utility.yul\":275:278   */\n      dup5\n        /* \"#utility.yul\":266:272   */\n      dup5\n        /* \"#utility.yul\":261:264   */\n      dup5\n        /* \"#utility.yul\":257:273   */\n      add\n        /* \"#utility.yul\":254:279   */\n      gt\n        /* \"#utility.yul\":251:363   */\n      iszero\n      tag_165\n      jumpi\n        /* \"#utility.yul\":282:361   */\n      tag_166\n      tag_167\n      jump\t// in\n    tag_166:\n        /* \"#utility.yul\":251:363   */\n    tag_165:\n        /* \"#utility.yul\":372:413   */\n      tag_168\n        /* \"#utility.yul\":406:412   */\n      dup5\n        /* \"#utility.yul\":401:404   */\n      dup3\n        /* \"#utility.yul\":396:399   */\n      dup6\n        /* \"#utility.yul\":372:413   */\n      tag_169\n      jump\t// in\n    tag_168:\n        /* \"#utility.yul\":91:419   */\n      pop\n        /* \"#utility.yul\":7:419   */\n      swap4\n      swap3\n      pop\n      pop\n      pop\n      jump\t// out\n        /* \"#utility.yul\":425:564   */\n    tag_170:\n        /* \"#utility.yul\":471:476   */\n      0x00\n        /* \"#utility.yul\":509:515   */\n      dup2\n        /* \"#utility.yul\":496:516   */\n      calldataload\n        /* \"#utility.yul\":487:516   */\n      swap1\n      pop\n        /* \"#utility.yul\":525:558   */\n      tag_172\n        /* \"#utility.yul\":552:557   */\n      dup2\n        /* \"#utility.yul\":525:558   */\n      tag_173\n      jump\t// in\n    tag_172:\n        /* \"#utility.yul\":425:564   */\n      swap3\n      swap2\n      pop\n      pop\n      jump\t// out\n        /* \"#utility.yul\":584:924   */\n    tag_174:\n        /* \"#utility.yul\":640:645   */\n      0x00\n        /* \"#utility.yul\":689:692   */\n      dup3\n        /* \"#utility.yul\":682:686   */\n      0x1f\n        /* \"#utility.yul\":674:680   */\n      dup4\n        /* \"#utility.yul\":670:687   */\n      add\n        /* \"#utility.yul\":666:693   */\n      slt\n        /* \"#utility.yul\":656:778   */\n      tag_176\n      jumpi\n        /* \"#utility.yul\":697:776   */\n      tag_177\n      tag_178\n      jump\t// in\n    tag_177:\n        /* \"#utility.yul\":656:778   */\n    tag_176:\n        /* \"#utility.yul\":814:820   */\n      dup2\n        /* \"#utility.yul\":801:821   */\n      calldataload\n        /* \"#utility.yul\":839:918   */\n      tag_179\n        /* \"#utility.yul\":914:917   */\n      dup5\n        /* \"#utility.yul\":906:912   */\n      dup3\n        /* \"#utility.yul\":899:903   */\n      0x20\n        /* \"#utility.yul\":891:897   */\n      dup7\n        /* \"#utility.yul\":887:904   */\n      add\n        /* \"#utility.yul\":839:918   */\n      tag_159\n      jump\t// in\n    tag_179:\n        /* \"#utility.yul\":830:918   */\n      swap2\n      pop\n        /* \"#utility.yul\":646:924   */\n      pop\n        /* \"#utility.yul\":584:924   */\n      swap3\n      swap2\n      pop\n      pop\n      jump\t// out\n        /* \"#utility.yul\":930:1069   */\n    tag_180:\n        /* \"#utility.yul\":976:981   */\n      0x00\n        /* \"#utility.yul\":1014:1020   */\n      dup2\n        /* \"#utility.yul\":1001:1021   */\n      calldataload\n        /* \"#utility.yul\":992:1021   */\n      swap1\n      pop\n        /* \"#utility.yul\":1030:1063   */\n      tag_182\n        /* \"#utility.yul\":1057:1062   */\n      dup2\n        /* \"#utility.yul\":1030:1063   */\n      tag_183\n      jump\t// in\n    tag_182:\n        /* \"#utility.yul\":930:1069   */\n      swap3\n      swap2\n      pop\n      pop\n      jump\t// out\n        /* \"#utility.yul\":1075:1404   */\n    tag_57:\n        /* \"#utility.yul\":1134:1140   */\n      0x00\n        /* \"#utility.yul\":1183:1185   */\n      0x20\n        /* \"#utility.yul\":1171:1180   */\n      dup3\n        /* \"#utility.yul\":1162:1169   */\n      dup5\n        /* \"#utility.yul\":1158:1181   */\n      sub\n        /* \"#utility.yul\":1154:1186   */\n      slt\n        /* \"#utility.yul\":1151:1270   */\n      iszero\n      tag_185\n      jumpi\n        /* \"#utility.yul\":1189:1268   */\n      tag_186\n      tag_187\n      jump\t// in\n    tag_186:\n        /* \"#utility.yul\":1151:1270   */\n    tag_185:\n        /* \"#utility.yul\":1309:1310   */\n      0x00\n        /* \"#utility.yul\":1334:1387   */\n      tag_188\n        /* \"#utility.yul\":1379:1386   */\n      dup5\n        /* \"#utility.yul\":1370:1376   */\n      dup3\n        /* \"#utility.yul\":1359:1368   */\n      dup6\n        /* \"#utility.yul\":1355:1377   */\n      add\n        /* \"#utility.yul\":1334:1387   */\n      tag_170\n      jump\t// in\n    tag_188:\n        /* \"#utility.yul\":1324:1387   */\n      swap2\n      pop\n        /* \"#utility.yul\":1280:1397   */\n      pop\n        /* \"#utility.yul\":1075:1404   */\n      swap3\n      swap2\n      pop\n      pop\n      jump\t// out\n        /* \"#utility.yul\":1410:1884   */\n    tag_47:\n        /* \"#utility.yul\":1478:1484   */\n      0x00\n        /* \"#utility.yul\":1486:1492   */\n      dup1\n        /* \"#utility.yul\":1535:1537   */\n      0x40\n        /* \"#utility.yul\":1523:1532   */\n      dup4\n        /* \"#utility.yul\":1514:1521   */\n      dup6\n        /* \"#utility.yul\":1510:1533   */\n      sub\n        /* \"#utility.yul\":1506:1538   */\n      slt\n        /* \"#utility.yul\":1503:1622   */\n      iszero\n      tag_190\n      jumpi\n        /* \"#utility.yul\":1541:1620   */\n      tag_191\n      tag_187\n      jump\t// in\n    tag_191:\n        /* \"#utility.yul\":1503:1622   */\n    tag_190:\n        /* \"#utility.yul\":1661:1662   */\n      0x00\n        /* \"#utility.yul\":1686:1739   */\n      tag_192\n        /* \"#utility.yul\":1731:1738   */\n      dup6\n        /* \"#utility.yul\":1722:1728   */\n      dup3\n        /* \"#utility.yul\":1711:1720   */\n      dup7\n        /* \"#utility.yul\":1707:1729   */\n      add\n        /* \"#utility.yul\":1686:1739   */\n      tag_170\n      jump\t// in\n    tag_192:\n        /* \"#utility.yul\":1676:1739   */\n      swap3\n      pop\n        /* \"#utility.yul\":1632:1749   */\n      pop\n        /* \"#utility.yul\":1788:1790   */\n      0x20\n        /* \"#utility.yul\":1814:1867   */\n      tag_193\n        /* \"#utility.yul\":1859:1866   */\n      dup6\n        /* \"#utility.yul\":1850:1856   */\n      dup3\n        /* \"#utility.yul\":1839:1848   */\n      dup7\n        /* \"#utility.yul\":1835:1857   */\n      add\n        /* \"#utility.yul\":1814:1867   */\n      tag_180\n      jump\t// in\n    tag_193:\n        /* \"#utility.yul\":1804:1867   */\n      swap2\n      pop\n        /* \"#utility.yul\":1759:1877   */\n      pop\n        /* \"#utility.yul\":1410:1884   */\n      swap3\n      pop\n      swap3\n      swap1\n      pop\n      jump\t// out\n        /* \"#utility.yul\":1890:2544   */\n    tag_39:\n        /* \"#utility.yul\":1968:1974   */\n      0x00\n        /* \"#utility.yul\":1976:1982   */\n      dup1\n        /* \"#utility.yul\":2025:2027   */\n      0x40\n        /* \"#utility.yul\":2013:2022   */\n      dup4\n        /* \"#utility.yul\":2004:2011   */\n      dup6\n        /* \"#utility.yul\":2000:2023   */\n      sub\n        /* \"#utility.yul\":1996:2028   */\n      slt\n        /* \"#utility.yul\":1993:2112   */\n      iszero\n      tag_195\n      jumpi\n        /* \"#utility.yul\":2031:2110   */\n      tag_196\n      tag_187\n      jump\t// in\n    tag_196:\n        /* \"#utility.yul\":1993:2112   */\n    tag_195:\n        /* \"#utility.yul\":2179:2180   */\n      0x00\n        /* \"#utility.yul\":2168:2177   */\n      dup4\n        /* \"#utility.yul\":2164:2181   */\n      add\n        /* \"#utility.yul\":2151:2182   */\n      calldataload\n        /* \"#utility.yul\":2209:2227   */\n      0xffffffffffffffff\n        /* \"#utility.yul\":2201:2207   */\n      dup2\n        /* \"#utility.yul\":2198:2228   */\n      gt\n        /* \"#utility.yul\":2195:2312   */\n      iszero\n      tag_197\n      jumpi\n        /* \"#utility.yul\":2231:2310   */\n      tag_198\n      tag_199\n      jump\t// in\n    tag_198:\n        /* \"#utility.yul\":2195:2312   */\n    tag_197:\n        /* \"#utility.yul\":2336:2399   */\n      tag_200\n        /* \"#utility.yul\":2391:2398   */\n      dup6\n        /* \"#utility.yul\":2382:2388   */\n      dup3\n        /* \"#utility.yul\":2371:2380   */\n      dup7\n        /* \"#utility.yul\":2367:2389   */\n      add\n        /* \"#utility.yul\":2336:2399   */\n      tag_174\n      jump\t// in\n    tag_200:\n        /* \"#utility.yul\":2326:2399   */\n      swap3\n      pop\n        /* \"#utility.yul\":2122:2409   */\n      pop\n        /* \"#utility.yul\":2448:2450   */\n      0x20\n        /* \"#utility.yul\":2474:2527   */\n      tag_201\n        /* \"#utility.yul\":2519:2526   */\n      dup6\n        /* \"#utility.yul\":2510:2516   */\n      dup3\n        /* \"#utility.yul\":2499:2508   */\n      dup7\n        /* \"#utility.yul\":2495:2517   */\n      add\n        /* \"#utility.yul\":2474:2527   */\n      tag_180\n      jump\t// in\n    tag_201:\n        /* \"#utility.yul\":2464:2527   */\n      swap2\n      pop\n        /* \"#utility.yul\":2419:2537   */\n      pop\n        /* \"#utility.yul\":1890:2544   */\n      swap3\n      pop\n      swap3\n      swap1\n      pop\n      jump\t// out\n        /* \"#utility.yul\":2550:2879   */\n    tag_22:\n        /* \"#utility.yul\":2609:2615   */\n      0x00\n        /* \"#utility.yul\":2658:2660   */\n      0x20\n        /* \"#utility.yul\":2646:2655   */\n      dup3\n        /* \"#utility.yul\":2637:2644   */\n      dup5\n        /* \"#utility.yul\":2633:2656   */\n      sub\n        /* \"#utility.yul\":2629:2661   */\n      slt\n        /* \"#utility.yul\":2626:2745   */\n      iszero\n      tag_203\n      jumpi\n        /* \"#utility.yul\":2664:2743   */\n      tag_204\n      tag_187\n      jump\t// in\n    tag_204:\n        /* \"#utility.yul\":2626:2745   */\n    tag_203:\n        /* \"#utility.yul\":2784:2785   */\n      0x00\n        /* \"#utility.yul\":2809:2862   */\n      tag_205\n        /* \"#utility.yul\":2854:2861   */\n      dup5\n        /* \"#utility.yul\":2845:2851   */\n      dup3\n        /* \"#utility.yul\":2834:2843   */\n      dup6\n        /* \"#utility.yul\":2830:2852   */\n      add\n        /* \"#utility.yul\":2809:2862   */\n      tag_180\n      jump\t// in\n    tag_205:\n        /* \"#utility.yul\":2799:2862   */\n      swap2\n      pop\n        /* \"#utility.yul\":2755:2872   */\n      pop\n        /* \"#utility.yul\":2550:2879   */\n      swap3\n      swap2\n      pop\n      pop\n      jump\t// out\n        /* \"#utility.yul\":2885:3359   */\n    tag_63:\n        /* \"#utility.yul\":2953:2959   */\n      0x00\n        /* \"#utility.yul\":2961:2967   */\n      dup1\n        /* \"#utility.yul\":3010:3012   */\n      0x40\n        /* \"#utility.yul\":2998:3007   */\n      dup4\n        /* \"#utility.yul\":2989:2996   */\n      dup6\n        /* \"#utility.yul\":2985:3008   */\n      sub\n        /* \"#utility.yul\":2981:3013   */\n      slt\n        /* \"#utility.yul\":2978:3097   */\n      iszero\n      tag_207\n      jumpi\n        /* \"#utility.yul\":3016:3095   */\n      tag_208\n      tag_187\n      jump\t// in\n    tag_208:\n        /* \"#utility.yul\":2978:3097   */\n    tag_207:\n        /* \"#utility.yul\":3136:3137   */\n      0x00\n        /* \"#utility.yul\":3161:3214   */\n      tag_209\n        /* \"#utility.yul\":3206:3213   */\n      dup6\n        /* \"#utility.yul\":3197:3203   */\n      dup3\n        /* \"#utility.yul\":3186:3195   */\n      dup7\n        /* \"#utility.yul\":3182:3204   */\n      add\n        /* \"#utility.yul\":3161:3214   */\n      tag_180\n      jump\t// in\n    tag_209:\n        /* \"#utility.yul\":3151:3214   */\n      swap3\n      pop\n        /* \"#utility.yul\":3107:3224   */\n      pop\n        /* \"#utility.yul\":3263:3265   */\n      0x20\n        /* \"#utility.yul\":3289:3342   */\n      tag_210\n        /* \"#utility.yul\":3334:3341   */\n      dup6\n        /* \"#utility.yul\":3325:3331   */\n      dup3\n        /* \"#utility.yul\":3314:3323   */\n      dup7\n        /* \"#utility.yul\":3310:3332   */\n      add\n        /* \"#utility.yul\":3289:3342   */\n      tag_170\n      jump\t// in\n    tag_210:\n        /* \"#utility.yul\":3279:3342   */\n      swap2\n      pop\n        /* \"#utility.yul\":3234:3352   */\n      pop\n        /* \"#utility.yul\":2885:3359   */\n      swap3\n      pop\n      swap3\n      swap1\n      pop\n      jump\t// out\n        /* \"#utility.yul\":3365:4164   */\n    tag_26:\n        /* \"#utility.yul\":3452:3458   */\n      0x00\n        /* \"#utility.yul\":3460:3466   */\n      dup1\n        /* \"#utility.yul\":3468:3474   */\n      0x00\n        /* \"#utility.yul\":3517:3519   */\n      0x60\n        /* \"#utility.yul\":3505:3514   */\n      dup5\n        /* \"#utility.yul\":3496:3503   */\n      dup7\n        /* \"#utility.yul\":3492:3515   */\n      sub\n        /* \"#utility.yul\":3488:3520   */\n      slt\n        /* \"#utility.yul\":3485:3604   */\n      iszero\n      tag_212\n      jumpi\n        /* \"#utility.yul\":3523:3602   */\n      tag_213\n      tag_187\n      jump\t// in\n    tag_213:\n        /* \"#utility.yul\":3485:3604   */\n    tag_212:\n        /* \"#utility.yul\":3643:3644   */\n      0x00\n        /* \"#utility.yul\":3668:3721   */\n      tag_214\n        /* \"#utility.yul\":3713:3720   */\n      dup7\n        /* \"#utility.yul\":3704:3710   */\n      dup3\n        /* \"#utility.yul\":3693:3702   */\n      dup8\n        /* \"#utility.yul\":3689:3711   */\n      add\n        /* \"#utility.yul\":3668:3721   */\n      tag_180\n      jump\t// in\n    tag_214:\n        /* \"#utility.yul\":3658:3721   */\n      swap4\n      pop\n        /* \"#utility.yul\":3614:3731   */\n      pop\n        /* \"#utility.yul\":3798:3800   */\n      0x20\n        /* \"#utility.yul\":3787:3796   */\n      dup5\n        /* \"#utility.yul\":3783:3801   */\n      add\n        /* \"#utility.yul\":3770:3802   */\n      calldataload\n        /* \"#utility.yul\":3829:3847   */\n      0xffffffffffffffff\n        /* \"#utility.yul\":3821:3827   */\n      dup2\n        /* \"#utility.yul\":3818:3848   */\n      gt\n        /* \"#utility.yul\":3815:3932   */\n      iszero\n      tag_215\n      jumpi\n        /* \"#utility.yul\":3851:3930   */\n      tag_216\n      tag_199\n      jump\t// in\n    tag_216:\n        /* \"#utility.yul\":3815:3932   */\n    tag_215:\n        /* \"#utility.yul\":3956:4019   */\n      tag_217\n        /* \"#utility.yul\":4011:4018   */\n      dup7\n        /* \"#utility.yul\":4002:4008   */\n      dup3\n        /* \"#utility.yul\":3991:4000   */\n      dup8\n        /* \"#utility.yul\":3987:4009   */\n      add\n        /* \"#utility.yul\":3956:4019   */\n      tag_174\n      jump\t// in\n    tag_217:\n        /* \"#utility.yul\":3946:4019   */\n      swap3\n      pop\n        /* \"#utility.yul\":3741:4029   */\n      pop\n        /* \"#utility.yul\":4068:4070   */\n      0x40\n        /* \"#utility.yul\":4094:4147   */\n      tag_218\n        /* \"#utility.yul\":4139:4146   */\n      dup7\n        /* \"#utility.yul\":4130:4136   */\n      dup3\n        /* \"#utility.yul\":4119:4128   */\n      dup8\n        /* \"#utility.yul\":4115:4137   */\n      add\n        /* \"#utility.yul\":4094:4147   */\n      tag_180\n      jump\t// in\n    tag_218:\n        /* \"#utility.yul\":4084:4147   */\n      swap2\n      pop\n        /* \"#utility.yul\":4039:4157   */\n      pop\n        /* \"#utility.yul\":3365:4164   */\n      swap3\n      pop\n      swap3\n      pop\n      swap3\n      jump\t// out\n        /* \"#utility.yul\":4170:4288   */\n    tag_219:\n        /* \"#utility.yul\":4257:4281   */\n      tag_221\n        /* \"#utility.yul\":4275:4280   */\n      dup2\n        /* \"#utility.yul\":4257:4281   */\n      tag_222\n      jump\t// in\n    tag_221:\n        /* \"#utility.yul\":4252:4255   */\n      dup3\n        /* \"#utility.yul\":4245:4282   */\n      mstore\n        /* \"#utility.yul\":4170:4288   */\n      pop\n      pop\n      jump\t// out\n        /* \"#utility.yul\":4294:4658   */\n    tag_223:\n        /* \"#utility.yul\":4382:4385   */\n      0x00\n        /* \"#utility.yul\":4410:4449   */\n      tag_225\n        /* \"#utility.yul\":4443:4448   */\n      dup3\n        /* \"#utility.yul\":4410:4449   */\n      tag_226\n      jump\t// in\n    tag_225:\n        /* \"#utility.yul\":4465:4536   */\n      tag_227\n        /* \"#utility.yul\":4529:4535   */\n      dup2\n        /* \"#utility.yul\":4524:4527   */\n      dup6\n        /* \"#utility.yul\":4465:4536   */\n      tag_228\n      jump\t// in\n    tag_227:\n        /* \"#utility.yul\":4458:4536   */\n      swap4\n      pop\n        /* \"#utility.yul\":4545:4597   */\n      tag_229\n        /* \"#utility.yul\":4590:4596   */\n      dup2\n        /* \"#utility.yul\":4585:4588   */\n      dup6\n        /* \"#utility.yul\":4578:4582   */\n      0x20\n        /* \"#utility.yul\":4571:4576   */\n      dup7\n        /* \"#utility.yul\":4567:4583   */\n      add\n        /* \"#utility.yul\":4545:4597   */\n      tag_230\n      jump\t// in\n    tag_229:\n        /* \"#utility.yul\":4622:4651   */\n      tag_231\n        /* \"#utility.yul\":4644:4650   */\n      dup2\n        /* \"#utility.yul\":4622:4651   */\n      tag_232\n      jump\t// in\n    tag_231:\n        /* \"#utility.yul\":4617:4620   */\n      dup5\n        /* \"#utility.yul\":4613:4652   */\n      add\n        /* \"#utility.yul\":4606:4652   */\n      swap2\n      pop\n        /* \"#utility.yul\":4386:4658   */\n      pop\n        /* \"#utility.yul\":4294:4658   */\n      swap3\n      swap2\n      pop\n      pop\n      jump\t// out\n        /* \"#utility.yul\":4664:5030   */\n    tag_233:\n        /* \"#utility.yul\":4806:4809   */\n      0x00\n        /* \"#utility.yul\":4827:4894   */\n      tag_235\n        /* \"#utility.yul\":4891:4893   */\n      0x34\n        /* \"#utility.yul\":4886:4889   */\n      dup4\n        /* \"#utility.yul\":4827:4894   */\n      tag_228\n      jump\t// in\n    tag_235:\n        /* \"#utility.yul\":4820:4894   */\n      swap2\n      pop\n        /* \"#utility.yul\":4903:4996   */\n      tag_236\n        /* \"#utility.yul\":4992:4995   */\n      dup3\n        /* \"#utility.yul\":4903:4996   */\n      tag_237\n      jump\t// in\n    tag_236:\n        /* \"#utility.yul\":5021:5023   */\n      0x40\n        /* \"#utility.yul\":5016:5019   */\n      dup3\n        /* \"#utility.yul\":5012:5024   */\n      add\n        /* \"#utility.yul\":5005:5024   */\n      swap1\n      pop\n        /* \"#utility.yul\":4664:5030   */\n      swap2\n      swap1\n      pop\n      jump\t// out\n        /* \"#utility.yul\":5036:5402   */\n    tag_238:\n        /* \"#utility.yul\":5178:5181   */\n      0x00\n        /* \"#utility.yul\":5199:5266   */\n      tag_240\n        /* \"#utility.yul\":5263:5265   */\n      0x25\n        /* \"#utility.yul\":5258:5261   */\n      dup4\n        /* \"#utility.yul\":5199:5266   */\n      tag_228\n      jump\t// in\n    tag_240:\n        /* \"#utility.yul\":5192:5266   */\n      swap2\n      pop\n        /* \"#utility.yul\":5275:5368   */\n      tag_241\n        /* \"#utility.yul\":5364:5367   */\n      dup3\n        /* \"#utility.yul\":5275:5368   */\n      tag_242\n      jump\t// in\n    tag_241:\n        /* \"#utility.yul\":5393:5395   */\n      0x40\n        /* \"#utility.yul\":5388:5391   */\n      dup3\n        /* \"#utility.yul\":5384:5396   */\n      add\n        /* \"#utility.yul\":5377:5396   */\n      swap1\n      pop\n        /* \"#utility.yul\":5036:5402   */\n      swap2\n      swap1\n      pop\n      jump\t// out\n        /* \"#utility.yul\":5408:5774   */\n    tag_243:\n        /* \"#utility.yul\":5550:5553   */\n      0x00\n        /* \"#utility.yul\":5571:5638   */\n      tag_245\n        /* \"#utility.yul\":5635:5637   */\n      0x2e\n        /* \"#utility.yul\":5630:5633   */\n      dup4\n        /* \"#utility.yul\":5571:5638   */\n      tag_228\n      jump\t// in\n    tag_245:\n        /* \"#utility.yul\":5564:5638   */\n      swap2\n      pop\n        /* \"#utility.yul\":5647:5740   */\n      tag_246\n        /* \"#utility.yul\":5736:5739   */\n      dup3\n        /* \"#utility.yul\":5647:5740   */\n      tag_247\n      jump\t// in\n    tag_246:\n        /* \"#utility.yul\":5765:5767   */\n      0x40\n        /* \"#utility.yul\":5760:5763   */\n      dup3\n        /* \"#utility.yul\":5756:5768   */\n      add\n        /* \"#utility.yul\":5749:5768   */\n      swap1\n      pop\n        /* \"#utility.yul\":5408:5774   */\n      swap2\n      swap1\n      pop\n      jump\t// out\n        /* \"#utility.yul\":5780:6146   */\n    tag_248:\n        /* \"#utility.yul\":5922:5925   */\n      0x00\n        /* \"#utility.yul\":5943:6010   */\n      tag_250\n        /* \"#utility.yul\":6007:6009   */\n      0x30\n        /* \"#utility.yul\":6002:6005   */\n      dup4\n        /* \"#utility.yul\":5943:6010   */\n      tag_228\n      jump\t// in\n    tag_250:\n        /* \"#utility.yul\":5936:6010   */\n      swap2\n      pop\n        /* \"#utility.yul\":6019:6112   */\n      tag_251\n        /* \"#utility.yul\":6108:6111   */\n      dup3\n        /* \"#utility.yul\":6019:6112   */\n      tag_252\n      jump\t// in\n    tag_251:\n        /* \"#utility.yul\":6137:6139   */\n      0x40\n        /* \"#utility.yul\":6132:6135   */\n      dup3\n        /* \"#utility.yul\":6128:6140   */\n      add\n        /* \"#utility.yul\":6121:6140   */\n      swap1\n      pop\n        /* \"#utility.yul\":5780:6146   */\n      swap2\n      swap1\n      pop\n      jump\t// out\n        /* \"#utility.yul\":6152:6518   */\n    tag_253:\n        /* \"#utility.yul\":6294:6297   */\n      0x00\n        /* \"#utility.yul\":6315:6382   */\n      tag_255\n        /* \"#utility.yul\":6379:6381   */\n      0x15\n        /* \"#utility.yul\":6374:6377   */\n      dup4\n        /* \"#utility.yul\":6315:6382   */\n      tag_228\n      jump\t// in\n    tag_255:\n        /* \"#utility.yul\":6308:6382   */\n      swap2\n      pop\n        /* \"#utility.yul\":6391:6484   */\n      tag_256\n        /* \"#utility.yul\":6480:6483   */\n      dup3\n        /* \"#utility.yul\":6391:6484   */\n      tag_257\n      jump\t// in\n    tag_256:\n        /* \"#utility.yul\":6509:6511   */\n      0x20\n        /* \"#utility.yul\":6504:6507   */\n      dup3\n        /* \"#utility.yul\":6500:6512   */\n      add\n        /* \"#utility.yul\":6493:6512   */\n      swap1\n      pop\n        /* \"#utility.yul\":6152:6518   */\n      swap2\n      swap1\n      pop\n      jump\t// out\n        /* \"#utility.yul\":6524:6890   */\n    tag_258:\n        /* \"#utility.yul\":6666:6669   */\n      0x00\n        /* \"#utility.yul\":6687:6754   */\n      tag_260\n        /* \"#utility.yul\":6751:6753   */\n      0x1e\n        /* \"#utility.yul\":6746:6749   */\n      dup4\n        /* \"#utility.yul\":6687:6754   */\n      tag_228\n      jump\t// in\n    tag_260:\n        /* \"#utility.yul\":6680:6754   */\n      swap2\n      pop\n        /* \"#utility.yul\":6763:6856   */\n      tag_261\n        /* \"#utility.yul\":6852:6855   */\n      dup3\n        /* \"#utility.yul\":6763:6856   */\n      tag_262\n      jump\t// in\n    tag_261:\n        /* \"#utility.yul\":6881:6883   */\n      0x20\n        /* \"#utility.yul\":6876:6879   */\n      dup3\n        /* \"#utility.yul\":6872:6884   */\n      add\n        /* \"#utility.yul\":6865:6884   */\n      swap1\n      pop\n        /* \"#utility.yul\":6524:6890   */\n      swap2\n      swap1\n      pop\n      jump\t// out\n        /* \"#utility.yul\":6896:7262   */\n    tag_263:\n        /* \"#utility.yul\":7038:7041   */\n      0x00\n        /* \"#utility.yul\":7059:7126   */\n      tag_265\n        /* \"#utility.yul\":7123:7125   */\n      0x33\n        /* \"#utility.yul\":7118:7121   */\n      dup4\n        /* \"#utility.yul\":7059:7126   */\n      tag_228\n      jump\t// in\n    tag_265:\n        /* \"#utility.yul\":7052:7126   */\n      swap2\n      pop\n        /* \"#utility.yul\":7135:7228   */\n      tag_266\n        /* \"#utility.yul\":7224:7227   */\n      dup3\n        /* \"#utility.yul\":7135:7228   */\n      tag_267\n      jump\t// in\n    tag_266:\n        /* \"#utility.yul\":7253:7255   */\n      0x40\n        /* \"#utility.yul\":7248:7251   */\n      dup3\n        /* \"#utility.yul\":7244:7256   */\n      add\n        /* \"#utility.yul\":7237:7256   */\n      swap1\n      pop\n        /* \"#utility.yul\":6896:7262   */\n      swap2\n      swap1\n      pop\n      jump\t// out\n        /* \"#utility.yul\":7268:7634   */\n    tag_268:\n        /* \"#utility.yul\":7410:7413   */\n      0x00\n        /* \"#utility.yul\":7431:7498   */\n      tag_270\n        /* \"#utility.yul\":7495:7497   */\n      0x1e\n        /* \"#utility.yul\":7490:7493   */\n      dup4\n        /* \"#utility.yul\":7431:7498   */\n      tag_228\n      jump\t// in\n    tag_270:\n        /* \"#utility.yul\":7424:7498   */\n      swap2\n      pop\n        /* \"#utility.yul\":7507:7600   */\n      tag_271\n        /* \"#utility.yul\":7596:7599   */\n      dup3\n        /* \"#utility.yul\":7507:7600   */\n      tag_272\n      jump\t// in\n    tag_271:\n        /* \"#utility.yul\":7625:7627   */\n      0x20\n        /* \"#utility.yul\":7620:7623   */\n      dup3\n        /* \"#utility.yul\":7616:7628   */\n      add\n        /* \"#utility.yul\":7609:7628   */\n      swap1\n      pop\n        /* \"#utility.yul\":7268:7634   */\n      swap2\n      swap1\n      pop\n      jump\t// out\n        /* \"#utility.yul\":7640:8006   */\n    tag_273:\n        /* \"#utility.yul\":7782:7785   */\n      0x00\n        /* \"#utility.yul\":7803:7870   */\n      tag_275\n        /* \"#utility.yul\":7867:7869   */\n      0x14\n        /* \"#utility.yul\":7862:7865   */\n      dup4\n        /* \"#utility.yul\":7803:7870   */\n      tag_228\n      jump\t// in\n    tag_275:\n        /* \"#utility.yul\":7796:7870   */\n      swap2\n      pop\n        /* \"#utility.yul\":7879:7972   */\n      tag_276\n        /* \"#utility.yul\":7968:7971   */\n      dup3\n        /* \"#utility.yul\":7879:7972   */\n      tag_277\n      jump\t// in\n    tag_276:\n        /* \"#utility.yul\":7997:7999   */\n      0x20\n        /* \"#utility.yul\":7992:7995   */\n      dup3\n        /* \"#utility.yul\":7988:8000   */\n      add\n        /* \"#utility.yul\":7981:8000   */\n      swap1\n      pop\n        /* \"#utility.yul\":7640:8006   */\n      swap2\n      swap1\n      pop\n      jump\t// out\n        /* \"#utility.yul\":8012:8130   */\n    tag_278:\n        /* \"#utility.yul\":8099:8123   */\n      tag_280\n        /* \"#utility.yul\":8117:8122   */\n      dup2\n        /* \"#utility.yul\":8099:8123   */\n      tag_281\n      jump\t// in\n    tag_280:\n        /* \"#utility.yul\":8094:8097   */\n      dup3\n        /* \"#utility.yul\":8087:8124   */\n      mstore\n        /* \"#utility.yul\":8012:8130   */\n      pop\n      pop\n      jump\t// out\n        /* \"#utility.yul\":8136:8358   */\n    tag_31:\n        /* \"#utility.yul\":8229:8233   */\n      0x00\n        /* \"#utility.yul\":8267:8269   */\n      0x20\n        /* \"#utility.yul\":8256:8265   */\n      dup3\n        /* \"#utility.yul\":8252:8270   */\n      add\n        /* \"#utility.yul\":8244:8270   */\n      swap1\n      pop\n        /* \"#utility.yul\":8280:8351   */\n      tag_283\n        /* \"#utility.yul\":8348:8349   */\n      0x00\n        /* \"#utility.yul\":8337:8346   */\n      dup4\n        /* \"#utility.yul\":8333:8350   */\n      add\n        /* \"#utility.yul\":8324:8330   */\n      dup5\n        /* \"#utility.yul\":8280:8351   */\n      tag_219\n      jump\t// in\n    tag_283:\n        /* \"#utility.yul\":8136:8358   */\n      swap3\n      swap2\n      pop\n      pop\n      jump\t// out\n        /* \"#utility.yul\":8364:8696   */\n    tag_19:\n        /* \"#utility.yul\":8485:8489   */\n      0x00\n        /* \"#utility.yul\":8523:8525   */\n      0x40\n        /* \"#utility.yul\":8512:8521   */\n      dup3\n        /* \"#utility.yul\":8508:8526   */\n      add\n        /* \"#utility.yul\":8500:8526   */\n      swap1\n      pop\n        /* \"#utility.yul\":8536:8607   */\n      tag_285\n        /* \"#utility.yul\":8604:8605   */\n      0x00\n        /* \"#utility.yul\":8593:8602   */\n      dup4\n        /* \"#utility.yul\":8589:8606   */\n      add\n        /* \"#utility.yul\":8580:8586   */\n      dup6\n        /* \"#utility.yul\":8536:8607   */\n      tag_219\n      jump\t// in\n    tag_285:\n        /* \"#utility.yul\":8617:8689   */\n      tag_286\n        /* \"#utility.yul\":8685:8687   */\n      0x20\n        /* \"#utility.yul\":8674:8683   */\n      dup4\n        /* \"#utility.yul\":8670:8688   */\n      add\n        /* \"#utility.yul\":8661:8667   */\n      dup5\n        /* \"#utility.yul\":8617:8689   */\n      tag_278\n      jump\t// in\n    tag_286:\n        /* \"#utility.yul\":8364:8696   */\n      swap4\n      swap3\n      pop\n      pop\n      pop\n      jump\t// out\n        /* \"#utility.yul\":8702:9125   */\n    tag_36:\n        /* \"#utility.yul\":8843:8847   */\n      0x00\n        /* \"#utility.yul\":8881:8883   */\n      0x40\n        /* \"#utility.yul\":8870:8879   */\n      dup3\n        /* \"#utility.yul\":8866:8884   */\n      add\n        /* \"#utility.yul\":8858:8884   */\n      swap1\n      pop\n        /* \"#utility.yul\":8930:8939   */\n      dup2\n        /* \"#utility.yul\":8924:8928   */\n      dup2\n        /* \"#utility.yul\":8920:8940   */\n      sub\n        /* \"#utility.yul\":8916:8917   */\n      0x00\n        /* \"#utility.yul\":8905:8914   */\n      dup4\n        /* \"#utility.yul\":8901:8918   */\n      add\n        /* \"#utility.yul\":8894:8941   */\n      mstore\n        /* \"#utility.yul\":8958:9036   */\n      tag_288\n        /* \"#utility.yul\":9031:9035   */\n      dup2\n        /* \"#utility.yul\":9022:9028   */\n      dup6\n        /* \"#utility.yul\":8958:9036   */\n      tag_223\n      jump\t// in\n    tag_288:\n        /* \"#utility.yul\":8950:9036   */\n      swap1\n      pop\n        /* \"#utility.yul\":9046:9118   */\n      tag_289\n        /* \"#utility.yul\":9114:9116   */\n      0x20\n        /* \"#utility.yul\":9103:9112   */\n      dup4\n        /* \"#utility.yul\":9099:9117   */\n      add\n        /* \"#utility.yul\":9090:9096   */\n      dup5\n        /* \"#utility.yul\":9046:9118   */\n      tag_278\n      jump\t// in\n    tag_289:\n        /* \"#utility.yul\":8702:9125   */\n      swap4\n      swap3\n      pop\n      pop\n      pop\n      jump\t// out\n        /* \"#utility.yul\":9131:9550   */\n    tag_73:\n        /* \"#utility.yul\":9297:9301   */\n      0x00\n        /* \"#utility.yul\":9335:9337   */\n      0x20\n        /* \"#utility.yul\":9324:9333   */\n      dup3\n        /* \"#utility.yul\":9320:9338   */\n      add\n        /* \"#utility.yul\":9312:9338   */\n      swap1\n      pop\n        /* \"#utility.yul\":9384:9393   */\n      dup2\n        /* \"#utility.yul\":9378:9382   */\n      dup2\n        /* \"#utility.yul\":9374:9394   */\n      sub\n        /* \"#utility.yul\":9370:9371   */\n      0x00\n        /* \"#utility.yul\":9359:9368   */\n      dup4\n        /* \"#utility.yul\":9355:9372   */\n      add\n        /* \"#utility.yul\":9348:9395   */\n      mstore\n        /* \"#utility.yul\":9412:9543   */\n      tag_291\n        /* \"#utility.yul\":9538:9542   */\n      dup2\n        /* \"#utility.yul\":9412:9543   */\n      tag_233\n      jump\t// in\n    tag_291:\n        /* \"#utility.yul\":9404:9543   */\n      swap1\n      pop\n        /* \"#utility.yul\":9131:9550   */\n      swap2\n      swap1\n      pop\n      jump\t// out\n        /* \"#utility.yul\":9556:9975   */\n    tag_113:\n        /* \"#utility.yul\":9722:9726   */\n      0x00\n        /* \"#utility.yul\":9760:9762   */\n      0x20\n        /* \"#utility.yul\":9749:9758   */\n      dup3\n        /* \"#utility.yul\":9745:9763   */\n      add\n        /* \"#utility.yul\":9737:9763   */\n      swap1\n      pop\n        /* \"#utility.yul\":9809:9818   */\n      dup2\n        /* \"#utility.yul\":9803:9807   */\n      dup2\n        /* \"#utility.yul\":9799:9819   */\n      sub\n        /* \"#utility.yul\":9795:9796   */\n      0x00\n        /* \"#utility.yul\":9784:9793   */\n      dup4\n        /* \"#utility.yul\":9780:9797   */\n      add\n        /* \"#utility.yul\":9773:9820   */\n      mstore\n        /* \"#utility.yul\":9837:9968   */\n      tag_293\n        /* \"#utility.yul\":9963:9967   */\n      dup2\n        /* \"#utility.yul\":9837:9968   */\n      tag_238\n      jump\t// in\n    tag_293:\n        /* \"#utility.yul\":9829:9968   */\n      swap1\n      pop\n        /* \"#utility.yul\":9556:9975   */\n      swap2\n      swap1\n      pop\n      jump\t// out\n        /* \"#utility.yul\":9981:10400   */\n    tag_140:\n        /* \"#utility.yul\":10147:10151   */\n      0x00\n        /* \"#utility.yul\":10185:10187   */\n      0x20\n        /* \"#utility.yul\":10174:10183   */\n      dup3\n        /* \"#utility.yul\":10170:10188   */\n      add\n        /* \"#utility.yul\":10162:10188   */\n      swap1\n      pop\n        /* \"#utility.yul\":10234:10243   */\n      dup2\n        /* \"#utility.yul\":10228:10232   */\n      dup2\n        /* \"#utility.yul\":10224:10244   */\n      sub\n        /* \"#utility.yul\":10220:10221   */\n      0x00\n        /* \"#utility.yul\":10209:10218   */\n      dup4\n        /* \"#utility.yul\":10205:10222   */\n      add\n        /* \"#utility.yul\":10198:10245   */\n      mstore\n        /* \"#utility.yul\":10262:10393   */\n      tag_295\n        /* \"#utility.yul\":10388:10392   */\n      dup2\n        /* \"#utility.yul\":10262:10393   */\n      tag_243\n      jump\t// in\n    tag_295:\n        /* \"#utility.yul\":10254:10393   */\n      swap1\n      pop\n        /* \"#utility.yul\":9981:10400   */\n      swap2\n      swap1\n      pop\n      jump\t// out\n        /* \"#utility.yul\":10406:10825   */\n    tag_91:\n        /* \"#utility.yul\":10572:10576   */\n      0x00\n        /* \"#utility.yul\":10610:10612   */\n      0x20\n        /* \"#utility.yul\":10599:10608   */\n      dup3\n        /* \"#utility.yul\":10595:10613   */\n      add\n        /* \"#utility.yul\":10587:10613   */\n      swap1\n      pop\n        /* \"#utility.yul\":10659:10668   */\n      dup2\n        /* \"#utility.yul\":10653:10657   */\n      dup2\n        /* \"#utility.yul\":10649:10669   */\n      sub\n        /* \"#utility.yul\":10645:10646   */\n      0x00\n        /* \"#utility.yul\":10634:10643   */\n      dup4\n        /* \"#utility.yul\":10630:10647   */\n      add\n        /* \"#utility.yul\":10623:10670   */\n      mstore\n        /* \"#utility.yul\":10687:10818   */\n      tag_297\n        /* \"#utility.yul\":10813:10817   */\n      dup2\n        /* \"#utility.yul\":10687:10818   */\n      tag_248\n      jump\t// in\n    tag_297:\n        /* \"#utility.yul\":10679:10818   */\n      swap1\n      pop\n        /* \"#utility.yul\":10406:10825   */\n      swap2\n      swap1\n      pop\n      jump\t// out\n        /* \"#utility.yul\":10831:11250   */\n    tag_110:\n        /* \"#utility.yul\":10997:11001   */\n      0x00\n        /* \"#utility.yul\":11035:11037   */\n      0x20\n        /* \"#utility.yul\":11024:11033   */\n      dup3\n        /* \"#utility.yul\":11020:11038   */\n      add\n        /* \"#utility.yul\":11012:11038   */\n      swap1\n      pop\n        /* \"#utility.yul\":11084:11093   */\n      dup2\n        /* \"#utility.yul\":11078:11082   */\n      dup2\n        /* \"#utility.yul\":11074:11094   */\n      sub\n        /* \"#utility.yul\":11070:11071   */\n      0x00\n        /* \"#utility.yul\":11059:11068   */\n      dup4\n        /* \"#utility.yul\":11055:11072   */\n      add\n        /* \"#utility.yul\":11048:11095   */\n      mstore\n        /* \"#utility.yul\":11112:11243   */\n      tag_299\n        /* \"#utility.yul\":11238:11242   */\n      dup2\n        /* \"#utility.yul\":11112:11243   */\n      tag_253\n      jump\t// in\n    tag_299:\n        /* \"#utility.yul\":11104:11243   */\n      swap1\n      pop\n        /* \"#utility.yul\":10831:11250   */\n      swap2\n      swap1\n      pop\n      jump\t// out\n        /* \"#utility.yul\":11256:11675   */\n    tag_133:\n        /* \"#utility.yul\":11422:11426   */\n      0x00\n        /* \"#utility.yul\":11460:11462   */\n      0x20\n        /* \"#utility.yul\":11449:11458   */\n      dup3\n        /* \"#utility.yul\":11445:11463   */\n      add\n        /* \"#utility.yul\":11437:11463   */\n      swap1\n      pop\n        /* \"#utility.yul\":11509:11518   */\n      dup2\n        /* \"#utility.yul\":11503:11507   */\n      dup2\n        /* \"#utility.yul\":11499:11519   */\n      sub\n        /* \"#utility.yul\":11495:11496   */\n      0x00\n        /* \"#utility.yul\":11484:11493   */\n      dup4\n        /* \"#utility.yul\":11480:11497   */\n      add\n        /* \"#utility.yul\":11473:11520   */\n      mstore\n        /* \"#utility.yul\":11537:11668   */\n      tag_301\n        /* \"#utility.yul\":11663:11667   */\n      dup2\n        /* \"#utility.yul\":11537:11668   */\n      tag_258\n      jump\t// in\n    tag_301:\n        /* \"#utility.yul\":11529:11668   */\n      swap1\n      pop\n        /* \"#utility.yul\":11256:11675   */\n      swap2\n      swap1\n      pop\n      jump\t// out\n        /* \"#utility.yul\":11681:12100   */\n    tag_118:\n        /* \"#utility.yul\":11847:11851   */\n      0x00\n        /* \"#utility.yul\":11885:11887   */\n      0x20\n        /* \"#utility.yul\":11874:11883   */\n      dup3\n        /* \"#utility.yul\":11870:11888   */\n      add\n        /* \"#utility.yul\":11862:11888   */\n      swap1\n      pop\n        /* \"#utility.yul\":11934:11943   */\n      dup2\n        /* \"#utility.yul\":11928:11932   */\n      dup2\n        /* \"#utility.yul\":11924:11944   */\n      sub\n        /* \"#utility.yul\":11920:11921   */\n      0x00\n        /* \"#utility.yul\":11909:11918   */\n      dup4\n        /* \"#utility.yul\":11905:11922   */\n      add\n        /* \"#utility.yul\":11898:11945   */\n      mstore\n        /* \"#utility.yul\":11962:12093   */\n      tag_303\n        /* \"#utility.yul\":12088:12092   */\n      dup2\n        /* \"#utility.yul\":11962:12093   */\n      tag_263\n      jump\t// in\n    tag_303:\n        /* \"#utility.yul\":11954:12093   */\n      swap1\n      pop\n        /* \"#utility.yul\":11681:12100   */\n      swap2\n      swap1\n      pop\n      jump\t// out\n        /* \"#utility.yul\":12106:12525   */\n    tag_101:\n        /* \"#utility.yul\":12272:12276   */\n      0x00\n        /* \"#utility.yul\":12310:12312   */\n      0x20\n        /* \"#utility.yul\":12299:12308   */\n      dup3\n        /* \"#utility.yul\":12295:12313   */\n      add\n        /* \"#utility.yul\":12287:12313   */\n      swap1\n      pop\n        /* \"#utility.yul\":12359:12368   */\n      dup2\n        /* \"#utility.yul\":12353:12357   */\n      dup2\n        /* \"#utility.yul\":12349:12369   */\n      sub\n        /* \"#utility.yul\":12345:12346   */\n      0x00\n        /* \"#utility.yul\":12334:12343   */\n      dup4\n        /* \"#utility.yul\":12330:12347   */\n      add\n        /* \"#utility.yul\":12323:12370   */\n      mstore\n        /* \"#utility.yul\":12387:12518   */\n      tag_305\n        /* \"#utility.yul\":12513:12517   */\n      dup2\n        /* \"#utility.yul\":12387:12518   */\n      tag_268\n      jump\t// in\n    tag_305:\n        /* \"#utility.yul\":12379:12518   */\n      swap1\n      pop\n        /* \"#utility.yul\":12106:12525   */\n      swap2\n      swap1\n      pop\n      jump\t// out\n        /* \"#utility.yul\":12531:12950   */\n    tag_130:\n        /* \"#utility.yul\":12697:12701   */\n      0x00\n        /* \"#utility.yul\":12735:12737   */\n      0x20\n        /* \"#utility.yul\":12724:12733   */\n      dup3\n        /* \"#utility.yul\":12720:12738   */\n      add\n        /* \"#utility.yul\":12712:12738   */\n      swap1\n      pop\n        /* \"#utility.yul\":12784:12793   */\n      dup2\n        /* \"#utility.yul\":12778:12782   */\n      dup2\n        /* \"#utility.yul\":12774:12794   */\n      sub\n        /* \"#utility.yul\":12770:12771   */\n      0x00\n        /* \"#utility.yul\":12759:12768   */\n      dup4\n        /* \"#utility.yul\":12755:12772   */\n      add\n        /* \"#utility.yul\":12748:12795   */\n      mstore\n        /* \"#utility.yul\":12812:12943   */\n      tag_307\n        /* \"#utility.yul\":12938:12942   */\n      dup2\n        /* \"#utility.yul\":12812:12943   */\n      tag_273\n      jump\t// in\n    tag_307:\n        /* \"#utility.yul\":12804:12943   */\n      swap1\n      pop\n        /* \"#utility.yul\":12531:12950   */\n      swap2\n      swap1\n      pop\n      jump\t// out\n        /* \"#utility.yul\":12956:13178   */\n    tag_60:\n        /* \"#utility.yul\":13049:13053   */\n      0x00\n        /* \"#utility.yul\":13087:13089   */\n      0x20\n        /* \"#utility.yul\":13076:13085   */\n      dup3\n        /* \"#utility.yul\":13072:13090   */\n      add\n        /* \"#utility.yul\":13064:13090   */\n      swap1\n      pop\n        /* \"#utility.yul\":13100:13171   */\n      tag_309\n        /* \"#utility.yul\":13168:13169   */\n      0x00\n        /* \"#utility.yul\":13157:13166   */\n      dup4\n        /* \"#utility.yul\":13153:13170   */\n      add\n        /* \"#utility.yul\":13144:13150   */\n      dup5\n        /* \"#utility.yul\":13100:13171   */\n      tag_278\n      jump\t// in\n    tag_309:\n        /* \"#utility.yul\":12956:13178   */\n      swap3\n      swap2\n      pop\n      pop\n      jump\t// out\n        /* \"#utility.yul\":13184:13313   */\n    tag_164:\n        /* \"#utility.yul\":13218:13224   */\n      0x00\n        /* \"#utility.yul\":13245:13265   */\n      tag_311\n      tag_312\n      jump\t// in\n    tag_311:\n        /* \"#utility.yul\":13235:13265   */\n      swap1\n      pop\n        /* \"#utility.yul\":13274:13307   */\n      tag_313\n        /* \"#utility.yul\":13302:13306   */\n      dup3\n        /* \"#utility.yul\":13294:13300   */\n      dup3\n        /* \"#utility.yul\":13274:13307   */\n      tag_314\n      jump\t// in\n    tag_313:\n        /* \"#utility.yul\":13184:13313   */\n      swap2\n      swap1\n      pop\n      jump\t// out\n        /* \"#utility.yul\":13319:13394   */\n    tag_312:\n        /* \"#utility.yul\":13352:13358   */\n      0x00\n        /* \"#utility.yul\":13385:13387   */\n      0x40\n        /* \"#utility.yul\":13379:13388   */\n      mload\n        /* \"#utility.yul\":13369:13388   */\n      swap1\n      pop\n        /* \"#utility.yul\":13319:13394   */\n      swap1\n      jump\t// out\n        /* \"#utility.yul\":13400:13708   */\n    tag_163:\n        /* \"#utility.yul\":13462:13466   */\n      0x00\n        /* \"#utility.yul\":13552:13570   */\n      0xffffffffffffffff\n        /* \"#utility.yul\":13544:13550   */\n      dup3\n        /* \"#utility.yul\":13541:13571   */\n      gt\n        /* \"#utility.yul\":13538:13594   */\n      iszero\n      tag_317\n      jumpi\n        /* \"#utility.yul\":13574:13592   */\n      tag_318\n      tag_319\n      jump\t// in\n    tag_318:\n        /* \"#utility.yul\":13538:13594   */\n    tag_317:\n        /* \"#utility.yul\":13612:13641   */\n      tag_320\n        /* \"#utility.yul\":13634:13640   */\n      dup3\n        /* \"#utility.yul\":13612:13641   */\n      tag_232\n      jump\t// in\n    tag_320:\n        /* \"#utility.yul\":13604:13641   */\n      swap1\n      pop\n        /* \"#utility.yul\":13696:13700   */\n      0x20\n        /* \"#utility.yul\":13690:13694   */\n      dup2\n        /* \"#utility.yul\":13686:13701   */\n      add\n        /* \"#utility.yul\":13678:13701   */\n      swap1\n      pop\n        /* \"#utility.yul\":13400:13708   */\n      swap2\n      swap1\n      pop\n      jump\t// out\n        /* \"#utility.yul\":13714:13813   */\n    tag_226:\n        /* \"#utility.yul\":13766:13772   */\n      0x00\n        /* \"#utility.yul\":13800:13805   */\n      dup2\n        /* \"#utility.yul\":13794:13806   */\n      mload\n        /* \"#utility.yul\":13784:13806   */\n      swap1\n      pop\n        /* \"#utility.yul\":13714:13813   */\n      swap2\n      swap1\n      pop\n      jump\t// out\n        /* \"#utility.yul\":13819:13988   */\n    tag_228:\n        /* \"#utility.yul\":13903:13914   */\n      0x00\n        /* \"#utility.yul\":13937:13943   */\n      dup3\n        /* \"#utility.yul\":13932:13935   */\n      dup3\n        /* \"#utility.yul\":13925:13944   */\n      mstore\n        /* \"#utility.yul\":13977:13981   */\n      0x20\n        /* \"#utility.yul\":13972:13975   */\n      dup3\n        /* \"#utility.yul\":13968:13982   */\n      add\n        /* \"#utility.yul\":13953:13982   */\n      swap1\n      pop\n        /* \"#utility.yul\":13819:13988   */\n      swap3\n      swap2\n      pop\n      pop\n      jump\t// out\n        /* \"#utility.yul\":13994:14299   */\n    tag_68:\n        /* \"#utility.yul\":14034:14037   */\n      0x00\n        /* \"#utility.yul\":14053:14073   */\n      tag_324\n        /* \"#utility.yul\":14071:14072   */\n      dup3\n        /* \"#utility.yul\":14053:14073   */\n      tag_281\n      jump\t// in\n    tag_324:\n        /* \"#utility.yul\":14048:14073   */\n      swap2\n      pop\n        /* \"#utility.yul\":14087:14107   */\n      tag_325\n        /* \"#utility.yul\":14105:14106   */\n      dup4\n        /* \"#utility.yul\":14087:14107   */\n      tag_281\n      jump\t// in\n    tag_325:\n        /* \"#utility.yul\":14082:14107   */\n      swap3\n      pop\n        /* \"#utility.yul\":14241:14242   */\n      dup3\n        /* \"#utility.yul\":14173:14239   */\n      0xffffffffffffffffffffffffffffffffffffffffffffffffffffffffffffffff\n        /* \"#utility.yul\":14169:14243   */\n      sub\n        /* \"#utility.yul\":14166:14167   */\n      dup3\n        /* \"#utility.yul\":14163:14244   */\n      gt\n        /* \"#utility.yul\":14160:14267   */\n      iszero\n      tag_326\n      jumpi\n        /* \"#utility.yul\":14247:14265   */\n      tag_327\n      tag_328\n      jump\t// in\n    tag_327:\n        /* \"#utility.yul\":14160:14267   */\n    tag_326:\n        /* \"#utility.yul\":14291:14292   */\n      dup3\n        /* \"#utility.yul\":14288:14289   */\n      dup3\n        /* \"#utility.yul\":14284:14293   */\n      add\n        /* \"#utility.yul\":14277:14293   */\n      swap1\n      pop\n        /* \"#utility.yul\":13994:14299   */\n      swap3\n      swap2\n      pop\n      pop\n      jump\t// out\n        /* \"#utility.yul\":14305:14496   */\n    tag_135:\n        /* \"#utility.yul\":14345:14349   */\n      0x00\n        /* \"#utility.yul\":14365:14385   */\n      tag_330\n        /* \"#utility.yul\":14383:14384   */\n      dup3\n        /* \"#utility.yul\":14365:14385   */\n      tag_281\n      jump\t// in\n    tag_330:\n        /* \"#utility.yul\":14360:14385   */\n      swap2\n      pop\n        /* \"#utility.yul\":14399:14419   */\n      tag_331\n        /* \"#utility.yul\":14417:14418   */\n      dup4\n        /* \"#utility.yul\":14399:14419   */\n      tag_281\n      jump\t// in\n    tag_331:\n        /* \"#utility.yul\":14394:14419   */\n      swap3\n      pop\n        /* \"#utility.yul\":14438:14439   */\n      dup3\n        /* \"#utility.yul\":14435:14436   */\n      dup3\n        /* \"#utility.yul\":14432:14440   */\n      lt\n        /* \"#utility.yul\":14429:14463   */\n      iszero\n      tag_332\n      jumpi\n        /* \"#utility.yul\":14443:14461   */\n      tag_333\n      tag_328\n      jump\t// in\n    tag_333:\n        /* \"#utility.yul\":14429:14463   */\n    tag_332:\n        /* \"#utility.yul\":14488:14489   */\n      dup3\n        /* \"#utility.yul\":14485:14486   */\n      dup3\n        /* \"#utility.yul\":14481:14490   */\n      sub\n        /* \"#utility.yul\":14473:14490   */\n      swap1\n      pop\n        /* \"#utility.yul\":14305:14496   */\n      swap3\n      swap2\n      pop\n      pop\n      jump\t// out\n        /* \"#utility.yul\":14502:14598   */\n    tag_222:\n        /* \"#utility.yul\":14539:14546   */\n      0x00\n        /* \"#utility.yul\":14568:14592   */\n      tag_335\n        /* \"#utility.yul\":14586:14591   */\n      dup3\n        /* \"#utility.yul\":14568:14592   */\n      tag_336\n      jump\t// in\n    tag_335:\n        /* \"#utility.yul\":14557:14592   */\n      swap1\n      pop\n        /* \"#utility.yul\":14502:14598   */\n      swap2\n      swap1\n      pop\n      jump\t// out\n        /* \"#utility.yul\":14604:14730   */\n    tag_336:\n        /* \"#utility.yul\":14641:14648   */\n      0x00\n        /* \"#utility.yul\":14681:14723   */\n      0xffffffffffffffffffffffffffffffffffffffff\n        /* \"#utility.yul\":14674:14679   */\n      dup3\n        /* \"#utility.yul\":14670:14724   */\n      and\n        /* \"#utility.yul\":14659:14724   */\n      swap1\n      pop\n        /* \"#utility.yul\":14604:14730   */\n      swap2\n      swap1\n      pop\n      jump\t// out\n        /* \"#utility.yul\":14736:14813   */\n    tag_281:\n        /* \"#utility.yul\":14773:14780   */\n      0x00\n        /* \"#utility.yul\":14802:14807   */\n      dup2\n        /* \"#utility.yul\":14791:14807   */\n      swap1\n      pop\n        /* \"#utility.yul\":14736:14813   */\n      swap2\n      swap1\n      pop\n      jump\t// out\n        /* \"#utility.yul\":14819:14973   */\n    tag_169:\n        /* \"#utility.yul\":14903:14909   */\n      dup3\n        /* \"#utility.yul\":14898:14901   */\n      dup2\n        /* \"#utility.yul\":14893:14896   */\n      dup4\n        /* \"#utility.yul\":14880:14910   */\n      calldatacopy\n        /* \"#utility.yul\":14965:14966   */\n      0x00\n        /* \"#utility.yul\":14956:14962   */\n      dup4\n        /* \"#utility.yul\":14951:14954   */\n      dup4\n        /* \"#utility.yul\":14947:14963   */\n      add\n        /* \"#utility.yul\":14940:14967   */\n      mstore\n        /* \"#utility.yul\":14819:14973   */\n      pop\n      pop\n      pop\n      jump\t// out\n        /* \"#utility.yul\":14979:15286   */\n    tag_230:\n        /* \"#utility.yul\":15047:15048   */\n      0x00\n        /* \"#utility.yul\":15057:15170   */\n    tag_341:\n        /* \"#utility.yul\":15071:15077   */\n      dup4\n        /* \"#utility.yul\":15068:15069   */\n      dup2\n        /* \"#utility.yul\":15065:15078   */\n      lt\n        /* \"#utility.yul\":15057:15170   */\n      iszero\n      tag_343\n      jumpi\n        /* \"#utility.yul\":15156:15157   */\n      dup1\n        /* \"#utility.yul\":15151:15154   */\n      dup3\n        /* \"#utility.yul\":15147:15158   */\n      add\n        /* \"#utility.yul\":15141:15159   */\n      mload\n        /* \"#utility.yul\":15137:15138   */\n      dup2\n        /* \"#utility.yul\":15132:15135   */\n      dup5\n        /* \"#utility.yul\":15128:15139   */\n      add\n        /* \"#utility.yul\":15121:15160   */\n      mstore\n        /* \"#utility.yul\":15093:15095   */\n      0x20\n        /* \"#utility.yul\":15090:15091   */\n      dup2\n        /* \"#utility.yul\":15086:15096   */\n      add\n        /* \"#utility.yul\":15081:15096   */\n      swap1\n      pop\n        /* \"#utility.yul\":15057:15170   */\n      jump(tag_341)\n    tag_343:\n        /* \"#utility.yul\":15188:15194   */\n      dup4\n        /* \"#utility.yul\":15185:15186   */\n      dup2\n        /* \"#utility.yul\":15182:15195   */\n      gt\n        /* \"#utility.yul\":15179:15280   */\n      iszero\n      tag_344\n      jumpi\n        /* \"#utility.yul\":15268:15269   */\n      0x00\n        /* \"#utility.yul\":15259:15265   */\n      dup5\n        /* \"#utility.yul\":15254:15257   */\n      dup5\n        /* \"#utility.yul\":15250:15266   */\n      add\n        /* \"#utility.yul\":15243:15270   */\n      mstore\n        /* \"#utility.yul\":15179:15280   */\n    tag_344:\n        /* \"#utility.yul\":15028:15286   */\n      pop\n        /* \"#utility.yul\":14979:15286   */\n      pop\n      pop\n      pop\n      jump\t// out\n        /* \"#utility.yul\":15292:15612   */\n    tag_83:\n        /* \"#utility.yul\":15336:15342   */\n      0x00\n        /* \"#utility.yul\":15373:15374   */\n      0x02\n        /* \"#utility.yul\":15367:15371   */\n      dup3\n        /* \"#utility.yul\":15363:15375   */\n      div\n        /* \"#utility.yul\":15353:15375   */\n      swap1\n      pop\n        /* \"#utility.yul\":15420:15421   */\n      0x01\n        /* \"#utility.yul\":15414:15418   */\n      dup3\n        /* \"#utility.yul\":15410:15422   */\n      and\n        /* \"#utility.yul\":15441:15459   */\n      dup1\n        /* \"#utility.yul\":15431:15512   */\n      tag_346\n      jumpi\n        /* \"#utility.yul\":15497:15501   */\n      0x7f\n        /* \"#utility.yul\":15489:15495   */\n      dup3\n        /* \"#utility.yul\":15485:15502   */\n      and\n        /* \"#utility.yul\":15475:15502   */\n      swap2\n      pop\n        /* \"#utility.yul\":15431:15512   */\n    tag_346:\n        /* \"#utility.yul\":15559:15561   */\n      0x20\n        /* \"#utility.yul\":15551:15557   */\n      dup3\n        /* \"#utility.yul\":15548:15562   */\n      lt\n        /* \"#utility.yul\":15528:15546   */\n      dup2\n        /* \"#utility.yul\":15525:15563   */\n      eq\n        /* \"#utility.yul\":15522:15606   */\n      iszero\n      tag_347\n      jumpi\n        /* \"#utility.yul\":15578:15596   */\n      tag_348\n      tag_349\n      jump\t// in\n    tag_348:\n        /* \"#utility.yul\":15522:15606   */\n    tag_347:\n        /* \"#utility.yul\":15343:15612   */\n      pop\n        /* \"#utility.yul\":15292:15612   */\n      swap2\n      swap1\n      pop\n      jump\t// out\n        /* \"#utility.yul\":15618:15899   */\n    tag_314:\n        /* \"#utility.yul\":15701:15728   */\n      tag_351\n        /* \"#utility.yul\":15723:15727   */\n      dup3\n        /* \"#utility.yul\":15701:15728   */\n      tag_232\n      jump\t// in\n    tag_351:\n        /* \"#utility.yul\":15693:15699   */\n      dup2\n        /* \"#utility.yul\":15689:15729   */\n      add\n        /* \"#utility.yul\":15831:15837   */\n      dup2\n        /* \"#utility.yul\":15819:15829   */\n      dup2\n        /* \"#utility.yul\":15816:15838   */\n      lt\n        /* \"#utility.yul\":15795:15813   */\n      0xffffffffffffffff\n        /* \"#utility.yul\":15783:15793   */\n      dup3\n        /* \"#utility.yul\":15780:15814   */\n      gt\n        /* \"#utility.yul\":15777:15839   */\n      or\n        /* \"#utility.yul\":15774:15862   */\n      iszero\n      tag_352\n      jumpi\n        /* \"#utility.yul\":15842:15860   */\n      tag_353\n      tag_319\n      jump\t// in\n    tag_353:\n        /* \"#utility.yul\":15774:15862   */\n    tag_352:\n        /* \"#utility.yul\":15882:15892   */\n      dup1\n        /* \"#utility.yul\":15878:15880   */\n      0x40\n        /* \"#utility.yul\":15871:15893   */\n      mstore\n        /* \"#utility.yul\":15661:15899   */\n      pop\n        /* \"#utility.yul\":15618:15899   */\n      pop\n      pop\n      jump\t// out\n        /* \"#utility.yul\":15905:16085   */\n    tag_328:\n        /* \"#utility.yul\":15953:16030   */\n      0x4e487b7100000000000000000000000000000000000000000000000000000000\n        /* \"#utility.yul\":15950:15951   */\n      0x00\n        /* \"#utility.yul\":15943:16031   */\n      mstore\n        /* \"#utility.yul\":16050:16054   */\n      0x11\n        /* \"#utility.yul\":16047:16048   */\n      0x04\n        /* \"#utility.yul\":16040:16055   */\n      mstore\n        /* \"#utility.yul\":16074:16078   */\n      0x24\n        /* \"#utility.yul\":16071:16072   */\n      0x00\n        /* \"#utility.yul\":16064:16079   */\n      revert\n        /* \"#utility.yul\":16091:16271   */\n    tag_349:\n        /* \"#utility.yul\":16139:16216   */\n      0x4e487b7100000000000000000000000000000000000000000000000000000000\n        /* \"#utility.yul\":16136:16137   */\n      0x00\n        /* \"#utility.yul\":16129:16217   */\n      mstore\n        /* \"#utility.yul\":16236:16240   */\n      0x22\n        /* \"#utility.yul\":16233:16234   */\n      0x04\n        /* \"#utility.yul\":16226:16241   */\n      mstore\n        /* \"#utility.yul\":16260:16264   */\n      0x24\n        /* \"#utility.yul\":16257:16258   */\n      0x00\n        /* \"#utility.yul\":16250:16265   */\n      revert\n        /* \"#utility.yul\":16277:16457   */\n    tag_76:\n        /* \"#utility.yul\":16325:16402   */\n      0x4e487b7100000000000000000000000000000000000000000000000000000000\n        /* \"#utility.yul\":16322:16323   */\n      0x00\n        /* \"#utility.yul\":16315:16403   */\n      mstore\n        /* \"#utility.yul\":16422:16426   */\n      0x32\n        /* \"#utility.yul\":16419:16420   */\n      0x04\n        /* \"#utility.yul\":16412:16427   */\n      mstore\n        /* \"#utility.yul\":16446:16450   */\n      0x24\n        /* \"#utility.yul\":16443:16444   */\n      0x00\n        /* \"#utility.yul\":16436:16451   */\n      revert\n        /* \"#utility.yul\":16463:16643   */\n    tag_319:\n        /* \"#utility.yul\":16511:16588   */\n      0x4e487b7100000000000000000000000000000000000000000000000000000000\n        /* \"#utility.yul\":16508:16509   */\n      0x00\n        /* \"#utility.yul\":16501:16589   */\n      mstore\n        /* \"#utility.yul\":16608:16612   */\n      0x41\n        /* \"#utility.yul\":16605:16606   */\n      0x04\n        /* \"#utility.yul\":16598:16613   */\n      mstore\n        /* \"#utility.yul\":16632:16636   */\n      0x24\n        /* \"#utility.yul\":16629:16630   */\n      0x00\n        /* \"#utility.yul\":16622:16637   */\n      revert\n        /* \"#utility.yul\":16649:16766   */\n    tag_178:\n        /* \"#utility.yul\":16758:16759   */\n      0x00\n        /* \"#utility.yul\":16755:16756   */\n      dup1\n        /* \"#utility.yul\":16748:16760   */\n      revert\n        /* \"#utility.yul\":16772:16889   */\n    tag_167:\n        /* \"#utility.yul\":16881:16882   */\n      0x00\n        /* \"#utility.yul\":16878:16879   */\n      dup1\n        /* \"#utility.yul\":16871:16883   */\n      revert\n        /* \"#utility.yul\":16895:17012   */\n    tag_199:\n        /* \"#utility.yul\":17004:17005   */\n      0x00\n        /* \"#utility.yul\":17001:17002   */\n      dup1\n        /* \"#utility.yul\":16994:17006   */\n      revert\n        /* \"#utility.yul\":17018:17135   */\n    tag_187:\n        /* \"#utility.yul\":17127:17128   */\n      0x00\n        /* \"#utility.yul\":17124:17125   */\n      dup1\n        /* \"#utility.yul\":17117:17129   */\n      revert\n        /* \"#utility.yul\":17141:17243   */\n    tag_232:\n        /* \"#utility.yul\":17182:17188   */\n      0x00\n        /* \"#utility.yul\":17233:17235   */\n      0x1f\n        /* \"#utility.yul\":17229:17236   */\n      not\n        /* \"#utility.yul\":17224:17226   */\n      0x1f\n        /* \"#utility.yul\":17217:17222   */\n      dup4\n        /* \"#utility.yul\":17213:17227   */\n      add\n        /* \"#utility.yul\":17209:17237   */\n      and\n        /* \"#utility.yul\":17199:17237   */\n      swap1\n      pop\n        /* \"#utility.yul\":17141:17243   */\n      swap2\n      swap1\n      pop\n      jump\t// out\n        /* \"#utility.yul\":17249:17488   */\n    tag_237:\n        /* \"#utility.yul\":17389:17423   */\n      0x536f6c6f20656c2041646d696e6973747261646f722064656c2047796d207075\n        /* \"#utility.yul\":17385:17386   */\n      0x00\n        /* \"#utility.yul\":17377:17383   */\n      dup3\n        /* \"#utility.yul\":17373:17387   */\n      add\n        /* \"#utility.yul\":17366:17424   */\n      mstore\n        /* \"#utility.yul\":17458:17480   */\n      0x656465206d6f6469666963617220636c61736573000000000000000000000000\n        /* \"#utility.yul\":17453:17455   */\n      0x20\n        /* \"#utility.yul\":17445:17451   */\n      dup3\n        /* \"#utility.yul\":17441:17456   */\n      add\n        /* \"#utility.yul\":17434:17481   */\n      mstore\n        /* \"#utility.yul\":17249:17488   */\n      pop\n      jump\t// out\n        /* \"#utility.yul\":17494:17718   */\n    tag_242:\n        /* \"#utility.yul\":17634:17668   */\n      0x596120746520656e6375656e74726173207265676973747261646f20656e2065\n        /* \"#utility.yul\":17630:17631   */\n      0x00\n        /* \"#utility.yul\":17622:17628   */\n      dup3\n        /* \"#utility.yul\":17618:17632   */\n      add\n        /* \"#utility.yul\":17611:17669   */\n      mstore\n        /* \"#utility.yul\":17703:17710   */\n      0x6c2067796d000000000000000000000000000000000000000000000000000000\n        /* \"#utility.yul\":17698:17700   */\n      0x20\n        /* \"#utility.yul\":17690:17696   */\n      dup3\n        /* \"#utility.yul\":17686:17701   */\n      add\n        /* \"#utility.yul\":17679:17711   */\n      mstore\n        /* \"#utility.yul\":17494:17718   */\n      pop\n      jump\t// out\n        /* \"#utility.yul\":17724:17957   */\n    tag_247:\n        /* \"#utility.yul\":17864:17898   */\n      0x4e6f207469656e6573206372656469746f7320737566696369656e7465732070\n        /* \"#utility.yul\":17860:17861   */\n      0x00\n        /* \"#utility.yul\":17852:17858   */\n      dup3\n        /* \"#utility.yul\":17848:17862   */\n      add\n        /* \"#utility.yul\":17841:17899   */\n      mstore\n        /* \"#utility.yul\":17933:17949   */\n      0x617261207472616e736665726972000000000000000000000000000000000000\n        /* \"#utility.yul\":17928:17930   */\n      0x20\n        /* \"#utility.yul\":17920:17926   */\n      dup3\n        /* \"#utility.yul\":17916:17931   */\n      add\n        /* \"#utility.yul\":17909:17950   */\n      mstore\n        /* \"#utility.yul\":17724:17957   */\n      pop\n      jump\t// out\n        /* \"#utility.yul\":17963:18198   */\n    tag_252:\n        /* \"#utility.yul\":18103:18137   */\n      0x536f6c6f20656c2041646d696e6973747261646f722064656c2047796d207075\n        /* \"#utility.yul\":18099:18100   */\n      0x00\n        /* \"#utility.yul\":18091:18097   */\n      dup3\n        /* \"#utility.yul\":18087:18101   */\n      add\n        /* \"#utility.yul\":18080:18138   */\n      mstore\n        /* \"#utility.yul\":18172:18190   */\n      0x65646520637265617220636c6173657300000000000000000000000000000000\n        /* \"#utility.yul\":18167:18169   */\n      0x20\n        /* \"#utility.yul\":18159:18165   */\n      dup3\n        /* \"#utility.yul\":18155:18170   */\n      add\n        /* \"#utility.yul\":18148:18191   */\n      mstore\n        /* \"#utility.yul\":17963:18198   */\n      pop\n      jump\t// out\n        /* \"#utility.yul\":18204:18375   */\n    tag_257:\n        /* \"#utility.yul\":18344:18367   */\n      0x4572657320656c2041646d696e6973747261646f720000000000000000000000\n        /* \"#utility.yul\":18340:18341   */\n      0x00\n        /* \"#utility.yul\":18332:18338   */\n      dup3\n        /* \"#utility.yul\":18328:18342   */\n      add\n        /* \"#utility.yul\":18321:18368   */\n      mstore\n        /* \"#utility.yul\":18204:18375   */\n      pop\n      jump\t// out\n        /* \"#utility.yul\":18381:18561   */\n    tag_262:\n        /* \"#utility.yul\":18521:18553   */\n      0x4e6f207469656e6573206372656469746f7320737566696369656e7465730000\n        /* \"#utility.yul\":18517:18518   */\n      0x00\n        /* \"#utility.yul\":18509:18515   */\n      dup3\n        /* \"#utility.yul\":18505:18519   */\n      add\n        /* \"#utility.yul\":18498:18554   */\n      mstore\n        /* \"#utility.yul\":18381:18561   */\n      pop\n      jump\t// out\n        /* \"#utility.yul\":18567:18805   */\n    tag_267:\n        /* \"#utility.yul\":18707:18741   */\n      0x536f6c6f20656c2041646d696e6973747261646f722064656c2047796d207075\n        /* \"#utility.yul\":18703:18704   */\n      0x00\n        /* \"#utility.yul\":18695:18701   */\n      dup3\n        /* \"#utility.yul\":18691:18705   */\n      add\n        /* \"#utility.yul\":18684:18742   */\n      mstore\n        /* \"#utility.yul\":18776:18797   */\n      0x65646520656c696d696e617220636c6173657300000000000000000000000000\n        /* \"#utility.yul\":18771:18773   */\n      0x20\n        /* \"#utility.yul\":18763:18769   */\n      dup3\n        /* \"#utility.yul\":18759:18774   */\n      add\n        /* \"#utility.yul\":18752:18798   */\n      mstore\n        /* \"#utility.yul\":18567:18805   */\n      pop\n      jump\t// out\n        /* \"#utility.yul\":18811:18991   */\n    tag_272:\n        /* \"#utility.yul\":18951:18983   */\n      0x4e6f2065786973746520756e6120636c61736520636f6e206573652049640000\n        /* \"#utility.yul\":18947:18948   */\n      0x00\n        /* \"#utility.yul\":18939:18945   */\n      dup3\n        /* \"#utility.yul\":18935:18949   */\n      add\n        /* \"#utility.yul\":18928:18984   */\n      mstore\n        /* \"#utility.yul\":18811:18991   */\n      pop\n      jump\t// out\n        /* \"#utility.yul\":18997:19167   */\n    tag_277:\n        /* \"#utility.yul\":19137:19159   */\n      0x4573746120636c617365206e6f20657869737465000000000000000000000000\n        /* \"#utility.yul\":19133:19134   */\n      0x00\n        /* \"#utility.yul\":19125:19131   */\n      dup3\n        /* \"#utility.yul\":19121:19135   */\n      add\n        /* \"#utility.yul\":19114:19160   */\n      mstore\n        /* \"#utility.yul\":18997:19167   */\n      pop\n      jump\t// out\n        /* \"#utility.yul\":19173:19295   */\n    tag_173:\n        /* \"#utility.yul\":19246:19270   */\n      tag_373\n        /* \"#utility.yul\":19264:19269   */\n      dup2\n        /* \"#utility.yul\":19246:19270   */\n      tag_222\n      jump\t// in\n    tag_373:\n        /* \"#utility.yul\":19239:19244   */\n      dup2\n        /* \"#utility.yul\":19236:19271   */\n      eq\n        /* \"#utility.yul\":19226:19289   */\n      tag_374\n      jumpi\n        /* \"#utility.yul\":19285:19286   */\n      0x00\n        /* \"#utility.yul\":19282:19283   */\n      dup1\n        /* \"#utility.yul\":19275:19287   */\n      revert\n        /* \"#utility.yul\":19226:19289   */\n    tag_374:\n        /* \"#utility.yul\":19173:19295   */\n      pop\n      jump\t// out\n        /* \"#utility.yul\":19301:19423   */\n    tag_183:\n        /* \"#utility.yul\":19374:19398   */\n      tag_376\n        /* \"#utility.yul\":19392:19397   */\n      dup2\n        /* \"#utility.yul\":19374:19398   */\n      tag_281\n      jump\t// in\n    tag_376:\n        /* \"#utility.yul\":19367:19372   */\n      dup2\n        /* \"#utility.yul\":19364:19399   */\n      eq\n        /* \"#utility.yul\":19354:19417   */\n      tag_377\n      jumpi\n        /* \"#utility.yul\":19413:19414   */\n      0x00\n        /* \"#utility.yul\":19410:19411   */\n      dup1\n        /* \"#utility.yul\":19403:19415   */\n      revert\n        /* \"#utility.yul\":19354:19417   */\n    tag_377:\n        /* \"#utility.yul\":19301:19423   */\n      pop\n      jump\t// out\n\n    auxdata: 0xa264697066735822122065c03908f8460e7c9be41c6872072f95b496c8f726492865eb924599e3cef8f764736f6c63430008070033\n}\n",
				"bytecode": {
					"linkReferences": {},
					"object": "60a060405234801561001057600080fd5b503373ffffffffffffffffffffffffffffffffffffffff1660808173ffffffffffffffffffffffffffffffffffffffff1660601b8152505060805160601c6117b461008260003960008181610312015281816103d7015281816104ce015281816106fa01526108a001526117b46000f3fe608060405234801561001057600080fd5b50600436106100b45760003560e01c8063512d62df11610071578063512d62df1461017b5780636d705ebb146101ac57806372c30f45146101c85780637aed8136146101e4578063a87430ba14610200578063d93b2dd014610230576100b4565b806312065fe0146100b957806319389b95146100d85780631e8be099146100f45780632a0acc6a146101105780633613a9f41461012e5780634852a2121461015f575b600080fd5b6100c161024c565b6040516100cf9291906110cf565b60405180910390f35b6100f260048036038101906100ed9190610e46565b610297565b005b61010e60048036038101906101099190610eb3565b6102f9565b005b6101186103d5565b60405161012591906110b4565b60405180910390f35b61014860048036038101906101439190610e46565b6103f9565b6040516101569291906110f8565b60405180910390f35b61017960048036038101906101749190610dea565b6104b5565b005b61019560048036038101906101909190610e46565b6105e9565b6040516101a39291906110f8565b60405180910390f35b6101c660048036038101906101c19190610daa565b6106f8565b005b6101e260048036038101906101dd9190610e46565b610887565b005b6101fe60048036038101906101f99190610e46565b610955565b005b61021a60048036038101906102159190610d7d565b610aaf565b6040516102279190611248565b60405180910390f35b61024a60048036038101906102459190610e73565b610ac7565b005b600080336000803373ffffffffffffffffffffffffffffffffffffffff1673ffffffffffffffffffffffffffffffffffffffff16815260200190815260200160002054915091509091565b806000803373ffffffffffffffffffffffffffffffffffffffff1673ffffffffffffffffffffffffffffffffffffffff16815260200190815260200160002060008282546102e591906112d5565b925050819055506102f461024c565b505050565b3373ffffffffffffffffffffffffffffffffffffffff167f000000000000000000000000000000000000000000000000000000000000000073ffffffffffffffffffffffffffffffffffffffff1614610387576040517f08c379a000000000000000000000000000000000000000000000000000000000815260040161037e90611128565b60405180910390fd5b60006001848154811061039d5761039c61149e565b5b90600052602060002090600202019050828160000190805190602001906103c5929190610c00565b5081816001018190555050505050565b7f000000000000000000000000000000000000000000000000000000000000000081565b6001818154811061040957600080fd5b906000526020600020906002020160009150905080600001805461042c906113dd565b80601f0160208091040260200160405190810160405280929190818152602001828054610458906113dd565b80156104a55780601f1061047a576101008083540402835291602001916104a5565b820191906000526020600020905b81548152906001019060200180831161048857829003601f168201915b5050505050908060010154905082565b3373ffffffffffffffffffffffffffffffffffffffff167f000000000000000000000000000000000000000000000000000000000000000073ffffffffffffffffffffffffffffffffffffffff1614610543576040517f08c379a000000000000000000000000000000000000000000000000000000000815260040161053a90611188565b60405180910390fd5b60016040518060400160405280848152602001838152509080600181540180825580915050600190039060005260206000209060020201600090919091909150600082015181600001908051906020019061059f929190610c00565b506020820151816001015550507f14d49e3ea4f348b7f368906dfe1a63055c7822d622a61672a35a55ae97a768f982826040516105dd9291906110f8565b60405180910390a15050565b6060600080600184815481106106025761060161149e565b5b906000526020600020906002020190506000816001015414610659576040517f08c379a000000000000000000000000000000000000000000000000000000000815260040161065090611208565b60405180910390fd5b80600001816001015481805461066e906113dd565b80601f016020809104026020016040519081016040528092919081815260200182805461069a906113dd565b80156106e75780601f106106bc576101008083540402835291602001916106e7565b820191906000526020600020905b8154815290600101906020018083116106ca57829003601f168201915b505050505091509250925050915091565b7f000000000000000000000000000000000000000000000000000000000000000073ffffffffffffffffffffffffffffffffffffffff163373ffffffffffffffffffffffffffffffffffffffff161415610787576040517f08c379a000000000000000000000000000000000000000000000000000000000815260040161077e906111a8565b60405180910390fd5b60008060003373ffffffffffffffffffffffffffffffffffffffff1673ffffffffffffffffffffffffffffffffffffffff1681526020019081526020016000205414610808576040517f08c379a00000000000000000000000000000000000000000000000000000000081526004016107ff90611148565b60405180910390fd5b806000803373ffffffffffffffffffffffffffffffffffffffff1673ffffffffffffffffffffffffffffffffffffffff168152602001908152602001600020819055507e7dc6ab80cc84c043b7b8d4fcafc802187470087f7ea7fccd2e17aecd0256a1828260405161087b9291906110cf565b60405180910390a15050565b3373ffffffffffffffffffffffffffffffffffffffff167f000000000000000000000000000000000000000000000000000000000000000073ffffffffffffffffffffffffffffffffffffffff1614610915576040517f08c379a000000000000000000000000000000000000000000000000000000000815260040161090c906111e8565b60405180910390fd5b600181815481106109295761092861149e565b5b9060005260206000209060020201600080820160006109489190610c86565b6001820160009055505050565b60006001828154811061096b5761096a61149e565b5b906000526020600020906002020190506000816001015414156109c3576040517f08c379a00000000000000000000000000000000000000000000000000000000081526004016109ba90611228565b60405180910390fd5b80600101546000803373ffffffffffffffffffffffffffffffffffffffff1673ffffffffffffffffffffffffffffffffffffffff168152602001908152602001600020541015610a48576040517f08c379a0000000000000000000000000000000000000000000000000000000008152600401610a3f906111c8565b60405180910390fd5b80600101546000803373ffffffffffffffffffffffffffffffffffffffff1673ffffffffffffffffffffffffffffffffffffffff1681526020019081526020016000206000828254610a9a919061132b565b92505081905550610aa961024c565b50505050565b60006020528060005260406000206000915090505481565b816000803373ffffffffffffffffffffffffffffffffffffffff1673ffffffffffffffffffffffffffffffffffffffff168152602001908152602001600020541015610b48576040517f08c379a0000000000000000000000000000000000000000000000000000000008152600401610b3f90611168565b60405180910390fd5b816000803373ffffffffffffffffffffffffffffffffffffffff1673ffffffffffffffffffffffffffffffffffffffff1681526020019081526020016000206000828254610b96919061132b565b92505081905550816000808373ffffffffffffffffffffffffffffffffffffffff1673ffffffffffffffffffffffffffffffffffffffff1681526020019081526020016000206000828254610beb91906112d5565b92505081905550610bfa61024c565b50505050565b828054610c0c906113dd565b90600052602060002090601f016020900481019282610c2e5760008555610c75565b82601f10610c4757805160ff1916838001178555610c75565b82800160010185558215610c75579182015b82811115610c74578251825591602001919060010190610c59565b5b509050610c829190610cc6565b5090565b508054610c92906113dd565b6000825580601f10610ca45750610cc3565b601f016020900490600052602060002090810190610cc29190610cc6565b5b50565b5b80821115610cdf576000816000905550600101610cc7565b5090565b6000610cf6610cf184611288565b611263565b905082815260208101848484011115610d1257610d11611501565b5b610d1d84828561139b565b509392505050565b600081359050610d3481611750565b92915050565b600082601f830112610d4f57610d4e6114fc565b5b8135610d5f848260208601610ce3565b91505092915050565b600081359050610d7781611767565b92915050565b600060208284031215610d9357610d9261150b565b5b6000610da184828501610d25565b91505092915050565b60008060408385031215610dc157610dc061150b565b5b6000610dcf85828601610d25565b9250506020610de085828601610d68565b9150509250929050565b60008060408385031215610e0157610e0061150b565b5b600083013567ffffffffffffffff811115610e1f57610e1e611506565b5b610e2b85828601610d3a565b9250506020610e3c85828601610d68565b9150509250929050565b600060208284031215610e5c57610e5b61150b565b5b6000610e6a84828501610d68565b91505092915050565b60008060408385031215610e8a57610e8961150b565b5b6000610e9885828601610d68565b9250506020610ea985828601610d25565b9150509250929050565b600080600060608486031215610ecc57610ecb61150b565b5b6000610eda86828701610d68565b935050602084013567ffffffffffffffff811115610efb57610efa611506565b5b610f0786828701610d3a565b9250506040610f1886828701610d68565b9150509250925092565b610f2b8161135f565b82525050565b6000610f3c826112b9565b610f4681856112c4565b9350610f568185602086016113aa565b610f5f81611510565b840191505092915050565b6000610f776034836112c4565b9150610f8282611521565b604082019050919050565b6000610f9a6025836112c4565b9150610fa582611570565b604082019050919050565b6000610fbd602e836112c4565b9150610fc8826115bf565b604082019050919050565b6000610fe06030836112c4565b9150610feb8261160e565b604082019050919050565b60006110036015836112c4565b915061100e8261165d565b602082019050919050565b6000611026601e836112c4565b915061103182611686565b602082019050919050565b60006110496033836112c4565b9150611054826116af565b604082019050919050565b600061106c601e836112c4565b9150611077826116fe565b602082019050919050565b600061108f6014836112c4565b915061109a82611727565b602082019050919050565b6110ae81611391565b82525050565b60006020820190506110c96000830184610f22565b92915050565b60006040820190506110e46000830185610f22565b6110f160208301846110a5565b9392505050565b600060408201905081810360008301526111128185610f31565b905061112160208301846110a5565b9392505050565b6000602082019050818103600083015261114181610f6a565b9050919050565b6000602082019050818103600083015261116181610f8d565b9050919050565b6000602082019050818103600083015261118181610fb0565b9050919050565b600060208201905081810360008301526111a181610fd3565b9050919050565b600060208201905081810360008301526111c181610ff6565b9050919050565b600060208201905081810360008301526111e181611019565b9050919050565b600060208201905081810360008301526112018161103c565b9050919050565b600060208201905081810360008301526112218161105f565b9050919050565b6000602082019050818103600083015261124181611082565b9050919050565b600060208201905061125d60008301846110a5565b92915050565b600061126d61127e565b9050611279828261140f565b919050565b6000604051905090565b600067ffffffffffffffff8211156112a3576112a26114cd565b5b6112ac82611510565b9050602081019050919050565b600081519050919050565b600082825260208201905092915050565b60006112e082611391565b91506112eb83611391565b9250827fffffffffffffffffffffffffffffffffffffffffffffffffffffffffffffffff038211156113205761131f611440565b5b828201905092915050565b600061133682611391565b915061134183611391565b92508282101561135457611353611440565b5b828203905092915050565b600061136a82611371565b9050919050565b600073ffffffffffffffffffffffffffffffffffffffff82169050919050565b6000819050919050565b82818337600083830152505050565b60005b838110156113c85780820151818401526020810190506113ad565b838111156113d7576000848401525b50505050565b600060028204905060018216806113f557607f821691505b602082108114156114095761140861146f565b5b50919050565b61141882611510565b810181811067ffffffffffffffff82111715611437576114366114cd565b5b80604052505050565b7f4e487b7100000000000000000000000000000000000000000000000000000000600052601160045260246000fd5b7f4e487b7100000000000000000000000000000000000000000000000000000000600052602260045260246000fd5b7f4e487b7100000000000000000000000000000000000000000000000000000000600052603260045260246000fd5b7f4e487b7100000000000000000000000000000000000000000000000000000000600052604160045260246000fd5b600080fd5b600080fd5b600080fd5b600080fd5b6000601f19601f8301169050919050565b7f536f6c6f20656c2041646d696e6973747261646f722064656c2047796d20707560008201527f656465206d6f6469666963617220636c61736573000000000000000000000000602082015250565b7f596120746520656e6375656e74726173207265676973747261646f20656e206560008201527f6c2067796d000000000000000000000000000000000000000000000000000000602082015250565b7f4e6f207469656e6573206372656469746f7320737566696369656e746573207060008201527f617261207472616e736665726972000000000000000000000000000000000000602082015250565b7f536f6c6f20656c2041646d696e6973747261646f722064656c2047796d20707560008201527f65646520637265617220636c6173657300000000000000000000000000000000602082015250565b7f4572657320656c2041646d696e6973747261646f720000000000000000000000600082015250565b7f4e6f207469656e6573206372656469746f7320737566696369656e7465730000600082015250565b7f536f6c6f20656c2041646d696e6973747261646f722064656c2047796d20707560008201527f65646520656c696d696e617220636c6173657300000000000000000000000000602082015250565b7f4e6f2065786973746520756e6120636c61736520636f6e206573652049640000600082015250565b7f4573746120636c617365206e6f20657869737465000000000000000000000000600082015250565b6117598161135f565b811461176457600080fd5b50565b61177081611391565b811461177b57600080fd5b5056fea264697066735822122065c03908f8460e7c9be41c6872072f95b496c8f726492865eb924599e3cef8f764736f6c63430008070033",
					"opcodes": "PUSH1 0xA0 PUSH1 0x40 MSTORE CALLVALUE DUP1 ISZERO PUSH2 0x10 JUMPI PUSH1 0x0 DUP1 REVERT JUMPDEST POP CALLER PUSH20 0xFFFFFFFFFFFFFFFFFFFFFFFFFFFFFFFFFFFFFFFF AND PUSH1 0x80 DUP2 PUSH20 0xFFFFFFFFFFFFFFFFFFFFFFFFFFFFFFFFFFFFFFFF AND PUSH1 0x60 SHL DUP2 MSTORE POP POP PUSH1 0x80 MLOAD PUSH1 0x60 SHR PUSH2 0x17B4 PUSH2 0x82 PUSH1 0x0 CODECOPY PUSH1 0x0 DUP2 DUP2 PUSH2 0x312 ADD MSTORE DUP2 DUP2 PUSH2 0x3D7 ADD MSTORE DUP2 DUP2 PUSH2 0x4CE ADD MSTORE DUP2 DUP2 PUSH2 0x6FA ADD MSTORE PUSH2 0x8A0 ADD MSTORE PUSH2 0x17B4 PUSH1 0x0 RETURN INVALID PUSH1 0x80 PUSH1 0x40 MSTORE CALLVALUE DUP1 ISZERO PUSH2 0x10 JUMPI PUSH1 0x0 DUP1 REVERT JUMPDEST POP PUSH1 0x4 CALLDATASIZE LT PUSH2 0xB4 JUMPI PUSH1 0x0 CALLDATALOAD PUSH1 0xE0 SHR DUP1 PUSH4 0x512D62DF GT PUSH2 0x71 JUMPI DUP1 PUSH4 0x512D62DF EQ PUSH2 0x17B JUMPI DUP1 PUSH4 0x6D705EBB EQ PUSH2 0x1AC JUMPI DUP1 PUSH4 0x72C30F45 EQ PUSH2 0x1C8 JUMPI DUP1 PUSH4 0x7AED8136 EQ PUSH2 0x1E4 JUMPI DUP1 PUSH4 0xA87430BA EQ PUSH2 0x200 JUMPI DUP1 PUSH4 0xD93B2DD0 EQ PUSH2 0x230 JUMPI PUSH2 0xB4 JUMP JUMPDEST DUP1 PUSH4 0x12065FE0 EQ PUSH2 0xB9 JUMPI DUP1 PUSH4 0x19389B95 EQ PUSH2 0xD8 JUMPI DUP1 PUSH4 0x1E8BE099 EQ PUSH2 0xF4 JUMPI DUP1 PUSH4 0x2A0ACC6A EQ PUSH2 0x110 JUMPI DUP1 PUSH4 0x3613A9F4 EQ PUSH2 0x12E JUMPI DUP1 PUSH4 0x4852A212 EQ PUSH2 0x15F JUMPI JUMPDEST PUSH1 0x0 DUP1 REVERT JUMPDEST PUSH2 0xC1 PUSH2 0x24C JUMP JUMPDEST PUSH1 0x40 MLOAD PUSH2 0xCF SWAP3 SWAP2 SWAP1 PUSH2 0x10CF JUMP JUMPDEST PUSH1 0x40 MLOAD DUP1 SWAP2 SUB SWAP1 RETURN JUMPDEST PUSH2 0xF2 PUSH1 0x4 DUP1 CALLDATASIZE SUB DUP2 ADD SWAP1 PUSH2 0xED SWAP2 SWAP1 PUSH2 0xE46 JUMP JUMPDEST PUSH2 0x297 JUMP JUMPDEST STOP JUMPDEST PUSH2 0x10E PUSH1 0x4 DUP1 CALLDATASIZE SUB DUP2 ADD SWAP1 PUSH2 0x109 SWAP2 SWAP1 PUSH2 0xEB3 JUMP JUMPDEST PUSH2 0x2F9 JUMP JUMPDEST STOP JUMPDEST PUSH2 0x118 PUSH2 0x3D5 JUMP JUMPDEST PUSH1 0x40 MLOAD PUSH2 0x125 SWAP2 SWAP1 PUSH2 0x10B4 JUMP JUMPDEST PUSH1 0x40 MLOAD DUP1 SWAP2 SUB SWAP1 RETURN JUMPDEST PUSH2 0x148 PUSH1 0x4 DUP1 CALLDATASIZE SUB DUP2 ADD SWAP1 PUSH2 0x143 SWAP2 SWAP1 PUSH2 0xE46 JUMP JUMPDEST PUSH2 0x3F9 JUMP JUMPDEST PUSH1 0x40 MLOAD PUSH2 0x156 SWAP3 SWAP2 SWAP1 PUSH2 0x10F8 JUMP JUMPDEST PUSH1 0x40 MLOAD DUP1 SWAP2 SUB SWAP1 RETURN JUMPDEST PUSH2 0x179 PUSH1 0x4 DUP1 CALLDATASIZE SUB DUP2 ADD SWAP1 PUSH2 0x174 SWAP2 SWAP1 PUSH2 0xDEA JUMP JUMPDEST PUSH2 0x4B5 JUMP JUMPDEST STOP JUMPDEST PUSH2 0x195 PUSH1 0x4 DUP1 CALLDATASIZE SUB DUP2 ADD SWAP1 PUSH2 0x190 SWAP2 SWAP1 PUSH2 0xE46 JUMP JUMPDEST PUSH2 0x5E9 JUMP JUMPDEST PUSH1 0x40 MLOAD PUSH2 0x1A3 SWAP3 SWAP2 SWAP1 PUSH2 0x10F8 JUMP JUMPDEST PUSH1 0x40 MLOAD DUP1 SWAP2 SUB SWAP1 RETURN JUMPDEST PUSH2 0x1C6 PUSH1 0x4 DUP1 CALLDATASIZE SUB DUP2 ADD SWAP1 PUSH2 0x1C1 SWAP2 SWAP1 PUSH2 0xDAA JUMP JUMPDEST PUSH2 0x6F8 JUMP JUMPDEST STOP JUMPDEST PUSH2 0x1E2 PUSH1 0x4 DUP1 CALLDATASIZE SUB DUP2 ADD SWAP1 PUSH2 0x1DD SWAP2 SWAP1 PUSH2 0xE46 JUMP JUMPDEST PUSH2 0x887 JUMP JUMPDEST STOP JUMPDEST PUSH2 0x1FE PUSH1 0x4 DUP1 CALLDATASIZE SUB DUP2 ADD SWAP1 PUSH2 0x1F9 SWAP2 SWAP1 PUSH2 0xE46 JUMP JUMPDEST PUSH2 0x955 JUMP JUMPDEST STOP JUMPDEST PUSH2 0x21A PUSH1 0x4 DUP1 CALLDATASIZE SUB DUP2 ADD SWAP1 PUSH2 0x215 SWAP2 SWAP1 PUSH2 0xD7D JUMP JUMPDEST PUSH2 0xAAF JUMP JUMPDEST PUSH1 0x40 MLOAD PUSH2 0x227 SWAP2 SWAP1 PUSH2 0x1248 JUMP JUMPDEST PUSH1 0x40 MLOAD DUP1 SWAP2 SUB SWAP1 RETURN JUMPDEST PUSH2 0x24A PUSH1 0x4 DUP1 CALLDATASIZE SUB DUP2 ADD SWAP1 PUSH2 0x245 SWAP2 SWAP1 PUSH2 0xE73 JUMP JUMPDEST PUSH2 0xAC7 JUMP JUMPDEST STOP JUMPDEST PUSH1 0x0 DUP1 CALLER PUSH1 0x0 DUP1 CALLER PUSH20 0xFFFFFFFFFFFFFFFFFFFFFFFFFFFFFFFFFFFFFFFF AND PUSH20 0xFFFFFFFFFFFFFFFFFFFFFFFFFFFFFFFFFFFFFFFF AND DUP2 MSTORE PUSH1 0x20 ADD SWAP1 DUP2 MSTORE PUSH1 0x20 ADD PUSH1 0x0 KECCAK256 SLOAD SWAP2 POP SWAP2 POP SWAP1 SWAP2 JUMP JUMPDEST DUP1 PUSH1 0x0 DUP1 CALLER PUSH20 0xFFFFFFFFFFFFFFFFFFFFFFFFFFFFFFFFFFFFFFFF AND PUSH20 0xFFFFFFFFFFFFFFFFFFFFFFFFFFFFFFFFFFFFFFFF AND DUP2 MSTORE PUSH1 0x20 ADD SWAP1 DUP2 MSTORE PUSH1 0x20 ADD PUSH1 0x0 KECCAK256 PUSH1 0x0 DUP3 DUP3 SLOAD PUSH2 0x2E5 SWAP2 SWAP1 PUSH2 0x12D5 JUMP JUMPDEST SWAP3 POP POP DUP2 SWAP1 SSTORE POP PUSH2 0x2F4 PUSH2 0x24C JUMP JUMPDEST POP POP POP JUMP JUMPDEST CALLER PUSH20 0xFFFFFFFFFFFFFFFFFFFFFFFFFFFFFFFFFFFFFFFF AND PUSH32 0x0 PUSH20 0xFFFFFFFFFFFFFFFFFFFFFFFFFFFFFFFFFFFFFFFF AND EQ PUSH2 0x387 JUMPI PUSH1 0x40 MLOAD PUSH32 0x8C379A000000000000000000000000000000000000000000000000000000000 DUP2 MSTORE PUSH1 0x4 ADD PUSH2 0x37E SWAP1 PUSH2 0x1128 JUMP JUMPDEST PUSH1 0x40 MLOAD DUP1 SWAP2 SUB SWAP1 REVERT JUMPDEST PUSH1 0x0 PUSH1 0x1 DUP5 DUP2 SLOAD DUP2 LT PUSH2 0x39D JUMPI PUSH2 0x39C PUSH2 0x149E JUMP JUMPDEST JUMPDEST SWAP1 PUSH1 0x0 MSTORE PUSH1 0x20 PUSH1 0x0 KECCAK256 SWAP1 PUSH1 0x2 MUL ADD SWAP1 POP DUP3 DUP2 PUSH1 0x0 ADD SWAP1 DUP1 MLOAD SWAP1 PUSH1 0x20 ADD SWAP1 PUSH2 0x3C5 SWAP3 SWAP2 SWAP1 PUSH2 0xC00 JUMP JUMPDEST POP DUP2 DUP2 PUSH1 0x1 ADD DUP2 SWAP1 SSTORE POP POP POP POP POP JUMP JUMPDEST PUSH32 0x0 DUP2 JUMP JUMPDEST PUSH1 0x1 DUP2 DUP2 SLOAD DUP2 LT PUSH2 0x409 JUMPI PUSH1 0x0 DUP1 REVERT JUMPDEST SWAP1 PUSH1 0x0 MSTORE PUSH1 0x20 PUSH1 0x0 KECCAK256 SWAP1 PUSH1 0x2 MUL ADD PUSH1 0x0 SWAP2 POP SWAP1 POP DUP1 PUSH1 0x0 ADD DUP1 SLOAD PUSH2 0x42C SWAP1 PUSH2 0x13DD JUMP JUMPDEST DUP1 PUSH1 0x1F ADD PUSH1 0x20 DUP1 SWAP2 DIV MUL PUSH1 0x20 ADD PUSH1 0x40 MLOAD SWAP1 DUP2 ADD PUSH1 0x40 MSTORE DUP1 SWAP3 SWAP2 SWAP1 DUP2 DUP2 MSTORE PUSH1 0x20 ADD DUP3 DUP1 SLOAD PUSH2 0x458 SWAP1 PUSH2 0x13DD JUMP JUMPDEST DUP1 ISZERO PUSH2 0x4A5 JUMPI DUP1 PUSH1 0x1F LT PUSH2 0x47A JUMPI PUSH2 0x100 DUP1 DUP4 SLOAD DIV MUL DUP4 MSTORE SWAP2 PUSH1 0x20 ADD SWAP2 PUSH2 0x4A5 JUMP JUMPDEST DUP3 ADD SWAP2 SWAP1 PUSH1 0x0 MSTORE PUSH1 0x20 PUSH1 0x0 KECCAK256 SWAP1 JUMPDEST DUP2 SLOAD DUP2 MSTORE SWAP1 PUSH1 0x1 ADD SWAP1 PUSH1 0x20 ADD DUP1 DUP4 GT PUSH2 0x488 JUMPI DUP3 SWAP1 SUB PUSH1 0x1F AND DUP3 ADD SWAP2 JUMPDEST POP POP POP POP POP SWAP1 DUP1 PUSH1 0x1 ADD SLOAD SWAP1 POP DUP3 JUMP JUMPDEST CALLER PUSH20 0xFFFFFFFFFFFFFFFFFFFFFFFFFFFFFFFFFFFFFFFF AND PUSH32 0x0 PUSH20 0xFFFFFFFFFFFFFFFFFFFFFFFFFFFFFFFFFFFFFFFF AND EQ PUSH2 0x543 JUMPI PUSH1 0x40 MLOAD PUSH32 0x8C379A000000000000000000000000000000000000000000000000000000000 DUP2 MSTORE PUSH1 0x4 ADD PUSH2 0x53A SWAP1 PUSH2 0x1188 JUMP JUMPDEST PUSH1 0x40 MLOAD DUP1 SWAP2 SUB SWAP1 REVERT JUMPDEST PUSH1 0x1 PUSH1 0x40 MLOAD DUP1 PUSH1 0x40 ADD PUSH1 0x40 MSTORE DUP1 DUP5 DUP2 MSTORE PUSH1 0x20 ADD DUP4 DUP2 MSTORE POP SWAP1 DUP1 PUSH1 0x1 DUP2 SLOAD ADD DUP1 DUP3 SSTORE DUP1 SWAP2 POP POP PUSH1 0x1 SWAP1 SUB SWAP1 PUSH1 0x0 MSTORE PUSH1 0x20 PUSH1 0x0 KECCAK256 SWAP1 PUSH1 0x2 MUL ADD PUSH1 0x0 SWAP1 SWAP2 SWAP1 SWAP2 SWAP1 SWAP2 POP PUSH1 0x0 DUP3 ADD MLOAD DUP2 PUSH1 0x0 ADD SWAP1 DUP1 MLOAD SWAP1 PUSH1 0x20 ADD SWAP1 PUSH2 0x59F SWAP3 SWAP2 SWAP1 PUSH2 0xC00 JUMP JUMPDEST POP PUSH1 0x20 DUP3 ADD MLOAD DUP2 PUSH1 0x1 ADD SSTORE POP POP PUSH32 0x14D49E3EA4F348B7F368906DFE1A63055C7822D622A61672A35A55AE97A768F9 DUP3 DUP3 PUSH1 0x40 MLOAD PUSH2 0x5DD SWAP3 SWAP2 SWAP1 PUSH2 0x10F8 JUMP JUMPDEST PUSH1 0x40 MLOAD DUP1 SWAP2 SUB SWAP1 LOG1 POP POP JUMP JUMPDEST PUSH1 0x60 PUSH1 0x0 DUP1 PUSH1 0x1 DUP5 DUP2 SLOAD DUP2 LT PUSH2 0x602 JUMPI PUSH2 0x601 PUSH2 0x149E JUMP JUMPDEST JUMPDEST SWAP1 PUSH1 0x0 MSTORE PUSH1 0x20 PUSH1 0x0 KECCAK256 SWAP1 PUSH1 0x2 MUL ADD SWAP1 POP PUSH1 0x0 DUP2 PUSH1 0x1 ADD SLOAD EQ PUSH2 0x659 JUMPI PUSH1 0x40 MLOAD PUSH32 0x8C379A000000000000000000000000000000000000000000000000000000000 DUP2 MSTORE PUSH1 0x4 ADD PUSH2 0x650 SWAP1 PUSH2 0x1208 JUMP JUMPDEST PUSH1 0x40 MLOAD DUP1 SWAP2 SUB SWAP1 REVERT JUMPDEST DUP1 PUSH1 0x0 ADD DUP2 PUSH1 0x1 ADD SLOAD DUP2 DUP1 SLOAD PUSH2 0x66E SWAP1 PUSH2 0x13DD JUMP JUMPDEST DUP1 PUSH1 0x1F ADD PUSH1 0x20 DUP1 SWAP2 DIV MUL PUSH1 0x20 ADD PUSH1 0x40 MLOAD SWAP1 DUP2 ADD PUSH1 0x40 MSTORE DUP1 SWAP3 SWAP2 SWAP1 DUP2 DUP2 MSTORE PUSH1 0x20 ADD DUP3 DUP1 SLOAD PUSH2 0x69A SWAP1 PUSH2 0x13DD JUMP JUMPDEST DUP1 ISZERO PUSH2 0x6E7 JUMPI DUP1 PUSH1 0x1F LT PUSH2 0x6BC JUMPI PUSH2 0x100 DUP1 DUP4 SLOAD DIV MUL DUP4 MSTORE SWAP2 PUSH1 0x20 ADD SWAP2 PUSH2 0x6E7 JUMP JUMPDEST DUP3 ADD SWAP2 SWAP1 PUSH1 0x0 MSTORE PUSH1 0x20 PUSH1 0x0 KECCAK256 SWAP1 JUMPDEST DUP2 SLOAD DUP2 MSTORE SWAP1 PUSH1 0x1 ADD SWAP1 PUSH1 0x20 ADD DUP1 DUP4 GT PUSH2 0x6CA JUMPI DUP3 SWAP1 SUB PUSH1 0x1F AND DUP3 ADD SWAP2 JUMPDEST POP POP POP POP POP SWAP2 POP SWAP3 POP SWAP3 POP POP SWAP2 POP SWAP2 JUMP JUMPDEST PUSH32 0x0 PUSH20 0xFFFFFFFFFFFFFFFFFFFFFFFFFFFFFFFFFFFFFFFF AND CALLER PUSH20 0xFFFFFFFFFFFFFFFFFFFFFFFFFFFFFFFFFFFFFFFF AND EQ ISZERO PUSH2 0x787 JUMPI PUSH1 0x40 MLOAD PUSH32 0x8C379A000000000000000000000000000000000000000000000000000000000 DUP2 MSTORE PUSH1 0x4 ADD PUSH2 0x77E SWAP1 PUSH2 0x11A8 JUMP JUMPDEST PUSH1 0x40 MLOAD DUP1 SWAP2 SUB SWAP1 REVERT JUMPDEST PUSH1 0x0 DUP1 PUSH1 0x0 CALLER PUSH20 0xFFFFFFFFFFFFFFFFFFFFFFFFFFFFFFFFFFFFFFFF AND PUSH20 0xFFFFFFFFFFFFFFFFFFFFFFFFFFFFFFFFFFFFFFFF AND DUP2 MSTORE PUSH1 0x20 ADD SWAP1 DUP2 MSTORE PUSH1 0x20 ADD PUSH1 0x0 KECCAK256 SLOAD EQ PUSH2 0x808 JUMPI PUSH1 0x40 MLOAD PUSH32 0x8C379A000000000000000000000000000000000000000000000000000000000 DUP2 MSTORE PUSH1 0x4 ADD PUSH2 0x7FF SWAP1 PUSH2 0x1148 JUMP JUMPDEST PUSH1 0x40 MLOAD DUP1 SWAP2 SUB SWAP1 REVERT JUMPDEST DUP1 PUSH1 0x0 DUP1 CALLER PUSH20 0xFFFFFFFFFFFFFFFFFFFFFFFFFFFFFFFFFFFFFFFF AND PUSH20 0xFFFFFFFFFFFFFFFFFFFFFFFFFFFFFFFFFFFFFFFF AND DUP2 MSTORE PUSH1 0x20 ADD SWAP1 DUP2 MSTORE PUSH1 0x20 ADD PUSH1 0x0 KECCAK256 DUP2 SWAP1 SSTORE POP PUSH31 0x7DC6AB80CC84C043B7B8D4FCAFC802187470087F7EA7FCCD2E17AECD0256A1 DUP3 DUP3 PUSH1 0x40 MLOAD PUSH2 0x87B SWAP3 SWAP2 SWAP1 PUSH2 0x10CF JUMP JUMPDEST PUSH1 0x40 MLOAD DUP1 SWAP2 SUB SWAP1 LOG1 POP POP JUMP JUMPDEST CALLER PUSH20 0xFFFFFFFFFFFFFFFFFFFFFFFFFFFFFFFFFFFFFFFF AND PUSH32 0x0 PUSH20 0xFFFFFFFFFFFFFFFFFFFFFFFFFFFFFFFFFFFFFFFF AND EQ PUSH2 0x915 JUMPI PUSH1 0x40 MLOAD PUSH32 0x8C379A000000000000000000000000000000000000000000000000000000000 DUP2 MSTORE PUSH1 0x4 ADD PUSH2 0x90C SWAP1 PUSH2 0x11E8 JUMP JUMPDEST PUSH1 0x40 MLOAD DUP1 SWAP2 SUB SWAP1 REVERT JUMPDEST PUSH1 0x1 DUP2 DUP2 SLOAD DUP2 LT PUSH2 0x929 JUMPI PUSH2 0x928 PUSH2 0x149E JUMP JUMPDEST JUMPDEST SWAP1 PUSH1 0x0 MSTORE PUSH1 0x20 PUSH1 0x0 KECCAK256 SWAP1 PUSH1 0x2 MUL ADD PUSH1 0x0 DUP1 DUP3 ADD PUSH1 0x0 PUSH2 0x948 SWAP2 SWAP1 PUSH2 0xC86 JUMP JUMPDEST PUSH1 0x1 DUP3 ADD PUSH1 0x0 SWAP1 SSTORE POP POP POP JUMP JUMPDEST PUSH1 0x0 PUSH1 0x1 DUP3 DUP2 SLOAD DUP2 LT PUSH2 0x96B JUMPI PUSH2 0x96A PUSH2 0x149E JUMP JUMPDEST JUMPDEST SWAP1 PUSH1 0x0 MSTORE PUSH1 0x20 PUSH1 0x0 KECCAK256 SWAP1 PUSH1 0x2 MUL ADD SWAP1 POP PUSH1 0x0 DUP2 PUSH1 0x1 ADD SLOAD EQ ISZERO PUSH2 0x9C3 JUMPI PUSH1 0x40 MLOAD PUSH32 0x8C379A000000000000000000000000000000000000000000000000000000000 DUP2 MSTORE PUSH1 0x4 ADD PUSH2 0x9BA SWAP1 PUSH2 0x1228 JUMP JUMPDEST PUSH1 0x40 MLOAD DUP1 SWAP2 SUB SWAP1 REVERT JUMPDEST DUP1 PUSH1 0x1 ADD SLOAD PUSH1 0x0 DUP1 CALLER PUSH20 0xFFFFFFFFFFFFFFFFFFFFFFFFFFFFFFFFFFFFFFFF AND PUSH20 0xFFFFFFFFFFFFFFFFFFFFFFFFFFFFFFFFFFFFFFFF AND DUP2 MSTORE PUSH1 0x20 ADD SWAP1 DUP2 MSTORE PUSH1 0x20 ADD PUSH1 0x0 KECCAK256 SLOAD LT ISZERO PUSH2 0xA48 JUMPI PUSH1 0x40 MLOAD PUSH32 0x8C379A000000000000000000000000000000000000000000000000000000000 DUP2 MSTORE PUSH1 0x4 ADD PUSH2 0xA3F SWAP1 PUSH2 0x11C8 JUMP JUMPDEST PUSH1 0x40 MLOAD DUP1 SWAP2 SUB SWAP1 REVERT JUMPDEST DUP1 PUSH1 0x1 ADD SLOAD PUSH1 0x0 DUP1 CALLER PUSH20 0xFFFFFFFFFFFFFFFFFFFFFFFFFFFFFFFFFFFFFFFF AND PUSH20 0xFFFFFFFFFFFFFFFFFFFFFFFFFFFFFFFFFFFFFFFF AND DUP2 MSTORE PUSH1 0x20 ADD SWAP1 DUP2 MSTORE PUSH1 0x20 ADD PUSH1 0x0 KECCAK256 PUSH1 0x0 DUP3 DUP3 SLOAD PUSH2 0xA9A SWAP2 SWAP1 PUSH2 0x132B JUMP JUMPDEST SWAP3 POP POP DUP2 SWAP1 SSTORE POP PUSH2 0xAA9 PUSH2 0x24C JUMP JUMPDEST POP POP POP POP JUMP JUMPDEST PUSH1 0x0 PUSH1 0x20 MSTORE DUP1 PUSH1 0x0 MSTORE PUSH1 0x40 PUSH1 0x0 KECCAK256 PUSH1 0x0 SWAP2 POP SWAP1 POP SLOAD DUP2 JUMP JUMPDEST DUP2 PUSH1 0x0 DUP1 CALLER PUSH20 0xFFFFFFFFFFFFFFFFFFFFFFFFFFFFFFFFFFFFFFFF AND PUSH20 0xFFFFFFFFFFFFFFFFFFFFFFFFFFFFFFFFFFFFFFFF AND DUP2 MSTORE PUSH1 0x20 ADD SWAP1 DUP2 MSTORE PUSH1 0x20 ADD PUSH1 0x0 KECCAK256 SLOAD LT ISZERO PUSH2 0xB48 JUMPI PUSH1 0x40 MLOAD PUSH32 0x8C379A000000000000000000000000000000000000000000000000000000000 DUP2 MSTORE PUSH1 0x4 ADD PUSH2 0xB3F SWAP1 PUSH2 0x1168 JUMP JUMPDEST PUSH1 0x40 MLOAD DUP1 SWAP2 SUB SWAP1 REVERT JUMPDEST DUP2 PUSH1 0x0 DUP1 CALLER PUSH20 0xFFFFFFFFFFFFFFFFFFFFFFFFFFFFFFFFFFFFFFFF AND PUSH20 0xFFFFFFFFFFFFFFFFFFFFFFFFFFFFFFFFFFFFFFFF AND DUP2 MSTORE PUSH1 0x20 ADD SWAP1 DUP2 MSTORE PUSH1 0x20 ADD PUSH1 0x0 KECCAK256 PUSH1 0x0 DUP3 DUP3 SLOAD PUSH2 0xB96 SWAP2 SWAP1 PUSH2 0x132B JUMP JUMPDEST SWAP3 POP POP DUP2 SWAP1 SSTORE POP DUP2 PUSH1 0x0 DUP1 DUP4 PUSH20 0xFFFFFFFFFFFFFFFFFFFFFFFFFFFFFFFFFFFFFFFF AND PUSH20 0xFFFFFFFFFFFFFFFFFFFFFFFFFFFFFFFFFFFFFFFF AND DUP2 MSTORE PUSH1 0x20 ADD SWAP1 DUP2 MSTORE PUSH1 0x20 ADD PUSH1 0x0 KECCAK256 PUSH1 0x0 DUP3 DUP3 SLOAD PUSH2 0xBEB SWAP2 SWAP1 PUSH2 0x12D5 JUMP JUMPDEST SWAP3 POP POP DUP2 SWAP1 SSTORE POP PUSH2 0xBFA PUSH2 0x24C JUMP JUMPDEST POP POP POP POP JUMP JUMPDEST DUP3 DUP1 SLOAD PUSH2 0xC0C SWAP1 PUSH2 0x13DD JUMP JUMPDEST SWAP1 PUSH1 0x0 MSTORE PUSH1 0x20 PUSH1 0x0 KECCAK256 SWAP1 PUSH1 0x1F ADD PUSH1 0x20 SWAP1 DIV DUP2 ADD SWAP3 DUP3 PUSH2 0xC2E JUMPI PUSH1 0x0 DUP6 SSTORE PUSH2 0xC75 JUMP JUMPDEST DUP3 PUSH1 0x1F LT PUSH2 0xC47 JUMPI DUP1 MLOAD PUSH1 0xFF NOT AND DUP4 DUP1 ADD OR DUP6 SSTORE PUSH2 0xC75 JUMP JUMPDEST DUP3 DUP1 ADD PUSH1 0x1 ADD DUP6 SSTORE DUP3 ISZERO PUSH2 0xC75 JUMPI SWAP2 DUP3 ADD JUMPDEST DUP3 DUP2 GT ISZERO PUSH2 0xC74 JUMPI DUP3 MLOAD DUP3 SSTORE SWAP2 PUSH1 0x20 ADD SWAP2 SWAP1 PUSH1 0x1 ADD SWAP1 PUSH2 0xC59 JUMP JUMPDEST JUMPDEST POP SWAP1 POP PUSH2 0xC82 SWAP2 SWAP1 PUSH2 0xCC6 JUMP JUMPDEST POP SWAP1 JUMP JUMPDEST POP DUP1 SLOAD PUSH2 0xC92 SWAP1 PUSH2 0x13DD JUMP JUMPDEST PUSH1 0x0 DUP3 SSTORE DUP1 PUSH1 0x1F LT PUSH2 0xCA4 JUMPI POP PUSH2 0xCC3 JUMP JUMPDEST PUSH1 0x1F ADD PUSH1 0x20 SWAP1 DIV SWAP1 PUSH1 0x0 MSTORE PUSH1 0x20 PUSH1 0x0 KECCAK256 SWAP1 DUP2 ADD SWAP1 PUSH2 0xCC2 SWAP2 SWAP1 PUSH2 0xCC6 JUMP JUMPDEST JUMPDEST POP JUMP JUMPDEST JUMPDEST DUP1 DUP3 GT ISZERO PUSH2 0xCDF JUMPI PUSH1 0x0 DUP2 PUSH1 0x0 SWAP1 SSTORE POP PUSH1 0x1 ADD PUSH2 0xCC7 JUMP JUMPDEST POP SWAP1 JUMP JUMPDEST PUSH1 0x0 PUSH2 0xCF6 PUSH2 0xCF1 DUP5 PUSH2 0x1288 JUMP JUMPDEST PUSH2 0x1263 JUMP JUMPDEST SWAP1 POP DUP3 DUP2 MSTORE PUSH1 0x20 DUP2 ADD DUP5 DUP5 DUP5 ADD GT ISZERO PUSH2 0xD12 JUMPI PUSH2 0xD11 PUSH2 0x1501 JUMP JUMPDEST JUMPDEST PUSH2 0xD1D DUP5 DUP3 DUP6 PUSH2 0x139B JUMP JUMPDEST POP SWAP4 SWAP3 POP POP POP JUMP JUMPDEST PUSH1 0x0 DUP2 CALLDATALOAD SWAP1 POP PUSH2 0xD34 DUP2 PUSH2 0x1750 JUMP JUMPDEST SWAP3 SWAP2 POP POP JUMP JUMPDEST PUSH1 0x0 DUP3 PUSH1 0x1F DUP4 ADD SLT PUSH2 0xD4F JUMPI PUSH2 0xD4E PUSH2 0x14FC JUMP JUMPDEST JUMPDEST DUP2 CALLDATALOAD PUSH2 0xD5F DUP5 DUP3 PUSH1 0x20 DUP7 ADD PUSH2 0xCE3 JUMP JUMPDEST SWAP2 POP POP SWAP3 SWAP2 POP POP JUMP JUMPDEST PUSH1 0x0 DUP2 CALLDATALOAD SWAP1 POP PUSH2 0xD77 DUP2 PUSH2 0x1767 JUMP JUMPDEST SWAP3 SWAP2 POP POP JUMP JUMPDEST PUSH1 0x0 PUSH1 0x20 DUP3 DUP5 SUB SLT ISZERO PUSH2 0xD93 JUMPI PUSH2 0xD92 PUSH2 0x150B JUMP JUMPDEST JUMPDEST PUSH1 0x0 PUSH2 0xDA1 DUP5 DUP3 DUP6 ADD PUSH2 0xD25 JUMP JUMPDEST SWAP2 POP POP SWAP3 SWAP2 POP POP JUMP JUMPDEST PUSH1 0x0 DUP1 PUSH1 0x40 DUP4 DUP6 SUB SLT ISZERO PUSH2 0xDC1 JUMPI PUSH2 0xDC0 PUSH2 0x150B JUMP JUMPDEST JUMPDEST PUSH1 0x0 PUSH2 0xDCF DUP6 DUP3 DUP7 ADD PUSH2 0xD25 JUMP JUMPDEST SWAP3 POP POP PUSH1 0x20 PUSH2 0xDE0 DUP6 DUP3 DUP7 ADD PUSH2 0xD68 JUMP JUMPDEST SWAP2 POP POP SWAP3 POP SWAP3 SWAP1 POP JUMP JUMPDEST PUSH1 0x0 DUP1 PUSH1 0x40 DUP4 DUP6 SUB SLT ISZERO PUSH2 0xE01 JUMPI PUSH2 0xE00 PUSH2 0x150B JUMP JUMPDEST JUMPDEST PUSH1 0x0 DUP4 ADD CALLDATALOAD PUSH8 0xFFFFFFFFFFFFFFFF DUP2 GT ISZERO PUSH2 0xE1F JUMPI PUSH2 0xE1E PUSH2 0x1506 JUMP JUMPDEST JUMPDEST PUSH2 0xE2B DUP6 DUP3 DUP7 ADD PUSH2 0xD3A JUMP JUMPDEST SWAP3 POP POP PUSH1 0x20 PUSH2 0xE3C DUP6 DUP3 DUP7 ADD PUSH2 0xD68 JUMP JUMPDEST SWAP2 POP POP SWAP3 POP SWAP3 SWAP1 POP JUMP JUMPDEST PUSH1 0x0 PUSH1 0x20 DUP3 DUP5 SUB SLT ISZERO PUSH2 0xE5C JUMPI PUSH2 0xE5B PUSH2 0x150B JUMP JUMPDEST JUMPDEST PUSH1 0x0 PUSH2 0xE6A DUP5 DUP3 DUP6 ADD PUSH2 0xD68 JUMP JUMPDEST SWAP2 POP POP SWAP3 SWAP2 POP POP JUMP JUMPDEST PUSH1 0x0 DUP1 PUSH1 0x40 DUP4 DUP6 SUB SLT ISZERO PUSH2 0xE8A JUMPI PUSH2 0xE89 PUSH2 0x150B JUMP JUMPDEST JUMPDEST PUSH1 0x0 PUSH2 0xE98 DUP6 DUP3 DUP7 ADD PUSH2 0xD68 JUMP JUMPDEST SWAP3 POP POP PUSH1 0x20 PUSH2 0xEA9 DUP6 DUP3 DUP7 ADD PUSH2 0xD25 JUMP JUMPDEST SWAP2 POP POP SWAP3 POP SWAP3 SWAP1 POP JUMP JUMPDEST PUSH1 0x0 DUP1 PUSH1 0x0 PUSH1 0x60 DUP5 DUP7 SUB SLT ISZERO PUSH2 0xECC JUMPI PUSH2 0xECB PUSH2 0x150B JUMP JUMPDEST JUMPDEST PUSH1 0x0 PUSH2 0xEDA DUP7 DUP3 DUP8 ADD PUSH2 0xD68 JUMP JUMPDEST SWAP4 POP POP PUSH1 0x20 DUP5 ADD CALLDATALOAD PUSH8 0xFFFFFFFFFFFFFFFF DUP2 GT ISZERO PUSH2 0xEFB JUMPI PUSH2 0xEFA PUSH2 0x1506 JUMP JUMPDEST JUMPDEST PUSH2 0xF07 DUP7 DUP3 DUP8 ADD PUSH2 0xD3A JUMP JUMPDEST SWAP3 POP POP PUSH1 0x40 PUSH2 0xF18 DUP7 DUP3 DUP8 ADD PUSH2 0xD68 JUMP JUMPDEST SWAP2 POP POP SWAP3 POP SWAP3 POP SWAP3 JUMP JUMPDEST PUSH2 0xF2B DUP2 PUSH2 0x135F JUMP JUMPDEST DUP3 MSTORE POP POP JUMP JUMPDEST PUSH1 0x0 PUSH2 0xF3C DUP3 PUSH2 0x12B9 JUMP JUMPDEST PUSH2 0xF46 DUP2 DUP6 PUSH2 0x12C4 JUMP JUMPDEST SWAP4 POP PUSH2 0xF56 DUP2 DUP6 PUSH1 0x20 DUP7 ADD PUSH2 0x13AA JUMP JUMPDEST PUSH2 0xF5F DUP2 PUSH2 0x1510 JUMP JUMPDEST DUP5 ADD SWAP2 POP POP SWAP3 SWAP2 POP POP JUMP JUMPDEST PUSH1 0x0 PUSH2 0xF77 PUSH1 0x34 DUP4 PUSH2 0x12C4 JUMP JUMPDEST SWAP2 POP PUSH2 0xF82 DUP3 PUSH2 0x1521 JUMP JUMPDEST PUSH1 0x40 DUP3 ADD SWAP1 POP SWAP2 SWAP1 POP JUMP JUMPDEST PUSH1 0x0 PUSH2 0xF9A PUSH1 0x25 DUP4 PUSH2 0x12C4 JUMP JUMPDEST SWAP2 POP PUSH2 0xFA5 DUP3 PUSH2 0x1570 JUMP JUMPDEST PUSH1 0x40 DUP3 ADD SWAP1 POP SWAP2 SWAP1 POP JUMP JUMPDEST PUSH1 0x0 PUSH2 0xFBD PUSH1 0x2E DUP4 PUSH2 0x12C4 JUMP JUMPDEST SWAP2 POP PUSH2 0xFC8 DUP3 PUSH2 0x15BF JUMP JUMPDEST PUSH1 0x40 DUP3 ADD SWAP1 POP SWAP2 SWAP1 POP JUMP JUMPDEST PUSH1 0x0 PUSH2 0xFE0 PUSH1 0x30 DUP4 PUSH2 0x12C4 JUMP JUMPDEST SWAP2 POP PUSH2 0xFEB DUP3 PUSH2 0x160E JUMP JUMPDEST PUSH1 0x40 DUP3 ADD SWAP1 POP SWAP2 SWAP1 POP JUMP JUMPDEST PUSH1 0x0 PUSH2 0x1003 PUSH1 0x15 DUP4 PUSH2 0x12C4 JUMP JUMPDEST SWAP2 POP PUSH2 0x100E DUP3 PUSH2 0x165D JUMP JUMPDEST PUSH1 0x20 DUP3 ADD SWAP1 POP SWAP2 SWAP1 POP JUMP JUMPDEST PUSH1 0x0 PUSH2 0x1026 PUSH1 0x1E DUP4 PUSH2 0x12C4 JUMP JUMPDEST SWAP2 POP PUSH2 0x1031 DUP3 PUSH2 0x1686 JUMP JUMPDEST PUSH1 0x20 DUP3 ADD SWAP1 POP SWAP2 SWAP1 POP JUMP JUMPDEST PUSH1 0x0 PUSH2 0x1049 PUSH1 0x33 DUP4 PUSH2 0x12C4 JUMP JUMPDEST SWAP2 POP PUSH2 0x1054 DUP3 PUSH2 0x16AF JUMP JUMPDEST PUSH1 0x40 DUP3 ADD SWAP1 POP SWAP2 SWAP1 POP JUMP JUMPDEST PUSH1 0x0 PUSH2 0x106C PUSH1 0x1E DUP4 PUSH2 0x12C4 JUMP JUMPDEST SWAP2 POP PUSH2 0x1077 DUP3 PUSH2 0x16FE JUMP JUMPDEST PUSH1 0x20 DUP3 ADD SWAP1 POP SWAP2 SWAP1 POP JUMP JUMPDEST PUSH1 0x0 PUSH2 0x108F PUSH1 0x14 DUP4 PUSH2 0x12C4 JUMP JUMPDEST SWAP2 POP PUSH2 0x109A DUP3 PUSH2 0x1727 JUMP JUMPDEST PUSH1 0x20 DUP3 ADD SWAP1 POP SWAP2 SWAP1 POP JUMP JUMPDEST PUSH2 0x10AE DUP2 PUSH2 0x1391 JUMP JUMPDEST DUP3 MSTORE POP POP JUMP JUMPDEST PUSH1 0x0 PUSH1 0x20 DUP3 ADD SWAP1 POP PUSH2 0x10C9 PUSH1 0x0 DUP4 ADD DUP5 PUSH2 0xF22 JUMP JUMPDEST SWAP3 SWAP2 POP POP JUMP JUMPDEST PUSH1 0x0 PUSH1 0x40 DUP3 ADD SWAP1 POP PUSH2 0x10E4 PUSH1 0x0 DUP4 ADD DUP6 PUSH2 0xF22 JUMP JUMPDEST PUSH2 0x10F1 PUSH1 0x20 DUP4 ADD DUP5 PUSH2 0x10A5 JUMP JUMPDEST SWAP4 SWAP3 POP POP POP JUMP JUMPDEST PUSH1 0x0 PUSH1 0x40 DUP3 ADD SWAP1 POP DUP2 DUP2 SUB PUSH1 0x0 DUP4 ADD MSTORE PUSH2 0x1112 DUP2 DUP6 PUSH2 0xF31 JUMP JUMPDEST SWAP1 POP PUSH2 0x1121 PUSH1 0x20 DUP4 ADD DUP5 PUSH2 0x10A5 JUMP JUMPDEST SWAP4 SWAP3 POP POP POP JUMP JUMPDEST PUSH1 0x0 PUSH1 0x20 DUP3 ADD SWAP1 POP DUP2 DUP2 SUB PUSH1 0x0 DUP4 ADD MSTORE PUSH2 0x1141 DUP2 PUSH2 0xF6A JUMP JUMPDEST SWAP1 POP SWAP2 SWAP1 POP JUMP JUMPDEST PUSH1 0x0 PUSH1 0x20 DUP3 ADD SWAP1 POP DUP2 DUP2 SUB PUSH1 0x0 DUP4 ADD MSTORE PUSH2 0x1161 DUP2 PUSH2 0xF8D JUMP JUMPDEST SWAP1 POP SWAP2 SWAP1 POP JUMP JUMPDEST PUSH1 0x0 PUSH1 0x20 DUP3 ADD SWAP1 POP DUP2 DUP2 SUB PUSH1 0x0 DUP4 ADD MSTORE PUSH2 0x1181 DUP2 PUSH2 0xFB0 JUMP JUMPDEST SWAP1 POP SWAP2 SWAP1 POP JUMP JUMPDEST PUSH1 0x0 PUSH1 0x20 DUP3 ADD SWAP1 POP DUP2 DUP2 SUB PUSH1 0x0 DUP4 ADD MSTORE PUSH2 0x11A1 DUP2 PUSH2 0xFD3 JUMP JUMPDEST SWAP1 POP SWAP2 SWAP1 POP JUMP JUMPDEST PUSH1 0x0 PUSH1 0x20 DUP3 ADD SWAP1 POP DUP2 DUP2 SUB PUSH1 0x0 DUP4 ADD MSTORE PUSH2 0x11C1 DUP2 PUSH2 0xFF6 JUMP JUMPDEST SWAP1 POP SWAP2 SWAP1 POP JUMP JUMPDEST PUSH1 0x0 PUSH1 0x20 DUP3 ADD SWAP1 POP DUP2 DUP2 SUB PUSH1 0x0 DUP4 ADD MSTORE PUSH2 0x11E1 DUP2 PUSH2 0x1019 JUMP JUMPDEST SWAP1 POP SWAP2 SWAP1 POP JUMP JUMPDEST PUSH1 0x0 PUSH1 0x20 DUP3 ADD SWAP1 POP DUP2 DUP2 SUB PUSH1 0x0 DUP4 ADD MSTORE PUSH2 0x1201 DUP2 PUSH2 0x103C JUMP JUMPDEST SWAP1 POP SWAP2 SWAP1 POP JUMP JUMPDEST PUSH1 0x0 PUSH1 0x20 DUP3 ADD SWAP1 POP DUP2 DUP2 SUB PUSH1 0x0 DUP4 ADD MSTORE PUSH2 0x1221 DUP2 PUSH2 0x105F JUMP JUMPDEST SWAP1 POP SWAP2 SWAP1 POP JUMP JUMPDEST PUSH1 0x0 PUSH1 0x20 DUP3 ADD SWAP1 POP DUP2 DUP2 SUB PUSH1 0x0 DUP4 ADD MSTORE PUSH2 0x1241 DUP2 PUSH2 0x1082 JUMP JUMPDEST SWAP1 POP SWAP2 SWAP1 POP JUMP JUMPDEST PUSH1 0x0 PUSH1 0x20 DUP3 ADD SWAP1 POP PUSH2 0x125D PUSH1 0x0 DUP4 ADD DUP5 PUSH2 0x10A5 JUMP JUMPDEST SWAP3 SWAP2 POP POP JUMP JUMPDEST PUSH1 0x0 PUSH2 0x126D PUSH2 0x127E JUMP JUMPDEST SWAP1 POP PUSH2 0x1279 DUP3 DUP3 PUSH2 0x140F JUMP JUMPDEST SWAP2 SWAP1 POP JUMP JUMPDEST PUSH1 0x0 PUSH1 0x40 MLOAD SWAP1 POP SWAP1 JUMP JUMPDEST PUSH1 0x0 PUSH8 0xFFFFFFFFFFFFFFFF DUP3 GT ISZERO PUSH2 0x12A3 JUMPI PUSH2 0x12A2 PUSH2 0x14CD JUMP JUMPDEST JUMPDEST PUSH2 0x12AC DUP3 PUSH2 0x1510 JUMP JUMPDEST SWAP1 POP PUSH1 0x20 DUP2 ADD SWAP1 POP SWAP2 SWAP1 POP JUMP JUMPDEST PUSH1 0x0 DUP2 MLOAD SWAP1 POP SWAP2 SWAP1 POP JUMP JUMPDEST PUSH1 0x0 DUP3 DUP3 MSTORE PUSH1 0x20 DUP3 ADD SWAP1 POP SWAP3 SWAP2 POP POP JUMP JUMPDEST PUSH1 0x0 PUSH2 0x12E0 DUP3 PUSH2 0x1391 JUMP JUMPDEST SWAP2 POP PUSH2 0x12EB DUP4 PUSH2 0x1391 JUMP JUMPDEST SWAP3 POP DUP3 PUSH32 0xFFFFFFFFFFFFFFFFFFFFFFFFFFFFFFFFFFFFFFFFFFFFFFFFFFFFFFFFFFFFFFFF SUB DUP3 GT ISZERO PUSH2 0x1320 JUMPI PUSH2 0x131F PUSH2 0x1440 JUMP JUMPDEST JUMPDEST DUP3 DUP3 ADD SWAP1 POP SWAP3 SWAP2 POP POP JUMP JUMPDEST PUSH1 0x0 PUSH2 0x1336 DUP3 PUSH2 0x1391 JUMP JUMPDEST SWAP2 POP PUSH2 0x1341 DUP4 PUSH2 0x1391 JUMP JUMPDEST SWAP3 POP DUP3 DUP3 LT ISZERO PUSH2 0x1354 JUMPI PUSH2 0x1353 PUSH2 0x1440 JUMP JUMPDEST JUMPDEST DUP3 DUP3 SUB SWAP1 POP SWAP3 SWAP2 POP POP JUMP JUMPDEST PUSH1 0x0 PUSH2 0x136A DUP3 PUSH2 0x1371 JUMP JUMPDEST SWAP1 POP SWAP2 SWAP1 POP JUMP JUMPDEST PUSH1 0x0 PUSH20 0xFFFFFFFFFFFFFFFFFFFFFFFFFFFFFFFFFFFFFFFF DUP3 AND SWAP1 POP SWAP2 SWAP1 POP JUMP JUMPDEST PUSH1 0x0 DUP2 SWAP1 POP SWAP2 SWAP1 POP JUMP JUMPDEST DUP3 DUP2 DUP4 CALLDATACOPY PUSH1 0x0 DUP4 DUP4 ADD MSTORE POP POP POP JUMP JUMPDEST PUSH1 0x0 JUMPDEST DUP4 DUP2 LT ISZERO PUSH2 0x13C8 JUMPI DUP1 DUP3 ADD MLOAD DUP2 DUP5 ADD MSTORE PUSH1 0x20 DUP2 ADD SWAP1 POP PUSH2 0x13AD JUMP JUMPDEST DUP4 DUP2 GT ISZERO PUSH2 0x13D7 JUMPI PUSH1 0x0 DUP5 DUP5 ADD MSTORE JUMPDEST POP POP POP POP JUMP JUMPDEST PUSH1 0x0 PUSH1 0x2 DUP3 DIV SWAP1 POP PUSH1 0x1 DUP3 AND DUP1 PUSH2 0x13F5 JUMPI PUSH1 0x7F DUP3 AND SWAP2 POP JUMPDEST PUSH1 0x20 DUP3 LT DUP2 EQ ISZERO PUSH2 0x1409 JUMPI PUSH2 0x1408 PUSH2 0x146F JUMP JUMPDEST JUMPDEST POP SWAP2 SWAP1 POP JUMP JUMPDEST PUSH2 0x1418 DUP3 PUSH2 0x1510 JUMP JUMPDEST DUP2 ADD DUP2 DUP2 LT PUSH8 0xFFFFFFFFFFFFFFFF DUP3 GT OR ISZERO PUSH2 0x1437 JUMPI PUSH2 0x1436 PUSH2 0x14CD JUMP JUMPDEST JUMPDEST DUP1 PUSH1 0x40 MSTORE POP POP POP JUMP JUMPDEST PUSH32 0x4E487B7100000000000000000000000000000000000000000000000000000000 PUSH1 0x0 MSTORE PUSH1 0x11 PUSH1 0x4 MSTORE PUSH1 0x24 PUSH1 0x0 REVERT JUMPDEST PUSH32 0x4E487B7100000000000000000000000000000000000000000000000000000000 PUSH1 0x0 MSTORE PUSH1 0x22 PUSH1 0x4 MSTORE PUSH1 0x24 PUSH1 0x0 REVERT JUMPDEST PUSH32 0x4E487B7100000000000000000000000000000000000000000000000000000000 PUSH1 0x0 MSTORE PUSH1 0x32 PUSH1 0x4 MSTORE PUSH1 0x24 PUSH1 0x0 REVERT JUMPDEST PUSH32 0x4E487B7100000000000000000000000000000000000000000000000000000000 PUSH1 0x0 MSTORE PUSH1 0x41 PUSH1 0x4 MSTORE PUSH1 0x24 PUSH1 0x0 REVERT JUMPDEST PUSH1 0x0 DUP1 REVERT JUMPDEST PUSH1 0x0 DUP1 REVERT JUMPDEST PUSH1 0x0 DUP1 REVERT JUMPDEST PUSH1 0x0 DUP1 REVERT JUMPDEST PUSH1 0x0 PUSH1 0x1F NOT PUSH1 0x1F DUP4 ADD AND SWAP1 POP SWAP2 SWAP1 POP JUMP JUMPDEST PUSH32 0x536F6C6F20656C2041646D696E6973747261646F722064656C2047796D207075 PUSH1 0x0 DUP3 ADD MSTORE PUSH32 0x656465206D6F6469666963617220636C61736573000000000000000000000000 PUSH1 0x20 DUP3 ADD MSTORE POP JUMP JUMPDEST PUSH32 0x596120746520656E6375656E74726173207265676973747261646F20656E2065 PUSH1 0x0 DUP3 ADD MSTORE PUSH32 0x6C2067796D000000000000000000000000000000000000000000000000000000 PUSH1 0x20 DUP3 ADD MSTORE POP JUMP JUMPDEST PUSH32 0x4E6F207469656E6573206372656469746F7320737566696369656E7465732070 PUSH1 0x0 DUP3 ADD MSTORE PUSH32 0x617261207472616E736665726972000000000000000000000000000000000000 PUSH1 0x20 DUP3 ADD MSTORE POP JUMP JUMPDEST PUSH32 0x536F6C6F20656C2041646D696E6973747261646F722064656C2047796D207075 PUSH1 0x0 DUP3 ADD MSTORE PUSH32 0x65646520637265617220636C6173657300000000000000000000000000000000 PUSH1 0x20 DUP3 ADD MSTORE POP JUMP JUMPDEST PUSH32 0x4572657320656C2041646D696E6973747261646F720000000000000000000000 PUSH1 0x0 DUP3 ADD MSTORE POP JUMP JUMPDEST PUSH32 0x4E6F207469656E6573206372656469746F7320737566696369656E7465730000 PUSH1 0x0 DUP3 ADD MSTORE POP JUMP JUMPDEST PUSH32 0x536F6C6F20656C2041646D696E6973747261646F722064656C2047796D207075 PUSH1 0x0 DUP3 ADD MSTORE PUSH32 0x65646520656C696D696E617220636C6173657300000000000000000000000000 PUSH1 0x20 DUP3 ADD MSTORE POP JUMP JUMPDEST PUSH32 0x4E6F2065786973746520756E6120636C61736520636F6E206573652049640000 PUSH1 0x0 DUP3 ADD MSTORE POP JUMP JUMPDEST PUSH32 0x4573746120636C617365206E6F20657869737465000000000000000000000000 PUSH1 0x0 DUP3 ADD MSTORE POP JUMP JUMPDEST PUSH2 0x1759 DUP2 PUSH2 0x135F JUMP JUMPDEST DUP2 EQ PUSH2 0x1764 JUMPI PUSH1 0x0 DUP1 REVERT JUMPDEST POP JUMP JUMPDEST PUSH2 0x1770 DUP2 PUSH2 0x1391 JUMP JUMPDEST DUP2 EQ PUSH2 0x177B JUMPI PUSH1 0x0 DUP1 REVERT JUMPDEST POP JUMP INVALID LOG2 PUSH5 0x6970667358 0x22 SLT KECCAK256 PUSH6 0xC03908F8460E PUSH29 0x9BE41C6872072F95B496C8F726492865EB924599E3CEF8F764736F6C63 NUMBER STOP ADDMOD SMOD STOP CALLER "
				},
				"gasEstimates": {
					"creation": {
						"codeDepositCost": "1213600",
						"executionCost": "infinite",
						"totalCost": "infinite"
					},
					"external": {
						"ADMIN()": "infinite",
						"class(uint256)": "infinite",
						"createClass(string,uint256)": "infinite",
						"getBalance()": "2689",
						"getClass(uint256)": "infinite",
						"getCredits(uint256)": "infinite",
						"register(address,uint256)": "infinite",
						"removeClass(uint256)": "infinite",
						"takeClass(uint256)": "infinite",
						"transferCredits(uint256,address)": "infinite",
						"updateClass(uint256,string,uint256)": "infinite",
						"users(address)": "2902"
					}
				},
				"methodIdentifiers": {
					"ADMIN()": "2a0acc6a",
					"class(uint256)": "3613a9f4",
					"createClass(string,uint256)": "4852a212",
					"getBalance()": "12065fe0",
					"getClass(uint256)": "512d62df",
					"getCredits(uint256)": "19389b95",
					"register(address,uint256)": "6d705ebb",
					"removeClass(uint256)": "72c30f45",
					"takeClass(uint256)": "7aed8136",
					"transferCredits(uint256,address)": "d93b2dd0",
					"updateClass(uint256,string,uint256)": "1e8be099",
					"users(address)": "a87430ba"
				}
			},
			"storageLayout": {
				"storage": [
					{
						"astId": 33,
						"contract": "contracts/Gym_Contact.sol:gym",
						"label": "users",
						"offset": 0,
						"slot": "0",
						"type": "t_mapping(t_address,t_uint256)"
					},
					{
						"astId": 37,
						"contract": "contracts/Gym_Contact.sol:gym",
						"label": "class",
						"offset": 0,
						"slot": "1",
						"type": "t_array(t_struct(Class)6_storage)dyn_storage"
					}
				],
				"types": {
					"t_address": {
						"encoding": "inplace",
						"label": "address",
						"numberOfBytes": "20"
					},
					"t_array(t_struct(Class)6_storage)dyn_storage": {
						"base": "t_struct(Class)6_storage",
						"encoding": "dynamic_array",
						"label": "struct gym.Class[]",
						"numberOfBytes": "32"
					},
					"t_mapping(t_address,t_uint256)": {
						"encoding": "mapping",
						"key": "t_address",
						"label": "mapping(address => uint256)",
						"numberOfBytes": "32",
						"value": "t_uint256"
					},
					"t_string_storage": {
						"encoding": "bytes",
						"label": "string",
						"numberOfBytes": "32"
					},
					"t_struct(Class)6_storage": {
						"encoding": "inplace",
						"label": "struct gym.Class",
						"members": [
							{
								"astId": 3,
								"contract": "contracts/Gym_Contact.sol:gym",
								"label": "name",
								"offset": 0,
								"slot": "0",
								"type": "t_string_storage"
							},
							{
								"astId": 5,
								"contract": "contracts/Gym_Contact.sol:gym",
								"label": "value",
								"offset": 0,
								"slot": "1",
								"type": "t_uint256"
							}
						],
						"numberOfBytes": "64"
					},
					"t_uint256": {
						"encoding": "inplace",
						"label": "uint256",
						"numberOfBytes": "32"
					}
				}
			},
			"userdoc": {
				"kind": "user",
				"methods": {},
				"version": 1
			}
		}
	}
}