{
	"contracts/Gym_Contact.sol": {
		"gym": {
			"abi": [
				{
					"inputs": [],
					"stateMutability": "nonpayable",
					"type": "constructor"
				},
				{
					"anonymous": false,
					"inputs": [
						{
							"indexed": false,
							"internalType": "string",
							"name": "name",
							"type": "string"
						},
						{
							"indexed": false,
							"internalType": "uint256",
							"name": "value",
							"type": "uint256"
						}
					],
					"name": "ClassCreated",
					"type": "event"
				},
				{
					"anonymous": false,
					"inputs": [
						{
							"indexed": false,
							"internalType": "address",
							"name": "user",
							"type": "address"
						},
						{
							"indexed": false,
							"internalType": "uint256",
							"name": "credits",
							"type": "uint256"
						}
					],
					"name": "Register",
					"type": "event"
				},
				{
					"inputs": [],
					"name": "ADMIN",
					"outputs": [
						{
							"internalType": "address",
							"name": "",
							"type": "address"
						}
					],
					"stateMutability": "view",
					"type": "function"
				},
				{
					"inputs": [
						{
							"internalType": "string",
							"name": "_name",
							"type": "string"
						},
						{
							"internalType": "uint256",
							"name": "_value",
							"type": "uint256"
						}
					],
					"name": "createClass",
					"outputs": [],
					"stateMutability": "nonpayable",
					"type": "function"
				},
				{
					"inputs": [
						{
							"internalType": "address",
							"name": "_address",
							"type": "address"
						},
						{
							"internalType": "uint256",
							"name": "_credits",
							"type": "uint256"
						}
					],
					"name": "register",
					"outputs": [],
					"stateMutability": "nonpayable",
					"type": "function"
				},
				{
					"inputs": [
						{
							"internalType": "address",
							"name": "",
							"type": "address"
						}
					],
					"name": "users",
					"outputs": [
						{
							"internalType": "uint256",
							"name": "",
							"type": "uint256"
						}
					],
					"stateMutability": "view",
					"type": "function"
				}
			],
			"devdoc": {
				"kind": "dev",
				"methods": {},
				"version": 1
			},
			"evm": {
				"assembly": "    /* \"contracts/Gym_Contact.sol\":70:1202  contract gym {\r... */\n  mstore(0x40, 0xa0)\n    /* \"contracts/Gym_Contact.sol\":389:440  constructor() {\r... */\n  callvalue\n  dup1\n  iszero\n  tag_1\n  jumpi\n  0x00\n  dup1\n  revert\ntag_1:\n  pop\n    /* \"contracts/Gym_Contact.sol\":422:432  msg.sender */\n  caller\n    /* \"contracts/Gym_Contact.sol\":414:432  ADMIN = msg.sender */\n  0xffffffffffffffffffffffffffffffffffffffff\n  and\n  0x80\n  dup2\n  0xffffffffffffffffffffffffffffffffffffffff\n  and\n  0x60\n  shl\n  dup2\n  mstore\n  pop\n  pop\n    /* \"contracts/Gym_Contact.sol\":70:1202  contract gym {\r... */\n  shr(0x60, mload(0x80))\n  codecopy(0x00, dataOffset(sub_0), dataSize(sub_0))\n  0x00\n  assignImmutable(\"0x731dc163f73d31d8c68f9917ce4ff967753939f70432973c04fd2c2a48148607\")\n  return(0x00, dataSize(sub_0))\nstop\n\nsub_0: assembly {\n        /* \"contracts/Gym_Contact.sol\":70:1202  contract gym {\r... */\n      mstore(0x40, 0x80)\n      callvalue\n      dup1\n      iszero\n      tag_1\n      jumpi\n      0x00\n      dup1\n      revert\n    tag_1:\n      pop\n      jumpi(tag_2, lt(calldatasize, 0x04))\n      shr(0xe0, calldataload(0x00))\n      dup1\n      0x2a0acc6a\n      eq\n      tag_3\n      jumpi\n      dup1\n      0x4852a212\n      eq\n      tag_4\n      jumpi\n      dup1\n      0x6d705ebb\n      eq\n      tag_5\n      jumpi\n      dup1\n      0xa87430ba\n      eq\n      tag_6\n      jumpi\n    tag_2:\n      0x00\n      dup1\n      revert\n        /* \"contracts/Gym_Contact.sol\":350:380  address immutable public ADMIN */\n    tag_3:\n      tag_7\n      tag_8\n      jump\t// in\n    tag_7:\n      mload(0x40)\n      tag_9\n      swap2\n      swap1\n      tag_10\n      jump\t// in\n    tag_9:\n      mload(0x40)\n      dup1\n      swap2\n      sub\n      swap1\n      return\n        /* \"contracts/Gym_Contact.sol\":571:814  function createClass(string memory _name, uint _value) public {\r... */\n    tag_4:\n      tag_11\n      0x04\n      dup1\n      calldatasize\n      sub\n      dup2\n      add\n      swap1\n      tag_12\n      swap2\n      swap1\n      tag_13\n      jump\t// in\n    tag_12:\n      tag_14\n      jump\t// in\n    tag_11:\n      stop\n        /* \"contracts/Gym_Contact.sol\":852:1199  function register(address _address, uint _credits) public {\r... */\n    tag_5:\n      tag_15\n      0x04\n      dup1\n      calldatasize\n      sub\n      dup2\n      add\n      swap1\n      tag_16\n      swap2\n      swap1\n      tag_17\n      jump\t// in\n    tag_16:\n      tag_18\n      jump\t// in\n    tag_15:\n      stop\n        /* \"contracts/Gym_Contact.sol\":464:501  mapping(address => uint) public users */\n    tag_6:\n      tag_19\n      0x04\n      dup1\n      calldatasize\n      sub\n      dup2\n      add\n      swap1\n      tag_20\n      swap2\n      swap1\n      tag_21\n      jump\t// in\n    tag_20:\n      tag_22\n      jump\t// in\n    tag_19:\n      mload(0x40)\n      tag_23\n      swap2\n      swap1\n      tag_24\n      jump\t// in\n    tag_23:\n      mload(0x40)\n      dup1\n      swap2\n      sub\n      swap1\n      return\n        /* \"contracts/Gym_Contact.sol\":350:380  address immutable public ADMIN */\n    tag_8:\n      immutable(\"0x731dc163f73d31d8c68f9917ce4ff967753939f70432973c04fd2c2a48148607\")\n      dup2\n      jump\t// out\n        /* \"contracts/Gym_Contact.sol\":571:814  function createClass(string memory _name, uint _value) public {\r... */\n    tag_14:\n        /* \"contracts/Gym_Contact.sol\":661:671  msg.sender */\n      caller\n        /* \"contracts/Gym_Contact.sol\":652:671  ADMIN == msg.sender */\n      0xffffffffffffffffffffffffffffffffffffffff\n      and\n        /* \"contracts/Gym_Contact.sol\":652:657  ADMIN */\n      immutable(\"0x731dc163f73d31d8c68f9917ce4ff967753939f70432973c04fd2c2a48148607\")\n        /* \"contracts/Gym_Contact.sol\":652:671  ADMIN == msg.sender */\n      0xffffffffffffffffffffffffffffffffffffffff\n      and\n      eq\n        /* \"contracts/Gym_Contact.sol\":644:724  require(ADMIN == msg.sender, \"Solo el Administrador del Gym puede crear clases\") */\n      tag_26\n      jumpi\n      mload(0x40)\n      0x08c379a000000000000000000000000000000000000000000000000000000000\n      dup2\n      mstore\n      0x04\n      add\n      tag_27\n      swap1\n      tag_28\n      jump\t// in\n    tag_27:\n      mload(0x40)\n      dup1\n      swap2\n      sub\n      swap1\n      revert\n    tag_26:\n        /* \"contracts/Gym_Contact.sol\":740:767  ClassCreated(_name, _value) */\n      0x14d49e3ea4f348b7f368906dfe1a63055c7822d622a61672a35a55ae97a768f9\n        /* \"contracts/Gym_Contact.sol\":753:758  _name */\n      dup3\n        /* \"contracts/Gym_Contact.sol\":760:766  _value */\n      dup3\n        /* \"contracts/Gym_Contact.sol\":740:767  ClassCreated(_name, _value) */\n      mload(0x40)\n      tag_29\n      swap3\n      swap2\n      swap1\n      tag_30\n      jump\t// in\n    tag_29:\n      mload(0x40)\n      dup1\n      swap2\n      sub\n      swap1\n      log1\n        /* \"contracts/Gym_Contact.sol\":571:814  function createClass(string memory _name, uint _value) public {\r... */\n      pop\n      pop\n      jump\t// out\n        /* \"contracts/Gym_Contact.sol\":852:1199  function register(address _address, uint _credits) public {\r... */\n    tag_18:\n        /* \"contracts/Gym_Contact.sol\":1014:1015  0 */\n      0x00\n        /* \"contracts/Gym_Contact.sol\":994:999  users */\n      dup1\n        /* \"contracts/Gym_Contact.sol\":994:1011  users[msg.sender] */\n      0x00\n        /* \"contracts/Gym_Contact.sol\":1000:1010  msg.sender */\n      caller\n        /* \"contracts/Gym_Contact.sol\":994:1011  users[msg.sender] */\n      0xffffffffffffffffffffffffffffffffffffffff\n      and\n      0xffffffffffffffffffffffffffffffffffffffff\n      and\n      dup2\n      mstore\n      0x20\n      add\n      swap1\n      dup2\n      mstore\n      0x20\n      add\n      0x00\n      keccak256\n      sload\n        /* \"contracts/Gym_Contact.sol\":994:1015  users[msg.sender] > 0 */\n      gt\n        /* \"contracts/Gym_Contact.sol\":986:1057  require(users[msg.sender] > 0, \"Ya te encuentras registrado en el gym\") */\n      tag_32\n      jumpi\n      mload(0x40)\n      0x08c379a000000000000000000000000000000000000000000000000000000000\n      dup2\n      mstore\n      0x04\n      add\n      tag_33\n      swap1\n      tag_34\n      jump\t// in\n    tag_33:\n      mload(0x40)\n      dup1\n      swap2\n      sub\n      swap1\n      revert\n    tag_32:\n        /* \"contracts/Gym_Contact.sol\":1088:1096  _credits */\n      dup1\n        /* \"contracts/Gym_Contact.sol\":1068:1073  users */\n      0x00\n        /* \"contracts/Gym_Contact.sol\":1068:1085  users[msg.sender] */\n      dup1\n        /* \"contracts/Gym_Contact.sol\":1074:1084  msg.sender */\n      caller\n        /* \"contracts/Gym_Contact.sol\":1068:1085  users[msg.sender] */\n      0xffffffffffffffffffffffffffffffffffffffff\n      and\n      0xffffffffffffffffffffffffffffffffffffffff\n      and\n      dup2\n      mstore\n      0x20\n      add\n      swap1\n      dup2\n      mstore\n      0x20\n      add\n      0x00\n      keccak256\n        /* \"contracts/Gym_Contact.sol\":1068:1096  users[msg.sender] = _credits */\n      dup2\n      swap1\n      sstore\n      pop\n        /* \"contracts/Gym_Contact.sol\":1112:1140  Register(_address, _credits) */\n      0x7dc6ab80cc84c043b7b8d4fcafc802187470087f7ea7fccd2e17aecd0256a1\n        /* \"contracts/Gym_Contact.sol\":1121:1129  _address */\n      dup3\n        /* \"contracts/Gym_Contact.sol\":1131:1139  _credits */\n      dup3\n        /* \"contracts/Gym_Contact.sol\":1112:1140  Register(_address, _credits) */\n      mload(0x40)\n      tag_35\n      swap3\n      swap2\n      swap1\n      tag_36\n      jump\t// in\n    tag_35:\n      mload(0x40)\n      dup1\n      swap2\n      sub\n      swap1\n      log1\n        /* \"contracts/Gym_Contact.sol\":852:1199  function register(address _address, uint _credits) public {\r... */\n      pop\n      pop\n      jump\t// out\n        /* \"contracts/Gym_Contact.sol\":464:501  mapping(address => uint) public users */\n    tag_22:\n      mstore(0x20, 0x00)\n      dup1\n      0x00\n      mstore\n      keccak256(0x00, 0x40)\n      0x00\n      swap2\n      pop\n      swap1\n      pop\n      sload\n      dup2\n      jump\t// out\n        /* \"#utility.yul\":7:419   */\n    tag_38:\n        /* \"#utility.yul\":85:90   */\n      0x00\n        /* \"#utility.yul\":110:176   */\n      tag_40\n        /* \"#utility.yul\":126:175   */\n      tag_41\n        /* \"#utility.yul\":168:174   */\n      dup5\n        /* \"#utility.yul\":126:175   */\n      tag_42\n      jump\t// in\n    tag_41:\n        /* \"#utility.yul\":110:176   */\n      tag_43\n      jump\t// in\n    tag_40:\n        /* \"#utility.yul\":101:176   */\n      swap1\n      pop\n        /* \"#utility.yul\":199:205   */\n      dup3\n        /* \"#utility.yul\":192:197   */\n      dup2\n        /* \"#utility.yul\":185:206   */\n      mstore\n        /* \"#utility.yul\":237:241   */\n      0x20\n        /* \"#utility.yul\":230:235   */\n      dup2\n        /* \"#utility.yul\":226:242   */\n      add\n        /* \"#utility.yul\":275:278   */\n      dup5\n        /* \"#utility.yul\":266:272   */\n      dup5\n        /* \"#utility.yul\":261:264   */\n      dup5\n        /* \"#utility.yul\":257:273   */\n      add\n        /* \"#utility.yul\":254:279   */\n      gt\n        /* \"#utility.yul\":251:363   */\n      iszero\n      tag_44\n      jumpi\n        /* \"#utility.yul\":282:361   */\n      tag_45\n      tag_46\n      jump\t// in\n    tag_45:\n        /* \"#utility.yul\":251:363   */\n    tag_44:\n        /* \"#utility.yul\":372:413   */\n      tag_47\n        /* \"#utility.yul\":406:412   */\n      dup5\n        /* \"#utility.yul\":401:404   */\n      dup3\n        /* \"#utility.yul\":396:399   */\n      dup6\n        /* \"#utility.yul\":372:413   */\n      tag_48\n      jump\t// in\n    tag_47:\n        /* \"#utility.yul\":91:419   */\n      pop\n        /* \"#utility.yul\":7:419   */\n      swap4\n      swap3\n      pop\n      pop\n      pop\n      jump\t// out\n        /* \"#utility.yul\":425:564   */\n    tag_49:\n        /* \"#utility.yul\":471:476   */\n      0x00\n        /* \"#utility.yul\":509:515   */\n      dup2\n        /* \"#utility.yul\":496:516   */\n      calldataload\n        /* \"#utility.yul\":487:516   */\n      swap1\n      pop\n        /* \"#utility.yul\":525:558   */\n      tag_51\n        /* \"#utility.yul\":552:557   */\n      dup2\n        /* \"#utility.yul\":525:558   */\n      tag_52\n      jump\t// in\n    tag_51:\n        /* \"#utility.yul\":425:564   */\n      swap3\n      swap2\n      pop\n      pop\n      jump\t// out\n        /* \"#utility.yul\":584:924   */\n    tag_53:\n        /* \"#utility.yul\":640:645   */\n      0x00\n        /* \"#utility.yul\":689:692   */\n      dup3\n        /* \"#utility.yul\":682:686   */\n      0x1f\n        /* \"#utility.yul\":674:680   */\n      dup4\n        /* \"#utility.yul\":670:687   */\n      add\n        /* \"#utility.yul\":666:693   */\n      slt\n        /* \"#utility.yul\":656:778   */\n      tag_55\n      jumpi\n        /* \"#utility.yul\":697:776   */\n      tag_56\n      tag_57\n      jump\t// in\n    tag_56:\n        /* \"#utility.yul\":656:778   */\n    tag_55:\n        /* \"#utility.yul\":814:820   */\n      dup2\n        /* \"#utility.yul\":801:821   */\n      calldataload\n        /* \"#utility.yul\":839:918   */\n      tag_58\n        /* \"#utility.yul\":914:917   */\n      dup5\n        /* \"#utility.yul\":906:912   */\n      dup3\n        /* \"#utility.yul\":899:903   */\n      0x20\n        /* \"#utility.yul\":891:897   */\n      dup7\n        /* \"#utility.yul\":887:904   */\n      add\n        /* \"#utility.yul\":839:918   */\n      tag_38\n      jump\t// in\n    tag_58:\n        /* \"#utility.yul\":830:918   */\n      swap2\n      pop\n        /* \"#utility.yul\":646:924   */\n      pop\n        /* \"#utility.yul\":584:924   */\n      swap3\n      swap2\n      pop\n      pop\n      jump\t// out\n        /* \"#utility.yul\":930:1069   */\n    tag_59:\n        /* \"#utility.yul\":976:981   */\n      0x00\n        /* \"#utility.yul\":1014:1020   */\n      dup2\n        /* \"#utility.yul\":1001:1021   */\n      calldataload\n        /* \"#utility.yul\":992:1021   */\n      swap1\n      pop\n        /* \"#utility.yul\":1030:1063   */\n      tag_61\n        /* \"#utility.yul\":1057:1062   */\n      dup2\n        /* \"#utility.yul\":1030:1063   */\n      tag_62\n      jump\t// in\n    tag_61:\n        /* \"#utility.yul\":930:1069   */\n      swap3\n      swap2\n      pop\n      pop\n      jump\t// out\n        /* \"#utility.yul\":1075:1404   */\n    tag_21:\n        /* \"#utility.yul\":1134:1140   */\n      0x00\n        /* \"#utility.yul\":1183:1185   */\n      0x20\n        /* \"#utility.yul\":1171:1180   */\n      dup3\n        /* \"#utility.yul\":1162:1169   */\n      dup5\n        /* \"#utility.yul\":1158:1181   */\n      sub\n        /* \"#utility.yul\":1154:1186   */\n      slt\n        /* \"#utility.yul\":1151:1270   */\n      iszero\n      tag_64\n      jumpi\n        /* \"#utility.yul\":1189:1268   */\n      tag_65\n      tag_66\n      jump\t// in\n    tag_65:\n        /* \"#utility.yul\":1151:1270   */\n    tag_64:\n        /* \"#utility.yul\":1309:1310   */\n      0x00\n        /* \"#utility.yul\":1334:1387   */\n      tag_67\n        /* \"#utility.yul\":1379:1386   */\n      dup5\n        /* \"#utility.yul\":1370:1376   */\n      dup3\n        /* \"#utility.yul\":1359:1368   */\n      dup6\n        /* \"#utility.yul\":1355:1377   */\n      add\n        /* \"#utility.yul\":1334:1387   */\n      tag_49\n      jump\t// in\n    tag_67:\n        /* \"#utility.yul\":1324:1387   */\n      swap2\n      pop\n        /* \"#utility.yul\":1280:1397   */\n      pop\n        /* \"#utility.yul\":1075:1404   */\n      swap3\n      swap2\n      pop\n      pop\n      jump\t// out\n        /* \"#utility.yul\":1410:1884   */\n    tag_17:\n        /* \"#utility.yul\":1478:1484   */\n      0x00\n        /* \"#utility.yul\":1486:1492   */\n      dup1\n        /* \"#utility.yul\":1535:1537   */\n      0x40\n        /* \"#utility.yul\":1523:1532   */\n      dup4\n        /* \"#utility.yul\":1514:1521   */\n      dup6\n        /* \"#utility.yul\":1510:1533   */\n      sub\n        /* \"#utility.yul\":1506:1538   */\n      slt\n        /* \"#utility.yul\":1503:1622   */\n      iszero\n      tag_69\n      jumpi\n        /* \"#utility.yul\":1541:1620   */\n      tag_70\n      tag_66\n      jump\t// in\n    tag_70:\n        /* \"#utility.yul\":1503:1622   */\n    tag_69:\n        /* \"#utility.yul\":1661:1662   */\n      0x00\n        /* \"#utility.yul\":1686:1739   */\n      tag_71\n        /* \"#utility.yul\":1731:1738   */\n      dup6\n        /* \"#utility.yul\":1722:1728   */\n      dup3\n        /* \"#utility.yul\":1711:1720   */\n      dup7\n        /* \"#utility.yul\":1707:1729   */\n      add\n        /* \"#utility.yul\":1686:1739   */\n      tag_49\n      jump\t// in\n    tag_71:\n        /* \"#utility.yul\":1676:1739   */\n      swap3\n      pop\n        /* \"#utility.yul\":1632:1749   */\n      pop\n        /* \"#utility.yul\":1788:1790   */\n      0x20\n        /* \"#utility.yul\":1814:1867   */\n      tag_72\n        /* \"#utility.yul\":1859:1866   */\n      dup6\n        /* \"#utility.yul\":1850:1856   */\n      dup3\n        /* \"#utility.yul\":1839:1848   */\n      dup7\n        /* \"#utility.yul\":1835:1857   */\n      add\n        /* \"#utility.yul\":1814:1867   */\n      tag_59\n      jump\t// in\n    tag_72:\n        /* \"#utility.yul\":1804:1867   */\n      swap2\n      pop\n        /* \"#utility.yul\":1759:1877   */\n      pop\n        /* \"#utility.yul\":1410:1884   */\n      swap3\n      pop\n      swap3\n      swap1\n      pop\n      jump\t// out\n        /* \"#utility.yul\":1890:2544   */\n    tag_13:\n        /* \"#utility.yul\":1968:1974   */\n      0x00\n        /* \"#utility.yul\":1976:1982   */\n      dup1\n        /* \"#utility.yul\":2025:2027   */\n      0x40\n        /* \"#utility.yul\":2013:2022   */\n      dup4\n        /* \"#utility.yul\":2004:2011   */\n      dup6\n        /* \"#utility.yul\":2000:2023   */\n      sub\n        /* \"#utility.yul\":1996:2028   */\n      slt\n        /* \"#utility.yul\":1993:2112   */\n      iszero\n      tag_74\n      jumpi\n        /* \"#utility.yul\":2031:2110   */\n      tag_75\n      tag_66\n      jump\t// in\n    tag_75:\n        /* \"#utility.yul\":1993:2112   */\n    tag_74:\n        /* \"#utility.yul\":2179:2180   */\n      0x00\n        /* \"#utility.yul\":2168:2177   */\n      dup4\n        /* \"#utility.yul\":2164:2181   */\n      add\n        /* \"#utility.yul\":2151:2182   */\n      calldataload\n        /* \"#utility.yul\":2209:2227   */\n      0xffffffffffffffff\n        /* \"#utility.yul\":2201:2207   */\n      dup2\n        /* \"#utility.yul\":2198:2228   */\n      gt\n        /* \"#utility.yul\":2195:2312   */\n      iszero\n      tag_76\n      jumpi\n        /* \"#utility.yul\":2231:2310   */\n      tag_77\n      tag_78\n      jump\t// in\n    tag_77:\n        /* \"#utility.yul\":2195:2312   */\n    tag_76:\n        /* \"#utility.yul\":2336:2399   */\n      tag_79\n        /* \"#utility.yul\":2391:2398   */\n      dup6\n        /* \"#utility.yul\":2382:2388   */\n      dup3\n        /* \"#utility.yul\":2371:2380   */\n      dup7\n        /* \"#utility.yul\":2367:2389   */\n      add\n        /* \"#utility.yul\":2336:2399   */\n      tag_53\n      jump\t// in\n    tag_79:\n        /* \"#utility.yul\":2326:2399   */\n      swap3\n      pop\n        /* \"#utility.yul\":2122:2409   */\n      pop\n        /* \"#utility.yul\":2448:2450   */\n      0x20\n        /* \"#utility.yul\":2474:2527   */\n      tag_80\n        /* \"#utility.yul\":2519:2526   */\n      dup6\n        /* \"#utility.yul\":2510:2516   */\n      dup3\n        /* \"#utility.yul\":2499:2508   */\n      dup7\n        /* \"#utility.yul\":2495:2517   */\n      add\n        /* \"#utility.yul\":2474:2527   */\n      tag_59\n      jump\t// in\n    tag_80:\n        /* \"#utility.yul\":2464:2527   */\n      swap2\n      pop\n        /* \"#utility.yul\":2419:2537   */\n      pop\n        /* \"#utility.yul\":1890:2544   */\n      swap3\n      pop\n      swap3\n      swap1\n      pop\n      jump\t// out\n        /* \"#utility.yul\":2550:2668   */\n    tag_81:\n        /* \"#utility.yul\":2637:2661   */\n      tag_83\n        /* \"#utility.yul\":2655:2660   */\n      dup2\n        /* \"#utility.yul\":2637:2661   */\n      tag_84\n      jump\t// in\n    tag_83:\n        /* \"#utility.yul\":2632:2635   */\n      dup3\n        /* \"#utility.yul\":2625:2662   */\n      mstore\n        /* \"#utility.yul\":2550:2668   */\n      pop\n      pop\n      jump\t// out\n        /* \"#utility.yul\":2674:3038   */\n    tag_85:\n        /* \"#utility.yul\":2762:2765   */\n      0x00\n        /* \"#utility.yul\":2790:2829   */\n      tag_87\n        /* \"#utility.yul\":2823:2828   */\n      dup3\n        /* \"#utility.yul\":2790:2829   */\n      tag_88\n      jump\t// in\n    tag_87:\n        /* \"#utility.yul\":2845:2916   */\n      tag_89\n        /* \"#utility.yul\":2909:2915   */\n      dup2\n        /* \"#utility.yul\":2904:2907   */\n      dup6\n        /* \"#utility.yul\":2845:2916   */\n      tag_90\n      jump\t// in\n    tag_89:\n        /* \"#utility.yul\":2838:2916   */\n      swap4\n      pop\n        /* \"#utility.yul\":2925:2977   */\n      tag_91\n        /* \"#utility.yul\":2970:2976   */\n      dup2\n        /* \"#utility.yul\":2965:2968   */\n      dup6\n        /* \"#utility.yul\":2958:2962   */\n      0x20\n        /* \"#utility.yul\":2951:2956   */\n      dup7\n        /* \"#utility.yul\":2947:2963   */\n      add\n        /* \"#utility.yul\":2925:2977   */\n      tag_92\n      jump\t// in\n    tag_91:\n        /* \"#utility.yul\":3002:3031   */\n      tag_93\n        /* \"#utility.yul\":3024:3030   */\n      dup2\n        /* \"#utility.yul\":3002:3031   */\n      tag_94\n      jump\t// in\n    tag_93:\n        /* \"#utility.yul\":2997:3000   */\n      dup5\n        /* \"#utility.yul\":2993:3032   */\n      add\n        /* \"#utility.yul\":2986:3032   */\n      swap2\n      pop\n        /* \"#utility.yul\":2766:3038   */\n      pop\n        /* \"#utility.yul\":2674:3038   */\n      swap3\n      swap2\n      pop\n      pop\n      jump\t// out\n        /* \"#utility.yul\":3044:3410   */\n    tag_95:\n        /* \"#utility.yul\":3186:3189   */\n      0x00\n        /* \"#utility.yul\":3207:3274   */\n      tag_97\n        /* \"#utility.yul\":3271:3273   */\n      0x25\n        /* \"#utility.yul\":3266:3269   */\n      dup4\n        /* \"#utility.yul\":3207:3274   */\n      tag_90\n      jump\t// in\n    tag_97:\n        /* \"#utility.yul\":3200:3274   */\n      swap2\n      pop\n        /* \"#utility.yul\":3283:3376   */\n      tag_98\n        /* \"#utility.yul\":3372:3375   */\n      dup3\n        /* \"#utility.yul\":3283:3376   */\n      tag_99\n      jump\t// in\n    tag_98:\n        /* \"#utility.yul\":3401:3403   */\n      0x40\n        /* \"#utility.yul\":3396:3399   */\n      dup3\n        /* \"#utility.yul\":3392:3404   */\n      add\n        /* \"#utility.yul\":3385:3404   */\n      swap1\n      pop\n        /* \"#utility.yul\":3044:3410   */\n      swap2\n      swap1\n      pop\n      jump\t// out\n        /* \"#utility.yul\":3416:3782   */\n    tag_100:\n        /* \"#utility.yul\":3558:3561   */\n      0x00\n        /* \"#utility.yul\":3579:3646   */\n      tag_102\n        /* \"#utility.yul\":3643:3645   */\n      0x30\n        /* \"#utility.yul\":3638:3641   */\n      dup4\n        /* \"#utility.yul\":3579:3646   */\n      tag_90\n      jump\t// in\n    tag_102:\n        /* \"#utility.yul\":3572:3646   */\n      swap2\n      pop\n        /* \"#utility.yul\":3655:3748   */\n      tag_103\n        /* \"#utility.yul\":3744:3747   */\n      dup3\n        /* \"#utility.yul\":3655:3748   */\n      tag_104\n      jump\t// in\n    tag_103:\n        /* \"#utility.yul\":3773:3775   */\n      0x40\n        /* \"#utility.yul\":3768:3771   */\n      dup3\n        /* \"#utility.yul\":3764:3776   */\n      add\n        /* \"#utility.yul\":3757:3776   */\n      swap1\n      pop\n        /* \"#utility.yul\":3416:3782   */\n      swap2\n      swap1\n      pop\n      jump\t// out\n        /* \"#utility.yul\":3788:3906   */\n    tag_105:\n        /* \"#utility.yul\":3875:3899   */\n      tag_107\n        /* \"#utility.yul\":3893:3898   */\n      dup2\n        /* \"#utility.yul\":3875:3899   */\n      tag_108\n      jump\t// in\n    tag_107:\n        /* \"#utility.yul\":3870:3873   */\n      dup3\n        /* \"#utility.yul\":3863:3900   */\n      mstore\n        /* \"#utility.yul\":3788:3906   */\n      pop\n      pop\n      jump\t// out\n        /* \"#utility.yul\":3912:4134   */\n    tag_10:\n        /* \"#utility.yul\":4005:4009   */\n      0x00\n        /* \"#utility.yul\":4043:4045   */\n      0x20\n        /* \"#utility.yul\":4032:4041   */\n      dup3\n        /* \"#utility.yul\":4028:4046   */\n      add\n        /* \"#utility.yul\":4020:4046   */\n      swap1\n      pop\n        /* \"#utility.yul\":4056:4127   */\n      tag_110\n        /* \"#utility.yul\":4124:4125   */\n      0x00\n        /* \"#utility.yul\":4113:4122   */\n      dup4\n        /* \"#utility.yul\":4109:4126   */\n      add\n        /* \"#utility.yul\":4100:4106   */\n      dup5\n        /* \"#utility.yul\":4056:4127   */\n      tag_81\n      jump\t// in\n    tag_110:\n        /* \"#utility.yul\":3912:4134   */\n      swap3\n      swap2\n      pop\n      pop\n      jump\t// out\n        /* \"#utility.yul\":4140:4472   */\n    tag_36:\n        /* \"#utility.yul\":4261:4265   */\n      0x00\n        /* \"#utility.yul\":4299:4301   */\n      0x40\n        /* \"#utility.yul\":4288:4297   */\n      dup3\n        /* \"#utility.yul\":4284:4302   */\n      add\n        /* \"#utility.yul\":4276:4302   */\n      swap1\n      pop\n        /* \"#utility.yul\":4312:4383   */\n      tag_112\n        /* \"#utility.yul\":4380:4381   */\n      0x00\n        /* \"#utility.yul\":4369:4378   */\n      dup4\n        /* \"#utility.yul\":4365:4382   */\n      add\n        /* \"#utility.yul\":4356:4362   */\n      dup6\n        /* \"#utility.yul\":4312:4383   */\n      tag_81\n      jump\t// in\n    tag_112:\n        /* \"#utility.yul\":4393:4465   */\n      tag_113\n        /* \"#utility.yul\":4461:4463   */\n      0x20\n        /* \"#utility.yul\":4450:4459   */\n      dup4\n        /* \"#utility.yul\":4446:4464   */\n      add\n        /* \"#utility.yul\":4437:4443   */\n      dup5\n        /* \"#utility.yul\":4393:4465   */\n      tag_105\n      jump\t// in\n    tag_113:\n        /* \"#utility.yul\":4140:4472   */\n      swap4\n      swap3\n      pop\n      pop\n      pop\n      jump\t// out\n        /* \"#utility.yul\":4478:4901   */\n    tag_30:\n        /* \"#utility.yul\":4619:4623   */\n      0x00\n        /* \"#utility.yul\":4657:4659   */\n      0x40\n        /* \"#utility.yul\":4646:4655   */\n      dup3\n        /* \"#utility.yul\":4642:4660   */\n      add\n        /* \"#utility.yul\":4634:4660   */\n      swap1\n      pop\n        /* \"#utility.yul\":4706:4715   */\n      dup2\n        /* \"#utility.yul\":4700:4704   */\n      dup2\n        /* \"#utility.yul\":4696:4716   */\n      sub\n        /* \"#utility.yul\":4692:4693   */\n      0x00\n        /* \"#utility.yul\":4681:4690   */\n      dup4\n        /* \"#utility.yul\":4677:4694   */\n      add\n        /* \"#utility.yul\":4670:4717   */\n      mstore\n        /* \"#utility.yul\":4734:4812   */\n      tag_115\n        /* \"#utility.yul\":4807:4811   */\n      dup2\n        /* \"#utility.yul\":4798:4804   */\n      dup6\n        /* \"#utility.yul\":4734:4812   */\n      tag_85\n      jump\t// in\n    tag_115:\n        /* \"#utility.yul\":4726:4812   */\n      swap1\n      pop\n        /* \"#utility.yul\":4822:4894   */\n      tag_116\n        /* \"#utility.yul\":4890:4892   */\n      0x20\n        /* \"#utility.yul\":4879:4888   */\n      dup4\n        /* \"#utility.yul\":4875:4893   */\n      add\n        /* \"#utility.yul\":4866:4872   */\n      dup5\n        /* \"#utility.yul\":4822:4894   */\n      tag_105\n      jump\t// in\n    tag_116:\n        /* \"#utility.yul\":4478:4901   */\n      swap4\n      swap3\n      pop\n      pop\n      pop\n      jump\t// out\n        /* \"#utility.yul\":4907:5326   */\n    tag_34:\n        /* \"#utility.yul\":5073:5077   */\n      0x00\n        /* \"#utility.yul\":5111:5113   */\n      0x20\n        /* \"#utility.yul\":5100:5109   */\n      dup3\n        /* \"#utility.yul\":5096:5114   */\n      add\n        /* \"#utility.yul\":5088:5114   */\n      swap1\n      pop\n        /* \"#utility.yul\":5160:5169   */\n      dup2\n        /* \"#utility.yul\":5154:5158   */\n      dup2\n        /* \"#utility.yul\":5150:5170   */\n      sub\n        /* \"#utility.yul\":5146:5147   */\n      0x00\n        /* \"#utility.yul\":5135:5144   */\n      dup4\n        /* \"#utility.yul\":5131:5148   */\n      add\n        /* \"#utility.yul\":5124:5171   */\n      mstore\n        /* \"#utility.yul\":5188:5319   */\n      tag_118\n        /* \"#utility.yul\":5314:5318   */\n      dup2\n        /* \"#utility.yul\":5188:5319   */\n      tag_95\n      jump\t// in\n    tag_118:\n        /* \"#utility.yul\":5180:5319   */\n      swap1\n      pop\n        /* \"#utility.yul\":4907:5326   */\n      swap2\n      swap1\n      pop\n      jump\t// out\n        /* \"#utility.yul\":5332:5751   */\n    tag_28:\n        /* \"#utility.yul\":5498:5502   */\n      0x00\n        /* \"#utility.yul\":5536:5538   */\n      0x20\n        /* \"#utility.yul\":5525:5534   */\n      dup3\n        /* \"#utility.yul\":5521:5539   */\n      add\n        /* \"#utility.yul\":5513:5539   */\n      swap1\n      pop\n        /* \"#utility.yul\":5585:5594   */\n      dup2\n        /* \"#utility.yul\":5579:5583   */\n      dup2\n        /* \"#utility.yul\":5575:5595   */\n      sub\n        /* \"#utility.yul\":5571:5572   */\n      0x00\n        /* \"#utility.yul\":5560:5569   */\n      dup4\n        /* \"#utility.yul\":5556:5573   */\n      add\n        /* \"#utility.yul\":5549:5596   */\n      mstore\n        /* \"#utility.yul\":5613:5744   */\n      tag_120\n        /* \"#utility.yul\":5739:5743   */\n      dup2\n        /* \"#utility.yul\":5613:5744   */\n      tag_100\n      jump\t// in\n    tag_120:\n        /* \"#utility.yul\":5605:5744   */\n      swap1\n      pop\n        /* \"#utility.yul\":5332:5751   */\n      swap2\n      swap1\n      pop\n      jump\t// out\n        /* \"#utility.yul\":5757:5979   */\n    tag_24:\n        /* \"#utility.yul\":5850:5854   */\n      0x00\n        /* \"#utility.yul\":5888:5890   */\n      0x20\n        /* \"#utility.yul\":5877:5886   */\n      dup3\n        /* \"#utility.yul\":5873:5891   */\n      add\n        /* \"#utility.yul\":5865:5891   */\n      swap1\n      pop\n        /* \"#utility.yul\":5901:5972   */\n      tag_122\n        /* \"#utility.yul\":5969:5970   */\n      0x00\n        /* \"#utility.yul\":5958:5967   */\n      dup4\n        /* \"#utility.yul\":5954:5971   */\n      add\n        /* \"#utility.yul\":5945:5951   */\n      dup5\n        /* \"#utility.yul\":5901:5972   */\n      tag_105\n      jump\t// in\n    tag_122:\n        /* \"#utility.yul\":5757:5979   */\n      swap3\n      swap2\n      pop\n      pop\n      jump\t// out\n        /* \"#utility.yul\":5985:6114   */\n    tag_43:\n        /* \"#utility.yul\":6019:6025   */\n      0x00\n        /* \"#utility.yul\":6046:6066   */\n      tag_124\n      tag_125\n      jump\t// in\n    tag_124:\n        /* \"#utility.yul\":6036:6066   */\n      swap1\n      pop\n        /* \"#utility.yul\":6075:6108   */\n      tag_126\n        /* \"#utility.yul\":6103:6107   */\n      dup3\n        /* \"#utility.yul\":6095:6101   */\n      dup3\n        /* \"#utility.yul\":6075:6108   */\n      tag_127\n      jump\t// in\n    tag_126:\n        /* \"#utility.yul\":5985:6114   */\n      swap2\n      swap1\n      pop\n      jump\t// out\n        /* \"#utility.yul\":6120:6195   */\n    tag_125:\n        /* \"#utility.yul\":6153:6159   */\n      0x00\n        /* \"#utility.yul\":6186:6188   */\n      0x40\n        /* \"#utility.yul\":6180:6189   */\n      mload\n        /* \"#utility.yul\":6170:6189   */\n      swap1\n      pop\n        /* \"#utility.yul\":6120:6195   */\n      swap1\n      jump\t// out\n        /* \"#utility.yul\":6201:6509   */\n    tag_42:\n        /* \"#utility.yul\":6263:6267   */\n      0x00\n        /* \"#utility.yul\":6353:6371   */\n      0xffffffffffffffff\n        /* \"#utility.yul\":6345:6351   */\n      dup3\n        /* \"#utility.yul\":6342:6372   */\n      gt\n        /* \"#utility.yul\":6339:6395   */\n      iszero\n      tag_130\n      jumpi\n        /* \"#utility.yul\":6375:6393   */\n      tag_131\n      tag_132\n      jump\t// in\n    tag_131:\n        /* \"#utility.yul\":6339:6395   */\n    tag_130:\n        /* \"#utility.yul\":6413:6442   */\n      tag_133\n        /* \"#utility.yul\":6435:6441   */\n      dup3\n        /* \"#utility.yul\":6413:6442   */\n      tag_94\n      jump\t// in\n    tag_133:\n        /* \"#utility.yul\":6405:6442   */\n      swap1\n      pop\n        /* \"#utility.yul\":6497:6501   */\n      0x20\n        /* \"#utility.yul\":6491:6495   */\n      dup2\n        /* \"#utility.yul\":6487:6502   */\n      add\n        /* \"#utility.yul\":6479:6502   */\n      swap1\n      pop\n        /* \"#utility.yul\":6201:6509   */\n      swap2\n      swap1\n      pop\n      jump\t// out\n        /* \"#utility.yul\":6515:6614   */\n    tag_88:\n        /* \"#utility.yul\":6567:6573   */\n      0x00\n        /* \"#utility.yul\":6601:6606   */\n      dup2\n        /* \"#utility.yul\":6595:6607   */\n      mload\n        /* \"#utility.yul\":6585:6607   */\n      swap1\n      pop\n        /* \"#utility.yul\":6515:6614   */\n      swap2\n      swap1\n      pop\n      jump\t// out\n        /* \"#utility.yul\":6620:6789   */\n    tag_90:\n        /* \"#utility.yul\":6704:6715   */\n      0x00\n        /* \"#utility.yul\":6738:6744   */\n      dup3\n        /* \"#utility.yul\":6733:6736   */\n      dup3\n        /* \"#utility.yul\":6726:6745   */\n      mstore\n        /* \"#utility.yul\":6778:6782   */\n      0x20\n        /* \"#utility.yul\":6773:6776   */\n      dup3\n        /* \"#utility.yul\":6769:6783   */\n      add\n        /* \"#utility.yul\":6754:6783   */\n      swap1\n      pop\n        /* \"#utility.yul\":6620:6789   */\n      swap3\n      swap2\n      pop\n      pop\n      jump\t// out\n        /* \"#utility.yul\":6795:6891   */\n    tag_84:\n        /* \"#utility.yul\":6832:6839   */\n      0x00\n        /* \"#utility.yul\":6861:6885   */\n      tag_137\n        /* \"#utility.yul\":6879:6884   */\n      dup3\n        /* \"#utility.yul\":6861:6885   */\n      tag_138\n      jump\t// in\n    tag_137:\n        /* \"#utility.yul\":6850:6885   */\n      swap1\n      pop\n        /* \"#utility.yul\":6795:6891   */\n      swap2\n      swap1\n      pop\n      jump\t// out\n        /* \"#utility.yul\":6897:7023   */\n    tag_138:\n        /* \"#utility.yul\":6934:6941   */\n      0x00\n        /* \"#utility.yul\":6974:7016   */\n      0xffffffffffffffffffffffffffffffffffffffff\n        /* \"#utility.yul\":6967:6972   */\n      dup3\n        /* \"#utility.yul\":6963:7017   */\n      and\n        /* \"#utility.yul\":6952:7017   */\n      swap1\n      pop\n        /* \"#utility.yul\":6897:7023   */\n      swap2\n      swap1\n      pop\n      jump\t// out\n        /* \"#utility.yul\":7029:7106   */\n    tag_108:\n        /* \"#utility.yul\":7066:7073   */\n      0x00\n        /* \"#utility.yul\":7095:7100   */\n      dup2\n        /* \"#utility.yul\":7084:7100   */\n      swap1\n      pop\n        /* \"#utility.yul\":7029:7106   */\n      swap2\n      swap1\n      pop\n      jump\t// out\n        /* \"#utility.yul\":7112:7266   */\n    tag_48:\n        /* \"#utility.yul\":7196:7202   */\n      dup3\n        /* \"#utility.yul\":7191:7194   */\n      dup2\n        /* \"#utility.yul\":7186:7189   */\n      dup4\n        /* \"#utility.yul\":7173:7203   */\n      calldatacopy\n        /* \"#utility.yul\":7258:7259   */\n      0x00\n        /* \"#utility.yul\":7249:7255   */\n      dup4\n        /* \"#utility.yul\":7244:7247   */\n      dup4\n        /* \"#utility.yul\":7240:7256   */\n      add\n        /* \"#utility.yul\":7233:7260   */\n      mstore\n        /* \"#utility.yul\":7112:7266   */\n      pop\n      pop\n      pop\n      jump\t// out\n        /* \"#utility.yul\":7272:7579   */\n    tag_92:\n        /* \"#utility.yul\":7340:7341   */\n      0x00\n        /* \"#utility.yul\":7350:7463   */\n    tag_143:\n        /* \"#utility.yul\":7364:7370   */\n      dup4\n        /* \"#utility.yul\":7361:7362   */\n      dup2\n        /* \"#utility.yul\":7358:7371   */\n      lt\n        /* \"#utility.yul\":7350:7463   */\n      iszero\n      tag_145\n      jumpi\n        /* \"#utility.yul\":7449:7450   */\n      dup1\n        /* \"#utility.yul\":7444:7447   */\n      dup3\n        /* \"#utility.yul\":7440:7451   */\n      add\n        /* \"#utility.yul\":7434:7452   */\n      mload\n        /* \"#utility.yul\":7430:7431   */\n      dup2\n        /* \"#utility.yul\":7425:7428   */\n      dup5\n        /* \"#utility.yul\":7421:7432   */\n      add\n        /* \"#utility.yul\":7414:7453   */\n      mstore\n        /* \"#utility.yul\":7386:7388   */\n      0x20\n        /* \"#utility.yul\":7383:7384   */\n      dup2\n        /* \"#utility.yul\":7379:7389   */\n      add\n        /* \"#utility.yul\":7374:7389   */\n      swap1\n      pop\n        /* \"#utility.yul\":7350:7463   */\n      jump(tag_143)\n    tag_145:\n        /* \"#utility.yul\":7481:7487   */\n      dup4\n        /* \"#utility.yul\":7478:7479   */\n      dup2\n        /* \"#utility.yul\":7475:7488   */\n      gt\n        /* \"#utility.yul\":7472:7573   */\n      iszero\n      tag_146\n      jumpi\n        /* \"#utility.yul\":7561:7562   */\n      0x00\n        /* \"#utility.yul\":7552:7558   */\n      dup5\n        /* \"#utility.yul\":7547:7550   */\n      dup5\n        /* \"#utility.yul\":7543:7559   */\n      add\n        /* \"#utility.yul\":7536:7563   */\n      mstore\n        /* \"#utility.yul\":7472:7573   */\n    tag_146:\n        /* \"#utility.yul\":7321:7579   */\n      pop\n        /* \"#utility.yul\":7272:7579   */\n      pop\n      pop\n      pop\n      jump\t// out\n        /* \"#utility.yul\":7585:7866   */\n    tag_127:\n        /* \"#utility.yul\":7668:7695   */\n      tag_148\n        /* \"#utility.yul\":7690:7694   */\n      dup3\n        /* \"#utility.yul\":7668:7695   */\n      tag_94\n      jump\t// in\n    tag_148:\n        /* \"#utility.yul\":7660:7666   */\n      dup2\n        /* \"#utility.yul\":7656:7696   */\n      add\n        /* \"#utility.yul\":7798:7804   */\n      dup2\n        /* \"#utility.yul\":7786:7796   */\n      dup2\n        /* \"#utility.yul\":7783:7805   */\n      lt\n        /* \"#utility.yul\":7762:7780   */\n      0xffffffffffffffff\n        /* \"#utility.yul\":7750:7760   */\n      dup3\n        /* \"#utility.yul\":7747:7781   */\n      gt\n        /* \"#utility.yul\":7744:7806   */\n      or\n        /* \"#utility.yul\":7741:7829   */\n      iszero\n      tag_149\n      jumpi\n        /* \"#utility.yul\":7809:7827   */\n      tag_150\n      tag_132\n      jump\t// in\n    tag_150:\n        /* \"#utility.yul\":7741:7829   */\n    tag_149:\n        /* \"#utility.yul\":7849:7859   */\n      dup1\n        /* \"#utility.yul\":7845:7847   */\n      0x40\n        /* \"#utility.yul\":7838:7860   */\n      mstore\n        /* \"#utility.yul\":7628:7866   */\n      pop\n        /* \"#utility.yul\":7585:7866   */\n      pop\n      pop\n      jump\t// out\n        /* \"#utility.yul\":7872:8052   */\n    tag_132:\n        /* \"#utility.yul\":7920:7997   */\n      0x4e487b7100000000000000000000000000000000000000000000000000000000\n        /* \"#utility.yul\":7917:7918   */\n      0x00\n        /* \"#utility.yul\":7910:7998   */\n      mstore\n        /* \"#utility.yul\":8017:8021   */\n      0x41\n        /* \"#utility.yul\":8014:8015   */\n      0x04\n        /* \"#utility.yul\":8007:8022   */\n      mstore\n        /* \"#utility.yul\":8041:8045   */\n      0x24\n        /* \"#utility.yul\":8038:8039   */\n      0x00\n        /* \"#utility.yul\":8031:8046   */\n      revert\n        /* \"#utility.yul\":8058:8175   */\n    tag_57:\n        /* \"#utility.yul\":8167:8168   */\n      0x00\n        /* \"#utility.yul\":8164:8165   */\n      dup1\n        /* \"#utility.yul\":8157:8169   */\n      revert\n        /* \"#utility.yul\":8181:8298   */\n    tag_46:\n        /* \"#utility.yul\":8290:8291   */\n      0x00\n        /* \"#utility.yul\":8287:8288   */\n      dup1\n        /* \"#utility.yul\":8280:8292   */\n      revert\n        /* \"#utility.yul\":8304:8421   */\n    tag_78:\n        /* \"#utility.yul\":8413:8414   */\n      0x00\n        /* \"#utility.yul\":8410:8411   */\n      dup1\n        /* \"#utility.yul\":8403:8415   */\n      revert\n        /* \"#utility.yul\":8427:8544   */\n    tag_66:\n        /* \"#utility.yul\":8536:8537   */\n      0x00\n        /* \"#utility.yul\":8533:8534   */\n      dup1\n        /* \"#utility.yul\":8526:8538   */\n      revert\n        /* \"#utility.yul\":8550:8652   */\n    tag_94:\n        /* \"#utility.yul\":8591:8597   */\n      0x00\n        /* \"#utility.yul\":8642:8644   */\n      0x1f\n        /* \"#utility.yul\":8638:8645   */\n      not\n        /* \"#utility.yul\":8633:8635   */\n      0x1f\n        /* \"#utility.yul\":8626:8631   */\n      dup4\n        /* \"#utility.yul\":8622:8636   */\n      add\n        /* \"#utility.yul\":8618:8646   */\n      and\n        /* \"#utility.yul\":8608:8646   */\n      swap1\n      pop\n        /* \"#utility.yul\":8550:8652   */\n      swap2\n      swap1\n      pop\n      jump\t// out\n        /* \"#utility.yul\":8658:8882   */\n    tag_99:\n        /* \"#utility.yul\":8798:8832   */\n      0x596120746520656e6375656e74726173207265676973747261646f20656e2065\n        /* \"#utility.yul\":8794:8795   */\n      0x00\n        /* \"#utility.yul\":8786:8792   */\n      dup3\n        /* \"#utility.yul\":8782:8796   */\n      add\n        /* \"#utility.yul\":8775:8833   */\n      mstore\n        /* \"#utility.yul\":8867:8874   */\n      0x6c2067796d000000000000000000000000000000000000000000000000000000\n        /* \"#utility.yul\":8862:8864   */\n      0x20\n        /* \"#utility.yul\":8854:8860   */\n      dup3\n        /* \"#utility.yul\":8850:8865   */\n      add\n        /* \"#utility.yul\":8843:8875   */\n      mstore\n        /* \"#utility.yul\":8658:8882   */\n      pop\n      jump\t// out\n        /* \"#utility.yul\":8888:9123   */\n    tag_104:\n        /* \"#utility.yul\":9028:9062   */\n      0x536f6c6f20656c2041646d696e6973747261646f722064656c2047796d207075\n        /* \"#utility.yul\":9024:9025   */\n      0x00\n        /* \"#utility.yul\":9016:9022   */\n      dup3\n        /* \"#utility.yul\":9012:9026   */\n      add\n        /* \"#utility.yul\":9005:9063   */\n      mstore\n        /* \"#utility.yul\":9097:9115   */\n      0x65646520637265617220636c6173657300000000000000000000000000000000\n        /* \"#utility.yul\":9092:9094   */\n      0x20\n        /* \"#utility.yul\":9084:9090   */\n      dup3\n        /* \"#utility.yul\":9080:9095   */\n      add\n        /* \"#utility.yul\":9073:9116   */\n      mstore\n        /* \"#utility.yul\":8888:9123   */\n      pop\n      jump\t// out\n        /* \"#utility.yul\":9129:9251   */\n    tag_52:\n        /* \"#utility.yul\":9202:9226   */\n      tag_160\n        /* \"#utility.yul\":9220:9225   */\n      dup2\n        /* \"#utility.yul\":9202:9226   */\n      tag_84\n      jump\t// in\n    tag_160:\n        /* \"#utility.yul\":9195:9200   */\n      dup2\n        /* \"#utility.yul\":9192:9227   */\n      eq\n        /* \"#utility.yul\":9182:9245   */\n      tag_161\n      jumpi\n        /* \"#utility.yul\":9241:9242   */\n      0x00\n        /* \"#utility.yul\":9238:9239   */\n      dup1\n        /* \"#utility.yul\":9231:9243   */\n      revert\n        /* \"#utility.yul\":9182:9245   */\n    tag_161:\n        /* \"#utility.yul\":9129:9251   */\n      pop\n      jump\t// out\n        /* \"#utility.yul\":9257:9379   */\n    tag_62:\n        /* \"#utility.yul\":9330:9354   */\n      tag_163\n        /* \"#utility.yul\":9348:9353   */\n      dup2\n        /* \"#utility.yul\":9330:9354   */\n      tag_108\n      jump\t// in\n    tag_163:\n        /* \"#utility.yul\":9323:9328   */\n      dup2\n        /* \"#utility.yul\":9320:9355   */\n      eq\n        /* \"#utility.yul\":9310:9373   */\n      tag_164\n      jumpi\n        /* \"#utility.yul\":9369:9370   */\n      0x00\n        /* \"#utility.yul\":9366:9367   */\n      dup1\n        /* \"#utility.yul\":9359:9371   */\n      revert\n        /* \"#utility.yul\":9310:9373   */\n    tag_164:\n        /* \"#utility.yul\":9257:9379   */\n      pop\n      jump\t// out\n\n    auxdata: 0xa2646970667358221220469551680db46de421b18575ccd7d90a49238354f4e0c1d26f99372c45c82c9f64736f6c63430008070033\n}\n",
				"bytecode": {
					"linkReferences": {},
					"object": "60a060405234801561001057600080fd5b503373ffffffffffffffffffffffffffffffffffffffff1660808173ffffffffffffffffffffffffffffffffffffffff1660601b8152505060805160601c61082461006c6000396000818160d9015261011401526108246000f3fe608060405234801561001057600080fd5b506004361061004c5760003560e01c80632a0acc6a146100515780634852a2121461006f5780636d705ebb1461008b578063a87430ba146100a7575b600080fd5b6100596100d7565b60405161006691906104de565b60405180910390f35b610089600480360381019061008491906103e5565b6100fb565b005b6100a560048036038101906100a091906103a5565b6101c6565b005b6100c160048036038101906100bc9190610378565b6102c6565b6040516100ce9190610592565b60405180910390f35b7f000000000000000000000000000000000000000000000000000000000000000081565b3373ffffffffffffffffffffffffffffffffffffffff167f000000000000000000000000000000000000000000000000000000000000000073ffffffffffffffffffffffffffffffffffffffff1614610189576040517f08c379a000000000000000000000000000000000000000000000000000000000815260040161018090610572565b60405180910390fd5b7f14d49e3ea4f348b7f368906dfe1a63055c7822d622a61672a35a55ae97a768f982826040516101ba929190610522565b60405180910390a15050565b60008060003373ffffffffffffffffffffffffffffffffffffffff1673ffffffffffffffffffffffffffffffffffffffff1681526020019081526020016000205411610247576040517f08c379a000000000000000000000000000000000000000000000000000000000815260040161023e90610552565b60405180910390fd5b806000803373ffffffffffffffffffffffffffffffffffffffff1673ffffffffffffffffffffffffffffffffffffffff168152602001908152602001600020819055507e7dc6ab80cc84c043b7b8d4fcafc802187470087f7ea7fccd2e17aecd0256a182826040516102ba9291906104f9565b60405180910390a15050565b60006020528060005260406000206000915090505481565b60006102f16102ec846105d2565b6105ad565b90508281526020810184848401111561030d5761030c610702565b5b61031884828561065b565b509392505050565b60008135905061032f816107c0565b92915050565b600082601f83011261034a576103496106fd565b5b813561035a8482602086016102de565b91505092915050565b600081359050610372816107d7565b92915050565b60006020828403121561038e5761038d61070c565b5b600061039c84828501610320565b91505092915050565b600080604083850312156103bc576103bb61070c565b5b60006103ca85828601610320565b92505060206103db85828601610363565b9150509250929050565b600080604083850312156103fc576103fb61070c565b5b600083013567ffffffffffffffff81111561041a57610419610707565b5b61042685828601610335565b925050602061043785828601610363565b9150509250929050565b61044a8161061f565b82525050565b600061045b82610603565b610465818561060e565b935061047581856020860161066a565b61047e81610711565b840191505092915050565b600061049660258361060e565b91506104a182610722565b604082019050919050565b60006104b960308361060e565b91506104c482610771565b604082019050919050565b6104d881610651565b82525050565b60006020820190506104f36000830184610441565b92915050565b600060408201905061050e6000830185610441565b61051b60208301846104cf565b9392505050565b6000604082019050818103600083015261053c8185610450565b905061054b60208301846104cf565b9392505050565b6000602082019050818103600083015261056b81610489565b9050919050565b6000602082019050818103600083015261058b816104ac565b9050919050565b60006020820190506105a760008301846104cf565b92915050565b60006105b76105c8565b90506105c3828261069d565b919050565b6000604051905090565b600067ffffffffffffffff8211156105ed576105ec6106ce565b5b6105f682610711565b9050602081019050919050565b600081519050919050565b600082825260208201905092915050565b600061062a82610631565b9050919050565b600073ffffffffffffffffffffffffffffffffffffffff82169050919050565b6000819050919050565b82818337600083830152505050565b60005b8381101561068857808201518184015260208101905061066d565b83811115610697576000848401525b50505050565b6106a682610711565b810181811067ffffffffffffffff821117156106c5576106c46106ce565b5b80604052505050565b7f4e487b7100000000000000000000000000000000000000000000000000000000600052604160045260246000fd5b600080fd5b600080fd5b600080fd5b600080fd5b6000601f19601f8301169050919050565b7f596120746520656e6375656e74726173207265676973747261646f20656e206560008201527f6c2067796d000000000000000000000000000000000000000000000000000000602082015250565b7f536f6c6f20656c2041646d696e6973747261646f722064656c2047796d20707560008201527f65646520637265617220636c6173657300000000000000000000000000000000602082015250565b6107c98161061f565b81146107d457600080fd5b50565b6107e081610651565b81146107eb57600080fd5b5056fea2646970667358221220469551680db46de421b18575ccd7d90a49238354f4e0c1d26f99372c45c82c9f64736f6c63430008070033",
					"opcodes": "PUSH1 0xA0 PUSH1 0x40 MSTORE CALLVALUE DUP1 ISZERO PUSH2 0x10 JUMPI PUSH1 0x0 DUP1 REVERT JUMPDEST POP CALLER PUSH20 0xFFFFFFFFFFFFFFFFFFFFFFFFFFFFFFFFFFFFFFFF AND PUSH1 0x80 DUP2 PUSH20 0xFFFFFFFFFFFFFFFFFFFFFFFFFFFFFFFFFFFFFFFF AND PUSH1 0x60 SHL DUP2 MSTORE POP POP PUSH1 0x80 MLOAD PUSH1 0x60 SHR PUSH2 0x824 PUSH2 0x6C PUSH1 0x0 CODECOPY PUSH1 0x0 DUP2 DUP2 PUSH1 0xD9 ADD MSTORE PUSH2 0x114 ADD MSTORE PUSH2 0x824 PUSH1 0x0 RETURN INVALID PUSH1 0x80 PUSH1 0x40 MSTORE CALLVALUE DUP1 ISZERO PUSH2 0x10 JUMPI PUSH1 0x0 DUP1 REVERT JUMPDEST POP PUSH1 0x4 CALLDATASIZE LT PUSH2 0x4C JUMPI PUSH1 0x0 CALLDATALOAD PUSH1 0xE0 SHR DUP1 PUSH4 0x2A0ACC6A EQ PUSH2 0x51 JUMPI DUP1 PUSH4 0x4852A212 EQ PUSH2 0x6F JUMPI DUP1 PUSH4 0x6D705EBB EQ PUSH2 0x8B JUMPI DUP1 PUSH4 0xA87430BA EQ PUSH2 0xA7 JUMPI JUMPDEST PUSH1 0x0 DUP1 REVERT JUMPDEST PUSH2 0x59 PUSH2 0xD7 JUMP JUMPDEST PUSH1 0x40 MLOAD PUSH2 0x66 SWAP2 SWAP1 PUSH2 0x4DE JUMP JUMPDEST PUSH1 0x40 MLOAD DUP1 SWAP2 SUB SWAP1 RETURN JUMPDEST PUSH2 0x89 PUSH1 0x4 DUP1 CALLDATASIZE SUB DUP2 ADD SWAP1 PUSH2 0x84 SWAP2 SWAP1 PUSH2 0x3E5 JUMP JUMPDEST PUSH2 0xFB JUMP JUMPDEST STOP JUMPDEST PUSH2 0xA5 PUSH1 0x4 DUP1 CALLDATASIZE SUB DUP2 ADD SWAP1 PUSH2 0xA0 SWAP2 SWAP1 PUSH2 0x3A5 JUMP JUMPDEST PUSH2 0x1C6 JUMP JUMPDEST STOP JUMPDEST PUSH2 0xC1 PUSH1 0x4 DUP1 CALLDATASIZE SUB DUP2 ADD SWAP1 PUSH2 0xBC SWAP2 SWAP1 PUSH2 0x378 JUMP JUMPDEST PUSH2 0x2C6 JUMP JUMPDEST PUSH1 0x40 MLOAD PUSH2 0xCE SWAP2 SWAP1 PUSH2 0x592 JUMP JUMPDEST PUSH1 0x40 MLOAD DUP1 SWAP2 SUB SWAP1 RETURN JUMPDEST PUSH32 0x0 DUP2 JUMP JUMPDEST CALLER PUSH20 0xFFFFFFFFFFFFFFFFFFFFFFFFFFFFFFFFFFFFFFFF AND PUSH32 0x0 PUSH20 0xFFFFFFFFFFFFFFFFFFFFFFFFFFFFFFFFFFFFFFFF AND EQ PUSH2 0x189 JUMPI PUSH1 0x40 MLOAD PUSH32 0x8C379A000000000000000000000000000000000000000000000000000000000 DUP2 MSTORE PUSH1 0x4 ADD PUSH2 0x180 SWAP1 PUSH2 0x572 JUMP JUMPDEST PUSH1 0x40 MLOAD DUP1 SWAP2 SUB SWAP1 REVERT JUMPDEST PUSH32 0x14D49E3EA4F348B7F368906DFE1A63055C7822D622A61672A35A55AE97A768F9 DUP3 DUP3 PUSH1 0x40 MLOAD PUSH2 0x1BA SWAP3 SWAP2 SWAP1 PUSH2 0x522 JUMP JUMPDEST PUSH1 0x40 MLOAD DUP1 SWAP2 SUB SWAP1 LOG1 POP POP JUMP JUMPDEST PUSH1 0x0 DUP1 PUSH1 0x0 CALLER PUSH20 0xFFFFFFFFFFFFFFFFFFFFFFFFFFFFFFFFFFFFFFFF AND PUSH20 0xFFFFFFFFFFFFFFFFFFFFFFFFFFFFFFFFFFFFFFFF AND DUP2 MSTORE PUSH1 0x20 ADD SWAP1 DUP2 MSTORE PUSH1 0x20 ADD PUSH1 0x0 KECCAK256 SLOAD GT PUSH2 0x247 JUMPI PUSH1 0x40 MLOAD PUSH32 0x8C379A000000000000000000000000000000000000000000000000000000000 DUP2 MSTORE PUSH1 0x4 ADD PUSH2 0x23E SWAP1 PUSH2 0x552 JUMP JUMPDEST PUSH1 0x40 MLOAD DUP1 SWAP2 SUB SWAP1 REVERT JUMPDEST DUP1 PUSH1 0x0 DUP1 CALLER PUSH20 0xFFFFFFFFFFFFFFFFFFFFFFFFFFFFFFFFFFFFFFFF AND PUSH20 0xFFFFFFFFFFFFFFFFFFFFFFFFFFFFFFFFFFFFFFFF AND DUP2 MSTORE PUSH1 0x20 ADD SWAP1 DUP2 MSTORE PUSH1 0x20 ADD PUSH1 0x0 KECCAK256 DUP2 SWAP1 SSTORE POP PUSH31 0x7DC6AB80CC84C043B7B8D4FCAFC802187470087F7EA7FCCD2E17AECD0256A1 DUP3 DUP3 PUSH1 0x40 MLOAD PUSH2 0x2BA SWAP3 SWAP2 SWAP1 PUSH2 0x4F9 JUMP JUMPDEST PUSH1 0x40 MLOAD DUP1 SWAP2 SUB SWAP1 LOG1 POP POP JUMP JUMPDEST PUSH1 0x0 PUSH1 0x20 MSTORE DUP1 PUSH1 0x0 MSTORE PUSH1 0x40 PUSH1 0x0 KECCAK256 PUSH1 0x0 SWAP2 POP SWAP1 POP SLOAD DUP2 JUMP JUMPDEST PUSH1 0x0 PUSH2 0x2F1 PUSH2 0x2EC DUP5 PUSH2 0x5D2 JUMP JUMPDEST PUSH2 0x5AD JUMP JUMPDEST SWAP1 POP DUP3 DUP2 MSTORE PUSH1 0x20 DUP2 ADD DUP5 DUP5 DUP5 ADD GT ISZERO PUSH2 0x30D JUMPI PUSH2 0x30C PUSH2 0x702 JUMP JUMPDEST JUMPDEST PUSH2 0x318 DUP5 DUP3 DUP6 PUSH2 0x65B JUMP JUMPDEST POP SWAP4 SWAP3 POP POP POP JUMP JUMPDEST PUSH1 0x0 DUP2 CALLDATALOAD SWAP1 POP PUSH2 0x32F DUP2 PUSH2 0x7C0 JUMP JUMPDEST SWAP3 SWAP2 POP POP JUMP JUMPDEST PUSH1 0x0 DUP3 PUSH1 0x1F DUP4 ADD SLT PUSH2 0x34A JUMPI PUSH2 0x349 PUSH2 0x6FD JUMP JUMPDEST JUMPDEST DUP2 CALLDATALOAD PUSH2 0x35A DUP5 DUP3 PUSH1 0x20 DUP7 ADD PUSH2 0x2DE JUMP JUMPDEST SWAP2 POP POP SWAP3 SWAP2 POP POP JUMP JUMPDEST PUSH1 0x0 DUP2 CALLDATALOAD SWAP1 POP PUSH2 0x372 DUP2 PUSH2 0x7D7 JUMP JUMPDEST SWAP3 SWAP2 POP POP JUMP JUMPDEST PUSH1 0x0 PUSH1 0x20 DUP3 DUP5 SUB SLT ISZERO PUSH2 0x38E JUMPI PUSH2 0x38D PUSH2 0x70C JUMP JUMPDEST JUMPDEST PUSH1 0x0 PUSH2 0x39C DUP5 DUP3 DUP6 ADD PUSH2 0x320 JUMP JUMPDEST SWAP2 POP POP SWAP3 SWAP2 POP POP JUMP JUMPDEST PUSH1 0x0 DUP1 PUSH1 0x40 DUP4 DUP6 SUB SLT ISZERO PUSH2 0x3BC JUMPI PUSH2 0x3BB PUSH2 0x70C JUMP JUMPDEST JUMPDEST PUSH1 0x0 PUSH2 0x3CA DUP6 DUP3 DUP7 ADD PUSH2 0x320 JUMP JUMPDEST SWAP3 POP POP PUSH1 0x20 PUSH2 0x3DB DUP6 DUP3 DUP7 ADD PUSH2 0x363 JUMP JUMPDEST SWAP2 POP POP SWAP3 POP SWAP3 SWAP1 POP JUMP JUMPDEST PUSH1 0x0 DUP1 PUSH1 0x40 DUP4 DUP6 SUB SLT ISZERO PUSH2 0x3FC JUMPI PUSH2 0x3FB PUSH2 0x70C JUMP JUMPDEST JUMPDEST PUSH1 0x0 DUP4 ADD CALLDATALOAD PUSH8 0xFFFFFFFFFFFFFFFF DUP2 GT ISZERO PUSH2 0x41A JUMPI PUSH2 0x419 PUSH2 0x707 JUMP JUMPDEST JUMPDEST PUSH2 0x426 DUP6 DUP3 DUP7 ADD PUSH2 0x335 JUMP JUMPDEST SWAP3 POP POP PUSH1 0x20 PUSH2 0x437 DUP6 DUP3 DUP7 ADD PUSH2 0x363 JUMP JUMPDEST SWAP2 POP POP SWAP3 POP SWAP3 SWAP1 POP JUMP JUMPDEST PUSH2 0x44A DUP2 PUSH2 0x61F JUMP JUMPDEST DUP3 MSTORE POP POP JUMP JUMPDEST PUSH1 0x0 PUSH2 0x45B DUP3 PUSH2 0x603 JUMP JUMPDEST PUSH2 0x465 DUP2 DUP6 PUSH2 0x60E JUMP JUMPDEST SWAP4 POP PUSH2 0x475 DUP2 DUP6 PUSH1 0x20 DUP7 ADD PUSH2 0x66A JUMP JUMPDEST PUSH2 0x47E DUP2 PUSH2 0x711 JUMP JUMPDEST DUP5 ADD SWAP2 POP POP SWAP3 SWAP2 POP POP JUMP JUMPDEST PUSH1 0x0 PUSH2 0x496 PUSH1 0x25 DUP4 PUSH2 0x60E JUMP JUMPDEST SWAP2 POP PUSH2 0x4A1 DUP3 PUSH2 0x722 JUMP JUMPDEST PUSH1 0x40 DUP3 ADD SWAP1 POP SWAP2 SWAP1 POP JUMP JUMPDEST PUSH1 0x0 PUSH2 0x4B9 PUSH1 0x30 DUP4 PUSH2 0x60E JUMP JUMPDEST SWAP2 POP PUSH2 0x4C4 DUP3 PUSH2 0x771 JUMP JUMPDEST PUSH1 0x40 DUP3 ADD SWAP1 POP SWAP2 SWAP1 POP JUMP JUMPDEST PUSH2 0x4D8 DUP2 PUSH2 0x651 JUMP JUMPDEST DUP3 MSTORE POP POP JUMP JUMPDEST PUSH1 0x0 PUSH1 0x20 DUP3 ADD SWAP1 POP PUSH2 0x4F3 PUSH1 0x0 DUP4 ADD DUP5 PUSH2 0x441 JUMP JUMPDEST SWAP3 SWAP2 POP POP JUMP JUMPDEST PUSH1 0x0 PUSH1 0x40 DUP3 ADD SWAP1 POP PUSH2 0x50E PUSH1 0x0 DUP4 ADD DUP6 PUSH2 0x441 JUMP JUMPDEST PUSH2 0x51B PUSH1 0x20 DUP4 ADD DUP5 PUSH2 0x4CF JUMP JUMPDEST SWAP4 SWAP3 POP POP POP JUMP JUMPDEST PUSH1 0x0 PUSH1 0x40 DUP3 ADD SWAP1 POP DUP2 DUP2 SUB PUSH1 0x0 DUP4 ADD MSTORE PUSH2 0x53C DUP2 DUP6 PUSH2 0x450 JUMP JUMPDEST SWAP1 POP PUSH2 0x54B PUSH1 0x20 DUP4 ADD DUP5 PUSH2 0x4CF JUMP JUMPDEST SWAP4 SWAP3 POP POP POP JUMP JUMPDEST PUSH1 0x0 PUSH1 0x20 DUP3 ADD SWAP1 POP DUP2 DUP2 SUB PUSH1 0x0 DUP4 ADD MSTORE PUSH2 0x56B DUP2 PUSH2 0x489 JUMP JUMPDEST SWAP1 POP SWAP2 SWAP1 POP JUMP JUMPDEST PUSH1 0x0 PUSH1 0x20 DUP3 ADD SWAP1 POP DUP2 DUP2 SUB PUSH1 0x0 DUP4 ADD MSTORE PUSH2 0x58B DUP2 PUSH2 0x4AC JUMP JUMPDEST SWAP1 POP SWAP2 SWAP1 POP JUMP JUMPDEST PUSH1 0x0 PUSH1 0x20 DUP3 ADD SWAP1 POP PUSH2 0x5A7 PUSH1 0x0 DUP4 ADD DUP5 PUSH2 0x4CF JUMP JUMPDEST SWAP3 SWAP2 POP POP JUMP JUMPDEST PUSH1 0x0 PUSH2 0x5B7 PUSH2 0x5C8 JUMP JUMPDEST SWAP1 POP PUSH2 0x5C3 DUP3 DUP3 PUSH2 0x69D JUMP JUMPDEST SWAP2 SWAP1 POP JUMP JUMPDEST PUSH1 0x0 PUSH1 0x40 MLOAD SWAP1 POP SWAP1 JUMP JUMPDEST PUSH1 0x0 PUSH8 0xFFFFFFFFFFFFFFFF DUP3 GT ISZERO PUSH2 0x5ED JUMPI PUSH2 0x5EC PUSH2 0x6CE JUMP JUMPDEST JUMPDEST PUSH2 0x5F6 DUP3 PUSH2 0x711 JUMP JUMPDEST SWAP1 POP PUSH1 0x20 DUP2 ADD SWAP1 POP SWAP2 SWAP1 POP JUMP JUMPDEST PUSH1 0x0 DUP2 MLOAD SWAP1 POP SWAP2 SWAP1 POP JUMP JUMPDEST PUSH1 0x0 DUP3 DUP3 MSTORE PUSH1 0x20 DUP3 ADD SWAP1 POP SWAP3 SWAP2 POP POP JUMP JUMPDEST PUSH1 0x0 PUSH2 0x62A DUP3 PUSH2 0x631 JUMP JUMPDEST SWAP1 POP SWAP2 SWAP1 POP JUMP JUMPDEST PUSH1 0x0 PUSH20 0xFFFFFFFFFFFFFFFFFFFFFFFFFFFFFFFFFFFFFFFF DUP3 AND SWAP1 POP SWAP2 SWAP1 POP JUMP JUMPDEST PUSH1 0x0 DUP2 SWAP1 POP SWAP2 SWAP1 POP JUMP JUMPDEST DUP3 DUP2 DUP4 CALLDATACOPY PUSH1 0x0 DUP4 DUP4 ADD MSTORE POP POP POP JUMP JUMPDEST PUSH1 0x0 JUMPDEST DUP4 DUP2 LT ISZERO PUSH2 0x688 JUMPI DUP1 DUP3 ADD MLOAD DUP2 DUP5 ADD MSTORE PUSH1 0x20 DUP2 ADD SWAP1 POP PUSH2 0x66D JUMP JUMPDEST DUP4 DUP2 GT ISZERO PUSH2 0x697 JUMPI PUSH1 0x0 DUP5 DUP5 ADD MSTORE JUMPDEST POP POP POP POP JUMP JUMPDEST PUSH2 0x6A6 DUP3 PUSH2 0x711 JUMP JUMPDEST DUP2 ADD DUP2 DUP2 LT PUSH8 0xFFFFFFFFFFFFFFFF DUP3 GT OR ISZERO PUSH2 0x6C5 JUMPI PUSH2 0x6C4 PUSH2 0x6CE JUMP JUMPDEST JUMPDEST DUP1 PUSH1 0x40 MSTORE POP POP POP JUMP JUMPDEST PUSH32 0x4E487B7100000000000000000000000000000000000000000000000000000000 PUSH1 0x0 MSTORE PUSH1 0x41 PUSH1 0x4 MSTORE PUSH1 0x24 PUSH1 0x0 REVERT JUMPDEST PUSH1 0x0 DUP1 REVERT JUMPDEST PUSH1 0x0 DUP1 REVERT JUMPDEST PUSH1 0x0 DUP1 REVERT JUMPDEST PUSH1 0x0 DUP1 REVERT JUMPDEST PUSH1 0x0 PUSH1 0x1F NOT PUSH1 0x1F DUP4 ADD AND SWAP1 POP SWAP2 SWAP1 POP JUMP JUMPDEST PUSH32 0x596120746520656E6375656E74726173207265676973747261646F20656E2065 PUSH1 0x0 DUP3 ADD MSTORE PUSH32 0x6C2067796D000000000000000000000000000000000000000000000000000000 PUSH1 0x20 DUP3 ADD MSTORE POP JUMP JUMPDEST PUSH32 0x536F6C6F20656C2041646D696E6973747261646F722064656C2047796D207075 PUSH1 0x0 DUP3 ADD MSTORE PUSH32 0x65646520637265617220636C6173657300000000000000000000000000000000 PUSH1 0x20 DUP3 ADD MSTORE POP JUMP JUMPDEST PUSH2 0x7C9 DUP2 PUSH2 0x61F JUMP JUMPDEST DUP2 EQ PUSH2 0x7D4 JUMPI PUSH1 0x0 DUP1 REVERT JUMPDEST POP JUMP JUMPDEST PUSH2 0x7E0 DUP2 PUSH2 0x651 JUMP JUMPDEST DUP2 EQ PUSH2 0x7EB JUMPI PUSH1 0x0 DUP1 REVERT JUMPDEST POP JUMP INVALID LOG2 PUSH5 0x6970667358 0x22 SLT KECCAK256 CHAINID SWAP6 MLOAD PUSH9 0xDB46DE421B18575CC 0xD7 0xD9 EXP 0x49 0x23 DUP4 SLOAD DELEGATECALL 0xE0 0xC1 0xD2 PUSH16 0x99372C45C82C9F64736F6C6343000807 STOP CALLER "
				},
				"gasEstimates": {
					"creation": {
						"codeDepositCost": "416800",
						"executionCost": "infinite",
						"totalCost": "infinite"
					},
					"external": {
						"ADMIN()": "infinite",
						"createClass(string,uint256)": "infinite",
						"register(address,uint256)": "infinite",
						"users(address)": "2858"
					}
				},
				"methodIdentifiers": {
					"ADMIN()": "2a0acc6a",
					"createClass(string,uint256)": "4852a212",
					"register(address,uint256)": "6d705ebb",
					"users(address)": "a87430ba"
				}
			},
			"storageLayout": {
				"storage": [
					{
						"astId": 33,
						"contract": "contracts/Gym_Contact.sol:gym",
						"label": "users",
						"offset": 0,
						"slot": "0",
						"type": "t_mapping(t_address,t_uint256)"
					}
				],
				"types": {
					"t_address": {
						"encoding": "inplace",
						"label": "address",
						"numberOfBytes": "20"
					},
					"t_mapping(t_address,t_uint256)": {
						"encoding": "mapping",
						"key": "t_address",
						"label": "mapping(address => uint256)",
						"numberOfBytes": "32",
						"value": "t_uint256"
					},
					"t_uint256": {
						"encoding": "inplace",
						"label": "uint256",
						"numberOfBytes": "32"
					}
				}
			},
			"userdoc": {
				"kind": "user",
				"methods": {},
				"version": 1
			}
		}
	}
}