{
	"contracts/Gym_Contact.sol": {
		"gym": {
			"abi": [
				{
					"inputs": [],
					"stateMutability": "nonpayable",
					"type": "constructor"
				},
				{
					"anonymous": false,
					"inputs": [
						{
							"indexed": false,
							"internalType": "string",
							"name": "name",
							"type": "string"
						},
						{
							"indexed": false,
							"internalType": "uint256",
							"name": "value",
							"type": "uint256"
						}
					],
					"name": "ClassCreated",
					"type": "event"
				},
				{
					"anonymous": false,
					"inputs": [
						{
							"indexed": false,
							"internalType": "address",
							"name": "user",
							"type": "address"
						},
						{
							"indexed": false,
							"internalType": "uint256",
							"name": "credits",
							"type": "uint256"
						}
					],
					"name": "Register",
					"type": "event"
				},
				{
					"inputs": [],
					"name": "ADMIN",
					"outputs": [
						{
							"internalType": "address",
							"name": "",
							"type": "address"
						}
					],
					"stateMutability": "view",
					"type": "function"
				},
				{
					"inputs": [
						{
							"internalType": "address",
							"name": "",
							"type": "address"
						},
						{
							"internalType": "string",
							"name": "",
							"type": "string"
						}
					],
					"name": "clases",
					"outputs": [
						{
							"internalType": "string",
							"name": "name",
							"type": "string"
						},
						{
							"internalType": "uint256",
							"name": "value",
							"type": "uint256"
						}
					],
					"stateMutability": "view",
					"type": "function"
				},
				{
					"inputs": [],
					"name": "class",
					"outputs": [
						{
							"internalType": "string",
							"name": "name",
							"type": "string"
						},
						{
							"internalType": "uint256",
							"name": "value",
							"type": "uint256"
						}
					],
					"stateMutability": "view",
					"type": "function"
				},
				{
					"inputs": [
						{
							"internalType": "string",
							"name": "_name",
							"type": "string"
						},
						{
							"internalType": "uint256",
							"name": "_value",
							"type": "uint256"
						}
					],
					"name": "createClass",
					"outputs": [],
					"stateMutability": "nonpayable",
					"type": "function"
				},
				{
					"inputs": [],
					"name": "getBalance",
					"outputs": [
						{
							"internalType": "address",
							"name": "",
							"type": "address"
						},
						{
							"internalType": "uint256",
							"name": "",
							"type": "uint256"
						}
					],
					"stateMutability": "view",
					"type": "function"
				},
				{
					"inputs": [],
					"name": "getClass",
					"outputs": [],
					"stateMutability": "view",
					"type": "function"
				},
				{
					"inputs": [
						{
							"internalType": "address",
							"name": "_address",
							"type": "address"
						},
						{
							"internalType": "uint256",
							"name": "_credits",
							"type": "uint256"
						}
					],
					"name": "register",
					"outputs": [],
					"stateMutability": "nonpayable",
					"type": "function"
				},
				{
					"inputs": [
						{
							"internalType": "address",
							"name": "",
							"type": "address"
						}
					],
					"name": "users",
					"outputs": [
						{
							"internalType": "uint256",
							"name": "",
							"type": "uint256"
						}
					],
					"stateMutability": "view",
					"type": "function"
				}
			],
			"devdoc": {
				"kind": "dev",
				"methods": {},
				"version": 1
			},
			"evm": {
				"assembly": "    /* \"contracts/Gym_Contact.sol\":70:1706  contract gym {\r... */\n  mstore(0x40, 0xa0)\n    /* \"contracts/Gym_Contact.sol\":389:440  constructor() {\r... */\n  callvalue\n  dup1\n  iszero\n  tag_1\n  jumpi\n  0x00\n  dup1\n  revert\ntag_1:\n  pop\n    /* \"contracts/Gym_Contact.sol\":422:432  msg.sender */\n  caller\n    /* \"contracts/Gym_Contact.sol\":414:432  ADMIN = msg.sender */\n  0xffffffffffffffffffffffffffffffffffffffff\n  and\n  0x80\n  dup2\n  0xffffffffffffffffffffffffffffffffffffffff\n  and\n  0x60\n  shl\n  dup2\n  mstore\n  pop\n  pop\n    /* \"contracts/Gym_Contact.sol\":70:1706  contract gym {\r... */\n  shr(0x60, mload(0x80))\n  codecopy(0x00, dataOffset(sub_0), dataSize(sub_0))\n  0x00\n  assignImmutable(\"0x731dc163f73d31d8c68f9917ce4ff967753939f70432973c04fd2c2a48148607\")\n  return(0x00, dataSize(sub_0))\nstop\n\nsub_0: assembly {\n        /* \"contracts/Gym_Contact.sol\":70:1706  contract gym {\r... */\n      mstore(0x40, 0x80)\n      callvalue\n      dup1\n      iszero\n      tag_1\n      jumpi\n      0x00\n      dup1\n      revert\n    tag_1:\n      pop\n      jumpi(tag_2, lt(calldatasize, 0x04))\n      shr(0xe0, calldataload(0x00))\n      dup1\n      0x57e61ea4\n      gt\n      tag_11\n      jumpi\n      dup1\n      0x57e61ea4\n      eq\n      tag_7\n      jumpi\n      dup1\n      0x6d705ebb\n      eq\n      tag_8\n      jumpi\n      dup1\n      0xa87430ba\n      eq\n      tag_9\n      jumpi\n      dup1\n      0xbff852fa\n      eq\n      tag_10\n      jumpi\n      jump(tag_2)\n    tag_11:\n      dup1\n      0x035af4ca\n      eq\n      tag_3\n      jumpi\n      dup1\n      0x12065fe0\n      eq\n      tag_4\n      jumpi\n      dup1\n      0x2a0acc6a\n      eq\n      tag_5\n      jumpi\n      dup1\n      0x4852a212\n      eq\n      tag_6\n      jumpi\n    tag_2:\n      0x00\n      dup1\n      revert\n        /* \"contracts/Gym_Contact.sol\":555:612  mapping(address =>mapping(string => Class)) public clases */\n    tag_3:\n      tag_12\n      0x04\n      dup1\n      calldatasize\n      sub\n      dup2\n      add\n      swap1\n      tag_13\n      swap2\n      swap1\n      tag_14\n      jump\t// in\n    tag_13:\n      tag_15\n      jump\t// in\n    tag_12:\n      mload(0x40)\n      tag_16\n      swap3\n      swap2\n      swap1\n      tag_17\n      jump\t// in\n    tag_16:\n      mload(0x40)\n      dup1\n      swap2\n      sub\n      swap1\n      return\n        /* \"contracts/Gym_Contact.sol\":1455:1568  function getBalance() public view returns(address, uint){\r... */\n    tag_4:\n      tag_18\n      tag_19\n      jump\t// in\n    tag_18:\n      mload(0x40)\n      tag_20\n      swap3\n      swap2\n      swap1\n      tag_21\n      jump\t// in\n    tag_20:\n      mload(0x40)\n      dup1\n      swap2\n      sub\n      swap1\n      return\n        /* \"contracts/Gym_Contact.sol\":350:380  address immutable public ADMIN */\n    tag_5:\n      tag_22\n      tag_23\n      jump\t// in\n    tag_22:\n      mload(0x40)\n      tag_24\n      swap2\n      swap1\n      tag_25\n      jump\t// in\n    tag_24:\n      mload(0x40)\n      dup1\n      swap2\n      sub\n      swap1\n      return\n        /* \"contracts/Gym_Contact.sol\":721:1023  function createClass(string memory _name, uint _value) public {\r... */\n    tag_6:\n      tag_26\n      0x04\n      dup1\n      calldatasize\n      sub\n      dup2\n      add\n      swap1\n      tag_27\n      swap2\n      swap1\n      tag_28\n      jump\t// in\n    tag_27:\n      tag_29\n      jump\t// in\n    tag_26:\n      stop\n        /* \"contracts/Gym_Contact.sol\":1576:1631  function getClass() public view{\r... */\n    tag_7:\n      tag_30\n      tag_31\n      jump\t// in\n    tag_30:\n      stop\n        /* \"contracts/Gym_Contact.sol\":1061:1447  function register(address _address, uint _credits) public {\r... */\n    tag_8:\n      tag_32\n      0x04\n      dup1\n      calldatasize\n      sub\n      dup2\n      add\n      swap1\n      tag_33\n      swap2\n      swap1\n      tag_34\n      jump\t// in\n    tag_33:\n      tag_35\n      jump\t// in\n    tag_32:\n      stop\n        /* \"contracts/Gym_Contact.sol\":464:501  mapping(address => uint) public users */\n    tag_9:\n      tag_36\n      0x04\n      dup1\n      calldatasize\n      sub\n      dup2\n      add\n      swap1\n      tag_37\n      swap2\n      swap1\n      tag_38\n      jump\t// in\n    tag_37:\n      tag_39\n      jump\t// in\n    tag_36:\n      mload(0x40)\n      tag_40\n      swap2\n      swap1\n      tag_41\n      jump\t// in\n    tag_40:\n      mload(0x40)\n      dup1\n      swap2\n      sub\n      swap1\n      return\n        /* \"contracts/Gym_Contact.sol\":665:683  Class public class */\n    tag_10:\n      tag_42\n      tag_43\n      jump\t// in\n    tag_42:\n      mload(0x40)\n      tag_44\n      swap3\n      swap2\n      swap1\n      tag_17\n      jump\t// in\n    tag_44:\n      mload(0x40)\n      dup1\n      swap2\n      sub\n      swap1\n      return\n        /* \"contracts/Gym_Contact.sol\":555:612  mapping(address =>mapping(string => Class)) public clases */\n    tag_15:\n      mstore(0x20, 0x01)\n      dup2\n      0x00\n      mstore\n      keccak256(0x00, 0x40)\n      dup2\n      dup1\n      mload\n      0x20\n      dup2\n      add\n      dup3\n      add\n      dup1\n      mload\n      dup5\n      dup3\n      mstore\n      0x20\n      dup4\n      add\n      0x20\n      dup6\n      add\n      keccak256\n      dup2\n      dup4\n      mstore\n      dup1\n      swap6\n      pop\n      pop\n      pop\n      pop\n      pop\n      pop\n      0x00\n      swap2\n      pop\n      swap2\n      pop\n      pop\n      dup1\n      0x00\n      add\n      dup1\n      sload\n      tag_45\n      swap1\n      tag_46\n      jump\t// in\n    tag_45:\n      dup1\n      0x1f\n      add\n      0x20\n      dup1\n      swap2\n      div\n      mul\n      0x20\n      add\n      mload(0x40)\n      swap1\n      dup2\n      add\n      0x40\n      mstore\n      dup1\n      swap3\n      swap2\n      swap1\n      dup2\n      dup2\n      mstore\n      0x20\n      add\n      dup3\n      dup1\n      sload\n      tag_47\n      swap1\n      tag_46\n      jump\t// in\n    tag_47:\n      dup1\n      iszero\n      tag_48\n      jumpi\n      dup1\n      0x1f\n      lt\n      tag_49\n      jumpi\n      0x0100\n      dup1\n      dup4\n      sload\n      div\n      mul\n      dup4\n      mstore\n      swap2\n      0x20\n      add\n      swap2\n      jump(tag_48)\n    tag_49:\n      dup3\n      add\n      swap2\n      swap1\n      0x00\n      mstore\n      keccak256(0x00, 0x20)\n      swap1\n    tag_50:\n      dup2\n      sload\n      dup2\n      mstore\n      swap1\n      0x01\n      add\n      swap1\n      0x20\n      add\n      dup1\n      dup4\n      gt\n      tag_50\n      jumpi\n      dup3\n      swap1\n      sub\n      0x1f\n      and\n      dup3\n      add\n      swap2\n    tag_48:\n      pop\n      pop\n      pop\n      pop\n      pop\n      swap1\n      dup1\n      0x01\n      add\n      sload\n      swap1\n      pop\n      dup3\n      jump\t// out\n        /* \"contracts/Gym_Contact.sol\":1455:1568  function getBalance() public view returns(address, uint){\r... */\n    tag_19:\n        /* \"contracts/Gym_Contact.sol\":1497:1504  address */\n      0x00\n        /* \"contracts/Gym_Contact.sol\":1506:1510  uint */\n      dup1\n        /* \"contracts/Gym_Contact.sol\":1530:1540  msg.sender */\n      caller\n        /* \"contracts/Gym_Contact.sol\":1542:1547  users */\n      0x00\n        /* \"contracts/Gym_Contact.sol\":1542:1559  users[msg.sender] */\n      dup1\n        /* \"contracts/Gym_Contact.sol\":1548:1558  msg.sender */\n      caller\n        /* \"contracts/Gym_Contact.sol\":1542:1559  users[msg.sender] */\n      0xffffffffffffffffffffffffffffffffffffffff\n      and\n      0xffffffffffffffffffffffffffffffffffffffff\n      and\n      dup2\n      mstore\n      0x20\n      add\n      swap1\n      dup2\n      mstore\n      0x20\n      add\n      0x00\n      keccak256\n      sload\n        /* \"contracts/Gym_Contact.sol\":1522:1560  return (msg.sender, users[msg.sender]) */\n      swap2\n      pop\n      swap2\n      pop\n        /* \"contracts/Gym_Contact.sol\":1455:1568  function getBalance() public view returns(address, uint){\r... */\n      swap1\n      swap2\n      jump\t// out\n        /* \"contracts/Gym_Contact.sol\":350:380  address immutable public ADMIN */\n    tag_23:\n      immutable(\"0x731dc163f73d31d8c68f9917ce4ff967753939f70432973c04fd2c2a48148607\")\n      dup2\n      jump\t// out\n        /* \"contracts/Gym_Contact.sol\":721:1023  function createClass(string memory _name, uint _value) public {\r... */\n    tag_29:\n        /* \"contracts/Gym_Contact.sol\":811:821  msg.sender */\n      caller\n        /* \"contracts/Gym_Contact.sol\":802:821  ADMIN == msg.sender */\n      0xffffffffffffffffffffffffffffffffffffffff\n      and\n        /* \"contracts/Gym_Contact.sol\":802:807  ADMIN */\n      immutable(\"0x731dc163f73d31d8c68f9917ce4ff967753939f70432973c04fd2c2a48148607\")\n        /* \"contracts/Gym_Contact.sol\":802:821  ADMIN == msg.sender */\n      0xffffffffffffffffffffffffffffffffffffffff\n      and\n      eq\n        /* \"contracts/Gym_Contact.sol\":794:874  require(ADMIN == msg.sender, \"Solo el Administrador del Gym puede crear clases\") */\n      tag_53\n      jumpi\n      mload(0x40)\n      0x08c379a000000000000000000000000000000000000000000000000000000000\n      dup2\n      mstore\n      0x04\n      add\n      tag_54\n      swap1\n      tag_55\n      jump\t// in\n    tag_54:\n      mload(0x40)\n      dup1\n      swap2\n      sub\n      swap1\n      revert\n    tag_53:\n        /* \"contracts/Gym_Contact.sol\":913:933  Class(_name, _value) */\n      mload(0x40)\n      dup1\n      0x40\n      add\n      0x40\n      mstore\n      dup1\n        /* \"contracts/Gym_Contact.sol\":919:924  _name */\n      dup4\n        /* \"contracts/Gym_Contact.sol\":913:933  Class(_name, _value) */\n      dup2\n      mstore\n      0x20\n      add\n        /* \"contracts/Gym_Contact.sol\":926:932  _value */\n      dup3\n        /* \"contracts/Gym_Contact.sol\":913:933  Class(_name, _value) */\n      dup2\n      mstore\n      pop\n        /* \"contracts/Gym_Contact.sol\":885:891  clases */\n      0x01\n        /* \"contracts/Gym_Contact.sol\":885:903  clases[msg.sender] */\n      0x00\n        /* \"contracts/Gym_Contact.sol\":892:902  msg.sender */\n      caller\n        /* \"contracts/Gym_Contact.sol\":885:903  clases[msg.sender] */\n      0xffffffffffffffffffffffffffffffffffffffff\n      and\n      0xffffffffffffffffffffffffffffffffffffffff\n      and\n      dup2\n      mstore\n      0x20\n      add\n      swap1\n      dup2\n      mstore\n      0x20\n      add\n      0x00\n      keccak256\n        /* \"contracts/Gym_Contact.sol\":904:909  _name */\n      dup4\n        /* \"contracts/Gym_Contact.sol\":885:910  clases[msg.sender][_name] */\n      mload(0x40)\n      tag_56\n      swap2\n      swap1\n      tag_57\n      jump\t// in\n    tag_56:\n      swap1\n      dup2\n      mstore\n      0x20\n      add\n      mload(0x40)\n      dup1\n      swap2\n      sub\n      swap1\n      keccak256\n        /* \"contracts/Gym_Contact.sol\":885:933  clases[msg.sender][_name] = Class(_name, _value) */\n      0x00\n      dup3\n      add\n      mload\n      dup2\n      0x00\n      add\n      swap1\n      dup1\n      mload\n      swap1\n      0x20\n      add\n      swap1\n      tag_58\n      swap3\n      swap2\n      swap1\n      tag_59\n      jump\t// in\n    tag_58:\n      pop\n      0x20\n      dup3\n      add\n      mload\n      dup2\n      0x01\n      add\n      sstore\n      swap1\n      pop\n      pop\n        /* \"contracts/Gym_Contact.sol\":949:976  ClassCreated(_name, _value) */\n      0x14d49e3ea4f348b7f368906dfe1a63055c7822d622a61672a35a55ae97a768f9\n        /* \"contracts/Gym_Contact.sol\":962:967  _name */\n      dup3\n        /* \"contracts/Gym_Contact.sol\":969:975  _value */\n      dup3\n        /* \"contracts/Gym_Contact.sol\":949:976  ClassCreated(_name, _value) */\n      mload(0x40)\n      tag_60\n      swap3\n      swap2\n      swap1\n      tag_17\n      jump\t// in\n    tag_60:\n      mload(0x40)\n      dup1\n      swap2\n      sub\n      swap1\n      log1\n        /* \"contracts/Gym_Contact.sol\":721:1023  function createClass(string memory _name, uint _value) public {\r... */\n      pop\n      pop\n      jump\t// out\n        /* \"contracts/Gym_Contact.sol\":1576:1631  function getClass() public view{\r... */\n    tag_31:\n      jump\t// out\n        /* \"contracts/Gym_Contact.sol\":1061:1447  function register(address _address, uint _credits) public {\r... */\n    tag_35:\n        /* \"contracts/Gym_Contact.sol\":1262:1263  0 */\n      0x00\n        /* \"contracts/Gym_Contact.sol\":1241:1246  users */\n      dup1\n        /* \"contracts/Gym_Contact.sol\":1241:1258  users[msg.sender] */\n      0x00\n        /* \"contracts/Gym_Contact.sol\":1247:1257  msg.sender */\n      caller\n        /* \"contracts/Gym_Contact.sol\":1241:1258  users[msg.sender] */\n      0xffffffffffffffffffffffffffffffffffffffff\n      and\n      0xffffffffffffffffffffffffffffffffffffffff\n      and\n      dup2\n      mstore\n      0x20\n      add\n      swap1\n      dup2\n      mstore\n      0x20\n      add\n      0x00\n      keccak256\n      sload\n        /* \"contracts/Gym_Contact.sol\":1241:1263  users[msg.sender] == 0 */\n      eq\n        /* \"contracts/Gym_Contact.sol\":1233:1305  require(users[msg.sender] == 0, \"Ya te encuentras registrado en el gym\") */\n      tag_63\n      jumpi\n      mload(0x40)\n      0x08c379a000000000000000000000000000000000000000000000000000000000\n      dup2\n      mstore\n      0x04\n      add\n      tag_64\n      swap1\n      tag_65\n      jump\t// in\n    tag_64:\n      mload(0x40)\n      dup1\n      swap2\n      sub\n      swap1\n      revert\n    tag_63:\n        /* \"contracts/Gym_Contact.sol\":1336:1344  _credits */\n      dup1\n        /* \"contracts/Gym_Contact.sol\":1316:1321  users */\n      0x00\n        /* \"contracts/Gym_Contact.sol\":1316:1333  users[msg.sender] */\n      dup1\n        /* \"contracts/Gym_Contact.sol\":1322:1332  msg.sender */\n      caller\n        /* \"contracts/Gym_Contact.sol\":1316:1333  users[msg.sender] */\n      0xffffffffffffffffffffffffffffffffffffffff\n      and\n      0xffffffffffffffffffffffffffffffffffffffff\n      and\n      dup2\n      mstore\n      0x20\n      add\n      swap1\n      dup2\n      mstore\n      0x20\n      add\n      0x00\n      keccak256\n        /* \"contracts/Gym_Contact.sol\":1316:1344  users[msg.sender] = _credits */\n      dup2\n      swap1\n      sstore\n      pop\n        /* \"contracts/Gym_Contact.sol\":1360:1388  Register(_address, _credits) */\n      0x7dc6ab80cc84c043b7b8d4fcafc802187470087f7ea7fccd2e17aecd0256a1\n        /* \"contracts/Gym_Contact.sol\":1369:1377  _address */\n      dup3\n        /* \"contracts/Gym_Contact.sol\":1379:1387  _credits */\n      dup3\n        /* \"contracts/Gym_Contact.sol\":1360:1388  Register(_address, _credits) */\n      mload(0x40)\n      tag_66\n      swap3\n      swap2\n      swap1\n      tag_21\n      jump\t// in\n    tag_66:\n      mload(0x40)\n      dup1\n      swap2\n      sub\n      swap1\n      log1\n        /* \"contracts/Gym_Contact.sol\":1061:1447  function register(address _address, uint _credits) public {\r... */\n      pop\n      pop\n      jump\t// out\n        /* \"contracts/Gym_Contact.sol\":464:501  mapping(address => uint) public users */\n    tag_39:\n      mstore(0x20, 0x00)\n      dup1\n      0x00\n      mstore\n      keccak256(0x00, 0x40)\n      0x00\n      swap2\n      pop\n      swap1\n      pop\n      sload\n      dup2\n      jump\t// out\n        /* \"contracts/Gym_Contact.sol\":665:683  Class public class */\n    tag_43:\n      0x02\n      dup1\n      0x00\n      add\n      dup1\n      sload\n      tag_67\n      swap1\n      tag_46\n      jump\t// in\n    tag_67:\n      dup1\n      0x1f\n      add\n      0x20\n      dup1\n      swap2\n      div\n      mul\n      0x20\n      add\n      mload(0x40)\n      swap1\n      dup2\n      add\n      0x40\n      mstore\n      dup1\n      swap3\n      swap2\n      swap1\n      dup2\n      dup2\n      mstore\n      0x20\n      add\n      dup3\n      dup1\n      sload\n      tag_68\n      swap1\n      tag_46\n      jump\t// in\n    tag_68:\n      dup1\n      iszero\n      tag_69\n      jumpi\n      dup1\n      0x1f\n      lt\n      tag_70\n      jumpi\n      0x0100\n      dup1\n      dup4\n      sload\n      div\n      mul\n      dup4\n      mstore\n      swap2\n      0x20\n      add\n      swap2\n      jump(tag_69)\n    tag_70:\n      dup3\n      add\n      swap2\n      swap1\n      0x00\n      mstore\n      keccak256(0x00, 0x20)\n      swap1\n    tag_71:\n      dup2\n      sload\n      dup2\n      mstore\n      swap1\n      0x01\n      add\n      swap1\n      0x20\n      add\n      dup1\n      dup4\n      gt\n      tag_71\n      jumpi\n      dup3\n      swap1\n      sub\n      0x1f\n      and\n      dup3\n      add\n      swap2\n    tag_69:\n      pop\n      pop\n      pop\n      pop\n      pop\n      swap1\n      dup1\n      0x01\n      add\n      sload\n      swap1\n      pop\n      dup3\n      jump\t// out\n    tag_59:\n      dup3\n      dup1\n      sload\n      tag_72\n      swap1\n      tag_46\n      jump\t// in\n    tag_72:\n      swap1\n      0x00\n      mstore\n      keccak256(0x00, 0x20)\n      swap1\n      0x1f\n      add\n      0x20\n      swap1\n      div\n      dup2\n      add\n      swap3\n      dup3\n      tag_74\n      jumpi\n      0x00\n      dup6\n      sstore\n      jump(tag_73)\n    tag_74:\n      dup3\n      0x1f\n      lt\n      tag_75\n      jumpi\n      dup1\n      mload\n      not(0xff)\n      and\n      dup4\n      dup1\n      add\n      or\n      dup6\n      sstore\n      jump(tag_73)\n    tag_75:\n      dup3\n      dup1\n      add\n      0x01\n      add\n      dup6\n      sstore\n      dup3\n      iszero\n      tag_73\n      jumpi\n      swap2\n      dup3\n      add\n    tag_76:\n      dup3\n      dup2\n      gt\n      iszero\n      tag_77\n      jumpi\n      dup3\n      mload\n      dup3\n      sstore\n      swap2\n      0x20\n      add\n      swap2\n      swap1\n      0x01\n      add\n      swap1\n      jump(tag_76)\n    tag_77:\n    tag_73:\n      pop\n      swap1\n      pop\n      tag_78\n      swap2\n      swap1\n      tag_79\n      jump\t// in\n    tag_78:\n      pop\n      swap1\n      jump\t// out\n    tag_79:\n    tag_80:\n      dup1\n      dup3\n      gt\n      iszero\n      tag_81\n      jumpi\n      0x00\n      dup2\n      0x00\n      swap1\n      sstore\n      pop\n      0x01\n      add\n      jump(tag_80)\n    tag_81:\n      pop\n      swap1\n      jump\t// out\n        /* \"#utility.yul\":7:419   */\n    tag_83:\n        /* \"#utility.yul\":85:90   */\n      0x00\n        /* \"#utility.yul\":110:176   */\n      tag_85\n        /* \"#utility.yul\":126:175   */\n      tag_86\n        /* \"#utility.yul\":168:174   */\n      dup5\n        /* \"#utility.yul\":126:175   */\n      tag_87\n      jump\t// in\n    tag_86:\n        /* \"#utility.yul\":110:176   */\n      tag_88\n      jump\t// in\n    tag_85:\n        /* \"#utility.yul\":101:176   */\n      swap1\n      pop\n        /* \"#utility.yul\":199:205   */\n      dup3\n        /* \"#utility.yul\":192:197   */\n      dup2\n        /* \"#utility.yul\":185:206   */\n      mstore\n        /* \"#utility.yul\":237:241   */\n      0x20\n        /* \"#utility.yul\":230:235   */\n      dup2\n        /* \"#utility.yul\":226:242   */\n      add\n        /* \"#utility.yul\":275:278   */\n      dup5\n        /* \"#utility.yul\":266:272   */\n      dup5\n        /* \"#utility.yul\":261:264   */\n      dup5\n        /* \"#utility.yul\":257:273   */\n      add\n        /* \"#utility.yul\":254:279   */\n      gt\n        /* \"#utility.yul\":251:363   */\n      iszero\n      tag_89\n      jumpi\n        /* \"#utility.yul\":282:361   */\n      tag_90\n      tag_91\n      jump\t// in\n    tag_90:\n        /* \"#utility.yul\":251:363   */\n    tag_89:\n        /* \"#utility.yul\":372:413   */\n      tag_92\n        /* \"#utility.yul\":406:412   */\n      dup5\n        /* \"#utility.yul\":401:404   */\n      dup3\n        /* \"#utility.yul\":396:399   */\n      dup6\n        /* \"#utility.yul\":372:413   */\n      tag_93\n      jump\t// in\n    tag_92:\n        /* \"#utility.yul\":91:419   */\n      pop\n        /* \"#utility.yul\":7:419   */\n      swap4\n      swap3\n      pop\n      pop\n      pop\n      jump\t// out\n        /* \"#utility.yul\":425:564   */\n    tag_94:\n        /* \"#utility.yul\":471:476   */\n      0x00\n        /* \"#utility.yul\":509:515   */\n      dup2\n        /* \"#utility.yul\":496:516   */\n      calldataload\n        /* \"#utility.yul\":487:516   */\n      swap1\n      pop\n        /* \"#utility.yul\":525:558   */\n      tag_96\n        /* \"#utility.yul\":552:557   */\n      dup2\n        /* \"#utility.yul\":525:558   */\n      tag_97\n      jump\t// in\n    tag_96:\n        /* \"#utility.yul\":425:564   */\n      swap3\n      swap2\n      pop\n      pop\n      jump\t// out\n        /* \"#utility.yul\":584:924   */\n    tag_98:\n        /* \"#utility.yul\":640:645   */\n      0x00\n        /* \"#utility.yul\":689:692   */\n      dup3\n        /* \"#utility.yul\":682:686   */\n      0x1f\n        /* \"#utility.yul\":674:680   */\n      dup4\n        /* \"#utility.yul\":670:687   */\n      add\n        /* \"#utility.yul\":666:693   */\n      slt\n        /* \"#utility.yul\":656:778   */\n      tag_100\n      jumpi\n        /* \"#utility.yul\":697:776   */\n      tag_101\n      tag_102\n      jump\t// in\n    tag_101:\n        /* \"#utility.yul\":656:778   */\n    tag_100:\n        /* \"#utility.yul\":814:820   */\n      dup2\n        /* \"#utility.yul\":801:821   */\n      calldataload\n        /* \"#utility.yul\":839:918   */\n      tag_103\n        /* \"#utility.yul\":914:917   */\n      dup5\n        /* \"#utility.yul\":906:912   */\n      dup3\n        /* \"#utility.yul\":899:903   */\n      0x20\n        /* \"#utility.yul\":891:897   */\n      dup7\n        /* \"#utility.yul\":887:904   */\n      add\n        /* \"#utility.yul\":839:918   */\n      tag_83\n      jump\t// in\n    tag_103:\n        /* \"#utility.yul\":830:918   */\n      swap2\n      pop\n        /* \"#utility.yul\":646:924   */\n      pop\n        /* \"#utility.yul\":584:924   */\n      swap3\n      swap2\n      pop\n      pop\n      jump\t// out\n        /* \"#utility.yul\":930:1069   */\n    tag_104:\n        /* \"#utility.yul\":976:981   */\n      0x00\n        /* \"#utility.yul\":1014:1020   */\n      dup2\n        /* \"#utility.yul\":1001:1021   */\n      calldataload\n        /* \"#utility.yul\":992:1021   */\n      swap1\n      pop\n        /* \"#utility.yul\":1030:1063   */\n      tag_106\n        /* \"#utility.yul\":1057:1062   */\n      dup2\n        /* \"#utility.yul\":1030:1063   */\n      tag_107\n      jump\t// in\n    tag_106:\n        /* \"#utility.yul\":930:1069   */\n      swap3\n      swap2\n      pop\n      pop\n      jump\t// out\n        /* \"#utility.yul\":1075:1404   */\n    tag_38:\n        /* \"#utility.yul\":1134:1140   */\n      0x00\n        /* \"#utility.yul\":1183:1185   */\n      0x20\n        /* \"#utility.yul\":1171:1180   */\n      dup3\n        /* \"#utility.yul\":1162:1169   */\n      dup5\n        /* \"#utility.yul\":1158:1181   */\n      sub\n        /* \"#utility.yul\":1154:1186   */\n      slt\n        /* \"#utility.yul\":1151:1270   */\n      iszero\n      tag_109\n      jumpi\n        /* \"#utility.yul\":1189:1268   */\n      tag_110\n      tag_111\n      jump\t// in\n    tag_110:\n        /* \"#utility.yul\":1151:1270   */\n    tag_109:\n        /* \"#utility.yul\":1309:1310   */\n      0x00\n        /* \"#utility.yul\":1334:1387   */\n      tag_112\n        /* \"#utility.yul\":1379:1386   */\n      dup5\n        /* \"#utility.yul\":1370:1376   */\n      dup3\n        /* \"#utility.yul\":1359:1368   */\n      dup6\n        /* \"#utility.yul\":1355:1377   */\n      add\n        /* \"#utility.yul\":1334:1387   */\n      tag_94\n      jump\t// in\n    tag_112:\n        /* \"#utility.yul\":1324:1387   */\n      swap2\n      pop\n        /* \"#utility.yul\":1280:1397   */\n      pop\n        /* \"#utility.yul\":1075:1404   */\n      swap3\n      swap2\n      pop\n      pop\n      jump\t// out\n        /* \"#utility.yul\":1410:2064   */\n    tag_14:\n        /* \"#utility.yul\":1488:1494   */\n      0x00\n        /* \"#utility.yul\":1496:1502   */\n      dup1\n        /* \"#utility.yul\":1545:1547   */\n      0x40\n        /* \"#utility.yul\":1533:1542   */\n      dup4\n        /* \"#utility.yul\":1524:1531   */\n      dup6\n        /* \"#utility.yul\":1520:1543   */\n      sub\n        /* \"#utility.yul\":1516:1548   */\n      slt\n        /* \"#utility.yul\":1513:1632   */\n      iszero\n      tag_114\n      jumpi\n        /* \"#utility.yul\":1551:1630   */\n      tag_115\n      tag_111\n      jump\t// in\n    tag_115:\n        /* \"#utility.yul\":1513:1632   */\n    tag_114:\n        /* \"#utility.yul\":1671:1672   */\n      0x00\n        /* \"#utility.yul\":1696:1749   */\n      tag_116\n        /* \"#utility.yul\":1741:1748   */\n      dup6\n        /* \"#utility.yul\":1732:1738   */\n      dup3\n        /* \"#utility.yul\":1721:1730   */\n      dup7\n        /* \"#utility.yul\":1717:1739   */\n      add\n        /* \"#utility.yul\":1696:1749   */\n      tag_94\n      jump\t// in\n    tag_116:\n        /* \"#utility.yul\":1686:1749   */\n      swap3\n      pop\n        /* \"#utility.yul\":1642:1759   */\n      pop\n        /* \"#utility.yul\":1826:1828   */\n      0x20\n        /* \"#utility.yul\":1815:1824   */\n      dup4\n        /* \"#utility.yul\":1811:1829   */\n      add\n        /* \"#utility.yul\":1798:1830   */\n      calldataload\n        /* \"#utility.yul\":1857:1875   */\n      0xffffffffffffffff\n        /* \"#utility.yul\":1849:1855   */\n      dup2\n        /* \"#utility.yul\":1846:1876   */\n      gt\n        /* \"#utility.yul\":1843:1960   */\n      iszero\n      tag_117\n      jumpi\n        /* \"#utility.yul\":1879:1958   */\n      tag_118\n      tag_119\n      jump\t// in\n    tag_118:\n        /* \"#utility.yul\":1843:1960   */\n    tag_117:\n        /* \"#utility.yul\":1984:2047   */\n      tag_120\n        /* \"#utility.yul\":2039:2046   */\n      dup6\n        /* \"#utility.yul\":2030:2036   */\n      dup3\n        /* \"#utility.yul\":2019:2028   */\n      dup7\n        /* \"#utility.yul\":2015:2037   */\n      add\n        /* \"#utility.yul\":1984:2047   */\n      tag_98\n      jump\t// in\n    tag_120:\n        /* \"#utility.yul\":1974:2047   */\n      swap2\n      pop\n        /* \"#utility.yul\":1769:2057   */\n      pop\n        /* \"#utility.yul\":1410:2064   */\n      swap3\n      pop\n      swap3\n      swap1\n      pop\n      jump\t// out\n        /* \"#utility.yul\":2070:2544   */\n    tag_34:\n        /* \"#utility.yul\":2138:2144   */\n      0x00\n        /* \"#utility.yul\":2146:2152   */\n      dup1\n        /* \"#utility.yul\":2195:2197   */\n      0x40\n        /* \"#utility.yul\":2183:2192   */\n      dup4\n        /* \"#utility.yul\":2174:2181   */\n      dup6\n        /* \"#utility.yul\":2170:2193   */\n      sub\n        /* \"#utility.yul\":2166:2198   */\n      slt\n        /* \"#utility.yul\":2163:2282   */\n      iszero\n      tag_122\n      jumpi\n        /* \"#utility.yul\":2201:2280   */\n      tag_123\n      tag_111\n      jump\t// in\n    tag_123:\n        /* \"#utility.yul\":2163:2282   */\n    tag_122:\n        /* \"#utility.yul\":2321:2322   */\n      0x00\n        /* \"#utility.yul\":2346:2399   */\n      tag_124\n        /* \"#utility.yul\":2391:2398   */\n      dup6\n        /* \"#utility.yul\":2382:2388   */\n      dup3\n        /* \"#utility.yul\":2371:2380   */\n      dup7\n        /* \"#utility.yul\":2367:2389   */\n      add\n        /* \"#utility.yul\":2346:2399   */\n      tag_94\n      jump\t// in\n    tag_124:\n        /* \"#utility.yul\":2336:2399   */\n      swap3\n      pop\n        /* \"#utility.yul\":2292:2409   */\n      pop\n        /* \"#utility.yul\":2448:2450   */\n      0x20\n        /* \"#utility.yul\":2474:2527   */\n      tag_125\n        /* \"#utility.yul\":2519:2526   */\n      dup6\n        /* \"#utility.yul\":2510:2516   */\n      dup3\n        /* \"#utility.yul\":2499:2508   */\n      dup7\n        /* \"#utility.yul\":2495:2517   */\n      add\n        /* \"#utility.yul\":2474:2527   */\n      tag_104\n      jump\t// in\n    tag_125:\n        /* \"#utility.yul\":2464:2527   */\n      swap2\n      pop\n        /* \"#utility.yul\":2419:2537   */\n      pop\n        /* \"#utility.yul\":2070:2544   */\n      swap3\n      pop\n      swap3\n      swap1\n      pop\n      jump\t// out\n        /* \"#utility.yul\":2550:3204   */\n    tag_28:\n        /* \"#utility.yul\":2628:2634   */\n      0x00\n        /* \"#utility.yul\":2636:2642   */\n      dup1\n        /* \"#utility.yul\":2685:2687   */\n      0x40\n        /* \"#utility.yul\":2673:2682   */\n      dup4\n        /* \"#utility.yul\":2664:2671   */\n      dup6\n        /* \"#utility.yul\":2660:2683   */\n      sub\n        /* \"#utility.yul\":2656:2688   */\n      slt\n        /* \"#utility.yul\":2653:2772   */\n      iszero\n      tag_127\n      jumpi\n        /* \"#utility.yul\":2691:2770   */\n      tag_128\n      tag_111\n      jump\t// in\n    tag_128:\n        /* \"#utility.yul\":2653:2772   */\n    tag_127:\n        /* \"#utility.yul\":2839:2840   */\n      0x00\n        /* \"#utility.yul\":2828:2837   */\n      dup4\n        /* \"#utility.yul\":2824:2841   */\n      add\n        /* \"#utility.yul\":2811:2842   */\n      calldataload\n        /* \"#utility.yul\":2869:2887   */\n      0xffffffffffffffff\n        /* \"#utility.yul\":2861:2867   */\n      dup2\n        /* \"#utility.yul\":2858:2888   */\n      gt\n        /* \"#utility.yul\":2855:2972   */\n      iszero\n      tag_129\n      jumpi\n        /* \"#utility.yul\":2891:2970   */\n      tag_130\n      tag_119\n      jump\t// in\n    tag_130:\n        /* \"#utility.yul\":2855:2972   */\n    tag_129:\n        /* \"#utility.yul\":2996:3059   */\n      tag_131\n        /* \"#utility.yul\":3051:3058   */\n      dup6\n        /* \"#utility.yul\":3042:3048   */\n      dup3\n        /* \"#utility.yul\":3031:3040   */\n      dup7\n        /* \"#utility.yul\":3027:3049   */\n      add\n        /* \"#utility.yul\":2996:3059   */\n      tag_98\n      jump\t// in\n    tag_131:\n        /* \"#utility.yul\":2986:3059   */\n      swap3\n      pop\n        /* \"#utility.yul\":2782:3069   */\n      pop\n        /* \"#utility.yul\":3108:3110   */\n      0x20\n        /* \"#utility.yul\":3134:3187   */\n      tag_132\n        /* \"#utility.yul\":3179:3186   */\n      dup6\n        /* \"#utility.yul\":3170:3176   */\n      dup3\n        /* \"#utility.yul\":3159:3168   */\n      dup7\n        /* \"#utility.yul\":3155:3177   */\n      add\n        /* \"#utility.yul\":3134:3187   */\n      tag_104\n      jump\t// in\n    tag_132:\n        /* \"#utility.yul\":3124:3187   */\n      swap2\n      pop\n        /* \"#utility.yul\":3079:3197   */\n      pop\n        /* \"#utility.yul\":2550:3204   */\n      swap3\n      pop\n      swap3\n      swap1\n      pop\n      jump\t// out\n        /* \"#utility.yul\":3210:3328   */\n    tag_133:\n        /* \"#utility.yul\":3297:3321   */\n      tag_135\n        /* \"#utility.yul\":3315:3320   */\n      dup2\n        /* \"#utility.yul\":3297:3321   */\n      tag_136\n      jump\t// in\n    tag_135:\n        /* \"#utility.yul\":3292:3295   */\n      dup3\n        /* \"#utility.yul\":3285:3322   */\n      mstore\n        /* \"#utility.yul\":3210:3328   */\n      pop\n      pop\n      jump\t// out\n        /* \"#utility.yul\":3334:3698   */\n    tag_137:\n        /* \"#utility.yul\":3422:3425   */\n      0x00\n        /* \"#utility.yul\":3450:3489   */\n      tag_139\n        /* \"#utility.yul\":3483:3488   */\n      dup3\n        /* \"#utility.yul\":3450:3489   */\n      tag_140\n      jump\t// in\n    tag_139:\n        /* \"#utility.yul\":3505:3576   */\n      tag_141\n        /* \"#utility.yul\":3569:3575   */\n      dup2\n        /* \"#utility.yul\":3564:3567   */\n      dup6\n        /* \"#utility.yul\":3505:3576   */\n      tag_142\n      jump\t// in\n    tag_141:\n        /* \"#utility.yul\":3498:3576   */\n      swap4\n      pop\n        /* \"#utility.yul\":3585:3637   */\n      tag_143\n        /* \"#utility.yul\":3630:3636   */\n      dup2\n        /* \"#utility.yul\":3625:3628   */\n      dup6\n        /* \"#utility.yul\":3618:3622   */\n      0x20\n        /* \"#utility.yul\":3611:3616   */\n      dup7\n        /* \"#utility.yul\":3607:3623   */\n      add\n        /* \"#utility.yul\":3585:3637   */\n      tag_144\n      jump\t// in\n    tag_143:\n        /* \"#utility.yul\":3662:3691   */\n      tag_145\n        /* \"#utility.yul\":3684:3690   */\n      dup2\n        /* \"#utility.yul\":3662:3691   */\n      tag_146\n      jump\t// in\n    tag_145:\n        /* \"#utility.yul\":3657:3660   */\n      dup5\n        /* \"#utility.yul\":3653:3692   */\n      add\n        /* \"#utility.yul\":3646:3692   */\n      swap2\n      pop\n        /* \"#utility.yul\":3426:3698   */\n      pop\n        /* \"#utility.yul\":3334:3698   */\n      swap3\n      swap2\n      pop\n      pop\n      jump\t// out\n        /* \"#utility.yul\":3704:4081   */\n    tag_147:\n        /* \"#utility.yul\":3810:3813   */\n      0x00\n        /* \"#utility.yul\":3838:3877   */\n      tag_149\n        /* \"#utility.yul\":3871:3876   */\n      dup3\n        /* \"#utility.yul\":3838:3877   */\n      tag_140\n      jump\t// in\n    tag_149:\n        /* \"#utility.yul\":3893:3982   */\n      tag_150\n        /* \"#utility.yul\":3975:3981   */\n      dup2\n        /* \"#utility.yul\":3970:3973   */\n      dup6\n        /* \"#utility.yul\":3893:3982   */\n      tag_151\n      jump\t// in\n    tag_150:\n        /* \"#utility.yul\":3886:3982   */\n      swap4\n      pop\n        /* \"#utility.yul\":3991:4043   */\n      tag_152\n        /* \"#utility.yul\":4036:4042   */\n      dup2\n        /* \"#utility.yul\":4031:4034   */\n      dup6\n        /* \"#utility.yul\":4024:4028   */\n      0x20\n        /* \"#utility.yul\":4017:4022   */\n      dup7\n        /* \"#utility.yul\":4013:4029   */\n      add\n        /* \"#utility.yul\":3991:4043   */\n      tag_144\n      jump\t// in\n    tag_152:\n        /* \"#utility.yul\":4068:4074   */\n      dup1\n        /* \"#utility.yul\":4063:4066   */\n      dup5\n        /* \"#utility.yul\":4059:4075   */\n      add\n        /* \"#utility.yul\":4052:4075   */\n      swap2\n      pop\n        /* \"#utility.yul\":3814:4081   */\n      pop\n        /* \"#utility.yul\":3704:4081   */\n      swap3\n      swap2\n      pop\n      pop\n      jump\t// out\n        /* \"#utility.yul\":4087:4453   */\n    tag_153:\n        /* \"#utility.yul\":4229:4232   */\n      0x00\n        /* \"#utility.yul\":4250:4317   */\n      tag_155\n        /* \"#utility.yul\":4314:4316   */\n      0x25\n        /* \"#utility.yul\":4309:4312   */\n      dup4\n        /* \"#utility.yul\":4250:4317   */\n      tag_142\n      jump\t// in\n    tag_155:\n        /* \"#utility.yul\":4243:4317   */\n      swap2\n      pop\n        /* \"#utility.yul\":4326:4419   */\n      tag_156\n        /* \"#utility.yul\":4415:4418   */\n      dup3\n        /* \"#utility.yul\":4326:4419   */\n      tag_157\n      jump\t// in\n    tag_156:\n        /* \"#utility.yul\":4444:4446   */\n      0x40\n        /* \"#utility.yul\":4439:4442   */\n      dup3\n        /* \"#utility.yul\":4435:4447   */\n      add\n        /* \"#utility.yul\":4428:4447   */\n      swap1\n      pop\n        /* \"#utility.yul\":4087:4453   */\n      swap2\n      swap1\n      pop\n      jump\t// out\n        /* \"#utility.yul\":4459:4825   */\n    tag_158:\n        /* \"#utility.yul\":4601:4604   */\n      0x00\n        /* \"#utility.yul\":4622:4689   */\n      tag_160\n        /* \"#utility.yul\":4686:4688   */\n      0x30\n        /* \"#utility.yul\":4681:4684   */\n      dup4\n        /* \"#utility.yul\":4622:4689   */\n      tag_142\n      jump\t// in\n    tag_160:\n        /* \"#utility.yul\":4615:4689   */\n      swap2\n      pop\n        /* \"#utility.yul\":4698:4791   */\n      tag_161\n        /* \"#utility.yul\":4787:4790   */\n      dup3\n        /* \"#utility.yul\":4698:4791   */\n      tag_162\n      jump\t// in\n    tag_161:\n        /* \"#utility.yul\":4816:4818   */\n      0x40\n        /* \"#utility.yul\":4811:4814   */\n      dup3\n        /* \"#utility.yul\":4807:4819   */\n      add\n        /* \"#utility.yul\":4800:4819   */\n      swap1\n      pop\n        /* \"#utility.yul\":4459:4825   */\n      swap2\n      swap1\n      pop\n      jump\t// out\n        /* \"#utility.yul\":4831:4949   */\n    tag_163:\n        /* \"#utility.yul\":4918:4942   */\n      tag_165\n        /* \"#utility.yul\":4936:4941   */\n      dup2\n        /* \"#utility.yul\":4918:4942   */\n      tag_166\n      jump\t// in\n    tag_165:\n        /* \"#utility.yul\":4913:4916   */\n      dup3\n        /* \"#utility.yul\":4906:4943   */\n      mstore\n        /* \"#utility.yul\":4831:4949   */\n      pop\n      pop\n      jump\t// out\n        /* \"#utility.yul\":4955:5230   */\n    tag_57:\n        /* \"#utility.yul\":5087:5090   */\n      0x00\n        /* \"#utility.yul\":5109:5204   */\n      tag_168\n        /* \"#utility.yul\":5200:5203   */\n      dup3\n        /* \"#utility.yul\":5191:5197   */\n      dup5\n        /* \"#utility.yul\":5109:5204   */\n      tag_147\n      jump\t// in\n    tag_168:\n        /* \"#utility.yul\":5102:5204   */\n      swap2\n      pop\n        /* \"#utility.yul\":5221:5224   */\n      dup2\n        /* \"#utility.yul\":5214:5224   */\n      swap1\n      pop\n        /* \"#utility.yul\":4955:5230   */\n      swap3\n      swap2\n      pop\n      pop\n      jump\t// out\n        /* \"#utility.yul\":5236:5458   */\n    tag_25:\n        /* \"#utility.yul\":5329:5333   */\n      0x00\n        /* \"#utility.yul\":5367:5369   */\n      0x20\n        /* \"#utility.yul\":5356:5365   */\n      dup3\n        /* \"#utility.yul\":5352:5370   */\n      add\n        /* \"#utility.yul\":5344:5370   */\n      swap1\n      pop\n        /* \"#utility.yul\":5380:5451   */\n      tag_170\n        /* \"#utility.yul\":5448:5449   */\n      0x00\n        /* \"#utility.yul\":5437:5446   */\n      dup4\n        /* \"#utility.yul\":5433:5450   */\n      add\n        /* \"#utility.yul\":5424:5430   */\n      dup5\n        /* \"#utility.yul\":5380:5451   */\n      tag_133\n      jump\t// in\n    tag_170:\n        /* \"#utility.yul\":5236:5458   */\n      swap3\n      swap2\n      pop\n      pop\n      jump\t// out\n        /* \"#utility.yul\":5464:5796   */\n    tag_21:\n        /* \"#utility.yul\":5585:5589   */\n      0x00\n        /* \"#utility.yul\":5623:5625   */\n      0x40\n        /* \"#utility.yul\":5612:5621   */\n      dup3\n        /* \"#utility.yul\":5608:5626   */\n      add\n        /* \"#utility.yul\":5600:5626   */\n      swap1\n      pop\n        /* \"#utility.yul\":5636:5707   */\n      tag_172\n        /* \"#utility.yul\":5704:5705   */\n      0x00\n        /* \"#utility.yul\":5693:5702   */\n      dup4\n        /* \"#utility.yul\":5689:5706   */\n      add\n        /* \"#utility.yul\":5680:5686   */\n      dup6\n        /* \"#utility.yul\":5636:5707   */\n      tag_133\n      jump\t// in\n    tag_172:\n        /* \"#utility.yul\":5717:5789   */\n      tag_173\n        /* \"#utility.yul\":5785:5787   */\n      0x20\n        /* \"#utility.yul\":5774:5783   */\n      dup4\n        /* \"#utility.yul\":5770:5788   */\n      add\n        /* \"#utility.yul\":5761:5767   */\n      dup5\n        /* \"#utility.yul\":5717:5789   */\n      tag_163\n      jump\t// in\n    tag_173:\n        /* \"#utility.yul\":5464:5796   */\n      swap4\n      swap3\n      pop\n      pop\n      pop\n      jump\t// out\n        /* \"#utility.yul\":5802:6225   */\n    tag_17:\n        /* \"#utility.yul\":5943:5947   */\n      0x00\n        /* \"#utility.yul\":5981:5983   */\n      0x40\n        /* \"#utility.yul\":5970:5979   */\n      dup3\n        /* \"#utility.yul\":5966:5984   */\n      add\n        /* \"#utility.yul\":5958:5984   */\n      swap1\n      pop\n        /* \"#utility.yul\":6030:6039   */\n      dup2\n        /* \"#utility.yul\":6024:6028   */\n      dup2\n        /* \"#utility.yul\":6020:6040   */\n      sub\n        /* \"#utility.yul\":6016:6017   */\n      0x00\n        /* \"#utility.yul\":6005:6014   */\n      dup4\n        /* \"#utility.yul\":6001:6018   */\n      add\n        /* \"#utility.yul\":5994:6041   */\n      mstore\n        /* \"#utility.yul\":6058:6136   */\n      tag_175\n        /* \"#utility.yul\":6131:6135   */\n      dup2\n        /* \"#utility.yul\":6122:6128   */\n      dup6\n        /* \"#utility.yul\":6058:6136   */\n      tag_137\n      jump\t// in\n    tag_175:\n        /* \"#utility.yul\":6050:6136   */\n      swap1\n      pop\n        /* \"#utility.yul\":6146:6218   */\n      tag_176\n        /* \"#utility.yul\":6214:6216   */\n      0x20\n        /* \"#utility.yul\":6203:6212   */\n      dup4\n        /* \"#utility.yul\":6199:6217   */\n      add\n        /* \"#utility.yul\":6190:6196   */\n      dup5\n        /* \"#utility.yul\":6146:6218   */\n      tag_163\n      jump\t// in\n    tag_176:\n        /* \"#utility.yul\":5802:6225   */\n      swap4\n      swap3\n      pop\n      pop\n      pop\n      jump\t// out\n        /* \"#utility.yul\":6231:6650   */\n    tag_65:\n        /* \"#utility.yul\":6397:6401   */\n      0x00\n        /* \"#utility.yul\":6435:6437   */\n      0x20\n        /* \"#utility.yul\":6424:6433   */\n      dup3\n        /* \"#utility.yul\":6420:6438   */\n      add\n        /* \"#utility.yul\":6412:6438   */\n      swap1\n      pop\n        /* \"#utility.yul\":6484:6493   */\n      dup2\n        /* \"#utility.yul\":6478:6482   */\n      dup2\n        /* \"#utility.yul\":6474:6494   */\n      sub\n        /* \"#utility.yul\":6470:6471   */\n      0x00\n        /* \"#utility.yul\":6459:6468   */\n      dup4\n        /* \"#utility.yul\":6455:6472   */\n      add\n        /* \"#utility.yul\":6448:6495   */\n      mstore\n        /* \"#utility.yul\":6512:6643   */\n      tag_178\n        /* \"#utility.yul\":6638:6642   */\n      dup2\n        /* \"#utility.yul\":6512:6643   */\n      tag_153\n      jump\t// in\n    tag_178:\n        /* \"#utility.yul\":6504:6643   */\n      swap1\n      pop\n        /* \"#utility.yul\":6231:6650   */\n      swap2\n      swap1\n      pop\n      jump\t// out\n        /* \"#utility.yul\":6656:7075   */\n    tag_55:\n        /* \"#utility.yul\":6822:6826   */\n      0x00\n        /* \"#utility.yul\":6860:6862   */\n      0x20\n        /* \"#utility.yul\":6849:6858   */\n      dup3\n        /* \"#utility.yul\":6845:6863   */\n      add\n        /* \"#utility.yul\":6837:6863   */\n      swap1\n      pop\n        /* \"#utility.yul\":6909:6918   */\n      dup2\n        /* \"#utility.yul\":6903:6907   */\n      dup2\n        /* \"#utility.yul\":6899:6919   */\n      sub\n        /* \"#utility.yul\":6895:6896   */\n      0x00\n        /* \"#utility.yul\":6884:6893   */\n      dup4\n        /* \"#utility.yul\":6880:6897   */\n      add\n        /* \"#utility.yul\":6873:6920   */\n      mstore\n        /* \"#utility.yul\":6937:7068   */\n      tag_180\n        /* \"#utility.yul\":7063:7067   */\n      dup2\n        /* \"#utility.yul\":6937:7068   */\n      tag_158\n      jump\t// in\n    tag_180:\n        /* \"#utility.yul\":6929:7068   */\n      swap1\n      pop\n        /* \"#utility.yul\":6656:7075   */\n      swap2\n      swap1\n      pop\n      jump\t// out\n        /* \"#utility.yul\":7081:7303   */\n    tag_41:\n        /* \"#utility.yul\":7174:7178   */\n      0x00\n        /* \"#utility.yul\":7212:7214   */\n      0x20\n        /* \"#utility.yul\":7201:7210   */\n      dup3\n        /* \"#utility.yul\":7197:7215   */\n      add\n        /* \"#utility.yul\":7189:7215   */\n      swap1\n      pop\n        /* \"#utility.yul\":7225:7296   */\n      tag_182\n        /* \"#utility.yul\":7293:7294   */\n      0x00\n        /* \"#utility.yul\":7282:7291   */\n      dup4\n        /* \"#utility.yul\":7278:7295   */\n      add\n        /* \"#utility.yul\":7269:7275   */\n      dup5\n        /* \"#utility.yul\":7225:7296   */\n      tag_163\n      jump\t// in\n    tag_182:\n        /* \"#utility.yul\":7081:7303   */\n      swap3\n      swap2\n      pop\n      pop\n      jump\t// out\n        /* \"#utility.yul\":7309:7438   */\n    tag_88:\n        /* \"#utility.yul\":7343:7349   */\n      0x00\n        /* \"#utility.yul\":7370:7390   */\n      tag_184\n      tag_185\n      jump\t// in\n    tag_184:\n        /* \"#utility.yul\":7360:7390   */\n      swap1\n      pop\n        /* \"#utility.yul\":7399:7432   */\n      tag_186\n        /* \"#utility.yul\":7427:7431   */\n      dup3\n        /* \"#utility.yul\":7419:7425   */\n      dup3\n        /* \"#utility.yul\":7399:7432   */\n      tag_187\n      jump\t// in\n    tag_186:\n        /* \"#utility.yul\":7309:7438   */\n      swap2\n      swap1\n      pop\n      jump\t// out\n        /* \"#utility.yul\":7444:7519   */\n    tag_185:\n        /* \"#utility.yul\":7477:7483   */\n      0x00\n        /* \"#utility.yul\":7510:7512   */\n      0x40\n        /* \"#utility.yul\":7504:7513   */\n      mload\n        /* \"#utility.yul\":7494:7513   */\n      swap1\n      pop\n        /* \"#utility.yul\":7444:7519   */\n      swap1\n      jump\t// out\n        /* \"#utility.yul\":7525:7833   */\n    tag_87:\n        /* \"#utility.yul\":7587:7591   */\n      0x00\n        /* \"#utility.yul\":7677:7695   */\n      0xffffffffffffffff\n        /* \"#utility.yul\":7669:7675   */\n      dup3\n        /* \"#utility.yul\":7666:7696   */\n      gt\n        /* \"#utility.yul\":7663:7719   */\n      iszero\n      tag_190\n      jumpi\n        /* \"#utility.yul\":7699:7717   */\n      tag_191\n      tag_192\n      jump\t// in\n    tag_191:\n        /* \"#utility.yul\":7663:7719   */\n    tag_190:\n        /* \"#utility.yul\":7737:7766   */\n      tag_193\n        /* \"#utility.yul\":7759:7765   */\n      dup3\n        /* \"#utility.yul\":7737:7766   */\n      tag_146\n      jump\t// in\n    tag_193:\n        /* \"#utility.yul\":7729:7766   */\n      swap1\n      pop\n        /* \"#utility.yul\":7821:7825   */\n      0x20\n        /* \"#utility.yul\":7815:7819   */\n      dup2\n        /* \"#utility.yul\":7811:7826   */\n      add\n        /* \"#utility.yul\":7803:7826   */\n      swap1\n      pop\n        /* \"#utility.yul\":7525:7833   */\n      swap2\n      swap1\n      pop\n      jump\t// out\n        /* \"#utility.yul\":7839:7938   */\n    tag_140:\n        /* \"#utility.yul\":7891:7897   */\n      0x00\n        /* \"#utility.yul\":7925:7930   */\n      dup2\n        /* \"#utility.yul\":7919:7931   */\n      mload\n        /* \"#utility.yul\":7909:7931   */\n      swap1\n      pop\n        /* \"#utility.yul\":7839:7938   */\n      swap2\n      swap1\n      pop\n      jump\t// out\n        /* \"#utility.yul\":7944:8113   */\n    tag_142:\n        /* \"#utility.yul\":8028:8039   */\n      0x00\n        /* \"#utility.yul\":8062:8068   */\n      dup3\n        /* \"#utility.yul\":8057:8060   */\n      dup3\n        /* \"#utility.yul\":8050:8069   */\n      mstore\n        /* \"#utility.yul\":8102:8106   */\n      0x20\n        /* \"#utility.yul\":8097:8100   */\n      dup3\n        /* \"#utility.yul\":8093:8107   */\n      add\n        /* \"#utility.yul\":8078:8107   */\n      swap1\n      pop\n        /* \"#utility.yul\":7944:8113   */\n      swap3\n      swap2\n      pop\n      pop\n      jump\t// out\n        /* \"#utility.yul\":8119:8267   */\n    tag_151:\n        /* \"#utility.yul\":8221:8232   */\n      0x00\n        /* \"#utility.yul\":8258:8261   */\n      dup2\n        /* \"#utility.yul\":8243:8261   */\n      swap1\n      pop\n        /* \"#utility.yul\":8119:8267   */\n      swap3\n      swap2\n      pop\n      pop\n      jump\t// out\n        /* \"#utility.yul\":8273:8369   */\n    tag_136:\n        /* \"#utility.yul\":8310:8317   */\n      0x00\n        /* \"#utility.yul\":8339:8363   */\n      tag_198\n        /* \"#utility.yul\":8357:8362   */\n      dup3\n        /* \"#utility.yul\":8339:8363   */\n      tag_199\n      jump\t// in\n    tag_198:\n        /* \"#utility.yul\":8328:8363   */\n      swap1\n      pop\n        /* \"#utility.yul\":8273:8369   */\n      swap2\n      swap1\n      pop\n      jump\t// out\n        /* \"#utility.yul\":8375:8501   */\n    tag_199:\n        /* \"#utility.yul\":8412:8419   */\n      0x00\n        /* \"#utility.yul\":8452:8494   */\n      0xffffffffffffffffffffffffffffffffffffffff\n        /* \"#utility.yul\":8445:8450   */\n      dup3\n        /* \"#utility.yul\":8441:8495   */\n      and\n        /* \"#utility.yul\":8430:8495   */\n      swap1\n      pop\n        /* \"#utility.yul\":8375:8501   */\n      swap2\n      swap1\n      pop\n      jump\t// out\n        /* \"#utility.yul\":8507:8584   */\n    tag_166:\n        /* \"#utility.yul\":8544:8551   */\n      0x00\n        /* \"#utility.yul\":8573:8578   */\n      dup2\n        /* \"#utility.yul\":8562:8578   */\n      swap1\n      pop\n        /* \"#utility.yul\":8507:8584   */\n      swap2\n      swap1\n      pop\n      jump\t// out\n        /* \"#utility.yul\":8590:8744   */\n    tag_93:\n        /* \"#utility.yul\":8674:8680   */\n      dup3\n        /* \"#utility.yul\":8669:8672   */\n      dup2\n        /* \"#utility.yul\":8664:8667   */\n      dup4\n        /* \"#utility.yul\":8651:8681   */\n      calldatacopy\n        /* \"#utility.yul\":8736:8737   */\n      0x00\n        /* \"#utility.yul\":8727:8733   */\n      dup4\n        /* \"#utility.yul\":8722:8725   */\n      dup4\n        /* \"#utility.yul\":8718:8734   */\n      add\n        /* \"#utility.yul\":8711:8738   */\n      mstore\n        /* \"#utility.yul\":8590:8744   */\n      pop\n      pop\n      pop\n      jump\t// out\n        /* \"#utility.yul\":8750:9057   */\n    tag_144:\n        /* \"#utility.yul\":8818:8819   */\n      0x00\n        /* \"#utility.yul\":8828:8941   */\n    tag_204:\n        /* \"#utility.yul\":8842:8848   */\n      dup4\n        /* \"#utility.yul\":8839:8840   */\n      dup2\n        /* \"#utility.yul\":8836:8849   */\n      lt\n        /* \"#utility.yul\":8828:8941   */\n      iszero\n      tag_206\n      jumpi\n        /* \"#utility.yul\":8927:8928   */\n      dup1\n        /* \"#utility.yul\":8922:8925   */\n      dup3\n        /* \"#utility.yul\":8918:8929   */\n      add\n        /* \"#utility.yul\":8912:8930   */\n      mload\n        /* \"#utility.yul\":8908:8909   */\n      dup2\n        /* \"#utility.yul\":8903:8906   */\n      dup5\n        /* \"#utility.yul\":8899:8910   */\n      add\n        /* \"#utility.yul\":8892:8931   */\n      mstore\n        /* \"#utility.yul\":8864:8866   */\n      0x20\n        /* \"#utility.yul\":8861:8862   */\n      dup2\n        /* \"#utility.yul\":8857:8867   */\n      add\n        /* \"#utility.yul\":8852:8867   */\n      swap1\n      pop\n        /* \"#utility.yul\":8828:8941   */\n      jump(tag_204)\n    tag_206:\n        /* \"#utility.yul\":8959:8965   */\n      dup4\n        /* \"#utility.yul\":8956:8957   */\n      dup2\n        /* \"#utility.yul\":8953:8966   */\n      gt\n        /* \"#utility.yul\":8950:9051   */\n      iszero\n      tag_207\n      jumpi\n        /* \"#utility.yul\":9039:9040   */\n      0x00\n        /* \"#utility.yul\":9030:9036   */\n      dup5\n        /* \"#utility.yul\":9025:9028   */\n      dup5\n        /* \"#utility.yul\":9021:9037   */\n      add\n        /* \"#utility.yul\":9014:9041   */\n      mstore\n        /* \"#utility.yul\":8950:9051   */\n    tag_207:\n        /* \"#utility.yul\":8799:9057   */\n      pop\n        /* \"#utility.yul\":8750:9057   */\n      pop\n      pop\n      pop\n      jump\t// out\n        /* \"#utility.yul\":9063:9383   */\n    tag_46:\n        /* \"#utility.yul\":9107:9113   */\n      0x00\n        /* \"#utility.yul\":9144:9145   */\n      0x02\n        /* \"#utility.yul\":9138:9142   */\n      dup3\n        /* \"#utility.yul\":9134:9146   */\n      div\n        /* \"#utility.yul\":9124:9146   */\n      swap1\n      pop\n        /* \"#utility.yul\":9191:9192   */\n      0x01\n        /* \"#utility.yul\":9185:9189   */\n      dup3\n        /* \"#utility.yul\":9181:9193   */\n      and\n        /* \"#utility.yul\":9212:9230   */\n      dup1\n        /* \"#utility.yul\":9202:9283   */\n      tag_209\n      jumpi\n        /* \"#utility.yul\":9268:9272   */\n      0x7f\n        /* \"#utility.yul\":9260:9266   */\n      dup3\n        /* \"#utility.yul\":9256:9273   */\n      and\n        /* \"#utility.yul\":9246:9273   */\n      swap2\n      pop\n        /* \"#utility.yul\":9202:9283   */\n    tag_209:\n        /* \"#utility.yul\":9330:9332   */\n      0x20\n        /* \"#utility.yul\":9322:9328   */\n      dup3\n        /* \"#utility.yul\":9319:9333   */\n      lt\n        /* \"#utility.yul\":9299:9317   */\n      dup2\n        /* \"#utility.yul\":9296:9334   */\n      eq\n        /* \"#utility.yul\":9293:9377   */\n      iszero\n      tag_210\n      jumpi\n        /* \"#utility.yul\":9349:9367   */\n      tag_211\n      tag_212\n      jump\t// in\n    tag_211:\n        /* \"#utility.yul\":9293:9377   */\n    tag_210:\n        /* \"#utility.yul\":9114:9383   */\n      pop\n        /* \"#utility.yul\":9063:9383   */\n      swap2\n      swap1\n      pop\n      jump\t// out\n        /* \"#utility.yul\":9389:9670   */\n    tag_187:\n        /* \"#utility.yul\":9472:9499   */\n      tag_214\n        /* \"#utility.yul\":9494:9498   */\n      dup3\n        /* \"#utility.yul\":9472:9499   */\n      tag_146\n      jump\t// in\n    tag_214:\n        /* \"#utility.yul\":9464:9470   */\n      dup2\n        /* \"#utility.yul\":9460:9500   */\n      add\n        /* \"#utility.yul\":9602:9608   */\n      dup2\n        /* \"#utility.yul\":9590:9600   */\n      dup2\n        /* \"#utility.yul\":9587:9609   */\n      lt\n        /* \"#utility.yul\":9566:9584   */\n      0xffffffffffffffff\n        /* \"#utility.yul\":9554:9564   */\n      dup3\n        /* \"#utility.yul\":9551:9585   */\n      gt\n        /* \"#utility.yul\":9548:9610   */\n      or\n        /* \"#utility.yul\":9545:9633   */\n      iszero\n      tag_215\n      jumpi\n        /* \"#utility.yul\":9613:9631   */\n      tag_216\n      tag_192\n      jump\t// in\n    tag_216:\n        /* \"#utility.yul\":9545:9633   */\n    tag_215:\n        /* \"#utility.yul\":9653:9663   */\n      dup1\n        /* \"#utility.yul\":9649:9651   */\n      0x40\n        /* \"#utility.yul\":9642:9664   */\n      mstore\n        /* \"#utility.yul\":9432:9670   */\n      pop\n        /* \"#utility.yul\":9389:9670   */\n      pop\n      pop\n      jump\t// out\n        /* \"#utility.yul\":9676:9856   */\n    tag_212:\n        /* \"#utility.yul\":9724:9801   */\n      0x4e487b7100000000000000000000000000000000000000000000000000000000\n        /* \"#utility.yul\":9721:9722   */\n      0x00\n        /* \"#utility.yul\":9714:9802   */\n      mstore\n        /* \"#utility.yul\":9821:9825   */\n      0x22\n        /* \"#utility.yul\":9818:9819   */\n      0x04\n        /* \"#utility.yul\":9811:9826   */\n      mstore\n        /* \"#utility.yul\":9845:9849   */\n      0x24\n        /* \"#utility.yul\":9842:9843   */\n      0x00\n        /* \"#utility.yul\":9835:9850   */\n      revert\n        /* \"#utility.yul\":9862:10042   */\n    tag_192:\n        /* \"#utility.yul\":9910:9987   */\n      0x4e487b7100000000000000000000000000000000000000000000000000000000\n        /* \"#utility.yul\":9907:9908   */\n      0x00\n        /* \"#utility.yul\":9900:9988   */\n      mstore\n        /* \"#utility.yul\":10007:10011   */\n      0x41\n        /* \"#utility.yul\":10004:10005   */\n      0x04\n        /* \"#utility.yul\":9997:10012   */\n      mstore\n        /* \"#utility.yul\":10031:10035   */\n      0x24\n        /* \"#utility.yul\":10028:10029   */\n      0x00\n        /* \"#utility.yul\":10021:10036   */\n      revert\n        /* \"#utility.yul\":10048:10165   */\n    tag_102:\n        /* \"#utility.yul\":10157:10158   */\n      0x00\n        /* \"#utility.yul\":10154:10155   */\n      dup1\n        /* \"#utility.yul\":10147:10159   */\n      revert\n        /* \"#utility.yul\":10171:10288   */\n    tag_91:\n        /* \"#utility.yul\":10280:10281   */\n      0x00\n        /* \"#utility.yul\":10277:10278   */\n      dup1\n        /* \"#utility.yul\":10270:10282   */\n      revert\n        /* \"#utility.yul\":10294:10411   */\n    tag_119:\n        /* \"#utility.yul\":10403:10404   */\n      0x00\n        /* \"#utility.yul\":10400:10401   */\n      dup1\n        /* \"#utility.yul\":10393:10405   */\n      revert\n        /* \"#utility.yul\":10417:10534   */\n    tag_111:\n        /* \"#utility.yul\":10526:10527   */\n      0x00\n        /* \"#utility.yul\":10523:10524   */\n      dup1\n        /* \"#utility.yul\":10516:10528   */\n      revert\n        /* \"#utility.yul\":10540:10642   */\n    tag_146:\n        /* \"#utility.yul\":10581:10587   */\n      0x00\n        /* \"#utility.yul\":10632:10634   */\n      0x1f\n        /* \"#utility.yul\":10628:10635   */\n      not\n        /* \"#utility.yul\":10623:10625   */\n      0x1f\n        /* \"#utility.yul\":10616:10621   */\n      dup4\n        /* \"#utility.yul\":10612:10626   */\n      add\n        /* \"#utility.yul\":10608:10636   */\n      and\n        /* \"#utility.yul\":10598:10636   */\n      swap1\n      pop\n        /* \"#utility.yul\":10540:10642   */\n      swap2\n      swap1\n      pop\n      jump\t// out\n        /* \"#utility.yul\":10648:10872   */\n    tag_157:\n        /* \"#utility.yul\":10788:10822   */\n      0x596120746520656e6375656e74726173207265676973747261646f20656e2065\n        /* \"#utility.yul\":10784:10785   */\n      0x00\n        /* \"#utility.yul\":10776:10782   */\n      dup3\n        /* \"#utility.yul\":10772:10786   */\n      add\n        /* \"#utility.yul\":10765:10823   */\n      mstore\n        /* \"#utility.yul\":10857:10864   */\n      0x6c2067796d000000000000000000000000000000000000000000000000000000\n        /* \"#utility.yul\":10852:10854   */\n      0x20\n        /* \"#utility.yul\":10844:10850   */\n      dup3\n        /* \"#utility.yul\":10840:10855   */\n      add\n        /* \"#utility.yul\":10833:10865   */\n      mstore\n        /* \"#utility.yul\":10648:10872   */\n      pop\n      jump\t// out\n        /* \"#utility.yul\":10878:11113   */\n    tag_162:\n        /* \"#utility.yul\":11018:11052   */\n      0x536f6c6f20656c2041646d696e6973747261646f722064656c2047796d207075\n        /* \"#utility.yul\":11014:11015   */\n      0x00\n        /* \"#utility.yul\":11006:11012   */\n      dup3\n        /* \"#utility.yul\":11002:11016   */\n      add\n        /* \"#utility.yul\":10995:11053   */\n      mstore\n        /* \"#utility.yul\":11087:11105   */\n      0x65646520637265617220636c6173657300000000000000000000000000000000\n        /* \"#utility.yul\":11082:11084   */\n      0x20\n        /* \"#utility.yul\":11074:11080   */\n      dup3\n        /* \"#utility.yul\":11070:11085   */\n      add\n        /* \"#utility.yul\":11063:11106   */\n      mstore\n        /* \"#utility.yul\":10878:11113   */\n      pop\n      jump\t// out\n        /* \"#utility.yul\":11119:11241   */\n    tag_97:\n        /* \"#utility.yul\":11192:11216   */\n      tag_227\n        /* \"#utility.yul\":11210:11215   */\n      dup2\n        /* \"#utility.yul\":11192:11216   */\n      tag_136\n      jump\t// in\n    tag_227:\n        /* \"#utility.yul\":11185:11190   */\n      dup2\n        /* \"#utility.yul\":11182:11217   */\n      eq\n        /* \"#utility.yul\":11172:11235   */\n      tag_228\n      jumpi\n        /* \"#utility.yul\":11231:11232   */\n      0x00\n        /* \"#utility.yul\":11228:11229   */\n      dup1\n        /* \"#utility.yul\":11221:11233   */\n      revert\n        /* \"#utility.yul\":11172:11235   */\n    tag_228:\n        /* \"#utility.yul\":11119:11241   */\n      pop\n      jump\t// out\n        /* \"#utility.yul\":11247:11369   */\n    tag_107:\n        /* \"#utility.yul\":11320:11344   */\n      tag_230\n        /* \"#utility.yul\":11338:11343   */\n      dup2\n        /* \"#utility.yul\":11320:11344   */\n      tag_166\n      jump\t// in\n    tag_230:\n        /* \"#utility.yul\":11313:11318   */\n      dup2\n        /* \"#utility.yul\":11310:11345   */\n      eq\n        /* \"#utility.yul\":11300:11363   */\n      tag_231\n      jumpi\n        /* \"#utility.yul\":11359:11360   */\n      0x00\n        /* \"#utility.yul\":11356:11357   */\n      dup1\n        /* \"#utility.yul\":11349:11361   */\n      revert\n        /* \"#utility.yul\":11300:11363   */\n    tag_231:\n        /* \"#utility.yul\":11247:11369   */\n      pop\n      jump\t// out\n\n    auxdata: 0xa2646970667358221220acf64f02d135436ab348eb73af1b0fbb9ab23a66c163ff722b632a79c5591da664736f6c63430008070033\n}\n",
				"bytecode": {
					"linkReferences": {},
					"object": "60a060405234801561001057600080fd5b503373ffffffffffffffffffffffffffffffffffffffff1660808173ffffffffffffffffffffffffffffffffffffffff1660601b8152505060805160601c610cdc61006d600039600081816102a801526102e30152610cdc6000f3fe608060405234801561001057600080fd5b50600436106100885760003560e01c806357e61ea41161005b57806357e61ea4146101175780636d705ebb14610121578063a87430ba1461013d578063bff852fa1461016d57610088565b8063035af4ca1461008d57806312065fe0146100be5780632a0acc6a146100dd5780634852a212146100fb575b600080fd5b6100a760048036038101906100a2919061074d565b61018c565b6040516100b592919061096e565b60405180910390f35b6100c661025b565b6040516100d4929190610945565b60405180910390f35b6100e56102a6565b6040516100f2919061092a565b60405180910390f35b610115600480360381019061011091906107e9565b6102ca565b005b61011f61042f565b005b61013b600480360381019061013691906107a9565b610431565b005b61015760048036038101906101529190610720565b610531565b60405161016491906109de565b60405180910390f35b610175610549565b60405161018392919061096e565b60405180910390f35b600160205281600052604060002081805160208101820180518482526020830160208501208183528095505050505050600091509150508060000180546101d290610af4565b80601f01602080910402602001604051908101604052809291908181526020018280546101fe90610af4565b801561024b5780601f106102205761010080835404028352916020019161024b565b820191906000526020600020905b81548152906001019060200180831161022e57829003601f168201915b5050505050908060010154905082565b600080336000803373ffffffffffffffffffffffffffffffffffffffff1673ffffffffffffffffffffffffffffffffffffffff16815260200190815260200160002054915091509091565b7f000000000000000000000000000000000000000000000000000000000000000081565b3373ffffffffffffffffffffffffffffffffffffffff167f000000000000000000000000000000000000000000000000000000000000000073ffffffffffffffffffffffffffffffffffffffff1614610358576040517f08c379a000000000000000000000000000000000000000000000000000000000815260040161034f906109be565b60405180910390fd5b604051806040016040528083815260200182815250600160003373ffffffffffffffffffffffffffffffffffffffff1673ffffffffffffffffffffffffffffffffffffffff168152602001908152602001600020836040516103ba9190610913565b908152602001604051809103902060008201518160000190805190602001906103e49291906105e3565b50602082015181600101559050507f14d49e3ea4f348b7f368906dfe1a63055c7822d622a61672a35a55ae97a768f9828260405161042392919061096e565b60405180910390a15050565b565b60008060003373ffffffffffffffffffffffffffffffffffffffff1673ffffffffffffffffffffffffffffffffffffffff16815260200190815260200160002054146104b2576040517f08c379a00000000000000000000000000000000000000000000000000000000081526004016104a99061099e565b60405180910390fd5b806000803373ffffffffffffffffffffffffffffffffffffffff1673ffffffffffffffffffffffffffffffffffffffff168152602001908152602001600020819055507e7dc6ab80cc84c043b7b8d4fcafc802187470087f7ea7fccd2e17aecd0256a18282604051610525929190610945565b60405180910390a15050565b60006020528060005260406000206000915090505481565b600280600001805461055a90610af4565b80601f016020809104026020016040519081016040528092919081815260200182805461058690610af4565b80156105d35780601f106105a8576101008083540402835291602001916105d3565b820191906000526020600020905b8154815290600101906020018083116105b657829003601f168201915b5050505050908060010154905082565b8280546105ef90610af4565b90600052602060002090601f0160209004810192826106115760008555610658565b82601f1061062a57805160ff1916838001178555610658565b82800160010185558215610658579182015b8281111561065757825182559160200191906001019061063c565b5b5090506106659190610669565b5090565b5b8082111561068257600081600090555060010161066a565b5090565b600061069961069484610a1e565b6109f9565b9050828152602081018484840111156106b5576106b4610bba565b5b6106c0848285610ab2565b509392505050565b6000813590506106d781610c78565b92915050565b600082601f8301126106f2576106f1610bb5565b5b8135610702848260208601610686565b91505092915050565b60008135905061071a81610c8f565b92915050565b60006020828403121561073657610735610bc4565b5b6000610744848285016106c8565b91505092915050565b6000806040838503121561076457610763610bc4565b5b6000610772858286016106c8565b925050602083013567ffffffffffffffff81111561079357610792610bbf565b5b61079f858286016106dd565b9150509250929050565b600080604083850312156107c0576107bf610bc4565b5b60006107ce858286016106c8565b92505060206107df8582860161070b565b9150509250929050565b60008060408385031215610800576107ff610bc4565b5b600083013567ffffffffffffffff81111561081e5761081d610bbf565b5b61082a858286016106dd565b925050602061083b8582860161070b565b9150509250929050565b61084e81610a76565b82525050565b600061085f82610a4f565b6108698185610a5a565b9350610879818560208601610ac1565b61088281610bc9565b840191505092915050565b600061089882610a4f565b6108a28185610a6b565b93506108b2818560208601610ac1565b80840191505092915050565b60006108cb602583610a5a565b91506108d682610bda565b604082019050919050565b60006108ee603083610a5a565b91506108f982610c29565b604082019050919050565b61090d81610aa8565b82525050565b600061091f828461088d565b915081905092915050565b600060208201905061093f6000830184610845565b92915050565b600060408201905061095a6000830185610845565b6109676020830184610904565b9392505050565b600060408201905081810360008301526109888185610854565b90506109976020830184610904565b9392505050565b600060208201905081810360008301526109b7816108be565b9050919050565b600060208201905081810360008301526109d7816108e1565b9050919050565b60006020820190506109f36000830184610904565b92915050565b6000610a03610a14565b9050610a0f8282610b26565b919050565b6000604051905090565b600067ffffffffffffffff821115610a3957610a38610b86565b5b610a4282610bc9565b9050602081019050919050565b600081519050919050565b600082825260208201905092915050565b600081905092915050565b6000610a8182610a88565b9050919050565b600073ffffffffffffffffffffffffffffffffffffffff82169050919050565b6000819050919050565b82818337600083830152505050565b60005b83811015610adf578082015181840152602081019050610ac4565b83811115610aee576000848401525b50505050565b60006002820490506001821680610b0c57607f821691505b60208210811415610b2057610b1f610b57565b5b50919050565b610b2f82610bc9565b810181811067ffffffffffffffff82111715610b4e57610b4d610b86565b5b80604052505050565b7f4e487b7100000000000000000000000000000000000000000000000000000000600052602260045260246000fd5b7f4e487b7100000000000000000000000000000000000000000000000000000000600052604160045260246000fd5b600080fd5b600080fd5b600080fd5b600080fd5b6000601f19601f8301169050919050565b7f596120746520656e6375656e74726173207265676973747261646f20656e206560008201527f6c2067796d000000000000000000000000000000000000000000000000000000602082015250565b7f536f6c6f20656c2041646d696e6973747261646f722064656c2047796d20707560008201527f65646520637265617220636c6173657300000000000000000000000000000000602082015250565b610c8181610a76565b8114610c8c57600080fd5b50565b610c9881610aa8565b8114610ca357600080fd5b5056fea2646970667358221220acf64f02d135436ab348eb73af1b0fbb9ab23a66c163ff722b632a79c5591da664736f6c63430008070033",
					"opcodes": "PUSH1 0xA0 PUSH1 0x40 MSTORE CALLVALUE DUP1 ISZERO PUSH2 0x10 JUMPI PUSH1 0x0 DUP1 REVERT JUMPDEST POP CALLER PUSH20 0xFFFFFFFFFFFFFFFFFFFFFFFFFFFFFFFFFFFFFFFF AND PUSH1 0x80 DUP2 PUSH20 0xFFFFFFFFFFFFFFFFFFFFFFFFFFFFFFFFFFFFFFFF AND PUSH1 0x60 SHL DUP2 MSTORE POP POP PUSH1 0x80 MLOAD PUSH1 0x60 SHR PUSH2 0xCDC PUSH2 0x6D PUSH1 0x0 CODECOPY PUSH1 0x0 DUP2 DUP2 PUSH2 0x2A8 ADD MSTORE PUSH2 0x2E3 ADD MSTORE PUSH2 0xCDC PUSH1 0x0 RETURN INVALID PUSH1 0x80 PUSH1 0x40 MSTORE CALLVALUE DUP1 ISZERO PUSH2 0x10 JUMPI PUSH1 0x0 DUP1 REVERT JUMPDEST POP PUSH1 0x4 CALLDATASIZE LT PUSH2 0x88 JUMPI PUSH1 0x0 CALLDATALOAD PUSH1 0xE0 SHR DUP1 PUSH4 0x57E61EA4 GT PUSH2 0x5B JUMPI DUP1 PUSH4 0x57E61EA4 EQ PUSH2 0x117 JUMPI DUP1 PUSH4 0x6D705EBB EQ PUSH2 0x121 JUMPI DUP1 PUSH4 0xA87430BA EQ PUSH2 0x13D JUMPI DUP1 PUSH4 0xBFF852FA EQ PUSH2 0x16D JUMPI PUSH2 0x88 JUMP JUMPDEST DUP1 PUSH4 0x35AF4CA EQ PUSH2 0x8D JUMPI DUP1 PUSH4 0x12065FE0 EQ PUSH2 0xBE JUMPI DUP1 PUSH4 0x2A0ACC6A EQ PUSH2 0xDD JUMPI DUP1 PUSH4 0x4852A212 EQ PUSH2 0xFB JUMPI JUMPDEST PUSH1 0x0 DUP1 REVERT JUMPDEST PUSH2 0xA7 PUSH1 0x4 DUP1 CALLDATASIZE SUB DUP2 ADD SWAP1 PUSH2 0xA2 SWAP2 SWAP1 PUSH2 0x74D JUMP JUMPDEST PUSH2 0x18C JUMP JUMPDEST PUSH1 0x40 MLOAD PUSH2 0xB5 SWAP3 SWAP2 SWAP1 PUSH2 0x96E JUMP JUMPDEST PUSH1 0x40 MLOAD DUP1 SWAP2 SUB SWAP1 RETURN JUMPDEST PUSH2 0xC6 PUSH2 0x25B JUMP JUMPDEST PUSH1 0x40 MLOAD PUSH2 0xD4 SWAP3 SWAP2 SWAP1 PUSH2 0x945 JUMP JUMPDEST PUSH1 0x40 MLOAD DUP1 SWAP2 SUB SWAP1 RETURN JUMPDEST PUSH2 0xE5 PUSH2 0x2A6 JUMP JUMPDEST PUSH1 0x40 MLOAD PUSH2 0xF2 SWAP2 SWAP1 PUSH2 0x92A JUMP JUMPDEST PUSH1 0x40 MLOAD DUP1 SWAP2 SUB SWAP1 RETURN JUMPDEST PUSH2 0x115 PUSH1 0x4 DUP1 CALLDATASIZE SUB DUP2 ADD SWAP1 PUSH2 0x110 SWAP2 SWAP1 PUSH2 0x7E9 JUMP JUMPDEST PUSH2 0x2CA JUMP JUMPDEST STOP JUMPDEST PUSH2 0x11F PUSH2 0x42F JUMP JUMPDEST STOP JUMPDEST PUSH2 0x13B PUSH1 0x4 DUP1 CALLDATASIZE SUB DUP2 ADD SWAP1 PUSH2 0x136 SWAP2 SWAP1 PUSH2 0x7A9 JUMP JUMPDEST PUSH2 0x431 JUMP JUMPDEST STOP JUMPDEST PUSH2 0x157 PUSH1 0x4 DUP1 CALLDATASIZE SUB DUP2 ADD SWAP1 PUSH2 0x152 SWAP2 SWAP1 PUSH2 0x720 JUMP JUMPDEST PUSH2 0x531 JUMP JUMPDEST PUSH1 0x40 MLOAD PUSH2 0x164 SWAP2 SWAP1 PUSH2 0x9DE JUMP JUMPDEST PUSH1 0x40 MLOAD DUP1 SWAP2 SUB SWAP1 RETURN JUMPDEST PUSH2 0x175 PUSH2 0x549 JUMP JUMPDEST PUSH1 0x40 MLOAD PUSH2 0x183 SWAP3 SWAP2 SWAP1 PUSH2 0x96E JUMP JUMPDEST PUSH1 0x40 MLOAD DUP1 SWAP2 SUB SWAP1 RETURN JUMPDEST PUSH1 0x1 PUSH1 0x20 MSTORE DUP2 PUSH1 0x0 MSTORE PUSH1 0x40 PUSH1 0x0 KECCAK256 DUP2 DUP1 MLOAD PUSH1 0x20 DUP2 ADD DUP3 ADD DUP1 MLOAD DUP5 DUP3 MSTORE PUSH1 0x20 DUP4 ADD PUSH1 0x20 DUP6 ADD KECCAK256 DUP2 DUP4 MSTORE DUP1 SWAP6 POP POP POP POP POP POP PUSH1 0x0 SWAP2 POP SWAP2 POP POP DUP1 PUSH1 0x0 ADD DUP1 SLOAD PUSH2 0x1D2 SWAP1 PUSH2 0xAF4 JUMP JUMPDEST DUP1 PUSH1 0x1F ADD PUSH1 0x20 DUP1 SWAP2 DIV MUL PUSH1 0x20 ADD PUSH1 0x40 MLOAD SWAP1 DUP2 ADD PUSH1 0x40 MSTORE DUP1 SWAP3 SWAP2 SWAP1 DUP2 DUP2 MSTORE PUSH1 0x20 ADD DUP3 DUP1 SLOAD PUSH2 0x1FE SWAP1 PUSH2 0xAF4 JUMP JUMPDEST DUP1 ISZERO PUSH2 0x24B JUMPI DUP1 PUSH1 0x1F LT PUSH2 0x220 JUMPI PUSH2 0x100 DUP1 DUP4 SLOAD DIV MUL DUP4 MSTORE SWAP2 PUSH1 0x20 ADD SWAP2 PUSH2 0x24B JUMP JUMPDEST DUP3 ADD SWAP2 SWAP1 PUSH1 0x0 MSTORE PUSH1 0x20 PUSH1 0x0 KECCAK256 SWAP1 JUMPDEST DUP2 SLOAD DUP2 MSTORE SWAP1 PUSH1 0x1 ADD SWAP1 PUSH1 0x20 ADD DUP1 DUP4 GT PUSH2 0x22E JUMPI DUP3 SWAP1 SUB PUSH1 0x1F AND DUP3 ADD SWAP2 JUMPDEST POP POP POP POP POP SWAP1 DUP1 PUSH1 0x1 ADD SLOAD SWAP1 POP DUP3 JUMP JUMPDEST PUSH1 0x0 DUP1 CALLER PUSH1 0x0 DUP1 CALLER PUSH20 0xFFFFFFFFFFFFFFFFFFFFFFFFFFFFFFFFFFFFFFFF AND PUSH20 0xFFFFFFFFFFFFFFFFFFFFFFFFFFFFFFFFFFFFFFFF AND DUP2 MSTORE PUSH1 0x20 ADD SWAP1 DUP2 MSTORE PUSH1 0x20 ADD PUSH1 0x0 KECCAK256 SLOAD SWAP2 POP SWAP2 POP SWAP1 SWAP2 JUMP JUMPDEST PUSH32 0x0 DUP2 JUMP JUMPDEST CALLER PUSH20 0xFFFFFFFFFFFFFFFFFFFFFFFFFFFFFFFFFFFFFFFF AND PUSH32 0x0 PUSH20 0xFFFFFFFFFFFFFFFFFFFFFFFFFFFFFFFFFFFFFFFF AND EQ PUSH2 0x358 JUMPI PUSH1 0x40 MLOAD PUSH32 0x8C379A000000000000000000000000000000000000000000000000000000000 DUP2 MSTORE PUSH1 0x4 ADD PUSH2 0x34F SWAP1 PUSH2 0x9BE JUMP JUMPDEST PUSH1 0x40 MLOAD DUP1 SWAP2 SUB SWAP1 REVERT JUMPDEST PUSH1 0x40 MLOAD DUP1 PUSH1 0x40 ADD PUSH1 0x40 MSTORE DUP1 DUP4 DUP2 MSTORE PUSH1 0x20 ADD DUP3 DUP2 MSTORE POP PUSH1 0x1 PUSH1 0x0 CALLER PUSH20 0xFFFFFFFFFFFFFFFFFFFFFFFFFFFFFFFFFFFFFFFF AND PUSH20 0xFFFFFFFFFFFFFFFFFFFFFFFFFFFFFFFFFFFFFFFF AND DUP2 MSTORE PUSH1 0x20 ADD SWAP1 DUP2 MSTORE PUSH1 0x20 ADD PUSH1 0x0 KECCAK256 DUP4 PUSH1 0x40 MLOAD PUSH2 0x3BA SWAP2 SWAP1 PUSH2 0x913 JUMP JUMPDEST SWAP1 DUP2 MSTORE PUSH1 0x20 ADD PUSH1 0x40 MLOAD DUP1 SWAP2 SUB SWAP1 KECCAK256 PUSH1 0x0 DUP3 ADD MLOAD DUP2 PUSH1 0x0 ADD SWAP1 DUP1 MLOAD SWAP1 PUSH1 0x20 ADD SWAP1 PUSH2 0x3E4 SWAP3 SWAP2 SWAP1 PUSH2 0x5E3 JUMP JUMPDEST POP PUSH1 0x20 DUP3 ADD MLOAD DUP2 PUSH1 0x1 ADD SSTORE SWAP1 POP POP PUSH32 0x14D49E3EA4F348B7F368906DFE1A63055C7822D622A61672A35A55AE97A768F9 DUP3 DUP3 PUSH1 0x40 MLOAD PUSH2 0x423 SWAP3 SWAP2 SWAP1 PUSH2 0x96E JUMP JUMPDEST PUSH1 0x40 MLOAD DUP1 SWAP2 SUB SWAP1 LOG1 POP POP JUMP JUMPDEST JUMP JUMPDEST PUSH1 0x0 DUP1 PUSH1 0x0 CALLER PUSH20 0xFFFFFFFFFFFFFFFFFFFFFFFFFFFFFFFFFFFFFFFF AND PUSH20 0xFFFFFFFFFFFFFFFFFFFFFFFFFFFFFFFFFFFFFFFF AND DUP2 MSTORE PUSH1 0x20 ADD SWAP1 DUP2 MSTORE PUSH1 0x20 ADD PUSH1 0x0 KECCAK256 SLOAD EQ PUSH2 0x4B2 JUMPI PUSH1 0x40 MLOAD PUSH32 0x8C379A000000000000000000000000000000000000000000000000000000000 DUP2 MSTORE PUSH1 0x4 ADD PUSH2 0x4A9 SWAP1 PUSH2 0x99E JUMP JUMPDEST PUSH1 0x40 MLOAD DUP1 SWAP2 SUB SWAP1 REVERT JUMPDEST DUP1 PUSH1 0x0 DUP1 CALLER PUSH20 0xFFFFFFFFFFFFFFFFFFFFFFFFFFFFFFFFFFFFFFFF AND PUSH20 0xFFFFFFFFFFFFFFFFFFFFFFFFFFFFFFFFFFFFFFFF AND DUP2 MSTORE PUSH1 0x20 ADD SWAP1 DUP2 MSTORE PUSH1 0x20 ADD PUSH1 0x0 KECCAK256 DUP2 SWAP1 SSTORE POP PUSH31 0x7DC6AB80CC84C043B7B8D4FCAFC802187470087F7EA7FCCD2E17AECD0256A1 DUP3 DUP3 PUSH1 0x40 MLOAD PUSH2 0x525 SWAP3 SWAP2 SWAP1 PUSH2 0x945 JUMP JUMPDEST PUSH1 0x40 MLOAD DUP1 SWAP2 SUB SWAP1 LOG1 POP POP JUMP JUMPDEST PUSH1 0x0 PUSH1 0x20 MSTORE DUP1 PUSH1 0x0 MSTORE PUSH1 0x40 PUSH1 0x0 KECCAK256 PUSH1 0x0 SWAP2 POP SWAP1 POP SLOAD DUP2 JUMP JUMPDEST PUSH1 0x2 DUP1 PUSH1 0x0 ADD DUP1 SLOAD PUSH2 0x55A SWAP1 PUSH2 0xAF4 JUMP JUMPDEST DUP1 PUSH1 0x1F ADD PUSH1 0x20 DUP1 SWAP2 DIV MUL PUSH1 0x20 ADD PUSH1 0x40 MLOAD SWAP1 DUP2 ADD PUSH1 0x40 MSTORE DUP1 SWAP3 SWAP2 SWAP1 DUP2 DUP2 MSTORE PUSH1 0x20 ADD DUP3 DUP1 SLOAD PUSH2 0x586 SWAP1 PUSH2 0xAF4 JUMP JUMPDEST DUP1 ISZERO PUSH2 0x5D3 JUMPI DUP1 PUSH1 0x1F LT PUSH2 0x5A8 JUMPI PUSH2 0x100 DUP1 DUP4 SLOAD DIV MUL DUP4 MSTORE SWAP2 PUSH1 0x20 ADD SWAP2 PUSH2 0x5D3 JUMP JUMPDEST DUP3 ADD SWAP2 SWAP1 PUSH1 0x0 MSTORE PUSH1 0x20 PUSH1 0x0 KECCAK256 SWAP1 JUMPDEST DUP2 SLOAD DUP2 MSTORE SWAP1 PUSH1 0x1 ADD SWAP1 PUSH1 0x20 ADD DUP1 DUP4 GT PUSH2 0x5B6 JUMPI DUP3 SWAP1 SUB PUSH1 0x1F AND DUP3 ADD SWAP2 JUMPDEST POP POP POP POP POP SWAP1 DUP1 PUSH1 0x1 ADD SLOAD SWAP1 POP DUP3 JUMP JUMPDEST DUP3 DUP1 SLOAD PUSH2 0x5EF SWAP1 PUSH2 0xAF4 JUMP JUMPDEST SWAP1 PUSH1 0x0 MSTORE PUSH1 0x20 PUSH1 0x0 KECCAK256 SWAP1 PUSH1 0x1F ADD PUSH1 0x20 SWAP1 DIV DUP2 ADD SWAP3 DUP3 PUSH2 0x611 JUMPI PUSH1 0x0 DUP6 SSTORE PUSH2 0x658 JUMP JUMPDEST DUP3 PUSH1 0x1F LT PUSH2 0x62A JUMPI DUP1 MLOAD PUSH1 0xFF NOT AND DUP4 DUP1 ADD OR DUP6 SSTORE PUSH2 0x658 JUMP JUMPDEST DUP3 DUP1 ADD PUSH1 0x1 ADD DUP6 SSTORE DUP3 ISZERO PUSH2 0x658 JUMPI SWAP2 DUP3 ADD JUMPDEST DUP3 DUP2 GT ISZERO PUSH2 0x657 JUMPI DUP3 MLOAD DUP3 SSTORE SWAP2 PUSH1 0x20 ADD SWAP2 SWAP1 PUSH1 0x1 ADD SWAP1 PUSH2 0x63C JUMP JUMPDEST JUMPDEST POP SWAP1 POP PUSH2 0x665 SWAP2 SWAP1 PUSH2 0x669 JUMP JUMPDEST POP SWAP1 JUMP JUMPDEST JUMPDEST DUP1 DUP3 GT ISZERO PUSH2 0x682 JUMPI PUSH1 0x0 DUP2 PUSH1 0x0 SWAP1 SSTORE POP PUSH1 0x1 ADD PUSH2 0x66A JUMP JUMPDEST POP SWAP1 JUMP JUMPDEST PUSH1 0x0 PUSH2 0x699 PUSH2 0x694 DUP5 PUSH2 0xA1E JUMP JUMPDEST PUSH2 0x9F9 JUMP JUMPDEST SWAP1 POP DUP3 DUP2 MSTORE PUSH1 0x20 DUP2 ADD DUP5 DUP5 DUP5 ADD GT ISZERO PUSH2 0x6B5 JUMPI PUSH2 0x6B4 PUSH2 0xBBA JUMP JUMPDEST JUMPDEST PUSH2 0x6C0 DUP5 DUP3 DUP6 PUSH2 0xAB2 JUMP JUMPDEST POP SWAP4 SWAP3 POP POP POP JUMP JUMPDEST PUSH1 0x0 DUP2 CALLDATALOAD SWAP1 POP PUSH2 0x6D7 DUP2 PUSH2 0xC78 JUMP JUMPDEST SWAP3 SWAP2 POP POP JUMP JUMPDEST PUSH1 0x0 DUP3 PUSH1 0x1F DUP4 ADD SLT PUSH2 0x6F2 JUMPI PUSH2 0x6F1 PUSH2 0xBB5 JUMP JUMPDEST JUMPDEST DUP2 CALLDATALOAD PUSH2 0x702 DUP5 DUP3 PUSH1 0x20 DUP7 ADD PUSH2 0x686 JUMP JUMPDEST SWAP2 POP POP SWAP3 SWAP2 POP POP JUMP JUMPDEST PUSH1 0x0 DUP2 CALLDATALOAD SWAP1 POP PUSH2 0x71A DUP2 PUSH2 0xC8F JUMP JUMPDEST SWAP3 SWAP2 POP POP JUMP JUMPDEST PUSH1 0x0 PUSH1 0x20 DUP3 DUP5 SUB SLT ISZERO PUSH2 0x736 JUMPI PUSH2 0x735 PUSH2 0xBC4 JUMP JUMPDEST JUMPDEST PUSH1 0x0 PUSH2 0x744 DUP5 DUP3 DUP6 ADD PUSH2 0x6C8 JUMP JUMPDEST SWAP2 POP POP SWAP3 SWAP2 POP POP JUMP JUMPDEST PUSH1 0x0 DUP1 PUSH1 0x40 DUP4 DUP6 SUB SLT ISZERO PUSH2 0x764 JUMPI PUSH2 0x763 PUSH2 0xBC4 JUMP JUMPDEST JUMPDEST PUSH1 0x0 PUSH2 0x772 DUP6 DUP3 DUP7 ADD PUSH2 0x6C8 JUMP JUMPDEST SWAP3 POP POP PUSH1 0x20 DUP4 ADD CALLDATALOAD PUSH8 0xFFFFFFFFFFFFFFFF DUP2 GT ISZERO PUSH2 0x793 JUMPI PUSH2 0x792 PUSH2 0xBBF JUMP JUMPDEST JUMPDEST PUSH2 0x79F DUP6 DUP3 DUP7 ADD PUSH2 0x6DD JUMP JUMPDEST SWAP2 POP POP SWAP3 POP SWAP3 SWAP1 POP JUMP JUMPDEST PUSH1 0x0 DUP1 PUSH1 0x40 DUP4 DUP6 SUB SLT ISZERO PUSH2 0x7C0 JUMPI PUSH2 0x7BF PUSH2 0xBC4 JUMP JUMPDEST JUMPDEST PUSH1 0x0 PUSH2 0x7CE DUP6 DUP3 DUP7 ADD PUSH2 0x6C8 JUMP JUMPDEST SWAP3 POP POP PUSH1 0x20 PUSH2 0x7DF DUP6 DUP3 DUP7 ADD PUSH2 0x70B JUMP JUMPDEST SWAP2 POP POP SWAP3 POP SWAP3 SWAP1 POP JUMP JUMPDEST PUSH1 0x0 DUP1 PUSH1 0x40 DUP4 DUP6 SUB SLT ISZERO PUSH2 0x800 JUMPI PUSH2 0x7FF PUSH2 0xBC4 JUMP JUMPDEST JUMPDEST PUSH1 0x0 DUP4 ADD CALLDATALOAD PUSH8 0xFFFFFFFFFFFFFFFF DUP2 GT ISZERO PUSH2 0x81E JUMPI PUSH2 0x81D PUSH2 0xBBF JUMP JUMPDEST JUMPDEST PUSH2 0x82A DUP6 DUP3 DUP7 ADD PUSH2 0x6DD JUMP JUMPDEST SWAP3 POP POP PUSH1 0x20 PUSH2 0x83B DUP6 DUP3 DUP7 ADD PUSH2 0x70B JUMP JUMPDEST SWAP2 POP POP SWAP3 POP SWAP3 SWAP1 POP JUMP JUMPDEST PUSH2 0x84E DUP2 PUSH2 0xA76 JUMP JUMPDEST DUP3 MSTORE POP POP JUMP JUMPDEST PUSH1 0x0 PUSH2 0x85F DUP3 PUSH2 0xA4F JUMP JUMPDEST PUSH2 0x869 DUP2 DUP6 PUSH2 0xA5A JUMP JUMPDEST SWAP4 POP PUSH2 0x879 DUP2 DUP6 PUSH1 0x20 DUP7 ADD PUSH2 0xAC1 JUMP JUMPDEST PUSH2 0x882 DUP2 PUSH2 0xBC9 JUMP JUMPDEST DUP5 ADD SWAP2 POP POP SWAP3 SWAP2 POP POP JUMP JUMPDEST PUSH1 0x0 PUSH2 0x898 DUP3 PUSH2 0xA4F JUMP JUMPDEST PUSH2 0x8A2 DUP2 DUP6 PUSH2 0xA6B JUMP JUMPDEST SWAP4 POP PUSH2 0x8B2 DUP2 DUP6 PUSH1 0x20 DUP7 ADD PUSH2 0xAC1 JUMP JUMPDEST DUP1 DUP5 ADD SWAP2 POP POP SWAP3 SWAP2 POP POP JUMP JUMPDEST PUSH1 0x0 PUSH2 0x8CB PUSH1 0x25 DUP4 PUSH2 0xA5A JUMP JUMPDEST SWAP2 POP PUSH2 0x8D6 DUP3 PUSH2 0xBDA JUMP JUMPDEST PUSH1 0x40 DUP3 ADD SWAP1 POP SWAP2 SWAP1 POP JUMP JUMPDEST PUSH1 0x0 PUSH2 0x8EE PUSH1 0x30 DUP4 PUSH2 0xA5A JUMP JUMPDEST SWAP2 POP PUSH2 0x8F9 DUP3 PUSH2 0xC29 JUMP JUMPDEST PUSH1 0x40 DUP3 ADD SWAP1 POP SWAP2 SWAP1 POP JUMP JUMPDEST PUSH2 0x90D DUP2 PUSH2 0xAA8 JUMP JUMPDEST DUP3 MSTORE POP POP JUMP JUMPDEST PUSH1 0x0 PUSH2 0x91F DUP3 DUP5 PUSH2 0x88D JUMP JUMPDEST SWAP2 POP DUP2 SWAP1 POP SWAP3 SWAP2 POP POP JUMP JUMPDEST PUSH1 0x0 PUSH1 0x20 DUP3 ADD SWAP1 POP PUSH2 0x93F PUSH1 0x0 DUP4 ADD DUP5 PUSH2 0x845 JUMP JUMPDEST SWAP3 SWAP2 POP POP JUMP JUMPDEST PUSH1 0x0 PUSH1 0x40 DUP3 ADD SWAP1 POP PUSH2 0x95A PUSH1 0x0 DUP4 ADD DUP6 PUSH2 0x845 JUMP JUMPDEST PUSH2 0x967 PUSH1 0x20 DUP4 ADD DUP5 PUSH2 0x904 JUMP JUMPDEST SWAP4 SWAP3 POP POP POP JUMP JUMPDEST PUSH1 0x0 PUSH1 0x40 DUP3 ADD SWAP1 POP DUP2 DUP2 SUB PUSH1 0x0 DUP4 ADD MSTORE PUSH2 0x988 DUP2 DUP6 PUSH2 0x854 JUMP JUMPDEST SWAP1 POP PUSH2 0x997 PUSH1 0x20 DUP4 ADD DUP5 PUSH2 0x904 JUMP JUMPDEST SWAP4 SWAP3 POP POP POP JUMP JUMPDEST PUSH1 0x0 PUSH1 0x20 DUP3 ADD SWAP1 POP DUP2 DUP2 SUB PUSH1 0x0 DUP4 ADD MSTORE PUSH2 0x9B7 DUP2 PUSH2 0x8BE JUMP JUMPDEST SWAP1 POP SWAP2 SWAP1 POP JUMP JUMPDEST PUSH1 0x0 PUSH1 0x20 DUP3 ADD SWAP1 POP DUP2 DUP2 SUB PUSH1 0x0 DUP4 ADD MSTORE PUSH2 0x9D7 DUP2 PUSH2 0x8E1 JUMP JUMPDEST SWAP1 POP SWAP2 SWAP1 POP JUMP JUMPDEST PUSH1 0x0 PUSH1 0x20 DUP3 ADD SWAP1 POP PUSH2 0x9F3 PUSH1 0x0 DUP4 ADD DUP5 PUSH2 0x904 JUMP JUMPDEST SWAP3 SWAP2 POP POP JUMP JUMPDEST PUSH1 0x0 PUSH2 0xA03 PUSH2 0xA14 JUMP JUMPDEST SWAP1 POP PUSH2 0xA0F DUP3 DUP3 PUSH2 0xB26 JUMP JUMPDEST SWAP2 SWAP1 POP JUMP JUMPDEST PUSH1 0x0 PUSH1 0x40 MLOAD SWAP1 POP SWAP1 JUMP JUMPDEST PUSH1 0x0 PUSH8 0xFFFFFFFFFFFFFFFF DUP3 GT ISZERO PUSH2 0xA39 JUMPI PUSH2 0xA38 PUSH2 0xB86 JUMP JUMPDEST JUMPDEST PUSH2 0xA42 DUP3 PUSH2 0xBC9 JUMP JUMPDEST SWAP1 POP PUSH1 0x20 DUP2 ADD SWAP1 POP SWAP2 SWAP1 POP JUMP JUMPDEST PUSH1 0x0 DUP2 MLOAD SWAP1 POP SWAP2 SWAP1 POP JUMP JUMPDEST PUSH1 0x0 DUP3 DUP3 MSTORE PUSH1 0x20 DUP3 ADD SWAP1 POP SWAP3 SWAP2 POP POP JUMP JUMPDEST PUSH1 0x0 DUP2 SWAP1 POP SWAP3 SWAP2 POP POP JUMP JUMPDEST PUSH1 0x0 PUSH2 0xA81 DUP3 PUSH2 0xA88 JUMP JUMPDEST SWAP1 POP SWAP2 SWAP1 POP JUMP JUMPDEST PUSH1 0x0 PUSH20 0xFFFFFFFFFFFFFFFFFFFFFFFFFFFFFFFFFFFFFFFF DUP3 AND SWAP1 POP SWAP2 SWAP1 POP JUMP JUMPDEST PUSH1 0x0 DUP2 SWAP1 POP SWAP2 SWAP1 POP JUMP JUMPDEST DUP3 DUP2 DUP4 CALLDATACOPY PUSH1 0x0 DUP4 DUP4 ADD MSTORE POP POP POP JUMP JUMPDEST PUSH1 0x0 JUMPDEST DUP4 DUP2 LT ISZERO PUSH2 0xADF JUMPI DUP1 DUP3 ADD MLOAD DUP2 DUP5 ADD MSTORE PUSH1 0x20 DUP2 ADD SWAP1 POP PUSH2 0xAC4 JUMP JUMPDEST DUP4 DUP2 GT ISZERO PUSH2 0xAEE JUMPI PUSH1 0x0 DUP5 DUP5 ADD MSTORE JUMPDEST POP POP POP POP JUMP JUMPDEST PUSH1 0x0 PUSH1 0x2 DUP3 DIV SWAP1 POP PUSH1 0x1 DUP3 AND DUP1 PUSH2 0xB0C JUMPI PUSH1 0x7F DUP3 AND SWAP2 POP JUMPDEST PUSH1 0x20 DUP3 LT DUP2 EQ ISZERO PUSH2 0xB20 JUMPI PUSH2 0xB1F PUSH2 0xB57 JUMP JUMPDEST JUMPDEST POP SWAP2 SWAP1 POP JUMP JUMPDEST PUSH2 0xB2F DUP3 PUSH2 0xBC9 JUMP JUMPDEST DUP2 ADD DUP2 DUP2 LT PUSH8 0xFFFFFFFFFFFFFFFF DUP3 GT OR ISZERO PUSH2 0xB4E JUMPI PUSH2 0xB4D PUSH2 0xB86 JUMP JUMPDEST JUMPDEST DUP1 PUSH1 0x40 MSTORE POP POP POP JUMP JUMPDEST PUSH32 0x4E487B7100000000000000000000000000000000000000000000000000000000 PUSH1 0x0 MSTORE PUSH1 0x22 PUSH1 0x4 MSTORE PUSH1 0x24 PUSH1 0x0 REVERT JUMPDEST PUSH32 0x4E487B7100000000000000000000000000000000000000000000000000000000 PUSH1 0x0 MSTORE PUSH1 0x41 PUSH1 0x4 MSTORE PUSH1 0x24 PUSH1 0x0 REVERT JUMPDEST PUSH1 0x0 DUP1 REVERT JUMPDEST PUSH1 0x0 DUP1 REVERT JUMPDEST PUSH1 0x0 DUP1 REVERT JUMPDEST PUSH1 0x0 DUP1 REVERT JUMPDEST PUSH1 0x0 PUSH1 0x1F NOT PUSH1 0x1F DUP4 ADD AND SWAP1 POP SWAP2 SWAP1 POP JUMP JUMPDEST PUSH32 0x596120746520656E6375656E74726173207265676973747261646F20656E2065 PUSH1 0x0 DUP3 ADD MSTORE PUSH32 0x6C2067796D000000000000000000000000000000000000000000000000000000 PUSH1 0x20 DUP3 ADD MSTORE POP JUMP JUMPDEST PUSH32 0x536F6C6F20656C2041646D696E6973747261646F722064656C2047796D207075 PUSH1 0x0 DUP3 ADD MSTORE PUSH32 0x65646520637265617220636C6173657300000000000000000000000000000000 PUSH1 0x20 DUP3 ADD MSTORE POP JUMP JUMPDEST PUSH2 0xC81 DUP2 PUSH2 0xA76 JUMP JUMPDEST DUP2 EQ PUSH2 0xC8C JUMPI PUSH1 0x0 DUP1 REVERT JUMPDEST POP JUMP JUMPDEST PUSH2 0xC98 DUP2 PUSH2 0xAA8 JUMP JUMPDEST DUP2 EQ PUSH2 0xCA3 JUMPI PUSH1 0x0 DUP1 REVERT JUMPDEST POP JUMP INVALID LOG2 PUSH5 0x6970667358 0x22 SLT KECCAK256 0xAC 0xF6 0x4F MUL 0xD1 CALLDATALOAD NUMBER PUSH11 0xB348EB73AF1B0FBB9AB23A PUSH7 0xC163FF722B632A PUSH26 0xC5591DA664736F6C634300080700330000000000000000000000 "
				},
				"gasEstimates": {
					"creation": {
						"codeDepositCost": "658400",
						"executionCost": "infinite",
						"totalCost": "infinite"
					},
					"external": {
						"ADMIN()": "infinite",
						"clases(address,string)": "infinite",
						"class()": "infinite",
						"createClass(string,uint256)": "infinite",
						"getBalance()": "2711",
						"getClass()": "144",
						"register(address,uint256)": "infinite",
						"users(address)": "2858"
					}
				},
				"methodIdentifiers": {
					"ADMIN()": "2a0acc6a",
					"clases(address,string)": "035af4ca",
					"class()": "bff852fa",
					"createClass(string,uint256)": "4852a212",
					"getBalance()": "12065fe0",
					"getClass()": "57e61ea4",
					"register(address,uint256)": "6d705ebb",
					"users(address)": "a87430ba"
				}
			},
			"storageLayout": {
				"storage": [
					{
						"astId": 33,
						"contract": "contracts/Gym_Contact.sol:gym",
						"label": "users",
						"offset": 0,
						"slot": "0",
						"type": "t_mapping(t_address,t_uint256)"
					},
					{
						"astId": 40,
						"contract": "contracts/Gym_Contact.sol:gym",
						"label": "clases",
						"offset": 0,
						"slot": "1",
						"type": "t_mapping(t_address,t_mapping(t_string_memory_ptr,t_struct(Class)6_storage))"
					},
					{
						"astId": 43,
						"contract": "contracts/Gym_Contact.sol:gym",
						"label": "class",
						"offset": 0,
						"slot": "2",
						"type": "t_struct(Class)6_storage"
					}
				],
				"types": {
					"t_address": {
						"encoding": "inplace",
						"label": "address",
						"numberOfBytes": "20"
					},
					"t_mapping(t_address,t_mapping(t_string_memory_ptr,t_struct(Class)6_storage))": {
						"encoding": "mapping",
						"key": "t_address",
						"label": "mapping(address => mapping(string => struct gym.Class))",
						"numberOfBytes": "32",
						"value": "t_mapping(t_string_memory_ptr,t_struct(Class)6_storage)"
					},
					"t_mapping(t_address,t_uint256)": {
						"encoding": "mapping",
						"key": "t_address",
						"label": "mapping(address => uint256)",
						"numberOfBytes": "32",
						"value": "t_uint256"
					},
					"t_mapping(t_string_memory_ptr,t_struct(Class)6_storage)": {
						"encoding": "mapping",
						"key": "t_string_memory_ptr",
						"label": "mapping(string => struct gym.Class)",
						"numberOfBytes": "32",
						"value": "t_struct(Class)6_storage"
					},
					"t_string_memory_ptr": {
						"encoding": "bytes",
						"label": "string",
						"numberOfBytes": "32"
					},
					"t_string_storage": {
						"encoding": "bytes",
						"label": "string",
						"numberOfBytes": "32"
					},
					"t_struct(Class)6_storage": {
						"encoding": "inplace",
						"label": "struct gym.Class",
						"members": [
							{
								"astId": 3,
								"contract": "contracts/Gym_Contact.sol:gym",
								"label": "name",
								"offset": 0,
								"slot": "0",
								"type": "t_string_storage"
							},
							{
								"astId": 5,
								"contract": "contracts/Gym_Contact.sol:gym",
								"label": "value",
								"offset": 0,
								"slot": "1",
								"type": "t_uint256"
							}
						],
						"numberOfBytes": "64"
					},
					"t_uint256": {
						"encoding": "inplace",
						"label": "uint256",
						"numberOfBytes": "32"
					}
				}
			},
			"userdoc": {
				"kind": "user",
				"methods": {},
				"version": 1
			}
		}
	}
}